{
	"Foundations and Solidity/Solidity/tryit/enums.sol": {
		"enum1": {
			"abi": [
				{
					"inputs": [],
					"name": "getChoice",
					"outputs": [
						{
							"internalType": "enum enum1.ActionChoices",
							"name": "",
							"type": "uint8"
						}
					],
					"stateMutability": "view",
					"type": "function"
				},
				{
					"inputs": [],
					"name": "getdefaultchoice",
					"outputs": [
						{
							"internalType": "uint8",
							"name": "",
							"type": "uint8"
						}
					],
					"stateMutability": "pure",
					"type": "function"
				},
				{
					"inputs": [],
					"name": "getlargestvalue",
					"outputs": [
						{
							"internalType": "enum enum1.ActionChoices",
							"name": "",
							"type": "uint8"
						}
					],
					"stateMutability": "pure",
					"type": "function"
				},
				{
					"inputs": [],
					"name": "getlowestvalue",
					"outputs": [
						{
							"internalType": "enum enum1.ActionChoices",
							"name": "",
							"type": "uint8"
						}
					],
					"stateMutability": "pure",
					"type": "function"
				},
				{
					"inputs": [],
					"name": "setgostraight",
					"outputs": [],
					"stateMutability": "nonpayable",
					"type": "function"
				}
			],
			"devdoc": {
				"kind": "dev",
				"methods": {},
				"version": 1
			},
			"evm": {
				"assembly": "    /* \"Foundations and Solidity/Solidity/tryit/enums.sol\":79:976  contract enum1 {... */\n  mstore(0x40, 0x80)\n  callvalue\n  dup1\n  iszero\n  tag_1\n  jumpi\n  revert(0x00, 0x00)\ntag_1:\n  pop\n  dataSize(sub_0)\n  dup1\n  dataOffset(sub_0)\n  0x00\n  codecopy\n  0x00\n  return\nstop\n\nsub_0: assembly {\n        /* \"Foundations and Solidity/Solidity/tryit/enums.sol\":79:976  contract enum1 {... */\n      mstore(0x40, 0x80)\n      callvalue\n      dup1\n      iszero\n      tag_1\n      jumpi\n      revert(0x00, 0x00)\n    tag_1:\n      pop\n      jumpi(tag_2, lt(calldatasize, 0x04))\n      shr(0xe0, calldataload(0x00))\n      dup1\n      0x67cb61b6\n      eq\n      tag_3\n      jumpi\n      dup1\n      0x86d6f9cf\n      eq\n      tag_4\n      jumpi\n      dup1\n      0xbedf6da9\n      eq\n      tag_5\n      jumpi\n      dup1\n      0xcc88b911\n      eq\n      tag_6\n      jumpi\n      dup1\n      0xcfa7433e\n      eq\n      tag_7\n      jumpi\n    tag_2:\n      revert(0x00, 0x00)\n        /* \"Foundations and Solidity/Solidity/tryit/enums.sol\":555:640  function getChoice() public view returns (ActionChoices) {... */\n    tag_3:\n      tag_8\n      tag_9\n      jump\t// in\n    tag_8:\n      mload(0x40)\n      tag_10\n      swap2\n      swap1\n      tag_11\n      jump\t// in\n    tag_10:\n      mload(0x40)\n      dup1\n      swap2\n      sub\n      swap1\n      return\n        /* \"Foundations and Solidity/Solidity/tryit/enums.sol\":866:971  function getlowestvalue() public pure returns(ActionChoices) {... */\n    tag_4:\n      tag_12\n      tag_13\n      jump\t// in\n    tag_12:\n      mload(0x40)\n      tag_14\n      swap2\n      swap1\n      tag_11\n      jump\t// in\n    tag_14:\n      mload(0x40)\n      dup1\n      swap2\n      sub\n      swap1\n      return\n        /* \"Foundations and Solidity/Solidity/tryit/enums.sol\":265:349  function setgostraight() public {... */\n    tag_5:\n      tag_15\n      tag_16\n      jump\t// in\n    tag_15:\n      stop\n        /* \"Foundations and Solidity/Solidity/tryit/enums.sol\":751:859  function getlargestvalue() public pure  returns (ActionChoices) {... */\n    tag_6:\n      tag_17\n      tag_18\n      jump\t// in\n    tag_17:\n      mload(0x40)\n      tag_19\n      swap2\n      swap1\n      tag_11\n      jump\t// in\n    tag_19:\n      mload(0x40)\n      dup1\n      swap2\n      sub\n      swap1\n      return\n        /* \"Foundations and Solidity/Solidity/tryit/enums.sol\":647:744  function getdefaultchoice() public pure returns (uint8) {... */\n    tag_7:\n      tag_20\n      tag_21\n      jump\t// in\n    tag_20:\n      mload(0x40)\n      tag_22\n      swap2\n      swap1\n      tag_23\n      jump\t// in\n    tag_22:\n      mload(0x40)\n      dup1\n      swap2\n      sub\n      swap1\n      return\n        /* \"Foundations and Solidity/Solidity/tryit/enums.sol\":555:640  function getChoice() public view returns (ActionChoices) {... */\n    tag_9:\n        /* \"Foundations and Solidity/Solidity/tryit/enums.sol\":597:610  ActionChoices */\n      0x00\n        /* \"Foundations and Solidity/Solidity/tryit/enums.sol\":626:633  choices */\n      0x00\n      0x00\n      swap1\n      sload\n      swap1\n      0x0100\n      exp\n      swap1\n      div\n      0xff\n      and\n        /* \"Foundations and Solidity/Solidity/tryit/enums.sol\":619:633  return choices */\n      swap1\n      pop\n        /* \"Foundations and Solidity/Solidity/tryit/enums.sol\":555:640  function getChoice() public view returns (ActionChoices) {... */\n      swap1\n      jump\t// out\n        /* \"Foundations and Solidity/Solidity/tryit/enums.sol\":866:971  function getlowestvalue() public pure returns(ActionChoices) {... */\n    tag_13:\n        /* \"Foundations and Solidity/Solidity/tryit/enums.sol\":912:925  ActionChoices */\n      0x00\n        /* \"Foundations and Solidity/Solidity/tryit/enums.sol\":941:964  type(ActionChoices).min */\n      0x00\n        /* \"Foundations and Solidity/Solidity/tryit/enums.sol\":934:964  return type(ActionChoices).min */\n      swap1\n      pop\n        /* \"Foundations and Solidity/Solidity/tryit/enums.sol\":866:971  function getlowestvalue() public pure returns(ActionChoices) {... */\n      swap1\n      jump\t// out\n        /* \"Foundations and Solidity/Solidity/tryit/enums.sol\":265:349  function setgostraight() public {... */\n    tag_16:\n        /* \"Foundations and Solidity/Solidity/tryit/enums.sol\":318:341  ActionChoices.GoSraight */\n      0x02\n        /* \"Foundations and Solidity/Solidity/tryit/enums.sol\":308:315  choices */\n      0x00\n      0x00\n        /* \"Foundations and Solidity/Solidity/tryit/enums.sol\":308:341  choices = ActionChoices.GoSraight */\n      0x0100\n      exp\n      dup2\n      sload\n      dup2\n      0xff\n      mul\n      not\n      and\n      swap1\n      dup4\n      0x03\n      dup2\n      gt\n      iszero\n      tag_27\n      jumpi\n      tag_28\n      tag_29\n      jump\t// in\n    tag_28:\n    tag_27:\n      mul\n      or\n      swap1\n      sstore\n      pop\n        /* \"Foundations and Solidity/Solidity/tryit/enums.sol\":265:349  function setgostraight() public {... */\n      jump\t// out\n        /* \"Foundations and Solidity/Solidity/tryit/enums.sol\":751:859  function getlargestvalue() public pure  returns (ActionChoices) {... */\n    tag_18:\n        /* \"Foundations and Solidity/Solidity/tryit/enums.sol\":800:813  ActionChoices */\n      0x00\n        /* \"Foundations and Solidity/Solidity/tryit/enums.sol\":829:852  type(ActionChoices).max */\n      0x03\n        /* \"Foundations and Solidity/Solidity/tryit/enums.sol\":822:852  return type(ActionChoices).max */\n      swap1\n      pop\n        /* \"Foundations and Solidity/Solidity/tryit/enums.sol\":751:859  function getlargestvalue() public pure  returns (ActionChoices) {... */\n      swap1\n      jump\t// out\n        /* \"Foundations and Solidity/Solidity/tryit/enums.sol\":647:744  function getdefaultchoice() public pure returns (uint8) {... */\n    tag_21:\n        /* \"Foundations and Solidity/Solidity/tryit/enums.sol\":696:701  uint8 */\n      0x00\n        /* \"Foundations and Solidity/Solidity/tryit/enums.sol\":233:256  ActionChoices.GoSraight */\n      0x02\n        /* \"Foundations and Solidity/Solidity/tryit/enums.sol\":717:737  uint8(defaultChoice) */\n      0x03\n      dup2\n      gt\n      iszero\n      tag_32\n      jumpi\n      tag_33\n      tag_29\n      jump\t// in\n    tag_33:\n    tag_32:\n        /* \"Foundations and Solidity/Solidity/tryit/enums.sol\":710:737  return uint8(defaultChoice) */\n      swap1\n      pop\n        /* \"Foundations and Solidity/Solidity/tryit/enums.sol\":647:744  function getdefaultchoice() public pure returns (uint8) {... */\n      swap1\n      jump\t// out\n        /* \"#utility.yul\":7:187   */\n    tag_29:\n        /* \"#utility.yul\":55:132   */\n      0x4e487b7100000000000000000000000000000000000000000000000000000000\n        /* \"#utility.yul\":52:53   */\n      0x00\n        /* \"#utility.yul\":45:133   */\n      mstore\n        /* \"#utility.yul\":152:156   */\n      0x21\n        /* \"#utility.yul\":149:150   */\n      0x04\n        /* \"#utility.yul\":142:157   */\n      mstore\n        /* \"#utility.yul\":176:180   */\n      0x24\n        /* \"#utility.yul\":173:174   */\n      0x00\n        /* \"#utility.yul\":166:181   */\n      revert\n        /* \"#utility.yul\":193:313   */\n    tag_34:\n        /* \"#utility.yul\":281:282   */\n      0x04\n        /* \"#utility.yul\":274:279   */\n      dup2\n        /* \"#utility.yul\":271:283   */\n      lt\n        /* \"#utility.yul\":261:307   */\n      tag_43\n      jumpi\n        /* \"#utility.yul\":287:305   */\n      tag_44\n      tag_29\n      jump\t// in\n    tag_44:\n        /* \"#utility.yul\":261:307   */\n    tag_43:\n        /* \"#utility.yul\":193:313   */\n      pop\n      jump\t// out\n        /* \"#utility.yul\":319:460   */\n    tag_35:\n        /* \"#utility.yul\":371:378   */\n      0x00\n        /* \"#utility.yul\":400:405   */\n      dup2\n        /* \"#utility.yul\":389:405   */\n      swap1\n      pop\n        /* \"#utility.yul\":406:454   */\n      tag_46\n        /* \"#utility.yul\":448:453   */\n      dup3\n        /* \"#utility.yul\":406:454   */\n      tag_34\n      jump\t// in\n    tag_46:\n        /* \"#utility.yul\":319:460   */\n      swap2\n      swap1\n      pop\n      jump\t// out\n        /* \"#utility.yul\":466:607   */\n    tag_36:\n        /* \"#utility.yul\":529:538   */\n      0x00\n        /* \"#utility.yul\":562:601   */\n      tag_48\n        /* \"#utility.yul\":595:600   */\n      dup3\n        /* \"#utility.yul\":562:601   */\n      tag_35\n      jump\t// in\n    tag_48:\n        /* \"#utility.yul\":549:601   */\n      swap1\n      pop\n        /* \"#utility.yul\":466:607   */\n      swap2\n      swap1\n      pop\n      jump\t// out\n        /* \"#utility.yul\":613:770   */\n    tag_37:\n        /* \"#utility.yul\":713:763   */\n      tag_50\n        /* \"#utility.yul\":757:762   */\n      dup2\n        /* \"#utility.yul\":713:763   */\n      tag_36\n      jump\t// in\n    tag_50:\n        /* \"#utility.yul\":708:711   */\n      dup3\n        /* \"#utility.yul\":701:764   */\n      mstore\n        /* \"#utility.yul\":613:770   */\n      pop\n      pop\n      jump\t// out\n        /* \"#utility.yul\":776:1024   */\n    tag_11:\n        /* \"#utility.yul\":882:886   */\n      0x00\n        /* \"#utility.yul\":920:922   */\n      0x20\n        /* \"#utility.yul\":909:918   */\n      dup3\n        /* \"#utility.yul\":905:923   */\n      add\n        /* \"#utility.yul\":897:923   */\n      swap1\n      pop\n        /* \"#utility.yul\":933:1017   */\n      tag_52\n        /* \"#utility.yul\":1014:1015   */\n      0x00\n        /* \"#utility.yul\":1003:1012   */\n      dup4\n        /* \"#utility.yul\":999:1016   */\n      add\n        /* \"#utility.yul\":990:996   */\n      dup5\n        /* \"#utility.yul\":933:1017   */\n      tag_37\n      jump\t// in\n    tag_52:\n        /* \"#utility.yul\":776:1024   */\n      swap3\n      swap2\n      pop\n      pop\n      jump\t// out\n        /* \"#utility.yul\":1030:1116   */\n    tag_38:\n        /* \"#utility.yul\":1065:1072   */\n      0x00\n        /* \"#utility.yul\":1105:1109   */\n      0xff\n        /* \"#utility.yul\":1098:1103   */\n      dup3\n        /* \"#utility.yul\":1094:1110   */\n      and\n        /* \"#utility.yul\":1083:1110   */\n      swap1\n      pop\n        /* \"#utility.yul\":1030:1116   */\n      swap2\n      swap1\n      pop\n      jump\t// out\n        /* \"#utility.yul\":1122:1234   */\n    tag_39:\n        /* \"#utility.yul\":1205:1227   */\n      tag_55\n        /* \"#utility.yul\":1221:1226   */\n      dup2\n        /* \"#utility.yul\":1205:1227   */\n      tag_38\n      jump\t// in\n    tag_55:\n        /* \"#utility.yul\":1200:1203   */\n      dup3\n        /* \"#utility.yul\":1193:1228   */\n      mstore\n        /* \"#utility.yul\":1122:1234   */\n      pop\n      pop\n      jump\t// out\n        /* \"#utility.yul\":1240:1454   */\n    tag_23:\n        /* \"#utility.yul\":1329:1333   */\n      0x00\n        /* \"#utility.yul\":1367:1369   */\n      0x20\n        /* \"#utility.yul\":1356:1365   */\n      dup3\n        /* \"#utility.yul\":1352:1370   */\n      add\n        /* \"#utility.yul\":1344:1370   */\n      swap1\n      pop\n        /* \"#utility.yul\":1380:1447   */\n      tag_57\n        /* \"#utility.yul\":1444:1445   */\n      0x00\n        /* \"#utility.yul\":1433:1442   */\n      dup4\n        /* \"#utility.yul\":1429:1446   */\n      add\n        /* \"#utility.yul\":1420:1426   */\n      dup5\n        /* \"#utility.yul\":1380:1447   */\n      tag_39\n      jump\t// in\n    tag_57:\n        /* \"#utility.yul\":1240:1454   */\n      swap3\n      swap2\n      pop\n      pop\n      jump\t// out\n\n    auxdata: 0xa26469706673582212207c1278cefd506c093d699ae3c10801cb083337c2c1f75192a4ff1c899d8751b564736f6c634300081e0033\n}\n",
				"bytecode": {
					"linkReferences": {},
					"object": "6080604052348015600e575f5ffd5b506102398061001c5f395ff3fe608060405234801561000f575f5ffd5b5060043610610055575f3560e01c806367cb61b61461005957806386d6f9cf14610077578063bedf6da914610095578063cc88b9111461009f578063cfa7433e146100bd575b5f5ffd5b6100616100db565b60405161006e91906101b6565b60405180910390f35b61007f6100ef565b60405161008c91906101b6565b60405180910390f35b61009d6100f6565b005b6100a7610121565b6040516100b491906101b6565b60405180910390f35b6100c5610129565b6040516100d291906101ea565b60405180910390f35b5f5f5f9054906101000a900460ff16905090565b5f5f905090565b60025f5f6101000a81548160ff0219169083600381111561011a57610119610143565b5b0217905550565b5f6003905090565b5f6002600381111561013e5761013d610143565b5b905090565b7f4e487b71000000000000000000000000000000000000000000000000000000005f52602160045260245ffd5b6004811061018157610180610143565b5b50565b5f81905061019182610170565b919050565b5f6101a082610184565b9050919050565b6101b081610196565b82525050565b5f6020820190506101c95f8301846101a7565b92915050565b5f60ff82169050919050565b6101e4816101cf565b82525050565b5f6020820190506101fd5f8301846101db565b9291505056fea26469706673582212207c1278cefd506c093d699ae3c10801cb083337c2c1f75192a4ff1c899d8751b564736f6c634300081e0033",
					"opcodes": "PUSH1 0x80 PUSH1 0x40 MSTORE CALLVALUE DUP1 ISZERO PUSH1 0xE JUMPI PUSH0 PUSH0 REVERT JUMPDEST POP PUSH2 0x239 DUP1 PUSH2 0x1C PUSH0 CODECOPY PUSH0 RETURN INVALID PUSH1 0x80 PUSH1 0x40 MSTORE CALLVALUE DUP1 ISZERO PUSH2 0xF JUMPI PUSH0 PUSH0 REVERT JUMPDEST POP PUSH1 0x4 CALLDATASIZE LT PUSH2 0x55 JUMPI PUSH0 CALLDATALOAD PUSH1 0xE0 SHR DUP1 PUSH4 0x67CB61B6 EQ PUSH2 0x59 JUMPI DUP1 PUSH4 0x86D6F9CF EQ PUSH2 0x77 JUMPI DUP1 PUSH4 0xBEDF6DA9 EQ PUSH2 0x95 JUMPI DUP1 PUSH4 0xCC88B911 EQ PUSH2 0x9F JUMPI DUP1 PUSH4 0xCFA7433E EQ PUSH2 0xBD JUMPI JUMPDEST PUSH0 PUSH0 REVERT JUMPDEST PUSH2 0x61 PUSH2 0xDB JUMP JUMPDEST PUSH1 0x40 MLOAD PUSH2 0x6E SWAP2 SWAP1 PUSH2 0x1B6 JUMP JUMPDEST PUSH1 0x40 MLOAD DUP1 SWAP2 SUB SWAP1 RETURN JUMPDEST PUSH2 0x7F PUSH2 0xEF JUMP JUMPDEST PUSH1 0x40 MLOAD PUSH2 0x8C SWAP2 SWAP1 PUSH2 0x1B6 JUMP JUMPDEST PUSH1 0x40 MLOAD DUP1 SWAP2 SUB SWAP1 RETURN JUMPDEST PUSH2 0x9D PUSH2 0xF6 JUMP JUMPDEST STOP JUMPDEST PUSH2 0xA7 PUSH2 0x121 JUMP JUMPDEST PUSH1 0x40 MLOAD PUSH2 0xB4 SWAP2 SWAP1 PUSH2 0x1B6 JUMP JUMPDEST PUSH1 0x40 MLOAD DUP1 SWAP2 SUB SWAP1 RETURN JUMPDEST PUSH2 0xC5 PUSH2 0x129 JUMP JUMPDEST PUSH1 0x40 MLOAD PUSH2 0xD2 SWAP2 SWAP1 PUSH2 0x1EA JUMP JUMPDEST PUSH1 0x40 MLOAD DUP1 SWAP2 SUB SWAP1 RETURN JUMPDEST PUSH0 PUSH0 PUSH0 SWAP1 SLOAD SWAP1 PUSH2 0x100 EXP SWAP1 DIV PUSH1 0xFF AND SWAP1 POP SWAP1 JUMP JUMPDEST PUSH0 PUSH0 SWAP1 POP SWAP1 JUMP JUMPDEST PUSH1 0x2 PUSH0 PUSH0 PUSH2 0x100 EXP DUP2 SLOAD DUP2 PUSH1 0xFF MUL NOT AND SWAP1 DUP4 PUSH1 0x3 DUP2 GT ISZERO PUSH2 0x11A JUMPI PUSH2 0x119 PUSH2 0x143 JUMP JUMPDEST JUMPDEST MUL OR SWAP1 SSTORE POP JUMP JUMPDEST PUSH0 PUSH1 0x3 SWAP1 POP SWAP1 JUMP JUMPDEST PUSH0 PUSH1 0x2 PUSH1 0x3 DUP2 GT ISZERO PUSH2 0x13E JUMPI PUSH2 0x13D PUSH2 0x143 JUMP JUMPDEST JUMPDEST SWAP1 POP SWAP1 JUMP JUMPDEST PUSH32 0x4E487B7100000000000000000000000000000000000000000000000000000000 PUSH0 MSTORE PUSH1 0x21 PUSH1 0x4 MSTORE PUSH1 0x24 PUSH0 REVERT JUMPDEST PUSH1 0x4 DUP2 LT PUSH2 0x181 JUMPI PUSH2 0x180 PUSH2 0x143 JUMP JUMPDEST JUMPDEST POP JUMP JUMPDEST PUSH0 DUP2 SWAP1 POP PUSH2 0x191 DUP3 PUSH2 0x170 JUMP JUMPDEST SWAP2 SWAP1 POP JUMP JUMPDEST PUSH0 PUSH2 0x1A0 DUP3 PUSH2 0x184 JUMP JUMPDEST SWAP1 POP SWAP2 SWAP1 POP JUMP JUMPDEST PUSH2 0x1B0 DUP2 PUSH2 0x196 JUMP JUMPDEST DUP3 MSTORE POP POP JUMP JUMPDEST PUSH0 PUSH1 0x20 DUP3 ADD SWAP1 POP PUSH2 0x1C9 PUSH0 DUP4 ADD DUP5 PUSH2 0x1A7 JUMP JUMPDEST SWAP3 SWAP2 POP POP JUMP JUMPDEST PUSH0 PUSH1 0xFF DUP3 AND SWAP1 POP SWAP2 SWAP1 POP JUMP JUMPDEST PUSH2 0x1E4 DUP2 PUSH2 0x1CF JUMP JUMPDEST DUP3 MSTORE POP POP JUMP JUMPDEST PUSH0 PUSH1 0x20 DUP3 ADD SWAP1 POP PUSH2 0x1FD PUSH0 DUP4 ADD DUP5 PUSH2 0x1DB JUMP JUMPDEST SWAP3 SWAP2 POP POP JUMP INVALID LOG2 PUSH5 0x6970667358 0x22 SLT KECCAK256 PUSH29 0x1278CEFD506C093D699AE3C10801CB083337C2C1F75192A4FF1C899D87 MLOAD 0xB5 PUSH5 0x736F6C6343 STOP ADDMOD 0x1E STOP CALLER "
				},
				"gasEstimates": {
					"creation": {
						"codeDepositCost": "113800",
						"executionCost": "157",
						"totalCost": "113957"
					},
					"external": {
						"getChoice()": "2538",
						"getdefaultchoice()": "430",
						"getlargestvalue()": "470",
						"getlowestvalue()": "425",
						"setgostraight()": "24450"
					}
				},
				"methodIdentifiers": {
					"getChoice()": "67cb61b6",
					"getdefaultchoice()": "cfa7433e",
					"getlargestvalue()": "cc88b911",
					"getlowestvalue()": "86d6f9cf",
					"setgostraight()": "bedf6da9"
				}
			},
			"storageLayout": {
				"storage": [
					{
						"astId": 9,
						"contract": "Foundations and Solidity/Solidity/tryit/enums.sol:enum1",
						"label": "choices",
						"offset": 0,
						"slot": "0",
						"type": "t_enum(ActionChoices)6"
					}
				],
				"types": {
					"t_enum(ActionChoices)6": {
						"encoding": "inplace",
						"label": "enum enum1.ActionChoices",
						"numberOfBytes": "1"
					}
				}
			},
			"userdoc": {
				"kind": "user",
				"methods": {},
				"version": 1
			}
		}
	}
}