{
	"tryit/calculator.sol": {
		"calculator": {
			"abi": [
				{
					"inputs": [
						{
							"internalType": "int256",
							"name": "a",
							"type": "int256"
						},
						{
							"internalType": "int256",
							"name": "b",
							"type": "int256"
						}
					],
					"name": "Add",
					"outputs": [
						{
							"internalType": "int256",
							"name": "",
							"type": "int256"
						}
					],
					"stateMutability": "pure",
					"type": "function"
				},
				{
					"inputs": [
						{
							"internalType": "int256",
							"name": "a",
							"type": "int256"
						},
						{
							"internalType": "int256",
							"name": "b",
							"type": "int256"
						}
					],
					"name": "Divide",
					"outputs": [
						{
							"internalType": "int256",
							"name": "",
							"type": "int256"
						}
					],
					"stateMutability": "pure",
					"type": "function"
				},
				{
					"inputs": [
						{
							"internalType": "int256",
							"name": "a",
							"type": "int256"
						},
						{
							"internalType": "int256",
							"name": "b",
							"type": "int256"
						}
					],
					"name": "Multiply",
					"outputs": [
						{
							"internalType": "int256",
							"name": "",
							"type": "int256"
						}
					],
					"stateMutability": "pure",
					"type": "function"
				},
				{
					"inputs": [
						{
							"internalType": "int256",
							"name": "a",
							"type": "int256"
						},
						{
							"internalType": "int256",
							"name": "b",
							"type": "int256"
						}
					],
					"name": "Subtract",
					"outputs": [
						{
							"internalType": "int256",
							"name": "",
							"type": "int256"
						}
					],
					"stateMutability": "pure",
					"type": "function"
				}
			],
			"devdoc": {
				"kind": "dev",
				"methods": {},
				"version": 1
			},
			"evm": {
				"assembly": "    /* \"tryit/calculator.sol\":68:570  contract calculator {... */\n  mstore(0x40, 0x80)\n  callvalue\n  dup1\n  iszero\n  tag_1\n  jumpi\n  revert(0x00, 0x00)\ntag_1:\n  pop\n  dataSize(sub_0)\n  dup1\n  dataOffset(sub_0)\n  0x00\n  codecopy\n  0x00\n  return\nstop\n\nsub_0: assembly {\n        /* \"tryit/calculator.sol\":68:570  contract calculator {... */\n      mstore(0x40, 0x80)\n      callvalue\n      dup1\n      iszero\n      tag_1\n      jumpi\n      revert(0x00, 0x00)\n    tag_1:\n      pop\n      jumpi(tag_2, lt(calldatasize, 0x04))\n      shr(0xe0, calldataload(0x00))\n      dup1\n      0x3e21f396\n      eq\n      tag_3\n      jumpi\n      dup1\n      0x830fb67c\n      eq\n      tag_4\n      jumpi\n      dup1\n      0x989c4f43\n      eq\n      tag_5\n      jumpi\n      dup1\n      0xa062519d\n      eq\n      tag_6\n      jumpi\n    tag_2:\n      revert(0x00, 0x00)\n        /* \"tryit/calculator.sol\":242:329  function Subtract(int a, int b) public pure returns (int) {... */\n    tag_3:\n      tag_7\n      0x04\n      dup1\n      calldatasize\n      sub\n      dup2\n      add\n      swap1\n      tag_8\n      swap2\n      swap1\n      tag_9\n      jump\t// in\n    tag_8:\n      tag_10\n      jump\t// in\n    tag_7:\n      mload(0x40)\n      tag_11\n      swap2\n      swap1\n      tag_12\n      jump\t// in\n    tag_11:\n      mload(0x40)\n      dup1\n      swap2\n      sub\n      swap1\n      return\n        /* \"tryit/calculator.sol\":118:202  function Add(int a, int b) public pure returns (int) {... */\n    tag_4:\n      tag_13\n      0x04\n      dup1\n      calldatasize\n      sub\n      dup2\n      add\n      swap1\n      tag_14\n      swap2\n      swap1\n      tag_9\n      jump\t// in\n    tag_14:\n      tag_15\n      jump\t// in\n    tag_13:\n      mload(0x40)\n      tag_16\n      swap2\n      swap1\n      tag_12\n      jump\t// in\n    tag_16:\n      mload(0x40)\n      dup1\n      swap2\n      sub\n      swap1\n      return\n        /* \"tryit/calculator.sol\":482:567  function Divide(int a ,int b) public pure returns (int) {... */\n    tag_5:\n      tag_17\n      0x04\n      dup1\n      calldatasize\n      sub\n      dup2\n      add\n      swap1\n      tag_18\n      swap2\n      swap1\n      tag_9\n      jump\t// in\n    tag_18:\n      tag_19\n      jump\t// in\n    tag_17:\n      mload(0x40)\n      tag_20\n      swap2\n      swap1\n      tag_12\n      jump\t// in\n    tag_20:\n      mload(0x40)\n      dup1\n      swap2\n      sub\n      swap1\n      return\n        /* \"tryit/calculator.sol\":363:450  function Multiply(int a, int b) public pure returns (int) {... */\n    tag_6:\n      tag_21\n      0x04\n      dup1\n      calldatasize\n      sub\n      dup2\n      add\n      swap1\n      tag_22\n      swap2\n      swap1\n      tag_9\n      jump\t// in\n    tag_22:\n      tag_23\n      jump\t// in\n    tag_21:\n      mload(0x40)\n      tag_24\n      swap2\n      swap1\n      tag_12\n      jump\t// in\n    tag_24:\n      mload(0x40)\n      dup1\n      swap2\n      sub\n      swap1\n      return\n        /* \"tryit/calculator.sol\":242:329  function Subtract(int a, int b) public pure returns (int) {... */\n    tag_10:\n        /* \"tryit/calculator.sol\":295:298  int */\n      0x00\n        /* \"tryit/calculator.sol\":320:321  b */\n      dup2\n        /* \"tryit/calculator.sol\":318:319  a */\n      dup4\n        /* \"tryit/calculator.sol\":318:321  a-b */\n      tag_26\n      swap2\n      swap1\n      tag_27\n      jump\t// in\n    tag_26:\n        /* \"tryit/calculator.sol\":311:321  return a-b */\n      swap1\n      pop\n        /* \"tryit/calculator.sol\":242:329  function Subtract(int a, int b) public pure returns (int) {... */\n      swap3\n      swap2\n      pop\n      pop\n      jump\t// out\n        /* \"tryit/calculator.sol\":118:202  function Add(int a, int b) public pure returns (int) {... */\n    tag_15:\n        /* \"tryit/calculator.sol\":166:169  int */\n      0x00\n        /* \"tryit/calculator.sol\":193:194  b */\n      dup2\n        /* \"tryit/calculator.sol\":189:190  a */\n      dup4\n        /* \"tryit/calculator.sol\":189:194  a + b */\n      tag_29\n      swap2\n      swap1\n      tag_30\n      jump\t// in\n    tag_29:\n        /* \"tryit/calculator.sol\":182:194  return a + b */\n      swap1\n      pop\n        /* \"tryit/calculator.sol\":118:202  function Add(int a, int b) public pure returns (int) {... */\n      swap3\n      swap2\n      pop\n      pop\n      jump\t// out\n        /* \"tryit/calculator.sol\":482:567  function Divide(int a ,int b) public pure returns (int) {... */\n    tag_19:\n        /* \"tryit/calculator.sol\":533:536  int */\n      0x00\n        /* \"tryit/calculator.sol\":558:559  b */\n      dup2\n        /* \"tryit/calculator.sol\":556:557  a */\n      dup4\n        /* \"tryit/calculator.sol\":556:559  a/b */\n      tag_32\n      swap2\n      swap1\n      tag_33\n      jump\t// in\n    tag_32:\n        /* \"tryit/calculator.sol\":549:559  return a/b */\n      swap1\n      pop\n        /* \"tryit/calculator.sol\":482:567  function Divide(int a ,int b) public pure returns (int) {... */\n      swap3\n      swap2\n      pop\n      pop\n      jump\t// out\n        /* \"tryit/calculator.sol\":363:450  function Multiply(int a, int b) public pure returns (int) {... */\n    tag_23:\n        /* \"tryit/calculator.sol\":416:419  int */\n      0x00\n        /* \"tryit/calculator.sol\":441:442  b */\n      dup2\n        /* \"tryit/calculator.sol\":439:440  a */\n      dup4\n        /* \"tryit/calculator.sol\":439:442  a*b */\n      tag_35\n      swap2\n      swap1\n      tag_36\n      jump\t// in\n    tag_35:\n        /* \"tryit/calculator.sol\":432:442  return a*b */\n      swap1\n      pop\n        /* \"tryit/calculator.sol\":363:450  function Multiply(int a, int b) public pure returns (int) {... */\n      swap3\n      swap2\n      pop\n      pop\n      jump\t// out\n        /* \"#utility.yul\":88:205   */\n    tag_38:\n        /* \"#utility.yul\":197:198   */\n      0x00\n        /* \"#utility.yul\":194:195   */\n      0x00\n        /* \"#utility.yul\":187:199   */\n      revert\n        /* \"#utility.yul\":334:410   */\n    tag_40:\n        /* \"#utility.yul\":370:377   */\n      0x00\n        /* \"#utility.yul\":399:404   */\n      dup2\n        /* \"#utility.yul\":388:404   */\n      swap1\n      pop\n        /* \"#utility.yul\":334:410   */\n      swap2\n      swap1\n      pop\n      jump\t// out\n        /* \"#utility.yul\":416:536   */\n    tag_41:\n        /* \"#utility.yul\":488:511   */\n      tag_52\n        /* \"#utility.yul\":505:510   */\n      dup2\n        /* \"#utility.yul\":488:511   */\n      tag_40\n      jump\t// in\n    tag_52:\n        /* \"#utility.yul\":481:486   */\n      dup2\n        /* \"#utility.yul\":478:512   */\n      eq\n        /* \"#utility.yul\":468:530   */\n      tag_53\n      jumpi\n        /* \"#utility.yul\":526:527   */\n      0x00\n        /* \"#utility.yul\":523:524   */\n      0x00\n        /* \"#utility.yul\":516:528   */\n      revert\n        /* \"#utility.yul\":468:530   */\n    tag_53:\n        /* \"#utility.yul\":416:536   */\n      pop\n      jump\t// out\n        /* \"#utility.yul\":542:679   */\n    tag_42:\n        /* \"#utility.yul\":587:592   */\n      0x00\n        /* \"#utility.yul\":625:631   */\n      dup2\n        /* \"#utility.yul\":612:632   */\n      calldataload\n        /* \"#utility.yul\":603:632   */\n      swap1\n      pop\n        /* \"#utility.yul\":641:673   */\n      tag_55\n        /* \"#utility.yul\":667:672   */\n      dup2\n        /* \"#utility.yul\":641:673   */\n      tag_41\n      jump\t// in\n    tag_55:\n        /* \"#utility.yul\":542:679   */\n      swap3\n      swap2\n      pop\n      pop\n      jump\t// out\n        /* \"#utility.yul\":685:1155   */\n    tag_9:\n        /* \"#utility.yul\":751:757   */\n      0x00\n        /* \"#utility.yul\":759:765   */\n      0x00\n        /* \"#utility.yul\":808:810   */\n      0x40\n        /* \"#utility.yul\":796:805   */\n      dup4\n        /* \"#utility.yul\":787:794   */\n      dup6\n        /* \"#utility.yul\":783:806   */\n      sub\n        /* \"#utility.yul\":779:811   */\n      slt\n        /* \"#utility.yul\":776:895   */\n      iszero\n      tag_57\n      jumpi\n        /* \"#utility.yul\":814:893   */\n      tag_58\n      tag_38\n      jump\t// in\n    tag_58:\n        /* \"#utility.yul\":776:895   */\n    tag_57:\n        /* \"#utility.yul\":934:935   */\n      0x00\n        /* \"#utility.yul\":959:1011   */\n      tag_59\n        /* \"#utility.yul\":1003:1010   */\n      dup6\n        /* \"#utility.yul\":994:1000   */\n      dup3\n        /* \"#utility.yul\":983:992   */\n      dup7\n        /* \"#utility.yul\":979:1001   */\n      add\n        /* \"#utility.yul\":959:1011   */\n      tag_42\n      jump\t// in\n    tag_59:\n        /* \"#utility.yul\":949:1011   */\n      swap3\n      pop\n        /* \"#utility.yul\":905:1021   */\n      pop\n        /* \"#utility.yul\":1060:1062   */\n      0x20\n        /* \"#utility.yul\":1086:1138   */\n      tag_60\n        /* \"#utility.yul\":1130:1137   */\n      dup6\n        /* \"#utility.yul\":1121:1127   */\n      dup3\n        /* \"#utility.yul\":1110:1119   */\n      dup7\n        /* \"#utility.yul\":1106:1128   */\n      add\n        /* \"#utility.yul\":1086:1138   */\n      tag_42\n      jump\t// in\n    tag_60:\n        /* \"#utility.yul\":1076:1138   */\n      swap2\n      pop\n        /* \"#utility.yul\":1031:1148   */\n      pop\n        /* \"#utility.yul\":685:1155   */\n      swap3\n      pop\n      swap3\n      swap1\n      pop\n      jump\t// out\n        /* \"#utility.yul\":1161:1276   */\n    tag_43:\n        /* \"#utility.yul\":1246:1269   */\n      tag_62\n        /* \"#utility.yul\":1263:1268   */\n      dup2\n        /* \"#utility.yul\":1246:1269   */\n      tag_40\n      jump\t// in\n    tag_62:\n        /* \"#utility.yul\":1241:1244   */\n      dup3\n        /* \"#utility.yul\":1234:1270   */\n      mstore\n        /* \"#utility.yul\":1161:1276   */\n      pop\n      pop\n      jump\t// out\n        /* \"#utility.yul\":1282:1500   */\n    tag_12:\n        /* \"#utility.yul\":1373:1377   */\n      0x00\n        /* \"#utility.yul\":1411:1413   */\n      0x20\n        /* \"#utility.yul\":1400:1409   */\n      dup3\n        /* \"#utility.yul\":1396:1414   */\n      add\n        /* \"#utility.yul\":1388:1414   */\n      swap1\n      pop\n        /* \"#utility.yul\":1424:1493   */\n      tag_64\n        /* \"#utility.yul\":1490:1491   */\n      0x00\n        /* \"#utility.yul\":1479:1488   */\n      dup4\n        /* \"#utility.yul\":1475:1492   */\n      add\n        /* \"#utility.yul\":1466:1472   */\n      dup5\n        /* \"#utility.yul\":1424:1493   */\n      tag_43\n      jump\t// in\n    tag_64:\n        /* \"#utility.yul\":1282:1500   */\n      swap3\n      swap2\n      pop\n      pop\n      jump\t// out\n        /* \"#utility.yul\":1506:1686   */\n    tag_44:\n        /* \"#utility.yul\":1554:1631   */\n      0x4e487b7100000000000000000000000000000000000000000000000000000000\n        /* \"#utility.yul\":1551:1552   */\n      0x00\n        /* \"#utility.yul\":1544:1632   */\n      mstore\n        /* \"#utility.yul\":1651:1655   */\n      0x11\n        /* \"#utility.yul\":1648:1649   */\n      0x04\n        /* \"#utility.yul\":1641:1656   */\n      mstore\n        /* \"#utility.yul\":1675:1679   */\n      0x24\n        /* \"#utility.yul\":1672:1673   */\n      0x00\n        /* \"#utility.yul\":1665:1680   */\n      revert\n        /* \"#utility.yul\":1692:2064   */\n    tag_27:\n        /* \"#utility.yul\":1731:1735   */\n      0x00\n        /* \"#utility.yul\":1751:1770   */\n      tag_67\n        /* \"#utility.yul\":1768:1769   */\n      dup3\n        /* \"#utility.yul\":1751:1770   */\n      tag_40\n      jump\t// in\n    tag_67:\n        /* \"#utility.yul\":1746:1770   */\n      swap2\n      pop\n        /* \"#utility.yul\":1784:1803   */\n      tag_68\n        /* \"#utility.yul\":1801:1802   */\n      dup4\n        /* \"#utility.yul\":1784:1803   */\n      tag_40\n      jump\t// in\n    tag_68:\n        /* \"#utility.yul\":1779:1803   */\n      swap3\n      pop\n        /* \"#utility.yul\":1827:1828   */\n      dup3\n        /* \"#utility.yul\":1824:1825   */\n      dup3\n        /* \"#utility.yul\":1820:1829   */\n      sub\n        /* \"#utility.yul\":1812:1829   */\n      swap1\n      pop\n        /* \"#utility.yul\":2021:2022   */\n      dup2\n        /* \"#utility.yul\":2015:2019   */\n      dup2\n        /* \"#utility.yul\":2011:2023   */\n      slt\n        /* \"#utility.yul\":2007:2008   */\n      0x00\n        /* \"#utility.yul\":2004:2005   */\n      dup5\n        /* \"#utility.yul\":2000:2009   */\n      slt\n        /* \"#utility.yul\":1996:2024   */\n      and\n        /* \"#utility.yul\":1979:1980   */\n      dup3\n        /* \"#utility.yul\":1973:1977   */\n      dup3\n        /* \"#utility.yul\":1969:1981   */\n      sgt\n        /* \"#utility.yul\":1964:1965   */\n      0x00\n        /* \"#utility.yul\":1961:1962   */\n      dup6\n        /* \"#utility.yul\":1957:1966   */\n      slt\n        /* \"#utility.yul\":1950:1967   */\n      iszero\n        /* \"#utility.yul\":1946:1982   */\n      and\n        /* \"#utility.yul\":1930:2034   */\n      or\n        /* \"#utility.yul\":1927:2057   */\n      iszero\n      tag_69\n      jumpi\n        /* \"#utility.yul\":2037:2055   */\n      tag_70\n      tag_44\n      jump\t// in\n    tag_70:\n        /* \"#utility.yul\":1927:2057   */\n    tag_69:\n        /* \"#utility.yul\":1692:2064   */\n      swap3\n      swap2\n      pop\n      pop\n      jump\t// out\n        /* \"#utility.yul\":2070:2445   */\n    tag_30:\n        /* \"#utility.yul\":2109:2112   */\n      0x00\n        /* \"#utility.yul\":2128:2147   */\n      tag_72\n        /* \"#utility.yul\":2145:2146   */\n      dup3\n        /* \"#utility.yul\":2128:2147   */\n      tag_40\n      jump\t// in\n    tag_72:\n        /* \"#utility.yul\":2123:2147   */\n      swap2\n      pop\n        /* \"#utility.yul\":2161:2180   */\n      tag_73\n        /* \"#utility.yul\":2178:2179   */\n      dup4\n        /* \"#utility.yul\":2161:2180   */\n      tag_40\n      jump\t// in\n    tag_73:\n        /* \"#utility.yul\":2156:2180   */\n      swap3\n      pop\n        /* \"#utility.yul\":2203:2204   */\n      dup3\n        /* \"#utility.yul\":2200:2201   */\n      dup3\n        /* \"#utility.yul\":2196:2205   */\n      add\n        /* \"#utility.yul\":2189:2205   */\n      swap1\n      pop\n        /* \"#utility.yul\":2401:2402   */\n      dup3\n        /* \"#utility.yul\":2396:2399   */\n      dup2\n        /* \"#utility.yul\":2392:2403   */\n      slt\n        /* \"#utility.yul\":2385:2404   */\n      iszero\n        /* \"#utility.yul\":2381:2382   */\n      0x00\n        /* \"#utility.yul\":2378:2379   */\n      dup4\n        /* \"#utility.yul\":2374:2383   */\n      slt\n        /* \"#utility.yul\":2370:2405   */\n      and\n        /* \"#utility.yul\":2353:2354   */\n      dup4\n        /* \"#utility.yul\":2348:2351   */\n      dup3\n        /* \"#utility.yul\":2344:2355   */\n      slt\n        /* \"#utility.yul\":2339:2340   */\n      0x00\n        /* \"#utility.yul\":2336:2337   */\n      dup5\n        /* \"#utility.yul\":2332:2341   */\n      slt\n        /* \"#utility.yul\":2325:2342   */\n      iszero\n        /* \"#utility.yul\":2321:2356   */\n      and\n        /* \"#utility.yul\":2305:2415   */\n      or\n        /* \"#utility.yul\":2302:2438   */\n      iszero\n      tag_74\n      jumpi\n        /* \"#utility.yul\":2418:2436   */\n      tag_75\n      tag_44\n      jump\t// in\n    tag_75:\n        /* \"#utility.yul\":2302:2438   */\n    tag_74:\n        /* \"#utility.yul\":2070:2445   */\n      swap3\n      swap2\n      pop\n      pop\n      jump\t// out\n        /* \"#utility.yul\":2451:2631   */\n    tag_45:\n        /* \"#utility.yul\":2499:2576   */\n      0x4e487b7100000000000000000000000000000000000000000000000000000000\n        /* \"#utility.yul\":2496:2497   */\n      0x00\n        /* \"#utility.yul\":2489:2577   */\n      mstore\n        /* \"#utility.yul\":2596:2600   */\n      0x12\n        /* \"#utility.yul\":2593:2594   */\n      0x04\n        /* \"#utility.yul\":2586:2601   */\n      mstore\n        /* \"#utility.yul\":2620:2624   */\n      0x24\n        /* \"#utility.yul\":2617:2618   */\n      0x00\n        /* \"#utility.yul\":2610:2625   */\n      revert\n        /* \"#utility.yul\":2637:3022   */\n    tag_33:\n        /* \"#utility.yul\":2676:2677   */\n      0x00\n        /* \"#utility.yul\":2693:2712   */\n      tag_78\n        /* \"#utility.yul\":2710:2711   */\n      dup3\n        /* \"#utility.yul\":2693:2712   */\n      tag_40\n      jump\t// in\n    tag_78:\n        /* \"#utility.yul\":2688:2712   */\n      swap2\n      pop\n        /* \"#utility.yul\":2726:2745   */\n      tag_79\n        /* \"#utility.yul\":2743:2744   */\n      dup4\n        /* \"#utility.yul\":2726:2745   */\n      tag_40\n      jump\t// in\n    tag_79:\n        /* \"#utility.yul\":2721:2745   */\n      swap3\n      pop\n        /* \"#utility.yul\":2764:2765   */\n      dup3\n        /* \"#utility.yul\":2754:2789   */\n      tag_80\n      jumpi\n        /* \"#utility.yul\":2769:2787   */\n      tag_81\n      tag_45\n      jump\t// in\n    tag_81:\n        /* \"#utility.yul\":2754:2789   */\n    tag_80:\n        /* \"#utility.yul\":2955:2956   */\n      0x01\n        /* \"#utility.yul\":2952:2953   */\n      0x00\n        /* \"#utility.yul\":2948:2957   */\n      sub\n        /* \"#utility.yul\":2945:2946   */\n      dup4\n        /* \"#utility.yul\":2942:2958   */\n      eq\n        /* \"#utility.yul\":2861:2927   */\n      0x8000000000000000000000000000000000000000000000000000000000000000\n        /* \"#utility.yul\":2858:2859   */\n      dup4\n        /* \"#utility.yul\":2855:2928   */\n      eq\n        /* \"#utility.yul\":2838:2968   */\n      and\n        /* \"#utility.yul\":2835:2991   */\n      iszero\n      tag_82\n      jumpi\n        /* \"#utility.yul\":2971:2989   */\n      tag_83\n      tag_44\n      jump\t// in\n    tag_83:\n        /* \"#utility.yul\":2835:2991   */\n    tag_82:\n        /* \"#utility.yul\":3014:3015   */\n      dup3\n        /* \"#utility.yul\":3011:3012   */\n      dup3\n        /* \"#utility.yul\":3006:3016   */\n      sdiv\n        /* \"#utility.yul\":3001:3016   */\n      swap1\n      pop\n        /* \"#utility.yul\":2637:3022   */\n      swap3\n      swap2\n      pop\n      pop\n      jump\t// out\n        /* \"#utility.yul\":3028:3584   */\n    tag_36:\n        /* \"#utility.yul\":3067:3074   */\n      0x00\n        /* \"#utility.yul\":3090:3109   */\n      tag_85\n        /* \"#utility.yul\":3107:3108   */\n      dup3\n        /* \"#utility.yul\":3090:3109   */\n      tag_40\n      jump\t// in\n    tag_85:\n        /* \"#utility.yul\":3085:3109   */\n      swap2\n      pop\n        /* \"#utility.yul\":3123:3142   */\n      tag_86\n        /* \"#utility.yul\":3140:3141   */\n      dup4\n        /* \"#utility.yul\":3123:3142   */\n      tag_40\n      jump\t// in\n    tag_86:\n        /* \"#utility.yul\":3118:3142   */\n      swap3\n      pop\n        /* \"#utility.yul\":3177:3178   */\n      dup3\n        /* \"#utility.yul\":3174:3175   */\n      dup3\n        /* \"#utility.yul\":3170:3179   */\n      mul\n        /* \"#utility.yul\":3199:3228   */\n      tag_87\n        /* \"#utility.yul\":3216:3227   */\n      dup2\n        /* \"#utility.yul\":3199:3228   */\n      tag_40\n      jump\t// in\n    tag_87:\n        /* \"#utility.yul\":3188:3228   */\n      swap2\n      pop\n        /* \"#utility.yul\":3286:3352   */\n      0x8000000000000000000000000000000000000000000000000000000000000000\n        /* \"#utility.yul\":3283:3284   */\n      dup5\n        /* \"#utility.yul\":3280:3353   */\n      eq\n        /* \"#utility.yul\":3276:3277   */\n      0x00\n        /* \"#utility.yul\":3273:3274   */\n      dup5\n        /* \"#utility.yul\":3269:3278   */\n      slt\n        /* \"#utility.yul\":3265:3354   */\n      and\n        /* \"#utility.yul\":3262:3377   */\n      iszero\n      tag_88\n      jumpi\n        /* \"#utility.yul\":3357:3375   */\n      tag_89\n      tag_44\n      jump\t// in\n    tag_89:\n        /* \"#utility.yul\":3262:3377   */\n    tag_88:\n        /* \"#utility.yul\":3527:3528   */\n      dup3\n        /* \"#utility.yul\":3518:3525   */\n      dup3\n        /* \"#utility.yul\":3513:3529   */\n      sdiv\n        /* \"#utility.yul\":3510:3511   */\n      dup5\n        /* \"#utility.yul\":3507:3530   */\n      eq\n        /* \"#utility.yul\":3487:3488   */\n      dup4\n        /* \"#utility.yul\":3480:3489   */\n      iszero\n        /* \"#utility.yul\":3460:3544   */\n      or\n        /* \"#utility.yul\":3437:3577   */\n      tag_90\n      jumpi\n        /* \"#utility.yul\":3557:3575   */\n      tag_91\n      tag_44\n      jump\t// in\n    tag_91:\n        /* \"#utility.yul\":3437:3577   */\n    tag_90:\n        /* \"#utility.yul\":3075:3584   */\n      pop\n        /* \"#utility.yul\":3028:3584   */\n      swap3\n      swap2\n      pop\n      pop\n      jump\t// out\n\n    auxdata: 0xa2646970667358221220fe435cd6b90af4750aba99cabd962300fb7d75b056ce4e3238d4f55139e7137264736f6c634300081e0033\n}\n",
				"bytecode": {
					"linkReferences": {},
					"object": "6080604052348015600e575f5ffd5b506103ee8061001c5f395ff3fe608060405234801561000f575f5ffd5b506004361061004a575f3560e01c80633e21f3961461004e578063830fb67c1461007e578063989c4f43146100ae578063a062519d146100de575b5f5ffd5b61006860048036038101906100639190610199565b61010e565b60405161007591906101e6565b60405180910390f35b61009860048036038101906100939190610199565b610123565b6040516100a591906101e6565b60405180910390f35b6100c860048036038101906100c39190610199565b610138565b6040516100d591906101e6565b60405180910390f35b6100f860048036038101906100f39190610199565b61014d565b60405161010591906101e6565b60405180910390f35b5f818361011b919061022c565b905092915050565b5f8183610130919061026c565b905092915050565b5f818361014591906102da565b905092915050565b5f818361015a9190610342565b905092915050565b5f5ffd5b5f819050919050565b61017881610166565b8114610182575f5ffd5b50565b5f813590506101938161016f565b92915050565b5f5f604083850312156101af576101ae610162565b5b5f6101bc85828601610185565b92505060206101cd85828601610185565b9150509250929050565b6101e081610166565b82525050565b5f6020820190506101f95f8301846101d7565b92915050565b7f4e487b71000000000000000000000000000000000000000000000000000000005f52601160045260245ffd5b5f61023682610166565b915061024183610166565b925082820390508181125f8412168282135f851215161715610266576102656101ff565b5b92915050565b5f61027682610166565b915061028183610166565b92508282019050828112155f8312168382125f8412151617156102a7576102a66101ff565b5b92915050565b7f4e487b71000000000000000000000000000000000000000000000000000000005f52601260045260245ffd5b5f6102e482610166565b91506102ef83610166565b9250826102ff576102fe6102ad565b5b60015f0383147f800000000000000000000000000000000000000000000000000000000000000083141615610337576103366101ff565b5b828205905092915050565b5f61034c82610166565b915061035783610166565b925082820261036581610166565b91507f800000000000000000000000000000000000000000000000000000000000000084145f8412161561039c5761039b6101ff565b5b82820584148315176103b1576103b06101ff565b5b509291505056fea2646970667358221220fe435cd6b90af4750aba99cabd962300fb7d75b056ce4e3238d4f55139e7137264736f6c634300081e0033",
					"opcodes": "PUSH1 0x80 PUSH1 0x40 MSTORE CALLVALUE DUP1 ISZERO PUSH1 0xE JUMPI PUSH0 PUSH0 REVERT JUMPDEST POP PUSH2 0x3EE DUP1 PUSH2 0x1C PUSH0 CODECOPY PUSH0 RETURN INVALID PUSH1 0x80 PUSH1 0x40 MSTORE CALLVALUE DUP1 ISZERO PUSH2 0xF JUMPI PUSH0 PUSH0 REVERT JUMPDEST POP PUSH1 0x4 CALLDATASIZE LT PUSH2 0x4A JUMPI PUSH0 CALLDATALOAD PUSH1 0xE0 SHR DUP1 PUSH4 0x3E21F396 EQ PUSH2 0x4E JUMPI DUP1 PUSH4 0x830FB67C EQ PUSH2 0x7E JUMPI DUP1 PUSH4 0x989C4F43 EQ PUSH2 0xAE JUMPI DUP1 PUSH4 0xA062519D EQ PUSH2 0xDE JUMPI JUMPDEST PUSH0 PUSH0 REVERT JUMPDEST PUSH2 0x68 PUSH1 0x4 DUP1 CALLDATASIZE SUB DUP2 ADD SWAP1 PUSH2 0x63 SWAP2 SWAP1 PUSH2 0x199 JUMP JUMPDEST PUSH2 0x10E JUMP JUMPDEST PUSH1 0x40 MLOAD PUSH2 0x75 SWAP2 SWAP1 PUSH2 0x1E6 JUMP JUMPDEST PUSH1 0x40 MLOAD DUP1 SWAP2 SUB SWAP1 RETURN JUMPDEST PUSH2 0x98 PUSH1 0x4 DUP1 CALLDATASIZE SUB DUP2 ADD SWAP1 PUSH2 0x93 SWAP2 SWAP1 PUSH2 0x199 JUMP JUMPDEST PUSH2 0x123 JUMP JUMPDEST PUSH1 0x40 MLOAD PUSH2 0xA5 SWAP2 SWAP1 PUSH2 0x1E6 JUMP JUMPDEST PUSH1 0x40 MLOAD DUP1 SWAP2 SUB SWAP1 RETURN JUMPDEST PUSH2 0xC8 PUSH1 0x4 DUP1 CALLDATASIZE SUB DUP2 ADD SWAP1 PUSH2 0xC3 SWAP2 SWAP1 PUSH2 0x199 JUMP JUMPDEST PUSH2 0x138 JUMP JUMPDEST PUSH1 0x40 MLOAD PUSH2 0xD5 SWAP2 SWAP1 PUSH2 0x1E6 JUMP JUMPDEST PUSH1 0x40 MLOAD DUP1 SWAP2 SUB SWAP1 RETURN JUMPDEST PUSH2 0xF8 PUSH1 0x4 DUP1 CALLDATASIZE SUB DUP2 ADD SWAP1 PUSH2 0xF3 SWAP2 SWAP1 PUSH2 0x199 JUMP JUMPDEST PUSH2 0x14D JUMP JUMPDEST PUSH1 0x40 MLOAD PUSH2 0x105 SWAP2 SWAP1 PUSH2 0x1E6 JUMP JUMPDEST PUSH1 0x40 MLOAD DUP1 SWAP2 SUB SWAP1 RETURN JUMPDEST PUSH0 DUP2 DUP4 PUSH2 0x11B SWAP2 SWAP1 PUSH2 0x22C JUMP JUMPDEST SWAP1 POP SWAP3 SWAP2 POP POP JUMP JUMPDEST PUSH0 DUP2 DUP4 PUSH2 0x130 SWAP2 SWAP1 PUSH2 0x26C JUMP JUMPDEST SWAP1 POP SWAP3 SWAP2 POP POP JUMP JUMPDEST PUSH0 DUP2 DUP4 PUSH2 0x145 SWAP2 SWAP1 PUSH2 0x2DA JUMP JUMPDEST SWAP1 POP SWAP3 SWAP2 POP POP JUMP JUMPDEST PUSH0 DUP2 DUP4 PUSH2 0x15A SWAP2 SWAP1 PUSH2 0x342 JUMP JUMPDEST SWAP1 POP SWAP3 SWAP2 POP POP JUMP JUMPDEST PUSH0 PUSH0 REVERT JUMPDEST PUSH0 DUP2 SWAP1 POP SWAP2 SWAP1 POP JUMP JUMPDEST PUSH2 0x178 DUP2 PUSH2 0x166 JUMP JUMPDEST DUP2 EQ PUSH2 0x182 JUMPI PUSH0 PUSH0 REVERT JUMPDEST POP JUMP JUMPDEST PUSH0 DUP2 CALLDATALOAD SWAP1 POP PUSH2 0x193 DUP2 PUSH2 0x16F JUMP JUMPDEST SWAP3 SWAP2 POP POP JUMP JUMPDEST PUSH0 PUSH0 PUSH1 0x40 DUP4 DUP6 SUB SLT ISZERO PUSH2 0x1AF JUMPI PUSH2 0x1AE PUSH2 0x162 JUMP JUMPDEST JUMPDEST PUSH0 PUSH2 0x1BC DUP6 DUP3 DUP7 ADD PUSH2 0x185 JUMP JUMPDEST SWAP3 POP POP PUSH1 0x20 PUSH2 0x1CD DUP6 DUP3 DUP7 ADD PUSH2 0x185 JUMP JUMPDEST SWAP2 POP POP SWAP3 POP SWAP3 SWAP1 POP JUMP JUMPDEST PUSH2 0x1E0 DUP2 PUSH2 0x166 JUMP JUMPDEST DUP3 MSTORE POP POP JUMP JUMPDEST PUSH0 PUSH1 0x20 DUP3 ADD SWAP1 POP PUSH2 0x1F9 PUSH0 DUP4 ADD DUP5 PUSH2 0x1D7 JUMP JUMPDEST SWAP3 SWAP2 POP POP JUMP JUMPDEST PUSH32 0x4E487B7100000000000000000000000000000000000000000000000000000000 PUSH0 MSTORE PUSH1 0x11 PUSH1 0x4 MSTORE PUSH1 0x24 PUSH0 REVERT JUMPDEST PUSH0 PUSH2 0x236 DUP3 PUSH2 0x166 JUMP JUMPDEST SWAP2 POP PUSH2 0x241 DUP4 PUSH2 0x166 JUMP JUMPDEST SWAP3 POP DUP3 DUP3 SUB SWAP1 POP DUP2 DUP2 SLT PUSH0 DUP5 SLT AND DUP3 DUP3 SGT PUSH0 DUP6 SLT ISZERO AND OR ISZERO PUSH2 0x266 JUMPI PUSH2 0x265 PUSH2 0x1FF JUMP JUMPDEST JUMPDEST SWAP3 SWAP2 POP POP JUMP JUMPDEST PUSH0 PUSH2 0x276 DUP3 PUSH2 0x166 JUMP JUMPDEST SWAP2 POP PUSH2 0x281 DUP4 PUSH2 0x166 JUMP JUMPDEST SWAP3 POP DUP3 DUP3 ADD SWAP1 POP DUP3 DUP2 SLT ISZERO PUSH0 DUP4 SLT AND DUP4 DUP3 SLT PUSH0 DUP5 SLT ISZERO AND OR ISZERO PUSH2 0x2A7 JUMPI PUSH2 0x2A6 PUSH2 0x1FF JUMP JUMPDEST JUMPDEST SWAP3 SWAP2 POP POP JUMP JUMPDEST PUSH32 0x4E487B7100000000000000000000000000000000000000000000000000000000 PUSH0 MSTORE PUSH1 0x12 PUSH1 0x4 MSTORE PUSH1 0x24 PUSH0 REVERT JUMPDEST PUSH0 PUSH2 0x2E4 DUP3 PUSH2 0x166 JUMP JUMPDEST SWAP2 POP PUSH2 0x2EF DUP4 PUSH2 0x166 JUMP JUMPDEST SWAP3 POP DUP3 PUSH2 0x2FF JUMPI PUSH2 0x2FE PUSH2 0x2AD JUMP JUMPDEST JUMPDEST PUSH1 0x1 PUSH0 SUB DUP4 EQ PUSH32 0x8000000000000000000000000000000000000000000000000000000000000000 DUP4 EQ AND ISZERO PUSH2 0x337 JUMPI PUSH2 0x336 PUSH2 0x1FF JUMP JUMPDEST JUMPDEST DUP3 DUP3 SDIV SWAP1 POP SWAP3 SWAP2 POP POP JUMP JUMPDEST PUSH0 PUSH2 0x34C DUP3 PUSH2 0x166 JUMP JUMPDEST SWAP2 POP PUSH2 0x357 DUP4 PUSH2 0x166 JUMP JUMPDEST SWAP3 POP DUP3 DUP3 MUL PUSH2 0x365 DUP2 PUSH2 0x166 JUMP JUMPDEST SWAP2 POP PUSH32 0x8000000000000000000000000000000000000000000000000000000000000000 DUP5 EQ PUSH0 DUP5 SLT AND ISZERO PUSH2 0x39C JUMPI PUSH2 0x39B PUSH2 0x1FF JUMP JUMPDEST JUMPDEST DUP3 DUP3 SDIV DUP5 EQ DUP4 ISZERO OR PUSH2 0x3B1 JUMPI PUSH2 0x3B0 PUSH2 0x1FF JUMP JUMPDEST JUMPDEST POP SWAP3 SWAP2 POP POP JUMP INVALID LOG2 PUSH5 0x6970667358 0x22 SLT KECCAK256 INVALID NUMBER TLOAD 0xD6 0xB9 EXP DELEGATECALL PUSH22 0xABA99CABD962300FB7D75B056CE4E3238D4F55139E7 SGT PUSH19 0x64736F6C634300081E00330000000000000000 "
				},
				"gasEstimates": {
					"creation": {
						"codeDepositCost": "201200",
						"executionCost": "243",
						"totalCost": "201443"
					},
					"external": {
						"Add(int256,int256)": "infinite",
						"Divide(int256,int256)": "infinite",
						"Multiply(int256,int256)": "infinite",
						"Subtract(int256,int256)": "infinite"
					}
				},
				"methodIdentifiers": {
					"Add(int256,int256)": "830fb67c",
					"Divide(int256,int256)": "989c4f43",
					"Multiply(int256,int256)": "a062519d",
					"Subtract(int256,int256)": "3e21f396"
				}
			},
			"storageLayout": {
				"storage": [],
				"types": null
			},
			"userdoc": {
				"kind": "user",
				"methods": {},
				"version": 1
			}
		}
	}
}