{
	"tryit/ecr20.sol": {
		"myfirstToken": {
			"abi": [
				{
					"inputs": [
						{
							"internalType": "string",
							"name": "_name",
							"type": "string"
						},
						{
							"internalType": "string",
							"name": "_symbol",
							"type": "string"
						},
						{
							"internalType": "uint8",
							"name": "_decimals",
							"type": "uint8"
						},
						{
							"internalType": "uint256",
							"name": "_initialsupply",
							"type": "uint256"
						}
					],
					"stateMutability": "nonpayable",
					"type": "constructor"
				},
				{
					"anonymous": false,
					"inputs": [
						{
							"indexed": true,
							"internalType": "address",
							"name": "owner",
							"type": "address"
						},
						{
							"indexed": true,
							"internalType": "address",
							"name": "spender",
							"type": "address"
						},
						{
							"indexed": false,
							"internalType": "uint256",
							"name": "value",
							"type": "uint256"
						}
					],
					"name": "Approve",
					"type": "event"
				},
				{
					"anonymous": false,
					"inputs": [
						{
							"indexed": true,
							"internalType": "address",
							"name": "to",
							"type": "address"
						},
						{
							"indexed": true,
							"internalType": "address",
							"name": "fron",
							"type": "address"
						},
						{
							"indexed": false,
							"internalType": "uint256",
							"name": "value",
							"type": "uint256"
						}
					],
					"name": "Transfer",
					"type": "event"
				},
				{
					"inputs": [
						{
							"internalType": "address",
							"name": "account",
							"type": "address"
						}
					],
					"name": "Balanceof",
					"outputs": [
						{
							"internalType": "uint256",
							"name": "balance",
							"type": "uint256"
						}
					],
					"stateMutability": "view",
					"type": "function"
				},
				{
					"inputs": [
						{
							"internalType": "address",
							"name": "owner",
							"type": "address"
						},
						{
							"internalType": "address",
							"name": "spender",
							"type": "address"
						}
					],
					"name": "allowance",
					"outputs": [
						{
							"internalType": "uint256",
							"name": "remaining",
							"type": "uint256"
						}
					],
					"stateMutability": "view",
					"type": "function"
				},
				{
					"inputs": [
						{
							"internalType": "address",
							"name": "spender",
							"type": "address"
						},
						{
							"internalType": "uint256",
							"name": "amount",
							"type": "uint256"
						}
					],
					"name": "approve",
					"outputs": [
						{
							"internalType": "bool",
							"name": "",
							"type": "bool"
						}
					],
					"stateMutability": "nonpayable",
					"type": "function"
				},
				{
					"inputs": [
						{
							"internalType": "uint256",
							"name": "amount",
							"type": "uint256"
						}
					],
					"name": "burn",
					"outputs": [],
					"stateMutability": "nonpayable",
					"type": "function"
				},
				{
					"inputs": [],
					"name": "decimals",
					"outputs": [
						{
							"internalType": "uint8",
							"name": "",
							"type": "uint8"
						}
					],
					"stateMutability": "view",
					"type": "function"
				},
				{
					"inputs": [
						{
							"internalType": "address",
							"name": "spender",
							"type": "address"
						},
						{
							"internalType": "uint256",
							"name": "subtractedValue",
							"type": "uint256"
						}
					],
					"name": "decreaseAllowannce",
					"outputs": [
						{
							"internalType": "bool",
							"name": "",
							"type": "bool"
						}
					],
					"stateMutability": "nonpayable",
					"type": "function"
				},
				{
					"inputs": [
						{
							"internalType": "address",
							"name": "spender",
							"type": "address"
						},
						{
							"internalType": "uint256",
							"name": "addedValue",
							"type": "uint256"
						}
					],
					"name": "increaseAllowance",
					"outputs": [
						{
							"internalType": "bool",
							"name": "",
							"type": "bool"
						}
					],
					"stateMutability": "nonpayable",
					"type": "function"
				},
				{
					"inputs": [],
					"name": "name",
					"outputs": [
						{
							"internalType": "string",
							"name": "",
							"type": "string"
						}
					],
					"stateMutability": "view",
					"type": "function"
				},
				{
					"inputs": [],
					"name": "symbol",
					"outputs": [
						{
							"internalType": "string",
							"name": "",
							"type": "string"
						}
					],
					"stateMutability": "view",
					"type": "function"
				},
				{
					"inputs": [],
					"name": "totalsupply",
					"outputs": [
						{
							"internalType": "uint256",
							"name": "",
							"type": "uint256"
						}
					],
					"stateMutability": "view",
					"type": "function"
				},
				{
					"inputs": [
						{
							"internalType": "address",
							"name": "to",
							"type": "address"
						},
						{
							"internalType": "uint256",
							"name": "amount",
							"type": "uint256"
						}
					],
					"name": "transfer",
					"outputs": [
						{
							"internalType": "bool",
							"name": "",
							"type": "bool"
						}
					],
					"stateMutability": "nonpayable",
					"type": "function"
				},
				{
					"inputs": [
						{
							"internalType": "address",
							"name": "from",
							"type": "address"
						},
						{
							"internalType": "address",
							"name": "to",
							"type": "address"
						},
						{
							"internalType": "uint256",
							"name": "amount",
							"type": "uint256"
						}
					],
					"name": "transferfrom",
					"outputs": [
						{
							"internalType": "bool",
							"name": "",
							"type": "bool"
						}
					],
					"stateMutability": "nonpayable",
					"type": "function"
				}
			],
			"devdoc": {
				"kind": "dev",
				"methods": {},
				"version": 1
			},
			"evm": {
				"assembly": "    /* \"tryit/ecr20.sol\":69:3731  contract myfirstToken {... */\n  mstore(0x40, 0x80)\n    /* \"tryit/ecr20.sol\":507:859  constructor(string memory _name, string memory _symbol, uint8 _decimals, uint256 _initialsupply) {... */\n  callvalue\n  dup1\n  iszero\n  tag_1\n  jumpi\n  revert(0x00, 0x00)\ntag_1:\n  pop\n  mload(0x40)\n  sub(codesize, bytecodeSize)\n  dup1\n  bytecodeSize\n  dup4\n  codecopy\n  dup2\n  dup2\n  add\n  0x40\n  mstore\n  dup2\n  add\n  swap1\n  tag_2\n  swap2\n  swap1\n  tag_3\n  jump\t// in\ntag_2:\n    /* \"tryit/ecr20.sol\":622:627  _name */\n  dup4\n    /* \"tryit/ecr20.sol\":615:619  name */\n  0x00\n    /* \"tryit/ecr20.sol\":615:627  name = _name */\n  swap1\n  dup2\n  tag_6\n  swap2\n  swap1\n  tag_7\n  jump\t// in\ntag_6:\n  pop\n    /* \"tryit/ecr20.sol\":647:654  _symbol */\n  dup3\n    /* \"tryit/ecr20.sol\":638:644  symbol */\n  0x01\n    /* \"tryit/ecr20.sol\":638:654  symbol = _symbol */\n  swap1\n  dup2\n  tag_8\n  swap2\n  swap1\n  tag_7\n  jump\t// in\ntag_8:\n  pop\n    /* \"tryit/ecr20.sol\":676:685  _decimals */\n  dup2\n    /* \"tryit/ecr20.sol\":665:673  decimals */\n  0x02\n  0x00\n    /* \"tryit/ecr20.sol\":665:685  decimals = _decimals */\n  0x0100\n  exp\n  dup2\n  sload\n  dup2\n  0xff\n  mul\n  not\n  and\n  swap1\n  dup4\n  0xff\n  and\n  mul\n  or\n  swap1\n  sstore\n  pop\n    /* \"tryit/ecr20.sol\":733:742  _decimals */\n  dup2\n    /* \"tryit/ecr20.sol\":727:729  10 */\n  0x0a\n    /* \"tryit/ecr20.sol\":727:742  10 ** _decimals */\n  tag_9\n  swap2\n  swap1\n  tag_10\n  jump\t// in\ntag_9:\n    /* \"tryit/ecr20.sol\":710:724  _initialsupply */\n  dup2\n    /* \"tryit/ecr20.sol\":710:742  _initialsupply * 10 ** _decimals */\n  tag_11\n  swap2\n  swap1\n  tag_12\n  jump\t// in\ntag_11:\n    /* \"tryit/ecr20.sol\":696:707  totalsupply */\n  0x03\n    /* \"tryit/ecr20.sol\":696:742  totalsupply = _initialsupply * 10 ** _decimals */\n  dup2\n  swap1\n  sstore\n  pop\n    /* \"tryit/ecr20.sol\":777:788  totalsupply */\n  sload(0x03)\n    /* \"tryit/ecr20.sol\":753:762  _balances */\n  0x04\n    /* \"tryit/ecr20.sol\":753:774  _balances[msg.sender] */\n  0x00\n    /* \"tryit/ecr20.sol\":763:773  msg.sender */\n  caller\n    /* \"tryit/ecr20.sol\":753:774  _balances[msg.sender] */\n  0xffffffffffffffffffffffffffffffffffffffff\n  and\n  0xffffffffffffffffffffffffffffffffffffffff\n  and\n  dup2\n  mstore\n  0x20\n  add\n  swap1\n  dup2\n  mstore\n  0x20\n  add\n  0x00\n  keccak256\n    /* \"tryit/ecr20.sol\":753:788  _balances[msg.sender] = totalsupply */\n  dup2\n  swap1\n  sstore\n  pop\n    /* \"tryit/ecr20.sol\":827:837  msg.sender */\n  caller\n    /* \"tryit/ecr20.sol\":806:851  Transfer(address(0), msg.sender, totalsupply) */\n  0xffffffffffffffffffffffffffffffffffffffff\n  and\n    /* \"tryit/ecr20.sol\":823:824  0 */\n  0x00\n    /* \"tryit/ecr20.sol\":806:851  Transfer(address(0), msg.sender, totalsupply) */\n  0xffffffffffffffffffffffffffffffffffffffff\n  and\n  0xddf252ad1be2c89b69c2b068fc378daa952ba7f163c4a11628f55a4df523b3ef\n    /* \"tryit/ecr20.sol\":839:850  totalsupply */\n  sload(0x03)\n    /* \"tryit/ecr20.sol\":806:851  Transfer(address(0), msg.sender, totalsupply) */\n  mload(0x40)\n  tag_13\n  swap2\n  swap1\n  tag_14\n  jump\t// in\ntag_13:\n  mload(0x40)\n  dup1\n  swap2\n  sub\n  swap1\n  log3\n    /* \"tryit/ecr20.sol\":507:859  constructor(string memory _name, string memory _symbol, uint8 _decimals, uint256 _initialsupply) {... */\n  pop\n  pop\n  pop\n  pop\n    /* \"tryit/ecr20.sol\":69:3731  contract myfirstToken {... */\n  jump(tag_15)\n    /* \"#utility.yul\":7:82   */\ntag_16:\n    /* \"#utility.yul\":40:46   */\n  0x00\n    /* \"#utility.yul\":73:75   */\n  0x40\n    /* \"#utility.yul\":67:76   */\n  mload\n    /* \"#utility.yul\":57:76   */\n  swap1\n  pop\n    /* \"#utility.yul\":7:82   */\n  swap1\n  jump\t// out\n    /* \"#utility.yul\":88:205   */\ntag_17:\n    /* \"#utility.yul\":197:198   */\n  0x00\n    /* \"#utility.yul\":194:195   */\n  0x00\n    /* \"#utility.yul\":187:199   */\n  revert\n    /* \"#utility.yul\":211:328   */\ntag_18:\n    /* \"#utility.yul\":320:321   */\n  0x00\n    /* \"#utility.yul\":317:318   */\n  0x00\n    /* \"#utility.yul\":310:322   */\n  revert\n    /* \"#utility.yul\":334:451   */\ntag_19:\n    /* \"#utility.yul\":443:444   */\n  0x00\n    /* \"#utility.yul\":440:441   */\n  0x00\n    /* \"#utility.yul\":433:445   */\n  revert\n    /* \"#utility.yul\":457:574   */\ntag_20:\n    /* \"#utility.yul\":566:567   */\n  0x00\n    /* \"#utility.yul\":563:564   */\n  0x00\n    /* \"#utility.yul\":556:568   */\n  revert\n    /* \"#utility.yul\":580:682   */\ntag_21:\n    /* \"#utility.yul\":621:627   */\n  0x00\n    /* \"#utility.yul\":672:674   */\n  0x1f\n    /* \"#utility.yul\":668:675   */\n  not\n    /* \"#utility.yul\":663:665   */\n  0x1f\n    /* \"#utility.yul\":656:661   */\n  dup4\n    /* \"#utility.yul\":652:666   */\n  add\n    /* \"#utility.yul\":648:676   */\n  and\n    /* \"#utility.yul\":638:676   */\n  swap1\n  pop\n    /* \"#utility.yul\":580:682   */\n  swap2\n  swap1\n  pop\n  jump\t// out\n    /* \"#utility.yul\":688:868   */\ntag_22:\n    /* \"#utility.yul\":736:813   */\n  0x4e487b7100000000000000000000000000000000000000000000000000000000\n    /* \"#utility.yul\":733:734   */\n  0x00\n    /* \"#utility.yul\":726:814   */\n  mstore\n    /* \"#utility.yul\":833:837   */\n  0x41\n    /* \"#utility.yul\":830:831   */\n  0x04\n    /* \"#utility.yul\":823:838   */\n  mstore\n    /* \"#utility.yul\":857:861   */\n  0x24\n    /* \"#utility.yul\":854:855   */\n  0x00\n    /* \"#utility.yul\":847:862   */\n  revert\n    /* \"#utility.yul\":874:1155   */\ntag_23:\n    /* \"#utility.yul\":957:984   */\n  tag_67\n    /* \"#utility.yul\":979:983   */\n  dup3\n    /* \"#utility.yul\":957:984   */\n  tag_21\n  jump\t// in\ntag_67:\n    /* \"#utility.yul\":949:955   */\n  dup2\n    /* \"#utility.yul\":945:985   */\n  add\n    /* \"#utility.yul\":1087:1093   */\n  dup2\n    /* \"#utility.yul\":1075:1085   */\n  dup2\n    /* \"#utility.yul\":1072:1094   */\n  lt\n    /* \"#utility.yul\":1051:1069   */\n  0xffffffffffffffff\n    /* \"#utility.yul\":1039:1049   */\n  dup3\n    /* \"#utility.yul\":1036:1070   */\n  gt\n    /* \"#utility.yul\":1033:1095   */\n  or\n    /* \"#utility.yul\":1030:1118   */\n  iszero\n  tag_68\n  jumpi\n    /* \"#utility.yul\":1098:1116   */\n  tag_69\n  tag_22\n  jump\t// in\ntag_69:\n    /* \"#utility.yul\":1030:1118   */\ntag_68:\n    /* \"#utility.yul\":1138:1148   */\n  dup1\n    /* \"#utility.yul\":1134:1136   */\n  0x40\n    /* \"#utility.yul\":1127:1149   */\n  mstore\n    /* \"#utility.yul\":917:1155   */\n  pop\n    /* \"#utility.yul\":874:1155   */\n  pop\n  pop\n  jump\t// out\n    /* \"#utility.yul\":1161:1290   */\ntag_24:\n    /* \"#utility.yul\":1195:1201   */\n  0x00\n    /* \"#utility.yul\":1222:1242   */\n  tag_71\n  tag_16\n  jump\t// in\ntag_71:\n    /* \"#utility.yul\":1212:1242   */\n  swap1\n  pop\n    /* \"#utility.yul\":1251:1284   */\n  tag_72\n    /* \"#utility.yul\":1279:1283   */\n  dup3\n    /* \"#utility.yul\":1271:1277   */\n  dup3\n    /* \"#utility.yul\":1251:1284   */\n  tag_23\n  jump\t// in\ntag_72:\n    /* \"#utility.yul\":1161:1290   */\n  swap2\n  swap1\n  pop\n  jump\t// out\n    /* \"#utility.yul\":1296:1604   */\ntag_25:\n    /* \"#utility.yul\":1358:1362   */\n  0x00\n    /* \"#utility.yul\":1448:1466   */\n  0xffffffffffffffff\n    /* \"#utility.yul\":1440:1446   */\n  dup3\n    /* \"#utility.yul\":1437:1467   */\n  gt\n    /* \"#utility.yul\":1434:1490   */\n  iszero\n  tag_74\n  jumpi\n    /* \"#utility.yul\":1470:1488   */\n  tag_75\n  tag_22\n  jump\t// in\ntag_75:\n    /* \"#utility.yul\":1434:1490   */\ntag_74:\n    /* \"#utility.yul\":1508:1537   */\n  tag_76\n    /* \"#utility.yul\":1530:1536   */\n  dup3\n    /* \"#utility.yul\":1508:1537   */\n  tag_21\n  jump\t// in\ntag_76:\n    /* \"#utility.yul\":1500:1537   */\n  swap1\n  pop\n    /* \"#utility.yul\":1592:1596   */\n  0x20\n    /* \"#utility.yul\":1586:1590   */\n  dup2\n    /* \"#utility.yul\":1582:1597   */\n  add\n    /* \"#utility.yul\":1574:1597   */\n  swap1\n  pop\n    /* \"#utility.yul\":1296:1604   */\n  swap2\n  swap1\n  pop\n  jump\t// out\n    /* \"#utility.yul\":1610:1749   */\ntag_26:\n    /* \"#utility.yul\":1699:1705   */\n  dup3\n    /* \"#utility.yul\":1694:1697   */\n  dup2\n    /* \"#utility.yul\":1689:1692   */\n  dup4\n    /* \"#utility.yul\":1683:1706   */\n  mcopy\n    /* \"#utility.yul\":1740:1741   */\n  0x00\n    /* \"#utility.yul\":1731:1737   */\n  dup4\n    /* \"#utility.yul\":1726:1729   */\n  dup4\n    /* \"#utility.yul\":1722:1738   */\n  add\n    /* \"#utility.yul\":1715:1742   */\n  mstore\n    /* \"#utility.yul\":1610:1749   */\n  pop\n  pop\n  pop\n  jump\t// out\n    /* \"#utility.yul\":1755:2189   */\ntag_27:\n    /* \"#utility.yul\":1844:1849   */\n  0x00\n    /* \"#utility.yul\":1869:1935   */\n  tag_79\n    /* \"#utility.yul\":1885:1934   */\n  tag_80\n    /* \"#utility.yul\":1927:1933   */\n  dup5\n    /* \"#utility.yul\":1885:1934   */\n  tag_25\n  jump\t// in\ntag_80:\n    /* \"#utility.yul\":1869:1935   */\n  tag_24\n  jump\t// in\ntag_79:\n    /* \"#utility.yul\":1860:1935   */\n  swap1\n  pop\n    /* \"#utility.yul\":1958:1964   */\n  dup3\n    /* \"#utility.yul\":1951:1956   */\n  dup2\n    /* \"#utility.yul\":1944:1965   */\n  mstore\n    /* \"#utility.yul\":1996:2000   */\n  0x20\n    /* \"#utility.yul\":1989:1994   */\n  dup2\n    /* \"#utility.yul\":1985:2001   */\n  add\n    /* \"#utility.yul\":2034:2037   */\n  dup5\n    /* \"#utility.yul\":2025:2031   */\n  dup5\n    /* \"#utility.yul\":2020:2023   */\n  dup5\n    /* \"#utility.yul\":2016:2032   */\n  add\n    /* \"#utility.yul\":2013:2038   */\n  gt\n    /* \"#utility.yul\":2010:2122   */\n  iszero\n  tag_81\n  jumpi\n    /* \"#utility.yul\":2041:2120   */\n  tag_82\n  tag_20\n  jump\t// in\ntag_82:\n    /* \"#utility.yul\":2010:2122   */\ntag_81:\n    /* \"#utility.yul\":2131:2183   */\n  tag_83\n    /* \"#utility.yul\":2176:2182   */\n  dup5\n    /* \"#utility.yul\":2171:2174   */\n  dup3\n    /* \"#utility.yul\":2166:2169   */\n  dup6\n    /* \"#utility.yul\":2131:2183   */\n  tag_26\n  jump\t// in\ntag_83:\n    /* \"#utility.yul\":1850:2189   */\n  pop\n    /* \"#utility.yul\":1755:2189   */\n  swap4\n  swap3\n  pop\n  pop\n  pop\n  jump\t// out\n    /* \"#utility.yul\":2209:2564   */\ntag_28:\n    /* \"#utility.yul\":2276:2281   */\n  0x00\n    /* \"#utility.yul\":2325:2328   */\n  dup3\n    /* \"#utility.yul\":2318:2322   */\n  0x1f\n    /* \"#utility.yul\":2310:2316   */\n  dup4\n    /* \"#utility.yul\":2306:2323   */\n  add\n    /* \"#utility.yul\":2302:2329   */\n  slt\n    /* \"#utility.yul\":2292:2414   */\n  tag_85\n  jumpi\n    /* \"#utility.yul\":2333:2412   */\n  tag_86\n  tag_19\n  jump\t// in\ntag_86:\n    /* \"#utility.yul\":2292:2414   */\ntag_85:\n    /* \"#utility.yul\":2443:2449   */\n  dup2\n    /* \"#utility.yul\":2437:2450   */\n  mload\n    /* \"#utility.yul\":2468:2558   */\n  tag_87\n    /* \"#utility.yul\":2554:2557   */\n  dup5\n    /* \"#utility.yul\":2546:2552   */\n  dup3\n    /* \"#utility.yul\":2539:2543   */\n  0x20\n    /* \"#utility.yul\":2531:2537   */\n  dup7\n    /* \"#utility.yul\":2527:2544   */\n  add\n    /* \"#utility.yul\":2468:2558   */\n  tag_27\n  jump\t// in\ntag_87:\n    /* \"#utility.yul\":2459:2558   */\n  swap2\n  pop\n    /* \"#utility.yul\":2282:2564   */\n  pop\n    /* \"#utility.yul\":2209:2564   */\n  swap3\n  swap2\n  pop\n  pop\n  jump\t// out\n    /* \"#utility.yul\":2570:2656   */\ntag_29:\n    /* \"#utility.yul\":2605:2612   */\n  0x00\n    /* \"#utility.yul\":2645:2649   */\n  0xff\n    /* \"#utility.yul\":2638:2643   */\n  dup3\n    /* \"#utility.yul\":2634:2650   */\n  and\n    /* \"#utility.yul\":2623:2650   */\n  swap1\n  pop\n    /* \"#utility.yul\":2570:2656   */\n  swap2\n  swap1\n  pop\n  jump\t// out\n    /* \"#utility.yul\":2662:2780   */\ntag_30:\n    /* \"#utility.yul\":2733:2755   */\n  tag_90\n    /* \"#utility.yul\":2749:2754   */\n  dup2\n    /* \"#utility.yul\":2733:2755   */\n  tag_29\n  jump\t// in\ntag_90:\n    /* \"#utility.yul\":2726:2731   */\n  dup2\n    /* \"#utility.yul\":2723:2756   */\n  eq\n    /* \"#utility.yul\":2713:2774   */\n  tag_91\n  jumpi\n    /* \"#utility.yul\":2770:2771   */\n  0x00\n    /* \"#utility.yul\":2767:2768   */\n  0x00\n    /* \"#utility.yul\":2760:2772   */\n  revert\n    /* \"#utility.yul\":2713:2774   */\ntag_91:\n    /* \"#utility.yul\":2662:2780   */\n  pop\n  jump\t// out\n    /* \"#utility.yul\":2786:2925   */\ntag_31:\n    /* \"#utility.yul\":2841:2846   */\n  0x00\n    /* \"#utility.yul\":2872:2878   */\n  dup2\n    /* \"#utility.yul\":2866:2879   */\n  mload\n    /* \"#utility.yul\":2857:2879   */\n  swap1\n  pop\n    /* \"#utility.yul\":2888:2919   */\n  tag_93\n    /* \"#utility.yul\":2913:2918   */\n  dup2\n    /* \"#utility.yul\":2888:2919   */\n  tag_30\n  jump\t// in\ntag_93:\n    /* \"#utility.yul\":2786:2925   */\n  swap3\n  swap2\n  pop\n  pop\n  jump\t// out\n    /* \"#utility.yul\":2931:3008   */\ntag_32:\n    /* \"#utility.yul\":2968:2975   */\n  0x00\n    /* \"#utility.yul\":2997:3002   */\n  dup2\n    /* \"#utility.yul\":2986:3002   */\n  swap1\n  pop\n    /* \"#utility.yul\":2931:3008   */\n  swap2\n  swap1\n  pop\n  jump\t// out\n    /* \"#utility.yul\":3014:3136   */\ntag_33:\n    /* \"#utility.yul\":3087:3111   */\n  tag_96\n    /* \"#utility.yul\":3105:3110   */\n  dup2\n    /* \"#utility.yul\":3087:3111   */\n  tag_32\n  jump\t// in\ntag_96:\n    /* \"#utility.yul\":3080:3085   */\n  dup2\n    /* \"#utility.yul\":3077:3112   */\n  eq\n    /* \"#utility.yul\":3067:3130   */\n  tag_97\n  jumpi\n    /* \"#utility.yul\":3126:3127   */\n  0x00\n    /* \"#utility.yul\":3123:3124   */\n  0x00\n    /* \"#utility.yul\":3116:3128   */\n  revert\n    /* \"#utility.yul\":3067:3130   */\ntag_97:\n    /* \"#utility.yul\":3014:3136   */\n  pop\n  jump\t// out\n    /* \"#utility.yul\":3142:3285   */\ntag_34:\n    /* \"#utility.yul\":3199:3204   */\n  0x00\n    /* \"#utility.yul\":3230:3236   */\n  dup2\n    /* \"#utility.yul\":3224:3237   */\n  mload\n    /* \"#utility.yul\":3215:3237   */\n  swap1\n  pop\n    /* \"#utility.yul\":3246:3279   */\n  tag_99\n    /* \"#utility.yul\":3273:3278   */\n  dup2\n    /* \"#utility.yul\":3246:3279   */\n  tag_33\n  jump\t// in\ntag_99:\n    /* \"#utility.yul\":3142:3285   */\n  swap3\n  swap2\n  pop\n  pop\n  jump\t// out\n    /* \"#utility.yul\":3291:4453   */\ntag_3:\n    /* \"#utility.yul\":3406:3412   */\n  0x00\n    /* \"#utility.yul\":3414:3420   */\n  0x00\n    /* \"#utility.yul\":3422:3428   */\n  0x00\n    /* \"#utility.yul\":3430:3436   */\n  0x00\n    /* \"#utility.yul\":3479:3482   */\n  0x80\n    /* \"#utility.yul\":3467:3476   */\n  dup6\n    /* \"#utility.yul\":3458:3465   */\n  dup8\n    /* \"#utility.yul\":3454:3477   */\n  sub\n    /* \"#utility.yul\":3450:3483   */\n  slt\n    /* \"#utility.yul\":3447:3567   */\n  iszero\n  tag_101\n  jumpi\n    /* \"#utility.yul\":3486:3565   */\n  tag_102\n  tag_17\n  jump\t// in\ntag_102:\n    /* \"#utility.yul\":3447:3567   */\ntag_101:\n    /* \"#utility.yul\":3627:3628   */\n  0x00\n    /* \"#utility.yul\":3616:3625   */\n  dup6\n    /* \"#utility.yul\":3612:3629   */\n  add\n    /* \"#utility.yul\":3606:3630   */\n  mload\n    /* \"#utility.yul\":3657:3675   */\n  0xffffffffffffffff\n    /* \"#utility.yul\":3649:3655   */\n  dup2\n    /* \"#utility.yul\":3646:3676   */\n  gt\n    /* \"#utility.yul\":3643:3760   */\n  iszero\n  tag_103\n  jumpi\n    /* \"#utility.yul\":3679:3758   */\n  tag_104\n  tag_18\n  jump\t// in\ntag_104:\n    /* \"#utility.yul\":3643:3760   */\ntag_103:\n    /* \"#utility.yul\":3784:3858   */\n  tag_105\n    /* \"#utility.yul\":3850:3857   */\n  dup8\n    /* \"#utility.yul\":3841:3847   */\n  dup3\n    /* \"#utility.yul\":3830:3839   */\n  dup9\n    /* \"#utility.yul\":3826:3848   */\n  add\n    /* \"#utility.yul\":3784:3858   */\n  tag_28\n  jump\t// in\ntag_105:\n    /* \"#utility.yul\":3774:3858   */\n  swap5\n  pop\n    /* \"#utility.yul\":3577:3868   */\n  pop\n    /* \"#utility.yul\":3928:3930   */\n  0x20\n    /* \"#utility.yul\":3917:3926   */\n  dup6\n    /* \"#utility.yul\":3913:3931   */\n  add\n    /* \"#utility.yul\":3907:3932   */\n  mload\n    /* \"#utility.yul\":3959:3977   */\n  0xffffffffffffffff\n    /* \"#utility.yul\":3951:3957   */\n  dup2\n    /* \"#utility.yul\":3948:3978   */\n  gt\n    /* \"#utility.yul\":3945:4062   */\n  iszero\n  tag_106\n  jumpi\n    /* \"#utility.yul\":3981:4060   */\n  tag_107\n  tag_18\n  jump\t// in\ntag_107:\n    /* \"#utility.yul\":3945:4062   */\ntag_106:\n    /* \"#utility.yul\":4086:4160   */\n  tag_108\n    /* \"#utility.yul\":4152:4159   */\n  dup8\n    /* \"#utility.yul\":4143:4149   */\n  dup3\n    /* \"#utility.yul\":4132:4141   */\n  dup9\n    /* \"#utility.yul\":4128:4150   */\n  add\n    /* \"#utility.yul\":4086:4160   */\n  tag_28\n  jump\t// in\ntag_108:\n    /* \"#utility.yul\":4076:4160   */\n  swap4\n  pop\n    /* \"#utility.yul\":3878:4170   */\n  pop\n    /* \"#utility.yul\":4209:4211   */\n  0x40\n    /* \"#utility.yul\":4235:4297   */\n  tag_109\n    /* \"#utility.yul\":4289:4296   */\n  dup8\n    /* \"#utility.yul\":4280:4286   */\n  dup3\n    /* \"#utility.yul\":4269:4278   */\n  dup9\n    /* \"#utility.yul\":4265:4287   */\n  add\n    /* \"#utility.yul\":4235:4297   */\n  tag_31\n  jump\t// in\ntag_109:\n    /* \"#utility.yul\":4225:4297   */\n  swap3\n  pop\n    /* \"#utility.yul\":4180:4307   */\n  pop\n    /* \"#utility.yul\":4346:4348   */\n  0x60\n    /* \"#utility.yul\":4372:4436   */\n  tag_110\n    /* \"#utility.yul\":4428:4435   */\n  dup8\n    /* \"#utility.yul\":4419:4425   */\n  dup3\n    /* \"#utility.yul\":4408:4417   */\n  dup9\n    /* \"#utility.yul\":4404:4426   */\n  add\n    /* \"#utility.yul\":4372:4436   */\n  tag_34\n  jump\t// in\ntag_110:\n    /* \"#utility.yul\":4362:4436   */\n  swap2\n  pop\n    /* \"#utility.yul\":4317:4446   */\n  pop\n    /* \"#utility.yul\":3291:4453   */\n  swap3\n  swap6\n  swap2\n  swap5\n  pop\n  swap3\n  pop\n  jump\t// out\n    /* \"#utility.yul\":4459:4558   */\ntag_35:\n    /* \"#utility.yul\":4511:4517   */\n  0x00\n    /* \"#utility.yul\":4545:4550   */\n  dup2\n    /* \"#utility.yul\":4539:4551   */\n  mload\n    /* \"#utility.yul\":4529:4551   */\n  swap1\n  pop\n    /* \"#utility.yul\":4459:4558   */\n  swap2\n  swap1\n  pop\n  jump\t// out\n    /* \"#utility.yul\":4564:4744   */\ntag_36:\n    /* \"#utility.yul\":4612:4689   */\n  0x4e487b7100000000000000000000000000000000000000000000000000000000\n    /* \"#utility.yul\":4609:4610   */\n  0x00\n    /* \"#utility.yul\":4602:4690   */\n  mstore\n    /* \"#utility.yul\":4709:4713   */\n  0x22\n    /* \"#utility.yul\":4706:4707   */\n  0x04\n    /* \"#utility.yul\":4699:4714   */\n  mstore\n    /* \"#utility.yul\":4733:4737   */\n  0x24\n    /* \"#utility.yul\":4730:4731   */\n  0x00\n    /* \"#utility.yul\":4723:4738   */\n  revert\n    /* \"#utility.yul\":4750:5070   */\ntag_37:\n    /* \"#utility.yul\":4794:4800   */\n  0x00\n    /* \"#utility.yul\":4831:4832   */\n  0x02\n    /* \"#utility.yul\":4825:4829   */\n  dup3\n    /* \"#utility.yul\":4821:4833   */\n  div\n    /* \"#utility.yul\":4811:4833   */\n  swap1\n  pop\n    /* \"#utility.yul\":4878:4879   */\n  0x01\n    /* \"#utility.yul\":4872:4876   */\n  dup3\n    /* \"#utility.yul\":4868:4880   */\n  and\n    /* \"#utility.yul\":4899:4917   */\n  dup1\n    /* \"#utility.yul\":4889:4970   */\n  tag_114\n  jumpi\n    /* \"#utility.yul\":4955:4959   */\n  0x7f\n    /* \"#utility.yul\":4947:4953   */\n  dup3\n    /* \"#utility.yul\":4943:4960   */\n  and\n    /* \"#utility.yul\":4933:4960   */\n  swap2\n  pop\n    /* \"#utility.yul\":4889:4970   */\ntag_114:\n    /* \"#utility.yul\":5017:5019   */\n  0x20\n    /* \"#utility.yul\":5009:5015   */\n  dup3\n    /* \"#utility.yul\":5006:5020   */\n  lt\n    /* \"#utility.yul\":4986:5004   */\n  dup2\n    /* \"#utility.yul\":4983:5021   */\n  sub\n    /* \"#utility.yul\":4980:5064   */\n  tag_115\n  jumpi\n    /* \"#utility.yul\":5036:5054   */\n  tag_116\n  tag_36\n  jump\t// in\ntag_116:\n    /* \"#utility.yul\":4980:5064   */\ntag_115:\n    /* \"#utility.yul\":4801:5070   */\n  pop\n    /* \"#utility.yul\":4750:5070   */\n  swap2\n  swap1\n  pop\n  jump\t// out\n    /* \"#utility.yul\":5076:5217   */\ntag_38:\n    /* \"#utility.yul\":5125:5129   */\n  0x00\n    /* \"#utility.yul\":5148:5151   */\n  dup2\n    /* \"#utility.yul\":5140:5151   */\n  swap1\n  pop\n    /* \"#utility.yul\":5171:5174   */\n  dup2\n    /* \"#utility.yul\":5168:5169   */\n  0x00\n    /* \"#utility.yul\":5161:5175   */\n  mstore\n    /* \"#utility.yul\":5205:5209   */\n  0x20\n    /* \"#utility.yul\":5202:5203   */\n  0x00\n    /* \"#utility.yul\":5192:5210   */\n  keccak256\n    /* \"#utility.yul\":5184:5210   */\n  swap1\n  pop\n    /* \"#utility.yul\":5076:5217   */\n  swap2\n  swap1\n  pop\n  jump\t// out\n    /* \"#utility.yul\":5223:5316   */\ntag_39:\n    /* \"#utility.yul\":5260:5266   */\n  0x00\n    /* \"#utility.yul\":5307:5309   */\n  0x20\n    /* \"#utility.yul\":5302:5304   */\n  0x1f\n    /* \"#utility.yul\":5295:5300   */\n  dup4\n    /* \"#utility.yul\":5291:5305   */\n  add\n    /* \"#utility.yul\":5287:5310   */\n  div\n    /* \"#utility.yul\":5277:5310   */\n  swap1\n  pop\n    /* \"#utility.yul\":5223:5316   */\n  swap2\n  swap1\n  pop\n  jump\t// out\n    /* \"#utility.yul\":5322:5429   */\ntag_40:\n    /* \"#utility.yul\":5366:5374   */\n  0x00\n    /* \"#utility.yul\":5416:5421   */\n  dup3\n    /* \"#utility.yul\":5410:5414   */\n  dup3\n    /* \"#utility.yul\":5406:5422   */\n  shl\n    /* \"#utility.yul\":5385:5422   */\n  swap1\n  pop\n    /* \"#utility.yul\":5322:5429   */\n  swap3\n  swap2\n  pop\n  pop\n  jump\t// out\n    /* \"#utility.yul\":5435:5828   */\ntag_41:\n    /* \"#utility.yul\":5504:5510   */\n  0x00\n    /* \"#utility.yul\":5554:5555   */\n  0x08\n    /* \"#utility.yul\":5542:5552   */\n  dup4\n    /* \"#utility.yul\":5538:5556   */\n  mul\n    /* \"#utility.yul\":5577:5674   */\n  tag_121\n    /* \"#utility.yul\":5607:5673   */\n  0xffffffffffffffffffffffffffffffffffffffffffffffffffffffffffffffff\n    /* \"#utility.yul\":5596:5605   */\n  dup3\n    /* \"#utility.yul\":5577:5674   */\n  tag_40\n  jump\t// in\ntag_121:\n    /* \"#utility.yul\":5695:5734   */\n  tag_122\n    /* \"#utility.yul\":5725:5733   */\n  dup7\n    /* \"#utility.yul\":5714:5723   */\n  dup4\n    /* \"#utility.yul\":5695:5734   */\n  tag_40\n  jump\t// in\ntag_122:\n    /* \"#utility.yul\":5683:5734   */\n  swap6\n  pop\n    /* \"#utility.yul\":5767:5771   */\n  dup1\n    /* \"#utility.yul\":5763:5772   */\n  not\n    /* \"#utility.yul\":5756:5761   */\n  dup5\n    /* \"#utility.yul\":5752:5773   */\n  and\n    /* \"#utility.yul\":5743:5773   */\n  swap4\n  pop\n    /* \"#utility.yul\":5816:5820   */\n  dup1\n    /* \"#utility.yul\":5806:5814   */\n  dup7\n    /* \"#utility.yul\":5802:5821   */\n  and\n    /* \"#utility.yul\":5795:5800   */\n  dup5\n    /* \"#utility.yul\":5792:5822   */\n  or\n    /* \"#utility.yul\":5782:5822   */\n  swap3\n  pop\n    /* \"#utility.yul\":5511:5828   */\n  pop\n  pop\n    /* \"#utility.yul\":5435:5828   */\n  swap4\n  swap3\n  pop\n  pop\n  pop\n  jump\t// out\n    /* \"#utility.yul\":5834:5894   */\ntag_42:\n    /* \"#utility.yul\":5862:5865   */\n  0x00\n    /* \"#utility.yul\":5883:5888   */\n  dup2\n    /* \"#utility.yul\":5876:5888   */\n  swap1\n  pop\n    /* \"#utility.yul\":5834:5894   */\n  swap2\n  swap1\n  pop\n  jump\t// out\n    /* \"#utility.yul\":5900:6042   */\ntag_43:\n    /* \"#utility.yul\":5950:5959   */\n  0x00\n    /* \"#utility.yul\":5983:6036   */\n  tag_125\n    /* \"#utility.yul\":6001:6035   */\n  tag_126\n    /* \"#utility.yul\":6010:6034   */\n  tag_127\n    /* \"#utility.yul\":6028:6033   */\n  dup5\n    /* \"#utility.yul\":6010:6034   */\n  tag_32\n  jump\t// in\ntag_127:\n    /* \"#utility.yul\":6001:6035   */\n  tag_42\n  jump\t// in\ntag_126:\n    /* \"#utility.yul\":5983:6036   */\n  tag_32\n  jump\t// in\ntag_125:\n    /* \"#utility.yul\":5970:6036   */\n  swap1\n  pop\n    /* \"#utility.yul\":5900:6042   */\n  swap2\n  swap1\n  pop\n  jump\t// out\n    /* \"#utility.yul\":6048:6123   */\ntag_44:\n    /* \"#utility.yul\":6091:6094   */\n  0x00\n    /* \"#utility.yul\":6112:6117   */\n  dup2\n    /* \"#utility.yul\":6105:6117   */\n  swap1\n  pop\n    /* \"#utility.yul\":6048:6123   */\n  swap2\n  swap1\n  pop\n  jump\t// out\n    /* \"#utility.yul\":6129:6398   */\ntag_45:\n    /* \"#utility.yul\":6239:6278   */\n  tag_130\n    /* \"#utility.yul\":6270:6277   */\n  dup4\n    /* \"#utility.yul\":6239:6278   */\n  tag_43\n  jump\t// in\ntag_130:\n    /* \"#utility.yul\":6300:6391   */\n  tag_131\n    /* \"#utility.yul\":6349:6390   */\n  tag_132\n    /* \"#utility.yul\":6373:6389   */\n  dup3\n    /* \"#utility.yul\":6349:6390   */\n  tag_44\n  jump\t// in\ntag_132:\n    /* \"#utility.yul\":6341:6347   */\n  dup5\n    /* \"#utility.yul\":6334:6338   */\n  dup5\n    /* \"#utility.yul\":6328:6339   */\n  sload\n    /* \"#utility.yul\":6300:6391   */\n  tag_41\n  jump\t// in\ntag_131:\n    /* \"#utility.yul\":6294:6298   */\n  dup3\n    /* \"#utility.yul\":6287:6392   */\n  sstore\n    /* \"#utility.yul\":6205:6398   */\n  pop\n    /* \"#utility.yul\":6129:6398   */\n  pop\n  pop\n  pop\n  jump\t// out\n    /* \"#utility.yul\":6404:6477   */\ntag_46:\n    /* \"#utility.yul\":6449:6452   */\n  0x00\n    /* \"#utility.yul\":6470:6471   */\n  0x00\n    /* \"#utility.yul\":6463:6471   */\n  swap1\n  pop\n    /* \"#utility.yul\":6404:6477   */\n  swap1\n  jump\t// out\n    /* \"#utility.yul\":6483:6672   */\ntag_47:\n    /* \"#utility.yul\":6560:6592   */\n  tag_135\n  tag_46\n  jump\t// in\ntag_135:\n    /* \"#utility.yul\":6601:6666   */\n  tag_136\n    /* \"#utility.yul\":6659:6665   */\n  dup2\n    /* \"#utility.yul\":6651:6657   */\n  dup5\n    /* \"#utility.yul\":6645:6649   */\n  dup5\n    /* \"#utility.yul\":6601:6666   */\n  tag_45\n  jump\t// in\ntag_136:\n    /* \"#utility.yul\":6536:6672   */\n  pop\n    /* \"#utility.yul\":6483:6672   */\n  pop\n  pop\n  jump\t// out\n    /* \"#utility.yul\":6678:6864   */\ntag_48:\n    /* \"#utility.yul\":6738:6858   */\ntag_138:\n    /* \"#utility.yul\":6755:6758   */\n  dup2\n    /* \"#utility.yul\":6748:6753   */\n  dup2\n    /* \"#utility.yul\":6745:6759   */\n  lt\n    /* \"#utility.yul\":6738:6858   */\n  iszero\n  tag_140\n  jumpi\n    /* \"#utility.yul\":6809:6848   */\n  tag_141\n    /* \"#utility.yul\":6846:6847   */\n  0x00\n    /* \"#utility.yul\":6839:6844   */\n  dup3\n    /* \"#utility.yul\":6809:6848   */\n  tag_47\n  jump\t// in\ntag_141:\n    /* \"#utility.yul\":6782:6783   */\n  0x01\n    /* \"#utility.yul\":6775:6780   */\n  dup2\n    /* \"#utility.yul\":6771:6784   */\n  add\n    /* \"#utility.yul\":6762:6784   */\n  swap1\n  pop\n    /* \"#utility.yul\":6738:6858   */\n  jump(tag_138)\ntag_140:\n    /* \"#utility.yul\":6678:6864   */\n  pop\n  pop\n  jump\t// out\n    /* \"#utility.yul\":6870:7413   */\ntag_49:\n    /* \"#utility.yul\":6971:6973   */\n  0x1f\n    /* \"#utility.yul\":6966:6969   */\n  dup3\n    /* \"#utility.yul\":6963:6974   */\n  gt\n    /* \"#utility.yul\":6960:7406   */\n  iszero\n  tag_143\n  jumpi\n    /* \"#utility.yul\":7005:7043   */\n  tag_144\n    /* \"#utility.yul\":7037:7042   */\n  dup2\n    /* \"#utility.yul\":7005:7043   */\n  tag_38\n  jump\t// in\ntag_144:\n    /* \"#utility.yul\":7089:7118   */\n  tag_145\n    /* \"#utility.yul\":7107:7117   */\n  dup5\n    /* \"#utility.yul\":7089:7118   */\n  tag_39\n  jump\t// in\ntag_145:\n    /* \"#utility.yul\":7079:7087   */\n  dup2\n    /* \"#utility.yul\":7075:7119   */\n  add\n    /* \"#utility.yul\":7272:7274   */\n  0x20\n    /* \"#utility.yul\":7260:7270   */\n  dup6\n    /* \"#utility.yul\":7257:7275   */\n  lt\n    /* \"#utility.yul\":7254:7303   */\n  iszero\n  tag_146\n  jumpi\n    /* \"#utility.yul\":7293:7301   */\n  dup2\n    /* \"#utility.yul\":7278:7301   */\n  swap1\n  pop\n    /* \"#utility.yul\":7254:7303   */\ntag_146:\n    /* \"#utility.yul\":7316:7396   */\n  tag_147\n    /* \"#utility.yul\":7372:7394   */\n  tag_148\n    /* \"#utility.yul\":7390:7393   */\n  dup6\n    /* \"#utility.yul\":7372:7394   */\n  tag_39\n  jump\t// in\ntag_148:\n    /* \"#utility.yul\":7362:7370   */\n  dup4\n    /* \"#utility.yul\":7358:7395   */\n  add\n    /* \"#utility.yul\":7345:7356   */\n  dup3\n    /* \"#utility.yul\":7316:7396   */\n  tag_48\n  jump\t// in\ntag_147:\n    /* \"#utility.yul\":6975:7406   */\n  pop\n  pop\n    /* \"#utility.yul\":6960:7406   */\ntag_143:\n    /* \"#utility.yul\":6870:7413   */\n  pop\n  pop\n  pop\n  jump\t// out\n    /* \"#utility.yul\":7419:7536   */\ntag_50:\n    /* \"#utility.yul\":7473:7481   */\n  0x00\n    /* \"#utility.yul\":7523:7528   */\n  dup3\n    /* \"#utility.yul\":7517:7521   */\n  dup3\n    /* \"#utility.yul\":7513:7529   */\n  shr\n    /* \"#utility.yul\":7492:7529   */\n  swap1\n  pop\n    /* \"#utility.yul\":7419:7536   */\n  swap3\n  swap2\n  pop\n  pop\n  jump\t// out\n    /* \"#utility.yul\":7542:7711   */\ntag_51:\n    /* \"#utility.yul\":7586:7592   */\n  0x00\n    /* \"#utility.yul\":7619:7670   */\n  tag_151\n    /* \"#utility.yul\":7667:7668   */\n  0x00\n    /* \"#utility.yul\":7663:7669   */\n  not\n    /* \"#utility.yul\":7655:7660   */\n  dup5\n    /* \"#utility.yul\":7652:7653   */\n  0x08\n    /* \"#utility.yul\":7648:7661   */\n  mul\n    /* \"#utility.yul\":7619:7670   */\n  tag_50\n  jump\t// in\ntag_151:\n    /* \"#utility.yul\":7615:7671   */\n  not\n    /* \"#utility.yul\":7700:7704   */\n  dup1\n    /* \"#utility.yul\":7694:7698   */\n  dup4\n    /* \"#utility.yul\":7690:7705   */\n  and\n    /* \"#utility.yul\":7680:7705   */\n  swap2\n  pop\n    /* \"#utility.yul\":7593:7711   */\n  pop\n    /* \"#utility.yul\":7542:7711   */\n  swap3\n  swap2\n  pop\n  pop\n  jump\t// out\n    /* \"#utility.yul\":7716:8011   */\ntag_52:\n    /* \"#utility.yul\":7792:7796   */\n  0x00\n    /* \"#utility.yul\":7938:7967   */\n  tag_153\n    /* \"#utility.yul\":7963:7966   */\n  dup4\n    /* \"#utility.yul\":7957:7961   */\n  dup4\n    /* \"#utility.yul\":7938:7967   */\n  tag_51\n  jump\t// in\ntag_153:\n    /* \"#utility.yul\":7930:7967   */\n  swap2\n  pop\n    /* \"#utility.yul\":8000:8003   */\n  dup3\n    /* \"#utility.yul\":7997:7998   */\n  0x02\n    /* \"#utility.yul\":7993:8004   */\n  mul\n    /* \"#utility.yul\":7987:7991   */\n  dup3\n    /* \"#utility.yul\":7984:8005   */\n  or\n    /* \"#utility.yul\":7976:8005   */\n  swap1\n  pop\n    /* \"#utility.yul\":7716:8011   */\n  swap3\n  swap2\n  pop\n  pop\n  jump\t// out\n    /* \"#utility.yul\":8016:9411   */\ntag_7:\n    /* \"#utility.yul\":8133:8170   */\n  tag_155\n    /* \"#utility.yul\":8166:8169   */\n  dup3\n    /* \"#utility.yul\":8133:8170   */\n  tag_35\n  jump\t// in\ntag_155:\n    /* \"#utility.yul\":8235:8253   */\n  0xffffffffffffffff\n    /* \"#utility.yul\":8227:8233   */\n  dup2\n    /* \"#utility.yul\":8224:8254   */\n  gt\n    /* \"#utility.yul\":8221:8277   */\n  iszero\n  tag_156\n  jumpi\n    /* \"#utility.yul\":8257:8275   */\n  tag_157\n  tag_22\n  jump\t// in\ntag_157:\n    /* \"#utility.yul\":8221:8277   */\ntag_156:\n    /* \"#utility.yul\":8301:8339   */\n  tag_158\n    /* \"#utility.yul\":8333:8337   */\n  dup3\n    /* \"#utility.yul\":8327:8338   */\n  sload\n    /* \"#utility.yul\":8301:8339   */\n  tag_37\n  jump\t// in\ntag_158:\n    /* \"#utility.yul\":8386:8453   */\n  tag_159\n    /* \"#utility.yul\":8446:8452   */\n  dup3\n    /* \"#utility.yul\":8438:8444   */\n  dup3\n    /* \"#utility.yul\":8432:8436   */\n  dup6\n    /* \"#utility.yul\":8386:8453   */\n  tag_49\n  jump\t// in\ntag_159:\n    /* \"#utility.yul\":8480:8481   */\n  0x00\n    /* \"#utility.yul\":8504:8508   */\n  0x20\n    /* \"#utility.yul\":8491:8508   */\n  swap1\n  pop\n    /* \"#utility.yul\":8536:8538   */\n  0x1f\n    /* \"#utility.yul\":8528:8534   */\n  dup4\n    /* \"#utility.yul\":8525:8539   */\n  gt\n    /* \"#utility.yul\":8553:8554   */\n  0x01\n    /* \"#utility.yul\":8548:9166   */\n  dup2\n  eq\n  tag_161\n  jumpi\n    /* \"#utility.yul\":9210:9211   */\n  0x00\n    /* \"#utility.yul\":9227:9233   */\n  dup5\n    /* \"#utility.yul\":9224:9301   */\n  iszero\n  tag_162\n  jumpi\n    /* \"#utility.yul\":9276:9285   */\n  dup3\n    /* \"#utility.yul\":9271:9274   */\n  dup8\n    /* \"#utility.yul\":9267:9286   */\n  add\n    /* \"#utility.yul\":9261:9287   */\n  mload\n    /* \"#utility.yul\":9252:9287   */\n  swap1\n  pop\n    /* \"#utility.yul\":9224:9301   */\ntag_162:\n    /* \"#utility.yul\":9327:9394   */\n  tag_163\n    /* \"#utility.yul\":9387:9393   */\n  dup6\n    /* \"#utility.yul\":9380:9385   */\n  dup3\n    /* \"#utility.yul\":9327:9394   */\n  tag_52\n  jump\t// in\ntag_163:\n    /* \"#utility.yul\":9321:9325   */\n  dup7\n    /* \"#utility.yul\":9314:9395   */\n  sstore\n    /* \"#utility.yul\":9183:9405   */\n  pop\n    /* \"#utility.yul\":8518:9405   */\n  jump(tag_160)\n    /* \"#utility.yul\":8548:9166   */\ntag_161:\n    /* \"#utility.yul\":8600:8604   */\n  0x1f\n    /* \"#utility.yul\":8596:8605   */\n  not\n    /* \"#utility.yul\":8588:8594   */\n  dup5\n    /* \"#utility.yul\":8584:8606   */\n  and\n    /* \"#utility.yul\":8634:8671   */\n  tag_164\n    /* \"#utility.yul\":8666:8670   */\n  dup7\n    /* \"#utility.yul\":8634:8671   */\n  tag_38\n  jump\t// in\ntag_164:\n    /* \"#utility.yul\":8693:8694   */\n  0x00\n    /* \"#utility.yul\":8707:8915   */\ntag_165:\n    /* \"#utility.yul\":8721:8728   */\n  dup3\n    /* \"#utility.yul\":8718:8719   */\n  dup2\n    /* \"#utility.yul\":8715:8729   */\n  lt\n    /* \"#utility.yul\":8707:8915   */\n  iszero\n  tag_167\n  jumpi\n    /* \"#utility.yul\":8800:8809   */\n  dup5\n    /* \"#utility.yul\":8795:8798   */\n  dup10\n    /* \"#utility.yul\":8791:8810   */\n  add\n    /* \"#utility.yul\":8785:8811   */\n  mload\n    /* \"#utility.yul\":8777:8783   */\n  dup3\n    /* \"#utility.yul\":8770:8812   */\n  sstore\n    /* \"#utility.yul\":8851:8852   */\n  0x01\n    /* \"#utility.yul\":8843:8849   */\n  dup3\n    /* \"#utility.yul\":8839:8853   */\n  add\n    /* \"#utility.yul\":8829:8853   */\n  swap2\n  pop\n    /* \"#utility.yul\":8898:8900   */\n  0x20\n    /* \"#utility.yul\":8887:8896   */\n  dup6\n    /* \"#utility.yul\":8883:8901   */\n  add\n    /* \"#utility.yul\":8870:8901   */\n  swap5\n  pop\n    /* \"#utility.yul\":8744:8748   */\n  0x20\n    /* \"#utility.yul\":8741:8742   */\n  dup2\n    /* \"#utility.yul\":8737:8749   */\n  add\n    /* \"#utility.yul\":8732:8749   */\n  swap1\n  pop\n    /* \"#utility.yul\":8707:8915   */\n  jump(tag_165)\ntag_167:\n    /* \"#utility.yul\":8943:8949   */\n  dup7\n    /* \"#utility.yul\":8934:8941   */\n  dup4\n    /* \"#utility.yul\":8931:8950   */\n  lt\n    /* \"#utility.yul\":8928:9107   */\n  iszero\n  tag_168\n  jumpi\n    /* \"#utility.yul\":9001:9010   */\n  dup5\n    /* \"#utility.yul\":8996:8999   */\n  dup10\n    /* \"#utility.yul\":8992:9011   */\n  add\n    /* \"#utility.yul\":8986:9012   */\n  mload\n    /* \"#utility.yul\":9044:9092   */\n  tag_169\n    /* \"#utility.yul\":9086:9090   */\n  0x1f\n    /* \"#utility.yul\":9078:9084   */\n  dup10\n    /* \"#utility.yul\":9074:9091   */\n  and\n    /* \"#utility.yul\":9063:9072   */\n  dup3\n    /* \"#utility.yul\":9044:9092   */\n  tag_51\n  jump\t// in\ntag_169:\n    /* \"#utility.yul\":9036:9042   */\n  dup4\n    /* \"#utility.yul\":9029:9093   */\n  sstore\n    /* \"#utility.yul\":8951:9107   */\n  pop\n    /* \"#utility.yul\":8928:9107   */\ntag_168:\n    /* \"#utility.yul\":9153:9154   */\n  0x01\n    /* \"#utility.yul\":9149:9150   */\n  0x02\n    /* \"#utility.yul\":9141:9147   */\n  dup9\n    /* \"#utility.yul\":9137:9151   */\n  mul\n    /* \"#utility.yul\":9133:9155   */\n  add\n    /* \"#utility.yul\":9127:9131   */\n  dup9\n    /* \"#utility.yul\":9120:9156   */\n  sstore\n    /* \"#utility.yul\":8555:9166   */\n  pop\n  pop\n  pop\n    /* \"#utility.yul\":8518:9405   */\ntag_160:\n  pop\n    /* \"#utility.yul\":8108:9411   */\n  pop\n  pop\n  pop\n    /* \"#utility.yul\":8016:9411   */\n  pop\n  pop\n  jump\t// out\n    /* \"#utility.yul\":9417:9597   */\ntag_53:\n    /* \"#utility.yul\":9465:9542   */\n  0x4e487b7100000000000000000000000000000000000000000000000000000000\n    /* \"#utility.yul\":9462:9463   */\n  0x00\n    /* \"#utility.yul\":9455:9543   */\n  mstore\n    /* \"#utility.yul\":9562:9566   */\n  0x11\n    /* \"#utility.yul\":9559:9560   */\n  0x04\n    /* \"#utility.yul\":9552:9567   */\n  mstore\n    /* \"#utility.yul\":9586:9590   */\n  0x24\n    /* \"#utility.yul\":9583:9584   */\n  0x00\n    /* \"#utility.yul\":9576:9591   */\n  revert\n    /* \"#utility.yul\":9603:9705   */\ntag_54:\n    /* \"#utility.yul\":9645:9653   */\n  0x00\n    /* \"#utility.yul\":9692:9697   */\n  dup2\n    /* \"#utility.yul\":9689:9690   */\n  0x01\n    /* \"#utility.yul\":9685:9698   */\n  shr\n    /* \"#utility.yul\":9664:9698   */\n  swap1\n  pop\n    /* \"#utility.yul\":9603:9705   */\n  swap2\n  swap1\n  pop\n  jump\t// out\n    /* \"#utility.yul\":9711:10559   */\ntag_55:\n    /* \"#utility.yul\":9772:9777   */\n  0x00\n    /* \"#utility.yul\":9779:9783   */\n  0x00\n    /* \"#utility.yul\":9803:9809   */\n  dup3\n    /* \"#utility.yul\":9794:9809   */\n  swap2\n  pop\n    /* \"#utility.yul\":9827:9832   */\n  dup4\n    /* \"#utility.yul\":9818:9832   */\n  swap1\n  pop\n    /* \"#utility.yul\":9841:10553   */\ntag_173:\n    /* \"#utility.yul\":9862:9863   */\n  0x01\n    /* \"#utility.yul\":9852:9860   */\n  dup6\n    /* \"#utility.yul\":9849:9864   */\n  gt\n    /* \"#utility.yul\":9841:10553   */\n  iszero\n  tag_175\n  jumpi\n    /* \"#utility.yul\":9957:9961   */\n  dup1\n    /* \"#utility.yul\":9952:9955   */\n  dup7\n    /* \"#utility.yul\":9948:9962   */\n  div\n    /* \"#utility.yul\":9942:9946   */\n  dup2\n    /* \"#utility.yul\":9939:9963   */\n  gt\n    /* \"#utility.yul\":9936:9986   */\n  iszero\n  tag_176\n  jumpi\n    /* \"#utility.yul\":9966:9984   */\n  tag_177\n  tag_53\n  jump\t// in\ntag_177:\n    /* \"#utility.yul\":9936:9986   */\ntag_176:\n    /* \"#utility.yul\":10016:10017   */\n  0x01\n    /* \"#utility.yul\":10006:10014   */\n  dup6\n    /* \"#utility.yul\":10002:10018   */\n  and\n    /* \"#utility.yul\":9999:10450   */\n  iszero\n  tag_178\n  jumpi\n    /* \"#utility.yul\":10431:10435   */\n  dup1\n    /* \"#utility.yul\":10424:10429   */\n  dup3\n    /* \"#utility.yul\":10420:10436   */\n  mul\n    /* \"#utility.yul\":10411:10436   */\n  swap2\n  pop\n    /* \"#utility.yul\":9999:10450   */\ntag_178:\n    /* \"#utility.yul\":10481:10485   */\n  dup1\n    /* \"#utility.yul\":10475:10479   */\n  dup2\n    /* \"#utility.yul\":10471:10486   */\n  mul\n    /* \"#utility.yul\":10463:10486   */\n  swap1\n  pop\n    /* \"#utility.yul\":10511:10543   */\n  tag_179\n    /* \"#utility.yul\":10534:10542   */\n  dup6\n    /* \"#utility.yul\":10511:10543   */\n  tag_54\n  jump\t// in\ntag_179:\n    /* \"#utility.yul\":10499:10543   */\n  swap5\n  pop\n    /* \"#utility.yul\":9841:10553   */\n  jump(tag_173)\ntag_175:\n    /* \"#utility.yul\":9711:10559   */\n  swap5\n  pop\n  swap5\n  swap3\n  pop\n  pop\n  pop\n  jump\t// out\n    /* \"#utility.yul\":10565:11638   */\ntag_56:\n    /* \"#utility.yul\":10619:10624   */\n  0x00\n    /* \"#utility.yul\":10810:10818   */\n  dup3\n    /* \"#utility.yul\":10800:10840   */\n  tag_181\n  jumpi\n    /* \"#utility.yul\":10831:10832   */\n  0x01\n    /* \"#utility.yul\":10822:10832   */\n  swap1\n  pop\n    /* \"#utility.yul\":10833:10838   */\n  jump(tag_180)\n    /* \"#utility.yul\":10800:10840   */\ntag_181:\n    /* \"#utility.yul\":10859:10863   */\n  dup2\n    /* \"#utility.yul\":10849:10885   */\n  tag_182\n  jumpi\n    /* \"#utility.yul\":10876:10877   */\n  0x00\n    /* \"#utility.yul\":10867:10877   */\n  swap1\n  pop\n    /* \"#utility.yul\":10878:10883   */\n  jump(tag_180)\n    /* \"#utility.yul\":10849:10885   */\ntag_182:\n    /* \"#utility.yul\":10945:10949   */\n  dup2\n    /* \"#utility.yul\":10993:10994   */\n  0x01\n    /* \"#utility.yul\":10988:11015   */\n  dup2\n  eq\n  tag_184\n  jumpi\n    /* \"#utility.yul\":11029:11030   */\n  0x02\n    /* \"#utility.yul\":11024:11215   */\n  dup2\n  eq\n  tag_185\n  jumpi\n    /* \"#utility.yul\":10938:11215   */\n  jump(tag_183)\n    /* \"#utility.yul\":10988:11015   */\ntag_184:\n    /* \"#utility.yul\":11006:11007   */\n  0x01\n    /* \"#utility.yul\":10997:11007   */\n  swap2\n  pop\n    /* \"#utility.yul\":11008:11013   */\n  pop\n  jump(tag_180)\n    /* \"#utility.yul\":11024:11215   */\ntag_185:\n    /* \"#utility.yul\":11069:11072   */\n  0xff\n    /* \"#utility.yul\":11059:11067   */\n  dup5\n    /* \"#utility.yul\":11056:11073   */\n  gt\n    /* \"#utility.yul\":11053:11096   */\n  iszero\n  tag_186\n  jumpi\n    /* \"#utility.yul\":11076:11094   */\n  tag_187\n  tag_53\n  jump\t// in\ntag_187:\n    /* \"#utility.yul\":11053:11096   */\ntag_186:\n    /* \"#utility.yul\":11125:11133   */\n  dup4\n    /* \"#utility.yul\":11122:11123   */\n  0x02\n    /* \"#utility.yul\":11118:11134   */\n  exp\n    /* \"#utility.yul\":11109:11134   */\n  swap2\n  pop\n    /* \"#utility.yul\":11160:11163   */\n  dup5\n    /* \"#utility.yul\":11153:11158   */\n  dup3\n    /* \"#utility.yul\":11150:11164   */\n  gt\n    /* \"#utility.yul\":11147:11187   */\n  iszero\n  tag_188\n  jumpi\n    /* \"#utility.yul\":11167:11185   */\n  tag_189\n  tag_53\n  jump\t// in\ntag_189:\n    /* \"#utility.yul\":11147:11187   */\ntag_188:\n    /* \"#utility.yul\":11200:11205   */\n  pop\n  jump(tag_180)\n    /* \"#utility.yul\":10938:11215   */\ntag_183:\n  pop\n    /* \"#utility.yul\":11324:11326   */\n  0x20\n    /* \"#utility.yul\":11314:11322   */\n  dup4\n    /* \"#utility.yul\":11311:11327   */\n  lt\n    /* \"#utility.yul\":11305:11308   */\n  0x0133\n    /* \"#utility.yul\":11299:11303   */\n  dup4\n    /* \"#utility.yul\":11296:11309   */\n  lt\n    /* \"#utility.yul\":11292:11328   */\n  and\n    /* \"#utility.yul\":11274:11276   */\n  0x4e\n    /* \"#utility.yul\":11264:11272   */\n  dup5\n    /* \"#utility.yul\":11261:11277   */\n  lt\n    /* \"#utility.yul\":11256:11258   */\n  0x0b\n    /* \"#utility.yul\":11250:11254   */\n  dup5\n    /* \"#utility.yul\":11247:11259   */\n  lt\n    /* \"#utility.yul\":11243:11278   */\n  and\n    /* \"#utility.yul\":11227:11338   */\n  or\n    /* \"#utility.yul\":11224:11470   */\n  iszero\n  tag_190\n  jumpi\n    /* \"#utility.yul\":11380:11388   */\n  dup3\n    /* \"#utility.yul\":11374:11378   */\n  dup3\n    /* \"#utility.yul\":11370:11389   */\n  exp\n    /* \"#utility.yul\":11361:11389   */\n  swap1\n  pop\n    /* \"#utility.yul\":11415:11418   */\n  dup4\n    /* \"#utility.yul\":11408:11413   */\n  dup2\n    /* \"#utility.yul\":11405:11419   */\n  gt\n    /* \"#utility.yul\":11402:11442   */\n  iszero\n  tag_191\n  jumpi\n    /* \"#utility.yul\":11422:11440   */\n  tag_192\n  tag_53\n  jump\t// in\ntag_192:\n    /* \"#utility.yul\":11402:11442   */\ntag_191:\n    /* \"#utility.yul\":11455:11460   */\n  jump(tag_180)\n    /* \"#utility.yul\":11224:11470   */\ntag_190:\n    /* \"#utility.yul\":11495:11537   */\n  tag_193\n    /* \"#utility.yul\":11533:11536   */\n  dup5\n    /* \"#utility.yul\":11523:11531   */\n  dup5\n    /* \"#utility.yul\":11517:11521   */\n  dup5\n    /* \"#utility.yul\":11514:11515   */\n  0x01\n    /* \"#utility.yul\":11495:11537   */\n  tag_55\n  jump\t// in\ntag_193:\n    /* \"#utility.yul\":11480:11537   */\n  swap3\n  pop\n  swap1\n  pop\n    /* \"#utility.yul\":11569:11573   */\n  dup2\n    /* \"#utility.yul\":11564:11567   */\n  dup5\n    /* \"#utility.yul\":11560:11574   */\n  div\n    /* \"#utility.yul\":11553:11558   */\n  dup2\n    /* \"#utility.yul\":11550:11575   */\n  gt\n    /* \"#utility.yul\":11547:11598   */\n  iszero\n  tag_194\n  jumpi\n    /* \"#utility.yul\":11578:11596   */\n  tag_195\n  tag_53\n  jump\t// in\ntag_195:\n    /* \"#utility.yul\":11547:11598   */\ntag_194:\n    /* \"#utility.yul\":11627:11631   */\n  dup2\n    /* \"#utility.yul\":11620:11625   */\n  dup2\n    /* \"#utility.yul\":11616:11632   */\n  mul\n    /* \"#utility.yul\":11607:11632   */\n  swap1\n  pop\n    /* \"#utility.yul\":10565:11638   */\ntag_180:\n  swap4\n  swap3\n  pop\n  pop\n  pop\n  jump\t// out\n    /* \"#utility.yul\":11644:11925   */\ntag_10:\n    /* \"#utility.yul\":11702:11707   */\n  0x00\n    /* \"#utility.yul\":11726:11749   */\n  tag_197\n    /* \"#utility.yul\":11744:11748   */\n  dup3\n    /* \"#utility.yul\":11726:11749   */\n  tag_32\n  jump\t// in\ntag_197:\n    /* \"#utility.yul\":11718:11749   */\n  swap2\n  pop\n    /* \"#utility.yul\":11770:11795   */\n  tag_198\n    /* \"#utility.yul\":11786:11794   */\n  dup4\n    /* \"#utility.yul\":11770:11795   */\n  tag_29\n  jump\t// in\ntag_198:\n    /* \"#utility.yul\":11758:11795   */\n  swap3\n  pop\n    /* \"#utility.yul\":11814:11918   */\n  tag_199\n    /* \"#utility.yul\":11851:11917   */\n  0xffffffffffffffffffffffffffffffffffffffffffffffffffffffffffffffff\n    /* \"#utility.yul\":11841:11849   */\n  dup5\n    /* \"#utility.yul\":11835:11839   */\n  dup5\n    /* \"#utility.yul\":11814:11918   */\n  tag_56\n  jump\t// in\ntag_199:\n    /* \"#utility.yul\":11805:11918   */\n  swap1\n  pop\n    /* \"#utility.yul\":11644:11925   */\n  swap3\n  swap2\n  pop\n  pop\n  jump\t// out\n    /* \"#utility.yul\":11931:12341   */\ntag_12:\n    /* \"#utility.yul\":11971:11978   */\n  0x00\n    /* \"#utility.yul\":11994:12014   */\n  tag_201\n    /* \"#utility.yul\":12012:12013   */\n  dup3\n    /* \"#utility.yul\":11994:12014   */\n  tag_32\n  jump\t// in\ntag_201:\n    /* \"#utility.yul\":11989:12014   */\n  swap2\n  pop\n    /* \"#utility.yul\":12028:12048   */\n  tag_202\n    /* \"#utility.yul\":12046:12047   */\n  dup4\n    /* \"#utility.yul\":12028:12048   */\n  tag_32\n  jump\t// in\ntag_202:\n    /* \"#utility.yul\":12023:12048   */\n  swap3\n  pop\n    /* \"#utility.yul\":12083:12084   */\n  dup3\n    /* \"#utility.yul\":12080:12081   */\n  dup3\n    /* \"#utility.yul\":12076:12085   */\n  mul\n    /* \"#utility.yul\":12105:12135   */\n  tag_203\n    /* \"#utility.yul\":12123:12134   */\n  dup2\n    /* \"#utility.yul\":12105:12135   */\n  tag_32\n  jump\t// in\ntag_203:\n    /* \"#utility.yul\":12094:12135   */\n  swap2\n  pop\n    /* \"#utility.yul\":12284:12285   */\n  dup3\n    /* \"#utility.yul\":12275:12282   */\n  dup3\n    /* \"#utility.yul\":12271:12286   */\n  div\n    /* \"#utility.yul\":12268:12269   */\n  dup5\n    /* \"#utility.yul\":12265:12287   */\n  eq\n    /* \"#utility.yul\":12245:12246   */\n  dup4\n    /* \"#utility.yul\":12238:12247   */\n  iszero\n    /* \"#utility.yul\":12218:12301   */\n  or\n    /* \"#utility.yul\":12195:12334   */\n  tag_204\n  jumpi\n    /* \"#utility.yul\":12314:12332   */\n  tag_205\n  tag_53\n  jump\t// in\ntag_205:\n    /* \"#utility.yul\":12195:12334   */\ntag_204:\n    /* \"#utility.yul\":11979:12341   */\n  pop\n    /* \"#utility.yul\":11931:12341   */\n  swap3\n  swap2\n  pop\n  pop\n  jump\t// out\n    /* \"#utility.yul\":12347:12465   */\ntag_57:\n    /* \"#utility.yul\":12434:12458   */\n  tag_207\n    /* \"#utility.yul\":12452:12457   */\n  dup2\n    /* \"#utility.yul\":12434:12458   */\n  tag_32\n  jump\t// in\ntag_207:\n    /* \"#utility.yul\":12429:12432   */\n  dup3\n    /* \"#utility.yul\":12422:12459   */\n  mstore\n    /* \"#utility.yul\":12347:12465   */\n  pop\n  pop\n  jump\t// out\n    /* \"#utility.yul\":12471:12693   */\ntag_14:\n    /* \"#utility.yul\":12564:12568   */\n  0x00\n    /* \"#utility.yul\":12602:12604   */\n  0x20\n    /* \"#utility.yul\":12591:12600   */\n  dup3\n    /* \"#utility.yul\":12587:12605   */\n  add\n    /* \"#utility.yul\":12579:12605   */\n  swap1\n  pop\n    /* \"#utility.yul\":12615:12686   */\n  tag_209\n    /* \"#utility.yul\":12683:12684   */\n  0x00\n    /* \"#utility.yul\":12672:12681   */\n  dup4\n    /* \"#utility.yul\":12668:12685   */\n  add\n    /* \"#utility.yul\":12659:12665   */\n  dup5\n    /* \"#utility.yul\":12615:12686   */\n  tag_57\n  jump\t// in\ntag_209:\n    /* \"#utility.yul\":12471:12693   */\n  swap3\n  swap2\n  pop\n  pop\n  jump\t// out\n    /* \"tryit/ecr20.sol\":69:3731  contract myfirstToken {... */\ntag_15:\n  dataSize(sub_0)\n  dup1\n  dataOffset(sub_0)\n  0x00\n  codecopy\n  0x00\n  return\nstop\n\nsub_0: assembly {\n        /* \"tryit/ecr20.sol\":69:3731  contract myfirstToken {... */\n      mstore(0x40, 0x80)\n      callvalue\n      dup1\n      iszero\n      tag_1\n      jumpi\n      revert(0x00, 0x00)\n    tag_1:\n      pop\n      jumpi(tag_2, lt(calldatasize, 0x04))\n      shr(0xe0, calldataload(0x00))\n      dup1\n      0x72dd529b\n      gt\n      tag_15\n      jumpi\n      dup1\n      0x72dd529b\n      eq\n      tag_9\n      jumpi\n      dup1\n      0x78592150\n      eq\n      tag_10\n      jumpi\n      dup1\n      0x9537c2d6\n      eq\n      tag_11\n      jumpi\n      dup1\n      0x95d89b41\n      eq\n      tag_12\n      jumpi\n      dup1\n      0xa9059cbb\n      eq\n      tag_13\n      jumpi\n      dup1\n      0xdd62ed3e\n      eq\n      tag_14\n      jumpi\n      jump(tag_2)\n    tag_15:\n      dup1\n      0x06fdde03\n      eq\n      tag_3\n      jumpi\n      dup1\n      0x095ea7b3\n      eq\n      tag_4\n      jumpi\n      dup1\n      0x313ce567\n      eq\n      tag_5\n      jumpi\n      dup1\n      0x39509351\n      eq\n      tag_6\n      jumpi\n      dup1\n      0x42966c68\n      eq\n      tag_7\n      jumpi\n      dup1\n      0x63b0545f\n      eq\n      tag_8\n      jumpi\n    tag_2:\n      revert(0x00, 0x00)\n        /* \"tryit/ecr20.sol\":98:116  string public name */\n    tag_3:\n      tag_16\n      tag_17\n      jump\t// in\n    tag_16:\n      mload(0x40)\n      tag_18\n      swap2\n      swap1\n      tag_19\n      jump\t// in\n    tag_18:\n      mload(0x40)\n      dup1\n      swap2\n      sub\n      swap1\n      return\n        /* \"tryit/ecr20.sol\":1291:1439  function approve(address spender, uint256 amount) public returns (bool) {... */\n    tag_4:\n      tag_20\n      0x04\n      dup1\n      calldatasize\n      sub\n      dup2\n      add\n      swap1\n      tag_21\n      swap2\n      swap1\n      tag_22\n      jump\t// in\n    tag_21:\n      tag_23\n      jump\t// in\n    tag_20:\n      mload(0x40)\n      tag_24\n      swap2\n      swap1\n      tag_25\n      jump\t// in\n    tag_24:\n      mload(0x40)\n      dup1\n      swap2\n      sub\n      swap1\n      return\n        /* \"tryit/ecr20.sol\":150:171  uint8 public decimals */\n    tag_5:\n      tag_26\n      tag_27\n      jump\t// in\n    tag_26:\n      mload(0x40)\n      tag_28\n      swap2\n      swap1\n      tag_29\n      jump\t// in\n    tag_28:\n      mload(0x40)\n      dup1\n      swap2\n      sub\n      swap1\n      return\n        /* \"tryit/ecr20.sol\":2849:3049  function increaseAllowance(address spender, uint256 addedValue) public returns(bool) {... */\n    tag_6:\n      tag_30\n      0x04\n      dup1\n      calldatasize\n      sub\n      dup2\n      add\n      swap1\n      tag_31\n      swap2\n      swap1\n      tag_22\n      jump\t// in\n    tag_31:\n      tag_32\n      jump\t// in\n    tag_30:\n      mload(0x40)\n      tag_33\n      swap2\n      swap1\n      tag_25\n      jump\t// in\n    tag_33:\n      mload(0x40)\n      dup1\n      swap2\n      sub\n      swap1\n      return\n        /* \"tryit/ecr20.sol\":3425:3721  function burn(uint256 amount) public {... */\n    tag_7:\n      tag_34\n      0x04\n      dup1\n      calldatasize\n      sub\n      dup2\n      add\n      swap1\n      tag_35\n      swap2\n      swap1\n      tag_36\n      jump\t// in\n    tag_35:\n      tag_37\n      jump\t// in\n    tag_34:\n      stop\n        /* \"tryit/ecr20.sol\":1447:1652  function transferfrom(address from,address to,uint256 amount) public returns (bool) {... */\n    tag_8:\n      tag_38\n      0x04\n      dup1\n      calldatasize\n      sub\n      dup2\n      add\n      swap1\n      tag_39\n      swap2\n      swap1\n      tag_40\n      jump\t// in\n    tag_39:\n      tag_41\n      jump\t// in\n    tag_38:\n      mload(0x40)\n      tag_42\n      swap2\n      swap1\n      tag_25\n      jump\t// in\n    tag_42:\n      mload(0x40)\n      dup1\n      swap2\n      sub\n      swap1\n      return\n        /* \"tryit/ecr20.sol\":178:204  uint256 public totalsupply */\n    tag_9:\n      tag_43\n      tag_44\n      jump\t// in\n    tag_43:\n      mload(0x40)\n      tag_45\n      swap2\n      swap1\n      tag_46\n      jump\t// in\n    tag_45:\n      mload(0x40)\n      dup1\n      swap2\n      sub\n      swap1\n      return\n        /* \"tryit/ecr20.sol\":867:984  function Balanceof(address account) public view returns(uint256 balance) {... */\n    tag_10:\n      tag_47\n      0x04\n      dup1\n      calldatasize\n      sub\n      dup2\n      add\n      swap1\n      tag_48\n      swap2\n      swap1\n      tag_49\n      jump\t// in\n    tag_48:\n      tag_50\n      jump\t// in\n    tag_47:\n      mload(0x40)\n      tag_51\n      swap2\n      swap1\n      tag_46\n      jump\t// in\n    tag_51:\n      mload(0x40)\n      dup1\n      swap2\n      sub\n      swap1\n      return\n        /* \"tryit/ecr20.sol\":3057:3417  function decreaseAllowannce(address spender, uint256 subtractedValue) public returns(bool) {... */\n    tag_11:\n      tag_52\n      0x04\n      dup1\n      calldatasize\n      sub\n      dup2\n      add\n      swap1\n      tag_53\n      swap2\n      swap1\n      tag_22\n      jump\t// in\n    tag_53:\n      tag_54\n      jump\t// in\n    tag_52:\n      mload(0x40)\n      tag_55\n      swap2\n      swap1\n      tag_25\n      jump\t// in\n    tag_55:\n      mload(0x40)\n      dup1\n      swap2\n      sub\n      swap1\n      return\n        /* \"tryit/ecr20.sol\":123:143  string public symbol */\n    tag_12:\n      tag_56\n      tag_57\n      jump\t// in\n    tag_56:\n      mload(0x40)\n      tag_58\n      swap2\n      swap1\n      tag_19\n      jump\t// in\n    tag_58:\n      mload(0x40)\n      dup1\n      swap2\n      sub\n      swap1\n      return\n        /* \"tryit/ecr20.sol\":992:1132  function transfer(address to, uint256 amount) public returns (bool) {... */\n    tag_13:\n      tag_59\n      0x04\n      dup1\n      calldatasize\n      sub\n      dup2\n      add\n      swap1\n      tag_60\n      swap2\n      swap1\n      tag_22\n      jump\t// in\n    tag_60:\n      tag_61\n      jump\t// in\n    tag_59:\n      mload(0x40)\n      tag_62\n      swap2\n      swap1\n      tag_25\n      jump\t// in\n    tag_62:\n      mload(0x40)\n      dup1\n      swap2\n      sub\n      swap1\n      return\n        /* \"tryit/ecr20.sol\":1140:1284  function allowance(address owner, address spender) public view returns (uint256 remaining) {... */\n    tag_14:\n      tag_63\n      0x04\n      dup1\n      calldatasize\n      sub\n      dup2\n      add\n      swap1\n      tag_64\n      swap2\n      swap1\n      tag_65\n      jump\t// in\n    tag_64:\n      tag_66\n      jump\t// in\n    tag_63:\n      mload(0x40)\n      tag_67\n      swap2\n      swap1\n      tag_46\n      jump\t// in\n    tag_67:\n      mload(0x40)\n      dup1\n      swap2\n      sub\n      swap1\n      return\n        /* \"tryit/ecr20.sol\":98:116  string public name */\n    tag_17:\n      0x00\n      dup1\n      sload\n      tag_68\n      swap1\n      tag_69\n      jump\t// in\n    tag_68:\n      dup1\n      0x1f\n      add\n      0x20\n      dup1\n      swap2\n      div\n      mul\n      0x20\n      add\n      mload(0x40)\n      swap1\n      dup2\n      add\n      0x40\n      mstore\n      dup1\n      swap3\n      swap2\n      swap1\n      dup2\n      dup2\n      mstore\n      0x20\n      add\n      dup3\n      dup1\n      sload\n      tag_70\n      swap1\n      tag_69\n      jump\t// in\n    tag_70:\n      dup1\n      iszero\n      tag_71\n      jumpi\n      dup1\n      0x1f\n      lt\n      tag_72\n      jumpi\n      0x0100\n      dup1\n      dup4\n      sload\n      div\n      mul\n      dup4\n      mstore\n      swap2\n      0x20\n      add\n      swap2\n      jump(tag_71)\n    tag_72:\n      dup3\n      add\n      swap2\n      swap1\n      0x00\n      mstore\n      keccak256(0x00, 0x20)\n      swap1\n    tag_73:\n      dup2\n      sload\n      dup2\n      mstore\n      swap1\n      0x01\n      add\n      swap1\n      0x20\n      add\n      dup1\n      dup4\n      gt\n      tag_73\n      jumpi\n      dup3\n      swap1\n      sub\n      0x1f\n      and\n      dup3\n      add\n      swap2\n    tag_71:\n      pop\n      pop\n      pop\n      pop\n      pop\n      dup2\n      jump\t// out\n        /* \"tryit/ecr20.sol\":1291:1439  function approve(address spender, uint256 amount) public returns (bool) {... */\n    tag_23:\n        /* \"tryit/ecr20.sol\":1357:1361  bool */\n      0x00\n        /* \"tryit/ecr20.sol\":1374:1409  _approve(msg.sender,spender,amount) */\n      tag_75\n        /* \"tryit/ecr20.sol\":1383:1393  msg.sender */\n      caller\n        /* \"tryit/ecr20.sol\":1394:1401  spender */\n      dup5\n        /* \"tryit/ecr20.sol\":1402:1408  amount */\n      dup5\n        /* \"tryit/ecr20.sol\":1374:1382  _approve */\n      tag_76\n        /* \"tryit/ecr20.sol\":1374:1409  _approve(msg.sender,spender,amount) */\n      jump\t// in\n    tag_75:\n        /* \"tryit/ecr20.sol\":1427:1431  true */\n      0x01\n        /* \"tryit/ecr20.sol\":1420:1431  return true */\n      swap1\n      pop\n        /* \"tryit/ecr20.sol\":1291:1439  function approve(address spender, uint256 amount) public returns (bool) {... */\n      swap3\n      swap2\n      pop\n      pop\n      jump\t// out\n        /* \"tryit/ecr20.sol\":150:171  uint8 public decimals */\n    tag_27:\n      0x02\n      0x00\n      swap1\n      sload\n      swap1\n      0x0100\n      exp\n      swap1\n      div\n      0xff\n      and\n      dup2\n      jump\t// out\n        /* \"tryit/ecr20.sol\":2849:3049  function increaseAllowance(address spender, uint256 addedValue) public returns(bool) {... */\n    tag_32:\n        /* \"tryit/ecr20.sol\":2928:2932  bool */\n      0x00\n        /* \"tryit/ecr20.sol\":2945:3019  _approve(msg.sender, spender, _allowances[msg.sender][spender]+addedValue) */\n      tag_78\n        /* \"tryit/ecr20.sol\":2954:2964  msg.sender */\n      caller\n        /* \"tryit/ecr20.sol\":2966:2973  spender */\n      dup5\n        /* \"tryit/ecr20.sol\":3008:3018  addedValue */\n      dup5\n        /* \"tryit/ecr20.sol\":2975:2986  _allowances */\n      0x05\n        /* \"tryit/ecr20.sol\":2975:2998  _allowances[msg.sender] */\n      0x00\n        /* \"tryit/ecr20.sol\":2987:2997  msg.sender */\n      caller\n        /* \"tryit/ecr20.sol\":2975:2998  _allowances[msg.sender] */\n      0xffffffffffffffffffffffffffffffffffffffff\n      and\n      0xffffffffffffffffffffffffffffffffffffffff\n      and\n      dup2\n      mstore\n      0x20\n      add\n      swap1\n      dup2\n      mstore\n      0x20\n      add\n      0x00\n      keccak256\n        /* \"tryit/ecr20.sol\":2975:3007  _allowances[msg.sender][spender] */\n      0x00\n        /* \"tryit/ecr20.sol\":2999:3006  spender */\n      dup9\n        /* \"tryit/ecr20.sol\":2975:3007  _allowances[msg.sender][spender] */\n      0xffffffffffffffffffffffffffffffffffffffff\n      and\n      0xffffffffffffffffffffffffffffffffffffffff\n      and\n      dup2\n      mstore\n      0x20\n      add\n      swap1\n      dup2\n      mstore\n      0x20\n      add\n      0x00\n      keccak256\n      sload\n        /* \"tryit/ecr20.sol\":2975:3018  _allowances[msg.sender][spender]+addedValue */\n      tag_79\n      swap2\n      swap1\n      tag_80\n      jump\t// in\n    tag_79:\n        /* \"tryit/ecr20.sol\":2945:2953  _approve */\n      tag_76\n        /* \"tryit/ecr20.sol\":2945:3019  _approve(msg.sender, spender, _allowances[msg.sender][spender]+addedValue) */\n      jump\t// in\n    tag_78:\n        /* \"tryit/ecr20.sol\":3037:3041  true */\n      0x01\n        /* \"tryit/ecr20.sol\":3030:3041  return true */\n      swap1\n      pop\n        /* \"tryit/ecr20.sol\":2849:3049  function increaseAllowance(address spender, uint256 addedValue) public returns(bool) {... */\n      swap3\n      swap2\n      pop\n      pop\n      jump\t// out\n        /* \"tryit/ecr20.sol\":3425:3721  function burn(uint256 amount) public {... */\n    tag_37:\n        /* \"tryit/ecr20.sol\":3506:3512  amount */\n      dup1\n        /* \"tryit/ecr20.sol\":3481:3490  _balances */\n      0x04\n        /* \"tryit/ecr20.sol\":3481:3502  _balances[msg.sender] */\n      0x00\n        /* \"tryit/ecr20.sol\":3491:3501  msg.sender */\n      caller\n        /* \"tryit/ecr20.sol\":3481:3502  _balances[msg.sender] */\n      0xffffffffffffffffffffffffffffffffffffffff\n      and\n      0xffffffffffffffffffffffffffffffffffffffff\n      and\n      dup2\n      mstore\n      0x20\n      add\n      swap1\n      dup2\n      mstore\n      0x20\n      add\n      0x00\n      keccak256\n      sload\n        /* \"tryit/ecr20.sol\":3481:3512  _balances[msg.sender] >= amount */\n      lt\n      iszero\n        /* \"tryit/ecr20.sol\":3473:3551  require(_balances[msg.sender] >= amount, \"ERC20: burn amount exceeds balance\") */\n      tag_82\n      jumpi\n      mload(0x40)\n      0x08c379a000000000000000000000000000000000000000000000000000000000\n      dup2\n      mstore\n      0x04\n      add\n      tag_83\n      swap1\n      tag_84\n      jump\t// in\n    tag_83:\n      mload(0x40)\n      dup1\n      swap2\n      sub\n      swap1\n      revert\n    tag_82:\n        /* \"tryit/ecr20.sol\":3587:3593  amount */\n      dup1\n        /* \"tryit/ecr20.sol\":3562:3571  _balances */\n      0x04\n        /* \"tryit/ecr20.sol\":3562:3583  _balances[msg.sender] */\n      0x00\n        /* \"tryit/ecr20.sol\":3572:3582  msg.sender */\n      caller\n        /* \"tryit/ecr20.sol\":3562:3583  _balances[msg.sender] */\n      0xffffffffffffffffffffffffffffffffffffffff\n      and\n      0xffffffffffffffffffffffffffffffffffffffff\n      and\n      dup2\n      mstore\n      0x20\n      add\n      swap1\n      dup2\n      mstore\n      0x20\n      add\n      0x00\n      keccak256\n      0x00\n        /* \"tryit/ecr20.sol\":3562:3593  _balances[msg.sender] -= amount */\n      dup3\n      dup3\n      sload\n      tag_85\n      swap2\n      swap1\n      tag_86\n      jump\t// in\n    tag_85:\n      swap3\n      pop\n      pop\n      dup2\n      swap1\n      sstore\n      pop\n        /* \"tryit/ecr20.sol\":3619:3625  amount */\n      dup1\n        /* \"tryit/ecr20.sol\":3604:3615  totalsupply */\n      0x03\n      0x00\n        /* \"tryit/ecr20.sol\":3604:3625  totalsupply -= amount */\n      dup3\n      dup3\n      sload\n      tag_87\n      swap2\n      swap1\n      tag_86\n      jump\t// in\n    tag_87:\n      swap3\n      pop\n      pop\n      dup2\n      swap1\n      sstore\n      pop\n        /* \"tryit/ecr20.sol\":3651:3657  amount */\n      dup1\n        /* \"tryit/ecr20.sol\":3636:3647  totalsupply */\n      0x03\n      0x00\n        /* \"tryit/ecr20.sol\":3636:3657  totalsupply -= amount */\n      dup3\n      dup3\n      sload\n      tag_88\n      swap2\n      swap1\n      tag_86\n      jump\t// in\n    tag_88:\n      swap3\n      pop\n      pop\n      dup2\n      swap1\n      sstore\n      pop\n        /* \"tryit/ecr20.sol\":3702:3703  0 */\n      0x00\n        /* \"tryit/ecr20.sol\":3673:3713  Transfer(msg.sender, address(0), amount) */\n      0xffffffffffffffffffffffffffffffffffffffff\n      and\n        /* \"tryit/ecr20.sol\":3682:3692  msg.sender */\n      caller\n        /* \"tryit/ecr20.sol\":3673:3713  Transfer(msg.sender, address(0), amount) */\n      0xffffffffffffffffffffffffffffffffffffffff\n      and\n      0xddf252ad1be2c89b69c2b068fc378daa952ba7f163c4a11628f55a4df523b3ef\n        /* \"tryit/ecr20.sol\":3706:3712  amount */\n      dup4\n        /* \"tryit/ecr20.sol\":3673:3713  Transfer(msg.sender, address(0), amount) */\n      mload(0x40)\n      tag_89\n      swap2\n      swap1\n      tag_46\n      jump\t// in\n    tag_89:\n      mload(0x40)\n      dup1\n      swap2\n      sub\n      swap1\n      log3\n        /* \"tryit/ecr20.sol\":3425:3721  function burn(uint256 amount) public {... */\n      pop\n      jump\t// out\n        /* \"tryit/ecr20.sol\":1447:1652  function transferfrom(address from,address to,uint256 amount) public returns (bool) {... */\n    tag_41:\n        /* \"tryit/ecr20.sol\":1525:1529  bool */\n      0x00\n        /* \"tryit/ecr20.sol\":1542:1583  _spendAllowance(from, msg.sender, amount) */\n      tag_91\n        /* \"tryit/ecr20.sol\":1558:1562  from */\n      dup5\n        /* \"tryit/ecr20.sol\":1564:1574  msg.sender */\n      caller\n        /* \"tryit/ecr20.sol\":1576:1582  amount */\n      dup5\n        /* \"tryit/ecr20.sol\":1542:1557  _spendAllowance */\n      tag_92\n        /* \"tryit/ecr20.sol\":1542:1583  _spendAllowance(from, msg.sender, amount) */\n      jump\t// in\n    tag_91:\n        /* \"tryit/ecr20.sol\":1594:1622  _transfer(from, to , amount) */\n      tag_93\n        /* \"tryit/ecr20.sol\":1604:1608  from */\n      dup5\n        /* \"tryit/ecr20.sol\":1610:1612  to */\n      dup5\n        /* \"tryit/ecr20.sol\":1615:1621  amount */\n      dup5\n        /* \"tryit/ecr20.sol\":1594:1603  _transfer */\n      tag_94\n        /* \"tryit/ecr20.sol\":1594:1622  _transfer(from, to , amount) */\n      jump\t// in\n    tag_93:\n        /* \"tryit/ecr20.sol\":1640:1644  true */\n      0x01\n        /* \"tryit/ecr20.sol\":1633:1644  return true */\n      swap1\n      pop\n        /* \"tryit/ecr20.sol\":1447:1652  function transferfrom(address from,address to,uint256 amount) public returns (bool) {... */\n      swap4\n      swap3\n      pop\n      pop\n      pop\n      jump\t// out\n        /* \"tryit/ecr20.sol\":178:204  uint256 public totalsupply */\n    tag_44:\n      sload(0x03)\n      dup2\n      jump\t// out\n        /* \"tryit/ecr20.sol\":867:984  function Balanceof(address account) public view returns(uint256 balance) {... */\n    tag_50:\n        /* \"tryit/ecr20.sol\":923:938  uint256 balance */\n      0x00\n        /* \"tryit/ecr20.sol\":958:967  _balances */\n      0x04\n        /* \"tryit/ecr20.sol\":958:976  _balances[account] */\n      0x00\n        /* \"tryit/ecr20.sol\":968:975  account */\n      dup4\n        /* \"tryit/ecr20.sol\":958:976  _balances[account] */\n      0xffffffffffffffffffffffffffffffffffffffff\n      and\n      0xffffffffffffffffffffffffffffffffffffffff\n      and\n      dup2\n      mstore\n      0x20\n      add\n      swap1\n      dup2\n      mstore\n      0x20\n      add\n      0x00\n      keccak256\n      sload\n        /* \"tryit/ecr20.sol\":951:976  return _balances[account] */\n      swap1\n      pop\n        /* \"tryit/ecr20.sol\":867:984  function Balanceof(address account) public view returns(uint256 balance) {... */\n      swap2\n      swap1\n      pop\n      jump\t// out\n        /* \"tryit/ecr20.sol\":3057:3417  function decreaseAllowannce(address spender, uint256 subtractedValue) public returns(bool) {... */\n    tag_54:\n        /* \"tryit/ecr20.sol\":3142:3146  bool */\n      0x00\n        /* \"tryit/ecr20.sol\":3159:3183  uint256 currentAllowance */\n      0x00\n        /* \"tryit/ecr20.sol\":3186:3197  _allowances */\n      0x05\n        /* \"tryit/ecr20.sol\":3186:3209  _allowances[msg.sender] */\n      0x00\n        /* \"tryit/ecr20.sol\":3198:3208  msg.sender */\n      caller\n        /* \"tryit/ecr20.sol\":3186:3209  _allowances[msg.sender] */\n      0xffffffffffffffffffffffffffffffffffffffff\n      and\n      0xffffffffffffffffffffffffffffffffffffffff\n      and\n      dup2\n      mstore\n      0x20\n      add\n      swap1\n      dup2\n      mstore\n      0x20\n      add\n      0x00\n      keccak256\n        /* \"tryit/ecr20.sol\":3186:3218  _allowances[msg.sender][spender] */\n      0x00\n        /* \"tryit/ecr20.sol\":3210:3217  spender */\n      dup6\n        /* \"tryit/ecr20.sol\":3186:3218  _allowances[msg.sender][spender] */\n      0xffffffffffffffffffffffffffffffffffffffff\n      and\n      0xffffffffffffffffffffffffffffffffffffffff\n      and\n      dup2\n      mstore\n      0x20\n      add\n      swap1\n      dup2\n      mstore\n      0x20\n      add\n      0x00\n      keccak256\n      sload\n        /* \"tryit/ecr20.sol\":3159:3218  uint256 currentAllowance = _allowances[msg.sender][spender] */\n      swap1\n      pop\n        /* \"tryit/ecr20.sol\":3257:3272  subtractedValue */\n      dup3\n        /* \"tryit/ecr20.sol\":3237:3253  currentAllowance */\n      dup2\n        /* \"tryit/ecr20.sol\":3237:3272  currentAllowance >= subtractedValue */\n      lt\n      iszero\n        /* \"tryit/ecr20.sol\":3229:3313  require(currentAllowance >= subtractedValue,\"ECR20: decreased Allowance below zero\") */\n      tag_97\n      jumpi\n      mload(0x40)\n      0x08c379a000000000000000000000000000000000000000000000000000000000\n      dup2\n      mstore\n      0x04\n      add\n      tag_98\n      swap1\n      tag_99\n      jump\t// in\n    tag_98:\n      mload(0x40)\n      dup1\n      swap2\n      sub\n      swap1\n      revert\n    tag_97:\n        /* \"tryit/ecr20.sol\":3324:3387  _approve(msg.sender, spender, currentAllowance-subtractedValue) */\n      tag_100\n        /* \"tryit/ecr20.sol\":3333:3343  msg.sender */\n      caller\n        /* \"tryit/ecr20.sol\":3345:3352  spender */\n      dup6\n        /* \"tryit/ecr20.sol\":3371:3386  subtractedValue */\n      dup6\n        /* \"tryit/ecr20.sol\":3354:3370  currentAllowance */\n      dup5\n        /* \"tryit/ecr20.sol\":3354:3386  currentAllowance-subtractedValue */\n      tag_101\n      swap2\n      swap1\n      tag_86\n      jump\t// in\n    tag_101:\n        /* \"tryit/ecr20.sol\":3324:3332  _approve */\n      tag_76\n        /* \"tryit/ecr20.sol\":3324:3387  _approve(msg.sender, spender, currentAllowance-subtractedValue) */\n      jump\t// in\n    tag_100:\n        /* \"tryit/ecr20.sol\":3405:3409  true */\n      0x01\n        /* \"tryit/ecr20.sol\":3398:3409  return true */\n      swap2\n      pop\n      pop\n        /* \"tryit/ecr20.sol\":3057:3417  function decreaseAllowannce(address spender, uint256 subtractedValue) public returns(bool) {... */\n      swap3\n      swap2\n      pop\n      pop\n      jump\t// out\n        /* \"tryit/ecr20.sol\":123:143  string public symbol */\n    tag_57:\n      0x01\n      dup1\n      sload\n      tag_102\n      swap1\n      tag_69\n      jump\t// in\n    tag_102:\n      dup1\n      0x1f\n      add\n      0x20\n      dup1\n      swap2\n      div\n      mul\n      0x20\n      add\n      mload(0x40)\n      swap1\n      dup2\n      add\n      0x40\n      mstore\n      dup1\n      swap3\n      swap2\n      swap1\n      dup2\n      dup2\n      mstore\n      0x20\n      add\n      dup3\n      dup1\n      sload\n      tag_103\n      swap1\n      tag_69\n      jump\t// in\n    tag_103:\n      dup1\n      iszero\n      tag_104\n      jumpi\n      dup1\n      0x1f\n      lt\n      tag_105\n      jumpi\n      0x0100\n      dup1\n      dup4\n      sload\n      div\n      mul\n      dup4\n      mstore\n      swap2\n      0x20\n      add\n      swap2\n      jump(tag_104)\n    tag_105:\n      dup3\n      add\n      swap2\n      swap1\n      0x00\n      mstore\n      keccak256(0x00, 0x20)\n      swap1\n    tag_106:\n      dup2\n      sload\n      dup2\n      mstore\n      swap1\n      0x01\n      add\n      swap1\n      0x20\n      add\n      dup1\n      dup4\n      gt\n      tag_106\n      jumpi\n      dup3\n      swap1\n      sub\n      0x1f\n      and\n      dup3\n      add\n      swap2\n    tag_104:\n      pop\n      pop\n      pop\n      pop\n      pop\n      dup2\n      jump\t// out\n        /* \"tryit/ecr20.sol\":992:1132  function transfer(address to, uint256 amount) public returns (bool) {... */\n    tag_61:\n        /* \"tryit/ecr20.sol\":1054:1058  bool */\n      0x00\n        /* \"tryit/ecr20.sol\":1071:1102  _transfer(msg.sender,to,amount) */\n      tag_108\n        /* \"tryit/ecr20.sol\":1081:1091  msg.sender */\n      caller\n        /* \"tryit/ecr20.sol\":1092:1094  to */\n      dup5\n        /* \"tryit/ecr20.sol\":1095:1101  amount */\n      dup5\n        /* \"tryit/ecr20.sol\":1071:1080  _transfer */\n      tag_94\n        /* \"tryit/ecr20.sol\":1071:1102  _transfer(msg.sender,to,amount) */\n      jump\t// in\n    tag_108:\n        /* \"tryit/ecr20.sol\":1120:1124  true */\n      0x01\n        /* \"tryit/ecr20.sol\":1113:1124  return true */\n      swap1\n      pop\n        /* \"tryit/ecr20.sol\":992:1132  function transfer(address to, uint256 amount) public returns (bool) {... */\n      swap3\n      swap2\n      pop\n      pop\n      jump\t// out\n        /* \"tryit/ecr20.sol\":1140:1284  function allowance(address owner, address spender) public view returns (uint256 remaining) {... */\n    tag_66:\n        /* \"tryit/ecr20.sol\":1212:1229  uint256 remaining */\n      0x00\n        /* \"tryit/ecr20.sol\":1249:1260  _allowances */\n      0x05\n        /* \"tryit/ecr20.sol\":1249:1267  _allowances[owner] */\n      0x00\n        /* \"tryit/ecr20.sol\":1261:1266  owner */\n      dup5\n        /* \"tryit/ecr20.sol\":1249:1267  _allowances[owner] */\n      0xffffffffffffffffffffffffffffffffffffffff\n      and\n      0xffffffffffffffffffffffffffffffffffffffff\n      and\n      dup2\n      mstore\n      0x20\n      add\n      swap1\n      dup2\n      mstore\n      0x20\n      add\n      0x00\n      keccak256\n        /* \"tryit/ecr20.sol\":1249:1276  _allowances[owner][spender] */\n      0x00\n        /* \"tryit/ecr20.sol\":1268:1275  spender */\n      dup4\n        /* \"tryit/ecr20.sol\":1249:1276  _allowances[owner][spender] */\n      0xffffffffffffffffffffffffffffffffffffffff\n      and\n      0xffffffffffffffffffffffffffffffffffffffff\n      and\n      dup2\n      mstore\n      0x20\n      add\n      swap1\n      dup2\n      mstore\n      0x20\n      add\n      0x00\n      keccak256\n      sload\n        /* \"tryit/ecr20.sol\":1242:1276  return _allowances[owner][spender] */\n      swap1\n      pop\n        /* \"tryit/ecr20.sol\":1140:1284  function allowance(address owner, address spender) public view returns (uint256 remaining) {... */\n      swap3\n      swap2\n      pop\n      pop\n      jump\t// out\n        /* \"tryit/ecr20.sol\":2149:2485  function _approve(address owner, address spender, uint256 amount) internal {... */\n    tag_76:\n        /* \"tryit/ecr20.sol\":2260:2261  0 */\n      0x00\n        /* \"tryit/ecr20.sol\":2243:2262  owner != address(0) */\n      0xffffffffffffffffffffffffffffffffffffffff\n      and\n        /* \"tryit/ecr20.sol\":2243:2248  owner */\n      dup4\n        /* \"tryit/ecr20.sol\":2243:2262  owner != address(0) */\n      0xffffffffffffffffffffffffffffffffffffffff\n      and\n      sub\n        /* \"tryit/ecr20.sol\":2235:2303  require(owner != address(0), \"ERC20: approve from the zero address\") */\n      tag_111\n      jumpi\n      mload(0x40)\n      0x08c379a000000000000000000000000000000000000000000000000000000000\n      dup2\n      mstore\n      0x04\n      add\n      tag_112\n      swap1\n      tag_113\n      jump\t// in\n    tag_112:\n      mload(0x40)\n      dup1\n      swap2\n      sub\n      swap1\n      revert\n    tag_111:\n        /* \"tryit/ecr20.sol\":2341:2342  0 */\n      0x00\n        /* \"tryit/ecr20.sol\":2322:2343  spender != address(0) */\n      0xffffffffffffffffffffffffffffffffffffffff\n      and\n        /* \"tryit/ecr20.sol\":2322:2329  spender */\n      dup3\n        /* \"tryit/ecr20.sol\":2322:2343  spender != address(0) */\n      0xffffffffffffffffffffffffffffffffffffffff\n      and\n      sub\n        /* \"tryit/ecr20.sol\":2314:2382  require(spender != address(0), \"ERC20: approve to the zero address\") */\n      tag_114\n      jumpi\n      mload(0x40)\n      0x08c379a000000000000000000000000000000000000000000000000000000000\n      dup2\n      mstore\n      0x04\n      add\n      tag_115\n      swap1\n      tag_116\n      jump\t// in\n    tag_115:\n      mload(0x40)\n      dup1\n      swap2\n      sub\n      swap1\n      revert\n    tag_114:\n        /* \"tryit/ecr20.sol\":2423:2429  amount */\n      dup1\n        /* \"tryit/ecr20.sol\":2393:2404  _allowances */\n      0x05\n        /* \"tryit/ecr20.sol\":2393:2411  _allowances[owner] */\n      0x00\n        /* \"tryit/ecr20.sol\":2405:2410  owner */\n      dup6\n        /* \"tryit/ecr20.sol\":2393:2411  _allowances[owner] */\n      0xffffffffffffffffffffffffffffffffffffffff\n      and\n      0xffffffffffffffffffffffffffffffffffffffff\n      and\n      dup2\n      mstore\n      0x20\n      add\n      swap1\n      dup2\n      mstore\n      0x20\n      add\n      0x00\n      keccak256\n        /* \"tryit/ecr20.sol\":2393:2420  _allowances[owner][spender] */\n      0x00\n        /* \"tryit/ecr20.sol\":2412:2419  spender */\n      dup5\n        /* \"tryit/ecr20.sol\":2393:2420  _allowances[owner][spender] */\n      0xffffffffffffffffffffffffffffffffffffffff\n      and\n      0xffffffffffffffffffffffffffffffffffffffff\n      and\n      dup2\n      mstore\n      0x20\n      add\n      swap1\n      dup2\n      mstore\n      0x20\n      add\n      0x00\n      keccak256\n        /* \"tryit/ecr20.sol\":2393:2429  _allowances[owner][spender] = amount */\n      dup2\n      swap1\n      sstore\n      pop\n        /* \"tryit/ecr20.sol\":2460:2467  spender */\n      dup2\n        /* \"tryit/ecr20.sol\":2445:2476  Approve(owner, spender, amount) */\n      0xffffffffffffffffffffffffffffffffffffffff\n      and\n        /* \"tryit/ecr20.sol\":2453:2458  owner */\n      dup4\n        /* \"tryit/ecr20.sol\":2445:2476  Approve(owner, spender, amount) */\n      0xffffffffffffffffffffffffffffffffffffffff\n      and\n      0x6e11fb1b7f119e3f2fa29896ef5fdf8b8a2d0d4df6fe90ba8668e7d8b2ffa25e\n        /* \"tryit/ecr20.sol\":2469:2475  amount */\n      dup4\n        /* \"tryit/ecr20.sol\":2445:2476  Approve(owner, spender, amount) */\n      mload(0x40)\n      tag_117\n      swap2\n      swap1\n      tag_46\n      jump\t// in\n    tag_117:\n      mload(0x40)\n      dup1\n      swap2\n      sub\n      swap1\n      log3\n        /* \"tryit/ecr20.sol\":2149:2485  function _approve(address owner, address spender, uint256 amount) internal {... */\n      pop\n      pop\n      pop\n      jump\t// out\n        /* \"tryit/ecr20.sol\":2493:2841  function _spendAllowance(address owner, address spender, uint256 amount) internal {... */\n    tag_92:\n        /* \"tryit/ecr20.sol\":2583:2607  uint256 currentAllowance */\n      0x00\n        /* \"tryit/ecr20.sol\":2609:2634  allowance(owner, spender) */\n      tag_119\n        /* \"tryit/ecr20.sol\":2619:2624  owner */\n      dup5\n        /* \"tryit/ecr20.sol\":2626:2633  spender */\n      dup5\n        /* \"tryit/ecr20.sol\":2609:2618  allowance */\n      tag_66\n        /* \"tryit/ecr20.sol\":2609:2634  allowance(owner, spender) */\n      jump\t// in\n    tag_119:\n        /* \"tryit/ecr20.sol\":2583:2634  uint256 currentAllowance =allowance(owner, spender) */\n      swap1\n      pop\n        /* \"tryit/ecr20.sol\":2666:2683  type(uint256).max */\n      0xffffffffffffffffffffffffffffffffffffffffffffffffffffffffffffffff\n        /* \"tryit/ecr20.sol\":2646:2662  currentAllowance */\n      dup2\n        /* \"tryit/ecr20.sol\":2646:2683  currentAllowance != type(uint256).max */\n      eq\n        /* \"tryit/ecr20.sol\":2642:2834  if (currentAllowance != type(uint256).max) {... */\n      tag_120\n      jumpi\n        /* \"tryit/ecr20.sol\":2723:2729  amount */\n      dup2\n        /* \"tryit/ecr20.sol\":2704:2720  currentAllowance */\n      dup2\n        /* \"tryit/ecr20.sol\":2704:2729  currentAllowance >=amount */\n      lt\n      iszero\n        /* \"tryit/ecr20.sol\":2696:2763  require(currentAllowance >=amount, \"ECR20: insufficiant allowance\") */\n      tag_121\n      jumpi\n      mload(0x40)\n      0x08c379a000000000000000000000000000000000000000000000000000000000\n      dup2\n      mstore\n      0x04\n      add\n      tag_122\n      swap1\n      tag_123\n      jump\t// in\n    tag_122:\n      mload(0x40)\n      dup1\n      swap2\n      sub\n      swap1\n      revert\n    tag_121:\n        /* \"tryit/ecr20.sol\":2774:2825  _approve(owner, spender, currentAllowance - amount) */\n      tag_124\n        /* \"tryit/ecr20.sol\":2783:2788  owner */\n      dup5\n        /* \"tryit/ecr20.sol\":2790:2797  spender */\n      dup5\n        /* \"tryit/ecr20.sol\":2818:2824  amount */\n      dup5\n        /* \"tryit/ecr20.sol\":2799:2815  currentAllowance */\n      dup5\n        /* \"tryit/ecr20.sol\":2799:2824  currentAllowance - amount */\n      tag_125\n      swap2\n      swap1\n      tag_86\n      jump\t// in\n    tag_125:\n        /* \"tryit/ecr20.sol\":2774:2782  _approve */\n      tag_76\n        /* \"tryit/ecr20.sol\":2774:2825  _approve(owner, spender, currentAllowance - amount) */\n      jump\t// in\n    tag_124:\n        /* \"tryit/ecr20.sol\":2642:2834  if (currentAllowance != type(uint256).max) {... */\n    tag_120:\n        /* \"tryit/ecr20.sol\":2575:2841  {... */\n      pop\n        /* \"tryit/ecr20.sol\":2493:2841  function _spendAllowance(address owner, address spender, uint256 amount) internal {... */\n      pop\n      pop\n      pop\n      jump\t// out\n        /* \"tryit/ecr20.sol\":1660:2140  function _transfer(address from, address to, uint256 amount) internal {... */\n    tag_94:\n        /* \"tryit/ecr20.sol\":1766:1767  0 */\n      0x00\n        /* \"tryit/ecr20.sol\":1749:1768  from != address (0) */\n      0xffffffffffffffffffffffffffffffffffffffff\n      and\n        /* \"tryit/ecr20.sol\":1749:1753  from */\n      dup4\n        /* \"tryit/ecr20.sol\":1749:1768  from != address (0) */\n      0xffffffffffffffffffffffffffffffffffffffff\n      and\n      sub\n        /* \"tryit/ecr20.sol\":1741:1803  require(from != address (0), \"transfer from the zero address\") */\n      tag_127\n      jumpi\n      mload(0x40)\n      0x08c379a000000000000000000000000000000000000000000000000000000000\n      dup2\n      mstore\n      0x04\n      add\n      tag_128\n      swap1\n      tag_129\n      jump\t// in\n    tag_128:\n      mload(0x40)\n      dup1\n      swap2\n      sub\n      swap1\n      revert\n    tag_127:\n        /* \"tryit/ecr20.sol\":1839:1840  0 */\n      0x00\n        /* \"tryit/ecr20.sol\":1823:1841  from != address(0) */\n      0xffffffffffffffffffffffffffffffffffffffff\n      and\n        /* \"tryit/ecr20.sol\":1823:1827  from */\n      dup4\n        /* \"tryit/ecr20.sol\":1823:1841  from != address(0) */\n      0xffffffffffffffffffffffffffffffffffffffff\n      and\n      sub\n        /* \"tryit/ecr20.sol\":1814:1873  require (from != address(0),\"transfer to the zero account\") */\n      tag_130\n      jumpi\n      mload(0x40)\n      0x08c379a000000000000000000000000000000000000000000000000000000000\n      dup2\n      mstore\n      0x04\n      add\n      tag_131\n      swap1\n      tag_132\n      jump\t// in\n    tag_131:\n      mload(0x40)\n      dup1\n      swap2\n      sub\n      swap1\n      revert\n    tag_130:\n        /* \"tryit/ecr20.sol\":1886:1905  uint256 fromBalance */\n      0x00\n        /* \"tryit/ecr20.sol\":1908:1917  _balances */\n      0x04\n        /* \"tryit/ecr20.sol\":1908:1923  _balances[from] */\n      0x00\n        /* \"tryit/ecr20.sol\":1918:1922  from */\n      dup6\n        /* \"tryit/ecr20.sol\":1908:1923  _balances[from] */\n      0xffffffffffffffffffffffffffffffffffffffff\n      and\n      0xffffffffffffffffffffffffffffffffffffffff\n      and\n      dup2\n      mstore\n      0x20\n      add\n      swap1\n      dup2\n      mstore\n      0x20\n      add\n      0x00\n      keccak256\n      sload\n        /* \"tryit/ecr20.sol\":1886:1923  uint256 fromBalance = _balances[from] */\n      swap1\n      pop\n        /* \"tryit/ecr20.sol\":1958:1964  amount */\n      dup2\n        /* \"tryit/ecr20.sol\":1943:1954  fromBalance */\n      dup2\n        /* \"tryit/ecr20.sol\":1943:1964  fromBalance >= amount */\n      lt\n      iszero\n        /* \"tryit/ecr20.sol\":1934:2004  require (fromBalance >= amount, \"transfer amount exceeds the balance\") */\n      tag_133\n      jumpi\n      mload(0x40)\n      0x08c379a000000000000000000000000000000000000000000000000000000000\n      dup2\n      mstore\n      0x04\n      add\n      tag_134\n      swap1\n      tag_135\n      jump\t// in\n    tag_134:\n      mload(0x40)\n      dup1\n      swap2\n      sub\n      swap1\n      revert\n    tag_133:\n        /* \"tryit/ecr20.sol\":2048:2054  amount */\n      dup2\n        /* \"tryit/ecr20.sol\":2034:2045  fromBalance */\n      dup2\n        /* \"tryit/ecr20.sol\":2034:2054  fromBalance - amount */\n      tag_136\n      swap2\n      swap1\n      tag_86\n      jump\t// in\n    tag_136:\n        /* \"tryit/ecr20.sol\":2017:2026  _balances */\n      0x04\n        /* \"tryit/ecr20.sol\":2017:2032  _balances[from] */\n      0x00\n        /* \"tryit/ecr20.sol\":2027:2031  from */\n      dup7\n        /* \"tryit/ecr20.sol\":2017:2032  _balances[from] */\n      0xffffffffffffffffffffffffffffffffffffffff\n      and\n      0xffffffffffffffffffffffffffffffffffffffff\n      and\n      dup2\n      mstore\n      0x20\n      add\n      swap1\n      dup2\n      mstore\n      0x20\n      add\n      0x00\n      keccak256\n        /* \"tryit/ecr20.sol\":2017:2054  _balances[from]= fromBalance - amount */\n      dup2\n      swap1\n      sstore\n      pop\n        /* \"tryit/ecr20.sol\":2082:2088  amount */\n      dup2\n        /* \"tryit/ecr20.sol\":2065:2074  _balances */\n      0x04\n        /* \"tryit/ecr20.sol\":2065:2078  _balances[to] */\n      0x00\n        /* \"tryit/ecr20.sol\":2075:2077  to */\n      dup6\n        /* \"tryit/ecr20.sol\":2065:2078  _balances[to] */\n      0xffffffffffffffffffffffffffffffffffffffff\n      and\n      0xffffffffffffffffffffffffffffffffffffffff\n      and\n      dup2\n      mstore\n      0x20\n      add\n      swap1\n      dup2\n      mstore\n      0x20\n      add\n      0x00\n      keccak256\n      0x00\n        /* \"tryit/ecr20.sol\":2065:2088  _balances[to] += amount */\n      dup3\n      dup3\n      sload\n      tag_137\n      swap2\n      swap1\n      tag_80\n      jump\t// in\n    tag_137:\n      swap3\n      pop\n      pop\n      dup2\n      swap1\n      sstore\n      pop\n        /* \"tryit/ecr20.sol\":2121:2123  to */\n      dup3\n        /* \"tryit/ecr20.sol\":2106:2132  Transfer(from, to, amount) */\n      0xffffffffffffffffffffffffffffffffffffffff\n      and\n        /* \"tryit/ecr20.sol\":2115:2119  from */\n      dup5\n        /* \"tryit/ecr20.sol\":2106:2132  Transfer(from, to, amount) */\n      0xffffffffffffffffffffffffffffffffffffffff\n      and\n      0xddf252ad1be2c89b69c2b068fc378daa952ba7f163c4a11628f55a4df523b3ef\n        /* \"tryit/ecr20.sol\":2125:2131  amount */\n      dup5\n        /* \"tryit/ecr20.sol\":2106:2132  Transfer(from, to, amount) */\n      mload(0x40)\n      tag_138\n      swap2\n      swap1\n      tag_46\n      jump\t// in\n    tag_138:\n      mload(0x40)\n      dup1\n      swap2\n      sub\n      swap1\n      log3\n        /* \"tryit/ecr20.sol\":1730:2140  {... */\n      pop\n        /* \"tryit/ecr20.sol\":1660:2140  function _transfer(address from, address to, uint256 amount) internal {... */\n      pop\n      pop\n      pop\n      jump\t// out\n        /* \"#utility.yul\":7:106   */\n    tag_139:\n        /* \"#utility.yul\":59:65   */\n      0x00\n        /* \"#utility.yul\":93:98   */\n      dup2\n        /* \"#utility.yul\":87:99   */\n      mload\n        /* \"#utility.yul\":77:99   */\n      swap1\n      pop\n        /* \"#utility.yul\":7:106   */\n      swap2\n      swap1\n      pop\n      jump\t// out\n        /* \"#utility.yul\":112:281   */\n    tag_140:\n        /* \"#utility.yul\":196:207   */\n      0x00\n        /* \"#utility.yul\":230:236   */\n      dup3\n        /* \"#utility.yul\":225:228   */\n      dup3\n        /* \"#utility.yul\":218:237   */\n      mstore\n        /* \"#utility.yul\":270:274   */\n      0x20\n        /* \"#utility.yul\":265:268   */\n      dup3\n        /* \"#utility.yul\":261:275   */\n      add\n        /* \"#utility.yul\":246:275   */\n      swap1\n      pop\n        /* \"#utility.yul\":112:281   */\n      swap3\n      swap2\n      pop\n      pop\n      jump\t// out\n        /* \"#utility.yul\":287:426   */\n    tag_141:\n        /* \"#utility.yul\":376:382   */\n      dup3\n        /* \"#utility.yul\":371:374   */\n      dup2\n        /* \"#utility.yul\":366:369   */\n      dup4\n        /* \"#utility.yul\":360:383   */\n      mcopy\n        /* \"#utility.yul\":417:418   */\n      0x00\n        /* \"#utility.yul\":408:414   */\n      dup4\n        /* \"#utility.yul\":403:406   */\n      dup4\n        /* \"#utility.yul\":399:415   */\n      add\n        /* \"#utility.yul\":392:419   */\n      mstore\n        /* \"#utility.yul\":287:426   */\n      pop\n      pop\n      pop\n      jump\t// out\n        /* \"#utility.yul\":432:534   */\n    tag_142:\n        /* \"#utility.yul\":473:479   */\n      0x00\n        /* \"#utility.yul\":524:526   */\n      0x1f\n        /* \"#utility.yul\":520:527   */\n      not\n        /* \"#utility.yul\":515:517   */\n      0x1f\n        /* \"#utility.yul\":508:513   */\n      dup4\n        /* \"#utility.yul\":504:518   */\n      add\n        /* \"#utility.yul\":500:528   */\n      and\n        /* \"#utility.yul\":490:528   */\n      swap1\n      pop\n        /* \"#utility.yul\":432:534   */\n      swap2\n      swap1\n      pop\n      jump\t// out\n        /* \"#utility.yul\":540:917   */\n    tag_143:\n        /* \"#utility.yul\":628:631   */\n      0x00\n        /* \"#utility.yul\":656:695   */\n      tag_183\n        /* \"#utility.yul\":689:694   */\n      dup3\n        /* \"#utility.yul\":656:695   */\n      tag_139\n      jump\t// in\n    tag_183:\n        /* \"#utility.yul\":711:782   */\n      tag_184\n        /* \"#utility.yul\":775:781   */\n      dup2\n        /* \"#utility.yul\":770:773   */\n      dup6\n        /* \"#utility.yul\":711:782   */\n      tag_140\n      jump\t// in\n    tag_184:\n        /* \"#utility.yul\":704:782   */\n      swap4\n      pop\n        /* \"#utility.yul\":791:856   */\n      tag_185\n        /* \"#utility.yul\":849:855   */\n      dup2\n        /* \"#utility.yul\":844:847   */\n      dup6\n        /* \"#utility.yul\":837:841   */\n      0x20\n        /* \"#utility.yul\":830:835   */\n      dup7\n        /* \"#utility.yul\":826:842   */\n      add\n        /* \"#utility.yul\":791:856   */\n      tag_141\n      jump\t// in\n    tag_185:\n        /* \"#utility.yul\":881:910   */\n      tag_186\n        /* \"#utility.yul\":903:909   */\n      dup2\n        /* \"#utility.yul\":881:910   */\n      tag_142\n      jump\t// in\n    tag_186:\n        /* \"#utility.yul\":876:879   */\n      dup5\n        /* \"#utility.yul\":872:911   */\n      add\n        /* \"#utility.yul\":865:911   */\n      swap2\n      pop\n        /* \"#utility.yul\":632:917   */\n      pop\n        /* \"#utility.yul\":540:917   */\n      swap3\n      swap2\n      pop\n      pop\n      jump\t// out\n        /* \"#utility.yul\":923:1236   */\n    tag_19:\n        /* \"#utility.yul\":1036:1040   */\n      0x00\n        /* \"#utility.yul\":1074:1076   */\n      0x20\n        /* \"#utility.yul\":1063:1072   */\n      dup3\n        /* \"#utility.yul\":1059:1077   */\n      add\n        /* \"#utility.yul\":1051:1077   */\n      swap1\n      pop\n        /* \"#utility.yul\":1123:1132   */\n      dup2\n        /* \"#utility.yul\":1117:1121   */\n      dup2\n        /* \"#utility.yul\":1113:1133   */\n      sub\n        /* \"#utility.yul\":1109:1110   */\n      0x00\n        /* \"#utility.yul\":1098:1107   */\n      dup4\n        /* \"#utility.yul\":1094:1111   */\n      add\n        /* \"#utility.yul\":1087:1134   */\n      mstore\n        /* \"#utility.yul\":1151:1229   */\n      tag_188\n        /* \"#utility.yul\":1224:1228   */\n      dup2\n        /* \"#utility.yul\":1215:1221   */\n      dup5\n        /* \"#utility.yul\":1151:1229   */\n      tag_143\n      jump\t// in\n    tag_188:\n        /* \"#utility.yul\":1143:1229   */\n      swap1\n      pop\n        /* \"#utility.yul\":923:1236   */\n      swap3\n      swap2\n      pop\n      pop\n      jump\t// out\n        /* \"#utility.yul\":1323:1440   */\n    tag_145:\n        /* \"#utility.yul\":1432:1433   */\n      0x00\n        /* \"#utility.yul\":1429:1430   */\n      0x00\n        /* \"#utility.yul\":1422:1434   */\n      revert\n        /* \"#utility.yul\":1569:1695   */\n    tag_147:\n        /* \"#utility.yul\":1606:1613   */\n      0x00\n        /* \"#utility.yul\":1646:1688   */\n      0xffffffffffffffffffffffffffffffffffffffff\n        /* \"#utility.yul\":1639:1644   */\n      dup3\n        /* \"#utility.yul\":1635:1689   */\n      and\n        /* \"#utility.yul\":1624:1689   */\n      swap1\n      pop\n        /* \"#utility.yul\":1569:1695   */\n      swap2\n      swap1\n      pop\n      jump\t// out\n        /* \"#utility.yul\":1701:1797   */\n    tag_148:\n        /* \"#utility.yul\":1738:1745   */\n      0x00\n        /* \"#utility.yul\":1767:1791   */\n      tag_194\n        /* \"#utility.yul\":1785:1790   */\n      dup3\n        /* \"#utility.yul\":1767:1791   */\n      tag_147\n      jump\t// in\n    tag_194:\n        /* \"#utility.yul\":1756:1791   */\n      swap1\n      pop\n        /* \"#utility.yul\":1701:1797   */\n      swap2\n      swap1\n      pop\n      jump\t// out\n        /* \"#utility.yul\":1803:1925   */\n    tag_149:\n        /* \"#utility.yul\":1876:1900   */\n      tag_196\n        /* \"#utility.yul\":1894:1899   */\n      dup2\n        /* \"#utility.yul\":1876:1900   */\n      tag_148\n      jump\t// in\n    tag_196:\n        /* \"#utility.yul\":1869:1874   */\n      dup2\n        /* \"#utility.yul\":1866:1901   */\n      eq\n        /* \"#utility.yul\":1856:1919   */\n      tag_197\n      jumpi\n        /* \"#utility.yul\":1915:1916   */\n      0x00\n        /* \"#utility.yul\":1912:1913   */\n      0x00\n        /* \"#utility.yul\":1905:1917   */\n      revert\n        /* \"#utility.yul\":1856:1919   */\n    tag_197:\n        /* \"#utility.yul\":1803:1925   */\n      pop\n      jump\t// out\n        /* \"#utility.yul\":1931:2070   */\n    tag_150:\n        /* \"#utility.yul\":1977:1982   */\n      0x00\n        /* \"#utility.yul\":2015:2021   */\n      dup2\n        /* \"#utility.yul\":2002:2022   */\n      calldataload\n        /* \"#utility.yul\":1993:2022   */\n      swap1\n      pop\n        /* \"#utility.yul\":2031:2064   */\n      tag_199\n        /* \"#utility.yul\":2058:2063   */\n      dup2\n        /* \"#utility.yul\":2031:2064   */\n      tag_149\n      jump\t// in\n    tag_199:\n        /* \"#utility.yul\":1931:2070   */\n      swap3\n      swap2\n      pop\n      pop\n      jump\t// out\n        /* \"#utility.yul\":2076:2153   */\n    tag_151:\n        /* \"#utility.yul\":2113:2120   */\n      0x00\n        /* \"#utility.yul\":2142:2147   */\n      dup2\n        /* \"#utility.yul\":2131:2147   */\n      swap1\n      pop\n        /* \"#utility.yul\":2076:2153   */\n      swap2\n      swap1\n      pop\n      jump\t// out\n        /* \"#utility.yul\":2159:2281   */\n    tag_152:\n        /* \"#utility.yul\":2232:2256   */\n      tag_202\n        /* \"#utility.yul\":2250:2255   */\n      dup2\n        /* \"#utility.yul\":2232:2256   */\n      tag_151\n      jump\t// in\n    tag_202:\n        /* \"#utility.yul\":2225:2230   */\n      dup2\n        /* \"#utility.yul\":2222:2257   */\n      eq\n        /* \"#utility.yul\":2212:2275   */\n      tag_203\n      jumpi\n        /* \"#utility.yul\":2271:2272   */\n      0x00\n        /* \"#utility.yul\":2268:2269   */\n      0x00\n        /* \"#utility.yul\":2261:2273   */\n      revert\n        /* \"#utility.yul\":2212:2275   */\n    tag_203:\n        /* \"#utility.yul\":2159:2281   */\n      pop\n      jump\t// out\n        /* \"#utility.yul\":2287:2426   */\n    tag_153:\n        /* \"#utility.yul\":2333:2338   */\n      0x00\n        /* \"#utility.yul\":2371:2377   */\n      dup2\n        /* \"#utility.yul\":2358:2378   */\n      calldataload\n        /* \"#utility.yul\":2349:2378   */\n      swap1\n      pop\n        /* \"#utility.yul\":2387:2420   */\n      tag_205\n        /* \"#utility.yul\":2414:2419   */\n      dup2\n        /* \"#utility.yul\":2387:2420   */\n      tag_152\n      jump\t// in\n    tag_205:\n        /* \"#utility.yul\":2287:2426   */\n      swap3\n      swap2\n      pop\n      pop\n      jump\t// out\n        /* \"#utility.yul\":2432:2906   */\n    tag_22:\n        /* \"#utility.yul\":2500:2506   */\n      0x00\n        /* \"#utility.yul\":2508:2514   */\n      0x00\n        /* \"#utility.yul\":2557:2559   */\n      0x40\n        /* \"#utility.yul\":2545:2554   */\n      dup4\n        /* \"#utility.yul\":2536:2543   */\n      dup6\n        /* \"#utility.yul\":2532:2555   */\n      sub\n        /* \"#utility.yul\":2528:2560   */\n      slt\n        /* \"#utility.yul\":2525:2644   */\n      iszero\n      tag_207\n      jumpi\n        /* \"#utility.yul\":2563:2642   */\n      tag_208\n      tag_145\n      jump\t// in\n    tag_208:\n        /* \"#utility.yul\":2525:2644   */\n    tag_207:\n        /* \"#utility.yul\":2683:2684   */\n      0x00\n        /* \"#utility.yul\":2708:2761   */\n      tag_209\n        /* \"#utility.yul\":2753:2760   */\n      dup6\n        /* \"#utility.yul\":2744:2750   */\n      dup3\n        /* \"#utility.yul\":2733:2742   */\n      dup7\n        /* \"#utility.yul\":2729:2751   */\n      add\n        /* \"#utility.yul\":2708:2761   */\n      tag_150\n      jump\t// in\n    tag_209:\n        /* \"#utility.yul\":2698:2761   */\n      swap3\n      pop\n        /* \"#utility.yul\":2654:2771   */\n      pop\n        /* \"#utility.yul\":2810:2812   */\n      0x20\n        /* \"#utility.yul\":2836:2889   */\n      tag_210\n        /* \"#utility.yul\":2881:2888   */\n      dup6\n        /* \"#utility.yul\":2872:2878   */\n      dup3\n        /* \"#utility.yul\":2861:2870   */\n      dup7\n        /* \"#utility.yul\":2857:2879   */\n      add\n        /* \"#utility.yul\":2836:2889   */\n      tag_153\n      jump\t// in\n    tag_210:\n        /* \"#utility.yul\":2826:2889   */\n      swap2\n      pop\n        /* \"#utility.yul\":2781:2899   */\n      pop\n        /* \"#utility.yul\":2432:2906   */\n      swap3\n      pop\n      swap3\n      swap1\n      pop\n      jump\t// out\n        /* \"#utility.yul\":2912:3002   */\n    tag_154:\n        /* \"#utility.yul\":2946:2953   */\n      0x00\n        /* \"#utility.yul\":2989:2994   */\n      dup2\n        /* \"#utility.yul\":2982:2995   */\n      iszero\n        /* \"#utility.yul\":2975:2996   */\n      iszero\n        /* \"#utility.yul\":2964:2996   */\n      swap1\n      pop\n        /* \"#utility.yul\":2912:3002   */\n      swap2\n      swap1\n      pop\n      jump\t// out\n        /* \"#utility.yul\":3008:3117   */\n    tag_155:\n        /* \"#utility.yul\":3089:3110   */\n      tag_213\n        /* \"#utility.yul\":3104:3109   */\n      dup2\n        /* \"#utility.yul\":3089:3110   */\n      tag_154\n      jump\t// in\n    tag_213:\n        /* \"#utility.yul\":3084:3087   */\n      dup3\n        /* \"#utility.yul\":3077:3111   */\n      mstore\n        /* \"#utility.yul\":3008:3117   */\n      pop\n      pop\n      jump\t// out\n        /* \"#utility.yul\":3123:3333   */\n    tag_25:\n        /* \"#utility.yul\":3210:3214   */\n      0x00\n        /* \"#utility.yul\":3248:3250   */\n      0x20\n        /* \"#utility.yul\":3237:3246   */\n      dup3\n        /* \"#utility.yul\":3233:3251   */\n      add\n        /* \"#utility.yul\":3225:3251   */\n      swap1\n      pop\n        /* \"#utility.yul\":3261:3326   */\n      tag_215\n        /* \"#utility.yul\":3323:3324   */\n      0x00\n        /* \"#utility.yul\":3312:3321   */\n      dup4\n        /* \"#utility.yul\":3308:3325   */\n      add\n        /* \"#utility.yul\":3299:3305   */\n      dup5\n        /* \"#utility.yul\":3261:3326   */\n      tag_155\n      jump\t// in\n    tag_215:\n        /* \"#utility.yul\":3123:3333   */\n      swap3\n      swap2\n      pop\n      pop\n      jump\t// out\n        /* \"#utility.yul\":3339:3425   */\n    tag_156:\n        /* \"#utility.yul\":3374:3381   */\n      0x00\n        /* \"#utility.yul\":3414:3418   */\n      0xff\n        /* \"#utility.yul\":3407:3412   */\n      dup3\n        /* \"#utility.yul\":3403:3419   */\n      and\n        /* \"#utility.yul\":3392:3419   */\n      swap1\n      pop\n        /* \"#utility.yul\":3339:3425   */\n      swap2\n      swap1\n      pop\n      jump\t// out\n        /* \"#utility.yul\":3431:3543   */\n    tag_157:\n        /* \"#utility.yul\":3514:3536   */\n      tag_218\n        /* \"#utility.yul\":3530:3535   */\n      dup2\n        /* \"#utility.yul\":3514:3536   */\n      tag_156\n      jump\t// in\n    tag_218:\n        /* \"#utility.yul\":3509:3512   */\n      dup3\n        /* \"#utility.yul\":3502:3537   */\n      mstore\n        /* \"#utility.yul\":3431:3543   */\n      pop\n      pop\n      jump\t// out\n        /* \"#utility.yul\":3549:3763   */\n    tag_29:\n        /* \"#utility.yul\":3638:3642   */\n      0x00\n        /* \"#utility.yul\":3676:3678   */\n      0x20\n        /* \"#utility.yul\":3665:3674   */\n      dup3\n        /* \"#utility.yul\":3661:3679   */\n      add\n        /* \"#utility.yul\":3653:3679   */\n      swap1\n      pop\n        /* \"#utility.yul\":3689:3756   */\n      tag_220\n        /* \"#utility.yul\":3753:3754   */\n      0x00\n        /* \"#utility.yul\":3742:3751   */\n      dup4\n        /* \"#utility.yul\":3738:3755   */\n      add\n        /* \"#utility.yul\":3729:3735   */\n      dup5\n        /* \"#utility.yul\":3689:3756   */\n      tag_157\n      jump\t// in\n    tag_220:\n        /* \"#utility.yul\":3549:3763   */\n      swap3\n      swap2\n      pop\n      pop\n      jump\t// out\n        /* \"#utility.yul\":3769:4098   */\n    tag_36:\n        /* \"#utility.yul\":3828:3834   */\n      0x00\n        /* \"#utility.yul\":3877:3879   */\n      0x20\n        /* \"#utility.yul\":3865:3874   */\n      dup3\n        /* \"#utility.yul\":3856:3863   */\n      dup5\n        /* \"#utility.yul\":3852:3875   */\n      sub\n        /* \"#utility.yul\":3848:3880   */\n      slt\n        /* \"#utility.yul\":3845:3964   */\n      iszero\n      tag_222\n      jumpi\n        /* \"#utility.yul\":3883:3962   */\n      tag_223\n      tag_145\n      jump\t// in\n    tag_223:\n        /* \"#utility.yul\":3845:3964   */\n    tag_222:\n        /* \"#utility.yul\":4003:4004   */\n      0x00\n        /* \"#utility.yul\":4028:4081   */\n      tag_224\n        /* \"#utility.yul\":4073:4080   */\n      dup5\n        /* \"#utility.yul\":4064:4070   */\n      dup3\n        /* \"#utility.yul\":4053:4062   */\n      dup6\n        /* \"#utility.yul\":4049:4071   */\n      add\n        /* \"#utility.yul\":4028:4081   */\n      tag_153\n      jump\t// in\n    tag_224:\n        /* \"#utility.yul\":4018:4081   */\n      swap2\n      pop\n        /* \"#utility.yul\":3974:4091   */\n      pop\n        /* \"#utility.yul\":3769:4098   */\n      swap3\n      swap2\n      pop\n      pop\n      jump\t// out\n        /* \"#utility.yul\":4104:4723   */\n    tag_40:\n        /* \"#utility.yul\":4181:4187   */\n      0x00\n        /* \"#utility.yul\":4189:4195   */\n      0x00\n        /* \"#utility.yul\":4197:4203   */\n      0x00\n        /* \"#utility.yul\":4246:4248   */\n      0x60\n        /* \"#utility.yul\":4234:4243   */\n      dup5\n        /* \"#utility.yul\":4225:4232   */\n      dup7\n        /* \"#utility.yul\":4221:4244   */\n      sub\n        /* \"#utility.yul\":4217:4249   */\n      slt\n        /* \"#utility.yul\":4214:4333   */\n      iszero\n      tag_226\n      jumpi\n        /* \"#utility.yul\":4252:4331   */\n      tag_227\n      tag_145\n      jump\t// in\n    tag_227:\n        /* \"#utility.yul\":4214:4333   */\n    tag_226:\n        /* \"#utility.yul\":4372:4373   */\n      0x00\n        /* \"#utility.yul\":4397:4450   */\n      tag_228\n        /* \"#utility.yul\":4442:4449   */\n      dup7\n        /* \"#utility.yul\":4433:4439   */\n      dup3\n        /* \"#utility.yul\":4422:4431   */\n      dup8\n        /* \"#utility.yul\":4418:4440   */\n      add\n        /* \"#utility.yul\":4397:4450   */\n      tag_150\n      jump\t// in\n    tag_228:\n        /* \"#utility.yul\":4387:4450   */\n      swap4\n      pop\n        /* \"#utility.yul\":4343:4460   */\n      pop\n        /* \"#utility.yul\":4499:4501   */\n      0x20\n        /* \"#utility.yul\":4525:4578   */\n      tag_229\n        /* \"#utility.yul\":4570:4577   */\n      dup7\n        /* \"#utility.yul\":4561:4567   */\n      dup3\n        /* \"#utility.yul\":4550:4559   */\n      dup8\n        /* \"#utility.yul\":4546:4568   */\n      add\n        /* \"#utility.yul\":4525:4578   */\n      tag_150\n      jump\t// in\n    tag_229:\n        /* \"#utility.yul\":4515:4578   */\n      swap3\n      pop\n        /* \"#utility.yul\":4470:4588   */\n      pop\n        /* \"#utility.yul\":4627:4629   */\n      0x40\n        /* \"#utility.yul\":4653:4706   */\n      tag_230\n        /* \"#utility.yul\":4698:4705   */\n      dup7\n        /* \"#utility.yul\":4689:4695   */\n      dup3\n        /* \"#utility.yul\":4678:4687   */\n      dup8\n        /* \"#utility.yul\":4674:4696   */\n      add\n        /* \"#utility.yul\":4653:4706   */\n      tag_153\n      jump\t// in\n    tag_230:\n        /* \"#utility.yul\":4643:4706   */\n      swap2\n      pop\n        /* \"#utility.yul\":4598:4716   */\n      pop\n        /* \"#utility.yul\":4104:4723   */\n      swap3\n      pop\n      swap3\n      pop\n      swap3\n      jump\t// out\n        /* \"#utility.yul\":4729:4847   */\n    tag_158:\n        /* \"#utility.yul\":4816:4840   */\n      tag_232\n        /* \"#utility.yul\":4834:4839   */\n      dup2\n        /* \"#utility.yul\":4816:4840   */\n      tag_151\n      jump\t// in\n    tag_232:\n        /* \"#utility.yul\":4811:4814   */\n      dup3\n        /* \"#utility.yul\":4804:4841   */\n      mstore\n        /* \"#utility.yul\":4729:4847   */\n      pop\n      pop\n      jump\t// out\n        /* \"#utility.yul\":4853:5075   */\n    tag_46:\n        /* \"#utility.yul\":4946:4950   */\n      0x00\n        /* \"#utility.yul\":4984:4986   */\n      0x20\n        /* \"#utility.yul\":4973:4982   */\n      dup3\n        /* \"#utility.yul\":4969:4987   */\n      add\n        /* \"#utility.yul\":4961:4987   */\n      swap1\n      pop\n        /* \"#utility.yul\":4997:5068   */\n      tag_234\n        /* \"#utility.yul\":5065:5066   */\n      0x00\n        /* \"#utility.yul\":5054:5063   */\n      dup4\n        /* \"#utility.yul\":5050:5067   */\n      add\n        /* \"#utility.yul\":5041:5047   */\n      dup5\n        /* \"#utility.yul\":4997:5068   */\n      tag_158\n      jump\t// in\n    tag_234:\n        /* \"#utility.yul\":4853:5075   */\n      swap3\n      swap2\n      pop\n      pop\n      jump\t// out\n        /* \"#utility.yul\":5081:5410   */\n    tag_49:\n        /* \"#utility.yul\":5140:5146   */\n      0x00\n        /* \"#utility.yul\":5189:5191   */\n      0x20\n        /* \"#utility.yul\":5177:5186   */\n      dup3\n        /* \"#utility.yul\":5168:5175   */\n      dup5\n        /* \"#utility.yul\":5164:5187   */\n      sub\n        /* \"#utility.yul\":5160:5192   */\n      slt\n        /* \"#utility.yul\":5157:5276   */\n      iszero\n      tag_236\n      jumpi\n        /* \"#utility.yul\":5195:5274   */\n      tag_237\n      tag_145\n      jump\t// in\n    tag_237:\n        /* \"#utility.yul\":5157:5276   */\n    tag_236:\n        /* \"#utility.yul\":5315:5316   */\n      0x00\n        /* \"#utility.yul\":5340:5393   */\n      tag_238\n        /* \"#utility.yul\":5385:5392   */\n      dup5\n        /* \"#utility.yul\":5376:5382   */\n      dup3\n        /* \"#utility.yul\":5365:5374   */\n      dup6\n        /* \"#utility.yul\":5361:5383   */\n      add\n        /* \"#utility.yul\":5340:5393   */\n      tag_150\n      jump\t// in\n    tag_238:\n        /* \"#utility.yul\":5330:5393   */\n      swap2\n      pop\n        /* \"#utility.yul\":5286:5403   */\n      pop\n        /* \"#utility.yul\":5081:5410   */\n      swap3\n      swap2\n      pop\n      pop\n      jump\t// out\n        /* \"#utility.yul\":5416:5890   */\n    tag_65:\n        /* \"#utility.yul\":5484:5490   */\n      0x00\n        /* \"#utility.yul\":5492:5498   */\n      0x00\n        /* \"#utility.yul\":5541:5543   */\n      0x40\n        /* \"#utility.yul\":5529:5538   */\n      dup4\n        /* \"#utility.yul\":5520:5527   */\n      dup6\n        /* \"#utility.yul\":5516:5539   */\n      sub\n        /* \"#utility.yul\":5512:5544   */\n      slt\n        /* \"#utility.yul\":5509:5628   */\n      iszero\n      tag_240\n      jumpi\n        /* \"#utility.yul\":5547:5626   */\n      tag_241\n      tag_145\n      jump\t// in\n    tag_241:\n        /* \"#utility.yul\":5509:5628   */\n    tag_240:\n        /* \"#utility.yul\":5667:5668   */\n      0x00\n        /* \"#utility.yul\":5692:5745   */\n      tag_242\n        /* \"#utility.yul\":5737:5744   */\n      dup6\n        /* \"#utility.yul\":5728:5734   */\n      dup3\n        /* \"#utility.yul\":5717:5726   */\n      dup7\n        /* \"#utility.yul\":5713:5735   */\n      add\n        /* \"#utility.yul\":5692:5745   */\n      tag_150\n      jump\t// in\n    tag_242:\n        /* \"#utility.yul\":5682:5745   */\n      swap3\n      pop\n        /* \"#utility.yul\":5638:5755   */\n      pop\n        /* \"#utility.yul\":5794:5796   */\n      0x20\n        /* \"#utility.yul\":5820:5873   */\n      tag_243\n        /* \"#utility.yul\":5865:5872   */\n      dup6\n        /* \"#utility.yul\":5856:5862   */\n      dup3\n        /* \"#utility.yul\":5845:5854   */\n      dup7\n        /* \"#utility.yul\":5841:5863   */\n      add\n        /* \"#utility.yul\":5820:5873   */\n      tag_150\n      jump\t// in\n    tag_243:\n        /* \"#utility.yul\":5810:5873   */\n      swap2\n      pop\n        /* \"#utility.yul\":5765:5883   */\n      pop\n        /* \"#utility.yul\":5416:5890   */\n      swap3\n      pop\n      swap3\n      swap1\n      pop\n      jump\t// out\n        /* \"#utility.yul\":5896:6076   */\n    tag_159:\n        /* \"#utility.yul\":5944:6021   */\n      0x4e487b7100000000000000000000000000000000000000000000000000000000\n        /* \"#utility.yul\":5941:5942   */\n      0x00\n        /* \"#utility.yul\":5934:6022   */\n      mstore\n        /* \"#utility.yul\":6041:6045   */\n      0x22\n        /* \"#utility.yul\":6038:6039   */\n      0x04\n        /* \"#utility.yul\":6031:6046   */\n      mstore\n        /* \"#utility.yul\":6065:6069   */\n      0x24\n        /* \"#utility.yul\":6062:6063   */\n      0x00\n        /* \"#utility.yul\":6055:6070   */\n      revert\n        /* \"#utility.yul\":6082:6402   */\n    tag_69:\n        /* \"#utility.yul\":6126:6132   */\n      0x00\n        /* \"#utility.yul\":6163:6164   */\n      0x02\n        /* \"#utility.yul\":6157:6161   */\n      dup3\n        /* \"#utility.yul\":6153:6165   */\n      div\n        /* \"#utility.yul\":6143:6165   */\n      swap1\n      pop\n        /* \"#utility.yul\":6210:6211   */\n      0x01\n        /* \"#utility.yul\":6204:6208   */\n      dup3\n        /* \"#utility.yul\":6200:6212   */\n      and\n        /* \"#utility.yul\":6231:6249   */\n      dup1\n        /* \"#utility.yul\":6221:6302   */\n      tag_246\n      jumpi\n        /* \"#utility.yul\":6287:6291   */\n      0x7f\n        /* \"#utility.yul\":6279:6285   */\n      dup3\n        /* \"#utility.yul\":6275:6292   */\n      and\n        /* \"#utility.yul\":6265:6292   */\n      swap2\n      pop\n        /* \"#utility.yul\":6221:6302   */\n    tag_246:\n        /* \"#utility.yul\":6349:6351   */\n      0x20\n        /* \"#utility.yul\":6341:6347   */\n      dup3\n        /* \"#utility.yul\":6338:6352   */\n      lt\n        /* \"#utility.yul\":6318:6336   */\n      dup2\n        /* \"#utility.yul\":6315:6353   */\n      sub\n        /* \"#utility.yul\":6312:6396   */\n      tag_247\n      jumpi\n        /* \"#utility.yul\":6368:6386   */\n      tag_248\n      tag_159\n      jump\t// in\n    tag_248:\n        /* \"#utility.yul\":6312:6396   */\n    tag_247:\n        /* \"#utility.yul\":6133:6402   */\n      pop\n        /* \"#utility.yul\":6082:6402   */\n      swap2\n      swap1\n      pop\n      jump\t// out\n        /* \"#utility.yul\":6408:6588   */\n    tag_160:\n        /* \"#utility.yul\":6456:6533   */\n      0x4e487b7100000000000000000000000000000000000000000000000000000000\n        /* \"#utility.yul\":6453:6454   */\n      0x00\n        /* \"#utility.yul\":6446:6534   */\n      mstore\n        /* \"#utility.yul\":6553:6557   */\n      0x11\n        /* \"#utility.yul\":6550:6551   */\n      0x04\n        /* \"#utility.yul\":6543:6558   */\n      mstore\n        /* \"#utility.yul\":6577:6581   */\n      0x24\n        /* \"#utility.yul\":6574:6575   */\n      0x00\n        /* \"#utility.yul\":6567:6582   */\n      revert\n        /* \"#utility.yul\":6594:6785   */\n    tag_80:\n        /* \"#utility.yul\":6634:6637   */\n      0x00\n        /* \"#utility.yul\":6653:6673   */\n      tag_251\n        /* \"#utility.yul\":6671:6672   */\n      dup3\n        /* \"#utility.yul\":6653:6673   */\n      tag_151\n      jump\t// in\n    tag_251:\n        /* \"#utility.yul\":6648:6673   */\n      swap2\n      pop\n        /* \"#utility.yul\":6687:6707   */\n      tag_252\n        /* \"#utility.yul\":6705:6706   */\n      dup4\n        /* \"#utility.yul\":6687:6707   */\n      tag_151\n      jump\t// in\n    tag_252:\n        /* \"#utility.yul\":6682:6707   */\n      swap3\n      pop\n        /* \"#utility.yul\":6730:6731   */\n      dup3\n        /* \"#utility.yul\":6727:6728   */\n      dup3\n        /* \"#utility.yul\":6723:6732   */\n      add\n        /* \"#utility.yul\":6716:6732   */\n      swap1\n      pop\n        /* \"#utility.yul\":6751:6754   */\n      dup1\n        /* \"#utility.yul\":6748:6749   */\n      dup3\n        /* \"#utility.yul\":6745:6755   */\n      gt\n        /* \"#utility.yul\":6742:6778   */\n      iszero\n      tag_253\n      jumpi\n        /* \"#utility.yul\":6758:6776   */\n      tag_254\n      tag_160\n      jump\t// in\n    tag_254:\n        /* \"#utility.yul\":6742:6778   */\n    tag_253:\n        /* \"#utility.yul\":6594:6785   */\n      swap3\n      swap2\n      pop\n      pop\n      jump\t// out\n        /* \"#utility.yul\":6791:7012   */\n    tag_161:\n        /* \"#utility.yul\":6931:6965   */\n      0x45524332303a206275726e20616d6f756e7420657863656564732062616c616e\n        /* \"#utility.yul\":6927:6928   */\n      0x00\n        /* \"#utility.yul\":6919:6925   */\n      dup3\n        /* \"#utility.yul\":6915:6929   */\n      add\n        /* \"#utility.yul\":6908:6966   */\n      mstore\n        /* \"#utility.yul\":7000:7004   */\n      0x6365000000000000000000000000000000000000000000000000000000000000\n        /* \"#utility.yul\":6995:6997   */\n      0x20\n        /* \"#utility.yul\":6987:6993   */\n      dup3\n        /* \"#utility.yul\":6983:6998   */\n      add\n        /* \"#utility.yul\":6976:7005   */\n      mstore\n        /* \"#utility.yul\":6791:7012   */\n      pop\n      jump\t// out\n        /* \"#utility.yul\":7018:7384   */\n    tag_162:\n        /* \"#utility.yul\":7160:7163   */\n      0x00\n        /* \"#utility.yul\":7181:7248   */\n      tag_257\n        /* \"#utility.yul\":7245:7247   */\n      0x22\n        /* \"#utility.yul\":7240:7243   */\n      dup4\n        /* \"#utility.yul\":7181:7248   */\n      tag_140\n      jump\t// in\n    tag_257:\n        /* \"#utility.yul\":7174:7248   */\n      swap2\n      pop\n        /* \"#utility.yul\":7257:7350   */\n      tag_258\n        /* \"#utility.yul\":7346:7349   */\n      dup3\n        /* \"#utility.yul\":7257:7350   */\n      tag_161\n      jump\t// in\n    tag_258:\n        /* \"#utility.yul\":7375:7377   */\n      0x40\n        /* \"#utility.yul\":7370:7373   */\n      dup3\n        /* \"#utility.yul\":7366:7378   */\n      add\n        /* \"#utility.yul\":7359:7378   */\n      swap1\n      pop\n        /* \"#utility.yul\":7018:7384   */\n      swap2\n      swap1\n      pop\n      jump\t// out\n        /* \"#utility.yul\":7390:7809   */\n    tag_84:\n        /* \"#utility.yul\":7556:7560   */\n      0x00\n        /* \"#utility.yul\":7594:7596   */\n      0x20\n        /* \"#utility.yul\":7583:7592   */\n      dup3\n        /* \"#utility.yul\":7579:7597   */\n      add\n        /* \"#utility.yul\":7571:7597   */\n      swap1\n      pop\n        /* \"#utility.yul\":7643:7652   */\n      dup2\n        /* \"#utility.yul\":7637:7641   */\n      dup2\n        /* \"#utility.yul\":7633:7653   */\n      sub\n        /* \"#utility.yul\":7629:7630   */\n      0x00\n        /* \"#utility.yul\":7618:7627   */\n      dup4\n        /* \"#utility.yul\":7614:7631   */\n      add\n        /* \"#utility.yul\":7607:7654   */\n      mstore\n        /* \"#utility.yul\":7671:7802   */\n      tag_260\n        /* \"#utility.yul\":7797:7801   */\n      dup2\n        /* \"#utility.yul\":7671:7802   */\n      tag_162\n      jump\t// in\n    tag_260:\n        /* \"#utility.yul\":7663:7802   */\n      swap1\n      pop\n        /* \"#utility.yul\":7390:7809   */\n      swap2\n      swap1\n      pop\n      jump\t// out\n        /* \"#utility.yul\":7815:8009   */\n    tag_86:\n        /* \"#utility.yul\":7855:7859   */\n      0x00\n        /* \"#utility.yul\":7875:7895   */\n      tag_262\n        /* \"#utility.yul\":7893:7894   */\n      dup3\n        /* \"#utility.yul\":7875:7895   */\n      tag_151\n      jump\t// in\n    tag_262:\n        /* \"#utility.yul\":7870:7895   */\n      swap2\n      pop\n        /* \"#utility.yul\":7909:7929   */\n      tag_263\n        /* \"#utility.yul\":7927:7928   */\n      dup4\n        /* \"#utility.yul\":7909:7929   */\n      tag_151\n      jump\t// in\n    tag_263:\n        /* \"#utility.yul\":7904:7929   */\n      swap3\n      pop\n        /* \"#utility.yul\":7953:7954   */\n      dup3\n        /* \"#utility.yul\":7950:7951   */\n      dup3\n        /* \"#utility.yul\":7946:7955   */\n      sub\n        /* \"#utility.yul\":7938:7955   */\n      swap1\n      pop\n        /* \"#utility.yul\":7977:7978   */\n      dup2\n        /* \"#utility.yul\":7971:7975   */\n      dup2\n        /* \"#utility.yul\":7968:7979   */\n      gt\n        /* \"#utility.yul\":7965:8002   */\n      iszero\n      tag_264\n      jumpi\n        /* \"#utility.yul\":7982:8000   */\n      tag_265\n      tag_160\n      jump\t// in\n    tag_265:\n        /* \"#utility.yul\":7965:8002   */\n    tag_264:\n        /* \"#utility.yul\":7815:8009   */\n      swap3\n      swap2\n      pop\n      pop\n      jump\t// out\n        /* \"#utility.yul\":8015:8239   */\n    tag_163:\n        /* \"#utility.yul\":8155:8189   */\n      0x45435232303a2064656372656173656420416c6c6f77616e63652062656c6f77\n        /* \"#utility.yul\":8151:8152   */\n      0x00\n        /* \"#utility.yul\":8143:8149   */\n      dup3\n        /* \"#utility.yul\":8139:8153   */\n      add\n        /* \"#utility.yul\":8132:8190   */\n      mstore\n        /* \"#utility.yul\":8224:8231   */\n      0x207a65726f000000000000000000000000000000000000000000000000000000\n        /* \"#utility.yul\":8219:8221   */\n      0x20\n        /* \"#utility.yul\":8211:8217   */\n      dup3\n        /* \"#utility.yul\":8207:8222   */\n      add\n        /* \"#utility.yul\":8200:8232   */\n      mstore\n        /* \"#utility.yul\":8015:8239   */\n      pop\n      jump\t// out\n        /* \"#utility.yul\":8245:8611   */\n    tag_164:\n        /* \"#utility.yul\":8387:8390   */\n      0x00\n        /* \"#utility.yul\":8408:8475   */\n      tag_268\n        /* \"#utility.yul\":8472:8474   */\n      0x25\n        /* \"#utility.yul\":8467:8470   */\n      dup4\n        /* \"#utility.yul\":8408:8475   */\n      tag_140\n      jump\t// in\n    tag_268:\n        /* \"#utility.yul\":8401:8475   */\n      swap2\n      pop\n        /* \"#utility.yul\":8484:8577   */\n      tag_269\n        /* \"#utility.yul\":8573:8576   */\n      dup3\n        /* \"#utility.yul\":8484:8577   */\n      tag_163\n      jump\t// in\n    tag_269:\n        /* \"#utility.yul\":8602:8604   */\n      0x40\n        /* \"#utility.yul\":8597:8600   */\n      dup3\n        /* \"#utility.yul\":8593:8605   */\n      add\n        /* \"#utility.yul\":8586:8605   */\n      swap1\n      pop\n        /* \"#utility.yul\":8245:8611   */\n      swap2\n      swap1\n      pop\n      jump\t// out\n        /* \"#utility.yul\":8617:9036   */\n    tag_99:\n        /* \"#utility.yul\":8783:8787   */\n      0x00\n        /* \"#utility.yul\":8821:8823   */\n      0x20\n        /* \"#utility.yul\":8810:8819   */\n      dup3\n        /* \"#utility.yul\":8806:8824   */\n      add\n        /* \"#utility.yul\":8798:8824   */\n      swap1\n      pop\n        /* \"#utility.yul\":8870:8879   */\n      dup2\n        /* \"#utility.yul\":8864:8868   */\n      dup2\n        /* \"#utility.yul\":8860:8880   */\n      sub\n        /* \"#utility.yul\":8856:8857   */\n      0x00\n        /* \"#utility.yul\":8845:8854   */\n      dup4\n        /* \"#utility.yul\":8841:8858   */\n      add\n        /* \"#utility.yul\":8834:8881   */\n      mstore\n        /* \"#utility.yul\":8898:9029   */\n      tag_271\n        /* \"#utility.yul\":9024:9028   */\n      dup2\n        /* \"#utility.yul\":8898:9029   */\n      tag_164\n      jump\t// in\n    tag_271:\n        /* \"#utility.yul\":8890:9029   */\n      swap1\n      pop\n        /* \"#utility.yul\":8617:9036   */\n      swap2\n      swap1\n      pop\n      jump\t// out\n        /* \"#utility.yul\":9042:9265   */\n    tag_165:\n        /* \"#utility.yul\":9182:9216   */\n      0x45524332303a20617070726f76652066726f6d20746865207a65726f20616464\n        /* \"#utility.yul\":9178:9179   */\n      0x00\n        /* \"#utility.yul\":9170:9176   */\n      dup3\n        /* \"#utility.yul\":9166:9180   */\n      add\n        /* \"#utility.yul\":9159:9217   */\n      mstore\n        /* \"#utility.yul\":9251:9257   */\n      0x7265737300000000000000000000000000000000000000000000000000000000\n        /* \"#utility.yul\":9246:9248   */\n      0x20\n        /* \"#utility.yul\":9238:9244   */\n      dup3\n        /* \"#utility.yul\":9234:9249   */\n      add\n        /* \"#utility.yul\":9227:9258   */\n      mstore\n        /* \"#utility.yul\":9042:9265   */\n      pop\n      jump\t// out\n        /* \"#utility.yul\":9271:9637   */\n    tag_166:\n        /* \"#utility.yul\":9413:9416   */\n      0x00\n        /* \"#utility.yul\":9434:9501   */\n      tag_274\n        /* \"#utility.yul\":9498:9500   */\n      0x24\n        /* \"#utility.yul\":9493:9496   */\n      dup4\n        /* \"#utility.yul\":9434:9501   */\n      tag_140\n      jump\t// in\n    tag_274:\n        /* \"#utility.yul\":9427:9501   */\n      swap2\n      pop\n        /* \"#utility.yul\":9510:9603   */\n      tag_275\n        /* \"#utility.yul\":9599:9602   */\n      dup3\n        /* \"#utility.yul\":9510:9603   */\n      tag_165\n      jump\t// in\n    tag_275:\n        /* \"#utility.yul\":9628:9630   */\n      0x40\n        /* \"#utility.yul\":9623:9626   */\n      dup3\n        /* \"#utility.yul\":9619:9631   */\n      add\n        /* \"#utility.yul\":9612:9631   */\n      swap1\n      pop\n        /* \"#utility.yul\":9271:9637   */\n      swap2\n      swap1\n      pop\n      jump\t// out\n        /* \"#utility.yul\":9643:10062   */\n    tag_113:\n        /* \"#utility.yul\":9809:9813   */\n      0x00\n        /* \"#utility.yul\":9847:9849   */\n      0x20\n        /* \"#utility.yul\":9836:9845   */\n      dup3\n        /* \"#utility.yul\":9832:9850   */\n      add\n        /* \"#utility.yul\":9824:9850   */\n      swap1\n      pop\n        /* \"#utility.yul\":9896:9905   */\n      dup2\n        /* \"#utility.yul\":9890:9894   */\n      dup2\n        /* \"#utility.yul\":9886:9906   */\n      sub\n        /* \"#utility.yul\":9882:9883   */\n      0x00\n        /* \"#utility.yul\":9871:9880   */\n      dup4\n        /* \"#utility.yul\":9867:9884   */\n      add\n        /* \"#utility.yul\":9860:9907   */\n      mstore\n        /* \"#utility.yul\":9924:10055   */\n      tag_277\n        /* \"#utility.yul\":10050:10054   */\n      dup2\n        /* \"#utility.yul\":9924:10055   */\n      tag_166\n      jump\t// in\n    tag_277:\n        /* \"#utility.yul\":9916:10055   */\n      swap1\n      pop\n        /* \"#utility.yul\":9643:10062   */\n      swap2\n      swap1\n      pop\n      jump\t// out\n        /* \"#utility.yul\":10068:10289   */\n    tag_167:\n        /* \"#utility.yul\":10208:10242   */\n      0x45524332303a20617070726f766520746f20746865207a65726f206164647265\n        /* \"#utility.yul\":10204:10205   */\n      0x00\n        /* \"#utility.yul\":10196:10202   */\n      dup3\n        /* \"#utility.yul\":10192:10206   */\n      add\n        /* \"#utility.yul\":10185:10243   */\n      mstore\n        /* \"#utility.yul\":10277:10281   */\n      0x7373000000000000000000000000000000000000000000000000000000000000\n        /* \"#utility.yul\":10272:10274   */\n      0x20\n        /* \"#utility.yul\":10264:10270   */\n      dup3\n        /* \"#utility.yul\":10260:10275   */\n      add\n        /* \"#utility.yul\":10253:10282   */\n      mstore\n        /* \"#utility.yul\":10068:10289   */\n      pop\n      jump\t// out\n        /* \"#utility.yul\":10295:10661   */\n    tag_168:\n        /* \"#utility.yul\":10437:10440   */\n      0x00\n        /* \"#utility.yul\":10458:10525   */\n      tag_280\n        /* \"#utility.yul\":10522:10524   */\n      0x22\n        /* \"#utility.yul\":10517:10520   */\n      dup4\n        /* \"#utility.yul\":10458:10525   */\n      tag_140\n      jump\t// in\n    tag_280:\n        /* \"#utility.yul\":10451:10525   */\n      swap2\n      pop\n        /* \"#utility.yul\":10534:10627   */\n      tag_281\n        /* \"#utility.yul\":10623:10626   */\n      dup3\n        /* \"#utility.yul\":10534:10627   */\n      tag_167\n      jump\t// in\n    tag_281:\n        /* \"#utility.yul\":10652:10654   */\n      0x40\n        /* \"#utility.yul\":10647:10650   */\n      dup3\n        /* \"#utility.yul\":10643:10655   */\n      add\n        /* \"#utility.yul\":10636:10655   */\n      swap1\n      pop\n        /* \"#utility.yul\":10295:10661   */\n      swap2\n      swap1\n      pop\n      jump\t// out\n        /* \"#utility.yul\":10667:11086   */\n    tag_116:\n        /* \"#utility.yul\":10833:10837   */\n      0x00\n        /* \"#utility.yul\":10871:10873   */\n      0x20\n        /* \"#utility.yul\":10860:10869   */\n      dup3\n        /* \"#utility.yul\":10856:10874   */\n      add\n        /* \"#utility.yul\":10848:10874   */\n      swap1\n      pop\n        /* \"#utility.yul\":10920:10929   */\n      dup2\n        /* \"#utility.yul\":10914:10918   */\n      dup2\n        /* \"#utility.yul\":10910:10930   */\n      sub\n        /* \"#utility.yul\":10906:10907   */\n      0x00\n        /* \"#utility.yul\":10895:10904   */\n      dup4\n        /* \"#utility.yul\":10891:10908   */\n      add\n        /* \"#utility.yul\":10884:10931   */\n      mstore\n        /* \"#utility.yul\":10948:11079   */\n      tag_283\n        /* \"#utility.yul\":11074:11078   */\n      dup2\n        /* \"#utility.yul\":10948:11079   */\n      tag_168\n      jump\t// in\n    tag_283:\n        /* \"#utility.yul\":10940:11079   */\n      swap1\n      pop\n        /* \"#utility.yul\":10667:11086   */\n      swap2\n      swap1\n      pop\n      jump\t// out\n        /* \"#utility.yul\":11092:11271   */\n    tag_169:\n        /* \"#utility.yul\":11232:11263   */\n      0x45435232303a20696e73756666696369616e7420616c6c6f77616e6365000000\n        /* \"#utility.yul\":11228:11229   */\n      0x00\n        /* \"#utility.yul\":11220:11226   */\n      dup3\n        /* \"#utility.yul\":11216:11230   */\n      add\n        /* \"#utility.yul\":11209:11264   */\n      mstore\n        /* \"#utility.yul\":11092:11271   */\n      pop\n      jump\t// out\n        /* \"#utility.yul\":11277:11643   */\n    tag_170:\n        /* \"#utility.yul\":11419:11422   */\n      0x00\n        /* \"#utility.yul\":11440:11507   */\n      tag_286\n        /* \"#utility.yul\":11504:11506   */\n      0x1d\n        /* \"#utility.yul\":11499:11502   */\n      dup4\n        /* \"#utility.yul\":11440:11507   */\n      tag_140\n      jump\t// in\n    tag_286:\n        /* \"#utility.yul\":11433:11507   */\n      swap2\n      pop\n        /* \"#utility.yul\":11516:11609   */\n      tag_287\n        /* \"#utility.yul\":11605:11608   */\n      dup3\n        /* \"#utility.yul\":11516:11609   */\n      tag_169\n      jump\t// in\n    tag_287:\n        /* \"#utility.yul\":11634:11636   */\n      0x20\n        /* \"#utility.yul\":11629:11632   */\n      dup3\n        /* \"#utility.yul\":11625:11637   */\n      add\n        /* \"#utility.yul\":11618:11637   */\n      swap1\n      pop\n        /* \"#utility.yul\":11277:11643   */\n      swap2\n      swap1\n      pop\n      jump\t// out\n        /* \"#utility.yul\":11649:12068   */\n    tag_123:\n        /* \"#utility.yul\":11815:11819   */\n      0x00\n        /* \"#utility.yul\":11853:11855   */\n      0x20\n        /* \"#utility.yul\":11842:11851   */\n      dup3\n        /* \"#utility.yul\":11838:11856   */\n      add\n        /* \"#utility.yul\":11830:11856   */\n      swap1\n      pop\n        /* \"#utility.yul\":11902:11911   */\n      dup2\n        /* \"#utility.yul\":11896:11900   */\n      dup2\n        /* \"#utility.yul\":11892:11912   */\n      sub\n        /* \"#utility.yul\":11888:11889   */\n      0x00\n        /* \"#utility.yul\":11877:11886   */\n      dup4\n        /* \"#utility.yul\":11873:11890   */\n      add\n        /* \"#utility.yul\":11866:11913   */\n      mstore\n        /* \"#utility.yul\":11930:12061   */\n      tag_289\n        /* \"#utility.yul\":12056:12060   */\n      dup2\n        /* \"#utility.yul\":11930:12061   */\n      tag_170\n      jump\t// in\n    tag_289:\n        /* \"#utility.yul\":11922:12061   */\n      swap1\n      pop\n        /* \"#utility.yul\":11649:12068   */\n      swap2\n      swap1\n      pop\n      jump\t// out\n        /* \"#utility.yul\":12074:12254   */\n    tag_171:\n        /* \"#utility.yul\":12214:12246   */\n      0x7472616e736665722066726f6d20746865207a65726f20616464726573730000\n        /* \"#utility.yul\":12210:12211   */\n      0x00\n        /* \"#utility.yul\":12202:12208   */\n      dup3\n        /* \"#utility.yul\":12198:12212   */\n      add\n        /* \"#utility.yul\":12191:12247   */\n      mstore\n        /* \"#utility.yul\":12074:12254   */\n      pop\n      jump\t// out\n        /* \"#utility.yul\":12260:12626   */\n    tag_172:\n        /* \"#utility.yul\":12402:12405   */\n      0x00\n        /* \"#utility.yul\":12423:12490   */\n      tag_292\n        /* \"#utility.yul\":12487:12489   */\n      0x1e\n        /* \"#utility.yul\":12482:12485   */\n      dup4\n        /* \"#utility.yul\":12423:12490   */\n      tag_140\n      jump\t// in\n    tag_292:\n        /* \"#utility.yul\":12416:12490   */\n      swap2\n      pop\n        /* \"#utility.yul\":12499:12592   */\n      tag_293\n        /* \"#utility.yul\":12588:12591   */\n      dup3\n        /* \"#utility.yul\":12499:12592   */\n      tag_171\n      jump\t// in\n    tag_293:\n        /* \"#utility.yul\":12617:12619   */\n      0x20\n        /* \"#utility.yul\":12612:12615   */\n      dup3\n        /* \"#utility.yul\":12608:12620   */\n      add\n        /* \"#utility.yul\":12601:12620   */\n      swap1\n      pop\n        /* \"#utility.yul\":12260:12626   */\n      swap2\n      swap1\n      pop\n      jump\t// out\n        /* \"#utility.yul\":12632:13051   */\n    tag_129:\n        /* \"#utility.yul\":12798:12802   */\n      0x00\n        /* \"#utility.yul\":12836:12838   */\n      0x20\n        /* \"#utility.yul\":12825:12834   */\n      dup3\n        /* \"#utility.yul\":12821:12839   */\n      add\n        /* \"#utility.yul\":12813:12839   */\n      swap1\n      pop\n        /* \"#utility.yul\":12885:12894   */\n      dup2\n        /* \"#utility.yul\":12879:12883   */\n      dup2\n        /* \"#utility.yul\":12875:12895   */\n      sub\n        /* \"#utility.yul\":12871:12872   */\n      0x00\n        /* \"#utility.yul\":12860:12869   */\n      dup4\n        /* \"#utility.yul\":12856:12873   */\n      add\n        /* \"#utility.yul\":12849:12896   */\n      mstore\n        /* \"#utility.yul\":12913:13044   */\n      tag_295\n        /* \"#utility.yul\":13039:13043   */\n      dup2\n        /* \"#utility.yul\":12913:13044   */\n      tag_172\n      jump\t// in\n    tag_295:\n        /* \"#utility.yul\":12905:13044   */\n      swap1\n      pop\n        /* \"#utility.yul\":12632:13051   */\n      swap2\n      swap1\n      pop\n      jump\t// out\n        /* \"#utility.yul\":13057:13235   */\n    tag_173:\n        /* \"#utility.yul\":13197:13227   */\n      0x7472616e7366657220746f20746865207a65726f206163636f756e7400000000\n        /* \"#utility.yul\":13193:13194   */\n      0x00\n        /* \"#utility.yul\":13185:13191   */\n      dup3\n        /* \"#utility.yul\":13181:13195   */\n      add\n        /* \"#utility.yul\":13174:13228   */\n      mstore\n        /* \"#utility.yul\":13057:13235   */\n      pop\n      jump\t// out\n        /* \"#utility.yul\":13241:13607   */\n    tag_174:\n        /* \"#utility.yul\":13383:13386   */\n      0x00\n        /* \"#utility.yul\":13404:13471   */\n      tag_298\n        /* \"#utility.yul\":13468:13470   */\n      0x1c\n        /* \"#utility.yul\":13463:13466   */\n      dup4\n        /* \"#utility.yul\":13404:13471   */\n      tag_140\n      jump\t// in\n    tag_298:\n        /* \"#utility.yul\":13397:13471   */\n      swap2\n      pop\n        /* \"#utility.yul\":13480:13573   */\n      tag_299\n        /* \"#utility.yul\":13569:13572   */\n      dup3\n        /* \"#utility.yul\":13480:13573   */\n      tag_173\n      jump\t// in\n    tag_299:\n        /* \"#utility.yul\":13598:13600   */\n      0x20\n        /* \"#utility.yul\":13593:13596   */\n      dup3\n        /* \"#utility.yul\":13589:13601   */\n      add\n        /* \"#utility.yul\":13582:13601   */\n      swap1\n      pop\n        /* \"#utility.yul\":13241:13607   */\n      swap2\n      swap1\n      pop\n      jump\t// out\n        /* \"#utility.yul\":13613:14032   */\n    tag_132:\n        /* \"#utility.yul\":13779:13783   */\n      0x00\n        /* \"#utility.yul\":13817:13819   */\n      0x20\n        /* \"#utility.yul\":13806:13815   */\n      dup3\n        /* \"#utility.yul\":13802:13820   */\n      add\n        /* \"#utility.yul\":13794:13820   */\n      swap1\n      pop\n        /* \"#utility.yul\":13866:13875   */\n      dup2\n        /* \"#utility.yul\":13860:13864   */\n      dup2\n        /* \"#utility.yul\":13856:13876   */\n      sub\n        /* \"#utility.yul\":13852:13853   */\n      0x00\n        /* \"#utility.yul\":13841:13850   */\n      dup4\n        /* \"#utility.yul\":13837:13854   */\n      add\n        /* \"#utility.yul\":13830:13877   */\n      mstore\n        /* \"#utility.yul\":13894:14025   */\n      tag_301\n        /* \"#utility.yul\":14020:14024   */\n      dup2\n        /* \"#utility.yul\":13894:14025   */\n      tag_174\n      jump\t// in\n    tag_301:\n        /* \"#utility.yul\":13886:14025   */\n      swap1\n      pop\n        /* \"#utility.yul\":13613:14032   */\n      swap2\n      swap1\n      pop\n      jump\t// out\n        /* \"#utility.yul\":14038:14260   */\n    tag_175:\n        /* \"#utility.yul\":14178:14212   */\n      0x7472616e7366657220616d6f756e742065786365656473207468652062616c61\n        /* \"#utility.yul\":14174:14175   */\n      0x00\n        /* \"#utility.yul\":14166:14172   */\n      dup3\n        /* \"#utility.yul\":14162:14176   */\n      add\n        /* \"#utility.yul\":14155:14213   */\n      mstore\n        /* \"#utility.yul\":14247:14252   */\n      0x6e63650000000000000000000000000000000000000000000000000000000000\n        /* \"#utility.yul\":14242:14244   */\n      0x20\n        /* \"#utility.yul\":14234:14240   */\n      dup3\n        /* \"#utility.yul\":14230:14245   */\n      add\n        /* \"#utility.yul\":14223:14253   */\n      mstore\n        /* \"#utility.yul\":14038:14260   */\n      pop\n      jump\t// out\n        /* \"#utility.yul\":14266:14632   */\n    tag_176:\n        /* \"#utility.yul\":14408:14411   */\n      0x00\n        /* \"#utility.yul\":14429:14496   */\n      tag_304\n        /* \"#utility.yul\":14493:14495   */\n      0x23\n        /* \"#utility.yul\":14488:14491   */\n      dup4\n        /* \"#utility.yul\":14429:14496   */\n      tag_140\n      jump\t// in\n    tag_304:\n        /* \"#utility.yul\":14422:14496   */\n      swap2\n      pop\n        /* \"#utility.yul\":14505:14598   */\n      tag_305\n        /* \"#utility.yul\":14594:14597   */\n      dup3\n        /* \"#utility.yul\":14505:14598   */\n      tag_175\n      jump\t// in\n    tag_305:\n        /* \"#utility.yul\":14623:14625   */\n      0x40\n        /* \"#utility.yul\":14618:14621   */\n      dup3\n        /* \"#utility.yul\":14614:14626   */\n      add\n        /* \"#utility.yul\":14607:14626   */\n      swap1\n      pop\n        /* \"#utility.yul\":14266:14632   */\n      swap2\n      swap1\n      pop\n      jump\t// out\n        /* \"#utility.yul\":14638:15057   */\n    tag_135:\n        /* \"#utility.yul\":14804:14808   */\n      0x00\n        /* \"#utility.yul\":14842:14844   */\n      0x20\n        /* \"#utility.yul\":14831:14840   */\n      dup3\n        /* \"#utility.yul\":14827:14845   */\n      add\n        /* \"#utility.yul\":14819:14845   */\n      swap1\n      pop\n        /* \"#utility.yul\":14891:14900   */\n      dup2\n        /* \"#utility.yul\":14885:14889   */\n      dup2\n        /* \"#utility.yul\":14881:14901   */\n      sub\n        /* \"#utility.yul\":14877:14878   */\n      0x00\n        /* \"#utility.yul\":14866:14875   */\n      dup4\n        /* \"#utility.yul\":14862:14879   */\n      add\n        /* \"#utility.yul\":14855:14902   */\n      mstore\n        /* \"#utility.yul\":14919:15050   */\n      tag_307\n        /* \"#utility.yul\":15045:15049   */\n      dup2\n        /* \"#utility.yul\":14919:15050   */\n      tag_176\n      jump\t// in\n    tag_307:\n        /* \"#utility.yul\":14911:15050   */\n      swap1\n      pop\n        /* \"#utility.yul\":14638:15057   */\n      swap2\n      swap1\n      pop\n      jump\t// out\n\n    auxdata: 0xa2646970667358221220e3467ede4e76910acbb3b3a099abea133af101c9203b9fe6e0fb7e98158f069664736f6c634300081e0033\n}\n",
				"bytecode": {
					"linkReferences": {},
					"object": "608060405234801561000f575f5ffd5b50604051611cfc380380611cfc833981810160405281019061003191906102f2565b835f908161003f9190610595565b50826001908161004f9190610595565b508160025f6101000a81548160ff021916908360ff16021790555081600a61007791906107c0565b81610082919061080a565b60038190555060035460045f3373ffffffffffffffffffffffffffffffffffffffff1673ffffffffffffffffffffffffffffffffffffffff1681526020019081526020015f20819055503373ffffffffffffffffffffffffffffffffffffffff165f73ffffffffffffffffffffffffffffffffffffffff167fddf252ad1be2c89b69c2b068fc378daa952ba7f163c4a11628f55a4df523b3ef60035460405161012b919061085a565b60405180910390a350505050610873565b5f604051905090565b5f5ffd5b5f5ffd5b5f5ffd5b5f5ffd5b5f601f19601f8301169050919050565b7f4e487b71000000000000000000000000000000000000000000000000000000005f52604160045260245ffd5b61019b82610155565b810181811067ffffffffffffffff821117156101ba576101b9610165565b5b80604052505050565b5f6101cc61013c565b90506101d88282610192565b919050565b5f67ffffffffffffffff8211156101f7576101f6610165565b5b61020082610155565b9050602081019050919050565b8281835e5f83830152505050565b5f61022d610228846101dd565b6101c3565b90508281526020810184848401111561024957610248610151565b5b61025484828561020d565b509392505050565b5f82601f8301126102705761026f61014d565b5b815161028084826020860161021b565b91505092915050565b5f60ff82169050919050565b61029e81610289565b81146102a8575f5ffd5b50565b5f815190506102b981610295565b92915050565b5f819050919050565b6102d1816102bf565b81146102db575f5ffd5b50565b5f815190506102ec816102c8565b92915050565b5f5f5f5f6080858703121561030a57610309610145565b5b5f85015167ffffffffffffffff81111561032757610326610149565b5b6103338782880161025c565b945050602085015167ffffffffffffffff81111561035457610353610149565b5b6103608782880161025c565b9350506040610371878288016102ab565b9250506060610382878288016102de565b91505092959194509250565b5f81519050919050565b7f4e487b71000000000000000000000000000000000000000000000000000000005f52602260045260245ffd5b5f60028204905060018216806103dc57607f821691505b6020821081036103ef576103ee610398565b5b50919050565b5f819050815f5260205f209050919050565b5f6020601f8301049050919050565b5f82821b905092915050565b5f600883026104517fffffffffffffffffffffffffffffffffffffffffffffffffffffffffffffffff82610416565b61045b8683610416565b95508019841693508086168417925050509392505050565b5f819050919050565b5f61049661049161048c846102bf565b610473565b6102bf565b9050919050565b5f819050919050565b6104af8361047c565b6104c36104bb8261049d565b848454610422565b825550505050565b5f5f905090565b6104da6104cb565b6104e58184846104a6565b505050565b5b81811015610508576104fd5f826104d2565b6001810190506104eb565b5050565b601f82111561054d5761051e816103f5565b61052784610407565b81016020851015610536578190505b61054a61054285610407565b8301826104ea565b50505b505050565b5f82821c905092915050565b5f61056d5f1984600802610552565b1980831691505092915050565b5f610585838361055e565b9150826002028217905092915050565b61059e8261038e565b67ffffffffffffffff8111156105b7576105b6610165565b5b6105c182546103c5565b6105cc82828561050c565b5f60209050601f8311600181146105fd575f84156105eb578287015190505b6105f5858261057a565b86555061065c565b601f19841661060b866103f5565b5f5b828110156106325784890151825560018201915060208501945060208101905061060d565b8683101561064f578489015161064b601f89168261055e565b8355505b6001600288020188555050505b505050505050565b7f4e487b71000000000000000000000000000000000000000000000000000000005f52601160045260245ffd5b5f8160011c9050919050565b5f5f8291508390505b60018511156106e6578086048111156106c2576106c1610664565b5b60018516156106d15780820291505b80810290506106df85610691565b94506106a6565b94509492505050565b5f826106fe57600190506107b9565b8161070b575f90506107b9565b8160018114610721576002811461072b5761075a565b60019150506107b9565b60ff84111561073d5761073c610664565b5b8360020a91508482111561075457610753610664565b5b506107b9565b5060208310610133831016604e8410600b841016171561078f5782820a90508381111561078a57610789610664565b5b6107b9565b61079c848484600161069d565b925090508184048111156107b3576107b2610664565b5b81810290505b9392505050565b5f6107ca826102bf565b91506107d583610289565b92506108027fffffffffffffffffffffffffffffffffffffffffffffffffffffffffffffffff84846106ef565b905092915050565b5f610814826102bf565b915061081f836102bf565b925082820261082d816102bf565b9150828204841483151761084457610843610664565b5b5092915050565b610854816102bf565b82525050565b5f60208201905061086d5f83018461084b565b92915050565b61147c806108805f395ff3fe608060405234801561000f575f5ffd5b50600436106100b2575f3560e01c806372dd529b1161006f57806372dd529b1461019e57806378592150146101bc5780639537c2d6146101ec57806395d89b411461021c578063a9059cbb1461023a578063dd62ed3e1461026a576100b2565b806306fdde03146100b6578063095ea7b3146100d4578063313ce56714610104578063395093511461012257806342966c681461015257806363b0545f1461016e575b5f5ffd5b6100be61029a565b6040516100cb9190610cf6565b60405180910390f35b6100ee60048036038101906100e99190610da7565b610325565b6040516100fb9190610dff565b60405180910390f35b61010c61033b565b6040516101199190610e33565b60405180910390f35b61013c60048036038101906101379190610da7565b61034d565b6040516101499190610dff565b60405180910390f35b61016c60048036038101906101679190610e4c565b6103e6565b005b61018860048036038101906101839190610e77565b610551565b6040516101959190610dff565b60405180910390f35b6101a6610573565b6040516101b39190610ed6565b60405180910390f35b6101d660048036038101906101d19190610eef565b610579565b6040516101e39190610ed6565b60405180910390f35b61020660048036038101906102019190610da7565b6105bf565b6040516102139190610dff565b60405180910390f35b6102246106a0565b6040516102319190610cf6565b60405180910390f35b610254600480360381019061024f9190610da7565b61072c565b6040516102619190610dff565b60405180910390f35b610284600480360381019061027f9190610f1a565b610742565b6040516102919190610ed6565b60405180910390f35b5f80546102a690610f85565b80601f01602080910402602001604051908101604052809291908181526020018280546102d290610f85565b801561031d5780601f106102f45761010080835404028352916020019161031d565b820191905f5260205f20905b81548152906001019060200180831161030057829003601f168201915b505050505081565b5f6103313384846107c4565b6001905092915050565b60025f9054906101000a900460ff1681565b5f6103dc33848460055f3373ffffffffffffffffffffffffffffffffffffffff1673ffffffffffffffffffffffffffffffffffffffff1681526020019081526020015f205f8873ffffffffffffffffffffffffffffffffffffffff1673ffffffffffffffffffffffffffffffffffffffff1681526020019081526020015f20546103d79190610fe2565b6107c4565b6001905092915050565b8060045f3373ffffffffffffffffffffffffffffffffffffffff1673ffffffffffffffffffffffffffffffffffffffff1681526020019081526020015f20541015610466576040517f08c379a000000000000000000000000000000000000000000000000000000000815260040161045d90611085565b60405180910390fd5b8060045f3373ffffffffffffffffffffffffffffffffffffffff1673ffffffffffffffffffffffffffffffffffffffff1681526020019081526020015f205f8282546104b291906110a3565b925050819055508060035f8282546104ca91906110a3565b925050819055508060035f8282546104e291906110a3565b925050819055505f73ffffffffffffffffffffffffffffffffffffffff163373ffffffffffffffffffffffffffffffffffffffff167fddf252ad1be2c89b69c2b068fc378daa952ba7f163c4a11628f55a4df523b3ef836040516105469190610ed6565b60405180910390a350565b5f61055d843384610987565b610568848484610a1b565b600190509392505050565b60035481565b5f60045f8373ffffffffffffffffffffffffffffffffffffffff1673ffffffffffffffffffffffffffffffffffffffff1681526020019081526020015f20549050919050565b5f5f60055f3373ffffffffffffffffffffffffffffffffffffffff1673ffffffffffffffffffffffffffffffffffffffff1681526020019081526020015f205f8573ffffffffffffffffffffffffffffffffffffffff1673ffffffffffffffffffffffffffffffffffffffff1681526020019081526020015f205490508281101561067f576040517f08c379a000000000000000000000000000000000000000000000000000000000815260040161067690611146565b60405180910390fd5b6106953385858461069091906110a3565b6107c4565b600191505092915050565b600180546106ad90610f85565b80601f01602080910402602001604051908101604052809291908181526020018280546106d990610f85565b80156107245780601f106106fb57610100808354040283529160200191610724565b820191905f5260205f20905b81548152906001019060200180831161070757829003601f168201915b505050505081565b5f610738338484610a1b565b6001905092915050565b5f60055f8473ffffffffffffffffffffffffffffffffffffffff1673ffffffffffffffffffffffffffffffffffffffff1681526020019081526020015f205f8373ffffffffffffffffffffffffffffffffffffffff1673ffffffffffffffffffffffffffffffffffffffff1681526020019081526020015f2054905092915050565b5f73ffffffffffffffffffffffffffffffffffffffff168373ffffffffffffffffffffffffffffffffffffffff1603610832576040517f08c379a0000000000000000000000000000000000000000000000000000000008152600401610829906111d4565b60405180910390fd5b5f73ffffffffffffffffffffffffffffffffffffffff168273ffffffffffffffffffffffffffffffffffffffff16036108a0576040517f08c379a000000000000000000000000000000000000000000000000000000000815260040161089790611262565b60405180910390fd5b8060055f8573ffffffffffffffffffffffffffffffffffffffff1673ffffffffffffffffffffffffffffffffffffffff1681526020019081526020015f205f8473ffffffffffffffffffffffffffffffffffffffff1673ffffffffffffffffffffffffffffffffffffffff1681526020019081526020015f20819055508173ffffffffffffffffffffffffffffffffffffffff168373ffffffffffffffffffffffffffffffffffffffff167f6e11fb1b7f119e3f2fa29896ef5fdf8b8a2d0d4df6fe90ba8668e7d8b2ffa25e8360405161097a9190610ed6565b60405180910390a3505050565b5f6109928484610742565b90507fffffffffffffffffffffffffffffffffffffffffffffffffffffffffffffffff8114610a1557818110156109fe576040517f08c379a00000000000000000000000000000000000000000000000000000000081526004016109f5906112ca565b60405180910390fd5b610a1484848484610a0f91906110a3565b6107c4565b5b50505050565b5f73ffffffffffffffffffffffffffffffffffffffff168373ffffffffffffffffffffffffffffffffffffffff1603610a89576040517f08c379a0000000000000000000000000000000000000000000000000000000008152600401610a8090611332565b60405180910390fd5b5f73ffffffffffffffffffffffffffffffffffffffff168373ffffffffffffffffffffffffffffffffffffffff1603610af7576040517f08c379a0000000000000000000000000000000000000000000000000000000008152600401610aee9061139a565b60405180910390fd5b5f60045f8573ffffffffffffffffffffffffffffffffffffffff1673ffffffffffffffffffffffffffffffffffffffff1681526020019081526020015f2054905081811015610b7b576040517f08c379a0000000000000000000000000000000000000000000000000000000008152600401610b7290611428565b60405180910390fd5b8181610b8791906110a3565b60045f8673ffffffffffffffffffffffffffffffffffffffff1673ffffffffffffffffffffffffffffffffffffffff1681526020019081526020015f20819055508160045f8573ffffffffffffffffffffffffffffffffffffffff1673ffffffffffffffffffffffffffffffffffffffff1681526020019081526020015f205f828254610c149190610fe2565b925050819055508273ffffffffffffffffffffffffffffffffffffffff168473ffffffffffffffffffffffffffffffffffffffff167fddf252ad1be2c89b69c2b068fc378daa952ba7f163c4a11628f55a4df523b3ef84604051610c789190610ed6565b60405180910390a350505050565b5f81519050919050565b5f82825260208201905092915050565b8281835e5f83830152505050565b5f601f19601f8301169050919050565b5f610cc882610c86565b610cd28185610c90565b9350610ce2818560208601610ca0565b610ceb81610cae565b840191505092915050565b5f6020820190508181035f830152610d0e8184610cbe565b905092915050565b5f5ffd5b5f73ffffffffffffffffffffffffffffffffffffffff82169050919050565b5f610d4382610d1a565b9050919050565b610d5381610d39565b8114610d5d575f5ffd5b50565b5f81359050610d6e81610d4a565b92915050565b5f819050919050565b610d8681610d74565b8114610d90575f5ffd5b50565b5f81359050610da181610d7d565b92915050565b5f5f60408385031215610dbd57610dbc610d16565b5b5f610dca85828601610d60565b9250506020610ddb85828601610d93565b9150509250929050565b5f8115159050919050565b610df981610de5565b82525050565b5f602082019050610e125f830184610df0565b92915050565b5f60ff82169050919050565b610e2d81610e18565b82525050565b5f602082019050610e465f830184610e24565b92915050565b5f60208284031215610e6157610e60610d16565b5b5f610e6e84828501610d93565b91505092915050565b5f5f5f60608486031215610e8e57610e8d610d16565b5b5f610e9b86828701610d60565b9350506020610eac86828701610d60565b9250506040610ebd86828701610d93565b9150509250925092565b610ed081610d74565b82525050565b5f602082019050610ee95f830184610ec7565b92915050565b5f60208284031215610f0457610f03610d16565b5b5f610f1184828501610d60565b91505092915050565b5f5f60408385031215610f3057610f2f610d16565b5b5f610f3d85828601610d60565b9250506020610f4e85828601610d60565b9150509250929050565b7f4e487b71000000000000000000000000000000000000000000000000000000005f52602260045260245ffd5b5f6002820490506001821680610f9c57607f821691505b602082108103610faf57610fae610f58565b5b50919050565b7f4e487b71000000000000000000000000000000000000000000000000000000005f52601160045260245ffd5b5f610fec82610d74565b9150610ff783610d74565b925082820190508082111561100f5761100e610fb5565b5b92915050565b7f45524332303a206275726e20616d6f756e7420657863656564732062616c616e5f8201527f6365000000000000000000000000000000000000000000000000000000000000602082015250565b5f61106f602283610c90565b915061107a82611015565b604082019050919050565b5f6020820190508181035f83015261109c81611063565b9050919050565b5f6110ad82610d74565b91506110b883610d74565b92508282039050818111156110d0576110cf610fb5565b5b92915050565b7f45435232303a2064656372656173656420416c6c6f77616e63652062656c6f775f8201527f207a65726f000000000000000000000000000000000000000000000000000000602082015250565b5f611130602583610c90565b915061113b826110d6565b604082019050919050565b5f6020820190508181035f83015261115d81611124565b9050919050565b7f45524332303a20617070726f76652066726f6d20746865207a65726f206164645f8201527f7265737300000000000000000000000000000000000000000000000000000000602082015250565b5f6111be602483610c90565b91506111c982611164565b604082019050919050565b5f6020820190508181035f8301526111eb816111b2565b9050919050565b7f45524332303a20617070726f766520746f20746865207a65726f2061646472655f8201527f7373000000000000000000000000000000000000000000000000000000000000602082015250565b5f61124c602283610c90565b9150611257826111f2565b604082019050919050565b5f6020820190508181035f83015261127981611240565b9050919050565b7f45435232303a20696e73756666696369616e7420616c6c6f77616e63650000005f82015250565b5f6112b4601d83610c90565b91506112bf82611280565b602082019050919050565b5f6020820190508181035f8301526112e1816112a8565b9050919050565b7f7472616e736665722066726f6d20746865207a65726f206164647265737300005f82015250565b5f61131c601e83610c90565b9150611327826112e8565b602082019050919050565b5f6020820190508181035f83015261134981611310565b9050919050565b7f7472616e7366657220746f20746865207a65726f206163636f756e74000000005f82015250565b5f611384601c83610c90565b915061138f82611350565b602082019050919050565b5f6020820190508181035f8301526113b181611378565b9050919050565b7f7472616e7366657220616d6f756e742065786365656473207468652062616c615f8201527f6e63650000000000000000000000000000000000000000000000000000000000602082015250565b5f611412602383610c90565b915061141d826113b8565b604082019050919050565b5f6020820190508181035f83015261143f81611406565b905091905056fea2646970667358221220e3467ede4e76910acbb3b3a099abea133af101c9203b9fe6e0fb7e98158f069664736f6c634300081e0033",
					"opcodes": "PUSH1 0x80 PUSH1 0x40 MSTORE CALLVALUE DUP1 ISZERO PUSH2 0xF JUMPI PUSH0 PUSH0 REVERT JUMPDEST POP PUSH1 0x40 MLOAD PUSH2 0x1CFC CODESIZE SUB DUP1 PUSH2 0x1CFC DUP4 CODECOPY DUP2 DUP2 ADD PUSH1 0x40 MSTORE DUP2 ADD SWAP1 PUSH2 0x31 SWAP2 SWAP1 PUSH2 0x2F2 JUMP JUMPDEST DUP4 PUSH0 SWAP1 DUP2 PUSH2 0x3F SWAP2 SWAP1 PUSH2 0x595 JUMP JUMPDEST POP DUP3 PUSH1 0x1 SWAP1 DUP2 PUSH2 0x4F SWAP2 SWAP1 PUSH2 0x595 JUMP JUMPDEST POP DUP2 PUSH1 0x2 PUSH0 PUSH2 0x100 EXP DUP2 SLOAD DUP2 PUSH1 0xFF MUL NOT AND SWAP1 DUP4 PUSH1 0xFF AND MUL OR SWAP1 SSTORE POP DUP2 PUSH1 0xA PUSH2 0x77 SWAP2 SWAP1 PUSH2 0x7C0 JUMP JUMPDEST DUP2 PUSH2 0x82 SWAP2 SWAP1 PUSH2 0x80A JUMP JUMPDEST PUSH1 0x3 DUP2 SWAP1 SSTORE POP PUSH1 0x3 SLOAD PUSH1 0x4 PUSH0 CALLER PUSH20 0xFFFFFFFFFFFFFFFFFFFFFFFFFFFFFFFFFFFFFFFF AND PUSH20 0xFFFFFFFFFFFFFFFFFFFFFFFFFFFFFFFFFFFFFFFF AND DUP2 MSTORE PUSH1 0x20 ADD SWAP1 DUP2 MSTORE PUSH1 0x20 ADD PUSH0 KECCAK256 DUP2 SWAP1 SSTORE POP CALLER PUSH20 0xFFFFFFFFFFFFFFFFFFFFFFFFFFFFFFFFFFFFFFFF AND PUSH0 PUSH20 0xFFFFFFFFFFFFFFFFFFFFFFFFFFFFFFFFFFFFFFFF AND PUSH32 0xDDF252AD1BE2C89B69C2B068FC378DAA952BA7F163C4A11628F55A4DF523B3EF PUSH1 0x3 SLOAD PUSH1 0x40 MLOAD PUSH2 0x12B SWAP2 SWAP1 PUSH2 0x85A JUMP JUMPDEST PUSH1 0x40 MLOAD DUP1 SWAP2 SUB SWAP1 LOG3 POP POP POP POP PUSH2 0x873 JUMP JUMPDEST PUSH0 PUSH1 0x40 MLOAD SWAP1 POP SWAP1 JUMP JUMPDEST PUSH0 PUSH0 REVERT JUMPDEST PUSH0 PUSH0 REVERT JUMPDEST PUSH0 PUSH0 REVERT JUMPDEST PUSH0 PUSH0 REVERT JUMPDEST PUSH0 PUSH1 0x1F NOT PUSH1 0x1F DUP4 ADD AND SWAP1 POP SWAP2 SWAP1 POP JUMP JUMPDEST PUSH32 0x4E487B7100000000000000000000000000000000000000000000000000000000 PUSH0 MSTORE PUSH1 0x41 PUSH1 0x4 MSTORE PUSH1 0x24 PUSH0 REVERT JUMPDEST PUSH2 0x19B DUP3 PUSH2 0x155 JUMP JUMPDEST DUP2 ADD DUP2 DUP2 LT PUSH8 0xFFFFFFFFFFFFFFFF DUP3 GT OR ISZERO PUSH2 0x1BA JUMPI PUSH2 0x1B9 PUSH2 0x165 JUMP JUMPDEST JUMPDEST DUP1 PUSH1 0x40 MSTORE POP POP POP JUMP JUMPDEST PUSH0 PUSH2 0x1CC PUSH2 0x13C JUMP JUMPDEST SWAP1 POP PUSH2 0x1D8 DUP3 DUP3 PUSH2 0x192 JUMP JUMPDEST SWAP2 SWAP1 POP JUMP JUMPDEST PUSH0 PUSH8 0xFFFFFFFFFFFFFFFF DUP3 GT ISZERO PUSH2 0x1F7 JUMPI PUSH2 0x1F6 PUSH2 0x165 JUMP JUMPDEST JUMPDEST PUSH2 0x200 DUP3 PUSH2 0x155 JUMP JUMPDEST SWAP1 POP PUSH1 0x20 DUP2 ADD SWAP1 POP SWAP2 SWAP1 POP JUMP JUMPDEST DUP3 DUP2 DUP4 MCOPY PUSH0 DUP4 DUP4 ADD MSTORE POP POP POP JUMP JUMPDEST PUSH0 PUSH2 0x22D PUSH2 0x228 DUP5 PUSH2 0x1DD JUMP JUMPDEST PUSH2 0x1C3 JUMP JUMPDEST SWAP1 POP DUP3 DUP2 MSTORE PUSH1 0x20 DUP2 ADD DUP5 DUP5 DUP5 ADD GT ISZERO PUSH2 0x249 JUMPI PUSH2 0x248 PUSH2 0x151 JUMP JUMPDEST JUMPDEST PUSH2 0x254 DUP5 DUP3 DUP6 PUSH2 0x20D JUMP JUMPDEST POP SWAP4 SWAP3 POP POP POP JUMP JUMPDEST PUSH0 DUP3 PUSH1 0x1F DUP4 ADD SLT PUSH2 0x270 JUMPI PUSH2 0x26F PUSH2 0x14D JUMP JUMPDEST JUMPDEST DUP2 MLOAD PUSH2 0x280 DUP5 DUP3 PUSH1 0x20 DUP7 ADD PUSH2 0x21B JUMP JUMPDEST SWAP2 POP POP SWAP3 SWAP2 POP POP JUMP JUMPDEST PUSH0 PUSH1 0xFF DUP3 AND SWAP1 POP SWAP2 SWAP1 POP JUMP JUMPDEST PUSH2 0x29E DUP2 PUSH2 0x289 JUMP JUMPDEST DUP2 EQ PUSH2 0x2A8 JUMPI PUSH0 PUSH0 REVERT JUMPDEST POP JUMP JUMPDEST PUSH0 DUP2 MLOAD SWAP1 POP PUSH2 0x2B9 DUP2 PUSH2 0x295 JUMP JUMPDEST SWAP3 SWAP2 POP POP JUMP JUMPDEST PUSH0 DUP2 SWAP1 POP SWAP2 SWAP1 POP JUMP JUMPDEST PUSH2 0x2D1 DUP2 PUSH2 0x2BF JUMP JUMPDEST DUP2 EQ PUSH2 0x2DB JUMPI PUSH0 PUSH0 REVERT JUMPDEST POP JUMP JUMPDEST PUSH0 DUP2 MLOAD SWAP1 POP PUSH2 0x2EC DUP2 PUSH2 0x2C8 JUMP JUMPDEST SWAP3 SWAP2 POP POP JUMP JUMPDEST PUSH0 PUSH0 PUSH0 PUSH0 PUSH1 0x80 DUP6 DUP8 SUB SLT ISZERO PUSH2 0x30A JUMPI PUSH2 0x309 PUSH2 0x145 JUMP JUMPDEST JUMPDEST PUSH0 DUP6 ADD MLOAD PUSH8 0xFFFFFFFFFFFFFFFF DUP2 GT ISZERO PUSH2 0x327 JUMPI PUSH2 0x326 PUSH2 0x149 JUMP JUMPDEST JUMPDEST PUSH2 0x333 DUP8 DUP3 DUP9 ADD PUSH2 0x25C JUMP JUMPDEST SWAP5 POP POP PUSH1 0x20 DUP6 ADD MLOAD PUSH8 0xFFFFFFFFFFFFFFFF DUP2 GT ISZERO PUSH2 0x354 JUMPI PUSH2 0x353 PUSH2 0x149 JUMP JUMPDEST JUMPDEST PUSH2 0x360 DUP8 DUP3 DUP9 ADD PUSH2 0x25C JUMP JUMPDEST SWAP4 POP POP PUSH1 0x40 PUSH2 0x371 DUP8 DUP3 DUP9 ADD PUSH2 0x2AB JUMP JUMPDEST SWAP3 POP POP PUSH1 0x60 PUSH2 0x382 DUP8 DUP3 DUP9 ADD PUSH2 0x2DE JUMP JUMPDEST SWAP2 POP POP SWAP3 SWAP6 SWAP2 SWAP5 POP SWAP3 POP JUMP JUMPDEST PUSH0 DUP2 MLOAD SWAP1 POP SWAP2 SWAP1 POP JUMP JUMPDEST PUSH32 0x4E487B7100000000000000000000000000000000000000000000000000000000 PUSH0 MSTORE PUSH1 0x22 PUSH1 0x4 MSTORE PUSH1 0x24 PUSH0 REVERT JUMPDEST PUSH0 PUSH1 0x2 DUP3 DIV SWAP1 POP PUSH1 0x1 DUP3 AND DUP1 PUSH2 0x3DC JUMPI PUSH1 0x7F DUP3 AND SWAP2 POP JUMPDEST PUSH1 0x20 DUP3 LT DUP2 SUB PUSH2 0x3EF JUMPI PUSH2 0x3EE PUSH2 0x398 JUMP JUMPDEST JUMPDEST POP SWAP2 SWAP1 POP JUMP JUMPDEST PUSH0 DUP2 SWAP1 POP DUP2 PUSH0 MSTORE PUSH1 0x20 PUSH0 KECCAK256 SWAP1 POP SWAP2 SWAP1 POP JUMP JUMPDEST PUSH0 PUSH1 0x20 PUSH1 0x1F DUP4 ADD DIV SWAP1 POP SWAP2 SWAP1 POP JUMP JUMPDEST PUSH0 DUP3 DUP3 SHL SWAP1 POP SWAP3 SWAP2 POP POP JUMP JUMPDEST PUSH0 PUSH1 0x8 DUP4 MUL PUSH2 0x451 PUSH32 0xFFFFFFFFFFFFFFFFFFFFFFFFFFFFFFFFFFFFFFFFFFFFFFFFFFFFFFFFFFFFFFFF DUP3 PUSH2 0x416 JUMP JUMPDEST PUSH2 0x45B DUP7 DUP4 PUSH2 0x416 JUMP JUMPDEST SWAP6 POP DUP1 NOT DUP5 AND SWAP4 POP DUP1 DUP7 AND DUP5 OR SWAP3 POP POP POP SWAP4 SWAP3 POP POP POP JUMP JUMPDEST PUSH0 DUP2 SWAP1 POP SWAP2 SWAP1 POP JUMP JUMPDEST PUSH0 PUSH2 0x496 PUSH2 0x491 PUSH2 0x48C DUP5 PUSH2 0x2BF JUMP JUMPDEST PUSH2 0x473 JUMP JUMPDEST PUSH2 0x2BF JUMP JUMPDEST SWAP1 POP SWAP2 SWAP1 POP JUMP JUMPDEST PUSH0 DUP2 SWAP1 POP SWAP2 SWAP1 POP JUMP JUMPDEST PUSH2 0x4AF DUP4 PUSH2 0x47C JUMP JUMPDEST PUSH2 0x4C3 PUSH2 0x4BB DUP3 PUSH2 0x49D JUMP JUMPDEST DUP5 DUP5 SLOAD PUSH2 0x422 JUMP JUMPDEST DUP3 SSTORE POP POP POP POP JUMP JUMPDEST PUSH0 PUSH0 SWAP1 POP SWAP1 JUMP JUMPDEST PUSH2 0x4DA PUSH2 0x4CB JUMP JUMPDEST PUSH2 0x4E5 DUP2 DUP5 DUP5 PUSH2 0x4A6 JUMP JUMPDEST POP POP POP JUMP JUMPDEST JUMPDEST DUP2 DUP2 LT ISZERO PUSH2 0x508 JUMPI PUSH2 0x4FD PUSH0 DUP3 PUSH2 0x4D2 JUMP JUMPDEST PUSH1 0x1 DUP2 ADD SWAP1 POP PUSH2 0x4EB JUMP JUMPDEST POP POP JUMP JUMPDEST PUSH1 0x1F DUP3 GT ISZERO PUSH2 0x54D JUMPI PUSH2 0x51E DUP2 PUSH2 0x3F5 JUMP JUMPDEST PUSH2 0x527 DUP5 PUSH2 0x407 JUMP JUMPDEST DUP2 ADD PUSH1 0x20 DUP6 LT ISZERO PUSH2 0x536 JUMPI DUP2 SWAP1 POP JUMPDEST PUSH2 0x54A PUSH2 0x542 DUP6 PUSH2 0x407 JUMP JUMPDEST DUP4 ADD DUP3 PUSH2 0x4EA JUMP JUMPDEST POP POP JUMPDEST POP POP POP JUMP JUMPDEST PUSH0 DUP3 DUP3 SHR SWAP1 POP SWAP3 SWAP2 POP POP JUMP JUMPDEST PUSH0 PUSH2 0x56D PUSH0 NOT DUP5 PUSH1 0x8 MUL PUSH2 0x552 JUMP JUMPDEST NOT DUP1 DUP4 AND SWAP2 POP POP SWAP3 SWAP2 POP POP JUMP JUMPDEST PUSH0 PUSH2 0x585 DUP4 DUP4 PUSH2 0x55E JUMP JUMPDEST SWAP2 POP DUP3 PUSH1 0x2 MUL DUP3 OR SWAP1 POP SWAP3 SWAP2 POP POP JUMP JUMPDEST PUSH2 0x59E DUP3 PUSH2 0x38E JUMP JUMPDEST PUSH8 0xFFFFFFFFFFFFFFFF DUP2 GT ISZERO PUSH2 0x5B7 JUMPI PUSH2 0x5B6 PUSH2 0x165 JUMP JUMPDEST JUMPDEST PUSH2 0x5C1 DUP3 SLOAD PUSH2 0x3C5 JUMP JUMPDEST PUSH2 0x5CC DUP3 DUP3 DUP6 PUSH2 0x50C JUMP JUMPDEST PUSH0 PUSH1 0x20 SWAP1 POP PUSH1 0x1F DUP4 GT PUSH1 0x1 DUP2 EQ PUSH2 0x5FD JUMPI PUSH0 DUP5 ISZERO PUSH2 0x5EB JUMPI DUP3 DUP8 ADD MLOAD SWAP1 POP JUMPDEST PUSH2 0x5F5 DUP6 DUP3 PUSH2 0x57A JUMP JUMPDEST DUP7 SSTORE POP PUSH2 0x65C JUMP JUMPDEST PUSH1 0x1F NOT DUP5 AND PUSH2 0x60B DUP7 PUSH2 0x3F5 JUMP JUMPDEST PUSH0 JUMPDEST DUP3 DUP2 LT ISZERO PUSH2 0x632 JUMPI DUP5 DUP10 ADD MLOAD DUP3 SSTORE PUSH1 0x1 DUP3 ADD SWAP2 POP PUSH1 0x20 DUP6 ADD SWAP5 POP PUSH1 0x20 DUP2 ADD SWAP1 POP PUSH2 0x60D JUMP JUMPDEST DUP7 DUP4 LT ISZERO PUSH2 0x64F JUMPI DUP5 DUP10 ADD MLOAD PUSH2 0x64B PUSH1 0x1F DUP10 AND DUP3 PUSH2 0x55E JUMP JUMPDEST DUP4 SSTORE POP JUMPDEST PUSH1 0x1 PUSH1 0x2 DUP9 MUL ADD DUP9 SSTORE POP POP POP JUMPDEST POP POP POP POP POP POP JUMP JUMPDEST PUSH32 0x4E487B7100000000000000000000000000000000000000000000000000000000 PUSH0 MSTORE PUSH1 0x11 PUSH1 0x4 MSTORE PUSH1 0x24 PUSH0 REVERT JUMPDEST PUSH0 DUP2 PUSH1 0x1 SHR SWAP1 POP SWAP2 SWAP1 POP JUMP JUMPDEST PUSH0 PUSH0 DUP3 SWAP2 POP DUP4 SWAP1 POP JUMPDEST PUSH1 0x1 DUP6 GT ISZERO PUSH2 0x6E6 JUMPI DUP1 DUP7 DIV DUP2 GT ISZERO PUSH2 0x6C2 JUMPI PUSH2 0x6C1 PUSH2 0x664 JUMP JUMPDEST JUMPDEST PUSH1 0x1 DUP6 AND ISZERO PUSH2 0x6D1 JUMPI DUP1 DUP3 MUL SWAP2 POP JUMPDEST DUP1 DUP2 MUL SWAP1 POP PUSH2 0x6DF DUP6 PUSH2 0x691 JUMP JUMPDEST SWAP5 POP PUSH2 0x6A6 JUMP JUMPDEST SWAP5 POP SWAP5 SWAP3 POP POP POP JUMP JUMPDEST PUSH0 DUP3 PUSH2 0x6FE JUMPI PUSH1 0x1 SWAP1 POP PUSH2 0x7B9 JUMP JUMPDEST DUP2 PUSH2 0x70B JUMPI PUSH0 SWAP1 POP PUSH2 0x7B9 JUMP JUMPDEST DUP2 PUSH1 0x1 DUP2 EQ PUSH2 0x721 JUMPI PUSH1 0x2 DUP2 EQ PUSH2 0x72B JUMPI PUSH2 0x75A JUMP JUMPDEST PUSH1 0x1 SWAP2 POP POP PUSH2 0x7B9 JUMP JUMPDEST PUSH1 0xFF DUP5 GT ISZERO PUSH2 0x73D JUMPI PUSH2 0x73C PUSH2 0x664 JUMP JUMPDEST JUMPDEST DUP4 PUSH1 0x2 EXP SWAP2 POP DUP5 DUP3 GT ISZERO PUSH2 0x754 JUMPI PUSH2 0x753 PUSH2 0x664 JUMP JUMPDEST JUMPDEST POP PUSH2 0x7B9 JUMP JUMPDEST POP PUSH1 0x20 DUP4 LT PUSH2 0x133 DUP4 LT AND PUSH1 0x4E DUP5 LT PUSH1 0xB DUP5 LT AND OR ISZERO PUSH2 0x78F JUMPI DUP3 DUP3 EXP SWAP1 POP DUP4 DUP2 GT ISZERO PUSH2 0x78A JUMPI PUSH2 0x789 PUSH2 0x664 JUMP JUMPDEST JUMPDEST PUSH2 0x7B9 JUMP JUMPDEST PUSH2 0x79C DUP5 DUP5 DUP5 PUSH1 0x1 PUSH2 0x69D JUMP JUMPDEST SWAP3 POP SWAP1 POP DUP2 DUP5 DIV DUP2 GT ISZERO PUSH2 0x7B3 JUMPI PUSH2 0x7B2 PUSH2 0x664 JUMP JUMPDEST JUMPDEST DUP2 DUP2 MUL SWAP1 POP JUMPDEST SWAP4 SWAP3 POP POP POP JUMP JUMPDEST PUSH0 PUSH2 0x7CA DUP3 PUSH2 0x2BF JUMP JUMPDEST SWAP2 POP PUSH2 0x7D5 DUP4 PUSH2 0x289 JUMP JUMPDEST SWAP3 POP PUSH2 0x802 PUSH32 0xFFFFFFFFFFFFFFFFFFFFFFFFFFFFFFFFFFFFFFFFFFFFFFFFFFFFFFFFFFFFFFFF DUP5 DUP5 PUSH2 0x6EF JUMP JUMPDEST SWAP1 POP SWAP3 SWAP2 POP POP JUMP JUMPDEST PUSH0 PUSH2 0x814 DUP3 PUSH2 0x2BF JUMP JUMPDEST SWAP2 POP PUSH2 0x81F DUP4 PUSH2 0x2BF JUMP JUMPDEST SWAP3 POP DUP3 DUP3 MUL PUSH2 0x82D DUP2 PUSH2 0x2BF JUMP JUMPDEST SWAP2 POP DUP3 DUP3 DIV DUP5 EQ DUP4 ISZERO OR PUSH2 0x844 JUMPI PUSH2 0x843 PUSH2 0x664 JUMP JUMPDEST JUMPDEST POP SWAP3 SWAP2 POP POP JUMP JUMPDEST PUSH2 0x854 DUP2 PUSH2 0x2BF JUMP JUMPDEST DUP3 MSTORE POP POP JUMP JUMPDEST PUSH0 PUSH1 0x20 DUP3 ADD SWAP1 POP PUSH2 0x86D PUSH0 DUP4 ADD DUP5 PUSH2 0x84B JUMP JUMPDEST SWAP3 SWAP2 POP POP JUMP JUMPDEST PUSH2 0x147C DUP1 PUSH2 0x880 PUSH0 CODECOPY PUSH0 RETURN INVALID PUSH1 0x80 PUSH1 0x40 MSTORE CALLVALUE DUP1 ISZERO PUSH2 0xF JUMPI PUSH0 PUSH0 REVERT JUMPDEST POP PUSH1 0x4 CALLDATASIZE LT PUSH2 0xB2 JUMPI PUSH0 CALLDATALOAD PUSH1 0xE0 SHR DUP1 PUSH4 0x72DD529B GT PUSH2 0x6F JUMPI DUP1 PUSH4 0x72DD529B EQ PUSH2 0x19E JUMPI DUP1 PUSH4 0x78592150 EQ PUSH2 0x1BC JUMPI DUP1 PUSH4 0x9537C2D6 EQ PUSH2 0x1EC JUMPI DUP1 PUSH4 0x95D89B41 EQ PUSH2 0x21C JUMPI DUP1 PUSH4 0xA9059CBB EQ PUSH2 0x23A JUMPI DUP1 PUSH4 0xDD62ED3E EQ PUSH2 0x26A JUMPI PUSH2 0xB2 JUMP JUMPDEST DUP1 PUSH4 0x6FDDE03 EQ PUSH2 0xB6 JUMPI DUP1 PUSH4 0x95EA7B3 EQ PUSH2 0xD4 JUMPI DUP1 PUSH4 0x313CE567 EQ PUSH2 0x104 JUMPI DUP1 PUSH4 0x39509351 EQ PUSH2 0x122 JUMPI DUP1 PUSH4 0x42966C68 EQ PUSH2 0x152 JUMPI DUP1 PUSH4 0x63B0545F EQ PUSH2 0x16E JUMPI JUMPDEST PUSH0 PUSH0 REVERT JUMPDEST PUSH2 0xBE PUSH2 0x29A JUMP JUMPDEST PUSH1 0x40 MLOAD PUSH2 0xCB SWAP2 SWAP1 PUSH2 0xCF6 JUMP JUMPDEST PUSH1 0x40 MLOAD DUP1 SWAP2 SUB SWAP1 RETURN JUMPDEST PUSH2 0xEE PUSH1 0x4 DUP1 CALLDATASIZE SUB DUP2 ADD SWAP1 PUSH2 0xE9 SWAP2 SWAP1 PUSH2 0xDA7 JUMP JUMPDEST PUSH2 0x325 JUMP JUMPDEST PUSH1 0x40 MLOAD PUSH2 0xFB SWAP2 SWAP1 PUSH2 0xDFF JUMP JUMPDEST PUSH1 0x40 MLOAD DUP1 SWAP2 SUB SWAP1 RETURN JUMPDEST PUSH2 0x10C PUSH2 0x33B JUMP JUMPDEST PUSH1 0x40 MLOAD PUSH2 0x119 SWAP2 SWAP1 PUSH2 0xE33 JUMP JUMPDEST PUSH1 0x40 MLOAD DUP1 SWAP2 SUB SWAP1 RETURN JUMPDEST PUSH2 0x13C PUSH1 0x4 DUP1 CALLDATASIZE SUB DUP2 ADD SWAP1 PUSH2 0x137 SWAP2 SWAP1 PUSH2 0xDA7 JUMP JUMPDEST PUSH2 0x34D JUMP JUMPDEST PUSH1 0x40 MLOAD PUSH2 0x149 SWAP2 SWAP1 PUSH2 0xDFF JUMP JUMPDEST PUSH1 0x40 MLOAD DUP1 SWAP2 SUB SWAP1 RETURN JUMPDEST PUSH2 0x16C PUSH1 0x4 DUP1 CALLDATASIZE SUB DUP2 ADD SWAP1 PUSH2 0x167 SWAP2 SWAP1 PUSH2 0xE4C JUMP JUMPDEST PUSH2 0x3E6 JUMP JUMPDEST STOP JUMPDEST PUSH2 0x188 PUSH1 0x4 DUP1 CALLDATASIZE SUB DUP2 ADD SWAP1 PUSH2 0x183 SWAP2 SWAP1 PUSH2 0xE77 JUMP JUMPDEST PUSH2 0x551 JUMP JUMPDEST PUSH1 0x40 MLOAD PUSH2 0x195 SWAP2 SWAP1 PUSH2 0xDFF JUMP JUMPDEST PUSH1 0x40 MLOAD DUP1 SWAP2 SUB SWAP1 RETURN JUMPDEST PUSH2 0x1A6 PUSH2 0x573 JUMP JUMPDEST PUSH1 0x40 MLOAD PUSH2 0x1B3 SWAP2 SWAP1 PUSH2 0xED6 JUMP JUMPDEST PUSH1 0x40 MLOAD DUP1 SWAP2 SUB SWAP1 RETURN JUMPDEST PUSH2 0x1D6 PUSH1 0x4 DUP1 CALLDATASIZE SUB DUP2 ADD SWAP1 PUSH2 0x1D1 SWAP2 SWAP1 PUSH2 0xEEF JUMP JUMPDEST PUSH2 0x579 JUMP JUMPDEST PUSH1 0x40 MLOAD PUSH2 0x1E3 SWAP2 SWAP1 PUSH2 0xED6 JUMP JUMPDEST PUSH1 0x40 MLOAD DUP1 SWAP2 SUB SWAP1 RETURN JUMPDEST PUSH2 0x206 PUSH1 0x4 DUP1 CALLDATASIZE SUB DUP2 ADD SWAP1 PUSH2 0x201 SWAP2 SWAP1 PUSH2 0xDA7 JUMP JUMPDEST PUSH2 0x5BF JUMP JUMPDEST PUSH1 0x40 MLOAD PUSH2 0x213 SWAP2 SWAP1 PUSH2 0xDFF JUMP JUMPDEST PUSH1 0x40 MLOAD DUP1 SWAP2 SUB SWAP1 RETURN JUMPDEST PUSH2 0x224 PUSH2 0x6A0 JUMP JUMPDEST PUSH1 0x40 MLOAD PUSH2 0x231 SWAP2 SWAP1 PUSH2 0xCF6 JUMP JUMPDEST PUSH1 0x40 MLOAD DUP1 SWAP2 SUB SWAP1 RETURN JUMPDEST PUSH2 0x254 PUSH1 0x4 DUP1 CALLDATASIZE SUB DUP2 ADD SWAP1 PUSH2 0x24F SWAP2 SWAP1 PUSH2 0xDA7 JUMP JUMPDEST PUSH2 0x72C JUMP JUMPDEST PUSH1 0x40 MLOAD PUSH2 0x261 SWAP2 SWAP1 PUSH2 0xDFF JUMP JUMPDEST PUSH1 0x40 MLOAD DUP1 SWAP2 SUB SWAP1 RETURN JUMPDEST PUSH2 0x284 PUSH1 0x4 DUP1 CALLDATASIZE SUB DUP2 ADD SWAP1 PUSH2 0x27F SWAP2 SWAP1 PUSH2 0xF1A JUMP JUMPDEST PUSH2 0x742 JUMP JUMPDEST PUSH1 0x40 MLOAD PUSH2 0x291 SWAP2 SWAP1 PUSH2 0xED6 JUMP JUMPDEST PUSH1 0x40 MLOAD DUP1 SWAP2 SUB SWAP1 RETURN JUMPDEST PUSH0 DUP1 SLOAD PUSH2 0x2A6 SWAP1 PUSH2 0xF85 JUMP JUMPDEST DUP1 PUSH1 0x1F ADD PUSH1 0x20 DUP1 SWAP2 DIV MUL PUSH1 0x20 ADD PUSH1 0x40 MLOAD SWAP1 DUP2 ADD PUSH1 0x40 MSTORE DUP1 SWAP3 SWAP2 SWAP1 DUP2 DUP2 MSTORE PUSH1 0x20 ADD DUP3 DUP1 SLOAD PUSH2 0x2D2 SWAP1 PUSH2 0xF85 JUMP JUMPDEST DUP1 ISZERO PUSH2 0x31D JUMPI DUP1 PUSH1 0x1F LT PUSH2 0x2F4 JUMPI PUSH2 0x100 DUP1 DUP4 SLOAD DIV MUL DUP4 MSTORE SWAP2 PUSH1 0x20 ADD SWAP2 PUSH2 0x31D JUMP JUMPDEST DUP3 ADD SWAP2 SWAP1 PUSH0 MSTORE PUSH1 0x20 PUSH0 KECCAK256 SWAP1 JUMPDEST DUP2 SLOAD DUP2 MSTORE SWAP1 PUSH1 0x1 ADD SWAP1 PUSH1 0x20 ADD DUP1 DUP4 GT PUSH2 0x300 JUMPI DUP3 SWAP1 SUB PUSH1 0x1F AND DUP3 ADD SWAP2 JUMPDEST POP POP POP POP POP DUP2 JUMP JUMPDEST PUSH0 PUSH2 0x331 CALLER DUP5 DUP5 PUSH2 0x7C4 JUMP JUMPDEST PUSH1 0x1 SWAP1 POP SWAP3 SWAP2 POP POP JUMP JUMPDEST PUSH1 0x2 PUSH0 SWAP1 SLOAD SWAP1 PUSH2 0x100 EXP SWAP1 DIV PUSH1 0xFF AND DUP2 JUMP JUMPDEST PUSH0 PUSH2 0x3DC CALLER DUP5 DUP5 PUSH1 0x5 PUSH0 CALLER PUSH20 0xFFFFFFFFFFFFFFFFFFFFFFFFFFFFFFFFFFFFFFFF AND PUSH20 0xFFFFFFFFFFFFFFFFFFFFFFFFFFFFFFFFFFFFFFFF AND DUP2 MSTORE PUSH1 0x20 ADD SWAP1 DUP2 MSTORE PUSH1 0x20 ADD PUSH0 KECCAK256 PUSH0 DUP9 PUSH20 0xFFFFFFFFFFFFFFFFFFFFFFFFFFFFFFFFFFFFFFFF AND PUSH20 0xFFFFFFFFFFFFFFFFFFFFFFFFFFFFFFFFFFFFFFFF AND DUP2 MSTORE PUSH1 0x20 ADD SWAP1 DUP2 MSTORE PUSH1 0x20 ADD PUSH0 KECCAK256 SLOAD PUSH2 0x3D7 SWAP2 SWAP1 PUSH2 0xFE2 JUMP JUMPDEST PUSH2 0x7C4 JUMP JUMPDEST PUSH1 0x1 SWAP1 POP SWAP3 SWAP2 POP POP JUMP JUMPDEST DUP1 PUSH1 0x4 PUSH0 CALLER PUSH20 0xFFFFFFFFFFFFFFFFFFFFFFFFFFFFFFFFFFFFFFFF AND PUSH20 0xFFFFFFFFFFFFFFFFFFFFFFFFFFFFFFFFFFFFFFFF AND DUP2 MSTORE PUSH1 0x20 ADD SWAP1 DUP2 MSTORE PUSH1 0x20 ADD PUSH0 KECCAK256 SLOAD LT ISZERO PUSH2 0x466 JUMPI PUSH1 0x40 MLOAD PUSH32 0x8C379A000000000000000000000000000000000000000000000000000000000 DUP2 MSTORE PUSH1 0x4 ADD PUSH2 0x45D SWAP1 PUSH2 0x1085 JUMP JUMPDEST PUSH1 0x40 MLOAD DUP1 SWAP2 SUB SWAP1 REVERT JUMPDEST DUP1 PUSH1 0x4 PUSH0 CALLER PUSH20 0xFFFFFFFFFFFFFFFFFFFFFFFFFFFFFFFFFFFFFFFF AND PUSH20 0xFFFFFFFFFFFFFFFFFFFFFFFFFFFFFFFFFFFFFFFF AND DUP2 MSTORE PUSH1 0x20 ADD SWAP1 DUP2 MSTORE PUSH1 0x20 ADD PUSH0 KECCAK256 PUSH0 DUP3 DUP3 SLOAD PUSH2 0x4B2 SWAP2 SWAP1 PUSH2 0x10A3 JUMP JUMPDEST SWAP3 POP POP DUP2 SWAP1 SSTORE POP DUP1 PUSH1 0x3 PUSH0 DUP3 DUP3 SLOAD PUSH2 0x4CA SWAP2 SWAP1 PUSH2 0x10A3 JUMP JUMPDEST SWAP3 POP POP DUP2 SWAP1 SSTORE POP DUP1 PUSH1 0x3 PUSH0 DUP3 DUP3 SLOAD PUSH2 0x4E2 SWAP2 SWAP1 PUSH2 0x10A3 JUMP JUMPDEST SWAP3 POP POP DUP2 SWAP1 SSTORE POP PUSH0 PUSH20 0xFFFFFFFFFFFFFFFFFFFFFFFFFFFFFFFFFFFFFFFF AND CALLER PUSH20 0xFFFFFFFFFFFFFFFFFFFFFFFFFFFFFFFFFFFFFFFF AND PUSH32 0xDDF252AD1BE2C89B69C2B068FC378DAA952BA7F163C4A11628F55A4DF523B3EF DUP4 PUSH1 0x40 MLOAD PUSH2 0x546 SWAP2 SWAP1 PUSH2 0xED6 JUMP JUMPDEST PUSH1 0x40 MLOAD DUP1 SWAP2 SUB SWAP1 LOG3 POP JUMP JUMPDEST PUSH0 PUSH2 0x55D DUP5 CALLER DUP5 PUSH2 0x987 JUMP JUMPDEST PUSH2 0x568 DUP5 DUP5 DUP5 PUSH2 0xA1B JUMP JUMPDEST PUSH1 0x1 SWAP1 POP SWAP4 SWAP3 POP POP POP JUMP JUMPDEST PUSH1 0x3 SLOAD DUP2 JUMP JUMPDEST PUSH0 PUSH1 0x4 PUSH0 DUP4 PUSH20 0xFFFFFFFFFFFFFFFFFFFFFFFFFFFFFFFFFFFFFFFF AND PUSH20 0xFFFFFFFFFFFFFFFFFFFFFFFFFFFFFFFFFFFFFFFF AND DUP2 MSTORE PUSH1 0x20 ADD SWAP1 DUP2 MSTORE PUSH1 0x20 ADD PUSH0 KECCAK256 SLOAD SWAP1 POP SWAP2 SWAP1 POP JUMP JUMPDEST PUSH0 PUSH0 PUSH1 0x5 PUSH0 CALLER PUSH20 0xFFFFFFFFFFFFFFFFFFFFFFFFFFFFFFFFFFFFFFFF AND PUSH20 0xFFFFFFFFFFFFFFFFFFFFFFFFFFFFFFFFFFFFFFFF AND DUP2 MSTORE PUSH1 0x20 ADD SWAP1 DUP2 MSTORE PUSH1 0x20 ADD PUSH0 KECCAK256 PUSH0 DUP6 PUSH20 0xFFFFFFFFFFFFFFFFFFFFFFFFFFFFFFFFFFFFFFFF AND PUSH20 0xFFFFFFFFFFFFFFFFFFFFFFFFFFFFFFFFFFFFFFFF AND DUP2 MSTORE PUSH1 0x20 ADD SWAP1 DUP2 MSTORE PUSH1 0x20 ADD PUSH0 KECCAK256 SLOAD SWAP1 POP DUP3 DUP2 LT ISZERO PUSH2 0x67F JUMPI PUSH1 0x40 MLOAD PUSH32 0x8C379A000000000000000000000000000000000000000000000000000000000 DUP2 MSTORE PUSH1 0x4 ADD PUSH2 0x676 SWAP1 PUSH2 0x1146 JUMP JUMPDEST PUSH1 0x40 MLOAD DUP1 SWAP2 SUB SWAP1 REVERT JUMPDEST PUSH2 0x695 CALLER DUP6 DUP6 DUP5 PUSH2 0x690 SWAP2 SWAP1 PUSH2 0x10A3 JUMP JUMPDEST PUSH2 0x7C4 JUMP JUMPDEST PUSH1 0x1 SWAP2 POP POP SWAP3 SWAP2 POP POP JUMP JUMPDEST PUSH1 0x1 DUP1 SLOAD PUSH2 0x6AD SWAP1 PUSH2 0xF85 JUMP JUMPDEST DUP1 PUSH1 0x1F ADD PUSH1 0x20 DUP1 SWAP2 DIV MUL PUSH1 0x20 ADD PUSH1 0x40 MLOAD SWAP1 DUP2 ADD PUSH1 0x40 MSTORE DUP1 SWAP3 SWAP2 SWAP1 DUP2 DUP2 MSTORE PUSH1 0x20 ADD DUP3 DUP1 SLOAD PUSH2 0x6D9 SWAP1 PUSH2 0xF85 JUMP JUMPDEST DUP1 ISZERO PUSH2 0x724 JUMPI DUP1 PUSH1 0x1F LT PUSH2 0x6FB JUMPI PUSH2 0x100 DUP1 DUP4 SLOAD DIV MUL DUP4 MSTORE SWAP2 PUSH1 0x20 ADD SWAP2 PUSH2 0x724 JUMP JUMPDEST DUP3 ADD SWAP2 SWAP1 PUSH0 MSTORE PUSH1 0x20 PUSH0 KECCAK256 SWAP1 JUMPDEST DUP2 SLOAD DUP2 MSTORE SWAP1 PUSH1 0x1 ADD SWAP1 PUSH1 0x20 ADD DUP1 DUP4 GT PUSH2 0x707 JUMPI DUP3 SWAP1 SUB PUSH1 0x1F AND DUP3 ADD SWAP2 JUMPDEST POP POP POP POP POP DUP2 JUMP JUMPDEST PUSH0 PUSH2 0x738 CALLER DUP5 DUP5 PUSH2 0xA1B JUMP JUMPDEST PUSH1 0x1 SWAP1 POP SWAP3 SWAP2 POP POP JUMP JUMPDEST PUSH0 PUSH1 0x5 PUSH0 DUP5 PUSH20 0xFFFFFFFFFFFFFFFFFFFFFFFFFFFFFFFFFFFFFFFF AND PUSH20 0xFFFFFFFFFFFFFFFFFFFFFFFFFFFFFFFFFFFFFFFF AND DUP2 MSTORE PUSH1 0x20 ADD SWAP1 DUP2 MSTORE PUSH1 0x20 ADD PUSH0 KECCAK256 PUSH0 DUP4 PUSH20 0xFFFFFFFFFFFFFFFFFFFFFFFFFFFFFFFFFFFFFFFF AND PUSH20 0xFFFFFFFFFFFFFFFFFFFFFFFFFFFFFFFFFFFFFFFF AND DUP2 MSTORE PUSH1 0x20 ADD SWAP1 DUP2 MSTORE PUSH1 0x20 ADD PUSH0 KECCAK256 SLOAD SWAP1 POP SWAP3 SWAP2 POP POP JUMP JUMPDEST PUSH0 PUSH20 0xFFFFFFFFFFFFFFFFFFFFFFFFFFFFFFFFFFFFFFFF AND DUP4 PUSH20 0xFFFFFFFFFFFFFFFFFFFFFFFFFFFFFFFFFFFFFFFF AND SUB PUSH2 0x832 JUMPI PUSH1 0x40 MLOAD PUSH32 0x8C379A000000000000000000000000000000000000000000000000000000000 DUP2 MSTORE PUSH1 0x4 ADD PUSH2 0x829 SWAP1 PUSH2 0x11D4 JUMP JUMPDEST PUSH1 0x40 MLOAD DUP1 SWAP2 SUB SWAP1 REVERT JUMPDEST PUSH0 PUSH20 0xFFFFFFFFFFFFFFFFFFFFFFFFFFFFFFFFFFFFFFFF AND DUP3 PUSH20 0xFFFFFFFFFFFFFFFFFFFFFFFFFFFFFFFFFFFFFFFF AND SUB PUSH2 0x8A0 JUMPI PUSH1 0x40 MLOAD PUSH32 0x8C379A000000000000000000000000000000000000000000000000000000000 DUP2 MSTORE PUSH1 0x4 ADD PUSH2 0x897 SWAP1 PUSH2 0x1262 JUMP JUMPDEST PUSH1 0x40 MLOAD DUP1 SWAP2 SUB SWAP1 REVERT JUMPDEST DUP1 PUSH1 0x5 PUSH0 DUP6 PUSH20 0xFFFFFFFFFFFFFFFFFFFFFFFFFFFFFFFFFFFFFFFF AND PUSH20 0xFFFFFFFFFFFFFFFFFFFFFFFFFFFFFFFFFFFFFFFF AND DUP2 MSTORE PUSH1 0x20 ADD SWAP1 DUP2 MSTORE PUSH1 0x20 ADD PUSH0 KECCAK256 PUSH0 DUP5 PUSH20 0xFFFFFFFFFFFFFFFFFFFFFFFFFFFFFFFFFFFFFFFF AND PUSH20 0xFFFFFFFFFFFFFFFFFFFFFFFFFFFFFFFFFFFFFFFF AND DUP2 MSTORE PUSH1 0x20 ADD SWAP1 DUP2 MSTORE PUSH1 0x20 ADD PUSH0 KECCAK256 DUP2 SWAP1 SSTORE POP DUP2 PUSH20 0xFFFFFFFFFFFFFFFFFFFFFFFFFFFFFFFFFFFFFFFF AND DUP4 PUSH20 0xFFFFFFFFFFFFFFFFFFFFFFFFFFFFFFFFFFFFFFFF AND PUSH32 0x6E11FB1B7F119E3F2FA29896EF5FDF8B8A2D0D4DF6FE90BA8668E7D8B2FFA25E DUP4 PUSH1 0x40 MLOAD PUSH2 0x97A SWAP2 SWAP1 PUSH2 0xED6 JUMP JUMPDEST PUSH1 0x40 MLOAD DUP1 SWAP2 SUB SWAP1 LOG3 POP POP POP JUMP JUMPDEST PUSH0 PUSH2 0x992 DUP5 DUP5 PUSH2 0x742 JUMP JUMPDEST SWAP1 POP PUSH32 0xFFFFFFFFFFFFFFFFFFFFFFFFFFFFFFFFFFFFFFFFFFFFFFFFFFFFFFFFFFFFFFFF DUP2 EQ PUSH2 0xA15 JUMPI DUP2 DUP2 LT ISZERO PUSH2 0x9FE JUMPI PUSH1 0x40 MLOAD PUSH32 0x8C379A000000000000000000000000000000000000000000000000000000000 DUP2 MSTORE PUSH1 0x4 ADD PUSH2 0x9F5 SWAP1 PUSH2 0x12CA JUMP JUMPDEST PUSH1 0x40 MLOAD DUP1 SWAP2 SUB SWAP1 REVERT JUMPDEST PUSH2 0xA14 DUP5 DUP5 DUP5 DUP5 PUSH2 0xA0F SWAP2 SWAP1 PUSH2 0x10A3 JUMP JUMPDEST PUSH2 0x7C4 JUMP JUMPDEST JUMPDEST POP POP POP POP JUMP JUMPDEST PUSH0 PUSH20 0xFFFFFFFFFFFFFFFFFFFFFFFFFFFFFFFFFFFFFFFF AND DUP4 PUSH20 0xFFFFFFFFFFFFFFFFFFFFFFFFFFFFFFFFFFFFFFFF AND SUB PUSH2 0xA89 JUMPI PUSH1 0x40 MLOAD PUSH32 0x8C379A000000000000000000000000000000000000000000000000000000000 DUP2 MSTORE PUSH1 0x4 ADD PUSH2 0xA80 SWAP1 PUSH2 0x1332 JUMP JUMPDEST PUSH1 0x40 MLOAD DUP1 SWAP2 SUB SWAP1 REVERT JUMPDEST PUSH0 PUSH20 0xFFFFFFFFFFFFFFFFFFFFFFFFFFFFFFFFFFFFFFFF AND DUP4 PUSH20 0xFFFFFFFFFFFFFFFFFFFFFFFFFFFFFFFFFFFFFFFF AND SUB PUSH2 0xAF7 JUMPI PUSH1 0x40 MLOAD PUSH32 0x8C379A000000000000000000000000000000000000000000000000000000000 DUP2 MSTORE PUSH1 0x4 ADD PUSH2 0xAEE SWAP1 PUSH2 0x139A JUMP JUMPDEST PUSH1 0x40 MLOAD DUP1 SWAP2 SUB SWAP1 REVERT JUMPDEST PUSH0 PUSH1 0x4 PUSH0 DUP6 PUSH20 0xFFFFFFFFFFFFFFFFFFFFFFFFFFFFFFFFFFFFFFFF AND PUSH20 0xFFFFFFFFFFFFFFFFFFFFFFFFFFFFFFFFFFFFFFFF AND DUP2 MSTORE PUSH1 0x20 ADD SWAP1 DUP2 MSTORE PUSH1 0x20 ADD PUSH0 KECCAK256 SLOAD SWAP1 POP DUP2 DUP2 LT ISZERO PUSH2 0xB7B JUMPI PUSH1 0x40 MLOAD PUSH32 0x8C379A000000000000000000000000000000000000000000000000000000000 DUP2 MSTORE PUSH1 0x4 ADD PUSH2 0xB72 SWAP1 PUSH2 0x1428 JUMP JUMPDEST PUSH1 0x40 MLOAD DUP1 SWAP2 SUB SWAP1 REVERT JUMPDEST DUP2 DUP2 PUSH2 0xB87 SWAP2 SWAP1 PUSH2 0x10A3 JUMP JUMPDEST PUSH1 0x4 PUSH0 DUP7 PUSH20 0xFFFFFFFFFFFFFFFFFFFFFFFFFFFFFFFFFFFFFFFF AND PUSH20 0xFFFFFFFFFFFFFFFFFFFFFFFFFFFFFFFFFFFFFFFF AND DUP2 MSTORE PUSH1 0x20 ADD SWAP1 DUP2 MSTORE PUSH1 0x20 ADD PUSH0 KECCAK256 DUP2 SWAP1 SSTORE POP DUP2 PUSH1 0x4 PUSH0 DUP6 PUSH20 0xFFFFFFFFFFFFFFFFFFFFFFFFFFFFFFFFFFFFFFFF AND PUSH20 0xFFFFFFFFFFFFFFFFFFFFFFFFFFFFFFFFFFFFFFFF AND DUP2 MSTORE PUSH1 0x20 ADD SWAP1 DUP2 MSTORE PUSH1 0x20 ADD PUSH0 KECCAK256 PUSH0 DUP3 DUP3 SLOAD PUSH2 0xC14 SWAP2 SWAP1 PUSH2 0xFE2 JUMP JUMPDEST SWAP3 POP POP DUP2 SWAP1 SSTORE POP DUP3 PUSH20 0xFFFFFFFFFFFFFFFFFFFFFFFFFFFFFFFFFFFFFFFF AND DUP5 PUSH20 0xFFFFFFFFFFFFFFFFFFFFFFFFFFFFFFFFFFFFFFFF AND PUSH32 0xDDF252AD1BE2C89B69C2B068FC378DAA952BA7F163C4A11628F55A4DF523B3EF DUP5 PUSH1 0x40 MLOAD PUSH2 0xC78 SWAP2 SWAP1 PUSH2 0xED6 JUMP JUMPDEST PUSH1 0x40 MLOAD DUP1 SWAP2 SUB SWAP1 LOG3 POP POP POP POP JUMP JUMPDEST PUSH0 DUP2 MLOAD SWAP1 POP SWAP2 SWAP1 POP JUMP JUMPDEST PUSH0 DUP3 DUP3 MSTORE PUSH1 0x20 DUP3 ADD SWAP1 POP SWAP3 SWAP2 POP POP JUMP JUMPDEST DUP3 DUP2 DUP4 MCOPY PUSH0 DUP4 DUP4 ADD MSTORE POP POP POP JUMP JUMPDEST PUSH0 PUSH1 0x1F NOT PUSH1 0x1F DUP4 ADD AND SWAP1 POP SWAP2 SWAP1 POP JUMP JUMPDEST PUSH0 PUSH2 0xCC8 DUP3 PUSH2 0xC86 JUMP JUMPDEST PUSH2 0xCD2 DUP2 DUP6 PUSH2 0xC90 JUMP JUMPDEST SWAP4 POP PUSH2 0xCE2 DUP2 DUP6 PUSH1 0x20 DUP7 ADD PUSH2 0xCA0 JUMP JUMPDEST PUSH2 0xCEB DUP2 PUSH2 0xCAE JUMP JUMPDEST DUP5 ADD SWAP2 POP POP SWAP3 SWAP2 POP POP JUMP JUMPDEST PUSH0 PUSH1 0x20 DUP3 ADD SWAP1 POP DUP2 DUP2 SUB PUSH0 DUP4 ADD MSTORE PUSH2 0xD0E DUP2 DUP5 PUSH2 0xCBE JUMP JUMPDEST SWAP1 POP SWAP3 SWAP2 POP POP JUMP JUMPDEST PUSH0 PUSH0 REVERT JUMPDEST PUSH0 PUSH20 0xFFFFFFFFFFFFFFFFFFFFFFFFFFFFFFFFFFFFFFFF DUP3 AND SWAP1 POP SWAP2 SWAP1 POP JUMP JUMPDEST PUSH0 PUSH2 0xD43 DUP3 PUSH2 0xD1A JUMP JUMPDEST SWAP1 POP SWAP2 SWAP1 POP JUMP JUMPDEST PUSH2 0xD53 DUP2 PUSH2 0xD39 JUMP JUMPDEST DUP2 EQ PUSH2 0xD5D JUMPI PUSH0 PUSH0 REVERT JUMPDEST POP JUMP JUMPDEST PUSH0 DUP2 CALLDATALOAD SWAP1 POP PUSH2 0xD6E DUP2 PUSH2 0xD4A JUMP JUMPDEST SWAP3 SWAP2 POP POP JUMP JUMPDEST PUSH0 DUP2 SWAP1 POP SWAP2 SWAP1 POP JUMP JUMPDEST PUSH2 0xD86 DUP2 PUSH2 0xD74 JUMP JUMPDEST DUP2 EQ PUSH2 0xD90 JUMPI PUSH0 PUSH0 REVERT JUMPDEST POP JUMP JUMPDEST PUSH0 DUP2 CALLDATALOAD SWAP1 POP PUSH2 0xDA1 DUP2 PUSH2 0xD7D JUMP JUMPDEST SWAP3 SWAP2 POP POP JUMP JUMPDEST PUSH0 PUSH0 PUSH1 0x40 DUP4 DUP6 SUB SLT ISZERO PUSH2 0xDBD JUMPI PUSH2 0xDBC PUSH2 0xD16 JUMP JUMPDEST JUMPDEST PUSH0 PUSH2 0xDCA DUP6 DUP3 DUP7 ADD PUSH2 0xD60 JUMP JUMPDEST SWAP3 POP POP PUSH1 0x20 PUSH2 0xDDB DUP6 DUP3 DUP7 ADD PUSH2 0xD93 JUMP JUMPDEST SWAP2 POP POP SWAP3 POP SWAP3 SWAP1 POP JUMP JUMPDEST PUSH0 DUP2 ISZERO ISZERO SWAP1 POP SWAP2 SWAP1 POP JUMP JUMPDEST PUSH2 0xDF9 DUP2 PUSH2 0xDE5 JUMP JUMPDEST DUP3 MSTORE POP POP JUMP JUMPDEST PUSH0 PUSH1 0x20 DUP3 ADD SWAP1 POP PUSH2 0xE12 PUSH0 DUP4 ADD DUP5 PUSH2 0xDF0 JUMP JUMPDEST SWAP3 SWAP2 POP POP JUMP JUMPDEST PUSH0 PUSH1 0xFF DUP3 AND SWAP1 POP SWAP2 SWAP1 POP JUMP JUMPDEST PUSH2 0xE2D DUP2 PUSH2 0xE18 JUMP JUMPDEST DUP3 MSTORE POP POP JUMP JUMPDEST PUSH0 PUSH1 0x20 DUP3 ADD SWAP1 POP PUSH2 0xE46 PUSH0 DUP4 ADD DUP5 PUSH2 0xE24 JUMP JUMPDEST SWAP3 SWAP2 POP POP JUMP JUMPDEST PUSH0 PUSH1 0x20 DUP3 DUP5 SUB SLT ISZERO PUSH2 0xE61 JUMPI PUSH2 0xE60 PUSH2 0xD16 JUMP JUMPDEST JUMPDEST PUSH0 PUSH2 0xE6E DUP5 DUP3 DUP6 ADD PUSH2 0xD93 JUMP JUMPDEST SWAP2 POP POP SWAP3 SWAP2 POP POP JUMP JUMPDEST PUSH0 PUSH0 PUSH0 PUSH1 0x60 DUP5 DUP7 SUB SLT ISZERO PUSH2 0xE8E JUMPI PUSH2 0xE8D PUSH2 0xD16 JUMP JUMPDEST JUMPDEST PUSH0 PUSH2 0xE9B DUP7 DUP3 DUP8 ADD PUSH2 0xD60 JUMP JUMPDEST SWAP4 POP POP PUSH1 0x20 PUSH2 0xEAC DUP7 DUP3 DUP8 ADD PUSH2 0xD60 JUMP JUMPDEST SWAP3 POP POP PUSH1 0x40 PUSH2 0xEBD DUP7 DUP3 DUP8 ADD PUSH2 0xD93 JUMP JUMPDEST SWAP2 POP POP SWAP3 POP SWAP3 POP SWAP3 JUMP JUMPDEST PUSH2 0xED0 DUP2 PUSH2 0xD74 JUMP JUMPDEST DUP3 MSTORE POP POP JUMP JUMPDEST PUSH0 PUSH1 0x20 DUP3 ADD SWAP1 POP PUSH2 0xEE9 PUSH0 DUP4 ADD DUP5 PUSH2 0xEC7 JUMP JUMPDEST SWAP3 SWAP2 POP POP JUMP JUMPDEST PUSH0 PUSH1 0x20 DUP3 DUP5 SUB SLT ISZERO PUSH2 0xF04 JUMPI PUSH2 0xF03 PUSH2 0xD16 JUMP JUMPDEST JUMPDEST PUSH0 PUSH2 0xF11 DUP5 DUP3 DUP6 ADD PUSH2 0xD60 JUMP JUMPDEST SWAP2 POP POP SWAP3 SWAP2 POP POP JUMP JUMPDEST PUSH0 PUSH0 PUSH1 0x40 DUP4 DUP6 SUB SLT ISZERO PUSH2 0xF30 JUMPI PUSH2 0xF2F PUSH2 0xD16 JUMP JUMPDEST JUMPDEST PUSH0 PUSH2 0xF3D DUP6 DUP3 DUP7 ADD PUSH2 0xD60 JUMP JUMPDEST SWAP3 POP POP PUSH1 0x20 PUSH2 0xF4E DUP6 DUP3 DUP7 ADD PUSH2 0xD60 JUMP JUMPDEST SWAP2 POP POP SWAP3 POP SWAP3 SWAP1 POP JUMP JUMPDEST PUSH32 0x4E487B7100000000000000000000000000000000000000000000000000000000 PUSH0 MSTORE PUSH1 0x22 PUSH1 0x4 MSTORE PUSH1 0x24 PUSH0 REVERT JUMPDEST PUSH0 PUSH1 0x2 DUP3 DIV SWAP1 POP PUSH1 0x1 DUP3 AND DUP1 PUSH2 0xF9C JUMPI PUSH1 0x7F DUP3 AND SWAP2 POP JUMPDEST PUSH1 0x20 DUP3 LT DUP2 SUB PUSH2 0xFAF JUMPI PUSH2 0xFAE PUSH2 0xF58 JUMP JUMPDEST JUMPDEST POP SWAP2 SWAP1 POP JUMP JUMPDEST PUSH32 0x4E487B7100000000000000000000000000000000000000000000000000000000 PUSH0 MSTORE PUSH1 0x11 PUSH1 0x4 MSTORE PUSH1 0x24 PUSH0 REVERT JUMPDEST PUSH0 PUSH2 0xFEC DUP3 PUSH2 0xD74 JUMP JUMPDEST SWAP2 POP PUSH2 0xFF7 DUP4 PUSH2 0xD74 JUMP JUMPDEST SWAP3 POP DUP3 DUP3 ADD SWAP1 POP DUP1 DUP3 GT ISZERO PUSH2 0x100F JUMPI PUSH2 0x100E PUSH2 0xFB5 JUMP JUMPDEST JUMPDEST SWAP3 SWAP2 POP POP JUMP JUMPDEST PUSH32 0x45524332303A206275726E20616D6F756E7420657863656564732062616C616E PUSH0 DUP3 ADD MSTORE PUSH32 0x6365000000000000000000000000000000000000000000000000000000000000 PUSH1 0x20 DUP3 ADD MSTORE POP JUMP JUMPDEST PUSH0 PUSH2 0x106F PUSH1 0x22 DUP4 PUSH2 0xC90 JUMP JUMPDEST SWAP2 POP PUSH2 0x107A DUP3 PUSH2 0x1015 JUMP JUMPDEST PUSH1 0x40 DUP3 ADD SWAP1 POP SWAP2 SWAP1 POP JUMP JUMPDEST PUSH0 PUSH1 0x20 DUP3 ADD SWAP1 POP DUP2 DUP2 SUB PUSH0 DUP4 ADD MSTORE PUSH2 0x109C DUP2 PUSH2 0x1063 JUMP JUMPDEST SWAP1 POP SWAP2 SWAP1 POP JUMP JUMPDEST PUSH0 PUSH2 0x10AD DUP3 PUSH2 0xD74 JUMP JUMPDEST SWAP2 POP PUSH2 0x10B8 DUP4 PUSH2 0xD74 JUMP JUMPDEST SWAP3 POP DUP3 DUP3 SUB SWAP1 POP DUP2 DUP2 GT ISZERO PUSH2 0x10D0 JUMPI PUSH2 0x10CF PUSH2 0xFB5 JUMP JUMPDEST JUMPDEST SWAP3 SWAP2 POP POP JUMP JUMPDEST PUSH32 0x45435232303A2064656372656173656420416C6C6F77616E63652062656C6F77 PUSH0 DUP3 ADD MSTORE PUSH32 0x207A65726F000000000000000000000000000000000000000000000000000000 PUSH1 0x20 DUP3 ADD MSTORE POP JUMP JUMPDEST PUSH0 PUSH2 0x1130 PUSH1 0x25 DUP4 PUSH2 0xC90 JUMP JUMPDEST SWAP2 POP PUSH2 0x113B DUP3 PUSH2 0x10D6 JUMP JUMPDEST PUSH1 0x40 DUP3 ADD SWAP1 POP SWAP2 SWAP1 POP JUMP JUMPDEST PUSH0 PUSH1 0x20 DUP3 ADD SWAP1 POP DUP2 DUP2 SUB PUSH0 DUP4 ADD MSTORE PUSH2 0x115D DUP2 PUSH2 0x1124 JUMP JUMPDEST SWAP1 POP SWAP2 SWAP1 POP JUMP JUMPDEST PUSH32 0x45524332303A20617070726F76652066726F6D20746865207A65726F20616464 PUSH0 DUP3 ADD MSTORE PUSH32 0x7265737300000000000000000000000000000000000000000000000000000000 PUSH1 0x20 DUP3 ADD MSTORE POP JUMP JUMPDEST PUSH0 PUSH2 0x11BE PUSH1 0x24 DUP4 PUSH2 0xC90 JUMP JUMPDEST SWAP2 POP PUSH2 0x11C9 DUP3 PUSH2 0x1164 JUMP JUMPDEST PUSH1 0x40 DUP3 ADD SWAP1 POP SWAP2 SWAP1 POP JUMP JUMPDEST PUSH0 PUSH1 0x20 DUP3 ADD SWAP1 POP DUP2 DUP2 SUB PUSH0 DUP4 ADD MSTORE PUSH2 0x11EB DUP2 PUSH2 0x11B2 JUMP JUMPDEST SWAP1 POP SWAP2 SWAP1 POP JUMP JUMPDEST PUSH32 0x45524332303A20617070726F766520746F20746865207A65726F206164647265 PUSH0 DUP3 ADD MSTORE PUSH32 0x7373000000000000000000000000000000000000000000000000000000000000 PUSH1 0x20 DUP3 ADD MSTORE POP JUMP JUMPDEST PUSH0 PUSH2 0x124C PUSH1 0x22 DUP4 PUSH2 0xC90 JUMP JUMPDEST SWAP2 POP PUSH2 0x1257 DUP3 PUSH2 0x11F2 JUMP JUMPDEST PUSH1 0x40 DUP3 ADD SWAP1 POP SWAP2 SWAP1 POP JUMP JUMPDEST PUSH0 PUSH1 0x20 DUP3 ADD SWAP1 POP DUP2 DUP2 SUB PUSH0 DUP4 ADD MSTORE PUSH2 0x1279 DUP2 PUSH2 0x1240 JUMP JUMPDEST SWAP1 POP SWAP2 SWAP1 POP JUMP JUMPDEST PUSH32 0x45435232303A20696E73756666696369616E7420616C6C6F77616E6365000000 PUSH0 DUP3 ADD MSTORE POP JUMP JUMPDEST PUSH0 PUSH2 0x12B4 PUSH1 0x1D DUP4 PUSH2 0xC90 JUMP JUMPDEST SWAP2 POP PUSH2 0x12BF DUP3 PUSH2 0x1280 JUMP JUMPDEST PUSH1 0x20 DUP3 ADD SWAP1 POP SWAP2 SWAP1 POP JUMP JUMPDEST PUSH0 PUSH1 0x20 DUP3 ADD SWAP1 POP DUP2 DUP2 SUB PUSH0 DUP4 ADD MSTORE PUSH2 0x12E1 DUP2 PUSH2 0x12A8 JUMP JUMPDEST SWAP1 POP SWAP2 SWAP1 POP JUMP JUMPDEST PUSH32 0x7472616E736665722066726F6D20746865207A65726F20616464726573730000 PUSH0 DUP3 ADD MSTORE POP JUMP JUMPDEST PUSH0 PUSH2 0x131C PUSH1 0x1E DUP4 PUSH2 0xC90 JUMP JUMPDEST SWAP2 POP PUSH2 0x1327 DUP3 PUSH2 0x12E8 JUMP JUMPDEST PUSH1 0x20 DUP3 ADD SWAP1 POP SWAP2 SWAP1 POP JUMP JUMPDEST PUSH0 PUSH1 0x20 DUP3 ADD SWAP1 POP DUP2 DUP2 SUB PUSH0 DUP4 ADD MSTORE PUSH2 0x1349 DUP2 PUSH2 0x1310 JUMP JUMPDEST SWAP1 POP SWAP2 SWAP1 POP JUMP JUMPDEST PUSH32 0x7472616E7366657220746F20746865207A65726F206163636F756E7400000000 PUSH0 DUP3 ADD MSTORE POP JUMP JUMPDEST PUSH0 PUSH2 0x1384 PUSH1 0x1C DUP4 PUSH2 0xC90 JUMP JUMPDEST SWAP2 POP PUSH2 0x138F DUP3 PUSH2 0x1350 JUMP JUMPDEST PUSH1 0x20 DUP3 ADD SWAP1 POP SWAP2 SWAP1 POP JUMP JUMPDEST PUSH0 PUSH1 0x20 DUP3 ADD SWAP1 POP DUP2 DUP2 SUB PUSH0 DUP4 ADD MSTORE PUSH2 0x13B1 DUP2 PUSH2 0x1378 JUMP JUMPDEST SWAP1 POP SWAP2 SWAP1 POP JUMP JUMPDEST PUSH32 0x7472616E7366657220616D6F756E742065786365656473207468652062616C61 PUSH0 DUP3 ADD MSTORE PUSH32 0x6E63650000000000000000000000000000000000000000000000000000000000 PUSH1 0x20 DUP3 ADD MSTORE POP JUMP JUMPDEST PUSH0 PUSH2 0x1412 PUSH1 0x23 DUP4 PUSH2 0xC90 JUMP JUMPDEST SWAP2 POP PUSH2 0x141D DUP3 PUSH2 0x13B8 JUMP JUMPDEST PUSH1 0x40 DUP3 ADD SWAP1 POP SWAP2 SWAP1 POP JUMP JUMPDEST PUSH0 PUSH1 0x20 DUP3 ADD SWAP1 POP DUP2 DUP2 SUB PUSH0 DUP4 ADD MSTORE PUSH2 0x143F DUP2 PUSH2 0x1406 JUMP JUMPDEST SWAP1 POP SWAP2 SWAP1 POP JUMP INVALID LOG2 PUSH5 0x6970667358 0x22 SLT KECCAK256 CALLF 0x467E 0xDE 0x4E PUSH23 0x910ACBB3B3A099ABEA133AF101C9203B9FE6E0FB7E9815 DUP16 MOD SWAP7 PUSH5 0x736F6C6343 STOP ADDMOD 0x1E STOP CALLER "
				},
				"gasEstimates": {
					"creation": {
						"codeDepositCost": "1048800",
						"executionCost": "infinite",
						"totalCost": "infinite"
					},
					"external": {
						"Balanceof(address)": "2851",
						"allowance(address,address)": "infinite",
						"approve(address,uint256)": "infinite",
						"burn(uint256)": "infinite",
						"decimals()": "2511",
						"decreaseAllowannce(address,uint256)": "infinite",
						"increaseAllowance(address,uint256)": "infinite",
						"name()": "infinite",
						"symbol()": "infinite",
						"totalsupply()": "2425",
						"transfer(address,uint256)": "infinite",
						"transferfrom(address,address,uint256)": "infinite"
					},
					"internal": {
						"_approve(address,address,uint256)": "infinite",
						"_spendAllowance(address,address,uint256)": "infinite",
						"_transfer(address,address,uint256)": "infinite"
					}
				},
				"methodIdentifiers": {
					"Balanceof(address)": "78592150",
					"allowance(address,address)": "dd62ed3e",
					"approve(address,uint256)": "095ea7b3",
					"burn(uint256)": "42966c68",
					"decimals()": "313ce567",
					"decreaseAllowannce(address,uint256)": "9537c2d6",
					"increaseAllowance(address,uint256)": "39509351",
					"name()": "06fdde03",
					"symbol()": "95d89b41",
					"totalsupply()": "72dd529b",
					"transfer(address,uint256)": "a9059cbb",
					"transferfrom(address,address,uint256)": "63b0545f"
				}
			},
			"storageLayout": {
				"storage": [
					{
						"astId": 3,
						"contract": "tryit/ecr20.sol:myfirstToken",
						"label": "name",
						"offset": 0,
						"slot": "0",
						"type": "t_string_storage"
					},
					{
						"astId": 5,
						"contract": "tryit/ecr20.sol:myfirstToken",
						"label": "symbol",
						"offset": 0,
						"slot": "1",
						"type": "t_string_storage"
					},
					{
						"astId": 7,
						"contract": "tryit/ecr20.sol:myfirstToken",
						"label": "decimals",
						"offset": 0,
						"slot": "2",
						"type": "t_uint8"
					},
					{
						"astId": 9,
						"contract": "tryit/ecr20.sol:myfirstToken",
						"label": "totalsupply",
						"offset": 0,
						"slot": "3",
						"type": "t_uint256"
					},
					{
						"astId": 13,
						"contract": "tryit/ecr20.sol:myfirstToken",
						"label": "_balances",
						"offset": 0,
						"slot": "4",
						"type": "t_mapping(t_address,t_uint256)"
					},
					{
						"astId": 19,
						"contract": "tryit/ecr20.sol:myfirstToken",
						"label": "_allowances",
						"offset": 0,
						"slot": "5",
						"type": "t_mapping(t_address,t_mapping(t_address,t_uint256))"
					}
				],
				"types": {
					"t_address": {
						"encoding": "inplace",
						"label": "address",
						"numberOfBytes": "20"
					},
					"t_mapping(t_address,t_mapping(t_address,t_uint256))": {
						"encoding": "mapping",
						"key": "t_address",
						"label": "mapping(address => mapping(address => uint256))",
						"numberOfBytes": "32",
						"value": "t_mapping(t_address,t_uint256)"
					},
					"t_mapping(t_address,t_uint256)": {
						"encoding": "mapping",
						"key": "t_address",
						"label": "mapping(address => uint256)",
						"numberOfBytes": "32",
						"value": "t_uint256"
					},
					"t_string_storage": {
						"encoding": "bytes",
						"label": "string",
						"numberOfBytes": "32"
					},
					"t_uint256": {
						"encoding": "inplace",
						"label": "uint256",
						"numberOfBytes": "32"
					},
					"t_uint8": {
						"encoding": "inplace",
						"label": "uint8",
						"numberOfBytes": "1"
					}
				}
			},
			"userdoc": {
				"kind": "user",
				"methods": {},
				"version": 1
			}
		}
	}
}