{
	"Tokens/MintableBurnable.sol": {
		"MintableBurnableToken": {
			"abi": [
				{
					"inputs": [
						{
							"internalType": "string",
							"name": "_name",
							"type": "string"
						},
						{
							"internalType": "string",
							"name": "_symbol",
							"type": "string"
						},
						{
							"internalType": "uint8",
							"name": "_decimals",
							"type": "uint8"
						},
						{
							"internalType": "uint256",
							"name": "_initialSupply",
							"type": "uint256"
						},
						{
							"internalType": "uint256",
							"name": "_maxSupply",
							"type": "uint256"
						}
					],
					"stateMutability": "nonpayable",
					"type": "constructor"
				},
				{
					"inputs": [],
					"name": "ExceedsMaxSupply",
					"type": "error"
				},
				{
					"inputs": [],
					"name": "InsufficientBalance",
					"type": "error"
				},
				{
					"inputs": [],
					"name": "NotBurner",
					"type": "error"
				},
				{
					"inputs": [],
					"name": "NotMinter",
					"type": "error"
				},
				{
					"inputs": [],
					"name": "NotOwner",
					"type": "error"
				},
				{
					"inputs": [],
					"name": "ZeroAddress",
					"type": "error"
				},
				{
					"anonymous": false,
					"inputs": [
						{
							"indexed": true,
							"internalType": "address",
							"name": "owner",
							"type": "address"
						},
						{
							"indexed": true,
							"internalType": "address",
							"name": "spender",
							"type": "address"
						},
						{
							"indexed": false,
							"internalType": "uint256",
							"name": "value",
							"type": "uint256"
						}
					],
					"name": "Approval",
					"type": "event"
				},
				{
					"anonymous": false,
					"inputs": [
						{
							"indexed": true,
							"internalType": "address",
							"name": "from",
							"type": "address"
						},
						{
							"indexed": false,
							"internalType": "uint256",
							"name": "amount",
							"type": "uint256"
						}
					],
					"name": "Burn",
					"type": "event"
				},
				{
					"anonymous": false,
					"inputs": [
						{
							"indexed": true,
							"internalType": "address",
							"name": "account",
							"type": "address"
						},
						{
							"indexed": false,
							"internalType": "bool",
							"name": "status",
							"type": "bool"
						}
					],
					"name": "BurnerUpdated",
					"type": "event"
				},
				{
					"anonymous": false,
					"inputs": [
						{
							"indexed": true,
							"internalType": "address",
							"name": "to",
							"type": "address"
						},
						{
							"indexed": false,
							"internalType": "uint256",
							"name": "amount",
							"type": "uint256"
						}
					],
					"name": "Mint",
					"type": "event"
				},
				{
					"anonymous": false,
					"inputs": [
						{
							"indexed": true,
							"internalType": "address",
							"name": "account",
							"type": "address"
						},
						{
							"indexed": false,
							"internalType": "bool",
							"name": "status",
							"type": "bool"
						}
					],
					"name": "MinterUpdated",
					"type": "event"
				},
				{
					"anonymous": false,
					"inputs": [
						{
							"indexed": true,
							"internalType": "address",
							"name": "from",
							"type": "address"
						},
						{
							"indexed": true,
							"internalType": "address",
							"name": "to",
							"type": "address"
						},
						{
							"indexed": false,
							"internalType": "uint256",
							"name": "value",
							"type": "uint256"
						}
					],
					"name": "Transfer",
					"type": "event"
				},
				{
					"inputs": [
						{
							"internalType": "address",
							"name": "account",
							"type": "address"
						}
					],
					"name": "addBurner",
					"outputs": [],
					"stateMutability": "nonpayable",
					"type": "function"
				},
				{
					"inputs": [
						{
							"internalType": "address",
							"name": "account",
							"type": "address"
						}
					],
					"name": "addMinter",
					"outputs": [],
					"stateMutability": "nonpayable",
					"type": "function"
				},
				{
					"inputs": [
						{
							"internalType": "address",
							"name": "owner1",
							"type": "address"
						},
						{
							"internalType": "address",
							"name": "spender",
							"type": "address"
						}
					],
					"name": "allowance",
					"outputs": [
						{
							"internalType": "uint256",
							"name": "",
							"type": "uint256"
						}
					],
					"stateMutability": "view",
					"type": "function"
				},
				{
					"inputs": [
						{
							"internalType": "address",
							"name": "spender",
							"type": "address"
						},
						{
							"internalType": "uint256",
							"name": "amount",
							"type": "uint256"
						}
					],
					"name": "approve",
					"outputs": [
						{
							"internalType": "bool",
							"name": "",
							"type": "bool"
						}
					],
					"stateMutability": "nonpayable",
					"type": "function"
				},
				{
					"inputs": [
						{
							"internalType": "address",
							"name": "account",
							"type": "address"
						}
					],
					"name": "balanceOf",
					"outputs": [
						{
							"internalType": "uint256",
							"name": "",
							"type": "uint256"
						}
					],
					"stateMutability": "view",
					"type": "function"
				},
				{
					"inputs": [
						{
							"internalType": "uint256",
							"name": "amount",
							"type": "uint256"
						}
					],
					"name": "burn",
					"outputs": [],
					"stateMutability": "nonpayable",
					"type": "function"
				},
				{
					"inputs": [
						{
							"internalType": "address",
							"name": "from",
							"type": "address"
						},
						{
							"internalType": "uint256",
							"name": "amount",
							"type": "uint256"
						}
					],
					"name": "burnFrom",
					"outputs": [],
					"stateMutability": "nonpayable",
					"type": "function"
				},
				{
					"inputs": [
						{
							"internalType": "address",
							"name": "",
							"type": "address"
						}
					],
					"name": "burners",
					"outputs": [
						{
							"internalType": "bool",
							"name": "",
							"type": "bool"
						}
					],
					"stateMutability": "view",
					"type": "function"
				},
				{
					"inputs": [],
					"name": "decimals",
					"outputs": [
						{
							"internalType": "uint8",
							"name": "",
							"type": "uint8"
						}
					],
					"stateMutability": "view",
					"type": "function"
				},
				{
					"inputs": [],
					"name": "maxSupply",
					"outputs": [
						{
							"internalType": "uint256",
							"name": "",
							"type": "uint256"
						}
					],
					"stateMutability": "view",
					"type": "function"
				},
				{
					"inputs": [
						{
							"internalType": "address",
							"name": "to",
							"type": "address"
						},
						{
							"internalType": "uint256",
							"name": "amount",
							"type": "uint256"
						}
					],
					"name": "mint",
					"outputs": [],
					"stateMutability": "nonpayable",
					"type": "function"
				},
				{
					"inputs": [
						{
							"internalType": "address",
							"name": "",
							"type": "address"
						}
					],
					"name": "minters",
					"outputs": [
						{
							"internalType": "bool",
							"name": "",
							"type": "bool"
						}
					],
					"stateMutability": "view",
					"type": "function"
				},
				{
					"inputs": [],
					"name": "name",
					"outputs": [
						{
							"internalType": "string",
							"name": "",
							"type": "string"
						}
					],
					"stateMutability": "view",
					"type": "function"
				},
				{
					"inputs": [],
					"name": "owner",
					"outputs": [
						{
							"internalType": "address",
							"name": "",
							"type": "address"
						}
					],
					"stateMutability": "view",
					"type": "function"
				},
				{
					"inputs": [
						{
							"internalType": "address",
							"name": "account",
							"type": "address"
						}
					],
					"name": "removeBurner",
					"outputs": [],
					"stateMutability": "nonpayable",
					"type": "function"
				},
				{
					"inputs": [
						{
							"internalType": "address",
							"name": "account",
							"type": "address"
						}
					],
					"name": "removeMinter",
					"outputs": [],
					"stateMutability": "nonpayable",
					"type": "function"
				},
				{
					"inputs": [],
					"name": "symbol",
					"outputs": [
						{
							"internalType": "string",
							"name": "",
							"type": "string"
						}
					],
					"stateMutability": "view",
					"type": "function"
				},
				{
					"inputs": [],
					"name": "totalSupply",
					"outputs": [
						{
							"internalType": "uint256",
							"name": "",
							"type": "uint256"
						}
					],
					"stateMutability": "view",
					"type": "function"
				},
				{
					"inputs": [
						{
							"internalType": "address",
							"name": "to",
							"type": "address"
						},
						{
							"internalType": "uint256",
							"name": "amount",
							"type": "uint256"
						}
					],
					"name": "transfer",
					"outputs": [
						{
							"internalType": "bool",
							"name": "",
							"type": "bool"
						}
					],
					"stateMutability": "nonpayable",
					"type": "function"
				},
				{
					"inputs": [
						{
							"internalType": "address",
							"name": "from",
							"type": "address"
						},
						{
							"internalType": "address",
							"name": "to",
							"type": "address"
						},
						{
							"internalType": "uint256",
							"name": "amount",
							"type": "uint256"
						}
					],
					"name": "transferFrom",
					"outputs": [
						{
							"internalType": "bool",
							"name": "",
							"type": "bool"
						}
					],
					"stateMutability": "nonpayable",
					"type": "function"
				},
				{
					"inputs": [
						{
							"internalType": "address",
							"name": "newOwner",
							"type": "address"
						}
					],
					"name": "transferOwnership",
					"outputs": [],
					"stateMutability": "nonpayable",
					"type": "function"
				}
			],
			"devdoc": {
				"kind": "dev",
				"methods": {},
				"version": 1
			},
			"evm": {
				"assembly": "    /* \"Tokens/MintableBurnable.sol\":61:6279  contract MintableBurnableToken {... */\n  mstore(0x40, 0x80)\n    /* \"Tokens/MintableBurnable.sol\":1556:2078  constructor(... */\n  callvalue\n  dup1\n  iszero\n  tag_1\n  jumpi\n  revert(0x00, 0x00)\ntag_1:\n  pop\n  mload(0x40)\n  sub(codesize, bytecodeSize)\n  dup1\n  bytecodeSize\n  dup4\n  codecopy\n  dup2\n  dup2\n  add\n  0x40\n  mstore\n  dup2\n  add\n  swap1\n  tag_2\n  swap2\n  swap1\n  tag_3\n  jump\t// in\ntag_2:\n    /* \"Tokens/MintableBurnable.sol\":1743:1748  _name */\n  dup5\n    /* \"Tokens/MintableBurnable.sol\":1736:1740  name */\n  0x00\n    /* \"Tokens/MintableBurnable.sol\":1736:1748  name = _name */\n  swap1\n  dup2\n  tag_6\n  swap2\n  swap1\n  tag_7\n  jump\t// in\ntag_6:\n  pop\n    /* \"Tokens/MintableBurnable.sol\":1768:1775  _symbol */\n  dup4\n    /* \"Tokens/MintableBurnable.sol\":1759:1765  symbol */\n  0x01\n    /* \"Tokens/MintableBurnable.sol\":1759:1775  symbol = _symbol */\n  swap1\n  dup2\n  tag_8\n  swap2\n  swap1\n  tag_7\n  jump\t// in\ntag_8:\n  pop\n    /* \"Tokens/MintableBurnable.sol\":1797:1806  _decimals */\n  dup3\n    /* \"Tokens/MintableBurnable.sol\":1786:1794  decimals */\n  0x02\n  0x00\n    /* \"Tokens/MintableBurnable.sol\":1786:1806  decimals = _decimals */\n  0x0100\n  exp\n  dup2\n  sload\n  dup2\n  0xff\n  mul\n  not\n  and\n  swap1\n  dup4\n  0xff\n  and\n  mul\n  or\n  swap1\n  sstore\n  pop\n    /* \"Tokens/MintableBurnable.sol\":1846:1855  _decimals */\n  dup3\n    /* \"Tokens/MintableBurnable.sol\":1842:1844  10 */\n  0x0a\n    /* \"Tokens/MintableBurnable.sol\":1842:1855  10**_decimals */\n  tag_9\n  swap2\n  swap1\n  tag_10\n  jump\t// in\ntag_9:\n    /* \"Tokens/MintableBurnable.sol\":1829:1839  _maxSupply */\n  dup2\n    /* \"Tokens/MintableBurnable.sol\":1829:1855  _maxSupply * 10**_decimals */\n  tag_11\n  swap2\n  swap1\n  tag_12\n  jump\t// in\ntag_11:\n    /* \"Tokens/MintableBurnable.sol\":1817:1826  maxSupply */\n  0x04\n    /* \"Tokens/MintableBurnable.sol\":1817:1855  maxSupply = _maxSupply * 10**_decimals */\n  dup2\n  swap1\n  sstore\n  pop\n    /* \"Tokens/MintableBurnable.sol\":1884:1894  msg.sender */\n  caller\n    /* \"Tokens/MintableBurnable.sol\":1876:1881  owner */\n  0x07\n  0x00\n    /* \"Tokens/MintableBurnable.sol\":1876:1894  owner = msg.sender */\n  0x0100\n  exp\n  dup2\n  sload\n  dup2\n  0xffffffffffffffffffffffffffffffffffffffff\n  mul\n  not\n  and\n  swap1\n  dup4\n  0xffffffffffffffffffffffffffffffffffffffff\n  and\n  mul\n  or\n  swap1\n  sstore\n  pop\n    /* \"Tokens/MintableBurnable.sol\":1927:1931  true */\n  0x01\n    /* \"Tokens/MintableBurnable.sol\":1905:1912  minters */\n  0x08\n    /* \"Tokens/MintableBurnable.sol\":1905:1924  minters[msg.sender] */\n  0x00\n    /* \"Tokens/MintableBurnable.sol\":1913:1923  msg.sender */\n  caller\n    /* \"Tokens/MintableBurnable.sol\":1905:1924  minters[msg.sender] */\n  0xffffffffffffffffffffffffffffffffffffffff\n  and\n  0xffffffffffffffffffffffffffffffffffffffff\n  and\n  dup2\n  mstore\n  0x20\n  add\n  swap1\n  dup2\n  mstore\n  0x20\n  add\n  0x00\n  keccak256\n  0x00\n    /* \"Tokens/MintableBurnable.sol\":1905:1931  minters[msg.sender] = true */\n  0x0100\n  exp\n  dup2\n  sload\n  dup2\n  0xff\n  mul\n  not\n  and\n  swap1\n  dup4\n  iszero\n  iszero\n  mul\n  or\n  swap1\n  sstore\n  pop\n    /* \"Tokens/MintableBurnable.sol\":1964:1968  true */\n  0x01\n    /* \"Tokens/MintableBurnable.sol\":1942:1949  burners */\n  0x09\n    /* \"Tokens/MintableBurnable.sol\":1942:1961  burners[msg.sender] */\n  0x00\n    /* \"Tokens/MintableBurnable.sol\":1950:1960  msg.sender */\n  caller\n    /* \"Tokens/MintableBurnable.sol\":1942:1961  burners[msg.sender] */\n  0xffffffffffffffffffffffffffffffffffffffff\n  and\n  0xffffffffffffffffffffffffffffffffffffffff\n  and\n  dup2\n  mstore\n  0x20\n  add\n  swap1\n  dup2\n  mstore\n  0x20\n  add\n  0x00\n  keccak256\n  0x00\n    /* \"Tokens/MintableBurnable.sol\":1942:1968  burners[msg.sender] = true */\n  0x0100\n  exp\n  dup2\n  sload\n  dup2\n  0xff\n  mul\n  not\n  and\n  swap1\n  dup4\n  iszero\n  iszero\n  mul\n  or\n  swap1\n  sstore\n  pop\n    /* \"Tokens/MintableBurnable.sol\":2021:2070  _mint(msg.sender, _initialSupply * 10**_decimals) */\n  tag_13\n    /* \"Tokens/MintableBurnable.sol\":2027:2037  msg.sender */\n  caller\n    /* \"Tokens/MintableBurnable.sol\":2060:2069  _decimals */\n  dup5\n    /* \"Tokens/MintableBurnable.sol\":2056:2058  10 */\n  0x0a\n    /* \"Tokens/MintableBurnable.sol\":2056:2069  10**_decimals */\n  tag_14\n  swap2\n  swap1\n  tag_10\n  jump\t// in\ntag_14:\n    /* \"Tokens/MintableBurnable.sol\":2039:2053  _initialSupply */\n  dup5\n    /* \"Tokens/MintableBurnable.sol\":2039:2069  _initialSupply * 10**_decimals */\n  tag_15\n  swap2\n  swap1\n  tag_12\n  jump\t// in\ntag_15:\n    /* \"Tokens/MintableBurnable.sol\":2021:2026  _mint */\n  shl(0x20, tag_16)\n    /* \"Tokens/MintableBurnable.sol\":2021:2070  _mint(msg.sender, _initialSupply * 10**_decimals) */\n  0x20\n  shr\n  jump\t// in\ntag_13:\n    /* \"Tokens/MintableBurnable.sol\":1556:2078  constructor(... */\n  pop\n  pop\n  pop\n  pop\n  pop\n    /* \"Tokens/MintableBurnable.sol\":61:6279  contract MintableBurnableToken {... */\n  jump(tag_17)\n    /* \"Tokens/MintableBurnable.sol\":3081:3501  function _mint(address to, uint256 amount) internal {... */\ntag_16:\n    /* \"Tokens/MintableBurnable.sol\":3162:3163  0 */\n  0x00\n    /* \"Tokens/MintableBurnable.sol\":3148:3164  to == address(0) */\n  0xffffffffffffffffffffffffffffffffffffffff\n  and\n    /* \"Tokens/MintableBurnable.sol\":3148:3150  to */\n  dup3\n    /* \"Tokens/MintableBurnable.sol\":3148:3164  to == address(0) */\n  0xffffffffffffffffffffffffffffffffffffffff\n  and\n  sub\n    /* \"Tokens/MintableBurnable.sol\":3144:3186  if (to == address(0)) revert ZeroAddress() */\n  tag_19\n  jumpi\n    /* \"Tokens/MintableBurnable.sol\":3173:3186  ZeroAddress() */\n  mload(0x40)\n  0xd92e233d00000000000000000000000000000000000000000000000000000000\n  dup2\n  mstore\n  0x04\n  add\n  mload(0x40)\n  dup1\n  swap2\n  sub\n  swap1\n  revert\n    /* \"Tokens/MintableBurnable.sol\":3144:3186  if (to == address(0)) revert ZeroAddress() */\ntag_19:\n    /* \"Tokens/MintableBurnable.sol\":3207:3229  uint256 newTotalSupply */\n  0x00\n    /* \"Tokens/MintableBurnable.sol\":3246:3252  amount */\n  dup2\n    /* \"Tokens/MintableBurnable.sol\":3232:3243  totalSupply */\n  sload(0x03)\n    /* \"Tokens/MintableBurnable.sol\":3232:3252  totalSupply + amount */\n  tag_20\n  swap2\n  swap1\n  tag_21\n  jump\t// in\ntag_20:\n    /* \"Tokens/MintableBurnable.sol\":3207:3252  uint256 newTotalSupply = totalSupply + amount */\n  swap1\n  pop\n    /* \"Tokens/MintableBurnable.sol\":3284:3293  maxSupply */\n  sload(0x04)\n    /* \"Tokens/MintableBurnable.sol\":3267:3281  newTotalSupply */\n  dup2\n    /* \"Tokens/MintableBurnable.sol\":3267:3293  newTotalSupply > maxSupply */\n  gt\n    /* \"Tokens/MintableBurnable.sol\":3263:3320  if (newTotalSupply > maxSupply) revert ExceedsMaxSupply() */\n  iszero\n  tag_22\n  jumpi\n    /* \"Tokens/MintableBurnable.sol\":3302:3320  ExceedsMaxSupply() */\n  mload(0x40)\n  0xc30436e900000000000000000000000000000000000000000000000000000000\n  dup2\n  mstore\n  0x04\n  add\n  mload(0x40)\n  dup1\n  swap2\n  sub\n  swap1\n  revert\n    /* \"Tokens/MintableBurnable.sol\":3263:3320  if (newTotalSupply > maxSupply) revert ExceedsMaxSupply() */\ntag_22:\n    /* \"Tokens/MintableBurnable.sol\":3355:3369  newTotalSupply */\n  dup1\n    /* \"Tokens/MintableBurnable.sol\":3341:3352  totalSupply */\n  0x03\n    /* \"Tokens/MintableBurnable.sol\":3341:3369  totalSupply = newTotalSupply */\n  dup2\n  swap1\n  sstore\n  pop\n    /* \"Tokens/MintableBurnable.sol\":3397:3403  amount */\n  dup2\n    /* \"Tokens/MintableBurnable.sol\":3380:3389  _balances */\n  0x05\n    /* \"Tokens/MintableBurnable.sol\":3380:3393  _balances[to] */\n  0x00\n    /* \"Tokens/MintableBurnable.sol\":3390:3392  to */\n  dup6\n    /* \"Tokens/MintableBurnable.sol\":3380:3393  _balances[to] */\n  0xffffffffffffffffffffffffffffffffffffffff\n  and\n  0xffffffffffffffffffffffffffffffffffffffff\n  and\n  dup2\n  mstore\n  0x20\n  add\n  swap1\n  dup2\n  mstore\n  0x20\n  add\n  0x00\n  keccak256\n  0x00\n    /* \"Tokens/MintableBurnable.sol\":3380:3403  _balances[to] += amount */\n  dup3\n  dup3\n  sload\n  tag_23\n  swap2\n  swap1\n  tag_21\n  jump\t// in\ntag_23:\n  swap3\n  pop\n  pop\n  dup2\n  swap1\n  sstore\n  pop\n    /* \"Tokens/MintableBurnable.sol\":3434:3436  to */\n  dup3\n    /* \"Tokens/MintableBurnable.sol\":3429:3445  Mint(to, amount) */\n  0xffffffffffffffffffffffffffffffffffffffff\n  and\n  0x0f6798a560793a54c3bcfe86a93cde1e73087d944c0ea20544137d4121396885\n    /* \"Tokens/MintableBurnable.sol\":3438:3444  amount */\n  dup4\n    /* \"Tokens/MintableBurnable.sol\":3429:3445  Mint(to, amount) */\n  mload(0x40)\n  tag_24\n  swap2\n  swap1\n  tag_25\n  jump\t// in\ntag_24:\n  mload(0x40)\n  dup1\n  swap2\n  sub\n  swap1\n  log2\n    /* \"Tokens/MintableBurnable.sol\":3482:3484  to */\n  dup3\n    /* \"Tokens/MintableBurnable.sol\":3461:3493  Transfer(address(0), to, amount) */\n  0xffffffffffffffffffffffffffffffffffffffff\n  and\n    /* \"Tokens/MintableBurnable.sol\":3478:3479  0 */\n  0x00\n    /* \"Tokens/MintableBurnable.sol\":3461:3493  Transfer(address(0), to, amount) */\n  0xffffffffffffffffffffffffffffffffffffffff\n  and\n  0xddf252ad1be2c89b69c2b068fc378daa952ba7f163c4a11628f55a4df523b3ef\n    /* \"Tokens/MintableBurnable.sol\":3486:3492  amount */\n  dup5\n    /* \"Tokens/MintableBurnable.sol\":3461:3493  Transfer(address(0), to, amount) */\n  mload(0x40)\n  tag_26\n  swap2\n  swap1\n  tag_25\n  jump\t// in\ntag_26:\n  mload(0x40)\n  dup1\n  swap2\n  sub\n  swap1\n  log3\n    /* \"Tokens/MintableBurnable.sol\":3133:3501  {... */\n  pop\n    /* \"Tokens/MintableBurnable.sol\":3081:3501  function _mint(address to, uint256 amount) internal {... */\n  pop\n  pop\n  jump\t// out\n    /* \"#utility.yul\":7:82   */\ntag_27:\n    /* \"#utility.yul\":40:46   */\n  0x00\n    /* \"#utility.yul\":73:75   */\n  0x40\n    /* \"#utility.yul\":67:76   */\n  mload\n    /* \"#utility.yul\":57:76   */\n  swap1\n  pop\n    /* \"#utility.yul\":7:82   */\n  swap1\n  jump\t// out\n    /* \"#utility.yul\":88:205   */\ntag_28:\n    /* \"#utility.yul\":197:198   */\n  0x00\n    /* \"#utility.yul\":194:195   */\n  0x00\n    /* \"#utility.yul\":187:199   */\n  revert\n    /* \"#utility.yul\":211:328   */\ntag_29:\n    /* \"#utility.yul\":320:321   */\n  0x00\n    /* \"#utility.yul\":317:318   */\n  0x00\n    /* \"#utility.yul\":310:322   */\n  revert\n    /* \"#utility.yul\":334:451   */\ntag_30:\n    /* \"#utility.yul\":443:444   */\n  0x00\n    /* \"#utility.yul\":440:441   */\n  0x00\n    /* \"#utility.yul\":433:445   */\n  revert\n    /* \"#utility.yul\":457:574   */\ntag_31:\n    /* \"#utility.yul\":566:567   */\n  0x00\n    /* \"#utility.yul\":563:564   */\n  0x00\n    /* \"#utility.yul\":556:568   */\n  revert\n    /* \"#utility.yul\":580:682   */\ntag_32:\n    /* \"#utility.yul\":621:627   */\n  0x00\n    /* \"#utility.yul\":672:674   */\n  0x1f\n    /* \"#utility.yul\":668:675   */\n  not\n    /* \"#utility.yul\":663:665   */\n  0x1f\n    /* \"#utility.yul\":656:661   */\n  dup4\n    /* \"#utility.yul\":652:666   */\n  add\n    /* \"#utility.yul\":648:676   */\n  and\n    /* \"#utility.yul\":638:676   */\n  swap1\n  pop\n    /* \"#utility.yul\":580:682   */\n  swap2\n  swap1\n  pop\n  jump\t// out\n    /* \"#utility.yul\":688:868   */\ntag_33:\n    /* \"#utility.yul\":736:813   */\n  0x4e487b7100000000000000000000000000000000000000000000000000000000\n    /* \"#utility.yul\":733:734   */\n  0x00\n    /* \"#utility.yul\":726:814   */\n  mstore\n    /* \"#utility.yul\":833:837   */\n  0x41\n    /* \"#utility.yul\":830:831   */\n  0x04\n    /* \"#utility.yul\":823:838   */\n  mstore\n    /* \"#utility.yul\":857:861   */\n  0x24\n    /* \"#utility.yul\":854:855   */\n  0x00\n    /* \"#utility.yul\":847:862   */\n  revert\n    /* \"#utility.yul\":874:1155   */\ntag_34:\n    /* \"#utility.yul\":957:984   */\n  tag_78\n    /* \"#utility.yul\":979:983   */\n  dup3\n    /* \"#utility.yul\":957:984   */\n  tag_32\n  jump\t// in\ntag_78:\n    /* \"#utility.yul\":949:955   */\n  dup2\n    /* \"#utility.yul\":945:985   */\n  add\n    /* \"#utility.yul\":1087:1093   */\n  dup2\n    /* \"#utility.yul\":1075:1085   */\n  dup2\n    /* \"#utility.yul\":1072:1094   */\n  lt\n    /* \"#utility.yul\":1051:1069   */\n  0xffffffffffffffff\n    /* \"#utility.yul\":1039:1049   */\n  dup3\n    /* \"#utility.yul\":1036:1070   */\n  gt\n    /* \"#utility.yul\":1033:1095   */\n  or\n    /* \"#utility.yul\":1030:1118   */\n  iszero\n  tag_79\n  jumpi\n    /* \"#utility.yul\":1098:1116   */\n  tag_80\n  tag_33\n  jump\t// in\ntag_80:\n    /* \"#utility.yul\":1030:1118   */\ntag_79:\n    /* \"#utility.yul\":1138:1148   */\n  dup1\n    /* \"#utility.yul\":1134:1136   */\n  0x40\n    /* \"#utility.yul\":1127:1149   */\n  mstore\n    /* \"#utility.yul\":917:1155   */\n  pop\n    /* \"#utility.yul\":874:1155   */\n  pop\n  pop\n  jump\t// out\n    /* \"#utility.yul\":1161:1290   */\ntag_35:\n    /* \"#utility.yul\":1195:1201   */\n  0x00\n    /* \"#utility.yul\":1222:1242   */\n  tag_82\n  tag_27\n  jump\t// in\ntag_82:\n    /* \"#utility.yul\":1212:1242   */\n  swap1\n  pop\n    /* \"#utility.yul\":1251:1284   */\n  tag_83\n    /* \"#utility.yul\":1279:1283   */\n  dup3\n    /* \"#utility.yul\":1271:1277   */\n  dup3\n    /* \"#utility.yul\":1251:1284   */\n  tag_34\n  jump\t// in\ntag_83:\n    /* \"#utility.yul\":1161:1290   */\n  swap2\n  swap1\n  pop\n  jump\t// out\n    /* \"#utility.yul\":1296:1604   */\ntag_36:\n    /* \"#utility.yul\":1358:1362   */\n  0x00\n    /* \"#utility.yul\":1448:1466   */\n  0xffffffffffffffff\n    /* \"#utility.yul\":1440:1446   */\n  dup3\n    /* \"#utility.yul\":1437:1467   */\n  gt\n    /* \"#utility.yul\":1434:1490   */\n  iszero\n  tag_85\n  jumpi\n    /* \"#utility.yul\":1470:1488   */\n  tag_86\n  tag_33\n  jump\t// in\ntag_86:\n    /* \"#utility.yul\":1434:1490   */\ntag_85:\n    /* \"#utility.yul\":1508:1537   */\n  tag_87\n    /* \"#utility.yul\":1530:1536   */\n  dup3\n    /* \"#utility.yul\":1508:1537   */\n  tag_32\n  jump\t// in\ntag_87:\n    /* \"#utility.yul\":1500:1537   */\n  swap1\n  pop\n    /* \"#utility.yul\":1592:1596   */\n  0x20\n    /* \"#utility.yul\":1586:1590   */\n  dup2\n    /* \"#utility.yul\":1582:1597   */\n  add\n    /* \"#utility.yul\":1574:1597   */\n  swap1\n  pop\n    /* \"#utility.yul\":1296:1604   */\n  swap2\n  swap1\n  pop\n  jump\t// out\n    /* \"#utility.yul\":1610:1749   */\ntag_37:\n    /* \"#utility.yul\":1699:1705   */\n  dup3\n    /* \"#utility.yul\":1694:1697   */\n  dup2\n    /* \"#utility.yul\":1689:1692   */\n  dup4\n    /* \"#utility.yul\":1683:1706   */\n  mcopy\n    /* \"#utility.yul\":1740:1741   */\n  0x00\n    /* \"#utility.yul\":1731:1737   */\n  dup4\n    /* \"#utility.yul\":1726:1729   */\n  dup4\n    /* \"#utility.yul\":1722:1738   */\n  add\n    /* \"#utility.yul\":1715:1742   */\n  mstore\n    /* \"#utility.yul\":1610:1749   */\n  pop\n  pop\n  pop\n  jump\t// out\n    /* \"#utility.yul\":1755:2189   */\ntag_38:\n    /* \"#utility.yul\":1844:1849   */\n  0x00\n    /* \"#utility.yul\":1869:1935   */\n  tag_90\n    /* \"#utility.yul\":1885:1934   */\n  tag_91\n    /* \"#utility.yul\":1927:1933   */\n  dup5\n    /* \"#utility.yul\":1885:1934   */\n  tag_36\n  jump\t// in\ntag_91:\n    /* \"#utility.yul\":1869:1935   */\n  tag_35\n  jump\t// in\ntag_90:\n    /* \"#utility.yul\":1860:1935   */\n  swap1\n  pop\n    /* \"#utility.yul\":1958:1964   */\n  dup3\n    /* \"#utility.yul\":1951:1956   */\n  dup2\n    /* \"#utility.yul\":1944:1965   */\n  mstore\n    /* \"#utility.yul\":1996:2000   */\n  0x20\n    /* \"#utility.yul\":1989:1994   */\n  dup2\n    /* \"#utility.yul\":1985:2001   */\n  add\n    /* \"#utility.yul\":2034:2037   */\n  dup5\n    /* \"#utility.yul\":2025:2031   */\n  dup5\n    /* \"#utility.yul\":2020:2023   */\n  dup5\n    /* \"#utility.yul\":2016:2032   */\n  add\n    /* \"#utility.yul\":2013:2038   */\n  gt\n    /* \"#utility.yul\":2010:2122   */\n  iszero\n  tag_92\n  jumpi\n    /* \"#utility.yul\":2041:2120   */\n  tag_93\n  tag_31\n  jump\t// in\ntag_93:\n    /* \"#utility.yul\":2010:2122   */\ntag_92:\n    /* \"#utility.yul\":2131:2183   */\n  tag_94\n    /* \"#utility.yul\":2176:2182   */\n  dup5\n    /* \"#utility.yul\":2171:2174   */\n  dup3\n    /* \"#utility.yul\":2166:2169   */\n  dup6\n    /* \"#utility.yul\":2131:2183   */\n  tag_37\n  jump\t// in\ntag_94:\n    /* \"#utility.yul\":1850:2189   */\n  pop\n    /* \"#utility.yul\":1755:2189   */\n  swap4\n  swap3\n  pop\n  pop\n  pop\n  jump\t// out\n    /* \"#utility.yul\":2209:2564   */\ntag_39:\n    /* \"#utility.yul\":2276:2281   */\n  0x00\n    /* \"#utility.yul\":2325:2328   */\n  dup3\n    /* \"#utility.yul\":2318:2322   */\n  0x1f\n    /* \"#utility.yul\":2310:2316   */\n  dup4\n    /* \"#utility.yul\":2306:2323   */\n  add\n    /* \"#utility.yul\":2302:2329   */\n  slt\n    /* \"#utility.yul\":2292:2414   */\n  tag_96\n  jumpi\n    /* \"#utility.yul\":2333:2412   */\n  tag_97\n  tag_30\n  jump\t// in\ntag_97:\n    /* \"#utility.yul\":2292:2414   */\ntag_96:\n    /* \"#utility.yul\":2443:2449   */\n  dup2\n    /* \"#utility.yul\":2437:2450   */\n  mload\n    /* \"#utility.yul\":2468:2558   */\n  tag_98\n    /* \"#utility.yul\":2554:2557   */\n  dup5\n    /* \"#utility.yul\":2546:2552   */\n  dup3\n    /* \"#utility.yul\":2539:2543   */\n  0x20\n    /* \"#utility.yul\":2531:2537   */\n  dup7\n    /* \"#utility.yul\":2527:2544   */\n  add\n    /* \"#utility.yul\":2468:2558   */\n  tag_38\n  jump\t// in\ntag_98:\n    /* \"#utility.yul\":2459:2558   */\n  swap2\n  pop\n    /* \"#utility.yul\":2282:2564   */\n  pop\n    /* \"#utility.yul\":2209:2564   */\n  swap3\n  swap2\n  pop\n  pop\n  jump\t// out\n    /* \"#utility.yul\":2570:2656   */\ntag_40:\n    /* \"#utility.yul\":2605:2612   */\n  0x00\n    /* \"#utility.yul\":2645:2649   */\n  0xff\n    /* \"#utility.yul\":2638:2643   */\n  dup3\n    /* \"#utility.yul\":2634:2650   */\n  and\n    /* \"#utility.yul\":2623:2650   */\n  swap1\n  pop\n    /* \"#utility.yul\":2570:2656   */\n  swap2\n  swap1\n  pop\n  jump\t// out\n    /* \"#utility.yul\":2662:2780   */\ntag_41:\n    /* \"#utility.yul\":2733:2755   */\n  tag_101\n    /* \"#utility.yul\":2749:2754   */\n  dup2\n    /* \"#utility.yul\":2733:2755   */\n  tag_40\n  jump\t// in\ntag_101:\n    /* \"#utility.yul\":2726:2731   */\n  dup2\n    /* \"#utility.yul\":2723:2756   */\n  eq\n    /* \"#utility.yul\":2713:2774   */\n  tag_102\n  jumpi\n    /* \"#utility.yul\":2770:2771   */\n  0x00\n    /* \"#utility.yul\":2767:2768   */\n  0x00\n    /* \"#utility.yul\":2760:2772   */\n  revert\n    /* \"#utility.yul\":2713:2774   */\ntag_102:\n    /* \"#utility.yul\":2662:2780   */\n  pop\n  jump\t// out\n    /* \"#utility.yul\":2786:2925   */\ntag_42:\n    /* \"#utility.yul\":2841:2846   */\n  0x00\n    /* \"#utility.yul\":2872:2878   */\n  dup2\n    /* \"#utility.yul\":2866:2879   */\n  mload\n    /* \"#utility.yul\":2857:2879   */\n  swap1\n  pop\n    /* \"#utility.yul\":2888:2919   */\n  tag_104\n    /* \"#utility.yul\":2913:2918   */\n  dup2\n    /* \"#utility.yul\":2888:2919   */\n  tag_41\n  jump\t// in\ntag_104:\n    /* \"#utility.yul\":2786:2925   */\n  swap3\n  swap2\n  pop\n  pop\n  jump\t// out\n    /* \"#utility.yul\":2931:3008   */\ntag_43:\n    /* \"#utility.yul\":2968:2975   */\n  0x00\n    /* \"#utility.yul\":2997:3002   */\n  dup2\n    /* \"#utility.yul\":2986:3002   */\n  swap1\n  pop\n    /* \"#utility.yul\":2931:3008   */\n  swap2\n  swap1\n  pop\n  jump\t// out\n    /* \"#utility.yul\":3014:3136   */\ntag_44:\n    /* \"#utility.yul\":3087:3111   */\n  tag_107\n    /* \"#utility.yul\":3105:3110   */\n  dup2\n    /* \"#utility.yul\":3087:3111   */\n  tag_43\n  jump\t// in\ntag_107:\n    /* \"#utility.yul\":3080:3085   */\n  dup2\n    /* \"#utility.yul\":3077:3112   */\n  eq\n    /* \"#utility.yul\":3067:3130   */\n  tag_108\n  jumpi\n    /* \"#utility.yul\":3126:3127   */\n  0x00\n    /* \"#utility.yul\":3123:3124   */\n  0x00\n    /* \"#utility.yul\":3116:3128   */\n  revert\n    /* \"#utility.yul\":3067:3130   */\ntag_108:\n    /* \"#utility.yul\":3014:3136   */\n  pop\n  jump\t// out\n    /* \"#utility.yul\":3142:3285   */\ntag_45:\n    /* \"#utility.yul\":3199:3204   */\n  0x00\n    /* \"#utility.yul\":3230:3236   */\n  dup2\n    /* \"#utility.yul\":3224:3237   */\n  mload\n    /* \"#utility.yul\":3215:3237   */\n  swap1\n  pop\n    /* \"#utility.yul\":3246:3279   */\n  tag_110\n    /* \"#utility.yul\":3273:3278   */\n  dup2\n    /* \"#utility.yul\":3246:3279   */\n  tag_44\n  jump\t// in\ntag_110:\n    /* \"#utility.yul\":3142:3285   */\n  swap3\n  swap2\n  pop\n  pop\n  jump\t// out\n    /* \"#utility.yul\":3291:4610   */\ntag_3:\n    /* \"#utility.yul\":3415:3421   */\n  0x00\n    /* \"#utility.yul\":3423:3429   */\n  0x00\n    /* \"#utility.yul\":3431:3437   */\n  0x00\n    /* \"#utility.yul\":3439:3445   */\n  0x00\n    /* \"#utility.yul\":3447:3453   */\n  0x00\n    /* \"#utility.yul\":3496:3499   */\n  0xa0\n    /* \"#utility.yul\":3484:3493   */\n  dup7\n    /* \"#utility.yul\":3475:3482   */\n  dup9\n    /* \"#utility.yul\":3471:3494   */\n  sub\n    /* \"#utility.yul\":3467:3500   */\n  slt\n    /* \"#utility.yul\":3464:3584   */\n  iszero\n  tag_112\n  jumpi\n    /* \"#utility.yul\":3503:3582   */\n  tag_113\n  tag_28\n  jump\t// in\ntag_113:\n    /* \"#utility.yul\":3464:3584   */\ntag_112:\n    /* \"#utility.yul\":3644:3645   */\n  0x00\n    /* \"#utility.yul\":3633:3642   */\n  dup7\n    /* \"#utility.yul\":3629:3646   */\n  add\n    /* \"#utility.yul\":3623:3647   */\n  mload\n    /* \"#utility.yul\":3674:3692   */\n  0xffffffffffffffff\n    /* \"#utility.yul\":3666:3672   */\n  dup2\n    /* \"#utility.yul\":3663:3693   */\n  gt\n    /* \"#utility.yul\":3660:3777   */\n  iszero\n  tag_114\n  jumpi\n    /* \"#utility.yul\":3696:3775   */\n  tag_115\n  tag_29\n  jump\t// in\ntag_115:\n    /* \"#utility.yul\":3660:3777   */\ntag_114:\n    /* \"#utility.yul\":3801:3875   */\n  tag_116\n    /* \"#utility.yul\":3867:3874   */\n  dup9\n    /* \"#utility.yul\":3858:3864   */\n  dup3\n    /* \"#utility.yul\":3847:3856   */\n  dup10\n    /* \"#utility.yul\":3843:3865   */\n  add\n    /* \"#utility.yul\":3801:3875   */\n  tag_39\n  jump\t// in\ntag_116:\n    /* \"#utility.yul\":3791:3875   */\n  swap6\n  pop\n    /* \"#utility.yul\":3594:3885   */\n  pop\n    /* \"#utility.yul\":3945:3947   */\n  0x20\n    /* \"#utility.yul\":3934:3943   */\n  dup7\n    /* \"#utility.yul\":3930:3948   */\n  add\n    /* \"#utility.yul\":3924:3949   */\n  mload\n    /* \"#utility.yul\":3976:3994   */\n  0xffffffffffffffff\n    /* \"#utility.yul\":3968:3974   */\n  dup2\n    /* \"#utility.yul\":3965:3995   */\n  gt\n    /* \"#utility.yul\":3962:4079   */\n  iszero\n  tag_117\n  jumpi\n    /* \"#utility.yul\":3998:4077   */\n  tag_118\n  tag_29\n  jump\t// in\ntag_118:\n    /* \"#utility.yul\":3962:4079   */\ntag_117:\n    /* \"#utility.yul\":4103:4177   */\n  tag_119\n    /* \"#utility.yul\":4169:4176   */\n  dup9\n    /* \"#utility.yul\":4160:4166   */\n  dup3\n    /* \"#utility.yul\":4149:4158   */\n  dup10\n    /* \"#utility.yul\":4145:4167   */\n  add\n    /* \"#utility.yul\":4103:4177   */\n  tag_39\n  jump\t// in\ntag_119:\n    /* \"#utility.yul\":4093:4177   */\n  swap5\n  pop\n    /* \"#utility.yul\":3895:4187   */\n  pop\n    /* \"#utility.yul\":4226:4228   */\n  0x40\n    /* \"#utility.yul\":4252:4314   */\n  tag_120\n    /* \"#utility.yul\":4306:4313   */\n  dup9\n    /* \"#utility.yul\":4297:4303   */\n  dup3\n    /* \"#utility.yul\":4286:4295   */\n  dup10\n    /* \"#utility.yul\":4282:4304   */\n  add\n    /* \"#utility.yul\":4252:4314   */\n  tag_42\n  jump\t// in\ntag_120:\n    /* \"#utility.yul\":4242:4314   */\n  swap4\n  pop\n    /* \"#utility.yul\":4197:4324   */\n  pop\n    /* \"#utility.yul\":4363:4365   */\n  0x60\n    /* \"#utility.yul\":4389:4453   */\n  tag_121\n    /* \"#utility.yul\":4445:4452   */\n  dup9\n    /* \"#utility.yul\":4436:4442   */\n  dup3\n    /* \"#utility.yul\":4425:4434   */\n  dup10\n    /* \"#utility.yul\":4421:4443   */\n  add\n    /* \"#utility.yul\":4389:4453   */\n  tag_45\n  jump\t// in\ntag_121:\n    /* \"#utility.yul\":4379:4453   */\n  swap3\n  pop\n    /* \"#utility.yul\":4334:4463   */\n  pop\n    /* \"#utility.yul\":4502:4505   */\n  0x80\n    /* \"#utility.yul\":4529:4593   */\n  tag_122\n    /* \"#utility.yul\":4585:4592   */\n  dup9\n    /* \"#utility.yul\":4576:4582   */\n  dup3\n    /* \"#utility.yul\":4565:4574   */\n  dup10\n    /* \"#utility.yul\":4561:4583   */\n  add\n    /* \"#utility.yul\":4529:4593   */\n  tag_45\n  jump\t// in\ntag_122:\n    /* \"#utility.yul\":4519:4593   */\n  swap2\n  pop\n    /* \"#utility.yul\":4473:4603   */\n  pop\n    /* \"#utility.yul\":3291:4610   */\n  swap3\n  swap6\n  pop\n  swap3\n  swap6\n  swap1\n  swap4\n  pop\n  jump\t// out\n    /* \"#utility.yul\":4616:4715   */\ntag_46:\n    /* \"#utility.yul\":4668:4674   */\n  0x00\n    /* \"#utility.yul\":4702:4707   */\n  dup2\n    /* \"#utility.yul\":4696:4708   */\n  mload\n    /* \"#utility.yul\":4686:4708   */\n  swap1\n  pop\n    /* \"#utility.yul\":4616:4715   */\n  swap2\n  swap1\n  pop\n  jump\t// out\n    /* \"#utility.yul\":4721:4901   */\ntag_47:\n    /* \"#utility.yul\":4769:4846   */\n  0x4e487b7100000000000000000000000000000000000000000000000000000000\n    /* \"#utility.yul\":4766:4767   */\n  0x00\n    /* \"#utility.yul\":4759:4847   */\n  mstore\n    /* \"#utility.yul\":4866:4870   */\n  0x22\n    /* \"#utility.yul\":4863:4864   */\n  0x04\n    /* \"#utility.yul\":4856:4871   */\n  mstore\n    /* \"#utility.yul\":4890:4894   */\n  0x24\n    /* \"#utility.yul\":4887:4888   */\n  0x00\n    /* \"#utility.yul\":4880:4895   */\n  revert\n    /* \"#utility.yul\":4907:5227   */\ntag_48:\n    /* \"#utility.yul\":4951:4957   */\n  0x00\n    /* \"#utility.yul\":4988:4989   */\n  0x02\n    /* \"#utility.yul\":4982:4986   */\n  dup3\n    /* \"#utility.yul\":4978:4990   */\n  div\n    /* \"#utility.yul\":4968:4990   */\n  swap1\n  pop\n    /* \"#utility.yul\":5035:5036   */\n  0x01\n    /* \"#utility.yul\":5029:5033   */\n  dup3\n    /* \"#utility.yul\":5025:5037   */\n  and\n    /* \"#utility.yul\":5056:5074   */\n  dup1\n    /* \"#utility.yul\":5046:5127   */\n  tag_126\n  jumpi\n    /* \"#utility.yul\":5112:5116   */\n  0x7f\n    /* \"#utility.yul\":5104:5110   */\n  dup3\n    /* \"#utility.yul\":5100:5117   */\n  and\n    /* \"#utility.yul\":5090:5117   */\n  swap2\n  pop\n    /* \"#utility.yul\":5046:5127   */\ntag_126:\n    /* \"#utility.yul\":5174:5176   */\n  0x20\n    /* \"#utility.yul\":5166:5172   */\n  dup3\n    /* \"#utility.yul\":5163:5177   */\n  lt\n    /* \"#utility.yul\":5143:5161   */\n  dup2\n    /* \"#utility.yul\":5140:5178   */\n  sub\n    /* \"#utility.yul\":5137:5221   */\n  tag_127\n  jumpi\n    /* \"#utility.yul\":5193:5211   */\n  tag_128\n  tag_47\n  jump\t// in\ntag_128:\n    /* \"#utility.yul\":5137:5221   */\ntag_127:\n    /* \"#utility.yul\":4958:5227   */\n  pop\n    /* \"#utility.yul\":4907:5227   */\n  swap2\n  swap1\n  pop\n  jump\t// out\n    /* \"#utility.yul\":5233:5374   */\ntag_49:\n    /* \"#utility.yul\":5282:5286   */\n  0x00\n    /* \"#utility.yul\":5305:5308   */\n  dup2\n    /* \"#utility.yul\":5297:5308   */\n  swap1\n  pop\n    /* \"#utility.yul\":5328:5331   */\n  dup2\n    /* \"#utility.yul\":5325:5326   */\n  0x00\n    /* \"#utility.yul\":5318:5332   */\n  mstore\n    /* \"#utility.yul\":5362:5366   */\n  0x20\n    /* \"#utility.yul\":5359:5360   */\n  0x00\n    /* \"#utility.yul\":5349:5367   */\n  keccak256\n    /* \"#utility.yul\":5341:5367   */\n  swap1\n  pop\n    /* \"#utility.yul\":5233:5374   */\n  swap2\n  swap1\n  pop\n  jump\t// out\n    /* \"#utility.yul\":5380:5473   */\ntag_50:\n    /* \"#utility.yul\":5417:5423   */\n  0x00\n    /* \"#utility.yul\":5464:5466   */\n  0x20\n    /* \"#utility.yul\":5459:5461   */\n  0x1f\n    /* \"#utility.yul\":5452:5457   */\n  dup4\n    /* \"#utility.yul\":5448:5462   */\n  add\n    /* \"#utility.yul\":5444:5467   */\n  div\n    /* \"#utility.yul\":5434:5467   */\n  swap1\n  pop\n    /* \"#utility.yul\":5380:5473   */\n  swap2\n  swap1\n  pop\n  jump\t// out\n    /* \"#utility.yul\":5479:5586   */\ntag_51:\n    /* \"#utility.yul\":5523:5531   */\n  0x00\n    /* \"#utility.yul\":5573:5578   */\n  dup3\n    /* \"#utility.yul\":5567:5571   */\n  dup3\n    /* \"#utility.yul\":5563:5579   */\n  shl\n    /* \"#utility.yul\":5542:5579   */\n  swap1\n  pop\n    /* \"#utility.yul\":5479:5586   */\n  swap3\n  swap2\n  pop\n  pop\n  jump\t// out\n    /* \"#utility.yul\":5592:5985   */\ntag_52:\n    /* \"#utility.yul\":5661:5667   */\n  0x00\n    /* \"#utility.yul\":5711:5712   */\n  0x08\n    /* \"#utility.yul\":5699:5709   */\n  dup4\n    /* \"#utility.yul\":5695:5713   */\n  mul\n    /* \"#utility.yul\":5734:5831   */\n  tag_133\n    /* \"#utility.yul\":5764:5830   */\n  0xffffffffffffffffffffffffffffffffffffffffffffffffffffffffffffffff\n    /* \"#utility.yul\":5753:5762   */\n  dup3\n    /* \"#utility.yul\":5734:5831   */\n  tag_51\n  jump\t// in\ntag_133:\n    /* \"#utility.yul\":5852:5891   */\n  tag_134\n    /* \"#utility.yul\":5882:5890   */\n  dup7\n    /* \"#utility.yul\":5871:5880   */\n  dup4\n    /* \"#utility.yul\":5852:5891   */\n  tag_51\n  jump\t// in\ntag_134:\n    /* \"#utility.yul\":5840:5891   */\n  swap6\n  pop\n    /* \"#utility.yul\":5924:5928   */\n  dup1\n    /* \"#utility.yul\":5920:5929   */\n  not\n    /* \"#utility.yul\":5913:5918   */\n  dup5\n    /* \"#utility.yul\":5909:5930   */\n  and\n    /* \"#utility.yul\":5900:5930   */\n  swap4\n  pop\n    /* \"#utility.yul\":5973:5977   */\n  dup1\n    /* \"#utility.yul\":5963:5971   */\n  dup7\n    /* \"#utility.yul\":5959:5978   */\n  and\n    /* \"#utility.yul\":5952:5957   */\n  dup5\n    /* \"#utility.yul\":5949:5979   */\n  or\n    /* \"#utility.yul\":5939:5979   */\n  swap3\n  pop\n    /* \"#utility.yul\":5668:5985   */\n  pop\n  pop\n    /* \"#utility.yul\":5592:5985   */\n  swap4\n  swap3\n  pop\n  pop\n  pop\n  jump\t// out\n    /* \"#utility.yul\":5991:6051   */\ntag_53:\n    /* \"#utility.yul\":6019:6022   */\n  0x00\n    /* \"#utility.yul\":6040:6045   */\n  dup2\n    /* \"#utility.yul\":6033:6045   */\n  swap1\n  pop\n    /* \"#utility.yul\":5991:6051   */\n  swap2\n  swap1\n  pop\n  jump\t// out\n    /* \"#utility.yul\":6057:6199   */\ntag_54:\n    /* \"#utility.yul\":6107:6116   */\n  0x00\n    /* \"#utility.yul\":6140:6193   */\n  tag_137\n    /* \"#utility.yul\":6158:6192   */\n  tag_138\n    /* \"#utility.yul\":6167:6191   */\n  tag_139\n    /* \"#utility.yul\":6185:6190   */\n  dup5\n    /* \"#utility.yul\":6167:6191   */\n  tag_43\n  jump\t// in\ntag_139:\n    /* \"#utility.yul\":6158:6192   */\n  tag_53\n  jump\t// in\ntag_138:\n    /* \"#utility.yul\":6140:6193   */\n  tag_43\n  jump\t// in\ntag_137:\n    /* \"#utility.yul\":6127:6193   */\n  swap1\n  pop\n    /* \"#utility.yul\":6057:6199   */\n  swap2\n  swap1\n  pop\n  jump\t// out\n    /* \"#utility.yul\":6205:6280   */\ntag_55:\n    /* \"#utility.yul\":6248:6251   */\n  0x00\n    /* \"#utility.yul\":6269:6274   */\n  dup2\n    /* \"#utility.yul\":6262:6274   */\n  swap1\n  pop\n    /* \"#utility.yul\":6205:6280   */\n  swap2\n  swap1\n  pop\n  jump\t// out\n    /* \"#utility.yul\":6286:6555   */\ntag_56:\n    /* \"#utility.yul\":6396:6435   */\n  tag_142\n    /* \"#utility.yul\":6427:6434   */\n  dup4\n    /* \"#utility.yul\":6396:6435   */\n  tag_54\n  jump\t// in\ntag_142:\n    /* \"#utility.yul\":6457:6548   */\n  tag_143\n    /* \"#utility.yul\":6506:6547   */\n  tag_144\n    /* \"#utility.yul\":6530:6546   */\n  dup3\n    /* \"#utility.yul\":6506:6547   */\n  tag_55\n  jump\t// in\ntag_144:\n    /* \"#utility.yul\":6498:6504   */\n  dup5\n    /* \"#utility.yul\":6491:6495   */\n  dup5\n    /* \"#utility.yul\":6485:6496   */\n  sload\n    /* \"#utility.yul\":6457:6548   */\n  tag_52\n  jump\t// in\ntag_143:\n    /* \"#utility.yul\":6451:6455   */\n  dup3\n    /* \"#utility.yul\":6444:6549   */\n  sstore\n    /* \"#utility.yul\":6362:6555   */\n  pop\n    /* \"#utility.yul\":6286:6555   */\n  pop\n  pop\n  pop\n  jump\t// out\n    /* \"#utility.yul\":6561:6634   */\ntag_57:\n    /* \"#utility.yul\":6606:6609   */\n  0x00\n    /* \"#utility.yul\":6627:6628   */\n  0x00\n    /* \"#utility.yul\":6620:6628   */\n  swap1\n  pop\n    /* \"#utility.yul\":6561:6634   */\n  swap1\n  jump\t// out\n    /* \"#utility.yul\":6640:6829   */\ntag_58:\n    /* \"#utility.yul\":6717:6749   */\n  tag_147\n  tag_57\n  jump\t// in\ntag_147:\n    /* \"#utility.yul\":6758:6823   */\n  tag_148\n    /* \"#utility.yul\":6816:6822   */\n  dup2\n    /* \"#utility.yul\":6808:6814   */\n  dup5\n    /* \"#utility.yul\":6802:6806   */\n  dup5\n    /* \"#utility.yul\":6758:6823   */\n  tag_56\n  jump\t// in\ntag_148:\n    /* \"#utility.yul\":6693:6829   */\n  pop\n    /* \"#utility.yul\":6640:6829   */\n  pop\n  pop\n  jump\t// out\n    /* \"#utility.yul\":6835:7021   */\ntag_59:\n    /* \"#utility.yul\":6895:7015   */\ntag_150:\n    /* \"#utility.yul\":6912:6915   */\n  dup2\n    /* \"#utility.yul\":6905:6910   */\n  dup2\n    /* \"#utility.yul\":6902:6916   */\n  lt\n    /* \"#utility.yul\":6895:7015   */\n  iszero\n  tag_152\n  jumpi\n    /* \"#utility.yul\":6966:7005   */\n  tag_153\n    /* \"#utility.yul\":7003:7004   */\n  0x00\n    /* \"#utility.yul\":6996:7001   */\n  dup3\n    /* \"#utility.yul\":6966:7005   */\n  tag_58\n  jump\t// in\ntag_153:\n    /* \"#utility.yul\":6939:6940   */\n  0x01\n    /* \"#utility.yul\":6932:6937   */\n  dup2\n    /* \"#utility.yul\":6928:6941   */\n  add\n    /* \"#utility.yul\":6919:6941   */\n  swap1\n  pop\n    /* \"#utility.yul\":6895:7015   */\n  jump(tag_150)\ntag_152:\n    /* \"#utility.yul\":6835:7021   */\n  pop\n  pop\n  jump\t// out\n    /* \"#utility.yul\":7027:7570   */\ntag_60:\n    /* \"#utility.yul\":7128:7130   */\n  0x1f\n    /* \"#utility.yul\":7123:7126   */\n  dup3\n    /* \"#utility.yul\":7120:7131   */\n  gt\n    /* \"#utility.yul\":7117:7563   */\n  iszero\n  tag_155\n  jumpi\n    /* \"#utility.yul\":7162:7200   */\n  tag_156\n    /* \"#utility.yul\":7194:7199   */\n  dup2\n    /* \"#utility.yul\":7162:7200   */\n  tag_49\n  jump\t// in\ntag_156:\n    /* \"#utility.yul\":7246:7275   */\n  tag_157\n    /* \"#utility.yul\":7264:7274   */\n  dup5\n    /* \"#utility.yul\":7246:7275   */\n  tag_50\n  jump\t// in\ntag_157:\n    /* \"#utility.yul\":7236:7244   */\n  dup2\n    /* \"#utility.yul\":7232:7276   */\n  add\n    /* \"#utility.yul\":7429:7431   */\n  0x20\n    /* \"#utility.yul\":7417:7427   */\n  dup6\n    /* \"#utility.yul\":7414:7432   */\n  lt\n    /* \"#utility.yul\":7411:7460   */\n  iszero\n  tag_158\n  jumpi\n    /* \"#utility.yul\":7450:7458   */\n  dup2\n    /* \"#utility.yul\":7435:7458   */\n  swap1\n  pop\n    /* \"#utility.yul\":7411:7460   */\ntag_158:\n    /* \"#utility.yul\":7473:7553   */\n  tag_159\n    /* \"#utility.yul\":7529:7551   */\n  tag_160\n    /* \"#utility.yul\":7547:7550   */\n  dup6\n    /* \"#utility.yul\":7529:7551   */\n  tag_50\n  jump\t// in\ntag_160:\n    /* \"#utility.yul\":7519:7527   */\n  dup4\n    /* \"#utility.yul\":7515:7552   */\n  add\n    /* \"#utility.yul\":7502:7513   */\n  dup3\n    /* \"#utility.yul\":7473:7553   */\n  tag_59\n  jump\t// in\ntag_159:\n    /* \"#utility.yul\":7132:7563   */\n  pop\n  pop\n    /* \"#utility.yul\":7117:7563   */\ntag_155:\n    /* \"#utility.yul\":7027:7570   */\n  pop\n  pop\n  pop\n  jump\t// out\n    /* \"#utility.yul\":7576:7693   */\ntag_61:\n    /* \"#utility.yul\":7630:7638   */\n  0x00\n    /* \"#utility.yul\":7680:7685   */\n  dup3\n    /* \"#utility.yul\":7674:7678   */\n  dup3\n    /* \"#utility.yul\":7670:7686   */\n  shr\n    /* \"#utility.yul\":7649:7686   */\n  swap1\n  pop\n    /* \"#utility.yul\":7576:7693   */\n  swap3\n  swap2\n  pop\n  pop\n  jump\t// out\n    /* \"#utility.yul\":7699:7868   */\ntag_62:\n    /* \"#utility.yul\":7743:7749   */\n  0x00\n    /* \"#utility.yul\":7776:7827   */\n  tag_163\n    /* \"#utility.yul\":7824:7825   */\n  0x00\n    /* \"#utility.yul\":7820:7826   */\n  not\n    /* \"#utility.yul\":7812:7817   */\n  dup5\n    /* \"#utility.yul\":7809:7810   */\n  0x08\n    /* \"#utility.yul\":7805:7818   */\n  mul\n    /* \"#utility.yul\":7776:7827   */\n  tag_61\n  jump\t// in\ntag_163:\n    /* \"#utility.yul\":7772:7828   */\n  not\n    /* \"#utility.yul\":7857:7861   */\n  dup1\n    /* \"#utility.yul\":7851:7855   */\n  dup4\n    /* \"#utility.yul\":7847:7862   */\n  and\n    /* \"#utility.yul\":7837:7862   */\n  swap2\n  pop\n    /* \"#utility.yul\":7750:7868   */\n  pop\n    /* \"#utility.yul\":7699:7868   */\n  swap3\n  swap2\n  pop\n  pop\n  jump\t// out\n    /* \"#utility.yul\":7873:8168   */\ntag_63:\n    /* \"#utility.yul\":7949:7953   */\n  0x00\n    /* \"#utility.yul\":8095:8124   */\n  tag_165\n    /* \"#utility.yul\":8120:8123   */\n  dup4\n    /* \"#utility.yul\":8114:8118   */\n  dup4\n    /* \"#utility.yul\":8095:8124   */\n  tag_62\n  jump\t// in\ntag_165:\n    /* \"#utility.yul\":8087:8124   */\n  swap2\n  pop\n    /* \"#utility.yul\":8157:8160   */\n  dup3\n    /* \"#utility.yul\":8154:8155   */\n  0x02\n    /* \"#utility.yul\":8150:8161   */\n  mul\n    /* \"#utility.yul\":8144:8148   */\n  dup3\n    /* \"#utility.yul\":8141:8162   */\n  or\n    /* \"#utility.yul\":8133:8162   */\n  swap1\n  pop\n    /* \"#utility.yul\":7873:8168   */\n  swap3\n  swap2\n  pop\n  pop\n  jump\t// out\n    /* \"#utility.yul\":8173:9568   */\ntag_7:\n    /* \"#utility.yul\":8290:8327   */\n  tag_167\n    /* \"#utility.yul\":8323:8326   */\n  dup3\n    /* \"#utility.yul\":8290:8327   */\n  tag_46\n  jump\t// in\ntag_167:\n    /* \"#utility.yul\":8392:8410   */\n  0xffffffffffffffff\n    /* \"#utility.yul\":8384:8390   */\n  dup2\n    /* \"#utility.yul\":8381:8411   */\n  gt\n    /* \"#utility.yul\":8378:8434   */\n  iszero\n  tag_168\n  jumpi\n    /* \"#utility.yul\":8414:8432   */\n  tag_169\n  tag_33\n  jump\t// in\ntag_169:\n    /* \"#utility.yul\":8378:8434   */\ntag_168:\n    /* \"#utility.yul\":8458:8496   */\n  tag_170\n    /* \"#utility.yul\":8490:8494   */\n  dup3\n    /* \"#utility.yul\":8484:8495   */\n  sload\n    /* \"#utility.yul\":8458:8496   */\n  tag_48\n  jump\t// in\ntag_170:\n    /* \"#utility.yul\":8543:8610   */\n  tag_171\n    /* \"#utility.yul\":8603:8609   */\n  dup3\n    /* \"#utility.yul\":8595:8601   */\n  dup3\n    /* \"#utility.yul\":8589:8593   */\n  dup6\n    /* \"#utility.yul\":8543:8610   */\n  tag_60\n  jump\t// in\ntag_171:\n    /* \"#utility.yul\":8637:8638   */\n  0x00\n    /* \"#utility.yul\":8661:8665   */\n  0x20\n    /* \"#utility.yul\":8648:8665   */\n  swap1\n  pop\n    /* \"#utility.yul\":8693:8695   */\n  0x1f\n    /* \"#utility.yul\":8685:8691   */\n  dup4\n    /* \"#utility.yul\":8682:8696   */\n  gt\n    /* \"#utility.yul\":8710:8711   */\n  0x01\n    /* \"#utility.yul\":8705:9323   */\n  dup2\n  eq\n  tag_173\n  jumpi\n    /* \"#utility.yul\":9367:9368   */\n  0x00\n    /* \"#utility.yul\":9384:9390   */\n  dup5\n    /* \"#utility.yul\":9381:9458   */\n  iszero\n  tag_174\n  jumpi\n    /* \"#utility.yul\":9433:9442   */\n  dup3\n    /* \"#utility.yul\":9428:9431   */\n  dup8\n    /* \"#utility.yul\":9424:9443   */\n  add\n    /* \"#utility.yul\":9418:9444   */\n  mload\n    /* \"#utility.yul\":9409:9444   */\n  swap1\n  pop\n    /* \"#utility.yul\":9381:9458   */\ntag_174:\n    /* \"#utility.yul\":9484:9551   */\n  tag_175\n    /* \"#utility.yul\":9544:9550   */\n  dup6\n    /* \"#utility.yul\":9537:9542   */\n  dup3\n    /* \"#utility.yul\":9484:9551   */\n  tag_63\n  jump\t// in\ntag_175:\n    /* \"#utility.yul\":9478:9482   */\n  dup7\n    /* \"#utility.yul\":9471:9552   */\n  sstore\n    /* \"#utility.yul\":9340:9562   */\n  pop\n    /* \"#utility.yul\":8675:9562   */\n  jump(tag_172)\n    /* \"#utility.yul\":8705:9323   */\ntag_173:\n    /* \"#utility.yul\":8757:8761   */\n  0x1f\n    /* \"#utility.yul\":8753:8762   */\n  not\n    /* \"#utility.yul\":8745:8751   */\n  dup5\n    /* \"#utility.yul\":8741:8763   */\n  and\n    /* \"#utility.yul\":8791:8828   */\n  tag_176\n    /* \"#utility.yul\":8823:8827   */\n  dup7\n    /* \"#utility.yul\":8791:8828   */\n  tag_49\n  jump\t// in\ntag_176:\n    /* \"#utility.yul\":8850:8851   */\n  0x00\n    /* \"#utility.yul\":8864:9072   */\ntag_177:\n    /* \"#utility.yul\":8878:8885   */\n  dup3\n    /* \"#utility.yul\":8875:8876   */\n  dup2\n    /* \"#utility.yul\":8872:8886   */\n  lt\n    /* \"#utility.yul\":8864:9072   */\n  iszero\n  tag_179\n  jumpi\n    /* \"#utility.yul\":8957:8966   */\n  dup5\n    /* \"#utility.yul\":8952:8955   */\n  dup10\n    /* \"#utility.yul\":8948:8967   */\n  add\n    /* \"#utility.yul\":8942:8968   */\n  mload\n    /* \"#utility.yul\":8934:8940   */\n  dup3\n    /* \"#utility.yul\":8927:8969   */\n  sstore\n    /* \"#utility.yul\":9008:9009   */\n  0x01\n    /* \"#utility.yul\":9000:9006   */\n  dup3\n    /* \"#utility.yul\":8996:9010   */\n  add\n    /* \"#utility.yul\":8986:9010   */\n  swap2\n  pop\n    /* \"#utility.yul\":9055:9057   */\n  0x20\n    /* \"#utility.yul\":9044:9053   */\n  dup6\n    /* \"#utility.yul\":9040:9058   */\n  add\n    /* \"#utility.yul\":9027:9058   */\n  swap5\n  pop\n    /* \"#utility.yul\":8901:8905   */\n  0x20\n    /* \"#utility.yul\":8898:8899   */\n  dup2\n    /* \"#utility.yul\":8894:8906   */\n  add\n    /* \"#utility.yul\":8889:8906   */\n  swap1\n  pop\n    /* \"#utility.yul\":8864:9072   */\n  jump(tag_177)\ntag_179:\n    /* \"#utility.yul\":9100:9106   */\n  dup7\n    /* \"#utility.yul\":9091:9098   */\n  dup4\n    /* \"#utility.yul\":9088:9107   */\n  lt\n    /* \"#utility.yul\":9085:9264   */\n  iszero\n  tag_180\n  jumpi\n    /* \"#utility.yul\":9158:9167   */\n  dup5\n    /* \"#utility.yul\":9153:9156   */\n  dup10\n    /* \"#utility.yul\":9149:9168   */\n  add\n    /* \"#utility.yul\":9143:9169   */\n  mload\n    /* \"#utility.yul\":9201:9249   */\n  tag_181\n    /* \"#utility.yul\":9243:9247   */\n  0x1f\n    /* \"#utility.yul\":9235:9241   */\n  dup10\n    /* \"#utility.yul\":9231:9248   */\n  and\n    /* \"#utility.yul\":9220:9229   */\n  dup3\n    /* \"#utility.yul\":9201:9249   */\n  tag_62\n  jump\t// in\ntag_181:\n    /* \"#utility.yul\":9193:9199   */\n  dup4\n    /* \"#utility.yul\":9186:9250   */\n  sstore\n    /* \"#utility.yul\":9108:9264   */\n  pop\n    /* \"#utility.yul\":9085:9264   */\ntag_180:\n    /* \"#utility.yul\":9310:9311   */\n  0x01\n    /* \"#utility.yul\":9306:9307   */\n  0x02\n    /* \"#utility.yul\":9298:9304   */\n  dup9\n    /* \"#utility.yul\":9294:9308   */\n  mul\n    /* \"#utility.yul\":9290:9312   */\n  add\n    /* \"#utility.yul\":9284:9288   */\n  dup9\n    /* \"#utility.yul\":9277:9313   */\n  sstore\n    /* \"#utility.yul\":8712:9323   */\n  pop\n  pop\n  pop\n    /* \"#utility.yul\":8675:9562   */\ntag_172:\n  pop\n    /* \"#utility.yul\":8265:9568   */\n  pop\n  pop\n  pop\n    /* \"#utility.yul\":8173:9568   */\n  pop\n  pop\n  jump\t// out\n    /* \"#utility.yul\":9574:9754   */\ntag_64:\n    /* \"#utility.yul\":9622:9699   */\n  0x4e487b7100000000000000000000000000000000000000000000000000000000\n    /* \"#utility.yul\":9619:9620   */\n  0x00\n    /* \"#utility.yul\":9612:9700   */\n  mstore\n    /* \"#utility.yul\":9719:9723   */\n  0x11\n    /* \"#utility.yul\":9716:9717   */\n  0x04\n    /* \"#utility.yul\":9709:9724   */\n  mstore\n    /* \"#utility.yul\":9743:9747   */\n  0x24\n    /* \"#utility.yul\":9740:9741   */\n  0x00\n    /* \"#utility.yul\":9733:9748   */\n  revert\n    /* \"#utility.yul\":9760:9862   */\ntag_65:\n    /* \"#utility.yul\":9802:9810   */\n  0x00\n    /* \"#utility.yul\":9849:9854   */\n  dup2\n    /* \"#utility.yul\":9846:9847   */\n  0x01\n    /* \"#utility.yul\":9842:9855   */\n  shr\n    /* \"#utility.yul\":9821:9855   */\n  swap1\n  pop\n    /* \"#utility.yul\":9760:9862   */\n  swap2\n  swap1\n  pop\n  jump\t// out\n    /* \"#utility.yul\":9868:10716   */\ntag_66:\n    /* \"#utility.yul\":9929:9934   */\n  0x00\n    /* \"#utility.yul\":9936:9940   */\n  0x00\n    /* \"#utility.yul\":9960:9966   */\n  dup3\n    /* \"#utility.yul\":9951:9966   */\n  swap2\n  pop\n    /* \"#utility.yul\":9984:9989   */\n  dup4\n    /* \"#utility.yul\":9975:9989   */\n  swap1\n  pop\n    /* \"#utility.yul\":9998:10710   */\ntag_185:\n    /* \"#utility.yul\":10019:10020   */\n  0x01\n    /* \"#utility.yul\":10009:10017   */\n  dup6\n    /* \"#utility.yul\":10006:10021   */\n  gt\n    /* \"#utility.yul\":9998:10710   */\n  iszero\n  tag_187\n  jumpi\n    /* \"#utility.yul\":10114:10118   */\n  dup1\n    /* \"#utility.yul\":10109:10112   */\n  dup7\n    /* \"#utility.yul\":10105:10119   */\n  div\n    /* \"#utility.yul\":10099:10103   */\n  dup2\n    /* \"#utility.yul\":10096:10120   */\n  gt\n    /* \"#utility.yul\":10093:10143   */\n  iszero\n  tag_188\n  jumpi\n    /* \"#utility.yul\":10123:10141   */\n  tag_189\n  tag_64\n  jump\t// in\ntag_189:\n    /* \"#utility.yul\":10093:10143   */\ntag_188:\n    /* \"#utility.yul\":10173:10174   */\n  0x01\n    /* \"#utility.yul\":10163:10171   */\n  dup6\n    /* \"#utility.yul\":10159:10175   */\n  and\n    /* \"#utility.yul\":10156:10607   */\n  iszero\n  tag_190\n  jumpi\n    /* \"#utility.yul\":10588:10592   */\n  dup1\n    /* \"#utility.yul\":10581:10586   */\n  dup3\n    /* \"#utility.yul\":10577:10593   */\n  mul\n    /* \"#utility.yul\":10568:10593   */\n  swap2\n  pop\n    /* \"#utility.yul\":10156:10607   */\ntag_190:\n    /* \"#utility.yul\":10638:10642   */\n  dup1\n    /* \"#utility.yul\":10632:10636   */\n  dup2\n    /* \"#utility.yul\":10628:10643   */\n  mul\n    /* \"#utility.yul\":10620:10643   */\n  swap1\n  pop\n    /* \"#utility.yul\":10668:10700   */\n  tag_191\n    /* \"#utility.yul\":10691:10699   */\n  dup6\n    /* \"#utility.yul\":10668:10700   */\n  tag_65\n  jump\t// in\ntag_191:\n    /* \"#utility.yul\":10656:10700   */\n  swap5\n  pop\n    /* \"#utility.yul\":9998:10710   */\n  jump(tag_185)\ntag_187:\n    /* \"#utility.yul\":9868:10716   */\n  swap5\n  pop\n  swap5\n  swap3\n  pop\n  pop\n  pop\n  jump\t// out\n    /* \"#utility.yul\":10722:11795   */\ntag_67:\n    /* \"#utility.yul\":10776:10781   */\n  0x00\n    /* \"#utility.yul\":10967:10975   */\n  dup3\n    /* \"#utility.yul\":10957:10997   */\n  tag_193\n  jumpi\n    /* \"#utility.yul\":10988:10989   */\n  0x01\n    /* \"#utility.yul\":10979:10989   */\n  swap1\n  pop\n    /* \"#utility.yul\":10990:10995   */\n  jump(tag_192)\n    /* \"#utility.yul\":10957:10997   */\ntag_193:\n    /* \"#utility.yul\":11016:11020   */\n  dup2\n    /* \"#utility.yul\":11006:11042   */\n  tag_194\n  jumpi\n    /* \"#utility.yul\":11033:11034   */\n  0x00\n    /* \"#utility.yul\":11024:11034   */\n  swap1\n  pop\n    /* \"#utility.yul\":11035:11040   */\n  jump(tag_192)\n    /* \"#utility.yul\":11006:11042   */\ntag_194:\n    /* \"#utility.yul\":11102:11106   */\n  dup2\n    /* \"#utility.yul\":11150:11151   */\n  0x01\n    /* \"#utility.yul\":11145:11172   */\n  dup2\n  eq\n  tag_196\n  jumpi\n    /* \"#utility.yul\":11186:11187   */\n  0x02\n    /* \"#utility.yul\":11181:11372   */\n  dup2\n  eq\n  tag_197\n  jumpi\n    /* \"#utility.yul\":11095:11372   */\n  jump(tag_195)\n    /* \"#utility.yul\":11145:11172   */\ntag_196:\n    /* \"#utility.yul\":11163:11164   */\n  0x01\n    /* \"#utility.yul\":11154:11164   */\n  swap2\n  pop\n    /* \"#utility.yul\":11165:11170   */\n  pop\n  jump(tag_192)\n    /* \"#utility.yul\":11181:11372   */\ntag_197:\n    /* \"#utility.yul\":11226:11229   */\n  0xff\n    /* \"#utility.yul\":11216:11224   */\n  dup5\n    /* \"#utility.yul\":11213:11230   */\n  gt\n    /* \"#utility.yul\":11210:11253   */\n  iszero\n  tag_198\n  jumpi\n    /* \"#utility.yul\":11233:11251   */\n  tag_199\n  tag_64\n  jump\t// in\ntag_199:\n    /* \"#utility.yul\":11210:11253   */\ntag_198:\n    /* \"#utility.yul\":11282:11290   */\n  dup4\n    /* \"#utility.yul\":11279:11280   */\n  0x02\n    /* \"#utility.yul\":11275:11291   */\n  exp\n    /* \"#utility.yul\":11266:11291   */\n  swap2\n  pop\n    /* \"#utility.yul\":11317:11320   */\n  dup5\n    /* \"#utility.yul\":11310:11315   */\n  dup3\n    /* \"#utility.yul\":11307:11321   */\n  gt\n    /* \"#utility.yul\":11304:11344   */\n  iszero\n  tag_200\n  jumpi\n    /* \"#utility.yul\":11324:11342   */\n  tag_201\n  tag_64\n  jump\t// in\ntag_201:\n    /* \"#utility.yul\":11304:11344   */\ntag_200:\n    /* \"#utility.yul\":11357:11362   */\n  pop\n  jump(tag_192)\n    /* \"#utility.yul\":11095:11372   */\ntag_195:\n  pop\n    /* \"#utility.yul\":11481:11483   */\n  0x20\n    /* \"#utility.yul\":11471:11479   */\n  dup4\n    /* \"#utility.yul\":11468:11484   */\n  lt\n    /* \"#utility.yul\":11462:11465   */\n  0x0133\n    /* \"#utility.yul\":11456:11460   */\n  dup4\n    /* \"#utility.yul\":11453:11466   */\n  lt\n    /* \"#utility.yul\":11449:11485   */\n  and\n    /* \"#utility.yul\":11431:11433   */\n  0x4e\n    /* \"#utility.yul\":11421:11429   */\n  dup5\n    /* \"#utility.yul\":11418:11434   */\n  lt\n    /* \"#utility.yul\":11413:11415   */\n  0x0b\n    /* \"#utility.yul\":11407:11411   */\n  dup5\n    /* \"#utility.yul\":11404:11416   */\n  lt\n    /* \"#utility.yul\":11400:11435   */\n  and\n    /* \"#utility.yul\":11384:11495   */\n  or\n    /* \"#utility.yul\":11381:11627   */\n  iszero\n  tag_202\n  jumpi\n    /* \"#utility.yul\":11537:11545   */\n  dup3\n    /* \"#utility.yul\":11531:11535   */\n  dup3\n    /* \"#utility.yul\":11527:11546   */\n  exp\n    /* \"#utility.yul\":11518:11546   */\n  swap1\n  pop\n    /* \"#utility.yul\":11572:11575   */\n  dup4\n    /* \"#utility.yul\":11565:11570   */\n  dup2\n    /* \"#utility.yul\":11562:11576   */\n  gt\n    /* \"#utility.yul\":11559:11599   */\n  iszero\n  tag_203\n  jumpi\n    /* \"#utility.yul\":11579:11597   */\n  tag_204\n  tag_64\n  jump\t// in\ntag_204:\n    /* \"#utility.yul\":11559:11599   */\ntag_203:\n    /* \"#utility.yul\":11612:11617   */\n  jump(tag_192)\n    /* \"#utility.yul\":11381:11627   */\ntag_202:\n    /* \"#utility.yul\":11652:11694   */\n  tag_205\n    /* \"#utility.yul\":11690:11693   */\n  dup5\n    /* \"#utility.yul\":11680:11688   */\n  dup5\n    /* \"#utility.yul\":11674:11678   */\n  dup5\n    /* \"#utility.yul\":11671:11672   */\n  0x01\n    /* \"#utility.yul\":11652:11694   */\n  tag_66\n  jump\t// in\ntag_205:\n    /* \"#utility.yul\":11637:11694   */\n  swap3\n  pop\n  swap1\n  pop\n    /* \"#utility.yul\":11726:11730   */\n  dup2\n    /* \"#utility.yul\":11721:11724   */\n  dup5\n    /* \"#utility.yul\":11717:11731   */\n  div\n    /* \"#utility.yul\":11710:11715   */\n  dup2\n    /* \"#utility.yul\":11707:11732   */\n  gt\n    /* \"#utility.yul\":11704:11755   */\n  iszero\n  tag_206\n  jumpi\n    /* \"#utility.yul\":11735:11753   */\n  tag_207\n  tag_64\n  jump\t// in\ntag_207:\n    /* \"#utility.yul\":11704:11755   */\ntag_206:\n    /* \"#utility.yul\":11784:11788   */\n  dup2\n    /* \"#utility.yul\":11777:11782   */\n  dup2\n    /* \"#utility.yul\":11773:11789   */\n  mul\n    /* \"#utility.yul\":11764:11789   */\n  swap1\n  pop\n    /* \"#utility.yul\":10722:11795   */\ntag_192:\n  swap4\n  swap3\n  pop\n  pop\n  pop\n  jump\t// out\n    /* \"#utility.yul\":11801:12082   */\ntag_10:\n    /* \"#utility.yul\":11859:11864   */\n  0x00\n    /* \"#utility.yul\":11883:11906   */\n  tag_209\n    /* \"#utility.yul\":11901:11905   */\n  dup3\n    /* \"#utility.yul\":11883:11906   */\n  tag_43\n  jump\t// in\ntag_209:\n    /* \"#utility.yul\":11875:11906   */\n  swap2\n  pop\n    /* \"#utility.yul\":11927:11952   */\n  tag_210\n    /* \"#utility.yul\":11943:11951   */\n  dup4\n    /* \"#utility.yul\":11927:11952   */\n  tag_40\n  jump\t// in\ntag_210:\n    /* \"#utility.yul\":11915:11952   */\n  swap3\n  pop\n    /* \"#utility.yul\":11971:12075   */\n  tag_211\n    /* \"#utility.yul\":12008:12074   */\n  0xffffffffffffffffffffffffffffffffffffffffffffffffffffffffffffffff\n    /* \"#utility.yul\":11998:12006   */\n  dup5\n    /* \"#utility.yul\":11992:11996   */\n  dup5\n    /* \"#utility.yul\":11971:12075   */\n  tag_67\n  jump\t// in\ntag_211:\n    /* \"#utility.yul\":11962:12075   */\n  swap1\n  pop\n    /* \"#utility.yul\":11801:12082   */\n  swap3\n  swap2\n  pop\n  pop\n  jump\t// out\n    /* \"#utility.yul\":12088:12498   */\ntag_12:\n    /* \"#utility.yul\":12128:12135   */\n  0x00\n    /* \"#utility.yul\":12151:12171   */\n  tag_213\n    /* \"#utility.yul\":12169:12170   */\n  dup3\n    /* \"#utility.yul\":12151:12171   */\n  tag_43\n  jump\t// in\ntag_213:\n    /* \"#utility.yul\":12146:12171   */\n  swap2\n  pop\n    /* \"#utility.yul\":12185:12205   */\n  tag_214\n    /* \"#utility.yul\":12203:12204   */\n  dup4\n    /* \"#utility.yul\":12185:12205   */\n  tag_43\n  jump\t// in\ntag_214:\n    /* \"#utility.yul\":12180:12205   */\n  swap3\n  pop\n    /* \"#utility.yul\":12240:12241   */\n  dup3\n    /* \"#utility.yul\":12237:12238   */\n  dup3\n    /* \"#utility.yul\":12233:12242   */\n  mul\n    /* \"#utility.yul\":12262:12292   */\n  tag_215\n    /* \"#utility.yul\":12280:12291   */\n  dup2\n    /* \"#utility.yul\":12262:12292   */\n  tag_43\n  jump\t// in\ntag_215:\n    /* \"#utility.yul\":12251:12292   */\n  swap2\n  pop\n    /* \"#utility.yul\":12441:12442   */\n  dup3\n    /* \"#utility.yul\":12432:12439   */\n  dup3\n    /* \"#utility.yul\":12428:12443   */\n  div\n    /* \"#utility.yul\":12425:12426   */\n  dup5\n    /* \"#utility.yul\":12422:12444   */\n  eq\n    /* \"#utility.yul\":12402:12403   */\n  dup4\n    /* \"#utility.yul\":12395:12404   */\n  iszero\n    /* \"#utility.yul\":12375:12458   */\n  or\n    /* \"#utility.yul\":12352:12491   */\n  tag_216\n  jumpi\n    /* \"#utility.yul\":12471:12489   */\n  tag_217\n  tag_64\n  jump\t// in\ntag_217:\n    /* \"#utility.yul\":12352:12491   */\ntag_216:\n    /* \"#utility.yul\":12136:12498   */\n  pop\n    /* \"#utility.yul\":12088:12498   */\n  swap3\n  swap2\n  pop\n  pop\n  jump\t// out\n    /* \"#utility.yul\":12504:12695   */\ntag_21:\n    /* \"#utility.yul\":12544:12547   */\n  0x00\n    /* \"#utility.yul\":12563:12583   */\n  tag_219\n    /* \"#utility.yul\":12581:12582   */\n  dup3\n    /* \"#utility.yul\":12563:12583   */\n  tag_43\n  jump\t// in\ntag_219:\n    /* \"#utility.yul\":12558:12583   */\n  swap2\n  pop\n    /* \"#utility.yul\":12597:12617   */\n  tag_220\n    /* \"#utility.yul\":12615:12616   */\n  dup4\n    /* \"#utility.yul\":12597:12617   */\n  tag_43\n  jump\t// in\ntag_220:\n    /* \"#utility.yul\":12592:12617   */\n  swap3\n  pop\n    /* \"#utility.yul\":12640:12641   */\n  dup3\n    /* \"#utility.yul\":12637:12638   */\n  dup3\n    /* \"#utility.yul\":12633:12642   */\n  add\n    /* \"#utility.yul\":12626:12642   */\n  swap1\n  pop\n    /* \"#utility.yul\":12661:12664   */\n  dup1\n    /* \"#utility.yul\":12658:12659   */\n  dup3\n    /* \"#utility.yul\":12655:12665   */\n  gt\n    /* \"#utility.yul\":12652:12688   */\n  iszero\n  tag_221\n  jumpi\n    /* \"#utility.yul\":12668:12686   */\n  tag_222\n  tag_64\n  jump\t// in\ntag_222:\n    /* \"#utility.yul\":12652:12688   */\ntag_221:\n    /* \"#utility.yul\":12504:12695   */\n  swap3\n  swap2\n  pop\n  pop\n  jump\t// out\n    /* \"#utility.yul\":12701:12819   */\ntag_68:\n    /* \"#utility.yul\":12788:12812   */\n  tag_224\n    /* \"#utility.yul\":12806:12811   */\n  dup2\n    /* \"#utility.yul\":12788:12812   */\n  tag_43\n  jump\t// in\ntag_224:\n    /* \"#utility.yul\":12783:12786   */\n  dup3\n    /* \"#utility.yul\":12776:12813   */\n  mstore\n    /* \"#utility.yul\":12701:12819   */\n  pop\n  pop\n  jump\t// out\n    /* \"#utility.yul\":12825:13047   */\ntag_25:\n    /* \"#utility.yul\":12918:12922   */\n  0x00\n    /* \"#utility.yul\":12956:12958   */\n  0x20\n    /* \"#utility.yul\":12945:12954   */\n  dup3\n    /* \"#utility.yul\":12941:12959   */\n  add\n    /* \"#utility.yul\":12933:12959   */\n  swap1\n  pop\n    /* \"#utility.yul\":12969:13040   */\n  tag_226\n    /* \"#utility.yul\":13037:13038   */\n  0x00\n    /* \"#utility.yul\":13026:13035   */\n  dup4\n    /* \"#utility.yul\":13022:13039   */\n  add\n    /* \"#utility.yul\":13013:13019   */\n  dup5\n    /* \"#utility.yul\":12969:13040   */\n  tag_68\n  jump\t// in\ntag_226:\n    /* \"#utility.yul\":12825:13047   */\n  swap3\n  swap2\n  pop\n  pop\n  jump\t// out\n    /* \"Tokens/MintableBurnable.sol\":61:6279  contract MintableBurnableToken {... */\ntag_17:\n  dataSize(sub_0)\n  dup1\n  dataOffset(sub_0)\n  0x00\n  codecopy\n  0x00\n  return\nstop\n\nsub_0: assembly {\n        /* \"Tokens/MintableBurnable.sol\":61:6279  contract MintableBurnableToken {... */\n      mstore(0x40, 0x80)\n      callvalue\n      dup1\n      iszero\n      tag_1\n      jumpi\n      revert(0x00, 0x00)\n    tag_1:\n      pop\n      jumpi(tag_2, lt(calldatasize, 0x04))\n      shr(0xe0, calldataload(0x00))\n      dup1\n      0x70a08231\n      gt\n      tag_24\n      jumpi\n      dup1\n      0xa9059cbb\n      gt\n      tag_25\n      jumpi\n      dup1\n      0xa9059cbb\n      eq\n      tag_18\n      jumpi\n      dup1\n      0xd5abeb01\n      eq\n      tag_19\n      jumpi\n      dup1\n      0xdd62ed3e\n      eq\n      tag_20\n      jumpi\n      dup1\n      0xf2fde38b\n      eq\n      tag_21\n      jumpi\n      dup1\n      0xf44637ba\n      eq\n      tag_22\n      jumpi\n      dup1\n      0xf46eccc4\n      eq\n      tag_23\n      jumpi\n      jump(tag_2)\n    tag_25:\n      dup1\n      0x70a08231\n      eq\n      tag_13\n      jumpi\n      dup1\n      0x79cc6790\n      eq\n      tag_14\n      jumpi\n      dup1\n      0x8da5cb5b\n      eq\n      tag_15\n      jumpi\n      dup1\n      0x95d89b41\n      eq\n      tag_16\n      jumpi\n      dup1\n      0x983b2d56\n      eq\n      tag_17\n      jumpi\n      jump(tag_2)\n    tag_24:\n      dup1\n      0x23b872dd\n      gt\n      tag_26\n      jumpi\n      dup1\n      0x23b872dd\n      eq\n      tag_8\n      jumpi\n      dup1\n      0x3092afd5\n      eq\n      tag_9\n      jumpi\n      dup1\n      0x313ce567\n      eq\n      tag_10\n      jumpi\n      dup1\n      0x40c10f19\n      eq\n      tag_11\n      jumpi\n      dup1\n      0x42966c68\n      eq\n      tag_12\n      jumpi\n      jump(tag_2)\n    tag_26:\n      dup1\n      0x02846858\n      eq\n      tag_3\n      jumpi\n      dup1\n      0x03d41e0e\n      eq\n      tag_4\n      jumpi\n      dup1\n      0x06fdde03\n      eq\n      tag_5\n      jumpi\n      dup1\n      0x095ea7b3\n      eq\n      tag_6\n      jumpi\n      dup1\n      0x18160ddd\n      eq\n      tag_7\n      jumpi\n    tag_2:\n      revert(0x00, 0x00)\n        /* \"Tokens/MintableBurnable.sol\":4749:4893  function removeBurner(address account) public onlyOwner {... */\n    tag_3:\n      tag_27\n      0x04\n      dup1\n      calldatasize\n      sub\n      dup2\n      add\n      swap1\n      tag_28\n      swap2\n      swap1\n      tag_29\n      jump\t// in\n    tag_28:\n      tag_30\n      jump\t// in\n    tag_27:\n      stop\n        /* \"Tokens/MintableBurnable.sol\":537:576  mapping(address => bool) public burners */\n    tag_4:\n      tag_31\n      0x04\n      dup1\n      calldatasize\n      sub\n      dup2\n      add\n      swap1\n      tag_32\n      swap2\n      swap1\n      tag_29\n      jump\t// in\n    tag_32:\n      tag_33\n      jump\t// in\n    tag_31:\n      mload(0x40)\n      tag_34\n      swap2\n      swap1\n      tag_35\n      jump\t// in\n    tag_34:\n      mload(0x40)\n      dup1\n      swap2\n      sub\n      swap1\n      return\n        /* \"Tokens/MintableBurnable.sol\":138:156  string public name */\n    tag_5:\n      tag_36\n      tag_37\n      jump\t// in\n    tag_36:\n      mload(0x40)\n      tag_38\n      swap2\n      swap1\n      tag_39\n      jump\t// in\n    tag_38:\n      mload(0x40)\n      dup1\n      swap2\n      sub\n      swap1\n      return\n        /* \"Tokens/MintableBurnable.sol\":2555:2705  function approve(address spender, uint256 amount) public returns (bool) {... */\n    tag_6:\n      tag_40\n      0x04\n      dup1\n      calldatasize\n      sub\n      dup2\n      add\n      swap1\n      tag_41\n      swap2\n      swap1\n      tag_42\n      jump\t// in\n    tag_41:\n      tag_43\n      jump\t// in\n    tag_40:\n      mload(0x40)\n      tag_44\n      swap2\n      swap1\n      tag_35\n      jump\t// in\n    tag_44:\n      mload(0x40)\n      dup1\n      swap2\n      sub\n      swap1\n      return\n        /* \"Tokens/MintableBurnable.sol\":218:244  uint256 public totalSupply */\n    tag_7:\n      tag_45\n      tag_46\n      jump\t// in\n    tag_45:\n      mload(0x40)\n      tag_47\n      swap2\n      swap1\n      tag_48\n      jump\t// in\n    tag_47:\n      mload(0x40)\n      dup1\n      swap2\n      sub\n      swap1\n      return\n        /* \"Tokens/MintableBurnable.sol\":2717:2923  function transferFrom(address from, address to, uint256 amount) public returns (bool) {... */\n    tag_8:\n      tag_49\n      0x04\n      dup1\n      calldatasize\n      sub\n      dup2\n      add\n      swap1\n      tag_50\n      swap2\n      swap1\n      tag_51\n      jump\t// in\n    tag_50:\n      tag_52\n      jump\t// in\n    tag_49:\n      mload(0x40)\n      tag_53\n      swap2\n      swap1\n      tag_35\n      jump\t// in\n    tag_53:\n      mload(0x40)\n      dup1\n      swap2\n      sub\n      swap1\n      return\n        /* \"Tokens/MintableBurnable.sol\":4442:4586  function removeMinter(address account) public onlyOwner {... */\n    tag_9:\n      tag_54\n      0x04\n      dup1\n      calldatasize\n      sub\n      dup2\n      add\n      swap1\n      tag_55\n      swap2\n      swap1\n      tag_29\n      jump\t// in\n    tag_55:\n      tag_56\n      jump\t// in\n    tag_54:\n      stop\n        /* \"Tokens/MintableBurnable.sol\":190:211  uint8 public decimals */\n    tag_10:\n      tag_57\n      tag_58\n      jump\t// in\n    tag_57:\n      mload(0x40)\n      tag_59\n      swap2\n      swap1\n      tag_60\n      jump\t// in\n    tag_59:\n      mload(0x40)\n      dup1\n      swap2\n      sub\n      swap1\n      return\n        /* \"Tokens/MintableBurnable.sol\":2973:3069  function mint(address to, uint256 amount) public onlyMinter {... */\n    tag_11:\n      tag_61\n      0x04\n      dup1\n      calldatasize\n      sub\n      dup2\n      add\n      swap1\n      tag_62\n      swap2\n      swap1\n      tag_42\n      jump\t// in\n    tag_62:\n      tag_63\n      jump\t// in\n    tag_61:\n      stop\n        /* \"Tokens/MintableBurnable.sol\":3551:3632  function burn(uint256 amount) public {... */\n    tag_12:\n      tag_64\n      0x04\n      dup1\n      calldatasize\n      sub\n      dup2\n      add\n      swap1\n      tag_65\n      swap2\n      swap1\n      tag_66\n      jump\t// in\n    tag_65:\n      tag_67\n      jump\t// in\n    tag_64:\n      stop\n        /* \"Tokens/MintableBurnable.sol\":2131:2241  function balanceOf(address account) public view returns (uint256) {... */\n    tag_13:\n      tag_68\n      0x04\n      dup1\n      calldatasize\n      sub\n      dup2\n      add\n      swap1\n      tag_69\n      swap2\n      swap1\n      tag_29\n      jump\t// in\n    tag_69:\n      tag_70\n      jump\t// in\n    tag_68:\n      mload(0x40)\n      tag_71\n      swap2\n      swap1\n      tag_48\n      jump\t// in\n    tag_71:\n      mload(0x40)\n      dup1\n      swap2\n      sub\n      swap1\n      return\n        /* \"Tokens/MintableBurnable.sol\":3644:3800  function burnFrom(address from, uint256 amount) public onlyBurner {... */\n    tag_14:\n      tag_72\n      0x04\n      dup1\n      calldatasize\n      sub\n      dup2\n      add\n      swap1\n      tag_73\n      swap2\n      swap1\n      tag_42\n      jump\t// in\n    tag_73:\n      tag_74\n      jump\t// in\n    tag_72:\n      stop\n        /* \"Tokens/MintableBurnable.sol\":464:484  address public owner */\n    tag_15:\n      tag_75\n      tag_76\n      jump\t// in\n    tag_75:\n      mload(0x40)\n      tag_77\n      swap2\n      swap1\n      tag_78\n      jump\t// in\n    tag_77:\n      mload(0x40)\n      dup1\n      swap2\n      sub\n      swap1\n      return\n        /* \"Tokens/MintableBurnable.sol\":163:183  string public symbol */\n    tag_16:\n      tag_79\n      tag_80\n      jump\t// in\n    tag_79:\n      mload(0x40)\n      tag_81\n      swap2\n      swap1\n      tag_39\n      jump\t// in\n    tag_81:\n      mload(0x40)\n      dup1\n      swap2\n      sub\n      swap1\n      return\n        /* \"Tokens/MintableBurnable.sol\":4291:4430  function addMinter(address account) public onlyOwner {... */\n    tag_17:\n      tag_82\n      0x04\n      dup1\n      calldatasize\n      sub\n      dup2\n      add\n      swap1\n      tag_83\n      swap2\n      swap1\n      tag_29\n      jump\t// in\n    tag_83:\n      tag_84\n      jump\t// in\n    tag_82:\n      stop\n        /* \"Tokens/MintableBurnable.sol\":2253:2395  function transfer(address to, uint256 amount) public returns (bool) {... */\n    tag_18:\n      tag_85\n      0x04\n      dup1\n      calldatasize\n      sub\n      dup2\n      add\n      swap1\n      tag_86\n      swap2\n      swap1\n      tag_42\n      jump\t// in\n    tag_86:\n      tag_87\n      jump\t// in\n    tag_85:\n      mload(0x40)\n      tag_88\n      swap2\n      swap1\n      tag_35\n      jump\t// in\n    tag_88:\n      mload(0x40)\n      dup1\n      swap2\n      sub\n      swap1\n      return\n        /* \"Tokens/MintableBurnable.sol\":251:275  uint256 public maxSupply */\n    tag_19:\n      tag_89\n      tag_90\n      jump\t// in\n    tag_89:\n      mload(0x40)\n      tag_91\n      swap2\n      swap1\n      tag_48\n      jump\t// in\n    tag_91:\n      mload(0x40)\n      dup1\n      swap2\n      sub\n      swap1\n      return\n        /* \"Tokens/MintableBurnable.sol\":2407:2543  function allowance(address owner1, address spender) public view returns (uint256) {... */\n    tag_20:\n      tag_92\n      0x04\n      dup1\n      calldatasize\n      sub\n      dup2\n      add\n      swap1\n      tag_93\n      swap2\n      swap1\n      tag_94\n      jump\t// in\n    tag_93:\n      tag_95\n      jump\t// in\n    tag_92:\n      mload(0x40)\n      tag_96\n      swap2\n      swap1\n      tag_48\n      jump\t// in\n    tag_96:\n      mload(0x40)\n      dup1\n      swap2\n      sub\n      swap1\n      return\n        /* \"Tokens/MintableBurnable.sol\":4905:5061  function transferOwnership(address newOwner) public onlyOwner {... */\n    tag_21:\n      tag_97\n      0x04\n      dup1\n      calldatasize\n      sub\n      dup2\n      add\n      swap1\n      tag_98\n      swap2\n      swap1\n      tag_29\n      jump\t// in\n    tag_98:\n      tag_99\n      jump\t// in\n    tag_97:\n      stop\n        /* \"Tokens/MintableBurnable.sol\":4598:4737  function addBurner(address account) public onlyOwner {... */\n    tag_22:\n      tag_100\n      0x04\n      dup1\n      calldatasize\n      sub\n      dup2\n      add\n      swap1\n      tag_101\n      swap2\n      swap1\n      tag_29\n      jump\t// in\n    tag_101:\n      tag_102\n      jump\t// in\n    tag_100:\n      stop\n        /* \"Tokens/MintableBurnable.sol\":491:530  mapping(address => bool) public minters */\n    tag_23:\n      tag_103\n      0x04\n      dup1\n      calldatasize\n      sub\n      dup2\n      add\n      swap1\n      tag_104\n      swap2\n      swap1\n      tag_29\n      jump\t// in\n    tag_104:\n      tag_105\n      jump\t// in\n    tag_103:\n      mload(0x40)\n      tag_106\n      swap2\n      swap1\n      tag_35\n      jump\t// in\n    tag_106:\n      mload(0x40)\n      dup1\n      swap2\n      sub\n      swap1\n      return\n        /* \"Tokens/MintableBurnable.sol\":4749:4893  function removeBurner(address account) public onlyOwner {... */\n    tag_30:\n        /* \"Tokens/MintableBurnable.sol\":1282:1287  owner */\n      0x07\n      0x00\n      swap1\n      sload\n      swap1\n      0x0100\n      exp\n      swap1\n      div\n      0xffffffffffffffffffffffffffffffffffffffff\n      and\n        /* \"Tokens/MintableBurnable.sol\":1268:1287  msg.sender != owner */\n      0xffffffffffffffffffffffffffffffffffffffff\n      and\n        /* \"Tokens/MintableBurnable.sol\":1268:1278  msg.sender */\n      caller\n        /* \"Tokens/MintableBurnable.sol\":1268:1287  msg.sender != owner */\n      0xffffffffffffffffffffffffffffffffffffffff\n      and\n      eq\n        /* \"Tokens/MintableBurnable.sol\":1264:1306  if (msg.sender != owner) revert NotOwner() */\n      tag_108\n      jumpi\n        /* \"Tokens/MintableBurnable.sol\":1296:1306  NotOwner() */\n      mload(0x40)\n      0x30cd747100000000000000000000000000000000000000000000000000000000\n      dup2\n      mstore\n      0x04\n      add\n      mload(0x40)\n      dup1\n      swap2\n      sub\n      swap1\n      revert\n        /* \"Tokens/MintableBurnable.sol\":1264:1306  if (msg.sender != owner) revert NotOwner() */\n    tag_108:\n        /* \"Tokens/MintableBurnable.sol\":4835:4840  false */\n      0x00\n        /* \"Tokens/MintableBurnable.sol\":4816:4823  burners */\n      0x09\n        /* \"Tokens/MintableBurnable.sol\":4816:4832  burners[account] */\n      0x00\n        /* \"Tokens/MintableBurnable.sol\":4824:4831  account */\n      dup4\n        /* \"Tokens/MintableBurnable.sol\":4816:4832  burners[account] */\n      0xffffffffffffffffffffffffffffffffffffffff\n      and\n      0xffffffffffffffffffffffffffffffffffffffff\n      and\n      dup2\n      mstore\n      0x20\n      add\n      swap1\n      dup2\n      mstore\n      0x20\n      add\n      0x00\n      keccak256\n      0x00\n        /* \"Tokens/MintableBurnable.sol\":4816:4840  burners[account] = false */\n      0x0100\n      exp\n      dup2\n      sload\n      dup2\n      0xff\n      mul\n      not\n      and\n      swap1\n      dup4\n      iszero\n      iszero\n      mul\n      or\n      swap1\n      sstore\n      pop\n        /* \"Tokens/MintableBurnable.sol\":4870:4877  account */\n      dup1\n        /* \"Tokens/MintableBurnable.sol\":4856:4885  BurnerUpdated(account, false) */\n      0xffffffffffffffffffffffffffffffffffffffff\n      and\n      0xf0e5abe4ab32ea692e3889b4c146fd4ddae5f17bb40ab4feba97fb67a2d4de0f\n        /* \"Tokens/MintableBurnable.sol\":4879:4884  false */\n      0x00\n        /* \"Tokens/MintableBurnable.sol\":4856:4885  BurnerUpdated(account, false) */\n      mload(0x40)\n      tag_110\n      swap2\n      swap1\n      tag_35\n      jump\t// in\n    tag_110:\n      mload(0x40)\n      dup1\n      swap2\n      sub\n      swap1\n      log2\n        /* \"Tokens/MintableBurnable.sol\":4749:4893  function removeBurner(address account) public onlyOwner {... */\n      pop\n      jump\t// out\n        /* \"Tokens/MintableBurnable.sol\":537:576  mapping(address => bool) public burners */\n    tag_33:\n      mstore(0x20, 0x09)\n      dup1\n      0x00\n      mstore\n      keccak256(0x00, 0x40)\n      0x00\n      swap2\n      pop\n      sload\n      swap1\n      0x0100\n      exp\n      swap1\n      div\n      0xff\n      and\n      dup2\n      jump\t// out\n        /* \"Tokens/MintableBurnable.sol\":138:156  string public name */\n    tag_37:\n      0x00\n      dup1\n      sload\n      tag_111\n      swap1\n      tag_112\n      jump\t// in\n    tag_111:\n      dup1\n      0x1f\n      add\n      0x20\n      dup1\n      swap2\n      div\n      mul\n      0x20\n      add\n      mload(0x40)\n      swap1\n      dup2\n      add\n      0x40\n      mstore\n      dup1\n      swap3\n      swap2\n      swap1\n      dup2\n      dup2\n      mstore\n      0x20\n      add\n      dup3\n      dup1\n      sload\n      tag_113\n      swap1\n      tag_112\n      jump\t// in\n    tag_113:\n      dup1\n      iszero\n      tag_114\n      jumpi\n      dup1\n      0x1f\n      lt\n      tag_115\n      jumpi\n      0x0100\n      dup1\n      dup4\n      sload\n      div\n      mul\n      dup4\n      mstore\n      swap2\n      0x20\n      add\n      swap2\n      jump(tag_114)\n    tag_115:\n      dup3\n      add\n      swap2\n      swap1\n      0x00\n      mstore\n      keccak256(0x00, 0x20)\n      swap1\n    tag_116:\n      dup2\n      sload\n      dup2\n      mstore\n      swap1\n      0x01\n      add\n      swap1\n      0x20\n      add\n      dup1\n      dup4\n      gt\n      tag_116\n      jumpi\n      dup3\n      swap1\n      sub\n      0x1f\n      and\n      dup3\n      add\n      swap2\n    tag_114:\n      pop\n      pop\n      pop\n      pop\n      pop\n      dup2\n      jump\t// out\n        /* \"Tokens/MintableBurnable.sol\":2555:2705  function approve(address spender, uint256 amount) public returns (bool) {... */\n    tag_43:\n        /* \"Tokens/MintableBurnable.sol\":2621:2625  bool */\n      0x00\n        /* \"Tokens/MintableBurnable.sol\":2638:2675  _approve(msg.sender, spender, amount) */\n      tag_118\n        /* \"Tokens/MintableBurnable.sol\":2647:2657  msg.sender */\n      caller\n        /* \"Tokens/MintableBurnable.sol\":2659:2666  spender */\n      dup5\n        /* \"Tokens/MintableBurnable.sol\":2668:2674  amount */\n      dup5\n        /* \"Tokens/MintableBurnable.sol\":2638:2646  _approve */\n      tag_119\n        /* \"Tokens/MintableBurnable.sol\":2638:2675  _approve(msg.sender, spender, amount) */\n      jump\t// in\n    tag_118:\n        /* \"Tokens/MintableBurnable.sol\":2693:2697  true */\n      0x01\n        /* \"Tokens/MintableBurnable.sol\":2686:2697  return true */\n      swap1\n      pop\n        /* \"Tokens/MintableBurnable.sol\":2555:2705  function approve(address spender, uint256 amount) public returns (bool) {... */\n      swap3\n      swap2\n      pop\n      pop\n      jump\t// out\n        /* \"Tokens/MintableBurnable.sol\":218:244  uint256 public totalSupply */\n    tag_46:\n      sload(0x03)\n      dup2\n      jump\t// out\n        /* \"Tokens/MintableBurnable.sol\":2717:2923  function transferFrom(address from, address to, uint256 amount) public returns (bool) {... */\n    tag_52:\n        /* \"Tokens/MintableBurnable.sol\":2797:2801  bool */\n      0x00\n        /* \"Tokens/MintableBurnable.sol\":2814:2855  _spendAllowance(from, msg.sender, amount) */\n      tag_121\n        /* \"Tokens/MintableBurnable.sol\":2830:2834  from */\n      dup5\n        /* \"Tokens/MintableBurnable.sol\":2836:2846  msg.sender */\n      caller\n        /* \"Tokens/MintableBurnable.sol\":2848:2854  amount */\n      dup5\n        /* \"Tokens/MintableBurnable.sol\":2814:2829  _spendAllowance */\n      tag_122\n        /* \"Tokens/MintableBurnable.sol\":2814:2855  _spendAllowance(from, msg.sender, amount) */\n      jump\t// in\n    tag_121:\n        /* \"Tokens/MintableBurnable.sol\":2866:2893  _transfer(from, to, amount) */\n      tag_123\n        /* \"Tokens/MintableBurnable.sol\":2876:2880  from */\n      dup5\n        /* \"Tokens/MintableBurnable.sol\":2882:2884  to */\n      dup5\n        /* \"Tokens/MintableBurnable.sol\":2886:2892  amount */\n      dup5\n        /* \"Tokens/MintableBurnable.sol\":2866:2875  _transfer */\n      tag_124\n        /* \"Tokens/MintableBurnable.sol\":2866:2893  _transfer(from, to, amount) */\n      jump\t// in\n    tag_123:\n        /* \"Tokens/MintableBurnable.sol\":2911:2915  true */\n      0x01\n        /* \"Tokens/MintableBurnable.sol\":2904:2915  return true */\n      swap1\n      pop\n        /* \"Tokens/MintableBurnable.sol\":2717:2923  function transferFrom(address from, address to, uint256 amount) public returns (bool) {... */\n      swap4\n      swap3\n      pop\n      pop\n      pop\n      jump\t// out\n        /* \"Tokens/MintableBurnable.sol\":4442:4586  function removeMinter(address account) public onlyOwner {... */\n    tag_56:\n        /* \"Tokens/MintableBurnable.sol\":1282:1287  owner */\n      0x07\n      0x00\n      swap1\n      sload\n      swap1\n      0x0100\n      exp\n      swap1\n      div\n      0xffffffffffffffffffffffffffffffffffffffff\n      and\n        /* \"Tokens/MintableBurnable.sol\":1268:1287  msg.sender != owner */\n      0xffffffffffffffffffffffffffffffffffffffff\n      and\n        /* \"Tokens/MintableBurnable.sol\":1268:1278  msg.sender */\n      caller\n        /* \"Tokens/MintableBurnable.sol\":1268:1287  msg.sender != owner */\n      0xffffffffffffffffffffffffffffffffffffffff\n      and\n      eq\n        /* \"Tokens/MintableBurnable.sol\":1264:1306  if (msg.sender != owner) revert NotOwner() */\n      tag_126\n      jumpi\n        /* \"Tokens/MintableBurnable.sol\":1296:1306  NotOwner() */\n      mload(0x40)\n      0x30cd747100000000000000000000000000000000000000000000000000000000\n      dup2\n      mstore\n      0x04\n      add\n      mload(0x40)\n      dup1\n      swap2\n      sub\n      swap1\n      revert\n        /* \"Tokens/MintableBurnable.sol\":1264:1306  if (msg.sender != owner) revert NotOwner() */\n    tag_126:\n        /* \"Tokens/MintableBurnable.sol\":4528:4533  false */\n      0x00\n        /* \"Tokens/MintableBurnable.sol\":4509:4516  minters */\n      0x08\n        /* \"Tokens/MintableBurnable.sol\":4509:4525  minters[account] */\n      0x00\n        /* \"Tokens/MintableBurnable.sol\":4517:4524  account */\n      dup4\n        /* \"Tokens/MintableBurnable.sol\":4509:4525  minters[account] */\n      0xffffffffffffffffffffffffffffffffffffffff\n      and\n      0xffffffffffffffffffffffffffffffffffffffff\n      and\n      dup2\n      mstore\n      0x20\n      add\n      swap1\n      dup2\n      mstore\n      0x20\n      add\n      0x00\n      keccak256\n      0x00\n        /* \"Tokens/MintableBurnable.sol\":4509:4533  minters[account] = false */\n      0x0100\n      exp\n      dup2\n      sload\n      dup2\n      0xff\n      mul\n      not\n      and\n      swap1\n      dup4\n      iszero\n      iszero\n      mul\n      or\n      swap1\n      sstore\n      pop\n        /* \"Tokens/MintableBurnable.sol\":4563:4570  account */\n      dup1\n        /* \"Tokens/MintableBurnable.sol\":4549:4578  MinterUpdated(account, false) */\n      0xffffffffffffffffffffffffffffffffffffffff\n      and\n      0xb21afb9ce9be0a676f8f317ff0ca072fb89a4f8ce2d1b6fe80f8755c14f1cb19\n        /* \"Tokens/MintableBurnable.sol\":4572:4577  false */\n      0x00\n        /* \"Tokens/MintableBurnable.sol\":4549:4578  MinterUpdated(account, false) */\n      mload(0x40)\n      tag_128\n      swap2\n      swap1\n      tag_35\n      jump\t// in\n    tag_128:\n      mload(0x40)\n      dup1\n      swap2\n      sub\n      swap1\n      log2\n        /* \"Tokens/MintableBurnable.sol\":4442:4586  function removeMinter(address account) public onlyOwner {... */\n      pop\n      jump\t// out\n        /* \"Tokens/MintableBurnable.sol\":190:211  uint8 public decimals */\n    tag_58:\n      0x02\n      0x00\n      swap1\n      sload\n      swap1\n      0x0100\n      exp\n      swap1\n      div\n      0xff\n      and\n      dup2\n      jump\t// out\n        /* \"Tokens/MintableBurnable.sol\":2973:3069  function mint(address to, uint256 amount) public onlyMinter {... */\n    tag_63:\n        /* \"Tokens/MintableBurnable.sol\":1376:1383  minters */\n      0x08\n        /* \"Tokens/MintableBurnable.sol\":1376:1395  minters[msg.sender] */\n      0x00\n        /* \"Tokens/MintableBurnable.sol\":1384:1394  msg.sender */\n      caller\n        /* \"Tokens/MintableBurnable.sol\":1376:1395  minters[msg.sender] */\n      0xffffffffffffffffffffffffffffffffffffffff\n      and\n      0xffffffffffffffffffffffffffffffffffffffff\n      and\n      dup2\n      mstore\n      0x20\n      add\n      swap1\n      dup2\n      mstore\n      0x20\n      add\n      0x00\n      keccak256\n      0x00\n      swap1\n      sload\n      swap1\n      0x0100\n      exp\n      swap1\n      div\n      0xff\n      and\n        /* \"Tokens/MintableBurnable.sol\":1371:1415  if (!minters[msg.sender]) revert NotMinter() */\n      tag_130\n      jumpi\n        /* \"Tokens/MintableBurnable.sol\":1404:1415  NotMinter() */\n      mload(0x40)\n      0xf8d2906c00000000000000000000000000000000000000000000000000000000\n      dup2\n      mstore\n      0x04\n      add\n      mload(0x40)\n      dup1\n      swap2\n      sub\n      swap1\n      revert\n        /* \"Tokens/MintableBurnable.sol\":1371:1415  if (!minters[msg.sender]) revert NotMinter() */\n    tag_130:\n        /* \"Tokens/MintableBurnable.sol\":3044:3061  _mint(to, amount) */\n      tag_132\n        /* \"Tokens/MintableBurnable.sol\":3050:3052  to */\n      dup3\n        /* \"Tokens/MintableBurnable.sol\":3054:3060  amount */\n      dup3\n        /* \"Tokens/MintableBurnable.sol\":3044:3049  _mint */\n      tag_133\n        /* \"Tokens/MintableBurnable.sol\":3044:3061  _mint(to, amount) */\n      jump\t// in\n    tag_132:\n        /* \"Tokens/MintableBurnable.sol\":2973:3069  function mint(address to, uint256 amount) public onlyMinter {... */\n      pop\n      pop\n      jump\t// out\n        /* \"Tokens/MintableBurnable.sol\":3551:3632  function burn(uint256 amount) public {... */\n    tag_67:\n        /* \"Tokens/MintableBurnable.sol\":3599:3624  _burn(msg.sender, amount) */\n      tag_135\n        /* \"Tokens/MintableBurnable.sol\":3605:3615  msg.sender */\n      caller\n        /* \"Tokens/MintableBurnable.sol\":3617:3623  amount */\n      dup3\n        /* \"Tokens/MintableBurnable.sol\":3599:3604  _burn */\n      tag_136\n        /* \"Tokens/MintableBurnable.sol\":3599:3624  _burn(msg.sender, amount) */\n      jump\t// in\n    tag_135:\n        /* \"Tokens/MintableBurnable.sol\":3551:3632  function burn(uint256 amount) public {... */\n      pop\n      jump\t// out\n        /* \"Tokens/MintableBurnable.sol\":2131:2241  function balanceOf(address account) public view returns (uint256) {... */\n    tag_70:\n        /* \"Tokens/MintableBurnable.sol\":2188:2195  uint256 */\n      0x00\n        /* \"Tokens/MintableBurnable.sol\":2215:2224  _balances */\n      0x05\n        /* \"Tokens/MintableBurnable.sol\":2215:2233  _balances[account] */\n      0x00\n        /* \"Tokens/MintableBurnable.sol\":2225:2232  account */\n      dup4\n        /* \"Tokens/MintableBurnable.sol\":2215:2233  _balances[account] */\n      0xffffffffffffffffffffffffffffffffffffffff\n      and\n      0xffffffffffffffffffffffffffffffffffffffff\n      and\n      dup2\n      mstore\n      0x20\n      add\n      swap1\n      dup2\n      mstore\n      0x20\n      add\n      0x00\n      keccak256\n      sload\n        /* \"Tokens/MintableBurnable.sol\":2208:2233  return _balances[account] */\n      swap1\n      pop\n        /* \"Tokens/MintableBurnable.sol\":2131:2241  function balanceOf(address account) public view returns (uint256) {... */\n      swap2\n      swap1\n      pop\n      jump\t// out\n        /* \"Tokens/MintableBurnable.sol\":3644:3800  function burnFrom(address from, uint256 amount) public onlyBurner {... */\n    tag_74:\n        /* \"Tokens/MintableBurnable.sol\":1485:1492  burners */\n      0x09\n        /* \"Tokens/MintableBurnable.sol\":1485:1504  burners[msg.sender] */\n      0x00\n        /* \"Tokens/MintableBurnable.sol\":1493:1503  msg.sender */\n      caller\n        /* \"Tokens/MintableBurnable.sol\":1485:1504  burners[msg.sender] */\n      0xffffffffffffffffffffffffffffffffffffffff\n      and\n      0xffffffffffffffffffffffffffffffffffffffff\n      and\n      dup2\n      mstore\n      0x20\n      add\n      swap1\n      dup2\n      mstore\n      0x20\n      add\n      0x00\n      keccak256\n      0x00\n      swap1\n      sload\n      swap1\n      0x0100\n      exp\n      swap1\n      div\n      0xff\n      and\n        /* \"Tokens/MintableBurnable.sol\":1480:1524  if (!burners[msg.sender]) revert NotBurner() */\n      tag_139\n      jumpi\n        /* \"Tokens/MintableBurnable.sol\":1513:1524  NotBurner() */\n      mload(0x40)\n      0xf019b1af00000000000000000000000000000000000000000000000000000000\n      dup2\n      mstore\n      0x04\n      add\n      mload(0x40)\n      dup1\n      swap2\n      sub\n      swap1\n      revert\n        /* \"Tokens/MintableBurnable.sol\":1480:1524  if (!burners[msg.sender]) revert NotBurner() */\n    tag_139:\n        /* \"Tokens/MintableBurnable.sol\":3721:3762  _spendAllowance(from, msg.sender, amount) */\n      tag_141\n        /* \"Tokens/MintableBurnable.sol\":3737:3741  from */\n      dup3\n        /* \"Tokens/MintableBurnable.sol\":3743:3753  msg.sender */\n      caller\n        /* \"Tokens/MintableBurnable.sol\":3755:3761  amount */\n      dup4\n        /* \"Tokens/MintableBurnable.sol\":3721:3736  _spendAllowance */\n      tag_122\n        /* \"Tokens/MintableBurnable.sol\":3721:3762  _spendAllowance(from, msg.sender, amount) */\n      jump\t// in\n    tag_141:\n        /* \"Tokens/MintableBurnable.sol\":3773:3792  _burn(from, amount) */\n      tag_142\n        /* \"Tokens/MintableBurnable.sol\":3779:3783  from */\n      dup3\n        /* \"Tokens/MintableBurnable.sol\":3785:3791  amount */\n      dup3\n        /* \"Tokens/MintableBurnable.sol\":3773:3778  _burn */\n      tag_136\n        /* \"Tokens/MintableBurnable.sol\":3773:3792  _burn(from, amount) */\n      jump\t// in\n    tag_142:\n        /* \"Tokens/MintableBurnable.sol\":3644:3800  function burnFrom(address from, uint256 amount) public onlyBurner {... */\n      pop\n      pop\n      jump\t// out\n        /* \"Tokens/MintableBurnable.sol\":464:484  address public owner */\n    tag_76:\n      0x07\n      0x00\n      swap1\n      sload\n      swap1\n      0x0100\n      exp\n      swap1\n      div\n      0xffffffffffffffffffffffffffffffffffffffff\n      and\n      dup2\n      jump\t// out\n        /* \"Tokens/MintableBurnable.sol\":163:183  string public symbol */\n    tag_80:\n      0x01\n      dup1\n      sload\n      tag_143\n      swap1\n      tag_112\n      jump\t// in\n    tag_143:\n      dup1\n      0x1f\n      add\n      0x20\n      dup1\n      swap2\n      div\n      mul\n      0x20\n      add\n      mload(0x40)\n      swap1\n      dup2\n      add\n      0x40\n      mstore\n      dup1\n      swap3\n      swap2\n      swap1\n      dup2\n      dup2\n      mstore\n      0x20\n      add\n      dup3\n      dup1\n      sload\n      tag_144\n      swap1\n      tag_112\n      jump\t// in\n    tag_144:\n      dup1\n      iszero\n      tag_145\n      jumpi\n      dup1\n      0x1f\n      lt\n      tag_146\n      jumpi\n      0x0100\n      dup1\n      dup4\n      sload\n      div\n      mul\n      dup4\n      mstore\n      swap2\n      0x20\n      add\n      swap2\n      jump(tag_145)\n    tag_146:\n      dup3\n      add\n      swap2\n      swap1\n      0x00\n      mstore\n      keccak256(0x00, 0x20)\n      swap1\n    tag_147:\n      dup2\n      sload\n      dup2\n      mstore\n      swap1\n      0x01\n      add\n      swap1\n      0x20\n      add\n      dup1\n      dup4\n      gt\n      tag_147\n      jumpi\n      dup3\n      swap1\n      sub\n      0x1f\n      and\n      dup3\n      add\n      swap2\n    tag_145:\n      pop\n      pop\n      pop\n      pop\n      pop\n      dup2\n      jump\t// out\n        /* \"Tokens/MintableBurnable.sol\":4291:4430  function addMinter(address account) public onlyOwner {... */\n    tag_84:\n        /* \"Tokens/MintableBurnable.sol\":1282:1287  owner */\n      0x07\n      0x00\n      swap1\n      sload\n      swap1\n      0x0100\n      exp\n      swap1\n      div\n      0xffffffffffffffffffffffffffffffffffffffff\n      and\n        /* \"Tokens/MintableBurnable.sol\":1268:1287  msg.sender != owner */\n      0xffffffffffffffffffffffffffffffffffffffff\n      and\n        /* \"Tokens/MintableBurnable.sol\":1268:1278  msg.sender */\n      caller\n        /* \"Tokens/MintableBurnable.sol\":1268:1287  msg.sender != owner */\n      0xffffffffffffffffffffffffffffffffffffffff\n      and\n      eq\n        /* \"Tokens/MintableBurnable.sol\":1264:1306  if (msg.sender != owner) revert NotOwner() */\n      tag_149\n      jumpi\n        /* \"Tokens/MintableBurnable.sol\":1296:1306  NotOwner() */\n      mload(0x40)\n      0x30cd747100000000000000000000000000000000000000000000000000000000\n      dup2\n      mstore\n      0x04\n      add\n      mload(0x40)\n      dup1\n      swap2\n      sub\n      swap1\n      revert\n        /* \"Tokens/MintableBurnable.sol\":1264:1306  if (msg.sender != owner) revert NotOwner() */\n    tag_149:\n        /* \"Tokens/MintableBurnable.sol\":4374:4378  true */\n      0x01\n        /* \"Tokens/MintableBurnable.sol\":4355:4362  minters */\n      0x08\n        /* \"Tokens/MintableBurnable.sol\":4355:4371  minters[account] */\n      0x00\n        /* \"Tokens/MintableBurnable.sol\":4363:4370  account */\n      dup4\n        /* \"Tokens/MintableBurnable.sol\":4355:4371  minters[account] */\n      0xffffffffffffffffffffffffffffffffffffffff\n      and\n      0xffffffffffffffffffffffffffffffffffffffff\n      and\n      dup2\n      mstore\n      0x20\n      add\n      swap1\n      dup2\n      mstore\n      0x20\n      add\n      0x00\n      keccak256\n      0x00\n        /* \"Tokens/MintableBurnable.sol\":4355:4378  minters[account] = true */\n      0x0100\n      exp\n      dup2\n      sload\n      dup2\n      0xff\n      mul\n      not\n      and\n      swap1\n      dup4\n      iszero\n      iszero\n      mul\n      or\n      swap1\n      sstore\n      pop\n        /* \"Tokens/MintableBurnable.sol\":4408:4415  account */\n      dup1\n        /* \"Tokens/MintableBurnable.sol\":4394:4422  MinterUpdated(account, true) */\n      0xffffffffffffffffffffffffffffffffffffffff\n      and\n      0xb21afb9ce9be0a676f8f317ff0ca072fb89a4f8ce2d1b6fe80f8755c14f1cb19\n        /* \"Tokens/MintableBurnable.sol\":4417:4421  true */\n      0x01\n        /* \"Tokens/MintableBurnable.sol\":4394:4422  MinterUpdated(account, true) */\n      mload(0x40)\n      tag_151\n      swap2\n      swap1\n      tag_35\n      jump\t// in\n    tag_151:\n      mload(0x40)\n      dup1\n      swap2\n      sub\n      swap1\n      log2\n        /* \"Tokens/MintableBurnable.sol\":4291:4430  function addMinter(address account) public onlyOwner {... */\n      pop\n      jump\t// out\n        /* \"Tokens/MintableBurnable.sol\":2253:2395  function transfer(address to, uint256 amount) public returns (bool) {... */\n    tag_87:\n        /* \"Tokens/MintableBurnable.sol\":2315:2319  bool */\n      0x00\n        /* \"Tokens/MintableBurnable.sol\":2332:2365  _transfer(msg.sender, to, amount) */\n      tag_153\n        /* \"Tokens/MintableBurnable.sol\":2342:2352  msg.sender */\n      caller\n        /* \"Tokens/MintableBurnable.sol\":2354:2356  to */\n      dup5\n        /* \"Tokens/MintableBurnable.sol\":2358:2364  amount */\n      dup5\n        /* \"Tokens/MintableBurnable.sol\":2332:2341  _transfer */\n      tag_124\n        /* \"Tokens/MintableBurnable.sol\":2332:2365  _transfer(msg.sender, to, amount) */\n      jump\t// in\n    tag_153:\n        /* \"Tokens/MintableBurnable.sol\":2383:2387  true */\n      0x01\n        /* \"Tokens/MintableBurnable.sol\":2376:2387  return true */\n      swap1\n      pop\n        /* \"Tokens/MintableBurnable.sol\":2253:2395  function transfer(address to, uint256 amount) public returns (bool) {... */\n      swap3\n      swap2\n      pop\n      pop\n      jump\t// out\n        /* \"Tokens/MintableBurnable.sol\":251:275  uint256 public maxSupply */\n    tag_90:\n      sload(0x04)\n      dup2\n      jump\t// out\n        /* \"Tokens/MintableBurnable.sol\":2407:2543  function allowance(address owner1, address spender) public view returns (uint256) {... */\n    tag_95:\n        /* \"Tokens/MintableBurnable.sol\":2480:2487  uint256 */\n      0x00\n        /* \"Tokens/MintableBurnable.sol\":2507:2518  _allowances */\n      0x06\n        /* \"Tokens/MintableBurnable.sol\":2507:2526  _allowances[owner1] */\n      0x00\n        /* \"Tokens/MintableBurnable.sol\":2519:2525  owner1 */\n      dup5\n        /* \"Tokens/MintableBurnable.sol\":2507:2526  _allowances[owner1] */\n      0xffffffffffffffffffffffffffffffffffffffff\n      and\n      0xffffffffffffffffffffffffffffffffffffffff\n      and\n      dup2\n      mstore\n      0x20\n      add\n      swap1\n      dup2\n      mstore\n      0x20\n      add\n      0x00\n      keccak256\n        /* \"Tokens/MintableBurnable.sol\":2507:2535  _allowances[owner1][spender] */\n      0x00\n        /* \"Tokens/MintableBurnable.sol\":2527:2534  spender */\n      dup4\n        /* \"Tokens/MintableBurnable.sol\":2507:2535  _allowances[owner1][spender] */\n      0xffffffffffffffffffffffffffffffffffffffff\n      and\n      0xffffffffffffffffffffffffffffffffffffffff\n      and\n      dup2\n      mstore\n      0x20\n      add\n      swap1\n      dup2\n      mstore\n      0x20\n      add\n      0x00\n      keccak256\n      sload\n        /* \"Tokens/MintableBurnable.sol\":2500:2535  return _allowances[owner1][spender] */\n      swap1\n      pop\n        /* \"Tokens/MintableBurnable.sol\":2407:2543  function allowance(address owner1, address spender) public view returns (uint256) {... */\n      swap3\n      swap2\n      pop\n      pop\n      jump\t// out\n        /* \"Tokens/MintableBurnable.sol\":4905:5061  function transferOwnership(address newOwner) public onlyOwner {... */\n    tag_99:\n        /* \"Tokens/MintableBurnable.sol\":1282:1287  owner */\n      0x07\n      0x00\n      swap1\n      sload\n      swap1\n      0x0100\n      exp\n      swap1\n      div\n      0xffffffffffffffffffffffffffffffffffffffff\n      and\n        /* \"Tokens/MintableBurnable.sol\":1268:1287  msg.sender != owner */\n      0xffffffffffffffffffffffffffffffffffffffff\n      and\n        /* \"Tokens/MintableBurnable.sol\":1268:1278  msg.sender */\n      caller\n        /* \"Tokens/MintableBurnable.sol\":1268:1287  msg.sender != owner */\n      0xffffffffffffffffffffffffffffffffffffffff\n      and\n      eq\n        /* \"Tokens/MintableBurnable.sol\":1264:1306  if (msg.sender != owner) revert NotOwner() */\n      tag_156\n      jumpi\n        /* \"Tokens/MintableBurnable.sol\":1296:1306  NotOwner() */\n      mload(0x40)\n      0x30cd747100000000000000000000000000000000000000000000000000000000\n      dup2\n      mstore\n      0x04\n      add\n      mload(0x40)\n      dup1\n      swap2\n      sub\n      swap1\n      revert\n        /* \"Tokens/MintableBurnable.sol\":1264:1306  if (msg.sender != owner) revert NotOwner() */\n    tag_156:\n        /* \"Tokens/MintableBurnable.sol\":5002:5003  0 */\n      0x00\n        /* \"Tokens/MintableBurnable.sol\":4982:5004  newOwner == address(0) */\n      0xffffffffffffffffffffffffffffffffffffffff\n      and\n        /* \"Tokens/MintableBurnable.sol\":4982:4990  newOwner */\n      dup2\n        /* \"Tokens/MintableBurnable.sol\":4982:5004  newOwner == address(0) */\n      0xffffffffffffffffffffffffffffffffffffffff\n      and\n      sub\n        /* \"Tokens/MintableBurnable.sol\":4978:5026  if (newOwner == address(0)) revert ZeroAddress() */\n      tag_158\n      jumpi\n        /* \"Tokens/MintableBurnable.sol\":5013:5026  ZeroAddress() */\n      mload(0x40)\n      0xd92e233d00000000000000000000000000000000000000000000000000000000\n      dup2\n      mstore\n      0x04\n      add\n      mload(0x40)\n      dup1\n      swap2\n      sub\n      swap1\n      revert\n        /* \"Tokens/MintableBurnable.sol\":4978:5026  if (newOwner == address(0)) revert ZeroAddress() */\n    tag_158:\n        /* \"Tokens/MintableBurnable.sol\":5045:5053  newOwner */\n      dup1\n        /* \"Tokens/MintableBurnable.sol\":5037:5042  owner */\n      0x07\n      0x00\n        /* \"Tokens/MintableBurnable.sol\":5037:5053  owner = newOwner */\n      0x0100\n      exp\n      dup2\n      sload\n      dup2\n      0xffffffffffffffffffffffffffffffffffffffff\n      mul\n      not\n      and\n      swap1\n      dup4\n      0xffffffffffffffffffffffffffffffffffffffff\n      and\n      mul\n      or\n      swap1\n      sstore\n      pop\n        /* \"Tokens/MintableBurnable.sol\":4905:5061  function transferOwnership(address newOwner) public onlyOwner {... */\n      pop\n      jump\t// out\n        /* \"Tokens/MintableBurnable.sol\":4598:4737  function addBurner(address account) public onlyOwner {... */\n    tag_102:\n        /* \"Tokens/MintableBurnable.sol\":1282:1287  owner */\n      0x07\n      0x00\n      swap1\n      sload\n      swap1\n      0x0100\n      exp\n      swap1\n      div\n      0xffffffffffffffffffffffffffffffffffffffff\n      and\n        /* \"Tokens/MintableBurnable.sol\":1268:1287  msg.sender != owner */\n      0xffffffffffffffffffffffffffffffffffffffff\n      and\n        /* \"Tokens/MintableBurnable.sol\":1268:1278  msg.sender */\n      caller\n        /* \"Tokens/MintableBurnable.sol\":1268:1287  msg.sender != owner */\n      0xffffffffffffffffffffffffffffffffffffffff\n      and\n      eq\n        /* \"Tokens/MintableBurnable.sol\":1264:1306  if (msg.sender != owner) revert NotOwner() */\n      tag_160\n      jumpi\n        /* \"Tokens/MintableBurnable.sol\":1296:1306  NotOwner() */\n      mload(0x40)\n      0x30cd747100000000000000000000000000000000000000000000000000000000\n      dup2\n      mstore\n      0x04\n      add\n      mload(0x40)\n      dup1\n      swap2\n      sub\n      swap1\n      revert\n        /* \"Tokens/MintableBurnable.sol\":1264:1306  if (msg.sender != owner) revert NotOwner() */\n    tag_160:\n        /* \"Tokens/MintableBurnable.sol\":4681:4685  true */\n      0x01\n        /* \"Tokens/MintableBurnable.sol\":4662:4669  burners */\n      0x09\n        /* \"Tokens/MintableBurnable.sol\":4662:4678  burners[account] */\n      0x00\n        /* \"Tokens/MintableBurnable.sol\":4670:4677  account */\n      dup4\n        /* \"Tokens/MintableBurnable.sol\":4662:4678  burners[account] */\n      0xffffffffffffffffffffffffffffffffffffffff\n      and\n      0xffffffffffffffffffffffffffffffffffffffff\n      and\n      dup2\n      mstore\n      0x20\n      add\n      swap1\n      dup2\n      mstore\n      0x20\n      add\n      0x00\n      keccak256\n      0x00\n        /* \"Tokens/MintableBurnable.sol\":4662:4685  burners[account] = true */\n      0x0100\n      exp\n      dup2\n      sload\n      dup2\n      0xff\n      mul\n      not\n      and\n      swap1\n      dup4\n      iszero\n      iszero\n      mul\n      or\n      swap1\n      sstore\n      pop\n        /* \"Tokens/MintableBurnable.sol\":4715:4722  account */\n      dup1\n        /* \"Tokens/MintableBurnable.sol\":4701:4729  BurnerUpdated(account, true) */\n      0xffffffffffffffffffffffffffffffffffffffff\n      and\n      0xf0e5abe4ab32ea692e3889b4c146fd4ddae5f17bb40ab4feba97fb67a2d4de0f\n        /* \"Tokens/MintableBurnable.sol\":4724:4728  true */\n      0x01\n        /* \"Tokens/MintableBurnable.sol\":4701:4729  BurnerUpdated(account, true) */\n      mload(0x40)\n      tag_162\n      swap2\n      swap1\n      tag_35\n      jump\t// in\n    tag_162:\n      mload(0x40)\n      dup1\n      swap2\n      sub\n      swap1\n      log2\n        /* \"Tokens/MintableBurnable.sol\":4598:4737  function addBurner(address account) public onlyOwner {... */\n      pop\n      jump\t// out\n        /* \"Tokens/MintableBurnable.sol\":491:530  mapping(address => bool) public minters */\n    tag_105:\n      mstore(0x20, 0x08)\n      dup1\n      0x00\n      mstore\n      keccak256(0x00, 0x40)\n      0x00\n      swap2\n      pop\n      sload\n      swap1\n      0x0100\n      exp\n      swap1\n      div\n      0xff\n      and\n      dup2\n      jump\t// out\n        /* \"Tokens/MintableBurnable.sol\":5599:5903  function _approve(address owner2, address spender, uint256 amount) internal {... */\n    tag_119:\n        /* \"Tokens/MintableBurnable.sol\":5708:5709  0 */\n      0x00\n        /* \"Tokens/MintableBurnable.sol\":5690:5710  owner2 == address(0) */\n      0xffffffffffffffffffffffffffffffffffffffff\n      and\n        /* \"Tokens/MintableBurnable.sol\":5690:5696  owner2 */\n      dup4\n        /* \"Tokens/MintableBurnable.sol\":5690:5710  owner2 == address(0) */\n      0xffffffffffffffffffffffffffffffffffffffff\n      and\n      sub\n        /* \"Tokens/MintableBurnable.sol\":5686:5732  if (owner2 == address(0)) revert ZeroAddress() */\n      tag_164\n      jumpi\n        /* \"Tokens/MintableBurnable.sol\":5719:5732  ZeroAddress() */\n      mload(0x40)\n      0xd92e233d00000000000000000000000000000000000000000000000000000000\n      dup2\n      mstore\n      0x04\n      add\n      mload(0x40)\n      dup1\n      swap2\n      sub\n      swap1\n      revert\n        /* \"Tokens/MintableBurnable.sol\":5686:5732  if (owner2 == address(0)) revert ZeroAddress() */\n    tag_164:\n        /* \"Tokens/MintableBurnable.sol\":5766:5767  0 */\n      0x00\n        /* \"Tokens/MintableBurnable.sol\":5747:5768  spender == address(0) */\n      0xffffffffffffffffffffffffffffffffffffffff\n      and\n        /* \"Tokens/MintableBurnable.sol\":5747:5754  spender */\n      dup3\n        /* \"Tokens/MintableBurnable.sol\":5747:5768  spender == address(0) */\n      0xffffffffffffffffffffffffffffffffffffffff\n      and\n      sub\n        /* \"Tokens/MintableBurnable.sol\":5743:5790  if (spender == address(0)) revert ZeroAddress() */\n      tag_165\n      jumpi\n        /* \"Tokens/MintableBurnable.sol\":5777:5790  ZeroAddress() */\n      mload(0x40)\n      0xd92e233d00000000000000000000000000000000000000000000000000000000\n      dup2\n      mstore\n      0x04\n      add\n      mload(0x40)\n      dup1\n      swap2\n      sub\n      swap1\n      revert\n        /* \"Tokens/MintableBurnable.sol\":5743:5790  if (spender == address(0)) revert ZeroAddress() */\n    tag_165:\n        /* \"Tokens/MintableBurnable.sol\":5841:5847  amount */\n      dup1\n        /* \"Tokens/MintableBurnable.sol\":5811:5822  _allowances */\n      0x06\n        /* \"Tokens/MintableBurnable.sol\":5811:5829  _allowances[owner] */\n      0x00\n        /* \"Tokens/MintableBurnable.sol\":5823:5828  owner */\n      0x07\n      0x00\n      swap1\n      sload\n      swap1\n      0x0100\n      exp\n      swap1\n      div\n      0xffffffffffffffffffffffffffffffffffffffff\n      and\n        /* \"Tokens/MintableBurnable.sol\":5811:5829  _allowances[owner] */\n      0xffffffffffffffffffffffffffffffffffffffff\n      and\n      0xffffffffffffffffffffffffffffffffffffffff\n      and\n      dup2\n      mstore\n      0x20\n      add\n      swap1\n      dup2\n      mstore\n      0x20\n      add\n      0x00\n      keccak256\n        /* \"Tokens/MintableBurnable.sol\":5811:5838  _allowances[owner][spender] */\n      0x00\n        /* \"Tokens/MintableBurnable.sol\":5830:5837  spender */\n      dup5\n        /* \"Tokens/MintableBurnable.sol\":5811:5838  _allowances[owner][spender] */\n      0xffffffffffffffffffffffffffffffffffffffff\n      and\n      0xffffffffffffffffffffffffffffffffffffffff\n      and\n      dup2\n      mstore\n      0x20\n      add\n      swap1\n      dup2\n      mstore\n      0x20\n      add\n      0x00\n      keccak256\n        /* \"Tokens/MintableBurnable.sol\":5811:5847  _allowances[owner][spender] = amount */\n      dup2\n      swap1\n      sstore\n      pop\n        /* \"Tokens/MintableBurnable.sol\":5879:5886  spender */\n      dup2\n        /* \"Tokens/MintableBurnable.sol\":5863:5895  Approval(owner, spender, amount) */\n      0xffffffffffffffffffffffffffffffffffffffff\n      and\n        /* \"Tokens/MintableBurnable.sol\":5872:5877  owner */\n      0x07\n      0x00\n      swap1\n      sload\n      swap1\n      0x0100\n      exp\n      swap1\n      div\n      0xffffffffffffffffffffffffffffffffffffffff\n      and\n        /* \"Tokens/MintableBurnable.sol\":5863:5895  Approval(owner, spender, amount) */\n      0xffffffffffffffffffffffffffffffffffffffff\n      and\n      0x8c5be1e5ebec7d5bd14f71427d1e84f3dd0314c0f7b2291e5b200ac8c7c3b925\n        /* \"Tokens/MintableBurnable.sol\":5888:5894  amount */\n      dup4\n        /* \"Tokens/MintableBurnable.sol\":5863:5895  Approval(owner, spender, amount) */\n      mload(0x40)\n      tag_166\n      swap2\n      swap1\n      tag_48\n      jump\t// in\n    tag_166:\n      mload(0x40)\n      dup1\n      swap2\n      sub\n      swap1\n      log3\n        /* \"Tokens/MintableBurnable.sol\":5599:5903  function _approve(address owner2, address spender, uint256 amount) internal {... */\n      pop\n      pop\n      pop\n      jump\t// out\n        /* \"Tokens/MintableBurnable.sol\":5915:6276  function _spendAllowance(address owner3, address spender, uint256 amount) internal {... */\n    tag_122:\n        /* \"Tokens/MintableBurnable.sol\":6009:6033  uint256 currentAllowance */\n      0x00\n        /* \"Tokens/MintableBurnable.sol\":6036:6062  allowance(owner3, spender) */\n      tag_168\n        /* \"Tokens/MintableBurnable.sol\":6046:6052  owner3 */\n      dup5\n        /* \"Tokens/MintableBurnable.sol\":6054:6061  spender */\n      dup5\n        /* \"Tokens/MintableBurnable.sol\":6036:6045  allowance */\n      tag_95\n        /* \"Tokens/MintableBurnable.sol\":6036:6062  allowance(owner3, spender) */\n      jump\t// in\n    tag_168:\n        /* \"Tokens/MintableBurnable.sol\":6009:6062  uint256 currentAllowance = allowance(owner3, spender) */\n      swap1\n      pop\n        /* \"Tokens/MintableBurnable.sol\":6097:6114  type(uint256).max */\n      0xffffffffffffffffffffffffffffffffffffffffffffffffffffffffffffffff\n        /* \"Tokens/MintableBurnable.sol\":6077:6093  currentAllowance */\n      dup2\n        /* \"Tokens/MintableBurnable.sol\":6077:6114  currentAllowance != type(uint256).max */\n      eq\n        /* \"Tokens/MintableBurnable.sol\":6073:6269  if (currentAllowance != type(uint256).max) {... */\n      tag_169\n      jumpi\n        /* \"Tokens/MintableBurnable.sol\":6154:6160  amount */\n      dup2\n        /* \"Tokens/MintableBurnable.sol\":6135:6151  currentAllowance */\n      dup2\n        /* \"Tokens/MintableBurnable.sol\":6135:6160  currentAllowance < amount */\n      lt\n        /* \"Tokens/MintableBurnable.sol\":6131:6190  if (currentAllowance < amount) revert InsufficientBalance() */\n      iszero\n      tag_170\n      jumpi\n        /* \"Tokens/MintableBurnable.sol\":6169:6190  InsufficientBalance() */\n      mload(0x40)\n      0xf4d678b800000000000000000000000000000000000000000000000000000000\n      dup2\n      mstore\n      0x04\n      add\n      mload(0x40)\n      dup1\n      swap2\n      sub\n      swap1\n      revert\n        /* \"Tokens/MintableBurnable.sol\":6131:6190  if (currentAllowance < amount) revert InsufficientBalance() */\n    tag_170:\n        /* \"Tokens/MintableBurnable.sol\":6205:6257  _approve(owner3, spender, currentAllowance - amount) */\n      tag_171\n        /* \"Tokens/MintableBurnable.sol\":6214:6220  owner3 */\n      dup5\n        /* \"Tokens/MintableBurnable.sol\":6222:6229  spender */\n      dup5\n        /* \"Tokens/MintableBurnable.sol\":6250:6256  amount */\n      dup5\n        /* \"Tokens/MintableBurnable.sol\":6231:6247  currentAllowance */\n      dup5\n        /* \"Tokens/MintableBurnable.sol\":6231:6256  currentAllowance - amount */\n      tag_172\n      swap2\n      swap1\n      tag_173\n      jump\t// in\n    tag_172:\n        /* \"Tokens/MintableBurnable.sol\":6205:6213  _approve */\n      tag_119\n        /* \"Tokens/MintableBurnable.sol\":6205:6257  _approve(owner3, spender, currentAllowance - amount) */\n      jump\t// in\n    tag_171:\n        /* \"Tokens/MintableBurnable.sol\":6073:6269  if (currentAllowance != type(uint256).max) {... */\n    tag_169:\n        /* \"Tokens/MintableBurnable.sol\":5998:6276  {... */\n      pop\n        /* \"Tokens/MintableBurnable.sol\":5915:6276  function _spendAllowance(address owner3, address spender, uint256 amount) internal {... */\n      pop\n      pop\n      pop\n      jump\t// out\n        /* \"Tokens/MintableBurnable.sol\":5133:5587  function _transfer(address from, address to, uint256 amount) internal {... */\n    tag_124:\n        /* \"Tokens/MintableBurnable.sol\":5234:5235  0 */\n      0x00\n        /* \"Tokens/MintableBurnable.sol\":5218:5236  from == address(0) */\n      0xffffffffffffffffffffffffffffffffffffffff\n      and\n        /* \"Tokens/MintableBurnable.sol\":5218:5222  from */\n      dup4\n        /* \"Tokens/MintableBurnable.sol\":5218:5236  from == address(0) */\n      0xffffffffffffffffffffffffffffffffffffffff\n      and\n      sub\n        /* \"Tokens/MintableBurnable.sol\":5214:5258  if (from == address(0)) revert ZeroAddress() */\n      tag_175\n      jumpi\n        /* \"Tokens/MintableBurnable.sol\":5245:5258  ZeroAddress() */\n      mload(0x40)\n      0xd92e233d00000000000000000000000000000000000000000000000000000000\n      dup2\n      mstore\n      0x04\n      add\n      mload(0x40)\n      dup1\n      swap2\n      sub\n      swap1\n      revert\n        /* \"Tokens/MintableBurnable.sol\":5214:5258  if (from == address(0)) revert ZeroAddress() */\n    tag_175:\n        /* \"Tokens/MintableBurnable.sol\":5287:5288  0 */\n      0x00\n        /* \"Tokens/MintableBurnable.sol\":5273:5289  to == address(0) */\n      0xffffffffffffffffffffffffffffffffffffffff\n      and\n        /* \"Tokens/MintableBurnable.sol\":5273:5275  to */\n      dup3\n        /* \"Tokens/MintableBurnable.sol\":5273:5289  to == address(0) */\n      0xffffffffffffffffffffffffffffffffffffffff\n      and\n      sub\n        /* \"Tokens/MintableBurnable.sol\":5269:5311  if (to == address(0)) revert ZeroAddress() */\n      tag_176\n      jumpi\n        /* \"Tokens/MintableBurnable.sol\":5298:5311  ZeroAddress() */\n      mload(0x40)\n      0xd92e233d00000000000000000000000000000000000000000000000000000000\n      dup2\n      mstore\n      0x04\n      add\n      mload(0x40)\n      dup1\n      swap2\n      sub\n      swap1\n      revert\n        /* \"Tokens/MintableBurnable.sol\":5269:5311  if (to == address(0)) revert ZeroAddress() */\n    tag_176:\n        /* \"Tokens/MintableBurnable.sol\":5332:5351  uint256 fromBalance */\n      0x00\n        /* \"Tokens/MintableBurnable.sol\":5354:5363  _balances */\n      0x05\n        /* \"Tokens/MintableBurnable.sol\":5354:5369  _balances[from] */\n      0x00\n        /* \"Tokens/MintableBurnable.sol\":5364:5368  from */\n      dup6\n        /* \"Tokens/MintableBurnable.sol\":5354:5369  _balances[from] */\n      0xffffffffffffffffffffffffffffffffffffffff\n      and\n      0xffffffffffffffffffffffffffffffffffffffff\n      and\n      dup2\n      mstore\n      0x20\n      add\n      swap1\n      dup2\n      mstore\n      0x20\n      add\n      0x00\n      keccak256\n      sload\n        /* \"Tokens/MintableBurnable.sol\":5332:5369  uint256 fromBalance = _balances[from] */\n      swap1\n      pop\n        /* \"Tokens/MintableBurnable.sol\":5398:5404  amount */\n      dup2\n        /* \"Tokens/MintableBurnable.sol\":5384:5395  fromBalance */\n      dup2\n        /* \"Tokens/MintableBurnable.sol\":5384:5404  fromBalance < amount */\n      lt\n        /* \"Tokens/MintableBurnable.sol\":5380:5434  if (fromBalance < amount) revert InsufficientBalance() */\n      iszero\n      tag_177\n      jumpi\n        /* \"Tokens/MintableBurnable.sol\":5413:5434  InsufficientBalance() */\n      mload(0x40)\n      0xf4d678b800000000000000000000000000000000000000000000000000000000\n      dup2\n      mstore\n      0x04\n      add\n      mload(0x40)\n      dup1\n      swap2\n      sub\n      swap1\n      revert\n        /* \"Tokens/MintableBurnable.sol\":5380:5434  if (fromBalance < amount) revert InsufficientBalance() */\n    tag_177:\n        /* \"Tokens/MintableBurnable.sol\":5487:5493  amount */\n      dup2\n        /* \"Tokens/MintableBurnable.sol\":5473:5484  fromBalance */\n      dup2\n        /* \"Tokens/MintableBurnable.sol\":5473:5493  fromBalance - amount */\n      tag_178\n      swap2\n      swap1\n      tag_173\n      jump\t// in\n    tag_178:\n        /* \"Tokens/MintableBurnable.sol\":5455:5464  _balances */\n      0x05\n        /* \"Tokens/MintableBurnable.sol\":5455:5470  _balances[from] */\n      0x00\n        /* \"Tokens/MintableBurnable.sol\":5465:5469  from */\n      dup7\n        /* \"Tokens/MintableBurnable.sol\":5455:5470  _balances[from] */\n      0xffffffffffffffffffffffffffffffffffffffff\n      and\n      0xffffffffffffffffffffffffffffffffffffffff\n      and\n      dup2\n      mstore\n      0x20\n      add\n      swap1\n      dup2\n      mstore\n      0x20\n      add\n      0x00\n      keccak256\n        /* \"Tokens/MintableBurnable.sol\":5455:5493  _balances[from] = fromBalance - amount */\n      dup2\n      swap1\n      sstore\n      pop\n        /* \"Tokens/MintableBurnable.sol\":5521:5527  amount */\n      dup2\n        /* \"Tokens/MintableBurnable.sol\":5504:5513  _balances */\n      0x05\n        /* \"Tokens/MintableBurnable.sol\":5504:5517  _balances[to] */\n      0x00\n        /* \"Tokens/MintableBurnable.sol\":5514:5516  to */\n      dup6\n        /* \"Tokens/MintableBurnable.sol\":5504:5517  _balances[to] */\n      0xffffffffffffffffffffffffffffffffffffffff\n      and\n      0xffffffffffffffffffffffffffffffffffffffff\n      and\n      dup2\n      mstore\n      0x20\n      add\n      swap1\n      dup2\n      mstore\n      0x20\n      add\n      0x00\n      keccak256\n      0x00\n        /* \"Tokens/MintableBurnable.sol\":5504:5527  _balances[to] += amount */\n      dup3\n      dup3\n      sload\n      tag_179\n      swap2\n      swap1\n      tag_180\n      jump\t// in\n    tag_179:\n      swap3\n      pop\n      pop\n      dup2\n      swap1\n      sstore\n      pop\n        /* \"Tokens/MintableBurnable.sol\":5568:5570  to */\n      dup3\n        /* \"Tokens/MintableBurnable.sol\":5553:5579  Transfer(from, to, amount) */\n      0xffffffffffffffffffffffffffffffffffffffff\n      and\n        /* \"Tokens/MintableBurnable.sol\":5562:5566  from */\n      dup5\n        /* \"Tokens/MintableBurnable.sol\":5553:5579  Transfer(from, to, amount) */\n      0xffffffffffffffffffffffffffffffffffffffff\n      and\n      0xddf252ad1be2c89b69c2b068fc378daa952ba7f163c4a11628f55a4df523b3ef\n        /* \"Tokens/MintableBurnable.sol\":5572:5578  amount */\n      dup5\n        /* \"Tokens/MintableBurnable.sol\":5553:5579  Transfer(from, to, amount) */\n      mload(0x40)\n      tag_181\n      swap2\n      swap1\n      tag_48\n      jump\t// in\n    tag_181:\n      mload(0x40)\n      dup1\n      swap2\n      sub\n      swap1\n      log3\n        /* \"Tokens/MintableBurnable.sol\":5203:5587  {... */\n      pop\n        /* \"Tokens/MintableBurnable.sol\":5133:5587  function _transfer(address from, address to, uint256 amount) internal {... */\n      pop\n      pop\n      pop\n      jump\t// out\n        /* \"Tokens/MintableBurnable.sol\":3081:3501  function _mint(address to, uint256 amount) internal {... */\n    tag_133:\n        /* \"Tokens/MintableBurnable.sol\":3162:3163  0 */\n      0x00\n        /* \"Tokens/MintableBurnable.sol\":3148:3164  to == address(0) */\n      0xffffffffffffffffffffffffffffffffffffffff\n      and\n        /* \"Tokens/MintableBurnable.sol\":3148:3150  to */\n      dup3\n        /* \"Tokens/MintableBurnable.sol\":3148:3164  to == address(0) */\n      0xffffffffffffffffffffffffffffffffffffffff\n      and\n      sub\n        /* \"Tokens/MintableBurnable.sol\":3144:3186  if (to == address(0)) revert ZeroAddress() */\n      tag_183\n      jumpi\n        /* \"Tokens/MintableBurnable.sol\":3173:3186  ZeroAddress() */\n      mload(0x40)\n      0xd92e233d00000000000000000000000000000000000000000000000000000000\n      dup2\n      mstore\n      0x04\n      add\n      mload(0x40)\n      dup1\n      swap2\n      sub\n      swap1\n      revert\n        /* \"Tokens/MintableBurnable.sol\":3144:3186  if (to == address(0)) revert ZeroAddress() */\n    tag_183:\n        /* \"Tokens/MintableBurnable.sol\":3207:3229  uint256 newTotalSupply */\n      0x00\n        /* \"Tokens/MintableBurnable.sol\":3246:3252  amount */\n      dup2\n        /* \"Tokens/MintableBurnable.sol\":3232:3243  totalSupply */\n      sload(0x03)\n        /* \"Tokens/MintableBurnable.sol\":3232:3252  totalSupply + amount */\n      tag_184\n      swap2\n      swap1\n      tag_180\n      jump\t// in\n    tag_184:\n        /* \"Tokens/MintableBurnable.sol\":3207:3252  uint256 newTotalSupply = totalSupply + amount */\n      swap1\n      pop\n        /* \"Tokens/MintableBurnable.sol\":3284:3293  maxSupply */\n      sload(0x04)\n        /* \"Tokens/MintableBurnable.sol\":3267:3281  newTotalSupply */\n      dup2\n        /* \"Tokens/MintableBurnable.sol\":3267:3293  newTotalSupply > maxSupply */\n      gt\n        /* \"Tokens/MintableBurnable.sol\":3263:3320  if (newTotalSupply > maxSupply) revert ExceedsMaxSupply() */\n      iszero\n      tag_185\n      jumpi\n        /* \"Tokens/MintableBurnable.sol\":3302:3320  ExceedsMaxSupply() */\n      mload(0x40)\n      0xc30436e900000000000000000000000000000000000000000000000000000000\n      dup2\n      mstore\n      0x04\n      add\n      mload(0x40)\n      dup1\n      swap2\n      sub\n      swap1\n      revert\n        /* \"Tokens/MintableBurnable.sol\":3263:3320  if (newTotalSupply > maxSupply) revert ExceedsMaxSupply() */\n    tag_185:\n        /* \"Tokens/MintableBurnable.sol\":3355:3369  newTotalSupply */\n      dup1\n        /* \"Tokens/MintableBurnable.sol\":3341:3352  totalSupply */\n      0x03\n        /* \"Tokens/MintableBurnable.sol\":3341:3369  totalSupply = newTotalSupply */\n      dup2\n      swap1\n      sstore\n      pop\n        /* \"Tokens/MintableBurnable.sol\":3397:3403  amount */\n      dup2\n        /* \"Tokens/MintableBurnable.sol\":3380:3389  _balances */\n      0x05\n        /* \"Tokens/MintableBurnable.sol\":3380:3393  _balances[to] */\n      0x00\n        /* \"Tokens/MintableBurnable.sol\":3390:3392  to */\n      dup6\n        /* \"Tokens/MintableBurnable.sol\":3380:3393  _balances[to] */\n      0xffffffffffffffffffffffffffffffffffffffff\n      and\n      0xffffffffffffffffffffffffffffffffffffffff\n      and\n      dup2\n      mstore\n      0x20\n      add\n      swap1\n      dup2\n      mstore\n      0x20\n      add\n      0x00\n      keccak256\n      0x00\n        /* \"Tokens/MintableBurnable.sol\":3380:3403  _balances[to] += amount */\n      dup3\n      dup3\n      sload\n      tag_186\n      swap2\n      swap1\n      tag_180\n      jump\t// in\n    tag_186:\n      swap3\n      pop\n      pop\n      dup2\n      swap1\n      sstore\n      pop\n        /* \"Tokens/MintableBurnable.sol\":3434:3436  to */\n      dup3\n        /* \"Tokens/MintableBurnable.sol\":3429:3445  Mint(to, amount) */\n      0xffffffffffffffffffffffffffffffffffffffff\n      and\n      0x0f6798a560793a54c3bcfe86a93cde1e73087d944c0ea20544137d4121396885\n        /* \"Tokens/MintableBurnable.sol\":3438:3444  amount */\n      dup4\n        /* \"Tokens/MintableBurnable.sol\":3429:3445  Mint(to, amount) */\n      mload(0x40)\n      tag_187\n      swap2\n      swap1\n      tag_48\n      jump\t// in\n    tag_187:\n      mload(0x40)\n      dup1\n      swap2\n      sub\n      swap1\n      log2\n        /* \"Tokens/MintableBurnable.sol\":3482:3484  to */\n      dup3\n        /* \"Tokens/MintableBurnable.sol\":3461:3493  Transfer(address(0), to, amount) */\n      0xffffffffffffffffffffffffffffffffffffffff\n      and\n        /* \"Tokens/MintableBurnable.sol\":3478:3479  0 */\n      0x00\n        /* \"Tokens/MintableBurnable.sol\":3461:3493  Transfer(address(0), to, amount) */\n      0xffffffffffffffffffffffffffffffffffffffff\n      and\n      0xddf252ad1be2c89b69c2b068fc378daa952ba7f163c4a11628f55a4df523b3ef\n        /* \"Tokens/MintableBurnable.sol\":3486:3492  amount */\n      dup5\n        /* \"Tokens/MintableBurnable.sol\":3461:3493  Transfer(address(0), to, amount) */\n      mload(0x40)\n      tag_188\n      swap2\n      swap1\n      tag_48\n      jump\t// in\n    tag_188:\n      mload(0x40)\n      dup1\n      swap2\n      sub\n      swap1\n      log3\n        /* \"Tokens/MintableBurnable.sol\":3133:3501  {... */\n      pop\n        /* \"Tokens/MintableBurnable.sol\":3081:3501  function _mint(address to, uint256 amount) internal {... */\n      pop\n      pop\n      jump\t// out\n        /* \"Tokens/MintableBurnable.sol\":3812:4237  function _burn(address from, uint256 amount) internal {... */\n    tag_136:\n        /* \"Tokens/MintableBurnable.sol\":3897:3898  0 */\n      0x00\n        /* \"Tokens/MintableBurnable.sol\":3881:3899  from == address(0) */\n      0xffffffffffffffffffffffffffffffffffffffff\n      and\n        /* \"Tokens/MintableBurnable.sol\":3881:3885  from */\n      dup3\n        /* \"Tokens/MintableBurnable.sol\":3881:3899  from == address(0) */\n      0xffffffffffffffffffffffffffffffffffffffff\n      and\n      sub\n        /* \"Tokens/MintableBurnable.sol\":3877:3921  if (from == address(0)) revert ZeroAddress() */\n      tag_190\n      jumpi\n        /* \"Tokens/MintableBurnable.sol\":3908:3921  ZeroAddress() */\n      mload(0x40)\n      0xd92e233d00000000000000000000000000000000000000000000000000000000\n      dup2\n      mstore\n      0x04\n      add\n      mload(0x40)\n      dup1\n      swap2\n      sub\n      swap1\n      revert\n        /* \"Tokens/MintableBurnable.sol\":3877:3921  if (from == address(0)) revert ZeroAddress() */\n    tag_190:\n        /* \"Tokens/MintableBurnable.sol\":3942:3961  uint256 fromBalance */\n      0x00\n        /* \"Tokens/MintableBurnable.sol\":3964:3973  _balances */\n      0x05\n        /* \"Tokens/MintableBurnable.sol\":3964:3979  _balances[from] */\n      0x00\n        /* \"Tokens/MintableBurnable.sol\":3974:3978  from */\n      dup5\n        /* \"Tokens/MintableBurnable.sol\":3964:3979  _balances[from] */\n      0xffffffffffffffffffffffffffffffffffffffff\n      and\n      0xffffffffffffffffffffffffffffffffffffffff\n      and\n      dup2\n      mstore\n      0x20\n      add\n      swap1\n      dup2\n      mstore\n      0x20\n      add\n      0x00\n      keccak256\n      sload\n        /* \"Tokens/MintableBurnable.sol\":3942:3979  uint256 fromBalance = _balances[from] */\n      swap1\n      pop\n        /* \"Tokens/MintableBurnable.sol\":4008:4014  amount */\n      dup2\n        /* \"Tokens/MintableBurnable.sol\":3994:4005  fromBalance */\n      dup2\n        /* \"Tokens/MintableBurnable.sol\":3994:4014  fromBalance < amount */\n      lt\n        /* \"Tokens/MintableBurnable.sol\":3990:4044  if (fromBalance < amount) revert InsufficientBalance() */\n      iszero\n      tag_191\n      jumpi\n        /* \"Tokens/MintableBurnable.sol\":4023:4044  InsufficientBalance() */\n      mload(0x40)\n      0xf4d678b800000000000000000000000000000000000000000000000000000000\n      dup2\n      mstore\n      0x04\n      add\n      mload(0x40)\n      dup1\n      swap2\n      sub\n      swap1\n      revert\n        /* \"Tokens/MintableBurnable.sol\":3990:4044  if (fromBalance < amount) revert InsufficientBalance() */\n    tag_191:\n        /* \"Tokens/MintableBurnable.sol\":4097:4103  amount */\n      dup2\n        /* \"Tokens/MintableBurnable.sol\":4083:4094  fromBalance */\n      dup2\n        /* \"Tokens/MintableBurnable.sol\":4083:4103  fromBalance - amount */\n      tag_192\n      swap2\n      swap1\n      tag_173\n      jump\t// in\n    tag_192:\n        /* \"Tokens/MintableBurnable.sol\":4065:4074  _balances */\n      0x05\n        /* \"Tokens/MintableBurnable.sol\":4065:4080  _balances[from] */\n      0x00\n        /* \"Tokens/MintableBurnable.sol\":4075:4079  from */\n      dup6\n        /* \"Tokens/MintableBurnable.sol\":4065:4080  _balances[from] */\n      0xffffffffffffffffffffffffffffffffffffffff\n      and\n      0xffffffffffffffffffffffffffffffffffffffff\n      and\n      dup2\n      mstore\n      0x20\n      add\n      swap1\n      dup2\n      mstore\n      0x20\n      add\n      0x00\n      keccak256\n        /* \"Tokens/MintableBurnable.sol\":4065:4103  _balances[from] = fromBalance - amount */\n      dup2\n      swap1\n      sstore\n      pop\n        /* \"Tokens/MintableBurnable.sol\":4129:4135  amount */\n      dup2\n        /* \"Tokens/MintableBurnable.sol\":4114:4125  totalSupply */\n      0x03\n      0x00\n        /* \"Tokens/MintableBurnable.sol\":4114:4135  totalSupply -= amount */\n      dup3\n      dup3\n      sload\n      tag_193\n      swap2\n      swap1\n      tag_173\n      jump\t// in\n    tag_193:\n      swap3\n      pop\n      pop\n      dup2\n      swap1\n      sstore\n      pop\n        /* \"Tokens/MintableBurnable.sol\":4166:4170  from */\n      dup3\n        /* \"Tokens/MintableBurnable.sol\":4161:4179  Burn(from, amount) */\n      0xffffffffffffffffffffffffffffffffffffffff\n      and\n      0xcc16f5dbb4873280815c1ee09dbd06736cffcc184412cf7a71a0fdb75d397ca5\n        /* \"Tokens/MintableBurnable.sol\":4172:4178  amount */\n      dup4\n        /* \"Tokens/MintableBurnable.sol\":4161:4179  Burn(from, amount) */\n      mload(0x40)\n      tag_194\n      swap2\n      swap1\n      tag_48\n      jump\t// in\n    tag_194:\n      mload(0x40)\n      dup1\n      swap2\n      sub\n      swap1\n      log2\n        /* \"Tokens/MintableBurnable.sol\":4218:4219  0 */\n      0x00\n        /* \"Tokens/MintableBurnable.sol\":4195:4229  Transfer(from, address(0), amount) */\n      0xffffffffffffffffffffffffffffffffffffffff\n      and\n        /* \"Tokens/MintableBurnable.sol\":4204:4208  from */\n      dup4\n        /* \"Tokens/MintableBurnable.sol\":4195:4229  Transfer(from, address(0), amount) */\n      0xffffffffffffffffffffffffffffffffffffffff\n      and\n      0xddf252ad1be2c89b69c2b068fc378daa952ba7f163c4a11628f55a4df523b3ef\n        /* \"Tokens/MintableBurnable.sol\":4222:4228  amount */\n      dup5\n        /* \"Tokens/MintableBurnable.sol\":4195:4229  Transfer(from, address(0), amount) */\n      mload(0x40)\n      tag_195\n      swap2\n      swap1\n      tag_48\n      jump\t// in\n    tag_195:\n      mload(0x40)\n      dup1\n      swap2\n      sub\n      swap1\n      log3\n        /* \"Tokens/MintableBurnable.sol\":3866:4237  {... */\n      pop\n        /* \"Tokens/MintableBurnable.sol\":3812:4237  function _burn(address from, uint256 amount) internal {... */\n      pop\n      pop\n      jump\t// out\n        /* \"#utility.yul\":88:205   */\n    tag_197:\n        /* \"#utility.yul\":197:198   */\n      0x00\n        /* \"#utility.yul\":194:195   */\n      0x00\n        /* \"#utility.yul\":187:199   */\n      revert\n        /* \"#utility.yul\":334:460   */\n    tag_199:\n        /* \"#utility.yul\":371:378   */\n      0x00\n        /* \"#utility.yul\":411:453   */\n      0xffffffffffffffffffffffffffffffffffffffff\n        /* \"#utility.yul\":404:409   */\n      dup3\n        /* \"#utility.yul\":400:454   */\n      and\n        /* \"#utility.yul\":389:454   */\n      swap1\n      pop\n        /* \"#utility.yul\":334:460   */\n      swap2\n      swap1\n      pop\n      jump\t// out\n        /* \"#utility.yul\":466:562   */\n    tag_200:\n        /* \"#utility.yul\":503:510   */\n      0x00\n        /* \"#utility.yul\":532:556   */\n      tag_225\n        /* \"#utility.yul\":550:555   */\n      dup3\n        /* \"#utility.yul\":532:556   */\n      tag_199\n      jump\t// in\n    tag_225:\n        /* \"#utility.yul\":521:556   */\n      swap1\n      pop\n        /* \"#utility.yul\":466:562   */\n      swap2\n      swap1\n      pop\n      jump\t// out\n        /* \"#utility.yul\":568:690   */\n    tag_201:\n        /* \"#utility.yul\":641:665   */\n      tag_227\n        /* \"#utility.yul\":659:664   */\n      dup2\n        /* \"#utility.yul\":641:665   */\n      tag_200\n      jump\t// in\n    tag_227:\n        /* \"#utility.yul\":634:639   */\n      dup2\n        /* \"#utility.yul\":631:666   */\n      eq\n        /* \"#utility.yul\":621:684   */\n      tag_228\n      jumpi\n        /* \"#utility.yul\":680:681   */\n      0x00\n        /* \"#utility.yul\":677:678   */\n      0x00\n        /* \"#utility.yul\":670:682   */\n      revert\n        /* \"#utility.yul\":621:684   */\n    tag_228:\n        /* \"#utility.yul\":568:690   */\n      pop\n      jump\t// out\n        /* \"#utility.yul\":696:835   */\n    tag_202:\n        /* \"#utility.yul\":742:747   */\n      0x00\n        /* \"#utility.yul\":780:786   */\n      dup2\n        /* \"#utility.yul\":767:787   */\n      calldataload\n        /* \"#utility.yul\":758:787   */\n      swap1\n      pop\n        /* \"#utility.yul\":796:829   */\n      tag_230\n        /* \"#utility.yul\":823:828   */\n      dup2\n        /* \"#utility.yul\":796:829   */\n      tag_201\n      jump\t// in\n    tag_230:\n        /* \"#utility.yul\":696:835   */\n      swap3\n      swap2\n      pop\n      pop\n      jump\t// out\n        /* \"#utility.yul\":841:1170   */\n    tag_29:\n        /* \"#utility.yul\":900:906   */\n      0x00\n        /* \"#utility.yul\":949:951   */\n      0x20\n        /* \"#utility.yul\":937:946   */\n      dup3\n        /* \"#utility.yul\":928:935   */\n      dup5\n        /* \"#utility.yul\":924:947   */\n      sub\n        /* \"#utility.yul\":920:952   */\n      slt\n        /* \"#utility.yul\":917:1036   */\n      iszero\n      tag_232\n      jumpi\n        /* \"#utility.yul\":955:1034   */\n      tag_233\n      tag_197\n      jump\t// in\n    tag_233:\n        /* \"#utility.yul\":917:1036   */\n    tag_232:\n        /* \"#utility.yul\":1075:1076   */\n      0x00\n        /* \"#utility.yul\":1100:1153   */\n      tag_234\n        /* \"#utility.yul\":1145:1152   */\n      dup5\n        /* \"#utility.yul\":1136:1142   */\n      dup3\n        /* \"#utility.yul\":1125:1134   */\n      dup6\n        /* \"#utility.yul\":1121:1143   */\n      add\n        /* \"#utility.yul\":1100:1153   */\n      tag_202\n      jump\t// in\n    tag_234:\n        /* \"#utility.yul\":1090:1153   */\n      swap2\n      pop\n        /* \"#utility.yul\":1046:1163   */\n      pop\n        /* \"#utility.yul\":841:1170   */\n      swap3\n      swap2\n      pop\n      pop\n      jump\t// out\n        /* \"#utility.yul\":1176:1266   */\n    tag_203:\n        /* \"#utility.yul\":1210:1217   */\n      0x00\n        /* \"#utility.yul\":1253:1258   */\n      dup2\n        /* \"#utility.yul\":1246:1259   */\n      iszero\n        /* \"#utility.yul\":1239:1260   */\n      iszero\n        /* \"#utility.yul\":1228:1260   */\n      swap1\n      pop\n        /* \"#utility.yul\":1176:1266   */\n      swap2\n      swap1\n      pop\n      jump\t// out\n        /* \"#utility.yul\":1272:1381   */\n    tag_204:\n        /* \"#utility.yul\":1353:1374   */\n      tag_237\n        /* \"#utility.yul\":1368:1373   */\n      dup2\n        /* \"#utility.yul\":1353:1374   */\n      tag_203\n      jump\t// in\n    tag_237:\n        /* \"#utility.yul\":1348:1351   */\n      dup3\n        /* \"#utility.yul\":1341:1375   */\n      mstore\n        /* \"#utility.yul\":1272:1381   */\n      pop\n      pop\n      jump\t// out\n        /* \"#utility.yul\":1387:1597   */\n    tag_35:\n        /* \"#utility.yul\":1474:1478   */\n      0x00\n        /* \"#utility.yul\":1512:1514   */\n      0x20\n        /* \"#utility.yul\":1501:1510   */\n      dup3\n        /* \"#utility.yul\":1497:1515   */\n      add\n        /* \"#utility.yul\":1489:1515   */\n      swap1\n      pop\n        /* \"#utility.yul\":1525:1590   */\n      tag_239\n        /* \"#utility.yul\":1587:1588   */\n      0x00\n        /* \"#utility.yul\":1576:1585   */\n      dup4\n        /* \"#utility.yul\":1572:1589   */\n      add\n        /* \"#utility.yul\":1563:1569   */\n      dup5\n        /* \"#utility.yul\":1525:1590   */\n      tag_204\n      jump\t// in\n    tag_239:\n        /* \"#utility.yul\":1387:1597   */\n      swap3\n      swap2\n      pop\n      pop\n      jump\t// out\n        /* \"#utility.yul\":1603:1702   */\n    tag_205:\n        /* \"#utility.yul\":1655:1661   */\n      0x00\n        /* \"#utility.yul\":1689:1694   */\n      dup2\n        /* \"#utility.yul\":1683:1695   */\n      mload\n        /* \"#utility.yul\":1673:1695   */\n      swap1\n      pop\n        /* \"#utility.yul\":1603:1702   */\n      swap2\n      swap1\n      pop\n      jump\t// out\n        /* \"#utility.yul\":1708:1877   */\n    tag_206:\n        /* \"#utility.yul\":1792:1803   */\n      0x00\n        /* \"#utility.yul\":1826:1832   */\n      dup3\n        /* \"#utility.yul\":1821:1824   */\n      dup3\n        /* \"#utility.yul\":1814:1833   */\n      mstore\n        /* \"#utility.yul\":1866:1870   */\n      0x20\n        /* \"#utility.yul\":1861:1864   */\n      dup3\n        /* \"#utility.yul\":1857:1871   */\n      add\n        /* \"#utility.yul\":1842:1871   */\n      swap1\n      pop\n        /* \"#utility.yul\":1708:1877   */\n      swap3\n      swap2\n      pop\n      pop\n      jump\t// out\n        /* \"#utility.yul\":1883:2022   */\n    tag_207:\n        /* \"#utility.yul\":1972:1978   */\n      dup3\n        /* \"#utility.yul\":1967:1970   */\n      dup2\n        /* \"#utility.yul\":1962:1965   */\n      dup4\n        /* \"#utility.yul\":1956:1979   */\n      mcopy\n        /* \"#utility.yul\":2013:2014   */\n      0x00\n        /* \"#utility.yul\":2004:2010   */\n      dup4\n        /* \"#utility.yul\":1999:2002   */\n      dup4\n        /* \"#utility.yul\":1995:2011   */\n      add\n        /* \"#utility.yul\":1988:2015   */\n      mstore\n        /* \"#utility.yul\":1883:2022   */\n      pop\n      pop\n      pop\n      jump\t// out\n        /* \"#utility.yul\":2028:2130   */\n    tag_208:\n        /* \"#utility.yul\":2069:2075   */\n      0x00\n        /* \"#utility.yul\":2120:2122   */\n      0x1f\n        /* \"#utility.yul\":2116:2123   */\n      not\n        /* \"#utility.yul\":2111:2113   */\n      0x1f\n        /* \"#utility.yul\":2104:2109   */\n      dup4\n        /* \"#utility.yul\":2100:2114   */\n      add\n        /* \"#utility.yul\":2096:2124   */\n      and\n        /* \"#utility.yul\":2086:2124   */\n      swap1\n      pop\n        /* \"#utility.yul\":2028:2130   */\n      swap2\n      swap1\n      pop\n      jump\t// out\n        /* \"#utility.yul\":2136:2513   */\n    tag_209:\n        /* \"#utility.yul\":2224:2227   */\n      0x00\n        /* \"#utility.yul\":2252:2291   */\n      tag_245\n        /* \"#utility.yul\":2285:2290   */\n      dup3\n        /* \"#utility.yul\":2252:2291   */\n      tag_205\n      jump\t// in\n    tag_245:\n        /* \"#utility.yul\":2307:2378   */\n      tag_246\n        /* \"#utility.yul\":2371:2377   */\n      dup2\n        /* \"#utility.yul\":2366:2369   */\n      dup6\n        /* \"#utility.yul\":2307:2378   */\n      tag_206\n      jump\t// in\n    tag_246:\n        /* \"#utility.yul\":2300:2378   */\n      swap4\n      pop\n        /* \"#utility.yul\":2387:2452   */\n      tag_247\n        /* \"#utility.yul\":2445:2451   */\n      dup2\n        /* \"#utility.yul\":2440:2443   */\n      dup6\n        /* \"#utility.yul\":2433:2437   */\n      0x20\n        /* \"#utility.yul\":2426:2431   */\n      dup7\n        /* \"#utility.yul\":2422:2438   */\n      add\n        /* \"#utility.yul\":2387:2452   */\n      tag_207\n      jump\t// in\n    tag_247:\n        /* \"#utility.yul\":2477:2506   */\n      tag_248\n        /* \"#utility.yul\":2499:2505   */\n      dup2\n        /* \"#utility.yul\":2477:2506   */\n      tag_208\n      jump\t// in\n    tag_248:\n        /* \"#utility.yul\":2472:2475   */\n      dup5\n        /* \"#utility.yul\":2468:2507   */\n      add\n        /* \"#utility.yul\":2461:2507   */\n      swap2\n      pop\n        /* \"#utility.yul\":2228:2513   */\n      pop\n        /* \"#utility.yul\":2136:2513   */\n      swap3\n      swap2\n      pop\n      pop\n      jump\t// out\n        /* \"#utility.yul\":2519:2832   */\n    tag_39:\n        /* \"#utility.yul\":2632:2636   */\n      0x00\n        /* \"#utility.yul\":2670:2672   */\n      0x20\n        /* \"#utility.yul\":2659:2668   */\n      dup3\n        /* \"#utility.yul\":2655:2673   */\n      add\n        /* \"#utility.yul\":2647:2673   */\n      swap1\n      pop\n        /* \"#utility.yul\":2719:2728   */\n      dup2\n        /* \"#utility.yul\":2713:2717   */\n      dup2\n        /* \"#utility.yul\":2709:2729   */\n      sub\n        /* \"#utility.yul\":2705:2706   */\n      0x00\n        /* \"#utility.yul\":2694:2703   */\n      dup4\n        /* \"#utility.yul\":2690:2707   */\n      add\n        /* \"#utility.yul\":2683:2730   */\n      mstore\n        /* \"#utility.yul\":2747:2825   */\n      tag_250\n        /* \"#utility.yul\":2820:2824   */\n      dup2\n        /* \"#utility.yul\":2811:2817   */\n      dup5\n        /* \"#utility.yul\":2747:2825   */\n      tag_209\n      jump\t// in\n    tag_250:\n        /* \"#utility.yul\":2739:2825   */\n      swap1\n      pop\n        /* \"#utility.yul\":2519:2832   */\n      swap3\n      swap2\n      pop\n      pop\n      jump\t// out\n        /* \"#utility.yul\":2838:2915   */\n    tag_210:\n        /* \"#utility.yul\":2875:2882   */\n      0x00\n        /* \"#utility.yul\":2904:2909   */\n      dup2\n        /* \"#utility.yul\":2893:2909   */\n      swap1\n      pop\n        /* \"#utility.yul\":2838:2915   */\n      swap2\n      swap1\n      pop\n      jump\t// out\n        /* \"#utility.yul\":2921:3043   */\n    tag_211:\n        /* \"#utility.yul\":2994:3018   */\n      tag_253\n        /* \"#utility.yul\":3012:3017   */\n      dup2\n        /* \"#utility.yul\":2994:3018   */\n      tag_210\n      jump\t// in\n    tag_253:\n        /* \"#utility.yul\":2987:2992   */\n      dup2\n        /* \"#utility.yul\":2984:3019   */\n      eq\n        /* \"#utility.yul\":2974:3037   */\n      tag_254\n      jumpi\n        /* \"#utility.yul\":3033:3034   */\n      0x00\n        /* \"#utility.yul\":3030:3031   */\n      0x00\n        /* \"#utility.yul\":3023:3035   */\n      revert\n        /* \"#utility.yul\":2974:3037   */\n    tag_254:\n        /* \"#utility.yul\":2921:3043   */\n      pop\n      jump\t// out\n        /* \"#utility.yul\":3049:3188   */\n    tag_212:\n        /* \"#utility.yul\":3095:3100   */\n      0x00\n        /* \"#utility.yul\":3133:3139   */\n      dup2\n        /* \"#utility.yul\":3120:3140   */\n      calldataload\n        /* \"#utility.yul\":3111:3140   */\n      swap1\n      pop\n        /* \"#utility.yul\":3149:3182   */\n      tag_256\n        /* \"#utility.yul\":3176:3181   */\n      dup2\n        /* \"#utility.yul\":3149:3182   */\n      tag_211\n      jump\t// in\n    tag_256:\n        /* \"#utility.yul\":3049:3188   */\n      swap3\n      swap2\n      pop\n      pop\n      jump\t// out\n        /* \"#utility.yul\":3194:3668   */\n    tag_42:\n        /* \"#utility.yul\":3262:3268   */\n      0x00\n        /* \"#utility.yul\":3270:3276   */\n      0x00\n        /* \"#utility.yul\":3319:3321   */\n      0x40\n        /* \"#utility.yul\":3307:3316   */\n      dup4\n        /* \"#utility.yul\":3298:3305   */\n      dup6\n        /* \"#utility.yul\":3294:3317   */\n      sub\n        /* \"#utility.yul\":3290:3322   */\n      slt\n        /* \"#utility.yul\":3287:3406   */\n      iszero\n      tag_258\n      jumpi\n        /* \"#utility.yul\":3325:3404   */\n      tag_259\n      tag_197\n      jump\t// in\n    tag_259:\n        /* \"#utility.yul\":3287:3406   */\n    tag_258:\n        /* \"#utility.yul\":3445:3446   */\n      0x00\n        /* \"#utility.yul\":3470:3523   */\n      tag_260\n        /* \"#utility.yul\":3515:3522   */\n      dup6\n        /* \"#utility.yul\":3506:3512   */\n      dup3\n        /* \"#utility.yul\":3495:3504   */\n      dup7\n        /* \"#utility.yul\":3491:3513   */\n      add\n        /* \"#utility.yul\":3470:3523   */\n      tag_202\n      jump\t// in\n    tag_260:\n        /* \"#utility.yul\":3460:3523   */\n      swap3\n      pop\n        /* \"#utility.yul\":3416:3533   */\n      pop\n        /* \"#utility.yul\":3572:3574   */\n      0x20\n        /* \"#utility.yul\":3598:3651   */\n      tag_261\n        /* \"#utility.yul\":3643:3650   */\n      dup6\n        /* \"#utility.yul\":3634:3640   */\n      dup3\n        /* \"#utility.yul\":3623:3632   */\n      dup7\n        /* \"#utility.yul\":3619:3641   */\n      add\n        /* \"#utility.yul\":3598:3651   */\n      tag_212\n      jump\t// in\n    tag_261:\n        /* \"#utility.yul\":3588:3651   */\n      swap2\n      pop\n        /* \"#utility.yul\":3543:3661   */\n      pop\n        /* \"#utility.yul\":3194:3668   */\n      swap3\n      pop\n      swap3\n      swap1\n      pop\n      jump\t// out\n        /* \"#utility.yul\":3674:3792   */\n    tag_213:\n        /* \"#utility.yul\":3761:3785   */\n      tag_263\n        /* \"#utility.yul\":3779:3784   */\n      dup2\n        /* \"#utility.yul\":3761:3785   */\n      tag_210\n      jump\t// in\n    tag_263:\n        /* \"#utility.yul\":3756:3759   */\n      dup3\n        /* \"#utility.yul\":3749:3786   */\n      mstore\n        /* \"#utility.yul\":3674:3792   */\n      pop\n      pop\n      jump\t// out\n        /* \"#utility.yul\":3798:4020   */\n    tag_48:\n        /* \"#utility.yul\":3891:3895   */\n      0x00\n        /* \"#utility.yul\":3929:3931   */\n      0x20\n        /* \"#utility.yul\":3918:3927   */\n      dup3\n        /* \"#utility.yul\":3914:3932   */\n      add\n        /* \"#utility.yul\":3906:3932   */\n      swap1\n      pop\n        /* \"#utility.yul\":3942:4013   */\n      tag_265\n        /* \"#utility.yul\":4010:4011   */\n      0x00\n        /* \"#utility.yul\":3999:4008   */\n      dup4\n        /* \"#utility.yul\":3995:4012   */\n      add\n        /* \"#utility.yul\":3986:3992   */\n      dup5\n        /* \"#utility.yul\":3942:4013   */\n      tag_213\n      jump\t// in\n    tag_265:\n        /* \"#utility.yul\":3798:4020   */\n      swap3\n      swap2\n      pop\n      pop\n      jump\t// out\n        /* \"#utility.yul\":4026:4645   */\n    tag_51:\n        /* \"#utility.yul\":4103:4109   */\n      0x00\n        /* \"#utility.yul\":4111:4117   */\n      0x00\n        /* \"#utility.yul\":4119:4125   */\n      0x00\n        /* \"#utility.yul\":4168:4170   */\n      0x60\n        /* \"#utility.yul\":4156:4165   */\n      dup5\n        /* \"#utility.yul\":4147:4154   */\n      dup7\n        /* \"#utility.yul\":4143:4166   */\n      sub\n        /* \"#utility.yul\":4139:4171   */\n      slt\n        /* \"#utility.yul\":4136:4255   */\n      iszero\n      tag_267\n      jumpi\n        /* \"#utility.yul\":4174:4253   */\n      tag_268\n      tag_197\n      jump\t// in\n    tag_268:\n        /* \"#utility.yul\":4136:4255   */\n    tag_267:\n        /* \"#utility.yul\":4294:4295   */\n      0x00\n        /* \"#utility.yul\":4319:4372   */\n      tag_269\n        /* \"#utility.yul\":4364:4371   */\n      dup7\n        /* \"#utility.yul\":4355:4361   */\n      dup3\n        /* \"#utility.yul\":4344:4353   */\n      dup8\n        /* \"#utility.yul\":4340:4362   */\n      add\n        /* \"#utility.yul\":4319:4372   */\n      tag_202\n      jump\t// in\n    tag_269:\n        /* \"#utility.yul\":4309:4372   */\n      swap4\n      pop\n        /* \"#utility.yul\":4265:4382   */\n      pop\n        /* \"#utility.yul\":4421:4423   */\n      0x20\n        /* \"#utility.yul\":4447:4500   */\n      tag_270\n        /* \"#utility.yul\":4492:4499   */\n      dup7\n        /* \"#utility.yul\":4483:4489   */\n      dup3\n        /* \"#utility.yul\":4472:4481   */\n      dup8\n        /* \"#utility.yul\":4468:4490   */\n      add\n        /* \"#utility.yul\":4447:4500   */\n      tag_202\n      jump\t// in\n    tag_270:\n        /* \"#utility.yul\":4437:4500   */\n      swap3\n      pop\n        /* \"#utility.yul\":4392:4510   */\n      pop\n        /* \"#utility.yul\":4549:4551   */\n      0x40\n        /* \"#utility.yul\":4575:4628   */\n      tag_271\n        /* \"#utility.yul\":4620:4627   */\n      dup7\n        /* \"#utility.yul\":4611:4617   */\n      dup3\n        /* \"#utility.yul\":4600:4609   */\n      dup8\n        /* \"#utility.yul\":4596:4618   */\n      add\n        /* \"#utility.yul\":4575:4628   */\n      tag_212\n      jump\t// in\n    tag_271:\n        /* \"#utility.yul\":4565:4628   */\n      swap2\n      pop\n        /* \"#utility.yul\":4520:4638   */\n      pop\n        /* \"#utility.yul\":4026:4645   */\n      swap3\n      pop\n      swap3\n      pop\n      swap3\n      jump\t// out\n        /* \"#utility.yul\":4651:4737   */\n    tag_214:\n        /* \"#utility.yul\":4686:4693   */\n      0x00\n        /* \"#utility.yul\":4726:4730   */\n      0xff\n        /* \"#utility.yul\":4719:4724   */\n      dup3\n        /* \"#utility.yul\":4715:4731   */\n      and\n        /* \"#utility.yul\":4704:4731   */\n      swap1\n      pop\n        /* \"#utility.yul\":4651:4737   */\n      swap2\n      swap1\n      pop\n      jump\t// out\n        /* \"#utility.yul\":4743:4855   */\n    tag_215:\n        /* \"#utility.yul\":4826:4848   */\n      tag_274\n        /* \"#utility.yul\":4842:4847   */\n      dup2\n        /* \"#utility.yul\":4826:4848   */\n      tag_214\n      jump\t// in\n    tag_274:\n        /* \"#utility.yul\":4821:4824   */\n      dup3\n        /* \"#utility.yul\":4814:4849   */\n      mstore\n        /* \"#utility.yul\":4743:4855   */\n      pop\n      pop\n      jump\t// out\n        /* \"#utility.yul\":4861:5075   */\n    tag_60:\n        /* \"#utility.yul\":4950:4954   */\n      0x00\n        /* \"#utility.yul\":4988:4990   */\n      0x20\n        /* \"#utility.yul\":4977:4986   */\n      dup3\n        /* \"#utility.yul\":4973:4991   */\n      add\n        /* \"#utility.yul\":4965:4991   */\n      swap1\n      pop\n        /* \"#utility.yul\":5001:5068   */\n      tag_276\n        /* \"#utility.yul\":5065:5066   */\n      0x00\n        /* \"#utility.yul\":5054:5063   */\n      dup4\n        /* \"#utility.yul\":5050:5067   */\n      add\n        /* \"#utility.yul\":5041:5047   */\n      dup5\n        /* \"#utility.yul\":5001:5068   */\n      tag_215\n      jump\t// in\n    tag_276:\n        /* \"#utility.yul\":4861:5075   */\n      swap3\n      swap2\n      pop\n      pop\n      jump\t// out\n        /* \"#utility.yul\":5081:5410   */\n    tag_66:\n        /* \"#utility.yul\":5140:5146   */\n      0x00\n        /* \"#utility.yul\":5189:5191   */\n      0x20\n        /* \"#utility.yul\":5177:5186   */\n      dup3\n        /* \"#utility.yul\":5168:5175   */\n      dup5\n        /* \"#utility.yul\":5164:5187   */\n      sub\n        /* \"#utility.yul\":5160:5192   */\n      slt\n        /* \"#utility.yul\":5157:5276   */\n      iszero\n      tag_278\n      jumpi\n        /* \"#utility.yul\":5195:5274   */\n      tag_279\n      tag_197\n      jump\t// in\n    tag_279:\n        /* \"#utility.yul\":5157:5276   */\n    tag_278:\n        /* \"#utility.yul\":5315:5316   */\n      0x00\n        /* \"#utility.yul\":5340:5393   */\n      tag_280\n        /* \"#utility.yul\":5385:5392   */\n      dup5\n        /* \"#utility.yul\":5376:5382   */\n      dup3\n        /* \"#utility.yul\":5365:5374   */\n      dup6\n        /* \"#utility.yul\":5361:5383   */\n      add\n        /* \"#utility.yul\":5340:5393   */\n      tag_212\n      jump\t// in\n    tag_280:\n        /* \"#utility.yul\":5330:5393   */\n      swap2\n      pop\n        /* \"#utility.yul\":5286:5403   */\n      pop\n        /* \"#utility.yul\":5081:5410   */\n      swap3\n      swap2\n      pop\n      pop\n      jump\t// out\n        /* \"#utility.yul\":5416:5534   */\n    tag_216:\n        /* \"#utility.yul\":5503:5527   */\n      tag_282\n        /* \"#utility.yul\":5521:5526   */\n      dup2\n        /* \"#utility.yul\":5503:5527   */\n      tag_200\n      jump\t// in\n    tag_282:\n        /* \"#utility.yul\":5498:5501   */\n      dup3\n        /* \"#utility.yul\":5491:5528   */\n      mstore\n        /* \"#utility.yul\":5416:5534   */\n      pop\n      pop\n      jump\t// out\n        /* \"#utility.yul\":5540:5762   */\n    tag_78:\n        /* \"#utility.yul\":5633:5637   */\n      0x00\n        /* \"#utility.yul\":5671:5673   */\n      0x20\n        /* \"#utility.yul\":5660:5669   */\n      dup3\n        /* \"#utility.yul\":5656:5674   */\n      add\n        /* \"#utility.yul\":5648:5674   */\n      swap1\n      pop\n        /* \"#utility.yul\":5684:5755   */\n      tag_284\n        /* \"#utility.yul\":5752:5753   */\n      0x00\n        /* \"#utility.yul\":5741:5750   */\n      dup4\n        /* \"#utility.yul\":5737:5754   */\n      add\n        /* \"#utility.yul\":5728:5734   */\n      dup5\n        /* \"#utility.yul\":5684:5755   */\n      tag_216\n      jump\t// in\n    tag_284:\n        /* \"#utility.yul\":5540:5762   */\n      swap3\n      swap2\n      pop\n      pop\n      jump\t// out\n        /* \"#utility.yul\":5768:6242   */\n    tag_94:\n        /* \"#utility.yul\":5836:5842   */\n      0x00\n        /* \"#utility.yul\":5844:5850   */\n      0x00\n        /* \"#utility.yul\":5893:5895   */\n      0x40\n        /* \"#utility.yul\":5881:5890   */\n      dup4\n        /* \"#utility.yul\":5872:5879   */\n      dup6\n        /* \"#utility.yul\":5868:5891   */\n      sub\n        /* \"#utility.yul\":5864:5896   */\n      slt\n        /* \"#utility.yul\":5861:5980   */\n      iszero\n      tag_286\n      jumpi\n        /* \"#utility.yul\":5899:5978   */\n      tag_287\n      tag_197\n      jump\t// in\n    tag_287:\n        /* \"#utility.yul\":5861:5980   */\n    tag_286:\n        /* \"#utility.yul\":6019:6020   */\n      0x00\n        /* \"#utility.yul\":6044:6097   */\n      tag_288\n        /* \"#utility.yul\":6089:6096   */\n      dup6\n        /* \"#utility.yul\":6080:6086   */\n      dup3\n        /* \"#utility.yul\":6069:6078   */\n      dup7\n        /* \"#utility.yul\":6065:6087   */\n      add\n        /* \"#utility.yul\":6044:6097   */\n      tag_202\n      jump\t// in\n    tag_288:\n        /* \"#utility.yul\":6034:6097   */\n      swap3\n      pop\n        /* \"#utility.yul\":5990:6107   */\n      pop\n        /* \"#utility.yul\":6146:6148   */\n      0x20\n        /* \"#utility.yul\":6172:6225   */\n      tag_289\n        /* \"#utility.yul\":6217:6224   */\n      dup6\n        /* \"#utility.yul\":6208:6214   */\n      dup3\n        /* \"#utility.yul\":6197:6206   */\n      dup7\n        /* \"#utility.yul\":6193:6215   */\n      add\n        /* \"#utility.yul\":6172:6225   */\n      tag_202\n      jump\t// in\n    tag_289:\n        /* \"#utility.yul\":6162:6225   */\n      swap2\n      pop\n        /* \"#utility.yul\":6117:6235   */\n      pop\n        /* \"#utility.yul\":5768:6242   */\n      swap3\n      pop\n      swap3\n      swap1\n      pop\n      jump\t// out\n        /* \"#utility.yul\":6248:6428   */\n    tag_217:\n        /* \"#utility.yul\":6296:6373   */\n      0x4e487b7100000000000000000000000000000000000000000000000000000000\n        /* \"#utility.yul\":6293:6294   */\n      0x00\n        /* \"#utility.yul\":6286:6374   */\n      mstore\n        /* \"#utility.yul\":6393:6397   */\n      0x22\n        /* \"#utility.yul\":6390:6391   */\n      0x04\n        /* \"#utility.yul\":6383:6398   */\n      mstore\n        /* \"#utility.yul\":6417:6421   */\n      0x24\n        /* \"#utility.yul\":6414:6415   */\n      0x00\n        /* \"#utility.yul\":6407:6422   */\n      revert\n        /* \"#utility.yul\":6434:6754   */\n    tag_112:\n        /* \"#utility.yul\":6478:6484   */\n      0x00\n        /* \"#utility.yul\":6515:6516   */\n      0x02\n        /* \"#utility.yul\":6509:6513   */\n      dup3\n        /* \"#utility.yul\":6505:6517   */\n      div\n        /* \"#utility.yul\":6495:6517   */\n      swap1\n      pop\n        /* \"#utility.yul\":6562:6563   */\n      0x01\n        /* \"#utility.yul\":6556:6560   */\n      dup3\n        /* \"#utility.yul\":6552:6564   */\n      and\n        /* \"#utility.yul\":6583:6601   */\n      dup1\n        /* \"#utility.yul\":6573:6654   */\n      tag_292\n      jumpi\n        /* \"#utility.yul\":6639:6643   */\n      0x7f\n        /* \"#utility.yul\":6631:6637   */\n      dup3\n        /* \"#utility.yul\":6627:6644   */\n      and\n        /* \"#utility.yul\":6617:6644   */\n      swap2\n      pop\n        /* \"#utility.yul\":6573:6654   */\n    tag_292:\n        /* \"#utility.yul\":6701:6703   */\n      0x20\n        /* \"#utility.yul\":6693:6699   */\n      dup3\n        /* \"#utility.yul\":6690:6704   */\n      lt\n        /* \"#utility.yul\":6670:6688   */\n      dup2\n        /* \"#utility.yul\":6667:6705   */\n      sub\n        /* \"#utility.yul\":6664:6748   */\n      tag_293\n      jumpi\n        /* \"#utility.yul\":6720:6738   */\n      tag_294\n      tag_217\n      jump\t// in\n    tag_294:\n        /* \"#utility.yul\":6664:6748   */\n    tag_293:\n        /* \"#utility.yul\":6485:6754   */\n      pop\n        /* \"#utility.yul\":6434:6754   */\n      swap2\n      swap1\n      pop\n      jump\t// out\n        /* \"#utility.yul\":6760:6940   */\n    tag_218:\n        /* \"#utility.yul\":6808:6885   */\n      0x4e487b7100000000000000000000000000000000000000000000000000000000\n        /* \"#utility.yul\":6805:6806   */\n      0x00\n        /* \"#utility.yul\":6798:6886   */\n      mstore\n        /* \"#utility.yul\":6905:6909   */\n      0x11\n        /* \"#utility.yul\":6902:6903   */\n      0x04\n        /* \"#utility.yul\":6895:6910   */\n      mstore\n        /* \"#utility.yul\":6929:6933   */\n      0x24\n        /* \"#utility.yul\":6926:6927   */\n      0x00\n        /* \"#utility.yul\":6919:6934   */\n      revert\n        /* \"#utility.yul\":6946:7140   */\n    tag_173:\n        /* \"#utility.yul\":6986:6990   */\n      0x00\n        /* \"#utility.yul\":7006:7026   */\n      tag_297\n        /* \"#utility.yul\":7024:7025   */\n      dup3\n        /* \"#utility.yul\":7006:7026   */\n      tag_210\n      jump\t// in\n    tag_297:\n        /* \"#utility.yul\":7001:7026   */\n      swap2\n      pop\n        /* \"#utility.yul\":7040:7060   */\n      tag_298\n        /* \"#utility.yul\":7058:7059   */\n      dup4\n        /* \"#utility.yul\":7040:7060   */\n      tag_210\n      jump\t// in\n    tag_298:\n        /* \"#utility.yul\":7035:7060   */\n      swap3\n      pop\n        /* \"#utility.yul\":7084:7085   */\n      dup3\n        /* \"#utility.yul\":7081:7082   */\n      dup3\n        /* \"#utility.yul\":7077:7086   */\n      sub\n        /* \"#utility.yul\":7069:7086   */\n      swap1\n      pop\n        /* \"#utility.yul\":7108:7109   */\n      dup2\n        /* \"#utility.yul\":7102:7106   */\n      dup2\n        /* \"#utility.yul\":7099:7110   */\n      gt\n        /* \"#utility.yul\":7096:7133   */\n      iszero\n      tag_299\n      jumpi\n        /* \"#utility.yul\":7113:7131   */\n      tag_300\n      tag_218\n      jump\t// in\n    tag_300:\n        /* \"#utility.yul\":7096:7133   */\n    tag_299:\n        /* \"#utility.yul\":6946:7140   */\n      swap3\n      swap2\n      pop\n      pop\n      jump\t// out\n        /* \"#utility.yul\":7146:7337   */\n    tag_180:\n        /* \"#utility.yul\":7186:7189   */\n      0x00\n        /* \"#utility.yul\":7205:7225   */\n      tag_302\n        /* \"#utility.yul\":7223:7224   */\n      dup3\n        /* \"#utility.yul\":7205:7225   */\n      tag_210\n      jump\t// in\n    tag_302:\n        /* \"#utility.yul\":7200:7225   */\n      swap2\n      pop\n        /* \"#utility.yul\":7239:7259   */\n      tag_303\n        /* \"#utility.yul\":7257:7258   */\n      dup4\n        /* \"#utility.yul\":7239:7259   */\n      tag_210\n      jump\t// in\n    tag_303:\n        /* \"#utility.yul\":7234:7259   */\n      swap3\n      pop\n        /* \"#utility.yul\":7282:7283   */\n      dup3\n        /* \"#utility.yul\":7279:7280   */\n      dup3\n        /* \"#utility.yul\":7275:7284   */\n      add\n        /* \"#utility.yul\":7268:7284   */\n      swap1\n      pop\n        /* \"#utility.yul\":7303:7306   */\n      dup1\n        /* \"#utility.yul\":7300:7301   */\n      dup3\n        /* \"#utility.yul\":7297:7307   */\n      gt\n        /* \"#utility.yul\":7294:7330   */\n      iszero\n      tag_304\n      jumpi\n        /* \"#utility.yul\":7310:7328   */\n      tag_305\n      tag_218\n      jump\t// in\n    tag_305:\n        /* \"#utility.yul\":7294:7330   */\n    tag_304:\n        /* \"#utility.yul\":7146:7337   */\n      swap3\n      swap2\n      pop\n      pop\n      jump\t// out\n\n    auxdata: 0xa26469706673582212208009dc4058a44404d499f6b9d504d8dff1226e6ee13d3ef8d464a8f4bdd3560764736f6c634300081e0033\n}\n",
				"bytecode": {
					"linkReferences": {},
					"object": "608060405234801561000f575f5ffd5b506040516125793803806125798339818101604052810190610031919061051d565b845f908161003f91906107d3565b50836001908161004f91906107d3565b508260025f6101000a81548160ff021916908360ff16021790555082600a61007791906109fe565b816100829190610a48565b6004819055503360075f6101000a81548173ffffffffffffffffffffffffffffffffffffffff021916908373ffffffffffffffffffffffffffffffffffffffff160217905550600160085f3373ffffffffffffffffffffffffffffffffffffffff1673ffffffffffffffffffffffffffffffffffffffff1681526020019081526020015f205f6101000a81548160ff021916908315150217905550600160095f3373ffffffffffffffffffffffffffffffffffffffff1673ffffffffffffffffffffffffffffffffffffffff1681526020019081526020015f205f6101000a81548160ff0219169083151502179055506101993384600a61018391906109fe565b8461018e9190610a48565b6101a360201b60201c565b5050505050610ae4565b5f73ffffffffffffffffffffffffffffffffffffffff168273ffffffffffffffffffffffffffffffffffffffff1603610208576040517fd92e233d00000000000000000000000000000000000000000000000000000000815260040160405180910390fd5b5f816003546102179190610a89565b9050600454811115610255576040517fc30436e900000000000000000000000000000000000000000000000000000000815260040160405180910390fd5b806003819055508160055f8573ffffffffffffffffffffffffffffffffffffffff1673ffffffffffffffffffffffffffffffffffffffff1681526020019081526020015f205f8282546102a89190610a89565b925050819055508273ffffffffffffffffffffffffffffffffffffffff167f0f6798a560793a54c3bcfe86a93cde1e73087d944c0ea20544137d4121396885836040516102f59190610acb565b60405180910390a28273ffffffffffffffffffffffffffffffffffffffff165f73ffffffffffffffffffffffffffffffffffffffff167fddf252ad1be2c89b69c2b068fc378daa952ba7f163c4a11628f55a4df523b3ef8460405161035a9190610acb565b60405180910390a3505050565b5f604051905090565b5f5ffd5b5f5ffd5b5f5ffd5b5f5ffd5b5f601f19601f8301169050919050565b7f4e487b71000000000000000000000000000000000000000000000000000000005f52604160045260245ffd5b6103c682610380565b810181811067ffffffffffffffff821117156103e5576103e4610390565b5b80604052505050565b5f6103f7610367565b905061040382826103bd565b919050565b5f67ffffffffffffffff82111561042257610421610390565b5b61042b82610380565b9050602081019050919050565b8281835e5f83830152505050565b5f61045861045384610408565b6103ee565b9050828152602081018484840111156104745761047361037c565b5b61047f848285610438565b509392505050565b5f82601f83011261049b5761049a610378565b5b81516104ab848260208601610446565b91505092915050565b5f60ff82169050919050565b6104c9816104b4565b81146104d3575f5ffd5b50565b5f815190506104e4816104c0565b92915050565b5f819050919050565b6104fc816104ea565b8114610506575f5ffd5b50565b5f81519050610517816104f3565b92915050565b5f5f5f5f5f60a0868803121561053657610535610370565b5b5f86015167ffffffffffffffff81111561055357610552610374565b5b61055f88828901610487565b955050602086015167ffffffffffffffff8111156105805761057f610374565b5b61058c88828901610487565b945050604061059d888289016104d6565b93505060606105ae88828901610509565b92505060806105bf88828901610509565b9150509295509295909350565b5f81519050919050565b7f4e487b71000000000000000000000000000000000000000000000000000000005f52602260045260245ffd5b5f600282049050600182168061061a57607f821691505b60208210810361062d5761062c6105d6565b5b50919050565b5f819050815f5260205f209050919050565b5f6020601f8301049050919050565b5f82821b905092915050565b5f6008830261068f7fffffffffffffffffffffffffffffffffffffffffffffffffffffffffffffffff82610654565b6106998683610654565b95508019841693508086168417925050509392505050565b5f819050919050565b5f6106d46106cf6106ca846104ea565b6106b1565b6104ea565b9050919050565b5f819050919050565b6106ed836106ba565b6107016106f9826106db565b848454610660565b825550505050565b5f5f905090565b610718610709565b6107238184846106e4565b505050565b5b818110156107465761073b5f82610710565b600181019050610729565b5050565b601f82111561078b5761075c81610633565b61076584610645565b81016020851015610774578190505b61078861078085610645565b830182610728565b50505b505050565b5f82821c905092915050565b5f6107ab5f1984600802610790565b1980831691505092915050565b5f6107c3838361079c565b9150826002028217905092915050565b6107dc826105cc565b67ffffffffffffffff8111156107f5576107f4610390565b5b6107ff8254610603565b61080a82828561074a565b5f60209050601f83116001811461083b575f8415610829578287015190505b61083385826107b8565b86555061089a565b601f19841661084986610633565b5f5b828110156108705784890151825560018201915060208501945060208101905061084b565b8683101561088d5784890151610889601f89168261079c565b8355505b6001600288020188555050505b505050505050565b7f4e487b71000000000000000000000000000000000000000000000000000000005f52601160045260245ffd5b5f8160011c9050919050565b5f5f8291508390505b600185111561092457808604811115610900576108ff6108a2565b5b600185161561090f5780820291505b808102905061091d856108cf565b94506108e4565b94509492505050565b5f8261093c57600190506109f7565b81610949575f90506109f7565b816001811461095f576002811461096957610998565b60019150506109f7565b60ff84111561097b5761097a6108a2565b5b8360020a915084821115610992576109916108a2565b5b506109f7565b5060208310610133831016604e8410600b84101617156109cd5782820a9050838111156109c8576109c76108a2565b5b6109f7565b6109da84848460016108db565b925090508184048111156109f1576109f06108a2565b5b81810290505b9392505050565b5f610a08826104ea565b9150610a13836104b4565b9250610a407fffffffffffffffffffffffffffffffffffffffffffffffffffffffffffffffff848461092d565b905092915050565b5f610a52826104ea565b9150610a5d836104ea565b9250828202610a6b816104ea565b91508282048414831517610a8257610a816108a2565b5b5092915050565b5f610a93826104ea565b9150610a9e836104ea565b9250828201905080821115610ab657610ab56108a2565b5b92915050565b610ac5816104ea565b82525050565b5f602082019050610ade5f830184610abc565b92915050565b611a8880610af15f395ff3fe608060405234801561000f575f5ffd5b5060043610610135575f3560e01c806370a08231116100b6578063a9059cbb1161007a578063a9059cbb14610337578063d5abeb0114610367578063dd62ed3e14610385578063f2fde38b146103b5578063f44637ba146103d1578063f46eccc4146103ed57610135565b806370a082311461029357806379cc6790146102c35780638da5cb5b146102df57806395d89b41146102fd578063983b2d561461031b57610135565b806323b872dd116100fd57806323b872dd146101f15780633092afd514610221578063313ce5671461023d57806340c10f191461025b57806342966c681461027757610135565b8063028468581461013957806303d41e0e1461015557806306fdde0314610185578063095ea7b3146101a357806318160ddd146101d3575b5f5ffd5b610153600480360381019061014e91906116c6565b61041d565b005b61016f600480360381019061016a91906116c6565b610548565b60405161017c919061170b565b60405180910390f35b61018d610565565b60405161019a9190611794565b60405180910390f35b6101bd60048036038101906101b891906117e7565b6105f0565b6040516101ca919061170b565b60405180910390f35b6101db610606565b6040516101e89190611834565b60405180910390f35b61020b6004803603810190610206919061184d565b61060c565b604051610218919061170b565b60405180910390f35b61023b600480360381019061023691906116c6565b61062e565b005b610245610759565b60405161025291906118b8565b60405180910390f35b610275600480360381019061027091906117e7565b61076b565b005b610291600480360381019061028c91906118d1565b6107f9565b005b6102ad60048036038101906102a891906116c6565b610806565b6040516102ba9190611834565b60405180910390f35b6102dd60048036038101906102d891906117e7565b61084c565b005b6102e76108e5565b6040516102f4919061190b565b60405180910390f35b61030561090a565b6040516103129190611794565b60405180910390f35b610335600480360381019061033091906116c6565b610996565b005b610351600480360381019061034c91906117e7565b610ac3565b60405161035e919061170b565b60405180910390f35b61036f610ad9565b60405161037c9190611834565b60405180910390f35b61039f600480360381019061039a9190611924565b610adf565b6040516103ac9190611834565b60405180910390f35b6103cf60048036038101906103ca91906116c6565b610b61565b005b6103eb60048036038101906103e691906116c6565b610c8f565b005b610407600480360381019061040291906116c6565b610dbc565b604051610414919061170b565b60405180910390f35b60075f9054906101000a900473ffffffffffffffffffffffffffffffffffffffff1673ffffffffffffffffffffffffffffffffffffffff163373ffffffffffffffffffffffffffffffffffffffff16146104a3576040517f30cd747100000000000000000000000000000000000000000000000000000000815260040160405180910390fd5b5f60095f8373ffffffffffffffffffffffffffffffffffffffff1673ffffffffffffffffffffffffffffffffffffffff1681526020019081526020015f205f6101000a81548160ff0219169083151502179055508073ffffffffffffffffffffffffffffffffffffffff167ff0e5abe4ab32ea692e3889b4c146fd4ddae5f17bb40ab4feba97fb67a2d4de0f5f60405161053d919061170b565b60405180910390a250565b6009602052805f5260405f205f915054906101000a900460ff1681565b5f80546105719061198f565b80601f016020809104026020016040519081016040528092919081815260200182805461059d9061198f565b80156105e85780601f106105bf576101008083540402835291602001916105e8565b820191905f5260205f20905b8154815290600101906020018083116105cb57829003601f168201915b505050505081565b5f6105fc338484610dd9565b6001905092915050565b60035481565b5f610618843384610fcc565b610623848484611057565b600190509392505050565b60075f9054906101000a900473ffffffffffffffffffffffffffffffffffffffff1673ffffffffffffffffffffffffffffffffffffffff163373ffffffffffffffffffffffffffffffffffffffff16146106b4576040517f30cd747100000000000000000000000000000000000000000000000000000000815260040160405180910390fd5b5f60085f8373ffffffffffffffffffffffffffffffffffffffff1673ffffffffffffffffffffffffffffffffffffffff1681526020019081526020015f205f6101000a81548160ff0219169083151502179055508073ffffffffffffffffffffffffffffffffffffffff167fb21afb9ce9be0a676f8f317ff0ca072fb89a4f8ce2d1b6fe80f8755c14f1cb195f60405161074e919061170b565b60405180910390a250565b60025f9054906101000a900460ff1681565b60085f3373ffffffffffffffffffffffffffffffffffffffff1673ffffffffffffffffffffffffffffffffffffffff1681526020019081526020015f205f9054906101000a900460ff166107eb576040517ff8d2906c00000000000000000000000000000000000000000000000000000000815260040160405180910390fd5b6107f582826112a7565b5050565b610803338261146b565b50565b5f60055f8373ffffffffffffffffffffffffffffffffffffffff1673ffffffffffffffffffffffffffffffffffffffff1681526020019081526020015f20549050919050565b60095f3373ffffffffffffffffffffffffffffffffffffffff1673ffffffffffffffffffffffffffffffffffffffff1681526020019081526020015f205f9054906101000a900460ff166108cc576040517ff019b1af00000000000000000000000000000000000000000000000000000000815260040160405180910390fd5b6108d7823383610fcc565b6108e1828261146b565b5050565b60075f9054906101000a900473ffffffffffffffffffffffffffffffffffffffff1681565b600180546109179061198f565b80601f01602080910402602001604051908101604052809291908181526020018280546109439061198f565b801561098e5780601f106109655761010080835404028352916020019161098e565b820191905f5260205f20905b81548152906001019060200180831161097157829003601f168201915b505050505081565b60075f9054906101000a900473ffffffffffffffffffffffffffffffffffffffff1673ffffffffffffffffffffffffffffffffffffffff163373ffffffffffffffffffffffffffffffffffffffff1614610a1c576040517f30cd747100000000000000000000000000000000000000000000000000000000815260040160405180910390fd5b600160085f8373ffffffffffffffffffffffffffffffffffffffff1673ffffffffffffffffffffffffffffffffffffffff1681526020019081526020015f205f6101000a81548160ff0219169083151502179055508073ffffffffffffffffffffffffffffffffffffffff167fb21afb9ce9be0a676f8f317ff0ca072fb89a4f8ce2d1b6fe80f8755c14f1cb196001604051610ab8919061170b565b60405180910390a250565b5f610acf338484611057565b6001905092915050565b60045481565b5f60065f8473ffffffffffffffffffffffffffffffffffffffff1673ffffffffffffffffffffffffffffffffffffffff1681526020019081526020015f205f8373ffffffffffffffffffffffffffffffffffffffff1673ffffffffffffffffffffffffffffffffffffffff1681526020019081526020015f2054905092915050565b60075f9054906101000a900473ffffffffffffffffffffffffffffffffffffffff1673ffffffffffffffffffffffffffffffffffffffff163373ffffffffffffffffffffffffffffffffffffffff1614610be7576040517f30cd747100000000000000000000000000000000000000000000000000000000815260040160405180910390fd5b5f73ffffffffffffffffffffffffffffffffffffffff168173ffffffffffffffffffffffffffffffffffffffff1603610c4c576040517fd92e233d00000000000000000000000000000000000000000000000000000000815260040160405180910390fd5b8060075f6101000a81548173ffffffffffffffffffffffffffffffffffffffff021916908373ffffffffffffffffffffffffffffffffffffffff16021790555050565b60075f9054906101000a900473ffffffffffffffffffffffffffffffffffffffff1673ffffffffffffffffffffffffffffffffffffffff163373ffffffffffffffffffffffffffffffffffffffff1614610d15576040517f30cd747100000000000000000000000000000000000000000000000000000000815260040160405180910390fd5b600160095f8373ffffffffffffffffffffffffffffffffffffffff1673ffffffffffffffffffffffffffffffffffffffff1681526020019081526020015f205f6101000a81548160ff0219169083151502179055508073ffffffffffffffffffffffffffffffffffffffff167ff0e5abe4ab32ea692e3889b4c146fd4ddae5f17bb40ab4feba97fb67a2d4de0f6001604051610db1919061170b565b60405180910390a250565b6008602052805f5260405f205f915054906101000a900460ff1681565b5f73ffffffffffffffffffffffffffffffffffffffff168373ffffffffffffffffffffffffffffffffffffffff1603610e3e576040517fd92e233d00000000000000000000000000000000000000000000000000000000815260040160405180910390fd5b5f73ffffffffffffffffffffffffffffffffffffffff168273ffffffffffffffffffffffffffffffffffffffff1603610ea3576040517fd92e233d00000000000000000000000000000000000000000000000000000000815260040160405180910390fd5b8060065f60075f9054906101000a900473ffffffffffffffffffffffffffffffffffffffff1673ffffffffffffffffffffffffffffffffffffffff1673ffffffffffffffffffffffffffffffffffffffff1681526020019081526020015f205f8473ffffffffffffffffffffffffffffffffffffffff1673ffffffffffffffffffffffffffffffffffffffff1681526020019081526020015f20819055508173ffffffffffffffffffffffffffffffffffffffff1660075f9054906101000a900473ffffffffffffffffffffffffffffffffffffffff1673ffffffffffffffffffffffffffffffffffffffff167f8c5be1e5ebec7d5bd14f71427d1e84f3dd0314c0f7b2291e5b200ac8c7c3b92583604051610fbf9190611834565b60405180910390a3505050565b5f610fd78484610adf565b90507fffffffffffffffffffffffffffffffffffffffffffffffffffffffffffffffff8114611051578181101561103a576040517ff4d678b800000000000000000000000000000000000000000000000000000000815260040160405180910390fd5b6110508484848461104b91906119ec565b610dd9565b5b50505050565b5f73ffffffffffffffffffffffffffffffffffffffff168373ffffffffffffffffffffffffffffffffffffffff16036110bc576040517fd92e233d00000000000000000000000000000000000000000000000000000000815260040160405180910390fd5b5f73ffffffffffffffffffffffffffffffffffffffff168273ffffffffffffffffffffffffffffffffffffffff1603611121576040517fd92e233d00000000000000000000000000000000000000000000000000000000815260040160405180910390fd5b5f60055f8573ffffffffffffffffffffffffffffffffffffffff1673ffffffffffffffffffffffffffffffffffffffff1681526020019081526020015f205490508181101561119c576040517ff4d678b800000000000000000000000000000000000000000000000000000000815260040160405180910390fd5b81816111a891906119ec565b60055f8673ffffffffffffffffffffffffffffffffffffffff1673ffffffffffffffffffffffffffffffffffffffff1681526020019081526020015f20819055508160055f8573ffffffffffffffffffffffffffffffffffffffff1673ffffffffffffffffffffffffffffffffffffffff1681526020019081526020015f205f8282546112359190611a1f565b925050819055508273ffffffffffffffffffffffffffffffffffffffff168473ffffffffffffffffffffffffffffffffffffffff167fddf252ad1be2c89b69c2b068fc378daa952ba7f163c4a11628f55a4df523b3ef846040516112999190611834565b60405180910390a350505050565b5f73ffffffffffffffffffffffffffffffffffffffff168273ffffffffffffffffffffffffffffffffffffffff160361130c576040517fd92e233d00000000000000000000000000000000000000000000000000000000815260040160405180910390fd5b5f8160035461131b9190611a1f565b9050600454811115611359576040517fc30436e900000000000000000000000000000000000000000000000000000000815260040160405180910390fd5b806003819055508160055f8573ffffffffffffffffffffffffffffffffffffffff1673ffffffffffffffffffffffffffffffffffffffff1681526020019081526020015f205f8282546113ac9190611a1f565b925050819055508273ffffffffffffffffffffffffffffffffffffffff167f0f6798a560793a54c3bcfe86a93cde1e73087d944c0ea20544137d4121396885836040516113f99190611834565b60405180910390a28273ffffffffffffffffffffffffffffffffffffffff165f73ffffffffffffffffffffffffffffffffffffffff167fddf252ad1be2c89b69c2b068fc378daa952ba7f163c4a11628f55a4df523b3ef8460405161145e9190611834565b60405180910390a3505050565b5f73ffffffffffffffffffffffffffffffffffffffff168273ffffffffffffffffffffffffffffffffffffffff16036114d0576040517fd92e233d00000000000000000000000000000000000000000000000000000000815260040160405180910390fd5b5f60055f8473ffffffffffffffffffffffffffffffffffffffff1673ffffffffffffffffffffffffffffffffffffffff1681526020019081526020015f205490508181101561154b576040517ff4d678b800000000000000000000000000000000000000000000000000000000815260040160405180910390fd5b818161155791906119ec565b60055f8573ffffffffffffffffffffffffffffffffffffffff1673ffffffffffffffffffffffffffffffffffffffff1681526020019081526020015f20819055508160035f8282546115a991906119ec565b925050819055508273ffffffffffffffffffffffffffffffffffffffff167fcc16f5dbb4873280815c1ee09dbd06736cffcc184412cf7a71a0fdb75d397ca5836040516115f69190611834565b60405180910390a25f73ffffffffffffffffffffffffffffffffffffffff168373ffffffffffffffffffffffffffffffffffffffff167fddf252ad1be2c89b69c2b068fc378daa952ba7f163c4a11628f55a4df523b3ef8460405161165b9190611834565b60405180910390a3505050565b5f5ffd5b5f73ffffffffffffffffffffffffffffffffffffffff82169050919050565b5f6116958261166c565b9050919050565b6116a58161168b565b81146116af575f5ffd5b50565b5f813590506116c08161169c565b92915050565b5f602082840312156116db576116da611668565b5b5f6116e8848285016116b2565b91505092915050565b5f8115159050919050565b611705816116f1565b82525050565b5f60208201905061171e5f8301846116fc565b92915050565b5f81519050919050565b5f82825260208201905092915050565b8281835e5f83830152505050565b5f601f19601f8301169050919050565b5f61176682611724565b611770818561172e565b935061178081856020860161173e565b6117898161174c565b840191505092915050565b5f6020820190508181035f8301526117ac818461175c565b905092915050565b5f819050919050565b6117c6816117b4565b81146117d0575f5ffd5b50565b5f813590506117e1816117bd565b92915050565b5f5f604083850312156117fd576117fc611668565b5b5f61180a858286016116b2565b925050602061181b858286016117d3565b9150509250929050565b61182e816117b4565b82525050565b5f6020820190506118475f830184611825565b92915050565b5f5f5f6060848603121561186457611863611668565b5b5f611871868287016116b2565b9350506020611882868287016116b2565b9250506040611893868287016117d3565b9150509250925092565b5f60ff82169050919050565b6118b28161189d565b82525050565b5f6020820190506118cb5f8301846118a9565b92915050565b5f602082840312156118e6576118e5611668565b5b5f6118f3848285016117d3565b91505092915050565b6119058161168b565b82525050565b5f60208201905061191e5f8301846118fc565b92915050565b5f5f6040838503121561193a57611939611668565b5b5f611947858286016116b2565b9250506020611958858286016116b2565b9150509250929050565b7f4e487b71000000000000000000000000000000000000000000000000000000005f52602260045260245ffd5b5f60028204905060018216806119a657607f821691505b6020821081036119b9576119b8611962565b5b50919050565b7f4e487b71000000000000000000000000000000000000000000000000000000005f52601160045260245ffd5b5f6119f6826117b4565b9150611a01836117b4565b9250828203905081811115611a1957611a186119bf565b5b92915050565b5f611a29826117b4565b9150611a34836117b4565b9250828201905080821115611a4c57611a4b6119bf565b5b9291505056fea26469706673582212208009dc4058a44404d499f6b9d504d8dff1226e6ee13d3ef8d464a8f4bdd3560764736f6c634300081e0033",
					"opcodes": "PUSH1 0x80 PUSH1 0x40 MSTORE CALLVALUE DUP1 ISZERO PUSH2 0xF JUMPI PUSH0 PUSH0 REVERT JUMPDEST POP PUSH1 0x40 MLOAD PUSH2 0x2579 CODESIZE SUB DUP1 PUSH2 0x2579 DUP4 CODECOPY DUP2 DUP2 ADD PUSH1 0x40 MSTORE DUP2 ADD SWAP1 PUSH2 0x31 SWAP2 SWAP1 PUSH2 0x51D JUMP JUMPDEST DUP5 PUSH0 SWAP1 DUP2 PUSH2 0x3F SWAP2 SWAP1 PUSH2 0x7D3 JUMP JUMPDEST POP DUP4 PUSH1 0x1 SWAP1 DUP2 PUSH2 0x4F SWAP2 SWAP1 PUSH2 0x7D3 JUMP JUMPDEST POP DUP3 PUSH1 0x2 PUSH0 PUSH2 0x100 EXP DUP2 SLOAD DUP2 PUSH1 0xFF MUL NOT AND SWAP1 DUP4 PUSH1 0xFF AND MUL OR SWAP1 SSTORE POP DUP3 PUSH1 0xA PUSH2 0x77 SWAP2 SWAP1 PUSH2 0x9FE JUMP JUMPDEST DUP2 PUSH2 0x82 SWAP2 SWAP1 PUSH2 0xA48 JUMP JUMPDEST PUSH1 0x4 DUP2 SWAP1 SSTORE POP CALLER PUSH1 0x7 PUSH0 PUSH2 0x100 EXP DUP2 SLOAD DUP2 PUSH20 0xFFFFFFFFFFFFFFFFFFFFFFFFFFFFFFFFFFFFFFFF MUL NOT AND SWAP1 DUP4 PUSH20 0xFFFFFFFFFFFFFFFFFFFFFFFFFFFFFFFFFFFFFFFF AND MUL OR SWAP1 SSTORE POP PUSH1 0x1 PUSH1 0x8 PUSH0 CALLER PUSH20 0xFFFFFFFFFFFFFFFFFFFFFFFFFFFFFFFFFFFFFFFF AND PUSH20 0xFFFFFFFFFFFFFFFFFFFFFFFFFFFFFFFFFFFFFFFF AND DUP2 MSTORE PUSH1 0x20 ADD SWAP1 DUP2 MSTORE PUSH1 0x20 ADD PUSH0 KECCAK256 PUSH0 PUSH2 0x100 EXP DUP2 SLOAD DUP2 PUSH1 0xFF MUL NOT AND SWAP1 DUP4 ISZERO ISZERO MUL OR SWAP1 SSTORE POP PUSH1 0x1 PUSH1 0x9 PUSH0 CALLER PUSH20 0xFFFFFFFFFFFFFFFFFFFFFFFFFFFFFFFFFFFFFFFF AND PUSH20 0xFFFFFFFFFFFFFFFFFFFFFFFFFFFFFFFFFFFFFFFF AND DUP2 MSTORE PUSH1 0x20 ADD SWAP1 DUP2 MSTORE PUSH1 0x20 ADD PUSH0 KECCAK256 PUSH0 PUSH2 0x100 EXP DUP2 SLOAD DUP2 PUSH1 0xFF MUL NOT AND SWAP1 DUP4 ISZERO ISZERO MUL OR SWAP1 SSTORE POP PUSH2 0x199 CALLER DUP5 PUSH1 0xA PUSH2 0x183 SWAP2 SWAP1 PUSH2 0x9FE JUMP JUMPDEST DUP5 PUSH2 0x18E SWAP2 SWAP1 PUSH2 0xA48 JUMP JUMPDEST PUSH2 0x1A3 PUSH1 0x20 SHL PUSH1 0x20 SHR JUMP JUMPDEST POP POP POP POP POP PUSH2 0xAE4 JUMP JUMPDEST PUSH0 PUSH20 0xFFFFFFFFFFFFFFFFFFFFFFFFFFFFFFFFFFFFFFFF AND DUP3 PUSH20 0xFFFFFFFFFFFFFFFFFFFFFFFFFFFFFFFFFFFFFFFF AND SUB PUSH2 0x208 JUMPI PUSH1 0x40 MLOAD PUSH32 0xD92E233D00000000000000000000000000000000000000000000000000000000 DUP2 MSTORE PUSH1 0x4 ADD PUSH1 0x40 MLOAD DUP1 SWAP2 SUB SWAP1 REVERT JUMPDEST PUSH0 DUP2 PUSH1 0x3 SLOAD PUSH2 0x217 SWAP2 SWAP1 PUSH2 0xA89 JUMP JUMPDEST SWAP1 POP PUSH1 0x4 SLOAD DUP2 GT ISZERO PUSH2 0x255 JUMPI PUSH1 0x40 MLOAD PUSH32 0xC30436E900000000000000000000000000000000000000000000000000000000 DUP2 MSTORE PUSH1 0x4 ADD PUSH1 0x40 MLOAD DUP1 SWAP2 SUB SWAP1 REVERT JUMPDEST DUP1 PUSH1 0x3 DUP2 SWAP1 SSTORE POP DUP2 PUSH1 0x5 PUSH0 DUP6 PUSH20 0xFFFFFFFFFFFFFFFFFFFFFFFFFFFFFFFFFFFFFFFF AND PUSH20 0xFFFFFFFFFFFFFFFFFFFFFFFFFFFFFFFFFFFFFFFF AND DUP2 MSTORE PUSH1 0x20 ADD SWAP1 DUP2 MSTORE PUSH1 0x20 ADD PUSH0 KECCAK256 PUSH0 DUP3 DUP3 SLOAD PUSH2 0x2A8 SWAP2 SWAP1 PUSH2 0xA89 JUMP JUMPDEST SWAP3 POP POP DUP2 SWAP1 SSTORE POP DUP3 PUSH20 0xFFFFFFFFFFFFFFFFFFFFFFFFFFFFFFFFFFFFFFFF AND PUSH32 0xF6798A560793A54C3BCFE86A93CDE1E73087D944C0EA20544137D4121396885 DUP4 PUSH1 0x40 MLOAD PUSH2 0x2F5 SWAP2 SWAP1 PUSH2 0xACB JUMP JUMPDEST PUSH1 0x40 MLOAD DUP1 SWAP2 SUB SWAP1 LOG2 DUP3 PUSH20 0xFFFFFFFFFFFFFFFFFFFFFFFFFFFFFFFFFFFFFFFF AND PUSH0 PUSH20 0xFFFFFFFFFFFFFFFFFFFFFFFFFFFFFFFFFFFFFFFF AND PUSH32 0xDDF252AD1BE2C89B69C2B068FC378DAA952BA7F163C4A11628F55A4DF523B3EF DUP5 PUSH1 0x40 MLOAD PUSH2 0x35A SWAP2 SWAP1 PUSH2 0xACB JUMP JUMPDEST PUSH1 0x40 MLOAD DUP1 SWAP2 SUB SWAP1 LOG3 POP POP POP JUMP JUMPDEST PUSH0 PUSH1 0x40 MLOAD SWAP1 POP SWAP1 JUMP JUMPDEST PUSH0 PUSH0 REVERT JUMPDEST PUSH0 PUSH0 REVERT JUMPDEST PUSH0 PUSH0 REVERT JUMPDEST PUSH0 PUSH0 REVERT JUMPDEST PUSH0 PUSH1 0x1F NOT PUSH1 0x1F DUP4 ADD AND SWAP1 POP SWAP2 SWAP1 POP JUMP JUMPDEST PUSH32 0x4E487B7100000000000000000000000000000000000000000000000000000000 PUSH0 MSTORE PUSH1 0x41 PUSH1 0x4 MSTORE PUSH1 0x24 PUSH0 REVERT JUMPDEST PUSH2 0x3C6 DUP3 PUSH2 0x380 JUMP JUMPDEST DUP2 ADD DUP2 DUP2 LT PUSH8 0xFFFFFFFFFFFFFFFF DUP3 GT OR ISZERO PUSH2 0x3E5 JUMPI PUSH2 0x3E4 PUSH2 0x390 JUMP JUMPDEST JUMPDEST DUP1 PUSH1 0x40 MSTORE POP POP POP JUMP JUMPDEST PUSH0 PUSH2 0x3F7 PUSH2 0x367 JUMP JUMPDEST SWAP1 POP PUSH2 0x403 DUP3 DUP3 PUSH2 0x3BD JUMP JUMPDEST SWAP2 SWAP1 POP JUMP JUMPDEST PUSH0 PUSH8 0xFFFFFFFFFFFFFFFF DUP3 GT ISZERO PUSH2 0x422 JUMPI PUSH2 0x421 PUSH2 0x390 JUMP JUMPDEST JUMPDEST PUSH2 0x42B DUP3 PUSH2 0x380 JUMP JUMPDEST SWAP1 POP PUSH1 0x20 DUP2 ADD SWAP1 POP SWAP2 SWAP1 POP JUMP JUMPDEST DUP3 DUP2 DUP4 MCOPY PUSH0 DUP4 DUP4 ADD MSTORE POP POP POP JUMP JUMPDEST PUSH0 PUSH2 0x458 PUSH2 0x453 DUP5 PUSH2 0x408 JUMP JUMPDEST PUSH2 0x3EE JUMP JUMPDEST SWAP1 POP DUP3 DUP2 MSTORE PUSH1 0x20 DUP2 ADD DUP5 DUP5 DUP5 ADD GT ISZERO PUSH2 0x474 JUMPI PUSH2 0x473 PUSH2 0x37C JUMP JUMPDEST JUMPDEST PUSH2 0x47F DUP5 DUP3 DUP6 PUSH2 0x438 JUMP JUMPDEST POP SWAP4 SWAP3 POP POP POP JUMP JUMPDEST PUSH0 DUP3 PUSH1 0x1F DUP4 ADD SLT PUSH2 0x49B JUMPI PUSH2 0x49A PUSH2 0x378 JUMP JUMPDEST JUMPDEST DUP2 MLOAD PUSH2 0x4AB DUP5 DUP3 PUSH1 0x20 DUP7 ADD PUSH2 0x446 JUMP JUMPDEST SWAP2 POP POP SWAP3 SWAP2 POP POP JUMP JUMPDEST PUSH0 PUSH1 0xFF DUP3 AND SWAP1 POP SWAP2 SWAP1 POP JUMP JUMPDEST PUSH2 0x4C9 DUP2 PUSH2 0x4B4 JUMP JUMPDEST DUP2 EQ PUSH2 0x4D3 JUMPI PUSH0 PUSH0 REVERT JUMPDEST POP JUMP JUMPDEST PUSH0 DUP2 MLOAD SWAP1 POP PUSH2 0x4E4 DUP2 PUSH2 0x4C0 JUMP JUMPDEST SWAP3 SWAP2 POP POP JUMP JUMPDEST PUSH0 DUP2 SWAP1 POP SWAP2 SWAP1 POP JUMP JUMPDEST PUSH2 0x4FC DUP2 PUSH2 0x4EA JUMP JUMPDEST DUP2 EQ PUSH2 0x506 JUMPI PUSH0 PUSH0 REVERT JUMPDEST POP JUMP JUMPDEST PUSH0 DUP2 MLOAD SWAP1 POP PUSH2 0x517 DUP2 PUSH2 0x4F3 JUMP JUMPDEST SWAP3 SWAP2 POP POP JUMP JUMPDEST PUSH0 PUSH0 PUSH0 PUSH0 PUSH0 PUSH1 0xA0 DUP7 DUP9 SUB SLT ISZERO PUSH2 0x536 JUMPI PUSH2 0x535 PUSH2 0x370 JUMP JUMPDEST JUMPDEST PUSH0 DUP7 ADD MLOAD PUSH8 0xFFFFFFFFFFFFFFFF DUP2 GT ISZERO PUSH2 0x553 JUMPI PUSH2 0x552 PUSH2 0x374 JUMP JUMPDEST JUMPDEST PUSH2 0x55F DUP9 DUP3 DUP10 ADD PUSH2 0x487 JUMP JUMPDEST SWAP6 POP POP PUSH1 0x20 DUP7 ADD MLOAD PUSH8 0xFFFFFFFFFFFFFFFF DUP2 GT ISZERO PUSH2 0x580 JUMPI PUSH2 0x57F PUSH2 0x374 JUMP JUMPDEST JUMPDEST PUSH2 0x58C DUP9 DUP3 DUP10 ADD PUSH2 0x487 JUMP JUMPDEST SWAP5 POP POP PUSH1 0x40 PUSH2 0x59D DUP9 DUP3 DUP10 ADD PUSH2 0x4D6 JUMP JUMPDEST SWAP4 POP POP PUSH1 0x60 PUSH2 0x5AE DUP9 DUP3 DUP10 ADD PUSH2 0x509 JUMP JUMPDEST SWAP3 POP POP PUSH1 0x80 PUSH2 0x5BF DUP9 DUP3 DUP10 ADD PUSH2 0x509 JUMP JUMPDEST SWAP2 POP POP SWAP3 SWAP6 POP SWAP3 SWAP6 SWAP1 SWAP4 POP JUMP JUMPDEST PUSH0 DUP2 MLOAD SWAP1 POP SWAP2 SWAP1 POP JUMP JUMPDEST PUSH32 0x4E487B7100000000000000000000000000000000000000000000000000000000 PUSH0 MSTORE PUSH1 0x22 PUSH1 0x4 MSTORE PUSH1 0x24 PUSH0 REVERT JUMPDEST PUSH0 PUSH1 0x2 DUP3 DIV SWAP1 POP PUSH1 0x1 DUP3 AND DUP1 PUSH2 0x61A JUMPI PUSH1 0x7F DUP3 AND SWAP2 POP JUMPDEST PUSH1 0x20 DUP3 LT DUP2 SUB PUSH2 0x62D JUMPI PUSH2 0x62C PUSH2 0x5D6 JUMP JUMPDEST JUMPDEST POP SWAP2 SWAP1 POP JUMP JUMPDEST PUSH0 DUP2 SWAP1 POP DUP2 PUSH0 MSTORE PUSH1 0x20 PUSH0 KECCAK256 SWAP1 POP SWAP2 SWAP1 POP JUMP JUMPDEST PUSH0 PUSH1 0x20 PUSH1 0x1F DUP4 ADD DIV SWAP1 POP SWAP2 SWAP1 POP JUMP JUMPDEST PUSH0 DUP3 DUP3 SHL SWAP1 POP SWAP3 SWAP2 POP POP JUMP JUMPDEST PUSH0 PUSH1 0x8 DUP4 MUL PUSH2 0x68F PUSH32 0xFFFFFFFFFFFFFFFFFFFFFFFFFFFFFFFFFFFFFFFFFFFFFFFFFFFFFFFFFFFFFFFF DUP3 PUSH2 0x654 JUMP JUMPDEST PUSH2 0x699 DUP7 DUP4 PUSH2 0x654 JUMP JUMPDEST SWAP6 POP DUP1 NOT DUP5 AND SWAP4 POP DUP1 DUP7 AND DUP5 OR SWAP3 POP POP POP SWAP4 SWAP3 POP POP POP JUMP JUMPDEST PUSH0 DUP2 SWAP1 POP SWAP2 SWAP1 POP JUMP JUMPDEST PUSH0 PUSH2 0x6D4 PUSH2 0x6CF PUSH2 0x6CA DUP5 PUSH2 0x4EA JUMP JUMPDEST PUSH2 0x6B1 JUMP JUMPDEST PUSH2 0x4EA JUMP JUMPDEST SWAP1 POP SWAP2 SWAP1 POP JUMP JUMPDEST PUSH0 DUP2 SWAP1 POP SWAP2 SWAP1 POP JUMP JUMPDEST PUSH2 0x6ED DUP4 PUSH2 0x6BA JUMP JUMPDEST PUSH2 0x701 PUSH2 0x6F9 DUP3 PUSH2 0x6DB JUMP JUMPDEST DUP5 DUP5 SLOAD PUSH2 0x660 JUMP JUMPDEST DUP3 SSTORE POP POP POP POP JUMP JUMPDEST PUSH0 PUSH0 SWAP1 POP SWAP1 JUMP JUMPDEST PUSH2 0x718 PUSH2 0x709 JUMP JUMPDEST PUSH2 0x723 DUP2 DUP5 DUP5 PUSH2 0x6E4 JUMP JUMPDEST POP POP POP JUMP JUMPDEST JUMPDEST DUP2 DUP2 LT ISZERO PUSH2 0x746 JUMPI PUSH2 0x73B PUSH0 DUP3 PUSH2 0x710 JUMP JUMPDEST PUSH1 0x1 DUP2 ADD SWAP1 POP PUSH2 0x729 JUMP JUMPDEST POP POP JUMP JUMPDEST PUSH1 0x1F DUP3 GT ISZERO PUSH2 0x78B JUMPI PUSH2 0x75C DUP2 PUSH2 0x633 JUMP JUMPDEST PUSH2 0x765 DUP5 PUSH2 0x645 JUMP JUMPDEST DUP2 ADD PUSH1 0x20 DUP6 LT ISZERO PUSH2 0x774 JUMPI DUP2 SWAP1 POP JUMPDEST PUSH2 0x788 PUSH2 0x780 DUP6 PUSH2 0x645 JUMP JUMPDEST DUP4 ADD DUP3 PUSH2 0x728 JUMP JUMPDEST POP POP JUMPDEST POP POP POP JUMP JUMPDEST PUSH0 DUP3 DUP3 SHR SWAP1 POP SWAP3 SWAP2 POP POP JUMP JUMPDEST PUSH0 PUSH2 0x7AB PUSH0 NOT DUP5 PUSH1 0x8 MUL PUSH2 0x790 JUMP JUMPDEST NOT DUP1 DUP4 AND SWAP2 POP POP SWAP3 SWAP2 POP POP JUMP JUMPDEST PUSH0 PUSH2 0x7C3 DUP4 DUP4 PUSH2 0x79C JUMP JUMPDEST SWAP2 POP DUP3 PUSH1 0x2 MUL DUP3 OR SWAP1 POP SWAP3 SWAP2 POP POP JUMP JUMPDEST PUSH2 0x7DC DUP3 PUSH2 0x5CC JUMP JUMPDEST PUSH8 0xFFFFFFFFFFFFFFFF DUP2 GT ISZERO PUSH2 0x7F5 JUMPI PUSH2 0x7F4 PUSH2 0x390 JUMP JUMPDEST JUMPDEST PUSH2 0x7FF DUP3 SLOAD PUSH2 0x603 JUMP JUMPDEST PUSH2 0x80A DUP3 DUP3 DUP6 PUSH2 0x74A JUMP JUMPDEST PUSH0 PUSH1 0x20 SWAP1 POP PUSH1 0x1F DUP4 GT PUSH1 0x1 DUP2 EQ PUSH2 0x83B JUMPI PUSH0 DUP5 ISZERO PUSH2 0x829 JUMPI DUP3 DUP8 ADD MLOAD SWAP1 POP JUMPDEST PUSH2 0x833 DUP6 DUP3 PUSH2 0x7B8 JUMP JUMPDEST DUP7 SSTORE POP PUSH2 0x89A JUMP JUMPDEST PUSH1 0x1F NOT DUP5 AND PUSH2 0x849 DUP7 PUSH2 0x633 JUMP JUMPDEST PUSH0 JUMPDEST DUP3 DUP2 LT ISZERO PUSH2 0x870 JUMPI DUP5 DUP10 ADD MLOAD DUP3 SSTORE PUSH1 0x1 DUP3 ADD SWAP2 POP PUSH1 0x20 DUP6 ADD SWAP5 POP PUSH1 0x20 DUP2 ADD SWAP1 POP PUSH2 0x84B JUMP JUMPDEST DUP7 DUP4 LT ISZERO PUSH2 0x88D JUMPI DUP5 DUP10 ADD MLOAD PUSH2 0x889 PUSH1 0x1F DUP10 AND DUP3 PUSH2 0x79C JUMP JUMPDEST DUP4 SSTORE POP JUMPDEST PUSH1 0x1 PUSH1 0x2 DUP9 MUL ADD DUP9 SSTORE POP POP POP JUMPDEST POP POP POP POP POP POP JUMP JUMPDEST PUSH32 0x4E487B7100000000000000000000000000000000000000000000000000000000 PUSH0 MSTORE PUSH1 0x11 PUSH1 0x4 MSTORE PUSH1 0x24 PUSH0 REVERT JUMPDEST PUSH0 DUP2 PUSH1 0x1 SHR SWAP1 POP SWAP2 SWAP1 POP JUMP JUMPDEST PUSH0 PUSH0 DUP3 SWAP2 POP DUP4 SWAP1 POP JUMPDEST PUSH1 0x1 DUP6 GT ISZERO PUSH2 0x924 JUMPI DUP1 DUP7 DIV DUP2 GT ISZERO PUSH2 0x900 JUMPI PUSH2 0x8FF PUSH2 0x8A2 JUMP JUMPDEST JUMPDEST PUSH1 0x1 DUP6 AND ISZERO PUSH2 0x90F JUMPI DUP1 DUP3 MUL SWAP2 POP JUMPDEST DUP1 DUP2 MUL SWAP1 POP PUSH2 0x91D DUP6 PUSH2 0x8CF JUMP JUMPDEST SWAP5 POP PUSH2 0x8E4 JUMP JUMPDEST SWAP5 POP SWAP5 SWAP3 POP POP POP JUMP JUMPDEST PUSH0 DUP3 PUSH2 0x93C JUMPI PUSH1 0x1 SWAP1 POP PUSH2 0x9F7 JUMP JUMPDEST DUP2 PUSH2 0x949 JUMPI PUSH0 SWAP1 POP PUSH2 0x9F7 JUMP JUMPDEST DUP2 PUSH1 0x1 DUP2 EQ PUSH2 0x95F JUMPI PUSH1 0x2 DUP2 EQ PUSH2 0x969 JUMPI PUSH2 0x998 JUMP JUMPDEST PUSH1 0x1 SWAP2 POP POP PUSH2 0x9F7 JUMP JUMPDEST PUSH1 0xFF DUP5 GT ISZERO PUSH2 0x97B JUMPI PUSH2 0x97A PUSH2 0x8A2 JUMP JUMPDEST JUMPDEST DUP4 PUSH1 0x2 EXP SWAP2 POP DUP5 DUP3 GT ISZERO PUSH2 0x992 JUMPI PUSH2 0x991 PUSH2 0x8A2 JUMP JUMPDEST JUMPDEST POP PUSH2 0x9F7 JUMP JUMPDEST POP PUSH1 0x20 DUP4 LT PUSH2 0x133 DUP4 LT AND PUSH1 0x4E DUP5 LT PUSH1 0xB DUP5 LT AND OR ISZERO PUSH2 0x9CD JUMPI DUP3 DUP3 EXP SWAP1 POP DUP4 DUP2 GT ISZERO PUSH2 0x9C8 JUMPI PUSH2 0x9C7 PUSH2 0x8A2 JUMP JUMPDEST JUMPDEST PUSH2 0x9F7 JUMP JUMPDEST PUSH2 0x9DA DUP5 DUP5 DUP5 PUSH1 0x1 PUSH2 0x8DB JUMP JUMPDEST SWAP3 POP SWAP1 POP DUP2 DUP5 DIV DUP2 GT ISZERO PUSH2 0x9F1 JUMPI PUSH2 0x9F0 PUSH2 0x8A2 JUMP JUMPDEST JUMPDEST DUP2 DUP2 MUL SWAP1 POP JUMPDEST SWAP4 SWAP3 POP POP POP JUMP JUMPDEST PUSH0 PUSH2 0xA08 DUP3 PUSH2 0x4EA JUMP JUMPDEST SWAP2 POP PUSH2 0xA13 DUP4 PUSH2 0x4B4 JUMP JUMPDEST SWAP3 POP PUSH2 0xA40 PUSH32 0xFFFFFFFFFFFFFFFFFFFFFFFFFFFFFFFFFFFFFFFFFFFFFFFFFFFFFFFFFFFFFFFF DUP5 DUP5 PUSH2 0x92D JUMP JUMPDEST SWAP1 POP SWAP3 SWAP2 POP POP JUMP JUMPDEST PUSH0 PUSH2 0xA52 DUP3 PUSH2 0x4EA JUMP JUMPDEST SWAP2 POP PUSH2 0xA5D DUP4 PUSH2 0x4EA JUMP JUMPDEST SWAP3 POP DUP3 DUP3 MUL PUSH2 0xA6B DUP2 PUSH2 0x4EA JUMP JUMPDEST SWAP2 POP DUP3 DUP3 DIV DUP5 EQ DUP4 ISZERO OR PUSH2 0xA82 JUMPI PUSH2 0xA81 PUSH2 0x8A2 JUMP JUMPDEST JUMPDEST POP SWAP3 SWAP2 POP POP JUMP JUMPDEST PUSH0 PUSH2 0xA93 DUP3 PUSH2 0x4EA JUMP JUMPDEST SWAP2 POP PUSH2 0xA9E DUP4 PUSH2 0x4EA JUMP JUMPDEST SWAP3 POP DUP3 DUP3 ADD SWAP1 POP DUP1 DUP3 GT ISZERO PUSH2 0xAB6 JUMPI PUSH2 0xAB5 PUSH2 0x8A2 JUMP JUMPDEST JUMPDEST SWAP3 SWAP2 POP POP JUMP JUMPDEST PUSH2 0xAC5 DUP2 PUSH2 0x4EA JUMP JUMPDEST DUP3 MSTORE POP POP JUMP JUMPDEST PUSH0 PUSH1 0x20 DUP3 ADD SWAP1 POP PUSH2 0xADE PUSH0 DUP4 ADD DUP5 PUSH2 0xABC JUMP JUMPDEST SWAP3 SWAP2 POP POP JUMP JUMPDEST PUSH2 0x1A88 DUP1 PUSH2 0xAF1 PUSH0 CODECOPY PUSH0 RETURN INVALID PUSH1 0x80 PUSH1 0x40 MSTORE CALLVALUE DUP1 ISZERO PUSH2 0xF JUMPI PUSH0 PUSH0 REVERT JUMPDEST POP PUSH1 0x4 CALLDATASIZE LT PUSH2 0x135 JUMPI PUSH0 CALLDATALOAD PUSH1 0xE0 SHR DUP1 PUSH4 0x70A08231 GT PUSH2 0xB6 JUMPI DUP1 PUSH4 0xA9059CBB GT PUSH2 0x7A JUMPI DUP1 PUSH4 0xA9059CBB EQ PUSH2 0x337 JUMPI DUP1 PUSH4 0xD5ABEB01 EQ PUSH2 0x367 JUMPI DUP1 PUSH4 0xDD62ED3E EQ PUSH2 0x385 JUMPI DUP1 PUSH4 0xF2FDE38B EQ PUSH2 0x3B5 JUMPI DUP1 PUSH4 0xF44637BA EQ PUSH2 0x3D1 JUMPI DUP1 PUSH4 0xF46ECCC4 EQ PUSH2 0x3ED JUMPI PUSH2 0x135 JUMP JUMPDEST DUP1 PUSH4 0x70A08231 EQ PUSH2 0x293 JUMPI DUP1 PUSH4 0x79CC6790 EQ PUSH2 0x2C3 JUMPI DUP1 PUSH4 0x8DA5CB5B EQ PUSH2 0x2DF JUMPI DUP1 PUSH4 0x95D89B41 EQ PUSH2 0x2FD JUMPI DUP1 PUSH4 0x983B2D56 EQ PUSH2 0x31B JUMPI PUSH2 0x135 JUMP JUMPDEST DUP1 PUSH4 0x23B872DD GT PUSH2 0xFD JUMPI DUP1 PUSH4 0x23B872DD EQ PUSH2 0x1F1 JUMPI DUP1 PUSH4 0x3092AFD5 EQ PUSH2 0x221 JUMPI DUP1 PUSH4 0x313CE567 EQ PUSH2 0x23D JUMPI DUP1 PUSH4 0x40C10F19 EQ PUSH2 0x25B JUMPI DUP1 PUSH4 0x42966C68 EQ PUSH2 0x277 JUMPI PUSH2 0x135 JUMP JUMPDEST DUP1 PUSH4 0x2846858 EQ PUSH2 0x139 JUMPI DUP1 PUSH4 0x3D41E0E EQ PUSH2 0x155 JUMPI DUP1 PUSH4 0x6FDDE03 EQ PUSH2 0x185 JUMPI DUP1 PUSH4 0x95EA7B3 EQ PUSH2 0x1A3 JUMPI DUP1 PUSH4 0x18160DDD EQ PUSH2 0x1D3 JUMPI JUMPDEST PUSH0 PUSH0 REVERT JUMPDEST PUSH2 0x153 PUSH1 0x4 DUP1 CALLDATASIZE SUB DUP2 ADD SWAP1 PUSH2 0x14E SWAP2 SWAP1 PUSH2 0x16C6 JUMP JUMPDEST PUSH2 0x41D JUMP JUMPDEST STOP JUMPDEST PUSH2 0x16F PUSH1 0x4 DUP1 CALLDATASIZE SUB DUP2 ADD SWAP1 PUSH2 0x16A SWAP2 SWAP1 PUSH2 0x16C6 JUMP JUMPDEST PUSH2 0x548 JUMP JUMPDEST PUSH1 0x40 MLOAD PUSH2 0x17C SWAP2 SWAP1 PUSH2 0x170B JUMP JUMPDEST PUSH1 0x40 MLOAD DUP1 SWAP2 SUB SWAP1 RETURN JUMPDEST PUSH2 0x18D PUSH2 0x565 JUMP JUMPDEST PUSH1 0x40 MLOAD PUSH2 0x19A SWAP2 SWAP1 PUSH2 0x1794 JUMP JUMPDEST PUSH1 0x40 MLOAD DUP1 SWAP2 SUB SWAP1 RETURN JUMPDEST PUSH2 0x1BD PUSH1 0x4 DUP1 CALLDATASIZE SUB DUP2 ADD SWAP1 PUSH2 0x1B8 SWAP2 SWAP1 PUSH2 0x17E7 JUMP JUMPDEST PUSH2 0x5F0 JUMP JUMPDEST PUSH1 0x40 MLOAD PUSH2 0x1CA SWAP2 SWAP1 PUSH2 0x170B JUMP JUMPDEST PUSH1 0x40 MLOAD DUP1 SWAP2 SUB SWAP1 RETURN JUMPDEST PUSH2 0x1DB PUSH2 0x606 JUMP JUMPDEST PUSH1 0x40 MLOAD PUSH2 0x1E8 SWAP2 SWAP1 PUSH2 0x1834 JUMP JUMPDEST PUSH1 0x40 MLOAD DUP1 SWAP2 SUB SWAP1 RETURN JUMPDEST PUSH2 0x20B PUSH1 0x4 DUP1 CALLDATASIZE SUB DUP2 ADD SWAP1 PUSH2 0x206 SWAP2 SWAP1 PUSH2 0x184D JUMP JUMPDEST PUSH2 0x60C JUMP JUMPDEST PUSH1 0x40 MLOAD PUSH2 0x218 SWAP2 SWAP1 PUSH2 0x170B JUMP JUMPDEST PUSH1 0x40 MLOAD DUP1 SWAP2 SUB SWAP1 RETURN JUMPDEST PUSH2 0x23B PUSH1 0x4 DUP1 CALLDATASIZE SUB DUP2 ADD SWAP1 PUSH2 0x236 SWAP2 SWAP1 PUSH2 0x16C6 JUMP JUMPDEST PUSH2 0x62E JUMP JUMPDEST STOP JUMPDEST PUSH2 0x245 PUSH2 0x759 JUMP JUMPDEST PUSH1 0x40 MLOAD PUSH2 0x252 SWAP2 SWAP1 PUSH2 0x18B8 JUMP JUMPDEST PUSH1 0x40 MLOAD DUP1 SWAP2 SUB SWAP1 RETURN JUMPDEST PUSH2 0x275 PUSH1 0x4 DUP1 CALLDATASIZE SUB DUP2 ADD SWAP1 PUSH2 0x270 SWAP2 SWAP1 PUSH2 0x17E7 JUMP JUMPDEST PUSH2 0x76B JUMP JUMPDEST STOP JUMPDEST PUSH2 0x291 PUSH1 0x4 DUP1 CALLDATASIZE SUB DUP2 ADD SWAP1 PUSH2 0x28C SWAP2 SWAP1 PUSH2 0x18D1 JUMP JUMPDEST PUSH2 0x7F9 JUMP JUMPDEST STOP JUMPDEST PUSH2 0x2AD PUSH1 0x4 DUP1 CALLDATASIZE SUB DUP2 ADD SWAP1 PUSH2 0x2A8 SWAP2 SWAP1 PUSH2 0x16C6 JUMP JUMPDEST PUSH2 0x806 JUMP JUMPDEST PUSH1 0x40 MLOAD PUSH2 0x2BA SWAP2 SWAP1 PUSH2 0x1834 JUMP JUMPDEST PUSH1 0x40 MLOAD DUP1 SWAP2 SUB SWAP1 RETURN JUMPDEST PUSH2 0x2DD PUSH1 0x4 DUP1 CALLDATASIZE SUB DUP2 ADD SWAP1 PUSH2 0x2D8 SWAP2 SWAP1 PUSH2 0x17E7 JUMP JUMPDEST PUSH2 0x84C JUMP JUMPDEST STOP JUMPDEST PUSH2 0x2E7 PUSH2 0x8E5 JUMP JUMPDEST PUSH1 0x40 MLOAD PUSH2 0x2F4 SWAP2 SWAP1 PUSH2 0x190B JUMP JUMPDEST PUSH1 0x40 MLOAD DUP1 SWAP2 SUB SWAP1 RETURN JUMPDEST PUSH2 0x305 PUSH2 0x90A JUMP JUMPDEST PUSH1 0x40 MLOAD PUSH2 0x312 SWAP2 SWAP1 PUSH2 0x1794 JUMP JUMPDEST PUSH1 0x40 MLOAD DUP1 SWAP2 SUB SWAP1 RETURN JUMPDEST PUSH2 0x335 PUSH1 0x4 DUP1 CALLDATASIZE SUB DUP2 ADD SWAP1 PUSH2 0x330 SWAP2 SWAP1 PUSH2 0x16C6 JUMP JUMPDEST PUSH2 0x996 JUMP JUMPDEST STOP JUMPDEST PUSH2 0x351 PUSH1 0x4 DUP1 CALLDATASIZE SUB DUP2 ADD SWAP1 PUSH2 0x34C SWAP2 SWAP1 PUSH2 0x17E7 JUMP JUMPDEST PUSH2 0xAC3 JUMP JUMPDEST PUSH1 0x40 MLOAD PUSH2 0x35E SWAP2 SWAP1 PUSH2 0x170B JUMP JUMPDEST PUSH1 0x40 MLOAD DUP1 SWAP2 SUB SWAP1 RETURN JUMPDEST PUSH2 0x36F PUSH2 0xAD9 JUMP JUMPDEST PUSH1 0x40 MLOAD PUSH2 0x37C SWAP2 SWAP1 PUSH2 0x1834 JUMP JUMPDEST PUSH1 0x40 MLOAD DUP1 SWAP2 SUB SWAP1 RETURN JUMPDEST PUSH2 0x39F PUSH1 0x4 DUP1 CALLDATASIZE SUB DUP2 ADD SWAP1 PUSH2 0x39A SWAP2 SWAP1 PUSH2 0x1924 JUMP JUMPDEST PUSH2 0xADF JUMP JUMPDEST PUSH1 0x40 MLOAD PUSH2 0x3AC SWAP2 SWAP1 PUSH2 0x1834 JUMP JUMPDEST PUSH1 0x40 MLOAD DUP1 SWAP2 SUB SWAP1 RETURN JUMPDEST PUSH2 0x3CF PUSH1 0x4 DUP1 CALLDATASIZE SUB DUP2 ADD SWAP1 PUSH2 0x3CA SWAP2 SWAP1 PUSH2 0x16C6 JUMP JUMPDEST PUSH2 0xB61 JUMP JUMPDEST STOP JUMPDEST PUSH2 0x3EB PUSH1 0x4 DUP1 CALLDATASIZE SUB DUP2 ADD SWAP1 PUSH2 0x3E6 SWAP2 SWAP1 PUSH2 0x16C6 JUMP JUMPDEST PUSH2 0xC8F JUMP JUMPDEST STOP JUMPDEST PUSH2 0x407 PUSH1 0x4 DUP1 CALLDATASIZE SUB DUP2 ADD SWAP1 PUSH2 0x402 SWAP2 SWAP1 PUSH2 0x16C6 JUMP JUMPDEST PUSH2 0xDBC JUMP JUMPDEST PUSH1 0x40 MLOAD PUSH2 0x414 SWAP2 SWAP1 PUSH2 0x170B JUMP JUMPDEST PUSH1 0x40 MLOAD DUP1 SWAP2 SUB SWAP1 RETURN JUMPDEST PUSH1 0x7 PUSH0 SWAP1 SLOAD SWAP1 PUSH2 0x100 EXP SWAP1 DIV PUSH20 0xFFFFFFFFFFFFFFFFFFFFFFFFFFFFFFFFFFFFFFFF AND PUSH20 0xFFFFFFFFFFFFFFFFFFFFFFFFFFFFFFFFFFFFFFFF AND CALLER PUSH20 0xFFFFFFFFFFFFFFFFFFFFFFFFFFFFFFFFFFFFFFFF AND EQ PUSH2 0x4A3 JUMPI PUSH1 0x40 MLOAD PUSH32 0x30CD747100000000000000000000000000000000000000000000000000000000 DUP2 MSTORE PUSH1 0x4 ADD PUSH1 0x40 MLOAD DUP1 SWAP2 SUB SWAP1 REVERT JUMPDEST PUSH0 PUSH1 0x9 PUSH0 DUP4 PUSH20 0xFFFFFFFFFFFFFFFFFFFFFFFFFFFFFFFFFFFFFFFF AND PUSH20 0xFFFFFFFFFFFFFFFFFFFFFFFFFFFFFFFFFFFFFFFF AND DUP2 MSTORE PUSH1 0x20 ADD SWAP1 DUP2 MSTORE PUSH1 0x20 ADD PUSH0 KECCAK256 PUSH0 PUSH2 0x100 EXP DUP2 SLOAD DUP2 PUSH1 0xFF MUL NOT AND SWAP1 DUP4 ISZERO ISZERO MUL OR SWAP1 SSTORE POP DUP1 PUSH20 0xFFFFFFFFFFFFFFFFFFFFFFFFFFFFFFFFFFFFFFFF AND PUSH32 0xF0E5ABE4AB32EA692E3889B4C146FD4DDAE5F17BB40AB4FEBA97FB67A2D4DE0F PUSH0 PUSH1 0x40 MLOAD PUSH2 0x53D SWAP2 SWAP1 PUSH2 0x170B JUMP JUMPDEST PUSH1 0x40 MLOAD DUP1 SWAP2 SUB SWAP1 LOG2 POP JUMP JUMPDEST PUSH1 0x9 PUSH1 0x20 MSTORE DUP1 PUSH0 MSTORE PUSH1 0x40 PUSH0 KECCAK256 PUSH0 SWAP2 POP SLOAD SWAP1 PUSH2 0x100 EXP SWAP1 DIV PUSH1 0xFF AND DUP2 JUMP JUMPDEST PUSH0 DUP1 SLOAD PUSH2 0x571 SWAP1 PUSH2 0x198F JUMP JUMPDEST DUP1 PUSH1 0x1F ADD PUSH1 0x20 DUP1 SWAP2 DIV MUL PUSH1 0x20 ADD PUSH1 0x40 MLOAD SWAP1 DUP2 ADD PUSH1 0x40 MSTORE DUP1 SWAP3 SWAP2 SWAP1 DUP2 DUP2 MSTORE PUSH1 0x20 ADD DUP3 DUP1 SLOAD PUSH2 0x59D SWAP1 PUSH2 0x198F JUMP JUMPDEST DUP1 ISZERO PUSH2 0x5E8 JUMPI DUP1 PUSH1 0x1F LT PUSH2 0x5BF JUMPI PUSH2 0x100 DUP1 DUP4 SLOAD DIV MUL DUP4 MSTORE SWAP2 PUSH1 0x20 ADD SWAP2 PUSH2 0x5E8 JUMP JUMPDEST DUP3 ADD SWAP2 SWAP1 PUSH0 MSTORE PUSH1 0x20 PUSH0 KECCAK256 SWAP1 JUMPDEST DUP2 SLOAD DUP2 MSTORE SWAP1 PUSH1 0x1 ADD SWAP1 PUSH1 0x20 ADD DUP1 DUP4 GT PUSH2 0x5CB JUMPI DUP3 SWAP1 SUB PUSH1 0x1F AND DUP3 ADD SWAP2 JUMPDEST POP POP POP POP POP DUP2 JUMP JUMPDEST PUSH0 PUSH2 0x5FC CALLER DUP5 DUP5 PUSH2 0xDD9 JUMP JUMPDEST PUSH1 0x1 SWAP1 POP SWAP3 SWAP2 POP POP JUMP JUMPDEST PUSH1 0x3 SLOAD DUP2 JUMP JUMPDEST PUSH0 PUSH2 0x618 DUP5 CALLER DUP5 PUSH2 0xFCC JUMP JUMPDEST PUSH2 0x623 DUP5 DUP5 DUP5 PUSH2 0x1057 JUMP JUMPDEST PUSH1 0x1 SWAP1 POP SWAP4 SWAP3 POP POP POP JUMP JUMPDEST PUSH1 0x7 PUSH0 SWAP1 SLOAD SWAP1 PUSH2 0x100 EXP SWAP1 DIV PUSH20 0xFFFFFFFFFFFFFFFFFFFFFFFFFFFFFFFFFFFFFFFF AND PUSH20 0xFFFFFFFFFFFFFFFFFFFFFFFFFFFFFFFFFFFFFFFF AND CALLER PUSH20 0xFFFFFFFFFFFFFFFFFFFFFFFFFFFFFFFFFFFFFFFF AND EQ PUSH2 0x6B4 JUMPI PUSH1 0x40 MLOAD PUSH32 0x30CD747100000000000000000000000000000000000000000000000000000000 DUP2 MSTORE PUSH1 0x4 ADD PUSH1 0x40 MLOAD DUP1 SWAP2 SUB SWAP1 REVERT JUMPDEST PUSH0 PUSH1 0x8 PUSH0 DUP4 PUSH20 0xFFFFFFFFFFFFFFFFFFFFFFFFFFFFFFFFFFFFFFFF AND PUSH20 0xFFFFFFFFFFFFFFFFFFFFFFFFFFFFFFFFFFFFFFFF AND DUP2 MSTORE PUSH1 0x20 ADD SWAP1 DUP2 MSTORE PUSH1 0x20 ADD PUSH0 KECCAK256 PUSH0 PUSH2 0x100 EXP DUP2 SLOAD DUP2 PUSH1 0xFF MUL NOT AND SWAP1 DUP4 ISZERO ISZERO MUL OR SWAP1 SSTORE POP DUP1 PUSH20 0xFFFFFFFFFFFFFFFFFFFFFFFFFFFFFFFFFFFFFFFF AND PUSH32 0xB21AFB9CE9BE0A676F8F317FF0CA072FB89A4F8CE2D1B6FE80F8755C14F1CB19 PUSH0 PUSH1 0x40 MLOAD PUSH2 0x74E SWAP2 SWAP1 PUSH2 0x170B JUMP JUMPDEST PUSH1 0x40 MLOAD DUP1 SWAP2 SUB SWAP1 LOG2 POP JUMP JUMPDEST PUSH1 0x2 PUSH0 SWAP1 SLOAD SWAP1 PUSH2 0x100 EXP SWAP1 DIV PUSH1 0xFF AND DUP2 JUMP JUMPDEST PUSH1 0x8 PUSH0 CALLER PUSH20 0xFFFFFFFFFFFFFFFFFFFFFFFFFFFFFFFFFFFFFFFF AND PUSH20 0xFFFFFFFFFFFFFFFFFFFFFFFFFFFFFFFFFFFFFFFF AND DUP2 MSTORE PUSH1 0x20 ADD SWAP1 DUP2 MSTORE PUSH1 0x20 ADD PUSH0 KECCAK256 PUSH0 SWAP1 SLOAD SWAP1 PUSH2 0x100 EXP SWAP1 DIV PUSH1 0xFF AND PUSH2 0x7EB JUMPI PUSH1 0x40 MLOAD PUSH32 0xF8D2906C00000000000000000000000000000000000000000000000000000000 DUP2 MSTORE PUSH1 0x4 ADD PUSH1 0x40 MLOAD DUP1 SWAP2 SUB SWAP1 REVERT JUMPDEST PUSH2 0x7F5 DUP3 DUP3 PUSH2 0x12A7 JUMP JUMPDEST POP POP JUMP JUMPDEST PUSH2 0x803 CALLER DUP3 PUSH2 0x146B JUMP JUMPDEST POP JUMP JUMPDEST PUSH0 PUSH1 0x5 PUSH0 DUP4 PUSH20 0xFFFFFFFFFFFFFFFFFFFFFFFFFFFFFFFFFFFFFFFF AND PUSH20 0xFFFFFFFFFFFFFFFFFFFFFFFFFFFFFFFFFFFFFFFF AND DUP2 MSTORE PUSH1 0x20 ADD SWAP1 DUP2 MSTORE PUSH1 0x20 ADD PUSH0 KECCAK256 SLOAD SWAP1 POP SWAP2 SWAP1 POP JUMP JUMPDEST PUSH1 0x9 PUSH0 CALLER PUSH20 0xFFFFFFFFFFFFFFFFFFFFFFFFFFFFFFFFFFFFFFFF AND PUSH20 0xFFFFFFFFFFFFFFFFFFFFFFFFFFFFFFFFFFFFFFFF AND DUP2 MSTORE PUSH1 0x20 ADD SWAP1 DUP2 MSTORE PUSH1 0x20 ADD PUSH0 KECCAK256 PUSH0 SWAP1 SLOAD SWAP1 PUSH2 0x100 EXP SWAP1 DIV PUSH1 0xFF AND PUSH2 0x8CC JUMPI PUSH1 0x40 MLOAD PUSH32 0xF019B1AF00000000000000000000000000000000000000000000000000000000 DUP2 MSTORE PUSH1 0x4 ADD PUSH1 0x40 MLOAD DUP1 SWAP2 SUB SWAP1 REVERT JUMPDEST PUSH2 0x8D7 DUP3 CALLER DUP4 PUSH2 0xFCC JUMP JUMPDEST PUSH2 0x8E1 DUP3 DUP3 PUSH2 0x146B JUMP JUMPDEST POP POP JUMP JUMPDEST PUSH1 0x7 PUSH0 SWAP1 SLOAD SWAP1 PUSH2 0x100 EXP SWAP1 DIV PUSH20 0xFFFFFFFFFFFFFFFFFFFFFFFFFFFFFFFFFFFFFFFF AND DUP2 JUMP JUMPDEST PUSH1 0x1 DUP1 SLOAD PUSH2 0x917 SWAP1 PUSH2 0x198F JUMP JUMPDEST DUP1 PUSH1 0x1F ADD PUSH1 0x20 DUP1 SWAP2 DIV MUL PUSH1 0x20 ADD PUSH1 0x40 MLOAD SWAP1 DUP2 ADD PUSH1 0x40 MSTORE DUP1 SWAP3 SWAP2 SWAP1 DUP2 DUP2 MSTORE PUSH1 0x20 ADD DUP3 DUP1 SLOAD PUSH2 0x943 SWAP1 PUSH2 0x198F JUMP JUMPDEST DUP1 ISZERO PUSH2 0x98E JUMPI DUP1 PUSH1 0x1F LT PUSH2 0x965 JUMPI PUSH2 0x100 DUP1 DUP4 SLOAD DIV MUL DUP4 MSTORE SWAP2 PUSH1 0x20 ADD SWAP2 PUSH2 0x98E JUMP JUMPDEST DUP3 ADD SWAP2 SWAP1 PUSH0 MSTORE PUSH1 0x20 PUSH0 KECCAK256 SWAP1 JUMPDEST DUP2 SLOAD DUP2 MSTORE SWAP1 PUSH1 0x1 ADD SWAP1 PUSH1 0x20 ADD DUP1 DUP4 GT PUSH2 0x971 JUMPI DUP3 SWAP1 SUB PUSH1 0x1F AND DUP3 ADD SWAP2 JUMPDEST POP POP POP POP POP DUP2 JUMP JUMPDEST PUSH1 0x7 PUSH0 SWAP1 SLOAD SWAP1 PUSH2 0x100 EXP SWAP1 DIV PUSH20 0xFFFFFFFFFFFFFFFFFFFFFFFFFFFFFFFFFFFFFFFF AND PUSH20 0xFFFFFFFFFFFFFFFFFFFFFFFFFFFFFFFFFFFFFFFF AND CALLER PUSH20 0xFFFFFFFFFFFFFFFFFFFFFFFFFFFFFFFFFFFFFFFF AND EQ PUSH2 0xA1C JUMPI PUSH1 0x40 MLOAD PUSH32 0x30CD747100000000000000000000000000000000000000000000000000000000 DUP2 MSTORE PUSH1 0x4 ADD PUSH1 0x40 MLOAD DUP1 SWAP2 SUB SWAP1 REVERT JUMPDEST PUSH1 0x1 PUSH1 0x8 PUSH0 DUP4 PUSH20 0xFFFFFFFFFFFFFFFFFFFFFFFFFFFFFFFFFFFFFFFF AND PUSH20 0xFFFFFFFFFFFFFFFFFFFFFFFFFFFFFFFFFFFFFFFF AND DUP2 MSTORE PUSH1 0x20 ADD SWAP1 DUP2 MSTORE PUSH1 0x20 ADD PUSH0 KECCAK256 PUSH0 PUSH2 0x100 EXP DUP2 SLOAD DUP2 PUSH1 0xFF MUL NOT AND SWAP1 DUP4 ISZERO ISZERO MUL OR SWAP1 SSTORE POP DUP1 PUSH20 0xFFFFFFFFFFFFFFFFFFFFFFFFFFFFFFFFFFFFFFFF AND PUSH32 0xB21AFB9CE9BE0A676F8F317FF0CA072FB89A4F8CE2D1B6FE80F8755C14F1CB19 PUSH1 0x1 PUSH1 0x40 MLOAD PUSH2 0xAB8 SWAP2 SWAP1 PUSH2 0x170B JUMP JUMPDEST PUSH1 0x40 MLOAD DUP1 SWAP2 SUB SWAP1 LOG2 POP JUMP JUMPDEST PUSH0 PUSH2 0xACF CALLER DUP5 DUP5 PUSH2 0x1057 JUMP JUMPDEST PUSH1 0x1 SWAP1 POP SWAP3 SWAP2 POP POP JUMP JUMPDEST PUSH1 0x4 SLOAD DUP2 JUMP JUMPDEST PUSH0 PUSH1 0x6 PUSH0 DUP5 PUSH20 0xFFFFFFFFFFFFFFFFFFFFFFFFFFFFFFFFFFFFFFFF AND PUSH20 0xFFFFFFFFFFFFFFFFFFFFFFFFFFFFFFFFFFFFFFFF AND DUP2 MSTORE PUSH1 0x20 ADD SWAP1 DUP2 MSTORE PUSH1 0x20 ADD PUSH0 KECCAK256 PUSH0 DUP4 PUSH20 0xFFFFFFFFFFFFFFFFFFFFFFFFFFFFFFFFFFFFFFFF AND PUSH20 0xFFFFFFFFFFFFFFFFFFFFFFFFFFFFFFFFFFFFFFFF AND DUP2 MSTORE PUSH1 0x20 ADD SWAP1 DUP2 MSTORE PUSH1 0x20 ADD PUSH0 KECCAK256 SLOAD SWAP1 POP SWAP3 SWAP2 POP POP JUMP JUMPDEST PUSH1 0x7 PUSH0 SWAP1 SLOAD SWAP1 PUSH2 0x100 EXP SWAP1 DIV PUSH20 0xFFFFFFFFFFFFFFFFFFFFFFFFFFFFFFFFFFFFFFFF AND PUSH20 0xFFFFFFFFFFFFFFFFFFFFFFFFFFFFFFFFFFFFFFFF AND CALLER PUSH20 0xFFFFFFFFFFFFFFFFFFFFFFFFFFFFFFFFFFFFFFFF AND EQ PUSH2 0xBE7 JUMPI PUSH1 0x40 MLOAD PUSH32 0x30CD747100000000000000000000000000000000000000000000000000000000 DUP2 MSTORE PUSH1 0x4 ADD PUSH1 0x40 MLOAD DUP1 SWAP2 SUB SWAP1 REVERT JUMPDEST PUSH0 PUSH20 0xFFFFFFFFFFFFFFFFFFFFFFFFFFFFFFFFFFFFFFFF AND DUP2 PUSH20 0xFFFFFFFFFFFFFFFFFFFFFFFFFFFFFFFFFFFFFFFF AND SUB PUSH2 0xC4C JUMPI PUSH1 0x40 MLOAD PUSH32 0xD92E233D00000000000000000000000000000000000000000000000000000000 DUP2 MSTORE PUSH1 0x4 ADD PUSH1 0x40 MLOAD DUP1 SWAP2 SUB SWAP1 REVERT JUMPDEST DUP1 PUSH1 0x7 PUSH0 PUSH2 0x100 EXP DUP2 SLOAD DUP2 PUSH20 0xFFFFFFFFFFFFFFFFFFFFFFFFFFFFFFFFFFFFFFFF MUL NOT AND SWAP1 DUP4 PUSH20 0xFFFFFFFFFFFFFFFFFFFFFFFFFFFFFFFFFFFFFFFF AND MUL OR SWAP1 SSTORE POP POP JUMP JUMPDEST PUSH1 0x7 PUSH0 SWAP1 SLOAD SWAP1 PUSH2 0x100 EXP SWAP1 DIV PUSH20 0xFFFFFFFFFFFFFFFFFFFFFFFFFFFFFFFFFFFFFFFF AND PUSH20 0xFFFFFFFFFFFFFFFFFFFFFFFFFFFFFFFFFFFFFFFF AND CALLER PUSH20 0xFFFFFFFFFFFFFFFFFFFFFFFFFFFFFFFFFFFFFFFF AND EQ PUSH2 0xD15 JUMPI PUSH1 0x40 MLOAD PUSH32 0x30CD747100000000000000000000000000000000000000000000000000000000 DUP2 MSTORE PUSH1 0x4 ADD PUSH1 0x40 MLOAD DUP1 SWAP2 SUB SWAP1 REVERT JUMPDEST PUSH1 0x1 PUSH1 0x9 PUSH0 DUP4 PUSH20 0xFFFFFFFFFFFFFFFFFFFFFFFFFFFFFFFFFFFFFFFF AND PUSH20 0xFFFFFFFFFFFFFFFFFFFFFFFFFFFFFFFFFFFFFFFF AND DUP2 MSTORE PUSH1 0x20 ADD SWAP1 DUP2 MSTORE PUSH1 0x20 ADD PUSH0 KECCAK256 PUSH0 PUSH2 0x100 EXP DUP2 SLOAD DUP2 PUSH1 0xFF MUL NOT AND SWAP1 DUP4 ISZERO ISZERO MUL OR SWAP1 SSTORE POP DUP1 PUSH20 0xFFFFFFFFFFFFFFFFFFFFFFFFFFFFFFFFFFFFFFFF AND PUSH32 0xF0E5ABE4AB32EA692E3889B4C146FD4DDAE5F17BB40AB4FEBA97FB67A2D4DE0F PUSH1 0x1 PUSH1 0x40 MLOAD PUSH2 0xDB1 SWAP2 SWAP1 PUSH2 0x170B JUMP JUMPDEST PUSH1 0x40 MLOAD DUP1 SWAP2 SUB SWAP1 LOG2 POP JUMP JUMPDEST PUSH1 0x8 PUSH1 0x20 MSTORE DUP1 PUSH0 MSTORE PUSH1 0x40 PUSH0 KECCAK256 PUSH0 SWAP2 POP SLOAD SWAP1 PUSH2 0x100 EXP SWAP1 DIV PUSH1 0xFF AND DUP2 JUMP JUMPDEST PUSH0 PUSH20 0xFFFFFFFFFFFFFFFFFFFFFFFFFFFFFFFFFFFFFFFF AND DUP4 PUSH20 0xFFFFFFFFFFFFFFFFFFFFFFFFFFFFFFFFFFFFFFFF AND SUB PUSH2 0xE3E JUMPI PUSH1 0x40 MLOAD PUSH32 0xD92E233D00000000000000000000000000000000000000000000000000000000 DUP2 MSTORE PUSH1 0x4 ADD PUSH1 0x40 MLOAD DUP1 SWAP2 SUB SWAP1 REVERT JUMPDEST PUSH0 PUSH20 0xFFFFFFFFFFFFFFFFFFFFFFFFFFFFFFFFFFFFFFFF AND DUP3 PUSH20 0xFFFFFFFFFFFFFFFFFFFFFFFFFFFFFFFFFFFFFFFF AND SUB PUSH2 0xEA3 JUMPI PUSH1 0x40 MLOAD PUSH32 0xD92E233D00000000000000000000000000000000000000000000000000000000 DUP2 MSTORE PUSH1 0x4 ADD PUSH1 0x40 MLOAD DUP1 SWAP2 SUB SWAP1 REVERT JUMPDEST DUP1 PUSH1 0x6 PUSH0 PUSH1 0x7 PUSH0 SWAP1 SLOAD SWAP1 PUSH2 0x100 EXP SWAP1 DIV PUSH20 0xFFFFFFFFFFFFFFFFFFFFFFFFFFFFFFFFFFFFFFFF AND PUSH20 0xFFFFFFFFFFFFFFFFFFFFFFFFFFFFFFFFFFFFFFFF AND PUSH20 0xFFFFFFFFFFFFFFFFFFFFFFFFFFFFFFFFFFFFFFFF AND DUP2 MSTORE PUSH1 0x20 ADD SWAP1 DUP2 MSTORE PUSH1 0x20 ADD PUSH0 KECCAK256 PUSH0 DUP5 PUSH20 0xFFFFFFFFFFFFFFFFFFFFFFFFFFFFFFFFFFFFFFFF AND PUSH20 0xFFFFFFFFFFFFFFFFFFFFFFFFFFFFFFFFFFFFFFFF AND DUP2 MSTORE PUSH1 0x20 ADD SWAP1 DUP2 MSTORE PUSH1 0x20 ADD PUSH0 KECCAK256 DUP2 SWAP1 SSTORE POP DUP2 PUSH20 0xFFFFFFFFFFFFFFFFFFFFFFFFFFFFFFFFFFFFFFFF AND PUSH1 0x7 PUSH0 SWAP1 SLOAD SWAP1 PUSH2 0x100 EXP SWAP1 DIV PUSH20 0xFFFFFFFFFFFFFFFFFFFFFFFFFFFFFFFFFFFFFFFF AND PUSH20 0xFFFFFFFFFFFFFFFFFFFFFFFFFFFFFFFFFFFFFFFF AND PUSH32 0x8C5BE1E5EBEC7D5BD14F71427D1E84F3DD0314C0F7B2291E5B200AC8C7C3B925 DUP4 PUSH1 0x40 MLOAD PUSH2 0xFBF SWAP2 SWAP1 PUSH2 0x1834 JUMP JUMPDEST PUSH1 0x40 MLOAD DUP1 SWAP2 SUB SWAP1 LOG3 POP POP POP JUMP JUMPDEST PUSH0 PUSH2 0xFD7 DUP5 DUP5 PUSH2 0xADF JUMP JUMPDEST SWAP1 POP PUSH32 0xFFFFFFFFFFFFFFFFFFFFFFFFFFFFFFFFFFFFFFFFFFFFFFFFFFFFFFFFFFFFFFFF DUP2 EQ PUSH2 0x1051 JUMPI DUP2 DUP2 LT ISZERO PUSH2 0x103A JUMPI PUSH1 0x40 MLOAD PUSH32 0xF4D678B800000000000000000000000000000000000000000000000000000000 DUP2 MSTORE PUSH1 0x4 ADD PUSH1 0x40 MLOAD DUP1 SWAP2 SUB SWAP1 REVERT JUMPDEST PUSH2 0x1050 DUP5 DUP5 DUP5 DUP5 PUSH2 0x104B SWAP2 SWAP1 PUSH2 0x19EC JUMP JUMPDEST PUSH2 0xDD9 JUMP JUMPDEST JUMPDEST POP POP POP POP JUMP JUMPDEST PUSH0 PUSH20 0xFFFFFFFFFFFFFFFFFFFFFFFFFFFFFFFFFFFFFFFF AND DUP4 PUSH20 0xFFFFFFFFFFFFFFFFFFFFFFFFFFFFFFFFFFFFFFFF AND SUB PUSH2 0x10BC JUMPI PUSH1 0x40 MLOAD PUSH32 0xD92E233D00000000000000000000000000000000000000000000000000000000 DUP2 MSTORE PUSH1 0x4 ADD PUSH1 0x40 MLOAD DUP1 SWAP2 SUB SWAP1 REVERT JUMPDEST PUSH0 PUSH20 0xFFFFFFFFFFFFFFFFFFFFFFFFFFFFFFFFFFFFFFFF AND DUP3 PUSH20 0xFFFFFFFFFFFFFFFFFFFFFFFFFFFFFFFFFFFFFFFF AND SUB PUSH2 0x1121 JUMPI PUSH1 0x40 MLOAD PUSH32 0xD92E233D00000000000000000000000000000000000000000000000000000000 DUP2 MSTORE PUSH1 0x4 ADD PUSH1 0x40 MLOAD DUP1 SWAP2 SUB SWAP1 REVERT JUMPDEST PUSH0 PUSH1 0x5 PUSH0 DUP6 PUSH20 0xFFFFFFFFFFFFFFFFFFFFFFFFFFFFFFFFFFFFFFFF AND PUSH20 0xFFFFFFFFFFFFFFFFFFFFFFFFFFFFFFFFFFFFFFFF AND DUP2 MSTORE PUSH1 0x20 ADD SWAP1 DUP2 MSTORE PUSH1 0x20 ADD PUSH0 KECCAK256 SLOAD SWAP1 POP DUP2 DUP2 LT ISZERO PUSH2 0x119C JUMPI PUSH1 0x40 MLOAD PUSH32 0xF4D678B800000000000000000000000000000000000000000000000000000000 DUP2 MSTORE PUSH1 0x4 ADD PUSH1 0x40 MLOAD DUP1 SWAP2 SUB SWAP1 REVERT JUMPDEST DUP2 DUP2 PUSH2 0x11A8 SWAP2 SWAP1 PUSH2 0x19EC JUMP JUMPDEST PUSH1 0x5 PUSH0 DUP7 PUSH20 0xFFFFFFFFFFFFFFFFFFFFFFFFFFFFFFFFFFFFFFFF AND PUSH20 0xFFFFFFFFFFFFFFFFFFFFFFFFFFFFFFFFFFFFFFFF AND DUP2 MSTORE PUSH1 0x20 ADD SWAP1 DUP2 MSTORE PUSH1 0x20 ADD PUSH0 KECCAK256 DUP2 SWAP1 SSTORE POP DUP2 PUSH1 0x5 PUSH0 DUP6 PUSH20 0xFFFFFFFFFFFFFFFFFFFFFFFFFFFFFFFFFFFFFFFF AND PUSH20 0xFFFFFFFFFFFFFFFFFFFFFFFFFFFFFFFFFFFFFFFF AND DUP2 MSTORE PUSH1 0x20 ADD SWAP1 DUP2 MSTORE PUSH1 0x20 ADD PUSH0 KECCAK256 PUSH0 DUP3 DUP3 SLOAD PUSH2 0x1235 SWAP2 SWAP1 PUSH2 0x1A1F JUMP JUMPDEST SWAP3 POP POP DUP2 SWAP1 SSTORE POP DUP3 PUSH20 0xFFFFFFFFFFFFFFFFFFFFFFFFFFFFFFFFFFFFFFFF AND DUP5 PUSH20 0xFFFFFFFFFFFFFFFFFFFFFFFFFFFFFFFFFFFFFFFF AND PUSH32 0xDDF252AD1BE2C89B69C2B068FC378DAA952BA7F163C4A11628F55A4DF523B3EF DUP5 PUSH1 0x40 MLOAD PUSH2 0x1299 SWAP2 SWAP1 PUSH2 0x1834 JUMP JUMPDEST PUSH1 0x40 MLOAD DUP1 SWAP2 SUB SWAP1 LOG3 POP POP POP POP JUMP JUMPDEST PUSH0 PUSH20 0xFFFFFFFFFFFFFFFFFFFFFFFFFFFFFFFFFFFFFFFF AND DUP3 PUSH20 0xFFFFFFFFFFFFFFFFFFFFFFFFFFFFFFFFFFFFFFFF AND SUB PUSH2 0x130C JUMPI PUSH1 0x40 MLOAD PUSH32 0xD92E233D00000000000000000000000000000000000000000000000000000000 DUP2 MSTORE PUSH1 0x4 ADD PUSH1 0x40 MLOAD DUP1 SWAP2 SUB SWAP1 REVERT JUMPDEST PUSH0 DUP2 PUSH1 0x3 SLOAD PUSH2 0x131B SWAP2 SWAP1 PUSH2 0x1A1F JUMP JUMPDEST SWAP1 POP PUSH1 0x4 SLOAD DUP2 GT ISZERO PUSH2 0x1359 JUMPI PUSH1 0x40 MLOAD PUSH32 0xC30436E900000000000000000000000000000000000000000000000000000000 DUP2 MSTORE PUSH1 0x4 ADD PUSH1 0x40 MLOAD DUP1 SWAP2 SUB SWAP1 REVERT JUMPDEST DUP1 PUSH1 0x3 DUP2 SWAP1 SSTORE POP DUP2 PUSH1 0x5 PUSH0 DUP6 PUSH20 0xFFFFFFFFFFFFFFFFFFFFFFFFFFFFFFFFFFFFFFFF AND PUSH20 0xFFFFFFFFFFFFFFFFFFFFFFFFFFFFFFFFFFFFFFFF AND DUP2 MSTORE PUSH1 0x20 ADD SWAP1 DUP2 MSTORE PUSH1 0x20 ADD PUSH0 KECCAK256 PUSH0 DUP3 DUP3 SLOAD PUSH2 0x13AC SWAP2 SWAP1 PUSH2 0x1A1F JUMP JUMPDEST SWAP3 POP POP DUP2 SWAP1 SSTORE POP DUP3 PUSH20 0xFFFFFFFFFFFFFFFFFFFFFFFFFFFFFFFFFFFFFFFF AND PUSH32 0xF6798A560793A54C3BCFE86A93CDE1E73087D944C0EA20544137D4121396885 DUP4 PUSH1 0x40 MLOAD PUSH2 0x13F9 SWAP2 SWAP1 PUSH2 0x1834 JUMP JUMPDEST PUSH1 0x40 MLOAD DUP1 SWAP2 SUB SWAP1 LOG2 DUP3 PUSH20 0xFFFFFFFFFFFFFFFFFFFFFFFFFFFFFFFFFFFFFFFF AND PUSH0 PUSH20 0xFFFFFFFFFFFFFFFFFFFFFFFFFFFFFFFFFFFFFFFF AND PUSH32 0xDDF252AD1BE2C89B69C2B068FC378DAA952BA7F163C4A11628F55A4DF523B3EF DUP5 PUSH1 0x40 MLOAD PUSH2 0x145E SWAP2 SWAP1 PUSH2 0x1834 JUMP JUMPDEST PUSH1 0x40 MLOAD DUP1 SWAP2 SUB SWAP1 LOG3 POP POP POP JUMP JUMPDEST PUSH0 PUSH20 0xFFFFFFFFFFFFFFFFFFFFFFFFFFFFFFFFFFFFFFFF AND DUP3 PUSH20 0xFFFFFFFFFFFFFFFFFFFFFFFFFFFFFFFFFFFFFFFF AND SUB PUSH2 0x14D0 JUMPI PUSH1 0x40 MLOAD PUSH32 0xD92E233D00000000000000000000000000000000000000000000000000000000 DUP2 MSTORE PUSH1 0x4 ADD PUSH1 0x40 MLOAD DUP1 SWAP2 SUB SWAP1 REVERT JUMPDEST PUSH0 PUSH1 0x5 PUSH0 DUP5 PUSH20 0xFFFFFFFFFFFFFFFFFFFFFFFFFFFFFFFFFFFFFFFF AND PUSH20 0xFFFFFFFFFFFFFFFFFFFFFFFFFFFFFFFFFFFFFFFF AND DUP2 MSTORE PUSH1 0x20 ADD SWAP1 DUP2 MSTORE PUSH1 0x20 ADD PUSH0 KECCAK256 SLOAD SWAP1 POP DUP2 DUP2 LT ISZERO PUSH2 0x154B JUMPI PUSH1 0x40 MLOAD PUSH32 0xF4D678B800000000000000000000000000000000000000000000000000000000 DUP2 MSTORE PUSH1 0x4 ADD PUSH1 0x40 MLOAD DUP1 SWAP2 SUB SWAP1 REVERT JUMPDEST DUP2 DUP2 PUSH2 0x1557 SWAP2 SWAP1 PUSH2 0x19EC JUMP JUMPDEST PUSH1 0x5 PUSH0 DUP6 PUSH20 0xFFFFFFFFFFFFFFFFFFFFFFFFFFFFFFFFFFFFFFFF AND PUSH20 0xFFFFFFFFFFFFFFFFFFFFFFFFFFFFFFFFFFFFFFFF AND DUP2 MSTORE PUSH1 0x20 ADD SWAP1 DUP2 MSTORE PUSH1 0x20 ADD PUSH0 KECCAK256 DUP2 SWAP1 SSTORE POP DUP2 PUSH1 0x3 PUSH0 DUP3 DUP3 SLOAD PUSH2 0x15A9 SWAP2 SWAP1 PUSH2 0x19EC JUMP JUMPDEST SWAP3 POP POP DUP2 SWAP1 SSTORE POP DUP3 PUSH20 0xFFFFFFFFFFFFFFFFFFFFFFFFFFFFFFFFFFFFFFFF AND PUSH32 0xCC16F5DBB4873280815C1EE09DBD06736CFFCC184412CF7A71A0FDB75D397CA5 DUP4 PUSH1 0x40 MLOAD PUSH2 0x15F6 SWAP2 SWAP1 PUSH2 0x1834 JUMP JUMPDEST PUSH1 0x40 MLOAD DUP1 SWAP2 SUB SWAP1 LOG2 PUSH0 PUSH20 0xFFFFFFFFFFFFFFFFFFFFFFFFFFFFFFFFFFFFFFFF AND DUP4 PUSH20 0xFFFFFFFFFFFFFFFFFFFFFFFFFFFFFFFFFFFFFFFF AND PUSH32 0xDDF252AD1BE2C89B69C2B068FC378DAA952BA7F163C4A11628F55A4DF523B3EF DUP5 PUSH1 0x40 MLOAD PUSH2 0x165B SWAP2 SWAP1 PUSH2 0x1834 JUMP JUMPDEST PUSH1 0x40 MLOAD DUP1 SWAP2 SUB SWAP1 LOG3 POP POP POP JUMP JUMPDEST PUSH0 PUSH0 REVERT JUMPDEST PUSH0 PUSH20 0xFFFFFFFFFFFFFFFFFFFFFFFFFFFFFFFFFFFFFFFF DUP3 AND SWAP1 POP SWAP2 SWAP1 POP JUMP JUMPDEST PUSH0 PUSH2 0x1695 DUP3 PUSH2 0x166C JUMP JUMPDEST SWAP1 POP SWAP2 SWAP1 POP JUMP JUMPDEST PUSH2 0x16A5 DUP2 PUSH2 0x168B JUMP JUMPDEST DUP2 EQ PUSH2 0x16AF JUMPI PUSH0 PUSH0 REVERT JUMPDEST POP JUMP JUMPDEST PUSH0 DUP2 CALLDATALOAD SWAP1 POP PUSH2 0x16C0 DUP2 PUSH2 0x169C JUMP JUMPDEST SWAP3 SWAP2 POP POP JUMP JUMPDEST PUSH0 PUSH1 0x20 DUP3 DUP5 SUB SLT ISZERO PUSH2 0x16DB JUMPI PUSH2 0x16DA PUSH2 0x1668 JUMP JUMPDEST JUMPDEST PUSH0 PUSH2 0x16E8 DUP5 DUP3 DUP6 ADD PUSH2 0x16B2 JUMP JUMPDEST SWAP2 POP POP SWAP3 SWAP2 POP POP JUMP JUMPDEST PUSH0 DUP2 ISZERO ISZERO SWAP1 POP SWAP2 SWAP1 POP JUMP JUMPDEST PUSH2 0x1705 DUP2 PUSH2 0x16F1 JUMP JUMPDEST DUP3 MSTORE POP POP JUMP JUMPDEST PUSH0 PUSH1 0x20 DUP3 ADD SWAP1 POP PUSH2 0x171E PUSH0 DUP4 ADD DUP5 PUSH2 0x16FC JUMP JUMPDEST SWAP3 SWAP2 POP POP JUMP JUMPDEST PUSH0 DUP2 MLOAD SWAP1 POP SWAP2 SWAP1 POP JUMP JUMPDEST PUSH0 DUP3 DUP3 MSTORE PUSH1 0x20 DUP3 ADD SWAP1 POP SWAP3 SWAP2 POP POP JUMP JUMPDEST DUP3 DUP2 DUP4 MCOPY PUSH0 DUP4 DUP4 ADD MSTORE POP POP POP JUMP JUMPDEST PUSH0 PUSH1 0x1F NOT PUSH1 0x1F DUP4 ADD AND SWAP1 POP SWAP2 SWAP1 POP JUMP JUMPDEST PUSH0 PUSH2 0x1766 DUP3 PUSH2 0x1724 JUMP JUMPDEST PUSH2 0x1770 DUP2 DUP6 PUSH2 0x172E JUMP JUMPDEST SWAP4 POP PUSH2 0x1780 DUP2 DUP6 PUSH1 0x20 DUP7 ADD PUSH2 0x173E JUMP JUMPDEST PUSH2 0x1789 DUP2 PUSH2 0x174C JUMP JUMPDEST DUP5 ADD SWAP2 POP POP SWAP3 SWAP2 POP POP JUMP JUMPDEST PUSH0 PUSH1 0x20 DUP3 ADD SWAP1 POP DUP2 DUP2 SUB PUSH0 DUP4 ADD MSTORE PUSH2 0x17AC DUP2 DUP5 PUSH2 0x175C JUMP JUMPDEST SWAP1 POP SWAP3 SWAP2 POP POP JUMP JUMPDEST PUSH0 DUP2 SWAP1 POP SWAP2 SWAP1 POP JUMP JUMPDEST PUSH2 0x17C6 DUP2 PUSH2 0x17B4 JUMP JUMPDEST DUP2 EQ PUSH2 0x17D0 JUMPI PUSH0 PUSH0 REVERT JUMPDEST POP JUMP JUMPDEST PUSH0 DUP2 CALLDATALOAD SWAP1 POP PUSH2 0x17E1 DUP2 PUSH2 0x17BD JUMP JUMPDEST SWAP3 SWAP2 POP POP JUMP JUMPDEST PUSH0 PUSH0 PUSH1 0x40 DUP4 DUP6 SUB SLT ISZERO PUSH2 0x17FD JUMPI PUSH2 0x17FC PUSH2 0x1668 JUMP JUMPDEST JUMPDEST PUSH0 PUSH2 0x180A DUP6 DUP3 DUP7 ADD PUSH2 0x16B2 JUMP JUMPDEST SWAP3 POP POP PUSH1 0x20 PUSH2 0x181B DUP6 DUP3 DUP7 ADD PUSH2 0x17D3 JUMP JUMPDEST SWAP2 POP POP SWAP3 POP SWAP3 SWAP1 POP JUMP JUMPDEST PUSH2 0x182E DUP2 PUSH2 0x17B4 JUMP JUMPDEST DUP3 MSTORE POP POP JUMP JUMPDEST PUSH0 PUSH1 0x20 DUP3 ADD SWAP1 POP PUSH2 0x1847 PUSH0 DUP4 ADD DUP5 PUSH2 0x1825 JUMP JUMPDEST SWAP3 SWAP2 POP POP JUMP JUMPDEST PUSH0 PUSH0 PUSH0 PUSH1 0x60 DUP5 DUP7 SUB SLT ISZERO PUSH2 0x1864 JUMPI PUSH2 0x1863 PUSH2 0x1668 JUMP JUMPDEST JUMPDEST PUSH0 PUSH2 0x1871 DUP7 DUP3 DUP8 ADD PUSH2 0x16B2 JUMP JUMPDEST SWAP4 POP POP PUSH1 0x20 PUSH2 0x1882 DUP7 DUP3 DUP8 ADD PUSH2 0x16B2 JUMP JUMPDEST SWAP3 POP POP PUSH1 0x40 PUSH2 0x1893 DUP7 DUP3 DUP8 ADD PUSH2 0x17D3 JUMP JUMPDEST SWAP2 POP POP SWAP3 POP SWAP3 POP SWAP3 JUMP JUMPDEST PUSH0 PUSH1 0xFF DUP3 AND SWAP1 POP SWAP2 SWAP1 POP JUMP JUMPDEST PUSH2 0x18B2 DUP2 PUSH2 0x189D JUMP JUMPDEST DUP3 MSTORE POP POP JUMP JUMPDEST PUSH0 PUSH1 0x20 DUP3 ADD SWAP1 POP PUSH2 0x18CB PUSH0 DUP4 ADD DUP5 PUSH2 0x18A9 JUMP JUMPDEST SWAP3 SWAP2 POP POP JUMP JUMPDEST PUSH0 PUSH1 0x20 DUP3 DUP5 SUB SLT ISZERO PUSH2 0x18E6 JUMPI PUSH2 0x18E5 PUSH2 0x1668 JUMP JUMPDEST JUMPDEST PUSH0 PUSH2 0x18F3 DUP5 DUP3 DUP6 ADD PUSH2 0x17D3 JUMP JUMPDEST SWAP2 POP POP SWAP3 SWAP2 POP POP JUMP JUMPDEST PUSH2 0x1905 DUP2 PUSH2 0x168B JUMP JUMPDEST DUP3 MSTORE POP POP JUMP JUMPDEST PUSH0 PUSH1 0x20 DUP3 ADD SWAP1 POP PUSH2 0x191E PUSH0 DUP4 ADD DUP5 PUSH2 0x18FC JUMP JUMPDEST SWAP3 SWAP2 POP POP JUMP JUMPDEST PUSH0 PUSH0 PUSH1 0x40 DUP4 DUP6 SUB SLT ISZERO PUSH2 0x193A JUMPI PUSH2 0x1939 PUSH2 0x1668 JUMP JUMPDEST JUMPDEST PUSH0 PUSH2 0x1947 DUP6 DUP3 DUP7 ADD PUSH2 0x16B2 JUMP JUMPDEST SWAP3 POP POP PUSH1 0x20 PUSH2 0x1958 DUP6 DUP3 DUP7 ADD PUSH2 0x16B2 JUMP JUMPDEST SWAP2 POP POP SWAP3 POP SWAP3 SWAP1 POP JUMP JUMPDEST PUSH32 0x4E487B7100000000000000000000000000000000000000000000000000000000 PUSH0 MSTORE PUSH1 0x22 PUSH1 0x4 MSTORE PUSH1 0x24 PUSH0 REVERT JUMPDEST PUSH0 PUSH1 0x2 DUP3 DIV SWAP1 POP PUSH1 0x1 DUP3 AND DUP1 PUSH2 0x19A6 JUMPI PUSH1 0x7F DUP3 AND SWAP2 POP JUMPDEST PUSH1 0x20 DUP3 LT DUP2 SUB PUSH2 0x19B9 JUMPI PUSH2 0x19B8 PUSH2 0x1962 JUMP JUMPDEST JUMPDEST POP SWAP2 SWAP1 POP JUMP JUMPDEST PUSH32 0x4E487B7100000000000000000000000000000000000000000000000000000000 PUSH0 MSTORE PUSH1 0x11 PUSH1 0x4 MSTORE PUSH1 0x24 PUSH0 REVERT JUMPDEST PUSH0 PUSH2 0x19F6 DUP3 PUSH2 0x17B4 JUMP JUMPDEST SWAP2 POP PUSH2 0x1A01 DUP4 PUSH2 0x17B4 JUMP JUMPDEST SWAP3 POP DUP3 DUP3 SUB SWAP1 POP DUP2 DUP2 GT ISZERO PUSH2 0x1A19 JUMPI PUSH2 0x1A18 PUSH2 0x19BF JUMP JUMPDEST JUMPDEST SWAP3 SWAP2 POP POP JUMP JUMPDEST PUSH0 PUSH2 0x1A29 DUP3 PUSH2 0x17B4 JUMP JUMPDEST SWAP2 POP PUSH2 0x1A34 DUP4 PUSH2 0x17B4 JUMP JUMPDEST SWAP3 POP DUP3 DUP3 ADD SWAP1 POP DUP1 DUP3 GT ISZERO PUSH2 0x1A4C JUMPI PUSH2 0x1A4B PUSH2 0x19BF JUMP JUMPDEST JUMPDEST SWAP3 SWAP2 POP POP JUMP INVALID LOG2 PUSH5 0x6970667358 0x22 SLT KECCAK256 DUP1 MULMOD 0xDC BLOCKHASH PC LOG4 PREVRANDAO DIV 0xD4 SWAP10 0xF6 0xB9 0xD5 DIV 0xD8 0xDF CALL 0x22 PUSH15 0x6EE13D3EF8D464A8F4BDD356076473 PUSH16 0x6C634300081E00330000000000000000 "
				},
				"gasEstimates": {
					"creation": {
						"codeDepositCost": "1358400",
						"executionCost": "infinite",
						"totalCost": "infinite"
					},
					"external": {
						"addBurner(address)": "28660",
						"addMinter(address)": "28661",
						"allowance(address,address)": "infinite",
						"approve(address,uint256)": "infinite",
						"balanceOf(address)": "2852",
						"burn(uint256)": "infinite",
						"burnFrom(address,uint256)": "infinite",
						"burners(address)": "2879",
						"decimals()": "2533",
						"maxSupply()": "2469",
						"mint(address,uint256)": "infinite",
						"minters(address)": "2965",
						"name()": "infinite",
						"owner()": "2575",
						"removeBurner(address)": "28572",
						"removeMinter(address)": "28593",
						"symbol()": "infinite",
						"totalSupply()": "2537",
						"transfer(address,uint256)": "infinite",
						"transferFrom(address,address,uint256)": "infinite",
						"transferOwnership(address)": "27006"
					},
					"internal": {
						"_approve(address,address,uint256)": "infinite",
						"_burn(address,uint256)": "infinite",
						"_mint(address,uint256)": "infinite",
						"_spendAllowance(address,address,uint256)": "infinite",
						"_transfer(address,address,uint256)": "infinite"
					}
				},
				"methodIdentifiers": {
					"addBurner(address)": "f44637ba",
					"addMinter(address)": "983b2d56",
					"allowance(address,address)": "dd62ed3e",
					"approve(address,uint256)": "095ea7b3",
					"balanceOf(address)": "70a08231",
					"burn(uint256)": "42966c68",
					"burnFrom(address,uint256)": "79cc6790",
					"burners(address)": "03d41e0e",
					"decimals()": "313ce567",
					"maxSupply()": "d5abeb01",
					"mint(address,uint256)": "40c10f19",
					"minters(address)": "f46eccc4",
					"name()": "06fdde03",
					"owner()": "8da5cb5b",
					"removeBurner(address)": "02846858",
					"removeMinter(address)": "3092afd5",
					"symbol()": "95d89b41",
					"totalSupply()": "18160ddd",
					"transfer(address,uint256)": "a9059cbb",
					"transferFrom(address,address,uint256)": "23b872dd",
					"transferOwnership(address)": "f2fde38b"
				}
			},
			"storageLayout": {
				"storage": [
					{
						"astId": 3,
						"contract": "Tokens/MintableBurnable.sol:MintableBurnableToken",
						"label": "name",
						"offset": 0,
						"slot": "0",
						"type": "t_string_storage"
					},
					{
						"astId": 5,
						"contract": "Tokens/MintableBurnable.sol:MintableBurnableToken",
						"label": "symbol",
						"offset": 0,
						"slot": "1",
						"type": "t_string_storage"
					},
					{
						"astId": 7,
						"contract": "Tokens/MintableBurnable.sol:MintableBurnableToken",
						"label": "decimals",
						"offset": 0,
						"slot": "2",
						"type": "t_uint8"
					},
					{
						"astId": 9,
						"contract": "Tokens/MintableBurnable.sol:MintableBurnableToken",
						"label": "totalSupply",
						"offset": 0,
						"slot": "3",
						"type": "t_uint256"
					},
					{
						"astId": 11,
						"contract": "Tokens/MintableBurnable.sol:MintableBurnableToken",
						"label": "maxSupply",
						"offset": 0,
						"slot": "4",
						"type": "t_uint256"
					},
					{
						"astId": 15,
						"contract": "Tokens/MintableBurnable.sol:MintableBurnableToken",
						"label": "_balances",
						"offset": 0,
						"slot": "5",
						"type": "t_mapping(t_address,t_uint256)"
					},
					{
						"astId": 21,
						"contract": "Tokens/MintableBurnable.sol:MintableBurnableToken",
						"label": "_allowances",
						"offset": 0,
						"slot": "6",
						"type": "t_mapping(t_address,t_mapping(t_address,t_uint256))"
					},
					{
						"astId": 23,
						"contract": "Tokens/MintableBurnable.sol:MintableBurnableToken",
						"label": "owner",
						"offset": 0,
						"slot": "7",
						"type": "t_address"
					},
					{
						"astId": 27,
						"contract": "Tokens/MintableBurnable.sol:MintableBurnableToken",
						"label": "minters",
						"offset": 0,
						"slot": "8",
						"type": "t_mapping(t_address,t_bool)"
					},
					{
						"astId": 31,
						"contract": "Tokens/MintableBurnable.sol:MintableBurnableToken",
						"label": "burners",
						"offset": 0,
						"slot": "9",
						"type": "t_mapping(t_address,t_bool)"
					}
				],
				"types": {
					"t_address": {
						"encoding": "inplace",
						"label": "address",
						"numberOfBytes": "20"
					},
					"t_bool": {
						"encoding": "inplace",
						"label": "bool",
						"numberOfBytes": "1"
					},
					"t_mapping(t_address,t_bool)": {
						"encoding": "mapping",
						"key": "t_address",
						"label": "mapping(address => bool)",
						"numberOfBytes": "32",
						"value": "t_bool"
					},
					"t_mapping(t_address,t_mapping(t_address,t_uint256))": {
						"encoding": "mapping",
						"key": "t_address",
						"label": "mapping(address => mapping(address => uint256))",
						"numberOfBytes": "32",
						"value": "t_mapping(t_address,t_uint256)"
					},
					"t_mapping(t_address,t_uint256)": {
						"encoding": "mapping",
						"key": "t_address",
						"label": "mapping(address => uint256)",
						"numberOfBytes": "32",
						"value": "t_uint256"
					},
					"t_string_storage": {
						"encoding": "bytes",
						"label": "string",
						"numberOfBytes": "32"
					},
					"t_uint256": {
						"encoding": "inplace",
						"label": "uint256",
						"numberOfBytes": "32"
					},
					"t_uint8": {
						"encoding": "inplace",
						"label": "uint8",
						"numberOfBytes": "1"
					}
				}
			},
			"userdoc": {
				"kind": "user",
				"methods": {},
				"version": 1
			}
		}
	}
}