{
	"Tokens/TimeLockTokenWithVesting.sol": {
		"TimeLockToken": {
			"abi": [
				{
					"inputs": [
						{
							"internalType": "string",
							"name": "_name",
							"type": "string"
						},
						{
							"internalType": "string",
							"name": "_symbol",
							"type": "string"
						},
						{
							"internalType": "uint8",
							"name": "_decimals",
							"type": "uint8"
						},
						{
							"internalType": "uint256",
							"name": "_initialSupply",
							"type": "uint256"
						}
					],
					"stateMutability": "nonpayable",
					"type": "constructor"
				},
				{
					"inputs": [],
					"name": "InsufficientBalance",
					"type": "error"
				},
				{
					"inputs": [],
					"name": "InsufficientUnlockedBalance",
					"type": "error"
				},
				{
					"inputs": [],
					"name": "LockPeriodNotEnded",
					"type": "error"
				},
				{
					"inputs": [],
					"name": "NotLockManager",
					"type": "error"
				},
				{
					"inputs": [],
					"name": "NotOwner",
					"type": "error"
				},
				{
					"inputs": [],
					"name": "ZeroAddress",
					"type": "error"
				},
				{
					"anonymous": false,
					"inputs": [
						{
							"indexed": true,
							"internalType": "address",
							"name": "owner",
							"type": "address"
						},
						{
							"indexed": true,
							"internalType": "address",
							"name": "spender",
							"type": "address"
						},
						{
							"indexed": false,
							"internalType": "uint256",
							"name": "value",
							"type": "uint256"
						}
					],
					"name": "Approval",
					"type": "event"
				},
				{
					"anonymous": false,
					"inputs": [
						{
							"indexed": true,
							"internalType": "address",
							"name": "account",
							"type": "address"
						},
						{
							"indexed": false,
							"internalType": "bool",
							"name": "status",
							"type": "bool"
						}
					],
					"name": "LockManagerUpdated",
					"type": "event"
				},
				{
					"anonymous": false,
					"inputs": [
						{
							"indexed": true,
							"internalType": "address",
							"name": "user",
							"type": "address"
						},
						{
							"indexed": false,
							"internalType": "uint256",
							"name": "amount",
							"type": "uint256"
						},
						{
							"indexed": false,
							"internalType": "uint256",
							"name": "unlockTime",
							"type": "uint256"
						}
					],
					"name": "TokensLocked",
					"type": "event"
				},
				{
					"anonymous": false,
					"inputs": [
						{
							"indexed": true,
							"internalType": "address",
							"name": "user",
							"type": "address"
						},
						{
							"indexed": false,
							"internalType": "uint256",
							"name": "amount",
							"type": "uint256"
						}
					],
					"name": "TokensUnlocked",
					"type": "event"
				},
				{
					"anonymous": false,
					"inputs": [
						{
							"indexed": true,
							"internalType": "address",
							"name": "from",
							"type": "address"
						},
						{
							"indexed": true,
							"internalType": "address",
							"name": "to",
							"type": "address"
						},
						{
							"indexed": false,
							"internalType": "uint256",
							"name": "value",
							"type": "uint256"
						}
					],
					"name": "Transfer",
					"type": "event"
				},
				{
					"inputs": [
						{
							"internalType": "address",
							"name": "account",
							"type": "address"
						}
					],
					"name": "addLockManager",
					"outputs": [],
					"stateMutability": "nonpayable",
					"type": "function"
				},
				{
					"inputs": [
						{
							"internalType": "address",
							"name": "owner0",
							"type": "address"
						},
						{
							"internalType": "address",
							"name": "spender",
							"type": "address"
						}
					],
					"name": "allowance",
					"outputs": [
						{
							"internalType": "uint256",
							"name": "",
							"type": "uint256"
						}
					],
					"stateMutability": "view",
					"type": "function"
				},
				{
					"inputs": [
						{
							"internalType": "address",
							"name": "spender",
							"type": "address"
						},
						{
							"internalType": "uint256",
							"name": "amount",
							"type": "uint256"
						}
					],
					"name": "approve",
					"outputs": [
						{
							"internalType": "bool",
							"name": "",
							"type": "bool"
						}
					],
					"stateMutability": "nonpayable",
					"type": "function"
				},
				{
					"inputs": [
						{
							"internalType": "address",
							"name": "account",
							"type": "address"
						}
					],
					"name": "balanceOf",
					"outputs": [
						{
							"internalType": "uint256",
							"name": "",
							"type": "uint256"
						}
					],
					"stateMutability": "view",
					"type": "function"
				},
				{
					"inputs": [],
					"name": "decimals",
					"outputs": [
						{
							"internalType": "uint8",
							"name": "",
							"type": "uint8"
						}
					],
					"stateMutability": "view",
					"type": "function"
				},
				{
					"inputs": [
						{
							"internalType": "address",
							"name": "user",
							"type": "address"
						}
					],
					"name": "getLockDetails",
					"outputs": [
						{
							"components": [
								{
									"internalType": "uint256",
									"name": "amount",
									"type": "uint256"
								},
								{
									"internalType": "uint256",
									"name": "unlockTime",
									"type": "uint256"
								}
							],
							"internalType": "struct TimeLockToken.LockedBalance[]",
							"name": "",
							"type": "tuple[]"
						}
					],
					"stateMutability": "view",
					"type": "function"
				},
				{
					"inputs": [
						{
							"internalType": "address",
							"name": "user",
							"type": "address"
						}
					],
					"name": "getUnlockedBalance",
					"outputs": [
						{
							"internalType": "uint256",
							"name": "",
							"type": "uint256"
						}
					],
					"stateMutability": "view",
					"type": "function"
				},
				{
					"inputs": [
						{
							"internalType": "address",
							"name": "",
							"type": "address"
						}
					],
					"name": "lockManagers",
					"outputs": [
						{
							"internalType": "bool",
							"name": "",
							"type": "bool"
						}
					],
					"stateMutability": "view",
					"type": "function"
				},
				{
					"inputs": [
						{
							"internalType": "address",
							"name": "user",
							"type": "address"
						},
						{
							"internalType": "uint256",
							"name": "amount",
							"type": "uint256"
						},
						{
							"internalType": "uint256",
							"name": "unlockTime",
							"type": "uint256"
						}
					],
					"name": "lockTokens",
					"outputs": [],
					"stateMutability": "nonpayable",
					"type": "function"
				},
				{
					"inputs": [
						{
							"internalType": "address",
							"name": "",
							"type": "address"
						},
						{
							"internalType": "uint256",
							"name": "",
							"type": "uint256"
						}
					],
					"name": "lockedBalances",
					"outputs": [
						{
							"internalType": "uint256",
							"name": "amount",
							"type": "uint256"
						},
						{
							"internalType": "uint256",
							"name": "unlockTime",
							"type": "uint256"
						}
					],
					"stateMutability": "view",
					"type": "function"
				},
				{
					"inputs": [],
					"name": "name",
					"outputs": [
						{
							"internalType": "string",
							"name": "",
							"type": "string"
						}
					],
					"stateMutability": "view",
					"type": "function"
				},
				{
					"inputs": [],
					"name": "owner",
					"outputs": [
						{
							"internalType": "address",
							"name": "",
							"type": "address"
						}
					],
					"stateMutability": "view",
					"type": "function"
				},
				{
					"inputs": [
						{
							"internalType": "address",
							"name": "account",
							"type": "address"
						}
					],
					"name": "removeLockManager",
					"outputs": [],
					"stateMutability": "nonpayable",
					"type": "function"
				},
				{
					"inputs": [],
					"name": "symbol",
					"outputs": [
						{
							"internalType": "string",
							"name": "",
							"type": "string"
						}
					],
					"stateMutability": "view",
					"type": "function"
				},
				{
					"inputs": [
						{
							"internalType": "address",
							"name": "",
							"type": "address"
						}
					],
					"name": "totalLocked",
					"outputs": [
						{
							"internalType": "uint256",
							"name": "",
							"type": "uint256"
						}
					],
					"stateMutability": "view",
					"type": "function"
				},
				{
					"inputs": [],
					"name": "totalSupply",
					"outputs": [
						{
							"internalType": "uint256",
							"name": "",
							"type": "uint256"
						}
					],
					"stateMutability": "view",
					"type": "function"
				},
				{
					"inputs": [
						{
							"internalType": "address",
							"name": "to",
							"type": "address"
						},
						{
							"internalType": "uint256",
							"name": "amount",
							"type": "uint256"
						}
					],
					"name": "transfer",
					"outputs": [
						{
							"internalType": "bool",
							"name": "",
							"type": "bool"
						}
					],
					"stateMutability": "nonpayable",
					"type": "function"
				},
				{
					"inputs": [
						{
							"internalType": "address",
							"name": "from",
							"type": "address"
						},
						{
							"internalType": "address",
							"name": "to",
							"type": "address"
						},
						{
							"internalType": "uint256",
							"name": "amount",
							"type": "uint256"
						}
					],
					"name": "transferFrom",
					"outputs": [
						{
							"internalType": "bool",
							"name": "",
							"type": "bool"
						}
					],
					"stateMutability": "nonpayable",
					"type": "function"
				},
				{
					"inputs": [
						{
							"internalType": "address",
							"name": "user",
							"type": "address"
						}
					],
					"name": "unlockTokens",
					"outputs": [],
					"stateMutability": "nonpayable",
					"type": "function"
				}
			],
			"devdoc": {
				"kind": "dev",
				"methods": {},
				"version": 1
			},
			"evm": {
				"assembly": "    /* \"Tokens/TimeLockTokenWithVesting.sol\":61:6652  contract TimeLockToken {... */\n  mstore(0x40, 0x80)\n    /* \"Tokens/TimeLockTokenWithVesting.sol\":1791:2273  constructor(... */\n  callvalue\n  dup1\n  iszero\n  tag_1\n  jumpi\n  revert(0x00, 0x00)\ntag_1:\n  pop\n  mload(0x40)\n  sub(codesize, bytecodeSize)\n  dup1\n  bytecodeSize\n  dup4\n  codecopy\n  dup2\n  dup2\n  add\n  0x40\n  mstore\n  dup2\n  add\n  swap1\n  tag_2\n  swap2\n  swap1\n  tag_3\n  jump\t// in\ntag_2:\n    /* \"Tokens/TimeLockTokenWithVesting.sol\":1949:1954  _name */\n  dup4\n    /* \"Tokens/TimeLockTokenWithVesting.sol\":1942:1946  name */\n  0x00\n    /* \"Tokens/TimeLockTokenWithVesting.sol\":1942:1954  name = _name */\n  swap1\n  dup2\n  tag_6\n  swap2\n  swap1\n  tag_7\n  jump\t// in\ntag_6:\n  pop\n    /* \"Tokens/TimeLockTokenWithVesting.sol\":1974:1981  _symbol */\n  dup3\n    /* \"Tokens/TimeLockTokenWithVesting.sol\":1965:1971  symbol */\n  0x01\n    /* \"Tokens/TimeLockTokenWithVesting.sol\":1965:1981  symbol = _symbol */\n  swap1\n  dup2\n  tag_8\n  swap2\n  swap1\n  tag_7\n  jump\t// in\ntag_8:\n  pop\n    /* \"Tokens/TimeLockTokenWithVesting.sol\":2003:2012  _decimals */\n  dup2\n    /* \"Tokens/TimeLockTokenWithVesting.sol\":1992:2000  decimals */\n  0x02\n  0x00\n    /* \"Tokens/TimeLockTokenWithVesting.sol\":1992:2012  decimals = _decimals */\n  0x0100\n  exp\n  dup2\n  sload\n  dup2\n  0xff\n  mul\n  not\n  and\n  swap1\n  dup4\n  0xff\n  and\n  mul\n  or\n  swap1\n  sstore\n  pop\n    /* \"Tokens/TimeLockTokenWithVesting.sol\":2058:2067  _decimals */\n  dup2\n    /* \"Tokens/TimeLockTokenWithVesting.sol\":2054:2056  10 */\n  0x0a\n    /* \"Tokens/TimeLockTokenWithVesting.sol\":2054:2067  10**_decimals */\n  tag_9\n  swap2\n  swap1\n  tag_10\n  jump\t// in\ntag_9:\n    /* \"Tokens/TimeLockTokenWithVesting.sol\":2037:2051  _initialSupply */\n  dup2\n    /* \"Tokens/TimeLockTokenWithVesting.sol\":2037:2067  _initialSupply * 10**_decimals */\n  tag_11\n  swap2\n  swap1\n  tag_12\n  jump\t// in\ntag_11:\n    /* \"Tokens/TimeLockTokenWithVesting.sol\":2023:2034  totalSupply */\n  0x03\n    /* \"Tokens/TimeLockTokenWithVesting.sol\":2023:2067  totalSupply = _initialSupply * 10**_decimals */\n  dup2\n  swap1\n  sstore\n  pop\n    /* \"Tokens/TimeLockTokenWithVesting.sol\":2096:2106  msg.sender */\n  caller\n    /* \"Tokens/TimeLockTokenWithVesting.sol\":2088:2093  owner */\n  0x08\n  0x00\n    /* \"Tokens/TimeLockTokenWithVesting.sol\":2088:2106  owner = msg.sender */\n  0x0100\n  exp\n  dup2\n  sload\n  dup2\n  0xffffffffffffffffffffffffffffffffffffffff\n  mul\n  not\n  and\n  swap1\n  dup4\n  0xffffffffffffffffffffffffffffffffffffffff\n  and\n  mul\n  or\n  swap1\n  sstore\n  pop\n    /* \"Tokens/TimeLockTokenWithVesting.sol\":2144:2148  true */\n  0x01\n    /* \"Tokens/TimeLockTokenWithVesting.sol\":2117:2129  lockManagers */\n  0x09\n    /* \"Tokens/TimeLockTokenWithVesting.sol\":2117:2141  lockManagers[msg.sender] */\n  0x00\n    /* \"Tokens/TimeLockTokenWithVesting.sol\":2130:2140  msg.sender */\n  caller\n    /* \"Tokens/TimeLockTokenWithVesting.sol\":2117:2141  lockManagers[msg.sender] */\n  0xffffffffffffffffffffffffffffffffffffffff\n  and\n  0xffffffffffffffffffffffffffffffffffffffff\n  and\n  dup2\n  mstore\n  0x20\n  add\n  swap1\n  dup2\n  mstore\n  0x20\n  add\n  0x00\n  keccak256\n  0x00\n    /* \"Tokens/TimeLockTokenWithVesting.sol\":2117:2148  lockManagers[msg.sender] = true */\n  0x0100\n  exp\n  dup2\n  sload\n  dup2\n  0xff\n  mul\n  not\n  and\n  swap1\n  dup4\n  iszero\n  iszero\n  mul\n  or\n  swap1\n  sstore\n  pop\n    /* \"Tokens/TimeLockTokenWithVesting.sol\":2193:2204  totalSupply */\n  sload(0x03)\n    /* \"Tokens/TimeLockTokenWithVesting.sol\":2169:2178  _balances */\n  0x04\n    /* \"Tokens/TimeLockTokenWithVesting.sol\":2169:2190  _balances[msg.sender] */\n  0x00\n    /* \"Tokens/TimeLockTokenWithVesting.sol\":2179:2189  msg.sender */\n  caller\n    /* \"Tokens/TimeLockTokenWithVesting.sol\":2169:2190  _balances[msg.sender] */\n  0xffffffffffffffffffffffffffffffffffffffff\n  and\n  0xffffffffffffffffffffffffffffffffffffffff\n  and\n  dup2\n  mstore\n  0x20\n  add\n  swap1\n  dup2\n  mstore\n  0x20\n  add\n  0x00\n  keccak256\n    /* \"Tokens/TimeLockTokenWithVesting.sol\":2169:2204  _balances[msg.sender] = totalSupply */\n  dup2\n  swap1\n  sstore\n  pop\n    /* \"Tokens/TimeLockTokenWithVesting.sol\":2241:2251  msg.sender */\n  caller\n    /* \"Tokens/TimeLockTokenWithVesting.sol\":2220:2265  Transfer(address(0), msg.sender, totalSupply) */\n  0xffffffffffffffffffffffffffffffffffffffff\n  and\n    /* \"Tokens/TimeLockTokenWithVesting.sol\":2237:2238  0 */\n  0x00\n    /* \"Tokens/TimeLockTokenWithVesting.sol\":2220:2265  Transfer(address(0), msg.sender, totalSupply) */\n  0xffffffffffffffffffffffffffffffffffffffff\n  and\n  0xddf252ad1be2c89b69c2b068fc378daa952ba7f163c4a11628f55a4df523b3ef\n    /* \"Tokens/TimeLockTokenWithVesting.sol\":2253:2264  totalSupply */\n  sload(0x03)\n    /* \"Tokens/TimeLockTokenWithVesting.sol\":2220:2265  Transfer(address(0), msg.sender, totalSupply) */\n  mload(0x40)\n  tag_13\n  swap2\n  swap1\n  tag_14\n  jump\t// in\ntag_13:\n  mload(0x40)\n  dup1\n  swap2\n  sub\n  swap1\n  log3\n    /* \"Tokens/TimeLockTokenWithVesting.sol\":1791:2273  constructor(... */\n  pop\n  pop\n  pop\n  pop\n    /* \"Tokens/TimeLockTokenWithVesting.sol\":61:6652  contract TimeLockToken {... */\n  jump(tag_15)\n    /* \"#utility.yul\":7:82   */\ntag_16:\n    /* \"#utility.yul\":40:46   */\n  0x00\n    /* \"#utility.yul\":73:75   */\n  0x40\n    /* \"#utility.yul\":67:76   */\n  mload\n    /* \"#utility.yul\":57:76   */\n  swap1\n  pop\n    /* \"#utility.yul\":7:82   */\n  swap1\n  jump\t// out\n    /* \"#utility.yul\":88:205   */\ntag_17:\n    /* \"#utility.yul\":197:198   */\n  0x00\n    /* \"#utility.yul\":194:195   */\n  0x00\n    /* \"#utility.yul\":187:199   */\n  revert\n    /* \"#utility.yul\":211:328   */\ntag_18:\n    /* \"#utility.yul\":320:321   */\n  0x00\n    /* \"#utility.yul\":317:318   */\n  0x00\n    /* \"#utility.yul\":310:322   */\n  revert\n    /* \"#utility.yul\":334:451   */\ntag_19:\n    /* \"#utility.yul\":443:444   */\n  0x00\n    /* \"#utility.yul\":440:441   */\n  0x00\n    /* \"#utility.yul\":433:445   */\n  revert\n    /* \"#utility.yul\":457:574   */\ntag_20:\n    /* \"#utility.yul\":566:567   */\n  0x00\n    /* \"#utility.yul\":563:564   */\n  0x00\n    /* \"#utility.yul\":556:568   */\n  revert\n    /* \"#utility.yul\":580:682   */\ntag_21:\n    /* \"#utility.yul\":621:627   */\n  0x00\n    /* \"#utility.yul\":672:674   */\n  0x1f\n    /* \"#utility.yul\":668:675   */\n  not\n    /* \"#utility.yul\":663:665   */\n  0x1f\n    /* \"#utility.yul\":656:661   */\n  dup4\n    /* \"#utility.yul\":652:666   */\n  add\n    /* \"#utility.yul\":648:676   */\n  and\n    /* \"#utility.yul\":638:676   */\n  swap1\n  pop\n    /* \"#utility.yul\":580:682   */\n  swap2\n  swap1\n  pop\n  jump\t// out\n    /* \"#utility.yul\":688:868   */\ntag_22:\n    /* \"#utility.yul\":736:813   */\n  0x4e487b7100000000000000000000000000000000000000000000000000000000\n    /* \"#utility.yul\":733:734   */\n  0x00\n    /* \"#utility.yul\":726:814   */\n  mstore\n    /* \"#utility.yul\":833:837   */\n  0x41\n    /* \"#utility.yul\":830:831   */\n  0x04\n    /* \"#utility.yul\":823:838   */\n  mstore\n    /* \"#utility.yul\":857:861   */\n  0x24\n    /* \"#utility.yul\":854:855   */\n  0x00\n    /* \"#utility.yul\":847:862   */\n  revert\n    /* \"#utility.yul\":874:1155   */\ntag_23:\n    /* \"#utility.yul\":957:984   */\n  tag_67\n    /* \"#utility.yul\":979:983   */\n  dup3\n    /* \"#utility.yul\":957:984   */\n  tag_21\n  jump\t// in\ntag_67:\n    /* \"#utility.yul\":949:955   */\n  dup2\n    /* \"#utility.yul\":945:985   */\n  add\n    /* \"#utility.yul\":1087:1093   */\n  dup2\n    /* \"#utility.yul\":1075:1085   */\n  dup2\n    /* \"#utility.yul\":1072:1094   */\n  lt\n    /* \"#utility.yul\":1051:1069   */\n  0xffffffffffffffff\n    /* \"#utility.yul\":1039:1049   */\n  dup3\n    /* \"#utility.yul\":1036:1070   */\n  gt\n    /* \"#utility.yul\":1033:1095   */\n  or\n    /* \"#utility.yul\":1030:1118   */\n  iszero\n  tag_68\n  jumpi\n    /* \"#utility.yul\":1098:1116   */\n  tag_69\n  tag_22\n  jump\t// in\ntag_69:\n    /* \"#utility.yul\":1030:1118   */\ntag_68:\n    /* \"#utility.yul\":1138:1148   */\n  dup1\n    /* \"#utility.yul\":1134:1136   */\n  0x40\n    /* \"#utility.yul\":1127:1149   */\n  mstore\n    /* \"#utility.yul\":917:1155   */\n  pop\n    /* \"#utility.yul\":874:1155   */\n  pop\n  pop\n  jump\t// out\n    /* \"#utility.yul\":1161:1290   */\ntag_24:\n    /* \"#utility.yul\":1195:1201   */\n  0x00\n    /* \"#utility.yul\":1222:1242   */\n  tag_71\n  tag_16\n  jump\t// in\ntag_71:\n    /* \"#utility.yul\":1212:1242   */\n  swap1\n  pop\n    /* \"#utility.yul\":1251:1284   */\n  tag_72\n    /* \"#utility.yul\":1279:1283   */\n  dup3\n    /* \"#utility.yul\":1271:1277   */\n  dup3\n    /* \"#utility.yul\":1251:1284   */\n  tag_23\n  jump\t// in\ntag_72:\n    /* \"#utility.yul\":1161:1290   */\n  swap2\n  swap1\n  pop\n  jump\t// out\n    /* \"#utility.yul\":1296:1604   */\ntag_25:\n    /* \"#utility.yul\":1358:1362   */\n  0x00\n    /* \"#utility.yul\":1448:1466   */\n  0xffffffffffffffff\n    /* \"#utility.yul\":1440:1446   */\n  dup3\n    /* \"#utility.yul\":1437:1467   */\n  gt\n    /* \"#utility.yul\":1434:1490   */\n  iszero\n  tag_74\n  jumpi\n    /* \"#utility.yul\":1470:1488   */\n  tag_75\n  tag_22\n  jump\t// in\ntag_75:\n    /* \"#utility.yul\":1434:1490   */\ntag_74:\n    /* \"#utility.yul\":1508:1537   */\n  tag_76\n    /* \"#utility.yul\":1530:1536   */\n  dup3\n    /* \"#utility.yul\":1508:1537   */\n  tag_21\n  jump\t// in\ntag_76:\n    /* \"#utility.yul\":1500:1537   */\n  swap1\n  pop\n    /* \"#utility.yul\":1592:1596   */\n  0x20\n    /* \"#utility.yul\":1586:1590   */\n  dup2\n    /* \"#utility.yul\":1582:1597   */\n  add\n    /* \"#utility.yul\":1574:1597   */\n  swap1\n  pop\n    /* \"#utility.yul\":1296:1604   */\n  swap2\n  swap1\n  pop\n  jump\t// out\n    /* \"#utility.yul\":1610:1749   */\ntag_26:\n    /* \"#utility.yul\":1699:1705   */\n  dup3\n    /* \"#utility.yul\":1694:1697   */\n  dup2\n    /* \"#utility.yul\":1689:1692   */\n  dup4\n    /* \"#utility.yul\":1683:1706   */\n  mcopy\n    /* \"#utility.yul\":1740:1741   */\n  0x00\n    /* \"#utility.yul\":1731:1737   */\n  dup4\n    /* \"#utility.yul\":1726:1729   */\n  dup4\n    /* \"#utility.yul\":1722:1738   */\n  add\n    /* \"#utility.yul\":1715:1742   */\n  mstore\n    /* \"#utility.yul\":1610:1749   */\n  pop\n  pop\n  pop\n  jump\t// out\n    /* \"#utility.yul\":1755:2189   */\ntag_27:\n    /* \"#utility.yul\":1844:1849   */\n  0x00\n    /* \"#utility.yul\":1869:1935   */\n  tag_79\n    /* \"#utility.yul\":1885:1934   */\n  tag_80\n    /* \"#utility.yul\":1927:1933   */\n  dup5\n    /* \"#utility.yul\":1885:1934   */\n  tag_25\n  jump\t// in\ntag_80:\n    /* \"#utility.yul\":1869:1935   */\n  tag_24\n  jump\t// in\ntag_79:\n    /* \"#utility.yul\":1860:1935   */\n  swap1\n  pop\n    /* \"#utility.yul\":1958:1964   */\n  dup3\n    /* \"#utility.yul\":1951:1956   */\n  dup2\n    /* \"#utility.yul\":1944:1965   */\n  mstore\n    /* \"#utility.yul\":1996:2000   */\n  0x20\n    /* \"#utility.yul\":1989:1994   */\n  dup2\n    /* \"#utility.yul\":1985:2001   */\n  add\n    /* \"#utility.yul\":2034:2037   */\n  dup5\n    /* \"#utility.yul\":2025:2031   */\n  dup5\n    /* \"#utility.yul\":2020:2023   */\n  dup5\n    /* \"#utility.yul\":2016:2032   */\n  add\n    /* \"#utility.yul\":2013:2038   */\n  gt\n    /* \"#utility.yul\":2010:2122   */\n  iszero\n  tag_81\n  jumpi\n    /* \"#utility.yul\":2041:2120   */\n  tag_82\n  tag_20\n  jump\t// in\ntag_82:\n    /* \"#utility.yul\":2010:2122   */\ntag_81:\n    /* \"#utility.yul\":2131:2183   */\n  tag_83\n    /* \"#utility.yul\":2176:2182   */\n  dup5\n    /* \"#utility.yul\":2171:2174   */\n  dup3\n    /* \"#utility.yul\":2166:2169   */\n  dup6\n    /* \"#utility.yul\":2131:2183   */\n  tag_26\n  jump\t// in\ntag_83:\n    /* \"#utility.yul\":1850:2189   */\n  pop\n    /* \"#utility.yul\":1755:2189   */\n  swap4\n  swap3\n  pop\n  pop\n  pop\n  jump\t// out\n    /* \"#utility.yul\":2209:2564   */\ntag_28:\n    /* \"#utility.yul\":2276:2281   */\n  0x00\n    /* \"#utility.yul\":2325:2328   */\n  dup3\n    /* \"#utility.yul\":2318:2322   */\n  0x1f\n    /* \"#utility.yul\":2310:2316   */\n  dup4\n    /* \"#utility.yul\":2306:2323   */\n  add\n    /* \"#utility.yul\":2302:2329   */\n  slt\n    /* \"#utility.yul\":2292:2414   */\n  tag_85\n  jumpi\n    /* \"#utility.yul\":2333:2412   */\n  tag_86\n  tag_19\n  jump\t// in\ntag_86:\n    /* \"#utility.yul\":2292:2414   */\ntag_85:\n    /* \"#utility.yul\":2443:2449   */\n  dup2\n    /* \"#utility.yul\":2437:2450   */\n  mload\n    /* \"#utility.yul\":2468:2558   */\n  tag_87\n    /* \"#utility.yul\":2554:2557   */\n  dup5\n    /* \"#utility.yul\":2546:2552   */\n  dup3\n    /* \"#utility.yul\":2539:2543   */\n  0x20\n    /* \"#utility.yul\":2531:2537   */\n  dup7\n    /* \"#utility.yul\":2527:2544   */\n  add\n    /* \"#utility.yul\":2468:2558   */\n  tag_27\n  jump\t// in\ntag_87:\n    /* \"#utility.yul\":2459:2558   */\n  swap2\n  pop\n    /* \"#utility.yul\":2282:2564   */\n  pop\n    /* \"#utility.yul\":2209:2564   */\n  swap3\n  swap2\n  pop\n  pop\n  jump\t// out\n    /* \"#utility.yul\":2570:2656   */\ntag_29:\n    /* \"#utility.yul\":2605:2612   */\n  0x00\n    /* \"#utility.yul\":2645:2649   */\n  0xff\n    /* \"#utility.yul\":2638:2643   */\n  dup3\n    /* \"#utility.yul\":2634:2650   */\n  and\n    /* \"#utility.yul\":2623:2650   */\n  swap1\n  pop\n    /* \"#utility.yul\":2570:2656   */\n  swap2\n  swap1\n  pop\n  jump\t// out\n    /* \"#utility.yul\":2662:2780   */\ntag_30:\n    /* \"#utility.yul\":2733:2755   */\n  tag_90\n    /* \"#utility.yul\":2749:2754   */\n  dup2\n    /* \"#utility.yul\":2733:2755   */\n  tag_29\n  jump\t// in\ntag_90:\n    /* \"#utility.yul\":2726:2731   */\n  dup2\n    /* \"#utility.yul\":2723:2756   */\n  eq\n    /* \"#utility.yul\":2713:2774   */\n  tag_91\n  jumpi\n    /* \"#utility.yul\":2770:2771   */\n  0x00\n    /* \"#utility.yul\":2767:2768   */\n  0x00\n    /* \"#utility.yul\":2760:2772   */\n  revert\n    /* \"#utility.yul\":2713:2774   */\ntag_91:\n    /* \"#utility.yul\":2662:2780   */\n  pop\n  jump\t// out\n    /* \"#utility.yul\":2786:2925   */\ntag_31:\n    /* \"#utility.yul\":2841:2846   */\n  0x00\n    /* \"#utility.yul\":2872:2878   */\n  dup2\n    /* \"#utility.yul\":2866:2879   */\n  mload\n    /* \"#utility.yul\":2857:2879   */\n  swap1\n  pop\n    /* \"#utility.yul\":2888:2919   */\n  tag_93\n    /* \"#utility.yul\":2913:2918   */\n  dup2\n    /* \"#utility.yul\":2888:2919   */\n  tag_30\n  jump\t// in\ntag_93:\n    /* \"#utility.yul\":2786:2925   */\n  swap3\n  swap2\n  pop\n  pop\n  jump\t// out\n    /* \"#utility.yul\":2931:3008   */\ntag_32:\n    /* \"#utility.yul\":2968:2975   */\n  0x00\n    /* \"#utility.yul\":2997:3002   */\n  dup2\n    /* \"#utility.yul\":2986:3002   */\n  swap1\n  pop\n    /* \"#utility.yul\":2931:3008   */\n  swap2\n  swap1\n  pop\n  jump\t// out\n    /* \"#utility.yul\":3014:3136   */\ntag_33:\n    /* \"#utility.yul\":3087:3111   */\n  tag_96\n    /* \"#utility.yul\":3105:3110   */\n  dup2\n    /* \"#utility.yul\":3087:3111   */\n  tag_32\n  jump\t// in\ntag_96:\n    /* \"#utility.yul\":3080:3085   */\n  dup2\n    /* \"#utility.yul\":3077:3112   */\n  eq\n    /* \"#utility.yul\":3067:3130   */\n  tag_97\n  jumpi\n    /* \"#utility.yul\":3126:3127   */\n  0x00\n    /* \"#utility.yul\":3123:3124   */\n  0x00\n    /* \"#utility.yul\":3116:3128   */\n  revert\n    /* \"#utility.yul\":3067:3130   */\ntag_97:\n    /* \"#utility.yul\":3014:3136   */\n  pop\n  jump\t// out\n    /* \"#utility.yul\":3142:3285   */\ntag_34:\n    /* \"#utility.yul\":3199:3204   */\n  0x00\n    /* \"#utility.yul\":3230:3236   */\n  dup2\n    /* \"#utility.yul\":3224:3237   */\n  mload\n    /* \"#utility.yul\":3215:3237   */\n  swap1\n  pop\n    /* \"#utility.yul\":3246:3279   */\n  tag_99\n    /* \"#utility.yul\":3273:3278   */\n  dup2\n    /* \"#utility.yul\":3246:3279   */\n  tag_33\n  jump\t// in\ntag_99:\n    /* \"#utility.yul\":3142:3285   */\n  swap3\n  swap2\n  pop\n  pop\n  jump\t// out\n    /* \"#utility.yul\":3291:4453   */\ntag_3:\n    /* \"#utility.yul\":3406:3412   */\n  0x00\n    /* \"#utility.yul\":3414:3420   */\n  0x00\n    /* \"#utility.yul\":3422:3428   */\n  0x00\n    /* \"#utility.yul\":3430:3436   */\n  0x00\n    /* \"#utility.yul\":3479:3482   */\n  0x80\n    /* \"#utility.yul\":3467:3476   */\n  dup6\n    /* \"#utility.yul\":3458:3465   */\n  dup8\n    /* \"#utility.yul\":3454:3477   */\n  sub\n    /* \"#utility.yul\":3450:3483   */\n  slt\n    /* \"#utility.yul\":3447:3567   */\n  iszero\n  tag_101\n  jumpi\n    /* \"#utility.yul\":3486:3565   */\n  tag_102\n  tag_17\n  jump\t// in\ntag_102:\n    /* \"#utility.yul\":3447:3567   */\ntag_101:\n    /* \"#utility.yul\":3627:3628   */\n  0x00\n    /* \"#utility.yul\":3616:3625   */\n  dup6\n    /* \"#utility.yul\":3612:3629   */\n  add\n    /* \"#utility.yul\":3606:3630   */\n  mload\n    /* \"#utility.yul\":3657:3675   */\n  0xffffffffffffffff\n    /* \"#utility.yul\":3649:3655   */\n  dup2\n    /* \"#utility.yul\":3646:3676   */\n  gt\n    /* \"#utility.yul\":3643:3760   */\n  iszero\n  tag_103\n  jumpi\n    /* \"#utility.yul\":3679:3758   */\n  tag_104\n  tag_18\n  jump\t// in\ntag_104:\n    /* \"#utility.yul\":3643:3760   */\ntag_103:\n    /* \"#utility.yul\":3784:3858   */\n  tag_105\n    /* \"#utility.yul\":3850:3857   */\n  dup8\n    /* \"#utility.yul\":3841:3847   */\n  dup3\n    /* \"#utility.yul\":3830:3839   */\n  dup9\n    /* \"#utility.yul\":3826:3848   */\n  add\n    /* \"#utility.yul\":3784:3858   */\n  tag_28\n  jump\t// in\ntag_105:\n    /* \"#utility.yul\":3774:3858   */\n  swap5\n  pop\n    /* \"#utility.yul\":3577:3868   */\n  pop\n    /* \"#utility.yul\":3928:3930   */\n  0x20\n    /* \"#utility.yul\":3917:3926   */\n  dup6\n    /* \"#utility.yul\":3913:3931   */\n  add\n    /* \"#utility.yul\":3907:3932   */\n  mload\n    /* \"#utility.yul\":3959:3977   */\n  0xffffffffffffffff\n    /* \"#utility.yul\":3951:3957   */\n  dup2\n    /* \"#utility.yul\":3948:3978   */\n  gt\n    /* \"#utility.yul\":3945:4062   */\n  iszero\n  tag_106\n  jumpi\n    /* \"#utility.yul\":3981:4060   */\n  tag_107\n  tag_18\n  jump\t// in\ntag_107:\n    /* \"#utility.yul\":3945:4062   */\ntag_106:\n    /* \"#utility.yul\":4086:4160   */\n  tag_108\n    /* \"#utility.yul\":4152:4159   */\n  dup8\n    /* \"#utility.yul\":4143:4149   */\n  dup3\n    /* \"#utility.yul\":4132:4141   */\n  dup9\n    /* \"#utility.yul\":4128:4150   */\n  add\n    /* \"#utility.yul\":4086:4160   */\n  tag_28\n  jump\t// in\ntag_108:\n    /* \"#utility.yul\":4076:4160   */\n  swap4\n  pop\n    /* \"#utility.yul\":3878:4170   */\n  pop\n    /* \"#utility.yul\":4209:4211   */\n  0x40\n    /* \"#utility.yul\":4235:4297   */\n  tag_109\n    /* \"#utility.yul\":4289:4296   */\n  dup8\n    /* \"#utility.yul\":4280:4286   */\n  dup3\n    /* \"#utility.yul\":4269:4278   */\n  dup9\n    /* \"#utility.yul\":4265:4287   */\n  add\n    /* \"#utility.yul\":4235:4297   */\n  tag_31\n  jump\t// in\ntag_109:\n    /* \"#utility.yul\":4225:4297   */\n  swap3\n  pop\n    /* \"#utility.yul\":4180:4307   */\n  pop\n    /* \"#utility.yul\":4346:4348   */\n  0x60\n    /* \"#utility.yul\":4372:4436   */\n  tag_110\n    /* \"#utility.yul\":4428:4435   */\n  dup8\n    /* \"#utility.yul\":4419:4425   */\n  dup3\n    /* \"#utility.yul\":4408:4417   */\n  dup9\n    /* \"#utility.yul\":4404:4426   */\n  add\n    /* \"#utility.yul\":4372:4436   */\n  tag_34\n  jump\t// in\ntag_110:\n    /* \"#utility.yul\":4362:4436   */\n  swap2\n  pop\n    /* \"#utility.yul\":4317:4446   */\n  pop\n    /* \"#utility.yul\":3291:4453   */\n  swap3\n  swap6\n  swap2\n  swap5\n  pop\n  swap3\n  pop\n  jump\t// out\n    /* \"#utility.yul\":4459:4558   */\ntag_35:\n    /* \"#utility.yul\":4511:4517   */\n  0x00\n    /* \"#utility.yul\":4545:4550   */\n  dup2\n    /* \"#utility.yul\":4539:4551   */\n  mload\n    /* \"#utility.yul\":4529:4551   */\n  swap1\n  pop\n    /* \"#utility.yul\":4459:4558   */\n  swap2\n  swap1\n  pop\n  jump\t// out\n    /* \"#utility.yul\":4564:4744   */\ntag_36:\n    /* \"#utility.yul\":4612:4689   */\n  0x4e487b7100000000000000000000000000000000000000000000000000000000\n    /* \"#utility.yul\":4609:4610   */\n  0x00\n    /* \"#utility.yul\":4602:4690   */\n  mstore\n    /* \"#utility.yul\":4709:4713   */\n  0x22\n    /* \"#utility.yul\":4706:4707   */\n  0x04\n    /* \"#utility.yul\":4699:4714   */\n  mstore\n    /* \"#utility.yul\":4733:4737   */\n  0x24\n    /* \"#utility.yul\":4730:4731   */\n  0x00\n    /* \"#utility.yul\":4723:4738   */\n  revert\n    /* \"#utility.yul\":4750:5070   */\ntag_37:\n    /* \"#utility.yul\":4794:4800   */\n  0x00\n    /* \"#utility.yul\":4831:4832   */\n  0x02\n    /* \"#utility.yul\":4825:4829   */\n  dup3\n    /* \"#utility.yul\":4821:4833   */\n  div\n    /* \"#utility.yul\":4811:4833   */\n  swap1\n  pop\n    /* \"#utility.yul\":4878:4879   */\n  0x01\n    /* \"#utility.yul\":4872:4876   */\n  dup3\n    /* \"#utility.yul\":4868:4880   */\n  and\n    /* \"#utility.yul\":4899:4917   */\n  dup1\n    /* \"#utility.yul\":4889:4970   */\n  tag_114\n  jumpi\n    /* \"#utility.yul\":4955:4959   */\n  0x7f\n    /* \"#utility.yul\":4947:4953   */\n  dup3\n    /* \"#utility.yul\":4943:4960   */\n  and\n    /* \"#utility.yul\":4933:4960   */\n  swap2\n  pop\n    /* \"#utility.yul\":4889:4970   */\ntag_114:\n    /* \"#utility.yul\":5017:5019   */\n  0x20\n    /* \"#utility.yul\":5009:5015   */\n  dup3\n    /* \"#utility.yul\":5006:5020   */\n  lt\n    /* \"#utility.yul\":4986:5004   */\n  dup2\n    /* \"#utility.yul\":4983:5021   */\n  sub\n    /* \"#utility.yul\":4980:5064   */\n  tag_115\n  jumpi\n    /* \"#utility.yul\":5036:5054   */\n  tag_116\n  tag_36\n  jump\t// in\ntag_116:\n    /* \"#utility.yul\":4980:5064   */\ntag_115:\n    /* \"#utility.yul\":4801:5070   */\n  pop\n    /* \"#utility.yul\":4750:5070   */\n  swap2\n  swap1\n  pop\n  jump\t// out\n    /* \"#utility.yul\":5076:5217   */\ntag_38:\n    /* \"#utility.yul\":5125:5129   */\n  0x00\n    /* \"#utility.yul\":5148:5151   */\n  dup2\n    /* \"#utility.yul\":5140:5151   */\n  swap1\n  pop\n    /* \"#utility.yul\":5171:5174   */\n  dup2\n    /* \"#utility.yul\":5168:5169   */\n  0x00\n    /* \"#utility.yul\":5161:5175   */\n  mstore\n    /* \"#utility.yul\":5205:5209   */\n  0x20\n    /* \"#utility.yul\":5202:5203   */\n  0x00\n    /* \"#utility.yul\":5192:5210   */\n  keccak256\n    /* \"#utility.yul\":5184:5210   */\n  swap1\n  pop\n    /* \"#utility.yul\":5076:5217   */\n  swap2\n  swap1\n  pop\n  jump\t// out\n    /* \"#utility.yul\":5223:5316   */\ntag_39:\n    /* \"#utility.yul\":5260:5266   */\n  0x00\n    /* \"#utility.yul\":5307:5309   */\n  0x20\n    /* \"#utility.yul\":5302:5304   */\n  0x1f\n    /* \"#utility.yul\":5295:5300   */\n  dup4\n    /* \"#utility.yul\":5291:5305   */\n  add\n    /* \"#utility.yul\":5287:5310   */\n  div\n    /* \"#utility.yul\":5277:5310   */\n  swap1\n  pop\n    /* \"#utility.yul\":5223:5316   */\n  swap2\n  swap1\n  pop\n  jump\t// out\n    /* \"#utility.yul\":5322:5429   */\ntag_40:\n    /* \"#utility.yul\":5366:5374   */\n  0x00\n    /* \"#utility.yul\":5416:5421   */\n  dup3\n    /* \"#utility.yul\":5410:5414   */\n  dup3\n    /* \"#utility.yul\":5406:5422   */\n  shl\n    /* \"#utility.yul\":5385:5422   */\n  swap1\n  pop\n    /* \"#utility.yul\":5322:5429   */\n  swap3\n  swap2\n  pop\n  pop\n  jump\t// out\n    /* \"#utility.yul\":5435:5828   */\ntag_41:\n    /* \"#utility.yul\":5504:5510   */\n  0x00\n    /* \"#utility.yul\":5554:5555   */\n  0x08\n    /* \"#utility.yul\":5542:5552   */\n  dup4\n    /* \"#utility.yul\":5538:5556   */\n  mul\n    /* \"#utility.yul\":5577:5674   */\n  tag_121\n    /* \"#utility.yul\":5607:5673   */\n  0xffffffffffffffffffffffffffffffffffffffffffffffffffffffffffffffff\n    /* \"#utility.yul\":5596:5605   */\n  dup3\n    /* \"#utility.yul\":5577:5674   */\n  tag_40\n  jump\t// in\ntag_121:\n    /* \"#utility.yul\":5695:5734   */\n  tag_122\n    /* \"#utility.yul\":5725:5733   */\n  dup7\n    /* \"#utility.yul\":5714:5723   */\n  dup4\n    /* \"#utility.yul\":5695:5734   */\n  tag_40\n  jump\t// in\ntag_122:\n    /* \"#utility.yul\":5683:5734   */\n  swap6\n  pop\n    /* \"#utility.yul\":5767:5771   */\n  dup1\n    /* \"#utility.yul\":5763:5772   */\n  not\n    /* \"#utility.yul\":5756:5761   */\n  dup5\n    /* \"#utility.yul\":5752:5773   */\n  and\n    /* \"#utility.yul\":5743:5773   */\n  swap4\n  pop\n    /* \"#utility.yul\":5816:5820   */\n  dup1\n    /* \"#utility.yul\":5806:5814   */\n  dup7\n    /* \"#utility.yul\":5802:5821   */\n  and\n    /* \"#utility.yul\":5795:5800   */\n  dup5\n    /* \"#utility.yul\":5792:5822   */\n  or\n    /* \"#utility.yul\":5782:5822   */\n  swap3\n  pop\n    /* \"#utility.yul\":5511:5828   */\n  pop\n  pop\n    /* \"#utility.yul\":5435:5828   */\n  swap4\n  swap3\n  pop\n  pop\n  pop\n  jump\t// out\n    /* \"#utility.yul\":5834:5894   */\ntag_42:\n    /* \"#utility.yul\":5862:5865   */\n  0x00\n    /* \"#utility.yul\":5883:5888   */\n  dup2\n    /* \"#utility.yul\":5876:5888   */\n  swap1\n  pop\n    /* \"#utility.yul\":5834:5894   */\n  swap2\n  swap1\n  pop\n  jump\t// out\n    /* \"#utility.yul\":5900:6042   */\ntag_43:\n    /* \"#utility.yul\":5950:5959   */\n  0x00\n    /* \"#utility.yul\":5983:6036   */\n  tag_125\n    /* \"#utility.yul\":6001:6035   */\n  tag_126\n    /* \"#utility.yul\":6010:6034   */\n  tag_127\n    /* \"#utility.yul\":6028:6033   */\n  dup5\n    /* \"#utility.yul\":6010:6034   */\n  tag_32\n  jump\t// in\ntag_127:\n    /* \"#utility.yul\":6001:6035   */\n  tag_42\n  jump\t// in\ntag_126:\n    /* \"#utility.yul\":5983:6036   */\n  tag_32\n  jump\t// in\ntag_125:\n    /* \"#utility.yul\":5970:6036   */\n  swap1\n  pop\n    /* \"#utility.yul\":5900:6042   */\n  swap2\n  swap1\n  pop\n  jump\t// out\n    /* \"#utility.yul\":6048:6123   */\ntag_44:\n    /* \"#utility.yul\":6091:6094   */\n  0x00\n    /* \"#utility.yul\":6112:6117   */\n  dup2\n    /* \"#utility.yul\":6105:6117   */\n  swap1\n  pop\n    /* \"#utility.yul\":6048:6123   */\n  swap2\n  swap1\n  pop\n  jump\t// out\n    /* \"#utility.yul\":6129:6398   */\ntag_45:\n    /* \"#utility.yul\":6239:6278   */\n  tag_130\n    /* \"#utility.yul\":6270:6277   */\n  dup4\n    /* \"#utility.yul\":6239:6278   */\n  tag_43\n  jump\t// in\ntag_130:\n    /* \"#utility.yul\":6300:6391   */\n  tag_131\n    /* \"#utility.yul\":6349:6390   */\n  tag_132\n    /* \"#utility.yul\":6373:6389   */\n  dup3\n    /* \"#utility.yul\":6349:6390   */\n  tag_44\n  jump\t// in\ntag_132:\n    /* \"#utility.yul\":6341:6347   */\n  dup5\n    /* \"#utility.yul\":6334:6338   */\n  dup5\n    /* \"#utility.yul\":6328:6339   */\n  sload\n    /* \"#utility.yul\":6300:6391   */\n  tag_41\n  jump\t// in\ntag_131:\n    /* \"#utility.yul\":6294:6298   */\n  dup3\n    /* \"#utility.yul\":6287:6392   */\n  sstore\n    /* \"#utility.yul\":6205:6398   */\n  pop\n    /* \"#utility.yul\":6129:6398   */\n  pop\n  pop\n  pop\n  jump\t// out\n    /* \"#utility.yul\":6404:6477   */\ntag_46:\n    /* \"#utility.yul\":6449:6452   */\n  0x00\n    /* \"#utility.yul\":6470:6471   */\n  0x00\n    /* \"#utility.yul\":6463:6471   */\n  swap1\n  pop\n    /* \"#utility.yul\":6404:6477   */\n  swap1\n  jump\t// out\n    /* \"#utility.yul\":6483:6672   */\ntag_47:\n    /* \"#utility.yul\":6560:6592   */\n  tag_135\n  tag_46\n  jump\t// in\ntag_135:\n    /* \"#utility.yul\":6601:6666   */\n  tag_136\n    /* \"#utility.yul\":6659:6665   */\n  dup2\n    /* \"#utility.yul\":6651:6657   */\n  dup5\n    /* \"#utility.yul\":6645:6649   */\n  dup5\n    /* \"#utility.yul\":6601:6666   */\n  tag_45\n  jump\t// in\ntag_136:\n    /* \"#utility.yul\":6536:6672   */\n  pop\n    /* \"#utility.yul\":6483:6672   */\n  pop\n  pop\n  jump\t// out\n    /* \"#utility.yul\":6678:6864   */\ntag_48:\n    /* \"#utility.yul\":6738:6858   */\ntag_138:\n    /* \"#utility.yul\":6755:6758   */\n  dup2\n    /* \"#utility.yul\":6748:6753   */\n  dup2\n    /* \"#utility.yul\":6745:6759   */\n  lt\n    /* \"#utility.yul\":6738:6858   */\n  iszero\n  tag_140\n  jumpi\n    /* \"#utility.yul\":6809:6848   */\n  tag_141\n    /* \"#utility.yul\":6846:6847   */\n  0x00\n    /* \"#utility.yul\":6839:6844   */\n  dup3\n    /* \"#utility.yul\":6809:6848   */\n  tag_47\n  jump\t// in\ntag_141:\n    /* \"#utility.yul\":6782:6783   */\n  0x01\n    /* \"#utility.yul\":6775:6780   */\n  dup2\n    /* \"#utility.yul\":6771:6784   */\n  add\n    /* \"#utility.yul\":6762:6784   */\n  swap1\n  pop\n    /* \"#utility.yul\":6738:6858   */\n  jump(tag_138)\ntag_140:\n    /* \"#utility.yul\":6678:6864   */\n  pop\n  pop\n  jump\t// out\n    /* \"#utility.yul\":6870:7413   */\ntag_49:\n    /* \"#utility.yul\":6971:6973   */\n  0x1f\n    /* \"#utility.yul\":6966:6969   */\n  dup3\n    /* \"#utility.yul\":6963:6974   */\n  gt\n    /* \"#utility.yul\":6960:7406   */\n  iszero\n  tag_143\n  jumpi\n    /* \"#utility.yul\":7005:7043   */\n  tag_144\n    /* \"#utility.yul\":7037:7042   */\n  dup2\n    /* \"#utility.yul\":7005:7043   */\n  tag_38\n  jump\t// in\ntag_144:\n    /* \"#utility.yul\":7089:7118   */\n  tag_145\n    /* \"#utility.yul\":7107:7117   */\n  dup5\n    /* \"#utility.yul\":7089:7118   */\n  tag_39\n  jump\t// in\ntag_145:\n    /* \"#utility.yul\":7079:7087   */\n  dup2\n    /* \"#utility.yul\":7075:7119   */\n  add\n    /* \"#utility.yul\":7272:7274   */\n  0x20\n    /* \"#utility.yul\":7260:7270   */\n  dup6\n    /* \"#utility.yul\":7257:7275   */\n  lt\n    /* \"#utility.yul\":7254:7303   */\n  iszero\n  tag_146\n  jumpi\n    /* \"#utility.yul\":7293:7301   */\n  dup2\n    /* \"#utility.yul\":7278:7301   */\n  swap1\n  pop\n    /* \"#utility.yul\":7254:7303   */\ntag_146:\n    /* \"#utility.yul\":7316:7396   */\n  tag_147\n    /* \"#utility.yul\":7372:7394   */\n  tag_148\n    /* \"#utility.yul\":7390:7393   */\n  dup6\n    /* \"#utility.yul\":7372:7394   */\n  tag_39\n  jump\t// in\ntag_148:\n    /* \"#utility.yul\":7362:7370   */\n  dup4\n    /* \"#utility.yul\":7358:7395   */\n  add\n    /* \"#utility.yul\":7345:7356   */\n  dup3\n    /* \"#utility.yul\":7316:7396   */\n  tag_48\n  jump\t// in\ntag_147:\n    /* \"#utility.yul\":6975:7406   */\n  pop\n  pop\n    /* \"#utility.yul\":6960:7406   */\ntag_143:\n    /* \"#utility.yul\":6870:7413   */\n  pop\n  pop\n  pop\n  jump\t// out\n    /* \"#utility.yul\":7419:7536   */\ntag_50:\n    /* \"#utility.yul\":7473:7481   */\n  0x00\n    /* \"#utility.yul\":7523:7528   */\n  dup3\n    /* \"#utility.yul\":7517:7521   */\n  dup3\n    /* \"#utility.yul\":7513:7529   */\n  shr\n    /* \"#utility.yul\":7492:7529   */\n  swap1\n  pop\n    /* \"#utility.yul\":7419:7536   */\n  swap3\n  swap2\n  pop\n  pop\n  jump\t// out\n    /* \"#utility.yul\":7542:7711   */\ntag_51:\n    /* \"#utility.yul\":7586:7592   */\n  0x00\n    /* \"#utility.yul\":7619:7670   */\n  tag_151\n    /* \"#utility.yul\":7667:7668   */\n  0x00\n    /* \"#utility.yul\":7663:7669   */\n  not\n    /* \"#utility.yul\":7655:7660   */\n  dup5\n    /* \"#utility.yul\":7652:7653   */\n  0x08\n    /* \"#utility.yul\":7648:7661   */\n  mul\n    /* \"#utility.yul\":7619:7670   */\n  tag_50\n  jump\t// in\ntag_151:\n    /* \"#utility.yul\":7615:7671   */\n  not\n    /* \"#utility.yul\":7700:7704   */\n  dup1\n    /* \"#utility.yul\":7694:7698   */\n  dup4\n    /* \"#utility.yul\":7690:7705   */\n  and\n    /* \"#utility.yul\":7680:7705   */\n  swap2\n  pop\n    /* \"#utility.yul\":7593:7711   */\n  pop\n    /* \"#utility.yul\":7542:7711   */\n  swap3\n  swap2\n  pop\n  pop\n  jump\t// out\n    /* \"#utility.yul\":7716:8011   */\ntag_52:\n    /* \"#utility.yul\":7792:7796   */\n  0x00\n    /* \"#utility.yul\":7938:7967   */\n  tag_153\n    /* \"#utility.yul\":7963:7966   */\n  dup4\n    /* \"#utility.yul\":7957:7961   */\n  dup4\n    /* \"#utility.yul\":7938:7967   */\n  tag_51\n  jump\t// in\ntag_153:\n    /* \"#utility.yul\":7930:7967   */\n  swap2\n  pop\n    /* \"#utility.yul\":8000:8003   */\n  dup3\n    /* \"#utility.yul\":7997:7998   */\n  0x02\n    /* \"#utility.yul\":7993:8004   */\n  mul\n    /* \"#utility.yul\":7987:7991   */\n  dup3\n    /* \"#utility.yul\":7984:8005   */\n  or\n    /* \"#utility.yul\":7976:8005   */\n  swap1\n  pop\n    /* \"#utility.yul\":7716:8011   */\n  swap3\n  swap2\n  pop\n  pop\n  jump\t// out\n    /* \"#utility.yul\":8016:9411   */\ntag_7:\n    /* \"#utility.yul\":8133:8170   */\n  tag_155\n    /* \"#utility.yul\":8166:8169   */\n  dup3\n    /* \"#utility.yul\":8133:8170   */\n  tag_35\n  jump\t// in\ntag_155:\n    /* \"#utility.yul\":8235:8253   */\n  0xffffffffffffffff\n    /* \"#utility.yul\":8227:8233   */\n  dup2\n    /* \"#utility.yul\":8224:8254   */\n  gt\n    /* \"#utility.yul\":8221:8277   */\n  iszero\n  tag_156\n  jumpi\n    /* \"#utility.yul\":8257:8275   */\n  tag_157\n  tag_22\n  jump\t// in\ntag_157:\n    /* \"#utility.yul\":8221:8277   */\ntag_156:\n    /* \"#utility.yul\":8301:8339   */\n  tag_158\n    /* \"#utility.yul\":8333:8337   */\n  dup3\n    /* \"#utility.yul\":8327:8338   */\n  sload\n    /* \"#utility.yul\":8301:8339   */\n  tag_37\n  jump\t// in\ntag_158:\n    /* \"#utility.yul\":8386:8453   */\n  tag_159\n    /* \"#utility.yul\":8446:8452   */\n  dup3\n    /* \"#utility.yul\":8438:8444   */\n  dup3\n    /* \"#utility.yul\":8432:8436   */\n  dup6\n    /* \"#utility.yul\":8386:8453   */\n  tag_49\n  jump\t// in\ntag_159:\n    /* \"#utility.yul\":8480:8481   */\n  0x00\n    /* \"#utility.yul\":8504:8508   */\n  0x20\n    /* \"#utility.yul\":8491:8508   */\n  swap1\n  pop\n    /* \"#utility.yul\":8536:8538   */\n  0x1f\n    /* \"#utility.yul\":8528:8534   */\n  dup4\n    /* \"#utility.yul\":8525:8539   */\n  gt\n    /* \"#utility.yul\":8553:8554   */\n  0x01\n    /* \"#utility.yul\":8548:9166   */\n  dup2\n  eq\n  tag_161\n  jumpi\n    /* \"#utility.yul\":9210:9211   */\n  0x00\n    /* \"#utility.yul\":9227:9233   */\n  dup5\n    /* \"#utility.yul\":9224:9301   */\n  iszero\n  tag_162\n  jumpi\n    /* \"#utility.yul\":9276:9285   */\n  dup3\n    /* \"#utility.yul\":9271:9274   */\n  dup8\n    /* \"#utility.yul\":9267:9286   */\n  add\n    /* \"#utility.yul\":9261:9287   */\n  mload\n    /* \"#utility.yul\":9252:9287   */\n  swap1\n  pop\n    /* \"#utility.yul\":9224:9301   */\ntag_162:\n    /* \"#utility.yul\":9327:9394   */\n  tag_163\n    /* \"#utility.yul\":9387:9393   */\n  dup6\n    /* \"#utility.yul\":9380:9385   */\n  dup3\n    /* \"#utility.yul\":9327:9394   */\n  tag_52\n  jump\t// in\ntag_163:\n    /* \"#utility.yul\":9321:9325   */\n  dup7\n    /* \"#utility.yul\":9314:9395   */\n  sstore\n    /* \"#utility.yul\":9183:9405   */\n  pop\n    /* \"#utility.yul\":8518:9405   */\n  jump(tag_160)\n    /* \"#utility.yul\":8548:9166   */\ntag_161:\n    /* \"#utility.yul\":8600:8604   */\n  0x1f\n    /* \"#utility.yul\":8596:8605   */\n  not\n    /* \"#utility.yul\":8588:8594   */\n  dup5\n    /* \"#utility.yul\":8584:8606   */\n  and\n    /* \"#utility.yul\":8634:8671   */\n  tag_164\n    /* \"#utility.yul\":8666:8670   */\n  dup7\n    /* \"#utility.yul\":8634:8671   */\n  tag_38\n  jump\t// in\ntag_164:\n    /* \"#utility.yul\":8693:8694   */\n  0x00\n    /* \"#utility.yul\":8707:8915   */\ntag_165:\n    /* \"#utility.yul\":8721:8728   */\n  dup3\n    /* \"#utility.yul\":8718:8719   */\n  dup2\n    /* \"#utility.yul\":8715:8729   */\n  lt\n    /* \"#utility.yul\":8707:8915   */\n  iszero\n  tag_167\n  jumpi\n    /* \"#utility.yul\":8800:8809   */\n  dup5\n    /* \"#utility.yul\":8795:8798   */\n  dup10\n    /* \"#utility.yul\":8791:8810   */\n  add\n    /* \"#utility.yul\":8785:8811   */\n  mload\n    /* \"#utility.yul\":8777:8783   */\n  dup3\n    /* \"#utility.yul\":8770:8812   */\n  sstore\n    /* \"#utility.yul\":8851:8852   */\n  0x01\n    /* \"#utility.yul\":8843:8849   */\n  dup3\n    /* \"#utility.yul\":8839:8853   */\n  add\n    /* \"#utility.yul\":8829:8853   */\n  swap2\n  pop\n    /* \"#utility.yul\":8898:8900   */\n  0x20\n    /* \"#utility.yul\":8887:8896   */\n  dup6\n    /* \"#utility.yul\":8883:8901   */\n  add\n    /* \"#utility.yul\":8870:8901   */\n  swap5\n  pop\n    /* \"#utility.yul\":8744:8748   */\n  0x20\n    /* \"#utility.yul\":8741:8742   */\n  dup2\n    /* \"#utility.yul\":8737:8749   */\n  add\n    /* \"#utility.yul\":8732:8749   */\n  swap1\n  pop\n    /* \"#utility.yul\":8707:8915   */\n  jump(tag_165)\ntag_167:\n    /* \"#utility.yul\":8943:8949   */\n  dup7\n    /* \"#utility.yul\":8934:8941   */\n  dup4\n    /* \"#utility.yul\":8931:8950   */\n  lt\n    /* \"#utility.yul\":8928:9107   */\n  iszero\n  tag_168\n  jumpi\n    /* \"#utility.yul\":9001:9010   */\n  dup5\n    /* \"#utility.yul\":8996:8999   */\n  dup10\n    /* \"#utility.yul\":8992:9011   */\n  add\n    /* \"#utility.yul\":8986:9012   */\n  mload\n    /* \"#utility.yul\":9044:9092   */\n  tag_169\n    /* \"#utility.yul\":9086:9090   */\n  0x1f\n    /* \"#utility.yul\":9078:9084   */\n  dup10\n    /* \"#utility.yul\":9074:9091   */\n  and\n    /* \"#utility.yul\":9063:9072   */\n  dup3\n    /* \"#utility.yul\":9044:9092   */\n  tag_51\n  jump\t// in\ntag_169:\n    /* \"#utility.yul\":9036:9042   */\n  dup4\n    /* \"#utility.yul\":9029:9093   */\n  sstore\n    /* \"#utility.yul\":8951:9107   */\n  pop\n    /* \"#utility.yul\":8928:9107   */\ntag_168:\n    /* \"#utility.yul\":9153:9154   */\n  0x01\n    /* \"#utility.yul\":9149:9150   */\n  0x02\n    /* \"#utility.yul\":9141:9147   */\n  dup9\n    /* \"#utility.yul\":9137:9151   */\n  mul\n    /* \"#utility.yul\":9133:9155   */\n  add\n    /* \"#utility.yul\":9127:9131   */\n  dup9\n    /* \"#utility.yul\":9120:9156   */\n  sstore\n    /* \"#utility.yul\":8555:9166   */\n  pop\n  pop\n  pop\n    /* \"#utility.yul\":8518:9405   */\ntag_160:\n  pop\n    /* \"#utility.yul\":8108:9411   */\n  pop\n  pop\n  pop\n    /* \"#utility.yul\":8016:9411   */\n  pop\n  pop\n  jump\t// out\n    /* \"#utility.yul\":9417:9597   */\ntag_53:\n    /* \"#utility.yul\":9465:9542   */\n  0x4e487b7100000000000000000000000000000000000000000000000000000000\n    /* \"#utility.yul\":9462:9463   */\n  0x00\n    /* \"#utility.yul\":9455:9543   */\n  mstore\n    /* \"#utility.yul\":9562:9566   */\n  0x11\n    /* \"#utility.yul\":9559:9560   */\n  0x04\n    /* \"#utility.yul\":9552:9567   */\n  mstore\n    /* \"#utility.yul\":9586:9590   */\n  0x24\n    /* \"#utility.yul\":9583:9584   */\n  0x00\n    /* \"#utility.yul\":9576:9591   */\n  revert\n    /* \"#utility.yul\":9603:9705   */\ntag_54:\n    /* \"#utility.yul\":9645:9653   */\n  0x00\n    /* \"#utility.yul\":9692:9697   */\n  dup2\n    /* \"#utility.yul\":9689:9690   */\n  0x01\n    /* \"#utility.yul\":9685:9698   */\n  shr\n    /* \"#utility.yul\":9664:9698   */\n  swap1\n  pop\n    /* \"#utility.yul\":9603:9705   */\n  swap2\n  swap1\n  pop\n  jump\t// out\n    /* \"#utility.yul\":9711:10559   */\ntag_55:\n    /* \"#utility.yul\":9772:9777   */\n  0x00\n    /* \"#utility.yul\":9779:9783   */\n  0x00\n    /* \"#utility.yul\":9803:9809   */\n  dup3\n    /* \"#utility.yul\":9794:9809   */\n  swap2\n  pop\n    /* \"#utility.yul\":9827:9832   */\n  dup4\n    /* \"#utility.yul\":9818:9832   */\n  swap1\n  pop\n    /* \"#utility.yul\":9841:10553   */\ntag_173:\n    /* \"#utility.yul\":9862:9863   */\n  0x01\n    /* \"#utility.yul\":9852:9860   */\n  dup6\n    /* \"#utility.yul\":9849:9864   */\n  gt\n    /* \"#utility.yul\":9841:10553   */\n  iszero\n  tag_175\n  jumpi\n    /* \"#utility.yul\":9957:9961   */\n  dup1\n    /* \"#utility.yul\":9952:9955   */\n  dup7\n    /* \"#utility.yul\":9948:9962   */\n  div\n    /* \"#utility.yul\":9942:9946   */\n  dup2\n    /* \"#utility.yul\":9939:9963   */\n  gt\n    /* \"#utility.yul\":9936:9986   */\n  iszero\n  tag_176\n  jumpi\n    /* \"#utility.yul\":9966:9984   */\n  tag_177\n  tag_53\n  jump\t// in\ntag_177:\n    /* \"#utility.yul\":9936:9986   */\ntag_176:\n    /* \"#utility.yul\":10016:10017   */\n  0x01\n    /* \"#utility.yul\":10006:10014   */\n  dup6\n    /* \"#utility.yul\":10002:10018   */\n  and\n    /* \"#utility.yul\":9999:10450   */\n  iszero\n  tag_178\n  jumpi\n    /* \"#utility.yul\":10431:10435   */\n  dup1\n    /* \"#utility.yul\":10424:10429   */\n  dup3\n    /* \"#utility.yul\":10420:10436   */\n  mul\n    /* \"#utility.yul\":10411:10436   */\n  swap2\n  pop\n    /* \"#utility.yul\":9999:10450   */\ntag_178:\n    /* \"#utility.yul\":10481:10485   */\n  dup1\n    /* \"#utility.yul\":10475:10479   */\n  dup2\n    /* \"#utility.yul\":10471:10486   */\n  mul\n    /* \"#utility.yul\":10463:10486   */\n  swap1\n  pop\n    /* \"#utility.yul\":10511:10543   */\n  tag_179\n    /* \"#utility.yul\":10534:10542   */\n  dup6\n    /* \"#utility.yul\":10511:10543   */\n  tag_54\n  jump\t// in\ntag_179:\n    /* \"#utility.yul\":10499:10543   */\n  swap5\n  pop\n    /* \"#utility.yul\":9841:10553   */\n  jump(tag_173)\ntag_175:\n    /* \"#utility.yul\":9711:10559   */\n  swap5\n  pop\n  swap5\n  swap3\n  pop\n  pop\n  pop\n  jump\t// out\n    /* \"#utility.yul\":10565:11638   */\ntag_56:\n    /* \"#utility.yul\":10619:10624   */\n  0x00\n    /* \"#utility.yul\":10810:10818   */\n  dup3\n    /* \"#utility.yul\":10800:10840   */\n  tag_181\n  jumpi\n    /* \"#utility.yul\":10831:10832   */\n  0x01\n    /* \"#utility.yul\":10822:10832   */\n  swap1\n  pop\n    /* \"#utility.yul\":10833:10838   */\n  jump(tag_180)\n    /* \"#utility.yul\":10800:10840   */\ntag_181:\n    /* \"#utility.yul\":10859:10863   */\n  dup2\n    /* \"#utility.yul\":10849:10885   */\n  tag_182\n  jumpi\n    /* \"#utility.yul\":10876:10877   */\n  0x00\n    /* \"#utility.yul\":10867:10877   */\n  swap1\n  pop\n    /* \"#utility.yul\":10878:10883   */\n  jump(tag_180)\n    /* \"#utility.yul\":10849:10885   */\ntag_182:\n    /* \"#utility.yul\":10945:10949   */\n  dup2\n    /* \"#utility.yul\":10993:10994   */\n  0x01\n    /* \"#utility.yul\":10988:11015   */\n  dup2\n  eq\n  tag_184\n  jumpi\n    /* \"#utility.yul\":11029:11030   */\n  0x02\n    /* \"#utility.yul\":11024:11215   */\n  dup2\n  eq\n  tag_185\n  jumpi\n    /* \"#utility.yul\":10938:11215   */\n  jump(tag_183)\n    /* \"#utility.yul\":10988:11015   */\ntag_184:\n    /* \"#utility.yul\":11006:11007   */\n  0x01\n    /* \"#utility.yul\":10997:11007   */\n  swap2\n  pop\n    /* \"#utility.yul\":11008:11013   */\n  pop\n  jump(tag_180)\n    /* \"#utility.yul\":11024:11215   */\ntag_185:\n    /* \"#utility.yul\":11069:11072   */\n  0xff\n    /* \"#utility.yul\":11059:11067   */\n  dup5\n    /* \"#utility.yul\":11056:11073   */\n  gt\n    /* \"#utility.yul\":11053:11096   */\n  iszero\n  tag_186\n  jumpi\n    /* \"#utility.yul\":11076:11094   */\n  tag_187\n  tag_53\n  jump\t// in\ntag_187:\n    /* \"#utility.yul\":11053:11096   */\ntag_186:\n    /* \"#utility.yul\":11125:11133   */\n  dup4\n    /* \"#utility.yul\":11122:11123   */\n  0x02\n    /* \"#utility.yul\":11118:11134   */\n  exp\n    /* \"#utility.yul\":11109:11134   */\n  swap2\n  pop\n    /* \"#utility.yul\":11160:11163   */\n  dup5\n    /* \"#utility.yul\":11153:11158   */\n  dup3\n    /* \"#utility.yul\":11150:11164   */\n  gt\n    /* \"#utility.yul\":11147:11187   */\n  iszero\n  tag_188\n  jumpi\n    /* \"#utility.yul\":11167:11185   */\n  tag_189\n  tag_53\n  jump\t// in\ntag_189:\n    /* \"#utility.yul\":11147:11187   */\ntag_188:\n    /* \"#utility.yul\":11200:11205   */\n  pop\n  jump(tag_180)\n    /* \"#utility.yul\":10938:11215   */\ntag_183:\n  pop\n    /* \"#utility.yul\":11324:11326   */\n  0x20\n    /* \"#utility.yul\":11314:11322   */\n  dup4\n    /* \"#utility.yul\":11311:11327   */\n  lt\n    /* \"#utility.yul\":11305:11308   */\n  0x0133\n    /* \"#utility.yul\":11299:11303   */\n  dup4\n    /* \"#utility.yul\":11296:11309   */\n  lt\n    /* \"#utility.yul\":11292:11328   */\n  and\n    /* \"#utility.yul\":11274:11276   */\n  0x4e\n    /* \"#utility.yul\":11264:11272   */\n  dup5\n    /* \"#utility.yul\":11261:11277   */\n  lt\n    /* \"#utility.yul\":11256:11258   */\n  0x0b\n    /* \"#utility.yul\":11250:11254   */\n  dup5\n    /* \"#utility.yul\":11247:11259   */\n  lt\n    /* \"#utility.yul\":11243:11278   */\n  and\n    /* \"#utility.yul\":11227:11338   */\n  or\n    /* \"#utility.yul\":11224:11470   */\n  iszero\n  tag_190\n  jumpi\n    /* \"#utility.yul\":11380:11388   */\n  dup3\n    /* \"#utility.yul\":11374:11378   */\n  dup3\n    /* \"#utility.yul\":11370:11389   */\n  exp\n    /* \"#utility.yul\":11361:11389   */\n  swap1\n  pop\n    /* \"#utility.yul\":11415:11418   */\n  dup4\n    /* \"#utility.yul\":11408:11413   */\n  dup2\n    /* \"#utility.yul\":11405:11419   */\n  gt\n    /* \"#utility.yul\":11402:11442   */\n  iszero\n  tag_191\n  jumpi\n    /* \"#utility.yul\":11422:11440   */\n  tag_192\n  tag_53\n  jump\t// in\ntag_192:\n    /* \"#utility.yul\":11402:11442   */\ntag_191:\n    /* \"#utility.yul\":11455:11460   */\n  jump(tag_180)\n    /* \"#utility.yul\":11224:11470   */\ntag_190:\n    /* \"#utility.yul\":11495:11537   */\n  tag_193\n    /* \"#utility.yul\":11533:11536   */\n  dup5\n    /* \"#utility.yul\":11523:11531   */\n  dup5\n    /* \"#utility.yul\":11517:11521   */\n  dup5\n    /* \"#utility.yul\":11514:11515   */\n  0x01\n    /* \"#utility.yul\":11495:11537   */\n  tag_55\n  jump\t// in\ntag_193:\n    /* \"#utility.yul\":11480:11537   */\n  swap3\n  pop\n  swap1\n  pop\n    /* \"#utility.yul\":11569:11573   */\n  dup2\n    /* \"#utility.yul\":11564:11567   */\n  dup5\n    /* \"#utility.yul\":11560:11574   */\n  div\n    /* \"#utility.yul\":11553:11558   */\n  dup2\n    /* \"#utility.yul\":11550:11575   */\n  gt\n    /* \"#utility.yul\":11547:11598   */\n  iszero\n  tag_194\n  jumpi\n    /* \"#utility.yul\":11578:11596   */\n  tag_195\n  tag_53\n  jump\t// in\ntag_195:\n    /* \"#utility.yul\":11547:11598   */\ntag_194:\n    /* \"#utility.yul\":11627:11631   */\n  dup2\n    /* \"#utility.yul\":11620:11625   */\n  dup2\n    /* \"#utility.yul\":11616:11632   */\n  mul\n    /* \"#utility.yul\":11607:11632   */\n  swap1\n  pop\n    /* \"#utility.yul\":10565:11638   */\ntag_180:\n  swap4\n  swap3\n  pop\n  pop\n  pop\n  jump\t// out\n    /* \"#utility.yul\":11644:11925   */\ntag_10:\n    /* \"#utility.yul\":11702:11707   */\n  0x00\n    /* \"#utility.yul\":11726:11749   */\n  tag_197\n    /* \"#utility.yul\":11744:11748   */\n  dup3\n    /* \"#utility.yul\":11726:11749   */\n  tag_32\n  jump\t// in\ntag_197:\n    /* \"#utility.yul\":11718:11749   */\n  swap2\n  pop\n    /* \"#utility.yul\":11770:11795   */\n  tag_198\n    /* \"#utility.yul\":11786:11794   */\n  dup4\n    /* \"#utility.yul\":11770:11795   */\n  tag_29\n  jump\t// in\ntag_198:\n    /* \"#utility.yul\":11758:11795   */\n  swap3\n  pop\n    /* \"#utility.yul\":11814:11918   */\n  tag_199\n    /* \"#utility.yul\":11851:11917   */\n  0xffffffffffffffffffffffffffffffffffffffffffffffffffffffffffffffff\n    /* \"#utility.yul\":11841:11849   */\n  dup5\n    /* \"#utility.yul\":11835:11839   */\n  dup5\n    /* \"#utility.yul\":11814:11918   */\n  tag_56\n  jump\t// in\ntag_199:\n    /* \"#utility.yul\":11805:11918   */\n  swap1\n  pop\n    /* \"#utility.yul\":11644:11925   */\n  swap3\n  swap2\n  pop\n  pop\n  jump\t// out\n    /* \"#utility.yul\":11931:12341   */\ntag_12:\n    /* \"#utility.yul\":11971:11978   */\n  0x00\n    /* \"#utility.yul\":11994:12014   */\n  tag_201\n    /* \"#utility.yul\":12012:12013   */\n  dup3\n    /* \"#utility.yul\":11994:12014   */\n  tag_32\n  jump\t// in\ntag_201:\n    /* \"#utility.yul\":11989:12014   */\n  swap2\n  pop\n    /* \"#utility.yul\":12028:12048   */\n  tag_202\n    /* \"#utility.yul\":12046:12047   */\n  dup4\n    /* \"#utility.yul\":12028:12048   */\n  tag_32\n  jump\t// in\ntag_202:\n    /* \"#utility.yul\":12023:12048   */\n  swap3\n  pop\n    /* \"#utility.yul\":12083:12084   */\n  dup3\n    /* \"#utility.yul\":12080:12081   */\n  dup3\n    /* \"#utility.yul\":12076:12085   */\n  mul\n    /* \"#utility.yul\":12105:12135   */\n  tag_203\n    /* \"#utility.yul\":12123:12134   */\n  dup2\n    /* \"#utility.yul\":12105:12135   */\n  tag_32\n  jump\t// in\ntag_203:\n    /* \"#utility.yul\":12094:12135   */\n  swap2\n  pop\n    /* \"#utility.yul\":12284:12285   */\n  dup3\n    /* \"#utility.yul\":12275:12282   */\n  dup3\n    /* \"#utility.yul\":12271:12286   */\n  div\n    /* \"#utility.yul\":12268:12269   */\n  dup5\n    /* \"#utility.yul\":12265:12287   */\n  eq\n    /* \"#utility.yul\":12245:12246   */\n  dup4\n    /* \"#utility.yul\":12238:12247   */\n  iszero\n    /* \"#utility.yul\":12218:12301   */\n  or\n    /* \"#utility.yul\":12195:12334   */\n  tag_204\n  jumpi\n    /* \"#utility.yul\":12314:12332   */\n  tag_205\n  tag_53\n  jump\t// in\ntag_205:\n    /* \"#utility.yul\":12195:12334   */\ntag_204:\n    /* \"#utility.yul\":11979:12341   */\n  pop\n    /* \"#utility.yul\":11931:12341   */\n  swap3\n  swap2\n  pop\n  pop\n  jump\t// out\n    /* \"#utility.yul\":12347:12465   */\ntag_57:\n    /* \"#utility.yul\":12434:12458   */\n  tag_207\n    /* \"#utility.yul\":12452:12457   */\n  dup2\n    /* \"#utility.yul\":12434:12458   */\n  tag_32\n  jump\t// in\ntag_207:\n    /* \"#utility.yul\":12429:12432   */\n  dup3\n    /* \"#utility.yul\":12422:12459   */\n  mstore\n    /* \"#utility.yul\":12347:12465   */\n  pop\n  pop\n  jump\t// out\n    /* \"#utility.yul\":12471:12693   */\ntag_14:\n    /* \"#utility.yul\":12564:12568   */\n  0x00\n    /* \"#utility.yul\":12602:12604   */\n  0x20\n    /* \"#utility.yul\":12591:12600   */\n  dup3\n    /* \"#utility.yul\":12587:12605   */\n  add\n    /* \"#utility.yul\":12579:12605   */\n  swap1\n  pop\n    /* \"#utility.yul\":12615:12686   */\n  tag_209\n    /* \"#utility.yul\":12683:12684   */\n  0x00\n    /* \"#utility.yul\":12672:12681   */\n  dup4\n    /* \"#utility.yul\":12668:12685   */\n  add\n    /* \"#utility.yul\":12659:12665   */\n  dup5\n    /* \"#utility.yul\":12615:12686   */\n  tag_57\n  jump\t// in\ntag_209:\n    /* \"#utility.yul\":12471:12693   */\n  swap3\n  swap2\n  pop\n  pop\n  jump\t// out\n    /* \"Tokens/TimeLockTokenWithVesting.sol\":61:6652  contract TimeLockToken {... */\ntag_15:\n  dataSize(sub_0)\n  dup1\n  dataOffset(sub_0)\n  0x00\n  codecopy\n  0x00\n  return\nstop\n\nsub_0: assembly {\n        /* \"Tokens/TimeLockTokenWithVesting.sol\":61:6652  contract TimeLockToken {... */\n      mstore(0x40, 0x80)\n      callvalue\n      dup1\n      iszero\n      tag_1\n      jumpi\n      revert(0x00, 0x00)\n    tag_1:\n      pop\n      jumpi(tag_2, lt(calldatasize, 0x04))\n      shr(0xe0, calldataload(0x00))\n      dup1\n      0x8da5cb5b\n      gt\n      tag_22\n      jumpi\n      dup1\n      0xcb67f948\n      gt\n      tag_23\n      jumpi\n      dup1\n      0xcb67f948\n      eq\n      tag_17\n      jumpi\n      dup1\n      0xd2503485\n      eq\n      tag_18\n      jumpi\n      dup1\n      0xd8fb9337\n      eq\n      tag_19\n      jumpi\n      dup1\n      0xdd62ed3e\n      eq\n      tag_20\n      jumpi\n      dup1\n      0xfa110af0\n      eq\n      tag_21\n      jumpi\n      jump(tag_2)\n    tag_23:\n      dup1\n      0x8da5cb5b\n      eq\n      tag_12\n      jumpi\n      dup1\n      0x95d89b41\n      eq\n      tag_13\n      jumpi\n      dup1\n      0xa25983e5\n      eq\n      tag_14\n      jumpi\n      dup1\n      0xa9059cbb\n      eq\n      tag_15\n      jumpi\n      dup1\n      0xaa377d88\n      eq\n      tag_16\n      jumpi\n      jump(tag_2)\n    tag_22:\n      dup1\n      0x18160ddd\n      gt\n      tag_24\n      jumpi\n      dup1\n      0x18160ddd\n      eq\n      tag_7\n      jumpi\n      dup1\n      0x23b872dd\n      eq\n      tag_8\n      jumpi\n      dup1\n      0x313ce567\n      eq\n      tag_9\n      jumpi\n      dup1\n      0x5d16a6f9\n      eq\n      tag_10\n      jumpi\n      dup1\n      0x70a08231\n      eq\n      tag_11\n      jumpi\n      jump(tag_2)\n    tag_24:\n      dup1\n      0x06fdde03\n      eq\n      tag_3\n      jumpi\n      dup1\n      0x095ea7b3\n      eq\n      tag_4\n      jumpi\n      dup1\n      0x129de5bf\n      eq\n      tag_5\n      jumpi\n      dup1\n      0x15056b54\n      eq\n      tag_6\n      jumpi\n    tag_2:\n      revert(0x00, 0x00)\n        /* \"Tokens/TimeLockTokenWithVesting.sol\":138:156  string public name */\n    tag_3:\n      tag_25\n      tag_26\n      jump\t// in\n    tag_25:\n      mload(0x40)\n      tag_27\n      swap2\n      swap1\n      tag_28\n      jump\t// in\n    tag_27:\n      mload(0x40)\n      dup1\n      swap2\n      sub\n      swap1\n      return\n        /* \"Tokens/TimeLockTokenWithVesting.sol\":2896:3046  function approve(address spender, uint256 amount) public returns (bool) {... */\n    tag_4:\n      tag_29\n      0x04\n      dup1\n      calldatasize\n      sub\n      dup2\n      add\n      swap1\n      tag_30\n      swap2\n      swap1\n      tag_31\n      jump\t// in\n    tag_30:\n      tag_32\n      jump\t// in\n    tag_29:\n      mload(0x40)\n      tag_33\n      swap2\n      swap1\n      tag_34\n      jump\t// in\n    tag_33:\n      mload(0x40)\n      dup1\n      swap2\n      sub\n      swap1\n      return\n        /* \"Tokens/TimeLockTokenWithVesting.sol\":4931:5064  function getUnlockedBalance(address user) public view returns (uint256) {... */\n    tag_5:\n      tag_35\n      0x04\n      dup1\n      calldatasize\n      sub\n      dup2\n      add\n      swap1\n      tag_36\n      swap2\n      swap1\n      tag_37\n      jump\t// in\n    tag_36:\n      tag_38\n      jump\t// in\n    tag_35:\n      mload(0x40)\n      tag_39\n      swap2\n      swap1\n      tag_40\n      jump\t// in\n    tag_39:\n      mload(0x40)\n      dup1\n      swap2\n      sub\n      swap1\n      return\n        /* \"Tokens/TimeLockTokenWithVesting.sol\":5118:5247  function getLockDetails(address user) public view returns (LockedBalance[] memory) {... */\n    tag_6:\n      tag_41\n      0x04\n      dup1\n      calldatasize\n      sub\n      dup2\n      add\n      swap1\n      tag_42\n      swap2\n      swap1\n      tag_37\n      jump\t// in\n    tag_42:\n      tag_43\n      jump\t// in\n    tag_41:\n      mload(0x40)\n      tag_44\n      swap2\n      swap1\n      tag_45\n      jump\t// in\n    tag_44:\n      mload(0x40)\n      dup1\n      swap2\n      sub\n      swap1\n      return\n        /* \"Tokens/TimeLockTokenWithVesting.sol\":218:244  uint256 public totalSupply */\n    tag_7:\n      tag_46\n      tag_47\n      jump\t// in\n    tag_46:\n      mload(0x40)\n      tag_48\n      swap2\n      swap1\n      tag_40\n      jump\t// in\n    tag_48:\n      mload(0x40)\n      dup1\n      swap2\n      sub\n      swap1\n      return\n        /* \"Tokens/TimeLockTokenWithVesting.sol\":3119:3412  function transferFrom(address from, address to, uint256 amount) public returns (bool) {... */\n    tag_8:\n      tag_49\n      0x04\n      dup1\n      calldatasize\n      sub\n      dup2\n      add\n      swap1\n      tag_50\n      swap2\n      swap1\n      tag_51\n      jump\t// in\n    tag_50:\n      tag_52\n      jump\t// in\n    tag_49:\n      mload(0x40)\n      tag_53\n      swap2\n      swap1\n      tag_34\n      jump\t// in\n    tag_53:\n      mload(0x40)\n      dup1\n      swap2\n      sub\n      swap1\n      return\n        /* \"Tokens/TimeLockTokenWithVesting.sol\":190:211  uint8 public decimals */\n    tag_9:\n      tag_54\n      tag_55\n      jump\t// in\n    tag_54:\n      mload(0x40)\n      tag_56\n      swap2\n      swap1\n      tag_57\n      jump\t// in\n    tag_56:\n      mload(0x40)\n      dup1\n      swap2\n      sub\n      swap1\n      return\n        /* \"Tokens/TimeLockTokenWithVesting.sol\":421:478  mapping(address => LockedBalance[]) public lockedBalances */\n    tag_10:\n      tag_58\n      0x04\n      dup1\n      calldatasize\n      sub\n      dup2\n      add\n      swap1\n      tag_59\n      swap2\n      swap1\n      tag_31\n      jump\t// in\n    tag_59:\n      tag_60\n      jump\t// in\n    tag_58:\n      mload(0x40)\n      tag_61\n      swap3\n      swap2\n      swap1\n      tag_62\n      jump\t// in\n    tag_61:\n      mload(0x40)\n      dup1\n      swap2\n      sub\n      swap1\n      return\n        /* \"Tokens/TimeLockTokenWithVesting.sol\":2322:2432  function balanceOf(address account) public view returns (uint256) {... */\n    tag_11:\n      tag_63\n      0x04\n      dup1\n      calldatasize\n      sub\n      dup2\n      add\n      swap1\n      tag_64\n      swap2\n      swap1\n      tag_37\n      jump\t// in\n    tag_64:\n      tag_65\n      jump\t// in\n    tag_63:\n      mload(0x40)\n      tag_66\n      swap2\n      swap1\n      tag_40\n      jump\t// in\n    tag_66:\n      mload(0x40)\n      dup1\n      swap2\n      sub\n      swap1\n      return\n        /* \"Tokens/TimeLockTokenWithVesting.sol\":567:587  address public owner */\n    tag_12:\n      tag_67\n      tag_68\n      jump\t// in\n    tag_67:\n      mload(0x40)\n      tag_69\n      swap2\n      swap1\n      tag_70\n      jump\t// in\n    tag_69:\n      mload(0x40)\n      dup1\n      swap2\n      sub\n      swap1\n      return\n        /* \"Tokens/TimeLockTokenWithVesting.sol\":163:183  string public symbol */\n    tag_13:\n      tag_71\n      tag_72\n      jump\t// in\n    tag_71:\n      mload(0x40)\n      tag_73\n      swap2\n      swap1\n      tag_28\n      jump\t// in\n    tag_73:\n      mload(0x40)\n      dup1\n      swap2\n      sub\n      swap1\n      return\n        /* \"Tokens/TimeLockTokenWithVesting.sol\":3510:4153  function lockTokens(address user, uint256 amount, uint256 unlockTime) ... */\n    tag_14:\n      tag_74\n      0x04\n      dup1\n      calldatasize\n      sub\n      dup2\n      add\n      swap1\n      tag_75\n      swap2\n      swap1\n      tag_76\n      jump\t// in\n    tag_75:\n      tag_77\n      jump\t// in\n    tag_74:\n      stop\n        /* \"Tokens/TimeLockTokenWithVesting.sol\":2501:2736  function transfer(address to, uint256 amount) public returns (bool) {... */\n    tag_15:\n      tag_78\n      0x04\n      dup1\n      calldatasize\n      sub\n      dup2\n      add\n      swap1\n      tag_79\n      swap2\n      swap1\n      tag_31\n      jump\t// in\n    tag_79:\n      tag_80\n      jump\t// in\n    tag_78:\n      mload(0x40)\n      tag_81\n      swap2\n      swap1\n      tag_34\n      jump\t// in\n    tag_81:\n      mload(0x40)\n      dup1\n      swap2\n      sub\n      swap1\n      return\n        /* \"Tokens/TimeLockTokenWithVesting.sol\":594:638  mapping(address => bool) public lockManagers */\n    tag_16:\n      tag_82\n      0x04\n      dup1\n      calldatasize\n      sub\n      dup2\n      add\n      swap1\n      tag_83\n      swap2\n      swap1\n      tag_37\n      jump\t// in\n    tag_83:\n      tag_84\n      jump\t// in\n    tag_82:\n      mload(0x40)\n      tag_85\n      swap2\n      swap1\n      tag_34\n      jump\t// in\n    tag_85:\n      mload(0x40)\n      dup1\n      swap2\n      sub\n      swap1\n      return\n        /* \"Tokens/TimeLockTokenWithVesting.sol\":4222:4871  function unlockTokens(address user) public {... */\n    tag_17:\n      tag_86\n      0x04\n      dup1\n      calldatasize\n      sub\n      dup2\n      add\n      swap1\n      tag_87\n      swap2\n      swap1\n      tag_37\n      jump\t// in\n    tag_87:\n      tag_88\n      jump\t// in\n    tag_86:\n      stop\n        /* \"Tokens/TimeLockTokenWithVesting.sol\":5290:5466  function addLockManager(address account) public onlyOwner validAddress(account) {... */\n    tag_18:\n      tag_89\n      0x04\n      dup1\n      calldatasize\n      sub\n      dup2\n      add\n      swap1\n      tag_90\n      swap2\n      swap1\n      tag_37\n      jump\t// in\n    tag_90:\n      tag_91\n      jump\t// in\n    tag_89:\n      stop\n        /* \"Tokens/TimeLockTokenWithVesting.sol\":485:531  mapping(address => uint256) public totalLocked */\n    tag_19:\n      tag_92\n      0x04\n      dup1\n      calldatasize\n      sub\n      dup2\n      add\n      swap1\n      tag_93\n      swap2\n      swap1\n      tag_37\n      jump\t// in\n    tag_93:\n      tag_94\n      jump\t// in\n    tag_92:\n      mload(0x40)\n      tag_95\n      swap2\n      swap1\n      tag_40\n      jump\t// in\n    tag_95:\n      mload(0x40)\n      dup1\n      swap2\n      sub\n      swap1\n      return\n        /* \"Tokens/TimeLockTokenWithVesting.sol\":2748:2884  function allowance(address owner0, address spender) public view returns (uint256) {... */\n    tag_20:\n      tag_96\n      0x04\n      dup1\n      calldatasize\n      sub\n      dup2\n      add\n      swap1\n      tag_97\n      swap2\n      swap1\n      tag_98\n      jump\t// in\n    tag_97:\n      tag_99\n      jump\t// in\n    tag_96:\n      mload(0x40)\n      tag_100\n      swap2\n      swap1\n      tag_40\n      jump\t// in\n    tag_100:\n      mload(0x40)\n      dup1\n      swap2\n      sub\n      swap1\n      return\n        /* \"Tokens/TimeLockTokenWithVesting.sol\":5478:5659  function removeLockManager(address account) public onlyOwner validAddress(account) {... */\n    tag_21:\n      tag_101\n      0x04\n      dup1\n      calldatasize\n      sub\n      dup2\n      add\n      swap1\n      tag_102\n      swap2\n      swap1\n      tag_37\n      jump\t// in\n    tag_102:\n      tag_103\n      jump\t// in\n    tag_101:\n      stop\n        /* \"Tokens/TimeLockTokenWithVesting.sol\":138:156  string public name */\n    tag_26:\n      0x00\n      dup1\n      sload\n      tag_104\n      swap1\n      tag_105\n      jump\t// in\n    tag_104:\n      dup1\n      0x1f\n      add\n      0x20\n      dup1\n      swap2\n      div\n      mul\n      0x20\n      add\n      mload(0x40)\n      swap1\n      dup2\n      add\n      0x40\n      mstore\n      dup1\n      swap3\n      swap2\n      swap1\n      dup2\n      dup2\n      mstore\n      0x20\n      add\n      dup3\n      dup1\n      sload\n      tag_106\n      swap1\n      tag_105\n      jump\t// in\n    tag_106:\n      dup1\n      iszero\n      tag_107\n      jumpi\n      dup1\n      0x1f\n      lt\n      tag_108\n      jumpi\n      0x0100\n      dup1\n      dup4\n      sload\n      div\n      mul\n      dup4\n      mstore\n      swap2\n      0x20\n      add\n      swap2\n      jump(tag_107)\n    tag_108:\n      dup3\n      add\n      swap2\n      swap1\n      0x00\n      mstore\n      keccak256(0x00, 0x20)\n      swap1\n    tag_109:\n      dup2\n      sload\n      dup2\n      mstore\n      swap1\n      0x01\n      add\n      swap1\n      0x20\n      add\n      dup1\n      dup4\n      gt\n      tag_109\n      jumpi\n      dup3\n      swap1\n      sub\n      0x1f\n      and\n      dup3\n      add\n      swap2\n    tag_107:\n      pop\n      pop\n      pop\n      pop\n      pop\n      dup2\n      jump\t// out\n        /* \"Tokens/TimeLockTokenWithVesting.sol\":2896:3046  function approve(address spender, uint256 amount) public returns (bool) {... */\n    tag_32:\n        /* \"Tokens/TimeLockTokenWithVesting.sol\":2962:2966  bool */\n      0x00\n        /* \"Tokens/TimeLockTokenWithVesting.sol\":2979:3016  _approve(msg.sender, spender, amount) */\n      tag_111\n        /* \"Tokens/TimeLockTokenWithVesting.sol\":2988:2998  msg.sender */\n      caller\n        /* \"Tokens/TimeLockTokenWithVesting.sol\":3000:3007  spender */\n      dup5\n        /* \"Tokens/TimeLockTokenWithVesting.sol\":3009:3015  amount */\n      dup5\n        /* \"Tokens/TimeLockTokenWithVesting.sol\":2979:2987  _approve */\n      tag_112\n        /* \"Tokens/TimeLockTokenWithVesting.sol\":2979:3016  _approve(msg.sender, spender, amount) */\n      jump\t// in\n    tag_111:\n        /* \"Tokens/TimeLockTokenWithVesting.sol\":3034:3038  true */\n      0x01\n        /* \"Tokens/TimeLockTokenWithVesting.sol\":3027:3038  return true */\n      swap1\n      pop\n        /* \"Tokens/TimeLockTokenWithVesting.sol\":2896:3046  function approve(address spender, uint256 amount) public returns (bool) {... */\n      swap3\n      swap2\n      pop\n      pop\n      jump\t// out\n        /* \"Tokens/TimeLockTokenWithVesting.sol\":4931:5064  function getUnlockedBalance(address user) public view returns (uint256) {... */\n    tag_38:\n        /* \"Tokens/TimeLockTokenWithVesting.sol\":4994:5001  uint256 */\n      0x00\n        /* \"Tokens/TimeLockTokenWithVesting.sol\":5039:5050  totalLocked */\n      0x07\n        /* \"Tokens/TimeLockTokenWithVesting.sol\":5039:5056  totalLocked[user] */\n      0x00\n        /* \"Tokens/TimeLockTokenWithVesting.sol\":5051:5055  user */\n      dup4\n        /* \"Tokens/TimeLockTokenWithVesting.sol\":5039:5056  totalLocked[user] */\n      0xffffffffffffffffffffffffffffffffffffffff\n      and\n      0xffffffffffffffffffffffffffffffffffffffff\n      and\n      dup2\n      mstore\n      0x20\n      add\n      swap1\n      dup2\n      mstore\n      0x20\n      add\n      0x00\n      keccak256\n      sload\n        /* \"Tokens/TimeLockTokenWithVesting.sol\":5021:5030  _balances */\n      0x04\n        /* \"Tokens/TimeLockTokenWithVesting.sol\":5021:5036  _balances[user] */\n      0x00\n        /* \"Tokens/TimeLockTokenWithVesting.sol\":5031:5035  user */\n      dup5\n        /* \"Tokens/TimeLockTokenWithVesting.sol\":5021:5036  _balances[user] */\n      0xffffffffffffffffffffffffffffffffffffffff\n      and\n      0xffffffffffffffffffffffffffffffffffffffff\n      and\n      dup2\n      mstore\n      0x20\n      add\n      swap1\n      dup2\n      mstore\n      0x20\n      add\n      0x00\n      keccak256\n      sload\n        /* \"Tokens/TimeLockTokenWithVesting.sol\":5021:5056  _balances[user] - totalLocked[user] */\n      tag_114\n      swap2\n      swap1\n      tag_115\n      jump\t// in\n    tag_114:\n        /* \"Tokens/TimeLockTokenWithVesting.sol\":5014:5056  return _balances[user] - totalLocked[user] */\n      swap1\n      pop\n        /* \"Tokens/TimeLockTokenWithVesting.sol\":4931:5064  function getUnlockedBalance(address user) public view returns (uint256) {... */\n      swap2\n      swap1\n      pop\n      jump\t// out\n        /* \"Tokens/TimeLockTokenWithVesting.sol\":5118:5247  function getLockDetails(address user) public view returns (LockedBalance[] memory) {... */\n    tag_43:\n        /* \"Tokens/TimeLockTokenWithVesting.sol\":5177:5199  LockedBalance[] memory */\n      0x60\n        /* \"Tokens/TimeLockTokenWithVesting.sol\":5219:5233  lockedBalances */\n      0x06\n        /* \"Tokens/TimeLockTokenWithVesting.sol\":5219:5239  lockedBalances[user] */\n      0x00\n        /* \"Tokens/TimeLockTokenWithVesting.sol\":5234:5238  user */\n      dup4\n        /* \"Tokens/TimeLockTokenWithVesting.sol\":5219:5239  lockedBalances[user] */\n      0xffffffffffffffffffffffffffffffffffffffff\n      and\n      0xffffffffffffffffffffffffffffffffffffffff\n      and\n      dup2\n      mstore\n      0x20\n      add\n      swap1\n      dup2\n      mstore\n      0x20\n      add\n      0x00\n      keccak256\n        /* \"Tokens/TimeLockTokenWithVesting.sol\":5212:5239  return lockedBalances[user] */\n      dup1\n      sload\n      dup1\n      0x20\n      mul\n      0x20\n      add\n      mload(0x40)\n      swap1\n      dup2\n      add\n      0x40\n      mstore\n      dup1\n      swap3\n      swap2\n      swap1\n      dup2\n      dup2\n      mstore\n      0x20\n      add\n      0x00\n      swap1\n    tag_117:\n      dup3\n      dup3\n      lt\n      iszero\n      tag_118\n      jumpi\n      dup4\n      dup3\n      swap1\n      0x00\n      mstore\n      keccak256(0x00, 0x20)\n      swap1\n      0x02\n      mul\n      add\n      mload(0x40)\n      dup1\n      0x40\n      add\n      0x40\n      mstore\n      swap1\n      dup2\n      0x00\n      dup3\n      add\n      sload\n      dup2\n      mstore\n      0x20\n      add\n      0x01\n      dup3\n      add\n      sload\n      dup2\n      mstore\n      pop\n      pop\n      dup2\n      mstore\n      0x20\n      add\n      swap1\n      0x01\n      add\n      swap1\n      jump(tag_117)\n    tag_118:\n      pop\n      pop\n      pop\n      pop\n      swap1\n      pop\n        /* \"Tokens/TimeLockTokenWithVesting.sol\":5118:5247  function getLockDetails(address user) public view returns (LockedBalance[] memory) {... */\n      swap2\n      swap1\n      pop\n      jump\t// out\n        /* \"Tokens/TimeLockTokenWithVesting.sol\":218:244  uint256 public totalSupply */\n    tag_47:\n      sload(0x03)\n      dup2\n      jump\t// out\n        /* \"Tokens/TimeLockTokenWithVesting.sol\":3119:3412  function transferFrom(address from, address to, uint256 amount) public returns (bool) {... */\n    tag_52:\n        /* \"Tokens/TimeLockTokenWithVesting.sol\":3199:3203  bool */\n      0x00\n        /* \"Tokens/TimeLockTokenWithVesting.sol\":3252:3258  amount */\n      dup2\n        /* \"Tokens/TimeLockTokenWithVesting.sol\":3224:3248  getUnlockedBalance(from) */\n      tag_121\n        /* \"Tokens/TimeLockTokenWithVesting.sol\":3243:3247  from */\n      dup6\n        /* \"Tokens/TimeLockTokenWithVesting.sol\":3224:3242  getUnlockedBalance */\n      tag_38\n        /* \"Tokens/TimeLockTokenWithVesting.sol\":3224:3248  getUnlockedBalance(from) */\n      jump\t// in\n    tag_121:\n        /* \"Tokens/TimeLockTokenWithVesting.sol\":3224:3258  getUnlockedBalance(from) >= amount */\n      lt\n      iszero\n        /* \"Tokens/TimeLockTokenWithVesting.sol\":3216:3292  require(getUnlockedBalance(from) >= amount, \"Insufficient unlocked balance\") */\n      tag_122\n      jumpi\n      mload(0x40)\n      0x08c379a000000000000000000000000000000000000000000000000000000000\n      dup2\n      mstore\n      0x04\n      add\n      tag_123\n      swap1\n      tag_124\n      jump\t// in\n    tag_123:\n      mload(0x40)\n      dup1\n      swap2\n      sub\n      swap1\n      revert\n    tag_122:\n        /* \"Tokens/TimeLockTokenWithVesting.sol\":3303:3344  _spendAllowance(from, msg.sender, amount) */\n      tag_125\n        /* \"Tokens/TimeLockTokenWithVesting.sol\":3319:3323  from */\n      dup5\n        /* \"Tokens/TimeLockTokenWithVesting.sol\":3325:3335  msg.sender */\n      caller\n        /* \"Tokens/TimeLockTokenWithVesting.sol\":3337:3343  amount */\n      dup5\n        /* \"Tokens/TimeLockTokenWithVesting.sol\":3303:3318  _spendAllowance */\n      tag_126\n        /* \"Tokens/TimeLockTokenWithVesting.sol\":3303:3344  _spendAllowance(from, msg.sender, amount) */\n      jump\t// in\n    tag_125:\n        /* \"Tokens/TimeLockTokenWithVesting.sol\":3355:3382  _transfer(from, to, amount) */\n      tag_127\n        /* \"Tokens/TimeLockTokenWithVesting.sol\":3365:3369  from */\n      dup5\n        /* \"Tokens/TimeLockTokenWithVesting.sol\":3371:3373  to */\n      dup5\n        /* \"Tokens/TimeLockTokenWithVesting.sol\":3375:3381  amount */\n      dup5\n        /* \"Tokens/TimeLockTokenWithVesting.sol\":3355:3364  _transfer */\n      tag_128\n        /* \"Tokens/TimeLockTokenWithVesting.sol\":3355:3382  _transfer(from, to, amount) */\n      jump\t// in\n    tag_127:\n        /* \"Tokens/TimeLockTokenWithVesting.sol\":3400:3404  true */\n      0x01\n        /* \"Tokens/TimeLockTokenWithVesting.sol\":3393:3404  return true */\n      swap1\n      pop\n        /* \"Tokens/TimeLockTokenWithVesting.sol\":3119:3412  function transferFrom(address from, address to, uint256 amount) public returns (bool) {... */\n      swap4\n      swap3\n      pop\n      pop\n      pop\n      jump\t// out\n        /* \"Tokens/TimeLockTokenWithVesting.sol\":190:211  uint8 public decimals */\n    tag_55:\n      0x02\n      0x00\n      swap1\n      sload\n      swap1\n      0x0100\n      exp\n      swap1\n      div\n      0xff\n      and\n      dup2\n      jump\t// out\n        /* \"Tokens/TimeLockTokenWithVesting.sol\":421:478  mapping(address => LockedBalance[]) public lockedBalances */\n    tag_60:\n      mstore(0x20, 0x06)\n      dup2\n      0x00\n      mstore\n      keccak256(0x00, 0x40)\n      dup2\n      dup2\n      sload\n      dup2\n      lt\n      tag_129\n      jumpi\n      0x00\n      dup1\n      revert\n    tag_129:\n      swap1\n      0x00\n      mstore\n      keccak256(0x00, 0x20)\n      swap1\n      0x02\n      mul\n      add\n      0x00\n      swap2\n      pop\n      swap2\n      pop\n      pop\n      dup1\n      0x00\n      add\n      sload\n      swap1\n      dup1\n      0x01\n      add\n      sload\n      swap1\n      pop\n      dup3\n      jump\t// out\n        /* \"Tokens/TimeLockTokenWithVesting.sol\":2322:2432  function balanceOf(address account) public view returns (uint256) {... */\n    tag_65:\n        /* \"Tokens/TimeLockTokenWithVesting.sol\":2379:2386  uint256 */\n      0x00\n        /* \"Tokens/TimeLockTokenWithVesting.sol\":2406:2415  _balances */\n      0x04\n        /* \"Tokens/TimeLockTokenWithVesting.sol\":2406:2424  _balances[account] */\n      0x00\n        /* \"Tokens/TimeLockTokenWithVesting.sol\":2416:2423  account */\n      dup4\n        /* \"Tokens/TimeLockTokenWithVesting.sol\":2406:2424  _balances[account] */\n      0xffffffffffffffffffffffffffffffffffffffff\n      and\n      0xffffffffffffffffffffffffffffffffffffffff\n      and\n      dup2\n      mstore\n      0x20\n      add\n      swap1\n      dup2\n      mstore\n      0x20\n      add\n      0x00\n      keccak256\n      sload\n        /* \"Tokens/TimeLockTokenWithVesting.sol\":2399:2424  return _balances[account] */\n      swap1\n      pop\n        /* \"Tokens/TimeLockTokenWithVesting.sol\":2322:2432  function balanceOf(address account) public view returns (uint256) {... */\n      swap2\n      swap1\n      pop\n      jump\t// out\n        /* \"Tokens/TimeLockTokenWithVesting.sol\":567:587  address public owner */\n    tag_68:\n      0x08\n      0x00\n      swap1\n      sload\n      swap1\n      0x0100\n      exp\n      swap1\n      div\n      0xffffffffffffffffffffffffffffffffffffffff\n      and\n      dup2\n      jump\t// out\n        /* \"Tokens/TimeLockTokenWithVesting.sol\":163:183  string public symbol */\n    tag_72:\n      0x01\n      dup1\n      sload\n      tag_132\n      swap1\n      tag_105\n      jump\t// in\n    tag_132:\n      dup1\n      0x1f\n      add\n      0x20\n      dup1\n      swap2\n      div\n      mul\n      0x20\n      add\n      mload(0x40)\n      swap1\n      dup2\n      add\n      0x40\n      mstore\n      dup1\n      swap3\n      swap2\n      swap1\n      dup2\n      dup2\n      mstore\n      0x20\n      add\n      dup3\n      dup1\n      sload\n      tag_133\n      swap1\n      tag_105\n      jump\t// in\n    tag_133:\n      dup1\n      iszero\n      tag_134\n      jumpi\n      dup1\n      0x1f\n      lt\n      tag_135\n      jumpi\n      0x0100\n      dup1\n      dup4\n      sload\n      div\n      mul\n      dup4\n      mstore\n      swap2\n      0x20\n      add\n      swap2\n      jump(tag_134)\n    tag_135:\n      dup3\n      add\n      swap2\n      swap1\n      0x00\n      mstore\n      keccak256(0x00, 0x20)\n      swap1\n    tag_136:\n      dup2\n      sload\n      dup2\n      mstore\n      swap1\n      0x01\n      add\n      swap1\n      0x20\n      add\n      dup1\n      dup4\n      gt\n      tag_136\n      jumpi\n      dup3\n      swap1\n      sub\n      0x1f\n      and\n      dup3\n      add\n      swap2\n    tag_134:\n      pop\n      pop\n      pop\n      pop\n      pop\n      dup2\n      jump\t// out\n        /* \"Tokens/TimeLockTokenWithVesting.sol\":3510:4153  function lockTokens(address user, uint256 amount, uint256 unlockTime) ... */\n    tag_77:\n        /* \"Tokens/TimeLockTokenWithVesting.sol\":1587:1599  lockManagers */\n      0x09\n        /* \"Tokens/TimeLockTokenWithVesting.sol\":1587:1611  lockManagers[msg.sender] */\n      0x00\n        /* \"Tokens/TimeLockTokenWithVesting.sol\":1600:1610  msg.sender */\n      caller\n        /* \"Tokens/TimeLockTokenWithVesting.sol\":1587:1611  lockManagers[msg.sender] */\n      0xffffffffffffffffffffffffffffffffffffffff\n      and\n      0xffffffffffffffffffffffffffffffffffffffff\n      and\n      dup2\n      mstore\n      0x20\n      add\n      swap1\n      dup2\n      mstore\n      0x20\n      add\n      0x00\n      keccak256\n      0x00\n      swap1\n      sload\n      swap1\n      0x0100\n      exp\n      swap1\n      div\n      0xff\n      and\n        /* \"Tokens/TimeLockTokenWithVesting.sol\":1582:1636  if (!lockManagers[msg.sender]) revert NotLockManager() */\n      tag_138\n      jumpi\n        /* \"Tokens/TimeLockTokenWithVesting.sol\":1620:1636  NotLockManager() */\n      mload(0x40)\n      0x5a61d13700000000000000000000000000000000000000000000000000000000\n      dup2\n      mstore\n      0x04\n      add\n      mload(0x40)\n      dup1\n      swap2\n      sub\n      swap1\n      revert\n        /* \"Tokens/TimeLockTokenWithVesting.sol\":1582:1636  if (!lockManagers[msg.sender]) revert NotLockManager() */\n    tag_138:\n        /* \"Tokens/TimeLockTokenWithVesting.sol\":3646:3650  user */\n      dup3\n        /* \"Tokens/TimeLockTokenWithVesting.sol\":1735:1736  0 */\n      0x00\n        /* \"Tokens/TimeLockTokenWithVesting.sol\":1719:1737  addr == address(0) */\n      0xffffffffffffffffffffffffffffffffffffffff\n      and\n        /* \"Tokens/TimeLockTokenWithVesting.sol\":1719:1723  addr */\n      dup2\n        /* \"Tokens/TimeLockTokenWithVesting.sol\":1719:1737  addr == address(0) */\n      0xffffffffffffffffffffffffffffffffffffffff\n      and\n      sub\n        /* \"Tokens/TimeLockTokenWithVesting.sol\":1715:1759  if (addr == address(0)) revert ZeroAddress() */\n      tag_140\n      jumpi\n        /* \"Tokens/TimeLockTokenWithVesting.sol\":1746:1759  ZeroAddress() */\n      mload(0x40)\n      0xd92e233d00000000000000000000000000000000000000000000000000000000\n      dup2\n      mstore\n      0x04\n      add\n      mload(0x40)\n      dup1\n      swap2\n      sub\n      swap1\n      revert\n        /* \"Tokens/TimeLockTokenWithVesting.sol\":1715:1759  if (addr == address(0)) revert ZeroAddress() */\n    tag_140:\n        /* \"Tokens/TimeLockTokenWithVesting.sol\":3686:3687  0 */\n      0x00\n        /* \"Tokens/TimeLockTokenWithVesting.sol\":3677:3683  amount */\n      dup4\n        /* \"Tokens/TimeLockTokenWithVesting.sol\":3677:3687  amount > 0 */\n      gt\n        /* \"Tokens/TimeLockTokenWithVesting.sol\":3669:3715  require(amount > 0, \"Amount must be positive\") */\n      tag_142\n      jumpi\n      mload(0x40)\n      0x08c379a000000000000000000000000000000000000000000000000000000000\n      dup2\n      mstore\n      0x04\n      add\n      tag_143\n      swap1\n      tag_144\n      jump\t// in\n    tag_143:\n      mload(0x40)\n      dup1\n      swap2\n      sub\n      swap1\n      revert\n    tag_142:\n        /* \"Tokens/TimeLockTokenWithVesting.sol\":3747:3762  block.timestamp */\n      timestamp\n        /* \"Tokens/TimeLockTokenWithVesting.sol\":3734:3744  unlockTime */\n      dup3\n        /* \"Tokens/TimeLockTokenWithVesting.sol\":3734:3762  unlockTime > block.timestamp */\n      gt\n        /* \"Tokens/TimeLockTokenWithVesting.sol\":3726:3796  require(unlockTime > block.timestamp, \"Unlock time must be in future\") */\n      tag_145\n      jumpi\n      mload(0x40)\n      0x08c379a000000000000000000000000000000000000000000000000000000000\n      dup2\n      mstore\n      0x04\n      add\n      tag_146\n      swap1\n      tag_147\n      jump\t// in\n    tag_146:\n      mload(0x40)\n      dup1\n      swap2\n      sub\n      swap1\n      revert\n    tag_145:\n        /* \"Tokens/TimeLockTokenWithVesting.sol\":3834:3840  amount */\n      dup3\n        /* \"Tokens/TimeLockTokenWithVesting.sol\":3815:3824  _balances */\n      0x04\n        /* \"Tokens/TimeLockTokenWithVesting.sol\":3815:3830  _balances[user] */\n      0x00\n        /* \"Tokens/TimeLockTokenWithVesting.sol\":3825:3829  user */\n      dup7\n        /* \"Tokens/TimeLockTokenWithVesting.sol\":3815:3830  _balances[user] */\n      0xffffffffffffffffffffffffffffffffffffffff\n      and\n      0xffffffffffffffffffffffffffffffffffffffff\n      and\n      dup2\n      mstore\n      0x20\n      add\n      swap1\n      dup2\n      mstore\n      0x20\n      add\n      0x00\n      keccak256\n      sload\n        /* \"Tokens/TimeLockTokenWithVesting.sol\":3815:3840  _balances[user] >= amount */\n      lt\n      iszero\n        /* \"Tokens/TimeLockTokenWithVesting.sol\":3807:3865  require(_balances[user] >= amount, \"Insufficient balance\") */\n      tag_148\n      jumpi\n      mload(0x40)\n      0x08c379a000000000000000000000000000000000000000000000000000000000\n      dup2\n      mstore\n      0x04\n      add\n      tag_149\n      swap1\n      tag_150\n      jump\t// in\n    tag_149:\n      mload(0x40)\n      dup1\n      swap2\n      sub\n      swap1\n      revert\n    tag_148:\n        /* \"Tokens/TimeLockTokenWithVesting.sol\":3914:3928  lockedBalances */\n      0x06\n        /* \"Tokens/TimeLockTokenWithVesting.sol\":3914:3934  lockedBalances[user] */\n      0x00\n        /* \"Tokens/TimeLockTokenWithVesting.sol\":3929:3933  user */\n      dup6\n        /* \"Tokens/TimeLockTokenWithVesting.sol\":3914:3934  lockedBalances[user] */\n      0xffffffffffffffffffffffffffffffffffffffff\n      and\n      0xffffffffffffffffffffffffffffffffffffffff\n      and\n      dup2\n      mstore\n      0x20\n      add\n      swap1\n      dup2\n      mstore\n      0x20\n      add\n      0x00\n      keccak256\n        /* \"Tokens/TimeLockTokenWithVesting.sol\":3940:4032  LockedBalance({... */\n      mload(0x40)\n      dup1\n      0x40\n      add\n      0x40\n      mstore\n      dup1\n        /* \"Tokens/TimeLockTokenWithVesting.sol\":3977:3983  amount */\n      dup6\n        /* \"Tokens/TimeLockTokenWithVesting.sol\":3940:4032  LockedBalance({... */\n      dup2\n      mstore\n      0x20\n      add\n        /* \"Tokens/TimeLockTokenWithVesting.sol\":4010:4020  unlockTime */\n      dup5\n        /* \"Tokens/TimeLockTokenWithVesting.sol\":3940:4032  LockedBalance({... */\n      dup2\n      mstore\n      pop\n        /* \"Tokens/TimeLockTokenWithVesting.sol\":3914:4033  lockedBalances[user].push(LockedBalance({... */\n      swap1\n      dup1\n      0x01\n      dup2\n      sload\n      add\n      dup1\n      dup3\n      sstore\n      dup1\n      swap2\n      pop\n      pop\n      0x01\n      swap1\n      sub\n      swap1\n      0x00\n      mstore\n      keccak256(0x00, 0x20)\n      swap1\n      0x02\n      mul\n      add\n      0x00\n      swap1\n      swap2\n      swap1\n      swap2\n      swap1\n      swap2\n      pop\n      0x00\n      dup3\n      add\n      mload\n      dup2\n      0x00\n      add\n      sstore\n      0x20\n      dup3\n      add\n      mload\n      dup2\n      0x01\n      add\n      sstore\n      pop\n      pop\n        /* \"Tokens/TimeLockTokenWithVesting.sol\":4075:4081  amount */\n      dup3\n        /* \"Tokens/TimeLockTokenWithVesting.sol\":4054:4065  totalLocked */\n      0x07\n        /* \"Tokens/TimeLockTokenWithVesting.sol\":4054:4071  totalLocked[user] */\n      0x00\n        /* \"Tokens/TimeLockTokenWithVesting.sol\":4066:4070  user */\n      dup7\n        /* \"Tokens/TimeLockTokenWithVesting.sol\":4054:4071  totalLocked[user] */\n      0xffffffffffffffffffffffffffffffffffffffff\n      and\n      0xffffffffffffffffffffffffffffffffffffffff\n      and\n      dup2\n      mstore\n      0x20\n      add\n      swap1\n      dup2\n      mstore\n      0x20\n      add\n      0x00\n      keccak256\n      0x00\n        /* \"Tokens/TimeLockTokenWithVesting.sol\":4054:4081  totalLocked[user] += amount */\n      dup3\n      dup3\n      sload\n      tag_152\n      swap2\n      swap1\n      tag_153\n      jump\t// in\n    tag_152:\n      swap3\n      pop\n      pop\n      dup2\n      swap1\n      sstore\n      pop\n        /* \"Tokens/TimeLockTokenWithVesting.sol\":4120:4124  user */\n      dup4\n        /* \"Tokens/TimeLockTokenWithVesting.sol\":4107:4145  TokensLocked(user, amount, unlockTime) */\n      0xffffffffffffffffffffffffffffffffffffffff\n      and\n      0xd741e738a23fd18a03a26522320d9fc6cac1fed483e215ea9150fbc2fc43385d\n        /* \"Tokens/TimeLockTokenWithVesting.sol\":4126:4132  amount */\n      dup5\n        /* \"Tokens/TimeLockTokenWithVesting.sol\":4134:4144  unlockTime */\n      dup5\n        /* \"Tokens/TimeLockTokenWithVesting.sol\":4107:4145  TokensLocked(user, amount, unlockTime) */\n      mload(0x40)\n      tag_154\n      swap3\n      swap2\n      swap1\n      tag_62\n      jump\t// in\n    tag_154:\n      mload(0x40)\n      dup1\n      swap2\n      sub\n      swap1\n      log2\n        /* \"Tokens/TimeLockTokenWithVesting.sol\":1647:1648  _ */\n      pop\n        /* \"Tokens/TimeLockTokenWithVesting.sol\":3510:4153  function lockTokens(address user, uint256 amount, uint256 unlockTime) ... */\n      pop\n      pop\n      pop\n      jump\t// out\n        /* \"Tokens/TimeLockTokenWithVesting.sol\":2501:2736  function transfer(address to, uint256 amount) public returns (bool) {... */\n    tag_80:\n        /* \"Tokens/TimeLockTokenWithVesting.sol\":2563:2567  bool */\n      0x00\n        /* \"Tokens/TimeLockTokenWithVesting.sol\":2622:2628  amount */\n      dup2\n        /* \"Tokens/TimeLockTokenWithVesting.sol\":2588:2618  getUnlockedBalance(msg.sender) */\n      tag_156\n        /* \"Tokens/TimeLockTokenWithVesting.sol\":2607:2617  msg.sender */\n      caller\n        /* \"Tokens/TimeLockTokenWithVesting.sol\":2588:2606  getUnlockedBalance */\n      tag_38\n        /* \"Tokens/TimeLockTokenWithVesting.sol\":2588:2618  getUnlockedBalance(msg.sender) */\n      jump\t// in\n    tag_156:\n        /* \"Tokens/TimeLockTokenWithVesting.sol\":2588:2628  getUnlockedBalance(msg.sender) >= amount */\n      lt\n      iszero\n        /* \"Tokens/TimeLockTokenWithVesting.sol\":2580:2662  require(getUnlockedBalance(msg.sender) >= amount, \"Insufficient unlocked balance\") */\n      tag_157\n      jumpi\n      mload(0x40)\n      0x08c379a000000000000000000000000000000000000000000000000000000000\n      dup2\n      mstore\n      0x04\n      add\n      tag_158\n      swap1\n      tag_124\n      jump\t// in\n    tag_158:\n      mload(0x40)\n      dup1\n      swap2\n      sub\n      swap1\n      revert\n    tag_157:\n        /* \"Tokens/TimeLockTokenWithVesting.sol\":2673:2706  _transfer(msg.sender, to, amount) */\n      tag_159\n        /* \"Tokens/TimeLockTokenWithVesting.sol\":2683:2693  msg.sender */\n      caller\n        /* \"Tokens/TimeLockTokenWithVesting.sol\":2695:2697  to */\n      dup5\n        /* \"Tokens/TimeLockTokenWithVesting.sol\":2699:2705  amount */\n      dup5\n        /* \"Tokens/TimeLockTokenWithVesting.sol\":2673:2682  _transfer */\n      tag_128\n        /* \"Tokens/TimeLockTokenWithVesting.sol\":2673:2706  _transfer(msg.sender, to, amount) */\n      jump\t// in\n    tag_159:\n        /* \"Tokens/TimeLockTokenWithVesting.sol\":2724:2728  true */\n      0x01\n        /* \"Tokens/TimeLockTokenWithVesting.sol\":2717:2728  return true */\n      swap1\n      pop\n        /* \"Tokens/TimeLockTokenWithVesting.sol\":2501:2736  function transfer(address to, uint256 amount) public returns (bool) {... */\n      swap3\n      swap2\n      pop\n      pop\n      jump\t// out\n        /* \"Tokens/TimeLockTokenWithVesting.sol\":594:638  mapping(address => bool) public lockManagers */\n    tag_84:\n      mstore(0x20, 0x09)\n      dup1\n      0x00\n      mstore\n      keccak256(0x00, 0x40)\n      0x00\n      swap2\n      pop\n      sload\n      swap1\n      0x0100\n      exp\n      swap1\n      div\n      0xff\n      and\n      dup2\n      jump\t// out\n        /* \"Tokens/TimeLockTokenWithVesting.sol\":4222:4871  function unlockTokens(address user) public {... */\n    tag_88:\n        /* \"Tokens/TimeLockTokenWithVesting.sol\":4276:4298  uint256 unlockedAmount */\n      0x00\n        /* \"Tokens/TimeLockTokenWithVesting.sol\":4301:4302  0 */\n      0x00\n        /* \"Tokens/TimeLockTokenWithVesting.sol\":4276:4302  uint256 unlockedAmount = 0 */\n      swap1\n      pop\n        /* \"Tokens/TimeLockTokenWithVesting.sol\":4370:4379  uint256 i */\n      0x00\n        /* \"Tokens/TimeLockTokenWithVesting.sol\":4382:4383  0 */\n      0x00\n        /* \"Tokens/TimeLockTokenWithVesting.sol\":4370:4383  uint256 i = 0 */\n      swap1\n      pop\n        /* \"Tokens/TimeLockTokenWithVesting.sol\":4365:4702  for (uint256 i = 0; i < lockedBalances[user].length; i++) {... */\n    tag_161:\n        /* \"Tokens/TimeLockTokenWithVesting.sol\":4389:4403  lockedBalances */\n      0x06\n        /* \"Tokens/TimeLockTokenWithVesting.sol\":4389:4409  lockedBalances[user] */\n      0x00\n        /* \"Tokens/TimeLockTokenWithVesting.sol\":4404:4408  user */\n      dup5\n        /* \"Tokens/TimeLockTokenWithVesting.sol\":4389:4409  lockedBalances[user] */\n      0xffffffffffffffffffffffffffffffffffffffff\n      and\n      0xffffffffffffffffffffffffffffffffffffffff\n      and\n      dup2\n      mstore\n      0x20\n      add\n      swap1\n      dup2\n      mstore\n      0x20\n      add\n      0x00\n      keccak256\n        /* \"Tokens/TimeLockTokenWithVesting.sol\":4389:4416  lockedBalances[user].length */\n      dup1\n      sload\n      swap1\n      pop\n        /* \"Tokens/TimeLockTokenWithVesting.sol\":4385:4386  i */\n      dup2\n        /* \"Tokens/TimeLockTokenWithVesting.sol\":4385:4416  i < lockedBalances[user].length */\n      lt\n        /* \"Tokens/TimeLockTokenWithVesting.sol\":4365:4702  for (uint256 i = 0; i < lockedBalances[user].length; i++) {... */\n      iszero\n      tag_162\n      jumpi\n        /* \"Tokens/TimeLockTokenWithVesting.sol\":4480:4495  block.timestamp */\n      timestamp\n        /* \"Tokens/TimeLockTokenWithVesting.sol\":4442:4456  lockedBalances */\n      0x06\n        /* \"Tokens/TimeLockTokenWithVesting.sol\":4442:4462  lockedBalances[user] */\n      0x00\n        /* \"Tokens/TimeLockTokenWithVesting.sol\":4457:4461  user */\n      dup6\n        /* \"Tokens/TimeLockTokenWithVesting.sol\":4442:4462  lockedBalances[user] */\n      0xffffffffffffffffffffffffffffffffffffffff\n      and\n      0xffffffffffffffffffffffffffffffffffffffff\n      and\n      dup2\n      mstore\n      0x20\n      add\n      swap1\n      dup2\n      mstore\n      0x20\n      add\n      0x00\n      keccak256\n        /* \"Tokens/TimeLockTokenWithVesting.sol\":4463:4464  i */\n      dup3\n        /* \"Tokens/TimeLockTokenWithVesting.sol\":4442:4465  lockedBalances[user][i] */\n      dup2\n      sload\n      dup2\n      lt\n      tag_164\n      jumpi\n      tag_165\n      tag_166\n      jump\t// in\n    tag_165:\n    tag_164:\n      swap1\n      0x00\n      mstore\n      keccak256(0x00, 0x20)\n      swap1\n      0x02\n      mul\n      add\n        /* \"Tokens/TimeLockTokenWithVesting.sol\":4442:4476  lockedBalances[user][i].unlockTime */\n      0x01\n      add\n      sload\n        /* \"Tokens/TimeLockTokenWithVesting.sol\":4442:4495  lockedBalances[user][i].unlockTime <= block.timestamp */\n      gt\n      iszero\n        /* \"Tokens/TimeLockTokenWithVesting.sol\":4442:4533  lockedBalances[user][i].unlockTime <= block.timestamp && lockedBalances[user][i].amount > 0 */\n      dup1\n      iszero\n      tag_168\n      jumpi\n      pop\n        /* \"Tokens/TimeLockTokenWithVesting.sol\":4532:4533  0 */\n      0x00\n        /* \"Tokens/TimeLockTokenWithVesting.sol\":4499:4513  lockedBalances */\n      0x06\n        /* \"Tokens/TimeLockTokenWithVesting.sol\":4499:4519  lockedBalances[user] */\n      0x00\n        /* \"Tokens/TimeLockTokenWithVesting.sol\":4514:4518  user */\n      dup6\n        /* \"Tokens/TimeLockTokenWithVesting.sol\":4499:4519  lockedBalances[user] */\n      0xffffffffffffffffffffffffffffffffffffffff\n      and\n      0xffffffffffffffffffffffffffffffffffffffff\n      and\n      dup2\n      mstore\n      0x20\n      add\n      swap1\n      dup2\n      mstore\n      0x20\n      add\n      0x00\n      keccak256\n        /* \"Tokens/TimeLockTokenWithVesting.sol\":4520:4521  i */\n      dup3\n        /* \"Tokens/TimeLockTokenWithVesting.sol\":4499:4522  lockedBalances[user][i] */\n      dup2\n      sload\n      dup2\n      lt\n      tag_169\n      jumpi\n      tag_170\n      tag_166\n      jump\t// in\n    tag_170:\n    tag_169:\n      swap1\n      0x00\n      mstore\n      keccak256(0x00, 0x20)\n      swap1\n      0x02\n      mul\n      add\n        /* \"Tokens/TimeLockTokenWithVesting.sol\":4499:4529  lockedBalances[user][i].amount */\n      0x00\n      add\n      sload\n        /* \"Tokens/TimeLockTokenWithVesting.sol\":4499:4533  lockedBalances[user][i].amount > 0 */\n      gt\n        /* \"Tokens/TimeLockTokenWithVesting.sol\":4442:4533  lockedBalances[user][i].unlockTime <= block.timestamp && lockedBalances[user][i].amount > 0 */\n    tag_168:\n        /* \"Tokens/TimeLockTokenWithVesting.sol\":4438:4691  if (lockedBalances[user][i].unlockTime <= block.timestamp && lockedBalances[user][i].amount > 0) {... */\n      iszero\n      tag_172\n      jumpi\n        /* \"Tokens/TimeLockTokenWithVesting.sol\":4572:4586  lockedBalances */\n      0x06\n        /* \"Tokens/TimeLockTokenWithVesting.sol\":4572:4592  lockedBalances[user] */\n      0x00\n        /* \"Tokens/TimeLockTokenWithVesting.sol\":4587:4591  user */\n      dup5\n        /* \"Tokens/TimeLockTokenWithVesting.sol\":4572:4592  lockedBalances[user] */\n      0xffffffffffffffffffffffffffffffffffffffff\n      and\n      0xffffffffffffffffffffffffffffffffffffffff\n      and\n      dup2\n      mstore\n      0x20\n      add\n      swap1\n      dup2\n      mstore\n      0x20\n      add\n      0x00\n      keccak256\n        /* \"Tokens/TimeLockTokenWithVesting.sol\":4593:4594  i */\n      dup2\n        /* \"Tokens/TimeLockTokenWithVesting.sol\":4572:4595  lockedBalances[user][i] */\n      dup2\n      sload\n      dup2\n      lt\n      tag_173\n      jumpi\n      tag_174\n      tag_166\n      jump\t// in\n    tag_174:\n    tag_173:\n      swap1\n      0x00\n      mstore\n      keccak256(0x00, 0x20)\n      swap1\n      0x02\n      mul\n      add\n        /* \"Tokens/TimeLockTokenWithVesting.sol\":4572:4602  lockedBalances[user][i].amount */\n      0x00\n      add\n      sload\n        /* \"Tokens/TimeLockTokenWithVesting.sol\":4554:4602  unlockedAmount += lockedBalances[user][i].amount */\n      dup3\n      tag_176\n      swap2\n      swap1\n      tag_153\n      jump\t// in\n    tag_176:\n      swap2\n      pop\n        /* \"Tokens/TimeLockTokenWithVesting.sol\":4654:4655  0 */\n      0x00\n        /* \"Tokens/TimeLockTokenWithVesting.sol\":4621:4635  lockedBalances */\n      0x06\n        /* \"Tokens/TimeLockTokenWithVesting.sol\":4621:4641  lockedBalances[user] */\n      0x00\n        /* \"Tokens/TimeLockTokenWithVesting.sol\":4636:4640  user */\n      dup6\n        /* \"Tokens/TimeLockTokenWithVesting.sol\":4621:4641  lockedBalances[user] */\n      0xffffffffffffffffffffffffffffffffffffffff\n      and\n      0xffffffffffffffffffffffffffffffffffffffff\n      and\n      dup2\n      mstore\n      0x20\n      add\n      swap1\n      dup2\n      mstore\n      0x20\n      add\n      0x00\n      keccak256\n        /* \"Tokens/TimeLockTokenWithVesting.sol\":4642:4643  i */\n      dup3\n        /* \"Tokens/TimeLockTokenWithVesting.sol\":4621:4644  lockedBalances[user][i] */\n      dup2\n      sload\n      dup2\n      lt\n      tag_177\n      jumpi\n      tag_178\n      tag_166\n      jump\t// in\n    tag_178:\n    tag_177:\n      swap1\n      0x00\n      mstore\n      keccak256(0x00, 0x20)\n      swap1\n      0x02\n      mul\n      add\n        /* \"Tokens/TimeLockTokenWithVesting.sol\":4621:4651  lockedBalances[user][i].amount */\n      0x00\n      add\n        /* \"Tokens/TimeLockTokenWithVesting.sol\":4621:4655  lockedBalances[user][i].amount = 0 */\n      dup2\n      swap1\n      sstore\n      pop\n        /* \"Tokens/TimeLockTokenWithVesting.sol\":4438:4691  if (lockedBalances[user][i].unlockTime <= block.timestamp && lockedBalances[user][i].amount > 0) {... */\n    tag_172:\n        /* \"Tokens/TimeLockTokenWithVesting.sol\":4418:4421  i++ */\n      dup1\n      dup1\n      0x01\n      add\n      swap2\n      pop\n      pop\n        /* \"Tokens/TimeLockTokenWithVesting.sol\":4365:4702  for (uint256 i = 0; i < lockedBalances[user].length; i++) {... */\n      jump(tag_161)\n    tag_162:\n      pop\n        /* \"Tokens/TimeLockTokenWithVesting.sol\":4743:4744  0 */\n      0x00\n        /* \"Tokens/TimeLockTokenWithVesting.sol\":4726:4740  unlockedAmount */\n      dup2\n        /* \"Tokens/TimeLockTokenWithVesting.sol\":4726:4744  unlockedAmount > 0 */\n      gt\n        /* \"Tokens/TimeLockTokenWithVesting.sol\":4722:4864  if (unlockedAmount > 0) {... */\n      iszero\n      tag_180\n      jumpi\n        /* \"Tokens/TimeLockTokenWithVesting.sol\":4782:4796  unlockedAmount */\n      dup1\n        /* \"Tokens/TimeLockTokenWithVesting.sol\":4761:4772  totalLocked */\n      0x07\n        /* \"Tokens/TimeLockTokenWithVesting.sol\":4761:4778  totalLocked[user] */\n      0x00\n        /* \"Tokens/TimeLockTokenWithVesting.sol\":4773:4777  user */\n      dup5\n        /* \"Tokens/TimeLockTokenWithVesting.sol\":4761:4778  totalLocked[user] */\n      0xffffffffffffffffffffffffffffffffffffffff\n      and\n      0xffffffffffffffffffffffffffffffffffffffff\n      and\n      dup2\n      mstore\n      0x20\n      add\n      swap1\n      dup2\n      mstore\n      0x20\n      add\n      0x00\n      keccak256\n      0x00\n        /* \"Tokens/TimeLockTokenWithVesting.sol\":4761:4796  totalLocked[user] -= unlockedAmount */\n      dup3\n      dup3\n      sload\n      tag_181\n      swap2\n      swap1\n      tag_115\n      jump\t// in\n    tag_181:\n      swap3\n      pop\n      pop\n      dup2\n      swap1\n      sstore\n      pop\n        /* \"Tokens/TimeLockTokenWithVesting.sol\":4831:4835  user */\n      dup2\n        /* \"Tokens/TimeLockTokenWithVesting.sol\":4816:4852  TokensUnlocked(user, unlockedAmount) */\n      0xffffffffffffffffffffffffffffffffffffffff\n      and\n      0xe7b379c6c1fa169e9079c25e9143b127637eef8ec8c9d5c06ddb4ab3e1195888\n        /* \"Tokens/TimeLockTokenWithVesting.sol\":4837:4851  unlockedAmount */\n      dup3\n        /* \"Tokens/TimeLockTokenWithVesting.sol\":4816:4852  TokensUnlocked(user, unlockedAmount) */\n      mload(0x40)\n      tag_182\n      swap2\n      swap1\n      tag_40\n      jump\t// in\n    tag_182:\n      mload(0x40)\n      dup1\n      swap2\n      sub\n      swap1\n      log2\n        /* \"Tokens/TimeLockTokenWithVesting.sol\":4722:4864  if (unlockedAmount > 0) {... */\n    tag_180:\n        /* \"Tokens/TimeLockTokenWithVesting.sol\":4265:4871  {... */\n      pop\n        /* \"Tokens/TimeLockTokenWithVesting.sol\":4222:4871  function unlockTokens(address user) public {... */\n      pop\n      jump\t// out\n        /* \"Tokens/TimeLockTokenWithVesting.sol\":5290:5466  function addLockManager(address account) public onlyOwner validAddress(account) {... */\n    tag_91:\n        /* \"Tokens/TimeLockTokenWithVesting.sol\":1488:1493  owner */\n      0x08\n      0x00\n      swap1\n      sload\n      swap1\n      0x0100\n      exp\n      swap1\n      div\n      0xffffffffffffffffffffffffffffffffffffffff\n      and\n        /* \"Tokens/TimeLockTokenWithVesting.sol\":1474:1493  msg.sender != owner */\n      0xffffffffffffffffffffffffffffffffffffffff\n      and\n        /* \"Tokens/TimeLockTokenWithVesting.sol\":1474:1484  msg.sender */\n      caller\n        /* \"Tokens/TimeLockTokenWithVesting.sol\":1474:1493  msg.sender != owner */\n      0xffffffffffffffffffffffffffffffffffffffff\n      and\n      eq\n        /* \"Tokens/TimeLockTokenWithVesting.sol\":1470:1512  if (msg.sender != owner) revert NotOwner() */\n      tag_184\n      jumpi\n        /* \"Tokens/TimeLockTokenWithVesting.sol\":1502:1512  NotOwner() */\n      mload(0x40)\n      0x30cd747100000000000000000000000000000000000000000000000000000000\n      dup2\n      mstore\n      0x04\n      add\n      mload(0x40)\n      dup1\n      swap2\n      sub\n      swap1\n      revert\n        /* \"Tokens/TimeLockTokenWithVesting.sol\":1470:1512  if (msg.sender != owner) revert NotOwner() */\n    tag_184:\n        /* \"Tokens/TimeLockTokenWithVesting.sol\":5361:5368  account */\n      dup1\n        /* \"Tokens/TimeLockTokenWithVesting.sol\":1735:1736  0 */\n      0x00\n        /* \"Tokens/TimeLockTokenWithVesting.sol\":1719:1737  addr == address(0) */\n      0xffffffffffffffffffffffffffffffffffffffff\n      and\n        /* \"Tokens/TimeLockTokenWithVesting.sol\":1719:1723  addr */\n      dup2\n        /* \"Tokens/TimeLockTokenWithVesting.sol\":1719:1737  addr == address(0) */\n      0xffffffffffffffffffffffffffffffffffffffff\n      and\n      sub\n        /* \"Tokens/TimeLockTokenWithVesting.sol\":1715:1759  if (addr == address(0)) revert ZeroAddress() */\n      tag_186\n      jumpi\n        /* \"Tokens/TimeLockTokenWithVesting.sol\":1746:1759  ZeroAddress() */\n      mload(0x40)\n      0xd92e233d00000000000000000000000000000000000000000000000000000000\n      dup2\n      mstore\n      0x04\n      add\n      mload(0x40)\n      dup1\n      swap2\n      sub\n      swap1\n      revert\n        /* \"Tokens/TimeLockTokenWithVesting.sol\":1715:1759  if (addr == address(0)) revert ZeroAddress() */\n    tag_186:\n        /* \"Tokens/TimeLockTokenWithVesting.sol\":5405:5409  true */\n      0x01\n        /* \"Tokens/TimeLockTokenWithVesting.sol\":5381:5393  lockManagers */\n      0x09\n        /* \"Tokens/TimeLockTokenWithVesting.sol\":5381:5402  lockManagers[account] */\n      0x00\n        /* \"Tokens/TimeLockTokenWithVesting.sol\":5394:5401  account */\n      dup5\n        /* \"Tokens/TimeLockTokenWithVesting.sol\":5381:5402  lockManagers[account] */\n      0xffffffffffffffffffffffffffffffffffffffff\n      and\n      0xffffffffffffffffffffffffffffffffffffffff\n      and\n      dup2\n      mstore\n      0x20\n      add\n      swap1\n      dup2\n      mstore\n      0x20\n      add\n      0x00\n      keccak256\n      0x00\n        /* \"Tokens/TimeLockTokenWithVesting.sol\":5381:5409  lockManagers[account] = true */\n      0x0100\n      exp\n      dup2\n      sload\n      dup2\n      0xff\n      mul\n      not\n      and\n      swap1\n      dup4\n      iszero\n      iszero\n      mul\n      or\n      swap1\n      sstore\n      pop\n        /* \"Tokens/TimeLockTokenWithVesting.sol\":5444:5451  account */\n      dup2\n        /* \"Tokens/TimeLockTokenWithVesting.sol\":5425:5458  LockManagerUpdated(account, true) */\n      0xffffffffffffffffffffffffffffffffffffffff\n      and\n      0x746f7d497d87e2466d31e82801906c1fa440311829558e0e37d95a0ca08bdae0\n        /* \"Tokens/TimeLockTokenWithVesting.sol\":5453:5457  true */\n      0x01\n        /* \"Tokens/TimeLockTokenWithVesting.sol\":5425:5458  LockManagerUpdated(account, true) */\n      mload(0x40)\n      tag_188\n      swap2\n      swap1\n      tag_34\n      jump\t// in\n    tag_188:\n      mload(0x40)\n      dup1\n      swap2\n      sub\n      swap1\n      log2\n        /* \"Tokens/TimeLockTokenWithVesting.sol\":1523:1524  _ */\n      pop\n        /* \"Tokens/TimeLockTokenWithVesting.sol\":5290:5466  function addLockManager(address account) public onlyOwner validAddress(account) {... */\n      pop\n      jump\t// out\n        /* \"Tokens/TimeLockTokenWithVesting.sol\":485:531  mapping(address => uint256) public totalLocked */\n    tag_94:\n      mstore(0x20, 0x07)\n      dup1\n      0x00\n      mstore\n      keccak256(0x00, 0x40)\n      0x00\n      swap2\n      pop\n      swap1\n      pop\n      sload\n      dup2\n      jump\t// out\n        /* \"Tokens/TimeLockTokenWithVesting.sol\":2748:2884  function allowance(address owner0, address spender) public view returns (uint256) {... */\n    tag_99:\n        /* \"Tokens/TimeLockTokenWithVesting.sol\":2821:2828  uint256 */\n      0x00\n        /* \"Tokens/TimeLockTokenWithVesting.sol\":2848:2859  _allowances */\n      0x05\n        /* \"Tokens/TimeLockTokenWithVesting.sol\":2848:2867  _allowances[owner0] */\n      0x00\n        /* \"Tokens/TimeLockTokenWithVesting.sol\":2860:2866  owner0 */\n      dup5\n        /* \"Tokens/TimeLockTokenWithVesting.sol\":2848:2867  _allowances[owner0] */\n      0xffffffffffffffffffffffffffffffffffffffff\n      and\n      0xffffffffffffffffffffffffffffffffffffffff\n      and\n      dup2\n      mstore\n      0x20\n      add\n      swap1\n      dup2\n      mstore\n      0x20\n      add\n      0x00\n      keccak256\n        /* \"Tokens/TimeLockTokenWithVesting.sol\":2848:2876  _allowances[owner0][spender] */\n      0x00\n        /* \"Tokens/TimeLockTokenWithVesting.sol\":2868:2875  spender */\n      dup4\n        /* \"Tokens/TimeLockTokenWithVesting.sol\":2848:2876  _allowances[owner0][spender] */\n      0xffffffffffffffffffffffffffffffffffffffff\n      and\n      0xffffffffffffffffffffffffffffffffffffffff\n      and\n      dup2\n      mstore\n      0x20\n      add\n      swap1\n      dup2\n      mstore\n      0x20\n      add\n      0x00\n      keccak256\n      sload\n        /* \"Tokens/TimeLockTokenWithVesting.sol\":2841:2876  return _allowances[owner0][spender] */\n      swap1\n      pop\n        /* \"Tokens/TimeLockTokenWithVesting.sol\":2748:2884  function allowance(address owner0, address spender) public view returns (uint256) {... */\n      swap3\n      swap2\n      pop\n      pop\n      jump\t// out\n        /* \"Tokens/TimeLockTokenWithVesting.sol\":5478:5659  function removeLockManager(address account) public onlyOwner validAddress(account) {... */\n    tag_103:\n        /* \"Tokens/TimeLockTokenWithVesting.sol\":1488:1493  owner */\n      0x08\n      0x00\n      swap1\n      sload\n      swap1\n      0x0100\n      exp\n      swap1\n      div\n      0xffffffffffffffffffffffffffffffffffffffff\n      and\n        /* \"Tokens/TimeLockTokenWithVesting.sol\":1474:1493  msg.sender != owner */\n      0xffffffffffffffffffffffffffffffffffffffff\n      and\n        /* \"Tokens/TimeLockTokenWithVesting.sol\":1474:1484  msg.sender */\n      caller\n        /* \"Tokens/TimeLockTokenWithVesting.sol\":1474:1493  msg.sender != owner */\n      0xffffffffffffffffffffffffffffffffffffffff\n      and\n      eq\n        /* \"Tokens/TimeLockTokenWithVesting.sol\":1470:1512  if (msg.sender != owner) revert NotOwner() */\n      tag_191\n      jumpi\n        /* \"Tokens/TimeLockTokenWithVesting.sol\":1502:1512  NotOwner() */\n      mload(0x40)\n      0x30cd747100000000000000000000000000000000000000000000000000000000\n      dup2\n      mstore\n      0x04\n      add\n      mload(0x40)\n      dup1\n      swap2\n      sub\n      swap1\n      revert\n        /* \"Tokens/TimeLockTokenWithVesting.sol\":1470:1512  if (msg.sender != owner) revert NotOwner() */\n    tag_191:\n        /* \"Tokens/TimeLockTokenWithVesting.sol\":5552:5559  account */\n      dup1\n        /* \"Tokens/TimeLockTokenWithVesting.sol\":1735:1736  0 */\n      0x00\n        /* \"Tokens/TimeLockTokenWithVesting.sol\":1719:1737  addr == address(0) */\n      0xffffffffffffffffffffffffffffffffffffffff\n      and\n        /* \"Tokens/TimeLockTokenWithVesting.sol\":1719:1723  addr */\n      dup2\n        /* \"Tokens/TimeLockTokenWithVesting.sol\":1719:1737  addr == address(0) */\n      0xffffffffffffffffffffffffffffffffffffffff\n      and\n      sub\n        /* \"Tokens/TimeLockTokenWithVesting.sol\":1715:1759  if (addr == address(0)) revert ZeroAddress() */\n      tag_193\n      jumpi\n        /* \"Tokens/TimeLockTokenWithVesting.sol\":1746:1759  ZeroAddress() */\n      mload(0x40)\n      0xd92e233d00000000000000000000000000000000000000000000000000000000\n      dup2\n      mstore\n      0x04\n      add\n      mload(0x40)\n      dup1\n      swap2\n      sub\n      swap1\n      revert\n        /* \"Tokens/TimeLockTokenWithVesting.sol\":1715:1759  if (addr == address(0)) revert ZeroAddress() */\n    tag_193:\n        /* \"Tokens/TimeLockTokenWithVesting.sol\":5596:5601  false */\n      0x00\n        /* \"Tokens/TimeLockTokenWithVesting.sol\":5572:5584  lockManagers */\n      0x09\n        /* \"Tokens/TimeLockTokenWithVesting.sol\":5572:5593  lockManagers[account] */\n      0x00\n        /* \"Tokens/TimeLockTokenWithVesting.sol\":5585:5592  account */\n      dup5\n        /* \"Tokens/TimeLockTokenWithVesting.sol\":5572:5593  lockManagers[account] */\n      0xffffffffffffffffffffffffffffffffffffffff\n      and\n      0xffffffffffffffffffffffffffffffffffffffff\n      and\n      dup2\n      mstore\n      0x20\n      add\n      swap1\n      dup2\n      mstore\n      0x20\n      add\n      0x00\n      keccak256\n      0x00\n        /* \"Tokens/TimeLockTokenWithVesting.sol\":5572:5601  lockManagers[account] = false */\n      0x0100\n      exp\n      dup2\n      sload\n      dup2\n      0xff\n      mul\n      not\n      and\n      swap1\n      dup4\n      iszero\n      iszero\n      mul\n      or\n      swap1\n      sstore\n      pop\n        /* \"Tokens/TimeLockTokenWithVesting.sol\":5636:5643  account */\n      dup2\n        /* \"Tokens/TimeLockTokenWithVesting.sol\":5617:5651  LockManagerUpdated(account, false) */\n      0xffffffffffffffffffffffffffffffffffffffff\n      and\n      0x746f7d497d87e2466d31e82801906c1fa440311829558e0e37d95a0ca08bdae0\n        /* \"Tokens/TimeLockTokenWithVesting.sol\":5645:5650  false */\n      0x00\n        /* \"Tokens/TimeLockTokenWithVesting.sol\":5617:5651  LockManagerUpdated(account, false) */\n      mload(0x40)\n      tag_195\n      swap2\n      swap1\n      tag_34\n      jump\t// in\n    tag_195:\n      mload(0x40)\n      dup1\n      swap2\n      sub\n      swap1\n      log2\n        /* \"Tokens/TimeLockTokenWithVesting.sol\":1523:1524  _ */\n      pop\n        /* \"Tokens/TimeLockTokenWithVesting.sol\":5478:5659  function removeLockManager(address account) public onlyOwner validAddress(account) {... */\n      pop\n      jump\t// out\n        /* \"Tokens/TimeLockTokenWithVesting.sol\":6071:6274  function _approve(address owner1, address spender, uint256 amount) internal validAddress(spender) {... */\n    tag_112:\n        /* \"Tokens/TimeLockTokenWithVesting.sol\":6160:6167  spender */\n      dup2\n        /* \"Tokens/TimeLockTokenWithVesting.sol\":1735:1736  0 */\n      0x00\n        /* \"Tokens/TimeLockTokenWithVesting.sol\":1719:1737  addr == address(0) */\n      0xffffffffffffffffffffffffffffffffffffffff\n      and\n        /* \"Tokens/TimeLockTokenWithVesting.sol\":1719:1723  addr */\n      dup2\n        /* \"Tokens/TimeLockTokenWithVesting.sol\":1719:1737  addr == address(0) */\n      0xffffffffffffffffffffffffffffffffffffffff\n      and\n      sub\n        /* \"Tokens/TimeLockTokenWithVesting.sol\":1715:1759  if (addr == address(0)) revert ZeroAddress() */\n      tag_197\n      jumpi\n        /* \"Tokens/TimeLockTokenWithVesting.sol\":1746:1759  ZeroAddress() */\n      mload(0x40)\n      0xd92e233d00000000000000000000000000000000000000000000000000000000\n      dup2\n      mstore\n      0x04\n      add\n      mload(0x40)\n      dup1\n      swap2\n      sub\n      swap1\n      revert\n        /* \"Tokens/TimeLockTokenWithVesting.sol\":1715:1759  if (addr == address(0)) revert ZeroAddress() */\n    tag_197:\n        /* \"Tokens/TimeLockTokenWithVesting.sol\":6211:6217  amount */\n      dup2\n        /* \"Tokens/TimeLockTokenWithVesting.sol\":6180:6191  _allowances */\n      0x05\n        /* \"Tokens/TimeLockTokenWithVesting.sol\":6180:6199  _allowances[owner1] */\n      0x00\n        /* \"Tokens/TimeLockTokenWithVesting.sol\":6192:6198  owner1 */\n      dup7\n        /* \"Tokens/TimeLockTokenWithVesting.sol\":6180:6199  _allowances[owner1] */\n      0xffffffffffffffffffffffffffffffffffffffff\n      and\n      0xffffffffffffffffffffffffffffffffffffffff\n      and\n      dup2\n      mstore\n      0x20\n      add\n      swap1\n      dup2\n      mstore\n      0x20\n      add\n      0x00\n      keccak256\n        /* \"Tokens/TimeLockTokenWithVesting.sol\":6180:6208  _allowances[owner1][spender] */\n      0x00\n        /* \"Tokens/TimeLockTokenWithVesting.sol\":6200:6207  spender */\n      dup6\n        /* \"Tokens/TimeLockTokenWithVesting.sol\":6180:6208  _allowances[owner1][spender] */\n      0xffffffffffffffffffffffffffffffffffffffff\n      and\n      0xffffffffffffffffffffffffffffffffffffffff\n      and\n      dup2\n      mstore\n      0x20\n      add\n      swap1\n      dup2\n      mstore\n      0x20\n      add\n      0x00\n      keccak256\n        /* \"Tokens/TimeLockTokenWithVesting.sol\":6180:6217  _allowances[owner1][spender] = amount */\n      dup2\n      swap1\n      sstore\n      pop\n        /* \"Tokens/TimeLockTokenWithVesting.sol\":6250:6257  spender */\n      dup3\n        /* \"Tokens/TimeLockTokenWithVesting.sol\":6233:6266  Approval(owner1, spender, amount) */\n      0xffffffffffffffffffffffffffffffffffffffff\n      and\n        /* \"Tokens/TimeLockTokenWithVesting.sol\":6242:6248  owner1 */\n      dup5\n        /* \"Tokens/TimeLockTokenWithVesting.sol\":6233:6266  Approval(owner1, spender, amount) */\n      0xffffffffffffffffffffffffffffffffffffffff\n      and\n      0x8c5be1e5ebec7d5bd14f71427d1e84f3dd0314c0f7b2291e5b200ac8c7c3b925\n        /* \"Tokens/TimeLockTokenWithVesting.sol\":6259:6265  amount */\n      dup5\n        /* \"Tokens/TimeLockTokenWithVesting.sol\":6233:6266  Approval(owner1, spender, amount) */\n      mload(0x40)\n      tag_199\n      swap2\n      swap1\n      tag_40\n      jump\t// in\n    tag_199:\n      mload(0x40)\n      dup1\n      swap2\n      sub\n      swap1\n      log3\n        /* \"Tokens/TimeLockTokenWithVesting.sol\":6071:6274  function _approve(address owner1, address spender, uint256 amount) internal validAddress(spender) {... */\n      pop\n      pop\n      pop\n      pop\n      jump\t// out\n        /* \"Tokens/TimeLockTokenWithVesting.sol\":6286:6649  function _spendAllowance(address owner2, address spender, uint256 amount) internal {... */\n    tag_126:\n        /* \"Tokens/TimeLockTokenWithVesting.sol\":6380:6404  uint256 currentAllowance */\n      0x00\n        /* \"Tokens/TimeLockTokenWithVesting.sol\":6407:6433  allowance(owner2, spender) */\n      tag_201\n        /* \"Tokens/TimeLockTokenWithVesting.sol\":6417:6423  owner2 */\n      dup5\n        /* \"Tokens/TimeLockTokenWithVesting.sol\":6425:6432  spender */\n      dup5\n        /* \"Tokens/TimeLockTokenWithVesting.sol\":6407:6416  allowance */\n      tag_99\n        /* \"Tokens/TimeLockTokenWithVesting.sol\":6407:6433  allowance(owner2, spender) */\n      jump\t// in\n    tag_201:\n        /* \"Tokens/TimeLockTokenWithVesting.sol\":6380:6433  uint256 currentAllowance = allowance(owner2, spender) */\n      swap1\n      pop\n        /* \"Tokens/TimeLockTokenWithVesting.sol\":6468:6485  type(uint256).max */\n      0xffffffffffffffffffffffffffffffffffffffffffffffffffffffffffffffff\n        /* \"Tokens/TimeLockTokenWithVesting.sol\":6448:6464  currentAllowance */\n      dup2\n        /* \"Tokens/TimeLockTokenWithVesting.sol\":6448:6485  currentAllowance != type(uint256).max */\n      eq\n        /* \"Tokens/TimeLockTokenWithVesting.sol\":6444:6642  if (currentAllowance != type(uint256).max) {... */\n      tag_202\n      jumpi\n        /* \"Tokens/TimeLockTokenWithVesting.sol\":6530:6536  amount */\n      dup2\n        /* \"Tokens/TimeLockTokenWithVesting.sol\":6510:6526  currentAllowance */\n      dup2\n        /* \"Tokens/TimeLockTokenWithVesting.sol\":6510:6536  currentAllowance >= amount */\n      lt\n      iszero\n        /* \"Tokens/TimeLockTokenWithVesting.sol\":6502:6563  require(currentAllowance >= amount, \"Insufficient allowance\") */\n      tag_203\n      jumpi\n      mload(0x40)\n      0x08c379a000000000000000000000000000000000000000000000000000000000\n      dup2\n      mstore\n      0x04\n      add\n      tag_204\n      swap1\n      tag_205\n      jump\t// in\n    tag_204:\n      mload(0x40)\n      dup1\n      swap2\n      sub\n      swap1\n      revert\n    tag_203:\n        /* \"Tokens/TimeLockTokenWithVesting.sol\":6578:6630  _approve(owner2, spender, currentAllowance - amount) */\n      tag_206\n        /* \"Tokens/TimeLockTokenWithVesting.sol\":6587:6593  owner2 */\n      dup5\n        /* \"Tokens/TimeLockTokenWithVesting.sol\":6595:6602  spender */\n      dup5\n        /* \"Tokens/TimeLockTokenWithVesting.sol\":6623:6629  amount */\n      dup5\n        /* \"Tokens/TimeLockTokenWithVesting.sol\":6604:6620  currentAllowance */\n      dup5\n        /* \"Tokens/TimeLockTokenWithVesting.sol\":6604:6629  currentAllowance - amount */\n      tag_207\n      swap2\n      swap1\n      tag_115\n      jump\t// in\n    tag_207:\n        /* \"Tokens/TimeLockTokenWithVesting.sol\":6578:6586  _approve */\n      tag_112\n        /* \"Tokens/TimeLockTokenWithVesting.sol\":6578:6630  _approve(owner2, spender, currentAllowance - amount) */\n      jump\t// in\n    tag_206:\n        /* \"Tokens/TimeLockTokenWithVesting.sol\":6444:6642  if (currentAllowance != type(uint256).max) {... */\n    tag_202:\n        /* \"Tokens/TimeLockTokenWithVesting.sol\":6369:6649  {... */\n      pop\n        /* \"Tokens/TimeLockTokenWithVesting.sol\":6286:6649  function _spendAllowance(address owner2, address spender, uint256 amount) internal {... */\n      pop\n      pop\n      pop\n      jump\t// out\n        /* \"Tokens/TimeLockTokenWithVesting.sol\":5706:6059  function _transfer(address from, address to, uint256 amount) internal validAddress(to) {... */\n    tag_128:\n        /* \"Tokens/TimeLockTokenWithVesting.sol\":5789:5791  to */\n      dup2\n        /* \"Tokens/TimeLockTokenWithVesting.sol\":1735:1736  0 */\n      0x00\n        /* \"Tokens/TimeLockTokenWithVesting.sol\":1719:1737  addr == address(0) */\n      0xffffffffffffffffffffffffffffffffffffffff\n      and\n        /* \"Tokens/TimeLockTokenWithVesting.sol\":1719:1723  addr */\n      dup2\n        /* \"Tokens/TimeLockTokenWithVesting.sol\":1719:1737  addr == address(0) */\n      0xffffffffffffffffffffffffffffffffffffffff\n      and\n      sub\n        /* \"Tokens/TimeLockTokenWithVesting.sol\":1715:1759  if (addr == address(0)) revert ZeroAddress() */\n      tag_209\n      jumpi\n        /* \"Tokens/TimeLockTokenWithVesting.sol\":1746:1759  ZeroAddress() */\n      mload(0x40)\n      0xd92e233d00000000000000000000000000000000000000000000000000000000\n      dup2\n      mstore\n      0x04\n      add\n      mload(0x40)\n      dup1\n      swap2\n      sub\n      swap1\n      revert\n        /* \"Tokens/TimeLockTokenWithVesting.sol\":1715:1759  if (addr == address(0)) revert ZeroAddress() */\n    tag_209:\n        /* \"Tokens/TimeLockTokenWithVesting.sol\":5804:5823  uint256 fromBalance */\n      0x00\n        /* \"Tokens/TimeLockTokenWithVesting.sol\":5826:5835  _balances */\n      0x04\n        /* \"Tokens/TimeLockTokenWithVesting.sol\":5826:5841  _balances[from] */\n      0x00\n        /* \"Tokens/TimeLockTokenWithVesting.sol\":5836:5840  from */\n      dup7\n        /* \"Tokens/TimeLockTokenWithVesting.sol\":5826:5841  _balances[from] */\n      0xffffffffffffffffffffffffffffffffffffffff\n      and\n      0xffffffffffffffffffffffffffffffffffffffff\n      and\n      dup2\n      mstore\n      0x20\n      add\n      swap1\n      dup2\n      mstore\n      0x20\n      add\n      0x00\n      keccak256\n      sload\n        /* \"Tokens/TimeLockTokenWithVesting.sol\":5804:5841  uint256 fromBalance = _balances[from] */\n      swap1\n      pop\n        /* \"Tokens/TimeLockTokenWithVesting.sol\":5875:5881  amount */\n      dup3\n        /* \"Tokens/TimeLockTokenWithVesting.sol\":5860:5871  fromBalance */\n      dup2\n        /* \"Tokens/TimeLockTokenWithVesting.sol\":5860:5881  fromBalance >= amount */\n      lt\n      iszero\n        /* \"Tokens/TimeLockTokenWithVesting.sol\":5852:5906  require(fromBalance >= amount, \"Insufficient balance\") */\n      tag_211\n      jumpi\n      mload(0x40)\n      0x08c379a000000000000000000000000000000000000000000000000000000000\n      dup2\n      mstore\n      0x04\n      add\n      tag_212\n      swap1\n      tag_150\n      jump\t// in\n    tag_212:\n      mload(0x40)\n      dup1\n      swap2\n      sub\n      swap1\n      revert\n    tag_211:\n        /* \"Tokens/TimeLockTokenWithVesting.sol\":5959:5965  amount */\n      dup3\n        /* \"Tokens/TimeLockTokenWithVesting.sol\":5945:5956  fromBalance */\n      dup2\n        /* \"Tokens/TimeLockTokenWithVesting.sol\":5945:5965  fromBalance - amount */\n      tag_213\n      swap2\n      swap1\n      tag_115\n      jump\t// in\n    tag_213:\n        /* \"Tokens/TimeLockTokenWithVesting.sol\":5927:5936  _balances */\n      0x04\n        /* \"Tokens/TimeLockTokenWithVesting.sol\":5927:5942  _balances[from] */\n      0x00\n        /* \"Tokens/TimeLockTokenWithVesting.sol\":5937:5941  from */\n      dup8\n        /* \"Tokens/TimeLockTokenWithVesting.sol\":5927:5942  _balances[from] */\n      0xffffffffffffffffffffffffffffffffffffffff\n      and\n      0xffffffffffffffffffffffffffffffffffffffff\n      and\n      dup2\n      mstore\n      0x20\n      add\n      swap1\n      dup2\n      mstore\n      0x20\n      add\n      0x00\n      keccak256\n        /* \"Tokens/TimeLockTokenWithVesting.sol\":5927:5965  _balances[from] = fromBalance - amount */\n      dup2\n      swap1\n      sstore\n      pop\n        /* \"Tokens/TimeLockTokenWithVesting.sol\":5993:5999  amount */\n      dup3\n        /* \"Tokens/TimeLockTokenWithVesting.sol\":5976:5985  _balances */\n      0x04\n        /* \"Tokens/TimeLockTokenWithVesting.sol\":5976:5989  _balances[to] */\n      0x00\n        /* \"Tokens/TimeLockTokenWithVesting.sol\":5986:5988  to */\n      dup7\n        /* \"Tokens/TimeLockTokenWithVesting.sol\":5976:5989  _balances[to] */\n      0xffffffffffffffffffffffffffffffffffffffff\n      and\n      0xffffffffffffffffffffffffffffffffffffffff\n      and\n      dup2\n      mstore\n      0x20\n      add\n      swap1\n      dup2\n      mstore\n      0x20\n      add\n      0x00\n      keccak256\n      0x00\n        /* \"Tokens/TimeLockTokenWithVesting.sol\":5976:5999  _balances[to] += amount */\n      dup3\n      dup3\n      sload\n      tag_214\n      swap2\n      swap1\n      tag_153\n      jump\t// in\n    tag_214:\n      swap3\n      pop\n      pop\n      dup2\n      swap1\n      sstore\n      pop\n        /* \"Tokens/TimeLockTokenWithVesting.sol\":6040:6042  to */\n      dup4\n        /* \"Tokens/TimeLockTokenWithVesting.sol\":6025:6051  Transfer(from, to, amount) */\n      0xffffffffffffffffffffffffffffffffffffffff\n      and\n        /* \"Tokens/TimeLockTokenWithVesting.sol\":6034:6038  from */\n      dup6\n        /* \"Tokens/TimeLockTokenWithVesting.sol\":6025:6051  Transfer(from, to, amount) */\n      0xffffffffffffffffffffffffffffffffffffffff\n      and\n      0xddf252ad1be2c89b69c2b068fc378daa952ba7f163c4a11628f55a4df523b3ef\n        /* \"Tokens/TimeLockTokenWithVesting.sol\":6044:6050  amount */\n      dup6\n        /* \"Tokens/TimeLockTokenWithVesting.sol\":6025:6051  Transfer(from, to, amount) */\n      mload(0x40)\n      tag_215\n      swap2\n      swap1\n      tag_40\n      jump\t// in\n    tag_215:\n      mload(0x40)\n      dup1\n      swap2\n      sub\n      swap1\n      log3\n        /* \"Tokens/TimeLockTokenWithVesting.sol\":5793:6059  {... */\n      pop\n        /* \"Tokens/TimeLockTokenWithVesting.sol\":5706:6059  function _transfer(address from, address to, uint256 amount) internal validAddress(to) {... */\n      pop\n      pop\n      pop\n      pop\n      jump\t// out\n        /* \"#utility.yul\":7:106   */\n    tag_216:\n        /* \"#utility.yul\":59:65   */\n      0x00\n        /* \"#utility.yul\":93:98   */\n      dup2\n        /* \"#utility.yul\":87:99   */\n      mload\n        /* \"#utility.yul\":77:99   */\n      swap1\n      pop\n        /* \"#utility.yul\":7:106   */\n      swap2\n      swap1\n      pop\n      jump\t// out\n        /* \"#utility.yul\":112:281   */\n    tag_217:\n        /* \"#utility.yul\":196:207   */\n      0x00\n        /* \"#utility.yul\":230:236   */\n      dup3\n        /* \"#utility.yul\":225:228   */\n      dup3\n        /* \"#utility.yul\":218:237   */\n      mstore\n        /* \"#utility.yul\":270:274   */\n      0x20\n        /* \"#utility.yul\":265:268   */\n      dup3\n        /* \"#utility.yul\":261:275   */\n      add\n        /* \"#utility.yul\":246:275   */\n      swap1\n      pop\n        /* \"#utility.yul\":112:281   */\n      swap3\n      swap2\n      pop\n      pop\n      jump\t// out\n        /* \"#utility.yul\":287:426   */\n    tag_218:\n        /* \"#utility.yul\":376:382   */\n      dup3\n        /* \"#utility.yul\":371:374   */\n      dup2\n        /* \"#utility.yul\":366:369   */\n      dup4\n        /* \"#utility.yul\":360:383   */\n      mcopy\n        /* \"#utility.yul\":417:418   */\n      0x00\n        /* \"#utility.yul\":408:414   */\n      dup4\n        /* \"#utility.yul\":403:406   */\n      dup4\n        /* \"#utility.yul\":399:415   */\n      add\n        /* \"#utility.yul\":392:419   */\n      mstore\n        /* \"#utility.yul\":287:426   */\n      pop\n      pop\n      pop\n      jump\t// out\n        /* \"#utility.yul\":432:534   */\n    tag_219:\n        /* \"#utility.yul\":473:479   */\n      0x00\n        /* \"#utility.yul\":524:526   */\n      0x1f\n        /* \"#utility.yul\":520:527   */\n      not\n        /* \"#utility.yul\":515:517   */\n      0x1f\n        /* \"#utility.yul\":508:513   */\n      dup4\n        /* \"#utility.yul\":504:518   */\n      add\n        /* \"#utility.yul\":500:528   */\n      and\n        /* \"#utility.yul\":490:528   */\n      swap1\n      pop\n        /* \"#utility.yul\":432:534   */\n      swap2\n      swap1\n      pop\n      jump\t// out\n        /* \"#utility.yul\":540:917   */\n    tag_220:\n        /* \"#utility.yul\":628:631   */\n      0x00\n        /* \"#utility.yul\":656:695   */\n      tag_263\n        /* \"#utility.yul\":689:694   */\n      dup3\n        /* \"#utility.yul\":656:695   */\n      tag_216\n      jump\t// in\n    tag_263:\n        /* \"#utility.yul\":711:782   */\n      tag_264\n        /* \"#utility.yul\":775:781   */\n      dup2\n        /* \"#utility.yul\":770:773   */\n      dup6\n        /* \"#utility.yul\":711:782   */\n      tag_217\n      jump\t// in\n    tag_264:\n        /* \"#utility.yul\":704:782   */\n      swap4\n      pop\n        /* \"#utility.yul\":791:856   */\n      tag_265\n        /* \"#utility.yul\":849:855   */\n      dup2\n        /* \"#utility.yul\":844:847   */\n      dup6\n        /* \"#utility.yul\":837:841   */\n      0x20\n        /* \"#utility.yul\":830:835   */\n      dup7\n        /* \"#utility.yul\":826:842   */\n      add\n        /* \"#utility.yul\":791:856   */\n      tag_218\n      jump\t// in\n    tag_265:\n        /* \"#utility.yul\":881:910   */\n      tag_266\n        /* \"#utility.yul\":903:909   */\n      dup2\n        /* \"#utility.yul\":881:910   */\n      tag_219\n      jump\t// in\n    tag_266:\n        /* \"#utility.yul\":876:879   */\n      dup5\n        /* \"#utility.yul\":872:911   */\n      add\n        /* \"#utility.yul\":865:911   */\n      swap2\n      pop\n        /* \"#utility.yul\":632:917   */\n      pop\n        /* \"#utility.yul\":540:917   */\n      swap3\n      swap2\n      pop\n      pop\n      jump\t// out\n        /* \"#utility.yul\":923:1236   */\n    tag_28:\n        /* \"#utility.yul\":1036:1040   */\n      0x00\n        /* \"#utility.yul\":1074:1076   */\n      0x20\n        /* \"#utility.yul\":1063:1072   */\n      dup3\n        /* \"#utility.yul\":1059:1077   */\n      add\n        /* \"#utility.yul\":1051:1077   */\n      swap1\n      pop\n        /* \"#utility.yul\":1123:1132   */\n      dup2\n        /* \"#utility.yul\":1117:1121   */\n      dup2\n        /* \"#utility.yul\":1113:1133   */\n      sub\n        /* \"#utility.yul\":1109:1110   */\n      0x00\n        /* \"#utility.yul\":1098:1107   */\n      dup4\n        /* \"#utility.yul\":1094:1111   */\n      add\n        /* \"#utility.yul\":1087:1134   */\n      mstore\n        /* \"#utility.yul\":1151:1229   */\n      tag_268\n        /* \"#utility.yul\":1224:1228   */\n      dup2\n        /* \"#utility.yul\":1215:1221   */\n      dup5\n        /* \"#utility.yul\":1151:1229   */\n      tag_220\n      jump\t// in\n    tag_268:\n        /* \"#utility.yul\":1143:1229   */\n      swap1\n      pop\n        /* \"#utility.yul\":923:1236   */\n      swap3\n      swap2\n      pop\n      pop\n      jump\t// out\n        /* \"#utility.yul\":1323:1440   */\n    tag_222:\n        /* \"#utility.yul\":1432:1433   */\n      0x00\n        /* \"#utility.yul\":1429:1430   */\n      0x00\n        /* \"#utility.yul\":1422:1434   */\n      revert\n        /* \"#utility.yul\":1569:1695   */\n    tag_224:\n        /* \"#utility.yul\":1606:1613   */\n      0x00\n        /* \"#utility.yul\":1646:1688   */\n      0xffffffffffffffffffffffffffffffffffffffff\n        /* \"#utility.yul\":1639:1644   */\n      dup3\n        /* \"#utility.yul\":1635:1689   */\n      and\n        /* \"#utility.yul\":1624:1689   */\n      swap1\n      pop\n        /* \"#utility.yul\":1569:1695   */\n      swap2\n      swap1\n      pop\n      jump\t// out\n        /* \"#utility.yul\":1701:1797   */\n    tag_225:\n        /* \"#utility.yul\":1738:1745   */\n      0x00\n        /* \"#utility.yul\":1767:1791   */\n      tag_274\n        /* \"#utility.yul\":1785:1790   */\n      dup3\n        /* \"#utility.yul\":1767:1791   */\n      tag_224\n      jump\t// in\n    tag_274:\n        /* \"#utility.yul\":1756:1791   */\n      swap1\n      pop\n        /* \"#utility.yul\":1701:1797   */\n      swap2\n      swap1\n      pop\n      jump\t// out\n        /* \"#utility.yul\":1803:1925   */\n    tag_226:\n        /* \"#utility.yul\":1876:1900   */\n      tag_276\n        /* \"#utility.yul\":1894:1899   */\n      dup2\n        /* \"#utility.yul\":1876:1900   */\n      tag_225\n      jump\t// in\n    tag_276:\n        /* \"#utility.yul\":1869:1874   */\n      dup2\n        /* \"#utility.yul\":1866:1901   */\n      eq\n        /* \"#utility.yul\":1856:1919   */\n      tag_277\n      jumpi\n        /* \"#utility.yul\":1915:1916   */\n      0x00\n        /* \"#utility.yul\":1912:1913   */\n      0x00\n        /* \"#utility.yul\":1905:1917   */\n      revert\n        /* \"#utility.yul\":1856:1919   */\n    tag_277:\n        /* \"#utility.yul\":1803:1925   */\n      pop\n      jump\t// out\n        /* \"#utility.yul\":1931:2070   */\n    tag_227:\n        /* \"#utility.yul\":1977:1982   */\n      0x00\n        /* \"#utility.yul\":2015:2021   */\n      dup2\n        /* \"#utility.yul\":2002:2022   */\n      calldataload\n        /* \"#utility.yul\":1993:2022   */\n      swap1\n      pop\n        /* \"#utility.yul\":2031:2064   */\n      tag_279\n        /* \"#utility.yul\":2058:2063   */\n      dup2\n        /* \"#utility.yul\":2031:2064   */\n      tag_226\n      jump\t// in\n    tag_279:\n        /* \"#utility.yul\":1931:2070   */\n      swap3\n      swap2\n      pop\n      pop\n      jump\t// out\n        /* \"#utility.yul\":2076:2153   */\n    tag_228:\n        /* \"#utility.yul\":2113:2120   */\n      0x00\n        /* \"#utility.yul\":2142:2147   */\n      dup2\n        /* \"#utility.yul\":2131:2147   */\n      swap1\n      pop\n        /* \"#utility.yul\":2076:2153   */\n      swap2\n      swap1\n      pop\n      jump\t// out\n        /* \"#utility.yul\":2159:2281   */\n    tag_229:\n        /* \"#utility.yul\":2232:2256   */\n      tag_282\n        /* \"#utility.yul\":2250:2255   */\n      dup2\n        /* \"#utility.yul\":2232:2256   */\n      tag_228\n      jump\t// in\n    tag_282:\n        /* \"#utility.yul\":2225:2230   */\n      dup2\n        /* \"#utility.yul\":2222:2257   */\n      eq\n        /* \"#utility.yul\":2212:2275   */\n      tag_283\n      jumpi\n        /* \"#utility.yul\":2271:2272   */\n      0x00\n        /* \"#utility.yul\":2268:2269   */\n      0x00\n        /* \"#utility.yul\":2261:2273   */\n      revert\n        /* \"#utility.yul\":2212:2275   */\n    tag_283:\n        /* \"#utility.yul\":2159:2281   */\n      pop\n      jump\t// out\n        /* \"#utility.yul\":2287:2426   */\n    tag_230:\n        /* \"#utility.yul\":2333:2338   */\n      0x00\n        /* \"#utility.yul\":2371:2377   */\n      dup2\n        /* \"#utility.yul\":2358:2378   */\n      calldataload\n        /* \"#utility.yul\":2349:2378   */\n      swap1\n      pop\n        /* \"#utility.yul\":2387:2420   */\n      tag_285\n        /* \"#utility.yul\":2414:2419   */\n      dup2\n        /* \"#utility.yul\":2387:2420   */\n      tag_229\n      jump\t// in\n    tag_285:\n        /* \"#utility.yul\":2287:2426   */\n      swap3\n      swap2\n      pop\n      pop\n      jump\t// out\n        /* \"#utility.yul\":2432:2906   */\n    tag_31:\n        /* \"#utility.yul\":2500:2506   */\n      0x00\n        /* \"#utility.yul\":2508:2514   */\n      0x00\n        /* \"#utility.yul\":2557:2559   */\n      0x40\n        /* \"#utility.yul\":2545:2554   */\n      dup4\n        /* \"#utility.yul\":2536:2543   */\n      dup6\n        /* \"#utility.yul\":2532:2555   */\n      sub\n        /* \"#utility.yul\":2528:2560   */\n      slt\n        /* \"#utility.yul\":2525:2644   */\n      iszero\n      tag_287\n      jumpi\n        /* \"#utility.yul\":2563:2642   */\n      tag_288\n      tag_222\n      jump\t// in\n    tag_288:\n        /* \"#utility.yul\":2525:2644   */\n    tag_287:\n        /* \"#utility.yul\":2683:2684   */\n      0x00\n        /* \"#utility.yul\":2708:2761   */\n      tag_289\n        /* \"#utility.yul\":2753:2760   */\n      dup6\n        /* \"#utility.yul\":2744:2750   */\n      dup3\n        /* \"#utility.yul\":2733:2742   */\n      dup7\n        /* \"#utility.yul\":2729:2751   */\n      add\n        /* \"#utility.yul\":2708:2761   */\n      tag_227\n      jump\t// in\n    tag_289:\n        /* \"#utility.yul\":2698:2761   */\n      swap3\n      pop\n        /* \"#utility.yul\":2654:2771   */\n      pop\n        /* \"#utility.yul\":2810:2812   */\n      0x20\n        /* \"#utility.yul\":2836:2889   */\n      tag_290\n        /* \"#utility.yul\":2881:2888   */\n      dup6\n        /* \"#utility.yul\":2872:2878   */\n      dup3\n        /* \"#utility.yul\":2861:2870   */\n      dup7\n        /* \"#utility.yul\":2857:2879   */\n      add\n        /* \"#utility.yul\":2836:2889   */\n      tag_230\n      jump\t// in\n    tag_290:\n        /* \"#utility.yul\":2826:2889   */\n      swap2\n      pop\n        /* \"#utility.yul\":2781:2899   */\n      pop\n        /* \"#utility.yul\":2432:2906   */\n      swap3\n      pop\n      swap3\n      swap1\n      pop\n      jump\t// out\n        /* \"#utility.yul\":2912:3002   */\n    tag_231:\n        /* \"#utility.yul\":2946:2953   */\n      0x00\n        /* \"#utility.yul\":2989:2994   */\n      dup2\n        /* \"#utility.yul\":2982:2995   */\n      iszero\n        /* \"#utility.yul\":2975:2996   */\n      iszero\n        /* \"#utility.yul\":2964:2996   */\n      swap1\n      pop\n        /* \"#utility.yul\":2912:3002   */\n      swap2\n      swap1\n      pop\n      jump\t// out\n        /* \"#utility.yul\":3008:3117   */\n    tag_232:\n        /* \"#utility.yul\":3089:3110   */\n      tag_293\n        /* \"#utility.yul\":3104:3109   */\n      dup2\n        /* \"#utility.yul\":3089:3110   */\n      tag_231\n      jump\t// in\n    tag_293:\n        /* \"#utility.yul\":3084:3087   */\n      dup3\n        /* \"#utility.yul\":3077:3111   */\n      mstore\n        /* \"#utility.yul\":3008:3117   */\n      pop\n      pop\n      jump\t// out\n        /* \"#utility.yul\":3123:3333   */\n    tag_34:\n        /* \"#utility.yul\":3210:3214   */\n      0x00\n        /* \"#utility.yul\":3248:3250   */\n      0x20\n        /* \"#utility.yul\":3237:3246   */\n      dup3\n        /* \"#utility.yul\":3233:3251   */\n      add\n        /* \"#utility.yul\":3225:3251   */\n      swap1\n      pop\n        /* \"#utility.yul\":3261:3326   */\n      tag_295\n        /* \"#utility.yul\":3323:3324   */\n      0x00\n        /* \"#utility.yul\":3312:3321   */\n      dup4\n        /* \"#utility.yul\":3308:3325   */\n      add\n        /* \"#utility.yul\":3299:3305   */\n      dup5\n        /* \"#utility.yul\":3261:3326   */\n      tag_232\n      jump\t// in\n    tag_295:\n        /* \"#utility.yul\":3123:3333   */\n      swap3\n      swap2\n      pop\n      pop\n      jump\t// out\n        /* \"#utility.yul\":3339:3668   */\n    tag_37:\n        /* \"#utility.yul\":3398:3404   */\n      0x00\n        /* \"#utility.yul\":3447:3449   */\n      0x20\n        /* \"#utility.yul\":3435:3444   */\n      dup3\n        /* \"#utility.yul\":3426:3433   */\n      dup5\n        /* \"#utility.yul\":3422:3445   */\n      sub\n        /* \"#utility.yul\":3418:3450   */\n      slt\n        /* \"#utility.yul\":3415:3534   */\n      iszero\n      tag_297\n      jumpi\n        /* \"#utility.yul\":3453:3532   */\n      tag_298\n      tag_222\n      jump\t// in\n    tag_298:\n        /* \"#utility.yul\":3415:3534   */\n    tag_297:\n        /* \"#utility.yul\":3573:3574   */\n      0x00\n        /* \"#utility.yul\":3598:3651   */\n      tag_299\n        /* \"#utility.yul\":3643:3650   */\n      dup5\n        /* \"#utility.yul\":3634:3640   */\n      dup3\n        /* \"#utility.yul\":3623:3632   */\n      dup6\n        /* \"#utility.yul\":3619:3641   */\n      add\n        /* \"#utility.yul\":3598:3651   */\n      tag_227\n      jump\t// in\n    tag_299:\n        /* \"#utility.yul\":3588:3651   */\n      swap2\n      pop\n        /* \"#utility.yul\":3544:3661   */\n      pop\n        /* \"#utility.yul\":3339:3668   */\n      swap3\n      swap2\n      pop\n      pop\n      jump\t// out\n        /* \"#utility.yul\":3674:3792   */\n    tag_233:\n        /* \"#utility.yul\":3761:3785   */\n      tag_301\n        /* \"#utility.yul\":3779:3784   */\n      dup2\n        /* \"#utility.yul\":3761:3785   */\n      tag_228\n      jump\t// in\n    tag_301:\n        /* \"#utility.yul\":3756:3759   */\n      dup3\n        /* \"#utility.yul\":3749:3786   */\n      mstore\n        /* \"#utility.yul\":3674:3792   */\n      pop\n      pop\n      jump\t// out\n        /* \"#utility.yul\":3798:4020   */\n    tag_40:\n        /* \"#utility.yul\":3891:3895   */\n      0x00\n        /* \"#utility.yul\":3929:3931   */\n      0x20\n        /* \"#utility.yul\":3918:3927   */\n      dup3\n        /* \"#utility.yul\":3914:3932   */\n      add\n        /* \"#utility.yul\":3906:3932   */\n      swap1\n      pop\n        /* \"#utility.yul\":3942:4013   */\n      tag_303\n        /* \"#utility.yul\":4010:4011   */\n      0x00\n        /* \"#utility.yul\":3999:4008   */\n      dup4\n        /* \"#utility.yul\":3995:4012   */\n      add\n        /* \"#utility.yul\":3986:3992   */\n      dup5\n        /* \"#utility.yul\":3942:4013   */\n      tag_233\n      jump\t// in\n    tag_303:\n        /* \"#utility.yul\":3798:4020   */\n      swap3\n      swap2\n      pop\n      pop\n      jump\t// out\n        /* \"#utility.yul\":4026:4169   */\n    tag_234:\n        /* \"#utility.yul\":4122:4128   */\n      0x00\n        /* \"#utility.yul\":4156:4161   */\n      dup2\n        /* \"#utility.yul\":4150:4162   */\n      mload\n        /* \"#utility.yul\":4140:4162   */\n      swap1\n      pop\n        /* \"#utility.yul\":4026:4169   */\n      swap2\n      swap1\n      pop\n      jump\t// out\n        /* \"#utility.yul\":4175:4388   */\n    tag_235:\n        /* \"#utility.yul\":4303:4314   */\n      0x00\n        /* \"#utility.yul\":4337:4343   */\n      dup3\n        /* \"#utility.yul\":4332:4335   */\n      dup3\n        /* \"#utility.yul\":4325:4344   */\n      mstore\n        /* \"#utility.yul\":4377:4381   */\n      0x20\n        /* \"#utility.yul\":4372:4375   */\n      dup3\n        /* \"#utility.yul\":4368:4382   */\n      add\n        /* \"#utility.yul\":4353:4382   */\n      swap1\n      pop\n        /* \"#utility.yul\":4175:4388   */\n      swap3\n      swap2\n      pop\n      pop\n      jump\t// out\n        /* \"#utility.yul\":4394:4555   */\n    tag_236:\n        /* \"#utility.yul\":4490:4494   */\n      0x00\n        /* \"#utility.yul\":4513:4516   */\n      dup2\n        /* \"#utility.yul\":4505:4516   */\n      swap1\n      pop\n        /* \"#utility.yul\":4543:4547   */\n      0x20\n        /* \"#utility.yul\":4538:4541   */\n      dup3\n        /* \"#utility.yul\":4534:4548   */\n      add\n        /* \"#utility.yul\":4526:4548   */\n      swap1\n      pop\n        /* \"#utility.yul\":4394:4555   */\n      swap2\n      swap1\n      pop\n      jump\t// out\n        /* \"#utility.yul\":4561:4669   */\n    tag_237:\n        /* \"#utility.yul\":4638:4662   */\n      tag_308\n        /* \"#utility.yul\":4656:4661   */\n      dup2\n        /* \"#utility.yul\":4638:4662   */\n      tag_228\n      jump\t// in\n    tag_308:\n        /* \"#utility.yul\":4633:4636   */\n      dup3\n        /* \"#utility.yul\":4626:4663   */\n      mstore\n        /* \"#utility.yul\":4561:4669   */\n      pop\n      pop\n      jump\t// out\n        /* \"#utility.yul\":4755:5268   */\n    tag_238:\n        /* \"#utility.yul\":4900:4904   */\n      0x40\n        /* \"#utility.yul\":4895:4898   */\n      dup3\n        /* \"#utility.yul\":4891:4905   */\n      add\n        /* \"#utility.yul\":4989:4993   */\n      0x00\n        /* \"#utility.yul\":4982:4987   */\n      dup3\n        /* \"#utility.yul\":4978:4994   */\n      add\n        /* \"#utility.yul\":4972:4995   */\n      mload\n        /* \"#utility.yul\":5008:5071   */\n      tag_310\n        /* \"#utility.yul\":5065:5069   */\n      0x00\n        /* \"#utility.yul\":5060:5063   */\n      dup6\n        /* \"#utility.yul\":5056:5070   */\n      add\n        /* \"#utility.yul\":5042:5054   */\n      dup3\n        /* \"#utility.yul\":5008:5071   */\n      tag_237\n      jump\t// in\n    tag_310:\n        /* \"#utility.yul\":4915:5081   */\n      pop\n        /* \"#utility.yul\":5169:5173   */\n      0x20\n        /* \"#utility.yul\":5162:5167   */\n      dup3\n        /* \"#utility.yul\":5158:5174   */\n      add\n        /* \"#utility.yul\":5152:5175   */\n      mload\n        /* \"#utility.yul\":5188:5251   */\n      tag_311\n        /* \"#utility.yul\":5245:5249   */\n      0x20\n        /* \"#utility.yul\":5240:5243   */\n      dup6\n        /* \"#utility.yul\":5236:5250   */\n      add\n        /* \"#utility.yul\":5222:5234   */\n      dup3\n        /* \"#utility.yul\":5188:5251   */\n      tag_237\n      jump\t// in\n    tag_311:\n        /* \"#utility.yul\":5091:5261   */\n      pop\n        /* \"#utility.yul\":4869:5268   */\n      pop\n        /* \"#utility.yul\":4755:5268   */\n      pop\n      pop\n      jump\t// out\n        /* \"#utility.yul\":5274:5569   */\n    tag_239:\n        /* \"#utility.yul\":5401:5411   */\n      0x00\n        /* \"#utility.yul\":5422:5526   */\n      tag_313\n        /* \"#utility.yul\":5522:5525   */\n      dup4\n        /* \"#utility.yul\":5514:5520   */\n      dup4\n        /* \"#utility.yul\":5422:5526   */\n      tag_238\n      jump\t// in\n    tag_313:\n        /* \"#utility.yul\":5558:5562   */\n      0x40\n        /* \"#utility.yul\":5553:5556   */\n      dup4\n        /* \"#utility.yul\":5549:5563   */\n      add\n        /* \"#utility.yul\":5535:5563   */\n      swap1\n      pop\n        /* \"#utility.yul\":5274:5569   */\n      swap3\n      swap2\n      pop\n      pop\n      jump\t// out\n        /* \"#utility.yul\":5575:5717   */\n    tag_240:\n        /* \"#utility.yul\":5674:5678   */\n      0x00\n        /* \"#utility.yul\":5706:5710   */\n      0x20\n        /* \"#utility.yul\":5701:5704   */\n      dup3\n        /* \"#utility.yul\":5697:5711   */\n      add\n        /* \"#utility.yul\":5689:5711   */\n      swap1\n      pop\n        /* \"#utility.yul\":5575:5717   */\n      swap2\n      swap1\n      pop\n      jump\t// out\n        /* \"#utility.yul\":5807:6771   */\n    tag_241:\n        /* \"#utility.yul\":5984:5987   */\n      0x00\n        /* \"#utility.yul\":6013:6096   */\n      tag_316\n        /* \"#utility.yul\":6090:6095   */\n      dup3\n        /* \"#utility.yul\":6013:6096   */\n      tag_234\n      jump\t// in\n    tag_316:\n        /* \"#utility.yul\":6112:6227   */\n      tag_317\n        /* \"#utility.yul\":6220:6226   */\n      dup2\n        /* \"#utility.yul\":6215:6218   */\n      dup6\n        /* \"#utility.yul\":6112:6227   */\n      tag_235\n      jump\t// in\n    tag_317:\n        /* \"#utility.yul\":6105:6227   */\n      swap4\n      pop\n        /* \"#utility.yul\":6251:6336   */\n      tag_318\n        /* \"#utility.yul\":6330:6335   */\n      dup4\n        /* \"#utility.yul\":6251:6336   */\n      tag_236\n      jump\t// in\n    tag_318:\n        /* \"#utility.yul\":6359:6366   */\n      dup1\n        /* \"#utility.yul\":6390:6391   */\n      0x00\n        /* \"#utility.yul\":6375:6746   */\n    tag_319:\n        /* \"#utility.yul\":6400:6406   */\n      dup4\n        /* \"#utility.yul\":6397:6398   */\n      dup2\n        /* \"#utility.yul\":6394:6407   */\n      lt\n        /* \"#utility.yul\":6375:6746   */\n      iszero\n      tag_321\n      jumpi\n        /* \"#utility.yul\":6476:6482   */\n      dup2\n        /* \"#utility.yul\":6470:6483   */\n      mload\n        /* \"#utility.yul\":6503:6624   */\n      tag_322\n        /* \"#utility.yul\":6620:6623   */\n      dup9\n        /* \"#utility.yul\":6605:6618   */\n      dup3\n        /* \"#utility.yul\":6503:6624   */\n      tag_239\n      jump\t// in\n    tag_322:\n        /* \"#utility.yul\":6496:6624   */\n      swap8\n      pop\n        /* \"#utility.yul\":6647:6736   */\n      tag_323\n        /* \"#utility.yul\":6729:6735   */\n      dup4\n        /* \"#utility.yul\":6647:6736   */\n      tag_240\n      jump\t// in\n    tag_323:\n        /* \"#utility.yul\":6637:6736   */\n      swap3\n      pop\n        /* \"#utility.yul\":6435:6746   */\n      pop\n        /* \"#utility.yul\":6422:6423   */\n      0x01\n        /* \"#utility.yul\":6419:6420   */\n      dup2\n        /* \"#utility.yul\":6415:6424   */\n      add\n        /* \"#utility.yul\":6410:6424   */\n      swap1\n      pop\n        /* \"#utility.yul\":6375:6746   */\n      jump(tag_319)\n    tag_321:\n        /* \"#utility.yul\":6379:6393   */\n      pop\n        /* \"#utility.yul\":6762:6765   */\n      dup6\n        /* \"#utility.yul\":6755:6765   */\n      swap4\n      pop\n        /* \"#utility.yul\":5989:6771   */\n      pop\n      pop\n      pop\n        /* \"#utility.yul\":5807:6771   */\n      swap3\n      swap2\n      pop\n      pop\n      jump\t// out\n        /* \"#utility.yul\":6777:7266   */\n    tag_45:\n        /* \"#utility.yul\":6978:6982   */\n      0x00\n        /* \"#utility.yul\":7016:7018   */\n      0x20\n        /* \"#utility.yul\":7005:7014   */\n      dup3\n        /* \"#utility.yul\":7001:7019   */\n      add\n        /* \"#utility.yul\":6993:7019   */\n      swap1\n      pop\n        /* \"#utility.yul\":7065:7074   */\n      dup2\n        /* \"#utility.yul\":7059:7063   */\n      dup2\n        /* \"#utility.yul\":7055:7075   */\n      sub\n        /* \"#utility.yul\":7051:7052   */\n      0x00\n        /* \"#utility.yul\":7040:7049   */\n      dup4\n        /* \"#utility.yul\":7036:7053   */\n      add\n        /* \"#utility.yul\":7029:7076   */\n      mstore\n        /* \"#utility.yul\":7093:7259   */\n      tag_325\n        /* \"#utility.yul\":7254:7258   */\n      dup2\n        /* \"#utility.yul\":7245:7251   */\n      dup5\n        /* \"#utility.yul\":7093:7259   */\n      tag_241\n      jump\t// in\n    tag_325:\n        /* \"#utility.yul\":7085:7259   */\n      swap1\n      pop\n        /* \"#utility.yul\":6777:7266   */\n      swap3\n      swap2\n      pop\n      pop\n      jump\t// out\n        /* \"#utility.yul\":7272:7891   */\n    tag_51:\n        /* \"#utility.yul\":7349:7355   */\n      0x00\n        /* \"#utility.yul\":7357:7363   */\n      0x00\n        /* \"#utility.yul\":7365:7371   */\n      0x00\n        /* \"#utility.yul\":7414:7416   */\n      0x60\n        /* \"#utility.yul\":7402:7411   */\n      dup5\n        /* \"#utility.yul\":7393:7400   */\n      dup7\n        /* \"#utility.yul\":7389:7412   */\n      sub\n        /* \"#utility.yul\":7385:7417   */\n      slt\n        /* \"#utility.yul\":7382:7501   */\n      iszero\n      tag_327\n      jumpi\n        /* \"#utility.yul\":7420:7499   */\n      tag_328\n      tag_222\n      jump\t// in\n    tag_328:\n        /* \"#utility.yul\":7382:7501   */\n    tag_327:\n        /* \"#utility.yul\":7540:7541   */\n      0x00\n        /* \"#utility.yul\":7565:7618   */\n      tag_329\n        /* \"#utility.yul\":7610:7617   */\n      dup7\n        /* \"#utility.yul\":7601:7607   */\n      dup3\n        /* \"#utility.yul\":7590:7599   */\n      dup8\n        /* \"#utility.yul\":7586:7608   */\n      add\n        /* \"#utility.yul\":7565:7618   */\n      tag_227\n      jump\t// in\n    tag_329:\n        /* \"#utility.yul\":7555:7618   */\n      swap4\n      pop\n        /* \"#utility.yul\":7511:7628   */\n      pop\n        /* \"#utility.yul\":7667:7669   */\n      0x20\n        /* \"#utility.yul\":7693:7746   */\n      tag_330\n        /* \"#utility.yul\":7738:7745   */\n      dup7\n        /* \"#utility.yul\":7729:7735   */\n      dup3\n        /* \"#utility.yul\":7718:7727   */\n      dup8\n        /* \"#utility.yul\":7714:7736   */\n      add\n        /* \"#utility.yul\":7693:7746   */\n      tag_227\n      jump\t// in\n    tag_330:\n        /* \"#utility.yul\":7683:7746   */\n      swap3\n      pop\n        /* \"#utility.yul\":7638:7756   */\n      pop\n        /* \"#utility.yul\":7795:7797   */\n      0x40\n        /* \"#utility.yul\":7821:7874   */\n      tag_331\n        /* \"#utility.yul\":7866:7873   */\n      dup7\n        /* \"#utility.yul\":7857:7863   */\n      dup3\n        /* \"#utility.yul\":7846:7855   */\n      dup8\n        /* \"#utility.yul\":7842:7864   */\n      add\n        /* \"#utility.yul\":7821:7874   */\n      tag_230\n      jump\t// in\n    tag_331:\n        /* \"#utility.yul\":7811:7874   */\n      swap2\n      pop\n        /* \"#utility.yul\":7766:7884   */\n      pop\n        /* \"#utility.yul\":7272:7891   */\n      swap3\n      pop\n      swap3\n      pop\n      swap3\n      jump\t// out\n        /* \"#utility.yul\":7897:7983   */\n    tag_242:\n        /* \"#utility.yul\":7932:7939   */\n      0x00\n        /* \"#utility.yul\":7972:7976   */\n      0xff\n        /* \"#utility.yul\":7965:7970   */\n      dup3\n        /* \"#utility.yul\":7961:7977   */\n      and\n        /* \"#utility.yul\":7950:7977   */\n      swap1\n      pop\n        /* \"#utility.yul\":7897:7983   */\n      swap2\n      swap1\n      pop\n      jump\t// out\n        /* \"#utility.yul\":7989:8101   */\n    tag_243:\n        /* \"#utility.yul\":8072:8094   */\n      tag_334\n        /* \"#utility.yul\":8088:8093   */\n      dup2\n        /* \"#utility.yul\":8072:8094   */\n      tag_242\n      jump\t// in\n    tag_334:\n        /* \"#utility.yul\":8067:8070   */\n      dup3\n        /* \"#utility.yul\":8060:8095   */\n      mstore\n        /* \"#utility.yul\":7989:8101   */\n      pop\n      pop\n      jump\t// out\n        /* \"#utility.yul\":8107:8321   */\n    tag_57:\n        /* \"#utility.yul\":8196:8200   */\n      0x00\n        /* \"#utility.yul\":8234:8236   */\n      0x20\n        /* \"#utility.yul\":8223:8232   */\n      dup3\n        /* \"#utility.yul\":8219:8237   */\n      add\n        /* \"#utility.yul\":8211:8237   */\n      swap1\n      pop\n        /* \"#utility.yul\":8247:8314   */\n      tag_336\n        /* \"#utility.yul\":8311:8312   */\n      0x00\n        /* \"#utility.yul\":8300:8309   */\n      dup4\n        /* \"#utility.yul\":8296:8313   */\n      add\n        /* \"#utility.yul\":8287:8293   */\n      dup5\n        /* \"#utility.yul\":8247:8314   */\n      tag_243\n      jump\t// in\n    tag_336:\n        /* \"#utility.yul\":8107:8321   */\n      swap3\n      swap2\n      pop\n      pop\n      jump\t// out\n        /* \"#utility.yul\":8327:8659   */\n    tag_62:\n        /* \"#utility.yul\":8448:8452   */\n      0x00\n        /* \"#utility.yul\":8486:8488   */\n      0x40\n        /* \"#utility.yul\":8475:8484   */\n      dup3\n        /* \"#utility.yul\":8471:8489   */\n      add\n        /* \"#utility.yul\":8463:8489   */\n      swap1\n      pop\n        /* \"#utility.yul\":8499:8570   */\n      tag_338\n        /* \"#utility.yul\":8567:8568   */\n      0x00\n        /* \"#utility.yul\":8556:8565   */\n      dup4\n        /* \"#utility.yul\":8552:8569   */\n      add\n        /* \"#utility.yul\":8543:8549   */\n      dup6\n        /* \"#utility.yul\":8499:8570   */\n      tag_233\n      jump\t// in\n    tag_338:\n        /* \"#utility.yul\":8580:8652   */\n      tag_339\n        /* \"#utility.yul\":8648:8650   */\n      0x20\n        /* \"#utility.yul\":8637:8646   */\n      dup4\n        /* \"#utility.yul\":8633:8651   */\n      add\n        /* \"#utility.yul\":8624:8630   */\n      dup5\n        /* \"#utility.yul\":8580:8652   */\n      tag_233\n      jump\t// in\n    tag_339:\n        /* \"#utility.yul\":8327:8659   */\n      swap4\n      swap3\n      pop\n      pop\n      pop\n      jump\t// out\n        /* \"#utility.yul\":8665:8783   */\n    tag_244:\n        /* \"#utility.yul\":8752:8776   */\n      tag_341\n        /* \"#utility.yul\":8770:8775   */\n      dup2\n        /* \"#utility.yul\":8752:8776   */\n      tag_225\n      jump\t// in\n    tag_341:\n        /* \"#utility.yul\":8747:8750   */\n      dup3\n        /* \"#utility.yul\":8740:8777   */\n      mstore\n        /* \"#utility.yul\":8665:8783   */\n      pop\n      pop\n      jump\t// out\n        /* \"#utility.yul\":8789:9011   */\n    tag_70:\n        /* \"#utility.yul\":8882:8886   */\n      0x00\n        /* \"#utility.yul\":8920:8922   */\n      0x20\n        /* \"#utility.yul\":8909:8918   */\n      dup3\n        /* \"#utility.yul\":8905:8923   */\n      add\n        /* \"#utility.yul\":8897:8923   */\n      swap1\n      pop\n        /* \"#utility.yul\":8933:9004   */\n      tag_343\n        /* \"#utility.yul\":9001:9002   */\n      0x00\n        /* \"#utility.yul\":8990:8999   */\n      dup4\n        /* \"#utility.yul\":8986:9003   */\n      add\n        /* \"#utility.yul\":8977:8983   */\n      dup5\n        /* \"#utility.yul\":8933:9004   */\n      tag_244\n      jump\t// in\n    tag_343:\n        /* \"#utility.yul\":8789:9011   */\n      swap3\n      swap2\n      pop\n      pop\n      jump\t// out\n        /* \"#utility.yul\":9017:9636   */\n    tag_76:\n        /* \"#utility.yul\":9094:9100   */\n      0x00\n        /* \"#utility.yul\":9102:9108   */\n      0x00\n        /* \"#utility.yul\":9110:9116   */\n      0x00\n        /* \"#utility.yul\":9159:9161   */\n      0x60\n        /* \"#utility.yul\":9147:9156   */\n      dup5\n        /* \"#utility.yul\":9138:9145   */\n      dup7\n        /* \"#utility.yul\":9134:9157   */\n      sub\n        /* \"#utility.yul\":9130:9162   */\n      slt\n        /* \"#utility.yul\":9127:9246   */\n      iszero\n      tag_345\n      jumpi\n        /* \"#utility.yul\":9165:9244   */\n      tag_346\n      tag_222\n      jump\t// in\n    tag_346:\n        /* \"#utility.yul\":9127:9246   */\n    tag_345:\n        /* \"#utility.yul\":9285:9286   */\n      0x00\n        /* \"#utility.yul\":9310:9363   */\n      tag_347\n        /* \"#utility.yul\":9355:9362   */\n      dup7\n        /* \"#utility.yul\":9346:9352   */\n      dup3\n        /* \"#utility.yul\":9335:9344   */\n      dup8\n        /* \"#utility.yul\":9331:9353   */\n      add\n        /* \"#utility.yul\":9310:9363   */\n      tag_227\n      jump\t// in\n    tag_347:\n        /* \"#utility.yul\":9300:9363   */\n      swap4\n      pop\n        /* \"#utility.yul\":9256:9373   */\n      pop\n        /* \"#utility.yul\":9412:9414   */\n      0x20\n        /* \"#utility.yul\":9438:9491   */\n      tag_348\n        /* \"#utility.yul\":9483:9490   */\n      dup7\n        /* \"#utility.yul\":9474:9480   */\n      dup3\n        /* \"#utility.yul\":9463:9472   */\n      dup8\n        /* \"#utility.yul\":9459:9481   */\n      add\n        /* \"#utility.yul\":9438:9491   */\n      tag_230\n      jump\t// in\n    tag_348:\n        /* \"#utility.yul\":9428:9491   */\n      swap3\n      pop\n        /* \"#utility.yul\":9383:9501   */\n      pop\n        /* \"#utility.yul\":9540:9542   */\n      0x40\n        /* \"#utility.yul\":9566:9619   */\n      tag_349\n        /* \"#utility.yul\":9611:9618   */\n      dup7\n        /* \"#utility.yul\":9602:9608   */\n      dup3\n        /* \"#utility.yul\":9591:9600   */\n      dup8\n        /* \"#utility.yul\":9587:9609   */\n      add\n        /* \"#utility.yul\":9566:9619   */\n      tag_230\n      jump\t// in\n    tag_349:\n        /* \"#utility.yul\":9556:9619   */\n      swap2\n      pop\n        /* \"#utility.yul\":9511:9629   */\n      pop\n        /* \"#utility.yul\":9017:9636   */\n      swap3\n      pop\n      swap3\n      pop\n      swap3\n      jump\t// out\n        /* \"#utility.yul\":9642:10116   */\n    tag_98:\n        /* \"#utility.yul\":9710:9716   */\n      0x00\n        /* \"#utility.yul\":9718:9724   */\n      0x00\n        /* \"#utility.yul\":9767:9769   */\n      0x40\n        /* \"#utility.yul\":9755:9764   */\n      dup4\n        /* \"#utility.yul\":9746:9753   */\n      dup6\n        /* \"#utility.yul\":9742:9765   */\n      sub\n        /* \"#utility.yul\":9738:9770   */\n      slt\n        /* \"#utility.yul\":9735:9854   */\n      iszero\n      tag_351\n      jumpi\n        /* \"#utility.yul\":9773:9852   */\n      tag_352\n      tag_222\n      jump\t// in\n    tag_352:\n        /* \"#utility.yul\":9735:9854   */\n    tag_351:\n        /* \"#utility.yul\":9893:9894   */\n      0x00\n        /* \"#utility.yul\":9918:9971   */\n      tag_353\n        /* \"#utility.yul\":9963:9970   */\n      dup6\n        /* \"#utility.yul\":9954:9960   */\n      dup3\n        /* \"#utility.yul\":9943:9952   */\n      dup7\n        /* \"#utility.yul\":9939:9961   */\n      add\n        /* \"#utility.yul\":9918:9971   */\n      tag_227\n      jump\t// in\n    tag_353:\n        /* \"#utility.yul\":9908:9971   */\n      swap3\n      pop\n        /* \"#utility.yul\":9864:9981   */\n      pop\n        /* \"#utility.yul\":10020:10022   */\n      0x20\n        /* \"#utility.yul\":10046:10099   */\n      tag_354\n        /* \"#utility.yul\":10091:10098   */\n      dup6\n        /* \"#utility.yul\":10082:10088   */\n      dup3\n        /* \"#utility.yul\":10071:10080   */\n      dup7\n        /* \"#utility.yul\":10067:10089   */\n      add\n        /* \"#utility.yul\":10046:10099   */\n      tag_227\n      jump\t// in\n    tag_354:\n        /* \"#utility.yul\":10036:10099   */\n      swap2\n      pop\n        /* \"#utility.yul\":9991:10109   */\n      pop\n        /* \"#utility.yul\":9642:10116   */\n      swap3\n      pop\n      swap3\n      swap1\n      pop\n      jump\t// out\n        /* \"#utility.yul\":10122:10302   */\n    tag_245:\n        /* \"#utility.yul\":10170:10247   */\n      0x4e487b7100000000000000000000000000000000000000000000000000000000\n        /* \"#utility.yul\":10167:10168   */\n      0x00\n        /* \"#utility.yul\":10160:10248   */\n      mstore\n        /* \"#utility.yul\":10267:10271   */\n      0x22\n        /* \"#utility.yul\":10264:10265   */\n      0x04\n        /* \"#utility.yul\":10257:10272   */\n      mstore\n        /* \"#utility.yul\":10291:10295   */\n      0x24\n        /* \"#utility.yul\":10288:10289   */\n      0x00\n        /* \"#utility.yul\":10281:10296   */\n      revert\n        /* \"#utility.yul\":10308:10628   */\n    tag_105:\n        /* \"#utility.yul\":10352:10358   */\n      0x00\n        /* \"#utility.yul\":10389:10390   */\n      0x02\n        /* \"#utility.yul\":10383:10387   */\n      dup3\n        /* \"#utility.yul\":10379:10391   */\n      div\n        /* \"#utility.yul\":10369:10391   */\n      swap1\n      pop\n        /* \"#utility.yul\":10436:10437   */\n      0x01\n        /* \"#utility.yul\":10430:10434   */\n      dup3\n        /* \"#utility.yul\":10426:10438   */\n      and\n        /* \"#utility.yul\":10457:10475   */\n      dup1\n        /* \"#utility.yul\":10447:10528   */\n      tag_357\n      jumpi\n        /* \"#utility.yul\":10513:10517   */\n      0x7f\n        /* \"#utility.yul\":10505:10511   */\n      dup3\n        /* \"#utility.yul\":10501:10518   */\n      and\n        /* \"#utility.yul\":10491:10518   */\n      swap2\n      pop\n        /* \"#utility.yul\":10447:10528   */\n    tag_357:\n        /* \"#utility.yul\":10575:10577   */\n      0x20\n        /* \"#utility.yul\":10567:10573   */\n      dup3\n        /* \"#utility.yul\":10564:10578   */\n      lt\n        /* \"#utility.yul\":10544:10562   */\n      dup2\n        /* \"#utility.yul\":10541:10579   */\n      sub\n        /* \"#utility.yul\":10538:10622   */\n      tag_358\n      jumpi\n        /* \"#utility.yul\":10594:10612   */\n      tag_359\n      tag_245\n      jump\t// in\n    tag_359:\n        /* \"#utility.yul\":10538:10622   */\n    tag_358:\n        /* \"#utility.yul\":10359:10628   */\n      pop\n        /* \"#utility.yul\":10308:10628   */\n      swap2\n      swap1\n      pop\n      jump\t// out\n        /* \"#utility.yul\":10634:10814   */\n    tag_246:\n        /* \"#utility.yul\":10682:10759   */\n      0x4e487b7100000000000000000000000000000000000000000000000000000000\n        /* \"#utility.yul\":10679:10680   */\n      0x00\n        /* \"#utility.yul\":10672:10760   */\n      mstore\n        /* \"#utility.yul\":10779:10783   */\n      0x11\n        /* \"#utility.yul\":10776:10777   */\n      0x04\n        /* \"#utility.yul\":10769:10784   */\n      mstore\n        /* \"#utility.yul\":10803:10807   */\n      0x24\n        /* \"#utility.yul\":10800:10801   */\n      0x00\n        /* \"#utility.yul\":10793:10808   */\n      revert\n        /* \"#utility.yul\":10820:11014   */\n    tag_115:\n        /* \"#utility.yul\":10860:10864   */\n      0x00\n        /* \"#utility.yul\":10880:10900   */\n      tag_362\n        /* \"#utility.yul\":10898:10899   */\n      dup3\n        /* \"#utility.yul\":10880:10900   */\n      tag_228\n      jump\t// in\n    tag_362:\n        /* \"#utility.yul\":10875:10900   */\n      swap2\n      pop\n        /* \"#utility.yul\":10914:10934   */\n      tag_363\n        /* \"#utility.yul\":10932:10933   */\n      dup4\n        /* \"#utility.yul\":10914:10934   */\n      tag_228\n      jump\t// in\n    tag_363:\n        /* \"#utility.yul\":10909:10934   */\n      swap3\n      pop\n        /* \"#utility.yul\":10958:10959   */\n      dup3\n        /* \"#utility.yul\":10955:10956   */\n      dup3\n        /* \"#utility.yul\":10951:10960   */\n      sub\n        /* \"#utility.yul\":10943:10960   */\n      swap1\n      pop\n        /* \"#utility.yul\":10982:10983   */\n      dup2\n        /* \"#utility.yul\":10976:10980   */\n      dup2\n        /* \"#utility.yul\":10973:10984   */\n      gt\n        /* \"#utility.yul\":10970:11007   */\n      iszero\n      tag_364\n      jumpi\n        /* \"#utility.yul\":10987:11005   */\n      tag_365\n      tag_246\n      jump\t// in\n    tag_365:\n        /* \"#utility.yul\":10970:11007   */\n    tag_364:\n        /* \"#utility.yul\":10820:11014   */\n      swap3\n      swap2\n      pop\n      pop\n      jump\t// out\n        /* \"#utility.yul\":11020:11199   */\n    tag_247:\n        /* \"#utility.yul\":11160:11191   */\n      0x496e73756666696369656e7420756e6c6f636b65642062616c616e6365000000\n        /* \"#utility.yul\":11156:11157   */\n      0x00\n        /* \"#utility.yul\":11148:11154   */\n      dup3\n        /* \"#utility.yul\":11144:11158   */\n      add\n        /* \"#utility.yul\":11137:11192   */\n      mstore\n        /* \"#utility.yul\":11020:11199   */\n      pop\n      jump\t// out\n        /* \"#utility.yul\":11205:11571   */\n    tag_248:\n        /* \"#utility.yul\":11347:11350   */\n      0x00\n        /* \"#utility.yul\":11368:11435   */\n      tag_368\n        /* \"#utility.yul\":11432:11434   */\n      0x1d\n        /* \"#utility.yul\":11427:11430   */\n      dup4\n        /* \"#utility.yul\":11368:11435   */\n      tag_217\n      jump\t// in\n    tag_368:\n        /* \"#utility.yul\":11361:11435   */\n      swap2\n      pop\n        /* \"#utility.yul\":11444:11537   */\n      tag_369\n        /* \"#utility.yul\":11533:11536   */\n      dup3\n        /* \"#utility.yul\":11444:11537   */\n      tag_247\n      jump\t// in\n    tag_369:\n        /* \"#utility.yul\":11562:11564   */\n      0x20\n        /* \"#utility.yul\":11557:11560   */\n      dup3\n        /* \"#utility.yul\":11553:11565   */\n      add\n        /* \"#utility.yul\":11546:11565   */\n      swap1\n      pop\n        /* \"#utility.yul\":11205:11571   */\n      swap2\n      swap1\n      pop\n      jump\t// out\n        /* \"#utility.yul\":11577:11996   */\n    tag_124:\n        /* \"#utility.yul\":11743:11747   */\n      0x00\n        /* \"#utility.yul\":11781:11783   */\n      0x20\n        /* \"#utility.yul\":11770:11779   */\n      dup3\n        /* \"#utility.yul\":11766:11784   */\n      add\n        /* \"#utility.yul\":11758:11784   */\n      swap1\n      pop\n        /* \"#utility.yul\":11830:11839   */\n      dup2\n        /* \"#utility.yul\":11824:11828   */\n      dup2\n        /* \"#utility.yul\":11820:11840   */\n      sub\n        /* \"#utility.yul\":11816:11817   */\n      0x00\n        /* \"#utility.yul\":11805:11814   */\n      dup4\n        /* \"#utility.yul\":11801:11818   */\n      add\n        /* \"#utility.yul\":11794:11841   */\n      mstore\n        /* \"#utility.yul\":11858:11989   */\n      tag_371\n        /* \"#utility.yul\":11984:11988   */\n      dup2\n        /* \"#utility.yul\":11858:11989   */\n      tag_248\n      jump\t// in\n    tag_371:\n        /* \"#utility.yul\":11850:11989   */\n      swap1\n      pop\n        /* \"#utility.yul\":11577:11996   */\n      swap2\n      swap1\n      pop\n      jump\t// out\n        /* \"#utility.yul\":12002:12175   */\n    tag_249:\n        /* \"#utility.yul\":12142:12167   */\n      0x416d6f756e74206d75737420626520706f736974697665000000000000000000\n        /* \"#utility.yul\":12138:12139   */\n      0x00\n        /* \"#utility.yul\":12130:12136   */\n      dup3\n        /* \"#utility.yul\":12126:12140   */\n      add\n        /* \"#utility.yul\":12119:12168   */\n      mstore\n        /* \"#utility.yul\":12002:12175   */\n      pop\n      jump\t// out\n        /* \"#utility.yul\":12181:12547   */\n    tag_250:\n        /* \"#utility.yul\":12323:12326   */\n      0x00\n        /* \"#utility.yul\":12344:12411   */\n      tag_374\n        /* \"#utility.yul\":12408:12410   */\n      0x17\n        /* \"#utility.yul\":12403:12406   */\n      dup4\n        /* \"#utility.yul\":12344:12411   */\n      tag_217\n      jump\t// in\n    tag_374:\n        /* \"#utility.yul\":12337:12411   */\n      swap2\n      pop\n        /* \"#utility.yul\":12420:12513   */\n      tag_375\n        /* \"#utility.yul\":12509:12512   */\n      dup3\n        /* \"#utility.yul\":12420:12513   */\n      tag_249\n      jump\t// in\n    tag_375:\n        /* \"#utility.yul\":12538:12540   */\n      0x20\n        /* \"#utility.yul\":12533:12536   */\n      dup3\n        /* \"#utility.yul\":12529:12541   */\n      add\n        /* \"#utility.yul\":12522:12541   */\n      swap1\n      pop\n        /* \"#utility.yul\":12181:12547   */\n      swap2\n      swap1\n      pop\n      jump\t// out\n        /* \"#utility.yul\":12553:12972   */\n    tag_144:\n        /* \"#utility.yul\":12719:12723   */\n      0x00\n        /* \"#utility.yul\":12757:12759   */\n      0x20\n        /* \"#utility.yul\":12746:12755   */\n      dup3\n        /* \"#utility.yul\":12742:12760   */\n      add\n        /* \"#utility.yul\":12734:12760   */\n      swap1\n      pop\n        /* \"#utility.yul\":12806:12815   */\n      dup2\n        /* \"#utility.yul\":12800:12804   */\n      dup2\n        /* \"#utility.yul\":12796:12816   */\n      sub\n        /* \"#utility.yul\":12792:12793   */\n      0x00\n        /* \"#utility.yul\":12781:12790   */\n      dup4\n        /* \"#utility.yul\":12777:12794   */\n      add\n        /* \"#utility.yul\":12770:12817   */\n      mstore\n        /* \"#utility.yul\":12834:12965   */\n      tag_377\n        /* \"#utility.yul\":12960:12964   */\n      dup2\n        /* \"#utility.yul\":12834:12965   */\n      tag_250\n      jump\t// in\n    tag_377:\n        /* \"#utility.yul\":12826:12965   */\n      swap1\n      pop\n        /* \"#utility.yul\":12553:12972   */\n      swap2\n      swap1\n      pop\n      jump\t// out\n        /* \"#utility.yul\":12978:13157   */\n    tag_251:\n        /* \"#utility.yul\":13118:13149   */\n      0x556e6c6f636b2074696d65206d75737420626520696e20667574757265000000\n        /* \"#utility.yul\":13114:13115   */\n      0x00\n        /* \"#utility.yul\":13106:13112   */\n      dup3\n        /* \"#utility.yul\":13102:13116   */\n      add\n        /* \"#utility.yul\":13095:13150   */\n      mstore\n        /* \"#utility.yul\":12978:13157   */\n      pop\n      jump\t// out\n        /* \"#utility.yul\":13163:13529   */\n    tag_252:\n        /* \"#utility.yul\":13305:13308   */\n      0x00\n        /* \"#utility.yul\":13326:13393   */\n      tag_380\n        /* \"#utility.yul\":13390:13392   */\n      0x1d\n        /* \"#utility.yul\":13385:13388   */\n      dup4\n        /* \"#utility.yul\":13326:13393   */\n      tag_217\n      jump\t// in\n    tag_380:\n        /* \"#utility.yul\":13319:13393   */\n      swap2\n      pop\n        /* \"#utility.yul\":13402:13495   */\n      tag_381\n        /* \"#utility.yul\":13491:13494   */\n      dup3\n        /* \"#utility.yul\":13402:13495   */\n      tag_251\n      jump\t// in\n    tag_381:\n        /* \"#utility.yul\":13520:13522   */\n      0x20\n        /* \"#utility.yul\":13515:13518   */\n      dup3\n        /* \"#utility.yul\":13511:13523   */\n      add\n        /* \"#utility.yul\":13504:13523   */\n      swap1\n      pop\n        /* \"#utility.yul\":13163:13529   */\n      swap2\n      swap1\n      pop\n      jump\t// out\n        /* \"#utility.yul\":13535:13954   */\n    tag_147:\n        /* \"#utility.yul\":13701:13705   */\n      0x00\n        /* \"#utility.yul\":13739:13741   */\n      0x20\n        /* \"#utility.yul\":13728:13737   */\n      dup3\n        /* \"#utility.yul\":13724:13742   */\n      add\n        /* \"#utility.yul\":13716:13742   */\n      swap1\n      pop\n        /* \"#utility.yul\":13788:13797   */\n      dup2\n        /* \"#utility.yul\":13782:13786   */\n      dup2\n        /* \"#utility.yul\":13778:13798   */\n      sub\n        /* \"#utility.yul\":13774:13775   */\n      0x00\n        /* \"#utility.yul\":13763:13772   */\n      dup4\n        /* \"#utility.yul\":13759:13776   */\n      add\n        /* \"#utility.yul\":13752:13799   */\n      mstore\n        /* \"#utility.yul\":13816:13947   */\n      tag_383\n        /* \"#utility.yul\":13942:13946   */\n      dup2\n        /* \"#utility.yul\":13816:13947   */\n      tag_252\n      jump\t// in\n    tag_383:\n        /* \"#utility.yul\":13808:13947   */\n      swap1\n      pop\n        /* \"#utility.yul\":13535:13954   */\n      swap2\n      swap1\n      pop\n      jump\t// out\n        /* \"#utility.yul\":13960:14130   */\n    tag_253:\n        /* \"#utility.yul\":14100:14122   */\n      0x496e73756666696369656e742062616c616e6365000000000000000000000000\n        /* \"#utility.yul\":14096:14097   */\n      0x00\n        /* \"#utility.yul\":14088:14094   */\n      dup3\n        /* \"#utility.yul\":14084:14098   */\n      add\n        /* \"#utility.yul\":14077:14123   */\n      mstore\n        /* \"#utility.yul\":13960:14130   */\n      pop\n      jump\t// out\n        /* \"#utility.yul\":14136:14502   */\n    tag_254:\n        /* \"#utility.yul\":14278:14281   */\n      0x00\n        /* \"#utility.yul\":14299:14366   */\n      tag_386\n        /* \"#utility.yul\":14363:14365   */\n      0x14\n        /* \"#utility.yul\":14358:14361   */\n      dup4\n        /* \"#utility.yul\":14299:14366   */\n      tag_217\n      jump\t// in\n    tag_386:\n        /* \"#utility.yul\":14292:14366   */\n      swap2\n      pop\n        /* \"#utility.yul\":14375:14468   */\n      tag_387\n        /* \"#utility.yul\":14464:14467   */\n      dup3\n        /* \"#utility.yul\":14375:14468   */\n      tag_253\n      jump\t// in\n    tag_387:\n        /* \"#utility.yul\":14493:14495   */\n      0x20\n        /* \"#utility.yul\":14488:14491   */\n      dup3\n        /* \"#utility.yul\":14484:14496   */\n      add\n        /* \"#utility.yul\":14477:14496   */\n      swap1\n      pop\n        /* \"#utility.yul\":14136:14502   */\n      swap2\n      swap1\n      pop\n      jump\t// out\n        /* \"#utility.yul\":14508:14927   */\n    tag_150:\n        /* \"#utility.yul\":14674:14678   */\n      0x00\n        /* \"#utility.yul\":14712:14714   */\n      0x20\n        /* \"#utility.yul\":14701:14710   */\n      dup3\n        /* \"#utility.yul\":14697:14715   */\n      add\n        /* \"#utility.yul\":14689:14715   */\n      swap1\n      pop\n        /* \"#utility.yul\":14761:14770   */\n      dup2\n        /* \"#utility.yul\":14755:14759   */\n      dup2\n        /* \"#utility.yul\":14751:14771   */\n      sub\n        /* \"#utility.yul\":14747:14748   */\n      0x00\n        /* \"#utility.yul\":14736:14745   */\n      dup4\n        /* \"#utility.yul\":14732:14749   */\n      add\n        /* \"#utility.yul\":14725:14772   */\n      mstore\n        /* \"#utility.yul\":14789:14920   */\n      tag_389\n        /* \"#utility.yul\":14915:14919   */\n      dup2\n        /* \"#utility.yul\":14789:14920   */\n      tag_254\n      jump\t// in\n    tag_389:\n        /* \"#utility.yul\":14781:14920   */\n      swap1\n      pop\n        /* \"#utility.yul\":14508:14927   */\n      swap2\n      swap1\n      pop\n      jump\t// out\n        /* \"#utility.yul\":14933:15124   */\n    tag_153:\n        /* \"#utility.yul\":14973:14976   */\n      0x00\n        /* \"#utility.yul\":14992:15012   */\n      tag_391\n        /* \"#utility.yul\":15010:15011   */\n      dup3\n        /* \"#utility.yul\":14992:15012   */\n      tag_228\n      jump\t// in\n    tag_391:\n        /* \"#utility.yul\":14987:15012   */\n      swap2\n      pop\n        /* \"#utility.yul\":15026:15046   */\n      tag_392\n        /* \"#utility.yul\":15044:15045   */\n      dup4\n        /* \"#utility.yul\":15026:15046   */\n      tag_228\n      jump\t// in\n    tag_392:\n        /* \"#utility.yul\":15021:15046   */\n      swap3\n      pop\n        /* \"#utility.yul\":15069:15070   */\n      dup3\n        /* \"#utility.yul\":15066:15067   */\n      dup3\n        /* \"#utility.yul\":15062:15071   */\n      add\n        /* \"#utility.yul\":15055:15071   */\n      swap1\n      pop\n        /* \"#utility.yul\":15090:15093   */\n      dup1\n        /* \"#utility.yul\":15087:15088   */\n      dup3\n        /* \"#utility.yul\":15084:15094   */\n      gt\n        /* \"#utility.yul\":15081:15117   */\n      iszero\n      tag_393\n      jumpi\n        /* \"#utility.yul\":15097:15115   */\n      tag_394\n      tag_246\n      jump\t// in\n    tag_394:\n        /* \"#utility.yul\":15081:15117   */\n    tag_393:\n        /* \"#utility.yul\":14933:15124   */\n      swap3\n      swap2\n      pop\n      pop\n      jump\t// out\n        /* \"#utility.yul\":15130:15310   */\n    tag_166:\n        /* \"#utility.yul\":15178:15255   */\n      0x4e487b7100000000000000000000000000000000000000000000000000000000\n        /* \"#utility.yul\":15175:15176   */\n      0x00\n        /* \"#utility.yul\":15168:15256   */\n      mstore\n        /* \"#utility.yul\":15275:15279   */\n      0x32\n        /* \"#utility.yul\":15272:15273   */\n      0x04\n        /* \"#utility.yul\":15265:15280   */\n      mstore\n        /* \"#utility.yul\":15299:15303   */\n      0x24\n        /* \"#utility.yul\":15296:15297   */\n      0x00\n        /* \"#utility.yul\":15289:15304   */\n      revert\n        /* \"#utility.yul\":15316:15488   */\n    tag_255:\n        /* \"#utility.yul\":15456:15480   */\n      0x496e73756666696369656e7420616c6c6f77616e636500000000000000000000\n        /* \"#utility.yul\":15452:15453   */\n      0x00\n        /* \"#utility.yul\":15444:15450   */\n      dup3\n        /* \"#utility.yul\":15440:15454   */\n      add\n        /* \"#utility.yul\":15433:15481   */\n      mstore\n        /* \"#utility.yul\":15316:15488   */\n      pop\n      jump\t// out\n        /* \"#utility.yul\":15494:15860   */\n    tag_256:\n        /* \"#utility.yul\":15636:15639   */\n      0x00\n        /* \"#utility.yul\":15657:15724   */\n      tag_398\n        /* \"#utility.yul\":15721:15723   */\n      0x16\n        /* \"#utility.yul\":15716:15719   */\n      dup4\n        /* \"#utility.yul\":15657:15724   */\n      tag_217\n      jump\t// in\n    tag_398:\n        /* \"#utility.yul\":15650:15724   */\n      swap2\n      pop\n        /* \"#utility.yul\":15733:15826   */\n      tag_399\n        /* \"#utility.yul\":15822:15825   */\n      dup3\n        /* \"#utility.yul\":15733:15826   */\n      tag_255\n      jump\t// in\n    tag_399:\n        /* \"#utility.yul\":15851:15853   */\n      0x20\n        /* \"#utility.yul\":15846:15849   */\n      dup3\n        /* \"#utility.yul\":15842:15854   */\n      add\n        /* \"#utility.yul\":15835:15854   */\n      swap1\n      pop\n        /* \"#utility.yul\":15494:15860   */\n      swap2\n      swap1\n      pop\n      jump\t// out\n        /* \"#utility.yul\":15866:16285   */\n    tag_205:\n        /* \"#utility.yul\":16032:16036   */\n      0x00\n        /* \"#utility.yul\":16070:16072   */\n      0x20\n        /* \"#utility.yul\":16059:16068   */\n      dup3\n        /* \"#utility.yul\":16055:16073   */\n      add\n        /* \"#utility.yul\":16047:16073   */\n      swap1\n      pop\n        /* \"#utility.yul\":16119:16128   */\n      dup2\n        /* \"#utility.yul\":16113:16117   */\n      dup2\n        /* \"#utility.yul\":16109:16129   */\n      sub\n        /* \"#utility.yul\":16105:16106   */\n      0x00\n        /* \"#utility.yul\":16094:16103   */\n      dup4\n        /* \"#utility.yul\":16090:16107   */\n      add\n        /* \"#utility.yul\":16083:16130   */\n      mstore\n        /* \"#utility.yul\":16147:16278   */\n      tag_401\n        /* \"#utility.yul\":16273:16277   */\n      dup2\n        /* \"#utility.yul\":16147:16278   */\n      tag_256\n      jump\t// in\n    tag_401:\n        /* \"#utility.yul\":16139:16278   */\n      swap1\n      pop\n        /* \"#utility.yul\":15866:16285   */\n      swap2\n      swap1\n      pop\n      jump\t// out\n\n    auxdata: 0xa2646970667358221220a4989e14844faa505d42ad178607cb9ed00e40ffc2f588e4b92a9f9f296a48a364736f6c634300081e0033\n}\n",
				"bytecode": {
					"linkReferences": {},
					"object": "608060405234801561000f575f5ffd5b5060405161263138038061263183398181016040528101906100319190610387565b835f908161003f919061062a565b50826001908161004f919061062a565b508160025f6101000a81548160ff021916908360ff16021790555081600a6100779190610855565b81610082919061089f565b6003819055503360085f6101000a81548173ffffffffffffffffffffffffffffffffffffffff021916908373ffffffffffffffffffffffffffffffffffffffff160217905550600160095f3373ffffffffffffffffffffffffffffffffffffffff1673ffffffffffffffffffffffffffffffffffffffff1681526020019081526020015f205f6101000a81548160ff02191690831515021790555060035460045f3373ffffffffffffffffffffffffffffffffffffffff1673ffffffffffffffffffffffffffffffffffffffff1681526020019081526020015f20819055503373ffffffffffffffffffffffffffffffffffffffff165f73ffffffffffffffffffffffffffffffffffffffff167fddf252ad1be2c89b69c2b068fc378daa952ba7f163c4a11628f55a4df523b3ef6003546040516101c091906108ef565b60405180910390a350505050610908565b5f604051905090565b5f5ffd5b5f5ffd5b5f5ffd5b5f5ffd5b5f601f19601f8301169050919050565b7f4e487b71000000000000000000000000000000000000000000000000000000005f52604160045260245ffd5b610230826101ea565b810181811067ffffffffffffffff8211171561024f5761024e6101fa565b5b80604052505050565b5f6102616101d1565b905061026d8282610227565b919050565b5f67ffffffffffffffff82111561028c5761028b6101fa565b5b610295826101ea565b9050602081019050919050565b8281835e5f83830152505050565b5f6102c26102bd84610272565b610258565b9050828152602081018484840111156102de576102dd6101e6565b5b6102e98482856102a2565b509392505050565b5f82601f830112610305576103046101e2565b5b81516103158482602086016102b0565b91505092915050565b5f60ff82169050919050565b6103338161031e565b811461033d575f5ffd5b50565b5f8151905061034e8161032a565b92915050565b5f819050919050565b61036681610354565b8114610370575f5ffd5b50565b5f815190506103818161035d565b92915050565b5f5f5f5f6080858703121561039f5761039e6101da565b5b5f85015167ffffffffffffffff8111156103bc576103bb6101de565b5b6103c8878288016102f1565b945050602085015167ffffffffffffffff8111156103e9576103e86101de565b5b6103f5878288016102f1565b935050604061040687828801610340565b925050606061041787828801610373565b91505092959194509250565b5f81519050919050565b7f4e487b71000000000000000000000000000000000000000000000000000000005f52602260045260245ffd5b5f600282049050600182168061047157607f821691505b6020821081036104845761048361042d565b5b50919050565b5f819050815f5260205f209050919050565b5f6020601f8301049050919050565b5f82821b905092915050565b5f600883026104e67fffffffffffffffffffffffffffffffffffffffffffffffffffffffffffffffff826104ab565b6104f086836104ab565b95508019841693508086168417925050509392505050565b5f819050919050565b5f61052b61052661052184610354565b610508565b610354565b9050919050565b5f819050919050565b61054483610511565b61055861055082610532565b8484546104b7565b825550505050565b5f5f905090565b61056f610560565b61057a81848461053b565b505050565b5b8181101561059d576105925f82610567565b600181019050610580565b5050565b601f8211156105e2576105b38161048a565b6105bc8461049c565b810160208510156105cb578190505b6105df6105d78561049c565b83018261057f565b50505b505050565b5f82821c905092915050565b5f6106025f19846008026105e7565b1980831691505092915050565b5f61061a83836105f3565b9150826002028217905092915050565b61063382610423565b67ffffffffffffffff81111561064c5761064b6101fa565b5b610656825461045a565b6106618282856105a1565b5f60209050601f831160018114610692575f8415610680578287015190505b61068a858261060f565b8655506106f1565b601f1984166106a08661048a565b5f5b828110156106c7578489015182556001820191506020850194506020810190506106a2565b868310156106e457848901516106e0601f8916826105f3565b8355505b6001600288020188555050505b505050505050565b7f4e487b71000000000000000000000000000000000000000000000000000000005f52601160045260245ffd5b5f8160011c9050919050565b5f5f8291508390505b600185111561077b57808604811115610757576107566106f9565b5b60018516156107665780820291505b808102905061077485610726565b945061073b565b94509492505050565b5f82610793576001905061084e565b816107a0575f905061084e565b81600181146107b657600281146107c0576107ef565b600191505061084e565b60ff8411156107d2576107d16106f9565b5b8360020a9150848211156107e9576107e86106f9565b5b5061084e565b5060208310610133831016604e8410600b84101617156108245782820a90508381111561081f5761081e6106f9565b5b61084e565b6108318484846001610732565b92509050818404811115610848576108476106f9565b5b81810290505b9392505050565b5f61085f82610354565b915061086a8361031e565b92506108977fffffffffffffffffffffffffffffffffffffffffffffffffffffffffffffffff8484610784565b905092915050565b5f6108a982610354565b91506108b483610354565b92508282026108c281610354565b915082820484148315176108d9576108d86106f9565b5b5092915050565b6108e981610354565b82525050565b5f6020820190506109025f8301846108e0565b92915050565b611d1c806109155f395ff3fe608060405234801561000f575f5ffd5b506004361061011f575f3560e01c80638da5cb5b116100ab578063cb67f9481161006f578063cb67f94814610356578063d250348514610372578063d8fb93371461038e578063dd62ed3e146103be578063fa110af0146103ee5761011f565b80638da5cb5b1461029e57806395d89b41146102bc578063a25983e5146102da578063a9059cbb146102f6578063aa377d88146103265761011f565b806318160ddd116100f257806318160ddd146101d157806323b872dd146101ef578063313ce5671461021f5780635d16a6f91461023d57806370a082311461026e5761011f565b806306fdde0314610123578063095ea7b314610141578063129de5bf1461017157806315056b54146101a1575b5f5ffd5b61012b61040a565b60405161013891906115e7565b60405180910390f35b61015b60048036038101906101569190611698565b610495565b60405161016891906116f0565b60405180910390f35b61018b60048036038101906101869190611709565b6104ab565b6040516101989190611743565b60405180910390f35b6101bb60048036038101906101b69190611709565b610539565b6040516101c89190611840565b60405180910390f35b6101d96105e5565b6040516101e69190611743565b60405180910390f35b61020960048036038101906102049190611860565b6105eb565b60405161021691906116f0565b60405180910390f35b610227610658565b60405161023491906118cb565b60405180910390f35b61025760048036038101906102529190611698565b61066a565b6040516102659291906118e4565b60405180910390f35b61028860048036038101906102839190611709565b6106a4565b6040516102959190611743565b60405180910390f35b6102a66106ea565b6040516102b3919061191a565b60405180910390f35b6102c461070f565b6040516102d191906115e7565b60405180910390f35b6102f460048036038101906102ef9190611933565b61079b565b005b610310600480360381019061030b9190611698565b610aba565b60405161031d91906116f0565b60405180910390f35b610340600480360381019061033b9190611709565b610b1b565b60405161034d91906116f0565b60405180910390f35b610370600480360381019061036b9190611709565b610b38565b005b61038c60048036038101906103879190611709565b610de2565b005b6103a860048036038101906103a39190611709565b610f76565b6040516103b59190611743565b60405180910390f35b6103d860048036038101906103d39190611983565b610f8b565b6040516103e59190611743565b60405180910390f35b61040860048036038101906104039190611709565b61100d565b005b5f8054610416906119ee565b80601f0160208091040260200160405190810160405280929190818152602001828054610442906119ee565b801561048d5780601f106104645761010080835404028352916020019161048d565b820191905f5260205f20905b81548152906001019060200180831161047057829003601f168201915b505050505081565b5f6104a133848461119f565b6001905092915050565b5f60075f8373ffffffffffffffffffffffffffffffffffffffff1673ffffffffffffffffffffffffffffffffffffffff1681526020019081526020015f205460045f8473ffffffffffffffffffffffffffffffffffffffff1673ffffffffffffffffffffffffffffffffffffffff1681526020019081526020015f20546105329190611a4b565b9050919050565b606060065f8373ffffffffffffffffffffffffffffffffffffffff1673ffffffffffffffffffffffffffffffffffffffff1681526020019081526020015f20805480602002602001604051908101604052809291908181526020015f905b828210156105da578382905f5260205f2090600202016040518060400160405290815f820154815260200160018201548152505081526020019060010190610597565b505050509050919050565b60035481565b5f816105f6856104ab565b1015610637576040517f08c379a000000000000000000000000000000000000000000000000000000000815260040161062e90611ac8565b60405180910390fd5b6106428433846112ed565b61064d848484611381565b600190509392505050565b60025f9054906101000a900460ff1681565b6006602052815f5260405f208181548110610683575f80fd5b905f5260205f2090600202015f9150915050805f0154908060010154905082565b5f60045f8373ffffffffffffffffffffffffffffffffffffffff1673ffffffffffffffffffffffffffffffffffffffff1681526020019081526020015f20549050919050565b60085f9054906101000a900473ffffffffffffffffffffffffffffffffffffffff1681565b6001805461071c906119ee565b80601f0160208091040260200160405190810160405280929190818152602001828054610748906119ee565b80156107935780601f1061076a57610100808354040283529160200191610793565b820191905f5260205f20905b81548152906001019060200180831161077657829003601f168201915b505050505081565b60095f3373ffffffffffffffffffffffffffffffffffffffff1673ffffffffffffffffffffffffffffffffffffffff1681526020019081526020015f205f9054906101000a900460ff1661081b576040517f5a61d13700000000000000000000000000000000000000000000000000000000815260040160405180910390fd5b825f73ffffffffffffffffffffffffffffffffffffffff168173ffffffffffffffffffffffffffffffffffffffff1603610881576040517fd92e233d00000000000000000000000000000000000000000000000000000000815260040160405180910390fd5b5f83116108c3576040517f08c379a00000000000000000000000000000000000000000000000000000000081526004016108ba90611b30565b60405180910390fd5b428211610905576040517f08c379a00000000000000000000000000000000000000000000000000000000081526004016108fc90611b98565b60405180910390fd5b8260045f8673ffffffffffffffffffffffffffffffffffffffff1673ffffffffffffffffffffffffffffffffffffffff1681526020019081526020015f20541015610985576040517f08c379a000000000000000000000000000000000000000000000000000000000815260040161097c90611c00565b60405180910390fd5b60065f8573ffffffffffffffffffffffffffffffffffffffff1673ffffffffffffffffffffffffffffffffffffffff1681526020019081526020015f20604051806040016040528085815260200184815250908060018154018082558091505060019003905f5260205f2090600202015f909190919091505f820151815f01556020820151816001015550508260075f8673ffffffffffffffffffffffffffffffffffffffff1673ffffffffffffffffffffffffffffffffffffffff1681526020019081526020015f205f828254610a5d9190611c1e565b925050819055508373ffffffffffffffffffffffffffffffffffffffff167fd741e738a23fd18a03a26522320d9fc6cac1fed483e215ea9150fbc2fc43385d8484604051610aac9291906118e4565b60405180910390a250505050565b5f81610ac5336104ab565b1015610b06576040517f08c379a0000000000000000000000000000000000000000000000000000000008152600401610afd90611ac8565b60405180910390fd5b610b11338484611381565b6001905092915050565b6009602052805f5260405f205f915054906101000a900460ff1681565b5f5f90505f5f90505b60065f8473ffffffffffffffffffffffffffffffffffffffff1673ffffffffffffffffffffffffffffffffffffffff1681526020019081526020015f2080549050811015610d33574260065f8573ffffffffffffffffffffffffffffffffffffffff1673ffffffffffffffffffffffffffffffffffffffff1681526020019081526020015f208281548110610bd957610bd8611c51565b5b905f5260205f2090600202016001015411158015610c5357505f60065f8573ffffffffffffffffffffffffffffffffffffffff1673ffffffffffffffffffffffffffffffffffffffff1681526020019081526020015f208281548110610c4257610c41611c51565b5b905f5260205f2090600202015f0154115b15610d265760065f8473ffffffffffffffffffffffffffffffffffffffff1673ffffffffffffffffffffffffffffffffffffffff1681526020019081526020015f208181548110610ca757610ca6611c51565b5b905f5260205f2090600202015f015482610cc19190611c1e565b91505f60065f8573ffffffffffffffffffffffffffffffffffffffff1673ffffffffffffffffffffffffffffffffffffffff1681526020019081526020015f208281548110610d1357610d12611c51565b5b905f5260205f2090600202015f01819055505b8080600101915050610b41565b505f811115610dde578060075f8473ffffffffffffffffffffffffffffffffffffffff1673ffffffffffffffffffffffffffffffffffffffff1681526020019081526020015f205f828254610d889190611a4b565b925050819055508173ffffffffffffffffffffffffffffffffffffffff167fe7b379c6c1fa169e9079c25e9143b127637eef8ec8c9d5c06ddb4ab3e119588882604051610dd59190611743565b60405180910390a25b5050565b60085f9054906101000a900473ffffffffffffffffffffffffffffffffffffffff1673ffffffffffffffffffffffffffffffffffffffff163373ffffffffffffffffffffffffffffffffffffffff1614610e68576040517f30cd747100000000000000000000000000000000000000000000000000000000815260040160405180910390fd5b805f73ffffffffffffffffffffffffffffffffffffffff168173ffffffffffffffffffffffffffffffffffffffff1603610ece576040517fd92e233d00000000000000000000000000000000000000000000000000000000815260040160405180910390fd5b600160095f8473ffffffffffffffffffffffffffffffffffffffff1673ffffffffffffffffffffffffffffffffffffffff1681526020019081526020015f205f6101000a81548160ff0219169083151502179055508173ffffffffffffffffffffffffffffffffffffffff167f746f7d497d87e2466d31e82801906c1fa440311829558e0e37d95a0ca08bdae06001604051610f6a91906116f0565b60405180910390a25050565b6007602052805f5260405f205f915090505481565b5f60055f8473ffffffffffffffffffffffffffffffffffffffff1673ffffffffffffffffffffffffffffffffffffffff1681526020019081526020015f205f8373ffffffffffffffffffffffffffffffffffffffff1673ffffffffffffffffffffffffffffffffffffffff1681526020019081526020015f2054905092915050565b60085f9054906101000a900473ffffffffffffffffffffffffffffffffffffffff1673ffffffffffffffffffffffffffffffffffffffff163373ffffffffffffffffffffffffffffffffffffffff1614611093576040517f30cd747100000000000000000000000000000000000000000000000000000000815260040160405180910390fd5b805f73ffffffffffffffffffffffffffffffffffffffff168173ffffffffffffffffffffffffffffffffffffffff16036110f9576040517fd92e233d00000000000000000000000000000000000000000000000000000000815260040160405180910390fd5b5f60095f8473ffffffffffffffffffffffffffffffffffffffff1673ffffffffffffffffffffffffffffffffffffffff1681526020019081526020015f205f6101000a81548160ff0219169083151502179055508173ffffffffffffffffffffffffffffffffffffffff167f746f7d497d87e2466d31e82801906c1fa440311829558e0e37d95a0ca08bdae05f60405161119391906116f0565b60405180910390a25050565b815f73ffffffffffffffffffffffffffffffffffffffff168173ffffffffffffffffffffffffffffffffffffffff1603611205576040517fd92e233d00000000000000000000000000000000000000000000000000000000815260040160405180910390fd5b8160055f8673ffffffffffffffffffffffffffffffffffffffff1673ffffffffffffffffffffffffffffffffffffffff1681526020019081526020015f205f8573ffffffffffffffffffffffffffffffffffffffff1673ffffffffffffffffffffffffffffffffffffffff1681526020019081526020015f20819055508273ffffffffffffffffffffffffffffffffffffffff168473ffffffffffffffffffffffffffffffffffffffff167f8c5be1e5ebec7d5bd14f71427d1e84f3dd0314c0f7b2291e5b200ac8c7c3b925846040516112df9190611743565b60405180910390a350505050565b5f6112f88484610f8b565b90507fffffffffffffffffffffffffffffffffffffffffffffffffffffffffffffffff811461137b5781811015611364576040517f08c379a000000000000000000000000000000000000000000000000000000000815260040161135b90611cc8565b60405180910390fd5b61137a848484846113759190611a4b565b61119f565b5b50505050565b815f73ffffffffffffffffffffffffffffffffffffffff168173ffffffffffffffffffffffffffffffffffffffff16036113e7576040517fd92e233d00000000000000000000000000000000000000000000000000000000815260040160405180910390fd5b5f60045f8673ffffffffffffffffffffffffffffffffffffffff1673ffffffffffffffffffffffffffffffffffffffff1681526020019081526020015f205490508281101561146b576040517f08c379a000000000000000000000000000000000000000000000000000000000815260040161146290611c00565b60405180910390fd5b82816114779190611a4b565b60045f8773ffffffffffffffffffffffffffffffffffffffff1673ffffffffffffffffffffffffffffffffffffffff1681526020019081526020015f20819055508260045f8673ffffffffffffffffffffffffffffffffffffffff1673ffffffffffffffffffffffffffffffffffffffff1681526020019081526020015f205f8282546115049190611c1e565b925050819055508373ffffffffffffffffffffffffffffffffffffffff168573ffffffffffffffffffffffffffffffffffffffff167fddf252ad1be2c89b69c2b068fc378daa952ba7f163c4a11628f55a4df523b3ef856040516115689190611743565b60405180910390a35050505050565b5f81519050919050565b5f82825260208201905092915050565b8281835e5f83830152505050565b5f601f19601f8301169050919050565b5f6115b982611577565b6115c38185611581565b93506115d3818560208601611591565b6115dc8161159f565b840191505092915050565b5f6020820190508181035f8301526115ff81846115af565b905092915050565b5f5ffd5b5f73ffffffffffffffffffffffffffffffffffffffff82169050919050565b5f6116348261160b565b9050919050565b6116448161162a565b811461164e575f5ffd5b50565b5f8135905061165f8161163b565b92915050565b5f819050919050565b61167781611665565b8114611681575f5ffd5b50565b5f813590506116928161166e565b92915050565b5f5f604083850312156116ae576116ad611607565b5b5f6116bb85828601611651565b92505060206116cc85828601611684565b9150509250929050565b5f8115159050919050565b6116ea816116d6565b82525050565b5f6020820190506117035f8301846116e1565b92915050565b5f6020828403121561171e5761171d611607565b5b5f61172b84828501611651565b91505092915050565b61173d81611665565b82525050565b5f6020820190506117565f830184611734565b92915050565b5f81519050919050565b5f82825260208201905092915050565b5f819050602082019050919050565b61178e81611665565b82525050565b604082015f8201516117a85f850182611785565b5060208201516117bb6020850182611785565b50505050565b5f6117cc8383611794565b60408301905092915050565b5f602082019050919050565b5f6117ee8261175c565b6117f88185611766565b935061180383611776565b805f5b8381101561183357815161181a88826117c1565b9750611825836117d8565b925050600181019050611806565b5085935050505092915050565b5f6020820190508181035f83015261185881846117e4565b905092915050565b5f5f5f6060848603121561187757611876611607565b5b5f61188486828701611651565b935050602061189586828701611651565b92505060406118a686828701611684565b9150509250925092565b5f60ff82169050919050565b6118c5816118b0565b82525050565b5f6020820190506118de5f8301846118bc565b92915050565b5f6040820190506118f75f830185611734565b6119046020830184611734565b9392505050565b6119148161162a565b82525050565b5f60208201905061192d5f83018461190b565b92915050565b5f5f5f6060848603121561194a57611949611607565b5b5f61195786828701611651565b935050602061196886828701611684565b925050604061197986828701611684565b9150509250925092565b5f5f6040838503121561199957611998611607565b5b5f6119a685828601611651565b92505060206119b785828601611651565b9150509250929050565b7f4e487b71000000000000000000000000000000000000000000000000000000005f52602260045260245ffd5b5f6002820490506001821680611a0557607f821691505b602082108103611a1857611a176119c1565b5b50919050565b7f4e487b71000000000000000000000000000000000000000000000000000000005f52601160045260245ffd5b5f611a5582611665565b9150611a6083611665565b9250828203905081811115611a7857611a77611a1e565b5b92915050565b7f496e73756666696369656e7420756e6c6f636b65642062616c616e63650000005f82015250565b5f611ab2601d83611581565b9150611abd82611a7e565b602082019050919050565b5f6020820190508181035f830152611adf81611aa6565b9050919050565b7f416d6f756e74206d75737420626520706f7369746976650000000000000000005f82015250565b5f611b1a601783611581565b9150611b2582611ae6565b602082019050919050565b5f6020820190508181035f830152611b4781611b0e565b9050919050565b7f556e6c6f636b2074696d65206d75737420626520696e206675747572650000005f82015250565b5f611b82601d83611581565b9150611b8d82611b4e565b602082019050919050565b5f6020820190508181035f830152611baf81611b76565b9050919050565b7f496e73756666696369656e742062616c616e63650000000000000000000000005f82015250565b5f611bea601483611581565b9150611bf582611bb6565b602082019050919050565b5f6020820190508181035f830152611c1781611bde565b9050919050565b5f611c2882611665565b9150611c3383611665565b9250828201905080821115611c4b57611c4a611a1e565b5b92915050565b7f4e487b71000000000000000000000000000000000000000000000000000000005f52603260045260245ffd5b7f496e73756666696369656e7420616c6c6f77616e6365000000000000000000005f82015250565b5f611cb2601683611581565b9150611cbd82611c7e565b602082019050919050565b5f6020820190508181035f830152611cdf81611ca6565b905091905056fea2646970667358221220a4989e14844faa505d42ad178607cb9ed00e40ffc2f588e4b92a9f9f296a48a364736f6c634300081e0033",
					"opcodes": "PUSH1 0x80 PUSH1 0x40 MSTORE CALLVALUE DUP1 ISZERO PUSH2 0xF JUMPI PUSH0 PUSH0 REVERT JUMPDEST POP PUSH1 0x40 MLOAD PUSH2 0x2631 CODESIZE SUB DUP1 PUSH2 0x2631 DUP4 CODECOPY DUP2 DUP2 ADD PUSH1 0x40 MSTORE DUP2 ADD SWAP1 PUSH2 0x31 SWAP2 SWAP1 PUSH2 0x387 JUMP JUMPDEST DUP4 PUSH0 SWAP1 DUP2 PUSH2 0x3F SWAP2 SWAP1 PUSH2 0x62A JUMP JUMPDEST POP DUP3 PUSH1 0x1 SWAP1 DUP2 PUSH2 0x4F SWAP2 SWAP1 PUSH2 0x62A JUMP JUMPDEST POP DUP2 PUSH1 0x2 PUSH0 PUSH2 0x100 EXP DUP2 SLOAD DUP2 PUSH1 0xFF MUL NOT AND SWAP1 DUP4 PUSH1 0xFF AND MUL OR SWAP1 SSTORE POP DUP2 PUSH1 0xA PUSH2 0x77 SWAP2 SWAP1 PUSH2 0x855 JUMP JUMPDEST DUP2 PUSH2 0x82 SWAP2 SWAP1 PUSH2 0x89F JUMP JUMPDEST PUSH1 0x3 DUP2 SWAP1 SSTORE POP CALLER PUSH1 0x8 PUSH0 PUSH2 0x100 EXP DUP2 SLOAD DUP2 PUSH20 0xFFFFFFFFFFFFFFFFFFFFFFFFFFFFFFFFFFFFFFFF MUL NOT AND SWAP1 DUP4 PUSH20 0xFFFFFFFFFFFFFFFFFFFFFFFFFFFFFFFFFFFFFFFF AND MUL OR SWAP1 SSTORE POP PUSH1 0x1 PUSH1 0x9 PUSH0 CALLER PUSH20 0xFFFFFFFFFFFFFFFFFFFFFFFFFFFFFFFFFFFFFFFF AND PUSH20 0xFFFFFFFFFFFFFFFFFFFFFFFFFFFFFFFFFFFFFFFF AND DUP2 MSTORE PUSH1 0x20 ADD SWAP1 DUP2 MSTORE PUSH1 0x20 ADD PUSH0 KECCAK256 PUSH0 PUSH2 0x100 EXP DUP2 SLOAD DUP2 PUSH1 0xFF MUL NOT AND SWAP1 DUP4 ISZERO ISZERO MUL OR SWAP1 SSTORE POP PUSH1 0x3 SLOAD PUSH1 0x4 PUSH0 CALLER PUSH20 0xFFFFFFFFFFFFFFFFFFFFFFFFFFFFFFFFFFFFFFFF AND PUSH20 0xFFFFFFFFFFFFFFFFFFFFFFFFFFFFFFFFFFFFFFFF AND DUP2 MSTORE PUSH1 0x20 ADD SWAP1 DUP2 MSTORE PUSH1 0x20 ADD PUSH0 KECCAK256 DUP2 SWAP1 SSTORE POP CALLER PUSH20 0xFFFFFFFFFFFFFFFFFFFFFFFFFFFFFFFFFFFFFFFF AND PUSH0 PUSH20 0xFFFFFFFFFFFFFFFFFFFFFFFFFFFFFFFFFFFFFFFF AND PUSH32 0xDDF252AD1BE2C89B69C2B068FC378DAA952BA7F163C4A11628F55A4DF523B3EF PUSH1 0x3 SLOAD PUSH1 0x40 MLOAD PUSH2 0x1C0 SWAP2 SWAP1 PUSH2 0x8EF JUMP JUMPDEST PUSH1 0x40 MLOAD DUP1 SWAP2 SUB SWAP1 LOG3 POP POP POP POP PUSH2 0x908 JUMP JUMPDEST PUSH0 PUSH1 0x40 MLOAD SWAP1 POP SWAP1 JUMP JUMPDEST PUSH0 PUSH0 REVERT JUMPDEST PUSH0 PUSH0 REVERT JUMPDEST PUSH0 PUSH0 REVERT JUMPDEST PUSH0 PUSH0 REVERT JUMPDEST PUSH0 PUSH1 0x1F NOT PUSH1 0x1F DUP4 ADD AND SWAP1 POP SWAP2 SWAP1 POP JUMP JUMPDEST PUSH32 0x4E487B7100000000000000000000000000000000000000000000000000000000 PUSH0 MSTORE PUSH1 0x41 PUSH1 0x4 MSTORE PUSH1 0x24 PUSH0 REVERT JUMPDEST PUSH2 0x230 DUP3 PUSH2 0x1EA JUMP JUMPDEST DUP2 ADD DUP2 DUP2 LT PUSH8 0xFFFFFFFFFFFFFFFF DUP3 GT OR ISZERO PUSH2 0x24F JUMPI PUSH2 0x24E PUSH2 0x1FA JUMP JUMPDEST JUMPDEST DUP1 PUSH1 0x40 MSTORE POP POP POP JUMP JUMPDEST PUSH0 PUSH2 0x261 PUSH2 0x1D1 JUMP JUMPDEST SWAP1 POP PUSH2 0x26D DUP3 DUP3 PUSH2 0x227 JUMP JUMPDEST SWAP2 SWAP1 POP JUMP JUMPDEST PUSH0 PUSH8 0xFFFFFFFFFFFFFFFF DUP3 GT ISZERO PUSH2 0x28C JUMPI PUSH2 0x28B PUSH2 0x1FA JUMP JUMPDEST JUMPDEST PUSH2 0x295 DUP3 PUSH2 0x1EA JUMP JUMPDEST SWAP1 POP PUSH1 0x20 DUP2 ADD SWAP1 POP SWAP2 SWAP1 POP JUMP JUMPDEST DUP3 DUP2 DUP4 MCOPY PUSH0 DUP4 DUP4 ADD MSTORE POP POP POP JUMP JUMPDEST PUSH0 PUSH2 0x2C2 PUSH2 0x2BD DUP5 PUSH2 0x272 JUMP JUMPDEST PUSH2 0x258 JUMP JUMPDEST SWAP1 POP DUP3 DUP2 MSTORE PUSH1 0x20 DUP2 ADD DUP5 DUP5 DUP5 ADD GT ISZERO PUSH2 0x2DE JUMPI PUSH2 0x2DD PUSH2 0x1E6 JUMP JUMPDEST JUMPDEST PUSH2 0x2E9 DUP5 DUP3 DUP6 PUSH2 0x2A2 JUMP JUMPDEST POP SWAP4 SWAP3 POP POP POP JUMP JUMPDEST PUSH0 DUP3 PUSH1 0x1F DUP4 ADD SLT PUSH2 0x305 JUMPI PUSH2 0x304 PUSH2 0x1E2 JUMP JUMPDEST JUMPDEST DUP2 MLOAD PUSH2 0x315 DUP5 DUP3 PUSH1 0x20 DUP7 ADD PUSH2 0x2B0 JUMP JUMPDEST SWAP2 POP POP SWAP3 SWAP2 POP POP JUMP JUMPDEST PUSH0 PUSH1 0xFF DUP3 AND SWAP1 POP SWAP2 SWAP1 POP JUMP JUMPDEST PUSH2 0x333 DUP2 PUSH2 0x31E JUMP JUMPDEST DUP2 EQ PUSH2 0x33D JUMPI PUSH0 PUSH0 REVERT JUMPDEST POP JUMP JUMPDEST PUSH0 DUP2 MLOAD SWAP1 POP PUSH2 0x34E DUP2 PUSH2 0x32A JUMP JUMPDEST SWAP3 SWAP2 POP POP JUMP JUMPDEST PUSH0 DUP2 SWAP1 POP SWAP2 SWAP1 POP JUMP JUMPDEST PUSH2 0x366 DUP2 PUSH2 0x354 JUMP JUMPDEST DUP2 EQ PUSH2 0x370 JUMPI PUSH0 PUSH0 REVERT JUMPDEST POP JUMP JUMPDEST PUSH0 DUP2 MLOAD SWAP1 POP PUSH2 0x381 DUP2 PUSH2 0x35D JUMP JUMPDEST SWAP3 SWAP2 POP POP JUMP JUMPDEST PUSH0 PUSH0 PUSH0 PUSH0 PUSH1 0x80 DUP6 DUP8 SUB SLT ISZERO PUSH2 0x39F JUMPI PUSH2 0x39E PUSH2 0x1DA JUMP JUMPDEST JUMPDEST PUSH0 DUP6 ADD MLOAD PUSH8 0xFFFFFFFFFFFFFFFF DUP2 GT ISZERO PUSH2 0x3BC JUMPI PUSH2 0x3BB PUSH2 0x1DE JUMP JUMPDEST JUMPDEST PUSH2 0x3C8 DUP8 DUP3 DUP9 ADD PUSH2 0x2F1 JUMP JUMPDEST SWAP5 POP POP PUSH1 0x20 DUP6 ADD MLOAD PUSH8 0xFFFFFFFFFFFFFFFF DUP2 GT ISZERO PUSH2 0x3E9 JUMPI PUSH2 0x3E8 PUSH2 0x1DE JUMP JUMPDEST JUMPDEST PUSH2 0x3F5 DUP8 DUP3 DUP9 ADD PUSH2 0x2F1 JUMP JUMPDEST SWAP4 POP POP PUSH1 0x40 PUSH2 0x406 DUP8 DUP3 DUP9 ADD PUSH2 0x340 JUMP JUMPDEST SWAP3 POP POP PUSH1 0x60 PUSH2 0x417 DUP8 DUP3 DUP9 ADD PUSH2 0x373 JUMP JUMPDEST SWAP2 POP POP SWAP3 SWAP6 SWAP2 SWAP5 POP SWAP3 POP JUMP JUMPDEST PUSH0 DUP2 MLOAD SWAP1 POP SWAP2 SWAP1 POP JUMP JUMPDEST PUSH32 0x4E487B7100000000000000000000000000000000000000000000000000000000 PUSH0 MSTORE PUSH1 0x22 PUSH1 0x4 MSTORE PUSH1 0x24 PUSH0 REVERT JUMPDEST PUSH0 PUSH1 0x2 DUP3 DIV SWAP1 POP PUSH1 0x1 DUP3 AND DUP1 PUSH2 0x471 JUMPI PUSH1 0x7F DUP3 AND SWAP2 POP JUMPDEST PUSH1 0x20 DUP3 LT DUP2 SUB PUSH2 0x484 JUMPI PUSH2 0x483 PUSH2 0x42D JUMP JUMPDEST JUMPDEST POP SWAP2 SWAP1 POP JUMP JUMPDEST PUSH0 DUP2 SWAP1 POP DUP2 PUSH0 MSTORE PUSH1 0x20 PUSH0 KECCAK256 SWAP1 POP SWAP2 SWAP1 POP JUMP JUMPDEST PUSH0 PUSH1 0x20 PUSH1 0x1F DUP4 ADD DIV SWAP1 POP SWAP2 SWAP1 POP JUMP JUMPDEST PUSH0 DUP3 DUP3 SHL SWAP1 POP SWAP3 SWAP2 POP POP JUMP JUMPDEST PUSH0 PUSH1 0x8 DUP4 MUL PUSH2 0x4E6 PUSH32 0xFFFFFFFFFFFFFFFFFFFFFFFFFFFFFFFFFFFFFFFFFFFFFFFFFFFFFFFFFFFFFFFF DUP3 PUSH2 0x4AB JUMP JUMPDEST PUSH2 0x4F0 DUP7 DUP4 PUSH2 0x4AB JUMP JUMPDEST SWAP6 POP DUP1 NOT DUP5 AND SWAP4 POP DUP1 DUP7 AND DUP5 OR SWAP3 POP POP POP SWAP4 SWAP3 POP POP POP JUMP JUMPDEST PUSH0 DUP2 SWAP1 POP SWAP2 SWAP1 POP JUMP JUMPDEST PUSH0 PUSH2 0x52B PUSH2 0x526 PUSH2 0x521 DUP5 PUSH2 0x354 JUMP JUMPDEST PUSH2 0x508 JUMP JUMPDEST PUSH2 0x354 JUMP JUMPDEST SWAP1 POP SWAP2 SWAP1 POP JUMP JUMPDEST PUSH0 DUP2 SWAP1 POP SWAP2 SWAP1 POP JUMP JUMPDEST PUSH2 0x544 DUP4 PUSH2 0x511 JUMP JUMPDEST PUSH2 0x558 PUSH2 0x550 DUP3 PUSH2 0x532 JUMP JUMPDEST DUP5 DUP5 SLOAD PUSH2 0x4B7 JUMP JUMPDEST DUP3 SSTORE POP POP POP POP JUMP JUMPDEST PUSH0 PUSH0 SWAP1 POP SWAP1 JUMP JUMPDEST PUSH2 0x56F PUSH2 0x560 JUMP JUMPDEST PUSH2 0x57A DUP2 DUP5 DUP5 PUSH2 0x53B JUMP JUMPDEST POP POP POP JUMP JUMPDEST JUMPDEST DUP2 DUP2 LT ISZERO PUSH2 0x59D JUMPI PUSH2 0x592 PUSH0 DUP3 PUSH2 0x567 JUMP JUMPDEST PUSH1 0x1 DUP2 ADD SWAP1 POP PUSH2 0x580 JUMP JUMPDEST POP POP JUMP JUMPDEST PUSH1 0x1F DUP3 GT ISZERO PUSH2 0x5E2 JUMPI PUSH2 0x5B3 DUP2 PUSH2 0x48A JUMP JUMPDEST PUSH2 0x5BC DUP5 PUSH2 0x49C JUMP JUMPDEST DUP2 ADD PUSH1 0x20 DUP6 LT ISZERO PUSH2 0x5CB JUMPI DUP2 SWAP1 POP JUMPDEST PUSH2 0x5DF PUSH2 0x5D7 DUP6 PUSH2 0x49C JUMP JUMPDEST DUP4 ADD DUP3 PUSH2 0x57F JUMP JUMPDEST POP POP JUMPDEST POP POP POP JUMP JUMPDEST PUSH0 DUP3 DUP3 SHR SWAP1 POP SWAP3 SWAP2 POP POP JUMP JUMPDEST PUSH0 PUSH2 0x602 PUSH0 NOT DUP5 PUSH1 0x8 MUL PUSH2 0x5E7 JUMP JUMPDEST NOT DUP1 DUP4 AND SWAP2 POP POP SWAP3 SWAP2 POP POP JUMP JUMPDEST PUSH0 PUSH2 0x61A DUP4 DUP4 PUSH2 0x5F3 JUMP JUMPDEST SWAP2 POP DUP3 PUSH1 0x2 MUL DUP3 OR SWAP1 POP SWAP3 SWAP2 POP POP JUMP JUMPDEST PUSH2 0x633 DUP3 PUSH2 0x423 JUMP JUMPDEST PUSH8 0xFFFFFFFFFFFFFFFF DUP2 GT ISZERO PUSH2 0x64C JUMPI PUSH2 0x64B PUSH2 0x1FA JUMP JUMPDEST JUMPDEST PUSH2 0x656 DUP3 SLOAD PUSH2 0x45A JUMP JUMPDEST PUSH2 0x661 DUP3 DUP3 DUP6 PUSH2 0x5A1 JUMP JUMPDEST PUSH0 PUSH1 0x20 SWAP1 POP PUSH1 0x1F DUP4 GT PUSH1 0x1 DUP2 EQ PUSH2 0x692 JUMPI PUSH0 DUP5 ISZERO PUSH2 0x680 JUMPI DUP3 DUP8 ADD MLOAD SWAP1 POP JUMPDEST PUSH2 0x68A DUP6 DUP3 PUSH2 0x60F JUMP JUMPDEST DUP7 SSTORE POP PUSH2 0x6F1 JUMP JUMPDEST PUSH1 0x1F NOT DUP5 AND PUSH2 0x6A0 DUP7 PUSH2 0x48A JUMP JUMPDEST PUSH0 JUMPDEST DUP3 DUP2 LT ISZERO PUSH2 0x6C7 JUMPI DUP5 DUP10 ADD MLOAD DUP3 SSTORE PUSH1 0x1 DUP3 ADD SWAP2 POP PUSH1 0x20 DUP6 ADD SWAP5 POP PUSH1 0x20 DUP2 ADD SWAP1 POP PUSH2 0x6A2 JUMP JUMPDEST DUP7 DUP4 LT ISZERO PUSH2 0x6E4 JUMPI DUP5 DUP10 ADD MLOAD PUSH2 0x6E0 PUSH1 0x1F DUP10 AND DUP3 PUSH2 0x5F3 JUMP JUMPDEST DUP4 SSTORE POP JUMPDEST PUSH1 0x1 PUSH1 0x2 DUP9 MUL ADD DUP9 SSTORE POP POP POP JUMPDEST POP POP POP POP POP POP JUMP JUMPDEST PUSH32 0x4E487B7100000000000000000000000000000000000000000000000000000000 PUSH0 MSTORE PUSH1 0x11 PUSH1 0x4 MSTORE PUSH1 0x24 PUSH0 REVERT JUMPDEST PUSH0 DUP2 PUSH1 0x1 SHR SWAP1 POP SWAP2 SWAP1 POP JUMP JUMPDEST PUSH0 PUSH0 DUP3 SWAP2 POP DUP4 SWAP1 POP JUMPDEST PUSH1 0x1 DUP6 GT ISZERO PUSH2 0x77B JUMPI DUP1 DUP7 DIV DUP2 GT ISZERO PUSH2 0x757 JUMPI PUSH2 0x756 PUSH2 0x6F9 JUMP JUMPDEST JUMPDEST PUSH1 0x1 DUP6 AND ISZERO PUSH2 0x766 JUMPI DUP1 DUP3 MUL SWAP2 POP JUMPDEST DUP1 DUP2 MUL SWAP1 POP PUSH2 0x774 DUP6 PUSH2 0x726 JUMP JUMPDEST SWAP5 POP PUSH2 0x73B JUMP JUMPDEST SWAP5 POP SWAP5 SWAP3 POP POP POP JUMP JUMPDEST PUSH0 DUP3 PUSH2 0x793 JUMPI PUSH1 0x1 SWAP1 POP PUSH2 0x84E JUMP JUMPDEST DUP2 PUSH2 0x7A0 JUMPI PUSH0 SWAP1 POP PUSH2 0x84E JUMP JUMPDEST DUP2 PUSH1 0x1 DUP2 EQ PUSH2 0x7B6 JUMPI PUSH1 0x2 DUP2 EQ PUSH2 0x7C0 JUMPI PUSH2 0x7EF JUMP JUMPDEST PUSH1 0x1 SWAP2 POP POP PUSH2 0x84E JUMP JUMPDEST PUSH1 0xFF DUP5 GT ISZERO PUSH2 0x7D2 JUMPI PUSH2 0x7D1 PUSH2 0x6F9 JUMP JUMPDEST JUMPDEST DUP4 PUSH1 0x2 EXP SWAP2 POP DUP5 DUP3 GT ISZERO PUSH2 0x7E9 JUMPI PUSH2 0x7E8 PUSH2 0x6F9 JUMP JUMPDEST JUMPDEST POP PUSH2 0x84E JUMP JUMPDEST POP PUSH1 0x20 DUP4 LT PUSH2 0x133 DUP4 LT AND PUSH1 0x4E DUP5 LT PUSH1 0xB DUP5 LT AND OR ISZERO PUSH2 0x824 JUMPI DUP3 DUP3 EXP SWAP1 POP DUP4 DUP2 GT ISZERO PUSH2 0x81F JUMPI PUSH2 0x81E PUSH2 0x6F9 JUMP JUMPDEST JUMPDEST PUSH2 0x84E JUMP JUMPDEST PUSH2 0x831 DUP5 DUP5 DUP5 PUSH1 0x1 PUSH2 0x732 JUMP JUMPDEST SWAP3 POP SWAP1 POP DUP2 DUP5 DIV DUP2 GT ISZERO PUSH2 0x848 JUMPI PUSH2 0x847 PUSH2 0x6F9 JUMP JUMPDEST JUMPDEST DUP2 DUP2 MUL SWAP1 POP JUMPDEST SWAP4 SWAP3 POP POP POP JUMP JUMPDEST PUSH0 PUSH2 0x85F DUP3 PUSH2 0x354 JUMP JUMPDEST SWAP2 POP PUSH2 0x86A DUP4 PUSH2 0x31E JUMP JUMPDEST SWAP3 POP PUSH2 0x897 PUSH32 0xFFFFFFFFFFFFFFFFFFFFFFFFFFFFFFFFFFFFFFFFFFFFFFFFFFFFFFFFFFFFFFFF DUP5 DUP5 PUSH2 0x784 JUMP JUMPDEST SWAP1 POP SWAP3 SWAP2 POP POP JUMP JUMPDEST PUSH0 PUSH2 0x8A9 DUP3 PUSH2 0x354 JUMP JUMPDEST SWAP2 POP PUSH2 0x8B4 DUP4 PUSH2 0x354 JUMP JUMPDEST SWAP3 POP DUP3 DUP3 MUL PUSH2 0x8C2 DUP2 PUSH2 0x354 JUMP JUMPDEST SWAP2 POP DUP3 DUP3 DIV DUP5 EQ DUP4 ISZERO OR PUSH2 0x8D9 JUMPI PUSH2 0x8D8 PUSH2 0x6F9 JUMP JUMPDEST JUMPDEST POP SWAP3 SWAP2 POP POP JUMP JUMPDEST PUSH2 0x8E9 DUP2 PUSH2 0x354 JUMP JUMPDEST DUP3 MSTORE POP POP JUMP JUMPDEST PUSH0 PUSH1 0x20 DUP3 ADD SWAP1 POP PUSH2 0x902 PUSH0 DUP4 ADD DUP5 PUSH2 0x8E0 JUMP JUMPDEST SWAP3 SWAP2 POP POP JUMP JUMPDEST PUSH2 0x1D1C DUP1 PUSH2 0x915 PUSH0 CODECOPY PUSH0 RETURN INVALID PUSH1 0x80 PUSH1 0x40 MSTORE CALLVALUE DUP1 ISZERO PUSH2 0xF JUMPI PUSH0 PUSH0 REVERT JUMPDEST POP PUSH1 0x4 CALLDATASIZE LT PUSH2 0x11F JUMPI PUSH0 CALLDATALOAD PUSH1 0xE0 SHR DUP1 PUSH4 0x8DA5CB5B GT PUSH2 0xAB JUMPI DUP1 PUSH4 0xCB67F948 GT PUSH2 0x6F JUMPI DUP1 PUSH4 0xCB67F948 EQ PUSH2 0x356 JUMPI DUP1 PUSH4 0xD2503485 EQ PUSH2 0x372 JUMPI DUP1 PUSH4 0xD8FB9337 EQ PUSH2 0x38E JUMPI DUP1 PUSH4 0xDD62ED3E EQ PUSH2 0x3BE JUMPI DUP1 PUSH4 0xFA110AF0 EQ PUSH2 0x3EE JUMPI PUSH2 0x11F JUMP JUMPDEST DUP1 PUSH4 0x8DA5CB5B EQ PUSH2 0x29E JUMPI DUP1 PUSH4 0x95D89B41 EQ PUSH2 0x2BC JUMPI DUP1 PUSH4 0xA25983E5 EQ PUSH2 0x2DA JUMPI DUP1 PUSH4 0xA9059CBB EQ PUSH2 0x2F6 JUMPI DUP1 PUSH4 0xAA377D88 EQ PUSH2 0x326 JUMPI PUSH2 0x11F JUMP JUMPDEST DUP1 PUSH4 0x18160DDD GT PUSH2 0xF2 JUMPI DUP1 PUSH4 0x18160DDD EQ PUSH2 0x1D1 JUMPI DUP1 PUSH4 0x23B872DD EQ PUSH2 0x1EF JUMPI DUP1 PUSH4 0x313CE567 EQ PUSH2 0x21F JUMPI DUP1 PUSH4 0x5D16A6F9 EQ PUSH2 0x23D JUMPI DUP1 PUSH4 0x70A08231 EQ PUSH2 0x26E JUMPI PUSH2 0x11F JUMP JUMPDEST DUP1 PUSH4 0x6FDDE03 EQ PUSH2 0x123 JUMPI DUP1 PUSH4 0x95EA7B3 EQ PUSH2 0x141 JUMPI DUP1 PUSH4 0x129DE5BF EQ PUSH2 0x171 JUMPI DUP1 PUSH4 0x15056B54 EQ PUSH2 0x1A1 JUMPI JUMPDEST PUSH0 PUSH0 REVERT JUMPDEST PUSH2 0x12B PUSH2 0x40A JUMP JUMPDEST PUSH1 0x40 MLOAD PUSH2 0x138 SWAP2 SWAP1 PUSH2 0x15E7 JUMP JUMPDEST PUSH1 0x40 MLOAD DUP1 SWAP2 SUB SWAP1 RETURN JUMPDEST PUSH2 0x15B PUSH1 0x4 DUP1 CALLDATASIZE SUB DUP2 ADD SWAP1 PUSH2 0x156 SWAP2 SWAP1 PUSH2 0x1698 JUMP JUMPDEST PUSH2 0x495 JUMP JUMPDEST PUSH1 0x40 MLOAD PUSH2 0x168 SWAP2 SWAP1 PUSH2 0x16F0 JUMP JUMPDEST PUSH1 0x40 MLOAD DUP1 SWAP2 SUB SWAP1 RETURN JUMPDEST PUSH2 0x18B PUSH1 0x4 DUP1 CALLDATASIZE SUB DUP2 ADD SWAP1 PUSH2 0x186 SWAP2 SWAP1 PUSH2 0x1709 JUMP JUMPDEST PUSH2 0x4AB JUMP JUMPDEST PUSH1 0x40 MLOAD PUSH2 0x198 SWAP2 SWAP1 PUSH2 0x1743 JUMP JUMPDEST PUSH1 0x40 MLOAD DUP1 SWAP2 SUB SWAP1 RETURN JUMPDEST PUSH2 0x1BB PUSH1 0x4 DUP1 CALLDATASIZE SUB DUP2 ADD SWAP1 PUSH2 0x1B6 SWAP2 SWAP1 PUSH2 0x1709 JUMP JUMPDEST PUSH2 0x539 JUMP JUMPDEST PUSH1 0x40 MLOAD PUSH2 0x1C8 SWAP2 SWAP1 PUSH2 0x1840 JUMP JUMPDEST PUSH1 0x40 MLOAD DUP1 SWAP2 SUB SWAP1 RETURN JUMPDEST PUSH2 0x1D9 PUSH2 0x5E5 JUMP JUMPDEST PUSH1 0x40 MLOAD PUSH2 0x1E6 SWAP2 SWAP1 PUSH2 0x1743 JUMP JUMPDEST PUSH1 0x40 MLOAD DUP1 SWAP2 SUB SWAP1 RETURN JUMPDEST PUSH2 0x209 PUSH1 0x4 DUP1 CALLDATASIZE SUB DUP2 ADD SWAP1 PUSH2 0x204 SWAP2 SWAP1 PUSH2 0x1860 JUMP JUMPDEST PUSH2 0x5EB JUMP JUMPDEST PUSH1 0x40 MLOAD PUSH2 0x216 SWAP2 SWAP1 PUSH2 0x16F0 JUMP JUMPDEST PUSH1 0x40 MLOAD DUP1 SWAP2 SUB SWAP1 RETURN JUMPDEST PUSH2 0x227 PUSH2 0x658 JUMP JUMPDEST PUSH1 0x40 MLOAD PUSH2 0x234 SWAP2 SWAP1 PUSH2 0x18CB JUMP JUMPDEST PUSH1 0x40 MLOAD DUP1 SWAP2 SUB SWAP1 RETURN JUMPDEST PUSH2 0x257 PUSH1 0x4 DUP1 CALLDATASIZE SUB DUP2 ADD SWAP1 PUSH2 0x252 SWAP2 SWAP1 PUSH2 0x1698 JUMP JUMPDEST PUSH2 0x66A JUMP JUMPDEST PUSH1 0x40 MLOAD PUSH2 0x265 SWAP3 SWAP2 SWAP1 PUSH2 0x18E4 JUMP JUMPDEST PUSH1 0x40 MLOAD DUP1 SWAP2 SUB SWAP1 RETURN JUMPDEST PUSH2 0x288 PUSH1 0x4 DUP1 CALLDATASIZE SUB DUP2 ADD SWAP1 PUSH2 0x283 SWAP2 SWAP1 PUSH2 0x1709 JUMP JUMPDEST PUSH2 0x6A4 JUMP JUMPDEST PUSH1 0x40 MLOAD PUSH2 0x295 SWAP2 SWAP1 PUSH2 0x1743 JUMP JUMPDEST PUSH1 0x40 MLOAD DUP1 SWAP2 SUB SWAP1 RETURN JUMPDEST PUSH2 0x2A6 PUSH2 0x6EA JUMP JUMPDEST PUSH1 0x40 MLOAD PUSH2 0x2B3 SWAP2 SWAP1 PUSH2 0x191A JUMP JUMPDEST PUSH1 0x40 MLOAD DUP1 SWAP2 SUB SWAP1 RETURN JUMPDEST PUSH2 0x2C4 PUSH2 0x70F JUMP JUMPDEST PUSH1 0x40 MLOAD PUSH2 0x2D1 SWAP2 SWAP1 PUSH2 0x15E7 JUMP JUMPDEST PUSH1 0x40 MLOAD DUP1 SWAP2 SUB SWAP1 RETURN JUMPDEST PUSH2 0x2F4 PUSH1 0x4 DUP1 CALLDATASIZE SUB DUP2 ADD SWAP1 PUSH2 0x2EF SWAP2 SWAP1 PUSH2 0x1933 JUMP JUMPDEST PUSH2 0x79B JUMP JUMPDEST STOP JUMPDEST PUSH2 0x310 PUSH1 0x4 DUP1 CALLDATASIZE SUB DUP2 ADD SWAP1 PUSH2 0x30B SWAP2 SWAP1 PUSH2 0x1698 JUMP JUMPDEST PUSH2 0xABA JUMP JUMPDEST PUSH1 0x40 MLOAD PUSH2 0x31D SWAP2 SWAP1 PUSH2 0x16F0 JUMP JUMPDEST PUSH1 0x40 MLOAD DUP1 SWAP2 SUB SWAP1 RETURN JUMPDEST PUSH2 0x340 PUSH1 0x4 DUP1 CALLDATASIZE SUB DUP2 ADD SWAP1 PUSH2 0x33B SWAP2 SWAP1 PUSH2 0x1709 JUMP JUMPDEST PUSH2 0xB1B JUMP JUMPDEST PUSH1 0x40 MLOAD PUSH2 0x34D SWAP2 SWAP1 PUSH2 0x16F0 JUMP JUMPDEST PUSH1 0x40 MLOAD DUP1 SWAP2 SUB SWAP1 RETURN JUMPDEST PUSH2 0x370 PUSH1 0x4 DUP1 CALLDATASIZE SUB DUP2 ADD SWAP1 PUSH2 0x36B SWAP2 SWAP1 PUSH2 0x1709 JUMP JUMPDEST PUSH2 0xB38 JUMP JUMPDEST STOP JUMPDEST PUSH2 0x38C PUSH1 0x4 DUP1 CALLDATASIZE SUB DUP2 ADD SWAP1 PUSH2 0x387 SWAP2 SWAP1 PUSH2 0x1709 JUMP JUMPDEST PUSH2 0xDE2 JUMP JUMPDEST STOP JUMPDEST PUSH2 0x3A8 PUSH1 0x4 DUP1 CALLDATASIZE SUB DUP2 ADD SWAP1 PUSH2 0x3A3 SWAP2 SWAP1 PUSH2 0x1709 JUMP JUMPDEST PUSH2 0xF76 JUMP JUMPDEST PUSH1 0x40 MLOAD PUSH2 0x3B5 SWAP2 SWAP1 PUSH2 0x1743 JUMP JUMPDEST PUSH1 0x40 MLOAD DUP1 SWAP2 SUB SWAP1 RETURN JUMPDEST PUSH2 0x3D8 PUSH1 0x4 DUP1 CALLDATASIZE SUB DUP2 ADD SWAP1 PUSH2 0x3D3 SWAP2 SWAP1 PUSH2 0x1983 JUMP JUMPDEST PUSH2 0xF8B JUMP JUMPDEST PUSH1 0x40 MLOAD PUSH2 0x3E5 SWAP2 SWAP1 PUSH2 0x1743 JUMP JUMPDEST PUSH1 0x40 MLOAD DUP1 SWAP2 SUB SWAP1 RETURN JUMPDEST PUSH2 0x408 PUSH1 0x4 DUP1 CALLDATASIZE SUB DUP2 ADD SWAP1 PUSH2 0x403 SWAP2 SWAP1 PUSH2 0x1709 JUMP JUMPDEST PUSH2 0x100D JUMP JUMPDEST STOP JUMPDEST PUSH0 DUP1 SLOAD PUSH2 0x416 SWAP1 PUSH2 0x19EE JUMP JUMPDEST DUP1 PUSH1 0x1F ADD PUSH1 0x20 DUP1 SWAP2 DIV MUL PUSH1 0x20 ADD PUSH1 0x40 MLOAD SWAP1 DUP2 ADD PUSH1 0x40 MSTORE DUP1 SWAP3 SWAP2 SWAP1 DUP2 DUP2 MSTORE PUSH1 0x20 ADD DUP3 DUP1 SLOAD PUSH2 0x442 SWAP1 PUSH2 0x19EE JUMP JUMPDEST DUP1 ISZERO PUSH2 0x48D JUMPI DUP1 PUSH1 0x1F LT PUSH2 0x464 JUMPI PUSH2 0x100 DUP1 DUP4 SLOAD DIV MUL DUP4 MSTORE SWAP2 PUSH1 0x20 ADD SWAP2 PUSH2 0x48D JUMP JUMPDEST DUP3 ADD SWAP2 SWAP1 PUSH0 MSTORE PUSH1 0x20 PUSH0 KECCAK256 SWAP1 JUMPDEST DUP2 SLOAD DUP2 MSTORE SWAP1 PUSH1 0x1 ADD SWAP1 PUSH1 0x20 ADD DUP1 DUP4 GT PUSH2 0x470 JUMPI DUP3 SWAP1 SUB PUSH1 0x1F AND DUP3 ADD SWAP2 JUMPDEST POP POP POP POP POP DUP2 JUMP JUMPDEST PUSH0 PUSH2 0x4A1 CALLER DUP5 DUP5 PUSH2 0x119F JUMP JUMPDEST PUSH1 0x1 SWAP1 POP SWAP3 SWAP2 POP POP JUMP JUMPDEST PUSH0 PUSH1 0x7 PUSH0 DUP4 PUSH20 0xFFFFFFFFFFFFFFFFFFFFFFFFFFFFFFFFFFFFFFFF AND PUSH20 0xFFFFFFFFFFFFFFFFFFFFFFFFFFFFFFFFFFFFFFFF AND DUP2 MSTORE PUSH1 0x20 ADD SWAP1 DUP2 MSTORE PUSH1 0x20 ADD PUSH0 KECCAK256 SLOAD PUSH1 0x4 PUSH0 DUP5 PUSH20 0xFFFFFFFFFFFFFFFFFFFFFFFFFFFFFFFFFFFFFFFF AND PUSH20 0xFFFFFFFFFFFFFFFFFFFFFFFFFFFFFFFFFFFFFFFF AND DUP2 MSTORE PUSH1 0x20 ADD SWAP1 DUP2 MSTORE PUSH1 0x20 ADD PUSH0 KECCAK256 SLOAD PUSH2 0x532 SWAP2 SWAP1 PUSH2 0x1A4B JUMP JUMPDEST SWAP1 POP SWAP2 SWAP1 POP JUMP JUMPDEST PUSH1 0x60 PUSH1 0x6 PUSH0 DUP4 PUSH20 0xFFFFFFFFFFFFFFFFFFFFFFFFFFFFFFFFFFFFFFFF AND PUSH20 0xFFFFFFFFFFFFFFFFFFFFFFFFFFFFFFFFFFFFFFFF AND DUP2 MSTORE PUSH1 0x20 ADD SWAP1 DUP2 MSTORE PUSH1 0x20 ADD PUSH0 KECCAK256 DUP1 SLOAD DUP1 PUSH1 0x20 MUL PUSH1 0x20 ADD PUSH1 0x40 MLOAD SWAP1 DUP2 ADD PUSH1 0x40 MSTORE DUP1 SWAP3 SWAP2 SWAP1 DUP2 DUP2 MSTORE PUSH1 0x20 ADD PUSH0 SWAP1 JUMPDEST DUP3 DUP3 LT ISZERO PUSH2 0x5DA JUMPI DUP4 DUP3 SWAP1 PUSH0 MSTORE PUSH1 0x20 PUSH0 KECCAK256 SWAP1 PUSH1 0x2 MUL ADD PUSH1 0x40 MLOAD DUP1 PUSH1 0x40 ADD PUSH1 0x40 MSTORE SWAP1 DUP2 PUSH0 DUP3 ADD SLOAD DUP2 MSTORE PUSH1 0x20 ADD PUSH1 0x1 DUP3 ADD SLOAD DUP2 MSTORE POP POP DUP2 MSTORE PUSH1 0x20 ADD SWAP1 PUSH1 0x1 ADD SWAP1 PUSH2 0x597 JUMP JUMPDEST POP POP POP POP SWAP1 POP SWAP2 SWAP1 POP JUMP JUMPDEST PUSH1 0x3 SLOAD DUP2 JUMP JUMPDEST PUSH0 DUP2 PUSH2 0x5F6 DUP6 PUSH2 0x4AB JUMP JUMPDEST LT ISZERO PUSH2 0x637 JUMPI PUSH1 0x40 MLOAD PUSH32 0x8C379A000000000000000000000000000000000000000000000000000000000 DUP2 MSTORE PUSH1 0x4 ADD PUSH2 0x62E SWAP1 PUSH2 0x1AC8 JUMP JUMPDEST PUSH1 0x40 MLOAD DUP1 SWAP2 SUB SWAP1 REVERT JUMPDEST PUSH2 0x642 DUP5 CALLER DUP5 PUSH2 0x12ED JUMP JUMPDEST PUSH2 0x64D DUP5 DUP5 DUP5 PUSH2 0x1381 JUMP JUMPDEST PUSH1 0x1 SWAP1 POP SWAP4 SWAP3 POP POP POP JUMP JUMPDEST PUSH1 0x2 PUSH0 SWAP1 SLOAD SWAP1 PUSH2 0x100 EXP SWAP1 DIV PUSH1 0xFF AND DUP2 JUMP JUMPDEST PUSH1 0x6 PUSH1 0x20 MSTORE DUP2 PUSH0 MSTORE PUSH1 0x40 PUSH0 KECCAK256 DUP2 DUP2 SLOAD DUP2 LT PUSH2 0x683 JUMPI PUSH0 DUP1 REVERT JUMPDEST SWAP1 PUSH0 MSTORE PUSH1 0x20 PUSH0 KECCAK256 SWAP1 PUSH1 0x2 MUL ADD PUSH0 SWAP2 POP SWAP2 POP POP DUP1 PUSH0 ADD SLOAD SWAP1 DUP1 PUSH1 0x1 ADD SLOAD SWAP1 POP DUP3 JUMP JUMPDEST PUSH0 PUSH1 0x4 PUSH0 DUP4 PUSH20 0xFFFFFFFFFFFFFFFFFFFFFFFFFFFFFFFFFFFFFFFF AND PUSH20 0xFFFFFFFFFFFFFFFFFFFFFFFFFFFFFFFFFFFFFFFF AND DUP2 MSTORE PUSH1 0x20 ADD SWAP1 DUP2 MSTORE PUSH1 0x20 ADD PUSH0 KECCAK256 SLOAD SWAP1 POP SWAP2 SWAP1 POP JUMP JUMPDEST PUSH1 0x8 PUSH0 SWAP1 SLOAD SWAP1 PUSH2 0x100 EXP SWAP1 DIV PUSH20 0xFFFFFFFFFFFFFFFFFFFFFFFFFFFFFFFFFFFFFFFF AND DUP2 JUMP JUMPDEST PUSH1 0x1 DUP1 SLOAD PUSH2 0x71C SWAP1 PUSH2 0x19EE JUMP JUMPDEST DUP1 PUSH1 0x1F ADD PUSH1 0x20 DUP1 SWAP2 DIV MUL PUSH1 0x20 ADD PUSH1 0x40 MLOAD SWAP1 DUP2 ADD PUSH1 0x40 MSTORE DUP1 SWAP3 SWAP2 SWAP1 DUP2 DUP2 MSTORE PUSH1 0x20 ADD DUP3 DUP1 SLOAD PUSH2 0x748 SWAP1 PUSH2 0x19EE JUMP JUMPDEST DUP1 ISZERO PUSH2 0x793 JUMPI DUP1 PUSH1 0x1F LT PUSH2 0x76A JUMPI PUSH2 0x100 DUP1 DUP4 SLOAD DIV MUL DUP4 MSTORE SWAP2 PUSH1 0x20 ADD SWAP2 PUSH2 0x793 JUMP JUMPDEST DUP3 ADD SWAP2 SWAP1 PUSH0 MSTORE PUSH1 0x20 PUSH0 KECCAK256 SWAP1 JUMPDEST DUP2 SLOAD DUP2 MSTORE SWAP1 PUSH1 0x1 ADD SWAP1 PUSH1 0x20 ADD DUP1 DUP4 GT PUSH2 0x776 JUMPI DUP3 SWAP1 SUB PUSH1 0x1F AND DUP3 ADD SWAP2 JUMPDEST POP POP POP POP POP DUP2 JUMP JUMPDEST PUSH1 0x9 PUSH0 CALLER PUSH20 0xFFFFFFFFFFFFFFFFFFFFFFFFFFFFFFFFFFFFFFFF AND PUSH20 0xFFFFFFFFFFFFFFFFFFFFFFFFFFFFFFFFFFFFFFFF AND DUP2 MSTORE PUSH1 0x20 ADD SWAP1 DUP2 MSTORE PUSH1 0x20 ADD PUSH0 KECCAK256 PUSH0 SWAP1 SLOAD SWAP1 PUSH2 0x100 EXP SWAP1 DIV PUSH1 0xFF AND PUSH2 0x81B JUMPI PUSH1 0x40 MLOAD PUSH32 0x5A61D13700000000000000000000000000000000000000000000000000000000 DUP2 MSTORE PUSH1 0x4 ADD PUSH1 0x40 MLOAD DUP1 SWAP2 SUB SWAP1 REVERT JUMPDEST DUP3 PUSH0 PUSH20 0xFFFFFFFFFFFFFFFFFFFFFFFFFFFFFFFFFFFFFFFF AND DUP2 PUSH20 0xFFFFFFFFFFFFFFFFFFFFFFFFFFFFFFFFFFFFFFFF AND SUB PUSH2 0x881 JUMPI PUSH1 0x40 MLOAD PUSH32 0xD92E233D00000000000000000000000000000000000000000000000000000000 DUP2 MSTORE PUSH1 0x4 ADD PUSH1 0x40 MLOAD DUP1 SWAP2 SUB SWAP1 REVERT JUMPDEST PUSH0 DUP4 GT PUSH2 0x8C3 JUMPI PUSH1 0x40 MLOAD PUSH32 0x8C379A000000000000000000000000000000000000000000000000000000000 DUP2 MSTORE PUSH1 0x4 ADD PUSH2 0x8BA SWAP1 PUSH2 0x1B30 JUMP JUMPDEST PUSH1 0x40 MLOAD DUP1 SWAP2 SUB SWAP1 REVERT JUMPDEST TIMESTAMP DUP3 GT PUSH2 0x905 JUMPI PUSH1 0x40 MLOAD PUSH32 0x8C379A000000000000000000000000000000000000000000000000000000000 DUP2 MSTORE PUSH1 0x4 ADD PUSH2 0x8FC SWAP1 PUSH2 0x1B98 JUMP JUMPDEST PUSH1 0x40 MLOAD DUP1 SWAP2 SUB SWAP1 REVERT JUMPDEST DUP3 PUSH1 0x4 PUSH0 DUP7 PUSH20 0xFFFFFFFFFFFFFFFFFFFFFFFFFFFFFFFFFFFFFFFF AND PUSH20 0xFFFFFFFFFFFFFFFFFFFFFFFFFFFFFFFFFFFFFFFF AND DUP2 MSTORE PUSH1 0x20 ADD SWAP1 DUP2 MSTORE PUSH1 0x20 ADD PUSH0 KECCAK256 SLOAD LT ISZERO PUSH2 0x985 JUMPI PUSH1 0x40 MLOAD PUSH32 0x8C379A000000000000000000000000000000000000000000000000000000000 DUP2 MSTORE PUSH1 0x4 ADD PUSH2 0x97C SWAP1 PUSH2 0x1C00 JUMP JUMPDEST PUSH1 0x40 MLOAD DUP1 SWAP2 SUB SWAP1 REVERT JUMPDEST PUSH1 0x6 PUSH0 DUP6 PUSH20 0xFFFFFFFFFFFFFFFFFFFFFFFFFFFFFFFFFFFFFFFF AND PUSH20 0xFFFFFFFFFFFFFFFFFFFFFFFFFFFFFFFFFFFFFFFF AND DUP2 MSTORE PUSH1 0x20 ADD SWAP1 DUP2 MSTORE PUSH1 0x20 ADD PUSH0 KECCAK256 PUSH1 0x40 MLOAD DUP1 PUSH1 0x40 ADD PUSH1 0x40 MSTORE DUP1 DUP6 DUP2 MSTORE PUSH1 0x20 ADD DUP5 DUP2 MSTORE POP SWAP1 DUP1 PUSH1 0x1 DUP2 SLOAD ADD DUP1 DUP3 SSTORE DUP1 SWAP2 POP POP PUSH1 0x1 SWAP1 SUB SWAP1 PUSH0 MSTORE PUSH1 0x20 PUSH0 KECCAK256 SWAP1 PUSH1 0x2 MUL ADD PUSH0 SWAP1 SWAP2 SWAP1 SWAP2 SWAP1 SWAP2 POP PUSH0 DUP3 ADD MLOAD DUP2 PUSH0 ADD SSTORE PUSH1 0x20 DUP3 ADD MLOAD DUP2 PUSH1 0x1 ADD SSTORE POP POP DUP3 PUSH1 0x7 PUSH0 DUP7 PUSH20 0xFFFFFFFFFFFFFFFFFFFFFFFFFFFFFFFFFFFFFFFF AND PUSH20 0xFFFFFFFFFFFFFFFFFFFFFFFFFFFFFFFFFFFFFFFF AND DUP2 MSTORE PUSH1 0x20 ADD SWAP1 DUP2 MSTORE PUSH1 0x20 ADD PUSH0 KECCAK256 PUSH0 DUP3 DUP3 SLOAD PUSH2 0xA5D SWAP2 SWAP1 PUSH2 0x1C1E JUMP JUMPDEST SWAP3 POP POP DUP2 SWAP1 SSTORE POP DUP4 PUSH20 0xFFFFFFFFFFFFFFFFFFFFFFFFFFFFFFFFFFFFFFFF AND PUSH32 0xD741E738A23FD18A03A26522320D9FC6CAC1FED483E215EA9150FBC2FC43385D DUP5 DUP5 PUSH1 0x40 MLOAD PUSH2 0xAAC SWAP3 SWAP2 SWAP1 PUSH2 0x18E4 JUMP JUMPDEST PUSH1 0x40 MLOAD DUP1 SWAP2 SUB SWAP1 LOG2 POP POP POP POP JUMP JUMPDEST PUSH0 DUP2 PUSH2 0xAC5 CALLER PUSH2 0x4AB JUMP JUMPDEST LT ISZERO PUSH2 0xB06 JUMPI PUSH1 0x40 MLOAD PUSH32 0x8C379A000000000000000000000000000000000000000000000000000000000 DUP2 MSTORE PUSH1 0x4 ADD PUSH2 0xAFD SWAP1 PUSH2 0x1AC8 JUMP JUMPDEST PUSH1 0x40 MLOAD DUP1 SWAP2 SUB SWAP1 REVERT JUMPDEST PUSH2 0xB11 CALLER DUP5 DUP5 PUSH2 0x1381 JUMP JUMPDEST PUSH1 0x1 SWAP1 POP SWAP3 SWAP2 POP POP JUMP JUMPDEST PUSH1 0x9 PUSH1 0x20 MSTORE DUP1 PUSH0 MSTORE PUSH1 0x40 PUSH0 KECCAK256 PUSH0 SWAP2 POP SLOAD SWAP1 PUSH2 0x100 EXP SWAP1 DIV PUSH1 0xFF AND DUP2 JUMP JUMPDEST PUSH0 PUSH0 SWAP1 POP PUSH0 PUSH0 SWAP1 POP JUMPDEST PUSH1 0x6 PUSH0 DUP5 PUSH20 0xFFFFFFFFFFFFFFFFFFFFFFFFFFFFFFFFFFFFFFFF AND PUSH20 0xFFFFFFFFFFFFFFFFFFFFFFFFFFFFFFFFFFFFFFFF AND DUP2 MSTORE PUSH1 0x20 ADD SWAP1 DUP2 MSTORE PUSH1 0x20 ADD PUSH0 KECCAK256 DUP1 SLOAD SWAP1 POP DUP2 LT ISZERO PUSH2 0xD33 JUMPI TIMESTAMP PUSH1 0x6 PUSH0 DUP6 PUSH20 0xFFFFFFFFFFFFFFFFFFFFFFFFFFFFFFFFFFFFFFFF AND PUSH20 0xFFFFFFFFFFFFFFFFFFFFFFFFFFFFFFFFFFFFFFFF AND DUP2 MSTORE PUSH1 0x20 ADD SWAP1 DUP2 MSTORE PUSH1 0x20 ADD PUSH0 KECCAK256 DUP3 DUP2 SLOAD DUP2 LT PUSH2 0xBD9 JUMPI PUSH2 0xBD8 PUSH2 0x1C51 JUMP JUMPDEST JUMPDEST SWAP1 PUSH0 MSTORE PUSH1 0x20 PUSH0 KECCAK256 SWAP1 PUSH1 0x2 MUL ADD PUSH1 0x1 ADD SLOAD GT ISZERO DUP1 ISZERO PUSH2 0xC53 JUMPI POP PUSH0 PUSH1 0x6 PUSH0 DUP6 PUSH20 0xFFFFFFFFFFFFFFFFFFFFFFFFFFFFFFFFFFFFFFFF AND PUSH20 0xFFFFFFFFFFFFFFFFFFFFFFFFFFFFFFFFFFFFFFFF AND DUP2 MSTORE PUSH1 0x20 ADD SWAP1 DUP2 MSTORE PUSH1 0x20 ADD PUSH0 KECCAK256 DUP3 DUP2 SLOAD DUP2 LT PUSH2 0xC42 JUMPI PUSH2 0xC41 PUSH2 0x1C51 JUMP JUMPDEST JUMPDEST SWAP1 PUSH0 MSTORE PUSH1 0x20 PUSH0 KECCAK256 SWAP1 PUSH1 0x2 MUL ADD PUSH0 ADD SLOAD GT JUMPDEST ISZERO PUSH2 0xD26 JUMPI PUSH1 0x6 PUSH0 DUP5 PUSH20 0xFFFFFFFFFFFFFFFFFFFFFFFFFFFFFFFFFFFFFFFF AND PUSH20 0xFFFFFFFFFFFFFFFFFFFFFFFFFFFFFFFFFFFFFFFF AND DUP2 MSTORE PUSH1 0x20 ADD SWAP1 DUP2 MSTORE PUSH1 0x20 ADD PUSH0 KECCAK256 DUP2 DUP2 SLOAD DUP2 LT PUSH2 0xCA7 JUMPI PUSH2 0xCA6 PUSH2 0x1C51 JUMP JUMPDEST JUMPDEST SWAP1 PUSH0 MSTORE PUSH1 0x20 PUSH0 KECCAK256 SWAP1 PUSH1 0x2 MUL ADD PUSH0 ADD SLOAD DUP3 PUSH2 0xCC1 SWAP2 SWAP1 PUSH2 0x1C1E JUMP JUMPDEST SWAP2 POP PUSH0 PUSH1 0x6 PUSH0 DUP6 PUSH20 0xFFFFFFFFFFFFFFFFFFFFFFFFFFFFFFFFFFFFFFFF AND PUSH20 0xFFFFFFFFFFFFFFFFFFFFFFFFFFFFFFFFFFFFFFFF AND DUP2 MSTORE PUSH1 0x20 ADD SWAP1 DUP2 MSTORE PUSH1 0x20 ADD PUSH0 KECCAK256 DUP3 DUP2 SLOAD DUP2 LT PUSH2 0xD13 JUMPI PUSH2 0xD12 PUSH2 0x1C51 JUMP JUMPDEST JUMPDEST SWAP1 PUSH0 MSTORE PUSH1 0x20 PUSH0 KECCAK256 SWAP1 PUSH1 0x2 MUL ADD PUSH0 ADD DUP2 SWAP1 SSTORE POP JUMPDEST DUP1 DUP1 PUSH1 0x1 ADD SWAP2 POP POP PUSH2 0xB41 JUMP JUMPDEST POP PUSH0 DUP2 GT ISZERO PUSH2 0xDDE JUMPI DUP1 PUSH1 0x7 PUSH0 DUP5 PUSH20 0xFFFFFFFFFFFFFFFFFFFFFFFFFFFFFFFFFFFFFFFF AND PUSH20 0xFFFFFFFFFFFFFFFFFFFFFFFFFFFFFFFFFFFFFFFF AND DUP2 MSTORE PUSH1 0x20 ADD SWAP1 DUP2 MSTORE PUSH1 0x20 ADD PUSH0 KECCAK256 PUSH0 DUP3 DUP3 SLOAD PUSH2 0xD88 SWAP2 SWAP1 PUSH2 0x1A4B JUMP JUMPDEST SWAP3 POP POP DUP2 SWAP1 SSTORE POP DUP2 PUSH20 0xFFFFFFFFFFFFFFFFFFFFFFFFFFFFFFFFFFFFFFFF AND PUSH32 0xE7B379C6C1FA169E9079C25E9143B127637EEF8EC8C9D5C06DDB4AB3E1195888 DUP3 PUSH1 0x40 MLOAD PUSH2 0xDD5 SWAP2 SWAP1 PUSH2 0x1743 JUMP JUMPDEST PUSH1 0x40 MLOAD DUP1 SWAP2 SUB SWAP1 LOG2 JUMPDEST POP POP JUMP JUMPDEST PUSH1 0x8 PUSH0 SWAP1 SLOAD SWAP1 PUSH2 0x100 EXP SWAP1 DIV PUSH20 0xFFFFFFFFFFFFFFFFFFFFFFFFFFFFFFFFFFFFFFFF AND PUSH20 0xFFFFFFFFFFFFFFFFFFFFFFFFFFFFFFFFFFFFFFFF AND CALLER PUSH20 0xFFFFFFFFFFFFFFFFFFFFFFFFFFFFFFFFFFFFFFFF AND EQ PUSH2 0xE68 JUMPI PUSH1 0x40 MLOAD PUSH32 0x30CD747100000000000000000000000000000000000000000000000000000000 DUP2 MSTORE PUSH1 0x4 ADD PUSH1 0x40 MLOAD DUP1 SWAP2 SUB SWAP1 REVERT JUMPDEST DUP1 PUSH0 PUSH20 0xFFFFFFFFFFFFFFFFFFFFFFFFFFFFFFFFFFFFFFFF AND DUP2 PUSH20 0xFFFFFFFFFFFFFFFFFFFFFFFFFFFFFFFFFFFFFFFF AND SUB PUSH2 0xECE JUMPI PUSH1 0x40 MLOAD PUSH32 0xD92E233D00000000000000000000000000000000000000000000000000000000 DUP2 MSTORE PUSH1 0x4 ADD PUSH1 0x40 MLOAD DUP1 SWAP2 SUB SWAP1 REVERT JUMPDEST PUSH1 0x1 PUSH1 0x9 PUSH0 DUP5 PUSH20 0xFFFFFFFFFFFFFFFFFFFFFFFFFFFFFFFFFFFFFFFF AND PUSH20 0xFFFFFFFFFFFFFFFFFFFFFFFFFFFFFFFFFFFFFFFF AND DUP2 MSTORE PUSH1 0x20 ADD SWAP1 DUP2 MSTORE PUSH1 0x20 ADD PUSH0 KECCAK256 PUSH0 PUSH2 0x100 EXP DUP2 SLOAD DUP2 PUSH1 0xFF MUL NOT AND SWAP1 DUP4 ISZERO ISZERO MUL OR SWAP1 SSTORE POP DUP2 PUSH20 0xFFFFFFFFFFFFFFFFFFFFFFFFFFFFFFFFFFFFFFFF AND PUSH32 0x746F7D497D87E2466D31E82801906C1FA440311829558E0E37D95A0CA08BDAE0 PUSH1 0x1 PUSH1 0x40 MLOAD PUSH2 0xF6A SWAP2 SWAP1 PUSH2 0x16F0 JUMP JUMPDEST PUSH1 0x40 MLOAD DUP1 SWAP2 SUB SWAP1 LOG2 POP POP JUMP JUMPDEST PUSH1 0x7 PUSH1 0x20 MSTORE DUP1 PUSH0 MSTORE PUSH1 0x40 PUSH0 KECCAK256 PUSH0 SWAP2 POP SWAP1 POP SLOAD DUP2 JUMP JUMPDEST PUSH0 PUSH1 0x5 PUSH0 DUP5 PUSH20 0xFFFFFFFFFFFFFFFFFFFFFFFFFFFFFFFFFFFFFFFF AND PUSH20 0xFFFFFFFFFFFFFFFFFFFFFFFFFFFFFFFFFFFFFFFF AND DUP2 MSTORE PUSH1 0x20 ADD SWAP1 DUP2 MSTORE PUSH1 0x20 ADD PUSH0 KECCAK256 PUSH0 DUP4 PUSH20 0xFFFFFFFFFFFFFFFFFFFFFFFFFFFFFFFFFFFFFFFF AND PUSH20 0xFFFFFFFFFFFFFFFFFFFFFFFFFFFFFFFFFFFFFFFF AND DUP2 MSTORE PUSH1 0x20 ADD SWAP1 DUP2 MSTORE PUSH1 0x20 ADD PUSH0 KECCAK256 SLOAD SWAP1 POP SWAP3 SWAP2 POP POP JUMP JUMPDEST PUSH1 0x8 PUSH0 SWAP1 SLOAD SWAP1 PUSH2 0x100 EXP SWAP1 DIV PUSH20 0xFFFFFFFFFFFFFFFFFFFFFFFFFFFFFFFFFFFFFFFF AND PUSH20 0xFFFFFFFFFFFFFFFFFFFFFFFFFFFFFFFFFFFFFFFF AND CALLER PUSH20 0xFFFFFFFFFFFFFFFFFFFFFFFFFFFFFFFFFFFFFFFF AND EQ PUSH2 0x1093 JUMPI PUSH1 0x40 MLOAD PUSH32 0x30CD747100000000000000000000000000000000000000000000000000000000 DUP2 MSTORE PUSH1 0x4 ADD PUSH1 0x40 MLOAD DUP1 SWAP2 SUB SWAP1 REVERT JUMPDEST DUP1 PUSH0 PUSH20 0xFFFFFFFFFFFFFFFFFFFFFFFFFFFFFFFFFFFFFFFF AND DUP2 PUSH20 0xFFFFFFFFFFFFFFFFFFFFFFFFFFFFFFFFFFFFFFFF AND SUB PUSH2 0x10F9 JUMPI PUSH1 0x40 MLOAD PUSH32 0xD92E233D00000000000000000000000000000000000000000000000000000000 DUP2 MSTORE PUSH1 0x4 ADD PUSH1 0x40 MLOAD DUP1 SWAP2 SUB SWAP1 REVERT JUMPDEST PUSH0 PUSH1 0x9 PUSH0 DUP5 PUSH20 0xFFFFFFFFFFFFFFFFFFFFFFFFFFFFFFFFFFFFFFFF AND PUSH20 0xFFFFFFFFFFFFFFFFFFFFFFFFFFFFFFFFFFFFFFFF AND DUP2 MSTORE PUSH1 0x20 ADD SWAP1 DUP2 MSTORE PUSH1 0x20 ADD PUSH0 KECCAK256 PUSH0 PUSH2 0x100 EXP DUP2 SLOAD DUP2 PUSH1 0xFF MUL NOT AND SWAP1 DUP4 ISZERO ISZERO MUL OR SWAP1 SSTORE POP DUP2 PUSH20 0xFFFFFFFFFFFFFFFFFFFFFFFFFFFFFFFFFFFFFFFF AND PUSH32 0x746F7D497D87E2466D31E82801906C1FA440311829558E0E37D95A0CA08BDAE0 PUSH0 PUSH1 0x40 MLOAD PUSH2 0x1193 SWAP2 SWAP1 PUSH2 0x16F0 JUMP JUMPDEST PUSH1 0x40 MLOAD DUP1 SWAP2 SUB SWAP1 LOG2 POP POP JUMP JUMPDEST DUP2 PUSH0 PUSH20 0xFFFFFFFFFFFFFFFFFFFFFFFFFFFFFFFFFFFFFFFF AND DUP2 PUSH20 0xFFFFFFFFFFFFFFFFFFFFFFFFFFFFFFFFFFFFFFFF AND SUB PUSH2 0x1205 JUMPI PUSH1 0x40 MLOAD PUSH32 0xD92E233D00000000000000000000000000000000000000000000000000000000 DUP2 MSTORE PUSH1 0x4 ADD PUSH1 0x40 MLOAD DUP1 SWAP2 SUB SWAP1 REVERT JUMPDEST DUP2 PUSH1 0x5 PUSH0 DUP7 PUSH20 0xFFFFFFFFFFFFFFFFFFFFFFFFFFFFFFFFFFFFFFFF AND PUSH20 0xFFFFFFFFFFFFFFFFFFFFFFFFFFFFFFFFFFFFFFFF AND DUP2 MSTORE PUSH1 0x20 ADD SWAP1 DUP2 MSTORE PUSH1 0x20 ADD PUSH0 KECCAK256 PUSH0 DUP6 PUSH20 0xFFFFFFFFFFFFFFFFFFFFFFFFFFFFFFFFFFFFFFFF AND PUSH20 0xFFFFFFFFFFFFFFFFFFFFFFFFFFFFFFFFFFFFFFFF AND DUP2 MSTORE PUSH1 0x20 ADD SWAP1 DUP2 MSTORE PUSH1 0x20 ADD PUSH0 KECCAK256 DUP2 SWAP1 SSTORE POP DUP3 PUSH20 0xFFFFFFFFFFFFFFFFFFFFFFFFFFFFFFFFFFFFFFFF AND DUP5 PUSH20 0xFFFFFFFFFFFFFFFFFFFFFFFFFFFFFFFFFFFFFFFF AND PUSH32 0x8C5BE1E5EBEC7D5BD14F71427D1E84F3DD0314C0F7B2291E5B200AC8C7C3B925 DUP5 PUSH1 0x40 MLOAD PUSH2 0x12DF SWAP2 SWAP1 PUSH2 0x1743 JUMP JUMPDEST PUSH1 0x40 MLOAD DUP1 SWAP2 SUB SWAP1 LOG3 POP POP POP POP JUMP JUMPDEST PUSH0 PUSH2 0x12F8 DUP5 DUP5 PUSH2 0xF8B JUMP JUMPDEST SWAP1 POP PUSH32 0xFFFFFFFFFFFFFFFFFFFFFFFFFFFFFFFFFFFFFFFFFFFFFFFFFFFFFFFFFFFFFFFF DUP2 EQ PUSH2 0x137B JUMPI DUP2 DUP2 LT ISZERO PUSH2 0x1364 JUMPI PUSH1 0x40 MLOAD PUSH32 0x8C379A000000000000000000000000000000000000000000000000000000000 DUP2 MSTORE PUSH1 0x4 ADD PUSH2 0x135B SWAP1 PUSH2 0x1CC8 JUMP JUMPDEST PUSH1 0x40 MLOAD DUP1 SWAP2 SUB SWAP1 REVERT JUMPDEST PUSH2 0x137A DUP5 DUP5 DUP5 DUP5 PUSH2 0x1375 SWAP2 SWAP1 PUSH2 0x1A4B JUMP JUMPDEST PUSH2 0x119F JUMP JUMPDEST JUMPDEST POP POP POP POP JUMP JUMPDEST DUP2 PUSH0 PUSH20 0xFFFFFFFFFFFFFFFFFFFFFFFFFFFFFFFFFFFFFFFF AND DUP2 PUSH20 0xFFFFFFFFFFFFFFFFFFFFFFFFFFFFFFFFFFFFFFFF AND SUB PUSH2 0x13E7 JUMPI PUSH1 0x40 MLOAD PUSH32 0xD92E233D00000000000000000000000000000000000000000000000000000000 DUP2 MSTORE PUSH1 0x4 ADD PUSH1 0x40 MLOAD DUP1 SWAP2 SUB SWAP1 REVERT JUMPDEST PUSH0 PUSH1 0x4 PUSH0 DUP7 PUSH20 0xFFFFFFFFFFFFFFFFFFFFFFFFFFFFFFFFFFFFFFFF AND PUSH20 0xFFFFFFFFFFFFFFFFFFFFFFFFFFFFFFFFFFFFFFFF AND DUP2 MSTORE PUSH1 0x20 ADD SWAP1 DUP2 MSTORE PUSH1 0x20 ADD PUSH0 KECCAK256 SLOAD SWAP1 POP DUP3 DUP2 LT ISZERO PUSH2 0x146B JUMPI PUSH1 0x40 MLOAD PUSH32 0x8C379A000000000000000000000000000000000000000000000000000000000 DUP2 MSTORE PUSH1 0x4 ADD PUSH2 0x1462 SWAP1 PUSH2 0x1C00 JUMP JUMPDEST PUSH1 0x40 MLOAD DUP1 SWAP2 SUB SWAP1 REVERT JUMPDEST DUP3 DUP2 PUSH2 0x1477 SWAP2 SWAP1 PUSH2 0x1A4B JUMP JUMPDEST PUSH1 0x4 PUSH0 DUP8 PUSH20 0xFFFFFFFFFFFFFFFFFFFFFFFFFFFFFFFFFFFFFFFF AND PUSH20 0xFFFFFFFFFFFFFFFFFFFFFFFFFFFFFFFFFFFFFFFF AND DUP2 MSTORE PUSH1 0x20 ADD SWAP1 DUP2 MSTORE PUSH1 0x20 ADD PUSH0 KECCAK256 DUP2 SWAP1 SSTORE POP DUP3 PUSH1 0x4 PUSH0 DUP7 PUSH20 0xFFFFFFFFFFFFFFFFFFFFFFFFFFFFFFFFFFFFFFFF AND PUSH20 0xFFFFFFFFFFFFFFFFFFFFFFFFFFFFFFFFFFFFFFFF AND DUP2 MSTORE PUSH1 0x20 ADD SWAP1 DUP2 MSTORE PUSH1 0x20 ADD PUSH0 KECCAK256 PUSH0 DUP3 DUP3 SLOAD PUSH2 0x1504 SWAP2 SWAP1 PUSH2 0x1C1E JUMP JUMPDEST SWAP3 POP POP DUP2 SWAP1 SSTORE POP DUP4 PUSH20 0xFFFFFFFFFFFFFFFFFFFFFFFFFFFFFFFFFFFFFFFF AND DUP6 PUSH20 0xFFFFFFFFFFFFFFFFFFFFFFFFFFFFFFFFFFFFFFFF AND PUSH32 0xDDF252AD1BE2C89B69C2B068FC378DAA952BA7F163C4A11628F55A4DF523B3EF DUP6 PUSH1 0x40 MLOAD PUSH2 0x1568 SWAP2 SWAP1 PUSH2 0x1743 JUMP JUMPDEST PUSH1 0x40 MLOAD DUP1 SWAP2 SUB SWAP1 LOG3 POP POP POP POP POP JUMP JUMPDEST PUSH0 DUP2 MLOAD SWAP1 POP SWAP2 SWAP1 POP JUMP JUMPDEST PUSH0 DUP3 DUP3 MSTORE PUSH1 0x20 DUP3 ADD SWAP1 POP SWAP3 SWAP2 POP POP JUMP JUMPDEST DUP3 DUP2 DUP4 MCOPY PUSH0 DUP4 DUP4 ADD MSTORE POP POP POP JUMP JUMPDEST PUSH0 PUSH1 0x1F NOT PUSH1 0x1F DUP4 ADD AND SWAP1 POP SWAP2 SWAP1 POP JUMP JUMPDEST PUSH0 PUSH2 0x15B9 DUP3 PUSH2 0x1577 JUMP JUMPDEST PUSH2 0x15C3 DUP2 DUP6 PUSH2 0x1581 JUMP JUMPDEST SWAP4 POP PUSH2 0x15D3 DUP2 DUP6 PUSH1 0x20 DUP7 ADD PUSH2 0x1591 JUMP JUMPDEST PUSH2 0x15DC DUP2 PUSH2 0x159F JUMP JUMPDEST DUP5 ADD SWAP2 POP POP SWAP3 SWAP2 POP POP JUMP JUMPDEST PUSH0 PUSH1 0x20 DUP3 ADD SWAP1 POP DUP2 DUP2 SUB PUSH0 DUP4 ADD MSTORE PUSH2 0x15FF DUP2 DUP5 PUSH2 0x15AF JUMP JUMPDEST SWAP1 POP SWAP3 SWAP2 POP POP JUMP JUMPDEST PUSH0 PUSH0 REVERT JUMPDEST PUSH0 PUSH20 0xFFFFFFFFFFFFFFFFFFFFFFFFFFFFFFFFFFFFFFFF DUP3 AND SWAP1 POP SWAP2 SWAP1 POP JUMP JUMPDEST PUSH0 PUSH2 0x1634 DUP3 PUSH2 0x160B JUMP JUMPDEST SWAP1 POP SWAP2 SWAP1 POP JUMP JUMPDEST PUSH2 0x1644 DUP2 PUSH2 0x162A JUMP JUMPDEST DUP2 EQ PUSH2 0x164E JUMPI PUSH0 PUSH0 REVERT JUMPDEST POP JUMP JUMPDEST PUSH0 DUP2 CALLDATALOAD SWAP1 POP PUSH2 0x165F DUP2 PUSH2 0x163B JUMP JUMPDEST SWAP3 SWAP2 POP POP JUMP JUMPDEST PUSH0 DUP2 SWAP1 POP SWAP2 SWAP1 POP JUMP JUMPDEST PUSH2 0x1677 DUP2 PUSH2 0x1665 JUMP JUMPDEST DUP2 EQ PUSH2 0x1681 JUMPI PUSH0 PUSH0 REVERT JUMPDEST POP JUMP JUMPDEST PUSH0 DUP2 CALLDATALOAD SWAP1 POP PUSH2 0x1692 DUP2 PUSH2 0x166E JUMP JUMPDEST SWAP3 SWAP2 POP POP JUMP JUMPDEST PUSH0 PUSH0 PUSH1 0x40 DUP4 DUP6 SUB SLT ISZERO PUSH2 0x16AE JUMPI PUSH2 0x16AD PUSH2 0x1607 JUMP JUMPDEST JUMPDEST PUSH0 PUSH2 0x16BB DUP6 DUP3 DUP7 ADD PUSH2 0x1651 JUMP JUMPDEST SWAP3 POP POP PUSH1 0x20 PUSH2 0x16CC DUP6 DUP3 DUP7 ADD PUSH2 0x1684 JUMP JUMPDEST SWAP2 POP POP SWAP3 POP SWAP3 SWAP1 POP JUMP JUMPDEST PUSH0 DUP2 ISZERO ISZERO SWAP1 POP SWAP2 SWAP1 POP JUMP JUMPDEST PUSH2 0x16EA DUP2 PUSH2 0x16D6 JUMP JUMPDEST DUP3 MSTORE POP POP JUMP JUMPDEST PUSH0 PUSH1 0x20 DUP3 ADD SWAP1 POP PUSH2 0x1703 PUSH0 DUP4 ADD DUP5 PUSH2 0x16E1 JUMP JUMPDEST SWAP3 SWAP2 POP POP JUMP JUMPDEST PUSH0 PUSH1 0x20 DUP3 DUP5 SUB SLT ISZERO PUSH2 0x171E JUMPI PUSH2 0x171D PUSH2 0x1607 JUMP JUMPDEST JUMPDEST PUSH0 PUSH2 0x172B DUP5 DUP3 DUP6 ADD PUSH2 0x1651 JUMP JUMPDEST SWAP2 POP POP SWAP3 SWAP2 POP POP JUMP JUMPDEST PUSH2 0x173D DUP2 PUSH2 0x1665 JUMP JUMPDEST DUP3 MSTORE POP POP JUMP JUMPDEST PUSH0 PUSH1 0x20 DUP3 ADD SWAP1 POP PUSH2 0x1756 PUSH0 DUP4 ADD DUP5 PUSH2 0x1734 JUMP JUMPDEST SWAP3 SWAP2 POP POP JUMP JUMPDEST PUSH0 DUP2 MLOAD SWAP1 POP SWAP2 SWAP1 POP JUMP JUMPDEST PUSH0 DUP3 DUP3 MSTORE PUSH1 0x20 DUP3 ADD SWAP1 POP SWAP3 SWAP2 POP POP JUMP JUMPDEST PUSH0 DUP2 SWAP1 POP PUSH1 0x20 DUP3 ADD SWAP1 POP SWAP2 SWAP1 POP JUMP JUMPDEST PUSH2 0x178E DUP2 PUSH2 0x1665 JUMP JUMPDEST DUP3 MSTORE POP POP JUMP JUMPDEST PUSH1 0x40 DUP3 ADD PUSH0 DUP3 ADD MLOAD PUSH2 0x17A8 PUSH0 DUP6 ADD DUP3 PUSH2 0x1785 JUMP JUMPDEST POP PUSH1 0x20 DUP3 ADD MLOAD PUSH2 0x17BB PUSH1 0x20 DUP6 ADD DUP3 PUSH2 0x1785 JUMP JUMPDEST POP POP POP POP JUMP JUMPDEST PUSH0 PUSH2 0x17CC DUP4 DUP4 PUSH2 0x1794 JUMP JUMPDEST PUSH1 0x40 DUP4 ADD SWAP1 POP SWAP3 SWAP2 POP POP JUMP JUMPDEST PUSH0 PUSH1 0x20 DUP3 ADD SWAP1 POP SWAP2 SWAP1 POP JUMP JUMPDEST PUSH0 PUSH2 0x17EE DUP3 PUSH2 0x175C JUMP JUMPDEST PUSH2 0x17F8 DUP2 DUP6 PUSH2 0x1766 JUMP JUMPDEST SWAP4 POP PUSH2 0x1803 DUP4 PUSH2 0x1776 JUMP JUMPDEST DUP1 PUSH0 JUMPDEST DUP4 DUP2 LT ISZERO PUSH2 0x1833 JUMPI DUP2 MLOAD PUSH2 0x181A DUP9 DUP3 PUSH2 0x17C1 JUMP JUMPDEST SWAP8 POP PUSH2 0x1825 DUP4 PUSH2 0x17D8 JUMP JUMPDEST SWAP3 POP POP PUSH1 0x1 DUP2 ADD SWAP1 POP PUSH2 0x1806 JUMP JUMPDEST POP DUP6 SWAP4 POP POP POP POP SWAP3 SWAP2 POP POP JUMP JUMPDEST PUSH0 PUSH1 0x20 DUP3 ADD SWAP1 POP DUP2 DUP2 SUB PUSH0 DUP4 ADD MSTORE PUSH2 0x1858 DUP2 DUP5 PUSH2 0x17E4 JUMP JUMPDEST SWAP1 POP SWAP3 SWAP2 POP POP JUMP JUMPDEST PUSH0 PUSH0 PUSH0 PUSH1 0x60 DUP5 DUP7 SUB SLT ISZERO PUSH2 0x1877 JUMPI PUSH2 0x1876 PUSH2 0x1607 JUMP JUMPDEST JUMPDEST PUSH0 PUSH2 0x1884 DUP7 DUP3 DUP8 ADD PUSH2 0x1651 JUMP JUMPDEST SWAP4 POP POP PUSH1 0x20 PUSH2 0x1895 DUP7 DUP3 DUP8 ADD PUSH2 0x1651 JUMP JUMPDEST SWAP3 POP POP PUSH1 0x40 PUSH2 0x18A6 DUP7 DUP3 DUP8 ADD PUSH2 0x1684 JUMP JUMPDEST SWAP2 POP POP SWAP3 POP SWAP3 POP SWAP3 JUMP JUMPDEST PUSH0 PUSH1 0xFF DUP3 AND SWAP1 POP SWAP2 SWAP1 POP JUMP JUMPDEST PUSH2 0x18C5 DUP2 PUSH2 0x18B0 JUMP JUMPDEST DUP3 MSTORE POP POP JUMP JUMPDEST PUSH0 PUSH1 0x20 DUP3 ADD SWAP1 POP PUSH2 0x18DE PUSH0 DUP4 ADD DUP5 PUSH2 0x18BC JUMP JUMPDEST SWAP3 SWAP2 POP POP JUMP JUMPDEST PUSH0 PUSH1 0x40 DUP3 ADD SWAP1 POP PUSH2 0x18F7 PUSH0 DUP4 ADD DUP6 PUSH2 0x1734 JUMP JUMPDEST PUSH2 0x1904 PUSH1 0x20 DUP4 ADD DUP5 PUSH2 0x1734 JUMP JUMPDEST SWAP4 SWAP3 POP POP POP JUMP JUMPDEST PUSH2 0x1914 DUP2 PUSH2 0x162A JUMP JUMPDEST DUP3 MSTORE POP POP JUMP JUMPDEST PUSH0 PUSH1 0x20 DUP3 ADD SWAP1 POP PUSH2 0x192D PUSH0 DUP4 ADD DUP5 PUSH2 0x190B JUMP JUMPDEST SWAP3 SWAP2 POP POP JUMP JUMPDEST PUSH0 PUSH0 PUSH0 PUSH1 0x60 DUP5 DUP7 SUB SLT ISZERO PUSH2 0x194A JUMPI PUSH2 0x1949 PUSH2 0x1607 JUMP JUMPDEST JUMPDEST PUSH0 PUSH2 0x1957 DUP7 DUP3 DUP8 ADD PUSH2 0x1651 JUMP JUMPDEST SWAP4 POP POP PUSH1 0x20 PUSH2 0x1968 DUP7 DUP3 DUP8 ADD PUSH2 0x1684 JUMP JUMPDEST SWAP3 POP POP PUSH1 0x40 PUSH2 0x1979 DUP7 DUP3 DUP8 ADD PUSH2 0x1684 JUMP JUMPDEST SWAP2 POP POP SWAP3 POP SWAP3 POP SWAP3 JUMP JUMPDEST PUSH0 PUSH0 PUSH1 0x40 DUP4 DUP6 SUB SLT ISZERO PUSH2 0x1999 JUMPI PUSH2 0x1998 PUSH2 0x1607 JUMP JUMPDEST JUMPDEST PUSH0 PUSH2 0x19A6 DUP6 DUP3 DUP7 ADD PUSH2 0x1651 JUMP JUMPDEST SWAP3 POP POP PUSH1 0x20 PUSH2 0x19B7 DUP6 DUP3 DUP7 ADD PUSH2 0x1651 JUMP JUMPDEST SWAP2 POP POP SWAP3 POP SWAP3 SWAP1 POP JUMP JUMPDEST PUSH32 0x4E487B7100000000000000000000000000000000000000000000000000000000 PUSH0 MSTORE PUSH1 0x22 PUSH1 0x4 MSTORE PUSH1 0x24 PUSH0 REVERT JUMPDEST PUSH0 PUSH1 0x2 DUP3 DIV SWAP1 POP PUSH1 0x1 DUP3 AND DUP1 PUSH2 0x1A05 JUMPI PUSH1 0x7F DUP3 AND SWAP2 POP JUMPDEST PUSH1 0x20 DUP3 LT DUP2 SUB PUSH2 0x1A18 JUMPI PUSH2 0x1A17 PUSH2 0x19C1 JUMP JUMPDEST JUMPDEST POP SWAP2 SWAP1 POP JUMP JUMPDEST PUSH32 0x4E487B7100000000000000000000000000000000000000000000000000000000 PUSH0 MSTORE PUSH1 0x11 PUSH1 0x4 MSTORE PUSH1 0x24 PUSH0 REVERT JUMPDEST PUSH0 PUSH2 0x1A55 DUP3 PUSH2 0x1665 JUMP JUMPDEST SWAP2 POP PUSH2 0x1A60 DUP4 PUSH2 0x1665 JUMP JUMPDEST SWAP3 POP DUP3 DUP3 SUB SWAP1 POP DUP2 DUP2 GT ISZERO PUSH2 0x1A78 JUMPI PUSH2 0x1A77 PUSH2 0x1A1E JUMP JUMPDEST JUMPDEST SWAP3 SWAP2 POP POP JUMP JUMPDEST PUSH32 0x496E73756666696369656E7420756E6C6F636B65642062616C616E6365000000 PUSH0 DUP3 ADD MSTORE POP JUMP JUMPDEST PUSH0 PUSH2 0x1AB2 PUSH1 0x1D DUP4 PUSH2 0x1581 JUMP JUMPDEST SWAP2 POP PUSH2 0x1ABD DUP3 PUSH2 0x1A7E JUMP JUMPDEST PUSH1 0x20 DUP3 ADD SWAP1 POP SWAP2 SWAP1 POP JUMP JUMPDEST PUSH0 PUSH1 0x20 DUP3 ADD SWAP1 POP DUP2 DUP2 SUB PUSH0 DUP4 ADD MSTORE PUSH2 0x1ADF DUP2 PUSH2 0x1AA6 JUMP JUMPDEST SWAP1 POP SWAP2 SWAP1 POP JUMP JUMPDEST PUSH32 0x416D6F756E74206D75737420626520706F736974697665000000000000000000 PUSH0 DUP3 ADD MSTORE POP JUMP JUMPDEST PUSH0 PUSH2 0x1B1A PUSH1 0x17 DUP4 PUSH2 0x1581 JUMP JUMPDEST SWAP2 POP PUSH2 0x1B25 DUP3 PUSH2 0x1AE6 JUMP JUMPDEST PUSH1 0x20 DUP3 ADD SWAP1 POP SWAP2 SWAP1 POP JUMP JUMPDEST PUSH0 PUSH1 0x20 DUP3 ADD SWAP1 POP DUP2 DUP2 SUB PUSH0 DUP4 ADD MSTORE PUSH2 0x1B47 DUP2 PUSH2 0x1B0E JUMP JUMPDEST SWAP1 POP SWAP2 SWAP1 POP JUMP JUMPDEST PUSH32 0x556E6C6F636B2074696D65206D75737420626520696E20667574757265000000 PUSH0 DUP3 ADD MSTORE POP JUMP JUMPDEST PUSH0 PUSH2 0x1B82 PUSH1 0x1D DUP4 PUSH2 0x1581 JUMP JUMPDEST SWAP2 POP PUSH2 0x1B8D DUP3 PUSH2 0x1B4E JUMP JUMPDEST PUSH1 0x20 DUP3 ADD SWAP1 POP SWAP2 SWAP1 POP JUMP JUMPDEST PUSH0 PUSH1 0x20 DUP3 ADD SWAP1 POP DUP2 DUP2 SUB PUSH0 DUP4 ADD MSTORE PUSH2 0x1BAF DUP2 PUSH2 0x1B76 JUMP JUMPDEST SWAP1 POP SWAP2 SWAP1 POP JUMP JUMPDEST PUSH32 0x496E73756666696369656E742062616C616E6365000000000000000000000000 PUSH0 DUP3 ADD MSTORE POP JUMP JUMPDEST PUSH0 PUSH2 0x1BEA PUSH1 0x14 DUP4 PUSH2 0x1581 JUMP JUMPDEST SWAP2 POP PUSH2 0x1BF5 DUP3 PUSH2 0x1BB6 JUMP JUMPDEST PUSH1 0x20 DUP3 ADD SWAP1 POP SWAP2 SWAP1 POP JUMP JUMPDEST PUSH0 PUSH1 0x20 DUP3 ADD SWAP1 POP DUP2 DUP2 SUB PUSH0 DUP4 ADD MSTORE PUSH2 0x1C17 DUP2 PUSH2 0x1BDE JUMP JUMPDEST SWAP1 POP SWAP2 SWAP1 POP JUMP JUMPDEST PUSH0 PUSH2 0x1C28 DUP3 PUSH2 0x1665 JUMP JUMPDEST SWAP2 POP PUSH2 0x1C33 DUP4 PUSH2 0x1665 JUMP JUMPDEST SWAP3 POP DUP3 DUP3 ADD SWAP1 POP DUP1 DUP3 GT ISZERO PUSH2 0x1C4B JUMPI PUSH2 0x1C4A PUSH2 0x1A1E JUMP JUMPDEST JUMPDEST SWAP3 SWAP2 POP POP JUMP JUMPDEST PUSH32 0x4E487B7100000000000000000000000000000000000000000000000000000000 PUSH0 MSTORE PUSH1 0x32 PUSH1 0x4 MSTORE PUSH1 0x24 PUSH0 REVERT JUMPDEST PUSH32 0x496E73756666696369656E7420616C6C6F77616E636500000000000000000000 PUSH0 DUP3 ADD MSTORE POP JUMP JUMPDEST PUSH0 PUSH2 0x1CB2 PUSH1 0x16 DUP4 PUSH2 0x1581 JUMP JUMPDEST SWAP2 POP PUSH2 0x1CBD DUP3 PUSH2 0x1C7E JUMP JUMPDEST PUSH1 0x20 DUP3 ADD SWAP1 POP SWAP2 SWAP1 POP JUMP JUMPDEST PUSH0 PUSH1 0x20 DUP3 ADD SWAP1 POP DUP2 DUP2 SUB PUSH0 DUP4 ADD MSTORE PUSH2 0x1CDF DUP2 PUSH2 0x1CA6 JUMP JUMPDEST SWAP1 POP SWAP2 SWAP1 POP JUMP INVALID LOG2 PUSH5 0x6970667358 0x22 SLT KECCAK256 LOG4 SWAP9 SWAP15 EQ DUP5 0x4F 0xAA POP TSTORE TIMESTAMP 0xAD OR DUP7 SMOD 0xCB SWAP15 0xD0 0xE BLOCKHASH SELFDESTRUCT 0xC2 CREATE2 DUP9 RETF 0xB9 0x2A SWAP16 SWAP16 0x29 PUSH11 0x48A364736F6C634300081E STOP CALLER "
				},
				"gasEstimates": {
					"creation": {
						"codeDepositCost": "1490400",
						"executionCost": "infinite",
						"totalCost": "infinite"
					},
					"external": {
						"addLockManager(address)": "28633",
						"allowance(address,address)": "infinite",
						"approve(address,uint256)": "infinite",
						"balanceOf(address)": "2940",
						"decimals()": "2533",
						"getLockDetails(address)": "infinite",
						"getUnlockedBalance(address)": "infinite",
						"lockManagers(address)": "2944",
						"lockTokens(address,uint256,uint256)": "infinite",
						"lockedBalances(address,uint256)": "infinite",
						"name()": "infinite",
						"owner()": "2531",
						"removeLockManager(address)": "28697",
						"symbol()": "infinite",
						"totalLocked(address)": "2868",
						"totalSupply()": "2448",
						"transfer(address,uint256)": "infinite",
						"transferFrom(address,address,uint256)": "infinite",
						"unlockTokens(address)": "infinite"
					},
					"internal": {
						"_approve(address,address,uint256)": "infinite",
						"_spendAllowance(address,address,uint256)": "infinite",
						"_transfer(address,address,uint256)": "infinite"
					}
				},
				"methodIdentifiers": {
					"addLockManager(address)": "d2503485",
					"allowance(address,address)": "dd62ed3e",
					"approve(address,uint256)": "095ea7b3",
					"balanceOf(address)": "70a08231",
					"decimals()": "313ce567",
					"getLockDetails(address)": "15056b54",
					"getUnlockedBalance(address)": "129de5bf",
					"lockManagers(address)": "aa377d88",
					"lockTokens(address,uint256,uint256)": "a25983e5",
					"lockedBalances(address,uint256)": "5d16a6f9",
					"name()": "06fdde03",
					"owner()": "8da5cb5b",
					"removeLockManager(address)": "fa110af0",
					"symbol()": "95d89b41",
					"totalLocked(address)": "d8fb9337",
					"totalSupply()": "18160ddd",
					"transfer(address,uint256)": "a9059cbb",
					"transferFrom(address,address,uint256)": "23b872dd",
					"unlockTokens(address)": "cb67f948"
				}
			},
			"storageLayout": {
				"storage": [
					{
						"astId": 3,
						"contract": "Tokens/TimeLockTokenWithVesting.sol:TimeLockToken",
						"label": "name",
						"offset": 0,
						"slot": "0",
						"type": "t_string_storage"
					},
					{
						"astId": 5,
						"contract": "Tokens/TimeLockTokenWithVesting.sol:TimeLockToken",
						"label": "symbol",
						"offset": 0,
						"slot": "1",
						"type": "t_string_storage"
					},
					{
						"astId": 7,
						"contract": "Tokens/TimeLockTokenWithVesting.sol:TimeLockToken",
						"label": "decimals",
						"offset": 0,
						"slot": "2",
						"type": "t_uint8"
					},
					{
						"astId": 9,
						"contract": "Tokens/TimeLockTokenWithVesting.sol:TimeLockToken",
						"label": "totalSupply",
						"offset": 0,
						"slot": "3",
						"type": "t_uint256"
					},
					{
						"astId": 13,
						"contract": "Tokens/TimeLockTokenWithVesting.sol:TimeLockToken",
						"label": "_balances",
						"offset": 0,
						"slot": "4",
						"type": "t_mapping(t_address,t_uint256)"
					},
					{
						"astId": 19,
						"contract": "Tokens/TimeLockTokenWithVesting.sol:TimeLockToken",
						"label": "_allowances",
						"offset": 0,
						"slot": "5",
						"type": "t_mapping(t_address,t_mapping(t_address,t_uint256))"
					},
					{
						"astId": 25,
						"contract": "Tokens/TimeLockTokenWithVesting.sol:TimeLockToken",
						"label": "lockedBalances",
						"offset": 0,
						"slot": "6",
						"type": "t_mapping(t_address,t_array(t_struct(LockedBalance)40_storage)dyn_storage)"
					},
					{
						"astId": 29,
						"contract": "Tokens/TimeLockTokenWithVesting.sol:TimeLockToken",
						"label": "totalLocked",
						"offset": 0,
						"slot": "7",
						"type": "t_mapping(t_address,t_uint256)"
					},
					{
						"astId": 31,
						"contract": "Tokens/TimeLockTokenWithVesting.sol:TimeLockToken",
						"label": "owner",
						"offset": 0,
						"slot": "8",
						"type": "t_address"
					},
					{
						"astId": 35,
						"contract": "Tokens/TimeLockTokenWithVesting.sol:TimeLockToken",
						"label": "lockManagers",
						"offset": 0,
						"slot": "9",
						"type": "t_mapping(t_address,t_bool)"
					}
				],
				"types": {
					"t_address": {
						"encoding": "inplace",
						"label": "address",
						"numberOfBytes": "20"
					},
					"t_array(t_struct(LockedBalance)40_storage)dyn_storage": {
						"base": "t_struct(LockedBalance)40_storage",
						"encoding": "dynamic_array",
						"label": "struct TimeLockToken.LockedBalance[]",
						"numberOfBytes": "32"
					},
					"t_bool": {
						"encoding": "inplace",
						"label": "bool",
						"numberOfBytes": "1"
					},
					"t_mapping(t_address,t_array(t_struct(LockedBalance)40_storage)dyn_storage)": {
						"encoding": "mapping",
						"key": "t_address",
						"label": "mapping(address => struct TimeLockToken.LockedBalance[])",
						"numberOfBytes": "32",
						"value": "t_array(t_struct(LockedBalance)40_storage)dyn_storage"
					},
					"t_mapping(t_address,t_bool)": {
						"encoding": "mapping",
						"key": "t_address",
						"label": "mapping(address => bool)",
						"numberOfBytes": "32",
						"value": "t_bool"
					},
					"t_mapping(t_address,t_mapping(t_address,t_uint256))": {
						"encoding": "mapping",
						"key": "t_address",
						"label": "mapping(address => mapping(address => uint256))",
						"numberOfBytes": "32",
						"value": "t_mapping(t_address,t_uint256)"
					},
					"t_mapping(t_address,t_uint256)": {
						"encoding": "mapping",
						"key": "t_address",
						"label": "mapping(address => uint256)",
						"numberOfBytes": "32",
						"value": "t_uint256"
					},
					"t_string_storage": {
						"encoding": "bytes",
						"label": "string",
						"numberOfBytes": "32"
					},
					"t_struct(LockedBalance)40_storage": {
						"encoding": "inplace",
						"label": "struct TimeLockToken.LockedBalance",
						"members": [
							{
								"astId": 37,
								"contract": "Tokens/TimeLockTokenWithVesting.sol:TimeLockToken",
								"label": "amount",
								"offset": 0,
								"slot": "0",
								"type": "t_uint256"
							},
							{
								"astId": 39,
								"contract": "Tokens/TimeLockTokenWithVesting.sol:TimeLockToken",
								"label": "unlockTime",
								"offset": 0,
								"slot": "1",
								"type": "t_uint256"
							}
						],
						"numberOfBytes": "64"
					},
					"t_uint256": {
						"encoding": "inplace",
						"label": "uint256",
						"numberOfBytes": "32"
					},
					"t_uint8": {
						"encoding": "inplace",
						"label": "uint8",
						"numberOfBytes": "1"
					}
				}
			},
			"userdoc": {
				"kind": "user",
				"methods": {},
				"version": 1
			}
		}
	}
}