{
	"tryit/voatingSystem.sol": {
		"SimpleVoting": {
			"abi": [
				{
					"inputs": [
						{
							"internalType": "string",
							"name": "candidatename",
							"type": "string"
						}
					],
					"name": "addcandidate",
					"outputs": [],
					"stateMutability": "nonpayable",
					"type": "function"
				},
				{
					"inputs": [
						{
							"internalType": "uint256",
							"name": "",
							"type": "uint256"
						}
					],
					"name": "candidates",
					"outputs": [
						{
							"internalType": "string",
							"name": "",
							"type": "string"
						}
					],
					"stateMutability": "view",
					"type": "function"
				},
				{
					"inputs": [
						{
							"internalType": "string",
							"name": "candidate",
							"type": "string"
						}
					],
					"name": "getVoteCount",
					"outputs": [
						{
							"internalType": "uint256",
							"name": "",
							"type": "uint256"
						}
					],
					"stateMutability": "view",
					"type": "function"
				},
				{
					"inputs": [],
					"name": "getallCandidates",
					"outputs": [
						{
							"internalType": "string[]",
							"name": "",
							"type": "string[]"
						}
					],
					"stateMutability": "view",
					"type": "function"
				},
				{
					"inputs": [
						{
							"internalType": "address",
							"name": "",
							"type": "address"
						}
					],
					"name": "hasvoted",
					"outputs": [
						{
							"internalType": "bool",
							"name": "",
							"type": "bool"
						}
					],
					"stateMutability": "view",
					"type": "function"
				},
				{
					"inputs": [
						{
							"internalType": "string",
							"name": "candidate",
							"type": "string"
						}
					],
					"name": "isValidCandidate",
					"outputs": [
						{
							"internalType": "bool",
							"name": "",
							"type": "bool"
						}
					],
					"stateMutability": "view",
					"type": "function"
				},
				{
					"inputs": [
						{
							"internalType": "string",
							"name": "candidatename",
							"type": "string"
						}
					],
					"name": "vate",
					"outputs": [],
					"stateMutability": "nonpayable",
					"type": "function"
				},
				{
					"inputs": [
						{
							"internalType": "string",
							"name": "",
							"type": "string"
						}
					],
					"name": "voteCount",
					"outputs": [
						{
							"internalType": "uint256",
							"name": "",
							"type": "uint256"
						}
					],
					"stateMutability": "view",
					"type": "function"
				}
			],
			"devdoc": {
				"kind": "dev",
				"methods": {},
				"version": 1
			},
			"evm": {
				"assembly": "    /* \"tryit/voatingSystem.sol\":63:1176  contract SimpleVoting {... */\n  mstore(0x40, 0x80)\n  callvalue\n  dup1\n  iszero\n  tag_1\n  jumpi\n  revert(0x00, 0x00)\ntag_1:\n  pop\n  dataSize(sub_0)\n  dup1\n  dataOffset(sub_0)\n  0x00\n  codecopy\n  0x00\n  return\nstop\n\nsub_0: assembly {\n        /* \"tryit/voatingSystem.sol\":63:1176  contract SimpleVoting {... */\n      mstore(0x40, 0x80)\n      callvalue\n      dup1\n      iszero\n      tag_1\n      jumpi\n      revert(0x00, 0x00)\n    tag_1:\n      pop\n      jumpi(tag_2, lt(calldatasize, 0x04))\n      shr(0xe0, calldataload(0x00))\n      dup1\n      0x51b9887d\n      gt\n      tag_11\n      jumpi\n      dup1\n      0x51b9887d\n      eq\n      tag_7\n      jumpi\n      dup1\n      0x8305abd9\n      eq\n      tag_8\n      jumpi\n      dup1\n      0x83e7f291\n      eq\n      tag_9\n      jumpi\n      dup1\n      0xba7f7552\n      eq\n      tag_10\n      jumpi\n      jump(tag_2)\n    tag_11:\n      dup1\n      0x069953a7\n      eq\n      tag_3\n      jumpi\n      dup1\n      0x2b499cab\n      eq\n      tag_4\n      jumpi\n      dup1\n      0x3477ee2e\n      eq\n      tag_5\n      jumpi\n      dup1\n      0x4f117fcc\n      eq\n      tag_6\n      jumpi\n    tag_2:\n      revert(0x00, 0x00)\n        /* \"tryit/voatingSystem.sol\":942:1065  function getVoteCount(string memory candidate) public view returns (uint256) {... */\n    tag_3:\n      tag_12\n      0x04\n      dup1\n      calldatasize\n      sub\n      dup2\n      add\n      swap1\n      tag_13\n      swap2\n      swap1\n      tag_14\n      jump\t// in\n    tag_13:\n      tag_15\n      jump\t// in\n    tag_12:\n      mload(0x40)\n      tag_16\n      swap2\n      swap1\n      tag_17\n      jump\t// in\n    tag_16:\n      mload(0x40)\n      dup1\n      swap2\n      sub\n      swap1\n      return\n        /* \"tryit/voatingSystem.sol\":92:133  mapping(address => bool ) public hasvoted */\n    tag_4:\n      tag_18\n      0x04\n      dup1\n      calldatasize\n      sub\n      dup2\n      add\n      swap1\n      tag_19\n      swap2\n      swap1\n      tag_20\n      jump\t// in\n    tag_19:\n      tag_21\n      jump\t// in\n    tag_18:\n      mload(0x40)\n      tag_22\n      swap2\n      swap1\n      tag_23\n      jump\t// in\n    tag_22:\n      mload(0x40)\n      dup1\n      swap2\n      sub\n      swap1\n      return\n        /* \"tryit/voatingSystem.sol\":190:216  string[] public candidates */\n    tag_5:\n      tag_24\n      0x04\n      dup1\n      calldatasize\n      sub\n      dup2\n      add\n      swap1\n      tag_25\n      swap2\n      swap1\n      tag_26\n      jump\t// in\n    tag_25:\n      tag_27\n      jump\t// in\n    tag_24:\n      mload(0x40)\n      tag_28\n      swap2\n      swap1\n      tag_29\n      jump\t// in\n    tag_28:\n      mload(0x40)\n      dup1\n      swap2\n      sub\n      swap1\n      return\n        /* \"tryit/voatingSystem.sol\":342:614  function vate(string calldata candidatename) public {... */\n    tag_6:\n      tag_30\n      0x04\n      dup1\n      calldatasize\n      sub\n      dup2\n      add\n      swap1\n      tag_31\n      swap2\n      swap1\n      tag_32\n      jump\t// in\n    tag_31:\n      tag_33\n      jump\t// in\n    tag_30:\n      stop\n        /* \"tryit/voatingSystem.sol\":622:936  function isValidCandidate(string memory candidate) public view returns (bool) {... */\n    tag_7:\n      tag_34\n      0x04\n      dup1\n      calldatasize\n      sub\n      dup2\n      add\n      swap1\n      tag_35\n      swap2\n      swap1\n      tag_14\n      jump\t// in\n    tag_35:\n      tag_36\n      jump\t// in\n    tag_34:\n      mload(0x40)\n      tag_37\n      swap2\n      swap1\n      tag_23\n      jump\t// in\n    tag_37:\n      mload(0x40)\n      dup1\n      swap2\n      sub\n      swap1\n      return\n        /* \"tryit/voatingSystem.sol\":225:334  function addcandidate(string memory candidatename) public {... */\n    tag_8:\n      tag_38\n      0x04\n      dup1\n      calldatasize\n      sub\n      dup2\n      add\n      swap1\n      tag_39\n      swap2\n      swap1\n      tag_14\n      jump\t// in\n    tag_39:\n      tag_40\n      jump\t// in\n    tag_38:\n      stop\n        /* \"tryit/voatingSystem.sol\":1071:1173  function getallCandidates() public view returns (string[] memory) {... */\n    tag_9:\n      tag_41\n      tag_42\n      jump\t// in\n    tag_41:\n      mload(0x40)\n      tag_43\n      swap2\n      swap1\n      tag_44\n      jump\t// in\n    tag_43:\n      mload(0x40)\n      dup1\n      swap2\n      sub\n      swap1\n      return\n        /* \"tryit/voatingSystem.sol\":140:183  mapping(string => uint256) public voteCount */\n    tag_10:\n      tag_45\n      0x04\n      dup1\n      calldatasize\n      sub\n      dup2\n      add\n      swap1\n      tag_46\n      swap2\n      swap1\n      tag_14\n      jump\t// in\n    tag_46:\n      tag_47\n      jump\t// in\n    tag_45:\n      mload(0x40)\n      tag_48\n      swap2\n      swap1\n      tag_17\n      jump\t// in\n    tag_48:\n      mload(0x40)\n      dup1\n      swap2\n      sub\n      swap1\n      return\n        /* \"tryit/voatingSystem.sol\":942:1065  function getVoteCount(string memory candidate) public view returns (uint256) {... */\n    tag_15:\n        /* \"tryit/voatingSystem.sol\":1010:1017  uint256 */\n      0x00\n        /* \"tryit/voatingSystem.sol\":1037:1046  voteCount */\n      0x01\n        /* \"tryit/voatingSystem.sol\":1047:1056  candidate */\n      dup3\n        /* \"tryit/voatingSystem.sol\":1037:1057  voteCount[candidate] */\n      mload(0x40)\n      tag_50\n      swap2\n      swap1\n      tag_51\n      jump\t// in\n    tag_50:\n      swap1\n      dup2\n      mstore\n      0x20\n      add\n      mload(0x40)\n      dup1\n      swap2\n      sub\n      swap1\n      keccak256\n      sload\n        /* \"tryit/voatingSystem.sol\":1030:1057  return voteCount[candidate] */\n      swap1\n      pop\n        /* \"tryit/voatingSystem.sol\":942:1065  function getVoteCount(string memory candidate) public view returns (uint256) {... */\n      swap2\n      swap1\n      pop\n      jump\t// out\n        /* \"tryit/voatingSystem.sol\":92:133  mapping(address => bool ) public hasvoted */\n    tag_21:\n      mstore(0x20, 0x00)\n      dup1\n      0x00\n      mstore\n      keccak256(0x00, 0x40)\n      0x00\n      swap2\n      pop\n      sload\n      swap1\n      0x0100\n      exp\n      swap1\n      div\n      0xff\n      and\n      dup2\n      jump\t// out\n        /* \"tryit/voatingSystem.sol\":190:216  string[] public candidates */\n    tag_27:\n      0x02\n      dup2\n      dup2\n      sload\n      dup2\n      lt\n      tag_52\n      jumpi\n      0x00\n      dup1\n      revert\n    tag_52:\n      swap1\n      0x00\n      mstore\n      keccak256(0x00, 0x20)\n      add\n      0x00\n      swap2\n      pop\n      swap1\n      pop\n      dup1\n      sload\n      tag_54\n      swap1\n      tag_55\n      jump\t// in\n    tag_54:\n      dup1\n      0x1f\n      add\n      0x20\n      dup1\n      swap2\n      div\n      mul\n      0x20\n      add\n      mload(0x40)\n      swap1\n      dup2\n      add\n      0x40\n      mstore\n      dup1\n      swap3\n      swap2\n      swap1\n      dup2\n      dup2\n      mstore\n      0x20\n      add\n      dup3\n      dup1\n      sload\n      tag_56\n      swap1\n      tag_55\n      jump\t// in\n    tag_56:\n      dup1\n      iszero\n      tag_57\n      jumpi\n      dup1\n      0x1f\n      lt\n      tag_58\n      jumpi\n      0x0100\n      dup1\n      dup4\n      sload\n      div\n      mul\n      dup4\n      mstore\n      swap2\n      0x20\n      add\n      swap2\n      jump(tag_57)\n    tag_58:\n      dup3\n      add\n      swap2\n      swap1\n      0x00\n      mstore\n      keccak256(0x00, 0x20)\n      swap1\n    tag_59:\n      dup2\n      sload\n      dup2\n      mstore\n      swap1\n      0x01\n      add\n      swap1\n      0x20\n      add\n      dup1\n      dup4\n      gt\n      tag_59\n      jumpi\n      dup3\n      swap1\n      sub\n      0x1f\n      and\n      dup3\n      add\n      swap2\n    tag_57:\n      pop\n      pop\n      pop\n      pop\n      pop\n      dup2\n      jump\t// out\n        /* \"tryit/voatingSystem.sol\":342:614  function vate(string calldata candidatename) public {... */\n    tag_33:\n        /* \"tryit/voatingSystem.sol\":414:422  hasvoted */\n      0x00\n        /* \"tryit/voatingSystem.sol\":414:434  hasvoted[msg.sender] */\n      0x00\n        /* \"tryit/voatingSystem.sol\":423:433  msg.sender */\n      caller\n        /* \"tryit/voatingSystem.sol\":414:434  hasvoted[msg.sender] */\n      0xffffffffffffffffffffffffffffffffffffffff\n      and\n      0xffffffffffffffffffffffffffffffffffffffff\n      and\n      dup2\n      mstore\n      0x20\n      add\n      swap1\n      dup2\n      mstore\n      0x20\n      add\n      0x00\n      keccak256\n      0x00\n      swap1\n      sload\n      swap1\n      0x0100\n      exp\n      swap1\n      div\n      0xff\n      and\n        /* \"tryit/voatingSystem.sol\":413:434  !hasvoted[msg.sender] */\n      iszero\n        /* \"tryit/voatingSystem.sol\":405:452  require(!hasvoted[msg.sender], \"Already voted\") */\n      tag_61\n      jumpi\n      mload(0x40)\n      0x08c379a000000000000000000000000000000000000000000000000000000000\n      dup2\n      mstore\n      0x04\n      add\n      tag_62\n      swap1\n      tag_63\n      jump\t// in\n    tag_62:\n      mload(0x40)\n      dup1\n      swap2\n      sub\n      swap1\n      revert\n    tag_61:\n        /* \"tryit/voatingSystem.sol\":471:502  isValidCandidate(candidatename) */\n      tag_64\n        /* \"tryit/voatingSystem.sol\":488:501  candidatename */\n      dup3\n      dup3\n        /* \"tryit/voatingSystem.sol\":471:502  isValidCandidate(candidatename) */\n      dup1\n      dup1\n      0x1f\n      add\n      0x20\n      dup1\n      swap2\n      div\n      mul\n      0x20\n      add\n      mload(0x40)\n      swap1\n      dup2\n      add\n      0x40\n      mstore\n      dup1\n      swap4\n      swap3\n      swap2\n      swap1\n      dup2\n      dup2\n      mstore\n      0x20\n      add\n      dup4\n      dup4\n      dup1\n      dup3\n      dup5\n      calldatacopy\n      0x00\n      dup2\n      dup5\n      add\n      mstore\n      not(0x1f)\n      0x1f\n      dup3\n      add\n      and\n      swap1\n      pop\n      dup1\n      dup4\n      add\n      swap3\n      pop\n      pop\n      pop\n      pop\n      pop\n      pop\n      pop\n        /* \"tryit/voatingSystem.sol\":471:487  isValidCandidate */\n      tag_36\n        /* \"tryit/voatingSystem.sol\":471:502  isValidCandidate(candidatename) */\n      jump\t// in\n    tag_64:\n        /* \"tryit/voatingSystem.sol\":463:524  require(isValidCandidate(candidatename), \"Invalid Candidate\") */\n      tag_65\n      jumpi\n      mload(0x40)\n      0x08c379a000000000000000000000000000000000000000000000000000000000\n      dup2\n      mstore\n      0x04\n      add\n      tag_66\n      swap1\n      tag_67\n      jump\t// in\n    tag_66:\n      mload(0x40)\n      dup1\n      swap2\n      sub\n      swap1\n      revert\n    tag_65:\n        /* \"tryit/voatingSystem.sol\":560:564  true */\n      0x01\n        /* \"tryit/voatingSystem.sol\":537:545  hasvoted */\n      0x00\n        /* \"tryit/voatingSystem.sol\":537:557  hasvoted[msg.sender] */\n      0x00\n        /* \"tryit/voatingSystem.sol\":546:556  msg.sender */\n      caller\n        /* \"tryit/voatingSystem.sol\":537:557  hasvoted[msg.sender] */\n      0xffffffffffffffffffffffffffffffffffffffff\n      and\n      0xffffffffffffffffffffffffffffffffffffffff\n      and\n      dup2\n      mstore\n      0x20\n      add\n      swap1\n      dup2\n      mstore\n      0x20\n      add\n      0x00\n      keccak256\n      0x00\n        /* \"tryit/voatingSystem.sol\":537:564  hasvoted[msg.sender] = true */\n      0x0100\n      exp\n      dup2\n      sload\n      dup2\n      0xff\n      mul\n      not\n      and\n      swap1\n      dup4\n      iszero\n      iszero\n      mul\n      or\n      swap1\n      sstore\n      pop\n        /* \"tryit/voatingSystem.sol\":603:604  1 */\n      0x01\n        /* \"tryit/voatingSystem.sol\":575:584  voteCount */\n      dup1\n        /* \"tryit/voatingSystem.sol\":585:598  candidatename */\n      dup4\n      dup4\n        /* \"tryit/voatingSystem.sol\":575:599  voteCount[candidatename] */\n      mload(0x40)\n      tag_68\n      swap3\n      swap2\n      swap1\n      tag_69\n      jump\t// in\n    tag_68:\n      swap1\n      dup2\n      mstore\n      0x20\n      add\n      mload(0x40)\n      dup1\n      swap2\n      sub\n      swap1\n      keccak256\n      0x00\n        /* \"tryit/voatingSystem.sol\":575:604  voteCount[candidatename] += 1 */\n      dup3\n      dup3\n      sload\n      tag_70\n      swap2\n      swap1\n      tag_71\n      jump\t// in\n    tag_70:\n      swap3\n      pop\n      pop\n      dup2\n      swap1\n      sstore\n      pop\n        /* \"tryit/voatingSystem.sol\":342:614  function vate(string calldata candidatename) public {... */\n      pop\n      pop\n      jump\t// out\n        /* \"tryit/voatingSystem.sol\":622:936  function isValidCandidate(string memory candidate) public view returns (bool) {... */\n    tag_36:\n        /* \"tryit/voatingSystem.sol\":694:698  bool */\n      0x00\n        /* \"tryit/voatingSystem.sol\":715:721  uint i */\n      0x00\n        /* \"tryit/voatingSystem.sol\":723:724  0 */\n      0x00\n        /* \"tryit/voatingSystem.sol\":715:724  uint i =0 */\n      swap1\n      pop\n        /* \"tryit/voatingSystem.sol\":711:910  for(uint i =0; i < candidates.length; i++){ ... */\n    tag_73:\n        /* \"tryit/voatingSystem.sol\":730:740  candidates */\n      0x02\n        /* \"tryit/voatingSystem.sol\":730:747  candidates.length */\n      dup1\n      sload\n      swap1\n      pop\n        /* \"tryit/voatingSystem.sol\":726:727  i */\n      dup2\n        /* \"tryit/voatingSystem.sol\":726:747  i < candidates.length */\n      lt\n        /* \"tryit/voatingSystem.sol\":711:910  for(uint i =0; i < candidates.length; i++){ ... */\n      iszero\n      tag_74\n      jumpi\n        /* \"tryit/voatingSystem.sol\":845:854  candidate */\n      dup3\n        /* \"tryit/voatingSystem.sol\":828:855  abi.encodePacked(candidate) */\n      add(0x20, mload(0x40))\n      tag_76\n      swap2\n      swap1\n      tag_51\n      jump\t// in\n    tag_76:\n      mload(0x40)\n      0x20\n      dup2\n      dup4\n      sub\n      sub\n      dup2\n      mstore\n      swap1\n      0x40\n      mstore\n        /* \"tryit/voatingSystem.sol\":818:856  keccak256(abi.encodePacked(candidate)) */\n      dup1\n      mload\n      swap1\n      0x20\n      add\n      keccak256\n        /* \"tryit/voatingSystem.sol\":799:809  candidates */\n      0x02\n        /* \"tryit/voatingSystem.sol\":810:811  i */\n      dup3\n        /* \"tryit/voatingSystem.sol\":799:812  candidates[i] */\n      dup2\n      sload\n      dup2\n      lt\n      tag_77\n      jumpi\n      tag_78\n      tag_79\n      jump\t// in\n    tag_78:\n    tag_77:\n      swap1\n      0x00\n      mstore\n      keccak256(0x00, 0x20)\n      add\n        /* \"tryit/voatingSystem.sol\":782:813  abi.encodePacked(candidates[i]) */\n      add(0x20, mload(0x40))\n      tag_81\n      swap2\n      swap1\n      tag_82\n      jump\t// in\n    tag_81:\n      mload(0x40)\n      0x20\n      dup2\n      dup4\n      sub\n      sub\n      dup2\n      mstore\n      swap1\n      0x40\n      mstore\n        /* \"tryit/voatingSystem.sol\":772:814  keccak256(abi.encodePacked(candidates[i])) */\n      dup1\n      mload\n      swap1\n      0x20\n      add\n      keccak256\n        /* \"tryit/voatingSystem.sol\":772:856  keccak256(abi.encodePacked(candidates[i])) == keccak256(abi.encodePacked(candidate)) */\n      sub\n        /* \"tryit/voatingSystem.sol\":769:903  if(keccak256(abi.encodePacked(candidates[i])) == keccak256(abi.encodePacked(candidate))){... */\n      tag_83\n      jumpi\n        /* \"tryit/voatingSystem.sol\":883:887  true */\n      0x01\n        /* \"tryit/voatingSystem.sol\":876:887  return true */\n      swap2\n      pop\n      pop\n      jump(tag_72)\n        /* \"tryit/voatingSystem.sol\":769:903  if(keccak256(abi.encodePacked(candidates[i])) == keccak256(abi.encodePacked(candidate))){... */\n    tag_83:\n        /* \"tryit/voatingSystem.sol\":749:752  i++ */\n      dup1\n      dup1\n      0x01\n      add\n      swap2\n      pop\n      pop\n        /* \"tryit/voatingSystem.sol\":711:910  for(uint i =0; i < candidates.length; i++){ ... */\n      jump(tag_73)\n    tag_74:\n      pop\n        /* \"tryit/voatingSystem.sol\":923:928  false */\n      0x00\n        /* \"tryit/voatingSystem.sol\":916:928  return false */\n      swap1\n      pop\n        /* \"tryit/voatingSystem.sol\":622:936  function isValidCandidate(string memory candidate) public view returns (bool) {... */\n    tag_72:\n      swap2\n      swap1\n      pop\n      jump\t// out\n        /* \"tryit/voatingSystem.sol\":225:334  function addcandidate(string memory candidatename) public {... */\n    tag_40:\n        /* \"tryit/voatingSystem.sol\":294:304  candidates */\n      0x02\n        /* \"tryit/voatingSystem.sol\":310:323  candidatename */\n      dup2\n        /* \"tryit/voatingSystem.sol\":294:324  candidates.push(candidatename) */\n      swap1\n      dup1\n      0x01\n      dup2\n      sload\n      add\n      dup1\n      dup3\n      sstore\n      dup1\n      swap2\n      pop\n      pop\n      0x01\n      swap1\n      sub\n      swap1\n      0x00\n      mstore\n      keccak256(0x00, 0x20)\n      add\n      0x00\n      swap1\n      swap2\n      swap1\n      swap2\n      swap1\n      swap2\n      pop\n      swap1\n      dup2\n      tag_86\n      swap2\n      swap1\n      tag_87\n      jump\t// in\n    tag_86:\n      pop\n        /* \"tryit/voatingSystem.sol\":225:334  function addcandidate(string memory candidatename) public {... */\n      pop\n      jump\t// out\n        /* \"tryit/voatingSystem.sol\":1071:1173  function getallCandidates() public view returns (string[] memory) {... */\n    tag_42:\n        /* \"tryit/voatingSystem.sol\":1120:1135  string[] memory */\n      0x60\n        /* \"tryit/voatingSystem.sol\":1155:1165  candidates */\n      0x02\n        /* \"tryit/voatingSystem.sol\":1148:1165  return candidates */\n      dup1\n      sload\n      dup1\n      0x20\n      mul\n      0x20\n      add\n      mload(0x40)\n      swap1\n      dup2\n      add\n      0x40\n      mstore\n      dup1\n      swap3\n      swap2\n      swap1\n      dup2\n      dup2\n      mstore\n      0x20\n      add\n      0x00\n      swap1\n    tag_89:\n      dup3\n      dup3\n      lt\n      iszero\n      tag_90\n      jumpi\n      dup4\n      dup3\n      swap1\n      0x00\n      mstore\n      keccak256(0x00, 0x20)\n      add\n      dup1\n      sload\n      tag_92\n      swap1\n      tag_55\n      jump\t// in\n    tag_92:\n      dup1\n      0x1f\n      add\n      0x20\n      dup1\n      swap2\n      div\n      mul\n      0x20\n      add\n      mload(0x40)\n      swap1\n      dup2\n      add\n      0x40\n      mstore\n      dup1\n      swap3\n      swap2\n      swap1\n      dup2\n      dup2\n      mstore\n      0x20\n      add\n      dup3\n      dup1\n      sload\n      tag_93\n      swap1\n      tag_55\n      jump\t// in\n    tag_93:\n      dup1\n      iszero\n      tag_94\n      jumpi\n      dup1\n      0x1f\n      lt\n      tag_95\n      jumpi\n      0x0100\n      dup1\n      dup4\n      sload\n      div\n      mul\n      dup4\n      mstore\n      swap2\n      0x20\n      add\n      swap2\n      jump(tag_94)\n    tag_95:\n      dup3\n      add\n      swap2\n      swap1\n      0x00\n      mstore\n      keccak256(0x00, 0x20)\n      swap1\n    tag_96:\n      dup2\n      sload\n      dup2\n      mstore\n      swap1\n      0x01\n      add\n      swap1\n      0x20\n      add\n      dup1\n      dup4\n      gt\n      tag_96\n      jumpi\n      dup3\n      swap1\n      sub\n      0x1f\n      and\n      dup3\n      add\n      swap2\n    tag_94:\n      pop\n      pop\n      pop\n      pop\n      pop\n      dup2\n      mstore\n      0x20\n      add\n      swap1\n      0x01\n      add\n      swap1\n      jump(tag_89)\n    tag_90:\n      pop\n      pop\n      pop\n      pop\n      swap1\n      pop\n        /* \"tryit/voatingSystem.sol\":1071:1173  function getallCandidates() public view returns (string[] memory) {... */\n      swap1\n      jump\t// out\n        /* \"tryit/voatingSystem.sol\":140:183  mapping(string => uint256) public voteCount */\n    tag_47:\n      0x01\n      dup2\n      dup1\n      mload\n      0x20\n      dup2\n      add\n      dup3\n      add\n      dup1\n      mload\n      dup5\n      dup3\n      mstore\n      0x20\n      dup4\n      add\n      0x20\n      dup6\n      add\n      keccak256\n      dup2\n      dup4\n      mstore\n      dup1\n      swap6\n      pop\n      pop\n      pop\n      pop\n      pop\n      pop\n      0x00\n      swap2\n      pop\n      swap1\n      pop\n      sload\n      dup2\n      jump\t// out\n        /* \"#utility.yul\":7:82   */\n    tag_97:\n        /* \"#utility.yul\":40:46   */\n      0x00\n        /* \"#utility.yul\":73:75   */\n      0x40\n        /* \"#utility.yul\":67:76   */\n      mload\n        /* \"#utility.yul\":57:76   */\n      swap1\n      pop\n        /* \"#utility.yul\":7:82   */\n      swap1\n      jump\t// out\n        /* \"#utility.yul\":88:205   */\n    tag_98:\n        /* \"#utility.yul\":197:198   */\n      0x00\n        /* \"#utility.yul\":194:195   */\n      0x00\n        /* \"#utility.yul\":187:199   */\n      revert\n        /* \"#utility.yul\":211:328   */\n    tag_99:\n        /* \"#utility.yul\":320:321   */\n      0x00\n        /* \"#utility.yul\":317:318   */\n      0x00\n        /* \"#utility.yul\":310:322   */\n      revert\n        /* \"#utility.yul\":334:451   */\n    tag_100:\n        /* \"#utility.yul\":443:444   */\n      0x00\n        /* \"#utility.yul\":440:441   */\n      0x00\n        /* \"#utility.yul\":433:445   */\n      revert\n        /* \"#utility.yul\":457:574   */\n    tag_101:\n        /* \"#utility.yul\":566:567   */\n      0x00\n        /* \"#utility.yul\":563:564   */\n      0x00\n        /* \"#utility.yul\":556:568   */\n      revert\n        /* \"#utility.yul\":580:682   */\n    tag_102:\n        /* \"#utility.yul\":621:627   */\n      0x00\n        /* \"#utility.yul\":672:674   */\n      0x1f\n        /* \"#utility.yul\":668:675   */\n      not\n        /* \"#utility.yul\":663:665   */\n      0x1f\n        /* \"#utility.yul\":656:661   */\n      dup4\n        /* \"#utility.yul\":652:666   */\n      add\n        /* \"#utility.yul\":648:676   */\n      and\n        /* \"#utility.yul\":638:676   */\n      swap1\n      pop\n        /* \"#utility.yul\":580:682   */\n      swap2\n      swap1\n      pop\n      jump\t// out\n        /* \"#utility.yul\":688:868   */\n    tag_103:\n        /* \"#utility.yul\":736:813   */\n      0x4e487b7100000000000000000000000000000000000000000000000000000000\n        /* \"#utility.yul\":733:734   */\n      0x00\n        /* \"#utility.yul\":726:814   */\n      mstore\n        /* \"#utility.yul\":833:837   */\n      0x41\n        /* \"#utility.yul\":830:831   */\n      0x04\n        /* \"#utility.yul\":823:838   */\n      mstore\n        /* \"#utility.yul\":857:861   */\n      0x24\n        /* \"#utility.yul\":854:855   */\n      0x00\n        /* \"#utility.yul\":847:862   */\n      revert\n        /* \"#utility.yul\":874:1155   */\n    tag_104:\n        /* \"#utility.yul\":957:984   */\n      tag_169\n        /* \"#utility.yul\":979:983   */\n      dup3\n        /* \"#utility.yul\":957:984   */\n      tag_102\n      jump\t// in\n    tag_169:\n        /* \"#utility.yul\":949:955   */\n      dup2\n        /* \"#utility.yul\":945:985   */\n      add\n        /* \"#utility.yul\":1087:1093   */\n      dup2\n        /* \"#utility.yul\":1075:1085   */\n      dup2\n        /* \"#utility.yul\":1072:1094   */\n      lt\n        /* \"#utility.yul\":1051:1069   */\n      0xffffffffffffffff\n        /* \"#utility.yul\":1039:1049   */\n      dup3\n        /* \"#utility.yul\":1036:1070   */\n      gt\n        /* \"#utility.yul\":1033:1095   */\n      or\n        /* \"#utility.yul\":1030:1118   */\n      iszero\n      tag_170\n      jumpi\n        /* \"#utility.yul\":1098:1116   */\n      tag_171\n      tag_103\n      jump\t// in\n    tag_171:\n        /* \"#utility.yul\":1030:1118   */\n    tag_170:\n        /* \"#utility.yul\":1138:1148   */\n      dup1\n        /* \"#utility.yul\":1134:1136   */\n      0x40\n        /* \"#utility.yul\":1127:1149   */\n      mstore\n        /* \"#utility.yul\":917:1155   */\n      pop\n        /* \"#utility.yul\":874:1155   */\n      pop\n      pop\n      jump\t// out\n        /* \"#utility.yul\":1161:1290   */\n    tag_105:\n        /* \"#utility.yul\":1195:1201   */\n      0x00\n        /* \"#utility.yul\":1222:1242   */\n      tag_173\n      tag_97\n      jump\t// in\n    tag_173:\n        /* \"#utility.yul\":1212:1242   */\n      swap1\n      pop\n        /* \"#utility.yul\":1251:1284   */\n      tag_174\n        /* \"#utility.yul\":1279:1283   */\n      dup3\n        /* \"#utility.yul\":1271:1277   */\n      dup3\n        /* \"#utility.yul\":1251:1284   */\n      tag_104\n      jump\t// in\n    tag_174:\n        /* \"#utility.yul\":1161:1290   */\n      swap2\n      swap1\n      pop\n      jump\t// out\n        /* \"#utility.yul\":1296:1604   */\n    tag_106:\n        /* \"#utility.yul\":1358:1362   */\n      0x00\n        /* \"#utility.yul\":1448:1466   */\n      0xffffffffffffffff\n        /* \"#utility.yul\":1440:1446   */\n      dup3\n        /* \"#utility.yul\":1437:1467   */\n      gt\n        /* \"#utility.yul\":1434:1490   */\n      iszero\n      tag_176\n      jumpi\n        /* \"#utility.yul\":1470:1488   */\n      tag_177\n      tag_103\n      jump\t// in\n    tag_177:\n        /* \"#utility.yul\":1434:1490   */\n    tag_176:\n        /* \"#utility.yul\":1508:1537   */\n      tag_178\n        /* \"#utility.yul\":1530:1536   */\n      dup3\n        /* \"#utility.yul\":1508:1537   */\n      tag_102\n      jump\t// in\n    tag_178:\n        /* \"#utility.yul\":1500:1537   */\n      swap1\n      pop\n        /* \"#utility.yul\":1592:1596   */\n      0x20\n        /* \"#utility.yul\":1586:1590   */\n      dup2\n        /* \"#utility.yul\":1582:1597   */\n      add\n        /* \"#utility.yul\":1574:1597   */\n      swap1\n      pop\n        /* \"#utility.yul\":1296:1604   */\n      swap2\n      swap1\n      pop\n      jump\t// out\n        /* \"#utility.yul\":1610:1758   */\n    tag_107:\n        /* \"#utility.yul\":1708:1714   */\n      dup3\n        /* \"#utility.yul\":1703:1706   */\n      dup2\n        /* \"#utility.yul\":1698:1701   */\n      dup4\n        /* \"#utility.yul\":1685:1715   */\n      calldatacopy\n        /* \"#utility.yul\":1749:1750   */\n      0x00\n        /* \"#utility.yul\":1740:1746   */\n      dup4\n        /* \"#utility.yul\":1735:1738   */\n      dup4\n        /* \"#utility.yul\":1731:1747   */\n      add\n        /* \"#utility.yul\":1724:1751   */\n      mstore\n        /* \"#utility.yul\":1610:1758   */\n      pop\n      pop\n      pop\n      jump\t// out\n        /* \"#utility.yul\":1764:2189   */\n    tag_108:\n        /* \"#utility.yul\":1842:1847   */\n      0x00\n        /* \"#utility.yul\":1867:1933   */\n      tag_181\n        /* \"#utility.yul\":1883:1932   */\n      tag_182\n        /* \"#utility.yul\":1925:1931   */\n      dup5\n        /* \"#utility.yul\":1883:1932   */\n      tag_106\n      jump\t// in\n    tag_182:\n        /* \"#utility.yul\":1867:1933   */\n      tag_105\n      jump\t// in\n    tag_181:\n        /* \"#utility.yul\":1858:1933   */\n      swap1\n      pop\n        /* \"#utility.yul\":1956:1962   */\n      dup3\n        /* \"#utility.yul\":1949:1954   */\n      dup2\n        /* \"#utility.yul\":1942:1963   */\n      mstore\n        /* \"#utility.yul\":1994:1998   */\n      0x20\n        /* \"#utility.yul\":1987:1992   */\n      dup2\n        /* \"#utility.yul\":1983:1999   */\n      add\n        /* \"#utility.yul\":2032:2035   */\n      dup5\n        /* \"#utility.yul\":2023:2029   */\n      dup5\n        /* \"#utility.yul\":2018:2021   */\n      dup5\n        /* \"#utility.yul\":2014:2030   */\n      add\n        /* \"#utility.yul\":2011:2036   */\n      gt\n        /* \"#utility.yul\":2008:2120   */\n      iszero\n      tag_183\n      jumpi\n        /* \"#utility.yul\":2039:2118   */\n      tag_184\n      tag_101\n      jump\t// in\n    tag_184:\n        /* \"#utility.yul\":2008:2120   */\n    tag_183:\n        /* \"#utility.yul\":2129:2183   */\n      tag_185\n        /* \"#utility.yul\":2176:2182   */\n      dup5\n        /* \"#utility.yul\":2171:2174   */\n      dup3\n        /* \"#utility.yul\":2166:2169   */\n      dup6\n        /* \"#utility.yul\":2129:2183   */\n      tag_107\n      jump\t// in\n    tag_185:\n        /* \"#utility.yul\":1848:2189   */\n      pop\n        /* \"#utility.yul\":1764:2189   */\n      swap4\n      swap3\n      pop\n      pop\n      pop\n      jump\t// out\n        /* \"#utility.yul\":2209:2549   */\n    tag_109:\n        /* \"#utility.yul\":2265:2270   */\n      0x00\n        /* \"#utility.yul\":2314:2317   */\n      dup3\n        /* \"#utility.yul\":2307:2311   */\n      0x1f\n        /* \"#utility.yul\":2299:2305   */\n      dup4\n        /* \"#utility.yul\":2295:2312   */\n      add\n        /* \"#utility.yul\":2291:2318   */\n      slt\n        /* \"#utility.yul\":2281:2403   */\n      tag_187\n      jumpi\n        /* \"#utility.yul\":2322:2401   */\n      tag_188\n      tag_100\n      jump\t// in\n    tag_188:\n        /* \"#utility.yul\":2281:2403   */\n    tag_187:\n        /* \"#utility.yul\":2439:2445   */\n      dup2\n        /* \"#utility.yul\":2426:2446   */\n      calldataload\n        /* \"#utility.yul\":2464:2543   */\n      tag_189\n        /* \"#utility.yul\":2539:2542   */\n      dup5\n        /* \"#utility.yul\":2531:2537   */\n      dup3\n        /* \"#utility.yul\":2524:2528   */\n      0x20\n        /* \"#utility.yul\":2516:2522   */\n      dup7\n        /* \"#utility.yul\":2512:2529   */\n      add\n        /* \"#utility.yul\":2464:2543   */\n      tag_108\n      jump\t// in\n    tag_189:\n        /* \"#utility.yul\":2455:2543   */\n      swap2\n      pop\n        /* \"#utility.yul\":2271:2549   */\n      pop\n        /* \"#utility.yul\":2209:2549   */\n      swap3\n      swap2\n      pop\n      pop\n      jump\t// out\n        /* \"#utility.yul\":2555:3064   */\n    tag_14:\n        /* \"#utility.yul\":2624:2630   */\n      0x00\n        /* \"#utility.yul\":2673:2675   */\n      0x20\n        /* \"#utility.yul\":2661:2670   */\n      dup3\n        /* \"#utility.yul\":2652:2659   */\n      dup5\n        /* \"#utility.yul\":2648:2671   */\n      sub\n        /* \"#utility.yul\":2644:2676   */\n      slt\n        /* \"#utility.yul\":2641:2760   */\n      iszero\n      tag_191\n      jumpi\n        /* \"#utility.yul\":2679:2758   */\n      tag_192\n      tag_98\n      jump\t// in\n    tag_192:\n        /* \"#utility.yul\":2641:2760   */\n    tag_191:\n        /* \"#utility.yul\":2827:2828   */\n      0x00\n        /* \"#utility.yul\":2816:2825   */\n      dup3\n        /* \"#utility.yul\":2812:2829   */\n      add\n        /* \"#utility.yul\":2799:2830   */\n      calldataload\n        /* \"#utility.yul\":2857:2875   */\n      0xffffffffffffffff\n        /* \"#utility.yul\":2849:2855   */\n      dup2\n        /* \"#utility.yul\":2846:2876   */\n      gt\n        /* \"#utility.yul\":2843:2960   */\n      iszero\n      tag_193\n      jumpi\n        /* \"#utility.yul\":2879:2958   */\n      tag_194\n      tag_99\n      jump\t// in\n    tag_194:\n        /* \"#utility.yul\":2843:2960   */\n    tag_193:\n        /* \"#utility.yul\":2984:3047   */\n      tag_195\n        /* \"#utility.yul\":3039:3046   */\n      dup5\n        /* \"#utility.yul\":3030:3036   */\n      dup3\n        /* \"#utility.yul\":3019:3028   */\n      dup6\n        /* \"#utility.yul\":3015:3037   */\n      add\n        /* \"#utility.yul\":2984:3047   */\n      tag_109\n      jump\t// in\n    tag_195:\n        /* \"#utility.yul\":2974:3047   */\n      swap2\n      pop\n        /* \"#utility.yul\":2770:3057   */\n      pop\n        /* \"#utility.yul\":2555:3064   */\n      swap3\n      swap2\n      pop\n      pop\n      jump\t// out\n        /* \"#utility.yul\":3070:3147   */\n    tag_110:\n        /* \"#utility.yul\":3107:3114   */\n      0x00\n        /* \"#utility.yul\":3136:3141   */\n      dup2\n        /* \"#utility.yul\":3125:3141   */\n      swap1\n      pop\n        /* \"#utility.yul\":3070:3147   */\n      swap2\n      swap1\n      pop\n      jump\t// out\n        /* \"#utility.yul\":3153:3271   */\n    tag_111:\n        /* \"#utility.yul\":3240:3264   */\n      tag_198\n        /* \"#utility.yul\":3258:3263   */\n      dup2\n        /* \"#utility.yul\":3240:3264   */\n      tag_110\n      jump\t// in\n    tag_198:\n        /* \"#utility.yul\":3235:3238   */\n      dup3\n        /* \"#utility.yul\":3228:3265   */\n      mstore\n        /* \"#utility.yul\":3153:3271   */\n      pop\n      pop\n      jump\t// out\n        /* \"#utility.yul\":3277:3499   */\n    tag_17:\n        /* \"#utility.yul\":3370:3374   */\n      0x00\n        /* \"#utility.yul\":3408:3410   */\n      0x20\n        /* \"#utility.yul\":3397:3406   */\n      dup3\n        /* \"#utility.yul\":3393:3411   */\n      add\n        /* \"#utility.yul\":3385:3411   */\n      swap1\n      pop\n        /* \"#utility.yul\":3421:3492   */\n      tag_200\n        /* \"#utility.yul\":3489:3490   */\n      0x00\n        /* \"#utility.yul\":3478:3487   */\n      dup4\n        /* \"#utility.yul\":3474:3491   */\n      add\n        /* \"#utility.yul\":3465:3471   */\n      dup5\n        /* \"#utility.yul\":3421:3492   */\n      tag_111\n      jump\t// in\n    tag_200:\n        /* \"#utility.yul\":3277:3499   */\n      swap3\n      swap2\n      pop\n      pop\n      jump\t// out\n        /* \"#utility.yul\":3505:3631   */\n    tag_112:\n        /* \"#utility.yul\":3542:3549   */\n      0x00\n        /* \"#utility.yul\":3582:3624   */\n      0xffffffffffffffffffffffffffffffffffffffff\n        /* \"#utility.yul\":3575:3580   */\n      dup3\n        /* \"#utility.yul\":3571:3625   */\n      and\n        /* \"#utility.yul\":3560:3625   */\n      swap1\n      pop\n        /* \"#utility.yul\":3505:3631   */\n      swap2\n      swap1\n      pop\n      jump\t// out\n        /* \"#utility.yul\":3637:3733   */\n    tag_113:\n        /* \"#utility.yul\":3674:3681   */\n      0x00\n        /* \"#utility.yul\":3703:3727   */\n      tag_203\n        /* \"#utility.yul\":3721:3726   */\n      dup3\n        /* \"#utility.yul\":3703:3727   */\n      tag_112\n      jump\t// in\n    tag_203:\n        /* \"#utility.yul\":3692:3727   */\n      swap1\n      pop\n        /* \"#utility.yul\":3637:3733   */\n      swap2\n      swap1\n      pop\n      jump\t// out\n        /* \"#utility.yul\":3739:3861   */\n    tag_114:\n        /* \"#utility.yul\":3812:3836   */\n      tag_205\n        /* \"#utility.yul\":3830:3835   */\n      dup2\n        /* \"#utility.yul\":3812:3836   */\n      tag_113\n      jump\t// in\n    tag_205:\n        /* \"#utility.yul\":3805:3810   */\n      dup2\n        /* \"#utility.yul\":3802:3837   */\n      eq\n        /* \"#utility.yul\":3792:3855   */\n      tag_206\n      jumpi\n        /* \"#utility.yul\":3851:3852   */\n      0x00\n        /* \"#utility.yul\":3848:3849   */\n      0x00\n        /* \"#utility.yul\":3841:3853   */\n      revert\n        /* \"#utility.yul\":3792:3855   */\n    tag_206:\n        /* \"#utility.yul\":3739:3861   */\n      pop\n      jump\t// out\n        /* \"#utility.yul\":3867:4006   */\n    tag_115:\n        /* \"#utility.yul\":3913:3918   */\n      0x00\n        /* \"#utility.yul\":3951:3957   */\n      dup2\n        /* \"#utility.yul\":3938:3958   */\n      calldataload\n        /* \"#utility.yul\":3929:3958   */\n      swap1\n      pop\n        /* \"#utility.yul\":3967:4000   */\n      tag_208\n        /* \"#utility.yul\":3994:3999   */\n      dup2\n        /* \"#utility.yul\":3967:4000   */\n      tag_114\n      jump\t// in\n    tag_208:\n        /* \"#utility.yul\":3867:4006   */\n      swap3\n      swap2\n      pop\n      pop\n      jump\t// out\n        /* \"#utility.yul\":4012:4341   */\n    tag_20:\n        /* \"#utility.yul\":4071:4077   */\n      0x00\n        /* \"#utility.yul\":4120:4122   */\n      0x20\n        /* \"#utility.yul\":4108:4117   */\n      dup3\n        /* \"#utility.yul\":4099:4106   */\n      dup5\n        /* \"#utility.yul\":4095:4118   */\n      sub\n        /* \"#utility.yul\":4091:4123   */\n      slt\n        /* \"#utility.yul\":4088:4207   */\n      iszero\n      tag_210\n      jumpi\n        /* \"#utility.yul\":4126:4205   */\n      tag_211\n      tag_98\n      jump\t// in\n    tag_211:\n        /* \"#utility.yul\":4088:4207   */\n    tag_210:\n        /* \"#utility.yul\":4246:4247   */\n      0x00\n        /* \"#utility.yul\":4271:4324   */\n      tag_212\n        /* \"#utility.yul\":4316:4323   */\n      dup5\n        /* \"#utility.yul\":4307:4313   */\n      dup3\n        /* \"#utility.yul\":4296:4305   */\n      dup6\n        /* \"#utility.yul\":4292:4314   */\n      add\n        /* \"#utility.yul\":4271:4324   */\n      tag_115\n      jump\t// in\n    tag_212:\n        /* \"#utility.yul\":4261:4324   */\n      swap2\n      pop\n        /* \"#utility.yul\":4217:4334   */\n      pop\n        /* \"#utility.yul\":4012:4341   */\n      swap3\n      swap2\n      pop\n      pop\n      jump\t// out\n        /* \"#utility.yul\":4347:4437   */\n    tag_116:\n        /* \"#utility.yul\":4381:4388   */\n      0x00\n        /* \"#utility.yul\":4424:4429   */\n      dup2\n        /* \"#utility.yul\":4417:4430   */\n      iszero\n        /* \"#utility.yul\":4410:4431   */\n      iszero\n        /* \"#utility.yul\":4399:4431   */\n      swap1\n      pop\n        /* \"#utility.yul\":4347:4437   */\n      swap2\n      swap1\n      pop\n      jump\t// out\n        /* \"#utility.yul\":4443:4552   */\n    tag_117:\n        /* \"#utility.yul\":4524:4545   */\n      tag_215\n        /* \"#utility.yul\":4539:4544   */\n      dup2\n        /* \"#utility.yul\":4524:4545   */\n      tag_116\n      jump\t// in\n    tag_215:\n        /* \"#utility.yul\":4519:4522   */\n      dup3\n        /* \"#utility.yul\":4512:4546   */\n      mstore\n        /* \"#utility.yul\":4443:4552   */\n      pop\n      pop\n      jump\t// out\n        /* \"#utility.yul\":4558:4768   */\n    tag_23:\n        /* \"#utility.yul\":4645:4649   */\n      0x00\n        /* \"#utility.yul\":4683:4685   */\n      0x20\n        /* \"#utility.yul\":4672:4681   */\n      dup3\n        /* \"#utility.yul\":4668:4686   */\n      add\n        /* \"#utility.yul\":4660:4686   */\n      swap1\n      pop\n        /* \"#utility.yul\":4696:4761   */\n      tag_217\n        /* \"#utility.yul\":4758:4759   */\n      0x00\n        /* \"#utility.yul\":4747:4756   */\n      dup4\n        /* \"#utility.yul\":4743:4760   */\n      add\n        /* \"#utility.yul\":4734:4740   */\n      dup5\n        /* \"#utility.yul\":4696:4761   */\n      tag_117\n      jump\t// in\n    tag_217:\n        /* \"#utility.yul\":4558:4768   */\n      swap3\n      swap2\n      pop\n      pop\n      jump\t// out\n        /* \"#utility.yul\":4774:4896   */\n    tag_118:\n        /* \"#utility.yul\":4847:4871   */\n      tag_219\n        /* \"#utility.yul\":4865:4870   */\n      dup2\n        /* \"#utility.yul\":4847:4871   */\n      tag_110\n      jump\t// in\n    tag_219:\n        /* \"#utility.yul\":4840:4845   */\n      dup2\n        /* \"#utility.yul\":4837:4872   */\n      eq\n        /* \"#utility.yul\":4827:4890   */\n      tag_220\n      jumpi\n        /* \"#utility.yul\":4886:4887   */\n      0x00\n        /* \"#utility.yul\":4883:4884   */\n      0x00\n        /* \"#utility.yul\":4876:4888   */\n      revert\n        /* \"#utility.yul\":4827:4890   */\n    tag_220:\n        /* \"#utility.yul\":4774:4896   */\n      pop\n      jump\t// out\n        /* \"#utility.yul\":4902:5041   */\n    tag_119:\n        /* \"#utility.yul\":4948:4953   */\n      0x00\n        /* \"#utility.yul\":4986:4992   */\n      dup2\n        /* \"#utility.yul\":4973:4993   */\n      calldataload\n        /* \"#utility.yul\":4964:4993   */\n      swap1\n      pop\n        /* \"#utility.yul\":5002:5035   */\n      tag_222\n        /* \"#utility.yul\":5029:5034   */\n      dup2\n        /* \"#utility.yul\":5002:5035   */\n      tag_118\n      jump\t// in\n    tag_222:\n        /* \"#utility.yul\":4902:5041   */\n      swap3\n      swap2\n      pop\n      pop\n      jump\t// out\n        /* \"#utility.yul\":5047:5376   */\n    tag_26:\n        /* \"#utility.yul\":5106:5112   */\n      0x00\n        /* \"#utility.yul\":5155:5157   */\n      0x20\n        /* \"#utility.yul\":5143:5152   */\n      dup3\n        /* \"#utility.yul\":5134:5141   */\n      dup5\n        /* \"#utility.yul\":5130:5153   */\n      sub\n        /* \"#utility.yul\":5126:5158   */\n      slt\n        /* \"#utility.yul\":5123:5242   */\n      iszero\n      tag_224\n      jumpi\n        /* \"#utility.yul\":5161:5240   */\n      tag_225\n      tag_98\n      jump\t// in\n    tag_225:\n        /* \"#utility.yul\":5123:5242   */\n    tag_224:\n        /* \"#utility.yul\":5281:5282   */\n      0x00\n        /* \"#utility.yul\":5306:5359   */\n      tag_226\n        /* \"#utility.yul\":5351:5358   */\n      dup5\n        /* \"#utility.yul\":5342:5348   */\n      dup3\n        /* \"#utility.yul\":5331:5340   */\n      dup6\n        /* \"#utility.yul\":5327:5349   */\n      add\n        /* \"#utility.yul\":5306:5359   */\n      tag_119\n      jump\t// in\n    tag_226:\n        /* \"#utility.yul\":5296:5359   */\n      swap2\n      pop\n        /* \"#utility.yul\":5252:5369   */\n      pop\n        /* \"#utility.yul\":5047:5376   */\n      swap3\n      swap2\n      pop\n      pop\n      jump\t// out\n        /* \"#utility.yul\":5382:5481   */\n    tag_120:\n        /* \"#utility.yul\":5434:5440   */\n      0x00\n        /* \"#utility.yul\":5468:5473   */\n      dup2\n        /* \"#utility.yul\":5462:5474   */\n      mload\n        /* \"#utility.yul\":5452:5474   */\n      swap1\n      pop\n        /* \"#utility.yul\":5382:5481   */\n      swap2\n      swap1\n      pop\n      jump\t// out\n        /* \"#utility.yul\":5487:5656   */\n    tag_121:\n        /* \"#utility.yul\":5571:5582   */\n      0x00\n        /* \"#utility.yul\":5605:5611   */\n      dup3\n        /* \"#utility.yul\":5600:5603   */\n      dup3\n        /* \"#utility.yul\":5593:5612   */\n      mstore\n        /* \"#utility.yul\":5645:5649   */\n      0x20\n        /* \"#utility.yul\":5640:5643   */\n      dup3\n        /* \"#utility.yul\":5636:5650   */\n      add\n        /* \"#utility.yul\":5621:5650   */\n      swap1\n      pop\n        /* \"#utility.yul\":5487:5656   */\n      swap3\n      swap2\n      pop\n      pop\n      jump\t// out\n        /* \"#utility.yul\":5662:5801   */\n    tag_122:\n        /* \"#utility.yul\":5751:5757   */\n      dup3\n        /* \"#utility.yul\":5746:5749   */\n      dup2\n        /* \"#utility.yul\":5741:5744   */\n      dup4\n        /* \"#utility.yul\":5735:5758   */\n      mcopy\n        /* \"#utility.yul\":5792:5793   */\n      0x00\n        /* \"#utility.yul\":5783:5789   */\n      dup4\n        /* \"#utility.yul\":5778:5781   */\n      dup4\n        /* \"#utility.yul\":5774:5790   */\n      add\n        /* \"#utility.yul\":5767:5794   */\n      mstore\n        /* \"#utility.yul\":5662:5801   */\n      pop\n      pop\n      pop\n      jump\t// out\n        /* \"#utility.yul\":5807:6184   */\n    tag_123:\n        /* \"#utility.yul\":5895:5898   */\n      0x00\n        /* \"#utility.yul\":5923:5962   */\n      tag_231\n        /* \"#utility.yul\":5956:5961   */\n      dup3\n        /* \"#utility.yul\":5923:5962   */\n      tag_120\n      jump\t// in\n    tag_231:\n        /* \"#utility.yul\":5978:6049   */\n      tag_232\n        /* \"#utility.yul\":6042:6048   */\n      dup2\n        /* \"#utility.yul\":6037:6040   */\n      dup6\n        /* \"#utility.yul\":5978:6049   */\n      tag_121\n      jump\t// in\n    tag_232:\n        /* \"#utility.yul\":5971:6049   */\n      swap4\n      pop\n        /* \"#utility.yul\":6058:6123   */\n      tag_233\n        /* \"#utility.yul\":6116:6122   */\n      dup2\n        /* \"#utility.yul\":6111:6114   */\n      dup6\n        /* \"#utility.yul\":6104:6108   */\n      0x20\n        /* \"#utility.yul\":6097:6102   */\n      dup7\n        /* \"#utility.yul\":6093:6109   */\n      add\n        /* \"#utility.yul\":6058:6123   */\n      tag_122\n      jump\t// in\n    tag_233:\n        /* \"#utility.yul\":6148:6177   */\n      tag_234\n        /* \"#utility.yul\":6170:6176   */\n      dup2\n        /* \"#utility.yul\":6148:6177   */\n      tag_102\n      jump\t// in\n    tag_234:\n        /* \"#utility.yul\":6143:6146   */\n      dup5\n        /* \"#utility.yul\":6139:6178   */\n      add\n        /* \"#utility.yul\":6132:6178   */\n      swap2\n      pop\n        /* \"#utility.yul\":5899:6184   */\n      pop\n        /* \"#utility.yul\":5807:6184   */\n      swap3\n      swap2\n      pop\n      pop\n      jump\t// out\n        /* \"#utility.yul\":6190:6503   */\n    tag_29:\n        /* \"#utility.yul\":6303:6307   */\n      0x00\n        /* \"#utility.yul\":6341:6343   */\n      0x20\n        /* \"#utility.yul\":6330:6339   */\n      dup3\n        /* \"#utility.yul\":6326:6344   */\n      add\n        /* \"#utility.yul\":6318:6344   */\n      swap1\n      pop\n        /* \"#utility.yul\":6390:6399   */\n      dup2\n        /* \"#utility.yul\":6384:6388   */\n      dup2\n        /* \"#utility.yul\":6380:6400   */\n      sub\n        /* \"#utility.yul\":6376:6377   */\n      0x00\n        /* \"#utility.yul\":6365:6374   */\n      dup4\n        /* \"#utility.yul\":6361:6378   */\n      add\n        /* \"#utility.yul\":6354:6401   */\n      mstore\n        /* \"#utility.yul\":6418:6496   */\n      tag_236\n        /* \"#utility.yul\":6491:6495   */\n      dup2\n        /* \"#utility.yul\":6482:6488   */\n      dup5\n        /* \"#utility.yul\":6418:6496   */\n      tag_123\n      jump\t// in\n    tag_236:\n        /* \"#utility.yul\":6410:6496   */\n      swap1\n      pop\n        /* \"#utility.yul\":6190:6503   */\n      swap3\n      swap2\n      pop\n      pop\n      jump\t// out\n        /* \"#utility.yul\":6509:6626   */\n    tag_124:\n        /* \"#utility.yul\":6618:6619   */\n      0x00\n        /* \"#utility.yul\":6615:6616   */\n      0x00\n        /* \"#utility.yul\":6608:6620   */\n      revert\n        /* \"#utility.yul\":6632:6749   */\n    tag_125:\n        /* \"#utility.yul\":6741:6742   */\n      0x00\n        /* \"#utility.yul\":6738:6739   */\n      0x00\n        /* \"#utility.yul\":6731:6743   */\n      revert\n        /* \"#utility.yul\":6769:7322   */\n    tag_126:\n        /* \"#utility.yul\":6827:6835   */\n      0x00\n        /* \"#utility.yul\":6837:6843   */\n      0x00\n        /* \"#utility.yul\":6887:6890   */\n      dup4\n        /* \"#utility.yul\":6880:6884   */\n      0x1f\n        /* \"#utility.yul\":6872:6878   */\n      dup5\n        /* \"#utility.yul\":6868:6885   */\n      add\n        /* \"#utility.yul\":6864:6891   */\n      slt\n        /* \"#utility.yul\":6854:6976   */\n      tag_240\n      jumpi\n        /* \"#utility.yul\":6895:6974   */\n      tag_241\n      tag_100\n      jump\t// in\n    tag_241:\n        /* \"#utility.yul\":6854:6976   */\n    tag_240:\n        /* \"#utility.yul\":7008:7014   */\n      dup3\n        /* \"#utility.yul\":6995:7015   */\n      calldataload\n        /* \"#utility.yul\":6985:7015   */\n      swap1\n      pop\n        /* \"#utility.yul\":7038:7056   */\n      0xffffffffffffffff\n        /* \"#utility.yul\":7030:7036   */\n      dup2\n        /* \"#utility.yul\":7027:7057   */\n      gt\n        /* \"#utility.yul\":7024:7141   */\n      iszero\n      tag_242\n      jumpi\n        /* \"#utility.yul\":7060:7139   */\n      tag_243\n      tag_124\n      jump\t// in\n    tag_243:\n        /* \"#utility.yul\":7024:7141   */\n    tag_242:\n        /* \"#utility.yul\":7174:7178   */\n      0x20\n        /* \"#utility.yul\":7166:7172   */\n      dup4\n        /* \"#utility.yul\":7162:7179   */\n      add\n        /* \"#utility.yul\":7150:7179   */\n      swap2\n      pop\n        /* \"#utility.yul\":7228:7231   */\n      dup4\n        /* \"#utility.yul\":7220:7224   */\n      0x01\n        /* \"#utility.yul\":7212:7218   */\n      dup3\n        /* \"#utility.yul\":7208:7225   */\n      mul\n        /* \"#utility.yul\":7198:7206   */\n      dup4\n        /* \"#utility.yul\":7194:7226   */\n      add\n        /* \"#utility.yul\":7191:7232   */\n      gt\n        /* \"#utility.yul\":7188:7316   */\n      iszero\n      tag_244\n      jumpi\n        /* \"#utility.yul\":7235:7314   */\n      tag_245\n      tag_125\n      jump\t// in\n    tag_245:\n        /* \"#utility.yul\":7188:7316   */\n    tag_244:\n        /* \"#utility.yul\":6769:7322   */\n      swap3\n      pop\n      swap3\n      swap1\n      pop\n      jump\t// out\n        /* \"#utility.yul\":7328:7857   */\n    tag_32:\n        /* \"#utility.yul\":7399:7405   */\n      0x00\n        /* \"#utility.yul\":7407:7413   */\n      0x00\n        /* \"#utility.yul\":7456:7458   */\n      0x20\n        /* \"#utility.yul\":7444:7453   */\n      dup4\n        /* \"#utility.yul\":7435:7442   */\n      dup6\n        /* \"#utility.yul\":7431:7454   */\n      sub\n        /* \"#utility.yul\":7427:7459   */\n      slt\n        /* \"#utility.yul\":7424:7543   */\n      iszero\n      tag_247\n      jumpi\n        /* \"#utility.yul\":7462:7541   */\n      tag_248\n      tag_98\n      jump\t// in\n    tag_248:\n        /* \"#utility.yul\":7424:7543   */\n    tag_247:\n        /* \"#utility.yul\":7610:7611   */\n      0x00\n        /* \"#utility.yul\":7599:7608   */\n      dup4\n        /* \"#utility.yul\":7595:7612   */\n      add\n        /* \"#utility.yul\":7582:7613   */\n      calldataload\n        /* \"#utility.yul\":7640:7658   */\n      0xffffffffffffffff\n        /* \"#utility.yul\":7632:7638   */\n      dup2\n        /* \"#utility.yul\":7629:7659   */\n      gt\n        /* \"#utility.yul\":7626:7743   */\n      iszero\n      tag_249\n      jumpi\n        /* \"#utility.yul\":7662:7741   */\n      tag_250\n      tag_99\n      jump\t// in\n    tag_250:\n        /* \"#utility.yul\":7626:7743   */\n    tag_249:\n        /* \"#utility.yul\":7775:7840   */\n      tag_251\n        /* \"#utility.yul\":7832:7839   */\n      dup6\n        /* \"#utility.yul\":7823:7829   */\n      dup3\n        /* \"#utility.yul\":7812:7821   */\n      dup7\n        /* \"#utility.yul\":7808:7830   */\n      add\n        /* \"#utility.yul\":7775:7840   */\n      tag_126\n      jump\t// in\n    tag_251:\n        /* \"#utility.yul\":7757:7840   */\n      swap3\n      pop\n      swap3\n      pop\n        /* \"#utility.yul\":7553:7850   */\n      pop\n        /* \"#utility.yul\":7328:7857   */\n      swap3\n      pop\n      swap3\n      swap1\n      pop\n      jump\t// out\n        /* \"#utility.yul\":7863:7987   */\n    tag_127:\n        /* \"#utility.yul\":7940:7946   */\n      0x00\n        /* \"#utility.yul\":7974:7979   */\n      dup2\n        /* \"#utility.yul\":7968:7980   */\n      mload\n        /* \"#utility.yul\":7958:7980   */\n      swap1\n      pop\n        /* \"#utility.yul\":7863:7987   */\n      swap2\n      swap1\n      pop\n      jump\t// out\n        /* \"#utility.yul\":7993:8187   */\n    tag_128:\n        /* \"#utility.yul\":8102:8113   */\n      0x00\n        /* \"#utility.yul\":8136:8142   */\n      dup3\n        /* \"#utility.yul\":8131:8134   */\n      dup3\n        /* \"#utility.yul\":8124:8143   */\n      mstore\n        /* \"#utility.yul\":8176:8180   */\n      0x20\n        /* \"#utility.yul\":8171:8174   */\n      dup3\n        /* \"#utility.yul\":8167:8181   */\n      add\n        /* \"#utility.yul\":8152:8181   */\n      swap1\n      pop\n        /* \"#utility.yul\":7993:8187   */\n      swap3\n      swap2\n      pop\n      pop\n      jump\t// out\n        /* \"#utility.yul\":8193:8335   */\n    tag_129:\n        /* \"#utility.yul\":8270:8274   */\n      0x00\n        /* \"#utility.yul\":8293:8296   */\n      dup2\n        /* \"#utility.yul\":8285:8296   */\n      swap1\n      pop\n        /* \"#utility.yul\":8323:8327   */\n      0x20\n        /* \"#utility.yul\":8318:8321   */\n      dup3\n        /* \"#utility.yul\":8314:8328   */\n      add\n        /* \"#utility.yul\":8306:8328   */\n      swap1\n      pop\n        /* \"#utility.yul\":8193:8335   */\n      swap2\n      swap1\n      pop\n      jump\t// out\n        /* \"#utility.yul\":8341:8500   */\n    tag_130:\n        /* \"#utility.yul\":8415:8426   */\n      0x00\n        /* \"#utility.yul\":8449:8455   */\n      dup3\n        /* \"#utility.yul\":8444:8447   */\n      dup3\n        /* \"#utility.yul\":8437:8456   */\n      mstore\n        /* \"#utility.yul\":8489:8493   */\n      0x20\n        /* \"#utility.yul\":8484:8487   */\n      dup3\n        /* \"#utility.yul\":8480:8494   */\n      add\n        /* \"#utility.yul\":8465:8494   */\n      swap1\n      pop\n        /* \"#utility.yul\":8341:8500   */\n      swap3\n      swap2\n      pop\n      pop\n      jump\t// out\n        /* \"#utility.yul\":8506:8863   */\n    tag_131:\n        /* \"#utility.yul\":8584:8587   */\n      0x00\n        /* \"#utility.yul\":8612:8651   */\n      tag_257\n        /* \"#utility.yul\":8645:8650   */\n      dup3\n        /* \"#utility.yul\":8612:8651   */\n      tag_120\n      jump\t// in\n    tag_257:\n        /* \"#utility.yul\":8667:8728   */\n      tag_258\n        /* \"#utility.yul\":8721:8727   */\n      dup2\n        /* \"#utility.yul\":8716:8719   */\n      dup6\n        /* \"#utility.yul\":8667:8728   */\n      tag_130\n      jump\t// in\n    tag_258:\n        /* \"#utility.yul\":8660:8728   */\n      swap4\n      pop\n        /* \"#utility.yul\":8737:8802   */\n      tag_259\n        /* \"#utility.yul\":8795:8801   */\n      dup2\n        /* \"#utility.yul\":8790:8793   */\n      dup6\n        /* \"#utility.yul\":8783:8787   */\n      0x20\n        /* \"#utility.yul\":8776:8781   */\n      dup7\n        /* \"#utility.yul\":8772:8788   */\n      add\n        /* \"#utility.yul\":8737:8802   */\n      tag_122\n      jump\t// in\n    tag_259:\n        /* \"#utility.yul\":8827:8856   */\n      tag_260\n        /* \"#utility.yul\":8849:8855   */\n      dup2\n        /* \"#utility.yul\":8827:8856   */\n      tag_102\n      jump\t// in\n    tag_260:\n        /* \"#utility.yul\":8822:8825   */\n      dup5\n        /* \"#utility.yul\":8818:8857   */\n      add\n        /* \"#utility.yul\":8811:8857   */\n      swap2\n      pop\n        /* \"#utility.yul\":8588:8863   */\n      pop\n        /* \"#utility.yul\":8506:8863   */\n      swap3\n      swap2\n      pop\n      pop\n      jump\t// out\n        /* \"#utility.yul\":8869:9065   */\n    tag_132:\n        /* \"#utility.yul\":8958:8968   */\n      0x00\n        /* \"#utility.yul\":8993:9059   */\n      tag_262\n        /* \"#utility.yul\":9055:9058   */\n      dup4\n        /* \"#utility.yul\":9047:9053   */\n      dup4\n        /* \"#utility.yul\":8993:9059   */\n      tag_131\n      jump\t// in\n    tag_262:\n        /* \"#utility.yul\":8979:9059   */\n      swap1\n      pop\n        /* \"#utility.yul\":8869:9065   */\n      swap3\n      swap2\n      pop\n      pop\n      jump\t// out\n        /* \"#utility.yul\":9071:9194   */\n    tag_133:\n        /* \"#utility.yul\":9151:9155   */\n      0x00\n        /* \"#utility.yul\":9183:9187   */\n      0x20\n        /* \"#utility.yul\":9178:9181   */\n      dup3\n        /* \"#utility.yul\":9174:9188   */\n      add\n        /* \"#utility.yul\":9166:9188   */\n      swap1\n      pop\n        /* \"#utility.yul\":9071:9194   */\n      swap2\n      swap1\n      pop\n      jump\t// out\n        /* \"#utility.yul\":9228:10219   */\n    tag_134:\n        /* \"#utility.yul\":9367:9370   */\n      0x00\n        /* \"#utility.yul\":9396:9460   */\n      tag_265\n        /* \"#utility.yul\":9454:9459   */\n      dup3\n        /* \"#utility.yul\":9396:9460   */\n      tag_127\n      jump\t// in\n    tag_265:\n        /* \"#utility.yul\":9476:9572   */\n      tag_266\n        /* \"#utility.yul\":9565:9571   */\n      dup2\n        /* \"#utility.yul\":9560:9563   */\n      dup6\n        /* \"#utility.yul\":9476:9572   */\n      tag_128\n      jump\t// in\n    tag_266:\n        /* \"#utility.yul\":9469:9572   */\n      swap4\n      pop\n        /* \"#utility.yul\":9598:9601   */\n      dup4\n        /* \"#utility.yul\":9643:9647   */\n      0x20\n        /* \"#utility.yul\":9635:9641   */\n      dup3\n        /* \"#utility.yul\":9631:9648   */\n      mul\n        /* \"#utility.yul\":9626:9629   */\n      dup6\n        /* \"#utility.yul\":9622:9649   */\n      add\n        /* \"#utility.yul\":9673:9739   */\n      tag_267\n        /* \"#utility.yul\":9733:9738   */\n      dup6\n        /* \"#utility.yul\":9673:9739   */\n      tag_129\n      jump\t// in\n    tag_267:\n        /* \"#utility.yul\":9762:9769   */\n      dup1\n        /* \"#utility.yul\":9793:9794   */\n      0x00\n        /* \"#utility.yul\":9778:10174   */\n    tag_268:\n        /* \"#utility.yul\":9803:9809   */\n      dup6\n        /* \"#utility.yul\":9800:9801   */\n      dup2\n        /* \"#utility.yul\":9797:9810   */\n      lt\n        /* \"#utility.yul\":9778:10174   */\n      iszero\n      tag_270\n      jumpi\n        /* \"#utility.yul\":9874:9883   */\n      dup5\n        /* \"#utility.yul\":9868:9872   */\n      dup5\n        /* \"#utility.yul\":9864:9884   */\n      sub\n        /* \"#utility.yul\":9859:9862   */\n      dup10\n        /* \"#utility.yul\":9852:9885   */\n      mstore\n        /* \"#utility.yul\":9925:9931   */\n      dup2\n        /* \"#utility.yul\":9919:9932   */\n      mload\n        /* \"#utility.yul\":9953:10037   */\n      tag_271\n        /* \"#utility.yul\":10032:10036   */\n      dup6\n        /* \"#utility.yul\":10017:10030   */\n      dup3\n        /* \"#utility.yul\":9953:10037   */\n      tag_132\n      jump\t// in\n    tag_271:\n        /* \"#utility.yul\":9945:10037   */\n      swap5\n      pop\n        /* \"#utility.yul\":10060:10130   */\n      tag_272\n        /* \"#utility.yul\":10123:10129   */\n      dup4\n        /* \"#utility.yul\":10060:10130   */\n      tag_133\n      jump\t// in\n    tag_272:\n        /* \"#utility.yul\":10050:10130   */\n      swap3\n      pop\n        /* \"#utility.yul\":10159:10163   */\n      0x20\n        /* \"#utility.yul\":10154:10157   */\n      dup11\n        /* \"#utility.yul\":10150:10164   */\n      add\n        /* \"#utility.yul\":10143:10164   */\n      swap10\n      pop\n        /* \"#utility.yul\":9838:10174   */\n      pop\n        /* \"#utility.yul\":9825:9826   */\n      0x01\n        /* \"#utility.yul\":9822:9823   */\n      dup2\n        /* \"#utility.yul\":9818:9827   */\n      add\n        /* \"#utility.yul\":9813:9827   */\n      swap1\n      pop\n        /* \"#utility.yul\":9778:10174   */\n      jump(tag_268)\n    tag_270:\n        /* \"#utility.yul\":9782:9796   */\n      pop\n        /* \"#utility.yul\":10190:10194   */\n      dup3\n        /* \"#utility.yul\":10183:10194   */\n      swap8\n      pop\n        /* \"#utility.yul\":10210:10213   */\n      dup8\n        /* \"#utility.yul\":10203:10213   */\n      swap6\n      pop\n        /* \"#utility.yul\":9372:10219   */\n      pop\n      pop\n      pop\n      pop\n      pop\n        /* \"#utility.yul\":9228:10219   */\n      swap3\n      swap2\n      pop\n      pop\n      jump\t// out\n        /* \"#utility.yul\":10225:10638   */\n    tag_44:\n        /* \"#utility.yul\":10388:10392   */\n      0x00\n        /* \"#utility.yul\":10426:10428   */\n      0x20\n        /* \"#utility.yul\":10415:10424   */\n      dup3\n        /* \"#utility.yul\":10411:10429   */\n      add\n        /* \"#utility.yul\":10403:10429   */\n      swap1\n      pop\n        /* \"#utility.yul\":10475:10484   */\n      dup2\n        /* \"#utility.yul\":10469:10473   */\n      dup2\n        /* \"#utility.yul\":10465:10485   */\n      sub\n        /* \"#utility.yul\":10461:10462   */\n      0x00\n        /* \"#utility.yul\":10450:10459   */\n      dup4\n        /* \"#utility.yul\":10446:10463   */\n      add\n        /* \"#utility.yul\":10439:10486   */\n      mstore\n        /* \"#utility.yul\":10503:10631   */\n      tag_274\n        /* \"#utility.yul\":10626:10630   */\n      dup2\n        /* \"#utility.yul\":10617:10623   */\n      dup5\n        /* \"#utility.yul\":10503:10631   */\n      tag_134\n      jump\t// in\n    tag_274:\n        /* \"#utility.yul\":10495:10631   */\n      swap1\n      pop\n        /* \"#utility.yul\":10225:10638   */\n      swap3\n      swap2\n      pop\n      pop\n      jump\t// out\n        /* \"#utility.yul\":10644:10792   */\n    tag_135:\n        /* \"#utility.yul\":10746:10757   */\n      0x00\n        /* \"#utility.yul\":10783:10786   */\n      dup2\n        /* \"#utility.yul\":10768:10786   */\n      swap1\n      pop\n        /* \"#utility.yul\":10644:10792   */\n      swap3\n      swap2\n      pop\n      pop\n      jump\t// out\n        /* \"#utility.yul\":10798:11188   */\n    tag_136:\n        /* \"#utility.yul\":10904:10907   */\n      0x00\n        /* \"#utility.yul\":10932:10971   */\n      tag_277\n        /* \"#utility.yul\":10965:10970   */\n      dup3\n        /* \"#utility.yul\":10932:10971   */\n      tag_120\n      jump\t// in\n    tag_277:\n        /* \"#utility.yul\":10987:11076   */\n      tag_278\n        /* \"#utility.yul\":11069:11075   */\n      dup2\n        /* \"#utility.yul\":11064:11067   */\n      dup6\n        /* \"#utility.yul\":10987:11076   */\n      tag_135\n      jump\t// in\n    tag_278:\n        /* \"#utility.yul\":10980:11076   */\n      swap4\n      pop\n        /* \"#utility.yul\":11085:11150   */\n      tag_279\n        /* \"#utility.yul\":11143:11149   */\n      dup2\n        /* \"#utility.yul\":11138:11141   */\n      dup6\n        /* \"#utility.yul\":11131:11135   */\n      0x20\n        /* \"#utility.yul\":11124:11129   */\n      dup7\n        /* \"#utility.yul\":11120:11136   */\n      add\n        /* \"#utility.yul\":11085:11150   */\n      tag_122\n      jump\t// in\n    tag_279:\n        /* \"#utility.yul\":11175:11181   */\n      dup1\n        /* \"#utility.yul\":11170:11173   */\n      dup5\n        /* \"#utility.yul\":11166:11182   */\n      add\n        /* \"#utility.yul\":11159:11182   */\n      swap2\n      pop\n        /* \"#utility.yul\":10908:11188   */\n      pop\n        /* \"#utility.yul\":10798:11188   */\n      swap3\n      swap2\n      pop\n      pop\n      jump\t// out\n        /* \"#utility.yul\":11194:11469   */\n    tag_51:\n        /* \"#utility.yul\":11326:11329   */\n      0x00\n        /* \"#utility.yul\":11348:11443   */\n      tag_281\n        /* \"#utility.yul\":11439:11442   */\n      dup3\n        /* \"#utility.yul\":11430:11436   */\n      dup5\n        /* \"#utility.yul\":11348:11443   */\n      tag_136\n      jump\t// in\n    tag_281:\n        /* \"#utility.yul\":11341:11443   */\n      swap2\n      pop\n        /* \"#utility.yul\":11460:11463   */\n      dup2\n        /* \"#utility.yul\":11453:11463   */\n      swap1\n      pop\n        /* \"#utility.yul\":11194:11469   */\n      swap3\n      swap2\n      pop\n      pop\n      jump\t// out\n        /* \"#utility.yul\":11475:11655   */\n    tag_137:\n        /* \"#utility.yul\":11523:11600   */\n      0x4e487b7100000000000000000000000000000000000000000000000000000000\n        /* \"#utility.yul\":11520:11521   */\n      0x00\n        /* \"#utility.yul\":11513:11601   */\n      mstore\n        /* \"#utility.yul\":11620:11624   */\n      0x22\n        /* \"#utility.yul\":11617:11618   */\n      0x04\n        /* \"#utility.yul\":11610:11625   */\n      mstore\n        /* \"#utility.yul\":11644:11648   */\n      0x24\n        /* \"#utility.yul\":11641:11642   */\n      0x00\n        /* \"#utility.yul\":11634:11649   */\n      revert\n        /* \"#utility.yul\":11661:11981   */\n    tag_55:\n        /* \"#utility.yul\":11705:11711   */\n      0x00\n        /* \"#utility.yul\":11742:11743   */\n      0x02\n        /* \"#utility.yul\":11736:11740   */\n      dup3\n        /* \"#utility.yul\":11732:11744   */\n      div\n        /* \"#utility.yul\":11722:11744   */\n      swap1\n      pop\n        /* \"#utility.yul\":11789:11790   */\n      0x01\n        /* \"#utility.yul\":11783:11787   */\n      dup3\n        /* \"#utility.yul\":11779:11791   */\n      and\n        /* \"#utility.yul\":11810:11828   */\n      dup1\n        /* \"#utility.yul\":11800:11881   */\n      tag_284\n      jumpi\n        /* \"#utility.yul\":11866:11870   */\n      0x7f\n        /* \"#utility.yul\":11858:11864   */\n      dup3\n        /* \"#utility.yul\":11854:11871   */\n      and\n        /* \"#utility.yul\":11844:11871   */\n      swap2\n      pop\n        /* \"#utility.yul\":11800:11881   */\n    tag_284:\n        /* \"#utility.yul\":11928:11930   */\n      0x20\n        /* \"#utility.yul\":11920:11926   */\n      dup3\n        /* \"#utility.yul\":11917:11931   */\n      lt\n        /* \"#utility.yul\":11897:11915   */\n      dup2\n        /* \"#utility.yul\":11894:11932   */\n      sub\n        /* \"#utility.yul\":11891:11975   */\n      tag_285\n      jumpi\n        /* \"#utility.yul\":11947:11965   */\n      tag_286\n      tag_137\n      jump\t// in\n    tag_286:\n        /* \"#utility.yul\":11891:11975   */\n    tag_285:\n        /* \"#utility.yul\":11712:11981   */\n      pop\n        /* \"#utility.yul\":11661:11981   */\n      swap2\n      swap1\n      pop\n      jump\t// out\n        /* \"#utility.yul\":11987:12150   */\n    tag_138:\n        /* \"#utility.yul\":12127:12142   */\n      0x416c726561647920766f74656400000000000000000000000000000000000000\n        /* \"#utility.yul\":12123:12124   */\n      0x00\n        /* \"#utility.yul\":12115:12121   */\n      dup3\n        /* \"#utility.yul\":12111:12125   */\n      add\n        /* \"#utility.yul\":12104:12143   */\n      mstore\n        /* \"#utility.yul\":11987:12150   */\n      pop\n      jump\t// out\n        /* \"#utility.yul\":12156:12522   */\n    tag_139:\n        /* \"#utility.yul\":12298:12301   */\n      0x00\n        /* \"#utility.yul\":12319:12386   */\n      tag_289\n        /* \"#utility.yul\":12383:12385   */\n      0x0d\n        /* \"#utility.yul\":12378:12381   */\n      dup4\n        /* \"#utility.yul\":12319:12386   */\n      tag_121\n      jump\t// in\n    tag_289:\n        /* \"#utility.yul\":12312:12386   */\n      swap2\n      pop\n        /* \"#utility.yul\":12395:12488   */\n      tag_290\n        /* \"#utility.yul\":12484:12487   */\n      dup3\n        /* \"#utility.yul\":12395:12488   */\n      tag_138\n      jump\t// in\n    tag_290:\n        /* \"#utility.yul\":12513:12515   */\n      0x20\n        /* \"#utility.yul\":12508:12511   */\n      dup3\n        /* \"#utility.yul\":12504:12516   */\n      add\n        /* \"#utility.yul\":12497:12516   */\n      swap1\n      pop\n        /* \"#utility.yul\":12156:12522   */\n      swap2\n      swap1\n      pop\n      jump\t// out\n        /* \"#utility.yul\":12528:12947   */\n    tag_63:\n        /* \"#utility.yul\":12694:12698   */\n      0x00\n        /* \"#utility.yul\":12732:12734   */\n      0x20\n        /* \"#utility.yul\":12721:12730   */\n      dup3\n        /* \"#utility.yul\":12717:12735   */\n      add\n        /* \"#utility.yul\":12709:12735   */\n      swap1\n      pop\n        /* \"#utility.yul\":12781:12790   */\n      dup2\n        /* \"#utility.yul\":12775:12779   */\n      dup2\n        /* \"#utility.yul\":12771:12791   */\n      sub\n        /* \"#utility.yul\":12767:12768   */\n      0x00\n        /* \"#utility.yul\":12756:12765   */\n      dup4\n        /* \"#utility.yul\":12752:12769   */\n      add\n        /* \"#utility.yul\":12745:12792   */\n      mstore\n        /* \"#utility.yul\":12809:12940   */\n      tag_292\n        /* \"#utility.yul\":12935:12939   */\n      dup2\n        /* \"#utility.yul\":12809:12940   */\n      tag_139\n      jump\t// in\n    tag_292:\n        /* \"#utility.yul\":12801:12940   */\n      swap1\n      pop\n        /* \"#utility.yul\":12528:12947   */\n      swap2\n      swap1\n      pop\n      jump\t// out\n        /* \"#utility.yul\":12953:13120   */\n    tag_140:\n        /* \"#utility.yul\":13093:13112   */\n      0x496e76616c69642043616e646964617465000000000000000000000000000000\n        /* \"#utility.yul\":13089:13090   */\n      0x00\n        /* \"#utility.yul\":13081:13087   */\n      dup3\n        /* \"#utility.yul\":13077:13091   */\n      add\n        /* \"#utility.yul\":13070:13113   */\n      mstore\n        /* \"#utility.yul\":12953:13120   */\n      pop\n      jump\t// out\n        /* \"#utility.yul\":13126:13492   */\n    tag_141:\n        /* \"#utility.yul\":13268:13271   */\n      0x00\n        /* \"#utility.yul\":13289:13356   */\n      tag_295\n        /* \"#utility.yul\":13353:13355   */\n      0x11\n        /* \"#utility.yul\":13348:13351   */\n      dup4\n        /* \"#utility.yul\":13289:13356   */\n      tag_121\n      jump\t// in\n    tag_295:\n        /* \"#utility.yul\":13282:13356   */\n      swap2\n      pop\n        /* \"#utility.yul\":13365:13458   */\n      tag_296\n        /* \"#utility.yul\":13454:13457   */\n      dup3\n        /* \"#utility.yul\":13365:13458   */\n      tag_140\n      jump\t// in\n    tag_296:\n        /* \"#utility.yul\":13483:13485   */\n      0x20\n        /* \"#utility.yul\":13478:13481   */\n      dup3\n        /* \"#utility.yul\":13474:13486   */\n      add\n        /* \"#utility.yul\":13467:13486   */\n      swap1\n      pop\n        /* \"#utility.yul\":13126:13492   */\n      swap2\n      swap1\n      pop\n      jump\t// out\n        /* \"#utility.yul\":13498:13917   */\n    tag_67:\n        /* \"#utility.yul\":13664:13668   */\n      0x00\n        /* \"#utility.yul\":13702:13704   */\n      0x20\n        /* \"#utility.yul\":13691:13700   */\n      dup3\n        /* \"#utility.yul\":13687:13705   */\n      add\n        /* \"#utility.yul\":13679:13705   */\n      swap1\n      pop\n        /* \"#utility.yul\":13751:13760   */\n      dup2\n        /* \"#utility.yul\":13745:13749   */\n      dup2\n        /* \"#utility.yul\":13741:13761   */\n      sub\n        /* \"#utility.yul\":13737:13738   */\n      0x00\n        /* \"#utility.yul\":13726:13735   */\n      dup4\n        /* \"#utility.yul\":13722:13739   */\n      add\n        /* \"#utility.yul\":13715:13762   */\n      mstore\n        /* \"#utility.yul\":13779:13910   */\n      tag_298\n        /* \"#utility.yul\":13905:13909   */\n      dup2\n        /* \"#utility.yul\":13779:13910   */\n      tag_141\n      jump\t// in\n    tag_298:\n        /* \"#utility.yul\":13771:13910   */\n      swap1\n      pop\n        /* \"#utility.yul\":13498:13917   */\n      swap2\n      swap1\n      pop\n      jump\t// out\n        /* \"#utility.yul\":13947:14277   */\n    tag_142:\n        /* \"#utility.yul\":14063:14066   */\n      0x00\n        /* \"#utility.yul\":14084:14173   */\n      tag_300\n        /* \"#utility.yul\":14166:14172   */\n      dup4\n        /* \"#utility.yul\":14161:14164   */\n      dup6\n        /* \"#utility.yul\":14084:14173   */\n      tag_135\n      jump\t// in\n    tag_300:\n        /* \"#utility.yul\":14077:14173   */\n      swap4\n      pop\n        /* \"#utility.yul\":14183:14239   */\n      tag_301\n        /* \"#utility.yul\":14232:14238   */\n      dup4\n        /* \"#utility.yul\":14227:14230   */\n      dup6\n        /* \"#utility.yul\":14220:14225   */\n      dup5\n        /* \"#utility.yul\":14183:14239   */\n      tag_107\n      jump\t// in\n    tag_301:\n        /* \"#utility.yul\":14264:14270   */\n      dup3\n        /* \"#utility.yul\":14259:14262   */\n      dup5\n        /* \"#utility.yul\":14255:14271   */\n      add\n        /* \"#utility.yul\":14248:14271   */\n      swap1\n      pop\n        /* \"#utility.yul\":13947:14277   */\n      swap4\n      swap3\n      pop\n      pop\n      pop\n      jump\t// out\n        /* \"#utility.yul\":14283:14578   */\n    tag_69:\n        /* \"#utility.yul\":14425:14428   */\n      0x00\n        /* \"#utility.yul\":14447:14552   */\n      tag_303\n        /* \"#utility.yul\":14548:14551   */\n      dup3\n        /* \"#utility.yul\":14539:14545   */\n      dup5\n        /* \"#utility.yul\":14531:14537   */\n      dup7\n        /* \"#utility.yul\":14447:14552   */\n      tag_142\n      jump\t// in\n    tag_303:\n        /* \"#utility.yul\":14440:14552   */\n      swap2\n      pop\n        /* \"#utility.yul\":14569:14572   */\n      dup2\n        /* \"#utility.yul\":14562:14572   */\n      swap1\n      pop\n        /* \"#utility.yul\":14283:14578   */\n      swap4\n      swap3\n      pop\n      pop\n      pop\n      jump\t// out\n        /* \"#utility.yul\":14584:14764   */\n    tag_143:\n        /* \"#utility.yul\":14632:14709   */\n      0x4e487b7100000000000000000000000000000000000000000000000000000000\n        /* \"#utility.yul\":14629:14630   */\n      0x00\n        /* \"#utility.yul\":14622:14710   */\n      mstore\n        /* \"#utility.yul\":14729:14733   */\n      0x11\n        /* \"#utility.yul\":14726:14727   */\n      0x04\n        /* \"#utility.yul\":14719:14734   */\n      mstore\n        /* \"#utility.yul\":14753:14757   */\n      0x24\n        /* \"#utility.yul\":14750:14751   */\n      0x00\n        /* \"#utility.yul\":14743:14758   */\n      revert\n        /* \"#utility.yul\":14770:14961   */\n    tag_71:\n        /* \"#utility.yul\":14810:14813   */\n      0x00\n        /* \"#utility.yul\":14829:14849   */\n      tag_306\n        /* \"#utility.yul\":14847:14848   */\n      dup3\n        /* \"#utility.yul\":14829:14849   */\n      tag_110\n      jump\t// in\n    tag_306:\n        /* \"#utility.yul\":14824:14849   */\n      swap2\n      pop\n        /* \"#utility.yul\":14863:14883   */\n      tag_307\n        /* \"#utility.yul\":14881:14882   */\n      dup4\n        /* \"#utility.yul\":14863:14883   */\n      tag_110\n      jump\t// in\n    tag_307:\n        /* \"#utility.yul\":14858:14883   */\n      swap3\n      pop\n        /* \"#utility.yul\":14906:14907   */\n      dup3\n        /* \"#utility.yul\":14903:14904   */\n      dup3\n        /* \"#utility.yul\":14899:14908   */\n      add\n        /* \"#utility.yul\":14892:14908   */\n      swap1\n      pop\n        /* \"#utility.yul\":14927:14930   */\n      dup1\n        /* \"#utility.yul\":14924:14925   */\n      dup3\n        /* \"#utility.yul\":14921:14931   */\n      gt\n        /* \"#utility.yul\":14918:14954   */\n      iszero\n      tag_308\n      jumpi\n        /* \"#utility.yul\":14934:14952   */\n      tag_309\n      tag_143\n      jump\t// in\n    tag_309:\n        /* \"#utility.yul\":14918:14954   */\n    tag_308:\n        /* \"#utility.yul\":14770:14961   */\n      swap3\n      swap2\n      pop\n      pop\n      jump\t// out\n        /* \"#utility.yul\":14967:15147   */\n    tag_79:\n        /* \"#utility.yul\":15015:15092   */\n      0x4e487b7100000000000000000000000000000000000000000000000000000000\n        /* \"#utility.yul\":15012:15013   */\n      0x00\n        /* \"#utility.yul\":15005:15093   */\n      mstore\n        /* \"#utility.yul\":15112:15116   */\n      0x32\n        /* \"#utility.yul\":15109:15110   */\n      0x04\n        /* \"#utility.yul\":15102:15117   */\n      mstore\n        /* \"#utility.yul\":15136:15140   */\n      0x24\n        /* \"#utility.yul\":15133:15134   */\n      0x00\n        /* \"#utility.yul\":15126:15141   */\n      revert\n        /* \"#utility.yul\":15153:15294   */\n    tag_144:\n        /* \"#utility.yul\":15202:15206   */\n      0x00\n        /* \"#utility.yul\":15225:15228   */\n      dup2\n        /* \"#utility.yul\":15217:15228   */\n      swap1\n      pop\n        /* \"#utility.yul\":15248:15251   */\n      dup2\n        /* \"#utility.yul\":15245:15246   */\n      0x00\n        /* \"#utility.yul\":15238:15252   */\n      mstore\n        /* \"#utility.yul\":15282:15286   */\n      0x20\n        /* \"#utility.yul\":15279:15280   */\n      0x00\n        /* \"#utility.yul\":15269:15287   */\n      keccak256\n        /* \"#utility.yul\":15261:15287   */\n      swap1\n      pop\n        /* \"#utility.yul\":15153:15294   */\n      swap2\n      swap1\n      pop\n      jump\t// out\n        /* \"#utility.yul\":15324:16198   */\n    tag_145:\n        /* \"#utility.yul\":15427:15430   */\n      0x00\n        /* \"#utility.yul\":15464:15469   */\n      dup2\n        /* \"#utility.yul\":15458:15470   */\n      sload\n        /* \"#utility.yul\":15493:15529   */\n      tag_313\n        /* \"#utility.yul\":15519:15528   */\n      dup2\n        /* \"#utility.yul\":15493:15529   */\n      tag_55\n      jump\t// in\n    tag_313:\n        /* \"#utility.yul\":15545:15634   */\n      tag_314\n        /* \"#utility.yul\":15627:15633   */\n      dup2\n        /* \"#utility.yul\":15622:15625   */\n      dup7\n        /* \"#utility.yul\":15545:15634   */\n      tag_135\n      jump\t// in\n    tag_314:\n        /* \"#utility.yul\":15538:15634   */\n      swap5\n      pop\n        /* \"#utility.yul\":15665:15666   */\n      0x01\n        /* \"#utility.yul\":15654:15663   */\n      dup3\n        /* \"#utility.yul\":15650:15667   */\n      and\n        /* \"#utility.yul\":15681:15682   */\n      0x00\n        /* \"#utility.yul\":15676:15842   */\n      dup2\n      eq\n      tag_316\n      jumpi\n        /* \"#utility.yul\":15856:15857   */\n      0x01\n        /* \"#utility.yul\":15851:16192   */\n      dup2\n      eq\n      tag_317\n      jumpi\n        /* \"#utility.yul\":15643:16192   */\n      jump(tag_315)\n        /* \"#utility.yul\":15676:15842   */\n    tag_316:\n        /* \"#utility.yul\":15760:15764   */\n      0xff\n        /* \"#utility.yul\":15756:15765   */\n      not\n        /* \"#utility.yul\":15745:15754   */\n      dup4\n        /* \"#utility.yul\":15741:15766   */\n      and\n        /* \"#utility.yul\":15736:15739   */\n      dup7\n        /* \"#utility.yul\":15729:15767   */\n      mstore\n        /* \"#utility.yul\":15822:15828   */\n      dup2\n        /* \"#utility.yul\":15815:15829   */\n      iszero\n        /* \"#utility.yul\":15808:15830   */\n      iszero\n        /* \"#utility.yul\":15800:15806   */\n      dup3\n        /* \"#utility.yul\":15796:15831   */\n      mul\n        /* \"#utility.yul\":15791:15794   */\n      dup7\n        /* \"#utility.yul\":15787:15832   */\n      add\n        /* \"#utility.yul\":15780:15832   */\n      swap4\n      pop\n        /* \"#utility.yul\":15676:15842   */\n      jump(tag_315)\n        /* \"#utility.yul\":15851:16192   */\n    tag_317:\n        /* \"#utility.yul\":15918:15956   */\n      tag_318\n        /* \"#utility.yul\":15950:15955   */\n      dup6\n        /* \"#utility.yul\":15918:15956   */\n      tag_144\n      jump\t// in\n    tag_318:\n        /* \"#utility.yul\":15978:15979   */\n      0x00\n        /* \"#utility.yul\":15992:16146   */\n    tag_319:\n        /* \"#utility.yul\":16006:16012   */\n      dup4\n        /* \"#utility.yul\":16003:16004   */\n      dup2\n        /* \"#utility.yul\":16000:16013   */\n      lt\n        /* \"#utility.yul\":15992:16146   */\n      iszero\n      tag_321\n      jumpi\n        /* \"#utility.yul\":16080:16087   */\n      dup2\n        /* \"#utility.yul\":16074:16088   */\n      sload\n        /* \"#utility.yul\":16070:16071   */\n      dup2\n        /* \"#utility.yul\":16065:16068   */\n      dup10\n        /* \"#utility.yul\":16061:16072   */\n      add\n        /* \"#utility.yul\":16054:16089   */\n      mstore\n        /* \"#utility.yul\":16130:16131   */\n      0x01\n        /* \"#utility.yul\":16121:16128   */\n      dup3\n        /* \"#utility.yul\":16117:16132   */\n      add\n        /* \"#utility.yul\":16106:16132   */\n      swap2\n      pop\n        /* \"#utility.yul\":16028:16032   */\n      0x20\n        /* \"#utility.yul\":16025:16026   */\n      dup2\n        /* \"#utility.yul\":16021:16033   */\n      add\n        /* \"#utility.yul\":16016:16033   */\n      swap1\n      pop\n        /* \"#utility.yul\":15992:16146   */\n      jump(tag_319)\n    tag_321:\n        /* \"#utility.yul\":16175:16181   */\n      dup4\n        /* \"#utility.yul\":16170:16173   */\n      dup9\n        /* \"#utility.yul\":16166:16182   */\n      add\n        /* \"#utility.yul\":16159:16182   */\n      swap6\n      pop\n        /* \"#utility.yul\":15858:16192   */\n      pop\n      pop\n        /* \"#utility.yul\":15643:16192   */\n    tag_315:\n      pop\n        /* \"#utility.yul\":15431:16198   */\n      pop\n      pop\n        /* \"#utility.yul\":15324:16198   */\n      swap3\n      swap2\n      pop\n      pop\n      jump\t// out\n        /* \"#utility.yul\":16204:16473   */\n    tag_82:\n        /* \"#utility.yul\":16333:16336   */\n      0x00\n        /* \"#utility.yul\":16355:16447   */\n      tag_323\n        /* \"#utility.yul\":16443:16446   */\n      dup3\n        /* \"#utility.yul\":16434:16440   */\n      dup5\n        /* \"#utility.yul\":16355:16447   */\n      tag_145\n      jump\t// in\n    tag_323:\n        /* \"#utility.yul\":16348:16447   */\n      swap2\n      pop\n        /* \"#utility.yul\":16464:16467   */\n      dup2\n        /* \"#utility.yul\":16457:16467   */\n      swap1\n      pop\n        /* \"#utility.yul\":16204:16473   */\n      swap3\n      swap2\n      pop\n      pop\n      jump\t// out\n        /* \"#utility.yul\":16479:16572   */\n    tag_146:\n        /* \"#utility.yul\":16516:16522   */\n      0x00\n        /* \"#utility.yul\":16563:16565   */\n      0x20\n        /* \"#utility.yul\":16558:16560   */\n      0x1f\n        /* \"#utility.yul\":16551:16556   */\n      dup4\n        /* \"#utility.yul\":16547:16561   */\n      add\n        /* \"#utility.yul\":16543:16566   */\n      div\n        /* \"#utility.yul\":16533:16566   */\n      swap1\n      pop\n        /* \"#utility.yul\":16479:16572   */\n      swap2\n      swap1\n      pop\n      jump\t// out\n        /* \"#utility.yul\":16578:16685   */\n    tag_147:\n        /* \"#utility.yul\":16622:16630   */\n      0x00\n        /* \"#utility.yul\":16672:16677   */\n      dup3\n        /* \"#utility.yul\":16666:16670   */\n      dup3\n        /* \"#utility.yul\":16662:16678   */\n      shl\n        /* \"#utility.yul\":16641:16678   */\n      swap1\n      pop\n        /* \"#utility.yul\":16578:16685   */\n      swap3\n      swap2\n      pop\n      pop\n      jump\t// out\n        /* \"#utility.yul\":16691:17084   */\n    tag_148:\n        /* \"#utility.yul\":16760:16766   */\n      0x00\n        /* \"#utility.yul\":16810:16811   */\n      0x08\n        /* \"#utility.yul\":16798:16808   */\n      dup4\n        /* \"#utility.yul\":16794:16812   */\n      mul\n        /* \"#utility.yul\":16833:16930   */\n      tag_327\n        /* \"#utility.yul\":16863:16929   */\n      0xffffffffffffffffffffffffffffffffffffffffffffffffffffffffffffffff\n        /* \"#utility.yul\":16852:16861   */\n      dup3\n        /* \"#utility.yul\":16833:16930   */\n      tag_147\n      jump\t// in\n    tag_327:\n        /* \"#utility.yul\":16951:16990   */\n      tag_328\n        /* \"#utility.yul\":16981:16989   */\n      dup7\n        /* \"#utility.yul\":16970:16979   */\n      dup4\n        /* \"#utility.yul\":16951:16990   */\n      tag_147\n      jump\t// in\n    tag_328:\n        /* \"#utility.yul\":16939:16990   */\n      swap6\n      pop\n        /* \"#utility.yul\":17023:17027   */\n      dup1\n        /* \"#utility.yul\":17019:17028   */\n      not\n        /* \"#utility.yul\":17012:17017   */\n      dup5\n        /* \"#utility.yul\":17008:17029   */\n      and\n        /* \"#utility.yul\":16999:17029   */\n      swap4\n      pop\n        /* \"#utility.yul\":17072:17076   */\n      dup1\n        /* \"#utility.yul\":17062:17070   */\n      dup7\n        /* \"#utility.yul\":17058:17077   */\n      and\n        /* \"#utility.yul\":17051:17056   */\n      dup5\n        /* \"#utility.yul\":17048:17078   */\n      or\n        /* \"#utility.yul\":17038:17078   */\n      swap3\n      pop\n        /* \"#utility.yul\":16767:17084   */\n      pop\n      pop\n        /* \"#utility.yul\":16691:17084   */\n      swap4\n      swap3\n      pop\n      pop\n      pop\n      jump\t// out\n        /* \"#utility.yul\":17090:17150   */\n    tag_149:\n        /* \"#utility.yul\":17118:17121   */\n      0x00\n        /* \"#utility.yul\":17139:17144   */\n      dup2\n        /* \"#utility.yul\":17132:17144   */\n      swap1\n      pop\n        /* \"#utility.yul\":17090:17150   */\n      swap2\n      swap1\n      pop\n      jump\t// out\n        /* \"#utility.yul\":17156:17298   */\n    tag_150:\n        /* \"#utility.yul\":17206:17215   */\n      0x00\n        /* \"#utility.yul\":17239:17292   */\n      tag_331\n        /* \"#utility.yul\":17257:17291   */\n      tag_332\n        /* \"#utility.yul\":17266:17290   */\n      tag_333\n        /* \"#utility.yul\":17284:17289   */\n      dup5\n        /* \"#utility.yul\":17266:17290   */\n      tag_110\n      jump\t// in\n    tag_333:\n        /* \"#utility.yul\":17257:17291   */\n      tag_149\n      jump\t// in\n    tag_332:\n        /* \"#utility.yul\":17239:17292   */\n      tag_110\n      jump\t// in\n    tag_331:\n        /* \"#utility.yul\":17226:17292   */\n      swap1\n      pop\n        /* \"#utility.yul\":17156:17298   */\n      swap2\n      swap1\n      pop\n      jump\t// out\n        /* \"#utility.yul\":17304:17379   */\n    tag_151:\n        /* \"#utility.yul\":17347:17350   */\n      0x00\n        /* \"#utility.yul\":17368:17373   */\n      dup2\n        /* \"#utility.yul\":17361:17373   */\n      swap1\n      pop\n        /* \"#utility.yul\":17304:17379   */\n      swap2\n      swap1\n      pop\n      jump\t// out\n        /* \"#utility.yul\":17385:17654   */\n    tag_152:\n        /* \"#utility.yul\":17495:17534   */\n      tag_336\n        /* \"#utility.yul\":17526:17533   */\n      dup4\n        /* \"#utility.yul\":17495:17534   */\n      tag_150\n      jump\t// in\n    tag_336:\n        /* \"#utility.yul\":17556:17647   */\n      tag_337\n        /* \"#utility.yul\":17605:17646   */\n      tag_338\n        /* \"#utility.yul\":17629:17645   */\n      dup3\n        /* \"#utility.yul\":17605:17646   */\n      tag_151\n      jump\t// in\n    tag_338:\n        /* \"#utility.yul\":17597:17603   */\n      dup5\n        /* \"#utility.yul\":17590:17594   */\n      dup5\n        /* \"#utility.yul\":17584:17595   */\n      sload\n        /* \"#utility.yul\":17556:17647   */\n      tag_148\n      jump\t// in\n    tag_337:\n        /* \"#utility.yul\":17550:17554   */\n      dup3\n        /* \"#utility.yul\":17543:17648   */\n      sstore\n        /* \"#utility.yul\":17461:17654   */\n      pop\n        /* \"#utility.yul\":17385:17654   */\n      pop\n      pop\n      pop\n      jump\t// out\n        /* \"#utility.yul\":17660:17733   */\n    tag_153:\n        /* \"#utility.yul\":17705:17708   */\n      0x00\n        /* \"#utility.yul\":17726:17727   */\n      0x00\n        /* \"#utility.yul\":17719:17727   */\n      swap1\n      pop\n        /* \"#utility.yul\":17660:17733   */\n      swap1\n      jump\t// out\n        /* \"#utility.yul\":17739:17928   */\n    tag_154:\n        /* \"#utility.yul\":17816:17848   */\n      tag_341\n      tag_153\n      jump\t// in\n    tag_341:\n        /* \"#utility.yul\":17857:17922   */\n      tag_342\n        /* \"#utility.yul\":17915:17921   */\n      dup2\n        /* \"#utility.yul\":17907:17913   */\n      dup5\n        /* \"#utility.yul\":17901:17905   */\n      dup5\n        /* \"#utility.yul\":17857:17922   */\n      tag_152\n      jump\t// in\n    tag_342:\n        /* \"#utility.yul\":17792:17928   */\n      pop\n        /* \"#utility.yul\":17739:17928   */\n      pop\n      pop\n      jump\t// out\n        /* \"#utility.yul\":17934:18120   */\n    tag_155:\n        /* \"#utility.yul\":17994:18114   */\n    tag_344:\n        /* \"#utility.yul\":18011:18014   */\n      dup2\n        /* \"#utility.yul\":18004:18009   */\n      dup2\n        /* \"#utility.yul\":18001:18015   */\n      lt\n        /* \"#utility.yul\":17994:18114   */\n      iszero\n      tag_346\n      jumpi\n        /* \"#utility.yul\":18065:18104   */\n      tag_347\n        /* \"#utility.yul\":18102:18103   */\n      0x00\n        /* \"#utility.yul\":18095:18100   */\n      dup3\n        /* \"#utility.yul\":18065:18104   */\n      tag_154\n      jump\t// in\n    tag_347:\n        /* \"#utility.yul\":18038:18039   */\n      0x01\n        /* \"#utility.yul\":18031:18036   */\n      dup2\n        /* \"#utility.yul\":18027:18040   */\n      add\n        /* \"#utility.yul\":18018:18040   */\n      swap1\n      pop\n        /* \"#utility.yul\":17994:18114   */\n      jump(tag_344)\n    tag_346:\n        /* \"#utility.yul\":17934:18120   */\n      pop\n      pop\n      jump\t// out\n        /* \"#utility.yul\":18126:18669   */\n    tag_156:\n        /* \"#utility.yul\":18227:18229   */\n      0x1f\n        /* \"#utility.yul\":18222:18225   */\n      dup3\n        /* \"#utility.yul\":18219:18230   */\n      gt\n        /* \"#utility.yul\":18216:18662   */\n      iszero\n      tag_349\n      jumpi\n        /* \"#utility.yul\":18261:18299   */\n      tag_350\n        /* \"#utility.yul\":18293:18298   */\n      dup2\n        /* \"#utility.yul\":18261:18299   */\n      tag_144\n      jump\t// in\n    tag_350:\n        /* \"#utility.yul\":18345:18374   */\n      tag_351\n        /* \"#utility.yul\":18363:18373   */\n      dup5\n        /* \"#utility.yul\":18345:18374   */\n      tag_146\n      jump\t// in\n    tag_351:\n        /* \"#utility.yul\":18335:18343   */\n      dup2\n        /* \"#utility.yul\":18331:18375   */\n      add\n        /* \"#utility.yul\":18528:18530   */\n      0x20\n        /* \"#utility.yul\":18516:18526   */\n      dup6\n        /* \"#utility.yul\":18513:18531   */\n      lt\n        /* \"#utility.yul\":18510:18559   */\n      iszero\n      tag_352\n      jumpi\n        /* \"#utility.yul\":18549:18557   */\n      dup2\n        /* \"#utility.yul\":18534:18557   */\n      swap1\n      pop\n        /* \"#utility.yul\":18510:18559   */\n    tag_352:\n        /* \"#utility.yul\":18572:18652   */\n      tag_353\n        /* \"#utility.yul\":18628:18650   */\n      tag_354\n        /* \"#utility.yul\":18646:18649   */\n      dup6\n        /* \"#utility.yul\":18628:18650   */\n      tag_146\n      jump\t// in\n    tag_354:\n        /* \"#utility.yul\":18618:18626   */\n      dup4\n        /* \"#utility.yul\":18614:18651   */\n      add\n        /* \"#utility.yul\":18601:18612   */\n      dup3\n        /* \"#utility.yul\":18572:18652   */\n      tag_155\n      jump\t// in\n    tag_353:\n        /* \"#utility.yul\":18231:18662   */\n      pop\n      pop\n        /* \"#utility.yul\":18216:18662   */\n    tag_349:\n        /* \"#utility.yul\":18126:18669   */\n      pop\n      pop\n      pop\n      jump\t// out\n        /* \"#utility.yul\":18675:18792   */\n    tag_157:\n        /* \"#utility.yul\":18729:18737   */\n      0x00\n        /* \"#utility.yul\":18779:18784   */\n      dup3\n        /* \"#utility.yul\":18773:18777   */\n      dup3\n        /* \"#utility.yul\":18769:18785   */\n      shr\n        /* \"#utility.yul\":18748:18785   */\n      swap1\n      pop\n        /* \"#utility.yul\":18675:18792   */\n      swap3\n      swap2\n      pop\n      pop\n      jump\t// out\n        /* \"#utility.yul\":18798:18967   */\n    tag_158:\n        /* \"#utility.yul\":18842:18848   */\n      0x00\n        /* \"#utility.yul\":18875:18926   */\n      tag_357\n        /* \"#utility.yul\":18923:18924   */\n      0x00\n        /* \"#utility.yul\":18919:18925   */\n      not\n        /* \"#utility.yul\":18911:18916   */\n      dup5\n        /* \"#utility.yul\":18908:18909   */\n      0x08\n        /* \"#utility.yul\":18904:18917   */\n      mul\n        /* \"#utility.yul\":18875:18926   */\n      tag_157\n      jump\t// in\n    tag_357:\n        /* \"#utility.yul\":18871:18927   */\n      not\n        /* \"#utility.yul\":18956:18960   */\n      dup1\n        /* \"#utility.yul\":18950:18954   */\n      dup4\n        /* \"#utility.yul\":18946:18961   */\n      and\n        /* \"#utility.yul\":18936:18961   */\n      swap2\n      pop\n        /* \"#utility.yul\":18849:18967   */\n      pop\n        /* \"#utility.yul\":18798:18967   */\n      swap3\n      swap2\n      pop\n      pop\n      jump\t// out\n        /* \"#utility.yul\":18972:19267   */\n    tag_159:\n        /* \"#utility.yul\":19048:19052   */\n      0x00\n        /* \"#utility.yul\":19194:19223   */\n      tag_359\n        /* \"#utility.yul\":19219:19222   */\n      dup4\n        /* \"#utility.yul\":19213:19217   */\n      dup4\n        /* \"#utility.yul\":19194:19223   */\n      tag_158\n      jump\t// in\n    tag_359:\n        /* \"#utility.yul\":19186:19223   */\n      swap2\n      pop\n        /* \"#utility.yul\":19256:19259   */\n      dup3\n        /* \"#utility.yul\":19253:19254   */\n      0x02\n        /* \"#utility.yul\":19249:19260   */\n      mul\n        /* \"#utility.yul\":19243:19247   */\n      dup3\n        /* \"#utility.yul\":19240:19261   */\n      or\n        /* \"#utility.yul\":19232:19261   */\n      swap1\n      pop\n        /* \"#utility.yul\":18972:19267   */\n      swap3\n      swap2\n      pop\n      pop\n      jump\t// out\n        /* \"#utility.yul\":19272:20667   */\n    tag_87:\n        /* \"#utility.yul\":19389:19426   */\n      tag_361\n        /* \"#utility.yul\":19422:19425   */\n      dup3\n        /* \"#utility.yul\":19389:19426   */\n      tag_120\n      jump\t// in\n    tag_361:\n        /* \"#utility.yul\":19491:19509   */\n      0xffffffffffffffff\n        /* \"#utility.yul\":19483:19489   */\n      dup2\n        /* \"#utility.yul\":19480:19510   */\n      gt\n        /* \"#utility.yul\":19477:19533   */\n      iszero\n      tag_362\n      jumpi\n        /* \"#utility.yul\":19513:19531   */\n      tag_363\n      tag_103\n      jump\t// in\n    tag_363:\n        /* \"#utility.yul\":19477:19533   */\n    tag_362:\n        /* \"#utility.yul\":19557:19595   */\n      tag_364\n        /* \"#utility.yul\":19589:19593   */\n      dup3\n        /* \"#utility.yul\":19583:19594   */\n      sload\n        /* \"#utility.yul\":19557:19595   */\n      tag_55\n      jump\t// in\n    tag_364:\n        /* \"#utility.yul\":19642:19709   */\n      tag_365\n        /* \"#utility.yul\":19702:19708   */\n      dup3\n        /* \"#utility.yul\":19694:19700   */\n      dup3\n        /* \"#utility.yul\":19688:19692   */\n      dup6\n        /* \"#utility.yul\":19642:19709   */\n      tag_156\n      jump\t// in\n    tag_365:\n        /* \"#utility.yul\":19736:19737   */\n      0x00\n        /* \"#utility.yul\":19760:19764   */\n      0x20\n        /* \"#utility.yul\":19747:19764   */\n      swap1\n      pop\n        /* \"#utility.yul\":19792:19794   */\n      0x1f\n        /* \"#utility.yul\":19784:19790   */\n      dup4\n        /* \"#utility.yul\":19781:19795   */\n      gt\n        /* \"#utility.yul\":19809:19810   */\n      0x01\n        /* \"#utility.yul\":19804:20422   */\n      dup2\n      eq\n      tag_367\n      jumpi\n        /* \"#utility.yul\":20466:20467   */\n      0x00\n        /* \"#utility.yul\":20483:20489   */\n      dup5\n        /* \"#utility.yul\":20480:20557   */\n      iszero\n      tag_368\n      jumpi\n        /* \"#utility.yul\":20532:20541   */\n      dup3\n        /* \"#utility.yul\":20527:20530   */\n      dup8\n        /* \"#utility.yul\":20523:20542   */\n      add\n        /* \"#utility.yul\":20517:20543   */\n      mload\n        /* \"#utility.yul\":20508:20543   */\n      swap1\n      pop\n        /* \"#utility.yul\":20480:20557   */\n    tag_368:\n        /* \"#utility.yul\":20583:20650   */\n      tag_369\n        /* \"#utility.yul\":20643:20649   */\n      dup6\n        /* \"#utility.yul\":20636:20641   */\n      dup3\n        /* \"#utility.yul\":20583:20650   */\n      tag_159\n      jump\t// in\n    tag_369:\n        /* \"#utility.yul\":20577:20581   */\n      dup7\n        /* \"#utility.yul\":20570:20651   */\n      sstore\n        /* \"#utility.yul\":20439:20661   */\n      pop\n        /* \"#utility.yul\":19774:20661   */\n      jump(tag_366)\n        /* \"#utility.yul\":19804:20422   */\n    tag_367:\n        /* \"#utility.yul\":19856:19860   */\n      0x1f\n        /* \"#utility.yul\":19852:19861   */\n      not\n        /* \"#utility.yul\":19844:19850   */\n      dup5\n        /* \"#utility.yul\":19840:19862   */\n      and\n        /* \"#utility.yul\":19890:19927   */\n      tag_370\n        /* \"#utility.yul\":19922:19926   */\n      dup7\n        /* \"#utility.yul\":19890:19927   */\n      tag_144\n      jump\t// in\n    tag_370:\n        /* \"#utility.yul\":19949:19950   */\n      0x00\n        /* \"#utility.yul\":19963:20171   */\n    tag_371:\n        /* \"#utility.yul\":19977:19984   */\n      dup3\n        /* \"#utility.yul\":19974:19975   */\n      dup2\n        /* \"#utility.yul\":19971:19985   */\n      lt\n        /* \"#utility.yul\":19963:20171   */\n      iszero\n      tag_373\n      jumpi\n        /* \"#utility.yul\":20056:20065   */\n      dup5\n        /* \"#utility.yul\":20051:20054   */\n      dup10\n        /* \"#utility.yul\":20047:20066   */\n      add\n        /* \"#utility.yul\":20041:20067   */\n      mload\n        /* \"#utility.yul\":20033:20039   */\n      dup3\n        /* \"#utility.yul\":20026:20068   */\n      sstore\n        /* \"#utility.yul\":20107:20108   */\n      0x01\n        /* \"#utility.yul\":20099:20105   */\n      dup3\n        /* \"#utility.yul\":20095:20109   */\n      add\n        /* \"#utility.yul\":20085:20109   */\n      swap2\n      pop\n        /* \"#utility.yul\":20154:20156   */\n      0x20\n        /* \"#utility.yul\":20143:20152   */\n      dup6\n        /* \"#utility.yul\":20139:20157   */\n      add\n        /* \"#utility.yul\":20126:20157   */\n      swap5\n      pop\n        /* \"#utility.yul\":20000:20004   */\n      0x20\n        /* \"#utility.yul\":19997:19998   */\n      dup2\n        /* \"#utility.yul\":19993:20005   */\n      add\n        /* \"#utility.yul\":19988:20005   */\n      swap1\n      pop\n        /* \"#utility.yul\":19963:20171   */\n      jump(tag_371)\n    tag_373:\n        /* \"#utility.yul\":20199:20205   */\n      dup7\n        /* \"#utility.yul\":20190:20197   */\n      dup4\n        /* \"#utility.yul\":20187:20206   */\n      lt\n        /* \"#utility.yul\":20184:20363   */\n      iszero\n      tag_374\n      jumpi\n        /* \"#utility.yul\":20257:20266   */\n      dup5\n        /* \"#utility.yul\":20252:20255   */\n      dup10\n        /* \"#utility.yul\":20248:20267   */\n      add\n        /* \"#utility.yul\":20242:20268   */\n      mload\n        /* \"#utility.yul\":20300:20348   */\n      tag_375\n        /* \"#utility.yul\":20342:20346   */\n      0x1f\n        /* \"#utility.yul\":20334:20340   */\n      dup10\n        /* \"#utility.yul\":20330:20347   */\n      and\n        /* \"#utility.yul\":20319:20328   */\n      dup3\n        /* \"#utility.yul\":20300:20348   */\n      tag_158\n      jump\t// in\n    tag_375:\n        /* \"#utility.yul\":20292:20298   */\n      dup4\n        /* \"#utility.yul\":20285:20349   */\n      sstore\n        /* \"#utility.yul\":20207:20363   */\n      pop\n        /* \"#utility.yul\":20184:20363   */\n    tag_374:\n        /* \"#utility.yul\":20409:20410   */\n      0x01\n        /* \"#utility.yul\":20405:20406   */\n      0x02\n        /* \"#utility.yul\":20397:20403   */\n      dup9\n        /* \"#utility.yul\":20393:20407   */\n      mul\n        /* \"#utility.yul\":20389:20411   */\n      add\n        /* \"#utility.yul\":20383:20387   */\n      dup9\n        /* \"#utility.yul\":20376:20412   */\n      sstore\n        /* \"#utility.yul\":19811:20422   */\n      pop\n      pop\n      pop\n        /* \"#utility.yul\":19774:20661   */\n    tag_366:\n      pop\n        /* \"#utility.yul\":19364:20667   */\n      pop\n      pop\n      pop\n        /* \"#utility.yul\":19272:20667   */\n      pop\n      pop\n      jump\t// out\n\n    auxdata: 0xa2646970667358221220443a05e1c256ea2ee46c46cbc2bcff2955986955087bfe3fbaa4c36d61619d1464736f6c634300081e0033\n}\n",
				"bytecode": {
					"linkReferences": {},
					"object": "6080604052348015600e575f5ffd5b506110d18061001c5f395ff3fe608060405234801561000f575f5ffd5b5060043610610086575f3560e01c806351b9887d1161005957806351b9887d146101365780638305abd91461016657806383e7f29114610182578063ba7f7552146101a057610086565b8063069953a71461008a5780632b499cab146100ba5780633477ee2e146100ea5780634f117fcc1461011a575b5f5ffd5b6100a4600480360381019061009f9190610780565b6101d0565b6040516100b191906107df565b60405180910390f35b6100d460048036038101906100cf9190610852565b6101f7565b6040516100e19190610897565b60405180910390f35b61010460048036038101906100ff91906108da565b610213565b6040516101119190610965565b60405180910390f35b610134600480360381019061012f91906109e2565b6102b9565b005b610150600480360381019061014b9190610780565b61045b565b60405161015d9190610897565b60405180910390f35b610180600480360381019061017b9190610780565b6104fd565b005b61018a610532565b6040516101979190610b30565b60405180910390f35b6101ba60048036038101906101b59190610780565b610606565b6040516101c791906107df565b60405180910390f35b5f6001826040516101e19190610b8a565b9081526020016040518091039020549050919050565b5f602052805f5260405f205f915054906101000a900460ff1681565b60028181548110610222575f80fd5b905f5260205f20015f91509050805461023a90610bcd565b80601f016020809104026020016040519081016040528092919081815260200182805461026690610bcd565b80156102b15780601f10610288576101008083540402835291602001916102b1565b820191905f5260205f20905b81548152906001019060200180831161029457829003601f168201915b505050505081565b5f5f3373ffffffffffffffffffffffffffffffffffffffff1673ffffffffffffffffffffffffffffffffffffffff1681526020019081526020015f205f9054906101000a900460ff1615610342576040517f08c379a000000000000000000000000000000000000000000000000000000000815260040161033990610c47565b60405180910390fd5b61038e82828080601f0160208091040260200160405190810160405280939291908181526020018383808284375f81840152601f19601f8201169050808301925050505050505061045b565b6103cd576040517f08c379a00000000000000000000000000000000000000000000000000000000081526004016103c490610caf565b60405180910390fd5b60015f5f3373ffffffffffffffffffffffffffffffffffffffff1673ffffffffffffffffffffffffffffffffffffffff1681526020019081526020015f205f6101000a81548160ff0219169083151502179055506001808383604051610434929190610cf1565b90815260200160405180910390205f8282546104509190610d36565b925050819055505050565b5f5f5f90505b6002805490508110156104f3578260405160200161047f9190610b8a565b60405160208183030381529060405280519060200120600282815481106104a9576104a8610d69565b5b905f5260205f20016040516020016104c19190610e28565b60405160208183030381529060405280519060200120036104e65760019150506104f8565b8080600101915050610461565b505f90505b919050565b600281908060018154018082558091505060019003905f5260205f20015f90919091909150908161052e9190610fcc565b5050565b60606002805480602002602001604051908101604052809291908181526020015f905b828210156105fd578382905f5260205f2001805461057290610bcd565b80601f016020809104026020016040519081016040528092919081815260200182805461059e90610bcd565b80156105e95780601f106105c0576101008083540402835291602001916105e9565b820191905f5260205f20905b8154815290600101906020018083116105cc57829003601f168201915b505050505081526020019060010190610555565b50505050905090565b6001818051602081018201805184825260208301602085012081835280955050505050505f915090505481565b5f604051905090565b5f5ffd5b5f5ffd5b5f5ffd5b5f5ffd5b5f601f19601f8301169050919050565b7f4e487b71000000000000000000000000000000000000000000000000000000005f52604160045260245ffd5b6106928261064c565b810181811067ffffffffffffffff821117156106b1576106b061065c565b5b80604052505050565b5f6106c3610633565b90506106cf8282610689565b919050565b5f67ffffffffffffffff8211156106ee576106ed61065c565b5b6106f78261064c565b9050602081019050919050565b828183375f83830152505050565b5f61072461071f846106d4565b6106ba565b9050828152602081018484840111156107405761073f610648565b5b61074b848285610704565b509392505050565b5f82601f83011261076757610766610644565b5b8135610777848260208601610712565b91505092915050565b5f602082840312156107955761079461063c565b5b5f82013567ffffffffffffffff8111156107b2576107b1610640565b5b6107be84828501610753565b91505092915050565b5f819050919050565b6107d9816107c7565b82525050565b5f6020820190506107f25f8301846107d0565b92915050565b5f73ffffffffffffffffffffffffffffffffffffffff82169050919050565b5f610821826107f8565b9050919050565b61083181610817565b811461083b575f5ffd5b50565b5f8135905061084c81610828565b92915050565b5f602082840312156108675761086661063c565b5b5f6108748482850161083e565b91505092915050565b5f8115159050919050565b6108918161087d565b82525050565b5f6020820190506108aa5f830184610888565b92915050565b6108b9816107c7565b81146108c3575f5ffd5b50565b5f813590506108d4816108b0565b92915050565b5f602082840312156108ef576108ee61063c565b5b5f6108fc848285016108c6565b91505092915050565b5f81519050919050565b5f82825260208201905092915050565b8281835e5f83830152505050565b5f61093782610905565b610941818561090f565b935061095181856020860161091f565b61095a8161064c565b840191505092915050565b5f6020820190508181035f83015261097d818461092d565b905092915050565b5f5ffd5b5f5ffd5b5f5f83601f8401126109a2576109a1610644565b5b8235905067ffffffffffffffff8111156109bf576109be610985565b5b6020830191508360018202830111156109db576109da610989565b5b9250929050565b5f5f602083850312156109f8576109f761063c565b5b5f83013567ffffffffffffffff811115610a1557610a14610640565b5b610a218582860161098d565b92509250509250929050565b5f81519050919050565b5f82825260208201905092915050565b5f819050602082019050919050565b5f82825260208201905092915050565b5f610a7082610905565b610a7a8185610a56565b9350610a8a81856020860161091f565b610a938161064c565b840191505092915050565b5f610aa98383610a66565b905092915050565b5f602082019050919050565b5f610ac782610a2d565b610ad18185610a37565b935083602082028501610ae385610a47565b805f5b85811015610b1e5784840389528151610aff8582610a9e565b9450610b0a83610ab1565b925060208a01995050600181019050610ae6565b50829750879550505050505092915050565b5f6020820190508181035f830152610b488184610abd565b905092915050565b5f81905092915050565b5f610b6482610905565b610b6e8185610b50565b9350610b7e81856020860161091f565b80840191505092915050565b5f610b958284610b5a565b915081905092915050565b7f4e487b71000000000000000000000000000000000000000000000000000000005f52602260045260245ffd5b5f6002820490506001821680610be457607f821691505b602082108103610bf757610bf6610ba0565b5b50919050565b7f416c726561647920766f746564000000000000000000000000000000000000005f82015250565b5f610c31600d8361090f565b9150610c3c82610bfd565b602082019050919050565b5f6020820190508181035f830152610c5e81610c25565b9050919050565b7f496e76616c69642043616e6469646174650000000000000000000000000000005f82015250565b5f610c9960118361090f565b9150610ca482610c65565b602082019050919050565b5f6020820190508181035f830152610cc681610c8d565b9050919050565b5f610cd88385610b50565b9350610ce5838584610704565b82840190509392505050565b5f610cfd828486610ccd565b91508190509392505050565b7f4e487b71000000000000000000000000000000000000000000000000000000005f52601160045260245ffd5b5f610d40826107c7565b9150610d4b836107c7565b9250828201905080821115610d6357610d62610d09565b5b92915050565b7f4e487b71000000000000000000000000000000000000000000000000000000005f52603260045260245ffd5b5f819050815f5260205f209050919050565b5f8154610db481610bcd565b610dbe8186610b50565b9450600182165f8114610dd85760018114610ded57610e1f565b60ff1983168652811515820286019350610e1f565b610df685610d96565b5f5b83811015610e1757815481890152600182019150602081019050610df8565b838801955050505b50505092915050565b5f610e338284610da8565b915081905092915050565b5f6020601f8301049050919050565b5f82821b905092915050565b5f60088302610e887fffffffffffffffffffffffffffffffffffffffffffffffffffffffffffffffff82610e4d565b610e928683610e4d565b95508019841693508086168417925050509392505050565b5f819050919050565b5f610ecd610ec8610ec3846107c7565b610eaa565b6107c7565b9050919050565b5f819050919050565b610ee683610eb3565b610efa610ef282610ed4565b848454610e59565b825550505050565b5f5f905090565b610f11610f02565b610f1c818484610edd565b505050565b5b81811015610f3f57610f345f82610f09565b600181019050610f22565b5050565b601f821115610f8457610f5581610d96565b610f5e84610e3e565b81016020851015610f6d578190505b610f81610f7985610e3e565b830182610f21565b50505b505050565b5f82821c905092915050565b5f610fa45f1984600802610f89565b1980831691505092915050565b5f610fbc8383610f95565b9150826002028217905092915050565b610fd582610905565b67ffffffffffffffff811115610fee57610fed61065c565b5b610ff88254610bcd565b611003828285610f43565b5f60209050601f831160018114611034575f8415611022578287015190505b61102c8582610fb1565b865550611093565b601f19841661104286610d96565b5f5b8281101561106957848901518255600182019150602085019450602081019050611044565b868310156110865784890151611082601f891682610f95565b8355505b6001600288020188555050505b50505050505056fea2646970667358221220443a05e1c256ea2ee46c46cbc2bcff2955986955087bfe3fbaa4c36d61619d1464736f6c634300081e0033",
					"opcodes": "PUSH1 0x80 PUSH1 0x40 MSTORE CALLVALUE DUP1 ISZERO PUSH1 0xE JUMPI PUSH0 PUSH0 REVERT JUMPDEST POP PUSH2 0x10D1 DUP1 PUSH2 0x1C PUSH0 CODECOPY PUSH0 RETURN INVALID PUSH1 0x80 PUSH1 0x40 MSTORE CALLVALUE DUP1 ISZERO PUSH2 0xF JUMPI PUSH0 PUSH0 REVERT JUMPDEST POP PUSH1 0x4 CALLDATASIZE LT PUSH2 0x86 JUMPI PUSH0 CALLDATALOAD PUSH1 0xE0 SHR DUP1 PUSH4 0x51B9887D GT PUSH2 0x59 JUMPI DUP1 PUSH4 0x51B9887D EQ PUSH2 0x136 JUMPI DUP1 PUSH4 0x8305ABD9 EQ PUSH2 0x166 JUMPI DUP1 PUSH4 0x83E7F291 EQ PUSH2 0x182 JUMPI DUP1 PUSH4 0xBA7F7552 EQ PUSH2 0x1A0 JUMPI PUSH2 0x86 JUMP JUMPDEST DUP1 PUSH4 0x69953A7 EQ PUSH2 0x8A JUMPI DUP1 PUSH4 0x2B499CAB EQ PUSH2 0xBA JUMPI DUP1 PUSH4 0x3477EE2E EQ PUSH2 0xEA JUMPI DUP1 PUSH4 0x4F117FCC EQ PUSH2 0x11A JUMPI JUMPDEST PUSH0 PUSH0 REVERT JUMPDEST PUSH2 0xA4 PUSH1 0x4 DUP1 CALLDATASIZE SUB DUP2 ADD SWAP1 PUSH2 0x9F SWAP2 SWAP1 PUSH2 0x780 JUMP JUMPDEST PUSH2 0x1D0 JUMP JUMPDEST PUSH1 0x40 MLOAD PUSH2 0xB1 SWAP2 SWAP1 PUSH2 0x7DF JUMP JUMPDEST PUSH1 0x40 MLOAD DUP1 SWAP2 SUB SWAP1 RETURN JUMPDEST PUSH2 0xD4 PUSH1 0x4 DUP1 CALLDATASIZE SUB DUP2 ADD SWAP1 PUSH2 0xCF SWAP2 SWAP1 PUSH2 0x852 JUMP JUMPDEST PUSH2 0x1F7 JUMP JUMPDEST PUSH1 0x40 MLOAD PUSH2 0xE1 SWAP2 SWAP1 PUSH2 0x897 JUMP JUMPDEST PUSH1 0x40 MLOAD DUP1 SWAP2 SUB SWAP1 RETURN JUMPDEST PUSH2 0x104 PUSH1 0x4 DUP1 CALLDATASIZE SUB DUP2 ADD SWAP1 PUSH2 0xFF SWAP2 SWAP1 PUSH2 0x8DA JUMP JUMPDEST PUSH2 0x213 JUMP JUMPDEST PUSH1 0x40 MLOAD PUSH2 0x111 SWAP2 SWAP1 PUSH2 0x965 JUMP JUMPDEST PUSH1 0x40 MLOAD DUP1 SWAP2 SUB SWAP1 RETURN JUMPDEST PUSH2 0x134 PUSH1 0x4 DUP1 CALLDATASIZE SUB DUP2 ADD SWAP1 PUSH2 0x12F SWAP2 SWAP1 PUSH2 0x9E2 JUMP JUMPDEST PUSH2 0x2B9 JUMP JUMPDEST STOP JUMPDEST PUSH2 0x150 PUSH1 0x4 DUP1 CALLDATASIZE SUB DUP2 ADD SWAP1 PUSH2 0x14B SWAP2 SWAP1 PUSH2 0x780 JUMP JUMPDEST PUSH2 0x45B JUMP JUMPDEST PUSH1 0x40 MLOAD PUSH2 0x15D SWAP2 SWAP1 PUSH2 0x897 JUMP JUMPDEST PUSH1 0x40 MLOAD DUP1 SWAP2 SUB SWAP1 RETURN JUMPDEST PUSH2 0x180 PUSH1 0x4 DUP1 CALLDATASIZE SUB DUP2 ADD SWAP1 PUSH2 0x17B SWAP2 SWAP1 PUSH2 0x780 JUMP JUMPDEST PUSH2 0x4FD JUMP JUMPDEST STOP JUMPDEST PUSH2 0x18A PUSH2 0x532 JUMP JUMPDEST PUSH1 0x40 MLOAD PUSH2 0x197 SWAP2 SWAP1 PUSH2 0xB30 JUMP JUMPDEST PUSH1 0x40 MLOAD DUP1 SWAP2 SUB SWAP1 RETURN JUMPDEST PUSH2 0x1BA PUSH1 0x4 DUP1 CALLDATASIZE SUB DUP2 ADD SWAP1 PUSH2 0x1B5 SWAP2 SWAP1 PUSH2 0x780 JUMP JUMPDEST PUSH2 0x606 JUMP JUMPDEST PUSH1 0x40 MLOAD PUSH2 0x1C7 SWAP2 SWAP1 PUSH2 0x7DF JUMP JUMPDEST PUSH1 0x40 MLOAD DUP1 SWAP2 SUB SWAP1 RETURN JUMPDEST PUSH0 PUSH1 0x1 DUP3 PUSH1 0x40 MLOAD PUSH2 0x1E1 SWAP2 SWAP1 PUSH2 0xB8A JUMP JUMPDEST SWAP1 DUP2 MSTORE PUSH1 0x20 ADD PUSH1 0x40 MLOAD DUP1 SWAP2 SUB SWAP1 KECCAK256 SLOAD SWAP1 POP SWAP2 SWAP1 POP JUMP JUMPDEST PUSH0 PUSH1 0x20 MSTORE DUP1 PUSH0 MSTORE PUSH1 0x40 PUSH0 KECCAK256 PUSH0 SWAP2 POP SLOAD SWAP1 PUSH2 0x100 EXP SWAP1 DIV PUSH1 0xFF AND DUP2 JUMP JUMPDEST PUSH1 0x2 DUP2 DUP2 SLOAD DUP2 LT PUSH2 0x222 JUMPI PUSH0 DUP1 REVERT JUMPDEST SWAP1 PUSH0 MSTORE PUSH1 0x20 PUSH0 KECCAK256 ADD PUSH0 SWAP2 POP SWAP1 POP DUP1 SLOAD PUSH2 0x23A SWAP1 PUSH2 0xBCD JUMP JUMPDEST DUP1 PUSH1 0x1F ADD PUSH1 0x20 DUP1 SWAP2 DIV MUL PUSH1 0x20 ADD PUSH1 0x40 MLOAD SWAP1 DUP2 ADD PUSH1 0x40 MSTORE DUP1 SWAP3 SWAP2 SWAP1 DUP2 DUP2 MSTORE PUSH1 0x20 ADD DUP3 DUP1 SLOAD PUSH2 0x266 SWAP1 PUSH2 0xBCD JUMP JUMPDEST DUP1 ISZERO PUSH2 0x2B1 JUMPI DUP1 PUSH1 0x1F LT PUSH2 0x288 JUMPI PUSH2 0x100 DUP1 DUP4 SLOAD DIV MUL DUP4 MSTORE SWAP2 PUSH1 0x20 ADD SWAP2 PUSH2 0x2B1 JUMP JUMPDEST DUP3 ADD SWAP2 SWAP1 PUSH0 MSTORE PUSH1 0x20 PUSH0 KECCAK256 SWAP1 JUMPDEST DUP2 SLOAD DUP2 MSTORE SWAP1 PUSH1 0x1 ADD SWAP1 PUSH1 0x20 ADD DUP1 DUP4 GT PUSH2 0x294 JUMPI DUP3 SWAP1 SUB PUSH1 0x1F AND DUP3 ADD SWAP2 JUMPDEST POP POP POP POP POP DUP2 JUMP JUMPDEST PUSH0 PUSH0 CALLER PUSH20 0xFFFFFFFFFFFFFFFFFFFFFFFFFFFFFFFFFFFFFFFF AND PUSH20 0xFFFFFFFFFFFFFFFFFFFFFFFFFFFFFFFFFFFFFFFF AND DUP2 MSTORE PUSH1 0x20 ADD SWAP1 DUP2 MSTORE PUSH1 0x20 ADD PUSH0 KECCAK256 PUSH0 SWAP1 SLOAD SWAP1 PUSH2 0x100 EXP SWAP1 DIV PUSH1 0xFF AND ISZERO PUSH2 0x342 JUMPI PUSH1 0x40 MLOAD PUSH32 0x8C379A000000000000000000000000000000000000000000000000000000000 DUP2 MSTORE PUSH1 0x4 ADD PUSH2 0x339 SWAP1 PUSH2 0xC47 JUMP JUMPDEST PUSH1 0x40 MLOAD DUP1 SWAP2 SUB SWAP1 REVERT JUMPDEST PUSH2 0x38E DUP3 DUP3 DUP1 DUP1 PUSH1 0x1F ADD PUSH1 0x20 DUP1 SWAP2 DIV MUL PUSH1 0x20 ADD PUSH1 0x40 MLOAD SWAP1 DUP2 ADD PUSH1 0x40 MSTORE DUP1 SWAP4 SWAP3 SWAP2 SWAP1 DUP2 DUP2 MSTORE PUSH1 0x20 ADD DUP4 DUP4 DUP1 DUP3 DUP5 CALLDATACOPY PUSH0 DUP2 DUP5 ADD MSTORE PUSH1 0x1F NOT PUSH1 0x1F DUP3 ADD AND SWAP1 POP DUP1 DUP4 ADD SWAP3 POP POP POP POP POP POP POP PUSH2 0x45B JUMP JUMPDEST PUSH2 0x3CD JUMPI PUSH1 0x40 MLOAD PUSH32 0x8C379A000000000000000000000000000000000000000000000000000000000 DUP2 MSTORE PUSH1 0x4 ADD PUSH2 0x3C4 SWAP1 PUSH2 0xCAF JUMP JUMPDEST PUSH1 0x40 MLOAD DUP1 SWAP2 SUB SWAP1 REVERT JUMPDEST PUSH1 0x1 PUSH0 PUSH0 CALLER PUSH20 0xFFFFFFFFFFFFFFFFFFFFFFFFFFFFFFFFFFFFFFFF AND PUSH20 0xFFFFFFFFFFFFFFFFFFFFFFFFFFFFFFFFFFFFFFFF AND DUP2 MSTORE PUSH1 0x20 ADD SWAP1 DUP2 MSTORE PUSH1 0x20 ADD PUSH0 KECCAK256 PUSH0 PUSH2 0x100 EXP DUP2 SLOAD DUP2 PUSH1 0xFF MUL NOT AND SWAP1 DUP4 ISZERO ISZERO MUL OR SWAP1 SSTORE POP PUSH1 0x1 DUP1 DUP4 DUP4 PUSH1 0x40 MLOAD PUSH2 0x434 SWAP3 SWAP2 SWAP1 PUSH2 0xCF1 JUMP JUMPDEST SWAP1 DUP2 MSTORE PUSH1 0x20 ADD PUSH1 0x40 MLOAD DUP1 SWAP2 SUB SWAP1 KECCAK256 PUSH0 DUP3 DUP3 SLOAD PUSH2 0x450 SWAP2 SWAP1 PUSH2 0xD36 JUMP JUMPDEST SWAP3 POP POP DUP2 SWAP1 SSTORE POP POP POP JUMP JUMPDEST PUSH0 PUSH0 PUSH0 SWAP1 POP JUMPDEST PUSH1 0x2 DUP1 SLOAD SWAP1 POP DUP2 LT ISZERO PUSH2 0x4F3 JUMPI DUP3 PUSH1 0x40 MLOAD PUSH1 0x20 ADD PUSH2 0x47F SWAP2 SWAP1 PUSH2 0xB8A JUMP JUMPDEST PUSH1 0x40 MLOAD PUSH1 0x20 DUP2 DUP4 SUB SUB DUP2 MSTORE SWAP1 PUSH1 0x40 MSTORE DUP1 MLOAD SWAP1 PUSH1 0x20 ADD KECCAK256 PUSH1 0x2 DUP3 DUP2 SLOAD DUP2 LT PUSH2 0x4A9 JUMPI PUSH2 0x4A8 PUSH2 0xD69 JUMP JUMPDEST JUMPDEST SWAP1 PUSH0 MSTORE PUSH1 0x20 PUSH0 KECCAK256 ADD PUSH1 0x40 MLOAD PUSH1 0x20 ADD PUSH2 0x4C1 SWAP2 SWAP1 PUSH2 0xE28 JUMP JUMPDEST PUSH1 0x40 MLOAD PUSH1 0x20 DUP2 DUP4 SUB SUB DUP2 MSTORE SWAP1 PUSH1 0x40 MSTORE DUP1 MLOAD SWAP1 PUSH1 0x20 ADD KECCAK256 SUB PUSH2 0x4E6 JUMPI PUSH1 0x1 SWAP2 POP POP PUSH2 0x4F8 JUMP JUMPDEST DUP1 DUP1 PUSH1 0x1 ADD SWAP2 POP POP PUSH2 0x461 JUMP JUMPDEST POP PUSH0 SWAP1 POP JUMPDEST SWAP2 SWAP1 POP JUMP JUMPDEST PUSH1 0x2 DUP2 SWAP1 DUP1 PUSH1 0x1 DUP2 SLOAD ADD DUP1 DUP3 SSTORE DUP1 SWAP2 POP POP PUSH1 0x1 SWAP1 SUB SWAP1 PUSH0 MSTORE PUSH1 0x20 PUSH0 KECCAK256 ADD PUSH0 SWAP1 SWAP2 SWAP1 SWAP2 SWAP1 SWAP2 POP SWAP1 DUP2 PUSH2 0x52E SWAP2 SWAP1 PUSH2 0xFCC JUMP JUMPDEST POP POP JUMP JUMPDEST PUSH1 0x60 PUSH1 0x2 DUP1 SLOAD DUP1 PUSH1 0x20 MUL PUSH1 0x20 ADD PUSH1 0x40 MLOAD SWAP1 DUP2 ADD PUSH1 0x40 MSTORE DUP1 SWAP3 SWAP2 SWAP1 DUP2 DUP2 MSTORE PUSH1 0x20 ADD PUSH0 SWAP1 JUMPDEST DUP3 DUP3 LT ISZERO PUSH2 0x5FD JUMPI DUP4 DUP3 SWAP1 PUSH0 MSTORE PUSH1 0x20 PUSH0 KECCAK256 ADD DUP1 SLOAD PUSH2 0x572 SWAP1 PUSH2 0xBCD JUMP JUMPDEST DUP1 PUSH1 0x1F ADD PUSH1 0x20 DUP1 SWAP2 DIV MUL PUSH1 0x20 ADD PUSH1 0x40 MLOAD SWAP1 DUP2 ADD PUSH1 0x40 MSTORE DUP1 SWAP3 SWAP2 SWAP1 DUP2 DUP2 MSTORE PUSH1 0x20 ADD DUP3 DUP1 SLOAD PUSH2 0x59E SWAP1 PUSH2 0xBCD JUMP JUMPDEST DUP1 ISZERO PUSH2 0x5E9 JUMPI DUP1 PUSH1 0x1F LT PUSH2 0x5C0 JUMPI PUSH2 0x100 DUP1 DUP4 SLOAD DIV MUL DUP4 MSTORE SWAP2 PUSH1 0x20 ADD SWAP2 PUSH2 0x5E9 JUMP JUMPDEST DUP3 ADD SWAP2 SWAP1 PUSH0 MSTORE PUSH1 0x20 PUSH0 KECCAK256 SWAP1 JUMPDEST DUP2 SLOAD DUP2 MSTORE SWAP1 PUSH1 0x1 ADD SWAP1 PUSH1 0x20 ADD DUP1 DUP4 GT PUSH2 0x5CC JUMPI DUP3 SWAP1 SUB PUSH1 0x1F AND DUP3 ADD SWAP2 JUMPDEST POP POP POP POP POP DUP2 MSTORE PUSH1 0x20 ADD SWAP1 PUSH1 0x1 ADD SWAP1 PUSH2 0x555 JUMP JUMPDEST POP POP POP POP SWAP1 POP SWAP1 JUMP JUMPDEST PUSH1 0x1 DUP2 DUP1 MLOAD PUSH1 0x20 DUP2 ADD DUP3 ADD DUP1 MLOAD DUP5 DUP3 MSTORE PUSH1 0x20 DUP4 ADD PUSH1 0x20 DUP6 ADD KECCAK256 DUP2 DUP4 MSTORE DUP1 SWAP6 POP POP POP POP POP POP PUSH0 SWAP2 POP SWAP1 POP SLOAD DUP2 JUMP JUMPDEST PUSH0 PUSH1 0x40 MLOAD SWAP1 POP SWAP1 JUMP JUMPDEST PUSH0 PUSH0 REVERT JUMPDEST PUSH0 PUSH0 REVERT JUMPDEST PUSH0 PUSH0 REVERT JUMPDEST PUSH0 PUSH0 REVERT JUMPDEST PUSH0 PUSH1 0x1F NOT PUSH1 0x1F DUP4 ADD AND SWAP1 POP SWAP2 SWAP1 POP JUMP JUMPDEST PUSH32 0x4E487B7100000000000000000000000000000000000000000000000000000000 PUSH0 MSTORE PUSH1 0x41 PUSH1 0x4 MSTORE PUSH1 0x24 PUSH0 REVERT JUMPDEST PUSH2 0x692 DUP3 PUSH2 0x64C JUMP JUMPDEST DUP2 ADD DUP2 DUP2 LT PUSH8 0xFFFFFFFFFFFFFFFF DUP3 GT OR ISZERO PUSH2 0x6B1 JUMPI PUSH2 0x6B0 PUSH2 0x65C JUMP JUMPDEST JUMPDEST DUP1 PUSH1 0x40 MSTORE POP POP POP JUMP JUMPDEST PUSH0 PUSH2 0x6C3 PUSH2 0x633 JUMP JUMPDEST SWAP1 POP PUSH2 0x6CF DUP3 DUP3 PUSH2 0x689 JUMP JUMPDEST SWAP2 SWAP1 POP JUMP JUMPDEST PUSH0 PUSH8 0xFFFFFFFFFFFFFFFF DUP3 GT ISZERO PUSH2 0x6EE JUMPI PUSH2 0x6ED PUSH2 0x65C JUMP JUMPDEST JUMPDEST PUSH2 0x6F7 DUP3 PUSH2 0x64C JUMP JUMPDEST SWAP1 POP PUSH1 0x20 DUP2 ADD SWAP1 POP SWAP2 SWAP1 POP JUMP JUMPDEST DUP3 DUP2 DUP4 CALLDATACOPY PUSH0 DUP4 DUP4 ADD MSTORE POP POP POP JUMP JUMPDEST PUSH0 PUSH2 0x724 PUSH2 0x71F DUP5 PUSH2 0x6D4 JUMP JUMPDEST PUSH2 0x6BA JUMP JUMPDEST SWAP1 POP DUP3 DUP2 MSTORE PUSH1 0x20 DUP2 ADD DUP5 DUP5 DUP5 ADD GT ISZERO PUSH2 0x740 JUMPI PUSH2 0x73F PUSH2 0x648 JUMP JUMPDEST JUMPDEST PUSH2 0x74B DUP5 DUP3 DUP6 PUSH2 0x704 JUMP JUMPDEST POP SWAP4 SWAP3 POP POP POP JUMP JUMPDEST PUSH0 DUP3 PUSH1 0x1F DUP4 ADD SLT PUSH2 0x767 JUMPI PUSH2 0x766 PUSH2 0x644 JUMP JUMPDEST JUMPDEST DUP2 CALLDATALOAD PUSH2 0x777 DUP5 DUP3 PUSH1 0x20 DUP7 ADD PUSH2 0x712 JUMP JUMPDEST SWAP2 POP POP SWAP3 SWAP2 POP POP JUMP JUMPDEST PUSH0 PUSH1 0x20 DUP3 DUP5 SUB SLT ISZERO PUSH2 0x795 JUMPI PUSH2 0x794 PUSH2 0x63C JUMP JUMPDEST JUMPDEST PUSH0 DUP3 ADD CALLDATALOAD PUSH8 0xFFFFFFFFFFFFFFFF DUP2 GT ISZERO PUSH2 0x7B2 JUMPI PUSH2 0x7B1 PUSH2 0x640 JUMP JUMPDEST JUMPDEST PUSH2 0x7BE DUP5 DUP3 DUP6 ADD PUSH2 0x753 JUMP JUMPDEST SWAP2 POP POP SWAP3 SWAP2 POP POP JUMP JUMPDEST PUSH0 DUP2 SWAP1 POP SWAP2 SWAP1 POP JUMP JUMPDEST PUSH2 0x7D9 DUP2 PUSH2 0x7C7 JUMP JUMPDEST DUP3 MSTORE POP POP JUMP JUMPDEST PUSH0 PUSH1 0x20 DUP3 ADD SWAP1 POP PUSH2 0x7F2 PUSH0 DUP4 ADD DUP5 PUSH2 0x7D0 JUMP JUMPDEST SWAP3 SWAP2 POP POP JUMP JUMPDEST PUSH0 PUSH20 0xFFFFFFFFFFFFFFFFFFFFFFFFFFFFFFFFFFFFFFFF DUP3 AND SWAP1 POP SWAP2 SWAP1 POP JUMP JUMPDEST PUSH0 PUSH2 0x821 DUP3 PUSH2 0x7F8 JUMP JUMPDEST SWAP1 POP SWAP2 SWAP1 POP JUMP JUMPDEST PUSH2 0x831 DUP2 PUSH2 0x817 JUMP JUMPDEST DUP2 EQ PUSH2 0x83B JUMPI PUSH0 PUSH0 REVERT JUMPDEST POP JUMP JUMPDEST PUSH0 DUP2 CALLDATALOAD SWAP1 POP PUSH2 0x84C DUP2 PUSH2 0x828 JUMP JUMPDEST SWAP3 SWAP2 POP POP JUMP JUMPDEST PUSH0 PUSH1 0x20 DUP3 DUP5 SUB SLT ISZERO PUSH2 0x867 JUMPI PUSH2 0x866 PUSH2 0x63C JUMP JUMPDEST JUMPDEST PUSH0 PUSH2 0x874 DUP5 DUP3 DUP6 ADD PUSH2 0x83E JUMP JUMPDEST SWAP2 POP POP SWAP3 SWAP2 POP POP JUMP JUMPDEST PUSH0 DUP2 ISZERO ISZERO SWAP1 POP SWAP2 SWAP1 POP JUMP JUMPDEST PUSH2 0x891 DUP2 PUSH2 0x87D JUMP JUMPDEST DUP3 MSTORE POP POP JUMP JUMPDEST PUSH0 PUSH1 0x20 DUP3 ADD SWAP1 POP PUSH2 0x8AA PUSH0 DUP4 ADD DUP5 PUSH2 0x888 JUMP JUMPDEST SWAP3 SWAP2 POP POP JUMP JUMPDEST PUSH2 0x8B9 DUP2 PUSH2 0x7C7 JUMP JUMPDEST DUP2 EQ PUSH2 0x8C3 JUMPI PUSH0 PUSH0 REVERT JUMPDEST POP JUMP JUMPDEST PUSH0 DUP2 CALLDATALOAD SWAP1 POP PUSH2 0x8D4 DUP2 PUSH2 0x8B0 JUMP JUMPDEST SWAP3 SWAP2 POP POP JUMP JUMPDEST PUSH0 PUSH1 0x20 DUP3 DUP5 SUB SLT ISZERO PUSH2 0x8EF JUMPI PUSH2 0x8EE PUSH2 0x63C JUMP JUMPDEST JUMPDEST PUSH0 PUSH2 0x8FC DUP5 DUP3 DUP6 ADD PUSH2 0x8C6 JUMP JUMPDEST SWAP2 POP POP SWAP3 SWAP2 POP POP JUMP JUMPDEST PUSH0 DUP2 MLOAD SWAP1 POP SWAP2 SWAP1 POP JUMP JUMPDEST PUSH0 DUP3 DUP3 MSTORE PUSH1 0x20 DUP3 ADD SWAP1 POP SWAP3 SWAP2 POP POP JUMP JUMPDEST DUP3 DUP2 DUP4 MCOPY PUSH0 DUP4 DUP4 ADD MSTORE POP POP POP JUMP JUMPDEST PUSH0 PUSH2 0x937 DUP3 PUSH2 0x905 JUMP JUMPDEST PUSH2 0x941 DUP2 DUP6 PUSH2 0x90F JUMP JUMPDEST SWAP4 POP PUSH2 0x951 DUP2 DUP6 PUSH1 0x20 DUP7 ADD PUSH2 0x91F JUMP JUMPDEST PUSH2 0x95A DUP2 PUSH2 0x64C JUMP JUMPDEST DUP5 ADD SWAP2 POP POP SWAP3 SWAP2 POP POP JUMP JUMPDEST PUSH0 PUSH1 0x20 DUP3 ADD SWAP1 POP DUP2 DUP2 SUB PUSH0 DUP4 ADD MSTORE PUSH2 0x97D DUP2 DUP5 PUSH2 0x92D JUMP JUMPDEST SWAP1 POP SWAP3 SWAP2 POP POP JUMP JUMPDEST PUSH0 PUSH0 REVERT JUMPDEST PUSH0 PUSH0 REVERT JUMPDEST PUSH0 PUSH0 DUP4 PUSH1 0x1F DUP5 ADD SLT PUSH2 0x9A2 JUMPI PUSH2 0x9A1 PUSH2 0x644 JUMP JUMPDEST JUMPDEST DUP3 CALLDATALOAD SWAP1 POP PUSH8 0xFFFFFFFFFFFFFFFF DUP2 GT ISZERO PUSH2 0x9BF JUMPI PUSH2 0x9BE PUSH2 0x985 JUMP JUMPDEST JUMPDEST PUSH1 0x20 DUP4 ADD SWAP2 POP DUP4 PUSH1 0x1 DUP3 MUL DUP4 ADD GT ISZERO PUSH2 0x9DB JUMPI PUSH2 0x9DA PUSH2 0x989 JUMP JUMPDEST JUMPDEST SWAP3 POP SWAP3 SWAP1 POP JUMP JUMPDEST PUSH0 PUSH0 PUSH1 0x20 DUP4 DUP6 SUB SLT ISZERO PUSH2 0x9F8 JUMPI PUSH2 0x9F7 PUSH2 0x63C JUMP JUMPDEST JUMPDEST PUSH0 DUP4 ADD CALLDATALOAD PUSH8 0xFFFFFFFFFFFFFFFF DUP2 GT ISZERO PUSH2 0xA15 JUMPI PUSH2 0xA14 PUSH2 0x640 JUMP JUMPDEST JUMPDEST PUSH2 0xA21 DUP6 DUP3 DUP7 ADD PUSH2 0x98D JUMP JUMPDEST SWAP3 POP SWAP3 POP POP SWAP3 POP SWAP3 SWAP1 POP JUMP JUMPDEST PUSH0 DUP2 MLOAD SWAP1 POP SWAP2 SWAP1 POP JUMP JUMPDEST PUSH0 DUP3 DUP3 MSTORE PUSH1 0x20 DUP3 ADD SWAP1 POP SWAP3 SWAP2 POP POP JUMP JUMPDEST PUSH0 DUP2 SWAP1 POP PUSH1 0x20 DUP3 ADD SWAP1 POP SWAP2 SWAP1 POP JUMP JUMPDEST PUSH0 DUP3 DUP3 MSTORE PUSH1 0x20 DUP3 ADD SWAP1 POP SWAP3 SWAP2 POP POP JUMP JUMPDEST PUSH0 PUSH2 0xA70 DUP3 PUSH2 0x905 JUMP JUMPDEST PUSH2 0xA7A DUP2 DUP6 PUSH2 0xA56 JUMP JUMPDEST SWAP4 POP PUSH2 0xA8A DUP2 DUP6 PUSH1 0x20 DUP7 ADD PUSH2 0x91F JUMP JUMPDEST PUSH2 0xA93 DUP2 PUSH2 0x64C JUMP JUMPDEST DUP5 ADD SWAP2 POP POP SWAP3 SWAP2 POP POP JUMP JUMPDEST PUSH0 PUSH2 0xAA9 DUP4 DUP4 PUSH2 0xA66 JUMP JUMPDEST SWAP1 POP SWAP3 SWAP2 POP POP JUMP JUMPDEST PUSH0 PUSH1 0x20 DUP3 ADD SWAP1 POP SWAP2 SWAP1 POP JUMP JUMPDEST PUSH0 PUSH2 0xAC7 DUP3 PUSH2 0xA2D JUMP JUMPDEST PUSH2 0xAD1 DUP2 DUP6 PUSH2 0xA37 JUMP JUMPDEST SWAP4 POP DUP4 PUSH1 0x20 DUP3 MUL DUP6 ADD PUSH2 0xAE3 DUP6 PUSH2 0xA47 JUMP JUMPDEST DUP1 PUSH0 JUMPDEST DUP6 DUP2 LT ISZERO PUSH2 0xB1E JUMPI DUP5 DUP5 SUB DUP10 MSTORE DUP2 MLOAD PUSH2 0xAFF DUP6 DUP3 PUSH2 0xA9E JUMP JUMPDEST SWAP5 POP PUSH2 0xB0A DUP4 PUSH2 0xAB1 JUMP JUMPDEST SWAP3 POP PUSH1 0x20 DUP11 ADD SWAP10 POP POP PUSH1 0x1 DUP2 ADD SWAP1 POP PUSH2 0xAE6 JUMP JUMPDEST POP DUP3 SWAP8 POP DUP8 SWAP6 POP POP POP POP POP POP SWAP3 SWAP2 POP POP JUMP JUMPDEST PUSH0 PUSH1 0x20 DUP3 ADD SWAP1 POP DUP2 DUP2 SUB PUSH0 DUP4 ADD MSTORE PUSH2 0xB48 DUP2 DUP5 PUSH2 0xABD JUMP JUMPDEST SWAP1 POP SWAP3 SWAP2 POP POP JUMP JUMPDEST PUSH0 DUP2 SWAP1 POP SWAP3 SWAP2 POP POP JUMP JUMPDEST PUSH0 PUSH2 0xB64 DUP3 PUSH2 0x905 JUMP JUMPDEST PUSH2 0xB6E DUP2 DUP6 PUSH2 0xB50 JUMP JUMPDEST SWAP4 POP PUSH2 0xB7E DUP2 DUP6 PUSH1 0x20 DUP7 ADD PUSH2 0x91F JUMP JUMPDEST DUP1 DUP5 ADD SWAP2 POP POP SWAP3 SWAP2 POP POP JUMP JUMPDEST PUSH0 PUSH2 0xB95 DUP3 DUP5 PUSH2 0xB5A JUMP JUMPDEST SWAP2 POP DUP2 SWAP1 POP SWAP3 SWAP2 POP POP JUMP JUMPDEST PUSH32 0x4E487B7100000000000000000000000000000000000000000000000000000000 PUSH0 MSTORE PUSH1 0x22 PUSH1 0x4 MSTORE PUSH1 0x24 PUSH0 REVERT JUMPDEST PUSH0 PUSH1 0x2 DUP3 DIV SWAP1 POP PUSH1 0x1 DUP3 AND DUP1 PUSH2 0xBE4 JUMPI PUSH1 0x7F DUP3 AND SWAP2 POP JUMPDEST PUSH1 0x20 DUP3 LT DUP2 SUB PUSH2 0xBF7 JUMPI PUSH2 0xBF6 PUSH2 0xBA0 JUMP JUMPDEST JUMPDEST POP SWAP2 SWAP1 POP JUMP JUMPDEST PUSH32 0x416C726561647920766F74656400000000000000000000000000000000000000 PUSH0 DUP3 ADD MSTORE POP JUMP JUMPDEST PUSH0 PUSH2 0xC31 PUSH1 0xD DUP4 PUSH2 0x90F JUMP JUMPDEST SWAP2 POP PUSH2 0xC3C DUP3 PUSH2 0xBFD JUMP JUMPDEST PUSH1 0x20 DUP3 ADD SWAP1 POP SWAP2 SWAP1 POP JUMP JUMPDEST PUSH0 PUSH1 0x20 DUP3 ADD SWAP1 POP DUP2 DUP2 SUB PUSH0 DUP4 ADD MSTORE PUSH2 0xC5E DUP2 PUSH2 0xC25 JUMP JUMPDEST SWAP1 POP SWAP2 SWAP1 POP JUMP JUMPDEST PUSH32 0x496E76616C69642043616E646964617465000000000000000000000000000000 PUSH0 DUP3 ADD MSTORE POP JUMP JUMPDEST PUSH0 PUSH2 0xC99 PUSH1 0x11 DUP4 PUSH2 0x90F JUMP JUMPDEST SWAP2 POP PUSH2 0xCA4 DUP3 PUSH2 0xC65 JUMP JUMPDEST PUSH1 0x20 DUP3 ADD SWAP1 POP SWAP2 SWAP1 POP JUMP JUMPDEST PUSH0 PUSH1 0x20 DUP3 ADD SWAP1 POP DUP2 DUP2 SUB PUSH0 DUP4 ADD MSTORE PUSH2 0xCC6 DUP2 PUSH2 0xC8D JUMP JUMPDEST SWAP1 POP SWAP2 SWAP1 POP JUMP JUMPDEST PUSH0 PUSH2 0xCD8 DUP4 DUP6 PUSH2 0xB50 JUMP JUMPDEST SWAP4 POP PUSH2 0xCE5 DUP4 DUP6 DUP5 PUSH2 0x704 JUMP JUMPDEST DUP3 DUP5 ADD SWAP1 POP SWAP4 SWAP3 POP POP POP JUMP JUMPDEST PUSH0 PUSH2 0xCFD DUP3 DUP5 DUP7 PUSH2 0xCCD JUMP JUMPDEST SWAP2 POP DUP2 SWAP1 POP SWAP4 SWAP3 POP POP POP JUMP JUMPDEST PUSH32 0x4E487B7100000000000000000000000000000000000000000000000000000000 PUSH0 MSTORE PUSH1 0x11 PUSH1 0x4 MSTORE PUSH1 0x24 PUSH0 REVERT JUMPDEST PUSH0 PUSH2 0xD40 DUP3 PUSH2 0x7C7 JUMP JUMPDEST SWAP2 POP PUSH2 0xD4B DUP4 PUSH2 0x7C7 JUMP JUMPDEST SWAP3 POP DUP3 DUP3 ADD SWAP1 POP DUP1 DUP3 GT ISZERO PUSH2 0xD63 JUMPI PUSH2 0xD62 PUSH2 0xD09 JUMP JUMPDEST JUMPDEST SWAP3 SWAP2 POP POP JUMP JUMPDEST PUSH32 0x4E487B7100000000000000000000000000000000000000000000000000000000 PUSH0 MSTORE PUSH1 0x32 PUSH1 0x4 MSTORE PUSH1 0x24 PUSH0 REVERT JUMPDEST PUSH0 DUP2 SWAP1 POP DUP2 PUSH0 MSTORE PUSH1 0x20 PUSH0 KECCAK256 SWAP1 POP SWAP2 SWAP1 POP JUMP JUMPDEST PUSH0 DUP2 SLOAD PUSH2 0xDB4 DUP2 PUSH2 0xBCD JUMP JUMPDEST PUSH2 0xDBE DUP2 DUP7 PUSH2 0xB50 JUMP JUMPDEST SWAP5 POP PUSH1 0x1 DUP3 AND PUSH0 DUP2 EQ PUSH2 0xDD8 JUMPI PUSH1 0x1 DUP2 EQ PUSH2 0xDED JUMPI PUSH2 0xE1F JUMP JUMPDEST PUSH1 0xFF NOT DUP4 AND DUP7 MSTORE DUP2 ISZERO ISZERO DUP3 MUL DUP7 ADD SWAP4 POP PUSH2 0xE1F JUMP JUMPDEST PUSH2 0xDF6 DUP6 PUSH2 0xD96 JUMP JUMPDEST PUSH0 JUMPDEST DUP4 DUP2 LT ISZERO PUSH2 0xE17 JUMPI DUP2 SLOAD DUP2 DUP10 ADD MSTORE PUSH1 0x1 DUP3 ADD SWAP2 POP PUSH1 0x20 DUP2 ADD SWAP1 POP PUSH2 0xDF8 JUMP JUMPDEST DUP4 DUP9 ADD SWAP6 POP POP POP JUMPDEST POP POP POP SWAP3 SWAP2 POP POP JUMP JUMPDEST PUSH0 PUSH2 0xE33 DUP3 DUP5 PUSH2 0xDA8 JUMP JUMPDEST SWAP2 POP DUP2 SWAP1 POP SWAP3 SWAP2 POP POP JUMP JUMPDEST PUSH0 PUSH1 0x20 PUSH1 0x1F DUP4 ADD DIV SWAP1 POP SWAP2 SWAP1 POP JUMP JUMPDEST PUSH0 DUP3 DUP3 SHL SWAP1 POP SWAP3 SWAP2 POP POP JUMP JUMPDEST PUSH0 PUSH1 0x8 DUP4 MUL PUSH2 0xE88 PUSH32 0xFFFFFFFFFFFFFFFFFFFFFFFFFFFFFFFFFFFFFFFFFFFFFFFFFFFFFFFFFFFFFFFF DUP3 PUSH2 0xE4D JUMP JUMPDEST PUSH2 0xE92 DUP7 DUP4 PUSH2 0xE4D JUMP JUMPDEST SWAP6 POP DUP1 NOT DUP5 AND SWAP4 POP DUP1 DUP7 AND DUP5 OR SWAP3 POP POP POP SWAP4 SWAP3 POP POP POP JUMP JUMPDEST PUSH0 DUP2 SWAP1 POP SWAP2 SWAP1 POP JUMP JUMPDEST PUSH0 PUSH2 0xECD PUSH2 0xEC8 PUSH2 0xEC3 DUP5 PUSH2 0x7C7 JUMP JUMPDEST PUSH2 0xEAA JUMP JUMPDEST PUSH2 0x7C7 JUMP JUMPDEST SWAP1 POP SWAP2 SWAP1 POP JUMP JUMPDEST PUSH0 DUP2 SWAP1 POP SWAP2 SWAP1 POP JUMP JUMPDEST PUSH2 0xEE6 DUP4 PUSH2 0xEB3 JUMP JUMPDEST PUSH2 0xEFA PUSH2 0xEF2 DUP3 PUSH2 0xED4 JUMP JUMPDEST DUP5 DUP5 SLOAD PUSH2 0xE59 JUMP JUMPDEST DUP3 SSTORE POP POP POP POP JUMP JUMPDEST PUSH0 PUSH0 SWAP1 POP SWAP1 JUMP JUMPDEST PUSH2 0xF11 PUSH2 0xF02 JUMP JUMPDEST PUSH2 0xF1C DUP2 DUP5 DUP5 PUSH2 0xEDD JUMP JUMPDEST POP POP POP JUMP JUMPDEST JUMPDEST DUP2 DUP2 LT ISZERO PUSH2 0xF3F JUMPI PUSH2 0xF34 PUSH0 DUP3 PUSH2 0xF09 JUMP JUMPDEST PUSH1 0x1 DUP2 ADD SWAP1 POP PUSH2 0xF22 JUMP JUMPDEST POP POP JUMP JUMPDEST PUSH1 0x1F DUP3 GT ISZERO PUSH2 0xF84 JUMPI PUSH2 0xF55 DUP2 PUSH2 0xD96 JUMP JUMPDEST PUSH2 0xF5E DUP5 PUSH2 0xE3E JUMP JUMPDEST DUP2 ADD PUSH1 0x20 DUP6 LT ISZERO PUSH2 0xF6D JUMPI DUP2 SWAP1 POP JUMPDEST PUSH2 0xF81 PUSH2 0xF79 DUP6 PUSH2 0xE3E JUMP JUMPDEST DUP4 ADD DUP3 PUSH2 0xF21 JUMP JUMPDEST POP POP JUMPDEST POP POP POP JUMP JUMPDEST PUSH0 DUP3 DUP3 SHR SWAP1 POP SWAP3 SWAP2 POP POP JUMP JUMPDEST PUSH0 PUSH2 0xFA4 PUSH0 NOT DUP5 PUSH1 0x8 MUL PUSH2 0xF89 JUMP JUMPDEST NOT DUP1 DUP4 AND SWAP2 POP POP SWAP3 SWAP2 POP POP JUMP JUMPDEST PUSH0 PUSH2 0xFBC DUP4 DUP4 PUSH2 0xF95 JUMP JUMPDEST SWAP2 POP DUP3 PUSH1 0x2 MUL DUP3 OR SWAP1 POP SWAP3 SWAP2 POP POP JUMP JUMPDEST PUSH2 0xFD5 DUP3 PUSH2 0x905 JUMP JUMPDEST PUSH8 0xFFFFFFFFFFFFFFFF DUP2 GT ISZERO PUSH2 0xFEE JUMPI PUSH2 0xFED PUSH2 0x65C JUMP JUMPDEST JUMPDEST PUSH2 0xFF8 DUP3 SLOAD PUSH2 0xBCD JUMP JUMPDEST PUSH2 0x1003 DUP3 DUP3 DUP6 PUSH2 0xF43 JUMP JUMPDEST PUSH0 PUSH1 0x20 SWAP1 POP PUSH1 0x1F DUP4 GT PUSH1 0x1 DUP2 EQ PUSH2 0x1034 JUMPI PUSH0 DUP5 ISZERO PUSH2 0x1022 JUMPI DUP3 DUP8 ADD MLOAD SWAP1 POP JUMPDEST PUSH2 0x102C DUP6 DUP3 PUSH2 0xFB1 JUMP JUMPDEST DUP7 SSTORE POP PUSH2 0x1093 JUMP JUMPDEST PUSH1 0x1F NOT DUP5 AND PUSH2 0x1042 DUP7 PUSH2 0xD96 JUMP JUMPDEST PUSH0 JUMPDEST DUP3 DUP2 LT ISZERO PUSH2 0x1069 JUMPI DUP5 DUP10 ADD MLOAD DUP3 SSTORE PUSH1 0x1 DUP3 ADD SWAP2 POP PUSH1 0x20 DUP6 ADD SWAP5 POP PUSH1 0x20 DUP2 ADD SWAP1 POP PUSH2 0x1044 JUMP JUMPDEST DUP7 DUP4 LT ISZERO PUSH2 0x1086 JUMPI DUP5 DUP10 ADD MLOAD PUSH2 0x1082 PUSH1 0x1F DUP10 AND DUP3 PUSH2 0xF95 JUMP JUMPDEST DUP4 SSTORE POP JUMPDEST PUSH1 0x1 PUSH1 0x2 DUP9 MUL ADD DUP9 SSTORE POP POP POP JUMPDEST POP POP POP POP POP POP JUMP INVALID LOG2 PUSH5 0x6970667358 0x22 SLT KECCAK256 PREVRANDAO GASPRICE SDIV RJUMPI 0xC256 0xEA 0x2E RETF PUSH13 0x46CBC2BCFF2955986955087BFE EXTCODEHASH 0xBA LOG4 0xC3 PUSH14 0x61619D1464736F6C634300081E00 CALLER "
				},
				"gasEstimates": {
					"creation": {
						"codeDepositCost": "861000",
						"executionCost": "894",
						"totalCost": "861894"
					},
					"external": {
						"addcandidate(string)": "infinite",
						"candidates(uint256)": "infinite",
						"getVoteCount(string)": "infinite",
						"getallCandidates()": "infinite",
						"hasvoted(address)": "2855",
						"isValidCandidate(string)": "infinite",
						"vate(string)": "infinite",
						"voteCount(string)": "infinite"
					}
				},
				"methodIdentifiers": {
					"addcandidate(string)": "8305abd9",
					"candidates(uint256)": "3477ee2e",
					"getVoteCount(string)": "069953a7",
					"getallCandidates()": "83e7f291",
					"hasvoted(address)": "2b499cab",
					"isValidCandidate(string)": "51b9887d",
					"vate(string)": "4f117fcc",
					"voteCount(string)": "ba7f7552"
				}
			},
			"storageLayout": {
				"storage": [
					{
						"astId": 5,
						"contract": "tryit/voatingSystem.sol:SimpleVoting",
						"label": "hasvoted",
						"offset": 0,
						"slot": "0",
						"type": "t_mapping(t_address,t_bool)"
					},
					{
						"astId": 9,
						"contract": "tryit/voatingSystem.sol:SimpleVoting",
						"label": "voteCount",
						"offset": 0,
						"slot": "1",
						"type": "t_mapping(t_string_memory_ptr,t_uint256)"
					},
					{
						"astId": 12,
						"contract": "tryit/voatingSystem.sol:SimpleVoting",
						"label": "candidates",
						"offset": 0,
						"slot": "2",
						"type": "t_array(t_string_storage)dyn_storage"
					}
				],
				"types": {
					"t_address": {
						"encoding": "inplace",
						"label": "address",
						"numberOfBytes": "20"
					},
					"t_array(t_string_storage)dyn_storage": {
						"base": "t_string_storage",
						"encoding": "dynamic_array",
						"label": "string[]",
						"numberOfBytes": "32"
					},
					"t_bool": {
						"encoding": "inplace",
						"label": "bool",
						"numberOfBytes": "1"
					},
					"t_mapping(t_address,t_bool)": {
						"encoding": "mapping",
						"key": "t_address",
						"label": "mapping(address => bool)",
						"numberOfBytes": "32",
						"value": "t_bool"
					},
					"t_mapping(t_string_memory_ptr,t_uint256)": {
						"encoding": "mapping",
						"key": "t_string_memory_ptr",
						"label": "mapping(string => uint256)",
						"numberOfBytes": "32",
						"value": "t_uint256"
					},
					"t_string_memory_ptr": {
						"encoding": "bytes",
						"label": "string",
						"numberOfBytes": "32"
					},
					"t_string_storage": {
						"encoding": "bytes",
						"label": "string",
						"numberOfBytes": "32"
					},
					"t_uint256": {
						"encoding": "inplace",
						"label": "uint256",
						"numberOfBytes": "32"
					}
				}
			},
			"userdoc": {
				"kind": "user",
				"methods": {},
				"version": 1
			}
		}
	}
}