{
	"projects/EthertransfersSecPetterns.sol": {
		"SecureVaultAuditDemo": {
			"abi": [
				{
					"inputs": [],
					"stateMutability": "nonpayable",
					"type": "constructor"
				},
				{
					"anonymous": false,
					"inputs": [
						{
							"indexed": true,
							"internalType": "address",
							"name": "user",
							"type": "address"
						},
						{
							"indexed": false,
							"internalType": "bytes32",
							"name": "hash",
							"type": "bytes32"
						}
					],
					"name": "Committed",
					"type": "event"
				},
				{
					"anonymous": false,
					"inputs": [
						{
							"indexed": true,
							"internalType": "address",
							"name": "user",
							"type": "address"
						},
						{
							"indexed": false,
							"internalType": "uint256",
							"name": "amount",
							"type": "uint256"
						}
					],
					"name": "DepositMade",
					"type": "event"
				},
				{
					"anonymous": false,
					"inputs": [
						{
							"indexed": true,
							"internalType": "address",
							"name": "to",
							"type": "address"
						},
						{
							"indexed": false,
							"internalType": "uint256",
							"name": "amount",
							"type": "uint256"
						}
					],
					"name": "OwnerWithdrew",
					"type": "event"
				},
				{
					"anonymous": false,
					"inputs": [
						{
							"indexed": true,
							"internalType": "address",
							"name": "user",
							"type": "address"
						},
						{
							"indexed": false,
							"internalType": "uint256",
							"name": "value",
							"type": "uint256"
						}
					],
					"name": "Revealed",
					"type": "event"
				},
				{
					"anonymous": false,
					"inputs": [
						{
							"indexed": true,
							"internalType": "address",
							"name": "user",
							"type": "address"
						},
						{
							"indexed": false,
							"internalType": "uint256",
							"name": "amount",
							"type": "uint256"
						}
					],
					"name": "Withdrawn",
					"type": "event"
				},
				{
					"stateMutability": "payable",
					"type": "fallback"
				},
				{
					"inputs": [
						{
							"internalType": "address",
							"name": "",
							"type": "address"
						}
					],
					"name": "balances",
					"outputs": [
						{
							"internalType": "uint256",
							"name": "",
							"type": "uint256"
						}
					],
					"stateMutability": "view",
					"type": "function"
				},
				{
					"inputs": [
						{
							"internalType": "address",
							"name": "newOwner",
							"type": "address"
						}
					],
					"name": "changeOwner",
					"outputs": [],
					"stateMutability": "nonpayable",
					"type": "function"
				},
				{
					"inputs": [
						{
							"internalType": "bytes32",
							"name": "hash",
							"type": "bytes32"
						}
					],
					"name": "commit",
					"outputs": [],
					"stateMutability": "payable",
					"type": "function"
				},
				{
					"inputs": [],
					"name": "contractBalance",
					"outputs": [
						{
							"internalType": "uint256",
							"name": "",
							"type": "uint256"
						}
					],
					"stateMutability": "view",
					"type": "function"
				},
				{
					"inputs": [],
					"name": "deposit",
					"outputs": [],
					"stateMutability": "payable",
					"type": "function"
				},
				{
					"inputs": [
						{
							"internalType": "address",
							"name": "user",
							"type": "address"
						},
						{
							"internalType": "uint256",
							"name": "idx",
							"type": "uint256"
						}
					],
					"name": "getDeposit",
					"outputs": [
						{
							"internalType": "uint256",
							"name": "amount",
							"type": "uint256"
						},
						{
							"internalType": "uint256",
							"name": "timestamp",
							"type": "uint256"
						},
						{
							"internalType": "uint256",
							"name": "index",
							"type": "uint256"
						}
					],
					"stateMutability": "view",
					"type": "function"
				},
				{
					"inputs": [
						{
							"internalType": "address",
							"name": "user",
							"type": "address"
						}
					],
					"name": "getDepositCount",
					"outputs": [
						{
							"internalType": "uint256",
							"name": "",
							"type": "uint256"
						}
					],
					"stateMutability": "view",
					"type": "function"
				},
				{
					"inputs": [],
					"name": "invariantCheck",
					"outputs": [],
					"stateMutability": "view",
					"type": "function"
				},
				{
					"inputs": [],
					"name": "owner",
					"outputs": [
						{
							"internalType": "address",
							"name": "",
							"type": "address"
						}
					],
					"stateMutability": "view",
					"type": "function"
				},
				{
					"inputs": [
						{
							"internalType": "address payable",
							"name": "to",
							"type": "address"
						},
						{
							"internalType": "uint256",
							"name": "amount",
							"type": "uint256"
						}
					],
					"name": "ownerWithdraw",
					"outputs": [],
					"stateMutability": "nonpayable",
					"type": "function"
				},
				{
					"inputs": [
						{
							"internalType": "uint256",
							"name": "value",
							"type": "uint256"
						},
						{
							"internalType": "string",
							"name": "nonce",
							"type": "string"
						}
					],
					"name": "reveal",
					"outputs": [],
					"stateMutability": "nonpayable",
					"type": "function"
				},
				{
					"inputs": [
						{
							"internalType": "uint256",
							"name": "a",
							"type": "uint256"
						},
						{
							"internalType": "uint256",
							"name": "b",
							"type": "uint256"
						}
					],
					"name": "unsafeMultiply",
					"outputs": [
						{
							"internalType": "uint256",
							"name": "",
							"type": "uint256"
						}
					],
					"stateMutability": "pure",
					"type": "function"
				},
				{
					"inputs": [
						{
							"internalType": "uint256",
							"name": "amount",
							"type": "uint256"
						}
					],
					"name": "withdraw",
					"outputs": [],
					"stateMutability": "nonpayable",
					"type": "function"
				},
				{
					"stateMutability": "payable",
					"type": "receive"
				}
			],
			"devdoc": {
				"kind": "dev",
				"methods": {},
				"version": 1
			},
			"evm": {
				"assembly": "    /* \"projects/EthertransfersSecPetterns.sol\":60:6303  contract SecureVaultAuditDemo {... */\n  mstore(0x40, 0x80)\n    /* \"projects/EthertransfersSecPetterns.sol\":1071:1147  constructor() {... */\n  callvalue\n  dup1\n  iszero\n  tag_1\n  jumpi\n  revert(0x00, 0x00)\ntag_1:\n  pop\n    /* \"projects/EthertransfersSecPetterns.sol\":1104:1114  msg.sender */\n  caller\n    /* \"projects/EthertransfersSecPetterns.sol\":1096:1101  owner */\n  0x00\n  0x00\n    /* \"projects/EthertransfersSecPetterns.sol\":1096:1114  owner = msg.sender */\n  0x0100\n  exp\n  dup2\n  sload\n  dup2\n  0xffffffffffffffffffffffffffffffffffffffff\n  mul\n  not\n  and\n  swap1\n  dup4\n  0xffffffffffffffffffffffffffffffffffffffff\n  and\n  mul\n  or\n  swap1\n  sstore\n  pop\n    /* \"projects/EthertransfersSecPetterns.sol\":1134:1139  false */\n  0x00\n    /* \"projects/EthertransfersSecPetterns.sol\":1125:1131  locked */\n  0x04\n  0x00\n    /* \"projects/EthertransfersSecPetterns.sol\":1125:1139  locked = false */\n  0x0100\n  exp\n  dup2\n  sload\n  dup2\n  0xff\n  mul\n  not\n  and\n  swap1\n  dup4\n  iszero\n  iszero\n  mul\n  or\n  swap1\n  sstore\n  pop\n    /* \"projects/EthertransfersSecPetterns.sol\":60:6303  contract SecureVaultAuditDemo {... */\n  dataSize(sub_0)\n  dup1\n  dataOffset(sub_0)\n  0x00\n  codecopy\n  0x00\n  return\nstop\n\nsub_0: assembly {\n        /* \"projects/EthertransfersSecPetterns.sol\":60:6303  contract SecureVaultAuditDemo {... */\n      mstore(0x40, 0x80)\n      jumpi(tag_1, lt(calldatasize, 0x04))\n      shr(0xe0, calldataload(0x00))\n      dup1\n      0x6bb9a198\n      gt\n      tag_16\n      jumpi\n      dup1\n      0xa6f9dae1\n      gt\n      tag_17\n      jumpi\n      dup1\n      0xa6f9dae1\n      eq\n      tag_12\n      jumpi\n      dup1\n      0xd0e30db0\n      eq\n      tag_13\n      jumpi\n      dup1\n      0xd9c88e14\n      eq\n      tag_14\n      jumpi\n      dup1\n      0xf14fcbc8\n      eq\n      tag_15\n      jumpi\n      jump(tag_2)\n    tag_17:\n      dup1\n      0x6bb9a198\n      eq\n      tag_9\n      jumpi\n      dup1\n      0x8b7afe2e\n      eq\n      tag_10\n      jumpi\n      dup1\n      0x8da5cb5b\n      eq\n      tag_11\n      jumpi\n      jump(tag_2)\n    tag_16:\n      dup1\n      0x13fcaf54\n      eq\n      tag_3\n      jumpi\n      dup1\n      0x2726b506\n      eq\n      tag_4\n      jumpi\n      dup1\n      0x27e235e3\n      eq\n      tag_5\n      jumpi\n      dup1\n      0x2e1a7d4d\n      eq\n      tag_6\n      jumpi\n      dup1\n      0x2fa4548b\n      eq\n      tag_7\n      jumpi\n      dup1\n      0x4509017e\n      eq\n      tag_8\n      jumpi\n      jump(tag_2)\n    tag_1:\n      jumpi(tag_2, calldatasize)\n        /* \"projects/EthertransfersSecPetterns.sol\":2118:2127  msg.value */\n      callvalue\n        /* \"projects/EthertransfersSecPetterns.sol\":2094:2102  balances */\n      0x01\n        /* \"projects/EthertransfersSecPetterns.sol\":2094:2114  balances[msg.sender] */\n      0x00\n        /* \"projects/EthertransfersSecPetterns.sol\":2103:2113  msg.sender */\n      caller\n        /* \"projects/EthertransfersSecPetterns.sol\":2094:2114  balances[msg.sender] */\n      0xffffffffffffffffffffffffffffffffffffffff\n      and\n      0xffffffffffffffffffffffffffffffffffffffff\n      and\n      dup2\n      mstore\n      0x20\n      add\n      swap1\n      dup2\n      mstore\n      0x20\n      add\n      0x00\n      keccak256\n      0x00\n        /* \"projects/EthertransfersSecPetterns.sol\":2094:2127  balances[msg.sender] += msg.value */\n      dup3\n      dup3\n      sload\n      tag_20\n      swap2\n      swap1\n      tag_21\n      jump\t// in\n    tag_20:\n      swap3\n      pop\n      pop\n      dup2\n      swap1\n      sstore\n      pop\n        /* \"projects/EthertransfersSecPetterns.sol\":2138:2146  deposits */\n      0x02\n        /* \"projects/EthertransfersSecPetterns.sol\":2138:2158  deposits[msg.sender] */\n      0x00\n        /* \"projects/EthertransfersSecPetterns.sol\":2147:2157  msg.sender */\n      caller\n        /* \"projects/EthertransfersSecPetterns.sol\":2138:2158  deposits[msg.sender] */\n      0xffffffffffffffffffffffffffffffffffffffff\n      and\n      0xffffffffffffffffffffffffffffffffffffffff\n      and\n      dup2\n      mstore\n      0x20\n      add\n      swap1\n      dup2\n      mstore\n      0x20\n      add\n      0x00\n      keccak256\n        /* \"projects/EthertransfersSecPetterns.sol\":2164:2228  Deposit(msg.value, block.timestamp, deposits[msg.sender].length) */\n      mload(0x40)\n      dup1\n      0x60\n      add\n      0x40\n      mstore\n      dup1\n        /* \"projects/EthertransfersSecPetterns.sol\":2172:2181  msg.value */\n      callvalue\n        /* \"projects/EthertransfersSecPetterns.sol\":2164:2228  Deposit(msg.value, block.timestamp, deposits[msg.sender].length) */\n      dup2\n      mstore\n      0x20\n      add\n        /* \"projects/EthertransfersSecPetterns.sol\":2183:2198  block.timestamp */\n      timestamp\n        /* \"projects/EthertransfersSecPetterns.sol\":2164:2228  Deposit(msg.value, block.timestamp, deposits[msg.sender].length) */\n      dup2\n      mstore\n      0x20\n      add\n        /* \"projects/EthertransfersSecPetterns.sol\":2200:2208  deposits */\n      0x02\n        /* \"projects/EthertransfersSecPetterns.sol\":2200:2220  deposits[msg.sender] */\n      0x00\n        /* \"projects/EthertransfersSecPetterns.sol\":2209:2219  msg.sender */\n      caller\n        /* \"projects/EthertransfersSecPetterns.sol\":2200:2220  deposits[msg.sender] */\n      0xffffffffffffffffffffffffffffffffffffffff\n      and\n      0xffffffffffffffffffffffffffffffffffffffff\n      and\n      dup2\n      mstore\n      0x20\n      add\n      swap1\n      dup2\n      mstore\n      0x20\n      add\n      0x00\n      keccak256\n        /* \"projects/EthertransfersSecPetterns.sol\":2200:2227  deposits[msg.sender].length */\n      dup1\n      sload\n      swap1\n      pop\n        /* \"projects/EthertransfersSecPetterns.sol\":2164:2228  Deposit(msg.value, block.timestamp, deposits[msg.sender].length) */\n      dup2\n      mstore\n      pop\n        /* \"projects/EthertransfersSecPetterns.sol\":2138:2229  deposits[msg.sender].push(Deposit(msg.value, block.timestamp, deposits[msg.sender].length)) */\n      swap1\n      dup1\n      0x01\n      dup2\n      sload\n      add\n      dup1\n      dup3\n      sstore\n      dup1\n      swap2\n      pop\n      pop\n      0x01\n      swap1\n      sub\n      swap1\n      0x00\n      mstore\n      keccak256(0x00, 0x20)\n      swap1\n      0x03\n      mul\n      add\n      0x00\n      swap1\n      swap2\n      swap1\n      swap2\n      swap1\n      swap2\n      pop\n      0x00\n      dup3\n      add\n      mload\n      dup2\n      0x00\n      add\n      sstore\n      0x20\n      dup3\n      add\n      mload\n      dup2\n      0x01\n      add\n      sstore\n      0x40\n      dup3\n      add\n      mload\n      dup2\n      0x02\n      add\n      sstore\n      pop\n      pop\n        /* \"projects/EthertransfersSecPetterns.sol\":2257:2267  msg.sender */\n      caller\n        /* \"projects/EthertransfersSecPetterns.sol\":2245:2279  DepositMade(msg.sender, msg.value) */\n      0xffffffffffffffffffffffffffffffffffffffff\n      and\n      0xd15c9547ea5c06670c0010ce19bc32d54682a4b3801ece7f3ab0c3f17106b4bb\n        /* \"projects/EthertransfersSecPetterns.sol\":2269:2278  msg.value */\n      callvalue\n        /* \"projects/EthertransfersSecPetterns.sol\":2245:2279  DepositMade(msg.sender, msg.value) */\n      mload(0x40)\n      tag_23\n      swap2\n      swap1\n      tag_24\n      jump\t// in\n    tag_23:\n      mload(0x40)\n      dup1\n      swap2\n      sub\n      swap1\n      log2\n        /* \"projects/EthertransfersSecPetterns.sol\":60:6303  contract SecureVaultAuditDemo {... */\n      stop\n    tag_2:\n        /* \"projects/EthertransfersSecPetterns.sol\":1826:1835  msg.value */\n      callvalue\n        /* \"projects/EthertransfersSecPetterns.sol\":1802:1810  balances */\n      0x01\n        /* \"projects/EthertransfersSecPetterns.sol\":1802:1822  balances[msg.sender] */\n      0x00\n        /* \"projects/EthertransfersSecPetterns.sol\":1811:1821  msg.sender */\n      caller\n        /* \"projects/EthertransfersSecPetterns.sol\":1802:1822  balances[msg.sender] */\n      0xffffffffffffffffffffffffffffffffffffffff\n      and\n      0xffffffffffffffffffffffffffffffffffffffff\n      and\n      dup2\n      mstore\n      0x20\n      add\n      swap1\n      dup2\n      mstore\n      0x20\n      add\n      0x00\n      keccak256\n      0x00\n        /* \"projects/EthertransfersSecPetterns.sol\":1802:1835  balances[msg.sender] += msg.value */\n      dup3\n      dup3\n      sload\n      tag_27\n      swap2\n      swap1\n      tag_21\n      jump\t// in\n    tag_27:\n      swap3\n      pop\n      pop\n      dup2\n      swap1\n      sstore\n      pop\n        /* \"projects/EthertransfersSecPetterns.sol\":1846:1854  deposits */\n      0x02\n        /* \"projects/EthertransfersSecPetterns.sol\":1846:1866  deposits[msg.sender] */\n      0x00\n        /* \"projects/EthertransfersSecPetterns.sol\":1855:1865  msg.sender */\n      caller\n        /* \"projects/EthertransfersSecPetterns.sol\":1846:1866  deposits[msg.sender] */\n      0xffffffffffffffffffffffffffffffffffffffff\n      and\n      0xffffffffffffffffffffffffffffffffffffffff\n      and\n      dup2\n      mstore\n      0x20\n      add\n      swap1\n      dup2\n      mstore\n      0x20\n      add\n      0x00\n      keccak256\n        /* \"projects/EthertransfersSecPetterns.sol\":1872:1936  Deposit(msg.value, block.timestamp, deposits[msg.sender].length) */\n      mload(0x40)\n      dup1\n      0x60\n      add\n      0x40\n      mstore\n      dup1\n        /* \"projects/EthertransfersSecPetterns.sol\":1880:1889  msg.value */\n      callvalue\n        /* \"projects/EthertransfersSecPetterns.sol\":1872:1936  Deposit(msg.value, block.timestamp, deposits[msg.sender].length) */\n      dup2\n      mstore\n      0x20\n      add\n        /* \"projects/EthertransfersSecPetterns.sol\":1891:1906  block.timestamp */\n      timestamp\n        /* \"projects/EthertransfersSecPetterns.sol\":1872:1936  Deposit(msg.value, block.timestamp, deposits[msg.sender].length) */\n      dup2\n      mstore\n      0x20\n      add\n        /* \"projects/EthertransfersSecPetterns.sol\":1908:1916  deposits */\n      0x02\n        /* \"projects/EthertransfersSecPetterns.sol\":1908:1928  deposits[msg.sender] */\n      0x00\n        /* \"projects/EthertransfersSecPetterns.sol\":1917:1927  msg.sender */\n      caller\n        /* \"projects/EthertransfersSecPetterns.sol\":1908:1928  deposits[msg.sender] */\n      0xffffffffffffffffffffffffffffffffffffffff\n      and\n      0xffffffffffffffffffffffffffffffffffffffff\n      and\n      dup2\n      mstore\n      0x20\n      add\n      swap1\n      dup2\n      mstore\n      0x20\n      add\n      0x00\n      keccak256\n        /* \"projects/EthertransfersSecPetterns.sol\":1908:1935  deposits[msg.sender].length */\n      dup1\n      sload\n      swap1\n      pop\n        /* \"projects/EthertransfersSecPetterns.sol\":1872:1936  Deposit(msg.value, block.timestamp, deposits[msg.sender].length) */\n      dup2\n      mstore\n      pop\n        /* \"projects/EthertransfersSecPetterns.sol\":1846:1937  deposits[msg.sender].push(Deposit(msg.value, block.timestamp, deposits[msg.sender].length)) */\n      swap1\n      dup1\n      0x01\n      dup2\n      sload\n      add\n      dup1\n      dup3\n      sstore\n      dup1\n      swap2\n      pop\n      pop\n      0x01\n      swap1\n      sub\n      swap1\n      0x00\n      mstore\n      keccak256(0x00, 0x20)\n      swap1\n      0x03\n      mul\n      add\n      0x00\n      swap1\n      swap2\n      swap1\n      swap2\n      swap1\n      swap2\n      pop\n      0x00\n      dup3\n      add\n      mload\n      dup2\n      0x00\n      add\n      sstore\n      0x20\n      dup3\n      add\n      mload\n      dup2\n      0x01\n      add\n      sstore\n      0x40\n      dup3\n      add\n      mload\n      dup2\n      0x02\n      add\n      sstore\n      pop\n      pop\n        /* \"projects/EthertransfersSecPetterns.sol\":1965:1975  msg.sender */\n      caller\n        /* \"projects/EthertransfersSecPetterns.sol\":1953:1987  DepositMade(msg.sender, msg.value) */\n      0xffffffffffffffffffffffffffffffffffffffff\n      and\n      0xd15c9547ea5c06670c0010ce19bc32d54682a4b3801ece7f3ab0c3f17106b4bb\n        /* \"projects/EthertransfersSecPetterns.sol\":1977:1986  msg.value */\n      callvalue\n        /* \"projects/EthertransfersSecPetterns.sol\":1953:1987  DepositMade(msg.sender, msg.value) */\n      mload(0x40)\n      tag_29\n      swap2\n      swap1\n      tag_24\n      jump\t// in\n    tag_29:\n      mload(0x40)\n      dup1\n      swap2\n      sub\n      swap1\n      log2\n        /* \"projects/EthertransfersSecPetterns.sol\":60:6303  contract SecureVaultAuditDemo {... */\n      stop\n        /* \"projects/EthertransfersSecPetterns.sol\":3632:3747  function getDepositCount(address user) external view returns (uint) {... */\n    tag_3:\n      callvalue\n      dup1\n      iszero\n      tag_30\n      jumpi\n      revert(0x00, 0x00)\n    tag_30:\n      pop\n      tag_31\n      0x04\n      dup1\n      calldatasize\n      sub\n      dup2\n      add\n      swap1\n      tag_32\n      swap2\n      swap1\n      tag_33\n      jump\t// in\n    tag_32:\n      tag_34\n      jump\t// in\n    tag_31:\n      mload(0x40)\n      tag_35\n      swap2\n      swap1\n      tag_24\n      jump\t// in\n    tag_35:\n      mload(0x40)\n      dup1\n      swap2\n      sub\n      swap1\n      return\n        /* \"projects/EthertransfersSecPetterns.sol\":3755:4002  function getDeposit(address user, uint idx) external view returns (uint amount, uint timestamp, uint index) {... */\n    tag_4:\n      callvalue\n      dup1\n      iszero\n      tag_36\n      jumpi\n      revert(0x00, 0x00)\n    tag_36:\n      pop\n      tag_37\n      0x04\n      dup1\n      calldatasize\n      sub\n      dup2\n      add\n      swap1\n      tag_38\n      swap2\n      swap1\n      tag_39\n      jump\t// in\n    tag_38:\n      tag_40\n      jump\t// in\n    tag_37:\n      mload(0x40)\n      tag_41\n      swap4\n      swap3\n      swap2\n      swap1\n      tag_42\n      jump\t// in\n    tag_41:\n      mload(0x40)\n      dup1\n      swap2\n      sub\n      swap1\n      return\n        /* \"projects/EthertransfersSecPetterns.sol\":158:198  mapping(address => uint) public balances */\n    tag_5:\n      callvalue\n      dup1\n      iszero\n      tag_43\n      jumpi\n      revert(0x00, 0x00)\n    tag_43:\n      pop\n      tag_44\n      0x04\n      dup1\n      calldatasize\n      sub\n      dup2\n      add\n      swap1\n      tag_45\n      swap2\n      swap1\n      tag_33\n      jump\t// in\n    tag_45:\n      tag_46\n      jump\t// in\n    tag_44:\n      mload(0x40)\n      tag_47\n      swap2\n      swap1\n      tag_24\n      jump\t// in\n    tag_47:\n      mload(0x40)\n      dup1\n      swap2\n      sub\n      swap1\n      return\n        /* \"projects/EthertransfersSecPetterns.sol\":2714:3088  function withdraw(uint amount) external noReentrant {... */\n    tag_6:\n      callvalue\n      dup1\n      iszero\n      tag_48\n      jumpi\n      revert(0x00, 0x00)\n    tag_48:\n      pop\n      tag_49\n      0x04\n      dup1\n      calldatasize\n      sub\n      dup2\n      add\n      swap1\n      tag_50\n      swap2\n      swap1\n      tag_51\n      jump\t// in\n    tag_50:\n      tag_52\n      jump\t// in\n    tag_49:\n      stop\n        /* \"projects/EthertransfersSecPetterns.sol\":4593:5256  function reveal(uint value, string calldata nonce) external {... */\n    tag_7:\n      callvalue\n      dup1\n      iszero\n      tag_53\n      jumpi\n      revert(0x00, 0x00)\n    tag_53:\n      pop\n      tag_54\n      0x04\n      dup1\n      calldatasize\n      sub\n      dup2\n      add\n      swap1\n      tag_55\n      swap2\n      swap1\n      tag_56\n      jump\t// in\n    tag_55:\n      tag_57\n      jump\t// in\n    tag_54:\n      stop\n        /* \"projects/EthertransfersSecPetterns.sol\":5722:6021  function invariantCheck() external view {... */\n    tag_8:\n      callvalue\n      dup1\n      iszero\n      tag_58\n      jumpi\n      revert(0x00, 0x00)\n    tag_58:\n      pop\n      tag_59\n      tag_60\n      jump\t// in\n    tag_59:\n      stop\n        /* \"projects/EthertransfersSecPetterns.sol\":5508:5644  function unsafeMultiply(uint a, uint b) external pure returns (uint) {... */\n    tag_9:\n      callvalue\n      dup1\n      iszero\n      tag_61\n      jumpi\n      revert(0x00, 0x00)\n    tag_61:\n      pop\n      tag_62\n      0x04\n      dup1\n      calldatasize\n      sub\n      dup2\n      add\n      swap1\n      tag_63\n      swap2\n      swap1\n      tag_64\n      jump\t// in\n    tag_63:\n      tag_65\n      jump\t// in\n    tag_62:\n      mload(0x40)\n      tag_66\n      swap2\n      swap1\n      tag_24\n      jump\t// in\n    tag_66:\n      mload(0x40)\n      dup1\n      swap2\n      sub\n      swap1\n      return\n        /* \"projects/EthertransfersSecPetterns.sol\":4010:4113  function contractBalance() external view returns (uint) {... */\n    tag_10:\n      callvalue\n      dup1\n      iszero\n      tag_67\n      jumpi\n      revert(0x00, 0x00)\n    tag_67:\n      pop\n      tag_68\n      tag_69\n      jump\t// in\n    tag_68:\n      mload(0x40)\n      tag_70\n      swap2\n      swap1\n      tag_24\n      jump\t// in\n    tag_70:\n      mload(0x40)\n      dup1\n      swap2\n      sub\n      swap1\n      return\n        /* \"projects/EthertransfersSecPetterns.sol\":131:151  address public owner */\n    tag_11:\n      callvalue\n      dup1\n      iszero\n      tag_71\n      jumpi\n      revert(0x00, 0x00)\n    tag_71:\n      pop\n      tag_72\n      tag_73\n      jump\t// in\n    tag_72:\n      mload(0x40)\n      tag_74\n      swap2\n      swap1\n      tag_75\n      jump\t// in\n    tag_74:\n      mload(0x40)\n      dup1\n      swap2\n      sub\n      swap1\n      return\n        /* \"projects/EthertransfersSecPetterns.sol\":6149:6300  function changeOwner(address newOwner) external onlyOwner {... */\n    tag_12:\n      callvalue\n      dup1\n      iszero\n      tag_76\n      jumpi\n      revert(0x00, 0x00)\n    tag_76:\n      pop\n      tag_77\n      0x04\n      dup1\n      calldatasize\n      sub\n      dup2\n      add\n      swap1\n      tag_78\n      swap2\n      swap1\n      tag_33\n      jump\t// in\n    tag_78:\n      tag_79\n      jump\t// in\n    tag_77:\n      stop\n        /* \"projects/EthertransfersSecPetterns.sol\":2339:2628  function deposit() external payable {... */\n    tag_13:\n      tag_80\n      tag_81\n      jump\t// in\n    tag_80:\n      stop\n        /* \"projects/EthertransfersSecPetterns.sol\":3160:3530  function ownerWithdraw(address payable to, uint amount) external onlyOwner noReentrant {... */\n    tag_14:\n      callvalue\n      dup1\n      iszero\n      tag_82\n      jumpi\n      revert(0x00, 0x00)\n    tag_82:\n      pop\n      tag_83\n      0x04\n      dup1\n      calldatasize\n      sub\n      dup2\n      add\n      swap1\n      tag_84\n      swap2\n      swap1\n      tag_85\n      jump\t// in\n    tag_84:\n      tag_86\n      jump\t// in\n    tag_83:\n      stop\n        /* \"projects/EthertransfersSecPetterns.sol\":4286:4511  function commit(bytes32 hash) external payable {... */\n    tag_15:\n      tag_87\n      0x04\n      dup1\n      calldatasize\n      sub\n      dup2\n      add\n      swap1\n      tag_88\n      swap2\n      swap1\n      tag_89\n      jump\t// in\n    tag_88:\n      tag_90\n      jump\t// in\n    tag_87:\n      stop\n        /* \"projects/EthertransfersSecPetterns.sol\":3632:3747  function getDepositCount(address user) external view returns (uint) {... */\n    tag_34:\n        /* \"projects/EthertransfersSecPetterns.sol\":3694:3698  uint */\n      0x00\n        /* \"projects/EthertransfersSecPetterns.sol\":3718:3726  deposits */\n      0x02\n        /* \"projects/EthertransfersSecPetterns.sol\":3718:3732  deposits[user] */\n      0x00\n        /* \"projects/EthertransfersSecPetterns.sol\":3727:3731  user */\n      dup4\n        /* \"projects/EthertransfersSecPetterns.sol\":3718:3732  deposits[user] */\n      0xffffffffffffffffffffffffffffffffffffffff\n      and\n      0xffffffffffffffffffffffffffffffffffffffff\n      and\n      dup2\n      mstore\n      0x20\n      add\n      swap1\n      dup2\n      mstore\n      0x20\n      add\n      0x00\n      keccak256\n        /* \"projects/EthertransfersSecPetterns.sol\":3718:3739  deposits[user].length */\n      dup1\n      sload\n      swap1\n      pop\n        /* \"projects/EthertransfersSecPetterns.sol\":3711:3739  return deposits[user].length */\n      swap1\n      pop\n        /* \"projects/EthertransfersSecPetterns.sol\":3632:3747  function getDepositCount(address user) external view returns (uint) {... */\n      swap2\n      swap1\n      pop\n      jump\t// out\n        /* \"projects/EthertransfersSecPetterns.sol\":3755:4002  function getDeposit(address user, uint idx) external view returns (uint amount, uint timestamp, uint index) {... */\n    tag_40:\n        /* \"projects/EthertransfersSecPetterns.sol\":3822:3833  uint amount */\n      0x00\n        /* \"projects/EthertransfersSecPetterns.sol\":3835:3849  uint timestamp */\n      0x00\n        /* \"projects/EthertransfersSecPetterns.sol\":3851:3861  uint index */\n      0x00\n        /* \"projects/EthertransfersSecPetterns.sol\":3874:3890  Deposit memory d */\n      0x00\n        /* \"projects/EthertransfersSecPetterns.sol\":3893:3901  deposits */\n      0x02\n        /* \"projects/EthertransfersSecPetterns.sol\":3893:3907  deposits[user] */\n      0x00\n        /* \"projects/EthertransfersSecPetterns.sol\":3902:3906  user */\n      dup8\n        /* \"projects/EthertransfersSecPetterns.sol\":3893:3907  deposits[user] */\n      0xffffffffffffffffffffffffffffffffffffffff\n      and\n      0xffffffffffffffffffffffffffffffffffffffff\n      and\n      dup2\n      mstore\n      0x20\n      add\n      swap1\n      dup2\n      mstore\n      0x20\n      add\n      0x00\n      keccak256\n        /* \"projects/EthertransfersSecPetterns.sol\":3908:3911  idx */\n      dup6\n        /* \"projects/EthertransfersSecPetterns.sol\":3893:3912  deposits[user][idx] */\n      dup2\n      sload\n      dup2\n      lt\n      tag_93\n      jumpi\n      tag_94\n      tag_95\n      jump\t// in\n    tag_94:\n    tag_93:\n      swap1\n      0x00\n      mstore\n      keccak256(0x00, 0x20)\n      swap1\n      0x03\n      mul\n      add\n        /* \"projects/EthertransfersSecPetterns.sol\":3874:3912  Deposit memory d = deposits[user][idx] */\n      mload(0x40)\n      dup1\n      0x60\n      add\n      0x40\n      mstore\n      swap1\n      dup2\n      0x00\n      dup3\n      add\n      sload\n      dup2\n      mstore\n      0x20\n      add\n      0x01\n      dup3\n      add\n      sload\n      dup2\n      mstore\n      0x20\n      add\n      0x02\n      dup3\n      add\n      sload\n      dup2\n      mstore\n      pop\n      pop\n      swap1\n      pop\n        /* \"projects/EthertransfersSecPetterns.sol\":3963:3964  d */\n      dup1\n        /* \"projects/EthertransfersSecPetterns.sol\":3963:3971  d.amount */\n      0x00\n      add\n      mload\n        /* \"projects/EthertransfersSecPetterns.sol\":3973:3974  d */\n      dup2\n        /* \"projects/EthertransfersSecPetterns.sol\":3973:3984  d.timestamp */\n      0x20\n      add\n      mload\n        /* \"projects/EthertransfersSecPetterns.sol\":3986:3987  d */\n      dup3\n        /* \"projects/EthertransfersSecPetterns.sol\":3986:3993  d.index */\n      0x40\n      add\n      mload\n        /* \"projects/EthertransfersSecPetterns.sol\":3955:3994  return (d.amount, d.timestamp, d.index) */\n      swap4\n      pop\n      swap4\n      pop\n      swap4\n      pop\n      pop\n        /* \"projects/EthertransfersSecPetterns.sol\":3755:4002  function getDeposit(address user, uint idx) external view returns (uint amount, uint timestamp, uint index) {... */\n      swap3\n      pop\n      swap3\n      pop\n      swap3\n      jump\t// out\n        /* \"projects/EthertransfersSecPetterns.sol\":158:198  mapping(address => uint) public balances */\n    tag_46:\n      mstore(0x20, 0x01)\n      dup1\n      0x00\n      mstore\n      keccak256(0x00, 0x40)\n      0x00\n      swap2\n      pop\n      swap1\n      pop\n      sload\n      dup2\n      jump\t// out\n        /* \"projects/EthertransfersSecPetterns.sol\":2714:3088  function withdraw(uint amount) external noReentrant {... */\n    tag_52:\n        /* \"projects/EthertransfersSecPetterns.sol\":1432:1438  locked */\n      0x04\n      0x00\n      swap1\n      sload\n      swap1\n      0x0100\n      exp\n      swap1\n      div\n      0xff\n      and\n        /* \"projects/EthertransfersSecPetterns.sol\":1431:1438  !locked */\n      iszero\n        /* \"projects/EthertransfersSecPetterns.sol\":1423:1452  require(!locked, \"Reentrant\") */\n      tag_98\n      jumpi\n      mload(0x40)\n      0x08c379a000000000000000000000000000000000000000000000000000000000\n      dup2\n      mstore\n      0x04\n      add\n      tag_99\n      swap1\n      tag_100\n      jump\t// in\n    tag_99:\n      mload(0x40)\n      dup1\n      swap2\n      sub\n      swap1\n      revert\n    tag_98:\n        /* \"projects/EthertransfersSecPetterns.sol\":1472:1476  true */\n      0x01\n        /* \"projects/EthertransfersSecPetterns.sol\":1463:1469  locked */\n      0x04\n      0x00\n        /* \"projects/EthertransfersSecPetterns.sol\":1463:1476  locked = true */\n      0x0100\n      exp\n      dup2\n      sload\n      dup2\n      0xff\n      mul\n      not\n      and\n      swap1\n      dup4\n      iszero\n      iszero\n      mul\n      or\n      swap1\n      sstore\n      pop\n        /* \"projects/EthertransfersSecPetterns.sol\":2809:2815  amount */\n      dup1\n        /* \"projects/EthertransfersSecPetterns.sol\":2785:2793  balances */\n      0x01\n        /* \"projects/EthertransfersSecPetterns.sol\":2785:2805  balances[msg.sender] */\n      0x00\n        /* \"projects/EthertransfersSecPetterns.sol\":2794:2804  msg.sender */\n      caller\n        /* \"projects/EthertransfersSecPetterns.sol\":2785:2805  balances[msg.sender] */\n      0xffffffffffffffffffffffffffffffffffffffff\n      and\n      0xffffffffffffffffffffffffffffffffffffffff\n      and\n      dup2\n      mstore\n      0x20\n      add\n      swap1\n      dup2\n      mstore\n      0x20\n      add\n      0x00\n      keccak256\n      sload\n        /* \"projects/EthertransfersSecPetterns.sol\":2785:2815  balances[msg.sender] >= amount */\n      lt\n      iszero\n        /* \"projects/EthertransfersSecPetterns.sol\":2777:2840  require(balances[msg.sender] >= amount, \"Insufficient balance\") */\n      tag_102\n      jumpi\n      mload(0x40)\n      0x08c379a000000000000000000000000000000000000000000000000000000000\n      dup2\n      mstore\n      0x04\n      add\n      tag_103\n      swap1\n      tag_104\n      jump\t// in\n    tag_103:\n      mload(0x40)\n      dup1\n      swap2\n      sub\n      swap1\n      revert\n    tag_102:\n        /* \"projects/EthertransfersSecPetterns.sol\":2897:2903  amount */\n      dup1\n        /* \"projects/EthertransfersSecPetterns.sol\":2873:2881  balances */\n      0x01\n        /* \"projects/EthertransfersSecPetterns.sol\":2873:2893  balances[msg.sender] */\n      0x00\n        /* \"projects/EthertransfersSecPetterns.sol\":2882:2892  msg.sender */\n      caller\n        /* \"projects/EthertransfersSecPetterns.sol\":2873:2893  balances[msg.sender] */\n      0xffffffffffffffffffffffffffffffffffffffff\n      and\n      0xffffffffffffffffffffffffffffffffffffffff\n      and\n      dup2\n      mstore\n      0x20\n      add\n      swap1\n      dup2\n      mstore\n      0x20\n      add\n      0x00\n      keccak256\n      0x00\n        /* \"projects/EthertransfersSecPetterns.sol\":2873:2903  balances[msg.sender] -= amount */\n      dup3\n      dup3\n      sload\n      tag_105\n      swap2\n      swap1\n      tag_106\n      jump\t// in\n    tag_105:\n      swap3\n      pop\n      pop\n      dup2\n      swap1\n      sstore\n      pop\n        /* \"projects/EthertransfersSecPetterns.sol\":2941:2950  bool sent */\n      0x00\n        /* \"projects/EthertransfersSecPetterns.sol\":2956:2966  msg.sender */\n      caller\n        /* \"projects/EthertransfersSecPetterns.sol\":2956:2971  msg.sender.call */\n      0xffffffffffffffffffffffffffffffffffffffff\n      and\n        /* \"projects/EthertransfersSecPetterns.sol\":2979:2985  amount */\n      dup3\n        /* \"projects/EthertransfersSecPetterns.sol\":2956:2990  msg.sender.call{value: amount}(\"\") */\n      mload(0x40)\n      tag_107\n      swap1\n      tag_108\n      jump\t// in\n    tag_107:\n      0x00\n      mload(0x40)\n      dup1\n      dup4\n      sub\n      dup2\n      dup6\n      dup8\n      gas\n      call\n      swap3\n      pop\n      pop\n      pop\n      returndatasize\n      dup1\n      0x00\n      dup2\n      eq\n      tag_111\n      jumpi\n      mload(0x40)\n      swap2\n      pop\n      and(add(returndatasize, 0x3f), not(0x1f))\n      dup3\n      add\n      0x40\n      mstore\n      returndatasize\n      dup3\n      mstore\n      returndatasize\n      0x00\n      0x20\n      dup5\n      add\n      returndatacopy\n      jump(tag_110)\n    tag_111:\n      0x60\n      swap2\n      pop\n    tag_110:\n      pop\n        /* \"projects/EthertransfersSecPetterns.sol\":2940:2990  (bool sent, ) = msg.sender.call{value: amount}(\"\") */\n      pop\n      swap1\n      pop\n        /* \"projects/EthertransfersSecPetterns.sol\":3009:3013  sent */\n      dup1\n        /* \"projects/EthertransfersSecPetterns.sol\":3001:3033  require(sent, \"Transfer failed\") */\n      tag_112\n      jumpi\n      mload(0x40)\n      0x08c379a000000000000000000000000000000000000000000000000000000000\n      dup2\n      mstore\n      0x04\n      add\n      tag_113\n      swap1\n      tag_114\n      jump\t// in\n    tag_113:\n      mload(0x40)\n      dup1\n      swap2\n      sub\n      swap1\n      revert\n    tag_112:\n        /* \"projects/EthertransfersSecPetterns.sol\":3061:3071  msg.sender */\n      caller\n        /* \"projects/EthertransfersSecPetterns.sol\":3051:3080  Withdrawn(msg.sender, amount) */\n      0xffffffffffffffffffffffffffffffffffffffff\n      and\n      0x7084f5476618d8e60b11ef0d7d3f06914655adb8793e28ff7f018d4c76d505d5\n        /* \"projects/EthertransfersSecPetterns.sol\":3073:3079  amount */\n      dup4\n        /* \"projects/EthertransfersSecPetterns.sol\":3051:3080  Withdrawn(msg.sender, amount) */\n      mload(0x40)\n      tag_115\n      swap2\n      swap1\n      tag_24\n      jump\t// in\n    tag_115:\n      mload(0x40)\n      dup1\n      swap2\n      sub\n      swap1\n      log2\n        /* \"projects/EthertransfersSecPetterns.sol\":2766:3088  {... */\n      pop\n        /* \"projects/EthertransfersSecPetterns.sol\":1508:1513  false */\n      0x00\n        /* \"projects/EthertransfersSecPetterns.sol\":1499:1505  locked */\n      0x04\n      0x00\n        /* \"projects/EthertransfersSecPetterns.sol\":1499:1513  locked = false */\n      0x0100\n      exp\n      dup2\n      sload\n      dup2\n      0xff\n      mul\n      not\n      and\n      swap1\n      dup4\n      iszero\n      iszero\n      mul\n      or\n      swap1\n      sstore\n      pop\n        /* \"projects/EthertransfersSecPetterns.sol\":2714:3088  function withdraw(uint amount) external noReentrant {... */\n      pop\n      jump\t// out\n        /* \"projects/EthertransfersSecPetterns.sol\":4593:5256  function reveal(uint value, string calldata nonce) external {... */\n    tag_57:\n        /* \"projects/EthertransfersSecPetterns.sol\":4664:4680  Commit storage c */\n      0x00\n        /* \"projects/EthertransfersSecPetterns.sol\":4683:4690  commits */\n      0x03\n        /* \"projects/EthertransfersSecPetterns.sol\":4683:4702  commits[msg.sender] */\n      0x00\n        /* \"projects/EthertransfersSecPetterns.sol\":4691:4701  msg.sender */\n      caller\n        /* \"projects/EthertransfersSecPetterns.sol\":4683:4702  commits[msg.sender] */\n      0xffffffffffffffffffffffffffffffffffffffff\n      and\n      0xffffffffffffffffffffffffffffffffffffffff\n      and\n      dup2\n      mstore\n      0x20\n      add\n      swap1\n      dup2\n      mstore\n      0x20\n      add\n      0x00\n      keccak256\n        /* \"projects/EthertransfersSecPetterns.sol\":4664:4702  Commit storage c = commits[msg.sender] */\n      swap1\n      pop\n        /* \"projects/EthertransfersSecPetterns.sol\":4731:4732  0 */\n      0x00\n        /* \"projects/EthertransfersSecPetterns.sol\":4721:4722  c */\n      dup2\n        /* \"projects/EthertransfersSecPetterns.sol\":4721:4728  c.stake */\n      0x00\n      add\n      sload\n        /* \"projects/EthertransfersSecPetterns.sol\":4721:4732  c.stake > 0 */\n      gt\n        /* \"projects/EthertransfersSecPetterns.sol\":4713:4746  require(c.stake > 0, \"No commit\") */\n      tag_117\n      jumpi\n      mload(0x40)\n      0x08c379a000000000000000000000000000000000000000000000000000000000\n      dup2\n      mstore\n      0x04\n      add\n      tag_118\n      swap1\n      tag_119\n      jump\t// in\n    tag_118:\n      mload(0x40)\n      dup1\n      swap2\n      sub\n      swap1\n      revert\n    tag_117:\n        /* \"projects/EthertransfersSecPetterns.sol\":4766:4767  c */\n      dup1\n        /* \"projects/EthertransfersSecPetterns.sol\":4766:4776  c.revealed */\n      0x03\n      add\n      0x00\n      swap1\n      sload\n      swap1\n      0x0100\n      exp\n      swap1\n      div\n      0xff\n      and\n        /* \"projects/EthertransfersSecPetterns.sol\":4765:4776  !c.revealed */\n      iszero\n        /* \"projects/EthertransfersSecPetterns.sol\":4757:4797  require(!c.revealed, \"Already revealed\") */\n      tag_120\n      jumpi\n      mload(0x40)\n      0x08c379a000000000000000000000000000000000000000000000000000000000\n      dup2\n      mstore\n      0x04\n      add\n      tag_121\n      swap1\n      tag_122\n      jump\t// in\n    tag_121:\n      mload(0x40)\n      dup1\n      swap2\n      sub\n      swap1\n      revert\n    tag_120:\n        /* \"projects/EthertransfersSecPetterns.sol\":4808:4824  bytes32 expected */\n      0x00\n        /* \"projects/EthertransfersSecPetterns.sol\":4854:4859  value */\n      dup5\n        /* \"projects/EthertransfersSecPetterns.sol\":4861:4866  nonce */\n      dup5\n      dup5\n        /* \"projects/EthertransfersSecPetterns.sol\":4868:4878  msg.sender */\n      caller\n        /* \"projects/EthertransfersSecPetterns.sol\":4837:4879  abi.encodePacked(value, nonce, msg.sender) */\n      add(0x20, mload(0x40))\n      tag_123\n      swap5\n      swap4\n      swap3\n      swap2\n      swap1\n      tag_124\n      jump\t// in\n    tag_123:\n      mload(0x40)\n      0x20\n      dup2\n      dup4\n      sub\n      sub\n      dup2\n      mstore\n      swap1\n      0x40\n      mstore\n        /* \"projects/EthertransfersSecPetterns.sol\":4827:4880  keccak256(abi.encodePacked(value, nonce, msg.sender)) */\n      dup1\n      mload\n      swap1\n      0x20\n      add\n      keccak256\n        /* \"projects/EthertransfersSecPetterns.sol\":4808:4880  bytes32 expected = keccak256(abi.encodePacked(value, nonce, msg.sender)) */\n      swap1\n      pop\n        /* \"projects/EthertransfersSecPetterns.sol\":4911:4912  c */\n      dup2\n        /* \"projects/EthertransfersSecPetterns.sol\":4911:4917  c.hash */\n      0x01\n      add\n      sload\n        /* \"projects/EthertransfersSecPetterns.sol\":4899:4907  expected */\n      dup2\n        /* \"projects/EthertransfersSecPetterns.sol\":4899:4917  expected == c.hash */\n      eq\n        /* \"projects/EthertransfersSecPetterns.sol\":4891:4935  require(expected == c.hash, \"Hash mismatch\") */\n      tag_125\n      jumpi\n      mload(0x40)\n      0x08c379a000000000000000000000000000000000000000000000000000000000\n      dup2\n      mstore\n      0x04\n      add\n      tag_126\n      swap1\n      tag_127\n      jump\t// in\n    tag_126:\n      mload(0x40)\n      dup1\n      swap2\n      sub\n      swap1\n      revert\n    tag_125:\n        /* \"projects/EthertransfersSecPetterns.sol\":4961:4965  true */\n      0x01\n        /* \"projects/EthertransfersSecPetterns.sol\":4948:4949  c */\n      dup3\n        /* \"projects/EthertransfersSecPetterns.sol\":4948:4958  c.revealed */\n      0x03\n      add\n      0x00\n        /* \"projects/EthertransfersSecPetterns.sol\":4948:4965  c.revealed = true */\n      0x0100\n      exp\n      dup2\n      sload\n      dup2\n      0xff\n      mul\n      not\n      and\n      swap1\n      dup4\n      iszero\n      iszero\n      mul\n      or\n      swap1\n      sstore\n      pop\n        /* \"projects/EthertransfersSecPetterns.sol\":5096:5101  value */\n      dup5\n        /* \"projects/EthertransfersSecPetterns.sol\":5086:5087  c */\n      dup3\n        /* \"projects/EthertransfersSecPetterns.sol\":5086:5093  c.stake */\n      0x00\n      add\n      sload\n        /* \"projects/EthertransfersSecPetterns.sol\":5086:5101  c.stake + value */\n      tag_128\n      swap2\n      swap1\n      tag_21\n      jump\t// in\n    tag_128:\n        /* \"projects/EthertransfersSecPetterns.sol\":5062:5070  balances */\n      0x01\n        /* \"projects/EthertransfersSecPetterns.sol\":5062:5082  balances[msg.sender] */\n      0x00\n        /* \"projects/EthertransfersSecPetterns.sol\":5071:5081  msg.sender */\n      caller\n        /* \"projects/EthertransfersSecPetterns.sol\":5062:5082  balances[msg.sender] */\n      0xffffffffffffffffffffffffffffffffffffffff\n      and\n      0xffffffffffffffffffffffffffffffffffffffff\n      and\n      dup2\n      mstore\n      0x20\n      add\n      swap1\n      dup2\n      mstore\n      0x20\n      add\n      0x00\n      keccak256\n      0x00\n        /* \"projects/EthertransfersSecPetterns.sol\":5062:5101  balances[msg.sender] += c.stake + value */\n      dup3\n      dup3\n      sload\n      tag_129\n      swap2\n      swap1\n      tag_21\n      jump\t// in\n    tag_129:\n      swap3\n      pop\n      pop\n      dup2\n      swap1\n      sstore\n      pop\n        /* \"projects/EthertransfersSecPetterns.sol\":5126:5136  msg.sender */\n      caller\n        /* \"projects/EthertransfersSecPetterns.sol\":5117:5144  Revealed(msg.sender, value) */\n      0xffffffffffffffffffffffffffffffffffffffff\n      and\n      0x36cb84e26ec058ba1aadcd698199fa19568d3c52427b175bd593b94ce83f67c0\n        /* \"projects/EthertransfersSecPetterns.sol\":5138:5143  value */\n      dup7\n        /* \"projects/EthertransfersSecPetterns.sol\":5117:5144  Revealed(msg.sender, value) */\n      mload(0x40)\n      tag_130\n      swap2\n      swap1\n      tag_24\n      jump\t// in\n    tag_130:\n      mload(0x40)\n      dup1\n      swap2\n      sub\n      swap1\n      log2\n        /* \"projects/EthertransfersSecPetterns.sol\":5229:5236  commits */\n      0x03\n        /* \"projects/EthertransfersSecPetterns.sol\":5229:5248  commits[msg.sender] */\n      0x00\n        /* \"projects/EthertransfersSecPetterns.sol\":5237:5247  msg.sender */\n      caller\n        /* \"projects/EthertransfersSecPetterns.sol\":5229:5248  commits[msg.sender] */\n      0xffffffffffffffffffffffffffffffffffffffff\n      and\n      0xffffffffffffffffffffffffffffffffffffffff\n      and\n      dup2\n      mstore\n      0x20\n      add\n      swap1\n      dup2\n      mstore\n      0x20\n      add\n      0x00\n      keccak256\n      0x00\n        /* \"projects/EthertransfersSecPetterns.sol\":5222:5248  delete commits[msg.sender] */\n      0x00\n      dup3\n      add\n      0x00\n      swap1\n      sstore\n      0x01\n      dup3\n      add\n      0x00\n      swap1\n      sstore\n      0x02\n      dup3\n      add\n      0x00\n      swap1\n      sstore\n      0x03\n      dup3\n      add\n      exp(0x0100, 0x00)\n      dup2\n      sload\n      swap1\n      0xff\n      mul\n      not\n      and\n      swap1\n      sstore\n      pop\n      pop\n        /* \"projects/EthertransfersSecPetterns.sol\":4653:5256  {... */\n      pop\n      pop\n        /* \"projects/EthertransfersSecPetterns.sol\":4593:5256  function reveal(uint value, string calldata nonce) external {... */\n      pop\n      pop\n      pop\n      jump\t// out\n        /* \"projects/EthertransfersSecPetterns.sol\":5722:6021  function invariantCheck() external view {... */\n    tag_60:\n      jump\t// out\n        /* \"projects/EthertransfersSecPetterns.sol\":5508:5644  function unsafeMultiply(uint a, uint b) external pure returns (uint) {... */\n    tag_65:\n        /* \"projects/EthertransfersSecPetterns.sol\":5571:5575  uint */\n      0x00\n        /* \"projects/EthertransfersSecPetterns.sol\":5624:5625  b */\n      dup2\n        /* \"projects/EthertransfersSecPetterns.sol\":5620:5621  a */\n      dup4\n        /* \"projects/EthertransfersSecPetterns.sol\":5620:5625  a * b */\n      mul\n        /* \"projects/EthertransfersSecPetterns.sol\":5613:5625  return a * b */\n      swap1\n      pop\n        /* \"projects/EthertransfersSecPetterns.sol\":5508:5644  function unsafeMultiply(uint a, uint b) external pure returns (uint) {... */\n      swap3\n      swap2\n      pop\n      pop\n      jump\t// out\n        /* \"projects/EthertransfersSecPetterns.sol\":4010:4113  function contractBalance() external view returns (uint) {... */\n    tag_69:\n        /* \"projects/EthertransfersSecPetterns.sol\":4060:4064  uint */\n      0x00\n        /* \"projects/EthertransfersSecPetterns.sol\":4084:4105  address(this).balance */\n      selfbalance\n        /* \"projects/EthertransfersSecPetterns.sol\":4077:4105  return address(this).balance */\n      swap1\n      pop\n        /* \"projects/EthertransfersSecPetterns.sol\":4010:4113  function contractBalance() external view returns (uint) {... */\n      swap1\n      jump\t// out\n        /* \"projects/EthertransfersSecPetterns.sol\":131:151  address public owner */\n    tag_73:\n      0x00\n      0x00\n      swap1\n      sload\n      swap1\n      0x0100\n      exp\n      swap1\n      div\n      0xffffffffffffffffffffffffffffffffffffffff\n      and\n      dup2\n      jump\t// out\n        /* \"projects/EthertransfersSecPetterns.sol\":6149:6300  function changeOwner(address newOwner) external onlyOwner {... */\n    tag_79:\n        /* \"projects/EthertransfersSecPetterns.sol\":1246:1251  owner */\n      0x00\n      0x00\n      swap1\n      sload\n      swap1\n      0x0100\n      exp\n      swap1\n      div\n      0xffffffffffffffffffffffffffffffffffffffff\n      and\n        /* \"projects/EthertransfersSecPetterns.sol\":1232:1251  msg.sender == owner */\n      0xffffffffffffffffffffffffffffffffffffffff\n      and\n        /* \"projects/EthertransfersSecPetterns.sol\":1232:1242  msg.sender */\n      caller\n        /* \"projects/EthertransfersSecPetterns.sol\":1232:1251  msg.sender == owner */\n      0xffffffffffffffffffffffffffffffffffffffff\n      and\n      eq\n        /* \"projects/EthertransfersSecPetterns.sol\":1224:1265  require(msg.sender == owner, \"Not owner\") */\n      tag_135\n      jumpi\n      mload(0x40)\n      0x08c379a000000000000000000000000000000000000000000000000000000000\n      dup2\n      mstore\n      0x04\n      add\n      tag_136\n      swap1\n      tag_137\n      jump\t// in\n    tag_136:\n      mload(0x40)\n      dup1\n      swap2\n      sub\n      swap1\n      revert\n    tag_135:\n        /* \"projects/EthertransfersSecPetterns.sol\":6246:6247  0 */\n      0x00\n        /* \"projects/EthertransfersSecPetterns.sol\":6226:6248  newOwner != address(0) */\n      0xffffffffffffffffffffffffffffffffffffffff\n      and\n        /* \"projects/EthertransfersSecPetterns.sol\":6226:6234  newOwner */\n      dup2\n        /* \"projects/EthertransfersSecPetterns.sol\":6226:6248  newOwner != address(0) */\n      0xffffffffffffffffffffffffffffffffffffffff\n      and\n      sub\n        /* \"projects/EthertransfersSecPetterns.sol\":6218:6265  require(newOwner != address(0), \"Zero address\") */\n      tag_139\n      jumpi\n      mload(0x40)\n      0x08c379a000000000000000000000000000000000000000000000000000000000\n      dup2\n      mstore\n      0x04\n      add\n      tag_140\n      swap1\n      tag_141\n      jump\t// in\n    tag_140:\n      mload(0x40)\n      dup1\n      swap2\n      sub\n      swap1\n      revert\n    tag_139:\n        /* \"projects/EthertransfersSecPetterns.sol\":6284:6292  newOwner */\n      dup1\n        /* \"projects/EthertransfersSecPetterns.sol\":6276:6281  owner */\n      0x00\n      0x00\n        /* \"projects/EthertransfersSecPetterns.sol\":6276:6292  owner = newOwner */\n      0x0100\n      exp\n      dup2\n      sload\n      dup2\n      0xffffffffffffffffffffffffffffffffffffffff\n      mul\n      not\n      and\n      swap1\n      dup4\n      0xffffffffffffffffffffffffffffffffffffffff\n      and\n      mul\n      or\n      swap1\n      sstore\n      pop\n        /* \"projects/EthertransfersSecPetterns.sol\":6149:6300  function changeOwner(address newOwner) external onlyOwner {... */\n      pop\n      jump\t// out\n        /* \"projects/EthertransfersSecPetterns.sol\":2339:2628  function deposit() external payable {... */\n    tag_81:\n        /* \"projects/EthertransfersSecPetterns.sol\":2406:2407  0 */\n      0x00\n        /* \"projects/EthertransfersSecPetterns.sol\":2394:2403  msg.value */\n      callvalue\n        /* \"projects/EthertransfersSecPetterns.sol\":2394:2407  msg.value > 0 */\n      gt\n        /* \"projects/EthertransfersSecPetterns.sol\":2386:2424  require(msg.value > 0, \"Zero deposit\") */\n      tag_143\n      jumpi\n      mload(0x40)\n      0x08c379a000000000000000000000000000000000000000000000000000000000\n      dup2\n      mstore\n      0x04\n      add\n      tag_144\n      swap1\n      tag_145\n      jump\t// in\n    tag_144:\n      mload(0x40)\n      dup1\n      swap2\n      sub\n      swap1\n      revert\n    tag_143:\n        /* \"projects/EthertransfersSecPetterns.sol\":2459:2468  msg.value */\n      callvalue\n        /* \"projects/EthertransfersSecPetterns.sol\":2435:2443  balances */\n      0x01\n        /* \"projects/EthertransfersSecPetterns.sol\":2435:2455  balances[msg.sender] */\n      0x00\n        /* \"projects/EthertransfersSecPetterns.sol\":2444:2454  msg.sender */\n      caller\n        /* \"projects/EthertransfersSecPetterns.sol\":2435:2455  balances[msg.sender] */\n      0xffffffffffffffffffffffffffffffffffffffff\n      and\n      0xffffffffffffffffffffffffffffffffffffffff\n      and\n      dup2\n      mstore\n      0x20\n      add\n      swap1\n      dup2\n      mstore\n      0x20\n      add\n      0x00\n      keccak256\n      0x00\n        /* \"projects/EthertransfersSecPetterns.sol\":2435:2468  balances[msg.sender] += msg.value */\n      dup3\n      dup3\n      sload\n      tag_146\n      swap2\n      swap1\n      tag_21\n      jump\t// in\n    tag_146:\n      swap3\n      pop\n      pop\n      dup2\n      swap1\n      sstore\n      pop\n        /* \"projects/EthertransfersSecPetterns.sol\":2479:2487  deposits */\n      0x02\n        /* \"projects/EthertransfersSecPetterns.sol\":2479:2499  deposits[msg.sender] */\n      0x00\n        /* \"projects/EthertransfersSecPetterns.sol\":2488:2498  msg.sender */\n      caller\n        /* \"projects/EthertransfersSecPetterns.sol\":2479:2499  deposits[msg.sender] */\n      0xffffffffffffffffffffffffffffffffffffffff\n      and\n      0xffffffffffffffffffffffffffffffffffffffff\n      and\n      dup2\n      mstore\n      0x20\n      add\n      swap1\n      dup2\n      mstore\n      0x20\n      add\n      0x00\n      keccak256\n        /* \"projects/EthertransfersSecPetterns.sol\":2505:2569  Deposit(msg.value, block.timestamp, deposits[msg.sender].length) */\n      mload(0x40)\n      dup1\n      0x60\n      add\n      0x40\n      mstore\n      dup1\n        /* \"projects/EthertransfersSecPetterns.sol\":2513:2522  msg.value */\n      callvalue\n        /* \"projects/EthertransfersSecPetterns.sol\":2505:2569  Deposit(msg.value, block.timestamp, deposits[msg.sender].length) */\n      dup2\n      mstore\n      0x20\n      add\n        /* \"projects/EthertransfersSecPetterns.sol\":2524:2539  block.timestamp */\n      timestamp\n        /* \"projects/EthertransfersSecPetterns.sol\":2505:2569  Deposit(msg.value, block.timestamp, deposits[msg.sender].length) */\n      dup2\n      mstore\n      0x20\n      add\n        /* \"projects/EthertransfersSecPetterns.sol\":2541:2549  deposits */\n      0x02\n        /* \"projects/EthertransfersSecPetterns.sol\":2541:2561  deposits[msg.sender] */\n      0x00\n        /* \"projects/EthertransfersSecPetterns.sol\":2550:2560  msg.sender */\n      caller\n        /* \"projects/EthertransfersSecPetterns.sol\":2541:2561  deposits[msg.sender] */\n      0xffffffffffffffffffffffffffffffffffffffff\n      and\n      0xffffffffffffffffffffffffffffffffffffffff\n      and\n      dup2\n      mstore\n      0x20\n      add\n      swap1\n      dup2\n      mstore\n      0x20\n      add\n      0x00\n      keccak256\n        /* \"projects/EthertransfersSecPetterns.sol\":2541:2568  deposits[msg.sender].length */\n      dup1\n      sload\n      swap1\n      pop\n        /* \"projects/EthertransfersSecPetterns.sol\":2505:2569  Deposit(msg.value, block.timestamp, deposits[msg.sender].length) */\n      dup2\n      mstore\n      pop\n        /* \"projects/EthertransfersSecPetterns.sol\":2479:2570  deposits[msg.sender].push(Deposit(msg.value, block.timestamp, deposits[msg.sender].length)) */\n      swap1\n      dup1\n      0x01\n      dup2\n      sload\n      add\n      dup1\n      dup3\n      sstore\n      dup1\n      swap2\n      pop\n      pop\n      0x01\n      swap1\n      sub\n      swap1\n      0x00\n      mstore\n      keccak256(0x00, 0x20)\n      swap1\n      0x03\n      mul\n      add\n      0x00\n      swap1\n      swap2\n      swap1\n      swap2\n      swap1\n      swap2\n      pop\n      0x00\n      dup3\n      add\n      mload\n      dup2\n      0x00\n      add\n      sstore\n      0x20\n      dup3\n      add\n      mload\n      dup2\n      0x01\n      add\n      sstore\n      0x40\n      dup3\n      add\n      mload\n      dup2\n      0x02\n      add\n      sstore\n      pop\n      pop\n        /* \"projects/EthertransfersSecPetterns.sol\":2598:2608  msg.sender */\n      caller\n        /* \"projects/EthertransfersSecPetterns.sol\":2586:2620  DepositMade(msg.sender, msg.value) */\n      0xffffffffffffffffffffffffffffffffffffffff\n      and\n      0xd15c9547ea5c06670c0010ce19bc32d54682a4b3801ece7f3ab0c3f17106b4bb\n        /* \"projects/EthertransfersSecPetterns.sol\":2610:2619  msg.value */\n      callvalue\n        /* \"projects/EthertransfersSecPetterns.sol\":2586:2620  DepositMade(msg.sender, msg.value) */\n      mload(0x40)\n      tag_148\n      swap2\n      swap1\n      tag_24\n      jump\t// in\n    tag_148:\n      mload(0x40)\n      dup1\n      swap2\n      sub\n      swap1\n      log2\n        /* \"projects/EthertransfersSecPetterns.sol\":2339:2628  function deposit() external payable {... */\n      jump\t// out\n        /* \"projects/EthertransfersSecPetterns.sol\":3160:3530  function ownerWithdraw(address payable to, uint amount) external onlyOwner noReentrant {... */\n    tag_86:\n        /* \"projects/EthertransfersSecPetterns.sol\":1246:1251  owner */\n      0x00\n      0x00\n      swap1\n      sload\n      swap1\n      0x0100\n      exp\n      swap1\n      div\n      0xffffffffffffffffffffffffffffffffffffffff\n      and\n        /* \"projects/EthertransfersSecPetterns.sol\":1232:1251  msg.sender == owner */\n      0xffffffffffffffffffffffffffffffffffffffff\n      and\n        /* \"projects/EthertransfersSecPetterns.sol\":1232:1242  msg.sender */\n      caller\n        /* \"projects/EthertransfersSecPetterns.sol\":1232:1251  msg.sender == owner */\n      0xffffffffffffffffffffffffffffffffffffffff\n      and\n      eq\n        /* \"projects/EthertransfersSecPetterns.sol\":1224:1265  require(msg.sender == owner, \"Not owner\") */\n      tag_150\n      jumpi\n      mload(0x40)\n      0x08c379a000000000000000000000000000000000000000000000000000000000\n      dup2\n      mstore\n      0x04\n      add\n      tag_151\n      swap1\n      tag_137\n      jump\t// in\n    tag_151:\n      mload(0x40)\n      dup1\n      swap2\n      sub\n      swap1\n      revert\n    tag_150:\n        /* \"projects/EthertransfersSecPetterns.sol\":1432:1438  locked */\n      0x04\n      0x00\n      swap1\n      sload\n      swap1\n      0x0100\n      exp\n      swap1\n      div\n      0xff\n      and\n        /* \"projects/EthertransfersSecPetterns.sol\":1431:1438  !locked */\n      iszero\n        /* \"projects/EthertransfersSecPetterns.sol\":1423:1452  require(!locked, \"Reentrant\") */\n      tag_153\n      jumpi\n      mload(0x40)\n      0x08c379a000000000000000000000000000000000000000000000000000000000\n      dup2\n      mstore\n      0x04\n      add\n      tag_154\n      swap1\n      tag_100\n      jump\t// in\n    tag_154:\n      mload(0x40)\n      dup1\n      swap2\n      sub\n      swap1\n      revert\n    tag_153:\n        /* \"projects/EthertransfersSecPetterns.sol\":1472:1476  true */\n      0x01\n        /* \"projects/EthertransfersSecPetterns.sol\":1463:1469  locked */\n      0x04\n      0x00\n        /* \"projects/EthertransfersSecPetterns.sol\":1463:1476  locked = true */\n      0x0100\n      exp\n      dup2\n      sload\n      dup2\n      0xff\n      mul\n      not\n      and\n      swap1\n      dup4\n      iszero\n      iszero\n      mul\n      or\n      swap1\n      sstore\n      pop\n        /* \"projects/EthertransfersSecPetterns.sol\":3291:3297  amount */\n      dup1\n        /* \"projects/EthertransfersSecPetterns.sol\":3266:3287  address(this).balance */\n      selfbalance\n        /* \"projects/EthertransfersSecPetterns.sol\":3266:3297  address(this).balance >= amount */\n      lt\n      iszero\n        /* \"projects/EthertransfersSecPetterns.sol\":3258:3314  require(address(this).balance >= amount, \"Contract low\") */\n      tag_156\n      jumpi\n      mload(0x40)\n      0x08c379a000000000000000000000000000000000000000000000000000000000\n      dup2\n      mstore\n      0x04\n      add\n      tag_157\n      swap1\n      tag_158\n      jump\t// in\n    tag_157:\n      mload(0x40)\n      dup1\n      swap2\n      sub\n      swap1\n      revert\n    tag_156:\n        /* \"projects/EthertransfersSecPetterns.sol\":3391:3400  bool sent */\n      0x00\n        /* \"projects/EthertransfersSecPetterns.sol\":3406:3408  to */\n      dup3\n        /* \"projects/EthertransfersSecPetterns.sol\":3406:3413  to.call */\n      0xffffffffffffffffffffffffffffffffffffffff\n      and\n        /* \"projects/EthertransfersSecPetterns.sol\":3421:3427  amount */\n      dup3\n        /* \"projects/EthertransfersSecPetterns.sol\":3406:3432  to.call{value: amount}(\"\") */\n      mload(0x40)\n      tag_159\n      swap1\n      tag_108\n      jump\t// in\n    tag_159:\n      0x00\n      mload(0x40)\n      dup1\n      dup4\n      sub\n      dup2\n      dup6\n      dup8\n      gas\n      call\n      swap3\n      pop\n      pop\n      pop\n      returndatasize\n      dup1\n      0x00\n      dup2\n      eq\n      tag_162\n      jumpi\n      mload(0x40)\n      swap2\n      pop\n      and(add(returndatasize, 0x3f), not(0x1f))\n      dup3\n      add\n      0x40\n      mstore\n      returndatasize\n      dup3\n      mstore\n      returndatasize\n      0x00\n      0x20\n      dup5\n      add\n      returndatacopy\n      jump(tag_161)\n    tag_162:\n      0x60\n      swap2\n      pop\n    tag_161:\n      pop\n        /* \"projects/EthertransfersSecPetterns.sol\":3390:3432  (bool sent, ) = to.call{value: amount}(\"\") */\n      pop\n      swap1\n      pop\n        /* \"projects/EthertransfersSecPetterns.sol\":3451:3455  sent */\n      dup1\n        /* \"projects/EthertransfersSecPetterns.sol\":3443:3481  require(sent, \"Owner transfer failed\") */\n      tag_163\n      jumpi\n      mload(0x40)\n      0x08c379a000000000000000000000000000000000000000000000000000000000\n      dup2\n      mstore\n      0x04\n      add\n      tag_164\n      swap1\n      tag_165\n      jump\t// in\n    tag_164:\n      mload(0x40)\n      dup1\n      swap2\n      sub\n      swap1\n      revert\n    tag_163:\n        /* \"projects/EthertransfersSecPetterns.sol\":3511:3513  to */\n      dup3\n        /* \"projects/EthertransfersSecPetterns.sol\":3497:3522  OwnerWithdrew(to, amount) */\n      0xffffffffffffffffffffffffffffffffffffffff\n      and\n      0x372b455b5163a0c4e2a6cf75f425b94ab0df0d2e195b71985c0b39d3303f91b5\n        /* \"projects/EthertransfersSecPetterns.sol\":3515:3521  amount */\n      dup4\n        /* \"projects/EthertransfersSecPetterns.sol\":3497:3522  OwnerWithdrew(to, amount) */\n      mload(0x40)\n      tag_166\n      swap2\n      swap1\n      tag_24\n      jump\t// in\n    tag_166:\n      mload(0x40)\n      dup1\n      swap2\n      sub\n      swap1\n      log2\n        /* \"projects/EthertransfersSecPetterns.sol\":3247:3530  {... */\n      pop\n        /* \"projects/EthertransfersSecPetterns.sol\":1508:1513  false */\n      0x00\n        /* \"projects/EthertransfersSecPetterns.sol\":1499:1505  locked */\n      0x04\n      0x00\n        /* \"projects/EthertransfersSecPetterns.sol\":1499:1513  locked = false */\n      0x0100\n      exp\n      dup2\n      sload\n      dup2\n      0xff\n      mul\n      not\n      and\n      swap1\n      dup4\n      iszero\n      iszero\n      mul\n      or\n      swap1\n      sstore\n      pop\n        /* \"projects/EthertransfersSecPetterns.sol\":3160:3530  function ownerWithdraw(address payable to, uint amount) external onlyOwner noReentrant {... */\n      pop\n      pop\n      jump\t// out\n        /* \"projects/EthertransfersSecPetterns.sol\":4286:4511  function commit(bytes32 hash) external payable {... */\n    tag_90:\n        /* \"projects/EthertransfersSecPetterns.sol\":4364:4365  0 */\n      0x00\n        /* \"projects/EthertransfersSecPetterns.sol\":4352:4361  msg.value */\n      callvalue\n        /* \"projects/EthertransfersSecPetterns.sol\":4352:4365  msg.value > 0 */\n      gt\n        /* \"projects/EthertransfersSecPetterns.sol\":4344:4380  require(msg.value > 0, \"Must stake\") */\n      tag_168\n      jumpi\n      mload(0x40)\n      0x08c379a000000000000000000000000000000000000000000000000000000000\n      dup2\n      mstore\n      0x04\n      add\n      tag_169\n      swap1\n      tag_170\n      jump\t// in\n    tag_169:\n      mload(0x40)\n      dup1\n      swap2\n      sub\n      swap1\n      revert\n    tag_168:\n        /* \"projects/EthertransfersSecPetterns.sol\":4413:4460  Commit(msg.value, hash, block.timestamp, false) */\n      mload(0x40)\n      dup1\n      0x80\n      add\n      0x40\n      mstore\n      dup1\n        /* \"projects/EthertransfersSecPetterns.sol\":4420:4429  msg.value */\n      callvalue\n        /* \"projects/EthertransfersSecPetterns.sol\":4413:4460  Commit(msg.value, hash, block.timestamp, false) */\n      dup2\n      mstore\n      0x20\n      add\n        /* \"projects/EthertransfersSecPetterns.sol\":4431:4435  hash */\n      dup3\n        /* \"projects/EthertransfersSecPetterns.sol\":4413:4460  Commit(msg.value, hash, block.timestamp, false) */\n      dup2\n      mstore\n      0x20\n      add\n        /* \"projects/EthertransfersSecPetterns.sol\":4437:4452  block.timestamp */\n      timestamp\n        /* \"projects/EthertransfersSecPetterns.sol\":4413:4460  Commit(msg.value, hash, block.timestamp, false) */\n      dup2\n      mstore\n      0x20\n      add\n        /* \"projects/EthertransfersSecPetterns.sol\":4454:4459  false */\n      0x00\n        /* \"projects/EthertransfersSecPetterns.sol\":4413:4460  Commit(msg.value, hash, block.timestamp, false) */\n      iszero\n      iszero\n      dup2\n      mstore\n      pop\n        /* \"projects/EthertransfersSecPetterns.sol\":4391:4398  commits */\n      0x03\n        /* \"projects/EthertransfersSecPetterns.sol\":4391:4410  commits[msg.sender] */\n      0x00\n        /* \"projects/EthertransfersSecPetterns.sol\":4399:4409  msg.sender */\n      caller\n        /* \"projects/EthertransfersSecPetterns.sol\":4391:4410  commits[msg.sender] */\n      0xffffffffffffffffffffffffffffffffffffffff\n      and\n      0xffffffffffffffffffffffffffffffffffffffff\n      and\n      dup2\n      mstore\n      0x20\n      add\n      swap1\n      dup2\n      mstore\n      0x20\n      add\n      0x00\n      keccak256\n        /* \"projects/EthertransfersSecPetterns.sol\":4391:4460  commits[msg.sender] = Commit(msg.value, hash, block.timestamp, false) */\n      0x00\n      dup3\n      add\n      mload\n      dup2\n      0x00\n      add\n      sstore\n      0x20\n      dup3\n      add\n      mload\n      dup2\n      0x01\n      add\n      sstore\n      0x40\n      dup3\n      add\n      mload\n      dup2\n      0x02\n      add\n      sstore\n      0x60\n      dup3\n      add\n      mload\n      dup2\n      0x03\n      add\n      exp(0x0100, 0x00)\n      dup2\n      sload\n      dup2\n      0xff\n      mul\n      not\n      and\n      swap1\n      dup4\n      iszero\n      iszero\n      mul\n      or\n      swap1\n      sstore\n      pop\n      swap1\n      pop\n      pop\n        /* \"projects/EthertransfersSecPetterns.sol\":4486:4496  msg.sender */\n      caller\n        /* \"projects/EthertransfersSecPetterns.sol\":4476:4503  Committed(msg.sender, hash) */\n      0xffffffffffffffffffffffffffffffffffffffff\n      and\n      0x4d7787535441abadf1feb20a4be6ef748ae9c25c03364e195afc8bcc8816d980\n        /* \"projects/EthertransfersSecPetterns.sol\":4498:4502  hash */\n      dup3\n        /* \"projects/EthertransfersSecPetterns.sol\":4476:4503  Committed(msg.sender, hash) */\n      mload(0x40)\n      tag_171\n      swap2\n      swap1\n      tag_172\n      jump\t// in\n    tag_171:\n      mload(0x40)\n      dup1\n      swap2\n      sub\n      swap1\n      log2\n        /* \"projects/EthertransfersSecPetterns.sol\":4286:4511  function commit(bytes32 hash) external payable {... */\n      pop\n      jump\t// out\n        /* \"#utility.yul\":7:84   */\n    tag_173:\n        /* \"#utility.yul\":44:51   */\n      0x00\n        /* \"#utility.yul\":73:78   */\n      dup2\n        /* \"#utility.yul\":62:78   */\n      swap1\n      pop\n        /* \"#utility.yul\":7:84   */\n      swap2\n      swap1\n      pop\n      jump\t// out\n        /* \"#utility.yul\":90:270   */\n    tag_174:\n        /* \"#utility.yul\":138:215   */\n      0x4e487b7100000000000000000000000000000000000000000000000000000000\n        /* \"#utility.yul\":135:136   */\n      0x00\n        /* \"#utility.yul\":128:216   */\n      mstore\n        /* \"#utility.yul\":235:239   */\n      0x11\n        /* \"#utility.yul\":232:233   */\n      0x04\n        /* \"#utility.yul\":225:240   */\n      mstore\n        /* \"#utility.yul\":259:263   */\n      0x24\n        /* \"#utility.yul\":256:257   */\n      0x00\n        /* \"#utility.yul\":249:264   */\n      revert\n        /* \"#utility.yul\":276:467   */\n    tag_21:\n        /* \"#utility.yul\":316:319   */\n      0x00\n        /* \"#utility.yul\":335:355   */\n      tag_238\n        /* \"#utility.yul\":353:354   */\n      dup3\n        /* \"#utility.yul\":335:355   */\n      tag_173\n      jump\t// in\n    tag_238:\n        /* \"#utility.yul\":330:355   */\n      swap2\n      pop\n        /* \"#utility.yul\":369:389   */\n      tag_239\n        /* \"#utility.yul\":387:388   */\n      dup4\n        /* \"#utility.yul\":369:389   */\n      tag_173\n      jump\t// in\n    tag_239:\n        /* \"#utility.yul\":364:389   */\n      swap3\n      pop\n        /* \"#utility.yul\":412:413   */\n      dup3\n        /* \"#utility.yul\":409:410   */\n      dup3\n        /* \"#utility.yul\":405:414   */\n      add\n        /* \"#utility.yul\":398:414   */\n      swap1\n      pop\n        /* \"#utility.yul\":433:436   */\n      dup1\n        /* \"#utility.yul\":430:431   */\n      dup3\n        /* \"#utility.yul\":427:437   */\n      gt\n        /* \"#utility.yul\":424:460   */\n      iszero\n      tag_240\n      jumpi\n        /* \"#utility.yul\":440:458   */\n      tag_241\n      tag_174\n      jump\t// in\n    tag_241:\n        /* \"#utility.yul\":424:460   */\n    tag_240:\n        /* \"#utility.yul\":276:467   */\n      swap3\n      swap2\n      pop\n      pop\n      jump\t// out\n        /* \"#utility.yul\":473:591   */\n    tag_175:\n        /* \"#utility.yul\":560:584   */\n      tag_243\n        /* \"#utility.yul\":578:583   */\n      dup2\n        /* \"#utility.yul\":560:584   */\n      tag_173\n      jump\t// in\n    tag_243:\n        /* \"#utility.yul\":555:558   */\n      dup3\n        /* \"#utility.yul\":548:585   */\n      mstore\n        /* \"#utility.yul\":473:591   */\n      pop\n      pop\n      jump\t// out\n        /* \"#utility.yul\":597:819   */\n    tag_24:\n        /* \"#utility.yul\":690:694   */\n      0x00\n        /* \"#utility.yul\":728:730   */\n      0x20\n        /* \"#utility.yul\":717:726   */\n      dup3\n        /* \"#utility.yul\":713:731   */\n      add\n        /* \"#utility.yul\":705:731   */\n      swap1\n      pop\n        /* \"#utility.yul\":741:812   */\n      tag_245\n        /* \"#utility.yul\":809:810   */\n      0x00\n        /* \"#utility.yul\":798:807   */\n      dup4\n        /* \"#utility.yul\":794:811   */\n      add\n        /* \"#utility.yul\":785:791   */\n      dup5\n        /* \"#utility.yul\":741:812   */\n      tag_175\n      jump\t// in\n    tag_245:\n        /* \"#utility.yul\":597:819   */\n      swap3\n      swap2\n      pop\n      pop\n      jump\t// out\n        /* \"#utility.yul\":906:1023   */\n    tag_177:\n        /* \"#utility.yul\":1015:1016   */\n      0x00\n        /* \"#utility.yul\":1012:1013   */\n      0x00\n        /* \"#utility.yul\":1005:1017   */\n      revert\n        /* \"#utility.yul\":1029:1146   */\n    tag_178:\n        /* \"#utility.yul\":1138:1139   */\n      0x00\n        /* \"#utility.yul\":1135:1136   */\n      0x00\n        /* \"#utility.yul\":1128:1140   */\n      revert\n        /* \"#utility.yul\":1152:1278   */\n    tag_179:\n        /* \"#utility.yul\":1189:1196   */\n      0x00\n        /* \"#utility.yul\":1229:1271   */\n      0xffffffffffffffffffffffffffffffffffffffff\n        /* \"#utility.yul\":1222:1227   */\n      dup3\n        /* \"#utility.yul\":1218:1272   */\n      and\n        /* \"#utility.yul\":1207:1272   */\n      swap1\n      pop\n        /* \"#utility.yul\":1152:1278   */\n      swap2\n      swap1\n      pop\n      jump\t// out\n        /* \"#utility.yul\":1284:1380   */\n    tag_180:\n        /* \"#utility.yul\":1321:1328   */\n      0x00\n        /* \"#utility.yul\":1350:1374   */\n      tag_251\n        /* \"#utility.yul\":1368:1373   */\n      dup3\n        /* \"#utility.yul\":1350:1374   */\n      tag_179\n      jump\t// in\n    tag_251:\n        /* \"#utility.yul\":1339:1374   */\n      swap1\n      pop\n        /* \"#utility.yul\":1284:1380   */\n      swap2\n      swap1\n      pop\n      jump\t// out\n        /* \"#utility.yul\":1386:1508   */\n    tag_181:\n        /* \"#utility.yul\":1459:1483   */\n      tag_253\n        /* \"#utility.yul\":1477:1482   */\n      dup2\n        /* \"#utility.yul\":1459:1483   */\n      tag_180\n      jump\t// in\n    tag_253:\n        /* \"#utility.yul\":1452:1457   */\n      dup2\n        /* \"#utility.yul\":1449:1484   */\n      eq\n        /* \"#utility.yul\":1439:1502   */\n      tag_254\n      jumpi\n        /* \"#utility.yul\":1498:1499   */\n      0x00\n        /* \"#utility.yul\":1495:1496   */\n      0x00\n        /* \"#utility.yul\":1488:1500   */\n      revert\n        /* \"#utility.yul\":1439:1502   */\n    tag_254:\n        /* \"#utility.yul\":1386:1508   */\n      pop\n      jump\t// out\n        /* \"#utility.yul\":1514:1653   */\n    tag_182:\n        /* \"#utility.yul\":1560:1565   */\n      0x00\n        /* \"#utility.yul\":1598:1604   */\n      dup2\n        /* \"#utility.yul\":1585:1605   */\n      calldataload\n        /* \"#utility.yul\":1576:1605   */\n      swap1\n      pop\n        /* \"#utility.yul\":1614:1647   */\n      tag_256\n        /* \"#utility.yul\":1641:1646   */\n      dup2\n        /* \"#utility.yul\":1614:1647   */\n      tag_181\n      jump\t// in\n    tag_256:\n        /* \"#utility.yul\":1514:1653   */\n      swap3\n      swap2\n      pop\n      pop\n      jump\t// out\n        /* \"#utility.yul\":1659:1988   */\n    tag_33:\n        /* \"#utility.yul\":1718:1724   */\n      0x00\n        /* \"#utility.yul\":1767:1769   */\n      0x20\n        /* \"#utility.yul\":1755:1764   */\n      dup3\n        /* \"#utility.yul\":1746:1753   */\n      dup5\n        /* \"#utility.yul\":1742:1765   */\n      sub\n        /* \"#utility.yul\":1738:1770   */\n      slt\n        /* \"#utility.yul\":1735:1854   */\n      iszero\n      tag_258\n      jumpi\n        /* \"#utility.yul\":1773:1852   */\n      tag_259\n      tag_177\n      jump\t// in\n    tag_259:\n        /* \"#utility.yul\":1735:1854   */\n    tag_258:\n        /* \"#utility.yul\":1893:1894   */\n      0x00\n        /* \"#utility.yul\":1918:1971   */\n      tag_260\n        /* \"#utility.yul\":1963:1970   */\n      dup5\n        /* \"#utility.yul\":1954:1960   */\n      dup3\n        /* \"#utility.yul\":1943:1952   */\n      dup6\n        /* \"#utility.yul\":1939:1961   */\n      add\n        /* \"#utility.yul\":1918:1971   */\n      tag_182\n      jump\t// in\n    tag_260:\n        /* \"#utility.yul\":1908:1971   */\n      swap2\n      pop\n        /* \"#utility.yul\":1864:1981   */\n      pop\n        /* \"#utility.yul\":1659:1988   */\n      swap3\n      swap2\n      pop\n      pop\n      jump\t// out\n        /* \"#utility.yul\":1994:2116   */\n    tag_183:\n        /* \"#utility.yul\":2067:2091   */\n      tag_262\n        /* \"#utility.yul\":2085:2090   */\n      dup2\n        /* \"#utility.yul\":2067:2091   */\n      tag_173\n      jump\t// in\n    tag_262:\n        /* \"#utility.yul\":2060:2065   */\n      dup2\n        /* \"#utility.yul\":2057:2092   */\n      eq\n        /* \"#utility.yul\":2047:2110   */\n      tag_263\n      jumpi\n        /* \"#utility.yul\":2106:2107   */\n      0x00\n        /* \"#utility.yul\":2103:2104   */\n      0x00\n        /* \"#utility.yul\":2096:2108   */\n      revert\n        /* \"#utility.yul\":2047:2110   */\n    tag_263:\n        /* \"#utility.yul\":1994:2116   */\n      pop\n      jump\t// out\n        /* \"#utility.yul\":2122:2261   */\n    tag_184:\n        /* \"#utility.yul\":2168:2173   */\n      0x00\n        /* \"#utility.yul\":2206:2212   */\n      dup2\n        /* \"#utility.yul\":2193:2213   */\n      calldataload\n        /* \"#utility.yul\":2184:2213   */\n      swap1\n      pop\n        /* \"#utility.yul\":2222:2255   */\n      tag_265\n        /* \"#utility.yul\":2249:2254   */\n      dup2\n        /* \"#utility.yul\":2222:2255   */\n      tag_183\n      jump\t// in\n    tag_265:\n        /* \"#utility.yul\":2122:2261   */\n      swap3\n      swap2\n      pop\n      pop\n      jump\t// out\n        /* \"#utility.yul\":2267:2741   */\n    tag_39:\n        /* \"#utility.yul\":2335:2341   */\n      0x00\n        /* \"#utility.yul\":2343:2349   */\n      0x00\n        /* \"#utility.yul\":2392:2394   */\n      0x40\n        /* \"#utility.yul\":2380:2389   */\n      dup4\n        /* \"#utility.yul\":2371:2378   */\n      dup6\n        /* \"#utility.yul\":2367:2390   */\n      sub\n        /* \"#utility.yul\":2363:2395   */\n      slt\n        /* \"#utility.yul\":2360:2479   */\n      iszero\n      tag_267\n      jumpi\n        /* \"#utility.yul\":2398:2477   */\n      tag_268\n      tag_177\n      jump\t// in\n    tag_268:\n        /* \"#utility.yul\":2360:2479   */\n    tag_267:\n        /* \"#utility.yul\":2518:2519   */\n      0x00\n        /* \"#utility.yul\":2543:2596   */\n      tag_269\n        /* \"#utility.yul\":2588:2595   */\n      dup6\n        /* \"#utility.yul\":2579:2585   */\n      dup3\n        /* \"#utility.yul\":2568:2577   */\n      dup7\n        /* \"#utility.yul\":2564:2586   */\n      add\n        /* \"#utility.yul\":2543:2596   */\n      tag_182\n      jump\t// in\n    tag_269:\n        /* \"#utility.yul\":2533:2596   */\n      swap3\n      pop\n        /* \"#utility.yul\":2489:2606   */\n      pop\n        /* \"#utility.yul\":2645:2647   */\n      0x20\n        /* \"#utility.yul\":2671:2724   */\n      tag_270\n        /* \"#utility.yul\":2716:2723   */\n      dup6\n        /* \"#utility.yul\":2707:2713   */\n      dup3\n        /* \"#utility.yul\":2696:2705   */\n      dup7\n        /* \"#utility.yul\":2692:2714   */\n      add\n        /* \"#utility.yul\":2671:2724   */\n      tag_184\n      jump\t// in\n    tag_270:\n        /* \"#utility.yul\":2661:2724   */\n      swap2\n      pop\n        /* \"#utility.yul\":2616:2734   */\n      pop\n        /* \"#utility.yul\":2267:2741   */\n      swap3\n      pop\n      swap3\n      swap1\n      pop\n      jump\t// out\n        /* \"#utility.yul\":2747:3189   */\n    tag_42:\n        /* \"#utility.yul\":2896:2900   */\n      0x00\n        /* \"#utility.yul\":2934:2936   */\n      0x60\n        /* \"#utility.yul\":2923:2932   */\n      dup3\n        /* \"#utility.yul\":2919:2937   */\n      add\n        /* \"#utility.yul\":2911:2937   */\n      swap1\n      pop\n        /* \"#utility.yul\":2947:3018   */\n      tag_272\n        /* \"#utility.yul\":3015:3016   */\n      0x00\n        /* \"#utility.yul\":3004:3013   */\n      dup4\n        /* \"#utility.yul\":3000:3017   */\n      add\n        /* \"#utility.yul\":2991:2997   */\n      dup7\n        /* \"#utility.yul\":2947:3018   */\n      tag_175\n      jump\t// in\n    tag_272:\n        /* \"#utility.yul\":3028:3100   */\n      tag_273\n        /* \"#utility.yul\":3096:3098   */\n      0x20\n        /* \"#utility.yul\":3085:3094   */\n      dup4\n        /* \"#utility.yul\":3081:3099   */\n      add\n        /* \"#utility.yul\":3072:3078   */\n      dup6\n        /* \"#utility.yul\":3028:3100   */\n      tag_175\n      jump\t// in\n    tag_273:\n        /* \"#utility.yul\":3110:3182   */\n      tag_274\n        /* \"#utility.yul\":3178:3180   */\n      0x40\n        /* \"#utility.yul\":3167:3176   */\n      dup4\n        /* \"#utility.yul\":3163:3181   */\n      add\n        /* \"#utility.yul\":3154:3160   */\n      dup5\n        /* \"#utility.yul\":3110:3182   */\n      tag_175\n      jump\t// in\n    tag_274:\n        /* \"#utility.yul\":2747:3189   */\n      swap5\n      swap4\n      pop\n      pop\n      pop\n      pop\n      jump\t// out\n        /* \"#utility.yul\":3195:3524   */\n    tag_51:\n        /* \"#utility.yul\":3254:3260   */\n      0x00\n        /* \"#utility.yul\":3303:3305   */\n      0x20\n        /* \"#utility.yul\":3291:3300   */\n      dup3\n        /* \"#utility.yul\":3282:3289   */\n      dup5\n        /* \"#utility.yul\":3278:3301   */\n      sub\n        /* \"#utility.yul\":3274:3306   */\n      slt\n        /* \"#utility.yul\":3271:3390   */\n      iszero\n      tag_276\n      jumpi\n        /* \"#utility.yul\":3309:3388   */\n      tag_277\n      tag_177\n      jump\t// in\n    tag_277:\n        /* \"#utility.yul\":3271:3390   */\n    tag_276:\n        /* \"#utility.yul\":3429:3430   */\n      0x00\n        /* \"#utility.yul\":3454:3507   */\n      tag_278\n        /* \"#utility.yul\":3499:3506   */\n      dup5\n        /* \"#utility.yul\":3490:3496   */\n      dup3\n        /* \"#utility.yul\":3479:3488   */\n      dup6\n        /* \"#utility.yul\":3475:3497   */\n      add\n        /* \"#utility.yul\":3454:3507   */\n      tag_184\n      jump\t// in\n    tag_278:\n        /* \"#utility.yul\":3444:3507   */\n      swap2\n      pop\n        /* \"#utility.yul\":3400:3517   */\n      pop\n        /* \"#utility.yul\":3195:3524   */\n      swap3\n      swap2\n      pop\n      pop\n      jump\t// out\n        /* \"#utility.yul\":3530:3647   */\n    tag_185:\n        /* \"#utility.yul\":3639:3640   */\n      0x00\n        /* \"#utility.yul\":3636:3637   */\n      0x00\n        /* \"#utility.yul\":3629:3641   */\n      revert\n        /* \"#utility.yul\":3653:3770   */\n    tag_186:\n        /* \"#utility.yul\":3762:3763   */\n      0x00\n        /* \"#utility.yul\":3759:3760   */\n      0x00\n        /* \"#utility.yul\":3752:3764   */\n      revert\n        /* \"#utility.yul\":3776:3893   */\n    tag_187:\n        /* \"#utility.yul\":3885:3886   */\n      0x00\n        /* \"#utility.yul\":3882:3883   */\n      0x00\n        /* \"#utility.yul\":3875:3887   */\n      revert\n        /* \"#utility.yul\":3913:4466   */\n    tag_188:\n        /* \"#utility.yul\":3971:3979   */\n      0x00\n        /* \"#utility.yul\":3981:3987   */\n      0x00\n        /* \"#utility.yul\":4031:4034   */\n      dup4\n        /* \"#utility.yul\":4024:4028   */\n      0x1f\n        /* \"#utility.yul\":4016:4022   */\n      dup5\n        /* \"#utility.yul\":4012:4029   */\n      add\n        /* \"#utility.yul\":4008:4035   */\n      slt\n        /* \"#utility.yul\":3998:4120   */\n      tag_283\n      jumpi\n        /* \"#utility.yul\":4039:4118   */\n      tag_284\n      tag_185\n      jump\t// in\n    tag_284:\n        /* \"#utility.yul\":3998:4120   */\n    tag_283:\n        /* \"#utility.yul\":4152:4158   */\n      dup3\n        /* \"#utility.yul\":4139:4159   */\n      calldataload\n        /* \"#utility.yul\":4129:4159   */\n      swap1\n      pop\n        /* \"#utility.yul\":4182:4200   */\n      0xffffffffffffffff\n        /* \"#utility.yul\":4174:4180   */\n      dup2\n        /* \"#utility.yul\":4171:4201   */\n      gt\n        /* \"#utility.yul\":4168:4285   */\n      iszero\n      tag_285\n      jumpi\n        /* \"#utility.yul\":4204:4283   */\n      tag_286\n      tag_186\n      jump\t// in\n    tag_286:\n        /* \"#utility.yul\":4168:4285   */\n    tag_285:\n        /* \"#utility.yul\":4318:4322   */\n      0x20\n        /* \"#utility.yul\":4310:4316   */\n      dup4\n        /* \"#utility.yul\":4306:4323   */\n      add\n        /* \"#utility.yul\":4294:4323   */\n      swap2\n      pop\n        /* \"#utility.yul\":4372:4375   */\n      dup4\n        /* \"#utility.yul\":4364:4368   */\n      0x01\n        /* \"#utility.yul\":4356:4362   */\n      dup3\n        /* \"#utility.yul\":4352:4369   */\n      mul\n        /* \"#utility.yul\":4342:4350   */\n      dup4\n        /* \"#utility.yul\":4338:4370   */\n      add\n        /* \"#utility.yul\":4335:4376   */\n      gt\n        /* \"#utility.yul\":4332:4460   */\n      iszero\n      tag_287\n      jumpi\n        /* \"#utility.yul\":4379:4458   */\n      tag_288\n      tag_187\n      jump\t// in\n    tag_288:\n        /* \"#utility.yul\":4332:4460   */\n    tag_287:\n        /* \"#utility.yul\":3913:4466   */\n      swap3\n      pop\n      swap3\n      swap1\n      pop\n      jump\t// out\n        /* \"#utility.yul\":4472:5146   */\n    tag_56:\n        /* \"#utility.yul\":4552:4558   */\n      0x00\n        /* \"#utility.yul\":4560:4566   */\n      0x00\n        /* \"#utility.yul\":4568:4574   */\n      0x00\n        /* \"#utility.yul\":4617:4619   */\n      0x40\n        /* \"#utility.yul\":4605:4614   */\n      dup5\n        /* \"#utility.yul\":4596:4603   */\n      dup7\n        /* \"#utility.yul\":4592:4615   */\n      sub\n        /* \"#utility.yul\":4588:4620   */\n      slt\n        /* \"#utility.yul\":4585:4704   */\n      iszero\n      tag_290\n      jumpi\n        /* \"#utility.yul\":4623:4702   */\n      tag_291\n      tag_177\n      jump\t// in\n    tag_291:\n        /* \"#utility.yul\":4585:4704   */\n    tag_290:\n        /* \"#utility.yul\":4743:4744   */\n      0x00\n        /* \"#utility.yul\":4768:4821   */\n      tag_292\n        /* \"#utility.yul\":4813:4820   */\n      dup7\n        /* \"#utility.yul\":4804:4810   */\n      dup3\n        /* \"#utility.yul\":4793:4802   */\n      dup8\n        /* \"#utility.yul\":4789:4811   */\n      add\n        /* \"#utility.yul\":4768:4821   */\n      tag_184\n      jump\t// in\n    tag_292:\n        /* \"#utility.yul\":4758:4821   */\n      swap4\n      pop\n        /* \"#utility.yul\":4714:4831   */\n      pop\n        /* \"#utility.yul\":4898:4900   */\n      0x20\n        /* \"#utility.yul\":4887:4896   */\n      dup5\n        /* \"#utility.yul\":4883:4901   */\n      add\n        /* \"#utility.yul\":4870:4902   */\n      calldataload\n        /* \"#utility.yul\":4929:4947   */\n      0xffffffffffffffff\n        /* \"#utility.yul\":4921:4927   */\n      dup2\n        /* \"#utility.yul\":4918:4948   */\n      gt\n        /* \"#utility.yul\":4915:5032   */\n      iszero\n      tag_293\n      jumpi\n        /* \"#utility.yul\":4951:5030   */\n      tag_294\n      tag_178\n      jump\t// in\n    tag_294:\n        /* \"#utility.yul\":4915:5032   */\n    tag_293:\n        /* \"#utility.yul\":5064:5129   */\n      tag_295\n        /* \"#utility.yul\":5121:5128   */\n      dup7\n        /* \"#utility.yul\":5112:5118   */\n      dup3\n        /* \"#utility.yul\":5101:5110   */\n      dup8\n        /* \"#utility.yul\":5097:5119   */\n      add\n        /* \"#utility.yul\":5064:5129   */\n      tag_188\n      jump\t// in\n    tag_295:\n        /* \"#utility.yul\":5046:5129   */\n      swap3\n      pop\n      swap3\n      pop\n        /* \"#utility.yul\":4841:5139   */\n      pop\n        /* \"#utility.yul\":4472:5146   */\n      swap3\n      pop\n      swap3\n      pop\n      swap3\n      jump\t// out\n        /* \"#utility.yul\":5152:5626   */\n    tag_64:\n        /* \"#utility.yul\":5220:5226   */\n      0x00\n        /* \"#utility.yul\":5228:5234   */\n      0x00\n        /* \"#utility.yul\":5277:5279   */\n      0x40\n        /* \"#utility.yul\":5265:5274   */\n      dup4\n        /* \"#utility.yul\":5256:5263   */\n      dup6\n        /* \"#utility.yul\":5252:5275   */\n      sub\n        /* \"#utility.yul\":5248:5280   */\n      slt\n        /* \"#utility.yul\":5245:5364   */\n      iszero\n      tag_297\n      jumpi\n        /* \"#utility.yul\":5283:5362   */\n      tag_298\n      tag_177\n      jump\t// in\n    tag_298:\n        /* \"#utility.yul\":5245:5364   */\n    tag_297:\n        /* \"#utility.yul\":5403:5404   */\n      0x00\n        /* \"#utility.yul\":5428:5481   */\n      tag_299\n        /* \"#utility.yul\":5473:5480   */\n      dup6\n        /* \"#utility.yul\":5464:5470   */\n      dup3\n        /* \"#utility.yul\":5453:5462   */\n      dup7\n        /* \"#utility.yul\":5449:5471   */\n      add\n        /* \"#utility.yul\":5428:5481   */\n      tag_184\n      jump\t// in\n    tag_299:\n        /* \"#utility.yul\":5418:5481   */\n      swap3\n      pop\n        /* \"#utility.yul\":5374:5491   */\n      pop\n        /* \"#utility.yul\":5530:5532   */\n      0x20\n        /* \"#utility.yul\":5556:5609   */\n      tag_300\n        /* \"#utility.yul\":5601:5608   */\n      dup6\n        /* \"#utility.yul\":5592:5598   */\n      dup3\n        /* \"#utility.yul\":5581:5590   */\n      dup7\n        /* \"#utility.yul\":5577:5599   */\n      add\n        /* \"#utility.yul\":5556:5609   */\n      tag_184\n      jump\t// in\n    tag_300:\n        /* \"#utility.yul\":5546:5609   */\n      swap2\n      pop\n        /* \"#utility.yul\":5501:5619   */\n      pop\n        /* \"#utility.yul\":5152:5626   */\n      swap3\n      pop\n      swap3\n      swap1\n      pop\n      jump\t// out\n        /* \"#utility.yul\":5632:5750   */\n    tag_189:\n        /* \"#utility.yul\":5719:5743   */\n      tag_302\n        /* \"#utility.yul\":5737:5742   */\n      dup2\n        /* \"#utility.yul\":5719:5743   */\n      tag_180\n      jump\t// in\n    tag_302:\n        /* \"#utility.yul\":5714:5717   */\n      dup3\n        /* \"#utility.yul\":5707:5744   */\n      mstore\n        /* \"#utility.yul\":5632:5750   */\n      pop\n      pop\n      jump\t// out\n        /* \"#utility.yul\":5756:5978   */\n    tag_75:\n        /* \"#utility.yul\":5849:5853   */\n      0x00\n        /* \"#utility.yul\":5887:5889   */\n      0x20\n        /* \"#utility.yul\":5876:5885   */\n      dup3\n        /* \"#utility.yul\":5872:5890   */\n      add\n        /* \"#utility.yul\":5864:5890   */\n      swap1\n      pop\n        /* \"#utility.yul\":5900:5971   */\n      tag_304\n        /* \"#utility.yul\":5968:5969   */\n      0x00\n        /* \"#utility.yul\":5957:5966   */\n      dup4\n        /* \"#utility.yul\":5953:5970   */\n      add\n        /* \"#utility.yul\":5944:5950   */\n      dup5\n        /* \"#utility.yul\":5900:5971   */\n      tag_189\n      jump\t// in\n    tag_304:\n        /* \"#utility.yul\":5756:5978   */\n      swap3\n      swap2\n      pop\n      pop\n      jump\t// out\n        /* \"#utility.yul\":5984:6088   */\n    tag_190:\n        /* \"#utility.yul\":6029:6036   */\n      0x00\n        /* \"#utility.yul\":6058:6082   */\n      tag_306\n        /* \"#utility.yul\":6076:6081   */\n      dup3\n        /* \"#utility.yul\":6058:6082   */\n      tag_179\n      jump\t// in\n    tag_306:\n        /* \"#utility.yul\":6047:6082   */\n      swap1\n      pop\n        /* \"#utility.yul\":5984:6088   */\n      swap2\n      swap1\n      pop\n      jump\t// out\n        /* \"#utility.yul\":6094:6232   */\n    tag_191:\n        /* \"#utility.yul\":6175:6207   */\n      tag_308\n        /* \"#utility.yul\":6201:6206   */\n      dup2\n        /* \"#utility.yul\":6175:6207   */\n      tag_190\n      jump\t// in\n    tag_308:\n        /* \"#utility.yul\":6168:6173   */\n      dup2\n        /* \"#utility.yul\":6165:6208   */\n      eq\n        /* \"#utility.yul\":6155:6226   */\n      tag_309\n      jumpi\n        /* \"#utility.yul\":6222:6223   */\n      0x00\n        /* \"#utility.yul\":6219:6220   */\n      0x00\n        /* \"#utility.yul\":6212:6224   */\n      revert\n        /* \"#utility.yul\":6155:6226   */\n    tag_309:\n        /* \"#utility.yul\":6094:6232   */\n      pop\n      jump\t// out\n        /* \"#utility.yul\":6238:6393   */\n    tag_192:\n        /* \"#utility.yul\":6292:6297   */\n      0x00\n        /* \"#utility.yul\":6330:6336   */\n      dup2\n        /* \"#utility.yul\":6317:6337   */\n      calldataload\n        /* \"#utility.yul\":6308:6337   */\n      swap1\n      pop\n        /* \"#utility.yul\":6346:6387   */\n      tag_311\n        /* \"#utility.yul\":6381:6386   */\n      dup2\n        /* \"#utility.yul\":6346:6387   */\n      tag_191\n      jump\t// in\n    tag_311:\n        /* \"#utility.yul\":6238:6393   */\n      swap3\n      swap2\n      pop\n      pop\n      jump\t// out\n        /* \"#utility.yul\":6399:6889   */\n    tag_85:\n        /* \"#utility.yul\":6475:6481   */\n      0x00\n        /* \"#utility.yul\":6483:6489   */\n      0x00\n        /* \"#utility.yul\":6532:6534   */\n      0x40\n        /* \"#utility.yul\":6520:6529   */\n      dup4\n        /* \"#utility.yul\":6511:6518   */\n      dup6\n        /* \"#utility.yul\":6507:6530   */\n      sub\n        /* \"#utility.yul\":6503:6535   */\n      slt\n        /* \"#utility.yul\":6500:6619   */\n      iszero\n      tag_313\n      jumpi\n        /* \"#utility.yul\":6538:6617   */\n      tag_314\n      tag_177\n      jump\t// in\n    tag_314:\n        /* \"#utility.yul\":6500:6619   */\n    tag_313:\n        /* \"#utility.yul\":6658:6659   */\n      0x00\n        /* \"#utility.yul\":6683:6744   */\n      tag_315\n        /* \"#utility.yul\":6736:6743   */\n      dup6\n        /* \"#utility.yul\":6727:6733   */\n      dup3\n        /* \"#utility.yul\":6716:6725   */\n      dup7\n        /* \"#utility.yul\":6712:6734   */\n      add\n        /* \"#utility.yul\":6683:6744   */\n      tag_192\n      jump\t// in\n    tag_315:\n        /* \"#utility.yul\":6673:6744   */\n      swap3\n      pop\n        /* \"#utility.yul\":6629:6754   */\n      pop\n        /* \"#utility.yul\":6793:6795   */\n      0x20\n        /* \"#utility.yul\":6819:6872   */\n      tag_316\n        /* \"#utility.yul\":6864:6871   */\n      dup6\n        /* \"#utility.yul\":6855:6861   */\n      dup3\n        /* \"#utility.yul\":6844:6853   */\n      dup7\n        /* \"#utility.yul\":6840:6862   */\n      add\n        /* \"#utility.yul\":6819:6872   */\n      tag_184\n      jump\t// in\n    tag_316:\n        /* \"#utility.yul\":6809:6872   */\n      swap2\n      pop\n        /* \"#utility.yul\":6764:6882   */\n      pop\n        /* \"#utility.yul\":6399:6889   */\n      swap3\n      pop\n      swap3\n      swap1\n      pop\n      jump\t// out\n        /* \"#utility.yul\":6895:6972   */\n    tag_193:\n        /* \"#utility.yul\":6932:6939   */\n      0x00\n        /* \"#utility.yul\":6961:6966   */\n      dup2\n        /* \"#utility.yul\":6950:6966   */\n      swap1\n      pop\n        /* \"#utility.yul\":6895:6972   */\n      swap2\n      swap1\n      pop\n      jump\t// out\n        /* \"#utility.yul\":6978:7100   */\n    tag_194:\n        /* \"#utility.yul\":7051:7075   */\n      tag_319\n        /* \"#utility.yul\":7069:7074   */\n      dup2\n        /* \"#utility.yul\":7051:7075   */\n      tag_193\n      jump\t// in\n    tag_319:\n        /* \"#utility.yul\":7044:7049   */\n      dup2\n        /* \"#utility.yul\":7041:7076   */\n      eq\n        /* \"#utility.yul\":7031:7094   */\n      tag_320\n      jumpi\n        /* \"#utility.yul\":7090:7091   */\n      0x00\n        /* \"#utility.yul\":7087:7088   */\n      0x00\n        /* \"#utility.yul\":7080:7092   */\n      revert\n        /* \"#utility.yul\":7031:7094   */\n    tag_320:\n        /* \"#utility.yul\":6978:7100   */\n      pop\n      jump\t// out\n        /* \"#utility.yul\":7106:7245   */\n    tag_195:\n        /* \"#utility.yul\":7152:7157   */\n      0x00\n        /* \"#utility.yul\":7190:7196   */\n      dup2\n        /* \"#utility.yul\":7177:7197   */\n      calldataload\n        /* \"#utility.yul\":7168:7197   */\n      swap1\n      pop\n        /* \"#utility.yul\":7206:7239   */\n      tag_322\n        /* \"#utility.yul\":7233:7238   */\n      dup2\n        /* \"#utility.yul\":7206:7239   */\n      tag_194\n      jump\t// in\n    tag_322:\n        /* \"#utility.yul\":7106:7245   */\n      swap3\n      swap2\n      pop\n      pop\n      jump\t// out\n        /* \"#utility.yul\":7251:7580   */\n    tag_89:\n        /* \"#utility.yul\":7310:7316   */\n      0x00\n        /* \"#utility.yul\":7359:7361   */\n      0x20\n        /* \"#utility.yul\":7347:7356   */\n      dup3\n        /* \"#utility.yul\":7338:7345   */\n      dup5\n        /* \"#utility.yul\":7334:7357   */\n      sub\n        /* \"#utility.yul\":7330:7362   */\n      slt\n        /* \"#utility.yul\":7327:7446   */\n      iszero\n      tag_324\n      jumpi\n        /* \"#utility.yul\":7365:7444   */\n      tag_325\n      tag_177\n      jump\t// in\n    tag_325:\n        /* \"#utility.yul\":7327:7446   */\n    tag_324:\n        /* \"#utility.yul\":7485:7486   */\n      0x00\n        /* \"#utility.yul\":7510:7563   */\n      tag_326\n        /* \"#utility.yul\":7555:7562   */\n      dup5\n        /* \"#utility.yul\":7546:7552   */\n      dup3\n        /* \"#utility.yul\":7535:7544   */\n      dup6\n        /* \"#utility.yul\":7531:7553   */\n      add\n        /* \"#utility.yul\":7510:7563   */\n      tag_195\n      jump\t// in\n    tag_326:\n        /* \"#utility.yul\":7500:7563   */\n      swap2\n      pop\n        /* \"#utility.yul\":7456:7573   */\n      pop\n        /* \"#utility.yul\":7251:7580   */\n      swap3\n      swap2\n      pop\n      pop\n      jump\t// out\n        /* \"#utility.yul\":7586:7766   */\n    tag_95:\n        /* \"#utility.yul\":7634:7711   */\n      0x4e487b7100000000000000000000000000000000000000000000000000000000\n        /* \"#utility.yul\":7631:7632   */\n      0x00\n        /* \"#utility.yul\":7624:7712   */\n      mstore\n        /* \"#utility.yul\":7731:7735   */\n      0x32\n        /* \"#utility.yul\":7728:7729   */\n      0x04\n        /* \"#utility.yul\":7721:7736   */\n      mstore\n        /* \"#utility.yul\":7755:7759   */\n      0x24\n        /* \"#utility.yul\":7752:7753   */\n      0x00\n        /* \"#utility.yul\":7745:7760   */\n      revert\n        /* \"#utility.yul\":7772:7941   */\n    tag_196:\n        /* \"#utility.yul\":7856:7867   */\n      0x00\n        /* \"#utility.yul\":7890:7896   */\n      dup3\n        /* \"#utility.yul\":7885:7888   */\n      dup3\n        /* \"#utility.yul\":7878:7897   */\n      mstore\n        /* \"#utility.yul\":7930:7934   */\n      0x20\n        /* \"#utility.yul\":7925:7928   */\n      dup3\n        /* \"#utility.yul\":7921:7935   */\n      add\n        /* \"#utility.yul\":7906:7935   */\n      swap1\n      pop\n        /* \"#utility.yul\":7772:7941   */\n      swap3\n      swap2\n      pop\n      pop\n      jump\t// out\n        /* \"#utility.yul\":7947:8106   */\n    tag_197:\n        /* \"#utility.yul\":8087:8098   */\n      0x5265656e7472616e740000000000000000000000000000000000000000000000\n        /* \"#utility.yul\":8083:8084   */\n      0x00\n        /* \"#utility.yul\":8075:8081   */\n      dup3\n        /* \"#utility.yul\":8071:8085   */\n      add\n        /* \"#utility.yul\":8064:8099   */\n      mstore\n        /* \"#utility.yul\":7947:8106   */\n      pop\n      jump\t// out\n        /* \"#utility.yul\":8112:8477   */\n    tag_198:\n        /* \"#utility.yul\":8254:8257   */\n      0x00\n        /* \"#utility.yul\":8275:8341   */\n      tag_331\n        /* \"#utility.yul\":8339:8340   */\n      0x09\n        /* \"#utility.yul\":8334:8337   */\n      dup4\n        /* \"#utility.yul\":8275:8341   */\n      tag_196\n      jump\t// in\n    tag_331:\n        /* \"#utility.yul\":8268:8341   */\n      swap2\n      pop\n        /* \"#utility.yul\":8350:8443   */\n      tag_332\n        /* \"#utility.yul\":8439:8442   */\n      dup3\n        /* \"#utility.yul\":8350:8443   */\n      tag_197\n      jump\t// in\n    tag_332:\n        /* \"#utility.yul\":8468:8470   */\n      0x20\n        /* \"#utility.yul\":8463:8466   */\n      dup3\n        /* \"#utility.yul\":8459:8471   */\n      add\n        /* \"#utility.yul\":8452:8471   */\n      swap1\n      pop\n        /* \"#utility.yul\":8112:8477   */\n      swap2\n      swap1\n      pop\n      jump\t// out\n        /* \"#utility.yul\":8483:8902   */\n    tag_100:\n        /* \"#utility.yul\":8649:8653   */\n      0x00\n        /* \"#utility.yul\":8687:8689   */\n      0x20\n        /* \"#utility.yul\":8676:8685   */\n      dup3\n        /* \"#utility.yul\":8672:8690   */\n      add\n        /* \"#utility.yul\":8664:8690   */\n      swap1\n      pop\n        /* \"#utility.yul\":8736:8745   */\n      dup2\n        /* \"#utility.yul\":8730:8734   */\n      dup2\n        /* \"#utility.yul\":8726:8746   */\n      sub\n        /* \"#utility.yul\":8722:8723   */\n      0x00\n        /* \"#utility.yul\":8711:8720   */\n      dup4\n        /* \"#utility.yul\":8707:8724   */\n      add\n        /* \"#utility.yul\":8700:8747   */\n      mstore\n        /* \"#utility.yul\":8764:8895   */\n      tag_334\n        /* \"#utility.yul\":8890:8894   */\n      dup2\n        /* \"#utility.yul\":8764:8895   */\n      tag_198\n      jump\t// in\n    tag_334:\n        /* \"#utility.yul\":8756:8895   */\n      swap1\n      pop\n        /* \"#utility.yul\":8483:8902   */\n      swap2\n      swap1\n      pop\n      jump\t// out\n        /* \"#utility.yul\":8908:9078   */\n    tag_199:\n        /* \"#utility.yul\":9048:9070   */\n      0x496e73756666696369656e742062616c616e6365000000000000000000000000\n        /* \"#utility.yul\":9044:9045   */\n      0x00\n        /* \"#utility.yul\":9036:9042   */\n      dup3\n        /* \"#utility.yul\":9032:9046   */\n      add\n        /* \"#utility.yul\":9025:9071   */\n      mstore\n        /* \"#utility.yul\":8908:9078   */\n      pop\n      jump\t// out\n        /* \"#utility.yul\":9084:9450   */\n    tag_200:\n        /* \"#utility.yul\":9226:9229   */\n      0x00\n        /* \"#utility.yul\":9247:9314   */\n      tag_337\n        /* \"#utility.yul\":9311:9313   */\n      0x14\n        /* \"#utility.yul\":9306:9309   */\n      dup4\n        /* \"#utility.yul\":9247:9314   */\n      tag_196\n      jump\t// in\n    tag_337:\n        /* \"#utility.yul\":9240:9314   */\n      swap2\n      pop\n        /* \"#utility.yul\":9323:9416   */\n      tag_338\n        /* \"#utility.yul\":9412:9415   */\n      dup3\n        /* \"#utility.yul\":9323:9416   */\n      tag_199\n      jump\t// in\n    tag_338:\n        /* \"#utility.yul\":9441:9443   */\n      0x20\n        /* \"#utility.yul\":9436:9439   */\n      dup3\n        /* \"#utility.yul\":9432:9444   */\n      add\n        /* \"#utility.yul\":9425:9444   */\n      swap1\n      pop\n        /* \"#utility.yul\":9084:9450   */\n      swap2\n      swap1\n      pop\n      jump\t// out\n        /* \"#utility.yul\":9456:9875   */\n    tag_104:\n        /* \"#utility.yul\":9622:9626   */\n      0x00\n        /* \"#utility.yul\":9660:9662   */\n      0x20\n        /* \"#utility.yul\":9649:9658   */\n      dup3\n        /* \"#utility.yul\":9645:9663   */\n      add\n        /* \"#utility.yul\":9637:9663   */\n      swap1\n      pop\n        /* \"#utility.yul\":9709:9718   */\n      dup2\n        /* \"#utility.yul\":9703:9707   */\n      dup2\n        /* \"#utility.yul\":9699:9719   */\n      sub\n        /* \"#utility.yul\":9695:9696   */\n      0x00\n        /* \"#utility.yul\":9684:9693   */\n      dup4\n        /* \"#utility.yul\":9680:9697   */\n      add\n        /* \"#utility.yul\":9673:9720   */\n      mstore\n        /* \"#utility.yul\":9737:9868   */\n      tag_340\n        /* \"#utility.yul\":9863:9867   */\n      dup2\n        /* \"#utility.yul\":9737:9868   */\n      tag_200\n      jump\t// in\n    tag_340:\n        /* \"#utility.yul\":9729:9868   */\n      swap1\n      pop\n        /* \"#utility.yul\":9456:9875   */\n      swap2\n      swap1\n      pop\n      jump\t// out\n        /* \"#utility.yul\":9881:10075   */\n    tag_106:\n        /* \"#utility.yul\":9921:9925   */\n      0x00\n        /* \"#utility.yul\":9941:9961   */\n      tag_342\n        /* \"#utility.yul\":9959:9960   */\n      dup3\n        /* \"#utility.yul\":9941:9961   */\n      tag_173\n      jump\t// in\n    tag_342:\n        /* \"#utility.yul\":9936:9961   */\n      swap2\n      pop\n        /* \"#utility.yul\":9975:9995   */\n      tag_343\n        /* \"#utility.yul\":9993:9994   */\n      dup4\n        /* \"#utility.yul\":9975:9995   */\n      tag_173\n      jump\t// in\n    tag_343:\n        /* \"#utility.yul\":9970:9995   */\n      swap3\n      pop\n        /* \"#utility.yul\":10019:10020   */\n      dup3\n        /* \"#utility.yul\":10016:10017   */\n      dup3\n        /* \"#utility.yul\":10012:10021   */\n      sub\n        /* \"#utility.yul\":10004:10021   */\n      swap1\n      pop\n        /* \"#utility.yul\":10043:10044   */\n      dup2\n        /* \"#utility.yul\":10037:10041   */\n      dup2\n        /* \"#utility.yul\":10034:10045   */\n      gt\n        /* \"#utility.yul\":10031:10068   */\n      iszero\n      tag_344\n      jumpi\n        /* \"#utility.yul\":10048:10066   */\n      tag_345\n      tag_174\n      jump\t// in\n    tag_345:\n        /* \"#utility.yul\":10031:10068   */\n    tag_344:\n        /* \"#utility.yul\":9881:10075   */\n      swap3\n      swap2\n      pop\n      pop\n      jump\t// out\n        /* \"#utility.yul\":10081:10228   */\n    tag_201:\n        /* \"#utility.yul\":10182:10193   */\n      0x00\n        /* \"#utility.yul\":10219:10222   */\n      dup2\n        /* \"#utility.yul\":10204:10222   */\n      swap1\n      pop\n        /* \"#utility.yul\":10081:10228   */\n      swap3\n      swap2\n      pop\n      pop\n      jump\t// out\n        /* \"#utility.yul\":10234:10348   */\n    tag_202:\n      pop\n      jump\t// out\n        /* \"#utility.yul\":10354:10752   */\n    tag_203:\n        /* \"#utility.yul\":10513:10516   */\n      0x00\n        /* \"#utility.yul\":10534:10617   */\n      tag_349\n        /* \"#utility.yul\":10615:10616   */\n      0x00\n        /* \"#utility.yul\":10610:10613   */\n      dup4\n        /* \"#utility.yul\":10534:10617   */\n      tag_201\n      jump\t// in\n    tag_349:\n        /* \"#utility.yul\":10527:10617   */\n      swap2\n      pop\n        /* \"#utility.yul\":10626:10719   */\n      tag_350\n        /* \"#utility.yul\":10715:10718   */\n      dup3\n        /* \"#utility.yul\":10626:10719   */\n      tag_202\n      jump\t// in\n    tag_350:\n        /* \"#utility.yul\":10744:10745   */\n      0x00\n        /* \"#utility.yul\":10739:10742   */\n      dup3\n        /* \"#utility.yul\":10735:10746   */\n      add\n        /* \"#utility.yul\":10728:10746   */\n      swap1\n      pop\n        /* \"#utility.yul\":10354:10752   */\n      swap2\n      swap1\n      pop\n      jump\t// out\n        /* \"#utility.yul\":10758:11137   */\n    tag_108:\n        /* \"#utility.yul\":10942:10945   */\n      0x00\n        /* \"#utility.yul\":10964:11111   */\n      tag_352\n        /* \"#utility.yul\":11107:11110   */\n      dup3\n        /* \"#utility.yul\":10964:11111   */\n      tag_203\n      jump\t// in\n    tag_352:\n        /* \"#utility.yul\":10957:11111   */\n      swap2\n      pop\n        /* \"#utility.yul\":11128:11131   */\n      dup2\n        /* \"#utility.yul\":11121:11131   */\n      swap1\n      pop\n        /* \"#utility.yul\":10758:11137   */\n      swap2\n      swap1\n      pop\n      jump\t// out\n        /* \"#utility.yul\":11143:11308   */\n    tag_204:\n        /* \"#utility.yul\":11283:11300   */\n      0x5472616e73666572206661696c65640000000000000000000000000000000000\n        /* \"#utility.yul\":11279:11280   */\n      0x00\n        /* \"#utility.yul\":11271:11277   */\n      dup3\n        /* \"#utility.yul\":11267:11281   */\n      add\n        /* \"#utility.yul\":11260:11301   */\n      mstore\n        /* \"#utility.yul\":11143:11308   */\n      pop\n      jump\t// out\n        /* \"#utility.yul\":11314:11680   */\n    tag_205:\n        /* \"#utility.yul\":11456:11459   */\n      0x00\n        /* \"#utility.yul\":11477:11544   */\n      tag_355\n        /* \"#utility.yul\":11541:11543   */\n      0x0f\n        /* \"#utility.yul\":11536:11539   */\n      dup4\n        /* \"#utility.yul\":11477:11544   */\n      tag_196\n      jump\t// in\n    tag_355:\n        /* \"#utility.yul\":11470:11544   */\n      swap2\n      pop\n        /* \"#utility.yul\":11553:11646   */\n      tag_356\n        /* \"#utility.yul\":11642:11645   */\n      dup3\n        /* \"#utility.yul\":11553:11646   */\n      tag_204\n      jump\t// in\n    tag_356:\n        /* \"#utility.yul\":11671:11673   */\n      0x20\n        /* \"#utility.yul\":11666:11669   */\n      dup3\n        /* \"#utility.yul\":11662:11674   */\n      add\n        /* \"#utility.yul\":11655:11674   */\n      swap1\n      pop\n        /* \"#utility.yul\":11314:11680   */\n      swap2\n      swap1\n      pop\n      jump\t// out\n        /* \"#utility.yul\":11686:12105   */\n    tag_114:\n        /* \"#utility.yul\":11852:11856   */\n      0x00\n        /* \"#utility.yul\":11890:11892   */\n      0x20\n        /* \"#utility.yul\":11879:11888   */\n      dup3\n        /* \"#utility.yul\":11875:11893   */\n      add\n        /* \"#utility.yul\":11867:11893   */\n      swap1\n      pop\n        /* \"#utility.yul\":11939:11948   */\n      dup2\n        /* \"#utility.yul\":11933:11937   */\n      dup2\n        /* \"#utility.yul\":11929:11949   */\n      sub\n        /* \"#utility.yul\":11925:11926   */\n      0x00\n        /* \"#utility.yul\":11914:11923   */\n      dup4\n        /* \"#utility.yul\":11910:11927   */\n      add\n        /* \"#utility.yul\":11903:11950   */\n      mstore\n        /* \"#utility.yul\":11967:12098   */\n      tag_358\n        /* \"#utility.yul\":12093:12097   */\n      dup2\n        /* \"#utility.yul\":11967:12098   */\n      tag_205\n      jump\t// in\n    tag_358:\n        /* \"#utility.yul\":11959:12098   */\n      swap1\n      pop\n        /* \"#utility.yul\":11686:12105   */\n      swap2\n      swap1\n      pop\n      jump\t// out\n        /* \"#utility.yul\":12111:12270   */\n    tag_206:\n        /* \"#utility.yul\":12251:12262   */\n      0x4e6f20636f6d6d69740000000000000000000000000000000000000000000000\n        /* \"#utility.yul\":12247:12248   */\n      0x00\n        /* \"#utility.yul\":12239:12245   */\n      dup3\n        /* \"#utility.yul\":12235:12249   */\n      add\n        /* \"#utility.yul\":12228:12263   */\n      mstore\n        /* \"#utility.yul\":12111:12270   */\n      pop\n      jump\t// out\n        /* \"#utility.yul\":12276:12641   */\n    tag_207:\n        /* \"#utility.yul\":12418:12421   */\n      0x00\n        /* \"#utility.yul\":12439:12505   */\n      tag_361\n        /* \"#utility.yul\":12503:12504   */\n      0x09\n        /* \"#utility.yul\":12498:12501   */\n      dup4\n        /* \"#utility.yul\":12439:12505   */\n      tag_196\n      jump\t// in\n    tag_361:\n        /* \"#utility.yul\":12432:12505   */\n      swap2\n      pop\n        /* \"#utility.yul\":12514:12607   */\n      tag_362\n        /* \"#utility.yul\":12603:12606   */\n      dup3\n        /* \"#utility.yul\":12514:12607   */\n      tag_206\n      jump\t// in\n    tag_362:\n        /* \"#utility.yul\":12632:12634   */\n      0x20\n        /* \"#utility.yul\":12627:12630   */\n      dup3\n        /* \"#utility.yul\":12623:12635   */\n      add\n        /* \"#utility.yul\":12616:12635   */\n      swap1\n      pop\n        /* \"#utility.yul\":12276:12641   */\n      swap2\n      swap1\n      pop\n      jump\t// out\n        /* \"#utility.yul\":12647:13066   */\n    tag_119:\n        /* \"#utility.yul\":12813:12817   */\n      0x00\n        /* \"#utility.yul\":12851:12853   */\n      0x20\n        /* \"#utility.yul\":12840:12849   */\n      dup3\n        /* \"#utility.yul\":12836:12854   */\n      add\n        /* \"#utility.yul\":12828:12854   */\n      swap1\n      pop\n        /* \"#utility.yul\":12900:12909   */\n      dup2\n        /* \"#utility.yul\":12894:12898   */\n      dup2\n        /* \"#utility.yul\":12890:12910   */\n      sub\n        /* \"#utility.yul\":12886:12887   */\n      0x00\n        /* \"#utility.yul\":12875:12884   */\n      dup4\n        /* \"#utility.yul\":12871:12888   */\n      add\n        /* \"#utility.yul\":12864:12911   */\n      mstore\n        /* \"#utility.yul\":12928:13059   */\n      tag_364\n        /* \"#utility.yul\":13054:13058   */\n      dup2\n        /* \"#utility.yul\":12928:13059   */\n      tag_207\n      jump\t// in\n    tag_364:\n        /* \"#utility.yul\":12920:13059   */\n      swap1\n      pop\n        /* \"#utility.yul\":12647:13066   */\n      swap2\n      swap1\n      pop\n      jump\t// out\n        /* \"#utility.yul\":13072:13238   */\n    tag_208:\n        /* \"#utility.yul\":13212:13230   */\n      0x416c72656164792072657665616c656400000000000000000000000000000000\n        /* \"#utility.yul\":13208:13209   */\n      0x00\n        /* \"#utility.yul\":13200:13206   */\n      dup3\n        /* \"#utility.yul\":13196:13210   */\n      add\n        /* \"#utility.yul\":13189:13231   */\n      mstore\n        /* \"#utility.yul\":13072:13238   */\n      pop\n      jump\t// out\n        /* \"#utility.yul\":13244:13610   */\n    tag_209:\n        /* \"#utility.yul\":13386:13389   */\n      0x00\n        /* \"#utility.yul\":13407:13474   */\n      tag_367\n        /* \"#utility.yul\":13471:13473   */\n      0x10\n        /* \"#utility.yul\":13466:13469   */\n      dup4\n        /* \"#utility.yul\":13407:13474   */\n      tag_196\n      jump\t// in\n    tag_367:\n        /* \"#utility.yul\":13400:13474   */\n      swap2\n      pop\n        /* \"#utility.yul\":13483:13576   */\n      tag_368\n        /* \"#utility.yul\":13572:13575   */\n      dup3\n        /* \"#utility.yul\":13483:13576   */\n      tag_208\n      jump\t// in\n    tag_368:\n        /* \"#utility.yul\":13601:13603   */\n      0x20\n        /* \"#utility.yul\":13596:13599   */\n      dup3\n        /* \"#utility.yul\":13592:13604   */\n      add\n        /* \"#utility.yul\":13585:13604   */\n      swap1\n      pop\n        /* \"#utility.yul\":13244:13610   */\n      swap2\n      swap1\n      pop\n      jump\t// out\n        /* \"#utility.yul\":13616:14035   */\n    tag_122:\n        /* \"#utility.yul\":13782:13786   */\n      0x00\n        /* \"#utility.yul\":13820:13822   */\n      0x20\n        /* \"#utility.yul\":13809:13818   */\n      dup3\n        /* \"#utility.yul\":13805:13823   */\n      add\n        /* \"#utility.yul\":13797:13823   */\n      swap1\n      pop\n        /* \"#utility.yul\":13869:13878   */\n      dup2\n        /* \"#utility.yul\":13863:13867   */\n      dup2\n        /* \"#utility.yul\":13859:13879   */\n      sub\n        /* \"#utility.yul\":13855:13856   */\n      0x00\n        /* \"#utility.yul\":13844:13853   */\n      dup4\n        /* \"#utility.yul\":13840:13857   */\n      add\n        /* \"#utility.yul\":13833:13880   */\n      mstore\n        /* \"#utility.yul\":13897:14028   */\n      tag_370\n        /* \"#utility.yul\":14023:14027   */\n      dup2\n        /* \"#utility.yul\":13897:14028   */\n      tag_209\n      jump\t// in\n    tag_370:\n        /* \"#utility.yul\":13889:14028   */\n      swap1\n      pop\n        /* \"#utility.yul\":13616:14035   */\n      swap2\n      swap1\n      pop\n      jump\t// out\n        /* \"#utility.yul\":14041:14120   */\n    tag_210:\n        /* \"#utility.yul\":14080:14087   */\n      0x00\n        /* \"#utility.yul\":14109:14114   */\n      dup2\n        /* \"#utility.yul\":14098:14114   */\n      swap1\n      pop\n        /* \"#utility.yul\":14041:14120   */\n      swap2\n      swap1\n      pop\n      jump\t// out\n        /* \"#utility.yul\":14126:14283   */\n    tag_211:\n        /* \"#utility.yul\":14231:14276   */\n      tag_373\n        /* \"#utility.yul\":14251:14275   */\n      tag_374\n        /* \"#utility.yul\":14269:14274   */\n      dup3\n        /* \"#utility.yul\":14251:14275   */\n      tag_173\n      jump\t// in\n    tag_374:\n        /* \"#utility.yul\":14231:14276   */\n      tag_210\n      jump\t// in\n    tag_373:\n        /* \"#utility.yul\":14226:14229   */\n      dup3\n        /* \"#utility.yul\":14219:14277   */\n      mstore\n        /* \"#utility.yul\":14126:14283   */\n      pop\n      pop\n      jump\t// out\n        /* \"#utility.yul\":14289:14437   */\n    tag_212:\n        /* \"#utility.yul\":14391:14402   */\n      0x00\n        /* \"#utility.yul\":14428:14431   */\n      dup2\n        /* \"#utility.yul\":14413:14431   */\n      swap1\n      pop\n        /* \"#utility.yul\":14289:14437   */\n      swap3\n      swap2\n      pop\n      pop\n      jump\t// out\n        /* \"#utility.yul\":14443:14591   */\n    tag_213:\n        /* \"#utility.yul\":14541:14547   */\n      dup3\n        /* \"#utility.yul\":14536:14539   */\n      dup2\n        /* \"#utility.yul\":14531:14534   */\n      dup4\n        /* \"#utility.yul\":14518:14548   */\n      calldatacopy\n        /* \"#utility.yul\":14582:14583   */\n      0x00\n        /* \"#utility.yul\":14573:14579   */\n      dup4\n        /* \"#utility.yul\":14568:14571   */\n      dup4\n        /* \"#utility.yul\":14564:14580   */\n      add\n        /* \"#utility.yul\":14557:14584   */\n      mstore\n        /* \"#utility.yul\":14443:14591   */\n      pop\n      pop\n      pop\n      jump\t// out\n        /* \"#utility.yul\":14621:14951   */\n    tag_214:\n        /* \"#utility.yul\":14737:14740   */\n      0x00\n        /* \"#utility.yul\":14758:14847   */\n      tag_378\n        /* \"#utility.yul\":14840:14846   */\n      dup4\n        /* \"#utility.yul\":14835:14838   */\n      dup6\n        /* \"#utility.yul\":14758:14847   */\n      tag_212\n      jump\t// in\n    tag_378:\n        /* \"#utility.yul\":14751:14847   */\n      swap4\n      pop\n        /* \"#utility.yul\":14857:14913   */\n      tag_379\n        /* \"#utility.yul\":14906:14912   */\n      dup4\n        /* \"#utility.yul\":14901:14904   */\n      dup6\n        /* \"#utility.yul\":14894:14899   */\n      dup5\n        /* \"#utility.yul\":14857:14913   */\n      tag_213\n      jump\t// in\n    tag_379:\n        /* \"#utility.yul\":14938:14944   */\n      dup3\n        /* \"#utility.yul\":14933:14936   */\n      dup5\n        /* \"#utility.yul\":14929:14945   */\n      add\n        /* \"#utility.yul\":14922:14945   */\n      swap1\n      pop\n        /* \"#utility.yul\":14621:14951   */\n      swap4\n      swap3\n      pop\n      pop\n      pop\n      jump\t// out\n        /* \"#utility.yul\":14957:15051   */\n    tag_215:\n        /* \"#utility.yul\":14990:14998   */\n      0x00\n        /* \"#utility.yul\":15038:15043   */\n      dup2\n        /* \"#utility.yul\":15034:15036   */\n      0x60\n        /* \"#utility.yul\":15030:15044   */\n      shl\n        /* \"#utility.yul\":15009:15044   */\n      swap1\n      pop\n        /* \"#utility.yul\":14957:15051   */\n      swap2\n      swap1\n      pop\n      jump\t// out\n        /* \"#utility.yul\":15057:15151   */\n    tag_216:\n        /* \"#utility.yul\":15096:15103   */\n      0x00\n        /* \"#utility.yul\":15125:15145   */\n      tag_382\n        /* \"#utility.yul\":15139:15144   */\n      dup3\n        /* \"#utility.yul\":15125:15145   */\n      tag_215\n      jump\t// in\n    tag_382:\n        /* \"#utility.yul\":15114:15145   */\n      swap1\n      pop\n        /* \"#utility.yul\":15057:15151   */\n      swap2\n      swap1\n      pop\n      jump\t// out\n        /* \"#utility.yul\":15157:15257   */\n    tag_217:\n        /* \"#utility.yul\":15196:15203   */\n      0x00\n        /* \"#utility.yul\":15225:15251   */\n      tag_384\n        /* \"#utility.yul\":15245:15250   */\n      dup3\n        /* \"#utility.yul\":15225:15251   */\n      tag_216\n      jump\t// in\n    tag_384:\n        /* \"#utility.yul\":15214:15251   */\n      swap1\n      pop\n        /* \"#utility.yul\":15157:15257   */\n      swap2\n      swap1\n      pop\n      jump\t// out\n        /* \"#utility.yul\":15263:15420   */\n    tag_218:\n        /* \"#utility.yul\":15368:15413   */\n      tag_386\n        /* \"#utility.yul\":15388:15412   */\n      tag_387\n        /* \"#utility.yul\":15406:15411   */\n      dup3\n        /* \"#utility.yul\":15388:15412   */\n      tag_180\n      jump\t// in\n    tag_387:\n        /* \"#utility.yul\":15368:15413   */\n      tag_217\n      jump\t// in\n    tag_386:\n        /* \"#utility.yul\":15363:15366   */\n      dup3\n        /* \"#utility.yul\":15356:15414   */\n      mstore\n        /* \"#utility.yul\":15263:15420   */\n      pop\n      pop\n      jump\t// out\n        /* \"#utility.yul\":15426:16003   */\n    tag_124:\n        /* \"#utility.yul\":15624:15627   */\n      0x00\n        /* \"#utility.yul\":15639:15714   */\n      tag_389\n        /* \"#utility.yul\":15710:15713   */\n      dup3\n        /* \"#utility.yul\":15701:15707   */\n      dup8\n        /* \"#utility.yul\":15639:15714   */\n      tag_211\n      jump\t// in\n    tag_389:\n        /* \"#utility.yul\":15739:15741   */\n      0x20\n        /* \"#utility.yul\":15734:15737   */\n      dup3\n        /* \"#utility.yul\":15730:15742   */\n      add\n        /* \"#utility.yul\":15723:15742   */\n      swap2\n      pop\n        /* \"#utility.yul\":15759:15864   */\n      tag_390\n        /* \"#utility.yul\":15860:15863   */\n      dup3\n        /* \"#utility.yul\":15851:15857   */\n      dup6\n        /* \"#utility.yul\":15843:15849   */\n      dup8\n        /* \"#utility.yul\":15759:15864   */\n      tag_214\n      jump\t// in\n    tag_390:\n        /* \"#utility.yul\":15752:15864   */\n      swap2\n      pop\n        /* \"#utility.yul\":15874:15949   */\n      tag_391\n        /* \"#utility.yul\":15945:15948   */\n      dup3\n        /* \"#utility.yul\":15936:15942   */\n      dup5\n        /* \"#utility.yul\":15874:15949   */\n      tag_218\n      jump\t// in\n    tag_391:\n        /* \"#utility.yul\":15974:15976   */\n      0x14\n        /* \"#utility.yul\":15969:15972   */\n      dup3\n        /* \"#utility.yul\":15965:15977   */\n      add\n        /* \"#utility.yul\":15958:15977   */\n      swap2\n      pop\n        /* \"#utility.yul\":15994:15997   */\n      dup2\n        /* \"#utility.yul\":15987:15997   */\n      swap1\n      pop\n        /* \"#utility.yul\":15426:16003   */\n      swap6\n      swap5\n      pop\n      pop\n      pop\n      pop\n      pop\n      jump\t// out\n        /* \"#utility.yul\":16009:16172   */\n    tag_219:\n        /* \"#utility.yul\":16149:16164   */\n      0x48617368206d69736d6174636800000000000000000000000000000000000000\n        /* \"#utility.yul\":16145:16146   */\n      0x00\n        /* \"#utility.yul\":16137:16143   */\n      dup3\n        /* \"#utility.yul\":16133:16147   */\n      add\n        /* \"#utility.yul\":16126:16165   */\n      mstore\n        /* \"#utility.yul\":16009:16172   */\n      pop\n      jump\t// out\n        /* \"#utility.yul\":16178:16544   */\n    tag_220:\n        /* \"#utility.yul\":16320:16323   */\n      0x00\n        /* \"#utility.yul\":16341:16408   */\n      tag_394\n        /* \"#utility.yul\":16405:16407   */\n      0x0d\n        /* \"#utility.yul\":16400:16403   */\n      dup4\n        /* \"#utility.yul\":16341:16408   */\n      tag_196\n      jump\t// in\n    tag_394:\n        /* \"#utility.yul\":16334:16408   */\n      swap2\n      pop\n        /* \"#utility.yul\":16417:16510   */\n      tag_395\n        /* \"#utility.yul\":16506:16509   */\n      dup3\n        /* \"#utility.yul\":16417:16510   */\n      tag_219\n      jump\t// in\n    tag_395:\n        /* \"#utility.yul\":16535:16537   */\n      0x20\n        /* \"#utility.yul\":16530:16533   */\n      dup3\n        /* \"#utility.yul\":16526:16538   */\n      add\n        /* \"#utility.yul\":16519:16538   */\n      swap1\n      pop\n        /* \"#utility.yul\":16178:16544   */\n      swap2\n      swap1\n      pop\n      jump\t// out\n        /* \"#utility.yul\":16550:16969   */\n    tag_127:\n        /* \"#utility.yul\":16716:16720   */\n      0x00\n        /* \"#utility.yul\":16754:16756   */\n      0x20\n        /* \"#utility.yul\":16743:16752   */\n      dup3\n        /* \"#utility.yul\":16739:16757   */\n      add\n        /* \"#utility.yul\":16731:16757   */\n      swap1\n      pop\n        /* \"#utility.yul\":16803:16812   */\n      dup2\n        /* \"#utility.yul\":16797:16801   */\n      dup2\n        /* \"#utility.yul\":16793:16813   */\n      sub\n        /* \"#utility.yul\":16789:16790   */\n      0x00\n        /* \"#utility.yul\":16778:16787   */\n      dup4\n        /* \"#utility.yul\":16774:16791   */\n      add\n        /* \"#utility.yul\":16767:16814   */\n      mstore\n        /* \"#utility.yul\":16831:16962   */\n      tag_397\n        /* \"#utility.yul\":16957:16961   */\n      dup2\n        /* \"#utility.yul\":16831:16962   */\n      tag_220\n      jump\t// in\n    tag_397:\n        /* \"#utility.yul\":16823:16962   */\n      swap1\n      pop\n        /* \"#utility.yul\":16550:16969   */\n      swap2\n      swap1\n      pop\n      jump\t// out\n        /* \"#utility.yul\":16975:17134   */\n    tag_221:\n        /* \"#utility.yul\":17115:17126   */\n      0x4e6f74206f776e65720000000000000000000000000000000000000000000000\n        /* \"#utility.yul\":17111:17112   */\n      0x00\n        /* \"#utility.yul\":17103:17109   */\n      dup3\n        /* \"#utility.yul\":17099:17113   */\n      add\n        /* \"#utility.yul\":17092:17127   */\n      mstore\n        /* \"#utility.yul\":16975:17134   */\n      pop\n      jump\t// out\n        /* \"#utility.yul\":17140:17505   */\n    tag_222:\n        /* \"#utility.yul\":17282:17285   */\n      0x00\n        /* \"#utility.yul\":17303:17369   */\n      tag_400\n        /* \"#utility.yul\":17367:17368   */\n      0x09\n        /* \"#utility.yul\":17362:17365   */\n      dup4\n        /* \"#utility.yul\":17303:17369   */\n      tag_196\n      jump\t// in\n    tag_400:\n        /* \"#utility.yul\":17296:17369   */\n      swap2\n      pop\n        /* \"#utility.yul\":17378:17471   */\n      tag_401\n        /* \"#utility.yul\":17467:17470   */\n      dup3\n        /* \"#utility.yul\":17378:17471   */\n      tag_221\n      jump\t// in\n    tag_401:\n        /* \"#utility.yul\":17496:17498   */\n      0x20\n        /* \"#utility.yul\":17491:17494   */\n      dup3\n        /* \"#utility.yul\":17487:17499   */\n      add\n        /* \"#utility.yul\":17480:17499   */\n      swap1\n      pop\n        /* \"#utility.yul\":17140:17505   */\n      swap2\n      swap1\n      pop\n      jump\t// out\n        /* \"#utility.yul\":17511:17930   */\n    tag_137:\n        /* \"#utility.yul\":17677:17681   */\n      0x00\n        /* \"#utility.yul\":17715:17717   */\n      0x20\n        /* \"#utility.yul\":17704:17713   */\n      dup3\n        /* \"#utility.yul\":17700:17718   */\n      add\n        /* \"#utility.yul\":17692:17718   */\n      swap1\n      pop\n        /* \"#utility.yul\":17764:17773   */\n      dup2\n        /* \"#utility.yul\":17758:17762   */\n      dup2\n        /* \"#utility.yul\":17754:17774   */\n      sub\n        /* \"#utility.yul\":17750:17751   */\n      0x00\n        /* \"#utility.yul\":17739:17748   */\n      dup4\n        /* \"#utility.yul\":17735:17752   */\n      add\n        /* \"#utility.yul\":17728:17775   */\n      mstore\n        /* \"#utility.yul\":17792:17923   */\n      tag_403\n        /* \"#utility.yul\":17918:17922   */\n      dup2\n        /* \"#utility.yul\":17792:17923   */\n      tag_222\n      jump\t// in\n    tag_403:\n        /* \"#utility.yul\":17784:17923   */\n      swap1\n      pop\n        /* \"#utility.yul\":17511:17930   */\n      swap2\n      swap1\n      pop\n      jump\t// out\n        /* \"#utility.yul\":17936:18098   */\n    tag_223:\n        /* \"#utility.yul\":18076:18090   */\n      0x5a65726f20616464726573730000000000000000000000000000000000000000\n        /* \"#utility.yul\":18072:18073   */\n      0x00\n        /* \"#utility.yul\":18064:18070   */\n      dup3\n        /* \"#utility.yul\":18060:18074   */\n      add\n        /* \"#utility.yul\":18053:18091   */\n      mstore\n        /* \"#utility.yul\":17936:18098   */\n      pop\n      jump\t// out\n        /* \"#utility.yul\":18104:18470   */\n    tag_224:\n        /* \"#utility.yul\":18246:18249   */\n      0x00\n        /* \"#utility.yul\":18267:18334   */\n      tag_406\n        /* \"#utility.yul\":18331:18333   */\n      0x0c\n        /* \"#utility.yul\":18326:18329   */\n      dup4\n        /* \"#utility.yul\":18267:18334   */\n      tag_196\n      jump\t// in\n    tag_406:\n        /* \"#utility.yul\":18260:18334   */\n      swap2\n      pop\n        /* \"#utility.yul\":18343:18436   */\n      tag_407\n        /* \"#utility.yul\":18432:18435   */\n      dup3\n        /* \"#utility.yul\":18343:18436   */\n      tag_223\n      jump\t// in\n    tag_407:\n        /* \"#utility.yul\":18461:18463   */\n      0x20\n        /* \"#utility.yul\":18456:18459   */\n      dup3\n        /* \"#utility.yul\":18452:18464   */\n      add\n        /* \"#utility.yul\":18445:18464   */\n      swap1\n      pop\n        /* \"#utility.yul\":18104:18470   */\n      swap2\n      swap1\n      pop\n      jump\t// out\n        /* \"#utility.yul\":18476:18895   */\n    tag_141:\n        /* \"#utility.yul\":18642:18646   */\n      0x00\n        /* \"#utility.yul\":18680:18682   */\n      0x20\n        /* \"#utility.yul\":18669:18678   */\n      dup3\n        /* \"#utility.yul\":18665:18683   */\n      add\n        /* \"#utility.yul\":18657:18683   */\n      swap1\n      pop\n        /* \"#utility.yul\":18729:18738   */\n      dup2\n        /* \"#utility.yul\":18723:18727   */\n      dup2\n        /* \"#utility.yul\":18719:18739   */\n      sub\n        /* \"#utility.yul\":18715:18716   */\n      0x00\n        /* \"#utility.yul\":18704:18713   */\n      dup4\n        /* \"#utility.yul\":18700:18717   */\n      add\n        /* \"#utility.yul\":18693:18740   */\n      mstore\n        /* \"#utility.yul\":18757:18888   */\n      tag_409\n        /* \"#utility.yul\":18883:18887   */\n      dup2\n        /* \"#utility.yul\":18757:18888   */\n      tag_224\n      jump\t// in\n    tag_409:\n        /* \"#utility.yul\":18749:18888   */\n      swap1\n      pop\n        /* \"#utility.yul\":18476:18895   */\n      swap2\n      swap1\n      pop\n      jump\t// out\n        /* \"#utility.yul\":18901:19063   */\n    tag_225:\n        /* \"#utility.yul\":19041:19055   */\n      0x5a65726f206465706f7369740000000000000000000000000000000000000000\n        /* \"#utility.yul\":19037:19038   */\n      0x00\n        /* \"#utility.yul\":19029:19035   */\n      dup3\n        /* \"#utility.yul\":19025:19039   */\n      add\n        /* \"#utility.yul\":19018:19056   */\n      mstore\n        /* \"#utility.yul\":18901:19063   */\n      pop\n      jump\t// out\n        /* \"#utility.yul\":19069:19435   */\n    tag_226:\n        /* \"#utility.yul\":19211:19214   */\n      0x00\n        /* \"#utility.yul\":19232:19299   */\n      tag_412\n        /* \"#utility.yul\":19296:19298   */\n      0x0c\n        /* \"#utility.yul\":19291:19294   */\n      dup4\n        /* \"#utility.yul\":19232:19299   */\n      tag_196\n      jump\t// in\n    tag_412:\n        /* \"#utility.yul\":19225:19299   */\n      swap2\n      pop\n        /* \"#utility.yul\":19308:19401   */\n      tag_413\n        /* \"#utility.yul\":19397:19400   */\n      dup3\n        /* \"#utility.yul\":19308:19401   */\n      tag_225\n      jump\t// in\n    tag_413:\n        /* \"#utility.yul\":19426:19428   */\n      0x20\n        /* \"#utility.yul\":19421:19424   */\n      dup3\n        /* \"#utility.yul\":19417:19429   */\n      add\n        /* \"#utility.yul\":19410:19429   */\n      swap1\n      pop\n        /* \"#utility.yul\":19069:19435   */\n      swap2\n      swap1\n      pop\n      jump\t// out\n        /* \"#utility.yul\":19441:19860   */\n    tag_145:\n        /* \"#utility.yul\":19607:19611   */\n      0x00\n        /* \"#utility.yul\":19645:19647   */\n      0x20\n        /* \"#utility.yul\":19634:19643   */\n      dup3\n        /* \"#utility.yul\":19630:19648   */\n      add\n        /* \"#utility.yul\":19622:19648   */\n      swap1\n      pop\n        /* \"#utility.yul\":19694:19703   */\n      dup2\n        /* \"#utility.yul\":19688:19692   */\n      dup2\n        /* \"#utility.yul\":19684:19704   */\n      sub\n        /* \"#utility.yul\":19680:19681   */\n      0x00\n        /* \"#utility.yul\":19669:19678   */\n      dup4\n        /* \"#utility.yul\":19665:19682   */\n      add\n        /* \"#utility.yul\":19658:19705   */\n      mstore\n        /* \"#utility.yul\":19722:19853   */\n      tag_415\n        /* \"#utility.yul\":19848:19852   */\n      dup2\n        /* \"#utility.yul\":19722:19853   */\n      tag_226\n      jump\t// in\n    tag_415:\n        /* \"#utility.yul\":19714:19853   */\n      swap1\n      pop\n        /* \"#utility.yul\":19441:19860   */\n      swap2\n      swap1\n      pop\n      jump\t// out\n        /* \"#utility.yul\":19866:20028   */\n    tag_227:\n        /* \"#utility.yul\":20006:20020   */\n      0x436f6e7472616374206c6f770000000000000000000000000000000000000000\n        /* \"#utility.yul\":20002:20003   */\n      0x00\n        /* \"#utility.yul\":19994:20000   */\n      dup3\n        /* \"#utility.yul\":19990:20004   */\n      add\n        /* \"#utility.yul\":19983:20021   */\n      mstore\n        /* \"#utility.yul\":19866:20028   */\n      pop\n      jump\t// out\n        /* \"#utility.yul\":20034:20400   */\n    tag_228:\n        /* \"#utility.yul\":20176:20179   */\n      0x00\n        /* \"#utility.yul\":20197:20264   */\n      tag_418\n        /* \"#utility.yul\":20261:20263   */\n      0x0c\n        /* \"#utility.yul\":20256:20259   */\n      dup4\n        /* \"#utility.yul\":20197:20264   */\n      tag_196\n      jump\t// in\n    tag_418:\n        /* \"#utility.yul\":20190:20264   */\n      swap2\n      pop\n        /* \"#utility.yul\":20273:20366   */\n      tag_419\n        /* \"#utility.yul\":20362:20365   */\n      dup3\n        /* \"#utility.yul\":20273:20366   */\n      tag_227\n      jump\t// in\n    tag_419:\n        /* \"#utility.yul\":20391:20393   */\n      0x20\n        /* \"#utility.yul\":20386:20389   */\n      dup3\n        /* \"#utility.yul\":20382:20394   */\n      add\n        /* \"#utility.yul\":20375:20394   */\n      swap1\n      pop\n        /* \"#utility.yul\":20034:20400   */\n      swap2\n      swap1\n      pop\n      jump\t// out\n        /* \"#utility.yul\":20406:20825   */\n    tag_158:\n        /* \"#utility.yul\":20572:20576   */\n      0x00\n        /* \"#utility.yul\":20610:20612   */\n      0x20\n        /* \"#utility.yul\":20599:20608   */\n      dup3\n        /* \"#utility.yul\":20595:20613   */\n      add\n        /* \"#utility.yul\":20587:20613   */\n      swap1\n      pop\n        /* \"#utility.yul\":20659:20668   */\n      dup2\n        /* \"#utility.yul\":20653:20657   */\n      dup2\n        /* \"#utility.yul\":20649:20669   */\n      sub\n        /* \"#utility.yul\":20645:20646   */\n      0x00\n        /* \"#utility.yul\":20634:20643   */\n      dup4\n        /* \"#utility.yul\":20630:20647   */\n      add\n        /* \"#utility.yul\":20623:20670   */\n      mstore\n        /* \"#utility.yul\":20687:20818   */\n      tag_421\n        /* \"#utility.yul\":20813:20817   */\n      dup2\n        /* \"#utility.yul\":20687:20818   */\n      tag_228\n      jump\t// in\n    tag_421:\n        /* \"#utility.yul\":20679:20818   */\n      swap1\n      pop\n        /* \"#utility.yul\":20406:20825   */\n      swap2\n      swap1\n      pop\n      jump\t// out\n        /* \"#utility.yul\":20831:21002   */\n    tag_229:\n        /* \"#utility.yul\":20971:20994   */\n      0x4f776e6572207472616e73666572206661696c65640000000000000000000000\n        /* \"#utility.yul\":20967:20968   */\n      0x00\n        /* \"#utility.yul\":20959:20965   */\n      dup3\n        /* \"#utility.yul\":20955:20969   */\n      add\n        /* \"#utility.yul\":20948:20995   */\n      mstore\n        /* \"#utility.yul\":20831:21002   */\n      pop\n      jump\t// out\n        /* \"#utility.yul\":21008:21374   */\n    tag_230:\n        /* \"#utility.yul\":21150:21153   */\n      0x00\n        /* \"#utility.yul\":21171:21238   */\n      tag_424\n        /* \"#utility.yul\":21235:21237   */\n      0x15\n        /* \"#utility.yul\":21230:21233   */\n      dup4\n        /* \"#utility.yul\":21171:21238   */\n      tag_196\n      jump\t// in\n    tag_424:\n        /* \"#utility.yul\":21164:21238   */\n      swap2\n      pop\n        /* \"#utility.yul\":21247:21340   */\n      tag_425\n        /* \"#utility.yul\":21336:21339   */\n      dup3\n        /* \"#utility.yul\":21247:21340   */\n      tag_229\n      jump\t// in\n    tag_425:\n        /* \"#utility.yul\":21365:21367   */\n      0x20\n        /* \"#utility.yul\":21360:21363   */\n      dup3\n        /* \"#utility.yul\":21356:21368   */\n      add\n        /* \"#utility.yul\":21349:21368   */\n      swap1\n      pop\n        /* \"#utility.yul\":21008:21374   */\n      swap2\n      swap1\n      pop\n      jump\t// out\n        /* \"#utility.yul\":21380:21799   */\n    tag_165:\n        /* \"#utility.yul\":21546:21550   */\n      0x00\n        /* \"#utility.yul\":21584:21586   */\n      0x20\n        /* \"#utility.yul\":21573:21582   */\n      dup3\n        /* \"#utility.yul\":21569:21587   */\n      add\n        /* \"#utility.yul\":21561:21587   */\n      swap1\n      pop\n        /* \"#utility.yul\":21633:21642   */\n      dup2\n        /* \"#utility.yul\":21627:21631   */\n      dup2\n        /* \"#utility.yul\":21623:21643   */\n      sub\n        /* \"#utility.yul\":21619:21620   */\n      0x00\n        /* \"#utility.yul\":21608:21617   */\n      dup4\n        /* \"#utility.yul\":21604:21621   */\n      add\n        /* \"#utility.yul\":21597:21644   */\n      mstore\n        /* \"#utility.yul\":21661:21792   */\n      tag_427\n        /* \"#utility.yul\":21787:21791   */\n      dup2\n        /* \"#utility.yul\":21661:21792   */\n      tag_230\n      jump\t// in\n    tag_427:\n        /* \"#utility.yul\":21653:21792   */\n      swap1\n      pop\n        /* \"#utility.yul\":21380:21799   */\n      swap2\n      swap1\n      pop\n      jump\t// out\n        /* \"#utility.yul\":21805:21965   */\n    tag_231:\n        /* \"#utility.yul\":21945:21957   */\n      0x4d757374207374616b6500000000000000000000000000000000000000000000\n        /* \"#utility.yul\":21941:21942   */\n      0x00\n        /* \"#utility.yul\":21933:21939   */\n      dup3\n        /* \"#utility.yul\":21929:21943   */\n      add\n        /* \"#utility.yul\":21922:21958   */\n      mstore\n        /* \"#utility.yul\":21805:21965   */\n      pop\n      jump\t// out\n        /* \"#utility.yul\":21971:22337   */\n    tag_232:\n        /* \"#utility.yul\":22113:22116   */\n      0x00\n        /* \"#utility.yul\":22134:22201   */\n      tag_430\n        /* \"#utility.yul\":22198:22200   */\n      0x0a\n        /* \"#utility.yul\":22193:22196   */\n      dup4\n        /* \"#utility.yul\":22134:22201   */\n      tag_196\n      jump\t// in\n    tag_430:\n        /* \"#utility.yul\":22127:22201   */\n      swap2\n      pop\n        /* \"#utility.yul\":22210:22303   */\n      tag_431\n        /* \"#utility.yul\":22299:22302   */\n      dup3\n        /* \"#utility.yul\":22210:22303   */\n      tag_231\n      jump\t// in\n    tag_431:\n        /* \"#utility.yul\":22328:22330   */\n      0x20\n        /* \"#utility.yul\":22323:22326   */\n      dup3\n        /* \"#utility.yul\":22319:22331   */\n      add\n        /* \"#utility.yul\":22312:22331   */\n      swap1\n      pop\n        /* \"#utility.yul\":21971:22337   */\n      swap2\n      swap1\n      pop\n      jump\t// out\n        /* \"#utility.yul\":22343:22762   */\n    tag_170:\n        /* \"#utility.yul\":22509:22513   */\n      0x00\n        /* \"#utility.yul\":22547:22549   */\n      0x20\n        /* \"#utility.yul\":22536:22545   */\n      dup3\n        /* \"#utility.yul\":22532:22550   */\n      add\n        /* \"#utility.yul\":22524:22550   */\n      swap1\n      pop\n        /* \"#utility.yul\":22596:22605   */\n      dup2\n        /* \"#utility.yul\":22590:22594   */\n      dup2\n        /* \"#utility.yul\":22586:22606   */\n      sub\n        /* \"#utility.yul\":22582:22583   */\n      0x00\n        /* \"#utility.yul\":22571:22580   */\n      dup4\n        /* \"#utility.yul\":22567:22584   */\n      add\n        /* \"#utility.yul\":22560:22607   */\n      mstore\n        /* \"#utility.yul\":22624:22755   */\n      tag_433\n        /* \"#utility.yul\":22750:22754   */\n      dup2\n        /* \"#utility.yul\":22624:22755   */\n      tag_232\n      jump\t// in\n    tag_433:\n        /* \"#utility.yul\":22616:22755   */\n      swap1\n      pop\n        /* \"#utility.yul\":22343:22762   */\n      swap2\n      swap1\n      pop\n      jump\t// out\n        /* \"#utility.yul\":22768:22886   */\n    tag_233:\n        /* \"#utility.yul\":22855:22879   */\n      tag_435\n        /* \"#utility.yul\":22873:22878   */\n      dup2\n        /* \"#utility.yul\":22855:22879   */\n      tag_193\n      jump\t// in\n    tag_435:\n        /* \"#utility.yul\":22850:22853   */\n      dup3\n        /* \"#utility.yul\":22843:22880   */\n      mstore\n        /* \"#utility.yul\":22768:22886   */\n      pop\n      pop\n      jump\t// out\n        /* \"#utility.yul\":22892:23114   */\n    tag_172:\n        /* \"#utility.yul\":22985:22989   */\n      0x00\n        /* \"#utility.yul\":23023:23025   */\n      0x20\n        /* \"#utility.yul\":23012:23021   */\n      dup3\n        /* \"#utility.yul\":23008:23026   */\n      add\n        /* \"#utility.yul\":23000:23026   */\n      swap1\n      pop\n        /* \"#utility.yul\":23036:23107   */\n      tag_437\n        /* \"#utility.yul\":23104:23105   */\n      0x00\n        /* \"#utility.yul\":23093:23102   */\n      dup4\n        /* \"#utility.yul\":23089:23106   */\n      add\n        /* \"#utility.yul\":23080:23086   */\n      dup5\n        /* \"#utility.yul\":23036:23107   */\n      tag_233\n      jump\t// in\n    tag_437:\n        /* \"#utility.yul\":22892:23114   */\n      swap3\n      swap2\n      pop\n      pop\n      jump\t// out\n\n    auxdata: 0xa264697066735822122021d3a6f68b4423b430d88e8ec9f2b21741e56efb2f05d823f908d688061fbfb164736f6c634300081e0033\n}\n",
				"bytecode": {
					"linkReferences": {},
					"object": "6080604052348015600e575f5ffd5b50335f5f6101000a81548173ffffffffffffffffffffffffffffffffffffffff021916908373ffffffffffffffffffffffffffffffffffffffff1602179055505f60045f6101000a81548160ff021916908315150217905550611d23806100745f395ff3fe6080604052600436106100c5575f3560e01c80636bb9a1981161007e578063a6f9dae111610058578063a6f9dae114610574578063d0e30db01461059c578063d9c88e14146105a6578063f14fcbc8146105ce57610249565b80636bb9a198146104e45780638b7afe2e146105205780638da5cb5b1461054a57610249565b806313fcaf54146103c85780632726b5061461040457806327e235e3146104425780632e1a7d4d1461047e5780632fa4548b146104a65780634509017e146104ce57610249565b36610249573460015f3373ffffffffffffffffffffffffffffffffffffffff1673ffffffffffffffffffffffffffffffffffffffff1681526020019081526020015f205f82825461011691906112ae565b9250508190555060025f3373ffffffffffffffffffffffffffffffffffffffff1673ffffffffffffffffffffffffffffffffffffffff1681526020019081526020015f20604051806060016040528034815260200142815260200160025f3373ffffffffffffffffffffffffffffffffffffffff1673ffffffffffffffffffffffffffffffffffffffff1681526020019081526020015f2080549050815250908060018154018082558091505060019003905f5260205f2090600302015f909190919091505f820151815f0155602082015181600101556040820151816002015550503373ffffffffffffffffffffffffffffffffffffffff167fd15c9547ea5c06670c0010ce19bc32d54682a4b3801ece7f3ab0c3f17106b4bb3460405161023f91906112f0565b60405180910390a2005b3460015f3373ffffffffffffffffffffffffffffffffffffffff1673ffffffffffffffffffffffffffffffffffffffff1681526020019081526020015f205f82825461029591906112ae565b9250508190555060025f3373ffffffffffffffffffffffffffffffffffffffff1673ffffffffffffffffffffffffffffffffffffffff1681526020019081526020015f20604051806060016040528034815260200142815260200160025f3373ffffffffffffffffffffffffffffffffffffffff1673ffffffffffffffffffffffffffffffffffffffff1681526020019081526020015f2080549050815250908060018154018082558091505060019003905f5260205f2090600302015f909190919091505f820151815f0155602082015181600101556040820151816002015550503373ffffffffffffffffffffffffffffffffffffffff167fd15c9547ea5c06670c0010ce19bc32d54682a4b3801ece7f3ab0c3f17106b4bb346040516103be91906112f0565b60405180910390a2005b3480156103d3575f5ffd5b506103ee60048036038101906103e9919061136b565b6105ea565b6040516103fb91906112f0565b60405180910390f35b34801561040f575f5ffd5b5061042a600480360381019061042591906113c0565b610633565b604051610439939291906113fe565b60405180910390f35b34801561044d575f5ffd5b506104686004803603810190610463919061136b565b6106d8565b60405161047591906112f0565b60405180910390f35b348015610489575f5ffd5b506104a4600480360381019061049f9190611433565b6106ed565b005b3480156104b1575f5ffd5b506104cc60048036038101906104c791906114bf565b61093c565b005b3480156104d9575f5ffd5b506104e2610bc1565b005b3480156104ef575f5ffd5b5061050a6004803603810190610505919061151c565b610bc3565b60405161051791906112f0565b60405180910390f35b34801561052b575f5ffd5b50610534610bcf565b60405161054191906112f0565b60405180910390f35b348015610555575f5ffd5b5061055e610bd6565b60405161056b9190611569565b60405180910390f35b34801561057f575f5ffd5b5061059a6004803603810190610595919061136b565b610bfa565b005b6105a4610d38565b005b3480156105b1575f5ffd5b506105cc60048036038101906105c791906115bd565b610ef9565b005b6105e860048036038101906105e3919061162e565b611147565b005b5f60025f8373ffffffffffffffffffffffffffffffffffffffff1673ffffffffffffffffffffffffffffffffffffffff1681526020019081526020015f20805490509050919050565b5f5f5f5f60025f8773ffffffffffffffffffffffffffffffffffffffff1673ffffffffffffffffffffffffffffffffffffffff1681526020019081526020015f20858154811061068657610685611659565b5b905f5260205f2090600302016040518060600160405290815f8201548152602001600182015481526020016002820154815250509050805f015181602001518260400151935093509350509250925092565b6001602052805f5260405f205f915090505481565b60045f9054906101000a900460ff161561073c576040517f08c379a0000000000000000000000000000000000000000000000000000000008152600401610733906116e0565b60405180910390fd5b600160045f6101000a81548160ff0219169083151502179055508060015f3373ffffffffffffffffffffffffffffffffffffffff1673ffffffffffffffffffffffffffffffffffffffff1681526020019081526020015f205410156107d6576040517f08c379a00000000000000000000000000000000000000000000000000000000081526004016107cd90611748565b60405180910390fd5b8060015f3373ffffffffffffffffffffffffffffffffffffffff1673ffffffffffffffffffffffffffffffffffffffff1681526020019081526020015f205f8282546108229190611766565b925050819055505f3373ffffffffffffffffffffffffffffffffffffffff168260405161084e906117c6565b5f6040518083038185875af1925050503d805f8114610888576040519150601f19603f3d011682016040523d82523d5f602084013e61088d565b606091505b50509050806108d1576040517f08c379a00000000000000000000000000000000000000000000000000000000081526004016108c890611824565b60405180910390fd5b3373ffffffffffffffffffffffffffffffffffffffff167f7084f5476618d8e60b11ef0d7d3f06914655adb8793e28ff7f018d4c76d505d58360405161091791906112f0565b60405180910390a2505f60045f6101000a81548160ff02191690831515021790555050565b5f60035f3373ffffffffffffffffffffffffffffffffffffffff1673ffffffffffffffffffffffffffffffffffffffff1681526020019081526020015f2090505f815f0154116109c1576040517f08c379a00000000000000000000000000000000000000000000000000000000081526004016109b89061188c565b60405180910390fd5b806003015f9054906101000a900460ff1615610a12576040517f08c379a0000000000000000000000000000000000000000000000000000000008152600401610a09906118f4565b60405180910390fd5b5f84848433604051602001610a2a94939291906119b3565b60405160208183030381529060405280519060200120905081600101548114610a88576040517f08c379a0000000000000000000000000000000000000000000000000000000008152600401610a7f90611a37565b60405180910390fd5b6001826003015f6101000a81548160ff02191690831515021790555084825f0154610ab391906112ae565b60015f3373ffffffffffffffffffffffffffffffffffffffff1673ffffffffffffffffffffffffffffffffffffffff1681526020019081526020015f205f828254610afe91906112ae565b925050819055503373ffffffffffffffffffffffffffffffffffffffff167f36cb84e26ec058ba1aadcd698199fa19568d3c52427b175bd593b94ce83f67c086604051610b4b91906112f0565b60405180910390a260035f3373ffffffffffffffffffffffffffffffffffffffff1673ffffffffffffffffffffffffffffffffffffffff1681526020019081526020015f205f5f82015f9055600182015f9055600282015f9055600382015f6101000a81549060ff021916905550505050505050565b565b5f818302905092915050565b5f47905090565b5f5f9054906101000a900473ffffffffffffffffffffffffffffffffffffffff1681565b5f5f9054906101000a900473ffffffffffffffffffffffffffffffffffffffff1673ffffffffffffffffffffffffffffffffffffffff163373ffffffffffffffffffffffffffffffffffffffff1614610c88576040517f08c379a0000000000000000000000000000000000000000000000000000000008152600401610c7f90611a9f565b60405180910390fd5b5f73ffffffffffffffffffffffffffffffffffffffff168173ffffffffffffffffffffffffffffffffffffffff1603610cf6576040517f08c379a0000000000000000000000000000000000000000000000000000000008152600401610ced90611b07565b60405180910390fd5b805f5f6101000a81548173ffffffffffffffffffffffffffffffffffffffff021916908373ffffffffffffffffffffffffffffffffffffffff16021790555050565b5f3411610d7a576040517f08c379a0000000000000000000000000000000000000000000000000000000008152600401610d7190611b6f565b60405180910390fd5b3460015f3373ffffffffffffffffffffffffffffffffffffffff1673ffffffffffffffffffffffffffffffffffffffff1681526020019081526020015f205f828254610dc691906112ae565b9250508190555060025f3373ffffffffffffffffffffffffffffffffffffffff1673ffffffffffffffffffffffffffffffffffffffff1681526020019081526020015f20604051806060016040528034815260200142815260200160025f3373ffffffffffffffffffffffffffffffffffffffff1673ffffffffffffffffffffffffffffffffffffffff1681526020019081526020015f2080549050815250908060018154018082558091505060019003905f5260205f2090600302015f909190919091505f820151815f0155602082015181600101556040820151816002015550503373ffffffffffffffffffffffffffffffffffffffff167fd15c9547ea5c06670c0010ce19bc32d54682a4b3801ece7f3ab0c3f17106b4bb34604051610eef91906112f0565b60405180910390a2565b5f5f9054906101000a900473ffffffffffffffffffffffffffffffffffffffff1673ffffffffffffffffffffffffffffffffffffffff163373ffffffffffffffffffffffffffffffffffffffff1614610f87576040517f08c379a0000000000000000000000000000000000000000000000000000000008152600401610f7e90611a9f565b60405180910390fd5b60045f9054906101000a900460ff1615610fd6576040517f08c379a0000000000000000000000000000000000000000000000000000000008152600401610fcd906116e0565b60405180910390fd5b600160045f6101000a81548160ff02191690831515021790555080471015611033576040517f08c379a000000000000000000000000000000000000000000000000000000000815260040161102a90611bd7565b60405180910390fd5b5f8273ffffffffffffffffffffffffffffffffffffffff1682604051611058906117c6565b5f6040518083038185875af1925050503d805f8114611092576040519150601f19603f3d011682016040523d82523d5f602084013e611097565b606091505b50509050806110db576040517f08c379a00000000000000000000000000000000000000000000000000000000081526004016110d290611c3f565b60405180910390fd5b8273ffffffffffffffffffffffffffffffffffffffff167f372b455b5163a0c4e2a6cf75f425b94ab0df0d2e195b71985c0b39d3303f91b58360405161112191906112f0565b60405180910390a2505f60045f6101000a81548160ff0219169083151502179055505050565b5f3411611189576040517f08c379a000000000000000000000000000000000000000000000000000000000815260040161118090611ca7565b60405180910390fd5b60405180608001604052803481526020018281526020014281526020015f151581525060035f3373ffffffffffffffffffffffffffffffffffffffff1673ffffffffffffffffffffffffffffffffffffffff1681526020019081526020015f205f820151815f015560208201518160010155604082015181600201556060820151816003015f6101000a81548160ff0219169083151502179055509050503373ffffffffffffffffffffffffffffffffffffffff167f4d7787535441abadf1feb20a4be6ef748ae9c25c03364e195afc8bcc8816d9808260405161126d9190611cd4565b60405180910390a250565b5f819050919050565b7f4e487b71000000000000000000000000000000000000000000000000000000005f52601160045260245ffd5b5f6112b882611278565b91506112c383611278565b92508282019050808211156112db576112da611281565b5b92915050565b6112ea81611278565b82525050565b5f6020820190506113035f8301846112e1565b92915050565b5f5ffd5b5f5ffd5b5f73ffffffffffffffffffffffffffffffffffffffff82169050919050565b5f61133a82611311565b9050919050565b61134a81611330565b8114611354575f5ffd5b50565b5f8135905061136581611341565b92915050565b5f602082840312156113805761137f611309565b5b5f61138d84828501611357565b91505092915050565b61139f81611278565b81146113a9575f5ffd5b50565b5f813590506113ba81611396565b92915050565b5f5f604083850312156113d6576113d5611309565b5b5f6113e385828601611357565b92505060206113f4858286016113ac565b9150509250929050565b5f6060820190506114115f8301866112e1565b61141e60208301856112e1565b61142b60408301846112e1565b949350505050565b5f6020828403121561144857611447611309565b5b5f611455848285016113ac565b91505092915050565b5f5ffd5b5f5ffd5b5f5ffd5b5f5f83601f84011261147f5761147e61145e565b5b8235905067ffffffffffffffff81111561149c5761149b611462565b5b6020830191508360018202830111156114b8576114b7611466565b5b9250929050565b5f5f5f604084860312156114d6576114d5611309565b5b5f6114e3868287016113ac565b935050602084013567ffffffffffffffff8111156115045761150361130d565b5b6115108682870161146a565b92509250509250925092565b5f5f6040838503121561153257611531611309565b5b5f61153f858286016113ac565b9250506020611550858286016113ac565b9150509250929050565b61156381611330565b82525050565b5f60208201905061157c5f83018461155a565b92915050565b5f61158c82611311565b9050919050565b61159c81611582565b81146115a6575f5ffd5b50565b5f813590506115b781611593565b92915050565b5f5f604083850312156115d3576115d2611309565b5b5f6115e0858286016115a9565b92505060206115f1858286016113ac565b9150509250929050565b5f819050919050565b61160d816115fb565b8114611617575f5ffd5b50565b5f8135905061162881611604565b92915050565b5f6020828403121561164357611642611309565b5b5f6116508482850161161a565b91505092915050565b7f4e487b71000000000000000000000000000000000000000000000000000000005f52603260045260245ffd5b5f82825260208201905092915050565b7f5265656e7472616e7400000000000000000000000000000000000000000000005f82015250565b5f6116ca600983611686565b91506116d582611696565b602082019050919050565b5f6020820190508181035f8301526116f7816116be565b9050919050565b7f496e73756666696369656e742062616c616e63650000000000000000000000005f82015250565b5f611732601483611686565b915061173d826116fe565b602082019050919050565b5f6020820190508181035f83015261175f81611726565b9050919050565b5f61177082611278565b915061177b83611278565b925082820390508181111561179357611792611281565b5b92915050565b5f81905092915050565b50565b5f6117b15f83611799565b91506117bc826117a3565b5f82019050919050565b5f6117d0826117a6565b9150819050919050565b7f5472616e73666572206661696c656400000000000000000000000000000000005f82015250565b5f61180e600f83611686565b9150611819826117da565b602082019050919050565b5f6020820190508181035f83015261183b81611802565b9050919050565b7f4e6f20636f6d6d697400000000000000000000000000000000000000000000005f82015250565b5f611876600983611686565b915061188182611842565b602082019050919050565b5f6020820190508181035f8301526118a38161186a565b9050919050565b7f416c72656164792072657665616c6564000000000000000000000000000000005f82015250565b5f6118de601083611686565b91506118e9826118aa565b602082019050919050565b5f6020820190508181035f83015261190b816118d2565b9050919050565b5f819050919050565b61192c61192782611278565b611912565b82525050565b5f81905092915050565b828183375f83830152505050565b5f6119558385611932565b935061196283858461193c565b82840190509392505050565b5f8160601b9050919050565b5f6119848261196e565b9050919050565b5f6119958261197a565b9050919050565b6119ad6119a882611330565b61198b565b82525050565b5f6119be828761191b565b6020820191506119cf82858761194a565b91506119db828461199c565b60148201915081905095945050505050565b7f48617368206d69736d61746368000000000000000000000000000000000000005f82015250565b5f611a21600d83611686565b9150611a2c826119ed565b602082019050919050565b5f6020820190508181035f830152611a4e81611a15565b9050919050565b7f4e6f74206f776e657200000000000000000000000000000000000000000000005f82015250565b5f611a89600983611686565b9150611a9482611a55565b602082019050919050565b5f6020820190508181035f830152611ab681611a7d565b9050919050565b7f5a65726f206164647265737300000000000000000000000000000000000000005f82015250565b5f611af1600c83611686565b9150611afc82611abd565b602082019050919050565b5f6020820190508181035f830152611b1e81611ae5565b9050919050565b7f5a65726f206465706f73697400000000000000000000000000000000000000005f82015250565b5f611b59600c83611686565b9150611b6482611b25565b602082019050919050565b5f6020820190508181035f830152611b8681611b4d565b9050919050565b7f436f6e7472616374206c6f7700000000000000000000000000000000000000005f82015250565b5f611bc1600c83611686565b9150611bcc82611b8d565b602082019050919050565b5f6020820190508181035f830152611bee81611bb5565b9050919050565b7f4f776e6572207472616e73666572206661696c656400000000000000000000005f82015250565b5f611c29601583611686565b9150611c3482611bf5565b602082019050919050565b5f6020820190508181035f830152611c5681611c1d565b9050919050565b7f4d757374207374616b65000000000000000000000000000000000000000000005f82015250565b5f611c91600a83611686565b9150611c9c82611c5d565b602082019050919050565b5f6020820190508181035f830152611cbe81611c85565b9050919050565b611cce816115fb565b82525050565b5f602082019050611ce75f830184611cc5565b9291505056fea264697066735822122021d3a6f68b4423b430d88e8ec9f2b21741e56efb2f05d823f908d688061fbfb164736f6c634300081e0033",
					"opcodes": "PUSH1 0x80 PUSH1 0x40 MSTORE CALLVALUE DUP1 ISZERO PUSH1 0xE JUMPI PUSH0 PUSH0 REVERT JUMPDEST POP CALLER PUSH0 PUSH0 PUSH2 0x100 EXP DUP2 SLOAD DUP2 PUSH20 0xFFFFFFFFFFFFFFFFFFFFFFFFFFFFFFFFFFFFFFFF MUL NOT AND SWAP1 DUP4 PUSH20 0xFFFFFFFFFFFFFFFFFFFFFFFFFFFFFFFFFFFFFFFF AND MUL OR SWAP1 SSTORE POP PUSH0 PUSH1 0x4 PUSH0 PUSH2 0x100 EXP DUP2 SLOAD DUP2 PUSH1 0xFF MUL NOT AND SWAP1 DUP4 ISZERO ISZERO MUL OR SWAP1 SSTORE POP PUSH2 0x1D23 DUP1 PUSH2 0x74 PUSH0 CODECOPY PUSH0 RETURN INVALID PUSH1 0x80 PUSH1 0x40 MSTORE PUSH1 0x4 CALLDATASIZE LT PUSH2 0xC5 JUMPI PUSH0 CALLDATALOAD PUSH1 0xE0 SHR DUP1 PUSH4 0x6BB9A198 GT PUSH2 0x7E JUMPI DUP1 PUSH4 0xA6F9DAE1 GT PUSH2 0x58 JUMPI DUP1 PUSH4 0xA6F9DAE1 EQ PUSH2 0x574 JUMPI DUP1 PUSH4 0xD0E30DB0 EQ PUSH2 0x59C JUMPI DUP1 PUSH4 0xD9C88E14 EQ PUSH2 0x5A6 JUMPI DUP1 PUSH4 0xF14FCBC8 EQ PUSH2 0x5CE JUMPI PUSH2 0x249 JUMP JUMPDEST DUP1 PUSH4 0x6BB9A198 EQ PUSH2 0x4E4 JUMPI DUP1 PUSH4 0x8B7AFE2E EQ PUSH2 0x520 JUMPI DUP1 PUSH4 0x8DA5CB5B EQ PUSH2 0x54A JUMPI PUSH2 0x249 JUMP JUMPDEST DUP1 PUSH4 0x13FCAF54 EQ PUSH2 0x3C8 JUMPI DUP1 PUSH4 0x2726B506 EQ PUSH2 0x404 JUMPI DUP1 PUSH4 0x27E235E3 EQ PUSH2 0x442 JUMPI DUP1 PUSH4 0x2E1A7D4D EQ PUSH2 0x47E JUMPI DUP1 PUSH4 0x2FA4548B EQ PUSH2 0x4A6 JUMPI DUP1 PUSH4 0x4509017E EQ PUSH2 0x4CE JUMPI PUSH2 0x249 JUMP JUMPDEST CALLDATASIZE PUSH2 0x249 JUMPI CALLVALUE PUSH1 0x1 PUSH0 CALLER PUSH20 0xFFFFFFFFFFFFFFFFFFFFFFFFFFFFFFFFFFFFFFFF AND PUSH20 0xFFFFFFFFFFFFFFFFFFFFFFFFFFFFFFFFFFFFFFFF AND DUP2 MSTORE PUSH1 0x20 ADD SWAP1 DUP2 MSTORE PUSH1 0x20 ADD PUSH0 KECCAK256 PUSH0 DUP3 DUP3 SLOAD PUSH2 0x116 SWAP2 SWAP1 PUSH2 0x12AE JUMP JUMPDEST SWAP3 POP POP DUP2 SWAP1 SSTORE POP PUSH1 0x2 PUSH0 CALLER PUSH20 0xFFFFFFFFFFFFFFFFFFFFFFFFFFFFFFFFFFFFFFFF AND PUSH20 0xFFFFFFFFFFFFFFFFFFFFFFFFFFFFFFFFFFFFFFFF AND DUP2 MSTORE PUSH1 0x20 ADD SWAP1 DUP2 MSTORE PUSH1 0x20 ADD PUSH0 KECCAK256 PUSH1 0x40 MLOAD DUP1 PUSH1 0x60 ADD PUSH1 0x40 MSTORE DUP1 CALLVALUE DUP2 MSTORE PUSH1 0x20 ADD TIMESTAMP DUP2 MSTORE PUSH1 0x20 ADD PUSH1 0x2 PUSH0 CALLER PUSH20 0xFFFFFFFFFFFFFFFFFFFFFFFFFFFFFFFFFFFFFFFF AND PUSH20 0xFFFFFFFFFFFFFFFFFFFFFFFFFFFFFFFFFFFFFFFF AND DUP2 MSTORE PUSH1 0x20 ADD SWAP1 DUP2 MSTORE PUSH1 0x20 ADD PUSH0 KECCAK256 DUP1 SLOAD SWAP1 POP DUP2 MSTORE POP SWAP1 DUP1 PUSH1 0x1 DUP2 SLOAD ADD DUP1 DUP3 SSTORE DUP1 SWAP2 POP POP PUSH1 0x1 SWAP1 SUB SWAP1 PUSH0 MSTORE PUSH1 0x20 PUSH0 KECCAK256 SWAP1 PUSH1 0x3 MUL ADD PUSH0 SWAP1 SWAP2 SWAP1 SWAP2 SWAP1 SWAP2 POP PUSH0 DUP3 ADD MLOAD DUP2 PUSH0 ADD SSTORE PUSH1 0x20 DUP3 ADD MLOAD DUP2 PUSH1 0x1 ADD SSTORE PUSH1 0x40 DUP3 ADD MLOAD DUP2 PUSH1 0x2 ADD SSTORE POP POP CALLER PUSH20 0xFFFFFFFFFFFFFFFFFFFFFFFFFFFFFFFFFFFFFFFF AND PUSH32 0xD15C9547EA5C06670C0010CE19BC32D54682A4B3801ECE7F3AB0C3F17106B4BB CALLVALUE PUSH1 0x40 MLOAD PUSH2 0x23F SWAP2 SWAP1 PUSH2 0x12F0 JUMP JUMPDEST PUSH1 0x40 MLOAD DUP1 SWAP2 SUB SWAP1 LOG2 STOP JUMPDEST CALLVALUE PUSH1 0x1 PUSH0 CALLER PUSH20 0xFFFFFFFFFFFFFFFFFFFFFFFFFFFFFFFFFFFFFFFF AND PUSH20 0xFFFFFFFFFFFFFFFFFFFFFFFFFFFFFFFFFFFFFFFF AND DUP2 MSTORE PUSH1 0x20 ADD SWAP1 DUP2 MSTORE PUSH1 0x20 ADD PUSH0 KECCAK256 PUSH0 DUP3 DUP3 SLOAD PUSH2 0x295 SWAP2 SWAP1 PUSH2 0x12AE JUMP JUMPDEST SWAP3 POP POP DUP2 SWAP1 SSTORE POP PUSH1 0x2 PUSH0 CALLER PUSH20 0xFFFFFFFFFFFFFFFFFFFFFFFFFFFFFFFFFFFFFFFF AND PUSH20 0xFFFFFFFFFFFFFFFFFFFFFFFFFFFFFFFFFFFFFFFF AND DUP2 MSTORE PUSH1 0x20 ADD SWAP1 DUP2 MSTORE PUSH1 0x20 ADD PUSH0 KECCAK256 PUSH1 0x40 MLOAD DUP1 PUSH1 0x60 ADD PUSH1 0x40 MSTORE DUP1 CALLVALUE DUP2 MSTORE PUSH1 0x20 ADD TIMESTAMP DUP2 MSTORE PUSH1 0x20 ADD PUSH1 0x2 PUSH0 CALLER PUSH20 0xFFFFFFFFFFFFFFFFFFFFFFFFFFFFFFFFFFFFFFFF AND PUSH20 0xFFFFFFFFFFFFFFFFFFFFFFFFFFFFFFFFFFFFFFFF AND DUP2 MSTORE PUSH1 0x20 ADD SWAP1 DUP2 MSTORE PUSH1 0x20 ADD PUSH0 KECCAK256 DUP1 SLOAD SWAP1 POP DUP2 MSTORE POP SWAP1 DUP1 PUSH1 0x1 DUP2 SLOAD ADD DUP1 DUP3 SSTORE DUP1 SWAP2 POP POP PUSH1 0x1 SWAP1 SUB SWAP1 PUSH0 MSTORE PUSH1 0x20 PUSH0 KECCAK256 SWAP1 PUSH1 0x3 MUL ADD PUSH0 SWAP1 SWAP2 SWAP1 SWAP2 SWAP1 SWAP2 POP PUSH0 DUP3 ADD MLOAD DUP2 PUSH0 ADD SSTORE PUSH1 0x20 DUP3 ADD MLOAD DUP2 PUSH1 0x1 ADD SSTORE PUSH1 0x40 DUP3 ADD MLOAD DUP2 PUSH1 0x2 ADD SSTORE POP POP CALLER PUSH20 0xFFFFFFFFFFFFFFFFFFFFFFFFFFFFFFFFFFFFFFFF AND PUSH32 0xD15C9547EA5C06670C0010CE19BC32D54682A4B3801ECE7F3AB0C3F17106B4BB CALLVALUE PUSH1 0x40 MLOAD PUSH2 0x3BE SWAP2 SWAP1 PUSH2 0x12F0 JUMP JUMPDEST PUSH1 0x40 MLOAD DUP1 SWAP2 SUB SWAP1 LOG2 STOP JUMPDEST CALLVALUE DUP1 ISZERO PUSH2 0x3D3 JUMPI PUSH0 PUSH0 REVERT JUMPDEST POP PUSH2 0x3EE PUSH1 0x4 DUP1 CALLDATASIZE SUB DUP2 ADD SWAP1 PUSH2 0x3E9 SWAP2 SWAP1 PUSH2 0x136B JUMP JUMPDEST PUSH2 0x5EA JUMP JUMPDEST PUSH1 0x40 MLOAD PUSH2 0x3FB SWAP2 SWAP1 PUSH2 0x12F0 JUMP JUMPDEST PUSH1 0x40 MLOAD DUP1 SWAP2 SUB SWAP1 RETURN JUMPDEST CALLVALUE DUP1 ISZERO PUSH2 0x40F JUMPI PUSH0 PUSH0 REVERT JUMPDEST POP PUSH2 0x42A PUSH1 0x4 DUP1 CALLDATASIZE SUB DUP2 ADD SWAP1 PUSH2 0x425 SWAP2 SWAP1 PUSH2 0x13C0 JUMP JUMPDEST PUSH2 0x633 JUMP JUMPDEST PUSH1 0x40 MLOAD PUSH2 0x439 SWAP4 SWAP3 SWAP2 SWAP1 PUSH2 0x13FE JUMP JUMPDEST PUSH1 0x40 MLOAD DUP1 SWAP2 SUB SWAP1 RETURN JUMPDEST CALLVALUE DUP1 ISZERO PUSH2 0x44D JUMPI PUSH0 PUSH0 REVERT JUMPDEST POP PUSH2 0x468 PUSH1 0x4 DUP1 CALLDATASIZE SUB DUP2 ADD SWAP1 PUSH2 0x463 SWAP2 SWAP1 PUSH2 0x136B JUMP JUMPDEST PUSH2 0x6D8 JUMP JUMPDEST PUSH1 0x40 MLOAD PUSH2 0x475 SWAP2 SWAP1 PUSH2 0x12F0 JUMP JUMPDEST PUSH1 0x40 MLOAD DUP1 SWAP2 SUB SWAP1 RETURN JUMPDEST CALLVALUE DUP1 ISZERO PUSH2 0x489 JUMPI PUSH0 PUSH0 REVERT JUMPDEST POP PUSH2 0x4A4 PUSH1 0x4 DUP1 CALLDATASIZE SUB DUP2 ADD SWAP1 PUSH2 0x49F SWAP2 SWAP1 PUSH2 0x1433 JUMP JUMPDEST PUSH2 0x6ED JUMP JUMPDEST STOP JUMPDEST CALLVALUE DUP1 ISZERO PUSH2 0x4B1 JUMPI PUSH0 PUSH0 REVERT JUMPDEST POP PUSH2 0x4CC PUSH1 0x4 DUP1 CALLDATASIZE SUB DUP2 ADD SWAP1 PUSH2 0x4C7 SWAP2 SWAP1 PUSH2 0x14BF JUMP JUMPDEST PUSH2 0x93C JUMP JUMPDEST STOP JUMPDEST CALLVALUE DUP1 ISZERO PUSH2 0x4D9 JUMPI PUSH0 PUSH0 REVERT JUMPDEST POP PUSH2 0x4E2 PUSH2 0xBC1 JUMP JUMPDEST STOP JUMPDEST CALLVALUE DUP1 ISZERO PUSH2 0x4EF JUMPI PUSH0 PUSH0 REVERT JUMPDEST POP PUSH2 0x50A PUSH1 0x4 DUP1 CALLDATASIZE SUB DUP2 ADD SWAP1 PUSH2 0x505 SWAP2 SWAP1 PUSH2 0x151C JUMP JUMPDEST PUSH2 0xBC3 JUMP JUMPDEST PUSH1 0x40 MLOAD PUSH2 0x517 SWAP2 SWAP1 PUSH2 0x12F0 JUMP JUMPDEST PUSH1 0x40 MLOAD DUP1 SWAP2 SUB SWAP1 RETURN JUMPDEST CALLVALUE DUP1 ISZERO PUSH2 0x52B JUMPI PUSH0 PUSH0 REVERT JUMPDEST POP PUSH2 0x534 PUSH2 0xBCF JUMP JUMPDEST PUSH1 0x40 MLOAD PUSH2 0x541 SWAP2 SWAP1 PUSH2 0x12F0 JUMP JUMPDEST PUSH1 0x40 MLOAD DUP1 SWAP2 SUB SWAP1 RETURN JUMPDEST CALLVALUE DUP1 ISZERO PUSH2 0x555 JUMPI PUSH0 PUSH0 REVERT JUMPDEST POP PUSH2 0x55E PUSH2 0xBD6 JUMP JUMPDEST PUSH1 0x40 MLOAD PUSH2 0x56B SWAP2 SWAP1 PUSH2 0x1569 JUMP JUMPDEST PUSH1 0x40 MLOAD DUP1 SWAP2 SUB SWAP1 RETURN JUMPDEST CALLVALUE DUP1 ISZERO PUSH2 0x57F JUMPI PUSH0 PUSH0 REVERT JUMPDEST POP PUSH2 0x59A PUSH1 0x4 DUP1 CALLDATASIZE SUB DUP2 ADD SWAP1 PUSH2 0x595 SWAP2 SWAP1 PUSH2 0x136B JUMP JUMPDEST PUSH2 0xBFA JUMP JUMPDEST STOP JUMPDEST PUSH2 0x5A4 PUSH2 0xD38 JUMP JUMPDEST STOP JUMPDEST CALLVALUE DUP1 ISZERO PUSH2 0x5B1 JUMPI PUSH0 PUSH0 REVERT JUMPDEST POP PUSH2 0x5CC PUSH1 0x4 DUP1 CALLDATASIZE SUB DUP2 ADD SWAP1 PUSH2 0x5C7 SWAP2 SWAP1 PUSH2 0x15BD JUMP JUMPDEST PUSH2 0xEF9 JUMP JUMPDEST STOP JUMPDEST PUSH2 0x5E8 PUSH1 0x4 DUP1 CALLDATASIZE SUB DUP2 ADD SWAP1 PUSH2 0x5E3 SWAP2 SWAP1 PUSH2 0x162E JUMP JUMPDEST PUSH2 0x1147 JUMP JUMPDEST STOP JUMPDEST PUSH0 PUSH1 0x2 PUSH0 DUP4 PUSH20 0xFFFFFFFFFFFFFFFFFFFFFFFFFFFFFFFFFFFFFFFF AND PUSH20 0xFFFFFFFFFFFFFFFFFFFFFFFFFFFFFFFFFFFFFFFF AND DUP2 MSTORE PUSH1 0x20 ADD SWAP1 DUP2 MSTORE PUSH1 0x20 ADD PUSH0 KECCAK256 DUP1 SLOAD SWAP1 POP SWAP1 POP SWAP2 SWAP1 POP JUMP JUMPDEST PUSH0 PUSH0 PUSH0 PUSH0 PUSH1 0x2 PUSH0 DUP8 PUSH20 0xFFFFFFFFFFFFFFFFFFFFFFFFFFFFFFFFFFFFFFFF AND PUSH20 0xFFFFFFFFFFFFFFFFFFFFFFFFFFFFFFFFFFFFFFFF AND DUP2 MSTORE PUSH1 0x20 ADD SWAP1 DUP2 MSTORE PUSH1 0x20 ADD PUSH0 KECCAK256 DUP6 DUP2 SLOAD DUP2 LT PUSH2 0x686 JUMPI PUSH2 0x685 PUSH2 0x1659 JUMP JUMPDEST JUMPDEST SWAP1 PUSH0 MSTORE PUSH1 0x20 PUSH0 KECCAK256 SWAP1 PUSH1 0x3 MUL ADD PUSH1 0x40 MLOAD DUP1 PUSH1 0x60 ADD PUSH1 0x40 MSTORE SWAP1 DUP2 PUSH0 DUP3 ADD SLOAD DUP2 MSTORE PUSH1 0x20 ADD PUSH1 0x1 DUP3 ADD SLOAD DUP2 MSTORE PUSH1 0x20 ADD PUSH1 0x2 DUP3 ADD SLOAD DUP2 MSTORE POP POP SWAP1 POP DUP1 PUSH0 ADD MLOAD DUP2 PUSH1 0x20 ADD MLOAD DUP3 PUSH1 0x40 ADD MLOAD SWAP4 POP SWAP4 POP SWAP4 POP POP SWAP3 POP SWAP3 POP SWAP3 JUMP JUMPDEST PUSH1 0x1 PUSH1 0x20 MSTORE DUP1 PUSH0 MSTORE PUSH1 0x40 PUSH0 KECCAK256 PUSH0 SWAP2 POP SWAP1 POP SLOAD DUP2 JUMP JUMPDEST PUSH1 0x4 PUSH0 SWAP1 SLOAD SWAP1 PUSH2 0x100 EXP SWAP1 DIV PUSH1 0xFF AND ISZERO PUSH2 0x73C JUMPI PUSH1 0x40 MLOAD PUSH32 0x8C379A000000000000000000000000000000000000000000000000000000000 DUP2 MSTORE PUSH1 0x4 ADD PUSH2 0x733 SWAP1 PUSH2 0x16E0 JUMP JUMPDEST PUSH1 0x40 MLOAD DUP1 SWAP2 SUB SWAP1 REVERT JUMPDEST PUSH1 0x1 PUSH1 0x4 PUSH0 PUSH2 0x100 EXP DUP2 SLOAD DUP2 PUSH1 0xFF MUL NOT AND SWAP1 DUP4 ISZERO ISZERO MUL OR SWAP1 SSTORE POP DUP1 PUSH1 0x1 PUSH0 CALLER PUSH20 0xFFFFFFFFFFFFFFFFFFFFFFFFFFFFFFFFFFFFFFFF AND PUSH20 0xFFFFFFFFFFFFFFFFFFFFFFFFFFFFFFFFFFFFFFFF AND DUP2 MSTORE PUSH1 0x20 ADD SWAP1 DUP2 MSTORE PUSH1 0x20 ADD PUSH0 KECCAK256 SLOAD LT ISZERO PUSH2 0x7D6 JUMPI PUSH1 0x40 MLOAD PUSH32 0x8C379A000000000000000000000000000000000000000000000000000000000 DUP2 MSTORE PUSH1 0x4 ADD PUSH2 0x7CD SWAP1 PUSH2 0x1748 JUMP JUMPDEST PUSH1 0x40 MLOAD DUP1 SWAP2 SUB SWAP1 REVERT JUMPDEST DUP1 PUSH1 0x1 PUSH0 CALLER PUSH20 0xFFFFFFFFFFFFFFFFFFFFFFFFFFFFFFFFFFFFFFFF AND PUSH20 0xFFFFFFFFFFFFFFFFFFFFFFFFFFFFFFFFFFFFFFFF AND DUP2 MSTORE PUSH1 0x20 ADD SWAP1 DUP2 MSTORE PUSH1 0x20 ADD PUSH0 KECCAK256 PUSH0 DUP3 DUP3 SLOAD PUSH2 0x822 SWAP2 SWAP1 PUSH2 0x1766 JUMP JUMPDEST SWAP3 POP POP DUP2 SWAP1 SSTORE POP PUSH0 CALLER PUSH20 0xFFFFFFFFFFFFFFFFFFFFFFFFFFFFFFFFFFFFFFFF AND DUP3 PUSH1 0x40 MLOAD PUSH2 0x84E SWAP1 PUSH2 0x17C6 JUMP JUMPDEST PUSH0 PUSH1 0x40 MLOAD DUP1 DUP4 SUB DUP2 DUP6 DUP8 GAS CALL SWAP3 POP POP POP RETURNDATASIZE DUP1 PUSH0 DUP2 EQ PUSH2 0x888 JUMPI PUSH1 0x40 MLOAD SWAP2 POP PUSH1 0x1F NOT PUSH1 0x3F RETURNDATASIZE ADD AND DUP3 ADD PUSH1 0x40 MSTORE RETURNDATASIZE DUP3 MSTORE RETURNDATASIZE PUSH0 PUSH1 0x20 DUP5 ADD RETURNDATACOPY PUSH2 0x88D JUMP JUMPDEST PUSH1 0x60 SWAP2 POP JUMPDEST POP POP SWAP1 POP DUP1 PUSH2 0x8D1 JUMPI PUSH1 0x40 MLOAD PUSH32 0x8C379A000000000000000000000000000000000000000000000000000000000 DUP2 MSTORE PUSH1 0x4 ADD PUSH2 0x8C8 SWAP1 PUSH2 0x1824 JUMP JUMPDEST PUSH1 0x40 MLOAD DUP1 SWAP2 SUB SWAP1 REVERT JUMPDEST CALLER PUSH20 0xFFFFFFFFFFFFFFFFFFFFFFFFFFFFFFFFFFFFFFFF AND PUSH32 0x7084F5476618D8E60B11EF0D7D3F06914655ADB8793E28FF7F018D4C76D505D5 DUP4 PUSH1 0x40 MLOAD PUSH2 0x917 SWAP2 SWAP1 PUSH2 0x12F0 JUMP JUMPDEST PUSH1 0x40 MLOAD DUP1 SWAP2 SUB SWAP1 LOG2 POP PUSH0 PUSH1 0x4 PUSH0 PUSH2 0x100 EXP DUP2 SLOAD DUP2 PUSH1 0xFF MUL NOT AND SWAP1 DUP4 ISZERO ISZERO MUL OR SWAP1 SSTORE POP POP JUMP JUMPDEST PUSH0 PUSH1 0x3 PUSH0 CALLER PUSH20 0xFFFFFFFFFFFFFFFFFFFFFFFFFFFFFFFFFFFFFFFF AND PUSH20 0xFFFFFFFFFFFFFFFFFFFFFFFFFFFFFFFFFFFFFFFF AND DUP2 MSTORE PUSH1 0x20 ADD SWAP1 DUP2 MSTORE PUSH1 0x20 ADD PUSH0 KECCAK256 SWAP1 POP PUSH0 DUP2 PUSH0 ADD SLOAD GT PUSH2 0x9C1 JUMPI PUSH1 0x40 MLOAD PUSH32 0x8C379A000000000000000000000000000000000000000000000000000000000 DUP2 MSTORE PUSH1 0x4 ADD PUSH2 0x9B8 SWAP1 PUSH2 0x188C JUMP JUMPDEST PUSH1 0x40 MLOAD DUP1 SWAP2 SUB SWAP1 REVERT JUMPDEST DUP1 PUSH1 0x3 ADD PUSH0 SWAP1 SLOAD SWAP1 PUSH2 0x100 EXP SWAP1 DIV PUSH1 0xFF AND ISZERO PUSH2 0xA12 JUMPI PUSH1 0x40 MLOAD PUSH32 0x8C379A000000000000000000000000000000000000000000000000000000000 DUP2 MSTORE PUSH1 0x4 ADD PUSH2 0xA09 SWAP1 PUSH2 0x18F4 JUMP JUMPDEST PUSH1 0x40 MLOAD DUP1 SWAP2 SUB SWAP1 REVERT JUMPDEST PUSH0 DUP5 DUP5 DUP5 CALLER PUSH1 0x40 MLOAD PUSH1 0x20 ADD PUSH2 0xA2A SWAP5 SWAP4 SWAP3 SWAP2 SWAP1 PUSH2 0x19B3 JUMP JUMPDEST PUSH1 0x40 MLOAD PUSH1 0x20 DUP2 DUP4 SUB SUB DUP2 MSTORE SWAP1 PUSH1 0x40 MSTORE DUP1 MLOAD SWAP1 PUSH1 0x20 ADD KECCAK256 SWAP1 POP DUP2 PUSH1 0x1 ADD SLOAD DUP2 EQ PUSH2 0xA88 JUMPI PUSH1 0x40 MLOAD PUSH32 0x8C379A000000000000000000000000000000000000000000000000000000000 DUP2 MSTORE PUSH1 0x4 ADD PUSH2 0xA7F SWAP1 PUSH2 0x1A37 JUMP JUMPDEST PUSH1 0x40 MLOAD DUP1 SWAP2 SUB SWAP1 REVERT JUMPDEST PUSH1 0x1 DUP3 PUSH1 0x3 ADD PUSH0 PUSH2 0x100 EXP DUP2 SLOAD DUP2 PUSH1 0xFF MUL NOT AND SWAP1 DUP4 ISZERO ISZERO MUL OR SWAP1 SSTORE POP DUP5 DUP3 PUSH0 ADD SLOAD PUSH2 0xAB3 SWAP2 SWAP1 PUSH2 0x12AE JUMP JUMPDEST PUSH1 0x1 PUSH0 CALLER PUSH20 0xFFFFFFFFFFFFFFFFFFFFFFFFFFFFFFFFFFFFFFFF AND PUSH20 0xFFFFFFFFFFFFFFFFFFFFFFFFFFFFFFFFFFFFFFFF AND DUP2 MSTORE PUSH1 0x20 ADD SWAP1 DUP2 MSTORE PUSH1 0x20 ADD PUSH0 KECCAK256 PUSH0 DUP3 DUP3 SLOAD PUSH2 0xAFE SWAP2 SWAP1 PUSH2 0x12AE JUMP JUMPDEST SWAP3 POP POP DUP2 SWAP1 SSTORE POP CALLER PUSH20 0xFFFFFFFFFFFFFFFFFFFFFFFFFFFFFFFFFFFFFFFF AND PUSH32 0x36CB84E26EC058BA1AADCD698199FA19568D3C52427B175BD593B94CE83F67C0 DUP7 PUSH1 0x40 MLOAD PUSH2 0xB4B SWAP2 SWAP1 PUSH2 0x12F0 JUMP JUMPDEST PUSH1 0x40 MLOAD DUP1 SWAP2 SUB SWAP1 LOG2 PUSH1 0x3 PUSH0 CALLER PUSH20 0xFFFFFFFFFFFFFFFFFFFFFFFFFFFFFFFFFFFFFFFF AND PUSH20 0xFFFFFFFFFFFFFFFFFFFFFFFFFFFFFFFFFFFFFFFF AND DUP2 MSTORE PUSH1 0x20 ADD SWAP1 DUP2 MSTORE PUSH1 0x20 ADD PUSH0 KECCAK256 PUSH0 PUSH0 DUP3 ADD PUSH0 SWAP1 SSTORE PUSH1 0x1 DUP3 ADD PUSH0 SWAP1 SSTORE PUSH1 0x2 DUP3 ADD PUSH0 SWAP1 SSTORE PUSH1 0x3 DUP3 ADD PUSH0 PUSH2 0x100 EXP DUP2 SLOAD SWAP1 PUSH1 0xFF MUL NOT AND SWAP1 SSTORE POP POP POP POP POP POP POP JUMP JUMPDEST JUMP JUMPDEST PUSH0 DUP2 DUP4 MUL SWAP1 POP SWAP3 SWAP2 POP POP JUMP JUMPDEST PUSH0 SELFBALANCE SWAP1 POP SWAP1 JUMP JUMPDEST PUSH0 PUSH0 SWAP1 SLOAD SWAP1 PUSH2 0x100 EXP SWAP1 DIV PUSH20 0xFFFFFFFFFFFFFFFFFFFFFFFFFFFFFFFFFFFFFFFF AND DUP2 JUMP JUMPDEST PUSH0 PUSH0 SWAP1 SLOAD SWAP1 PUSH2 0x100 EXP SWAP1 DIV PUSH20 0xFFFFFFFFFFFFFFFFFFFFFFFFFFFFFFFFFFFFFFFF AND PUSH20 0xFFFFFFFFFFFFFFFFFFFFFFFFFFFFFFFFFFFFFFFF AND CALLER PUSH20 0xFFFFFFFFFFFFFFFFFFFFFFFFFFFFFFFFFFFFFFFF AND EQ PUSH2 0xC88 JUMPI PUSH1 0x40 MLOAD PUSH32 0x8C379A000000000000000000000000000000000000000000000000000000000 DUP2 MSTORE PUSH1 0x4 ADD PUSH2 0xC7F SWAP1 PUSH2 0x1A9F JUMP JUMPDEST PUSH1 0x40 MLOAD DUP1 SWAP2 SUB SWAP1 REVERT JUMPDEST PUSH0 PUSH20 0xFFFFFFFFFFFFFFFFFFFFFFFFFFFFFFFFFFFFFFFF AND DUP2 PUSH20 0xFFFFFFFFFFFFFFFFFFFFFFFFFFFFFFFFFFFFFFFF AND SUB PUSH2 0xCF6 JUMPI PUSH1 0x40 MLOAD PUSH32 0x8C379A000000000000000000000000000000000000000000000000000000000 DUP2 MSTORE PUSH1 0x4 ADD PUSH2 0xCED SWAP1 PUSH2 0x1B07 JUMP JUMPDEST PUSH1 0x40 MLOAD DUP1 SWAP2 SUB SWAP1 REVERT JUMPDEST DUP1 PUSH0 PUSH0 PUSH2 0x100 EXP DUP2 SLOAD DUP2 PUSH20 0xFFFFFFFFFFFFFFFFFFFFFFFFFFFFFFFFFFFFFFFF MUL NOT AND SWAP1 DUP4 PUSH20 0xFFFFFFFFFFFFFFFFFFFFFFFFFFFFFFFFFFFFFFFF AND MUL OR SWAP1 SSTORE POP POP JUMP JUMPDEST PUSH0 CALLVALUE GT PUSH2 0xD7A JUMPI PUSH1 0x40 MLOAD PUSH32 0x8C379A000000000000000000000000000000000000000000000000000000000 DUP2 MSTORE PUSH1 0x4 ADD PUSH2 0xD71 SWAP1 PUSH2 0x1B6F JUMP JUMPDEST PUSH1 0x40 MLOAD DUP1 SWAP2 SUB SWAP1 REVERT JUMPDEST CALLVALUE PUSH1 0x1 PUSH0 CALLER PUSH20 0xFFFFFFFFFFFFFFFFFFFFFFFFFFFFFFFFFFFFFFFF AND PUSH20 0xFFFFFFFFFFFFFFFFFFFFFFFFFFFFFFFFFFFFFFFF AND DUP2 MSTORE PUSH1 0x20 ADD SWAP1 DUP2 MSTORE PUSH1 0x20 ADD PUSH0 KECCAK256 PUSH0 DUP3 DUP3 SLOAD PUSH2 0xDC6 SWAP2 SWAP1 PUSH2 0x12AE JUMP JUMPDEST SWAP3 POP POP DUP2 SWAP1 SSTORE POP PUSH1 0x2 PUSH0 CALLER PUSH20 0xFFFFFFFFFFFFFFFFFFFFFFFFFFFFFFFFFFFFFFFF AND PUSH20 0xFFFFFFFFFFFFFFFFFFFFFFFFFFFFFFFFFFFFFFFF AND DUP2 MSTORE PUSH1 0x20 ADD SWAP1 DUP2 MSTORE PUSH1 0x20 ADD PUSH0 KECCAK256 PUSH1 0x40 MLOAD DUP1 PUSH1 0x60 ADD PUSH1 0x40 MSTORE DUP1 CALLVALUE DUP2 MSTORE PUSH1 0x20 ADD TIMESTAMP DUP2 MSTORE PUSH1 0x20 ADD PUSH1 0x2 PUSH0 CALLER PUSH20 0xFFFFFFFFFFFFFFFFFFFFFFFFFFFFFFFFFFFFFFFF AND PUSH20 0xFFFFFFFFFFFFFFFFFFFFFFFFFFFFFFFFFFFFFFFF AND DUP2 MSTORE PUSH1 0x20 ADD SWAP1 DUP2 MSTORE PUSH1 0x20 ADD PUSH0 KECCAK256 DUP1 SLOAD SWAP1 POP DUP2 MSTORE POP SWAP1 DUP1 PUSH1 0x1 DUP2 SLOAD ADD DUP1 DUP3 SSTORE DUP1 SWAP2 POP POP PUSH1 0x1 SWAP1 SUB SWAP1 PUSH0 MSTORE PUSH1 0x20 PUSH0 KECCAK256 SWAP1 PUSH1 0x3 MUL ADD PUSH0 SWAP1 SWAP2 SWAP1 SWAP2 SWAP1 SWAP2 POP PUSH0 DUP3 ADD MLOAD DUP2 PUSH0 ADD SSTORE PUSH1 0x20 DUP3 ADD MLOAD DUP2 PUSH1 0x1 ADD SSTORE PUSH1 0x40 DUP3 ADD MLOAD DUP2 PUSH1 0x2 ADD SSTORE POP POP CALLER PUSH20 0xFFFFFFFFFFFFFFFFFFFFFFFFFFFFFFFFFFFFFFFF AND PUSH32 0xD15C9547EA5C06670C0010CE19BC32D54682A4B3801ECE7F3AB0C3F17106B4BB CALLVALUE PUSH1 0x40 MLOAD PUSH2 0xEEF SWAP2 SWAP1 PUSH2 0x12F0 JUMP JUMPDEST PUSH1 0x40 MLOAD DUP1 SWAP2 SUB SWAP1 LOG2 JUMP JUMPDEST PUSH0 PUSH0 SWAP1 SLOAD SWAP1 PUSH2 0x100 EXP SWAP1 DIV PUSH20 0xFFFFFFFFFFFFFFFFFFFFFFFFFFFFFFFFFFFFFFFF AND PUSH20 0xFFFFFFFFFFFFFFFFFFFFFFFFFFFFFFFFFFFFFFFF AND CALLER PUSH20 0xFFFFFFFFFFFFFFFFFFFFFFFFFFFFFFFFFFFFFFFF AND EQ PUSH2 0xF87 JUMPI PUSH1 0x40 MLOAD PUSH32 0x8C379A000000000000000000000000000000000000000000000000000000000 DUP2 MSTORE PUSH1 0x4 ADD PUSH2 0xF7E SWAP1 PUSH2 0x1A9F JUMP JUMPDEST PUSH1 0x40 MLOAD DUP1 SWAP2 SUB SWAP1 REVERT JUMPDEST PUSH1 0x4 PUSH0 SWAP1 SLOAD SWAP1 PUSH2 0x100 EXP SWAP1 DIV PUSH1 0xFF AND ISZERO PUSH2 0xFD6 JUMPI PUSH1 0x40 MLOAD PUSH32 0x8C379A000000000000000000000000000000000000000000000000000000000 DUP2 MSTORE PUSH1 0x4 ADD PUSH2 0xFCD SWAP1 PUSH2 0x16E0 JUMP JUMPDEST PUSH1 0x40 MLOAD DUP1 SWAP2 SUB SWAP1 REVERT JUMPDEST PUSH1 0x1 PUSH1 0x4 PUSH0 PUSH2 0x100 EXP DUP2 SLOAD DUP2 PUSH1 0xFF MUL NOT AND SWAP1 DUP4 ISZERO ISZERO MUL OR SWAP1 SSTORE POP DUP1 SELFBALANCE LT ISZERO PUSH2 0x1033 JUMPI PUSH1 0x40 MLOAD PUSH32 0x8C379A000000000000000000000000000000000000000000000000000000000 DUP2 MSTORE PUSH1 0x4 ADD PUSH2 0x102A SWAP1 PUSH2 0x1BD7 JUMP JUMPDEST PUSH1 0x40 MLOAD DUP1 SWAP2 SUB SWAP1 REVERT JUMPDEST PUSH0 DUP3 PUSH20 0xFFFFFFFFFFFFFFFFFFFFFFFFFFFFFFFFFFFFFFFF AND DUP3 PUSH1 0x40 MLOAD PUSH2 0x1058 SWAP1 PUSH2 0x17C6 JUMP JUMPDEST PUSH0 PUSH1 0x40 MLOAD DUP1 DUP4 SUB DUP2 DUP6 DUP8 GAS CALL SWAP3 POP POP POP RETURNDATASIZE DUP1 PUSH0 DUP2 EQ PUSH2 0x1092 JUMPI PUSH1 0x40 MLOAD SWAP2 POP PUSH1 0x1F NOT PUSH1 0x3F RETURNDATASIZE ADD AND DUP3 ADD PUSH1 0x40 MSTORE RETURNDATASIZE DUP3 MSTORE RETURNDATASIZE PUSH0 PUSH1 0x20 DUP5 ADD RETURNDATACOPY PUSH2 0x1097 JUMP JUMPDEST PUSH1 0x60 SWAP2 POP JUMPDEST POP POP SWAP1 POP DUP1 PUSH2 0x10DB JUMPI PUSH1 0x40 MLOAD PUSH32 0x8C379A000000000000000000000000000000000000000000000000000000000 DUP2 MSTORE PUSH1 0x4 ADD PUSH2 0x10D2 SWAP1 PUSH2 0x1C3F JUMP JUMPDEST PUSH1 0x40 MLOAD DUP1 SWAP2 SUB SWAP1 REVERT JUMPDEST DUP3 PUSH20 0xFFFFFFFFFFFFFFFFFFFFFFFFFFFFFFFFFFFFFFFF AND PUSH32 0x372B455B5163A0C4E2A6CF75F425B94AB0DF0D2E195B71985C0B39D3303F91B5 DUP4 PUSH1 0x40 MLOAD PUSH2 0x1121 SWAP2 SWAP1 PUSH2 0x12F0 JUMP JUMPDEST PUSH1 0x40 MLOAD DUP1 SWAP2 SUB SWAP1 LOG2 POP PUSH0 PUSH1 0x4 PUSH0 PUSH2 0x100 EXP DUP2 SLOAD DUP2 PUSH1 0xFF MUL NOT AND SWAP1 DUP4 ISZERO ISZERO MUL OR SWAP1 SSTORE POP POP POP JUMP JUMPDEST PUSH0 CALLVALUE GT PUSH2 0x1189 JUMPI PUSH1 0x40 MLOAD PUSH32 0x8C379A000000000000000000000000000000000000000000000000000000000 DUP2 MSTORE PUSH1 0x4 ADD PUSH2 0x1180 SWAP1 PUSH2 0x1CA7 JUMP JUMPDEST PUSH1 0x40 MLOAD DUP1 SWAP2 SUB SWAP1 REVERT JUMPDEST PUSH1 0x40 MLOAD DUP1 PUSH1 0x80 ADD PUSH1 0x40 MSTORE DUP1 CALLVALUE DUP2 MSTORE PUSH1 0x20 ADD DUP3 DUP2 MSTORE PUSH1 0x20 ADD TIMESTAMP DUP2 MSTORE PUSH1 0x20 ADD PUSH0 ISZERO ISZERO DUP2 MSTORE POP PUSH1 0x3 PUSH0 CALLER PUSH20 0xFFFFFFFFFFFFFFFFFFFFFFFFFFFFFFFFFFFFFFFF AND PUSH20 0xFFFFFFFFFFFFFFFFFFFFFFFFFFFFFFFFFFFFFFFF AND DUP2 MSTORE PUSH1 0x20 ADD SWAP1 DUP2 MSTORE PUSH1 0x20 ADD PUSH0 KECCAK256 PUSH0 DUP3 ADD MLOAD DUP2 PUSH0 ADD SSTORE PUSH1 0x20 DUP3 ADD MLOAD DUP2 PUSH1 0x1 ADD SSTORE PUSH1 0x40 DUP3 ADD MLOAD DUP2 PUSH1 0x2 ADD SSTORE PUSH1 0x60 DUP3 ADD MLOAD DUP2 PUSH1 0x3 ADD PUSH0 PUSH2 0x100 EXP DUP2 SLOAD DUP2 PUSH1 0xFF MUL NOT AND SWAP1 DUP4 ISZERO ISZERO MUL OR SWAP1 SSTORE POP SWAP1 POP POP CALLER PUSH20 0xFFFFFFFFFFFFFFFFFFFFFFFFFFFFFFFFFFFFFFFF AND PUSH32 0x4D7787535441ABADF1FEB20A4BE6EF748AE9C25C03364E195AFC8BCC8816D980 DUP3 PUSH1 0x40 MLOAD PUSH2 0x126D SWAP2 SWAP1 PUSH2 0x1CD4 JUMP JUMPDEST PUSH1 0x40 MLOAD DUP1 SWAP2 SUB SWAP1 LOG2 POP JUMP JUMPDEST PUSH0 DUP2 SWAP1 POP SWAP2 SWAP1 POP JUMP JUMPDEST PUSH32 0x4E487B7100000000000000000000000000000000000000000000000000000000 PUSH0 MSTORE PUSH1 0x11 PUSH1 0x4 MSTORE PUSH1 0x24 PUSH0 REVERT JUMPDEST PUSH0 PUSH2 0x12B8 DUP3 PUSH2 0x1278 JUMP JUMPDEST SWAP2 POP PUSH2 0x12C3 DUP4 PUSH2 0x1278 JUMP JUMPDEST SWAP3 POP DUP3 DUP3 ADD SWAP1 POP DUP1 DUP3 GT ISZERO PUSH2 0x12DB JUMPI PUSH2 0x12DA PUSH2 0x1281 JUMP JUMPDEST JUMPDEST SWAP3 SWAP2 POP POP JUMP JUMPDEST PUSH2 0x12EA DUP2 PUSH2 0x1278 JUMP JUMPDEST DUP3 MSTORE POP POP JUMP JUMPDEST PUSH0 PUSH1 0x20 DUP3 ADD SWAP1 POP PUSH2 0x1303 PUSH0 DUP4 ADD DUP5 PUSH2 0x12E1 JUMP JUMPDEST SWAP3 SWAP2 POP POP JUMP JUMPDEST PUSH0 PUSH0 REVERT JUMPDEST PUSH0 PUSH0 REVERT JUMPDEST PUSH0 PUSH20 0xFFFFFFFFFFFFFFFFFFFFFFFFFFFFFFFFFFFFFFFF DUP3 AND SWAP1 POP SWAP2 SWAP1 POP JUMP JUMPDEST PUSH0 PUSH2 0x133A DUP3 PUSH2 0x1311 JUMP JUMPDEST SWAP1 POP SWAP2 SWAP1 POP JUMP JUMPDEST PUSH2 0x134A DUP2 PUSH2 0x1330 JUMP JUMPDEST DUP2 EQ PUSH2 0x1354 JUMPI PUSH0 PUSH0 REVERT JUMPDEST POP JUMP JUMPDEST PUSH0 DUP2 CALLDATALOAD SWAP1 POP PUSH2 0x1365 DUP2 PUSH2 0x1341 JUMP JUMPDEST SWAP3 SWAP2 POP POP JUMP JUMPDEST PUSH0 PUSH1 0x20 DUP3 DUP5 SUB SLT ISZERO PUSH2 0x1380 JUMPI PUSH2 0x137F PUSH2 0x1309 JUMP JUMPDEST JUMPDEST PUSH0 PUSH2 0x138D DUP5 DUP3 DUP6 ADD PUSH2 0x1357 JUMP JUMPDEST SWAP2 POP POP SWAP3 SWAP2 POP POP JUMP JUMPDEST PUSH2 0x139F DUP2 PUSH2 0x1278 JUMP JUMPDEST DUP2 EQ PUSH2 0x13A9 JUMPI PUSH0 PUSH0 REVERT JUMPDEST POP JUMP JUMPDEST PUSH0 DUP2 CALLDATALOAD SWAP1 POP PUSH2 0x13BA DUP2 PUSH2 0x1396 JUMP JUMPDEST SWAP3 SWAP2 POP POP JUMP JUMPDEST PUSH0 PUSH0 PUSH1 0x40 DUP4 DUP6 SUB SLT ISZERO PUSH2 0x13D6 JUMPI PUSH2 0x13D5 PUSH2 0x1309 JUMP JUMPDEST JUMPDEST PUSH0 PUSH2 0x13E3 DUP6 DUP3 DUP7 ADD PUSH2 0x1357 JUMP JUMPDEST SWAP3 POP POP PUSH1 0x20 PUSH2 0x13F4 DUP6 DUP3 DUP7 ADD PUSH2 0x13AC JUMP JUMPDEST SWAP2 POP POP SWAP3 POP SWAP3 SWAP1 POP JUMP JUMPDEST PUSH0 PUSH1 0x60 DUP3 ADD SWAP1 POP PUSH2 0x1411 PUSH0 DUP4 ADD DUP7 PUSH2 0x12E1 JUMP JUMPDEST PUSH2 0x141E PUSH1 0x20 DUP4 ADD DUP6 PUSH2 0x12E1 JUMP JUMPDEST PUSH2 0x142B PUSH1 0x40 DUP4 ADD DUP5 PUSH2 0x12E1 JUMP JUMPDEST SWAP5 SWAP4 POP POP POP POP JUMP JUMPDEST PUSH0 PUSH1 0x20 DUP3 DUP5 SUB SLT ISZERO PUSH2 0x1448 JUMPI PUSH2 0x1447 PUSH2 0x1309 JUMP JUMPDEST JUMPDEST PUSH0 PUSH2 0x1455 DUP5 DUP3 DUP6 ADD PUSH2 0x13AC JUMP JUMPDEST SWAP2 POP POP SWAP3 SWAP2 POP POP JUMP JUMPDEST PUSH0 PUSH0 REVERT JUMPDEST PUSH0 PUSH0 REVERT JUMPDEST PUSH0 PUSH0 REVERT JUMPDEST PUSH0 PUSH0 DUP4 PUSH1 0x1F DUP5 ADD SLT PUSH2 0x147F JUMPI PUSH2 0x147E PUSH2 0x145E JUMP JUMPDEST JUMPDEST DUP3 CALLDATALOAD SWAP1 POP PUSH8 0xFFFFFFFFFFFFFFFF DUP2 GT ISZERO PUSH2 0x149C JUMPI PUSH2 0x149B PUSH2 0x1462 JUMP JUMPDEST JUMPDEST PUSH1 0x20 DUP4 ADD SWAP2 POP DUP4 PUSH1 0x1 DUP3 MUL DUP4 ADD GT ISZERO PUSH2 0x14B8 JUMPI PUSH2 0x14B7 PUSH2 0x1466 JUMP JUMPDEST JUMPDEST SWAP3 POP SWAP3 SWAP1 POP JUMP JUMPDEST PUSH0 PUSH0 PUSH0 PUSH1 0x40 DUP5 DUP7 SUB SLT ISZERO PUSH2 0x14D6 JUMPI PUSH2 0x14D5 PUSH2 0x1309 JUMP JUMPDEST JUMPDEST PUSH0 PUSH2 0x14E3 DUP7 DUP3 DUP8 ADD PUSH2 0x13AC JUMP JUMPDEST SWAP4 POP POP PUSH1 0x20 DUP5 ADD CALLDATALOAD PUSH8 0xFFFFFFFFFFFFFFFF DUP2 GT ISZERO PUSH2 0x1504 JUMPI PUSH2 0x1503 PUSH2 0x130D JUMP JUMPDEST JUMPDEST PUSH2 0x1510 DUP7 DUP3 DUP8 ADD PUSH2 0x146A JUMP JUMPDEST SWAP3 POP SWAP3 POP POP SWAP3 POP SWAP3 POP SWAP3 JUMP JUMPDEST PUSH0 PUSH0 PUSH1 0x40 DUP4 DUP6 SUB SLT ISZERO PUSH2 0x1532 JUMPI PUSH2 0x1531 PUSH2 0x1309 JUMP JUMPDEST JUMPDEST PUSH0 PUSH2 0x153F DUP6 DUP3 DUP7 ADD PUSH2 0x13AC JUMP JUMPDEST SWAP3 POP POP PUSH1 0x20 PUSH2 0x1550 DUP6 DUP3 DUP7 ADD PUSH2 0x13AC JUMP JUMPDEST SWAP2 POP POP SWAP3 POP SWAP3 SWAP1 POP JUMP JUMPDEST PUSH2 0x1563 DUP2 PUSH2 0x1330 JUMP JUMPDEST DUP3 MSTORE POP POP JUMP JUMPDEST PUSH0 PUSH1 0x20 DUP3 ADD SWAP1 POP PUSH2 0x157C PUSH0 DUP4 ADD DUP5 PUSH2 0x155A JUMP JUMPDEST SWAP3 SWAP2 POP POP JUMP JUMPDEST PUSH0 PUSH2 0x158C DUP3 PUSH2 0x1311 JUMP JUMPDEST SWAP1 POP SWAP2 SWAP1 POP JUMP JUMPDEST PUSH2 0x159C DUP2 PUSH2 0x1582 JUMP JUMPDEST DUP2 EQ PUSH2 0x15A6 JUMPI PUSH0 PUSH0 REVERT JUMPDEST POP JUMP JUMPDEST PUSH0 DUP2 CALLDATALOAD SWAP1 POP PUSH2 0x15B7 DUP2 PUSH2 0x1593 JUMP JUMPDEST SWAP3 SWAP2 POP POP JUMP JUMPDEST PUSH0 PUSH0 PUSH1 0x40 DUP4 DUP6 SUB SLT ISZERO PUSH2 0x15D3 JUMPI PUSH2 0x15D2 PUSH2 0x1309 JUMP JUMPDEST JUMPDEST PUSH0 PUSH2 0x15E0 DUP6 DUP3 DUP7 ADD PUSH2 0x15A9 JUMP JUMPDEST SWAP3 POP POP PUSH1 0x20 PUSH2 0x15F1 DUP6 DUP3 DUP7 ADD PUSH2 0x13AC JUMP JUMPDEST SWAP2 POP POP SWAP3 POP SWAP3 SWAP1 POP JUMP JUMPDEST PUSH0 DUP2 SWAP1 POP SWAP2 SWAP1 POP JUMP JUMPDEST PUSH2 0x160D DUP2 PUSH2 0x15FB JUMP JUMPDEST DUP2 EQ PUSH2 0x1617 JUMPI PUSH0 PUSH0 REVERT JUMPDEST POP JUMP JUMPDEST PUSH0 DUP2 CALLDATALOAD SWAP1 POP PUSH2 0x1628 DUP2 PUSH2 0x1604 JUMP JUMPDEST SWAP3 SWAP2 POP POP JUMP JUMPDEST PUSH0 PUSH1 0x20 DUP3 DUP5 SUB SLT ISZERO PUSH2 0x1643 JUMPI PUSH2 0x1642 PUSH2 0x1309 JUMP JUMPDEST JUMPDEST PUSH0 PUSH2 0x1650 DUP5 DUP3 DUP6 ADD PUSH2 0x161A JUMP JUMPDEST SWAP2 POP POP SWAP3 SWAP2 POP POP JUMP JUMPDEST PUSH32 0x4E487B7100000000000000000000000000000000000000000000000000000000 PUSH0 MSTORE PUSH1 0x32 PUSH1 0x4 MSTORE PUSH1 0x24 PUSH0 REVERT JUMPDEST PUSH0 DUP3 DUP3 MSTORE PUSH1 0x20 DUP3 ADD SWAP1 POP SWAP3 SWAP2 POP POP JUMP JUMPDEST PUSH32 0x5265656E7472616E740000000000000000000000000000000000000000000000 PUSH0 DUP3 ADD MSTORE POP JUMP JUMPDEST PUSH0 PUSH2 0x16CA PUSH1 0x9 DUP4 PUSH2 0x1686 JUMP JUMPDEST SWAP2 POP PUSH2 0x16D5 DUP3 PUSH2 0x1696 JUMP JUMPDEST PUSH1 0x20 DUP3 ADD SWAP1 POP SWAP2 SWAP1 POP JUMP JUMPDEST PUSH0 PUSH1 0x20 DUP3 ADD SWAP1 POP DUP2 DUP2 SUB PUSH0 DUP4 ADD MSTORE PUSH2 0x16F7 DUP2 PUSH2 0x16BE JUMP JUMPDEST SWAP1 POP SWAP2 SWAP1 POP JUMP JUMPDEST PUSH32 0x496E73756666696369656E742062616C616E6365000000000000000000000000 PUSH0 DUP3 ADD MSTORE POP JUMP JUMPDEST PUSH0 PUSH2 0x1732 PUSH1 0x14 DUP4 PUSH2 0x1686 JUMP JUMPDEST SWAP2 POP PUSH2 0x173D DUP3 PUSH2 0x16FE JUMP JUMPDEST PUSH1 0x20 DUP3 ADD SWAP1 POP SWAP2 SWAP1 POP JUMP JUMPDEST PUSH0 PUSH1 0x20 DUP3 ADD SWAP1 POP DUP2 DUP2 SUB PUSH0 DUP4 ADD MSTORE PUSH2 0x175F DUP2 PUSH2 0x1726 JUMP JUMPDEST SWAP1 POP SWAP2 SWAP1 POP JUMP JUMPDEST PUSH0 PUSH2 0x1770 DUP3 PUSH2 0x1278 JUMP JUMPDEST SWAP2 POP PUSH2 0x177B DUP4 PUSH2 0x1278 JUMP JUMPDEST SWAP3 POP DUP3 DUP3 SUB SWAP1 POP DUP2 DUP2 GT ISZERO PUSH2 0x1793 JUMPI PUSH2 0x1792 PUSH2 0x1281 JUMP JUMPDEST JUMPDEST SWAP3 SWAP2 POP POP JUMP JUMPDEST PUSH0 DUP2 SWAP1 POP SWAP3 SWAP2 POP POP JUMP JUMPDEST POP JUMP JUMPDEST PUSH0 PUSH2 0x17B1 PUSH0 DUP4 PUSH2 0x1799 JUMP JUMPDEST SWAP2 POP PUSH2 0x17BC DUP3 PUSH2 0x17A3 JUMP JUMPDEST PUSH0 DUP3 ADD SWAP1 POP SWAP2 SWAP1 POP JUMP JUMPDEST PUSH0 PUSH2 0x17D0 DUP3 PUSH2 0x17A6 JUMP JUMPDEST SWAP2 POP DUP2 SWAP1 POP SWAP2 SWAP1 POP JUMP JUMPDEST PUSH32 0x5472616E73666572206661696C65640000000000000000000000000000000000 PUSH0 DUP3 ADD MSTORE POP JUMP JUMPDEST PUSH0 PUSH2 0x180E PUSH1 0xF DUP4 PUSH2 0x1686 JUMP JUMPDEST SWAP2 POP PUSH2 0x1819 DUP3 PUSH2 0x17DA JUMP JUMPDEST PUSH1 0x20 DUP3 ADD SWAP1 POP SWAP2 SWAP1 POP JUMP JUMPDEST PUSH0 PUSH1 0x20 DUP3 ADD SWAP1 POP DUP2 DUP2 SUB PUSH0 DUP4 ADD MSTORE PUSH2 0x183B DUP2 PUSH2 0x1802 JUMP JUMPDEST SWAP1 POP SWAP2 SWAP1 POP JUMP JUMPDEST PUSH32 0x4E6F20636F6D6D69740000000000000000000000000000000000000000000000 PUSH0 DUP3 ADD MSTORE POP JUMP JUMPDEST PUSH0 PUSH2 0x1876 PUSH1 0x9 DUP4 PUSH2 0x1686 JUMP JUMPDEST SWAP2 POP PUSH2 0x1881 DUP3 PUSH2 0x1842 JUMP JUMPDEST PUSH1 0x20 DUP3 ADD SWAP1 POP SWAP2 SWAP1 POP JUMP JUMPDEST PUSH0 PUSH1 0x20 DUP3 ADD SWAP1 POP DUP2 DUP2 SUB PUSH0 DUP4 ADD MSTORE PUSH2 0x18A3 DUP2 PUSH2 0x186A JUMP JUMPDEST SWAP1 POP SWAP2 SWAP1 POP JUMP JUMPDEST PUSH32 0x416C72656164792072657665616C656400000000000000000000000000000000 PUSH0 DUP3 ADD MSTORE POP JUMP JUMPDEST PUSH0 PUSH2 0x18DE PUSH1 0x10 DUP4 PUSH2 0x1686 JUMP JUMPDEST SWAP2 POP PUSH2 0x18E9 DUP3 PUSH2 0x18AA JUMP JUMPDEST PUSH1 0x20 DUP3 ADD SWAP1 POP SWAP2 SWAP1 POP JUMP JUMPDEST PUSH0 PUSH1 0x20 DUP3 ADD SWAP1 POP DUP2 DUP2 SUB PUSH0 DUP4 ADD MSTORE PUSH2 0x190B DUP2 PUSH2 0x18D2 JUMP JUMPDEST SWAP1 POP SWAP2 SWAP1 POP JUMP JUMPDEST PUSH0 DUP2 SWAP1 POP SWAP2 SWAP1 POP JUMP JUMPDEST PUSH2 0x192C PUSH2 0x1927 DUP3 PUSH2 0x1278 JUMP JUMPDEST PUSH2 0x1912 JUMP JUMPDEST DUP3 MSTORE POP POP JUMP JUMPDEST PUSH0 DUP2 SWAP1 POP SWAP3 SWAP2 POP POP JUMP JUMPDEST DUP3 DUP2 DUP4 CALLDATACOPY PUSH0 DUP4 DUP4 ADD MSTORE POP POP POP JUMP JUMPDEST PUSH0 PUSH2 0x1955 DUP4 DUP6 PUSH2 0x1932 JUMP JUMPDEST SWAP4 POP PUSH2 0x1962 DUP4 DUP6 DUP5 PUSH2 0x193C JUMP JUMPDEST DUP3 DUP5 ADD SWAP1 POP SWAP4 SWAP3 POP POP POP JUMP JUMPDEST PUSH0 DUP2 PUSH1 0x60 SHL SWAP1 POP SWAP2 SWAP1 POP JUMP JUMPDEST PUSH0 PUSH2 0x1984 DUP3 PUSH2 0x196E JUMP JUMPDEST SWAP1 POP SWAP2 SWAP1 POP JUMP JUMPDEST PUSH0 PUSH2 0x1995 DUP3 PUSH2 0x197A JUMP JUMPDEST SWAP1 POP SWAP2 SWAP1 POP JUMP JUMPDEST PUSH2 0x19AD PUSH2 0x19A8 DUP3 PUSH2 0x1330 JUMP JUMPDEST PUSH2 0x198B JUMP JUMPDEST DUP3 MSTORE POP POP JUMP JUMPDEST PUSH0 PUSH2 0x19BE DUP3 DUP8 PUSH2 0x191B JUMP JUMPDEST PUSH1 0x20 DUP3 ADD SWAP2 POP PUSH2 0x19CF DUP3 DUP6 DUP8 PUSH2 0x194A JUMP JUMPDEST SWAP2 POP PUSH2 0x19DB DUP3 DUP5 PUSH2 0x199C JUMP JUMPDEST PUSH1 0x14 DUP3 ADD SWAP2 POP DUP2 SWAP1 POP SWAP6 SWAP5 POP POP POP POP POP JUMP JUMPDEST PUSH32 0x48617368206D69736D6174636800000000000000000000000000000000000000 PUSH0 DUP3 ADD MSTORE POP JUMP JUMPDEST PUSH0 PUSH2 0x1A21 PUSH1 0xD DUP4 PUSH2 0x1686 JUMP JUMPDEST SWAP2 POP PUSH2 0x1A2C DUP3 PUSH2 0x19ED JUMP JUMPDEST PUSH1 0x20 DUP3 ADD SWAP1 POP SWAP2 SWAP1 POP JUMP JUMPDEST PUSH0 PUSH1 0x20 DUP3 ADD SWAP1 POP DUP2 DUP2 SUB PUSH0 DUP4 ADD MSTORE PUSH2 0x1A4E DUP2 PUSH2 0x1A15 JUMP JUMPDEST SWAP1 POP SWAP2 SWAP1 POP JUMP JUMPDEST PUSH32 0x4E6F74206F776E65720000000000000000000000000000000000000000000000 PUSH0 DUP3 ADD MSTORE POP JUMP JUMPDEST PUSH0 PUSH2 0x1A89 PUSH1 0x9 DUP4 PUSH2 0x1686 JUMP JUMPDEST SWAP2 POP PUSH2 0x1A94 DUP3 PUSH2 0x1A55 JUMP JUMPDEST PUSH1 0x20 DUP3 ADD SWAP1 POP SWAP2 SWAP1 POP JUMP JUMPDEST PUSH0 PUSH1 0x20 DUP3 ADD SWAP1 POP DUP2 DUP2 SUB PUSH0 DUP4 ADD MSTORE PUSH2 0x1AB6 DUP2 PUSH2 0x1A7D JUMP JUMPDEST SWAP1 POP SWAP2 SWAP1 POP JUMP JUMPDEST PUSH32 0x5A65726F20616464726573730000000000000000000000000000000000000000 PUSH0 DUP3 ADD MSTORE POP JUMP JUMPDEST PUSH0 PUSH2 0x1AF1 PUSH1 0xC DUP4 PUSH2 0x1686 JUMP JUMPDEST SWAP2 POP PUSH2 0x1AFC DUP3 PUSH2 0x1ABD JUMP JUMPDEST PUSH1 0x20 DUP3 ADD SWAP1 POP SWAP2 SWAP1 POP JUMP JUMPDEST PUSH0 PUSH1 0x20 DUP3 ADD SWAP1 POP DUP2 DUP2 SUB PUSH0 DUP4 ADD MSTORE PUSH2 0x1B1E DUP2 PUSH2 0x1AE5 JUMP JUMPDEST SWAP1 POP SWAP2 SWAP1 POP JUMP JUMPDEST PUSH32 0x5A65726F206465706F7369740000000000000000000000000000000000000000 PUSH0 DUP3 ADD MSTORE POP JUMP JUMPDEST PUSH0 PUSH2 0x1B59 PUSH1 0xC DUP4 PUSH2 0x1686 JUMP JUMPDEST SWAP2 POP PUSH2 0x1B64 DUP3 PUSH2 0x1B25 JUMP JUMPDEST PUSH1 0x20 DUP3 ADD SWAP1 POP SWAP2 SWAP1 POP JUMP JUMPDEST PUSH0 PUSH1 0x20 DUP3 ADD SWAP1 POP DUP2 DUP2 SUB PUSH0 DUP4 ADD MSTORE PUSH2 0x1B86 DUP2 PUSH2 0x1B4D JUMP JUMPDEST SWAP1 POP SWAP2 SWAP1 POP JUMP JUMPDEST PUSH32 0x436F6E7472616374206C6F770000000000000000000000000000000000000000 PUSH0 DUP3 ADD MSTORE POP JUMP JUMPDEST PUSH0 PUSH2 0x1BC1 PUSH1 0xC DUP4 PUSH2 0x1686 JUMP JUMPDEST SWAP2 POP PUSH2 0x1BCC DUP3 PUSH2 0x1B8D JUMP JUMPDEST PUSH1 0x20 DUP3 ADD SWAP1 POP SWAP2 SWAP1 POP JUMP JUMPDEST PUSH0 PUSH1 0x20 DUP3 ADD SWAP1 POP DUP2 DUP2 SUB PUSH0 DUP4 ADD MSTORE PUSH2 0x1BEE DUP2 PUSH2 0x1BB5 JUMP JUMPDEST SWAP1 POP SWAP2 SWAP1 POP JUMP JUMPDEST PUSH32 0x4F776E6572207472616E73666572206661696C65640000000000000000000000 PUSH0 DUP3 ADD MSTORE POP JUMP JUMPDEST PUSH0 PUSH2 0x1C29 PUSH1 0x15 DUP4 PUSH2 0x1686 JUMP JUMPDEST SWAP2 POP PUSH2 0x1C34 DUP3 PUSH2 0x1BF5 JUMP JUMPDEST PUSH1 0x20 DUP3 ADD SWAP1 POP SWAP2 SWAP1 POP JUMP JUMPDEST PUSH0 PUSH1 0x20 DUP3 ADD SWAP1 POP DUP2 DUP2 SUB PUSH0 DUP4 ADD MSTORE PUSH2 0x1C56 DUP2 PUSH2 0x1C1D JUMP JUMPDEST SWAP1 POP SWAP2 SWAP1 POP JUMP JUMPDEST PUSH32 0x4D757374207374616B6500000000000000000000000000000000000000000000 PUSH0 DUP3 ADD MSTORE POP JUMP JUMPDEST PUSH0 PUSH2 0x1C91 PUSH1 0xA DUP4 PUSH2 0x1686 JUMP JUMPDEST SWAP2 POP PUSH2 0x1C9C DUP3 PUSH2 0x1C5D JUMP JUMPDEST PUSH1 0x20 DUP3 ADD SWAP1 POP SWAP2 SWAP1 POP JUMP JUMPDEST PUSH0 PUSH1 0x20 DUP3 ADD SWAP1 POP DUP2 DUP2 SUB PUSH0 DUP4 ADD MSTORE PUSH2 0x1CBE DUP2 PUSH2 0x1C85 JUMP JUMPDEST SWAP1 POP SWAP2 SWAP1 POP JUMP JUMPDEST PUSH2 0x1CCE DUP2 PUSH2 0x15FB JUMP JUMPDEST DUP3 MSTORE POP POP JUMP JUMPDEST PUSH0 PUSH1 0x20 DUP3 ADD SWAP1 POP PUSH2 0x1CE7 PUSH0 DUP4 ADD DUP5 PUSH2 0x1CC5 JUMP JUMPDEST SWAP3 SWAP2 POP POP JUMP INVALID LOG2 PUSH5 0x6970667358 0x22 SLT KECCAK256 0x21 0xD3 0xA6 0xF6 DUP12 PREVRANDAO 0x23 0xB4 ADDRESS 0xD8 DUP15 DUP15 0xC9 CALLCODE 0xB2 OR COINBASE JUMPF 0x6EFB 0x2F SDIV 0xD8 0x23 EXTDELEGATECALL ADDMOD 0xD6 DUP9 MOD 0x1F 0xBF 0xB1 PUSH5 0x736F6C6343 STOP ADDMOD 0x1E STOP CALLER "
				},
				"gasEstimates": {
					"creation": {
						"codeDepositCost": "1491800",
						"executionCost": "50088",
						"totalCost": "1541888"
					},
					"external": {
						"": "infinite",
						"balances(address)": "2847",
						"changeOwner(address)": "26938",
						"commit(bytes32)": "infinite",
						"contractBalance()": "379",
						"deposit()": "infinite",
						"getDeposit(address,uint256)": "infinite",
						"getDepositCount(address)": "2838",
						"invariantCheck()": "254",
						"owner()": "2574",
						"ownerWithdraw(address,uint256)": "infinite",
						"reveal(uint256,string)": "infinite",
						"unsafeMultiply(uint256,uint256)": "infinite",
						"withdraw(uint256)": "infinite"
					}
				},
				"methodIdentifiers": {
					"balances(address)": "27e235e3",
					"changeOwner(address)": "a6f9dae1",
					"commit(bytes32)": "f14fcbc8",
					"contractBalance()": "8b7afe2e",
					"deposit()": "d0e30db0",
					"getDeposit(address,uint256)": "2726b506",
					"getDepositCount(address)": "13fcaf54",
					"invariantCheck()": "4509017e",
					"owner()": "8da5cb5b",
					"ownerWithdraw(address,uint256)": "d9c88e14",
					"reveal(uint256,string)": "2fa4548b",
					"unsafeMultiply(uint256,uint256)": "6bb9a198",
					"withdraw(uint256)": "2e1a7d4d"
				}
			},
			"storageLayout": {
				"storage": [
					{
						"astId": 3,
						"contract": "projects/EthertransfersSecPetterns.sol:SecureVaultAuditDemo",
						"label": "owner",
						"offset": 0,
						"slot": "0",
						"type": "t_address"
					},
					{
						"astId": 7,
						"contract": "projects/EthertransfersSecPetterns.sol:SecureVaultAuditDemo",
						"label": "balances",
						"offset": 0,
						"slot": "1",
						"type": "t_mapping(t_address,t_uint256)"
					},
					{
						"astId": 13,
						"contract": "projects/EthertransfersSecPetterns.sol:SecureVaultAuditDemo",
						"label": "deposits",
						"offset": 0,
						"slot": "2",
						"type": "t_mapping(t_address,t_array(t_struct(Deposit)27_storage)dyn_storage)"
					},
					{
						"astId": 18,
						"contract": "projects/EthertransfersSecPetterns.sol:SecureVaultAuditDemo",
						"label": "commits",
						"offset": 0,
						"slot": "3",
						"type": "t_mapping(t_address,t_struct(Commit)36_storage)"
					},
					{
						"astId": 20,
						"contract": "projects/EthertransfersSecPetterns.sol:SecureVaultAuditDemo",
						"label": "locked",
						"offset": 0,
						"slot": "4",
						"type": "t_bool"
					}
				],
				"types": {
					"t_address": {
						"encoding": "inplace",
						"label": "address",
						"numberOfBytes": "20"
					},
					"t_array(t_struct(Deposit)27_storage)dyn_storage": {
						"base": "t_struct(Deposit)27_storage",
						"encoding": "dynamic_array",
						"label": "struct SecureVaultAuditDemo.Deposit[]",
						"numberOfBytes": "32"
					},
					"t_bool": {
						"encoding": "inplace",
						"label": "bool",
						"numberOfBytes": "1"
					},
					"t_bytes32": {
						"encoding": "inplace",
						"label": "bytes32",
						"numberOfBytes": "32"
					},
					"t_mapping(t_address,t_array(t_struct(Deposit)27_storage)dyn_storage)": {
						"encoding": "mapping",
						"key": "t_address",
						"label": "mapping(address => struct SecureVaultAuditDemo.Deposit[])",
						"numberOfBytes": "32",
						"value": "t_array(t_struct(Deposit)27_storage)dyn_storage"
					},
					"t_mapping(t_address,t_struct(Commit)36_storage)": {
						"encoding": "mapping",
						"key": "t_address",
						"label": "mapping(address => struct SecureVaultAuditDemo.Commit)",
						"numberOfBytes": "32",
						"value": "t_struct(Commit)36_storage"
					},
					"t_mapping(t_address,t_uint256)": {
						"encoding": "mapping",
						"key": "t_address",
						"label": "mapping(address => uint256)",
						"numberOfBytes": "32",
						"value": "t_uint256"
					},
					"t_struct(Commit)36_storage": {
						"encoding": "inplace",
						"label": "struct SecureVaultAuditDemo.Commit",
						"members": [
							{
								"astId": 29,
								"contract": "projects/EthertransfersSecPetterns.sol:SecureVaultAuditDemo",
								"label": "stake",
								"offset": 0,
								"slot": "0",
								"type": "t_uint256"
							},
							{
								"astId": 31,
								"contract": "projects/EthertransfersSecPetterns.sol:SecureVaultAuditDemo",
								"label": "hash",
								"offset": 0,
								"slot": "1",
								"type": "t_bytes32"
							},
							{
								"astId": 33,
								"contract": "projects/EthertransfersSecPetterns.sol:SecureVaultAuditDemo",
								"label": "timestamp",
								"offset": 0,
								"slot": "2",
								"type": "t_uint256"
							},
							{
								"astId": 35,
								"contract": "projects/EthertransfersSecPetterns.sol:SecureVaultAuditDemo",
								"label": "revealed",
								"offset": 0,
								"slot": "3",
								"type": "t_bool"
							}
						],
						"numberOfBytes": "128"
					},
					"t_struct(Deposit)27_storage": {
						"encoding": "inplace",
						"label": "struct SecureVaultAuditDemo.Deposit",
						"members": [
							{
								"astId": 22,
								"contract": "projects/EthertransfersSecPetterns.sol:SecureVaultAuditDemo",
								"label": "amount",
								"offset": 0,
								"slot": "0",
								"type": "t_uint256"
							},
							{
								"astId": 24,
								"contract": "projects/EthertransfersSecPetterns.sol:SecureVaultAuditDemo",
								"label": "timestamp",
								"offset": 0,
								"slot": "1",
								"type": "t_uint256"
							},
							{
								"astId": 26,
								"contract": "projects/EthertransfersSecPetterns.sol:SecureVaultAuditDemo",
								"label": "index",
								"offset": 0,
								"slot": "2",
								"type": "t_uint256"
							}
						],
						"numberOfBytes": "96"
					},
					"t_uint256": {
						"encoding": "inplace",
						"label": "uint256",
						"numberOfBytes": "32"
					}
				}
			},
			"userdoc": {
				"kind": "user",
				"methods": {},
				"version": 1
			}
		}
	}
}