{
	"data": {
		"bytecode": {
			"linkReferences": {},
			"object": "6080604052348015600e575f5ffd5b5061071c8061001c5f395ff3fe608060405234801561000f575f5ffd5b506004361061003f575f3560e01c806374a027a414610043578063ac36468c14610073578063c58223821461008f575b5f5ffd5b61005d60048036038101906100589190610260565b6100ad565b60405161006a919061031b565b60405180910390f35b61008d60048036038101906100889190610260565b6100d9565b005b61009761016c565b6040516100a4919061031b565b60405180910390f35b606082826040516020016100c29291906103c1565b604051602081830303815290604052905092915050565b5f82828080601f0160208091040260200160405190810160405280939291908181526020018383808284375f81840152601f19601f8201169050808301925050505050505090506040518060400160405280601281526020017f492063616e206368616e676520746869732100000000000000000000000000008152509050805f90816101669190610617565b50505050565b5f80546101789061043e565b80601f01602080910402602001604051908101604052809291908181526020018280546101a49061043e565b80156101ef5780601f106101c6576101008083540402835291602001916101ef565b820191905f5260205f20905b8154815290600101906020018083116101d257829003601f168201915b505050505081565b5f5ffd5b5f5ffd5b5f5ffd5b5f5ffd5b5f5ffd5b5f5f83601f8401126102205761021f6101ff565b5b8235905067ffffffffffffffff81111561023d5761023c610203565b5b60208301915083600182028301111561025957610258610207565b5b9250929050565b5f5f60208385031215610276576102756101f7565b5b5f83013567ffffffffffffffff811115610293576102926101fb565b5b61029f8582860161020b565b92509250509250929050565b5f81519050919050565b5f82825260208201905092915050565b8281835e5f83830152505050565b5f601f19601f8301169050919050565b5f6102ed826102ab565b6102f781856102b5565b93506103078185602086016102c5565b610310816102d3565b840191505092915050565b5f6020820190508181035f83015261033381846102e3565b905092915050565b5f81905092915050565b7f4920676f743a20000000000000000000000000000000000000000000000000005f82015250565b5f61037960078361033b565b915061038482610345565b600782019050919050565b828183375f83830152505050565b5f6103a8838561033b565b93506103b583858461038f565b82840190509392505050565b5f6103cb8261036d565b91506103d882848661039d565b91508190509392505050565b7f4e487b71000000000000000000000000000000000000000000000000000000005f52604160045260245ffd5b7f4e487b71000000000000000000000000000000000000000000000000000000005f52602260045260245ffd5b5f600282049050600182168061045557607f821691505b60208210810361046857610467610411565b5b50919050565b5f819050815f5260205f209050919050565b5f6020601f8301049050919050565b5f82821b905092915050565b5f600883026104ca7fffffffffffffffffffffffffffffffffffffffffffffffffffffffffffffffff8261048f565b6104d4868361048f565b95508019841693508086168417925050509392505050565b5f819050919050565b5f819050919050565b5f61051861051361050e846104ec565b6104f5565b6104ec565b9050919050565b5f819050919050565b610531836104fe565b61054561053d8261051f565b84845461049b565b825550505050565b5f5f905090565b61055c61054d565b610567818484610528565b505050565b5b8181101561058a5761057f5f82610554565b60018101905061056d565b5050565b601f8211156105cf576105a08161046e565b6105a984610480565b810160208510156105b8578190505b6105cc6105c485610480565b83018261056c565b50505b505050565b5f82821c905092915050565b5f6105ef5f19846008026105d4565b1980831691505092915050565b5f61060783836105e0565b9150826002028217905092915050565b610620826102ab565b67ffffffffffffffff811115610639576106386103e4565b5b610643825461043e565b61064e82828561058e565b5f60209050601f83116001811461067f575f841561066d578287015190505b61067785826105fc565b8655506106de565b601f19841661068d8661046e565b5f5b828110156106b45784890151825560018201915060208501945060208101905061068f565b868310156106d157848901516106cd601f8916826105e0565b8355505b6001600288020188555050505b50505050505056fea264697066735822122069de695d68cc4725376a6902bff96ae58e6e6d81fc36512e65915a0124d278d064736f6c634300081e0033",
			"opcodes": "PUSH1 0x80 PUSH1 0x40 MSTORE CALLVALUE DUP1 ISZERO PUSH1 0xE JUMPI PUSH0 PUSH0 REVERT JUMPDEST POP PUSH2 0x71C DUP1 PUSH2 0x1C PUSH0 CODECOPY PUSH0 RETURN INVALID PUSH1 0x80 PUSH1 0x40 MSTORE CALLVALUE DUP1 ISZERO PUSH2 0xF JUMPI PUSH0 PUSH0 REVERT JUMPDEST POP PUSH1 0x4 CALLDATASIZE LT PUSH2 0x3F JUMPI PUSH0 CALLDATALOAD PUSH1 0xE0 SHR DUP1 PUSH4 0x74A027A4 EQ PUSH2 0x43 JUMPI DUP1 PUSH4 0xAC36468C EQ PUSH2 0x73 JUMPI DUP1 PUSH4 0xC5822382 EQ PUSH2 0x8F JUMPI JUMPDEST PUSH0 PUSH0 REVERT JUMPDEST PUSH2 0x5D PUSH1 0x4 DUP1 CALLDATASIZE SUB DUP2 ADD SWAP1 PUSH2 0x58 SWAP2 SWAP1 PUSH2 0x260 JUMP JUMPDEST PUSH2 0xAD JUMP JUMPDEST PUSH1 0x40 MLOAD PUSH2 0x6A SWAP2 SWAP1 PUSH2 0x31B JUMP JUMPDEST PUSH1 0x40 MLOAD DUP1 SWAP2 SUB SWAP1 RETURN JUMPDEST PUSH2 0x8D PUSH1 0x4 DUP1 CALLDATASIZE SUB DUP2 ADD SWAP1 PUSH2 0x88 SWAP2 SWAP1 PUSH2 0x260 JUMP JUMPDEST PUSH2 0xD9 JUMP JUMPDEST STOP JUMPDEST PUSH2 0x97 PUSH2 0x16C JUMP JUMPDEST PUSH1 0x40 MLOAD PUSH2 0xA4 SWAP2 SWAP1 PUSH2 0x31B JUMP JUMPDEST PUSH1 0x40 MLOAD DUP1 SWAP2 SUB SWAP1 RETURN JUMPDEST PUSH1 0x60 DUP3 DUP3 PUSH1 0x40 MLOAD PUSH1 0x20 ADD PUSH2 0xC2 SWAP3 SWAP2 SWAP1 PUSH2 0x3C1 JUMP JUMPDEST PUSH1 0x40 MLOAD PUSH1 0x20 DUP2 DUP4 SUB SUB DUP2 MSTORE SWAP1 PUSH1 0x40 MSTORE SWAP1 POP SWAP3 SWAP2 POP POP JUMP JUMPDEST PUSH0 DUP3 DUP3 DUP1 DUP1 PUSH1 0x1F ADD PUSH1 0x20 DUP1 SWAP2 DIV MUL PUSH1 0x20 ADD PUSH1 0x40 MLOAD SWAP1 DUP2 ADD PUSH1 0x40 MSTORE DUP1 SWAP4 SWAP3 SWAP2 SWAP1 DUP2 DUP2 MSTORE PUSH1 0x20 ADD DUP4 DUP4 DUP1 DUP3 DUP5 CALLDATACOPY PUSH0 DUP2 DUP5 ADD MSTORE PUSH1 0x1F NOT PUSH1 0x1F DUP3 ADD AND SWAP1 POP DUP1 DUP4 ADD SWAP3 POP POP POP POP POP POP POP SWAP1 POP PUSH1 0x40 MLOAD DUP1 PUSH1 0x40 ADD PUSH1 0x40 MSTORE DUP1 PUSH1 0x12 DUP2 MSTORE PUSH1 0x20 ADD PUSH32 0x492063616E206368616E67652074686973210000000000000000000000000000 DUP2 MSTORE POP SWAP1 POP DUP1 PUSH0 SWAP1 DUP2 PUSH2 0x166 SWAP2 SWAP1 PUSH2 0x617 JUMP JUMPDEST POP POP POP POP JUMP JUMPDEST PUSH0 DUP1 SLOAD PUSH2 0x178 SWAP1 PUSH2 0x43E JUMP JUMPDEST DUP1 PUSH1 0x1F ADD PUSH1 0x20 DUP1 SWAP2 DIV MUL PUSH1 0x20 ADD PUSH1 0x40 MLOAD SWAP1 DUP2 ADD PUSH1 0x40 MSTORE DUP1 SWAP3 SWAP2 SWAP1 DUP2 DUP2 MSTORE PUSH1 0x20 ADD DUP3 DUP1 SLOAD PUSH2 0x1A4 SWAP1 PUSH2 0x43E JUMP JUMPDEST DUP1 ISZERO PUSH2 0x1EF JUMPI DUP1 PUSH1 0x1F LT PUSH2 0x1C6 JUMPI PUSH2 0x100 DUP1 DUP4 SLOAD DIV MUL DUP4 MSTORE SWAP2 PUSH1 0x20 ADD SWAP2 PUSH2 0x1EF JUMP JUMPDEST DUP3 ADD SWAP2 SWAP1 PUSH0 MSTORE PUSH1 0x20 PUSH0 KECCAK256 SWAP1 JUMPDEST DUP2 SLOAD DUP2 MSTORE SWAP1 PUSH1 0x1 ADD SWAP1 PUSH1 0x20 ADD DUP1 DUP4 GT PUSH2 0x1D2 JUMPI DUP3 SWAP1 SUB PUSH1 0x1F AND DUP3 ADD SWAP2 JUMPDEST POP POP POP POP POP DUP2 JUMP JUMPDEST PUSH0 PUSH0 REVERT JUMPDEST PUSH0 PUSH0 REVERT JUMPDEST PUSH0 PUSH0 REVERT JUMPDEST PUSH0 PUSH0 REVERT JUMPDEST PUSH0 PUSH0 REVERT JUMPDEST PUSH0 PUSH0 DUP4 PUSH1 0x1F DUP5 ADD SLT PUSH2 0x220 JUMPI PUSH2 0x21F PUSH2 0x1FF JUMP JUMPDEST JUMPDEST DUP3 CALLDATALOAD SWAP1 POP PUSH8 0xFFFFFFFFFFFFFFFF DUP2 GT ISZERO PUSH2 0x23D JUMPI PUSH2 0x23C PUSH2 0x203 JUMP JUMPDEST JUMPDEST PUSH1 0x20 DUP4 ADD SWAP2 POP DUP4 PUSH1 0x1 DUP3 MUL DUP4 ADD GT ISZERO PUSH2 0x259 JUMPI PUSH2 0x258 PUSH2 0x207 JUMP JUMPDEST JUMPDEST SWAP3 POP SWAP3 SWAP1 POP JUMP JUMPDEST PUSH0 PUSH0 PUSH1 0x20 DUP4 DUP6 SUB SLT ISZERO PUSH2 0x276 JUMPI PUSH2 0x275 PUSH2 0x1F7 JUMP JUMPDEST JUMPDEST PUSH0 DUP4 ADD CALLDATALOAD PUSH8 0xFFFFFFFFFFFFFFFF DUP2 GT ISZERO PUSH2 0x293 JUMPI PUSH2 0x292 PUSH2 0x1FB JUMP JUMPDEST JUMPDEST PUSH2 0x29F DUP6 DUP3 DUP7 ADD PUSH2 0x20B JUMP JUMPDEST SWAP3 POP SWAP3 POP POP SWAP3 POP SWAP3 SWAP1 POP JUMP JUMPDEST PUSH0 DUP2 MLOAD SWAP1 POP SWAP2 SWAP1 POP JUMP JUMPDEST PUSH0 DUP3 DUP3 MSTORE PUSH1 0x20 DUP3 ADD SWAP1 POP SWAP3 SWAP2 POP POP JUMP JUMPDEST DUP3 DUP2 DUP4 MCOPY PUSH0 DUP4 DUP4 ADD MSTORE POP POP POP JUMP JUMPDEST PUSH0 PUSH1 0x1F NOT PUSH1 0x1F DUP4 ADD AND SWAP1 POP SWAP2 SWAP1 POP JUMP JUMPDEST PUSH0 PUSH2 0x2ED DUP3 PUSH2 0x2AB JUMP JUMPDEST PUSH2 0x2F7 DUP2 DUP6 PUSH2 0x2B5 JUMP JUMPDEST SWAP4 POP PUSH2 0x307 DUP2 DUP6 PUSH1 0x20 DUP7 ADD PUSH2 0x2C5 JUMP JUMPDEST PUSH2 0x310 DUP2 PUSH2 0x2D3 JUMP JUMPDEST DUP5 ADD SWAP2 POP POP SWAP3 SWAP2 POP POP JUMP JUMPDEST PUSH0 PUSH1 0x20 DUP3 ADD SWAP1 POP DUP2 DUP2 SUB PUSH0 DUP4 ADD MSTORE PUSH2 0x333 DUP2 DUP5 PUSH2 0x2E3 JUMP JUMPDEST SWAP1 POP SWAP3 SWAP2 POP POP JUMP JUMPDEST PUSH0 DUP2 SWAP1 POP SWAP3 SWAP2 POP POP JUMP JUMPDEST PUSH32 0x4920676F743A2000000000000000000000000000000000000000000000000000 PUSH0 DUP3 ADD MSTORE POP JUMP JUMPDEST PUSH0 PUSH2 0x379 PUSH1 0x7 DUP4 PUSH2 0x33B JUMP JUMPDEST SWAP2 POP PUSH2 0x384 DUP3 PUSH2 0x345 JUMP JUMPDEST PUSH1 0x7 DUP3 ADD SWAP1 POP SWAP2 SWAP1 POP JUMP JUMPDEST DUP3 DUP2 DUP4 CALLDATACOPY PUSH0 DUP4 DUP4 ADD MSTORE POP POP POP JUMP JUMPDEST PUSH0 PUSH2 0x3A8 DUP4 DUP6 PUSH2 0x33B JUMP JUMPDEST SWAP4 POP PUSH2 0x3B5 DUP4 DUP6 DUP5 PUSH2 0x38F JUMP JUMPDEST DUP3 DUP5 ADD SWAP1 POP SWAP4 SWAP3 POP POP POP JUMP JUMPDEST PUSH0 PUSH2 0x3CB DUP3 PUSH2 0x36D JUMP JUMPDEST SWAP2 POP PUSH2 0x3D8 DUP3 DUP5 DUP7 PUSH2 0x39D JUMP JUMPDEST SWAP2 POP DUP2 SWAP1 POP SWAP4 SWAP3 POP POP POP JUMP JUMPDEST PUSH32 0x4E487B7100000000000000000000000000000000000000000000000000000000 PUSH0 MSTORE PUSH1 0x41 PUSH1 0x4 MSTORE PUSH1 0x24 PUSH0 REVERT JUMPDEST PUSH32 0x4E487B7100000000000000000000000000000000000000000000000000000000 PUSH0 MSTORE PUSH1 0x22 PUSH1 0x4 MSTORE PUSH1 0x24 PUSH0 REVERT JUMPDEST PUSH0 PUSH1 0x2 DUP3 DIV SWAP1 POP PUSH1 0x1 DUP3 AND DUP1 PUSH2 0x455 JUMPI PUSH1 0x7F DUP3 AND SWAP2 POP JUMPDEST PUSH1 0x20 DUP3 LT DUP2 SUB PUSH2 0x468 JUMPI PUSH2 0x467 PUSH2 0x411 JUMP JUMPDEST JUMPDEST POP SWAP2 SWAP1 POP JUMP JUMPDEST PUSH0 DUP2 SWAP1 POP DUP2 PUSH0 MSTORE PUSH1 0x20 PUSH0 KECCAK256 SWAP1 POP SWAP2 SWAP1 POP JUMP JUMPDEST PUSH0 PUSH1 0x20 PUSH1 0x1F DUP4 ADD DIV SWAP1 POP SWAP2 SWAP1 POP JUMP JUMPDEST PUSH0 DUP3 DUP3 SHL SWAP1 POP SWAP3 SWAP2 POP POP JUMP JUMPDEST PUSH0 PUSH1 0x8 DUP4 MUL PUSH2 0x4CA PUSH32 0xFFFFFFFFFFFFFFFFFFFFFFFFFFFFFFFFFFFFFFFFFFFFFFFFFFFFFFFFFFFFFFFF DUP3 PUSH2 0x48F JUMP JUMPDEST PUSH2 0x4D4 DUP7 DUP4 PUSH2 0x48F JUMP JUMPDEST SWAP6 POP DUP1 NOT DUP5 AND SWAP4 POP DUP1 DUP7 AND DUP5 OR SWAP3 POP POP POP SWAP4 SWAP3 POP POP POP JUMP JUMPDEST PUSH0 DUP2 SWAP1 POP SWAP2 SWAP1 POP JUMP JUMPDEST PUSH0 DUP2 SWAP1 POP SWAP2 SWAP1 POP JUMP JUMPDEST PUSH0 PUSH2 0x518 PUSH2 0x513 PUSH2 0x50E DUP5 PUSH2 0x4EC JUMP JUMPDEST PUSH2 0x4F5 JUMP JUMPDEST PUSH2 0x4EC JUMP JUMPDEST SWAP1 POP SWAP2 SWAP1 POP JUMP JUMPDEST PUSH0 DUP2 SWAP1 POP SWAP2 SWAP1 POP JUMP JUMPDEST PUSH2 0x531 DUP4 PUSH2 0x4FE JUMP JUMPDEST PUSH2 0x545 PUSH2 0x53D DUP3 PUSH2 0x51F JUMP JUMPDEST DUP5 DUP5 SLOAD PUSH2 0x49B JUMP JUMPDEST DUP3 SSTORE POP POP POP POP JUMP JUMPDEST PUSH0 PUSH0 SWAP1 POP SWAP1 JUMP JUMPDEST PUSH2 0x55C PUSH2 0x54D JUMP JUMPDEST PUSH2 0x567 DUP2 DUP5 DUP5 PUSH2 0x528 JUMP JUMPDEST POP POP POP JUMP JUMPDEST JUMPDEST DUP2 DUP2 LT ISZERO PUSH2 0x58A JUMPI PUSH2 0x57F PUSH0 DUP3 PUSH2 0x554 JUMP JUMPDEST PUSH1 0x1 DUP2 ADD SWAP1 POP PUSH2 0x56D JUMP JUMPDEST POP POP JUMP JUMPDEST PUSH1 0x1F DUP3 GT ISZERO PUSH2 0x5CF JUMPI PUSH2 0x5A0 DUP2 PUSH2 0x46E JUMP JUMPDEST PUSH2 0x5A9 DUP5 PUSH2 0x480 JUMP JUMPDEST DUP2 ADD PUSH1 0x20 DUP6 LT ISZERO PUSH2 0x5B8 JUMPI DUP2 SWAP1 POP JUMPDEST PUSH2 0x5CC PUSH2 0x5C4 DUP6 PUSH2 0x480 JUMP JUMPDEST DUP4 ADD DUP3 PUSH2 0x56C JUMP JUMPDEST POP POP JUMPDEST POP POP POP JUMP JUMPDEST PUSH0 DUP3 DUP3 SHR SWAP1 POP SWAP3 SWAP2 POP POP JUMP JUMPDEST PUSH0 PUSH2 0x5EF PUSH0 NOT DUP5 PUSH1 0x8 MUL PUSH2 0x5D4 JUMP JUMPDEST NOT DUP1 DUP4 AND SWAP2 POP POP SWAP3 SWAP2 POP POP JUMP JUMPDEST PUSH0 PUSH2 0x607 DUP4 DUP4 PUSH2 0x5E0 JUMP JUMPDEST SWAP2 POP DUP3 PUSH1 0x2 MUL DUP3 OR SWAP1 POP SWAP3 SWAP2 POP POP JUMP JUMPDEST PUSH2 0x620 DUP3 PUSH2 0x2AB JUMP JUMPDEST PUSH8 0xFFFFFFFFFFFFFFFF DUP2 GT ISZERO PUSH2 0x639 JUMPI PUSH2 0x638 PUSH2 0x3E4 JUMP JUMPDEST JUMPDEST PUSH2 0x643 DUP3 SLOAD PUSH2 0x43E JUMP JUMPDEST PUSH2 0x64E DUP3 DUP3 DUP6 PUSH2 0x58E JUMP JUMPDEST PUSH0 PUSH1 0x20 SWAP1 POP PUSH1 0x1F DUP4 GT PUSH1 0x1 DUP2 EQ PUSH2 0x67F JUMPI PUSH0 DUP5 ISZERO PUSH2 0x66D JUMPI DUP3 DUP8 ADD MLOAD SWAP1 POP JUMPDEST PUSH2 0x677 DUP6 DUP3 PUSH2 0x5FC JUMP JUMPDEST DUP7 SSTORE POP PUSH2 0x6DE JUMP JUMPDEST PUSH1 0x1F NOT DUP5 AND PUSH2 0x68D DUP7 PUSH2 0x46E JUMP JUMPDEST PUSH0 JUMPDEST DUP3 DUP2 LT ISZERO PUSH2 0x6B4 JUMPI DUP5 DUP10 ADD MLOAD DUP3 SSTORE PUSH1 0x1 DUP3 ADD SWAP2 POP PUSH1 0x20 DUP6 ADD SWAP5 POP PUSH1 0x20 DUP2 ADD SWAP1 POP PUSH2 0x68F JUMP JUMPDEST DUP7 DUP4 LT ISZERO PUSH2 0x6D1 JUMPI DUP5 DUP10 ADD MLOAD PUSH2 0x6CD PUSH1 0x1F DUP10 AND DUP3 PUSH2 0x5E0 JUMP JUMPDEST DUP4 SSTORE POP JUMPDEST PUSH1 0x1 PUSH1 0x2 DUP9 MUL ADD DUP9 SSTORE POP POP POP JUMPDEST POP POP POP POP POP POP JUMP INVALID LOG2 PUSH5 0x6970667358 0x22 SLT KECCAK256 PUSH10 0xDE695D68CC4725376A69 MUL 0xBF EXTDELEGATECALL PUSH11 0xE58E6E6D81FC36512E6591 GAS ADD 0x24 0xD2 PUSH25 0xD064736F6C634300081E003300000000000000000000000000 "
		},
		"gasEstimates": {
			"creation": {
				"codeDepositCost": "364000",
				"executionCost": "397",
				"totalCost": "364397"
			},
			"external": {
				"Calldta(string)": "infinite",
				"ToyInbox()": "infinite",
				"cheapway(string)": "infinite"
			}
		},
		"methodIdentifiers": {
			"Calldta(string)": "ac36468c",
			"ToyInbox()": "c5822382",
			"cheapway(string)": "74a027a4"
		}
	},
	"abi": [
		{
			"inputs": [
				{
					"internalType": "string",
					"name": "newtoy",
					"type": "string"
				}
			],
			"name": "Calldta",
			"outputs": [],
			"stateMutability": "nonpayable",
			"type": "function"
		},
		{
			"inputs": [],
			"name": "ToyInbox",
			"outputs": [
				{
					"internalType": "string",
					"name": "",
					"type": "string"
				}
			],
			"stateMutability": "view",
			"type": "function"
		},
		{
			"inputs": [
				{
					"internalType": "string",
					"name": "toyname",
					"type": "string"
				}
			],
			"name": "cheapway",
			"outputs": [
				{
					"internalType": "string",
					"name": "",
					"type": "string"
				}
			],
			"stateMutability": "pure",
			"type": "function"
		}
	]
}