{
	"data": {
		"bytecode": {
			"linkReferences": {},
			"object": "6080604052348015600e575f5ffd5b50335f5f6101000a81548173ffffffffffffffffffffffffffffffffffffffff021916908373ffffffffffffffffffffffffffffffffffffffff1602179055506113b58061005b5f395ff3fe608060405260043610610085575f3560e01c8063d0e30db011610058578063d0e30db01461012d578063ead8be9a14610137578063ec28eb4514610173578063f9bfaa7d1461019b578063fc7e286d146101c357610085565b80630bdad60314610089578063146af82b146100b1578063662e4ee4146100db5780638da5cb5b14610103575b5f5ffd5b348015610094575f5ffd5b506100af60048036038101906100aa9190610a03565b6101ff565b005b3480156100bc575f5ffd5b506100c5610342565b6040516100d29190610a3d565b60405180910390f35b3480156100e6575f5ffd5b5061010160048036038101906100fc9190610ab0565b61034e565b005b34801561010e575f5ffd5b50610117610594565b6040516101249190610aea565b60405180910390f35b6101356105b8565b005b348015610142575f5ffd5b5061015d60048036038101906101589190610a03565b61064f565b60405161016a9190610b73565b60405180910390f35b34801561017e575f5ffd5b5061019960048036038101906101949190610bf4565b610742565b005b3480156101a6575f5ffd5b506101c160048036038101906101bc9190610c7a565b6107da565b005b3480156101ce575f5ffd5b506101e960048036038101906101e49190610ab0565b61095b565b6040516101f69190610a3d565b60405180910390f35b5f5f9054906101000a900473ffffffffffffffffffffffffffffffffffffffff1673ffffffffffffffffffffffffffffffffffffffff163373ffffffffffffffffffffffffffffffffffffffff161461028d576040517f08c379a000000000000000000000000000000000000000000000000000000000815260040161028490610cef565b60405180910390fd5b60018054905081106102d4576040517f08c379a00000000000000000000000000000000000000000000000000000000081526004016102cb90610d57565b60405180910390fd5b600181815481106102e8576102e7610d75565b5b905f5260205f20015f6102fb9190610970565b803373ffffffffffffffffffffffffffffffffffffffff167fab9e4514a74f5b1933f08ac8f9833934a73b0bff8a2707cb83ad0aeabe63d22460405160405180910390a350565b5f600180549050905090565b5f5f9054906101000a900473ffffffffffffffffffffffffffffffffffffffff1673ffffffffffffffffffffffffffffffffffffffff163373ffffffffffffffffffffffffffffffffffffffff16146103dc576040517f08c379a00000000000000000000000000000000000000000000000000000000081526004016103d390610cef565b60405180910390fd5b5f73ffffffffffffffffffffffffffffffffffffffff168173ffffffffffffffffffffffffffffffffffffffff160361044a576040517f08c379a000000000000000000000000000000000000000000000000000000000815260040161044190610dec565b60405180910390fd5b5f5f9054906101000a900473ffffffffffffffffffffffffffffffffffffffff1673ffffffffffffffffffffffffffffffffffffffff168173ffffffffffffffffffffffffffffffffffffffff16036104d8576040517f08c379a00000000000000000000000000000000000000000000000000000000081526004016104cf90610e54565b60405180910390fd5b8073ffffffffffffffffffffffffffffffffffffffff165f5f9054906101000a900473ffffffffffffffffffffffffffffffffffffffff1673ffffffffffffffffffffffffffffffffffffffff167fb532073b38c83145e3e5135377a08bf9aab55bc0fd7c1179cd4fb995d2a5159c60405160405180910390a3805f5f6101000a81548173ffffffffffffffffffffffffffffffffffffffff021916908373ffffffffffffffffffffffffffffffffffffffff16021790555050565b5f5f9054906101000a900473ffffffffffffffffffffffffffffffffffffffff1681565b5f34116105fa576040517f08c379a00000000000000000000000000000000000000000000000000000000081526004016105f190610ebc565b60405180910390fd5b3460025f3373ffffffffffffffffffffffffffffffffffffffff1673ffffffffffffffffffffffffffffffffffffffff1681526020019081526020015f205f8282546106469190610f07565b92505081905550565b60606001805490508210610698576040517f08c379a000000000000000000000000000000000000000000000000000000000815260040161068f90610d57565b60405180910390fd5b600182815481106106ac576106ab610d75565b5b905f5260205f200180546106bf90610f67565b80601f01602080910402602001604051908101604052809291908181526020018280546106eb90610f67565b80156107365780601f1061070d57610100808354040283529160200191610736565b820191905f5260205f20905b81548152906001019060200180831161071957829003601f168201915b50505050509050919050565b6001828290918060018154018082558091505060019003905f5260205f20015f90919290919290919290919250918261077c92919061116e565b505f6001808054905061078f919061123b565b9050803373ffffffffffffffffffffffffffffffffffffffff167fd6d34683489300a00d516429b71a473756d3c48dfad4593983395603979391a060405160405180910390a3505050565b5f5f9054906101000a900473ffffffffffffffffffffffffffffffffffffffff1673ffffffffffffffffffffffffffffffffffffffff163373ffffffffffffffffffffffffffffffffffffffff1614610868576040517f08c379a000000000000000000000000000000000000000000000000000000000815260040161085f90610cef565b60405180910390fd5b5f4790505f81116108ae576040517f08c379a00000000000000000000000000000000000000000000000000000000081526004016108a5906112b8565b60405180910390fd5b5f8273ffffffffffffffffffffffffffffffffffffffff16826040516108d390611303565b5f6040518083038185875af1925050503d805f811461090d576040519150601f19603f3d011682016040523d82523d5f602084013e610912565b606091505b5050905080610956576040517f08c379a000000000000000000000000000000000000000000000000000000000815260040161094d90611361565b60405180910390fd5b505050565b6002602052805f5260405f205f915090505481565b50805461097c90610f67565b5f825580601f1061098d57506109aa565b601f0160209004905f5260205f20908101906109a991906109ad565b5b50565b5b808211156109c4575f815f9055506001016109ae565b5090565b5f5ffd5b5f5ffd5b5f819050919050565b6109e2816109d0565b81146109ec575f5ffd5b50565b5f813590506109fd816109d9565b92915050565b5f60208284031215610a1857610a176109c8565b5b5f610a25848285016109ef565b91505092915050565b610a37816109d0565b82525050565b5f602082019050610a505f830184610a2e565b92915050565b5f73ffffffffffffffffffffffffffffffffffffffff82169050919050565b5f610a7f82610a56565b9050919050565b610a8f81610a75565b8114610a99575f5ffd5b50565b5f81359050610aaa81610a86565b92915050565b5f60208284031215610ac557610ac46109c8565b5b5f610ad284828501610a9c565b91505092915050565b610ae481610a75565b82525050565b5f602082019050610afd5f830184610adb565b92915050565b5f81519050919050565b5f82825260208201905092915050565b8281835e5f83830152505050565b5f601f19601f8301169050919050565b5f610b4582610b03565b610b4f8185610b0d565b9350610b5f818560208601610b1d565b610b6881610b2b565b840191505092915050565b5f6020820190508181035f830152610b8b8184610b3b565b905092915050565b5f5ffd5b5f5ffd5b5f5ffd5b5f5f83601f840112610bb457610bb3610b93565b5b8235905067ffffffffffffffff811115610bd157610bd0610b97565b5b602083019150836001820283011115610bed57610bec610b9b565b5b9250929050565b5f5f60208385031215610c0a57610c096109c8565b5b5f83013567ffffffffffffffff811115610c2757610c266109cc565b5b610c3385828601610b9f565b92509250509250929050565b5f610c4982610a56565b9050919050565b610c5981610c3f565b8114610c63575f5ffd5b50565b5f81359050610c7481610c50565b92915050565b5f60208284031215610c8f57610c8e6109c8565b5b5f610c9c84828501610c66565b91505092915050565b7f4e6f74204f776e657200000000000000000000000000000000000000000000005f82015250565b5f610cd9600983610b0d565b9150610ce482610ca5565b602082019050919050565b5f6020820190508181035f830152610d0681610ccd565b9050919050565b7f496e646578204f4f4200000000000000000000000000000000000000000000005f82015250565b5f610d41600983610b0d565b9150610d4c82610d0d565b602082019050919050565b5f6020820190508181035f830152610d6e81610d35565b9050919050565b7f4e487b71000000000000000000000000000000000000000000000000000000005f52603260045260245ffd5b7f5a65726f204164647265737300000000000000000000000000000000000000005f82015250565b5f610dd6600c83610b0d565b9150610de182610da2565b602082019050919050565b5f6020820190508181035f830152610e0381610dca565b9050919050565b7f53616d65206f776e6572000000000000000000000000000000000000000000005f82015250565b5f610e3e600a83610b0d565b9150610e4982610e0a565b602082019050919050565b5f6020820190508181035f830152610e6b81610e32565b9050919050565b7f5a65726f000000000000000000000000000000000000000000000000000000005f82015250565b5f610ea6600483610b0d565b9150610eb182610e72565b602082019050919050565b5f6020820190508181035f830152610ed381610e9a565b9050919050565b7f4e487b71000000000000000000000000000000000000000000000000000000005f52601160045260245ffd5b5f610f11826109d0565b9150610f1c836109d0565b9250828201905080821115610f3457610f33610eda565b5b92915050565b7f4e487b71000000000000000000000000000000000000000000000000000000005f52602260045260245ffd5b5f6002820490506001821680610f7e57607f821691505b602082108103610f9157610f90610f3a565b5b50919050565b5f82905092915050565b7f4e487b71000000000000000000000000000000000000000000000000000000005f52604160045260245ffd5b5f819050815f5260205f209050919050565b5f6020601f8301049050919050565b5f82821b905092915050565b5f6008830261102a7fffffffffffffffffffffffffffffffffffffffffffffffffffffffffffffffff82610fef565b6110348683610fef565b95508019841693508086168417925050509392505050565b5f819050919050565b5f61106f61106a611065846109d0565b61104c565b6109d0565b9050919050565b5f819050919050565b61108883611055565b61109c61109482611076565b848454610ffb565b825550505050565b5f5f905090565b6110b36110a4565b6110be81848461107f565b505050565b5b818110156110e1576110d65f826110ab565b6001810190506110c4565b5050565b601f821115611126576110f781610fce565b61110084610fe0565b8101602085101561110f578190505b61112361111b85610fe0565b8301826110c3565b50505b505050565b5f82821c905092915050565b5f6111465f198460080261112b565b1980831691505092915050565b5f61115e8383611137565b9150826002028217905092915050565b6111788383610f97565b67ffffffffffffffff81111561119157611190610fa1565b5b61119b8254610f67565b6111a68282856110e5565b5f601f8311600181146111d3575f84156111c1578287013590505b6111cb8582611153565b865550611232565b601f1984166111e186610fce565b5f5b82811015611208578489013582556001820191506020850194506020810190506111e3565b868310156112255784890135611221601f891682611137565b8355505b6001600288020188555050505b50505050505050565b5f611245826109d0565b9150611250836109d0565b925082820390508181111561126857611267610eda565b5b92915050565b7f5a65726f2042616c616e636500000000000000000000000000000000000000005f82015250565b5f6112a2600c83610b0d565b91506112ad8261126e565b602082019050919050565b5f6020820190508181035f8301526112cf81611296565b9050919050565b5f81905092915050565b50565b5f6112ee5f836112d6565b91506112f9826112e0565b5f82019050919050565b5f61130d826112e3565b9150819050919050565b7f5472616e73666572204661696c656400000000000000000000000000000000005f82015250565b5f61134b600f83610b0d565b915061135682611317565b602082019050919050565b5f6020820190508181035f8301526113788161133f565b905091905056fea264697066735822122019c5ba5482ee87c6b49b5be3c697f812ce0c89a775b9e6870ff04c084b959f8964736f6c634300081e0033",
			"opcodes": "PUSH1 0x80 PUSH1 0x40 MSTORE CALLVALUE DUP1 ISZERO PUSH1 0xE JUMPI PUSH0 PUSH0 REVERT JUMPDEST POP CALLER PUSH0 PUSH0 PUSH2 0x100 EXP DUP2 SLOAD DUP2 PUSH20 0xFFFFFFFFFFFFFFFFFFFFFFFFFFFFFFFFFFFFFFFF MUL NOT AND SWAP1 DUP4 PUSH20 0xFFFFFFFFFFFFFFFFFFFFFFFFFFFFFFFFFFFFFFFF AND MUL OR SWAP1 SSTORE POP PUSH2 0x13B5 DUP1 PUSH2 0x5B PUSH0 CODECOPY PUSH0 RETURN INVALID PUSH1 0x80 PUSH1 0x40 MSTORE PUSH1 0x4 CALLDATASIZE LT PUSH2 0x85 JUMPI PUSH0 CALLDATALOAD PUSH1 0xE0 SHR DUP1 PUSH4 0xD0E30DB0 GT PUSH2 0x58 JUMPI DUP1 PUSH4 0xD0E30DB0 EQ PUSH2 0x12D JUMPI DUP1 PUSH4 0xEAD8BE9A EQ PUSH2 0x137 JUMPI DUP1 PUSH4 0xEC28EB45 EQ PUSH2 0x173 JUMPI DUP1 PUSH4 0xF9BFAA7D EQ PUSH2 0x19B JUMPI DUP1 PUSH4 0xFC7E286D EQ PUSH2 0x1C3 JUMPI PUSH2 0x85 JUMP JUMPDEST DUP1 PUSH4 0xBDAD603 EQ PUSH2 0x89 JUMPI DUP1 PUSH4 0x146AF82B EQ PUSH2 0xB1 JUMPI DUP1 PUSH4 0x662E4EE4 EQ PUSH2 0xDB JUMPI DUP1 PUSH4 0x8DA5CB5B EQ PUSH2 0x103 JUMPI JUMPDEST PUSH0 PUSH0 REVERT JUMPDEST CALLVALUE DUP1 ISZERO PUSH2 0x94 JUMPI PUSH0 PUSH0 REVERT JUMPDEST POP PUSH2 0xAF PUSH1 0x4 DUP1 CALLDATASIZE SUB DUP2 ADD SWAP1 PUSH2 0xAA SWAP2 SWAP1 PUSH2 0xA03 JUMP JUMPDEST PUSH2 0x1FF JUMP JUMPDEST STOP JUMPDEST CALLVALUE DUP1 ISZERO PUSH2 0xBC JUMPI PUSH0 PUSH0 REVERT JUMPDEST POP PUSH2 0xC5 PUSH2 0x342 JUMP JUMPDEST PUSH1 0x40 MLOAD PUSH2 0xD2 SWAP2 SWAP1 PUSH2 0xA3D JUMP JUMPDEST PUSH1 0x40 MLOAD DUP1 SWAP2 SUB SWAP1 RETURN JUMPDEST CALLVALUE DUP1 ISZERO PUSH2 0xE6 JUMPI PUSH0 PUSH0 REVERT JUMPDEST POP PUSH2 0x101 PUSH1 0x4 DUP1 CALLDATASIZE SUB DUP2 ADD SWAP1 PUSH2 0xFC SWAP2 SWAP1 PUSH2 0xAB0 JUMP JUMPDEST PUSH2 0x34E JUMP JUMPDEST STOP JUMPDEST CALLVALUE DUP1 ISZERO PUSH2 0x10E JUMPI PUSH0 PUSH0 REVERT JUMPDEST POP PUSH2 0x117 PUSH2 0x594 JUMP JUMPDEST PUSH1 0x40 MLOAD PUSH2 0x124 SWAP2 SWAP1 PUSH2 0xAEA JUMP JUMPDEST PUSH1 0x40 MLOAD DUP1 SWAP2 SUB SWAP1 RETURN JUMPDEST PUSH2 0x135 PUSH2 0x5B8 JUMP JUMPDEST STOP JUMPDEST CALLVALUE DUP1 ISZERO PUSH2 0x142 JUMPI PUSH0 PUSH0 REVERT JUMPDEST POP PUSH2 0x15D PUSH1 0x4 DUP1 CALLDATASIZE SUB DUP2 ADD SWAP1 PUSH2 0x158 SWAP2 SWAP1 PUSH2 0xA03 JUMP JUMPDEST PUSH2 0x64F JUMP JUMPDEST PUSH1 0x40 MLOAD PUSH2 0x16A SWAP2 SWAP1 PUSH2 0xB73 JUMP JUMPDEST PUSH1 0x40 MLOAD DUP1 SWAP2 SUB SWAP1 RETURN JUMPDEST CALLVALUE DUP1 ISZERO PUSH2 0x17E JUMPI PUSH0 PUSH0 REVERT JUMPDEST POP PUSH2 0x199 PUSH1 0x4 DUP1 CALLDATASIZE SUB DUP2 ADD SWAP1 PUSH2 0x194 SWAP2 SWAP1 PUSH2 0xBF4 JUMP JUMPDEST PUSH2 0x742 JUMP JUMPDEST STOP JUMPDEST CALLVALUE DUP1 ISZERO PUSH2 0x1A6 JUMPI PUSH0 PUSH0 REVERT JUMPDEST POP PUSH2 0x1C1 PUSH1 0x4 DUP1 CALLDATASIZE SUB DUP2 ADD SWAP1 PUSH2 0x1BC SWAP2 SWAP1 PUSH2 0xC7A JUMP JUMPDEST PUSH2 0x7DA JUMP JUMPDEST STOP JUMPDEST CALLVALUE DUP1 ISZERO PUSH2 0x1CE JUMPI PUSH0 PUSH0 REVERT JUMPDEST POP PUSH2 0x1E9 PUSH1 0x4 DUP1 CALLDATASIZE SUB DUP2 ADD SWAP1 PUSH2 0x1E4 SWAP2 SWAP1 PUSH2 0xAB0 JUMP JUMPDEST PUSH2 0x95B JUMP JUMPDEST PUSH1 0x40 MLOAD PUSH2 0x1F6 SWAP2 SWAP1 PUSH2 0xA3D JUMP JUMPDEST PUSH1 0x40 MLOAD DUP1 SWAP2 SUB SWAP1 RETURN JUMPDEST PUSH0 PUSH0 SWAP1 SLOAD SWAP1 PUSH2 0x100 EXP SWAP1 DIV PUSH20 0xFFFFFFFFFFFFFFFFFFFFFFFFFFFFFFFFFFFFFFFF AND PUSH20 0xFFFFFFFFFFFFFFFFFFFFFFFFFFFFFFFFFFFFFFFF AND CALLER PUSH20 0xFFFFFFFFFFFFFFFFFFFFFFFFFFFFFFFFFFFFFFFF AND EQ PUSH2 0x28D JUMPI PUSH1 0x40 MLOAD PUSH32 0x8C379A000000000000000000000000000000000000000000000000000000000 DUP2 MSTORE PUSH1 0x4 ADD PUSH2 0x284 SWAP1 PUSH2 0xCEF JUMP JUMPDEST PUSH1 0x40 MLOAD DUP1 SWAP2 SUB SWAP1 REVERT JUMPDEST PUSH1 0x1 DUP1 SLOAD SWAP1 POP DUP2 LT PUSH2 0x2D4 JUMPI PUSH1 0x40 MLOAD PUSH32 0x8C379A000000000000000000000000000000000000000000000000000000000 DUP2 MSTORE PUSH1 0x4 ADD PUSH2 0x2CB SWAP1 PUSH2 0xD57 JUMP JUMPDEST PUSH1 0x40 MLOAD DUP1 SWAP2 SUB SWAP1 REVERT JUMPDEST PUSH1 0x1 DUP2 DUP2 SLOAD DUP2 LT PUSH2 0x2E8 JUMPI PUSH2 0x2E7 PUSH2 0xD75 JUMP JUMPDEST JUMPDEST SWAP1 PUSH0 MSTORE PUSH1 0x20 PUSH0 KECCAK256 ADD PUSH0 PUSH2 0x2FB SWAP2 SWAP1 PUSH2 0x970 JUMP JUMPDEST DUP1 CALLER PUSH20 0xFFFFFFFFFFFFFFFFFFFFFFFFFFFFFFFFFFFFFFFF AND PUSH32 0xAB9E4514A74F5B1933F08AC8F9833934A73B0BFF8A2707CB83AD0AEABE63D224 PUSH1 0x40 MLOAD PUSH1 0x40 MLOAD DUP1 SWAP2 SUB SWAP1 LOG3 POP JUMP JUMPDEST PUSH0 PUSH1 0x1 DUP1 SLOAD SWAP1 POP SWAP1 POP SWAP1 JUMP JUMPDEST PUSH0 PUSH0 SWAP1 SLOAD SWAP1 PUSH2 0x100 EXP SWAP1 DIV PUSH20 0xFFFFFFFFFFFFFFFFFFFFFFFFFFFFFFFFFFFFFFFF AND PUSH20 0xFFFFFFFFFFFFFFFFFFFFFFFFFFFFFFFFFFFFFFFF AND CALLER PUSH20 0xFFFFFFFFFFFFFFFFFFFFFFFFFFFFFFFFFFFFFFFF AND EQ PUSH2 0x3DC JUMPI PUSH1 0x40 MLOAD PUSH32 0x8C379A000000000000000000000000000000000000000000000000000000000 DUP2 MSTORE PUSH1 0x4 ADD PUSH2 0x3D3 SWAP1 PUSH2 0xCEF JUMP JUMPDEST PUSH1 0x40 MLOAD DUP1 SWAP2 SUB SWAP1 REVERT JUMPDEST PUSH0 PUSH20 0xFFFFFFFFFFFFFFFFFFFFFFFFFFFFFFFFFFFFFFFF AND DUP2 PUSH20 0xFFFFFFFFFFFFFFFFFFFFFFFFFFFFFFFFFFFFFFFF AND SUB PUSH2 0x44A JUMPI PUSH1 0x40 MLOAD PUSH32 0x8C379A000000000000000000000000000000000000000000000000000000000 DUP2 MSTORE PUSH1 0x4 ADD PUSH2 0x441 SWAP1 PUSH2 0xDEC JUMP JUMPDEST PUSH1 0x40 MLOAD DUP1 SWAP2 SUB SWAP1 REVERT JUMPDEST PUSH0 PUSH0 SWAP1 SLOAD SWAP1 PUSH2 0x100 EXP SWAP1 DIV PUSH20 0xFFFFFFFFFFFFFFFFFFFFFFFFFFFFFFFFFFFFFFFF AND PUSH20 0xFFFFFFFFFFFFFFFFFFFFFFFFFFFFFFFFFFFFFFFF AND DUP2 PUSH20 0xFFFFFFFFFFFFFFFFFFFFFFFFFFFFFFFFFFFFFFFF AND SUB PUSH2 0x4D8 JUMPI PUSH1 0x40 MLOAD PUSH32 0x8C379A000000000000000000000000000000000000000000000000000000000 DUP2 MSTORE PUSH1 0x4 ADD PUSH2 0x4CF SWAP1 PUSH2 0xE54 JUMP JUMPDEST PUSH1 0x40 MLOAD DUP1 SWAP2 SUB SWAP1 REVERT JUMPDEST DUP1 PUSH20 0xFFFFFFFFFFFFFFFFFFFFFFFFFFFFFFFFFFFFFFFF AND PUSH0 PUSH0 SWAP1 SLOAD SWAP1 PUSH2 0x100 EXP SWAP1 DIV PUSH20 0xFFFFFFFFFFFFFFFFFFFFFFFFFFFFFFFFFFFFFFFF AND PUSH20 0xFFFFFFFFFFFFFFFFFFFFFFFFFFFFFFFFFFFFFFFF AND PUSH32 0xB532073B38C83145E3E5135377A08BF9AAB55BC0FD7C1179CD4FB995D2A5159C PUSH1 0x40 MLOAD PUSH1 0x40 MLOAD DUP1 SWAP2 SUB SWAP1 LOG3 DUP1 PUSH0 PUSH0 PUSH2 0x100 EXP DUP2 SLOAD DUP2 PUSH20 0xFFFFFFFFFFFFFFFFFFFFFFFFFFFFFFFFFFFFFFFF MUL NOT AND SWAP1 DUP4 PUSH20 0xFFFFFFFFFFFFFFFFFFFFFFFFFFFFFFFFFFFFFFFF AND MUL OR SWAP1 SSTORE POP POP JUMP JUMPDEST PUSH0 PUSH0 SWAP1 SLOAD SWAP1 PUSH2 0x100 EXP SWAP1 DIV PUSH20 0xFFFFFFFFFFFFFFFFFFFFFFFFFFFFFFFFFFFFFFFF AND DUP2 JUMP JUMPDEST PUSH0 CALLVALUE GT PUSH2 0x5FA JUMPI PUSH1 0x40 MLOAD PUSH32 0x8C379A000000000000000000000000000000000000000000000000000000000 DUP2 MSTORE PUSH1 0x4 ADD PUSH2 0x5F1 SWAP1 PUSH2 0xEBC JUMP JUMPDEST PUSH1 0x40 MLOAD DUP1 SWAP2 SUB SWAP1 REVERT JUMPDEST CALLVALUE PUSH1 0x2 PUSH0 CALLER PUSH20 0xFFFFFFFFFFFFFFFFFFFFFFFFFFFFFFFFFFFFFFFF AND PUSH20 0xFFFFFFFFFFFFFFFFFFFFFFFFFFFFFFFFFFFFFFFF AND DUP2 MSTORE PUSH1 0x20 ADD SWAP1 DUP2 MSTORE PUSH1 0x20 ADD PUSH0 KECCAK256 PUSH0 DUP3 DUP3 SLOAD PUSH2 0x646 SWAP2 SWAP1 PUSH2 0xF07 JUMP JUMPDEST SWAP3 POP POP DUP2 SWAP1 SSTORE POP JUMP JUMPDEST PUSH1 0x60 PUSH1 0x1 DUP1 SLOAD SWAP1 POP DUP3 LT PUSH2 0x698 JUMPI PUSH1 0x40 MLOAD PUSH32 0x8C379A000000000000000000000000000000000000000000000000000000000 DUP2 MSTORE PUSH1 0x4 ADD PUSH2 0x68F SWAP1 PUSH2 0xD57 JUMP JUMPDEST PUSH1 0x40 MLOAD DUP1 SWAP2 SUB SWAP1 REVERT JUMPDEST PUSH1 0x1 DUP3 DUP2 SLOAD DUP2 LT PUSH2 0x6AC JUMPI PUSH2 0x6AB PUSH2 0xD75 JUMP JUMPDEST JUMPDEST SWAP1 PUSH0 MSTORE PUSH1 0x20 PUSH0 KECCAK256 ADD DUP1 SLOAD PUSH2 0x6BF SWAP1 PUSH2 0xF67 JUMP JUMPDEST DUP1 PUSH1 0x1F ADD PUSH1 0x20 DUP1 SWAP2 DIV MUL PUSH1 0x20 ADD PUSH1 0x40 MLOAD SWAP1 DUP2 ADD PUSH1 0x40 MSTORE DUP1 SWAP3 SWAP2 SWAP1 DUP2 DUP2 MSTORE PUSH1 0x20 ADD DUP3 DUP1 SLOAD PUSH2 0x6EB SWAP1 PUSH2 0xF67 JUMP JUMPDEST DUP1 ISZERO PUSH2 0x736 JUMPI DUP1 PUSH1 0x1F LT PUSH2 0x70D JUMPI PUSH2 0x100 DUP1 DUP4 SLOAD DIV MUL DUP4 MSTORE SWAP2 PUSH1 0x20 ADD SWAP2 PUSH2 0x736 JUMP JUMPDEST DUP3 ADD SWAP2 SWAP1 PUSH0 MSTORE PUSH1 0x20 PUSH0 KECCAK256 SWAP1 JUMPDEST DUP2 SLOAD DUP2 MSTORE SWAP1 PUSH1 0x1 ADD SWAP1 PUSH1 0x20 ADD DUP1 DUP4 GT PUSH2 0x719 JUMPI DUP3 SWAP1 SUB PUSH1 0x1F AND DUP3 ADD SWAP2 JUMPDEST POP POP POP POP POP SWAP1 POP SWAP2 SWAP1 POP JUMP JUMPDEST PUSH1 0x1 DUP3 DUP3 SWAP1 SWAP2 DUP1 PUSH1 0x1 DUP2 SLOAD ADD DUP1 DUP3 SSTORE DUP1 SWAP2 POP POP PUSH1 0x1 SWAP1 SUB SWAP1 PUSH0 MSTORE PUSH1 0x20 PUSH0 KECCAK256 ADD PUSH0 SWAP1 SWAP2 SWAP3 SWAP1 SWAP2 SWAP3 SWAP1 SWAP2 SWAP3 SWAP1 SWAP2 SWAP3 POP SWAP2 DUP3 PUSH2 0x77C SWAP3 SWAP2 SWAP1 PUSH2 0x116E JUMP JUMPDEST POP PUSH0 PUSH1 0x1 DUP1 DUP1 SLOAD SWAP1 POP PUSH2 0x78F SWAP2 SWAP1 PUSH2 0x123B JUMP JUMPDEST SWAP1 POP DUP1 CALLER PUSH20 0xFFFFFFFFFFFFFFFFFFFFFFFFFFFFFFFFFFFFFFFF AND PUSH32 0xD6D34683489300A00D516429B71A473756D3C48DFAD4593983395603979391A0 PUSH1 0x40 MLOAD PUSH1 0x40 MLOAD DUP1 SWAP2 SUB SWAP1 LOG3 POP POP POP JUMP JUMPDEST PUSH0 PUSH0 SWAP1 SLOAD SWAP1 PUSH2 0x100 EXP SWAP1 DIV PUSH20 0xFFFFFFFFFFFFFFFFFFFFFFFFFFFFFFFFFFFFFFFF AND PUSH20 0xFFFFFFFFFFFFFFFFFFFFFFFFFFFFFFFFFFFFFFFF AND CALLER PUSH20 0xFFFFFFFFFFFFFFFFFFFFFFFFFFFFFFFFFFFFFFFF AND EQ PUSH2 0x868 JUMPI PUSH1 0x40 MLOAD PUSH32 0x8C379A000000000000000000000000000000000000000000000000000000000 DUP2 MSTORE PUSH1 0x4 ADD PUSH2 0x85F SWAP1 PUSH2 0xCEF JUMP JUMPDEST PUSH1 0x40 MLOAD DUP1 SWAP2 SUB SWAP1 REVERT JUMPDEST PUSH0 SELFBALANCE SWAP1 POP PUSH0 DUP2 GT PUSH2 0x8AE JUMPI PUSH1 0x40 MLOAD PUSH32 0x8C379A000000000000000000000000000000000000000000000000000000000 DUP2 MSTORE PUSH1 0x4 ADD PUSH2 0x8A5 SWAP1 PUSH2 0x12B8 JUMP JUMPDEST PUSH1 0x40 MLOAD DUP1 SWAP2 SUB SWAP1 REVERT JUMPDEST PUSH0 DUP3 PUSH20 0xFFFFFFFFFFFFFFFFFFFFFFFFFFFFFFFFFFFFFFFF AND DUP3 PUSH1 0x40 MLOAD PUSH2 0x8D3 SWAP1 PUSH2 0x1303 JUMP JUMPDEST PUSH0 PUSH1 0x40 MLOAD DUP1 DUP4 SUB DUP2 DUP6 DUP8 GAS CALL SWAP3 POP POP POP RETURNDATASIZE DUP1 PUSH0 DUP2 EQ PUSH2 0x90D JUMPI PUSH1 0x40 MLOAD SWAP2 POP PUSH1 0x1F NOT PUSH1 0x3F RETURNDATASIZE ADD AND DUP3 ADD PUSH1 0x40 MSTORE RETURNDATASIZE DUP3 MSTORE RETURNDATASIZE PUSH0 PUSH1 0x20 DUP5 ADD RETURNDATACOPY PUSH2 0x912 JUMP JUMPDEST PUSH1 0x60 SWAP2 POP JUMPDEST POP POP SWAP1 POP DUP1 PUSH2 0x956 JUMPI PUSH1 0x40 MLOAD PUSH32 0x8C379A000000000000000000000000000000000000000000000000000000000 DUP2 MSTORE PUSH1 0x4 ADD PUSH2 0x94D SWAP1 PUSH2 0x1361 JUMP JUMPDEST PUSH1 0x40 MLOAD DUP1 SWAP2 SUB SWAP1 REVERT JUMPDEST POP POP POP JUMP JUMPDEST PUSH1 0x2 PUSH1 0x20 MSTORE DUP1 PUSH0 MSTORE PUSH1 0x40 PUSH0 KECCAK256 PUSH0 SWAP2 POP SWAP1 POP SLOAD DUP2 JUMP JUMPDEST POP DUP1 SLOAD PUSH2 0x97C SWAP1 PUSH2 0xF67 JUMP JUMPDEST PUSH0 DUP3 SSTORE DUP1 PUSH1 0x1F LT PUSH2 0x98D JUMPI POP PUSH2 0x9AA JUMP JUMPDEST PUSH1 0x1F ADD PUSH1 0x20 SWAP1 DIV SWAP1 PUSH0 MSTORE PUSH1 0x20 PUSH0 KECCAK256 SWAP1 DUP2 ADD SWAP1 PUSH2 0x9A9 SWAP2 SWAP1 PUSH2 0x9AD JUMP JUMPDEST JUMPDEST POP JUMP JUMPDEST JUMPDEST DUP1 DUP3 GT ISZERO PUSH2 0x9C4 JUMPI PUSH0 DUP2 PUSH0 SWAP1 SSTORE POP PUSH1 0x1 ADD PUSH2 0x9AE JUMP JUMPDEST POP SWAP1 JUMP JUMPDEST PUSH0 PUSH0 REVERT JUMPDEST PUSH0 PUSH0 REVERT JUMPDEST PUSH0 DUP2 SWAP1 POP SWAP2 SWAP1 POP JUMP JUMPDEST PUSH2 0x9E2 DUP2 PUSH2 0x9D0 JUMP JUMPDEST DUP2 EQ PUSH2 0x9EC JUMPI PUSH0 PUSH0 REVERT JUMPDEST POP JUMP JUMPDEST PUSH0 DUP2 CALLDATALOAD SWAP1 POP PUSH2 0x9FD DUP2 PUSH2 0x9D9 JUMP JUMPDEST SWAP3 SWAP2 POP POP JUMP JUMPDEST PUSH0 PUSH1 0x20 DUP3 DUP5 SUB SLT ISZERO PUSH2 0xA18 JUMPI PUSH2 0xA17 PUSH2 0x9C8 JUMP JUMPDEST JUMPDEST PUSH0 PUSH2 0xA25 DUP5 DUP3 DUP6 ADD PUSH2 0x9EF JUMP JUMPDEST SWAP2 POP POP SWAP3 SWAP2 POP POP JUMP JUMPDEST PUSH2 0xA37 DUP2 PUSH2 0x9D0 JUMP JUMPDEST DUP3 MSTORE POP POP JUMP JUMPDEST PUSH0 PUSH1 0x20 DUP3 ADD SWAP1 POP PUSH2 0xA50 PUSH0 DUP4 ADD DUP5 PUSH2 0xA2E JUMP JUMPDEST SWAP3 SWAP2 POP POP JUMP JUMPDEST PUSH0 PUSH20 0xFFFFFFFFFFFFFFFFFFFFFFFFFFFFFFFFFFFFFFFF DUP3 AND SWAP1 POP SWAP2 SWAP1 POP JUMP JUMPDEST PUSH0 PUSH2 0xA7F DUP3 PUSH2 0xA56 JUMP JUMPDEST SWAP1 POP SWAP2 SWAP1 POP JUMP JUMPDEST PUSH2 0xA8F DUP2 PUSH2 0xA75 JUMP JUMPDEST DUP2 EQ PUSH2 0xA99 JUMPI PUSH0 PUSH0 REVERT JUMPDEST POP JUMP JUMPDEST PUSH0 DUP2 CALLDATALOAD SWAP1 POP PUSH2 0xAAA DUP2 PUSH2 0xA86 JUMP JUMPDEST SWAP3 SWAP2 POP POP JUMP JUMPDEST PUSH0 PUSH1 0x20 DUP3 DUP5 SUB SLT ISZERO PUSH2 0xAC5 JUMPI PUSH2 0xAC4 PUSH2 0x9C8 JUMP JUMPDEST JUMPDEST PUSH0 PUSH2 0xAD2 DUP5 DUP3 DUP6 ADD PUSH2 0xA9C JUMP JUMPDEST SWAP2 POP POP SWAP3 SWAP2 POP POP JUMP JUMPDEST PUSH2 0xAE4 DUP2 PUSH2 0xA75 JUMP JUMPDEST DUP3 MSTORE POP POP JUMP JUMPDEST PUSH0 PUSH1 0x20 DUP3 ADD SWAP1 POP PUSH2 0xAFD PUSH0 DUP4 ADD DUP5 PUSH2 0xADB JUMP JUMPDEST SWAP3 SWAP2 POP POP JUMP JUMPDEST PUSH0 DUP2 MLOAD SWAP1 POP SWAP2 SWAP1 POP JUMP JUMPDEST PUSH0 DUP3 DUP3 MSTORE PUSH1 0x20 DUP3 ADD SWAP1 POP SWAP3 SWAP2 POP POP JUMP JUMPDEST DUP3 DUP2 DUP4 MCOPY PUSH0 DUP4 DUP4 ADD MSTORE POP POP POP JUMP JUMPDEST PUSH0 PUSH1 0x1F NOT PUSH1 0x1F DUP4 ADD AND SWAP1 POP SWAP2 SWAP1 POP JUMP JUMPDEST PUSH0 PUSH2 0xB45 DUP3 PUSH2 0xB03 JUMP JUMPDEST PUSH2 0xB4F DUP2 DUP6 PUSH2 0xB0D JUMP JUMPDEST SWAP4 POP PUSH2 0xB5F DUP2 DUP6 PUSH1 0x20 DUP7 ADD PUSH2 0xB1D JUMP JUMPDEST PUSH2 0xB68 DUP2 PUSH2 0xB2B JUMP JUMPDEST DUP5 ADD SWAP2 POP POP SWAP3 SWAP2 POP POP JUMP JUMPDEST PUSH0 PUSH1 0x20 DUP3 ADD SWAP1 POP DUP2 DUP2 SUB PUSH0 DUP4 ADD MSTORE PUSH2 0xB8B DUP2 DUP5 PUSH2 0xB3B JUMP JUMPDEST SWAP1 POP SWAP3 SWAP2 POP POP JUMP JUMPDEST PUSH0 PUSH0 REVERT JUMPDEST PUSH0 PUSH0 REVERT JUMPDEST PUSH0 PUSH0 REVERT JUMPDEST PUSH0 PUSH0 DUP4 PUSH1 0x1F DUP5 ADD SLT PUSH2 0xBB4 JUMPI PUSH2 0xBB3 PUSH2 0xB93 JUMP JUMPDEST JUMPDEST DUP3 CALLDATALOAD SWAP1 POP PUSH8 0xFFFFFFFFFFFFFFFF DUP2 GT ISZERO PUSH2 0xBD1 JUMPI PUSH2 0xBD0 PUSH2 0xB97 JUMP JUMPDEST JUMPDEST PUSH1 0x20 DUP4 ADD SWAP2 POP DUP4 PUSH1 0x1 DUP3 MUL DUP4 ADD GT ISZERO PUSH2 0xBED JUMPI PUSH2 0xBEC PUSH2 0xB9B JUMP JUMPDEST JUMPDEST SWAP3 POP SWAP3 SWAP1 POP JUMP JUMPDEST PUSH0 PUSH0 PUSH1 0x20 DUP4 DUP6 SUB SLT ISZERO PUSH2 0xC0A JUMPI PUSH2 0xC09 PUSH2 0x9C8 JUMP JUMPDEST JUMPDEST PUSH0 DUP4 ADD CALLDATALOAD PUSH8 0xFFFFFFFFFFFFFFFF DUP2 GT ISZERO PUSH2 0xC27 JUMPI PUSH2 0xC26 PUSH2 0x9CC JUMP JUMPDEST JUMPDEST PUSH2 0xC33 DUP6 DUP3 DUP7 ADD PUSH2 0xB9F JUMP JUMPDEST SWAP3 POP SWAP3 POP POP SWAP3 POP SWAP3 SWAP1 POP JUMP JUMPDEST PUSH0 PUSH2 0xC49 DUP3 PUSH2 0xA56 JUMP JUMPDEST SWAP1 POP SWAP2 SWAP1 POP JUMP JUMPDEST PUSH2 0xC59 DUP2 PUSH2 0xC3F JUMP JUMPDEST DUP2 EQ PUSH2 0xC63 JUMPI PUSH0 PUSH0 REVERT JUMPDEST POP JUMP JUMPDEST PUSH0 DUP2 CALLDATALOAD SWAP1 POP PUSH2 0xC74 DUP2 PUSH2 0xC50 JUMP JUMPDEST SWAP3 SWAP2 POP POP JUMP JUMPDEST PUSH0 PUSH1 0x20 DUP3 DUP5 SUB SLT ISZERO PUSH2 0xC8F JUMPI PUSH2 0xC8E PUSH2 0x9C8 JUMP JUMPDEST JUMPDEST PUSH0 PUSH2 0xC9C DUP5 DUP3 DUP6 ADD PUSH2 0xC66 JUMP JUMPDEST SWAP2 POP POP SWAP3 SWAP2 POP POP JUMP JUMPDEST PUSH32 0x4E6F74204F776E65720000000000000000000000000000000000000000000000 PUSH0 DUP3 ADD MSTORE POP JUMP JUMPDEST PUSH0 PUSH2 0xCD9 PUSH1 0x9 DUP4 PUSH2 0xB0D JUMP JUMPDEST SWAP2 POP PUSH2 0xCE4 DUP3 PUSH2 0xCA5 JUMP JUMPDEST PUSH1 0x20 DUP3 ADD SWAP1 POP SWAP2 SWAP1 POP JUMP JUMPDEST PUSH0 PUSH1 0x20 DUP3 ADD SWAP1 POP DUP2 DUP2 SUB PUSH0 DUP4 ADD MSTORE PUSH2 0xD06 DUP2 PUSH2 0xCCD JUMP JUMPDEST SWAP1 POP SWAP2 SWAP1 POP JUMP JUMPDEST PUSH32 0x496E646578204F4F420000000000000000000000000000000000000000000000 PUSH0 DUP3 ADD MSTORE POP JUMP JUMPDEST PUSH0 PUSH2 0xD41 PUSH1 0x9 DUP4 PUSH2 0xB0D JUMP JUMPDEST SWAP2 POP PUSH2 0xD4C DUP3 PUSH2 0xD0D JUMP JUMPDEST PUSH1 0x20 DUP3 ADD SWAP1 POP SWAP2 SWAP1 POP JUMP JUMPDEST PUSH0 PUSH1 0x20 DUP3 ADD SWAP1 POP DUP2 DUP2 SUB PUSH0 DUP4 ADD MSTORE PUSH2 0xD6E DUP2 PUSH2 0xD35 JUMP JUMPDEST SWAP1 POP SWAP2 SWAP1 POP JUMP JUMPDEST PUSH32 0x4E487B7100000000000000000000000000000000000000000000000000000000 PUSH0 MSTORE PUSH1 0x32 PUSH1 0x4 MSTORE PUSH1 0x24 PUSH0 REVERT JUMPDEST PUSH32 0x5A65726F20416464726573730000000000000000000000000000000000000000 PUSH0 DUP3 ADD MSTORE POP JUMP JUMPDEST PUSH0 PUSH2 0xDD6 PUSH1 0xC DUP4 PUSH2 0xB0D JUMP JUMPDEST SWAP2 POP PUSH2 0xDE1 DUP3 PUSH2 0xDA2 JUMP JUMPDEST PUSH1 0x20 DUP3 ADD SWAP1 POP SWAP2 SWAP1 POP JUMP JUMPDEST PUSH0 PUSH1 0x20 DUP3 ADD SWAP1 POP DUP2 DUP2 SUB PUSH0 DUP4 ADD MSTORE PUSH2 0xE03 DUP2 PUSH2 0xDCA JUMP JUMPDEST SWAP1 POP SWAP2 SWAP1 POP JUMP JUMPDEST PUSH32 0x53616D65206F776E657200000000000000000000000000000000000000000000 PUSH0 DUP3 ADD MSTORE POP JUMP JUMPDEST PUSH0 PUSH2 0xE3E PUSH1 0xA DUP4 PUSH2 0xB0D JUMP JUMPDEST SWAP2 POP PUSH2 0xE49 DUP3 PUSH2 0xE0A JUMP JUMPDEST PUSH1 0x20 DUP3 ADD SWAP1 POP SWAP2 SWAP1 POP JUMP JUMPDEST PUSH0 PUSH1 0x20 DUP3 ADD SWAP1 POP DUP2 DUP2 SUB PUSH0 DUP4 ADD MSTORE PUSH2 0xE6B DUP2 PUSH2 0xE32 JUMP JUMPDEST SWAP1 POP SWAP2 SWAP1 POP JUMP JUMPDEST PUSH32 0x5A65726F00000000000000000000000000000000000000000000000000000000 PUSH0 DUP3 ADD MSTORE POP JUMP JUMPDEST PUSH0 PUSH2 0xEA6 PUSH1 0x4 DUP4 PUSH2 0xB0D JUMP JUMPDEST SWAP2 POP PUSH2 0xEB1 DUP3 PUSH2 0xE72 JUMP JUMPDEST PUSH1 0x20 DUP3 ADD SWAP1 POP SWAP2 SWAP1 POP JUMP JUMPDEST PUSH0 PUSH1 0x20 DUP3 ADD SWAP1 POP DUP2 DUP2 SUB PUSH0 DUP4 ADD MSTORE PUSH2 0xED3 DUP2 PUSH2 0xE9A JUMP JUMPDEST SWAP1 POP SWAP2 SWAP1 POP JUMP JUMPDEST PUSH32 0x4E487B7100000000000000000000000000000000000000000000000000000000 PUSH0 MSTORE PUSH1 0x11 PUSH1 0x4 MSTORE PUSH1 0x24 PUSH0 REVERT JUMPDEST PUSH0 PUSH2 0xF11 DUP3 PUSH2 0x9D0 JUMP JUMPDEST SWAP2 POP PUSH2 0xF1C DUP4 PUSH2 0x9D0 JUMP JUMPDEST SWAP3 POP DUP3 DUP3 ADD SWAP1 POP DUP1 DUP3 GT ISZERO PUSH2 0xF34 JUMPI PUSH2 0xF33 PUSH2 0xEDA JUMP JUMPDEST JUMPDEST SWAP3 SWAP2 POP POP JUMP JUMPDEST PUSH32 0x4E487B7100000000000000000000000000000000000000000000000000000000 PUSH0 MSTORE PUSH1 0x22 PUSH1 0x4 MSTORE PUSH1 0x24 PUSH0 REVERT JUMPDEST PUSH0 PUSH1 0x2 DUP3 DIV SWAP1 POP PUSH1 0x1 DUP3 AND DUP1 PUSH2 0xF7E JUMPI PUSH1 0x7F DUP3 AND SWAP2 POP JUMPDEST PUSH1 0x20 DUP3 LT DUP2 SUB PUSH2 0xF91 JUMPI PUSH2 0xF90 PUSH2 0xF3A JUMP JUMPDEST JUMPDEST POP SWAP2 SWAP1 POP JUMP JUMPDEST PUSH0 DUP3 SWAP1 POP SWAP3 SWAP2 POP POP JUMP JUMPDEST PUSH32 0x4E487B7100000000000000000000000000000000000000000000000000000000 PUSH0 MSTORE PUSH1 0x41 PUSH1 0x4 MSTORE PUSH1 0x24 PUSH0 REVERT JUMPDEST PUSH0 DUP2 SWAP1 POP DUP2 PUSH0 MSTORE PUSH1 0x20 PUSH0 KECCAK256 SWAP1 POP SWAP2 SWAP1 POP JUMP JUMPDEST PUSH0 PUSH1 0x20 PUSH1 0x1F DUP4 ADD DIV SWAP1 POP SWAP2 SWAP1 POP JUMP JUMPDEST PUSH0 DUP3 DUP3 SHL SWAP1 POP SWAP3 SWAP2 POP POP JUMP JUMPDEST PUSH0 PUSH1 0x8 DUP4 MUL PUSH2 0x102A PUSH32 0xFFFFFFFFFFFFFFFFFFFFFFFFFFFFFFFFFFFFFFFFFFFFFFFFFFFFFFFFFFFFFFFF DUP3 PUSH2 0xFEF JUMP JUMPDEST PUSH2 0x1034 DUP7 DUP4 PUSH2 0xFEF JUMP JUMPDEST SWAP6 POP DUP1 NOT DUP5 AND SWAP4 POP DUP1 DUP7 AND DUP5 OR SWAP3 POP POP POP SWAP4 SWAP3 POP POP POP JUMP JUMPDEST PUSH0 DUP2 SWAP1 POP SWAP2 SWAP1 POP JUMP JUMPDEST PUSH0 PUSH2 0x106F PUSH2 0x106A PUSH2 0x1065 DUP5 PUSH2 0x9D0 JUMP JUMPDEST PUSH2 0x104C JUMP JUMPDEST PUSH2 0x9D0 JUMP JUMPDEST SWAP1 POP SWAP2 SWAP1 POP JUMP JUMPDEST PUSH0 DUP2 SWAP1 POP SWAP2 SWAP1 POP JUMP JUMPDEST PUSH2 0x1088 DUP4 PUSH2 0x1055 JUMP JUMPDEST PUSH2 0x109C PUSH2 0x1094 DUP3 PUSH2 0x1076 JUMP JUMPDEST DUP5 DUP5 SLOAD PUSH2 0xFFB JUMP JUMPDEST DUP3 SSTORE POP POP POP POP JUMP JUMPDEST PUSH0 PUSH0 SWAP1 POP SWAP1 JUMP JUMPDEST PUSH2 0x10B3 PUSH2 0x10A4 JUMP JUMPDEST PUSH2 0x10BE DUP2 DUP5 DUP5 PUSH2 0x107F JUMP JUMPDEST POP POP POP JUMP JUMPDEST JUMPDEST DUP2 DUP2 LT ISZERO PUSH2 0x10E1 JUMPI PUSH2 0x10D6 PUSH0 DUP3 PUSH2 0x10AB JUMP JUMPDEST PUSH1 0x1 DUP2 ADD SWAP1 POP PUSH2 0x10C4 JUMP JUMPDEST POP POP JUMP JUMPDEST PUSH1 0x1F DUP3 GT ISZERO PUSH2 0x1126 JUMPI PUSH2 0x10F7 DUP2 PUSH2 0xFCE JUMP JUMPDEST PUSH2 0x1100 DUP5 PUSH2 0xFE0 JUMP JUMPDEST DUP2 ADD PUSH1 0x20 DUP6 LT ISZERO PUSH2 0x110F JUMPI DUP2 SWAP1 POP JUMPDEST PUSH2 0x1123 PUSH2 0x111B DUP6 PUSH2 0xFE0 JUMP JUMPDEST DUP4 ADD DUP3 PUSH2 0x10C3 JUMP JUMPDEST POP POP JUMPDEST POP POP POP JUMP JUMPDEST PUSH0 DUP3 DUP3 SHR SWAP1 POP SWAP3 SWAP2 POP POP JUMP JUMPDEST PUSH0 PUSH2 0x1146 PUSH0 NOT DUP5 PUSH1 0x8 MUL PUSH2 0x112B JUMP JUMPDEST NOT DUP1 DUP4 AND SWAP2 POP POP SWAP3 SWAP2 POP POP JUMP JUMPDEST PUSH0 PUSH2 0x115E DUP4 DUP4 PUSH2 0x1137 JUMP JUMPDEST SWAP2 POP DUP3 PUSH1 0x2 MUL DUP3 OR SWAP1 POP SWAP3 SWAP2 POP POP JUMP JUMPDEST PUSH2 0x1178 DUP4 DUP4 PUSH2 0xF97 JUMP JUMPDEST PUSH8 0xFFFFFFFFFFFFFFFF DUP2 GT ISZERO PUSH2 0x1191 JUMPI PUSH2 0x1190 PUSH2 0xFA1 JUMP JUMPDEST JUMPDEST PUSH2 0x119B DUP3 SLOAD PUSH2 0xF67 JUMP JUMPDEST PUSH2 0x11A6 DUP3 DUP3 DUP6 PUSH2 0x10E5 JUMP JUMPDEST PUSH0 PUSH1 0x1F DUP4 GT PUSH1 0x1 DUP2 EQ PUSH2 0x11D3 JUMPI PUSH0 DUP5 ISZERO PUSH2 0x11C1 JUMPI DUP3 DUP8 ADD CALLDATALOAD SWAP1 POP JUMPDEST PUSH2 0x11CB DUP6 DUP3 PUSH2 0x1153 JUMP JUMPDEST DUP7 SSTORE POP PUSH2 0x1232 JUMP JUMPDEST PUSH1 0x1F NOT DUP5 AND PUSH2 0x11E1 DUP7 PUSH2 0xFCE JUMP JUMPDEST PUSH0 JUMPDEST DUP3 DUP2 LT ISZERO PUSH2 0x1208 JUMPI DUP5 DUP10 ADD CALLDATALOAD DUP3 SSTORE PUSH1 0x1 DUP3 ADD SWAP2 POP PUSH1 0x20 DUP6 ADD SWAP5 POP PUSH1 0x20 DUP2 ADD SWAP1 POP PUSH2 0x11E3 JUMP JUMPDEST DUP7 DUP4 LT ISZERO PUSH2 0x1225 JUMPI DUP5 DUP10 ADD CALLDATALOAD PUSH2 0x1221 PUSH1 0x1F DUP10 AND DUP3 PUSH2 0x1137 JUMP JUMPDEST DUP4 SSTORE POP JUMPDEST PUSH1 0x1 PUSH1 0x2 DUP9 MUL ADD DUP9 SSTORE POP POP POP JUMPDEST POP POP POP POP POP POP POP JUMP JUMPDEST PUSH0 PUSH2 0x1245 DUP3 PUSH2 0x9D0 JUMP JUMPDEST SWAP2 POP PUSH2 0x1250 DUP4 PUSH2 0x9D0 JUMP JUMPDEST SWAP3 POP DUP3 DUP3 SUB SWAP1 POP DUP2 DUP2 GT ISZERO PUSH2 0x1268 JUMPI PUSH2 0x1267 PUSH2 0xEDA JUMP JUMPDEST JUMPDEST SWAP3 SWAP2 POP POP JUMP JUMPDEST PUSH32 0x5A65726F2042616C616E63650000000000000000000000000000000000000000 PUSH0 DUP3 ADD MSTORE POP JUMP JUMPDEST PUSH0 PUSH2 0x12A2 PUSH1 0xC DUP4 PUSH2 0xB0D JUMP JUMPDEST SWAP2 POP PUSH2 0x12AD DUP3 PUSH2 0x126E JUMP JUMPDEST PUSH1 0x20 DUP3 ADD SWAP1 POP SWAP2 SWAP1 POP JUMP JUMPDEST PUSH0 PUSH1 0x20 DUP3 ADD SWAP1 POP DUP2 DUP2 SUB PUSH0 DUP4 ADD MSTORE PUSH2 0x12CF DUP2 PUSH2 0x1296 JUMP JUMPDEST SWAP1 POP SWAP2 SWAP1 POP JUMP JUMPDEST PUSH0 DUP2 SWAP1 POP SWAP3 SWAP2 POP POP JUMP JUMPDEST POP JUMP JUMPDEST PUSH0 PUSH2 0x12EE PUSH0 DUP4 PUSH2 0x12D6 JUMP JUMPDEST SWAP2 POP PUSH2 0x12F9 DUP3 PUSH2 0x12E0 JUMP JUMPDEST PUSH0 DUP3 ADD SWAP1 POP SWAP2 SWAP1 POP JUMP JUMPDEST PUSH0 PUSH2 0x130D DUP3 PUSH2 0x12E3 JUMP JUMPDEST SWAP2 POP DUP2 SWAP1 POP SWAP2 SWAP1 POP JUMP JUMPDEST PUSH32 0x5472616E73666572204661696C65640000000000000000000000000000000000 PUSH0 DUP3 ADD MSTORE POP JUMP JUMPDEST PUSH0 PUSH2 0x134B PUSH1 0xF DUP4 PUSH2 0xB0D JUMP JUMPDEST SWAP2 POP PUSH2 0x1356 DUP3 PUSH2 0x1317 JUMP JUMPDEST PUSH1 0x20 DUP3 ADD SWAP1 POP SWAP2 SWAP1 POP JUMP JUMPDEST PUSH0 PUSH1 0x20 DUP3 ADD SWAP1 POP DUP2 DUP2 SUB PUSH0 DUP4 ADD MSTORE PUSH2 0x1378 DUP2 PUSH2 0x133F JUMP JUMPDEST SWAP1 POP SWAP2 SWAP1 POP JUMP INVALID LOG2 PUSH5 0x6970667358 0x22 SLT KECCAK256 NOT 0xC5 0xBA SLOAD DUP3 RETURNCONTRACT 0x87 0xC6 0xB4 SWAP12 JUMPDEST CALLF 0xC697 EXTCALL SLT 0xCE 0xC DUP10 0xA7 PUSH22 0xB9E6870FF04C084B959F8964736F6C634300081E0033 "
		},
		"gasEstimates": {
			"creation": {
				"codeDepositCost": "1009000",
				"executionCost": "25309",
				"totalCost": "1034309"
			},
			"external": {
				"addnote(string)": "infinite",
				"changeowner(address)": "32809",
				"deletenote(uint256)": "infinite",
				"deposit()": "infinite",
				"deposits(address)": "2890",
				"getcount()": "2463",
				"getnote(uint256)": "infinite",
				"owner()": "2574",
				"ownerWithdraw(address)": "infinite"
			}
		},
		"methodIdentifiers": {
			"addnote(string)": "ec28eb45",
			"changeowner(address)": "662e4ee4",
			"deletenote(uint256)": "0bdad603",
			"deposit()": "d0e30db0",
			"deposits(address)": "fc7e286d",
			"getcount()": "146af82b",
			"getnote(uint256)": "ead8be9a",
			"owner()": "8da5cb5b",
			"ownerWithdraw(address)": "f9bfaa7d"
		}
	},
	"abi": [
		{
			"inputs": [],
			"stateMutability": "nonpayable",
			"type": "constructor"
		},
		{
			"anonymous": false,
			"inputs": [
				{
					"indexed": true,
					"internalType": "address",
					"name": "by",
					"type": "address"
				},
				{
					"indexed": true,
					"internalType": "uint256",
					"name": "index",
					"type": "uint256"
				}
			],
			"name": "NoteAdded",
			"type": "event"
		},
		{
			"anonymous": false,
			"inputs": [
				{
					"indexed": true,
					"internalType": "address",
					"name": "by",
					"type": "address"
				},
				{
					"indexed": true,
					"internalType": "uint256",
					"name": "index",
					"type": "uint256"
				}
			],
			"name": "NoteDeleted",
			"type": "event"
		},
		{
			"anonymous": false,
			"inputs": [
				{
					"indexed": true,
					"internalType": "address",
					"name": "oldOwner",
					"type": "address"
				},
				{
					"indexed": true,
					"internalType": "address",
					"name": "newOwner",
					"type": "address"
				}
			],
			"name": "OwnerChanged",
			"type": "event"
		},
		{
			"inputs": [
				{
					"internalType": "string",
					"name": "text",
					"type": "string"
				}
			],
			"name": "addnote",
			"outputs": [],
			"stateMutability": "nonpayable",
			"type": "function"
		},
		{
			"inputs": [
				{
					"internalType": "address",
					"name": "newOwner",
					"type": "address"
				}
			],
			"name": "changeowner",
			"outputs": [],
			"stateMutability": "nonpayable",
			"type": "function"
		},
		{
			"inputs": [
				{
					"internalType": "uint256",
					"name": "idx",
					"type": "uint256"
				}
			],
			"name": "deletenote",
			"outputs": [],
			"stateMutability": "nonpayable",
			"type": "function"
		},
		{
			"inputs": [],
			"name": "deposit",
			"outputs": [],
			"stateMutability": "payable",
			"type": "function"
		},
		{
			"inputs": [
				{
					"internalType": "address",
					"name": "",
					"type": "address"
				}
			],
			"name": "deposits",
			"outputs": [
				{
					"internalType": "uint256",
					"name": "",
					"type": "uint256"
				}
			],
			"stateMutability": "view",
			"type": "function"
		},
		{
			"inputs": [],
			"name": "getcount",
			"outputs": [
				{
					"internalType": "uint256",
					"name": "",
					"type": "uint256"
				}
			],
			"stateMutability": "view",
			"type": "function"
		},
		{
			"inputs": [
				{
					"internalType": "uint256",
					"name": "idx",
					"type": "uint256"
				}
			],
			"name": "getnote",
			"outputs": [
				{
					"internalType": "string",
					"name": "",
					"type": "string"
				}
			],
			"stateMutability": "view",
			"type": "function"
		},
		{
			"inputs": [],
			"name": "owner",
			"outputs": [
				{
					"internalType": "address",
					"name": "",
					"type": "address"
				}
			],
			"stateMutability": "view",
			"type": "function"
		},
		{
			"inputs": [
				{
					"internalType": "address payable",
					"name": "to",
					"type": "address"
				}
			],
			"name": "ownerWithdraw",
			"outputs": [],
			"stateMutability": "nonpayable",
			"type": "function"
		}
	]
}