{
	"securenotes.sol": {
		"SecureNotes": {
			"abi": [
				{
					"inputs": [],
					"stateMutability": "nonpayable",
					"type": "constructor"
				},
				{
					"inputs": [
						{
							"internalType": "string",
							"name": "newnote",
							"type": "string"
						}
					],
					"name": "addnote",
					"outputs": [],
					"stateMutability": "nonpayable",
					"type": "function"
				},
				{
					"inputs": [
						{
							"internalType": "uint256",
							"name": "index",
							"type": "uint256"
						}
					],
					"name": "deletenote",
					"outputs": [],
					"stateMutability": "nonpayable",
					"type": "function"
				},
				{
					"inputs": [],
					"name": "getcount",
					"outputs": [
						{
							"internalType": "uint256",
							"name": "",
							"type": "uint256"
						}
					],
					"stateMutability": "view",
					"type": "function"
				},
				{
					"inputs": [
						{
							"internalType": "uint256",
							"name": "index",
							"type": "uint256"
						}
					],
					"name": "getnote",
					"outputs": [
						{
							"internalType": "string",
							"name": "",
							"type": "string"
						}
					],
					"stateMutability": "view",
					"type": "function"
				},
				{
					"inputs": [],
					"name": "owner",
					"outputs": [
						{
							"internalType": "address",
							"name": "",
							"type": "address"
						}
					],
					"stateMutability": "view",
					"type": "function"
				}
			],
			"devdoc": {
				"kind": "dev",
				"methods": {},
				"version": 1
			},
			"evm": {
				"assembly": "    /* \"securenotes.sol\":59:697  contract SecureNotes {... */\n  mstore(0x40, 0x80)\n    /* \"securenotes.sol\":145:196  constructor() {... */\n  callvalue\n  dup1\n  iszero\n  tag_1\n  jumpi\n  revert(0x00, 0x00)\ntag_1:\n  pop\n    /* \"securenotes.sol\":178:188  msg.sender */\n  caller\n    /* \"securenotes.sol\":170:175  owner */\n  0x00\n  0x00\n    /* \"securenotes.sol\":170:188  owner = msg.sender */\n  0x0100\n  exp\n  dup2\n  sload\n  dup2\n  0xffffffffffffffffffffffffffffffffffffffff\n  mul\n  not\n  and\n  swap1\n  dup4\n  0xffffffffffffffffffffffffffffffffffffffff\n  and\n  mul\n  or\n  swap1\n  sstore\n  pop\n    /* \"securenotes.sol\":59:697  contract SecureNotes {... */\n  dataSize(sub_0)\n  dup1\n  dataOffset(sub_0)\n  0x00\n  codecopy\n  0x00\n  return\nstop\n\nsub_0: assembly {\n        /* \"securenotes.sol\":59:697  contract SecureNotes {... */\n      mstore(0x40, 0x80)\n      callvalue\n      dup1\n      iszero\n      tag_1\n      jumpi\n      revert(0x00, 0x00)\n    tag_1:\n      pop\n      jumpi(tag_2, lt(calldatasize, 0x04))\n      shr(0xe0, calldataload(0x00))\n      dup1\n      0x0bdad603\n      eq\n      tag_3\n      jumpi\n      dup1\n      0x146af82b\n      eq\n      tag_4\n      jumpi\n      dup1\n      0x8da5cb5b\n      eq\n      tag_5\n      jumpi\n      dup1\n      0xead8be9a\n      eq\n      tag_6\n      jumpi\n      dup1\n      0xec28eb45\n      eq\n      tag_7\n      jumpi\n    tag_2:\n      revert(0x00, 0x00)\n        /* \"securenotes.sol\":607:694  function deletenote(uint index) public onlyOwner {... */\n    tag_3:\n      tag_8\n      0x04\n      dup1\n      calldatasize\n      sub\n      dup2\n      add\n      swap1\n      tag_9\n      swap2\n      swap1\n      tag_10\n      jump\t// in\n    tag_9:\n      tag_11\n      jump\t// in\n    tag_8:\n      stop\n        /* \"securenotes.sol\":514:599  function getcount() public view returns (uint) {... */\n    tag_4:\n      tag_12\n      tag_13\n      jump\t// in\n    tag_12:\n      mload(0x40)\n      tag_14\n      swap2\n      swap1\n      tag_15\n      jump\t// in\n    tag_14:\n      mload(0x40)\n      dup1\n      swap2\n      sub\n      swap1\n      return\n        /* \"securenotes.sol\":87:107  address public owner */\n    tag_5:\n      tag_16\n      tag_17\n      jump\t// in\n    tag_16:\n      mload(0x40)\n      tag_18\n      swap2\n      swap1\n      tag_19\n      jump\t// in\n    tag_18:\n      mload(0x40)\n      dup1\n      swap2\n      sub\n      swap1\n      return\n        /* \"securenotes.sol\":403:506  function getnote(uint index) public view returns (string memory) {... */\n    tag_6:\n      tag_20\n      0x04\n      dup1\n      calldatasize\n      sub\n      dup2\n      add\n      swap1\n      tag_21\n      swap2\n      swap1\n      tag_10\n      jump\t// in\n    tag_21:\n      tag_22\n      jump\t// in\n    tag_20:\n      mload(0x40)\n      tag_23\n      swap2\n      swap1\n      tag_24\n      jump\t// in\n    tag_23:\n      mload(0x40)\n      dup1\n      swap2\n      sub\n      swap1\n      return\n        /* \"securenotes.sol\":300:395  function addnote(string memory newnote) public onlyOwner {... */\n    tag_7:\n      tag_25\n      0x04\n      dup1\n      calldatasize\n      sub\n      dup2\n      add\n      swap1\n      tag_26\n      swap2\n      swap1\n      tag_27\n      jump\t// in\n    tag_26:\n      tag_28\n      jump\t// in\n    tag_25:\n      stop\n        /* \"securenotes.sol\":607:694  function deletenote(uint index) public onlyOwner {... */\n    tag_11:\n        /* \"securenotes.sol\":258:263  owner */\n      0x00\n      0x00\n      swap1\n      sload\n      swap1\n      0x0100\n      exp\n      swap1\n      div\n      0xffffffffffffffffffffffffffffffffffffffff\n      and\n        /* \"securenotes.sol\":244:263  msg.sender == owner */\n      0xffffffffffffffffffffffffffffffffffffffff\n      and\n        /* \"securenotes.sol\":244:254  msg.sender */\n      caller\n        /* \"securenotes.sol\":244:263  msg.sender == owner */\n      0xffffffffffffffffffffffffffffffffffffffff\n      and\n      eq\n        /* \"securenotes.sol\":236:282  require(msg.sender == owner, \"Not the owner!\") */\n      tag_30\n      jumpi\n      mload(0x40)\n      0x08c379a000000000000000000000000000000000000000000000000000000000\n      dup2\n      mstore\n      0x04\n      add\n      tag_31\n      swap1\n      tag_32\n      jump\t// in\n    tag_31:\n      mload(0x40)\n      dup1\n      swap2\n      sub\n      swap1\n      revert\n    tag_30:\n        /* \"securenotes.sol\":674:679  notes */\n      0x01\n        /* \"securenotes.sol\":680:685  index */\n      dup2\n        /* \"securenotes.sol\":674:686  notes[index] */\n      dup2\n      sload\n      dup2\n      lt\n      tag_34\n      jumpi\n      tag_35\n      tag_36\n      jump\t// in\n    tag_35:\n    tag_34:\n      swap1\n      0x00\n      mstore\n      keccak256(0x00, 0x20)\n      add\n      0x00\n        /* \"securenotes.sol\":667:686  delete notes[index] */\n      tag_38\n      swap2\n      swap1\n      tag_39\n      jump\t// in\n    tag_38:\n        /* \"securenotes.sol\":607:694  function deletenote(uint index) public onlyOwner {... */\n      pop\n      jump\t// out\n        /* \"securenotes.sol\":514:599  function getcount() public view returns (uint) {... */\n    tag_13:\n        /* \"securenotes.sol\":555:559  uint */\n      0x00\n        /* \"securenotes.sol\":579:584  notes */\n      0x01\n        /* \"securenotes.sol\":579:591  notes.length */\n      dup1\n      sload\n      swap1\n      pop\n        /* \"securenotes.sol\":572:591  return notes.length */\n      swap1\n      pop\n        /* \"securenotes.sol\":514:599  function getcount() public view returns (uint) {... */\n      swap1\n      jump\t// out\n        /* \"securenotes.sol\":87:107  address public owner */\n    tag_17:\n      0x00\n      0x00\n      swap1\n      sload\n      swap1\n      0x0100\n      exp\n      swap1\n      div\n      0xffffffffffffffffffffffffffffffffffffffff\n      and\n      dup2\n      jump\t// out\n        /* \"securenotes.sol\":403:506  function getnote(uint index) public view returns (string memory) {... */\n    tag_22:\n        /* \"securenotes.sol\":453:466  string memory */\n      0x60\n        /* \"securenotes.sol\":486:491  notes */\n      0x01\n        /* \"securenotes.sol\":492:497  index */\n      dup3\n        /* \"securenotes.sol\":486:498  notes[index] */\n      dup2\n      sload\n      dup2\n      lt\n      tag_42\n      jumpi\n      tag_43\n      tag_36\n      jump\t// in\n    tag_43:\n    tag_42:\n      swap1\n      0x00\n      mstore\n      keccak256(0x00, 0x20)\n      add\n        /* \"securenotes.sol\":479:498  return notes[index] */\n      dup1\n      sload\n      tag_45\n      swap1\n      tag_46\n      jump\t// in\n    tag_45:\n      dup1\n      0x1f\n      add\n      0x20\n      dup1\n      swap2\n      div\n      mul\n      0x20\n      add\n      mload(0x40)\n      swap1\n      dup2\n      add\n      0x40\n      mstore\n      dup1\n      swap3\n      swap2\n      swap1\n      dup2\n      dup2\n      mstore\n      0x20\n      add\n      dup3\n      dup1\n      sload\n      tag_47\n      swap1\n      tag_46\n      jump\t// in\n    tag_47:\n      dup1\n      iszero\n      tag_48\n      jumpi\n      dup1\n      0x1f\n      lt\n      tag_49\n      jumpi\n      0x0100\n      dup1\n      dup4\n      sload\n      div\n      mul\n      dup4\n      mstore\n      swap2\n      0x20\n      add\n      swap2\n      jump(tag_48)\n    tag_49:\n      dup3\n      add\n      swap2\n      swap1\n      0x00\n      mstore\n      keccak256(0x00, 0x20)\n      swap1\n    tag_50:\n      dup2\n      sload\n      dup2\n      mstore\n      swap1\n      0x01\n      add\n      swap1\n      0x20\n      add\n      dup1\n      dup4\n      gt\n      tag_50\n      jumpi\n      dup3\n      swap1\n      sub\n      0x1f\n      and\n      dup3\n      add\n      swap2\n    tag_48:\n      pop\n      pop\n      pop\n      pop\n      pop\n      swap1\n      pop\n        /* \"securenotes.sol\":403:506  function getnote(uint index) public view returns (string memory) {... */\n      swap2\n      swap1\n      pop\n      jump\t// out\n        /* \"securenotes.sol\":300:395  function addnote(string memory newnote) public onlyOwner {... */\n    tag_28:\n        /* \"securenotes.sol\":258:263  owner */\n      0x00\n      0x00\n      swap1\n      sload\n      swap1\n      0x0100\n      exp\n      swap1\n      div\n      0xffffffffffffffffffffffffffffffffffffffff\n      and\n        /* \"securenotes.sol\":244:263  msg.sender == owner */\n      0xffffffffffffffffffffffffffffffffffffffff\n      and\n        /* \"securenotes.sol\":244:254  msg.sender */\n      caller\n        /* \"securenotes.sol\":244:263  msg.sender == owner */\n      0xffffffffffffffffffffffffffffffffffffffff\n      and\n      eq\n        /* \"securenotes.sol\":236:282  require(msg.sender == owner, \"Not the owner!\") */\n      tag_52\n      jumpi\n      mload(0x40)\n      0x08c379a000000000000000000000000000000000000000000000000000000000\n      dup2\n      mstore\n      0x04\n      add\n      tag_53\n      swap1\n      tag_32\n      jump\t// in\n    tag_53:\n      mload(0x40)\n      dup1\n      swap2\n      sub\n      swap1\n      revert\n    tag_52:\n        /* \"securenotes.sol\":368:373  notes */\n      0x01\n        /* \"securenotes.sol\":379:386  newnote */\n      dup2\n        /* \"securenotes.sol\":368:387  notes.push(newnote) */\n      swap1\n      dup1\n      0x01\n      dup2\n      sload\n      add\n      dup1\n      dup3\n      sstore\n      dup1\n      swap2\n      pop\n      pop\n      0x01\n      swap1\n      sub\n      swap1\n      0x00\n      mstore\n      keccak256(0x00, 0x20)\n      add\n      0x00\n      swap1\n      swap2\n      swap1\n      swap2\n      swap1\n      swap2\n      pop\n      swap1\n      dup2\n      tag_56\n      swap2\n      swap1\n      tag_57\n      jump\t// in\n    tag_56:\n      pop\n        /* \"securenotes.sol\":300:395  function addnote(string memory newnote) public onlyOwner {... */\n      pop\n      jump\t// out\n    tag_39:\n      pop\n      dup1\n      sload\n      tag_58\n      swap1\n      tag_46\n      jump\t// in\n    tag_58:\n      0x00\n      dup3\n      sstore\n      dup1\n      0x1f\n      lt\n      tag_60\n      jumpi\n      pop\n      jump(tag_59)\n    tag_60:\n      0x1f\n      add\n      0x20\n      swap1\n      div\n      swap1\n      0x00\n      mstore\n      keccak256(0x00, 0x20)\n      swap1\n      dup2\n      add\n      swap1\n      tag_61\n      swap2\n      swap1\n      tag_62\n      jump\t// in\n    tag_61:\n    tag_59:\n      pop\n      jump\t// out\n    tag_62:\n    tag_63:\n      dup1\n      dup3\n      gt\n      iszero\n      tag_64\n      jumpi\n      0x00\n      dup2\n      0x00\n      swap1\n      sstore\n      pop\n      0x01\n      add\n      jump(tag_63)\n    tag_64:\n      pop\n      swap1\n      jump\t// out\n        /* \"#utility.yul\":7:82   */\n    tag_65:\n        /* \"#utility.yul\":40:46   */\n      0x00\n        /* \"#utility.yul\":73:75   */\n      0x40\n        /* \"#utility.yul\":67:76   */\n      mload\n        /* \"#utility.yul\":57:76   */\n      swap1\n      pop\n        /* \"#utility.yul\":7:82   */\n      swap1\n      jump\t// out\n        /* \"#utility.yul\":88:205   */\n    tag_66:\n        /* \"#utility.yul\":197:198   */\n      0x00\n        /* \"#utility.yul\":194:195   */\n      0x00\n        /* \"#utility.yul\":187:199   */\n      revert\n        /* \"#utility.yul\":211:328   */\n    tag_67:\n        /* \"#utility.yul\":320:321   */\n      0x00\n        /* \"#utility.yul\":317:318   */\n      0x00\n        /* \"#utility.yul\":310:322   */\n      revert\n        /* \"#utility.yul\":334:411   */\n    tag_68:\n        /* \"#utility.yul\":371:378   */\n      0x00\n        /* \"#utility.yul\":400:405   */\n      dup2\n        /* \"#utility.yul\":389:405   */\n      swap1\n      pop\n        /* \"#utility.yul\":334:411   */\n      swap2\n      swap1\n      pop\n      jump\t// out\n        /* \"#utility.yul\":417:539   */\n    tag_69:\n        /* \"#utility.yul\":490:514   */\n      tag_113\n        /* \"#utility.yul\":508:513   */\n      dup2\n        /* \"#utility.yul\":490:514   */\n      tag_68\n      jump\t// in\n    tag_113:\n        /* \"#utility.yul\":483:488   */\n      dup2\n        /* \"#utility.yul\":480:515   */\n      eq\n        /* \"#utility.yul\":470:533   */\n      tag_114\n      jumpi\n        /* \"#utility.yul\":529:530   */\n      0x00\n        /* \"#utility.yul\":526:527   */\n      0x00\n        /* \"#utility.yul\":519:531   */\n      revert\n        /* \"#utility.yul\":470:533   */\n    tag_114:\n        /* \"#utility.yul\":417:539   */\n      pop\n      jump\t// out\n        /* \"#utility.yul\":545:684   */\n    tag_70:\n        /* \"#utility.yul\":591:596   */\n      0x00\n        /* \"#utility.yul\":629:635   */\n      dup2\n        /* \"#utility.yul\":616:636   */\n      calldataload\n        /* \"#utility.yul\":607:636   */\n      swap1\n      pop\n        /* \"#utility.yul\":645:678   */\n      tag_116\n        /* \"#utility.yul\":672:677   */\n      dup2\n        /* \"#utility.yul\":645:678   */\n      tag_69\n      jump\t// in\n    tag_116:\n        /* \"#utility.yul\":545:684   */\n      swap3\n      swap2\n      pop\n      pop\n      jump\t// out\n        /* \"#utility.yul\":690:1019   */\n    tag_10:\n        /* \"#utility.yul\":749:755   */\n      0x00\n        /* \"#utility.yul\":798:800   */\n      0x20\n        /* \"#utility.yul\":786:795   */\n      dup3\n        /* \"#utility.yul\":777:784   */\n      dup5\n        /* \"#utility.yul\":773:796   */\n      sub\n        /* \"#utility.yul\":769:801   */\n      slt\n        /* \"#utility.yul\":766:885   */\n      iszero\n      tag_118\n      jumpi\n        /* \"#utility.yul\":804:883   */\n      tag_119\n      tag_66\n      jump\t// in\n    tag_119:\n        /* \"#utility.yul\":766:885   */\n    tag_118:\n        /* \"#utility.yul\":924:925   */\n      0x00\n        /* \"#utility.yul\":949:1002   */\n      tag_120\n        /* \"#utility.yul\":994:1001   */\n      dup5\n        /* \"#utility.yul\":985:991   */\n      dup3\n        /* \"#utility.yul\":974:983   */\n      dup6\n        /* \"#utility.yul\":970:992   */\n      add\n        /* \"#utility.yul\":949:1002   */\n      tag_70\n      jump\t// in\n    tag_120:\n        /* \"#utility.yul\":939:1002   */\n      swap2\n      pop\n        /* \"#utility.yul\":895:1012   */\n      pop\n        /* \"#utility.yul\":690:1019   */\n      swap3\n      swap2\n      pop\n      pop\n      jump\t// out\n        /* \"#utility.yul\":1025:1143   */\n    tag_71:\n        /* \"#utility.yul\":1112:1136   */\n      tag_122\n        /* \"#utility.yul\":1130:1135   */\n      dup2\n        /* \"#utility.yul\":1112:1136   */\n      tag_68\n      jump\t// in\n    tag_122:\n        /* \"#utility.yul\":1107:1110   */\n      dup3\n        /* \"#utility.yul\":1100:1137   */\n      mstore\n        /* \"#utility.yul\":1025:1143   */\n      pop\n      pop\n      jump\t// out\n        /* \"#utility.yul\":1149:1371   */\n    tag_15:\n        /* \"#utility.yul\":1242:1246   */\n      0x00\n        /* \"#utility.yul\":1280:1282   */\n      0x20\n        /* \"#utility.yul\":1269:1278   */\n      dup3\n        /* \"#utility.yul\":1265:1283   */\n      add\n        /* \"#utility.yul\":1257:1283   */\n      swap1\n      pop\n        /* \"#utility.yul\":1293:1364   */\n      tag_124\n        /* \"#utility.yul\":1361:1362   */\n      0x00\n        /* \"#utility.yul\":1350:1359   */\n      dup4\n        /* \"#utility.yul\":1346:1363   */\n      add\n        /* \"#utility.yul\":1337:1343   */\n      dup5\n        /* \"#utility.yul\":1293:1364   */\n      tag_71\n      jump\t// in\n    tag_124:\n        /* \"#utility.yul\":1149:1371   */\n      swap3\n      swap2\n      pop\n      pop\n      jump\t// out\n        /* \"#utility.yul\":1377:1503   */\n    tag_72:\n        /* \"#utility.yul\":1414:1421   */\n      0x00\n        /* \"#utility.yul\":1454:1496   */\n      0xffffffffffffffffffffffffffffffffffffffff\n        /* \"#utility.yul\":1447:1452   */\n      dup3\n        /* \"#utility.yul\":1443:1497   */\n      and\n        /* \"#utility.yul\":1432:1497   */\n      swap1\n      pop\n        /* \"#utility.yul\":1377:1503   */\n      swap2\n      swap1\n      pop\n      jump\t// out\n        /* \"#utility.yul\":1509:1605   */\n    tag_73:\n        /* \"#utility.yul\":1546:1553   */\n      0x00\n        /* \"#utility.yul\":1575:1599   */\n      tag_127\n        /* \"#utility.yul\":1593:1598   */\n      dup3\n        /* \"#utility.yul\":1575:1599   */\n      tag_72\n      jump\t// in\n    tag_127:\n        /* \"#utility.yul\":1564:1599   */\n      swap1\n      pop\n        /* \"#utility.yul\":1509:1605   */\n      swap2\n      swap1\n      pop\n      jump\t// out\n        /* \"#utility.yul\":1611:1729   */\n    tag_74:\n        /* \"#utility.yul\":1698:1722   */\n      tag_129\n        /* \"#utility.yul\":1716:1721   */\n      dup2\n        /* \"#utility.yul\":1698:1722   */\n      tag_73\n      jump\t// in\n    tag_129:\n        /* \"#utility.yul\":1693:1696   */\n      dup3\n        /* \"#utility.yul\":1686:1723   */\n      mstore\n        /* \"#utility.yul\":1611:1729   */\n      pop\n      pop\n      jump\t// out\n        /* \"#utility.yul\":1735:1957   */\n    tag_19:\n        /* \"#utility.yul\":1828:1832   */\n      0x00\n        /* \"#utility.yul\":1866:1868   */\n      0x20\n        /* \"#utility.yul\":1855:1864   */\n      dup3\n        /* \"#utility.yul\":1851:1869   */\n      add\n        /* \"#utility.yul\":1843:1869   */\n      swap1\n      pop\n        /* \"#utility.yul\":1879:1950   */\n      tag_131\n        /* \"#utility.yul\":1947:1948   */\n      0x00\n        /* \"#utility.yul\":1936:1945   */\n      dup4\n        /* \"#utility.yul\":1932:1949   */\n      add\n        /* \"#utility.yul\":1923:1929   */\n      dup5\n        /* \"#utility.yul\":1879:1950   */\n      tag_74\n      jump\t// in\n    tag_131:\n        /* \"#utility.yul\":1735:1957   */\n      swap3\n      swap2\n      pop\n      pop\n      jump\t// out\n        /* \"#utility.yul\":1963:2062   */\n    tag_75:\n        /* \"#utility.yul\":2015:2021   */\n      0x00\n        /* \"#utility.yul\":2049:2054   */\n      dup2\n        /* \"#utility.yul\":2043:2055   */\n      mload\n        /* \"#utility.yul\":2033:2055   */\n      swap1\n      pop\n        /* \"#utility.yul\":1963:2062   */\n      swap2\n      swap1\n      pop\n      jump\t// out\n        /* \"#utility.yul\":2068:2237   */\n    tag_76:\n        /* \"#utility.yul\":2152:2163   */\n      0x00\n        /* \"#utility.yul\":2186:2192   */\n      dup3\n        /* \"#utility.yul\":2181:2184   */\n      dup3\n        /* \"#utility.yul\":2174:2193   */\n      mstore\n        /* \"#utility.yul\":2226:2230   */\n      0x20\n        /* \"#utility.yul\":2221:2224   */\n      dup3\n        /* \"#utility.yul\":2217:2231   */\n      add\n        /* \"#utility.yul\":2202:2231   */\n      swap1\n      pop\n        /* \"#utility.yul\":2068:2237   */\n      swap3\n      swap2\n      pop\n      pop\n      jump\t// out\n        /* \"#utility.yul\":2243:2382   */\n    tag_77:\n        /* \"#utility.yul\":2332:2338   */\n      dup3\n        /* \"#utility.yul\":2327:2330   */\n      dup2\n        /* \"#utility.yul\":2322:2325   */\n      dup4\n        /* \"#utility.yul\":2316:2339   */\n      mcopy\n        /* \"#utility.yul\":2373:2374   */\n      0x00\n        /* \"#utility.yul\":2364:2370   */\n      dup4\n        /* \"#utility.yul\":2359:2362   */\n      dup4\n        /* \"#utility.yul\":2355:2371   */\n      add\n        /* \"#utility.yul\":2348:2375   */\n      mstore\n        /* \"#utility.yul\":2243:2382   */\n      pop\n      pop\n      pop\n      jump\t// out\n        /* \"#utility.yul\":2388:2490   */\n    tag_78:\n        /* \"#utility.yul\":2429:2435   */\n      0x00\n        /* \"#utility.yul\":2480:2482   */\n      0x1f\n        /* \"#utility.yul\":2476:2483   */\n      not\n        /* \"#utility.yul\":2471:2473   */\n      0x1f\n        /* \"#utility.yul\":2464:2469   */\n      dup4\n        /* \"#utility.yul\":2460:2474   */\n      add\n        /* \"#utility.yul\":2456:2484   */\n      and\n        /* \"#utility.yul\":2446:2484   */\n      swap1\n      pop\n        /* \"#utility.yul\":2388:2490   */\n      swap2\n      swap1\n      pop\n      jump\t// out\n        /* \"#utility.yul\":2496:2873   */\n    tag_79:\n        /* \"#utility.yul\":2584:2587   */\n      0x00\n        /* \"#utility.yul\":2612:2651   */\n      tag_137\n        /* \"#utility.yul\":2645:2650   */\n      dup3\n        /* \"#utility.yul\":2612:2651   */\n      tag_75\n      jump\t// in\n    tag_137:\n        /* \"#utility.yul\":2667:2738   */\n      tag_138\n        /* \"#utility.yul\":2731:2737   */\n      dup2\n        /* \"#utility.yul\":2726:2729   */\n      dup6\n        /* \"#utility.yul\":2667:2738   */\n      tag_76\n      jump\t// in\n    tag_138:\n        /* \"#utility.yul\":2660:2738   */\n      swap4\n      pop\n        /* \"#utility.yul\":2747:2812   */\n      tag_139\n        /* \"#utility.yul\":2805:2811   */\n      dup2\n        /* \"#utility.yul\":2800:2803   */\n      dup6\n        /* \"#utility.yul\":2793:2797   */\n      0x20\n        /* \"#utility.yul\":2786:2791   */\n      dup7\n        /* \"#utility.yul\":2782:2798   */\n      add\n        /* \"#utility.yul\":2747:2812   */\n      tag_77\n      jump\t// in\n    tag_139:\n        /* \"#utility.yul\":2837:2866   */\n      tag_140\n        /* \"#utility.yul\":2859:2865   */\n      dup2\n        /* \"#utility.yul\":2837:2866   */\n      tag_78\n      jump\t// in\n    tag_140:\n        /* \"#utility.yul\":2832:2835   */\n      dup5\n        /* \"#utility.yul\":2828:2867   */\n      add\n        /* \"#utility.yul\":2821:2867   */\n      swap2\n      pop\n        /* \"#utility.yul\":2588:2873   */\n      pop\n        /* \"#utility.yul\":2496:2873   */\n      swap3\n      swap2\n      pop\n      pop\n      jump\t// out\n        /* \"#utility.yul\":2879:3192   */\n    tag_24:\n        /* \"#utility.yul\":2992:2996   */\n      0x00\n        /* \"#utility.yul\":3030:3032   */\n      0x20\n        /* \"#utility.yul\":3019:3028   */\n      dup3\n        /* \"#utility.yul\":3015:3033   */\n      add\n        /* \"#utility.yul\":3007:3033   */\n      swap1\n      pop\n        /* \"#utility.yul\":3079:3088   */\n      dup2\n        /* \"#utility.yul\":3073:3077   */\n      dup2\n        /* \"#utility.yul\":3069:3089   */\n      sub\n        /* \"#utility.yul\":3065:3066   */\n      0x00\n        /* \"#utility.yul\":3054:3063   */\n      dup4\n        /* \"#utility.yul\":3050:3067   */\n      add\n        /* \"#utility.yul\":3043:3090   */\n      mstore\n        /* \"#utility.yul\":3107:3185   */\n      tag_142\n        /* \"#utility.yul\":3180:3184   */\n      dup2\n        /* \"#utility.yul\":3171:3177   */\n      dup5\n        /* \"#utility.yul\":3107:3185   */\n      tag_79\n      jump\t// in\n    tag_142:\n        /* \"#utility.yul\":3099:3185   */\n      swap1\n      pop\n        /* \"#utility.yul\":2879:3192   */\n      swap3\n      swap2\n      pop\n      pop\n      jump\t// out\n        /* \"#utility.yul\":3198:3315   */\n    tag_80:\n        /* \"#utility.yul\":3307:3308   */\n      0x00\n        /* \"#utility.yul\":3304:3305   */\n      0x00\n        /* \"#utility.yul\":3297:3309   */\n      revert\n        /* \"#utility.yul\":3321:3438   */\n    tag_81:\n        /* \"#utility.yul\":3430:3431   */\n      0x00\n        /* \"#utility.yul\":3427:3428   */\n      0x00\n        /* \"#utility.yul\":3420:3432   */\n      revert\n        /* \"#utility.yul\":3444:3624   */\n    tag_82:\n        /* \"#utility.yul\":3492:3569   */\n      0x4e487b7100000000000000000000000000000000000000000000000000000000\n        /* \"#utility.yul\":3489:3490   */\n      0x00\n        /* \"#utility.yul\":3482:3570   */\n      mstore\n        /* \"#utility.yul\":3589:3593   */\n      0x41\n        /* \"#utility.yul\":3586:3587   */\n      0x04\n        /* \"#utility.yul\":3579:3594   */\n      mstore\n        /* \"#utility.yul\":3613:3617   */\n      0x24\n        /* \"#utility.yul\":3610:3611   */\n      0x00\n        /* \"#utility.yul\":3603:3618   */\n      revert\n        /* \"#utility.yul\":3630:3911   */\n    tag_83:\n        /* \"#utility.yul\":3713:3740   */\n      tag_147\n        /* \"#utility.yul\":3735:3739   */\n      dup3\n        /* \"#utility.yul\":3713:3740   */\n      tag_78\n      jump\t// in\n    tag_147:\n        /* \"#utility.yul\":3705:3711   */\n      dup2\n        /* \"#utility.yul\":3701:3741   */\n      add\n        /* \"#utility.yul\":3843:3849   */\n      dup2\n        /* \"#utility.yul\":3831:3841   */\n      dup2\n        /* \"#utility.yul\":3828:3850   */\n      lt\n        /* \"#utility.yul\":3807:3825   */\n      0xffffffffffffffff\n        /* \"#utility.yul\":3795:3805   */\n      dup3\n        /* \"#utility.yul\":3792:3826   */\n      gt\n        /* \"#utility.yul\":3789:3851   */\n      or\n        /* \"#utility.yul\":3786:3874   */\n      iszero\n      tag_148\n      jumpi\n        /* \"#utility.yul\":3854:3872   */\n      tag_149\n      tag_82\n      jump\t// in\n    tag_149:\n        /* \"#utility.yul\":3786:3874   */\n    tag_148:\n        /* \"#utility.yul\":3894:3904   */\n      dup1\n        /* \"#utility.yul\":3890:3892   */\n      0x40\n        /* \"#utility.yul\":3883:3905   */\n      mstore\n        /* \"#utility.yul\":3673:3911   */\n      pop\n        /* \"#utility.yul\":3630:3911   */\n      pop\n      pop\n      jump\t// out\n        /* \"#utility.yul\":3917:4046   */\n    tag_84:\n        /* \"#utility.yul\":3951:3957   */\n      0x00\n        /* \"#utility.yul\":3978:3998   */\n      tag_151\n      tag_65\n      jump\t// in\n    tag_151:\n        /* \"#utility.yul\":3968:3998   */\n      swap1\n      pop\n        /* \"#utility.yul\":4007:4040   */\n      tag_152\n        /* \"#utility.yul\":4035:4039   */\n      dup3\n        /* \"#utility.yul\":4027:4033   */\n      dup3\n        /* \"#utility.yul\":4007:4040   */\n      tag_83\n      jump\t// in\n    tag_152:\n        /* \"#utility.yul\":3917:4046   */\n      swap2\n      swap1\n      pop\n      jump\t// out\n        /* \"#utility.yul\":4052:4360   */\n    tag_85:\n        /* \"#utility.yul\":4114:4118   */\n      0x00\n        /* \"#utility.yul\":4204:4222   */\n      0xffffffffffffffff\n        /* \"#utility.yul\":4196:4202   */\n      dup3\n        /* \"#utility.yul\":4193:4223   */\n      gt\n        /* \"#utility.yul\":4190:4246   */\n      iszero\n      tag_154\n      jumpi\n        /* \"#utility.yul\":4226:4244   */\n      tag_155\n      tag_82\n      jump\t// in\n    tag_155:\n        /* \"#utility.yul\":4190:4246   */\n    tag_154:\n        /* \"#utility.yul\":4264:4293   */\n      tag_156\n        /* \"#utility.yul\":4286:4292   */\n      dup3\n        /* \"#utility.yul\":4264:4293   */\n      tag_78\n      jump\t// in\n    tag_156:\n        /* \"#utility.yul\":4256:4293   */\n      swap1\n      pop\n        /* \"#utility.yul\":4348:4352   */\n      0x20\n        /* \"#utility.yul\":4342:4346   */\n      dup2\n        /* \"#utility.yul\":4338:4353   */\n      add\n        /* \"#utility.yul\":4330:4353   */\n      swap1\n      pop\n        /* \"#utility.yul\":4052:4360   */\n      swap2\n      swap1\n      pop\n      jump\t// out\n        /* \"#utility.yul\":4366:4514   */\n    tag_86:\n        /* \"#utility.yul\":4464:4470   */\n      dup3\n        /* \"#utility.yul\":4459:4462   */\n      dup2\n        /* \"#utility.yul\":4454:4457   */\n      dup4\n        /* \"#utility.yul\":4441:4471   */\n      calldatacopy\n        /* \"#utility.yul\":4505:4506   */\n      0x00\n        /* \"#utility.yul\":4496:4502   */\n      dup4\n        /* \"#utility.yul\":4491:4494   */\n      dup4\n        /* \"#utility.yul\":4487:4503   */\n      add\n        /* \"#utility.yul\":4480:4507   */\n      mstore\n        /* \"#utility.yul\":4366:4514   */\n      pop\n      pop\n      pop\n      jump\t// out\n        /* \"#utility.yul\":4520:4945   */\n    tag_87:\n        /* \"#utility.yul\":4598:4603   */\n      0x00\n        /* \"#utility.yul\":4623:4689   */\n      tag_159\n        /* \"#utility.yul\":4639:4688   */\n      tag_160\n        /* \"#utility.yul\":4681:4687   */\n      dup5\n        /* \"#utility.yul\":4639:4688   */\n      tag_85\n      jump\t// in\n    tag_160:\n        /* \"#utility.yul\":4623:4689   */\n      tag_84\n      jump\t// in\n    tag_159:\n        /* \"#utility.yul\":4614:4689   */\n      swap1\n      pop\n        /* \"#utility.yul\":4712:4718   */\n      dup3\n        /* \"#utility.yul\":4705:4710   */\n      dup2\n        /* \"#utility.yul\":4698:4719   */\n      mstore\n        /* \"#utility.yul\":4750:4754   */\n      0x20\n        /* \"#utility.yul\":4743:4748   */\n      dup2\n        /* \"#utility.yul\":4739:4755   */\n      add\n        /* \"#utility.yul\":4788:4791   */\n      dup5\n        /* \"#utility.yul\":4779:4785   */\n      dup5\n        /* \"#utility.yul\":4774:4777   */\n      dup5\n        /* \"#utility.yul\":4770:4786   */\n      add\n        /* \"#utility.yul\":4767:4792   */\n      gt\n        /* \"#utility.yul\":4764:4876   */\n      iszero\n      tag_161\n      jumpi\n        /* \"#utility.yul\":4795:4874   */\n      tag_162\n      tag_81\n      jump\t// in\n    tag_162:\n        /* \"#utility.yul\":4764:4876   */\n    tag_161:\n        /* \"#utility.yul\":4885:4939   */\n      tag_163\n        /* \"#utility.yul\":4932:4938   */\n      dup5\n        /* \"#utility.yul\":4927:4930   */\n      dup3\n        /* \"#utility.yul\":4922:4925   */\n      dup6\n        /* \"#utility.yul\":4885:4939   */\n      tag_86\n      jump\t// in\n    tag_163:\n        /* \"#utility.yul\":4604:4945   */\n      pop\n        /* \"#utility.yul\":4520:4945   */\n      swap4\n      swap3\n      pop\n      pop\n      pop\n      jump\t// out\n        /* \"#utility.yul\":4965:5305   */\n    tag_88:\n        /* \"#utility.yul\":5021:5026   */\n      0x00\n        /* \"#utility.yul\":5070:5073   */\n      dup3\n        /* \"#utility.yul\":5063:5067   */\n      0x1f\n        /* \"#utility.yul\":5055:5061   */\n      dup4\n        /* \"#utility.yul\":5051:5068   */\n      add\n        /* \"#utility.yul\":5047:5074   */\n      slt\n        /* \"#utility.yul\":5037:5159   */\n      tag_165\n      jumpi\n        /* \"#utility.yul\":5078:5157   */\n      tag_166\n      tag_80\n      jump\t// in\n    tag_166:\n        /* \"#utility.yul\":5037:5159   */\n    tag_165:\n        /* \"#utility.yul\":5195:5201   */\n      dup2\n        /* \"#utility.yul\":5182:5202   */\n      calldataload\n        /* \"#utility.yul\":5220:5299   */\n      tag_167\n        /* \"#utility.yul\":5295:5298   */\n      dup5\n        /* \"#utility.yul\":5287:5293   */\n      dup3\n        /* \"#utility.yul\":5280:5284   */\n      0x20\n        /* \"#utility.yul\":5272:5278   */\n      dup7\n        /* \"#utility.yul\":5268:5285   */\n      add\n        /* \"#utility.yul\":5220:5299   */\n      tag_87\n      jump\t// in\n    tag_167:\n        /* \"#utility.yul\":5211:5299   */\n      swap2\n      pop\n        /* \"#utility.yul\":5027:5305   */\n      pop\n        /* \"#utility.yul\":4965:5305   */\n      swap3\n      swap2\n      pop\n      pop\n      jump\t// out\n        /* \"#utility.yul\":5311:5820   */\n    tag_27:\n        /* \"#utility.yul\":5380:5386   */\n      0x00\n        /* \"#utility.yul\":5429:5431   */\n      0x20\n        /* \"#utility.yul\":5417:5426   */\n      dup3\n        /* \"#utility.yul\":5408:5415   */\n      dup5\n        /* \"#utility.yul\":5404:5427   */\n      sub\n        /* \"#utility.yul\":5400:5432   */\n      slt\n        /* \"#utility.yul\":5397:5516   */\n      iszero\n      tag_169\n      jumpi\n        /* \"#utility.yul\":5435:5514   */\n      tag_170\n      tag_66\n      jump\t// in\n    tag_170:\n        /* \"#utility.yul\":5397:5516   */\n    tag_169:\n        /* \"#utility.yul\":5583:5584   */\n      0x00\n        /* \"#utility.yul\":5572:5581   */\n      dup3\n        /* \"#utility.yul\":5568:5585   */\n      add\n        /* \"#utility.yul\":5555:5586   */\n      calldataload\n        /* \"#utility.yul\":5613:5631   */\n      0xffffffffffffffff\n        /* \"#utility.yul\":5605:5611   */\n      dup2\n        /* \"#utility.yul\":5602:5632   */\n      gt\n        /* \"#utility.yul\":5599:5716   */\n      iszero\n      tag_171\n      jumpi\n        /* \"#utility.yul\":5635:5714   */\n      tag_172\n      tag_67\n      jump\t// in\n    tag_172:\n        /* \"#utility.yul\":5599:5716   */\n    tag_171:\n        /* \"#utility.yul\":5740:5803   */\n      tag_173\n        /* \"#utility.yul\":5795:5802   */\n      dup5\n        /* \"#utility.yul\":5786:5792   */\n      dup3\n        /* \"#utility.yul\":5775:5784   */\n      dup6\n        /* \"#utility.yul\":5771:5793   */\n      add\n        /* \"#utility.yul\":5740:5803   */\n      tag_88\n      jump\t// in\n    tag_173:\n        /* \"#utility.yul\":5730:5803   */\n      swap2\n      pop\n        /* \"#utility.yul\":5526:5813   */\n      pop\n        /* \"#utility.yul\":5311:5820   */\n      swap3\n      swap2\n      pop\n      pop\n      jump\t// out\n        /* \"#utility.yul\":5826:5990   */\n    tag_89:\n        /* \"#utility.yul\":5966:5982   */\n      0x4e6f7420746865206f776e657221000000000000000000000000000000000000\n        /* \"#utility.yul\":5962:5963   */\n      0x00\n        /* \"#utility.yul\":5954:5960   */\n      dup3\n        /* \"#utility.yul\":5950:5964   */\n      add\n        /* \"#utility.yul\":5943:5983   */\n      mstore\n        /* \"#utility.yul\":5826:5990   */\n      pop\n      jump\t// out\n        /* \"#utility.yul\":5996:6362   */\n    tag_90:\n        /* \"#utility.yul\":6138:6141   */\n      0x00\n        /* \"#utility.yul\":6159:6226   */\n      tag_176\n        /* \"#utility.yul\":6223:6225   */\n      0x0e\n        /* \"#utility.yul\":6218:6221   */\n      dup4\n        /* \"#utility.yul\":6159:6226   */\n      tag_76\n      jump\t// in\n    tag_176:\n        /* \"#utility.yul\":6152:6226   */\n      swap2\n      pop\n        /* \"#utility.yul\":6235:6328   */\n      tag_177\n        /* \"#utility.yul\":6324:6327   */\n      dup3\n        /* \"#utility.yul\":6235:6328   */\n      tag_89\n      jump\t// in\n    tag_177:\n        /* \"#utility.yul\":6353:6355   */\n      0x20\n        /* \"#utility.yul\":6348:6351   */\n      dup3\n        /* \"#utility.yul\":6344:6356   */\n      add\n        /* \"#utility.yul\":6337:6356   */\n      swap1\n      pop\n        /* \"#utility.yul\":5996:6362   */\n      swap2\n      swap1\n      pop\n      jump\t// out\n        /* \"#utility.yul\":6368:6787   */\n    tag_32:\n        /* \"#utility.yul\":6534:6538   */\n      0x00\n        /* \"#utility.yul\":6572:6574   */\n      0x20\n        /* \"#utility.yul\":6561:6570   */\n      dup3\n        /* \"#utility.yul\":6557:6575   */\n      add\n        /* \"#utility.yul\":6549:6575   */\n      swap1\n      pop\n        /* \"#utility.yul\":6621:6630   */\n      dup2\n        /* \"#utility.yul\":6615:6619   */\n      dup2\n        /* \"#utility.yul\":6611:6631   */\n      sub\n        /* \"#utility.yul\":6607:6608   */\n      0x00\n        /* \"#utility.yul\":6596:6605   */\n      dup4\n        /* \"#utility.yul\":6592:6609   */\n      add\n        /* \"#utility.yul\":6585:6632   */\n      mstore\n        /* \"#utility.yul\":6649:6780   */\n      tag_179\n        /* \"#utility.yul\":6775:6779   */\n      dup2\n        /* \"#utility.yul\":6649:6780   */\n      tag_90\n      jump\t// in\n    tag_179:\n        /* \"#utility.yul\":6641:6780   */\n      swap1\n      pop\n        /* \"#utility.yul\":6368:6787   */\n      swap2\n      swap1\n      pop\n      jump\t// out\n        /* \"#utility.yul\":6793:6973   */\n    tag_36:\n        /* \"#utility.yul\":6841:6918   */\n      0x4e487b7100000000000000000000000000000000000000000000000000000000\n        /* \"#utility.yul\":6838:6839   */\n      0x00\n        /* \"#utility.yul\":6831:6919   */\n      mstore\n        /* \"#utility.yul\":6938:6942   */\n      0x32\n        /* \"#utility.yul\":6935:6936   */\n      0x04\n        /* \"#utility.yul\":6928:6943   */\n      mstore\n        /* \"#utility.yul\":6962:6966   */\n      0x24\n        /* \"#utility.yul\":6959:6960   */\n      0x00\n        /* \"#utility.yul\":6952:6967   */\n      revert\n        /* \"#utility.yul\":6979:7159   */\n    tag_91:\n        /* \"#utility.yul\":7027:7104   */\n      0x4e487b7100000000000000000000000000000000000000000000000000000000\n        /* \"#utility.yul\":7024:7025   */\n      0x00\n        /* \"#utility.yul\":7017:7105   */\n      mstore\n        /* \"#utility.yul\":7124:7128   */\n      0x22\n        /* \"#utility.yul\":7121:7122   */\n      0x04\n        /* \"#utility.yul\":7114:7129   */\n      mstore\n        /* \"#utility.yul\":7148:7152   */\n      0x24\n        /* \"#utility.yul\":7145:7146   */\n      0x00\n        /* \"#utility.yul\":7138:7153   */\n      revert\n        /* \"#utility.yul\":7165:7485   */\n    tag_46:\n        /* \"#utility.yul\":7209:7215   */\n      0x00\n        /* \"#utility.yul\":7246:7247   */\n      0x02\n        /* \"#utility.yul\":7240:7244   */\n      dup3\n        /* \"#utility.yul\":7236:7248   */\n      div\n        /* \"#utility.yul\":7226:7248   */\n      swap1\n      pop\n        /* \"#utility.yul\":7293:7294   */\n      0x01\n        /* \"#utility.yul\":7287:7291   */\n      dup3\n        /* \"#utility.yul\":7283:7295   */\n      and\n        /* \"#utility.yul\":7314:7332   */\n      dup1\n        /* \"#utility.yul\":7304:7385   */\n      tag_183\n      jumpi\n        /* \"#utility.yul\":7370:7374   */\n      0x7f\n        /* \"#utility.yul\":7362:7368   */\n      dup3\n        /* \"#utility.yul\":7358:7375   */\n      and\n        /* \"#utility.yul\":7348:7375   */\n      swap2\n      pop\n        /* \"#utility.yul\":7304:7385   */\n    tag_183:\n        /* \"#utility.yul\":7432:7434   */\n      0x20\n        /* \"#utility.yul\":7424:7430   */\n      dup3\n        /* \"#utility.yul\":7421:7435   */\n      lt\n        /* \"#utility.yul\":7401:7419   */\n      dup2\n        /* \"#utility.yul\":7398:7436   */\n      sub\n        /* \"#utility.yul\":7395:7479   */\n      tag_184\n      jumpi\n        /* \"#utility.yul\":7451:7469   */\n      tag_185\n      tag_91\n      jump\t// in\n    tag_185:\n        /* \"#utility.yul\":7395:7479   */\n    tag_184:\n        /* \"#utility.yul\":7216:7485   */\n      pop\n        /* \"#utility.yul\":7165:7485   */\n      swap2\n      swap1\n      pop\n      jump\t// out\n        /* \"#utility.yul\":7491:7632   */\n    tag_92:\n        /* \"#utility.yul\":7540:7544   */\n      0x00\n        /* \"#utility.yul\":7563:7566   */\n      dup2\n        /* \"#utility.yul\":7555:7566   */\n      swap1\n      pop\n        /* \"#utility.yul\":7586:7589   */\n      dup2\n        /* \"#utility.yul\":7583:7584   */\n      0x00\n        /* \"#utility.yul\":7576:7590   */\n      mstore\n        /* \"#utility.yul\":7620:7624   */\n      0x20\n        /* \"#utility.yul\":7617:7618   */\n      0x00\n        /* \"#utility.yul\":7607:7625   */\n      keccak256\n        /* \"#utility.yul\":7599:7625   */\n      swap1\n      pop\n        /* \"#utility.yul\":7491:7632   */\n      swap2\n      swap1\n      pop\n      jump\t// out\n        /* \"#utility.yul\":7638:7731   */\n    tag_93:\n        /* \"#utility.yul\":7675:7681   */\n      0x00\n        /* \"#utility.yul\":7722:7724   */\n      0x20\n        /* \"#utility.yul\":7717:7719   */\n      0x1f\n        /* \"#utility.yul\":7710:7715   */\n      dup4\n        /* \"#utility.yul\":7706:7720   */\n      add\n        /* \"#utility.yul\":7702:7725   */\n      div\n        /* \"#utility.yul\":7692:7725   */\n      swap1\n      pop\n        /* \"#utility.yul\":7638:7731   */\n      swap2\n      swap1\n      pop\n      jump\t// out\n        /* \"#utility.yul\":7737:7844   */\n    tag_94:\n        /* \"#utility.yul\":7781:7789   */\n      0x00\n        /* \"#utility.yul\":7831:7836   */\n      dup3\n        /* \"#utility.yul\":7825:7829   */\n      dup3\n        /* \"#utility.yul\":7821:7837   */\n      shl\n        /* \"#utility.yul\":7800:7837   */\n      swap1\n      pop\n        /* \"#utility.yul\":7737:7844   */\n      swap3\n      swap2\n      pop\n      pop\n      jump\t// out\n        /* \"#utility.yul\":7850:8243   */\n    tag_95:\n        /* \"#utility.yul\":7919:7925   */\n      0x00\n        /* \"#utility.yul\":7969:7970   */\n      0x08\n        /* \"#utility.yul\":7957:7967   */\n      dup4\n        /* \"#utility.yul\":7953:7971   */\n      mul\n        /* \"#utility.yul\":7992:8089   */\n      tag_190\n        /* \"#utility.yul\":8022:8088   */\n      0xffffffffffffffffffffffffffffffffffffffffffffffffffffffffffffffff\n        /* \"#utility.yul\":8011:8020   */\n      dup3\n        /* \"#utility.yul\":7992:8089   */\n      tag_94\n      jump\t// in\n    tag_190:\n        /* \"#utility.yul\":8110:8149   */\n      tag_191\n        /* \"#utility.yul\":8140:8148   */\n      dup7\n        /* \"#utility.yul\":8129:8138   */\n      dup4\n        /* \"#utility.yul\":8110:8149   */\n      tag_94\n      jump\t// in\n    tag_191:\n        /* \"#utility.yul\":8098:8149   */\n      swap6\n      pop\n        /* \"#utility.yul\":8182:8186   */\n      dup1\n        /* \"#utility.yul\":8178:8187   */\n      not\n        /* \"#utility.yul\":8171:8176   */\n      dup5\n        /* \"#utility.yul\":8167:8188   */\n      and\n        /* \"#utility.yul\":8158:8188   */\n      swap4\n      pop\n        /* \"#utility.yul\":8231:8235   */\n      dup1\n        /* \"#utility.yul\":8221:8229   */\n      dup7\n        /* \"#utility.yul\":8217:8236   */\n      and\n        /* \"#utility.yul\":8210:8215   */\n      dup5\n        /* \"#utility.yul\":8207:8237   */\n      or\n        /* \"#utility.yul\":8197:8237   */\n      swap3\n      pop\n        /* \"#utility.yul\":7926:8243   */\n      pop\n      pop\n        /* \"#utility.yul\":7850:8243   */\n      swap4\n      swap3\n      pop\n      pop\n      pop\n      jump\t// out\n        /* \"#utility.yul\":8249:8309   */\n    tag_96:\n        /* \"#utility.yul\":8277:8280   */\n      0x00\n        /* \"#utility.yul\":8298:8303   */\n      dup2\n        /* \"#utility.yul\":8291:8303   */\n      swap1\n      pop\n        /* \"#utility.yul\":8249:8309   */\n      swap2\n      swap1\n      pop\n      jump\t// out\n        /* \"#utility.yul\":8315:8457   */\n    tag_97:\n        /* \"#utility.yul\":8365:8374   */\n      0x00\n        /* \"#utility.yul\":8398:8451   */\n      tag_194\n        /* \"#utility.yul\":8416:8450   */\n      tag_195\n        /* \"#utility.yul\":8425:8449   */\n      tag_196\n        /* \"#utility.yul\":8443:8448   */\n      dup5\n        /* \"#utility.yul\":8425:8449   */\n      tag_68\n      jump\t// in\n    tag_196:\n        /* \"#utility.yul\":8416:8450   */\n      tag_96\n      jump\t// in\n    tag_195:\n        /* \"#utility.yul\":8398:8451   */\n      tag_68\n      jump\t// in\n    tag_194:\n        /* \"#utility.yul\":8385:8451   */\n      swap1\n      pop\n        /* \"#utility.yul\":8315:8457   */\n      swap2\n      swap1\n      pop\n      jump\t// out\n        /* \"#utility.yul\":8463:8538   */\n    tag_98:\n        /* \"#utility.yul\":8506:8509   */\n      0x00\n        /* \"#utility.yul\":8527:8532   */\n      dup2\n        /* \"#utility.yul\":8520:8532   */\n      swap1\n      pop\n        /* \"#utility.yul\":8463:8538   */\n      swap2\n      swap1\n      pop\n      jump\t// out\n        /* \"#utility.yul\":8544:8813   */\n    tag_99:\n        /* \"#utility.yul\":8654:8693   */\n      tag_199\n        /* \"#utility.yul\":8685:8692   */\n      dup4\n        /* \"#utility.yul\":8654:8693   */\n      tag_97\n      jump\t// in\n    tag_199:\n        /* \"#utility.yul\":8715:8806   */\n      tag_200\n        /* \"#utility.yul\":8764:8805   */\n      tag_201\n        /* \"#utility.yul\":8788:8804   */\n      dup3\n        /* \"#utility.yul\":8764:8805   */\n      tag_98\n      jump\t// in\n    tag_201:\n        /* \"#utility.yul\":8756:8762   */\n      dup5\n        /* \"#utility.yul\":8749:8753   */\n      dup5\n        /* \"#utility.yul\":8743:8754   */\n      sload\n        /* \"#utility.yul\":8715:8806   */\n      tag_95\n      jump\t// in\n    tag_200:\n        /* \"#utility.yul\":8709:8713   */\n      dup3\n        /* \"#utility.yul\":8702:8807   */\n      sstore\n        /* \"#utility.yul\":8620:8813   */\n      pop\n        /* \"#utility.yul\":8544:8813   */\n      pop\n      pop\n      pop\n      jump\t// out\n        /* \"#utility.yul\":8819:8892   */\n    tag_100:\n        /* \"#utility.yul\":8864:8867   */\n      0x00\n        /* \"#utility.yul\":8885:8886   */\n      0x00\n        /* \"#utility.yul\":8878:8886   */\n      swap1\n      pop\n        /* \"#utility.yul\":8819:8892   */\n      swap1\n      jump\t// out\n        /* \"#utility.yul\":8898:9087   */\n    tag_101:\n        /* \"#utility.yul\":8975:9007   */\n      tag_204\n      tag_100\n      jump\t// in\n    tag_204:\n        /* \"#utility.yul\":9016:9081   */\n      tag_205\n        /* \"#utility.yul\":9074:9080   */\n      dup2\n        /* \"#utility.yul\":9066:9072   */\n      dup5\n        /* \"#utility.yul\":9060:9064   */\n      dup5\n        /* \"#utility.yul\":9016:9081   */\n      tag_99\n      jump\t// in\n    tag_205:\n        /* \"#utility.yul\":8951:9087   */\n      pop\n        /* \"#utility.yul\":8898:9087   */\n      pop\n      pop\n      jump\t// out\n        /* \"#utility.yul\":9093:9279   */\n    tag_102:\n        /* \"#utility.yul\":9153:9273   */\n    tag_207:\n        /* \"#utility.yul\":9170:9173   */\n      dup2\n        /* \"#utility.yul\":9163:9168   */\n      dup2\n        /* \"#utility.yul\":9160:9174   */\n      lt\n        /* \"#utility.yul\":9153:9273   */\n      iszero\n      tag_209\n      jumpi\n        /* \"#utility.yul\":9224:9263   */\n      tag_210\n        /* \"#utility.yul\":9261:9262   */\n      0x00\n        /* \"#utility.yul\":9254:9259   */\n      dup3\n        /* \"#utility.yul\":9224:9263   */\n      tag_101\n      jump\t// in\n    tag_210:\n        /* \"#utility.yul\":9197:9198   */\n      0x01\n        /* \"#utility.yul\":9190:9195   */\n      dup2\n        /* \"#utility.yul\":9186:9199   */\n      add\n        /* \"#utility.yul\":9177:9199   */\n      swap1\n      pop\n        /* \"#utility.yul\":9153:9273   */\n      jump(tag_207)\n    tag_209:\n        /* \"#utility.yul\":9093:9279   */\n      pop\n      pop\n      jump\t// out\n        /* \"#utility.yul\":9285:9828   */\n    tag_103:\n        /* \"#utility.yul\":9386:9388   */\n      0x1f\n        /* \"#utility.yul\":9381:9384   */\n      dup3\n        /* \"#utility.yul\":9378:9389   */\n      gt\n        /* \"#utility.yul\":9375:9821   */\n      iszero\n      tag_212\n      jumpi\n        /* \"#utility.yul\":9420:9458   */\n      tag_213\n        /* \"#utility.yul\":9452:9457   */\n      dup2\n        /* \"#utility.yul\":9420:9458   */\n      tag_92\n      jump\t// in\n    tag_213:\n        /* \"#utility.yul\":9504:9533   */\n      tag_214\n        /* \"#utility.yul\":9522:9532   */\n      dup5\n        /* \"#utility.yul\":9504:9533   */\n      tag_93\n      jump\t// in\n    tag_214:\n        /* \"#utility.yul\":9494:9502   */\n      dup2\n        /* \"#utility.yul\":9490:9534   */\n      add\n        /* \"#utility.yul\":9687:9689   */\n      0x20\n        /* \"#utility.yul\":9675:9685   */\n      dup6\n        /* \"#utility.yul\":9672:9690   */\n      lt\n        /* \"#utility.yul\":9669:9718   */\n      iszero\n      tag_215\n      jumpi\n        /* \"#utility.yul\":9708:9716   */\n      dup2\n        /* \"#utility.yul\":9693:9716   */\n      swap1\n      pop\n        /* \"#utility.yul\":9669:9718   */\n    tag_215:\n        /* \"#utility.yul\":9731:9811   */\n      tag_216\n        /* \"#utility.yul\":9787:9809   */\n      tag_217\n        /* \"#utility.yul\":9805:9808   */\n      dup6\n        /* \"#utility.yul\":9787:9809   */\n      tag_93\n      jump\t// in\n    tag_217:\n        /* \"#utility.yul\":9777:9785   */\n      dup4\n        /* \"#utility.yul\":9773:9810   */\n      add\n        /* \"#utility.yul\":9760:9771   */\n      dup3\n        /* \"#utility.yul\":9731:9811   */\n      tag_102\n      jump\t// in\n    tag_216:\n        /* \"#utility.yul\":9390:9821   */\n      pop\n      pop\n        /* \"#utility.yul\":9375:9821   */\n    tag_212:\n        /* \"#utility.yul\":9285:9828   */\n      pop\n      pop\n      pop\n      jump\t// out\n        /* \"#utility.yul\":9834:9951   */\n    tag_104:\n        /* \"#utility.yul\":9888:9896   */\n      0x00\n        /* \"#utility.yul\":9938:9943   */\n      dup3\n        /* \"#utility.yul\":9932:9936   */\n      dup3\n        /* \"#utility.yul\":9928:9944   */\n      shr\n        /* \"#utility.yul\":9907:9944   */\n      swap1\n      pop\n        /* \"#utility.yul\":9834:9951   */\n      swap3\n      swap2\n      pop\n      pop\n      jump\t// out\n        /* \"#utility.yul\":9957:10126   */\n    tag_105:\n        /* \"#utility.yul\":10001:10007   */\n      0x00\n        /* \"#utility.yul\":10034:10085   */\n      tag_220\n        /* \"#utility.yul\":10082:10083   */\n      0x00\n        /* \"#utility.yul\":10078:10084   */\n      not\n        /* \"#utility.yul\":10070:10075   */\n      dup5\n        /* \"#utility.yul\":10067:10068   */\n      0x08\n        /* \"#utility.yul\":10063:10076   */\n      mul\n        /* \"#utility.yul\":10034:10085   */\n      tag_104\n      jump\t// in\n    tag_220:\n        /* \"#utility.yul\":10030:10086   */\n      not\n        /* \"#utility.yul\":10115:10119   */\n      dup1\n        /* \"#utility.yul\":10109:10113   */\n      dup4\n        /* \"#utility.yul\":10105:10120   */\n      and\n        /* \"#utility.yul\":10095:10120   */\n      swap2\n      pop\n        /* \"#utility.yul\":10008:10126   */\n      pop\n        /* \"#utility.yul\":9957:10126   */\n      swap3\n      swap2\n      pop\n      pop\n      jump\t// out\n        /* \"#utility.yul\":10131:10426   */\n    tag_106:\n        /* \"#utility.yul\":10207:10211   */\n      0x00\n        /* \"#utility.yul\":10353:10382   */\n      tag_222\n        /* \"#utility.yul\":10378:10381   */\n      dup4\n        /* \"#utility.yul\":10372:10376   */\n      dup4\n        /* \"#utility.yul\":10353:10382   */\n      tag_105\n      jump\t// in\n    tag_222:\n        /* \"#utility.yul\":10345:10382   */\n      swap2\n      pop\n        /* \"#utility.yul\":10415:10418   */\n      dup3\n        /* \"#utility.yul\":10412:10413   */\n      0x02\n        /* \"#utility.yul\":10408:10419   */\n      mul\n        /* \"#utility.yul\":10402:10406   */\n      dup3\n        /* \"#utility.yul\":10399:10420   */\n      or\n        /* \"#utility.yul\":10391:10420   */\n      swap1\n      pop\n        /* \"#utility.yul\":10131:10426   */\n      swap3\n      swap2\n      pop\n      pop\n      jump\t// out\n        /* \"#utility.yul\":10431:11826   */\n    tag_57:\n        /* \"#utility.yul\":10548:10585   */\n      tag_224\n        /* \"#utility.yul\":10581:10584   */\n      dup3\n        /* \"#utility.yul\":10548:10585   */\n      tag_75\n      jump\t// in\n    tag_224:\n        /* \"#utility.yul\":10650:10668   */\n      0xffffffffffffffff\n        /* \"#utility.yul\":10642:10648   */\n      dup2\n        /* \"#utility.yul\":10639:10669   */\n      gt\n        /* \"#utility.yul\":10636:10692   */\n      iszero\n      tag_225\n      jumpi\n        /* \"#utility.yul\":10672:10690   */\n      tag_226\n      tag_82\n      jump\t// in\n    tag_226:\n        /* \"#utility.yul\":10636:10692   */\n    tag_225:\n        /* \"#utility.yul\":10716:10754   */\n      tag_227\n        /* \"#utility.yul\":10748:10752   */\n      dup3\n        /* \"#utility.yul\":10742:10753   */\n      sload\n        /* \"#utility.yul\":10716:10754   */\n      tag_46\n      jump\t// in\n    tag_227:\n        /* \"#utility.yul\":10801:10868   */\n      tag_228\n        /* \"#utility.yul\":10861:10867   */\n      dup3\n        /* \"#utility.yul\":10853:10859   */\n      dup3\n        /* \"#utility.yul\":10847:10851   */\n      dup6\n        /* \"#utility.yul\":10801:10868   */\n      tag_103\n      jump\t// in\n    tag_228:\n        /* \"#utility.yul\":10895:10896   */\n      0x00\n        /* \"#utility.yul\":10919:10923   */\n      0x20\n        /* \"#utility.yul\":10906:10923   */\n      swap1\n      pop\n        /* \"#utility.yul\":10951:10953   */\n      0x1f\n        /* \"#utility.yul\":10943:10949   */\n      dup4\n        /* \"#utility.yul\":10940:10954   */\n      gt\n        /* \"#utility.yul\":10968:10969   */\n      0x01\n        /* \"#utility.yul\":10963:11581   */\n      dup2\n      eq\n      tag_230\n      jumpi\n        /* \"#utility.yul\":11625:11626   */\n      0x00\n        /* \"#utility.yul\":11642:11648   */\n      dup5\n        /* \"#utility.yul\":11639:11716   */\n      iszero\n      tag_231\n      jumpi\n        /* \"#utility.yul\":11691:11700   */\n      dup3\n        /* \"#utility.yul\":11686:11689   */\n      dup8\n        /* \"#utility.yul\":11682:11701   */\n      add\n        /* \"#utility.yul\":11676:11702   */\n      mload\n        /* \"#utility.yul\":11667:11702   */\n      swap1\n      pop\n        /* \"#utility.yul\":11639:11716   */\n    tag_231:\n        /* \"#utility.yul\":11742:11809   */\n      tag_232\n        /* \"#utility.yul\":11802:11808   */\n      dup6\n        /* \"#utility.yul\":11795:11800   */\n      dup3\n        /* \"#utility.yul\":11742:11809   */\n      tag_106\n      jump\t// in\n    tag_232:\n        /* \"#utility.yul\":11736:11740   */\n      dup7\n        /* \"#utility.yul\":11729:11810   */\n      sstore\n        /* \"#utility.yul\":11598:11820   */\n      pop\n        /* \"#utility.yul\":10933:11820   */\n      jump(tag_229)\n        /* \"#utility.yul\":10963:11581   */\n    tag_230:\n        /* \"#utility.yul\":11015:11019   */\n      0x1f\n        /* \"#utility.yul\":11011:11020   */\n      not\n        /* \"#utility.yul\":11003:11009   */\n      dup5\n        /* \"#utility.yul\":10999:11021   */\n      and\n        /* \"#utility.yul\":11049:11086   */\n      tag_233\n        /* \"#utility.yul\":11081:11085   */\n      dup7\n        /* \"#utility.yul\":11049:11086   */\n      tag_92\n      jump\t// in\n    tag_233:\n        /* \"#utility.yul\":11108:11109   */\n      0x00\n        /* \"#utility.yul\":11122:11330   */\n    tag_234:\n        /* \"#utility.yul\":11136:11143   */\n      dup3\n        /* \"#utility.yul\":11133:11134   */\n      dup2\n        /* \"#utility.yul\":11130:11144   */\n      lt\n        /* \"#utility.yul\":11122:11330   */\n      iszero\n      tag_236\n      jumpi\n        /* \"#utility.yul\":11215:11224   */\n      dup5\n        /* \"#utility.yul\":11210:11213   */\n      dup10\n        /* \"#utility.yul\":11206:11225   */\n      add\n        /* \"#utility.yul\":11200:11226   */\n      mload\n        /* \"#utility.yul\":11192:11198   */\n      dup3\n        /* \"#utility.yul\":11185:11227   */\n      sstore\n        /* \"#utility.yul\":11266:11267   */\n      0x01\n        /* \"#utility.yul\":11258:11264   */\n      dup3\n        /* \"#utility.yul\":11254:11268   */\n      add\n        /* \"#utility.yul\":11244:11268   */\n      swap2\n      pop\n        /* \"#utility.yul\":11313:11315   */\n      0x20\n        /* \"#utility.yul\":11302:11311   */\n      dup6\n        /* \"#utility.yul\":11298:11316   */\n      add\n        /* \"#utility.yul\":11285:11316   */\n      swap5\n      pop\n        /* \"#utility.yul\":11159:11163   */\n      0x20\n        /* \"#utility.yul\":11156:11157   */\n      dup2\n        /* \"#utility.yul\":11152:11164   */\n      add\n        /* \"#utility.yul\":11147:11164   */\n      swap1\n      pop\n        /* \"#utility.yul\":11122:11330   */\n      jump(tag_234)\n    tag_236:\n        /* \"#utility.yul\":11358:11364   */\n      dup7\n        /* \"#utility.yul\":11349:11356   */\n      dup4\n        /* \"#utility.yul\":11346:11365   */\n      lt\n        /* \"#utility.yul\":11343:11522   */\n      iszero\n      tag_237\n      jumpi\n        /* \"#utility.yul\":11416:11425   */\n      dup5\n        /* \"#utility.yul\":11411:11414   */\n      dup10\n        /* \"#utility.yul\":11407:11426   */\n      add\n        /* \"#utility.yul\":11401:11427   */\n      mload\n        /* \"#utility.yul\":11459:11507   */\n      tag_238\n        /* \"#utility.yul\":11501:11505   */\n      0x1f\n        /* \"#utility.yul\":11493:11499   */\n      dup10\n        /* \"#utility.yul\":11489:11506   */\n      and\n        /* \"#utility.yul\":11478:11487   */\n      dup3\n        /* \"#utility.yul\":11459:11507   */\n      tag_105\n      jump\t// in\n    tag_238:\n        /* \"#utility.yul\":11451:11457   */\n      dup4\n        /* \"#utility.yul\":11444:11508   */\n      sstore\n        /* \"#utility.yul\":11366:11522   */\n      pop\n        /* \"#utility.yul\":11343:11522   */\n    tag_237:\n        /* \"#utility.yul\":11568:11569   */\n      0x01\n        /* \"#utility.yul\":11564:11565   */\n      0x02\n        /* \"#utility.yul\":11556:11562   */\n      dup9\n        /* \"#utility.yul\":11552:11566   */\n      mul\n        /* \"#utility.yul\":11548:11570   */\n      add\n        /* \"#utility.yul\":11542:11546   */\n      dup9\n        /* \"#utility.yul\":11535:11571   */\n      sstore\n        /* \"#utility.yul\":10970:11581   */\n      pop\n      pop\n      pop\n        /* \"#utility.yul\":10933:11820   */\n    tag_229:\n      pop\n        /* \"#utility.yul\":10523:11826   */\n      pop\n      pop\n      pop\n        /* \"#utility.yul\":10431:11826   */\n      pop\n      pop\n      jump\t// out\n\n    auxdata: 0xa2646970667358221220f40493825b2812ad097f8a795f6befb1a48b856f96b07bc74c9935b6201a36be64736f6c634300081e0033\n}\n",
				"bytecode": {
					"linkReferences": {},
					"object": "6080604052348015600e575f5ffd5b50335f5f6101000a81548173ffffffffffffffffffffffffffffffffffffffff021916908373ffffffffffffffffffffffffffffffffffffffff160217905550610a358061005b5f395ff3fe608060405234801561000f575f5ffd5b5060043610610055575f3560e01c80630bdad60314610059578063146af82b146100755780638da5cb5b14610093578063ead8be9a146100b1578063ec28eb45146100e1575b5f5ffd5b610073600480360381019061006e91906103f0565b6100fd565b005b61007d6101b5565b60405161008a919061042a565b60405180910390f35b61009b6101c1565b6040516100a89190610482565b60405180910390f35b6100cb60048036038101906100c691906103f0565b6101e5565b6040516100d8919061050b565b60405180910390f35b6100fb60048036038101906100f69190610657565b610291565b005b5f5f9054906101000a900473ffffffffffffffffffffffffffffffffffffffff1673ffffffffffffffffffffffffffffffffffffffff163373ffffffffffffffffffffffffffffffffffffffff161461018b576040517f08c379a0000000000000000000000000000000000000000000000000000000008152600401610182906106e8565b60405180910390fd5b6001818154811061019f5761019e610706565b5b905f5260205f20015f6101b29190610354565b50565b5f600180549050905090565b5f5f9054906101000a900473ffffffffffffffffffffffffffffffffffffffff1681565b6060600182815481106101fb576101fa610706565b5b905f5260205f2001805461020e90610760565b80601f016020809104026020016040519081016040528092919081815260200182805461023a90610760565b80156102855780601f1061025c57610100808354040283529160200191610285565b820191905f5260205f20905b81548152906001019060200180831161026857829003601f168201915b50505050509050919050565b5f5f9054906101000a900473ffffffffffffffffffffffffffffffffffffffff1673ffffffffffffffffffffffffffffffffffffffff163373ffffffffffffffffffffffffffffffffffffffff161461031f576040517f08c379a0000000000000000000000000000000000000000000000000000000008152600401610316906106e8565b60405180910390fd5b600181908060018154018082558091505060019003905f5260205f20015f9091909190915090816103509190610930565b5050565b50805461036090610760565b5f825580601f10610371575061038e565b601f0160209004905f5260205f209081019061038d9190610391565b5b50565b5b808211156103a8575f815f905550600101610392565b5090565b5f604051905090565b5f5ffd5b5f5ffd5b5f819050919050565b6103cf816103bd565b81146103d9575f5ffd5b50565b5f813590506103ea816103c6565b92915050565b5f60208284031215610405576104046103b5565b5b5f610412848285016103dc565b91505092915050565b610424816103bd565b82525050565b5f60208201905061043d5f83018461041b565b92915050565b5f73ffffffffffffffffffffffffffffffffffffffff82169050919050565b5f61046c82610443565b9050919050565b61047c81610462565b82525050565b5f6020820190506104955f830184610473565b92915050565b5f81519050919050565b5f82825260208201905092915050565b8281835e5f83830152505050565b5f601f19601f8301169050919050565b5f6104dd8261049b565b6104e781856104a5565b93506104f78185602086016104b5565b610500816104c3565b840191505092915050565b5f6020820190508181035f83015261052381846104d3565b905092915050565b5f5ffd5b5f5ffd5b7f4e487b71000000000000000000000000000000000000000000000000000000005f52604160045260245ffd5b610569826104c3565b810181811067ffffffffffffffff8211171561058857610587610533565b5b80604052505050565b5f61059a6103ac565b90506105a68282610560565b919050565b5f67ffffffffffffffff8211156105c5576105c4610533565b5b6105ce826104c3565b9050602081019050919050565b828183375f83830152505050565b5f6105fb6105f6846105ab565b610591565b9050828152602081018484840111156106175761061661052f565b5b6106228482856105db565b509392505050565b5f82601f83011261063e5761063d61052b565b5b813561064e8482602086016105e9565b91505092915050565b5f6020828403121561066c5761066b6103b5565b5b5f82013567ffffffffffffffff811115610689576106886103b9565b5b6106958482850161062a565b91505092915050565b7f4e6f7420746865206f776e6572210000000000000000000000000000000000005f82015250565b5f6106d2600e836104a5565b91506106dd8261069e565b602082019050919050565b5f6020820190508181035f8301526106ff816106c6565b9050919050565b7f4e487b71000000000000000000000000000000000000000000000000000000005f52603260045260245ffd5b7f4e487b71000000000000000000000000000000000000000000000000000000005f52602260045260245ffd5b5f600282049050600182168061077757607f821691505b60208210810361078a57610789610733565b5b50919050565b5f819050815f5260205f209050919050565b5f6020601f8301049050919050565b5f82821b905092915050565b5f600883026107ec7fffffffffffffffffffffffffffffffffffffffffffffffffffffffffffffffff826107b1565b6107f686836107b1565b95508019841693508086168417925050509392505050565b5f819050919050565b5f61083161082c610827846103bd565b61080e565b6103bd565b9050919050565b5f819050919050565b61084a83610817565b61085e61085682610838565b8484546107bd565b825550505050565b5f5f905090565b610875610866565b610880818484610841565b505050565b5b818110156108a3576108985f8261086d565b600181019050610886565b5050565b601f8211156108e8576108b981610790565b6108c2846107a2565b810160208510156108d1578190505b6108e56108dd856107a2565b830182610885565b50505b505050565b5f82821c905092915050565b5f6109085f19846008026108ed565b1980831691505092915050565b5f61092083836108f9565b9150826002028217905092915050565b6109398261049b565b67ffffffffffffffff81111561095257610951610533565b5b61095c8254610760565b6109678282856108a7565b5f60209050601f831160018114610998575f8415610986578287015190505b6109908582610915565b8655506109f7565b601f1984166109a686610790565b5f5b828110156109cd578489015182556001820191506020850194506020810190506109a8565b868310156109ea57848901516109e6601f8916826108f9565b8355505b6001600288020188555050505b50505050505056fea2646970667358221220f40493825b2812ad097f8a795f6befb1a48b856f96b07bc74c9935b6201a36be64736f6c634300081e0033",
					"opcodes": "PUSH1 0x80 PUSH1 0x40 MSTORE CALLVALUE DUP1 ISZERO PUSH1 0xE JUMPI PUSH0 PUSH0 REVERT JUMPDEST POP CALLER PUSH0 PUSH0 PUSH2 0x100 EXP DUP2 SLOAD DUP2 PUSH20 0xFFFFFFFFFFFFFFFFFFFFFFFFFFFFFFFFFFFFFFFF MUL NOT AND SWAP1 DUP4 PUSH20 0xFFFFFFFFFFFFFFFFFFFFFFFFFFFFFFFFFFFFFFFF AND MUL OR SWAP1 SSTORE POP PUSH2 0xA35 DUP1 PUSH2 0x5B PUSH0 CODECOPY PUSH0 RETURN INVALID PUSH1 0x80 PUSH1 0x40 MSTORE CALLVALUE DUP1 ISZERO PUSH2 0xF JUMPI PUSH0 PUSH0 REVERT JUMPDEST POP PUSH1 0x4 CALLDATASIZE LT PUSH2 0x55 JUMPI PUSH0 CALLDATALOAD PUSH1 0xE0 SHR DUP1 PUSH4 0xBDAD603 EQ PUSH2 0x59 JUMPI DUP1 PUSH4 0x146AF82B EQ PUSH2 0x75 JUMPI DUP1 PUSH4 0x8DA5CB5B EQ PUSH2 0x93 JUMPI DUP1 PUSH4 0xEAD8BE9A EQ PUSH2 0xB1 JUMPI DUP1 PUSH4 0xEC28EB45 EQ PUSH2 0xE1 JUMPI JUMPDEST PUSH0 PUSH0 REVERT JUMPDEST PUSH2 0x73 PUSH1 0x4 DUP1 CALLDATASIZE SUB DUP2 ADD SWAP1 PUSH2 0x6E SWAP2 SWAP1 PUSH2 0x3F0 JUMP JUMPDEST PUSH2 0xFD JUMP JUMPDEST STOP JUMPDEST PUSH2 0x7D PUSH2 0x1B5 JUMP JUMPDEST PUSH1 0x40 MLOAD PUSH2 0x8A SWAP2 SWAP1 PUSH2 0x42A JUMP JUMPDEST PUSH1 0x40 MLOAD DUP1 SWAP2 SUB SWAP1 RETURN JUMPDEST PUSH2 0x9B PUSH2 0x1C1 JUMP JUMPDEST PUSH1 0x40 MLOAD PUSH2 0xA8 SWAP2 SWAP1 PUSH2 0x482 JUMP JUMPDEST PUSH1 0x40 MLOAD DUP1 SWAP2 SUB SWAP1 RETURN JUMPDEST PUSH2 0xCB PUSH1 0x4 DUP1 CALLDATASIZE SUB DUP2 ADD SWAP1 PUSH2 0xC6 SWAP2 SWAP1 PUSH2 0x3F0 JUMP JUMPDEST PUSH2 0x1E5 JUMP JUMPDEST PUSH1 0x40 MLOAD PUSH2 0xD8 SWAP2 SWAP1 PUSH2 0x50B JUMP JUMPDEST PUSH1 0x40 MLOAD DUP1 SWAP2 SUB SWAP1 RETURN JUMPDEST PUSH2 0xFB PUSH1 0x4 DUP1 CALLDATASIZE SUB DUP2 ADD SWAP1 PUSH2 0xF6 SWAP2 SWAP1 PUSH2 0x657 JUMP JUMPDEST PUSH2 0x291 JUMP JUMPDEST STOP JUMPDEST PUSH0 PUSH0 SWAP1 SLOAD SWAP1 PUSH2 0x100 EXP SWAP1 DIV PUSH20 0xFFFFFFFFFFFFFFFFFFFFFFFFFFFFFFFFFFFFFFFF AND PUSH20 0xFFFFFFFFFFFFFFFFFFFFFFFFFFFFFFFFFFFFFFFF AND CALLER PUSH20 0xFFFFFFFFFFFFFFFFFFFFFFFFFFFFFFFFFFFFFFFF AND EQ PUSH2 0x18B JUMPI PUSH1 0x40 MLOAD PUSH32 0x8C379A000000000000000000000000000000000000000000000000000000000 DUP2 MSTORE PUSH1 0x4 ADD PUSH2 0x182 SWAP1 PUSH2 0x6E8 JUMP JUMPDEST PUSH1 0x40 MLOAD DUP1 SWAP2 SUB SWAP1 REVERT JUMPDEST PUSH1 0x1 DUP2 DUP2 SLOAD DUP2 LT PUSH2 0x19F JUMPI PUSH2 0x19E PUSH2 0x706 JUMP JUMPDEST JUMPDEST SWAP1 PUSH0 MSTORE PUSH1 0x20 PUSH0 KECCAK256 ADD PUSH0 PUSH2 0x1B2 SWAP2 SWAP1 PUSH2 0x354 JUMP JUMPDEST POP JUMP JUMPDEST PUSH0 PUSH1 0x1 DUP1 SLOAD SWAP1 POP SWAP1 POP SWAP1 JUMP JUMPDEST PUSH0 PUSH0 SWAP1 SLOAD SWAP1 PUSH2 0x100 EXP SWAP1 DIV PUSH20 0xFFFFFFFFFFFFFFFFFFFFFFFFFFFFFFFFFFFFFFFF AND DUP2 JUMP JUMPDEST PUSH1 0x60 PUSH1 0x1 DUP3 DUP2 SLOAD DUP2 LT PUSH2 0x1FB JUMPI PUSH2 0x1FA PUSH2 0x706 JUMP JUMPDEST JUMPDEST SWAP1 PUSH0 MSTORE PUSH1 0x20 PUSH0 KECCAK256 ADD DUP1 SLOAD PUSH2 0x20E SWAP1 PUSH2 0x760 JUMP JUMPDEST DUP1 PUSH1 0x1F ADD PUSH1 0x20 DUP1 SWAP2 DIV MUL PUSH1 0x20 ADD PUSH1 0x40 MLOAD SWAP1 DUP2 ADD PUSH1 0x40 MSTORE DUP1 SWAP3 SWAP2 SWAP1 DUP2 DUP2 MSTORE PUSH1 0x20 ADD DUP3 DUP1 SLOAD PUSH2 0x23A SWAP1 PUSH2 0x760 JUMP JUMPDEST DUP1 ISZERO PUSH2 0x285 JUMPI DUP1 PUSH1 0x1F LT PUSH2 0x25C JUMPI PUSH2 0x100 DUP1 DUP4 SLOAD DIV MUL DUP4 MSTORE SWAP2 PUSH1 0x20 ADD SWAP2 PUSH2 0x285 JUMP JUMPDEST DUP3 ADD SWAP2 SWAP1 PUSH0 MSTORE PUSH1 0x20 PUSH0 KECCAK256 SWAP1 JUMPDEST DUP2 SLOAD DUP2 MSTORE SWAP1 PUSH1 0x1 ADD SWAP1 PUSH1 0x20 ADD DUP1 DUP4 GT PUSH2 0x268 JUMPI DUP3 SWAP1 SUB PUSH1 0x1F AND DUP3 ADD SWAP2 JUMPDEST POP POP POP POP POP SWAP1 POP SWAP2 SWAP1 POP JUMP JUMPDEST PUSH0 PUSH0 SWAP1 SLOAD SWAP1 PUSH2 0x100 EXP SWAP1 DIV PUSH20 0xFFFFFFFFFFFFFFFFFFFFFFFFFFFFFFFFFFFFFFFF AND PUSH20 0xFFFFFFFFFFFFFFFFFFFFFFFFFFFFFFFFFFFFFFFF AND CALLER PUSH20 0xFFFFFFFFFFFFFFFFFFFFFFFFFFFFFFFFFFFFFFFF AND EQ PUSH2 0x31F JUMPI PUSH1 0x40 MLOAD PUSH32 0x8C379A000000000000000000000000000000000000000000000000000000000 DUP2 MSTORE PUSH1 0x4 ADD PUSH2 0x316 SWAP1 PUSH2 0x6E8 JUMP JUMPDEST PUSH1 0x40 MLOAD DUP1 SWAP2 SUB SWAP1 REVERT JUMPDEST PUSH1 0x1 DUP2 SWAP1 DUP1 PUSH1 0x1 DUP2 SLOAD ADD DUP1 DUP3 SSTORE DUP1 SWAP2 POP POP PUSH1 0x1 SWAP1 SUB SWAP1 PUSH0 MSTORE PUSH1 0x20 PUSH0 KECCAK256 ADD PUSH0 SWAP1 SWAP2 SWAP1 SWAP2 SWAP1 SWAP2 POP SWAP1 DUP2 PUSH2 0x350 SWAP2 SWAP1 PUSH2 0x930 JUMP JUMPDEST POP POP JUMP JUMPDEST POP DUP1 SLOAD PUSH2 0x360 SWAP1 PUSH2 0x760 JUMP JUMPDEST PUSH0 DUP3 SSTORE DUP1 PUSH1 0x1F LT PUSH2 0x371 JUMPI POP PUSH2 0x38E JUMP JUMPDEST PUSH1 0x1F ADD PUSH1 0x20 SWAP1 DIV SWAP1 PUSH0 MSTORE PUSH1 0x20 PUSH0 KECCAK256 SWAP1 DUP2 ADD SWAP1 PUSH2 0x38D SWAP2 SWAP1 PUSH2 0x391 JUMP JUMPDEST JUMPDEST POP JUMP JUMPDEST JUMPDEST DUP1 DUP3 GT ISZERO PUSH2 0x3A8 JUMPI PUSH0 DUP2 PUSH0 SWAP1 SSTORE POP PUSH1 0x1 ADD PUSH2 0x392 JUMP JUMPDEST POP SWAP1 JUMP JUMPDEST PUSH0 PUSH1 0x40 MLOAD SWAP1 POP SWAP1 JUMP JUMPDEST PUSH0 PUSH0 REVERT JUMPDEST PUSH0 PUSH0 REVERT JUMPDEST PUSH0 DUP2 SWAP1 POP SWAP2 SWAP1 POP JUMP JUMPDEST PUSH2 0x3CF DUP2 PUSH2 0x3BD JUMP JUMPDEST DUP2 EQ PUSH2 0x3D9 JUMPI PUSH0 PUSH0 REVERT JUMPDEST POP JUMP JUMPDEST PUSH0 DUP2 CALLDATALOAD SWAP1 POP PUSH2 0x3EA DUP2 PUSH2 0x3C6 JUMP JUMPDEST SWAP3 SWAP2 POP POP JUMP JUMPDEST PUSH0 PUSH1 0x20 DUP3 DUP5 SUB SLT ISZERO PUSH2 0x405 JUMPI PUSH2 0x404 PUSH2 0x3B5 JUMP JUMPDEST JUMPDEST PUSH0 PUSH2 0x412 DUP5 DUP3 DUP6 ADD PUSH2 0x3DC JUMP JUMPDEST SWAP2 POP POP SWAP3 SWAP2 POP POP JUMP JUMPDEST PUSH2 0x424 DUP2 PUSH2 0x3BD JUMP JUMPDEST DUP3 MSTORE POP POP JUMP JUMPDEST PUSH0 PUSH1 0x20 DUP3 ADD SWAP1 POP PUSH2 0x43D PUSH0 DUP4 ADD DUP5 PUSH2 0x41B JUMP JUMPDEST SWAP3 SWAP2 POP POP JUMP JUMPDEST PUSH0 PUSH20 0xFFFFFFFFFFFFFFFFFFFFFFFFFFFFFFFFFFFFFFFF DUP3 AND SWAP1 POP SWAP2 SWAP1 POP JUMP JUMPDEST PUSH0 PUSH2 0x46C DUP3 PUSH2 0x443 JUMP JUMPDEST SWAP1 POP SWAP2 SWAP1 POP JUMP JUMPDEST PUSH2 0x47C DUP2 PUSH2 0x462 JUMP JUMPDEST DUP3 MSTORE POP POP JUMP JUMPDEST PUSH0 PUSH1 0x20 DUP3 ADD SWAP1 POP PUSH2 0x495 PUSH0 DUP4 ADD DUP5 PUSH2 0x473 JUMP JUMPDEST SWAP3 SWAP2 POP POP JUMP JUMPDEST PUSH0 DUP2 MLOAD SWAP1 POP SWAP2 SWAP1 POP JUMP JUMPDEST PUSH0 DUP3 DUP3 MSTORE PUSH1 0x20 DUP3 ADD SWAP1 POP SWAP3 SWAP2 POP POP JUMP JUMPDEST DUP3 DUP2 DUP4 MCOPY PUSH0 DUP4 DUP4 ADD MSTORE POP POP POP JUMP JUMPDEST PUSH0 PUSH1 0x1F NOT PUSH1 0x1F DUP4 ADD AND SWAP1 POP SWAP2 SWAP1 POP JUMP JUMPDEST PUSH0 PUSH2 0x4DD DUP3 PUSH2 0x49B JUMP JUMPDEST PUSH2 0x4E7 DUP2 DUP6 PUSH2 0x4A5 JUMP JUMPDEST SWAP4 POP PUSH2 0x4F7 DUP2 DUP6 PUSH1 0x20 DUP7 ADD PUSH2 0x4B5 JUMP JUMPDEST PUSH2 0x500 DUP2 PUSH2 0x4C3 JUMP JUMPDEST DUP5 ADD SWAP2 POP POP SWAP3 SWAP2 POP POP JUMP JUMPDEST PUSH0 PUSH1 0x20 DUP3 ADD SWAP1 POP DUP2 DUP2 SUB PUSH0 DUP4 ADD MSTORE PUSH2 0x523 DUP2 DUP5 PUSH2 0x4D3 JUMP JUMPDEST SWAP1 POP SWAP3 SWAP2 POP POP JUMP JUMPDEST PUSH0 PUSH0 REVERT JUMPDEST PUSH0 PUSH0 REVERT JUMPDEST PUSH32 0x4E487B7100000000000000000000000000000000000000000000000000000000 PUSH0 MSTORE PUSH1 0x41 PUSH1 0x4 MSTORE PUSH1 0x24 PUSH0 REVERT JUMPDEST PUSH2 0x569 DUP3 PUSH2 0x4C3 JUMP JUMPDEST DUP2 ADD DUP2 DUP2 LT PUSH8 0xFFFFFFFFFFFFFFFF DUP3 GT OR ISZERO PUSH2 0x588 JUMPI PUSH2 0x587 PUSH2 0x533 JUMP JUMPDEST JUMPDEST DUP1 PUSH1 0x40 MSTORE POP POP POP JUMP JUMPDEST PUSH0 PUSH2 0x59A PUSH2 0x3AC JUMP JUMPDEST SWAP1 POP PUSH2 0x5A6 DUP3 DUP3 PUSH2 0x560 JUMP JUMPDEST SWAP2 SWAP1 POP JUMP JUMPDEST PUSH0 PUSH8 0xFFFFFFFFFFFFFFFF DUP3 GT ISZERO PUSH2 0x5C5 JUMPI PUSH2 0x5C4 PUSH2 0x533 JUMP JUMPDEST JUMPDEST PUSH2 0x5CE DUP3 PUSH2 0x4C3 JUMP JUMPDEST SWAP1 POP PUSH1 0x20 DUP2 ADD SWAP1 POP SWAP2 SWAP1 POP JUMP JUMPDEST DUP3 DUP2 DUP4 CALLDATACOPY PUSH0 DUP4 DUP4 ADD MSTORE POP POP POP JUMP JUMPDEST PUSH0 PUSH2 0x5FB PUSH2 0x5F6 DUP5 PUSH2 0x5AB JUMP JUMPDEST PUSH2 0x591 JUMP JUMPDEST SWAP1 POP DUP3 DUP2 MSTORE PUSH1 0x20 DUP2 ADD DUP5 DUP5 DUP5 ADD GT ISZERO PUSH2 0x617 JUMPI PUSH2 0x616 PUSH2 0x52F JUMP JUMPDEST JUMPDEST PUSH2 0x622 DUP5 DUP3 DUP6 PUSH2 0x5DB JUMP JUMPDEST POP SWAP4 SWAP3 POP POP POP JUMP JUMPDEST PUSH0 DUP3 PUSH1 0x1F DUP4 ADD SLT PUSH2 0x63E JUMPI PUSH2 0x63D PUSH2 0x52B JUMP JUMPDEST JUMPDEST DUP2 CALLDATALOAD PUSH2 0x64E DUP5 DUP3 PUSH1 0x20 DUP7 ADD PUSH2 0x5E9 JUMP JUMPDEST SWAP2 POP POP SWAP3 SWAP2 POP POP JUMP JUMPDEST PUSH0 PUSH1 0x20 DUP3 DUP5 SUB SLT ISZERO PUSH2 0x66C JUMPI PUSH2 0x66B PUSH2 0x3B5 JUMP JUMPDEST JUMPDEST PUSH0 DUP3 ADD CALLDATALOAD PUSH8 0xFFFFFFFFFFFFFFFF DUP2 GT ISZERO PUSH2 0x689 JUMPI PUSH2 0x688 PUSH2 0x3B9 JUMP JUMPDEST JUMPDEST PUSH2 0x695 DUP5 DUP3 DUP6 ADD PUSH2 0x62A JUMP JUMPDEST SWAP2 POP POP SWAP3 SWAP2 POP POP JUMP JUMPDEST PUSH32 0x4E6F7420746865206F776E657221000000000000000000000000000000000000 PUSH0 DUP3 ADD MSTORE POP JUMP JUMPDEST PUSH0 PUSH2 0x6D2 PUSH1 0xE DUP4 PUSH2 0x4A5 JUMP JUMPDEST SWAP2 POP PUSH2 0x6DD DUP3 PUSH2 0x69E JUMP JUMPDEST PUSH1 0x20 DUP3 ADD SWAP1 POP SWAP2 SWAP1 POP JUMP JUMPDEST PUSH0 PUSH1 0x20 DUP3 ADD SWAP1 POP DUP2 DUP2 SUB PUSH0 DUP4 ADD MSTORE PUSH2 0x6FF DUP2 PUSH2 0x6C6 JUMP JUMPDEST SWAP1 POP SWAP2 SWAP1 POP JUMP JUMPDEST PUSH32 0x4E487B7100000000000000000000000000000000000000000000000000000000 PUSH0 MSTORE PUSH1 0x32 PUSH1 0x4 MSTORE PUSH1 0x24 PUSH0 REVERT JUMPDEST PUSH32 0x4E487B7100000000000000000000000000000000000000000000000000000000 PUSH0 MSTORE PUSH1 0x22 PUSH1 0x4 MSTORE PUSH1 0x24 PUSH0 REVERT JUMPDEST PUSH0 PUSH1 0x2 DUP3 DIV SWAP1 POP PUSH1 0x1 DUP3 AND DUP1 PUSH2 0x777 JUMPI PUSH1 0x7F DUP3 AND SWAP2 POP JUMPDEST PUSH1 0x20 DUP3 LT DUP2 SUB PUSH2 0x78A JUMPI PUSH2 0x789 PUSH2 0x733 JUMP JUMPDEST JUMPDEST POP SWAP2 SWAP1 POP JUMP JUMPDEST PUSH0 DUP2 SWAP1 POP DUP2 PUSH0 MSTORE PUSH1 0x20 PUSH0 KECCAK256 SWAP1 POP SWAP2 SWAP1 POP JUMP JUMPDEST PUSH0 PUSH1 0x20 PUSH1 0x1F DUP4 ADD DIV SWAP1 POP SWAP2 SWAP1 POP JUMP JUMPDEST PUSH0 DUP3 DUP3 SHL SWAP1 POP SWAP3 SWAP2 POP POP JUMP JUMPDEST PUSH0 PUSH1 0x8 DUP4 MUL PUSH2 0x7EC PUSH32 0xFFFFFFFFFFFFFFFFFFFFFFFFFFFFFFFFFFFFFFFFFFFFFFFFFFFFFFFFFFFFFFFF DUP3 PUSH2 0x7B1 JUMP JUMPDEST PUSH2 0x7F6 DUP7 DUP4 PUSH2 0x7B1 JUMP JUMPDEST SWAP6 POP DUP1 NOT DUP5 AND SWAP4 POP DUP1 DUP7 AND DUP5 OR SWAP3 POP POP POP SWAP4 SWAP3 POP POP POP JUMP JUMPDEST PUSH0 DUP2 SWAP1 POP SWAP2 SWAP1 POP JUMP JUMPDEST PUSH0 PUSH2 0x831 PUSH2 0x82C PUSH2 0x827 DUP5 PUSH2 0x3BD JUMP JUMPDEST PUSH2 0x80E JUMP JUMPDEST PUSH2 0x3BD JUMP JUMPDEST SWAP1 POP SWAP2 SWAP1 POP JUMP JUMPDEST PUSH0 DUP2 SWAP1 POP SWAP2 SWAP1 POP JUMP JUMPDEST PUSH2 0x84A DUP4 PUSH2 0x817 JUMP JUMPDEST PUSH2 0x85E PUSH2 0x856 DUP3 PUSH2 0x838 JUMP JUMPDEST DUP5 DUP5 SLOAD PUSH2 0x7BD JUMP JUMPDEST DUP3 SSTORE POP POP POP POP JUMP JUMPDEST PUSH0 PUSH0 SWAP1 POP SWAP1 JUMP JUMPDEST PUSH2 0x875 PUSH2 0x866 JUMP JUMPDEST PUSH2 0x880 DUP2 DUP5 DUP5 PUSH2 0x841 JUMP JUMPDEST POP POP POP JUMP JUMPDEST JUMPDEST DUP2 DUP2 LT ISZERO PUSH2 0x8A3 JUMPI PUSH2 0x898 PUSH0 DUP3 PUSH2 0x86D JUMP JUMPDEST PUSH1 0x1 DUP2 ADD SWAP1 POP PUSH2 0x886 JUMP JUMPDEST POP POP JUMP JUMPDEST PUSH1 0x1F DUP3 GT ISZERO PUSH2 0x8E8 JUMPI PUSH2 0x8B9 DUP2 PUSH2 0x790 JUMP JUMPDEST PUSH2 0x8C2 DUP5 PUSH2 0x7A2 JUMP JUMPDEST DUP2 ADD PUSH1 0x20 DUP6 LT ISZERO PUSH2 0x8D1 JUMPI DUP2 SWAP1 POP JUMPDEST PUSH2 0x8E5 PUSH2 0x8DD DUP6 PUSH2 0x7A2 JUMP JUMPDEST DUP4 ADD DUP3 PUSH2 0x885 JUMP JUMPDEST POP POP JUMPDEST POP POP POP JUMP JUMPDEST PUSH0 DUP3 DUP3 SHR SWAP1 POP SWAP3 SWAP2 POP POP JUMP JUMPDEST PUSH0 PUSH2 0x908 PUSH0 NOT DUP5 PUSH1 0x8 MUL PUSH2 0x8ED JUMP JUMPDEST NOT DUP1 DUP4 AND SWAP2 POP POP SWAP3 SWAP2 POP POP JUMP JUMPDEST PUSH0 PUSH2 0x920 DUP4 DUP4 PUSH2 0x8F9 JUMP JUMPDEST SWAP2 POP DUP3 PUSH1 0x2 MUL DUP3 OR SWAP1 POP SWAP3 SWAP2 POP POP JUMP JUMPDEST PUSH2 0x939 DUP3 PUSH2 0x49B JUMP JUMPDEST PUSH8 0xFFFFFFFFFFFFFFFF DUP2 GT ISZERO PUSH2 0x952 JUMPI PUSH2 0x951 PUSH2 0x533 JUMP JUMPDEST JUMPDEST PUSH2 0x95C DUP3 SLOAD PUSH2 0x760 JUMP JUMPDEST PUSH2 0x967 DUP3 DUP3 DUP6 PUSH2 0x8A7 JUMP JUMPDEST PUSH0 PUSH1 0x20 SWAP1 POP PUSH1 0x1F DUP4 GT PUSH1 0x1 DUP2 EQ PUSH2 0x998 JUMPI PUSH0 DUP5 ISZERO PUSH2 0x986 JUMPI DUP3 DUP8 ADD MLOAD SWAP1 POP JUMPDEST PUSH2 0x990 DUP6 DUP3 PUSH2 0x915 JUMP JUMPDEST DUP7 SSTORE POP PUSH2 0x9F7 JUMP JUMPDEST PUSH1 0x1F NOT DUP5 AND PUSH2 0x9A6 DUP7 PUSH2 0x790 JUMP JUMPDEST PUSH0 JUMPDEST DUP3 DUP2 LT ISZERO PUSH2 0x9CD JUMPI DUP5 DUP10 ADD MLOAD DUP3 SSTORE PUSH1 0x1 DUP3 ADD SWAP2 POP PUSH1 0x20 DUP6 ADD SWAP5 POP PUSH1 0x20 DUP2 ADD SWAP1 POP PUSH2 0x9A8 JUMP JUMPDEST DUP7 DUP4 LT ISZERO PUSH2 0x9EA JUMPI DUP5 DUP10 ADD MLOAD PUSH2 0x9E6 PUSH1 0x1F DUP10 AND DUP3 PUSH2 0x8F9 JUMP JUMPDEST DUP4 SSTORE POP JUMPDEST PUSH1 0x1 PUSH1 0x2 DUP9 MUL ADD DUP9 SSTORE POP POP POP JUMPDEST POP POP POP POP POP POP JUMP INVALID LOG2 PUSH5 0x6970667358 0x22 SLT KECCAK256 DELEGATECALL DIV SWAP4 DUP3 JUMPDEST 0x28 SLT 0xAD MULMOD PUSH32 0x8A795F6BEFB1A48B856F96B07BC74C9935B6201A36BE64736F6C634300081E00 CALLER "
				},
				"gasEstimates": {
					"creation": {
						"codeDepositCost": "522600",
						"executionCost": "24818",
						"totalCost": "547418"
					},
					"external": {
						"addnote(string)": "infinite",
						"deletenote(uint256)": "infinite",
						"getcount()": "2440",
						"getnote(uint256)": "infinite",
						"owner()": "2529"
					}
				},
				"methodIdentifiers": {
					"addnote(string)": "ec28eb45",
					"deletenote(uint256)": "0bdad603",
					"getcount()": "146af82b",
					"getnote(uint256)": "ead8be9a",
					"owner()": "8da5cb5b"
				}
			},
			"storageLayout": {
				"storage": [
					{
						"astId": 3,
						"contract": "securenotes.sol:SecureNotes",
						"label": "owner",
						"offset": 0,
						"slot": "0",
						"type": "t_address"
					},
					{
						"astId": 6,
						"contract": "securenotes.sol:SecureNotes",
						"label": "notes",
						"offset": 0,
						"slot": "1",
						"type": "t_array(t_string_storage)dyn_storage"
					}
				],
				"types": {
					"t_address": {
						"encoding": "inplace",
						"label": "address",
						"numberOfBytes": "20"
					},
					"t_array(t_string_storage)dyn_storage": {
						"base": "t_string_storage",
						"encoding": "dynamic_array",
						"label": "string[]",
						"numberOfBytes": "32"
					},
					"t_string_storage": {
						"encoding": "bytes",
						"label": "string",
						"numberOfBytes": "32"
					}
				}
			},
			"userdoc": {
				"kind": "user",
				"methods": {},
				"version": 1
			}
		}
	}
}