{
	"structs.sol": {
		"structs": {
			"abi": [
				{
					"inputs": [],
					"name": "mystudent",
					"outputs": [
						{
							"internalType": "string",
							"name": "name",
							"type": "string"
						},
						{
							"internalType": "uint256",
							"name": "age",
							"type": "uint256"
						},
						{
							"internalType": "bool",
							"name": "passed",
							"type": "bool"
						}
					],
					"stateMutability": "view",
					"type": "function"
				},
				{
					"inputs": [
						{
							"internalType": "string",
							"name": "_name",
							"type": "string"
						},
						{
							"internalType": "uint256",
							"name": "_age",
							"type": "uint256"
						},
						{
							"internalType": "bool",
							"name": "_passed",
							"type": "bool"
						}
					],
					"name": "setstudents",
					"outputs": [],
					"stateMutability": "nonpayable",
					"type": "function"
				}
			],
			"devdoc": {
				"kind": "dev",
				"methods": {},
				"version": 1
			},
			"evm": {
				"assembly": "    /* \"structs.sol\":59:355  contract structs {... */\n  mstore(0x40, 0x80)\n  callvalue\n  dup1\n  iszero\n  tag_1\n  jumpi\n  revert(0x00, 0x00)\ntag_1:\n  pop\n  dataSize(sub_0)\n  dup1\n  dataOffset(sub_0)\n  0x00\n  codecopy\n  0x00\n  return\nstop\n\nsub_0: assembly {\n        /* \"structs.sol\":59:355  contract structs {... */\n      mstore(0x40, 0x80)\n      callvalue\n      dup1\n      iszero\n      tag_1\n      jumpi\n      revert(0x00, 0x00)\n    tag_1:\n      pop\n      jumpi(tag_2, lt(calldatasize, 0x04))\n      shr(0xe0, calldataload(0x00))\n      dup1\n      0x78d8a3e4\n      eq\n      tag_3\n      jumpi\n      dup1\n      0xe4f2415c\n      eq\n      tag_4\n      jumpi\n    tag_2:\n      revert(0x00, 0x00)\n        /* \"structs.sol\":184:209  students public mystudent */\n    tag_3:\n      tag_5\n      tag_6\n      jump\t// in\n    tag_5:\n      mload(0x40)\n      tag_7\n      swap4\n      swap3\n      swap2\n      swap1\n      tag_8\n      jump\t// in\n    tag_7:\n      mload(0x40)\n      dup1\n      swap2\n      sub\n      swap1\n      return\n        /* \"structs.sol\":216:352  function setstudents(string memory _name, uint _age, bool _passed) public  {... */\n    tag_4:\n      tag_9\n      0x04\n      dup1\n      calldatasize\n      sub\n      dup2\n      add\n      swap1\n      tag_10\n      swap2\n      swap1\n      tag_11\n      jump\t// in\n    tag_10:\n      tag_12\n      jump\t// in\n    tag_9:\n      stop\n        /* \"structs.sol\":184:209  students public mystudent */\n    tag_6:\n      0x00\n      dup1\n      0x00\n      add\n      dup1\n      sload\n      tag_13\n      swap1\n      tag_14\n      jump\t// in\n    tag_13:\n      dup1\n      0x1f\n      add\n      0x20\n      dup1\n      swap2\n      div\n      mul\n      0x20\n      add\n      mload(0x40)\n      swap1\n      dup2\n      add\n      0x40\n      mstore\n      dup1\n      swap3\n      swap2\n      swap1\n      dup2\n      dup2\n      mstore\n      0x20\n      add\n      dup3\n      dup1\n      sload\n      tag_15\n      swap1\n      tag_14\n      jump\t// in\n    tag_15:\n      dup1\n      iszero\n      tag_16\n      jumpi\n      dup1\n      0x1f\n      lt\n      tag_17\n      jumpi\n      0x0100\n      dup1\n      dup4\n      sload\n      div\n      mul\n      dup4\n      mstore\n      swap2\n      0x20\n      add\n      swap2\n      jump(tag_16)\n    tag_17:\n      dup3\n      add\n      swap2\n      swap1\n      0x00\n      mstore\n      keccak256(0x00, 0x20)\n      swap1\n    tag_18:\n      dup2\n      sload\n      dup2\n      mstore\n      swap1\n      0x01\n      add\n      swap1\n      0x20\n      add\n      dup1\n      dup4\n      gt\n      tag_18\n      jumpi\n      dup3\n      swap1\n      sub\n      0x1f\n      and\n      dup3\n      add\n      swap2\n    tag_16:\n      pop\n      pop\n      pop\n      pop\n      pop\n      swap1\n      dup1\n      0x01\n      add\n      sload\n      swap1\n      dup1\n      0x02\n      add\n      0x00\n      swap1\n      sload\n      swap1\n      0x0100\n      exp\n      swap1\n      div\n      0xff\n      and\n      swap1\n      pop\n      dup4\n      jump\t// out\n        /* \"structs.sol\":216:352  function setstudents(string memory _name, uint _age, bool _passed) public  {... */\n    tag_12:\n        /* \"structs.sol\":314:344  students(_name, _age, _passed) */\n      mload(0x40)\n      dup1\n      0x60\n      add\n      0x40\n      mstore\n      dup1\n        /* \"structs.sol\":323:328  _name */\n      dup5\n        /* \"structs.sol\":314:344  students(_name, _age, _passed) */\n      dup2\n      mstore\n      0x20\n      add\n        /* \"structs.sol\":330:334  _age */\n      dup4\n        /* \"structs.sol\":314:344  students(_name, _age, _passed) */\n      dup2\n      mstore\n      0x20\n      add\n        /* \"structs.sol\":336:343  _passed */\n      dup3\n        /* \"structs.sol\":314:344  students(_name, _age, _passed) */\n      iszero\n      iszero\n      dup2\n      mstore\n      pop\n        /* \"structs.sol\":302:311  mystudent */\n      0x00\n        /* \"structs.sol\":302:344  mystudent = students(_name, _age, _passed) */\n      0x00\n      dup3\n      add\n      mload\n      dup2\n      0x00\n      add\n      swap1\n      dup2\n      tag_20\n      swap2\n      swap1\n      tag_21\n      jump\t// in\n    tag_20:\n      pop\n      0x20\n      dup3\n      add\n      mload\n      dup2\n      0x01\n      add\n      sstore\n      0x40\n      dup3\n      add\n      mload\n      dup2\n      0x02\n      add\n      exp(0x0100, 0x00)\n      dup2\n      sload\n      dup2\n      0xff\n      mul\n      not\n      and\n      swap1\n      dup4\n      iszero\n      iszero\n      mul\n      or\n      swap1\n      sstore\n      pop\n      swap1\n      pop\n      pop\n        /* \"structs.sol\":216:352  function setstudents(string memory _name, uint _age, bool _passed) public  {... */\n      pop\n      pop\n      pop\n      jump\t// out\n        /* \"#utility.yul\":7:106   */\n    tag_22:\n        /* \"#utility.yul\":59:65   */\n      0x00\n        /* \"#utility.yul\":93:98   */\n      dup2\n        /* \"#utility.yul\":87:99   */\n      mload\n        /* \"#utility.yul\":77:99   */\n      swap1\n      pop\n        /* \"#utility.yul\":7:106   */\n      swap2\n      swap1\n      pop\n      jump\t// out\n        /* \"#utility.yul\":112:281   */\n    tag_23:\n        /* \"#utility.yul\":196:207   */\n      0x00\n        /* \"#utility.yul\":230:236   */\n      dup3\n        /* \"#utility.yul\":225:228   */\n      dup3\n        /* \"#utility.yul\":218:237   */\n      mstore\n        /* \"#utility.yul\":270:274   */\n      0x20\n        /* \"#utility.yul\":265:268   */\n      dup3\n        /* \"#utility.yul\":261:275   */\n      add\n        /* \"#utility.yul\":246:275   */\n      swap1\n      pop\n        /* \"#utility.yul\":112:281   */\n      swap3\n      swap2\n      pop\n      pop\n      jump\t// out\n        /* \"#utility.yul\":287:426   */\n    tag_24:\n        /* \"#utility.yul\":376:382   */\n      dup3\n        /* \"#utility.yul\":371:374   */\n      dup2\n        /* \"#utility.yul\":366:369   */\n      dup4\n        /* \"#utility.yul\":360:383   */\n      mcopy\n        /* \"#utility.yul\":417:418   */\n      0x00\n        /* \"#utility.yul\":408:414   */\n      dup4\n        /* \"#utility.yul\":403:406   */\n      dup4\n        /* \"#utility.yul\":399:415   */\n      add\n        /* \"#utility.yul\":392:419   */\n      mstore\n        /* \"#utility.yul\":287:426   */\n      pop\n      pop\n      pop\n      jump\t// out\n        /* \"#utility.yul\":432:534   */\n    tag_25:\n        /* \"#utility.yul\":473:479   */\n      0x00\n        /* \"#utility.yul\":524:526   */\n      0x1f\n        /* \"#utility.yul\":520:527   */\n      not\n        /* \"#utility.yul\":515:517   */\n      0x1f\n        /* \"#utility.yul\":508:513   */\n      dup4\n        /* \"#utility.yul\":504:518   */\n      add\n        /* \"#utility.yul\":500:528   */\n      and\n        /* \"#utility.yul\":490:528   */\n      swap1\n      pop\n        /* \"#utility.yul\":432:534   */\n      swap2\n      swap1\n      pop\n      jump\t// out\n        /* \"#utility.yul\":540:917   */\n    tag_26:\n        /* \"#utility.yul\":628:631   */\n      0x00\n        /* \"#utility.yul\":656:695   */\n      tag_69\n        /* \"#utility.yul\":689:694   */\n      dup3\n        /* \"#utility.yul\":656:695   */\n      tag_22\n      jump\t// in\n    tag_69:\n        /* \"#utility.yul\":711:782   */\n      tag_70\n        /* \"#utility.yul\":775:781   */\n      dup2\n        /* \"#utility.yul\":770:773   */\n      dup6\n        /* \"#utility.yul\":711:782   */\n      tag_23\n      jump\t// in\n    tag_70:\n        /* \"#utility.yul\":704:782   */\n      swap4\n      pop\n        /* \"#utility.yul\":791:856   */\n      tag_71\n        /* \"#utility.yul\":849:855   */\n      dup2\n        /* \"#utility.yul\":844:847   */\n      dup6\n        /* \"#utility.yul\":837:841   */\n      0x20\n        /* \"#utility.yul\":830:835   */\n      dup7\n        /* \"#utility.yul\":826:842   */\n      add\n        /* \"#utility.yul\":791:856   */\n      tag_24\n      jump\t// in\n    tag_71:\n        /* \"#utility.yul\":881:910   */\n      tag_72\n        /* \"#utility.yul\":903:909   */\n      dup2\n        /* \"#utility.yul\":881:910   */\n      tag_25\n      jump\t// in\n    tag_72:\n        /* \"#utility.yul\":876:879   */\n      dup5\n        /* \"#utility.yul\":872:911   */\n      add\n        /* \"#utility.yul\":865:911   */\n      swap2\n      pop\n        /* \"#utility.yul\":632:917   */\n      pop\n        /* \"#utility.yul\":540:917   */\n      swap3\n      swap2\n      pop\n      pop\n      jump\t// out\n        /* \"#utility.yul\":923:1000   */\n    tag_27:\n        /* \"#utility.yul\":960:967   */\n      0x00\n        /* \"#utility.yul\":989:994   */\n      dup2\n        /* \"#utility.yul\":978:994   */\n      swap1\n      pop\n        /* \"#utility.yul\":923:1000   */\n      swap2\n      swap1\n      pop\n      jump\t// out\n        /* \"#utility.yul\":1006:1124   */\n    tag_28:\n        /* \"#utility.yul\":1093:1117   */\n      tag_75\n        /* \"#utility.yul\":1111:1116   */\n      dup2\n        /* \"#utility.yul\":1093:1117   */\n      tag_27\n      jump\t// in\n    tag_75:\n        /* \"#utility.yul\":1088:1091   */\n      dup3\n        /* \"#utility.yul\":1081:1118   */\n      mstore\n        /* \"#utility.yul\":1006:1124   */\n      pop\n      pop\n      jump\t// out\n        /* \"#utility.yul\":1130:1220   */\n    tag_29:\n        /* \"#utility.yul\":1164:1171   */\n      0x00\n        /* \"#utility.yul\":1207:1212   */\n      dup2\n        /* \"#utility.yul\":1200:1213   */\n      iszero\n        /* \"#utility.yul\":1193:1214   */\n      iszero\n        /* \"#utility.yul\":1182:1214   */\n      swap1\n      pop\n        /* \"#utility.yul\":1130:1220   */\n      swap2\n      swap1\n      pop\n      jump\t// out\n        /* \"#utility.yul\":1226:1335   */\n    tag_30:\n        /* \"#utility.yul\":1307:1328   */\n      tag_78\n        /* \"#utility.yul\":1322:1327   */\n      dup2\n        /* \"#utility.yul\":1307:1328   */\n      tag_29\n      jump\t// in\n    tag_78:\n        /* \"#utility.yul\":1302:1305   */\n      dup3\n        /* \"#utility.yul\":1295:1329   */\n      mstore\n        /* \"#utility.yul\":1226:1335   */\n      pop\n      pop\n      jump\t// out\n        /* \"#utility.yul\":1341:1862   */\n    tag_8:\n        /* \"#utility.yul\":1504:1508   */\n      0x00\n        /* \"#utility.yul\":1542:1544   */\n      0x60\n        /* \"#utility.yul\":1531:1540   */\n      dup3\n        /* \"#utility.yul\":1527:1545   */\n      add\n        /* \"#utility.yul\":1519:1545   */\n      swap1\n      pop\n        /* \"#utility.yul\":1591:1600   */\n      dup2\n        /* \"#utility.yul\":1585:1589   */\n      dup2\n        /* \"#utility.yul\":1581:1601   */\n      sub\n        /* \"#utility.yul\":1577:1578   */\n      0x00\n        /* \"#utility.yul\":1566:1575   */\n      dup4\n        /* \"#utility.yul\":1562:1579   */\n      add\n        /* \"#utility.yul\":1555:1602   */\n      mstore\n        /* \"#utility.yul\":1619:1697   */\n      tag_80\n        /* \"#utility.yul\":1692:1696   */\n      dup2\n        /* \"#utility.yul\":1683:1689   */\n      dup7\n        /* \"#utility.yul\":1619:1697   */\n      tag_26\n      jump\t// in\n    tag_80:\n        /* \"#utility.yul\":1611:1697   */\n      swap1\n      pop\n        /* \"#utility.yul\":1707:1779   */\n      tag_81\n        /* \"#utility.yul\":1775:1777   */\n      0x20\n        /* \"#utility.yul\":1764:1773   */\n      dup4\n        /* \"#utility.yul\":1760:1778   */\n      add\n        /* \"#utility.yul\":1751:1757   */\n      dup6\n        /* \"#utility.yul\":1707:1779   */\n      tag_28\n      jump\t// in\n    tag_81:\n        /* \"#utility.yul\":1789:1855   */\n      tag_82\n        /* \"#utility.yul\":1851:1853   */\n      0x40\n        /* \"#utility.yul\":1840:1849   */\n      dup4\n        /* \"#utility.yul\":1836:1854   */\n      add\n        /* \"#utility.yul\":1827:1833   */\n      dup5\n        /* \"#utility.yul\":1789:1855   */\n      tag_30\n      jump\t// in\n    tag_82:\n        /* \"#utility.yul\":1341:1862   */\n      swap5\n      swap4\n      pop\n      pop\n      pop\n      pop\n      jump\t// out\n        /* \"#utility.yul\":1868:1943   */\n    tag_31:\n        /* \"#utility.yul\":1901:1907   */\n      0x00\n        /* \"#utility.yul\":1934:1936   */\n      0x40\n        /* \"#utility.yul\":1928:1937   */\n      mload\n        /* \"#utility.yul\":1918:1937   */\n      swap1\n      pop\n        /* \"#utility.yul\":1868:1943   */\n      swap1\n      jump\t// out\n        /* \"#utility.yul\":1949:2066   */\n    tag_32:\n        /* \"#utility.yul\":2058:2059   */\n      0x00\n        /* \"#utility.yul\":2055:2056   */\n      0x00\n        /* \"#utility.yul\":2048:2060   */\n      revert\n        /* \"#utility.yul\":2072:2189   */\n    tag_33:\n        /* \"#utility.yul\":2181:2182   */\n      0x00\n        /* \"#utility.yul\":2178:2179   */\n      0x00\n        /* \"#utility.yul\":2171:2183   */\n      revert\n        /* \"#utility.yul\":2195:2312   */\n    tag_34:\n        /* \"#utility.yul\":2304:2305   */\n      0x00\n        /* \"#utility.yul\":2301:2302   */\n      0x00\n        /* \"#utility.yul\":2294:2306   */\n      revert\n        /* \"#utility.yul\":2318:2435   */\n    tag_35:\n        /* \"#utility.yul\":2427:2428   */\n      0x00\n        /* \"#utility.yul\":2424:2425   */\n      0x00\n        /* \"#utility.yul\":2417:2429   */\n      revert\n        /* \"#utility.yul\":2441:2621   */\n    tag_36:\n        /* \"#utility.yul\":2489:2566   */\n      0x4e487b7100000000000000000000000000000000000000000000000000000000\n        /* \"#utility.yul\":2486:2487   */\n      0x00\n        /* \"#utility.yul\":2479:2567   */\n      mstore\n        /* \"#utility.yul\":2586:2590   */\n      0x41\n        /* \"#utility.yul\":2583:2584   */\n      0x04\n        /* \"#utility.yul\":2576:2591   */\n      mstore\n        /* \"#utility.yul\":2610:2614   */\n      0x24\n        /* \"#utility.yul\":2607:2608   */\n      0x00\n        /* \"#utility.yul\":2600:2615   */\n      revert\n        /* \"#utility.yul\":2627:2908   */\n    tag_37:\n        /* \"#utility.yul\":2710:2737   */\n      tag_90\n        /* \"#utility.yul\":2732:2736   */\n      dup3\n        /* \"#utility.yul\":2710:2737   */\n      tag_25\n      jump\t// in\n    tag_90:\n        /* \"#utility.yul\":2702:2708   */\n      dup2\n        /* \"#utility.yul\":2698:2738   */\n      add\n        /* \"#utility.yul\":2840:2846   */\n      dup2\n        /* \"#utility.yul\":2828:2838   */\n      dup2\n        /* \"#utility.yul\":2825:2847   */\n      lt\n        /* \"#utility.yul\":2804:2822   */\n      0xffffffffffffffff\n        /* \"#utility.yul\":2792:2802   */\n      dup3\n        /* \"#utility.yul\":2789:2823   */\n      gt\n        /* \"#utility.yul\":2786:2848   */\n      or\n        /* \"#utility.yul\":2783:2871   */\n      iszero\n      tag_91\n      jumpi\n        /* \"#utility.yul\":2851:2869   */\n      tag_92\n      tag_36\n      jump\t// in\n    tag_92:\n        /* \"#utility.yul\":2783:2871   */\n    tag_91:\n        /* \"#utility.yul\":2891:2901   */\n      dup1\n        /* \"#utility.yul\":2887:2889   */\n      0x40\n        /* \"#utility.yul\":2880:2902   */\n      mstore\n        /* \"#utility.yul\":2670:2908   */\n      pop\n        /* \"#utility.yul\":2627:2908   */\n      pop\n      pop\n      jump\t// out\n        /* \"#utility.yul\":2914:3043   */\n    tag_38:\n        /* \"#utility.yul\":2948:2954   */\n      0x00\n        /* \"#utility.yul\":2975:2995   */\n      tag_94\n      tag_31\n      jump\t// in\n    tag_94:\n        /* \"#utility.yul\":2965:2995   */\n      swap1\n      pop\n        /* \"#utility.yul\":3004:3037   */\n      tag_95\n        /* \"#utility.yul\":3032:3036   */\n      dup3\n        /* \"#utility.yul\":3024:3030   */\n      dup3\n        /* \"#utility.yul\":3004:3037   */\n      tag_37\n      jump\t// in\n    tag_95:\n        /* \"#utility.yul\":2914:3043   */\n      swap2\n      swap1\n      pop\n      jump\t// out\n        /* \"#utility.yul\":3049:3357   */\n    tag_39:\n        /* \"#utility.yul\":3111:3115   */\n      0x00\n        /* \"#utility.yul\":3201:3219   */\n      0xffffffffffffffff\n        /* \"#utility.yul\":3193:3199   */\n      dup3\n        /* \"#utility.yul\":3190:3220   */\n      gt\n        /* \"#utility.yul\":3187:3243   */\n      iszero\n      tag_97\n      jumpi\n        /* \"#utility.yul\":3223:3241   */\n      tag_98\n      tag_36\n      jump\t// in\n    tag_98:\n        /* \"#utility.yul\":3187:3243   */\n    tag_97:\n        /* \"#utility.yul\":3261:3290   */\n      tag_99\n        /* \"#utility.yul\":3283:3289   */\n      dup3\n        /* \"#utility.yul\":3261:3290   */\n      tag_25\n      jump\t// in\n    tag_99:\n        /* \"#utility.yul\":3253:3290   */\n      swap1\n      pop\n        /* \"#utility.yul\":3345:3349   */\n      0x20\n        /* \"#utility.yul\":3339:3343   */\n      dup2\n        /* \"#utility.yul\":3335:3350   */\n      add\n        /* \"#utility.yul\":3327:3350   */\n      swap1\n      pop\n        /* \"#utility.yul\":3049:3357   */\n      swap2\n      swap1\n      pop\n      jump\t// out\n        /* \"#utility.yul\":3363:3511   */\n    tag_40:\n        /* \"#utility.yul\":3461:3467   */\n      dup3\n        /* \"#utility.yul\":3456:3459   */\n      dup2\n        /* \"#utility.yul\":3451:3454   */\n      dup4\n        /* \"#utility.yul\":3438:3468   */\n      calldatacopy\n        /* \"#utility.yul\":3502:3503   */\n      0x00\n        /* \"#utility.yul\":3493:3499   */\n      dup4\n        /* \"#utility.yul\":3488:3491   */\n      dup4\n        /* \"#utility.yul\":3484:3500   */\n      add\n        /* \"#utility.yul\":3477:3504   */\n      mstore\n        /* \"#utility.yul\":3363:3511   */\n      pop\n      pop\n      pop\n      jump\t// out\n        /* \"#utility.yul\":3517:3942   */\n    tag_41:\n        /* \"#utility.yul\":3595:3600   */\n      0x00\n        /* \"#utility.yul\":3620:3686   */\n      tag_102\n        /* \"#utility.yul\":3636:3685   */\n      tag_103\n        /* \"#utility.yul\":3678:3684   */\n      dup5\n        /* \"#utility.yul\":3636:3685   */\n      tag_39\n      jump\t// in\n    tag_103:\n        /* \"#utility.yul\":3620:3686   */\n      tag_38\n      jump\t// in\n    tag_102:\n        /* \"#utility.yul\":3611:3686   */\n      swap1\n      pop\n        /* \"#utility.yul\":3709:3715   */\n      dup3\n        /* \"#utility.yul\":3702:3707   */\n      dup2\n        /* \"#utility.yul\":3695:3716   */\n      mstore\n        /* \"#utility.yul\":3747:3751   */\n      0x20\n        /* \"#utility.yul\":3740:3745   */\n      dup2\n        /* \"#utility.yul\":3736:3752   */\n      add\n        /* \"#utility.yul\":3785:3788   */\n      dup5\n        /* \"#utility.yul\":3776:3782   */\n      dup5\n        /* \"#utility.yul\":3771:3774   */\n      dup5\n        /* \"#utility.yul\":3767:3783   */\n      add\n        /* \"#utility.yul\":3764:3789   */\n      gt\n        /* \"#utility.yul\":3761:3873   */\n      iszero\n      tag_104\n      jumpi\n        /* \"#utility.yul\":3792:3871   */\n      tag_105\n      tag_35\n      jump\t// in\n    tag_105:\n        /* \"#utility.yul\":3761:3873   */\n    tag_104:\n        /* \"#utility.yul\":3882:3936   */\n      tag_106\n        /* \"#utility.yul\":3929:3935   */\n      dup5\n        /* \"#utility.yul\":3924:3927   */\n      dup3\n        /* \"#utility.yul\":3919:3922   */\n      dup6\n        /* \"#utility.yul\":3882:3936   */\n      tag_40\n      jump\t// in\n    tag_106:\n        /* \"#utility.yul\":3601:3942   */\n      pop\n        /* \"#utility.yul\":3517:3942   */\n      swap4\n      swap3\n      pop\n      pop\n      pop\n      jump\t// out\n        /* \"#utility.yul\":3962:4302   */\n    tag_42:\n        /* \"#utility.yul\":4018:4023   */\n      0x00\n        /* \"#utility.yul\":4067:4070   */\n      dup3\n        /* \"#utility.yul\":4060:4064   */\n      0x1f\n        /* \"#utility.yul\":4052:4058   */\n      dup4\n        /* \"#utility.yul\":4048:4065   */\n      add\n        /* \"#utility.yul\":4044:4071   */\n      slt\n        /* \"#utility.yul\":4034:4156   */\n      tag_108\n      jumpi\n        /* \"#utility.yul\":4075:4154   */\n      tag_109\n      tag_34\n      jump\t// in\n    tag_109:\n        /* \"#utility.yul\":4034:4156   */\n    tag_108:\n        /* \"#utility.yul\":4192:4198   */\n      dup2\n        /* \"#utility.yul\":4179:4199   */\n      calldataload\n        /* \"#utility.yul\":4217:4296   */\n      tag_110\n        /* \"#utility.yul\":4292:4295   */\n      dup5\n        /* \"#utility.yul\":4284:4290   */\n      dup3\n        /* \"#utility.yul\":4277:4281   */\n      0x20\n        /* \"#utility.yul\":4269:4275   */\n      dup7\n        /* \"#utility.yul\":4265:4282   */\n      add\n        /* \"#utility.yul\":4217:4296   */\n      tag_41\n      jump\t// in\n    tag_110:\n        /* \"#utility.yul\":4208:4296   */\n      swap2\n      pop\n        /* \"#utility.yul\":4024:4302   */\n      pop\n        /* \"#utility.yul\":3962:4302   */\n      swap3\n      swap2\n      pop\n      pop\n      jump\t// out\n        /* \"#utility.yul\":4308:4430   */\n    tag_43:\n        /* \"#utility.yul\":4381:4405   */\n      tag_112\n        /* \"#utility.yul\":4399:4404   */\n      dup2\n        /* \"#utility.yul\":4381:4405   */\n      tag_27\n      jump\t// in\n    tag_112:\n        /* \"#utility.yul\":4374:4379   */\n      dup2\n        /* \"#utility.yul\":4371:4406   */\n      eq\n        /* \"#utility.yul\":4361:4424   */\n      tag_113\n      jumpi\n        /* \"#utility.yul\":4420:4421   */\n      0x00\n        /* \"#utility.yul\":4417:4418   */\n      0x00\n        /* \"#utility.yul\":4410:4422   */\n      revert\n        /* \"#utility.yul\":4361:4424   */\n    tag_113:\n        /* \"#utility.yul\":4308:4430   */\n      pop\n      jump\t// out\n        /* \"#utility.yul\":4436:4575   */\n    tag_44:\n        /* \"#utility.yul\":4482:4487   */\n      0x00\n        /* \"#utility.yul\":4520:4526   */\n      dup2\n        /* \"#utility.yul\":4507:4527   */\n      calldataload\n        /* \"#utility.yul\":4498:4527   */\n      swap1\n      pop\n        /* \"#utility.yul\":4536:4569   */\n      tag_115\n        /* \"#utility.yul\":4563:4568   */\n      dup2\n        /* \"#utility.yul\":4536:4569   */\n      tag_43\n      jump\t// in\n    tag_115:\n        /* \"#utility.yul\":4436:4575   */\n      swap3\n      swap2\n      pop\n      pop\n      jump\t// out\n        /* \"#utility.yul\":4581:4697   */\n    tag_45:\n        /* \"#utility.yul\":4651:4672   */\n      tag_117\n        /* \"#utility.yul\":4666:4671   */\n      dup2\n        /* \"#utility.yul\":4651:4672   */\n      tag_29\n      jump\t// in\n    tag_117:\n        /* \"#utility.yul\":4644:4649   */\n      dup2\n        /* \"#utility.yul\":4641:4673   */\n      eq\n        /* \"#utility.yul\":4631:4691   */\n      tag_118\n      jumpi\n        /* \"#utility.yul\":4687:4688   */\n      0x00\n        /* \"#utility.yul\":4684:4685   */\n      0x00\n        /* \"#utility.yul\":4677:4689   */\n      revert\n        /* \"#utility.yul\":4631:4691   */\n    tag_118:\n        /* \"#utility.yul\":4581:4697   */\n      pop\n      jump\t// out\n        /* \"#utility.yul\":4703:4836   */\n    tag_46:\n        /* \"#utility.yul\":4746:4751   */\n      0x00\n        /* \"#utility.yul\":4784:4790   */\n      dup2\n        /* \"#utility.yul\":4771:4791   */\n      calldataload\n        /* \"#utility.yul\":4762:4791   */\n      swap1\n      pop\n        /* \"#utility.yul\":4800:4830   */\n      tag_120\n        /* \"#utility.yul\":4824:4829   */\n      dup2\n        /* \"#utility.yul\":4800:4830   */\n      tag_45\n      jump\t// in\n    tag_120:\n        /* \"#utility.yul\":4703:4836   */\n      swap3\n      swap2\n      pop\n      pop\n      jump\t// out\n        /* \"#utility.yul\":4842:5635   */\n    tag_11:\n        /* \"#utility.yul\":4926:4932   */\n      0x00\n        /* \"#utility.yul\":4934:4940   */\n      0x00\n        /* \"#utility.yul\":4942:4948   */\n      0x00\n        /* \"#utility.yul\":4991:4993   */\n      0x60\n        /* \"#utility.yul\":4979:4988   */\n      dup5\n        /* \"#utility.yul\":4970:4977   */\n      dup7\n        /* \"#utility.yul\":4966:4989   */\n      sub\n        /* \"#utility.yul\":4962:4994   */\n      slt\n        /* \"#utility.yul\":4959:5078   */\n      iszero\n      tag_122\n      jumpi\n        /* \"#utility.yul\":4997:5076   */\n      tag_123\n      tag_32\n      jump\t// in\n    tag_123:\n        /* \"#utility.yul\":4959:5078   */\n    tag_122:\n        /* \"#utility.yul\":5145:5146   */\n      0x00\n        /* \"#utility.yul\":5134:5143   */\n      dup5\n        /* \"#utility.yul\":5130:5147   */\n      add\n        /* \"#utility.yul\":5117:5148   */\n      calldataload\n        /* \"#utility.yul\":5175:5193   */\n      0xffffffffffffffff\n        /* \"#utility.yul\":5167:5173   */\n      dup2\n        /* \"#utility.yul\":5164:5194   */\n      gt\n        /* \"#utility.yul\":5161:5278   */\n      iszero\n      tag_124\n      jumpi\n        /* \"#utility.yul\":5197:5276   */\n      tag_125\n      tag_33\n      jump\t// in\n    tag_125:\n        /* \"#utility.yul\":5161:5278   */\n    tag_124:\n        /* \"#utility.yul\":5302:5365   */\n      tag_126\n        /* \"#utility.yul\":5357:5364   */\n      dup7\n        /* \"#utility.yul\":5348:5354   */\n      dup3\n        /* \"#utility.yul\":5337:5346   */\n      dup8\n        /* \"#utility.yul\":5333:5355   */\n      add\n        /* \"#utility.yul\":5302:5365   */\n      tag_42\n      jump\t// in\n    tag_126:\n        /* \"#utility.yul\":5292:5365   */\n      swap4\n      pop\n        /* \"#utility.yul\":5088:5375   */\n      pop\n        /* \"#utility.yul\":5414:5416   */\n      0x20\n        /* \"#utility.yul\":5440:5493   */\n      tag_127\n        /* \"#utility.yul\":5485:5492   */\n      dup7\n        /* \"#utility.yul\":5476:5482   */\n      dup3\n        /* \"#utility.yul\":5465:5474   */\n      dup8\n        /* \"#utility.yul\":5461:5483   */\n      add\n        /* \"#utility.yul\":5440:5493   */\n      tag_44\n      jump\t// in\n    tag_127:\n        /* \"#utility.yul\":5430:5493   */\n      swap3\n      pop\n        /* \"#utility.yul\":5385:5503   */\n      pop\n        /* \"#utility.yul\":5542:5544   */\n      0x40\n        /* \"#utility.yul\":5568:5618   */\n      tag_128\n        /* \"#utility.yul\":5610:5617   */\n      dup7\n        /* \"#utility.yul\":5601:5607   */\n      dup3\n        /* \"#utility.yul\":5590:5599   */\n      dup8\n        /* \"#utility.yul\":5586:5608   */\n      add\n        /* \"#utility.yul\":5568:5618   */\n      tag_46\n      jump\t// in\n    tag_128:\n        /* \"#utility.yul\":5558:5618   */\n      swap2\n      pop\n        /* \"#utility.yul\":5513:5628   */\n      pop\n        /* \"#utility.yul\":4842:5635   */\n      swap3\n      pop\n      swap3\n      pop\n      swap3\n      jump\t// out\n        /* \"#utility.yul\":5641:5821   */\n    tag_47:\n        /* \"#utility.yul\":5689:5766   */\n      0x4e487b7100000000000000000000000000000000000000000000000000000000\n        /* \"#utility.yul\":5686:5687   */\n      0x00\n        /* \"#utility.yul\":5679:5767   */\n      mstore\n        /* \"#utility.yul\":5786:5790   */\n      0x22\n        /* \"#utility.yul\":5783:5784   */\n      0x04\n        /* \"#utility.yul\":5776:5791   */\n      mstore\n        /* \"#utility.yul\":5810:5814   */\n      0x24\n        /* \"#utility.yul\":5807:5808   */\n      0x00\n        /* \"#utility.yul\":5800:5815   */\n      revert\n        /* \"#utility.yul\":5827:6147   */\n    tag_14:\n        /* \"#utility.yul\":5871:5877   */\n      0x00\n        /* \"#utility.yul\":5908:5909   */\n      0x02\n        /* \"#utility.yul\":5902:5906   */\n      dup3\n        /* \"#utility.yul\":5898:5910   */\n      div\n        /* \"#utility.yul\":5888:5910   */\n      swap1\n      pop\n        /* \"#utility.yul\":5955:5956   */\n      0x01\n        /* \"#utility.yul\":5949:5953   */\n      dup3\n        /* \"#utility.yul\":5945:5957   */\n      and\n        /* \"#utility.yul\":5976:5994   */\n      dup1\n        /* \"#utility.yul\":5966:6047   */\n      tag_131\n      jumpi\n        /* \"#utility.yul\":6032:6036   */\n      0x7f\n        /* \"#utility.yul\":6024:6030   */\n      dup3\n        /* \"#utility.yul\":6020:6037   */\n      and\n        /* \"#utility.yul\":6010:6037   */\n      swap2\n      pop\n        /* \"#utility.yul\":5966:6047   */\n    tag_131:\n        /* \"#utility.yul\":6094:6096   */\n      0x20\n        /* \"#utility.yul\":6086:6092   */\n      dup3\n        /* \"#utility.yul\":6083:6097   */\n      lt\n        /* \"#utility.yul\":6063:6081   */\n      dup2\n        /* \"#utility.yul\":6060:6098   */\n      sub\n        /* \"#utility.yul\":6057:6141   */\n      tag_132\n      jumpi\n        /* \"#utility.yul\":6113:6131   */\n      tag_133\n      tag_47\n      jump\t// in\n    tag_133:\n        /* \"#utility.yul\":6057:6141   */\n    tag_132:\n        /* \"#utility.yul\":5878:6147   */\n      pop\n        /* \"#utility.yul\":5827:6147   */\n      swap2\n      swap1\n      pop\n      jump\t// out\n        /* \"#utility.yul\":6153:6294   */\n    tag_48:\n        /* \"#utility.yul\":6202:6206   */\n      0x00\n        /* \"#utility.yul\":6225:6228   */\n      dup2\n        /* \"#utility.yul\":6217:6228   */\n      swap1\n      pop\n        /* \"#utility.yul\":6248:6251   */\n      dup2\n        /* \"#utility.yul\":6245:6246   */\n      0x00\n        /* \"#utility.yul\":6238:6252   */\n      mstore\n        /* \"#utility.yul\":6282:6286   */\n      0x20\n        /* \"#utility.yul\":6279:6280   */\n      0x00\n        /* \"#utility.yul\":6269:6287   */\n      keccak256\n        /* \"#utility.yul\":6261:6287   */\n      swap1\n      pop\n        /* \"#utility.yul\":6153:6294   */\n      swap2\n      swap1\n      pop\n      jump\t// out\n        /* \"#utility.yul\":6300:6393   */\n    tag_49:\n        /* \"#utility.yul\":6337:6343   */\n      0x00\n        /* \"#utility.yul\":6384:6386   */\n      0x20\n        /* \"#utility.yul\":6379:6381   */\n      0x1f\n        /* \"#utility.yul\":6372:6377   */\n      dup4\n        /* \"#utility.yul\":6368:6382   */\n      add\n        /* \"#utility.yul\":6364:6387   */\n      div\n        /* \"#utility.yul\":6354:6387   */\n      swap1\n      pop\n        /* \"#utility.yul\":6300:6393   */\n      swap2\n      swap1\n      pop\n      jump\t// out\n        /* \"#utility.yul\":6399:6506   */\n    tag_50:\n        /* \"#utility.yul\":6443:6451   */\n      0x00\n        /* \"#utility.yul\":6493:6498   */\n      dup3\n        /* \"#utility.yul\":6487:6491   */\n      dup3\n        /* \"#utility.yul\":6483:6499   */\n      shl\n        /* \"#utility.yul\":6462:6499   */\n      swap1\n      pop\n        /* \"#utility.yul\":6399:6506   */\n      swap3\n      swap2\n      pop\n      pop\n      jump\t// out\n        /* \"#utility.yul\":6512:6905   */\n    tag_51:\n        /* \"#utility.yul\":6581:6587   */\n      0x00\n        /* \"#utility.yul\":6631:6632   */\n      0x08\n        /* \"#utility.yul\":6619:6629   */\n      dup4\n        /* \"#utility.yul\":6615:6633   */\n      mul\n        /* \"#utility.yul\":6654:6751   */\n      tag_138\n        /* \"#utility.yul\":6684:6750   */\n      0xffffffffffffffffffffffffffffffffffffffffffffffffffffffffffffffff\n        /* \"#utility.yul\":6673:6682   */\n      dup3\n        /* \"#utility.yul\":6654:6751   */\n      tag_50\n      jump\t// in\n    tag_138:\n        /* \"#utility.yul\":6772:6811   */\n      tag_139\n        /* \"#utility.yul\":6802:6810   */\n      dup7\n        /* \"#utility.yul\":6791:6800   */\n      dup4\n        /* \"#utility.yul\":6772:6811   */\n      tag_50\n      jump\t// in\n    tag_139:\n        /* \"#utility.yul\":6760:6811   */\n      swap6\n      pop\n        /* \"#utility.yul\":6844:6848   */\n      dup1\n        /* \"#utility.yul\":6840:6849   */\n      not\n        /* \"#utility.yul\":6833:6838   */\n      dup5\n        /* \"#utility.yul\":6829:6850   */\n      and\n        /* \"#utility.yul\":6820:6850   */\n      swap4\n      pop\n        /* \"#utility.yul\":6893:6897   */\n      dup1\n        /* \"#utility.yul\":6883:6891   */\n      dup7\n        /* \"#utility.yul\":6879:6898   */\n      and\n        /* \"#utility.yul\":6872:6877   */\n      dup5\n        /* \"#utility.yul\":6869:6899   */\n      or\n        /* \"#utility.yul\":6859:6899   */\n      swap3\n      pop\n        /* \"#utility.yul\":6588:6905   */\n      pop\n      pop\n        /* \"#utility.yul\":6512:6905   */\n      swap4\n      swap3\n      pop\n      pop\n      pop\n      jump\t// out\n        /* \"#utility.yul\":6911:6971   */\n    tag_52:\n        /* \"#utility.yul\":6939:6942   */\n      0x00\n        /* \"#utility.yul\":6960:6965   */\n      dup2\n        /* \"#utility.yul\":6953:6965   */\n      swap1\n      pop\n        /* \"#utility.yul\":6911:6971   */\n      swap2\n      swap1\n      pop\n      jump\t// out\n        /* \"#utility.yul\":6977:7119   */\n    tag_53:\n        /* \"#utility.yul\":7027:7036   */\n      0x00\n        /* \"#utility.yul\":7060:7113   */\n      tag_142\n        /* \"#utility.yul\":7078:7112   */\n      tag_143\n        /* \"#utility.yul\":7087:7111   */\n      tag_144\n        /* \"#utility.yul\":7105:7110   */\n      dup5\n        /* \"#utility.yul\":7087:7111   */\n      tag_27\n      jump\t// in\n    tag_144:\n        /* \"#utility.yul\":7078:7112   */\n      tag_52\n      jump\t// in\n    tag_143:\n        /* \"#utility.yul\":7060:7113   */\n      tag_27\n      jump\t// in\n    tag_142:\n        /* \"#utility.yul\":7047:7113   */\n      swap1\n      pop\n        /* \"#utility.yul\":6977:7119   */\n      swap2\n      swap1\n      pop\n      jump\t// out\n        /* \"#utility.yul\":7125:7200   */\n    tag_54:\n        /* \"#utility.yul\":7168:7171   */\n      0x00\n        /* \"#utility.yul\":7189:7194   */\n      dup2\n        /* \"#utility.yul\":7182:7194   */\n      swap1\n      pop\n        /* \"#utility.yul\":7125:7200   */\n      swap2\n      swap1\n      pop\n      jump\t// out\n        /* \"#utility.yul\":7206:7475   */\n    tag_55:\n        /* \"#utility.yul\":7316:7355   */\n      tag_147\n        /* \"#utility.yul\":7347:7354   */\n      dup4\n        /* \"#utility.yul\":7316:7355   */\n      tag_53\n      jump\t// in\n    tag_147:\n        /* \"#utility.yul\":7377:7468   */\n      tag_148\n        /* \"#utility.yul\":7426:7467   */\n      tag_149\n        /* \"#utility.yul\":7450:7466   */\n      dup3\n        /* \"#utility.yul\":7426:7467   */\n      tag_54\n      jump\t// in\n    tag_149:\n        /* \"#utility.yul\":7418:7424   */\n      dup5\n        /* \"#utility.yul\":7411:7415   */\n      dup5\n        /* \"#utility.yul\":7405:7416   */\n      sload\n        /* \"#utility.yul\":7377:7468   */\n      tag_51\n      jump\t// in\n    tag_148:\n        /* \"#utility.yul\":7371:7375   */\n      dup3\n        /* \"#utility.yul\":7364:7469   */\n      sstore\n        /* \"#utility.yul\":7282:7475   */\n      pop\n        /* \"#utility.yul\":7206:7475   */\n      pop\n      pop\n      pop\n      jump\t// out\n        /* \"#utility.yul\":7481:7554   */\n    tag_56:\n        /* \"#utility.yul\":7526:7529   */\n      0x00\n        /* \"#utility.yul\":7547:7548   */\n      0x00\n        /* \"#utility.yul\":7540:7548   */\n      swap1\n      pop\n        /* \"#utility.yul\":7481:7554   */\n      swap1\n      jump\t// out\n        /* \"#utility.yul\":7560:7749   */\n    tag_57:\n        /* \"#utility.yul\":7637:7669   */\n      tag_152\n      tag_56\n      jump\t// in\n    tag_152:\n        /* \"#utility.yul\":7678:7743   */\n      tag_153\n        /* \"#utility.yul\":7736:7742   */\n      dup2\n        /* \"#utility.yul\":7728:7734   */\n      dup5\n        /* \"#utility.yul\":7722:7726   */\n      dup5\n        /* \"#utility.yul\":7678:7743   */\n      tag_55\n      jump\t// in\n    tag_153:\n        /* \"#utility.yul\":7613:7749   */\n      pop\n        /* \"#utility.yul\":7560:7749   */\n      pop\n      pop\n      jump\t// out\n        /* \"#utility.yul\":7755:7941   */\n    tag_58:\n        /* \"#utility.yul\":7815:7935   */\n    tag_155:\n        /* \"#utility.yul\":7832:7835   */\n      dup2\n        /* \"#utility.yul\":7825:7830   */\n      dup2\n        /* \"#utility.yul\":7822:7836   */\n      lt\n        /* \"#utility.yul\":7815:7935   */\n      iszero\n      tag_157\n      jumpi\n        /* \"#utility.yul\":7886:7925   */\n      tag_158\n        /* \"#utility.yul\":7923:7924   */\n      0x00\n        /* \"#utility.yul\":7916:7921   */\n      dup3\n        /* \"#utility.yul\":7886:7925   */\n      tag_57\n      jump\t// in\n    tag_158:\n        /* \"#utility.yul\":7859:7860   */\n      0x01\n        /* \"#utility.yul\":7852:7857   */\n      dup2\n        /* \"#utility.yul\":7848:7861   */\n      add\n        /* \"#utility.yul\":7839:7861   */\n      swap1\n      pop\n        /* \"#utility.yul\":7815:7935   */\n      jump(tag_155)\n    tag_157:\n        /* \"#utility.yul\":7755:7941   */\n      pop\n      pop\n      jump\t// out\n        /* \"#utility.yul\":7947:8490   */\n    tag_59:\n        /* \"#utility.yul\":8048:8050   */\n      0x1f\n        /* \"#utility.yul\":8043:8046   */\n      dup3\n        /* \"#utility.yul\":8040:8051   */\n      gt\n        /* \"#utility.yul\":8037:8483   */\n      iszero\n      tag_160\n      jumpi\n        /* \"#utility.yul\":8082:8120   */\n      tag_161\n        /* \"#utility.yul\":8114:8119   */\n      dup2\n        /* \"#utility.yul\":8082:8120   */\n      tag_48\n      jump\t// in\n    tag_161:\n        /* \"#utility.yul\":8166:8195   */\n      tag_162\n        /* \"#utility.yul\":8184:8194   */\n      dup5\n        /* \"#utility.yul\":8166:8195   */\n      tag_49\n      jump\t// in\n    tag_162:\n        /* \"#utility.yul\":8156:8164   */\n      dup2\n        /* \"#utility.yul\":8152:8196   */\n      add\n        /* \"#utility.yul\":8349:8351   */\n      0x20\n        /* \"#utility.yul\":8337:8347   */\n      dup6\n        /* \"#utility.yul\":8334:8352   */\n      lt\n        /* \"#utility.yul\":8331:8380   */\n      iszero\n      tag_163\n      jumpi\n        /* \"#utility.yul\":8370:8378   */\n      dup2\n        /* \"#utility.yul\":8355:8378   */\n      swap1\n      pop\n        /* \"#utility.yul\":8331:8380   */\n    tag_163:\n        /* \"#utility.yul\":8393:8473   */\n      tag_164\n        /* \"#utility.yul\":8449:8471   */\n      tag_165\n        /* \"#utility.yul\":8467:8470   */\n      dup6\n        /* \"#utility.yul\":8449:8471   */\n      tag_49\n      jump\t// in\n    tag_165:\n        /* \"#utility.yul\":8439:8447   */\n      dup4\n        /* \"#utility.yul\":8435:8472   */\n      add\n        /* \"#utility.yul\":8422:8433   */\n      dup3\n        /* \"#utility.yul\":8393:8473   */\n      tag_58\n      jump\t// in\n    tag_164:\n        /* \"#utility.yul\":8052:8483   */\n      pop\n      pop\n        /* \"#utility.yul\":8037:8483   */\n    tag_160:\n        /* \"#utility.yul\":7947:8490   */\n      pop\n      pop\n      pop\n      jump\t// out\n        /* \"#utility.yul\":8496:8613   */\n    tag_60:\n        /* \"#utility.yul\":8550:8558   */\n      0x00\n        /* \"#utility.yul\":8600:8605   */\n      dup3\n        /* \"#utility.yul\":8594:8598   */\n      dup3\n        /* \"#utility.yul\":8590:8606   */\n      shr\n        /* \"#utility.yul\":8569:8606   */\n      swap1\n      pop\n        /* \"#utility.yul\":8496:8613   */\n      swap3\n      swap2\n      pop\n      pop\n      jump\t// out\n        /* \"#utility.yul\":8619:8788   */\n    tag_61:\n        /* \"#utility.yul\":8663:8669   */\n      0x00\n        /* \"#utility.yul\":8696:8747   */\n      tag_168\n        /* \"#utility.yul\":8744:8745   */\n      0x00\n        /* \"#utility.yul\":8740:8746   */\n      not\n        /* \"#utility.yul\":8732:8737   */\n      dup5\n        /* \"#utility.yul\":8729:8730   */\n      0x08\n        /* \"#utility.yul\":8725:8738   */\n      mul\n        /* \"#utility.yul\":8696:8747   */\n      tag_60\n      jump\t// in\n    tag_168:\n        /* \"#utility.yul\":8692:8748   */\n      not\n        /* \"#utility.yul\":8777:8781   */\n      dup1\n        /* \"#utility.yul\":8771:8775   */\n      dup4\n        /* \"#utility.yul\":8767:8782   */\n      and\n        /* \"#utility.yul\":8757:8782   */\n      swap2\n      pop\n        /* \"#utility.yul\":8670:8788   */\n      pop\n        /* \"#utility.yul\":8619:8788   */\n      swap3\n      swap2\n      pop\n      pop\n      jump\t// out\n        /* \"#utility.yul\":8793:9088   */\n    tag_62:\n        /* \"#utility.yul\":8869:8873   */\n      0x00\n        /* \"#utility.yul\":9015:9044   */\n      tag_170\n        /* \"#utility.yul\":9040:9043   */\n      dup4\n        /* \"#utility.yul\":9034:9038   */\n      dup4\n        /* \"#utility.yul\":9015:9044   */\n      tag_61\n      jump\t// in\n    tag_170:\n        /* \"#utility.yul\":9007:9044   */\n      swap2\n      pop\n        /* \"#utility.yul\":9077:9080   */\n      dup3\n        /* \"#utility.yul\":9074:9075   */\n      0x02\n        /* \"#utility.yul\":9070:9081   */\n      mul\n        /* \"#utility.yul\":9064:9068   */\n      dup3\n        /* \"#utility.yul\":9061:9082   */\n      or\n        /* \"#utility.yul\":9053:9082   */\n      swap1\n      pop\n        /* \"#utility.yul\":8793:9088   */\n      swap3\n      swap2\n      pop\n      pop\n      jump\t// out\n        /* \"#utility.yul\":9093:10488   */\n    tag_21:\n        /* \"#utility.yul\":9210:9247   */\n      tag_172\n        /* \"#utility.yul\":9243:9246   */\n      dup3\n        /* \"#utility.yul\":9210:9247   */\n      tag_22\n      jump\t// in\n    tag_172:\n        /* \"#utility.yul\":9312:9330   */\n      0xffffffffffffffff\n        /* \"#utility.yul\":9304:9310   */\n      dup2\n        /* \"#utility.yul\":9301:9331   */\n      gt\n        /* \"#utility.yul\":9298:9354   */\n      iszero\n      tag_173\n      jumpi\n        /* \"#utility.yul\":9334:9352   */\n      tag_174\n      tag_36\n      jump\t// in\n    tag_174:\n        /* \"#utility.yul\":9298:9354   */\n    tag_173:\n        /* \"#utility.yul\":9378:9416   */\n      tag_175\n        /* \"#utility.yul\":9410:9414   */\n      dup3\n        /* \"#utility.yul\":9404:9415   */\n      sload\n        /* \"#utility.yul\":9378:9416   */\n      tag_14\n      jump\t// in\n    tag_175:\n        /* \"#utility.yul\":9463:9530   */\n      tag_176\n        /* \"#utility.yul\":9523:9529   */\n      dup3\n        /* \"#utility.yul\":9515:9521   */\n      dup3\n        /* \"#utility.yul\":9509:9513   */\n      dup6\n        /* \"#utility.yul\":9463:9530   */\n      tag_59\n      jump\t// in\n    tag_176:\n        /* \"#utility.yul\":9557:9558   */\n      0x00\n        /* \"#utility.yul\":9581:9585   */\n      0x20\n        /* \"#utility.yul\":9568:9585   */\n      swap1\n      pop\n        /* \"#utility.yul\":9613:9615   */\n      0x1f\n        /* \"#utility.yul\":9605:9611   */\n      dup4\n        /* \"#utility.yul\":9602:9616   */\n      gt\n        /* \"#utility.yul\":9630:9631   */\n      0x01\n        /* \"#utility.yul\":9625:10243   */\n      dup2\n      eq\n      tag_178\n      jumpi\n        /* \"#utility.yul\":10287:10288   */\n      0x00\n        /* \"#utility.yul\":10304:10310   */\n      dup5\n        /* \"#utility.yul\":10301:10378   */\n      iszero\n      tag_179\n      jumpi\n        /* \"#utility.yul\":10353:10362   */\n      dup3\n        /* \"#utility.yul\":10348:10351   */\n      dup8\n        /* \"#utility.yul\":10344:10363   */\n      add\n        /* \"#utility.yul\":10338:10364   */\n      mload\n        /* \"#utility.yul\":10329:10364   */\n      swap1\n      pop\n        /* \"#utility.yul\":10301:10378   */\n    tag_179:\n        /* \"#utility.yul\":10404:10471   */\n      tag_180\n        /* \"#utility.yul\":10464:10470   */\n      dup6\n        /* \"#utility.yul\":10457:10462   */\n      dup3\n        /* \"#utility.yul\":10404:10471   */\n      tag_62\n      jump\t// in\n    tag_180:\n        /* \"#utility.yul\":10398:10402   */\n      dup7\n        /* \"#utility.yul\":10391:10472   */\n      sstore\n        /* \"#utility.yul\":10260:10482   */\n      pop\n        /* \"#utility.yul\":9595:10482   */\n      jump(tag_177)\n        /* \"#utility.yul\":9625:10243   */\n    tag_178:\n        /* \"#utility.yul\":9677:9681   */\n      0x1f\n        /* \"#utility.yul\":9673:9682   */\n      not\n        /* \"#utility.yul\":9665:9671   */\n      dup5\n        /* \"#utility.yul\":9661:9683   */\n      and\n        /* \"#utility.yul\":9711:9748   */\n      tag_181\n        /* \"#utility.yul\":9743:9747   */\n      dup7\n        /* \"#utility.yul\":9711:9748   */\n      tag_48\n      jump\t// in\n    tag_181:\n        /* \"#utility.yul\":9770:9771   */\n      0x00\n        /* \"#utility.yul\":9784:9992   */\n    tag_182:\n        /* \"#utility.yul\":9798:9805   */\n      dup3\n        /* \"#utility.yul\":9795:9796   */\n      dup2\n        /* \"#utility.yul\":9792:9806   */\n      lt\n        /* \"#utility.yul\":9784:9992   */\n      iszero\n      tag_184\n      jumpi\n        /* \"#utility.yul\":9877:9886   */\n      dup5\n        /* \"#utility.yul\":9872:9875   */\n      dup10\n        /* \"#utility.yul\":9868:9887   */\n      add\n        /* \"#utility.yul\":9862:9888   */\n      mload\n        /* \"#utility.yul\":9854:9860   */\n      dup3\n        /* \"#utility.yul\":9847:9889   */\n      sstore\n        /* \"#utility.yul\":9928:9929   */\n      0x01\n        /* \"#utility.yul\":9920:9926   */\n      dup3\n        /* \"#utility.yul\":9916:9930   */\n      add\n        /* \"#utility.yul\":9906:9930   */\n      swap2\n      pop\n        /* \"#utility.yul\":9975:9977   */\n      0x20\n        /* \"#utility.yul\":9964:9973   */\n      dup6\n        /* \"#utility.yul\":9960:9978   */\n      add\n        /* \"#utility.yul\":9947:9978   */\n      swap5\n      pop\n        /* \"#utility.yul\":9821:9825   */\n      0x20\n        /* \"#utility.yul\":9818:9819   */\n      dup2\n        /* \"#utility.yul\":9814:9826   */\n      add\n        /* \"#utility.yul\":9809:9826   */\n      swap1\n      pop\n        /* \"#utility.yul\":9784:9992   */\n      jump(tag_182)\n    tag_184:\n        /* \"#utility.yul\":10020:10026   */\n      dup7\n        /* \"#utility.yul\":10011:10018   */\n      dup4\n        /* \"#utility.yul\":10008:10027   */\n      lt\n        /* \"#utility.yul\":10005:10184   */\n      iszero\n      tag_185\n      jumpi\n        /* \"#utility.yul\":10078:10087   */\n      dup5\n        /* \"#utility.yul\":10073:10076   */\n      dup10\n        /* \"#utility.yul\":10069:10088   */\n      add\n        /* \"#utility.yul\":10063:10089   */\n      mload\n        /* \"#utility.yul\":10121:10169   */\n      tag_186\n        /* \"#utility.yul\":10163:10167   */\n      0x1f\n        /* \"#utility.yul\":10155:10161   */\n      dup10\n        /* \"#utility.yul\":10151:10168   */\n      and\n        /* \"#utility.yul\":10140:10149   */\n      dup3\n        /* \"#utility.yul\":10121:10169   */\n      tag_61\n      jump\t// in\n    tag_186:\n        /* \"#utility.yul\":10113:10119   */\n      dup4\n        /* \"#utility.yul\":10106:10170   */\n      sstore\n        /* \"#utility.yul\":10028:10184   */\n      pop\n        /* \"#utility.yul\":10005:10184   */\n    tag_185:\n        /* \"#utility.yul\":10230:10231   */\n      0x01\n        /* \"#utility.yul\":10226:10227   */\n      0x02\n        /* \"#utility.yul\":10218:10224   */\n      dup9\n        /* \"#utility.yul\":10214:10228   */\n      mul\n        /* \"#utility.yul\":10210:10232   */\n      add\n        /* \"#utility.yul\":10204:10208   */\n      dup9\n        /* \"#utility.yul\":10197:10233   */\n      sstore\n        /* \"#utility.yul\":9632:10243   */\n      pop\n      pop\n      pop\n        /* \"#utility.yul\":9595:10482   */\n    tag_177:\n      pop\n        /* \"#utility.yul\":9185:10488   */\n      pop\n      pop\n      pop\n        /* \"#utility.yul\":9093:10488   */\n      pop\n      pop\n      jump\t// out\n\n    auxdata: 0xa2646970667358221220bdcb53c88365bac949c465062cb86b9a3f30b07a66d1b140162910ceff02de2164736f6c634300081e0033\n}\n",
				"bytecode": {
					"linkReferences": {},
					"object": "6080604052348015600e575f5ffd5b5061075c8061001c5f395ff3fe608060405234801561000f575f5ffd5b5060043610610034575f3560e01c806378d8a3e414610038578063e4f2415c14610058575b5f5ffd5b610040610074565b60405161004f93929190610221565b60405180910390f35b610072600480360381019061006d91906103ee565b61011c565b005b5f805f01805461008390610487565b80601f01602080910402602001604051908101604052809291908181526020018280546100af90610487565b80156100fa5780601f106100d1576101008083540402835291602001916100fa565b820191905f5260205f20905b8154815290600101906020018083116100dd57829003601f168201915b505050505090806001015490806002015f9054906101000a900460ff16905083565b60405180606001604052808481526020018381526020018215158152505f5f820151815f01908161014d9190610657565b50602082015181600101556040820151816002015f6101000a81548160ff021916908315150217905550905050505050565b5f81519050919050565b5f82825260208201905092915050565b8281835e5f83830152505050565b5f601f19601f8301169050919050565b5f6101c18261017f565b6101cb8185610189565b93506101db818560208601610199565b6101e4816101a7565b840191505092915050565b5f819050919050565b610201816101ef565b82525050565b5f8115159050919050565b61021b81610207565b82525050565b5f6060820190508181035f83015261023981866101b7565b905061024860208301856101f8565b6102556040830184610212565b949350505050565b5f604051905090565b5f5ffd5b5f5ffd5b5f5ffd5b5f5ffd5b7f4e487b71000000000000000000000000000000000000000000000000000000005f52604160045260245ffd5b6102ac826101a7565b810181811067ffffffffffffffff821117156102cb576102ca610276565b5b80604052505050565b5f6102dd61025d565b90506102e982826102a3565b919050565b5f67ffffffffffffffff82111561030857610307610276565b5b610311826101a7565b9050602081019050919050565b828183375f83830152505050565b5f61033e610339846102ee565b6102d4565b90508281526020810184848401111561035a57610359610272565b5b61036584828561031e565b509392505050565b5f82601f8301126103815761038061026e565b5b813561039184826020860161032c565b91505092915050565b6103a3816101ef565b81146103ad575f5ffd5b50565b5f813590506103be8161039a565b92915050565b6103cd81610207565b81146103d7575f5ffd5b50565b5f813590506103e8816103c4565b92915050565b5f5f5f6060848603121561040557610404610266565b5b5f84013567ffffffffffffffff8111156104225761042161026a565b5b61042e8682870161036d565b935050602061043f868287016103b0565b9250506040610450868287016103da565b9150509250925092565b7f4e487b71000000000000000000000000000000000000000000000000000000005f52602260045260245ffd5b5f600282049050600182168061049e57607f821691505b6020821081036104b1576104b061045a565b5b50919050565b5f819050815f5260205f209050919050565b5f6020601f8301049050919050565b5f82821b905092915050565b5f600883026105137fffffffffffffffffffffffffffffffffffffffffffffffffffffffffffffffff826104d8565b61051d86836104d8565b95508019841693508086168417925050509392505050565b5f819050919050565b5f61055861055361054e846101ef565b610535565b6101ef565b9050919050565b5f819050919050565b6105718361053e565b61058561057d8261055f565b8484546104e4565b825550505050565b5f5f905090565b61059c61058d565b6105a7818484610568565b505050565b5b818110156105ca576105bf5f82610594565b6001810190506105ad565b5050565b601f82111561060f576105e0816104b7565b6105e9846104c9565b810160208510156105f8578190505b61060c610604856104c9565b8301826105ac565b50505b505050565b5f82821c905092915050565b5f61062f5f1984600802610614565b1980831691505092915050565b5f6106478383610620565b9150826002028217905092915050565b6106608261017f565b67ffffffffffffffff81111561067957610678610276565b5b6106838254610487565b61068e8282856105ce565b5f60209050601f8311600181146106bf575f84156106ad578287015190505b6106b7858261063c565b86555061071e565b601f1984166106cd866104b7565b5f5b828110156106f4578489015182556001820191506020850194506020810190506106cf565b86831015610711578489015161070d601f891682610620565b8355505b6001600288020188555050505b50505050505056fea2646970667358221220bdcb53c88365bac949c465062cb86b9a3f30b07a66d1b140162910ceff02de2164736f6c634300081e0033",
					"opcodes": "PUSH1 0x80 PUSH1 0x40 MSTORE CALLVALUE DUP1 ISZERO PUSH1 0xE JUMPI PUSH0 PUSH0 REVERT JUMPDEST POP PUSH2 0x75C DUP1 PUSH2 0x1C PUSH0 CODECOPY PUSH0 RETURN INVALID PUSH1 0x80 PUSH1 0x40 MSTORE CALLVALUE DUP1 ISZERO PUSH2 0xF JUMPI PUSH0 PUSH0 REVERT JUMPDEST POP PUSH1 0x4 CALLDATASIZE LT PUSH2 0x34 JUMPI PUSH0 CALLDATALOAD PUSH1 0xE0 SHR DUP1 PUSH4 0x78D8A3E4 EQ PUSH2 0x38 JUMPI DUP1 PUSH4 0xE4F2415C EQ PUSH2 0x58 JUMPI JUMPDEST PUSH0 PUSH0 REVERT JUMPDEST PUSH2 0x40 PUSH2 0x74 JUMP JUMPDEST PUSH1 0x40 MLOAD PUSH2 0x4F SWAP4 SWAP3 SWAP2 SWAP1 PUSH2 0x221 JUMP JUMPDEST PUSH1 0x40 MLOAD DUP1 SWAP2 SUB SWAP1 RETURN JUMPDEST PUSH2 0x72 PUSH1 0x4 DUP1 CALLDATASIZE SUB DUP2 ADD SWAP1 PUSH2 0x6D SWAP2 SWAP1 PUSH2 0x3EE JUMP JUMPDEST PUSH2 0x11C JUMP JUMPDEST STOP JUMPDEST PUSH0 DUP1 PUSH0 ADD DUP1 SLOAD PUSH2 0x83 SWAP1 PUSH2 0x487 JUMP JUMPDEST DUP1 PUSH1 0x1F ADD PUSH1 0x20 DUP1 SWAP2 DIV MUL PUSH1 0x20 ADD PUSH1 0x40 MLOAD SWAP1 DUP2 ADD PUSH1 0x40 MSTORE DUP1 SWAP3 SWAP2 SWAP1 DUP2 DUP2 MSTORE PUSH1 0x20 ADD DUP3 DUP1 SLOAD PUSH2 0xAF SWAP1 PUSH2 0x487 JUMP JUMPDEST DUP1 ISZERO PUSH2 0xFA JUMPI DUP1 PUSH1 0x1F LT PUSH2 0xD1 JUMPI PUSH2 0x100 DUP1 DUP4 SLOAD DIV MUL DUP4 MSTORE SWAP2 PUSH1 0x20 ADD SWAP2 PUSH2 0xFA JUMP JUMPDEST DUP3 ADD SWAP2 SWAP1 PUSH0 MSTORE PUSH1 0x20 PUSH0 KECCAK256 SWAP1 JUMPDEST DUP2 SLOAD DUP2 MSTORE SWAP1 PUSH1 0x1 ADD SWAP1 PUSH1 0x20 ADD DUP1 DUP4 GT PUSH2 0xDD JUMPI DUP3 SWAP1 SUB PUSH1 0x1F AND DUP3 ADD SWAP2 JUMPDEST POP POP POP POP POP SWAP1 DUP1 PUSH1 0x1 ADD SLOAD SWAP1 DUP1 PUSH1 0x2 ADD PUSH0 SWAP1 SLOAD SWAP1 PUSH2 0x100 EXP SWAP1 DIV PUSH1 0xFF AND SWAP1 POP DUP4 JUMP JUMPDEST PUSH1 0x40 MLOAD DUP1 PUSH1 0x60 ADD PUSH1 0x40 MSTORE DUP1 DUP5 DUP2 MSTORE PUSH1 0x20 ADD DUP4 DUP2 MSTORE PUSH1 0x20 ADD DUP3 ISZERO ISZERO DUP2 MSTORE POP PUSH0 PUSH0 DUP3 ADD MLOAD DUP2 PUSH0 ADD SWAP1 DUP2 PUSH2 0x14D SWAP2 SWAP1 PUSH2 0x657 JUMP JUMPDEST POP PUSH1 0x20 DUP3 ADD MLOAD DUP2 PUSH1 0x1 ADD SSTORE PUSH1 0x40 DUP3 ADD MLOAD DUP2 PUSH1 0x2 ADD PUSH0 PUSH2 0x100 EXP DUP2 SLOAD DUP2 PUSH1 0xFF MUL NOT AND SWAP1 DUP4 ISZERO ISZERO MUL OR SWAP1 SSTORE POP SWAP1 POP POP POP POP POP JUMP JUMPDEST PUSH0 DUP2 MLOAD SWAP1 POP SWAP2 SWAP1 POP JUMP JUMPDEST PUSH0 DUP3 DUP3 MSTORE PUSH1 0x20 DUP3 ADD SWAP1 POP SWAP3 SWAP2 POP POP JUMP JUMPDEST DUP3 DUP2 DUP4 MCOPY PUSH0 DUP4 DUP4 ADD MSTORE POP POP POP JUMP JUMPDEST PUSH0 PUSH1 0x1F NOT PUSH1 0x1F DUP4 ADD AND SWAP1 POP SWAP2 SWAP1 POP JUMP JUMPDEST PUSH0 PUSH2 0x1C1 DUP3 PUSH2 0x17F JUMP JUMPDEST PUSH2 0x1CB DUP2 DUP6 PUSH2 0x189 JUMP JUMPDEST SWAP4 POP PUSH2 0x1DB DUP2 DUP6 PUSH1 0x20 DUP7 ADD PUSH2 0x199 JUMP JUMPDEST PUSH2 0x1E4 DUP2 PUSH2 0x1A7 JUMP JUMPDEST DUP5 ADD SWAP2 POP POP SWAP3 SWAP2 POP POP JUMP JUMPDEST PUSH0 DUP2 SWAP1 POP SWAP2 SWAP1 POP JUMP JUMPDEST PUSH2 0x201 DUP2 PUSH2 0x1EF JUMP JUMPDEST DUP3 MSTORE POP POP JUMP JUMPDEST PUSH0 DUP2 ISZERO ISZERO SWAP1 POP SWAP2 SWAP1 POP JUMP JUMPDEST PUSH2 0x21B DUP2 PUSH2 0x207 JUMP JUMPDEST DUP3 MSTORE POP POP JUMP JUMPDEST PUSH0 PUSH1 0x60 DUP3 ADD SWAP1 POP DUP2 DUP2 SUB PUSH0 DUP4 ADD MSTORE PUSH2 0x239 DUP2 DUP7 PUSH2 0x1B7 JUMP JUMPDEST SWAP1 POP PUSH2 0x248 PUSH1 0x20 DUP4 ADD DUP6 PUSH2 0x1F8 JUMP JUMPDEST PUSH2 0x255 PUSH1 0x40 DUP4 ADD DUP5 PUSH2 0x212 JUMP JUMPDEST SWAP5 SWAP4 POP POP POP POP JUMP JUMPDEST PUSH0 PUSH1 0x40 MLOAD SWAP1 POP SWAP1 JUMP JUMPDEST PUSH0 PUSH0 REVERT JUMPDEST PUSH0 PUSH0 REVERT JUMPDEST PUSH0 PUSH0 REVERT JUMPDEST PUSH0 PUSH0 REVERT JUMPDEST PUSH32 0x4E487B7100000000000000000000000000000000000000000000000000000000 PUSH0 MSTORE PUSH1 0x41 PUSH1 0x4 MSTORE PUSH1 0x24 PUSH0 REVERT JUMPDEST PUSH2 0x2AC DUP3 PUSH2 0x1A7 JUMP JUMPDEST DUP2 ADD DUP2 DUP2 LT PUSH8 0xFFFFFFFFFFFFFFFF DUP3 GT OR ISZERO PUSH2 0x2CB JUMPI PUSH2 0x2CA PUSH2 0x276 JUMP JUMPDEST JUMPDEST DUP1 PUSH1 0x40 MSTORE POP POP POP JUMP JUMPDEST PUSH0 PUSH2 0x2DD PUSH2 0x25D JUMP JUMPDEST SWAP1 POP PUSH2 0x2E9 DUP3 DUP3 PUSH2 0x2A3 JUMP JUMPDEST SWAP2 SWAP1 POP JUMP JUMPDEST PUSH0 PUSH8 0xFFFFFFFFFFFFFFFF DUP3 GT ISZERO PUSH2 0x308 JUMPI PUSH2 0x307 PUSH2 0x276 JUMP JUMPDEST JUMPDEST PUSH2 0x311 DUP3 PUSH2 0x1A7 JUMP JUMPDEST SWAP1 POP PUSH1 0x20 DUP2 ADD SWAP1 POP SWAP2 SWAP1 POP JUMP JUMPDEST DUP3 DUP2 DUP4 CALLDATACOPY PUSH0 DUP4 DUP4 ADD MSTORE POP POP POP JUMP JUMPDEST PUSH0 PUSH2 0x33E PUSH2 0x339 DUP5 PUSH2 0x2EE JUMP JUMPDEST PUSH2 0x2D4 JUMP JUMPDEST SWAP1 POP DUP3 DUP2 MSTORE PUSH1 0x20 DUP2 ADD DUP5 DUP5 DUP5 ADD GT ISZERO PUSH2 0x35A JUMPI PUSH2 0x359 PUSH2 0x272 JUMP JUMPDEST JUMPDEST PUSH2 0x365 DUP5 DUP3 DUP6 PUSH2 0x31E JUMP JUMPDEST POP SWAP4 SWAP3 POP POP POP JUMP JUMPDEST PUSH0 DUP3 PUSH1 0x1F DUP4 ADD SLT PUSH2 0x381 JUMPI PUSH2 0x380 PUSH2 0x26E JUMP JUMPDEST JUMPDEST DUP2 CALLDATALOAD PUSH2 0x391 DUP5 DUP3 PUSH1 0x20 DUP7 ADD PUSH2 0x32C JUMP JUMPDEST SWAP2 POP POP SWAP3 SWAP2 POP POP JUMP JUMPDEST PUSH2 0x3A3 DUP2 PUSH2 0x1EF JUMP JUMPDEST DUP2 EQ PUSH2 0x3AD JUMPI PUSH0 PUSH0 REVERT JUMPDEST POP JUMP JUMPDEST PUSH0 DUP2 CALLDATALOAD SWAP1 POP PUSH2 0x3BE DUP2 PUSH2 0x39A JUMP JUMPDEST SWAP3 SWAP2 POP POP JUMP JUMPDEST PUSH2 0x3CD DUP2 PUSH2 0x207 JUMP JUMPDEST DUP2 EQ PUSH2 0x3D7 JUMPI PUSH0 PUSH0 REVERT JUMPDEST POP JUMP JUMPDEST PUSH0 DUP2 CALLDATALOAD SWAP1 POP PUSH2 0x3E8 DUP2 PUSH2 0x3C4 JUMP JUMPDEST SWAP3 SWAP2 POP POP JUMP JUMPDEST PUSH0 PUSH0 PUSH0 PUSH1 0x60 DUP5 DUP7 SUB SLT ISZERO PUSH2 0x405 JUMPI PUSH2 0x404 PUSH2 0x266 JUMP JUMPDEST JUMPDEST PUSH0 DUP5 ADD CALLDATALOAD PUSH8 0xFFFFFFFFFFFFFFFF DUP2 GT ISZERO PUSH2 0x422 JUMPI PUSH2 0x421 PUSH2 0x26A JUMP JUMPDEST JUMPDEST PUSH2 0x42E DUP7 DUP3 DUP8 ADD PUSH2 0x36D JUMP JUMPDEST SWAP4 POP POP PUSH1 0x20 PUSH2 0x43F DUP7 DUP3 DUP8 ADD PUSH2 0x3B0 JUMP JUMPDEST SWAP3 POP POP PUSH1 0x40 PUSH2 0x450 DUP7 DUP3 DUP8 ADD PUSH2 0x3DA JUMP JUMPDEST SWAP2 POP POP SWAP3 POP SWAP3 POP SWAP3 JUMP JUMPDEST PUSH32 0x4E487B7100000000000000000000000000000000000000000000000000000000 PUSH0 MSTORE PUSH1 0x22 PUSH1 0x4 MSTORE PUSH1 0x24 PUSH0 REVERT JUMPDEST PUSH0 PUSH1 0x2 DUP3 DIV SWAP1 POP PUSH1 0x1 DUP3 AND DUP1 PUSH2 0x49E JUMPI PUSH1 0x7F DUP3 AND SWAP2 POP JUMPDEST PUSH1 0x20 DUP3 LT DUP2 SUB PUSH2 0x4B1 JUMPI PUSH2 0x4B0 PUSH2 0x45A JUMP JUMPDEST JUMPDEST POP SWAP2 SWAP1 POP JUMP JUMPDEST PUSH0 DUP2 SWAP1 POP DUP2 PUSH0 MSTORE PUSH1 0x20 PUSH0 KECCAK256 SWAP1 POP SWAP2 SWAP1 POP JUMP JUMPDEST PUSH0 PUSH1 0x20 PUSH1 0x1F DUP4 ADD DIV SWAP1 POP SWAP2 SWAP1 POP JUMP JUMPDEST PUSH0 DUP3 DUP3 SHL SWAP1 POP SWAP3 SWAP2 POP POP JUMP JUMPDEST PUSH0 PUSH1 0x8 DUP4 MUL PUSH2 0x513 PUSH32 0xFFFFFFFFFFFFFFFFFFFFFFFFFFFFFFFFFFFFFFFFFFFFFFFFFFFFFFFFFFFFFFFF DUP3 PUSH2 0x4D8 JUMP JUMPDEST PUSH2 0x51D DUP7 DUP4 PUSH2 0x4D8 JUMP JUMPDEST SWAP6 POP DUP1 NOT DUP5 AND SWAP4 POP DUP1 DUP7 AND DUP5 OR SWAP3 POP POP POP SWAP4 SWAP3 POP POP POP JUMP JUMPDEST PUSH0 DUP2 SWAP1 POP SWAP2 SWAP1 POP JUMP JUMPDEST PUSH0 PUSH2 0x558 PUSH2 0x553 PUSH2 0x54E DUP5 PUSH2 0x1EF JUMP JUMPDEST PUSH2 0x535 JUMP JUMPDEST PUSH2 0x1EF JUMP JUMPDEST SWAP1 POP SWAP2 SWAP1 POP JUMP JUMPDEST PUSH0 DUP2 SWAP1 POP SWAP2 SWAP1 POP JUMP JUMPDEST PUSH2 0x571 DUP4 PUSH2 0x53E JUMP JUMPDEST PUSH2 0x585 PUSH2 0x57D DUP3 PUSH2 0x55F JUMP JUMPDEST DUP5 DUP5 SLOAD PUSH2 0x4E4 JUMP JUMPDEST DUP3 SSTORE POP POP POP POP JUMP JUMPDEST PUSH0 PUSH0 SWAP1 POP SWAP1 JUMP JUMPDEST PUSH2 0x59C PUSH2 0x58D JUMP JUMPDEST PUSH2 0x5A7 DUP2 DUP5 DUP5 PUSH2 0x568 JUMP JUMPDEST POP POP POP JUMP JUMPDEST JUMPDEST DUP2 DUP2 LT ISZERO PUSH2 0x5CA JUMPI PUSH2 0x5BF PUSH0 DUP3 PUSH2 0x594 JUMP JUMPDEST PUSH1 0x1 DUP2 ADD SWAP1 POP PUSH2 0x5AD JUMP JUMPDEST POP POP JUMP JUMPDEST PUSH1 0x1F DUP3 GT ISZERO PUSH2 0x60F JUMPI PUSH2 0x5E0 DUP2 PUSH2 0x4B7 JUMP JUMPDEST PUSH2 0x5E9 DUP5 PUSH2 0x4C9 JUMP JUMPDEST DUP2 ADD PUSH1 0x20 DUP6 LT ISZERO PUSH2 0x5F8 JUMPI DUP2 SWAP1 POP JUMPDEST PUSH2 0x60C PUSH2 0x604 DUP6 PUSH2 0x4C9 JUMP JUMPDEST DUP4 ADD DUP3 PUSH2 0x5AC JUMP JUMPDEST POP POP JUMPDEST POP POP POP JUMP JUMPDEST PUSH0 DUP3 DUP3 SHR SWAP1 POP SWAP3 SWAP2 POP POP JUMP JUMPDEST PUSH0 PUSH2 0x62F PUSH0 NOT DUP5 PUSH1 0x8 MUL PUSH2 0x614 JUMP JUMPDEST NOT DUP1 DUP4 AND SWAP2 POP POP SWAP3 SWAP2 POP POP JUMP JUMPDEST PUSH0 PUSH2 0x647 DUP4 DUP4 PUSH2 0x620 JUMP JUMPDEST SWAP2 POP DUP3 PUSH1 0x2 MUL DUP3 OR SWAP1 POP SWAP3 SWAP2 POP POP JUMP JUMPDEST PUSH2 0x660 DUP3 PUSH2 0x17F JUMP JUMPDEST PUSH8 0xFFFFFFFFFFFFFFFF DUP2 GT ISZERO PUSH2 0x679 JUMPI PUSH2 0x678 PUSH2 0x276 JUMP JUMPDEST JUMPDEST PUSH2 0x683 DUP3 SLOAD PUSH2 0x487 JUMP JUMPDEST PUSH2 0x68E DUP3 DUP3 DUP6 PUSH2 0x5CE JUMP JUMPDEST PUSH0 PUSH1 0x20 SWAP1 POP PUSH1 0x1F DUP4 GT PUSH1 0x1 DUP2 EQ PUSH2 0x6BF JUMPI PUSH0 DUP5 ISZERO PUSH2 0x6AD JUMPI DUP3 DUP8 ADD MLOAD SWAP1 POP JUMPDEST PUSH2 0x6B7 DUP6 DUP3 PUSH2 0x63C JUMP JUMPDEST DUP7 SSTORE POP PUSH2 0x71E JUMP JUMPDEST PUSH1 0x1F NOT DUP5 AND PUSH2 0x6CD DUP7 PUSH2 0x4B7 JUMP JUMPDEST PUSH0 JUMPDEST DUP3 DUP2 LT ISZERO PUSH2 0x6F4 JUMPI DUP5 DUP10 ADD MLOAD DUP3 SSTORE PUSH1 0x1 DUP3 ADD SWAP2 POP PUSH1 0x20 DUP6 ADD SWAP5 POP PUSH1 0x20 DUP2 ADD SWAP1 POP PUSH2 0x6CF JUMP JUMPDEST DUP7 DUP4 LT ISZERO PUSH2 0x711 JUMPI DUP5 DUP10 ADD MLOAD PUSH2 0x70D PUSH1 0x1F DUP10 AND DUP3 PUSH2 0x620 JUMP JUMPDEST DUP4 SSTORE POP JUMPDEST PUSH1 0x1 PUSH1 0x2 DUP9 MUL ADD DUP9 SSTORE POP POP POP JUMPDEST POP POP POP POP POP POP JUMP INVALID LOG2 PUSH5 0x6970667358 0x22 SLT KECCAK256 0xBD 0xCB MSTORE8 0xC8 DUP4 PUSH6 0xBAC949C46506 0x2C 0xB8 PUSH12 0x9A3F30B07A66D1B140162910 0xCE SELFDESTRUCT MUL 0xDE 0x21 PUSH5 0x736F6C6343 STOP ADDMOD 0x1E STOP CALLER "
				},
				"gasEstimates": {
					"creation": {
						"codeDepositCost": "376800",
						"executionCost": "409",
						"totalCost": "377209"
					},
					"external": {
						"mystudent()": "infinite",
						"setstudents(string,uint256,bool)": "infinite"
					}
				},
				"methodIdentifiers": {
					"mystudent()": "78d8a3e4",
					"setstudents(string,uint256,bool)": "e4f2415c"
				}
			},
			"storageLayout": {
				"storage": [
					{
						"astId": 11,
						"contract": "structs.sol:structs",
						"label": "mystudent",
						"offset": 0,
						"slot": "0",
						"type": "t_struct(students)8_storage"
					}
				],
				"types": {
					"t_bool": {
						"encoding": "inplace",
						"label": "bool",
						"numberOfBytes": "1"
					},
					"t_string_storage": {
						"encoding": "bytes",
						"label": "string",
						"numberOfBytes": "32"
					},
					"t_struct(students)8_storage": {
						"encoding": "inplace",
						"label": "struct structs.students",
						"members": [
							{
								"astId": 3,
								"contract": "structs.sol:structs",
								"label": "name",
								"offset": 0,
								"slot": "0",
								"type": "t_string_storage"
							},
							{
								"astId": 5,
								"contract": "structs.sol:structs",
								"label": "age",
								"offset": 0,
								"slot": "1",
								"type": "t_uint256"
							},
							{
								"astId": 7,
								"contract": "structs.sol:structs",
								"label": "passed",
								"offset": 0,
								"slot": "2",
								"type": "t_bool"
							}
						],
						"numberOfBytes": "96"
					},
					"t_uint256": {
						"encoding": "inplace",
						"label": "uint256",
						"numberOfBytes": "32"
					}
				}
			},
			"userdoc": {
				"kind": "user",
				"methods": {},
				"version": 1
			}
		}
	}
}