{
	"personalnotes.sol": {
		"PersonalNotes": {
			"abi": [
				{
					"inputs": [
						{
							"internalType": "string",
							"name": "newNote",
							"type": "string"
						}
					],
					"name": "addNote",
					"outputs": [],
					"stateMutability": "nonpayable",
					"type": "function"
				},
				{
					"inputs": [
						{
							"internalType": "uint256",
							"name": "index",
							"type": "uint256"
						}
					],
					"name": "getNote",
					"outputs": [
						{
							"internalType": "string",
							"name": "",
							"type": "string"
						}
					],
					"stateMutability": "view",
					"type": "function"
				},
				{
					"inputs": [],
					"name": "getcount",
					"outputs": [
						{
							"internalType": "uint256",
							"name": "",
							"type": "uint256"
						}
					],
					"stateMutability": "view",
					"type": "function"
				},
				{
					"inputs": [
						{
							"internalType": "uint256",
							"name": "",
							"type": "uint256"
						}
					],
					"name": "notes",
					"outputs": [
						{
							"internalType": "string",
							"name": "",
							"type": "string"
						}
					],
					"stateMutability": "view",
					"type": "function"
				}
			],
			"devdoc": {
				"kind": "dev",
				"methods": {},
				"version": 1
			},
			"evm": {
				"assembly": "    /* \"personalnotes.sol\":61:412  contract PersonalNotes {... */\n  mstore(0x40, 0x80)\n  callvalue\n  dup1\n  iszero\n  tag_1\n  jumpi\n  revert(0x00, 0x00)\ntag_1:\n  pop\n  dataSize(sub_0)\n  dup1\n  dataOffset(sub_0)\n  0x00\n  codecopy\n  0x00\n  return\nstop\n\nsub_0: assembly {\n        /* \"personalnotes.sol\":61:412  contract PersonalNotes {... */\n      mstore(0x40, 0x80)\n      callvalue\n      dup1\n      iszero\n      tag_1\n      jumpi\n      revert(0x00, 0x00)\n    tag_1:\n      pop\n      jumpi(tag_2, lt(calldatasize, 0x04))\n      shr(0xe0, calldataload(0x00))\n      dup1\n      0x146af82b\n      eq\n      tag_3\n      jumpi\n      dup1\n      0x61c3a7e6\n      eq\n      tag_4\n      jumpi\n      dup1\n      0xa4edff47\n      eq\n      tag_5\n      jumpi\n      dup1\n      0xa965a941\n      eq\n      tag_6\n      jumpi\n    tag_2:\n      revert(0x00, 0x00)\n        /* \"personalnotes.sol\":324:409  function getcount() public view returns (uint) {... */\n    tag_3:\n      tag_7\n      tag_8\n      jump\t// in\n    tag_7:\n      mload(0x40)\n      tag_9\n      swap2\n      swap1\n      tag_10\n      jump\t// in\n    tag_9:\n      mload(0x40)\n      dup1\n      swap2\n      sub\n      swap1\n      return\n        /* \"personalnotes.sol\":91:112  string[] public notes */\n    tag_4:\n      tag_11\n      0x04\n      dup1\n      calldatasize\n      sub\n      dup2\n      add\n      swap1\n      tag_12\n      swap2\n      swap1\n      tag_13\n      jump\t// in\n    tag_12:\n      tag_14\n      jump\t// in\n    tag_11:\n      mload(0x40)\n      tag_15\n      swap2\n      swap1\n      tag_16\n      jump\t// in\n    tag_15:\n      mload(0x40)\n      dup1\n      swap2\n      sub\n      swap1\n      return\n        /* \"personalnotes.sol\":121:207  function addNote(string memory newNote) public  {... */\n    tag_5:\n      tag_17\n      0x04\n      dup1\n      calldatasize\n      sub\n      dup2\n      add\n      swap1\n      tag_18\n      swap2\n      swap1\n      tag_19\n      jump\t// in\n    tag_18:\n      tag_20\n      jump\t// in\n    tag_17:\n      stop\n        /* \"personalnotes.sol\":215:318  function getNote(uint index) public view returns (string memory) {... */\n    tag_6:\n      tag_21\n      0x04\n      dup1\n      calldatasize\n      sub\n      dup2\n      add\n      swap1\n      tag_22\n      swap2\n      swap1\n      tag_13\n      jump\t// in\n    tag_22:\n      tag_23\n      jump\t// in\n    tag_21:\n      mload(0x40)\n      tag_24\n      swap2\n      swap1\n      tag_16\n      jump\t// in\n    tag_24:\n      mload(0x40)\n      dup1\n      swap2\n      sub\n      swap1\n      return\n        /* \"personalnotes.sol\":324:409  function getcount() public view returns (uint) {... */\n    tag_8:\n        /* \"personalnotes.sol\":365:369  uint */\n      0x00\n        /* \"personalnotes.sol\":389:394  notes */\n      0x00\n        /* \"personalnotes.sol\":389:401  notes.length */\n      dup1\n      sload\n      swap1\n      pop\n        /* \"personalnotes.sol\":382:401  return notes.length */\n      swap1\n      pop\n        /* \"personalnotes.sol\":324:409  function getcount() public view returns (uint) {... */\n      swap1\n      jump\t// out\n        /* \"personalnotes.sol\":91:112  string[] public notes */\n    tag_14:\n      0x00\n      dup2\n      dup2\n      sload\n      dup2\n      lt\n      tag_26\n      jumpi\n      0x00\n      dup1\n      revert\n    tag_26:\n      swap1\n      0x00\n      mstore\n      keccak256(0x00, 0x20)\n      add\n      0x00\n      swap2\n      pop\n      swap1\n      pop\n      dup1\n      sload\n      tag_28\n      swap1\n      tag_29\n      jump\t// in\n    tag_28:\n      dup1\n      0x1f\n      add\n      0x20\n      dup1\n      swap2\n      div\n      mul\n      0x20\n      add\n      mload(0x40)\n      swap1\n      dup2\n      add\n      0x40\n      mstore\n      dup1\n      swap3\n      swap2\n      swap1\n      dup2\n      dup2\n      mstore\n      0x20\n      add\n      dup3\n      dup1\n      sload\n      tag_30\n      swap1\n      tag_29\n      jump\t// in\n    tag_30:\n      dup1\n      iszero\n      tag_31\n      jumpi\n      dup1\n      0x1f\n      lt\n      tag_32\n      jumpi\n      0x0100\n      dup1\n      dup4\n      sload\n      div\n      mul\n      dup4\n      mstore\n      swap2\n      0x20\n      add\n      swap2\n      jump(tag_31)\n    tag_32:\n      dup3\n      add\n      swap2\n      swap1\n      0x00\n      mstore\n      keccak256(0x00, 0x20)\n      swap1\n    tag_33:\n      dup2\n      sload\n      dup2\n      mstore\n      swap1\n      0x01\n      add\n      swap1\n      0x20\n      add\n      dup1\n      dup4\n      gt\n      tag_33\n      jumpi\n      dup3\n      swap1\n      sub\n      0x1f\n      and\n      dup3\n      add\n      swap2\n    tag_31:\n      pop\n      pop\n      pop\n      pop\n      pop\n      dup2\n      jump\t// out\n        /* \"personalnotes.sol\":121:207  function addNote(string memory newNote) public  {... */\n    tag_20:\n        /* \"personalnotes.sol\":180:185  notes */\n      0x00\n        /* \"personalnotes.sol\":191:198  newNote */\n      dup2\n        /* \"personalnotes.sol\":180:199  notes.push(newNote) */\n      swap1\n      dup1\n      0x01\n      dup2\n      sload\n      add\n      dup1\n      dup3\n      sstore\n      dup1\n      swap2\n      pop\n      pop\n      0x01\n      swap1\n      sub\n      swap1\n      0x00\n      mstore\n      keccak256(0x00, 0x20)\n      add\n      0x00\n      swap1\n      swap2\n      swap1\n      swap2\n      swap1\n      swap2\n      pop\n      swap1\n      dup2\n      tag_36\n      swap2\n      swap1\n      tag_37\n      jump\t// in\n    tag_36:\n      pop\n        /* \"personalnotes.sol\":121:207  function addNote(string memory newNote) public  {... */\n      pop\n      jump\t// out\n        /* \"personalnotes.sol\":215:318  function getNote(uint index) public view returns (string memory) {... */\n    tag_23:\n        /* \"personalnotes.sol\":265:278  string memory */\n      0x60\n        /* \"personalnotes.sol\":298:303  notes */\n      0x00\n        /* \"personalnotes.sol\":304:309  index */\n      dup3\n        /* \"personalnotes.sol\":298:310  notes[index] */\n      dup2\n      sload\n      dup2\n      lt\n      tag_39\n      jumpi\n      tag_40\n      tag_41\n      jump\t// in\n    tag_40:\n    tag_39:\n      swap1\n      0x00\n      mstore\n      keccak256(0x00, 0x20)\n      add\n        /* \"personalnotes.sol\":291:310  return notes[index] */\n      dup1\n      sload\n      tag_43\n      swap1\n      tag_29\n      jump\t// in\n    tag_43:\n      dup1\n      0x1f\n      add\n      0x20\n      dup1\n      swap2\n      div\n      mul\n      0x20\n      add\n      mload(0x40)\n      swap1\n      dup2\n      add\n      0x40\n      mstore\n      dup1\n      swap3\n      swap2\n      swap1\n      dup2\n      dup2\n      mstore\n      0x20\n      add\n      dup3\n      dup1\n      sload\n      tag_44\n      swap1\n      tag_29\n      jump\t// in\n    tag_44:\n      dup1\n      iszero\n      tag_45\n      jumpi\n      dup1\n      0x1f\n      lt\n      tag_46\n      jumpi\n      0x0100\n      dup1\n      dup4\n      sload\n      div\n      mul\n      dup4\n      mstore\n      swap2\n      0x20\n      add\n      swap2\n      jump(tag_45)\n    tag_46:\n      dup3\n      add\n      swap2\n      swap1\n      0x00\n      mstore\n      keccak256(0x00, 0x20)\n      swap1\n    tag_47:\n      dup2\n      sload\n      dup2\n      mstore\n      swap1\n      0x01\n      add\n      swap1\n      0x20\n      add\n      dup1\n      dup4\n      gt\n      tag_47\n      jumpi\n      dup3\n      swap1\n      sub\n      0x1f\n      and\n      dup3\n      add\n      swap2\n    tag_45:\n      pop\n      pop\n      pop\n      pop\n      pop\n      swap1\n      pop\n        /* \"personalnotes.sol\":215:318  function getNote(uint index) public view returns (string memory) {... */\n      swap2\n      swap1\n      pop\n      jump\t// out\n        /* \"#utility.yul\":7:84   */\n    tag_48:\n        /* \"#utility.yul\":44:51   */\n      0x00\n        /* \"#utility.yul\":73:78   */\n      dup2\n        /* \"#utility.yul\":62:78   */\n      swap1\n      pop\n        /* \"#utility.yul\":7:84   */\n      swap2\n      swap1\n      pop\n      jump\t// out\n        /* \"#utility.yul\":90:208   */\n    tag_49:\n        /* \"#utility.yul\":177:201   */\n      tag_88\n        /* \"#utility.yul\":195:200   */\n      dup2\n        /* \"#utility.yul\":177:201   */\n      tag_48\n      jump\t// in\n    tag_88:\n        /* \"#utility.yul\":172:175   */\n      dup3\n        /* \"#utility.yul\":165:202   */\n      mstore\n        /* \"#utility.yul\":90:208   */\n      pop\n      pop\n      jump\t// out\n        /* \"#utility.yul\":214:436   */\n    tag_10:\n        /* \"#utility.yul\":307:311   */\n      0x00\n        /* \"#utility.yul\":345:347   */\n      0x20\n        /* \"#utility.yul\":334:343   */\n      dup3\n        /* \"#utility.yul\":330:348   */\n      add\n        /* \"#utility.yul\":322:348   */\n      swap1\n      pop\n        /* \"#utility.yul\":358:429   */\n      tag_90\n        /* \"#utility.yul\":426:427   */\n      0x00\n        /* \"#utility.yul\":415:424   */\n      dup4\n        /* \"#utility.yul\":411:428   */\n      add\n        /* \"#utility.yul\":402:408   */\n      dup5\n        /* \"#utility.yul\":358:429   */\n      tag_49\n      jump\t// in\n    tag_90:\n        /* \"#utility.yul\":214:436   */\n      swap3\n      swap2\n      pop\n      pop\n      jump\t// out\n        /* \"#utility.yul\":442:517   */\n    tag_50:\n        /* \"#utility.yul\":475:481   */\n      0x00\n        /* \"#utility.yul\":508:510   */\n      0x40\n        /* \"#utility.yul\":502:511   */\n      mload\n        /* \"#utility.yul\":492:511   */\n      swap1\n      pop\n        /* \"#utility.yul\":442:517   */\n      swap1\n      jump\t// out\n        /* \"#utility.yul\":523:640   */\n    tag_51:\n        /* \"#utility.yul\":632:633   */\n      0x00\n        /* \"#utility.yul\":629:630   */\n      0x00\n        /* \"#utility.yul\":622:634   */\n      revert\n        /* \"#utility.yul\":646:763   */\n    tag_52:\n        /* \"#utility.yul\":755:756   */\n      0x00\n        /* \"#utility.yul\":752:753   */\n      0x00\n        /* \"#utility.yul\":745:757   */\n      revert\n        /* \"#utility.yul\":769:891   */\n    tag_53:\n        /* \"#utility.yul\":842:866   */\n      tag_95\n        /* \"#utility.yul\":860:865   */\n      dup2\n        /* \"#utility.yul\":842:866   */\n      tag_48\n      jump\t// in\n    tag_95:\n        /* \"#utility.yul\":835:840   */\n      dup2\n        /* \"#utility.yul\":832:867   */\n      eq\n        /* \"#utility.yul\":822:885   */\n      tag_96\n      jumpi\n        /* \"#utility.yul\":881:882   */\n      0x00\n        /* \"#utility.yul\":878:879   */\n      0x00\n        /* \"#utility.yul\":871:883   */\n      revert\n        /* \"#utility.yul\":822:885   */\n    tag_96:\n        /* \"#utility.yul\":769:891   */\n      pop\n      jump\t// out\n        /* \"#utility.yul\":897:1036   */\n    tag_54:\n        /* \"#utility.yul\":943:948   */\n      0x00\n        /* \"#utility.yul\":981:987   */\n      dup2\n        /* \"#utility.yul\":968:988   */\n      calldataload\n        /* \"#utility.yul\":959:988   */\n      swap1\n      pop\n        /* \"#utility.yul\":997:1030   */\n      tag_98\n        /* \"#utility.yul\":1024:1029   */\n      dup2\n        /* \"#utility.yul\":997:1030   */\n      tag_53\n      jump\t// in\n    tag_98:\n        /* \"#utility.yul\":897:1036   */\n      swap3\n      swap2\n      pop\n      pop\n      jump\t// out\n        /* \"#utility.yul\":1042:1371   */\n    tag_13:\n        /* \"#utility.yul\":1101:1107   */\n      0x00\n        /* \"#utility.yul\":1150:1152   */\n      0x20\n        /* \"#utility.yul\":1138:1147   */\n      dup3\n        /* \"#utility.yul\":1129:1136   */\n      dup5\n        /* \"#utility.yul\":1125:1148   */\n      sub\n        /* \"#utility.yul\":1121:1153   */\n      slt\n        /* \"#utility.yul\":1118:1237   */\n      iszero\n      tag_100\n      jumpi\n        /* \"#utility.yul\":1156:1235   */\n      tag_101\n      tag_51\n      jump\t// in\n    tag_101:\n        /* \"#utility.yul\":1118:1237   */\n    tag_100:\n        /* \"#utility.yul\":1276:1277   */\n      0x00\n        /* \"#utility.yul\":1301:1354   */\n      tag_102\n        /* \"#utility.yul\":1346:1353   */\n      dup5\n        /* \"#utility.yul\":1337:1343   */\n      dup3\n        /* \"#utility.yul\":1326:1335   */\n      dup6\n        /* \"#utility.yul\":1322:1344   */\n      add\n        /* \"#utility.yul\":1301:1354   */\n      tag_54\n      jump\t// in\n    tag_102:\n        /* \"#utility.yul\":1291:1354   */\n      swap2\n      pop\n        /* \"#utility.yul\":1247:1364   */\n      pop\n        /* \"#utility.yul\":1042:1371   */\n      swap3\n      swap2\n      pop\n      pop\n      jump\t// out\n        /* \"#utility.yul\":1377:1476   */\n    tag_55:\n        /* \"#utility.yul\":1429:1435   */\n      0x00\n        /* \"#utility.yul\":1463:1468   */\n      dup2\n        /* \"#utility.yul\":1457:1469   */\n      mload\n        /* \"#utility.yul\":1447:1469   */\n      swap1\n      pop\n        /* \"#utility.yul\":1377:1476   */\n      swap2\n      swap1\n      pop\n      jump\t// out\n        /* \"#utility.yul\":1482:1651   */\n    tag_56:\n        /* \"#utility.yul\":1566:1577   */\n      0x00\n        /* \"#utility.yul\":1600:1606   */\n      dup3\n        /* \"#utility.yul\":1595:1598   */\n      dup3\n        /* \"#utility.yul\":1588:1607   */\n      mstore\n        /* \"#utility.yul\":1640:1644   */\n      0x20\n        /* \"#utility.yul\":1635:1638   */\n      dup3\n        /* \"#utility.yul\":1631:1645   */\n      add\n        /* \"#utility.yul\":1616:1645   */\n      swap1\n      pop\n        /* \"#utility.yul\":1482:1651   */\n      swap3\n      swap2\n      pop\n      pop\n      jump\t// out\n        /* \"#utility.yul\":1657:1796   */\n    tag_57:\n        /* \"#utility.yul\":1746:1752   */\n      dup3\n        /* \"#utility.yul\":1741:1744   */\n      dup2\n        /* \"#utility.yul\":1736:1739   */\n      dup4\n        /* \"#utility.yul\":1730:1753   */\n      mcopy\n        /* \"#utility.yul\":1787:1788   */\n      0x00\n        /* \"#utility.yul\":1778:1784   */\n      dup4\n        /* \"#utility.yul\":1773:1776   */\n      dup4\n        /* \"#utility.yul\":1769:1785   */\n      add\n        /* \"#utility.yul\":1762:1789   */\n      mstore\n        /* \"#utility.yul\":1657:1796   */\n      pop\n      pop\n      pop\n      jump\t// out\n        /* \"#utility.yul\":1802:1904   */\n    tag_58:\n        /* \"#utility.yul\":1843:1849   */\n      0x00\n        /* \"#utility.yul\":1894:1896   */\n      0x1f\n        /* \"#utility.yul\":1890:1897   */\n      not\n        /* \"#utility.yul\":1885:1887   */\n      0x1f\n        /* \"#utility.yul\":1878:1883   */\n      dup4\n        /* \"#utility.yul\":1874:1888   */\n      add\n        /* \"#utility.yul\":1870:1898   */\n      and\n        /* \"#utility.yul\":1860:1898   */\n      swap1\n      pop\n        /* \"#utility.yul\":1802:1904   */\n      swap2\n      swap1\n      pop\n      jump\t// out\n        /* \"#utility.yul\":1910:2287   */\n    tag_59:\n        /* \"#utility.yul\":1998:2001   */\n      0x00\n        /* \"#utility.yul\":2026:2065   */\n      tag_108\n        /* \"#utility.yul\":2059:2064   */\n      dup3\n        /* \"#utility.yul\":2026:2065   */\n      tag_55\n      jump\t// in\n    tag_108:\n        /* \"#utility.yul\":2081:2152   */\n      tag_109\n        /* \"#utility.yul\":2145:2151   */\n      dup2\n        /* \"#utility.yul\":2140:2143   */\n      dup6\n        /* \"#utility.yul\":2081:2152   */\n      tag_56\n      jump\t// in\n    tag_109:\n        /* \"#utility.yul\":2074:2152   */\n      swap4\n      pop\n        /* \"#utility.yul\":2161:2226   */\n      tag_110\n        /* \"#utility.yul\":2219:2225   */\n      dup2\n        /* \"#utility.yul\":2214:2217   */\n      dup6\n        /* \"#utility.yul\":2207:2211   */\n      0x20\n        /* \"#utility.yul\":2200:2205   */\n      dup7\n        /* \"#utility.yul\":2196:2212   */\n      add\n        /* \"#utility.yul\":2161:2226   */\n      tag_57\n      jump\t// in\n    tag_110:\n        /* \"#utility.yul\":2251:2280   */\n      tag_111\n        /* \"#utility.yul\":2273:2279   */\n      dup2\n        /* \"#utility.yul\":2251:2280   */\n      tag_58\n      jump\t// in\n    tag_111:\n        /* \"#utility.yul\":2246:2249   */\n      dup5\n        /* \"#utility.yul\":2242:2281   */\n      add\n        /* \"#utility.yul\":2235:2281   */\n      swap2\n      pop\n        /* \"#utility.yul\":2002:2287   */\n      pop\n        /* \"#utility.yul\":1910:2287   */\n      swap3\n      swap2\n      pop\n      pop\n      jump\t// out\n        /* \"#utility.yul\":2293:2606   */\n    tag_16:\n        /* \"#utility.yul\":2406:2410   */\n      0x00\n        /* \"#utility.yul\":2444:2446   */\n      0x20\n        /* \"#utility.yul\":2433:2442   */\n      dup3\n        /* \"#utility.yul\":2429:2447   */\n      add\n        /* \"#utility.yul\":2421:2447   */\n      swap1\n      pop\n        /* \"#utility.yul\":2493:2502   */\n      dup2\n        /* \"#utility.yul\":2487:2491   */\n      dup2\n        /* \"#utility.yul\":2483:2503   */\n      sub\n        /* \"#utility.yul\":2479:2480   */\n      0x00\n        /* \"#utility.yul\":2468:2477   */\n      dup4\n        /* \"#utility.yul\":2464:2481   */\n      add\n        /* \"#utility.yul\":2457:2504   */\n      mstore\n        /* \"#utility.yul\":2521:2599   */\n      tag_113\n        /* \"#utility.yul\":2594:2598   */\n      dup2\n        /* \"#utility.yul\":2585:2591   */\n      dup5\n        /* \"#utility.yul\":2521:2599   */\n      tag_59\n      jump\t// in\n    tag_113:\n        /* \"#utility.yul\":2513:2599   */\n      swap1\n      pop\n        /* \"#utility.yul\":2293:2606   */\n      swap3\n      swap2\n      pop\n      pop\n      jump\t// out\n        /* \"#utility.yul\":2612:2729   */\n    tag_60:\n        /* \"#utility.yul\":2721:2722   */\n      0x00\n        /* \"#utility.yul\":2718:2719   */\n      0x00\n        /* \"#utility.yul\":2711:2723   */\n      revert\n        /* \"#utility.yul\":2735:2852   */\n    tag_61:\n        /* \"#utility.yul\":2844:2845   */\n      0x00\n        /* \"#utility.yul\":2841:2842   */\n      0x00\n        /* \"#utility.yul\":2834:2846   */\n      revert\n        /* \"#utility.yul\":2858:3038   */\n    tag_62:\n        /* \"#utility.yul\":2906:2983   */\n      0x4e487b7100000000000000000000000000000000000000000000000000000000\n        /* \"#utility.yul\":2903:2904   */\n      0x00\n        /* \"#utility.yul\":2896:2984   */\n      mstore\n        /* \"#utility.yul\":3003:3007   */\n      0x41\n        /* \"#utility.yul\":3000:3001   */\n      0x04\n        /* \"#utility.yul\":2993:3008   */\n      mstore\n        /* \"#utility.yul\":3027:3031   */\n      0x24\n        /* \"#utility.yul\":3024:3025   */\n      0x00\n        /* \"#utility.yul\":3017:3032   */\n      revert\n        /* \"#utility.yul\":3044:3325   */\n    tag_63:\n        /* \"#utility.yul\":3127:3154   */\n      tag_118\n        /* \"#utility.yul\":3149:3153   */\n      dup3\n        /* \"#utility.yul\":3127:3154   */\n      tag_58\n      jump\t// in\n    tag_118:\n        /* \"#utility.yul\":3119:3125   */\n      dup2\n        /* \"#utility.yul\":3115:3155   */\n      add\n        /* \"#utility.yul\":3257:3263   */\n      dup2\n        /* \"#utility.yul\":3245:3255   */\n      dup2\n        /* \"#utility.yul\":3242:3264   */\n      lt\n        /* \"#utility.yul\":3221:3239   */\n      0xffffffffffffffff\n        /* \"#utility.yul\":3209:3219   */\n      dup3\n        /* \"#utility.yul\":3206:3240   */\n      gt\n        /* \"#utility.yul\":3203:3265   */\n      or\n        /* \"#utility.yul\":3200:3288   */\n      iszero\n      tag_119\n      jumpi\n        /* \"#utility.yul\":3268:3286   */\n      tag_120\n      tag_62\n      jump\t// in\n    tag_120:\n        /* \"#utility.yul\":3200:3288   */\n    tag_119:\n        /* \"#utility.yul\":3308:3318   */\n      dup1\n        /* \"#utility.yul\":3304:3306   */\n      0x40\n        /* \"#utility.yul\":3297:3319   */\n      mstore\n        /* \"#utility.yul\":3087:3325   */\n      pop\n        /* \"#utility.yul\":3044:3325   */\n      pop\n      pop\n      jump\t// out\n        /* \"#utility.yul\":3331:3460   */\n    tag_64:\n        /* \"#utility.yul\":3365:3371   */\n      0x00\n        /* \"#utility.yul\":3392:3412   */\n      tag_122\n      tag_50\n      jump\t// in\n    tag_122:\n        /* \"#utility.yul\":3382:3412   */\n      swap1\n      pop\n        /* \"#utility.yul\":3421:3454   */\n      tag_123\n        /* \"#utility.yul\":3449:3453   */\n      dup3\n        /* \"#utility.yul\":3441:3447   */\n      dup3\n        /* \"#utility.yul\":3421:3454   */\n      tag_63\n      jump\t// in\n    tag_123:\n        /* \"#utility.yul\":3331:3460   */\n      swap2\n      swap1\n      pop\n      jump\t// out\n        /* \"#utility.yul\":3466:3774   */\n    tag_65:\n        /* \"#utility.yul\":3528:3532   */\n      0x00\n        /* \"#utility.yul\":3618:3636   */\n      0xffffffffffffffff\n        /* \"#utility.yul\":3610:3616   */\n      dup3\n        /* \"#utility.yul\":3607:3637   */\n      gt\n        /* \"#utility.yul\":3604:3660   */\n      iszero\n      tag_125\n      jumpi\n        /* \"#utility.yul\":3640:3658   */\n      tag_126\n      tag_62\n      jump\t// in\n    tag_126:\n        /* \"#utility.yul\":3604:3660   */\n    tag_125:\n        /* \"#utility.yul\":3678:3707   */\n      tag_127\n        /* \"#utility.yul\":3700:3706   */\n      dup3\n        /* \"#utility.yul\":3678:3707   */\n      tag_58\n      jump\t// in\n    tag_127:\n        /* \"#utility.yul\":3670:3707   */\n      swap1\n      pop\n        /* \"#utility.yul\":3762:3766   */\n      0x20\n        /* \"#utility.yul\":3756:3760   */\n      dup2\n        /* \"#utility.yul\":3752:3767   */\n      add\n        /* \"#utility.yul\":3744:3767   */\n      swap1\n      pop\n        /* \"#utility.yul\":3466:3774   */\n      swap2\n      swap1\n      pop\n      jump\t// out\n        /* \"#utility.yul\":3780:3928   */\n    tag_66:\n        /* \"#utility.yul\":3878:3884   */\n      dup3\n        /* \"#utility.yul\":3873:3876   */\n      dup2\n        /* \"#utility.yul\":3868:3871   */\n      dup4\n        /* \"#utility.yul\":3855:3885   */\n      calldatacopy\n        /* \"#utility.yul\":3919:3920   */\n      0x00\n        /* \"#utility.yul\":3910:3916   */\n      dup4\n        /* \"#utility.yul\":3905:3908   */\n      dup4\n        /* \"#utility.yul\":3901:3917   */\n      add\n        /* \"#utility.yul\":3894:3921   */\n      mstore\n        /* \"#utility.yul\":3780:3928   */\n      pop\n      pop\n      pop\n      jump\t// out\n        /* \"#utility.yul\":3934:4359   */\n    tag_67:\n        /* \"#utility.yul\":4012:4017   */\n      0x00\n        /* \"#utility.yul\":4037:4103   */\n      tag_130\n        /* \"#utility.yul\":4053:4102   */\n      tag_131\n        /* \"#utility.yul\":4095:4101   */\n      dup5\n        /* \"#utility.yul\":4053:4102   */\n      tag_65\n      jump\t// in\n    tag_131:\n        /* \"#utility.yul\":4037:4103   */\n      tag_64\n      jump\t// in\n    tag_130:\n        /* \"#utility.yul\":4028:4103   */\n      swap1\n      pop\n        /* \"#utility.yul\":4126:4132   */\n      dup3\n        /* \"#utility.yul\":4119:4124   */\n      dup2\n        /* \"#utility.yul\":4112:4133   */\n      mstore\n        /* \"#utility.yul\":4164:4168   */\n      0x20\n        /* \"#utility.yul\":4157:4162   */\n      dup2\n        /* \"#utility.yul\":4153:4169   */\n      add\n        /* \"#utility.yul\":4202:4205   */\n      dup5\n        /* \"#utility.yul\":4193:4199   */\n      dup5\n        /* \"#utility.yul\":4188:4191   */\n      dup5\n        /* \"#utility.yul\":4184:4200   */\n      add\n        /* \"#utility.yul\":4181:4206   */\n      gt\n        /* \"#utility.yul\":4178:4290   */\n      iszero\n      tag_132\n      jumpi\n        /* \"#utility.yul\":4209:4288   */\n      tag_133\n      tag_61\n      jump\t// in\n    tag_133:\n        /* \"#utility.yul\":4178:4290   */\n    tag_132:\n        /* \"#utility.yul\":4299:4353   */\n      tag_134\n        /* \"#utility.yul\":4346:4352   */\n      dup5\n        /* \"#utility.yul\":4341:4344   */\n      dup3\n        /* \"#utility.yul\":4336:4339   */\n      dup6\n        /* \"#utility.yul\":4299:4353   */\n      tag_66\n      jump\t// in\n    tag_134:\n        /* \"#utility.yul\":4018:4359   */\n      pop\n        /* \"#utility.yul\":3934:4359   */\n      swap4\n      swap3\n      pop\n      pop\n      pop\n      jump\t// out\n        /* \"#utility.yul\":4379:4719   */\n    tag_68:\n        /* \"#utility.yul\":4435:4440   */\n      0x00\n        /* \"#utility.yul\":4484:4487   */\n      dup3\n        /* \"#utility.yul\":4477:4481   */\n      0x1f\n        /* \"#utility.yul\":4469:4475   */\n      dup4\n        /* \"#utility.yul\":4465:4482   */\n      add\n        /* \"#utility.yul\":4461:4488   */\n      slt\n        /* \"#utility.yul\":4451:4573   */\n      tag_136\n      jumpi\n        /* \"#utility.yul\":4492:4571   */\n      tag_137\n      tag_60\n      jump\t// in\n    tag_137:\n        /* \"#utility.yul\":4451:4573   */\n    tag_136:\n        /* \"#utility.yul\":4609:4615   */\n      dup2\n        /* \"#utility.yul\":4596:4616   */\n      calldataload\n        /* \"#utility.yul\":4634:4713   */\n      tag_138\n        /* \"#utility.yul\":4709:4712   */\n      dup5\n        /* \"#utility.yul\":4701:4707   */\n      dup3\n        /* \"#utility.yul\":4694:4698   */\n      0x20\n        /* \"#utility.yul\":4686:4692   */\n      dup7\n        /* \"#utility.yul\":4682:4699   */\n      add\n        /* \"#utility.yul\":4634:4713   */\n      tag_67\n      jump\t// in\n    tag_138:\n        /* \"#utility.yul\":4625:4713   */\n      swap2\n      pop\n        /* \"#utility.yul\":4441:4719   */\n      pop\n        /* \"#utility.yul\":4379:4719   */\n      swap3\n      swap2\n      pop\n      pop\n      jump\t// out\n        /* \"#utility.yul\":4725:5234   */\n    tag_19:\n        /* \"#utility.yul\":4794:4800   */\n      0x00\n        /* \"#utility.yul\":4843:4845   */\n      0x20\n        /* \"#utility.yul\":4831:4840   */\n      dup3\n        /* \"#utility.yul\":4822:4829   */\n      dup5\n        /* \"#utility.yul\":4818:4841   */\n      sub\n        /* \"#utility.yul\":4814:4846   */\n      slt\n        /* \"#utility.yul\":4811:4930   */\n      iszero\n      tag_140\n      jumpi\n        /* \"#utility.yul\":4849:4928   */\n      tag_141\n      tag_51\n      jump\t// in\n    tag_141:\n        /* \"#utility.yul\":4811:4930   */\n    tag_140:\n        /* \"#utility.yul\":4997:4998   */\n      0x00\n        /* \"#utility.yul\":4986:4995   */\n      dup3\n        /* \"#utility.yul\":4982:4999   */\n      add\n        /* \"#utility.yul\":4969:5000   */\n      calldataload\n        /* \"#utility.yul\":5027:5045   */\n      0xffffffffffffffff\n        /* \"#utility.yul\":5019:5025   */\n      dup2\n        /* \"#utility.yul\":5016:5046   */\n      gt\n        /* \"#utility.yul\":5013:5130   */\n      iszero\n      tag_142\n      jumpi\n        /* \"#utility.yul\":5049:5128   */\n      tag_143\n      tag_52\n      jump\t// in\n    tag_143:\n        /* \"#utility.yul\":5013:5130   */\n    tag_142:\n        /* \"#utility.yul\":5154:5217   */\n      tag_144\n        /* \"#utility.yul\":5209:5216   */\n      dup5\n        /* \"#utility.yul\":5200:5206   */\n      dup3\n        /* \"#utility.yul\":5189:5198   */\n      dup6\n        /* \"#utility.yul\":5185:5207   */\n      add\n        /* \"#utility.yul\":5154:5217   */\n      tag_68\n      jump\t// in\n    tag_144:\n        /* \"#utility.yul\":5144:5217   */\n      swap2\n      pop\n        /* \"#utility.yul\":4940:5227   */\n      pop\n        /* \"#utility.yul\":4725:5234   */\n      swap3\n      swap2\n      pop\n      pop\n      jump\t// out\n        /* \"#utility.yul\":5240:5420   */\n    tag_69:\n        /* \"#utility.yul\":5288:5365   */\n      0x4e487b7100000000000000000000000000000000000000000000000000000000\n        /* \"#utility.yul\":5285:5286   */\n      0x00\n        /* \"#utility.yul\":5278:5366   */\n      mstore\n        /* \"#utility.yul\":5385:5389   */\n      0x22\n        /* \"#utility.yul\":5382:5383   */\n      0x04\n        /* \"#utility.yul\":5375:5390   */\n      mstore\n        /* \"#utility.yul\":5409:5413   */\n      0x24\n        /* \"#utility.yul\":5406:5407   */\n      0x00\n        /* \"#utility.yul\":5399:5414   */\n      revert\n        /* \"#utility.yul\":5426:5746   */\n    tag_29:\n        /* \"#utility.yul\":5470:5476   */\n      0x00\n        /* \"#utility.yul\":5507:5508   */\n      0x02\n        /* \"#utility.yul\":5501:5505   */\n      dup3\n        /* \"#utility.yul\":5497:5509   */\n      div\n        /* \"#utility.yul\":5487:5509   */\n      swap1\n      pop\n        /* \"#utility.yul\":5554:5555   */\n      0x01\n        /* \"#utility.yul\":5548:5552   */\n      dup3\n        /* \"#utility.yul\":5544:5556   */\n      and\n        /* \"#utility.yul\":5575:5593   */\n      dup1\n        /* \"#utility.yul\":5565:5646   */\n      tag_147\n      jumpi\n        /* \"#utility.yul\":5631:5635   */\n      0x7f\n        /* \"#utility.yul\":5623:5629   */\n      dup3\n        /* \"#utility.yul\":5619:5636   */\n      and\n        /* \"#utility.yul\":5609:5636   */\n      swap2\n      pop\n        /* \"#utility.yul\":5565:5646   */\n    tag_147:\n        /* \"#utility.yul\":5693:5695   */\n      0x20\n        /* \"#utility.yul\":5685:5691   */\n      dup3\n        /* \"#utility.yul\":5682:5696   */\n      lt\n        /* \"#utility.yul\":5662:5680   */\n      dup2\n        /* \"#utility.yul\":5659:5697   */\n      sub\n        /* \"#utility.yul\":5656:5740   */\n      tag_148\n      jumpi\n        /* \"#utility.yul\":5712:5730   */\n      tag_149\n      tag_69\n      jump\t// in\n    tag_149:\n        /* \"#utility.yul\":5656:5740   */\n    tag_148:\n        /* \"#utility.yul\":5477:5746   */\n      pop\n        /* \"#utility.yul\":5426:5746   */\n      swap2\n      swap1\n      pop\n      jump\t// out\n        /* \"#utility.yul\":5752:5893   */\n    tag_70:\n        /* \"#utility.yul\":5801:5805   */\n      0x00\n        /* \"#utility.yul\":5824:5827   */\n      dup2\n        /* \"#utility.yul\":5816:5827   */\n      swap1\n      pop\n        /* \"#utility.yul\":5847:5850   */\n      dup2\n        /* \"#utility.yul\":5844:5845   */\n      0x00\n        /* \"#utility.yul\":5837:5851   */\n      mstore\n        /* \"#utility.yul\":5881:5885   */\n      0x20\n        /* \"#utility.yul\":5878:5879   */\n      0x00\n        /* \"#utility.yul\":5868:5886   */\n      keccak256\n        /* \"#utility.yul\":5860:5886   */\n      swap1\n      pop\n        /* \"#utility.yul\":5752:5893   */\n      swap2\n      swap1\n      pop\n      jump\t// out\n        /* \"#utility.yul\":5899:5992   */\n    tag_71:\n        /* \"#utility.yul\":5936:5942   */\n      0x00\n        /* \"#utility.yul\":5983:5985   */\n      0x20\n        /* \"#utility.yul\":5978:5980   */\n      0x1f\n        /* \"#utility.yul\":5971:5976   */\n      dup4\n        /* \"#utility.yul\":5967:5981   */\n      add\n        /* \"#utility.yul\":5963:5986   */\n      div\n        /* \"#utility.yul\":5953:5986   */\n      swap1\n      pop\n        /* \"#utility.yul\":5899:5992   */\n      swap2\n      swap1\n      pop\n      jump\t// out\n        /* \"#utility.yul\":5998:6105   */\n    tag_72:\n        /* \"#utility.yul\":6042:6050   */\n      0x00\n        /* \"#utility.yul\":6092:6097   */\n      dup3\n        /* \"#utility.yul\":6086:6090   */\n      dup3\n        /* \"#utility.yul\":6082:6098   */\n      shl\n        /* \"#utility.yul\":6061:6098   */\n      swap1\n      pop\n        /* \"#utility.yul\":5998:6105   */\n      swap3\n      swap2\n      pop\n      pop\n      jump\t// out\n        /* \"#utility.yul\":6111:6504   */\n    tag_73:\n        /* \"#utility.yul\":6180:6186   */\n      0x00\n        /* \"#utility.yul\":6230:6231   */\n      0x08\n        /* \"#utility.yul\":6218:6228   */\n      dup4\n        /* \"#utility.yul\":6214:6232   */\n      mul\n        /* \"#utility.yul\":6253:6350   */\n      tag_154\n        /* \"#utility.yul\":6283:6349   */\n      0xffffffffffffffffffffffffffffffffffffffffffffffffffffffffffffffff\n        /* \"#utility.yul\":6272:6281   */\n      dup3\n        /* \"#utility.yul\":6253:6350   */\n      tag_72\n      jump\t// in\n    tag_154:\n        /* \"#utility.yul\":6371:6410   */\n      tag_155\n        /* \"#utility.yul\":6401:6409   */\n      dup7\n        /* \"#utility.yul\":6390:6399   */\n      dup4\n        /* \"#utility.yul\":6371:6410   */\n      tag_72\n      jump\t// in\n    tag_155:\n        /* \"#utility.yul\":6359:6410   */\n      swap6\n      pop\n        /* \"#utility.yul\":6443:6447   */\n      dup1\n        /* \"#utility.yul\":6439:6448   */\n      not\n        /* \"#utility.yul\":6432:6437   */\n      dup5\n        /* \"#utility.yul\":6428:6449   */\n      and\n        /* \"#utility.yul\":6419:6449   */\n      swap4\n      pop\n        /* \"#utility.yul\":6492:6496   */\n      dup1\n        /* \"#utility.yul\":6482:6490   */\n      dup7\n        /* \"#utility.yul\":6478:6497   */\n      and\n        /* \"#utility.yul\":6471:6476   */\n      dup5\n        /* \"#utility.yul\":6468:6498   */\n      or\n        /* \"#utility.yul\":6458:6498   */\n      swap3\n      pop\n        /* \"#utility.yul\":6187:6504   */\n      pop\n      pop\n        /* \"#utility.yul\":6111:6504   */\n      swap4\n      swap3\n      pop\n      pop\n      pop\n      jump\t// out\n        /* \"#utility.yul\":6510:6570   */\n    tag_74:\n        /* \"#utility.yul\":6538:6541   */\n      0x00\n        /* \"#utility.yul\":6559:6564   */\n      dup2\n        /* \"#utility.yul\":6552:6564   */\n      swap1\n      pop\n        /* \"#utility.yul\":6510:6570   */\n      swap2\n      swap1\n      pop\n      jump\t// out\n        /* \"#utility.yul\":6576:6718   */\n    tag_75:\n        /* \"#utility.yul\":6626:6635   */\n      0x00\n        /* \"#utility.yul\":6659:6712   */\n      tag_158\n        /* \"#utility.yul\":6677:6711   */\n      tag_159\n        /* \"#utility.yul\":6686:6710   */\n      tag_160\n        /* \"#utility.yul\":6704:6709   */\n      dup5\n        /* \"#utility.yul\":6686:6710   */\n      tag_48\n      jump\t// in\n    tag_160:\n        /* \"#utility.yul\":6677:6711   */\n      tag_74\n      jump\t// in\n    tag_159:\n        /* \"#utility.yul\":6659:6712   */\n      tag_48\n      jump\t// in\n    tag_158:\n        /* \"#utility.yul\":6646:6712   */\n      swap1\n      pop\n        /* \"#utility.yul\":6576:6718   */\n      swap2\n      swap1\n      pop\n      jump\t// out\n        /* \"#utility.yul\":6724:6799   */\n    tag_76:\n        /* \"#utility.yul\":6767:6770   */\n      0x00\n        /* \"#utility.yul\":6788:6793   */\n      dup2\n        /* \"#utility.yul\":6781:6793   */\n      swap1\n      pop\n        /* \"#utility.yul\":6724:6799   */\n      swap2\n      swap1\n      pop\n      jump\t// out\n        /* \"#utility.yul\":6805:7074   */\n    tag_77:\n        /* \"#utility.yul\":6915:6954   */\n      tag_163\n        /* \"#utility.yul\":6946:6953   */\n      dup4\n        /* \"#utility.yul\":6915:6954   */\n      tag_75\n      jump\t// in\n    tag_163:\n        /* \"#utility.yul\":6976:7067   */\n      tag_164\n        /* \"#utility.yul\":7025:7066   */\n      tag_165\n        /* \"#utility.yul\":7049:7065   */\n      dup3\n        /* \"#utility.yul\":7025:7066   */\n      tag_76\n      jump\t// in\n    tag_165:\n        /* \"#utility.yul\":7017:7023   */\n      dup5\n        /* \"#utility.yul\":7010:7014   */\n      dup5\n        /* \"#utility.yul\":7004:7015   */\n      sload\n        /* \"#utility.yul\":6976:7067   */\n      tag_73\n      jump\t// in\n    tag_164:\n        /* \"#utility.yul\":6970:6974   */\n      dup3\n        /* \"#utility.yul\":6963:7068   */\n      sstore\n        /* \"#utility.yul\":6881:7074   */\n      pop\n        /* \"#utility.yul\":6805:7074   */\n      pop\n      pop\n      pop\n      jump\t// out\n        /* \"#utility.yul\":7080:7153   */\n    tag_78:\n        /* \"#utility.yul\":7125:7128   */\n      0x00\n        /* \"#utility.yul\":7146:7147   */\n      0x00\n        /* \"#utility.yul\":7139:7147   */\n      swap1\n      pop\n        /* \"#utility.yul\":7080:7153   */\n      swap1\n      jump\t// out\n        /* \"#utility.yul\":7159:7348   */\n    tag_79:\n        /* \"#utility.yul\":7236:7268   */\n      tag_168\n      tag_78\n      jump\t// in\n    tag_168:\n        /* \"#utility.yul\":7277:7342   */\n      tag_169\n        /* \"#utility.yul\":7335:7341   */\n      dup2\n        /* \"#utility.yul\":7327:7333   */\n      dup5\n        /* \"#utility.yul\":7321:7325   */\n      dup5\n        /* \"#utility.yul\":7277:7342   */\n      tag_77\n      jump\t// in\n    tag_169:\n        /* \"#utility.yul\":7212:7348   */\n      pop\n        /* \"#utility.yul\":7159:7348   */\n      pop\n      pop\n      jump\t// out\n        /* \"#utility.yul\":7354:7540   */\n    tag_80:\n        /* \"#utility.yul\":7414:7534   */\n    tag_171:\n        /* \"#utility.yul\":7431:7434   */\n      dup2\n        /* \"#utility.yul\":7424:7429   */\n      dup2\n        /* \"#utility.yul\":7421:7435   */\n      lt\n        /* \"#utility.yul\":7414:7534   */\n      iszero\n      tag_173\n      jumpi\n        /* \"#utility.yul\":7485:7524   */\n      tag_174\n        /* \"#utility.yul\":7522:7523   */\n      0x00\n        /* \"#utility.yul\":7515:7520   */\n      dup3\n        /* \"#utility.yul\":7485:7524   */\n      tag_79\n      jump\t// in\n    tag_174:\n        /* \"#utility.yul\":7458:7459   */\n      0x01\n        /* \"#utility.yul\":7451:7456   */\n      dup2\n        /* \"#utility.yul\":7447:7460   */\n      add\n        /* \"#utility.yul\":7438:7460   */\n      swap1\n      pop\n        /* \"#utility.yul\":7414:7534   */\n      jump(tag_171)\n    tag_173:\n        /* \"#utility.yul\":7354:7540   */\n      pop\n      pop\n      jump\t// out\n        /* \"#utility.yul\":7546:8089   */\n    tag_81:\n        /* \"#utility.yul\":7647:7649   */\n      0x1f\n        /* \"#utility.yul\":7642:7645   */\n      dup3\n        /* \"#utility.yul\":7639:7650   */\n      gt\n        /* \"#utility.yul\":7636:8082   */\n      iszero\n      tag_176\n      jumpi\n        /* \"#utility.yul\":7681:7719   */\n      tag_177\n        /* \"#utility.yul\":7713:7718   */\n      dup2\n        /* \"#utility.yul\":7681:7719   */\n      tag_70\n      jump\t// in\n    tag_177:\n        /* \"#utility.yul\":7765:7794   */\n      tag_178\n        /* \"#utility.yul\":7783:7793   */\n      dup5\n        /* \"#utility.yul\":7765:7794   */\n      tag_71\n      jump\t// in\n    tag_178:\n        /* \"#utility.yul\":7755:7763   */\n      dup2\n        /* \"#utility.yul\":7751:7795   */\n      add\n        /* \"#utility.yul\":7948:7950   */\n      0x20\n        /* \"#utility.yul\":7936:7946   */\n      dup6\n        /* \"#utility.yul\":7933:7951   */\n      lt\n        /* \"#utility.yul\":7930:7979   */\n      iszero\n      tag_179\n      jumpi\n        /* \"#utility.yul\":7969:7977   */\n      dup2\n        /* \"#utility.yul\":7954:7977   */\n      swap1\n      pop\n        /* \"#utility.yul\":7930:7979   */\n    tag_179:\n        /* \"#utility.yul\":7992:8072   */\n      tag_180\n        /* \"#utility.yul\":8048:8070   */\n      tag_181\n        /* \"#utility.yul\":8066:8069   */\n      dup6\n        /* \"#utility.yul\":8048:8070   */\n      tag_71\n      jump\t// in\n    tag_181:\n        /* \"#utility.yul\":8038:8046   */\n      dup4\n        /* \"#utility.yul\":8034:8071   */\n      add\n        /* \"#utility.yul\":8021:8032   */\n      dup3\n        /* \"#utility.yul\":7992:8072   */\n      tag_80\n      jump\t// in\n    tag_180:\n        /* \"#utility.yul\":7651:8082   */\n      pop\n      pop\n        /* \"#utility.yul\":7636:8082   */\n    tag_176:\n        /* \"#utility.yul\":7546:8089   */\n      pop\n      pop\n      pop\n      jump\t// out\n        /* \"#utility.yul\":8095:8212   */\n    tag_82:\n        /* \"#utility.yul\":8149:8157   */\n      0x00\n        /* \"#utility.yul\":8199:8204   */\n      dup3\n        /* \"#utility.yul\":8193:8197   */\n      dup3\n        /* \"#utility.yul\":8189:8205   */\n      shr\n        /* \"#utility.yul\":8168:8205   */\n      swap1\n      pop\n        /* \"#utility.yul\":8095:8212   */\n      swap3\n      swap2\n      pop\n      pop\n      jump\t// out\n        /* \"#utility.yul\":8218:8387   */\n    tag_83:\n        /* \"#utility.yul\":8262:8268   */\n      0x00\n        /* \"#utility.yul\":8295:8346   */\n      tag_184\n        /* \"#utility.yul\":8343:8344   */\n      0x00\n        /* \"#utility.yul\":8339:8345   */\n      not\n        /* \"#utility.yul\":8331:8336   */\n      dup5\n        /* \"#utility.yul\":8328:8329   */\n      0x08\n        /* \"#utility.yul\":8324:8337   */\n      mul\n        /* \"#utility.yul\":8295:8346   */\n      tag_82\n      jump\t// in\n    tag_184:\n        /* \"#utility.yul\":8291:8347   */\n      not\n        /* \"#utility.yul\":8376:8380   */\n      dup1\n        /* \"#utility.yul\":8370:8374   */\n      dup4\n        /* \"#utility.yul\":8366:8381   */\n      and\n        /* \"#utility.yul\":8356:8381   */\n      swap2\n      pop\n        /* \"#utility.yul\":8269:8387   */\n      pop\n        /* \"#utility.yul\":8218:8387   */\n      swap3\n      swap2\n      pop\n      pop\n      jump\t// out\n        /* \"#utility.yul\":8392:8687   */\n    tag_84:\n        /* \"#utility.yul\":8468:8472   */\n      0x00\n        /* \"#utility.yul\":8614:8643   */\n      tag_186\n        /* \"#utility.yul\":8639:8642   */\n      dup4\n        /* \"#utility.yul\":8633:8637   */\n      dup4\n        /* \"#utility.yul\":8614:8643   */\n      tag_83\n      jump\t// in\n    tag_186:\n        /* \"#utility.yul\":8606:8643   */\n      swap2\n      pop\n        /* \"#utility.yul\":8676:8679   */\n      dup3\n        /* \"#utility.yul\":8673:8674   */\n      0x02\n        /* \"#utility.yul\":8669:8680   */\n      mul\n        /* \"#utility.yul\":8663:8667   */\n      dup3\n        /* \"#utility.yul\":8660:8681   */\n      or\n        /* \"#utility.yul\":8652:8681   */\n      swap1\n      pop\n        /* \"#utility.yul\":8392:8687   */\n      swap3\n      swap2\n      pop\n      pop\n      jump\t// out\n        /* \"#utility.yul\":8692:10087   */\n    tag_37:\n        /* \"#utility.yul\":8809:8846   */\n      tag_188\n        /* \"#utility.yul\":8842:8845   */\n      dup3\n        /* \"#utility.yul\":8809:8846   */\n      tag_55\n      jump\t// in\n    tag_188:\n        /* \"#utility.yul\":8911:8929   */\n      0xffffffffffffffff\n        /* \"#utility.yul\":8903:8909   */\n      dup2\n        /* \"#utility.yul\":8900:8930   */\n      gt\n        /* \"#utility.yul\":8897:8953   */\n      iszero\n      tag_189\n      jumpi\n        /* \"#utility.yul\":8933:8951   */\n      tag_190\n      tag_62\n      jump\t// in\n    tag_190:\n        /* \"#utility.yul\":8897:8953   */\n    tag_189:\n        /* \"#utility.yul\":8977:9015   */\n      tag_191\n        /* \"#utility.yul\":9009:9013   */\n      dup3\n        /* \"#utility.yul\":9003:9014   */\n      sload\n        /* \"#utility.yul\":8977:9015   */\n      tag_29\n      jump\t// in\n    tag_191:\n        /* \"#utility.yul\":9062:9129   */\n      tag_192\n        /* \"#utility.yul\":9122:9128   */\n      dup3\n        /* \"#utility.yul\":9114:9120   */\n      dup3\n        /* \"#utility.yul\":9108:9112   */\n      dup6\n        /* \"#utility.yul\":9062:9129   */\n      tag_81\n      jump\t// in\n    tag_192:\n        /* \"#utility.yul\":9156:9157   */\n      0x00\n        /* \"#utility.yul\":9180:9184   */\n      0x20\n        /* \"#utility.yul\":9167:9184   */\n      swap1\n      pop\n        /* \"#utility.yul\":9212:9214   */\n      0x1f\n        /* \"#utility.yul\":9204:9210   */\n      dup4\n        /* \"#utility.yul\":9201:9215   */\n      gt\n        /* \"#utility.yul\":9229:9230   */\n      0x01\n        /* \"#utility.yul\":9224:9842   */\n      dup2\n      eq\n      tag_194\n      jumpi\n        /* \"#utility.yul\":9886:9887   */\n      0x00\n        /* \"#utility.yul\":9903:9909   */\n      dup5\n        /* \"#utility.yul\":9900:9977   */\n      iszero\n      tag_195\n      jumpi\n        /* \"#utility.yul\":9952:9961   */\n      dup3\n        /* \"#utility.yul\":9947:9950   */\n      dup8\n        /* \"#utility.yul\":9943:9962   */\n      add\n        /* \"#utility.yul\":9937:9963   */\n      mload\n        /* \"#utility.yul\":9928:9963   */\n      swap1\n      pop\n        /* \"#utility.yul\":9900:9977   */\n    tag_195:\n        /* \"#utility.yul\":10003:10070   */\n      tag_196\n        /* \"#utility.yul\":10063:10069   */\n      dup6\n        /* \"#utility.yul\":10056:10061   */\n      dup3\n        /* \"#utility.yul\":10003:10070   */\n      tag_84\n      jump\t// in\n    tag_196:\n        /* \"#utility.yul\":9997:10001   */\n      dup7\n        /* \"#utility.yul\":9990:10071   */\n      sstore\n        /* \"#utility.yul\":9859:10081   */\n      pop\n        /* \"#utility.yul\":9194:10081   */\n      jump(tag_193)\n        /* \"#utility.yul\":9224:9842   */\n    tag_194:\n        /* \"#utility.yul\":9276:9280   */\n      0x1f\n        /* \"#utility.yul\":9272:9281   */\n      not\n        /* \"#utility.yul\":9264:9270   */\n      dup5\n        /* \"#utility.yul\":9260:9282   */\n      and\n        /* \"#utility.yul\":9310:9347   */\n      tag_197\n        /* \"#utility.yul\":9342:9346   */\n      dup7\n        /* \"#utility.yul\":9310:9347   */\n      tag_70\n      jump\t// in\n    tag_197:\n        /* \"#utility.yul\":9369:9370   */\n      0x00\n        /* \"#utility.yul\":9383:9591   */\n    tag_198:\n        /* \"#utility.yul\":9397:9404   */\n      dup3\n        /* \"#utility.yul\":9394:9395   */\n      dup2\n        /* \"#utility.yul\":9391:9405   */\n      lt\n        /* \"#utility.yul\":9383:9591   */\n      iszero\n      tag_200\n      jumpi\n        /* \"#utility.yul\":9476:9485   */\n      dup5\n        /* \"#utility.yul\":9471:9474   */\n      dup10\n        /* \"#utility.yul\":9467:9486   */\n      add\n        /* \"#utility.yul\":9461:9487   */\n      mload\n        /* \"#utility.yul\":9453:9459   */\n      dup3\n        /* \"#utility.yul\":9446:9488   */\n      sstore\n        /* \"#utility.yul\":9527:9528   */\n      0x01\n        /* \"#utility.yul\":9519:9525   */\n      dup3\n        /* \"#utility.yul\":9515:9529   */\n      add\n        /* \"#utility.yul\":9505:9529   */\n      swap2\n      pop\n        /* \"#utility.yul\":9574:9576   */\n      0x20\n        /* \"#utility.yul\":9563:9572   */\n      dup6\n        /* \"#utility.yul\":9559:9577   */\n      add\n        /* \"#utility.yul\":9546:9577   */\n      swap5\n      pop\n        /* \"#utility.yul\":9420:9424   */\n      0x20\n        /* \"#utility.yul\":9417:9418   */\n      dup2\n        /* \"#utility.yul\":9413:9425   */\n      add\n        /* \"#utility.yul\":9408:9425   */\n      swap1\n      pop\n        /* \"#utility.yul\":9383:9591   */\n      jump(tag_198)\n    tag_200:\n        /* \"#utility.yul\":9619:9625   */\n      dup7\n        /* \"#utility.yul\":9610:9617   */\n      dup4\n        /* \"#utility.yul\":9607:9626   */\n      lt\n        /* \"#utility.yul\":9604:9783   */\n      iszero\n      tag_201\n      jumpi\n        /* \"#utility.yul\":9677:9686   */\n      dup5\n        /* \"#utility.yul\":9672:9675   */\n      dup10\n        /* \"#utility.yul\":9668:9687   */\n      add\n        /* \"#utility.yul\":9662:9688   */\n      mload\n        /* \"#utility.yul\":9720:9768   */\n      tag_202\n        /* \"#utility.yul\":9762:9766   */\n      0x1f\n        /* \"#utility.yul\":9754:9760   */\n      dup10\n        /* \"#utility.yul\":9750:9767   */\n      and\n        /* \"#utility.yul\":9739:9748   */\n      dup3\n        /* \"#utility.yul\":9720:9768   */\n      tag_83\n      jump\t// in\n    tag_202:\n        /* \"#utility.yul\":9712:9718   */\n      dup4\n        /* \"#utility.yul\":9705:9769   */\n      sstore\n        /* \"#utility.yul\":9627:9783   */\n      pop\n        /* \"#utility.yul\":9604:9783   */\n    tag_201:\n        /* \"#utility.yul\":9829:9830   */\n      0x01\n        /* \"#utility.yul\":9825:9826   */\n      0x02\n        /* \"#utility.yul\":9817:9823   */\n      dup9\n        /* \"#utility.yul\":9813:9827   */\n      mul\n        /* \"#utility.yul\":9809:9831   */\n      add\n        /* \"#utility.yul\":9803:9807   */\n      dup9\n        /* \"#utility.yul\":9796:9832   */\n      sstore\n        /* \"#utility.yul\":9231:9842   */\n      pop\n      pop\n      pop\n        /* \"#utility.yul\":9194:10081   */\n    tag_193:\n      pop\n        /* \"#utility.yul\":8784:10087   */\n      pop\n      pop\n      pop\n        /* \"#utility.yul\":8692:10087   */\n      pop\n      pop\n      jump\t// out\n        /* \"#utility.yul\":10093:10273   */\n    tag_41:\n        /* \"#utility.yul\":10141:10218   */\n      0x4e487b7100000000000000000000000000000000000000000000000000000000\n        /* \"#utility.yul\":10138:10139   */\n      0x00\n        /* \"#utility.yul\":10131:10219   */\n      mstore\n        /* \"#utility.yul\":10238:10242   */\n      0x32\n        /* \"#utility.yul\":10235:10236   */\n      0x04\n        /* \"#utility.yul\":10228:10243   */\n      mstore\n        /* \"#utility.yul\":10262:10266   */\n      0x24\n        /* \"#utility.yul\":10259:10260   */\n      0x00\n        /* \"#utility.yul\":10252:10267   */\n      revert\n\n    auxdata: 0xa26469706673582212209a7cf8cb3955fd7c88e97946b6f9cc29ee8ca5d723bc51d6833b1e9b7873a54764736f6c634300081e0033\n}\n",
				"bytecode": {
					"linkReferences": {},
					"object": "6080604052348015600e575f5ffd5b506108408061001c5f395ff3fe608060405234801561000f575f5ffd5b506004361061004a575f3560e01c8063146af82b1461004e57806361c3a7e61461006c578063a4edff471461009c578063a965a941146100b8575b5f5ffd5b6100566100e8565b604051610063919061028f565b60405180910390f35b610086600480360381019061008191906102e3565b6100f3565b604051610093919061037e565b60405180910390f35b6100b660048036038101906100b191906104ca565b610198565b005b6100d260048036038101906100cd91906102e3565b6101cc565b6040516100df919061037e565b60405180910390f35b5f5f80549050905090565b5f8181548110610101575f80fd5b905f5260205f20015f9150905080546101199061053e565b80601f01602080910402602001604051908101604052809291908181526020018280546101459061053e565b80156101905780601f1061016757610100808354040283529160200191610190565b820191905f5260205f20905b81548152906001019060200180831161017357829003601f168201915b505050505081565b5f81908060018154018082558091505060019003905f5260205f20015f9091909190915090816101c8919061070e565b5050565b60605f82815481106101e1576101e06107dd565b5b905f5260205f200180546101f49061053e565b80601f01602080910402602001604051908101604052809291908181526020018280546102209061053e565b801561026b5780601f106102425761010080835404028352916020019161026b565b820191905f5260205f20905b81548152906001019060200180831161024e57829003601f168201915b50505050509050919050565b5f819050919050565b61028981610277565b82525050565b5f6020820190506102a25f830184610280565b92915050565b5f604051905090565b5f5ffd5b5f5ffd5b6102c281610277565b81146102cc575f5ffd5b50565b5f813590506102dd816102b9565b92915050565b5f602082840312156102f8576102f76102b1565b5b5f610305848285016102cf565b91505092915050565b5f81519050919050565b5f82825260208201905092915050565b8281835e5f83830152505050565b5f601f19601f8301169050919050565b5f6103508261030e565b61035a8185610318565b935061036a818560208601610328565b61037381610336565b840191505092915050565b5f6020820190508181035f8301526103968184610346565b905092915050565b5f5ffd5b5f5ffd5b7f4e487b71000000000000000000000000000000000000000000000000000000005f52604160045260245ffd5b6103dc82610336565b810181811067ffffffffffffffff821117156103fb576103fa6103a6565b5b80604052505050565b5f61040d6102a8565b905061041982826103d3565b919050565b5f67ffffffffffffffff821115610438576104376103a6565b5b61044182610336565b9050602081019050919050565b828183375f83830152505050565b5f61046e6104698461041e565b610404565b90508281526020810184848401111561048a576104896103a2565b5b61049584828561044e565b509392505050565b5f82601f8301126104b1576104b061039e565b5b81356104c184826020860161045c565b91505092915050565b5f602082840312156104df576104de6102b1565b5b5f82013567ffffffffffffffff8111156104fc576104fb6102b5565b5b6105088482850161049d565b91505092915050565b7f4e487b71000000000000000000000000000000000000000000000000000000005f52602260045260245ffd5b5f600282049050600182168061055557607f821691505b60208210810361056857610567610511565b5b50919050565b5f819050815f5260205f209050919050565b5f6020601f8301049050919050565b5f82821b905092915050565b5f600883026105ca7fffffffffffffffffffffffffffffffffffffffffffffffffffffffffffffffff8261058f565b6105d4868361058f565b95508019841693508086168417925050509392505050565b5f819050919050565b5f61060f61060a61060584610277565b6105ec565b610277565b9050919050565b5f819050919050565b610628836105f5565b61063c61063482610616565b84845461059b565b825550505050565b5f5f905090565b610653610644565b61065e81848461061f565b505050565b5b81811015610681576106765f8261064b565b600181019050610664565b5050565b601f8211156106c6576106978161056e565b6106a084610580565b810160208510156106af578190505b6106c36106bb85610580565b830182610663565b50505b505050565b5f82821c905092915050565b5f6106e65f19846008026106cb565b1980831691505092915050565b5f6106fe83836106d7565b9150826002028217905092915050565b6107178261030e565b67ffffffffffffffff8111156107305761072f6103a6565b5b61073a825461053e565b610745828285610685565b5f60209050601f831160018114610776575f8415610764578287015190505b61076e85826106f3565b8655506107d5565b601f1984166107848661056e565b5f5b828110156107ab57848901518255600182019150602085019450602081019050610786565b868310156107c857848901516107c4601f8916826106d7565b8355505b6001600288020188555050505b505050505050565b7f4e487b71000000000000000000000000000000000000000000000000000000005f52603260045260245ffdfea26469706673582212209a7cf8cb3955fd7c88e97946b6f9cc29ee8ca5d723bc51d6833b1e9b7873a54764736f6c634300081e0033",
					"opcodes": "PUSH1 0x80 PUSH1 0x40 MSTORE CALLVALUE DUP1 ISZERO PUSH1 0xE JUMPI PUSH0 PUSH0 REVERT JUMPDEST POP PUSH2 0x840 DUP1 PUSH2 0x1C PUSH0 CODECOPY PUSH0 RETURN INVALID PUSH1 0x80 PUSH1 0x40 MSTORE CALLVALUE DUP1 ISZERO PUSH2 0xF JUMPI PUSH0 PUSH0 REVERT JUMPDEST POP PUSH1 0x4 CALLDATASIZE LT PUSH2 0x4A JUMPI PUSH0 CALLDATALOAD PUSH1 0xE0 SHR DUP1 PUSH4 0x146AF82B EQ PUSH2 0x4E JUMPI DUP1 PUSH4 0x61C3A7E6 EQ PUSH2 0x6C JUMPI DUP1 PUSH4 0xA4EDFF47 EQ PUSH2 0x9C JUMPI DUP1 PUSH4 0xA965A941 EQ PUSH2 0xB8 JUMPI JUMPDEST PUSH0 PUSH0 REVERT JUMPDEST PUSH2 0x56 PUSH2 0xE8 JUMP JUMPDEST PUSH1 0x40 MLOAD PUSH2 0x63 SWAP2 SWAP1 PUSH2 0x28F JUMP JUMPDEST PUSH1 0x40 MLOAD DUP1 SWAP2 SUB SWAP1 RETURN JUMPDEST PUSH2 0x86 PUSH1 0x4 DUP1 CALLDATASIZE SUB DUP2 ADD SWAP1 PUSH2 0x81 SWAP2 SWAP1 PUSH2 0x2E3 JUMP JUMPDEST PUSH2 0xF3 JUMP JUMPDEST PUSH1 0x40 MLOAD PUSH2 0x93 SWAP2 SWAP1 PUSH2 0x37E JUMP JUMPDEST PUSH1 0x40 MLOAD DUP1 SWAP2 SUB SWAP1 RETURN JUMPDEST PUSH2 0xB6 PUSH1 0x4 DUP1 CALLDATASIZE SUB DUP2 ADD SWAP1 PUSH2 0xB1 SWAP2 SWAP1 PUSH2 0x4CA JUMP JUMPDEST PUSH2 0x198 JUMP JUMPDEST STOP JUMPDEST PUSH2 0xD2 PUSH1 0x4 DUP1 CALLDATASIZE SUB DUP2 ADD SWAP1 PUSH2 0xCD SWAP2 SWAP1 PUSH2 0x2E3 JUMP JUMPDEST PUSH2 0x1CC JUMP JUMPDEST PUSH1 0x40 MLOAD PUSH2 0xDF SWAP2 SWAP1 PUSH2 0x37E JUMP JUMPDEST PUSH1 0x40 MLOAD DUP1 SWAP2 SUB SWAP1 RETURN JUMPDEST PUSH0 PUSH0 DUP1 SLOAD SWAP1 POP SWAP1 POP SWAP1 JUMP JUMPDEST PUSH0 DUP2 DUP2 SLOAD DUP2 LT PUSH2 0x101 JUMPI PUSH0 DUP1 REVERT JUMPDEST SWAP1 PUSH0 MSTORE PUSH1 0x20 PUSH0 KECCAK256 ADD PUSH0 SWAP2 POP SWAP1 POP DUP1 SLOAD PUSH2 0x119 SWAP1 PUSH2 0x53E JUMP JUMPDEST DUP1 PUSH1 0x1F ADD PUSH1 0x20 DUP1 SWAP2 DIV MUL PUSH1 0x20 ADD PUSH1 0x40 MLOAD SWAP1 DUP2 ADD PUSH1 0x40 MSTORE DUP1 SWAP3 SWAP2 SWAP1 DUP2 DUP2 MSTORE PUSH1 0x20 ADD DUP3 DUP1 SLOAD PUSH2 0x145 SWAP1 PUSH2 0x53E JUMP JUMPDEST DUP1 ISZERO PUSH2 0x190 JUMPI DUP1 PUSH1 0x1F LT PUSH2 0x167 JUMPI PUSH2 0x100 DUP1 DUP4 SLOAD DIV MUL DUP4 MSTORE SWAP2 PUSH1 0x20 ADD SWAP2 PUSH2 0x190 JUMP JUMPDEST DUP3 ADD SWAP2 SWAP1 PUSH0 MSTORE PUSH1 0x20 PUSH0 KECCAK256 SWAP1 JUMPDEST DUP2 SLOAD DUP2 MSTORE SWAP1 PUSH1 0x1 ADD SWAP1 PUSH1 0x20 ADD DUP1 DUP4 GT PUSH2 0x173 JUMPI DUP3 SWAP1 SUB PUSH1 0x1F AND DUP3 ADD SWAP2 JUMPDEST POP POP POP POP POP DUP2 JUMP JUMPDEST PUSH0 DUP2 SWAP1 DUP1 PUSH1 0x1 DUP2 SLOAD ADD DUP1 DUP3 SSTORE DUP1 SWAP2 POP POP PUSH1 0x1 SWAP1 SUB SWAP1 PUSH0 MSTORE PUSH1 0x20 PUSH0 KECCAK256 ADD PUSH0 SWAP1 SWAP2 SWAP1 SWAP2 SWAP1 SWAP2 POP SWAP1 DUP2 PUSH2 0x1C8 SWAP2 SWAP1 PUSH2 0x70E JUMP JUMPDEST POP POP JUMP JUMPDEST PUSH1 0x60 PUSH0 DUP3 DUP2 SLOAD DUP2 LT PUSH2 0x1E1 JUMPI PUSH2 0x1E0 PUSH2 0x7DD JUMP JUMPDEST JUMPDEST SWAP1 PUSH0 MSTORE PUSH1 0x20 PUSH0 KECCAK256 ADD DUP1 SLOAD PUSH2 0x1F4 SWAP1 PUSH2 0x53E JUMP JUMPDEST DUP1 PUSH1 0x1F ADD PUSH1 0x20 DUP1 SWAP2 DIV MUL PUSH1 0x20 ADD PUSH1 0x40 MLOAD SWAP1 DUP2 ADD PUSH1 0x40 MSTORE DUP1 SWAP3 SWAP2 SWAP1 DUP2 DUP2 MSTORE PUSH1 0x20 ADD DUP3 DUP1 SLOAD PUSH2 0x220 SWAP1 PUSH2 0x53E JUMP JUMPDEST DUP1 ISZERO PUSH2 0x26B JUMPI DUP1 PUSH1 0x1F LT PUSH2 0x242 JUMPI PUSH2 0x100 DUP1 DUP4 SLOAD DIV MUL DUP4 MSTORE SWAP2 PUSH1 0x20 ADD SWAP2 PUSH2 0x26B JUMP JUMPDEST DUP3 ADD SWAP2 SWAP1 PUSH0 MSTORE PUSH1 0x20 PUSH0 KECCAK256 SWAP1 JUMPDEST DUP2 SLOAD DUP2 MSTORE SWAP1 PUSH1 0x1 ADD SWAP1 PUSH1 0x20 ADD DUP1 DUP4 GT PUSH2 0x24E JUMPI DUP3 SWAP1 SUB PUSH1 0x1F AND DUP3 ADD SWAP2 JUMPDEST POP POP POP POP POP SWAP1 POP SWAP2 SWAP1 POP JUMP JUMPDEST PUSH0 DUP2 SWAP1 POP SWAP2 SWAP1 POP JUMP JUMPDEST PUSH2 0x289 DUP2 PUSH2 0x277 JUMP JUMPDEST DUP3 MSTORE POP POP JUMP JUMPDEST PUSH0 PUSH1 0x20 DUP3 ADD SWAP1 POP PUSH2 0x2A2 PUSH0 DUP4 ADD DUP5 PUSH2 0x280 JUMP JUMPDEST SWAP3 SWAP2 POP POP JUMP JUMPDEST PUSH0 PUSH1 0x40 MLOAD SWAP1 POP SWAP1 JUMP JUMPDEST PUSH0 PUSH0 REVERT JUMPDEST PUSH0 PUSH0 REVERT JUMPDEST PUSH2 0x2C2 DUP2 PUSH2 0x277 JUMP JUMPDEST DUP2 EQ PUSH2 0x2CC JUMPI PUSH0 PUSH0 REVERT JUMPDEST POP JUMP JUMPDEST PUSH0 DUP2 CALLDATALOAD SWAP1 POP PUSH2 0x2DD DUP2 PUSH2 0x2B9 JUMP JUMPDEST SWAP3 SWAP2 POP POP JUMP JUMPDEST PUSH0 PUSH1 0x20 DUP3 DUP5 SUB SLT ISZERO PUSH2 0x2F8 JUMPI PUSH2 0x2F7 PUSH2 0x2B1 JUMP JUMPDEST JUMPDEST PUSH0 PUSH2 0x305 DUP5 DUP3 DUP6 ADD PUSH2 0x2CF JUMP JUMPDEST SWAP2 POP POP SWAP3 SWAP2 POP POP JUMP JUMPDEST PUSH0 DUP2 MLOAD SWAP1 POP SWAP2 SWAP1 POP JUMP JUMPDEST PUSH0 DUP3 DUP3 MSTORE PUSH1 0x20 DUP3 ADD SWAP1 POP SWAP3 SWAP2 POP POP JUMP JUMPDEST DUP3 DUP2 DUP4 MCOPY PUSH0 DUP4 DUP4 ADD MSTORE POP POP POP JUMP JUMPDEST PUSH0 PUSH1 0x1F NOT PUSH1 0x1F DUP4 ADD AND SWAP1 POP SWAP2 SWAP1 POP JUMP JUMPDEST PUSH0 PUSH2 0x350 DUP3 PUSH2 0x30E JUMP JUMPDEST PUSH2 0x35A DUP2 DUP6 PUSH2 0x318 JUMP JUMPDEST SWAP4 POP PUSH2 0x36A DUP2 DUP6 PUSH1 0x20 DUP7 ADD PUSH2 0x328 JUMP JUMPDEST PUSH2 0x373 DUP2 PUSH2 0x336 JUMP JUMPDEST DUP5 ADD SWAP2 POP POP SWAP3 SWAP2 POP POP JUMP JUMPDEST PUSH0 PUSH1 0x20 DUP3 ADD SWAP1 POP DUP2 DUP2 SUB PUSH0 DUP4 ADD MSTORE PUSH2 0x396 DUP2 DUP5 PUSH2 0x346 JUMP JUMPDEST SWAP1 POP SWAP3 SWAP2 POP POP JUMP JUMPDEST PUSH0 PUSH0 REVERT JUMPDEST PUSH0 PUSH0 REVERT JUMPDEST PUSH32 0x4E487B7100000000000000000000000000000000000000000000000000000000 PUSH0 MSTORE PUSH1 0x41 PUSH1 0x4 MSTORE PUSH1 0x24 PUSH0 REVERT JUMPDEST PUSH2 0x3DC DUP3 PUSH2 0x336 JUMP JUMPDEST DUP2 ADD DUP2 DUP2 LT PUSH8 0xFFFFFFFFFFFFFFFF DUP3 GT OR ISZERO PUSH2 0x3FB JUMPI PUSH2 0x3FA PUSH2 0x3A6 JUMP JUMPDEST JUMPDEST DUP1 PUSH1 0x40 MSTORE POP POP POP JUMP JUMPDEST PUSH0 PUSH2 0x40D PUSH2 0x2A8 JUMP JUMPDEST SWAP1 POP PUSH2 0x419 DUP3 DUP3 PUSH2 0x3D3 JUMP JUMPDEST SWAP2 SWAP1 POP JUMP JUMPDEST PUSH0 PUSH8 0xFFFFFFFFFFFFFFFF DUP3 GT ISZERO PUSH2 0x438 JUMPI PUSH2 0x437 PUSH2 0x3A6 JUMP JUMPDEST JUMPDEST PUSH2 0x441 DUP3 PUSH2 0x336 JUMP JUMPDEST SWAP1 POP PUSH1 0x20 DUP2 ADD SWAP1 POP SWAP2 SWAP1 POP JUMP JUMPDEST DUP3 DUP2 DUP4 CALLDATACOPY PUSH0 DUP4 DUP4 ADD MSTORE POP POP POP JUMP JUMPDEST PUSH0 PUSH2 0x46E PUSH2 0x469 DUP5 PUSH2 0x41E JUMP JUMPDEST PUSH2 0x404 JUMP JUMPDEST SWAP1 POP DUP3 DUP2 MSTORE PUSH1 0x20 DUP2 ADD DUP5 DUP5 DUP5 ADD GT ISZERO PUSH2 0x48A JUMPI PUSH2 0x489 PUSH2 0x3A2 JUMP JUMPDEST JUMPDEST PUSH2 0x495 DUP5 DUP3 DUP6 PUSH2 0x44E JUMP JUMPDEST POP SWAP4 SWAP3 POP POP POP JUMP JUMPDEST PUSH0 DUP3 PUSH1 0x1F DUP4 ADD SLT PUSH2 0x4B1 JUMPI PUSH2 0x4B0 PUSH2 0x39E JUMP JUMPDEST JUMPDEST DUP2 CALLDATALOAD PUSH2 0x4C1 DUP5 DUP3 PUSH1 0x20 DUP7 ADD PUSH2 0x45C JUMP JUMPDEST SWAP2 POP POP SWAP3 SWAP2 POP POP JUMP JUMPDEST PUSH0 PUSH1 0x20 DUP3 DUP5 SUB SLT ISZERO PUSH2 0x4DF JUMPI PUSH2 0x4DE PUSH2 0x2B1 JUMP JUMPDEST JUMPDEST PUSH0 DUP3 ADD CALLDATALOAD PUSH8 0xFFFFFFFFFFFFFFFF DUP2 GT ISZERO PUSH2 0x4FC JUMPI PUSH2 0x4FB PUSH2 0x2B5 JUMP JUMPDEST JUMPDEST PUSH2 0x508 DUP5 DUP3 DUP6 ADD PUSH2 0x49D JUMP JUMPDEST SWAP2 POP POP SWAP3 SWAP2 POP POP JUMP JUMPDEST PUSH32 0x4E487B7100000000000000000000000000000000000000000000000000000000 PUSH0 MSTORE PUSH1 0x22 PUSH1 0x4 MSTORE PUSH1 0x24 PUSH0 REVERT JUMPDEST PUSH0 PUSH1 0x2 DUP3 DIV SWAP1 POP PUSH1 0x1 DUP3 AND DUP1 PUSH2 0x555 JUMPI PUSH1 0x7F DUP3 AND SWAP2 POP JUMPDEST PUSH1 0x20 DUP3 LT DUP2 SUB PUSH2 0x568 JUMPI PUSH2 0x567 PUSH2 0x511 JUMP JUMPDEST JUMPDEST POP SWAP2 SWAP1 POP JUMP JUMPDEST PUSH0 DUP2 SWAP1 POP DUP2 PUSH0 MSTORE PUSH1 0x20 PUSH0 KECCAK256 SWAP1 POP SWAP2 SWAP1 POP JUMP JUMPDEST PUSH0 PUSH1 0x20 PUSH1 0x1F DUP4 ADD DIV SWAP1 POP SWAP2 SWAP1 POP JUMP JUMPDEST PUSH0 DUP3 DUP3 SHL SWAP1 POP SWAP3 SWAP2 POP POP JUMP JUMPDEST PUSH0 PUSH1 0x8 DUP4 MUL PUSH2 0x5CA PUSH32 0xFFFFFFFFFFFFFFFFFFFFFFFFFFFFFFFFFFFFFFFFFFFFFFFFFFFFFFFFFFFFFFFF DUP3 PUSH2 0x58F JUMP JUMPDEST PUSH2 0x5D4 DUP7 DUP4 PUSH2 0x58F JUMP JUMPDEST SWAP6 POP DUP1 NOT DUP5 AND SWAP4 POP DUP1 DUP7 AND DUP5 OR SWAP3 POP POP POP SWAP4 SWAP3 POP POP POP JUMP JUMPDEST PUSH0 DUP2 SWAP1 POP SWAP2 SWAP1 POP JUMP JUMPDEST PUSH0 PUSH2 0x60F PUSH2 0x60A PUSH2 0x605 DUP5 PUSH2 0x277 JUMP JUMPDEST PUSH2 0x5EC JUMP JUMPDEST PUSH2 0x277 JUMP JUMPDEST SWAP1 POP SWAP2 SWAP1 POP JUMP JUMPDEST PUSH0 DUP2 SWAP1 POP SWAP2 SWAP1 POP JUMP JUMPDEST PUSH2 0x628 DUP4 PUSH2 0x5F5 JUMP JUMPDEST PUSH2 0x63C PUSH2 0x634 DUP3 PUSH2 0x616 JUMP JUMPDEST DUP5 DUP5 SLOAD PUSH2 0x59B JUMP JUMPDEST DUP3 SSTORE POP POP POP POP JUMP JUMPDEST PUSH0 PUSH0 SWAP1 POP SWAP1 JUMP JUMPDEST PUSH2 0x653 PUSH2 0x644 JUMP JUMPDEST PUSH2 0x65E DUP2 DUP5 DUP5 PUSH2 0x61F JUMP JUMPDEST POP POP POP JUMP JUMPDEST JUMPDEST DUP2 DUP2 LT ISZERO PUSH2 0x681 JUMPI PUSH2 0x676 PUSH0 DUP3 PUSH2 0x64B JUMP JUMPDEST PUSH1 0x1 DUP2 ADD SWAP1 POP PUSH2 0x664 JUMP JUMPDEST POP POP JUMP JUMPDEST PUSH1 0x1F DUP3 GT ISZERO PUSH2 0x6C6 JUMPI PUSH2 0x697 DUP2 PUSH2 0x56E JUMP JUMPDEST PUSH2 0x6A0 DUP5 PUSH2 0x580 JUMP JUMPDEST DUP2 ADD PUSH1 0x20 DUP6 LT ISZERO PUSH2 0x6AF JUMPI DUP2 SWAP1 POP JUMPDEST PUSH2 0x6C3 PUSH2 0x6BB DUP6 PUSH2 0x580 JUMP JUMPDEST DUP4 ADD DUP3 PUSH2 0x663 JUMP JUMPDEST POP POP JUMPDEST POP POP POP JUMP JUMPDEST PUSH0 DUP3 DUP3 SHR SWAP1 POP SWAP3 SWAP2 POP POP JUMP JUMPDEST PUSH0 PUSH2 0x6E6 PUSH0 NOT DUP5 PUSH1 0x8 MUL PUSH2 0x6CB JUMP JUMPDEST NOT DUP1 DUP4 AND SWAP2 POP POP SWAP3 SWAP2 POP POP JUMP JUMPDEST PUSH0 PUSH2 0x6FE DUP4 DUP4 PUSH2 0x6D7 JUMP JUMPDEST SWAP2 POP DUP3 PUSH1 0x2 MUL DUP3 OR SWAP1 POP SWAP3 SWAP2 POP POP JUMP JUMPDEST PUSH2 0x717 DUP3 PUSH2 0x30E JUMP JUMPDEST PUSH8 0xFFFFFFFFFFFFFFFF DUP2 GT ISZERO PUSH2 0x730 JUMPI PUSH2 0x72F PUSH2 0x3A6 JUMP JUMPDEST JUMPDEST PUSH2 0x73A DUP3 SLOAD PUSH2 0x53E JUMP JUMPDEST PUSH2 0x745 DUP3 DUP3 DUP6 PUSH2 0x685 JUMP JUMPDEST PUSH0 PUSH1 0x20 SWAP1 POP PUSH1 0x1F DUP4 GT PUSH1 0x1 DUP2 EQ PUSH2 0x776 JUMPI PUSH0 DUP5 ISZERO PUSH2 0x764 JUMPI DUP3 DUP8 ADD MLOAD SWAP1 POP JUMPDEST PUSH2 0x76E DUP6 DUP3 PUSH2 0x6F3 JUMP JUMPDEST DUP7 SSTORE POP PUSH2 0x7D5 JUMP JUMPDEST PUSH1 0x1F NOT DUP5 AND PUSH2 0x784 DUP7 PUSH2 0x56E JUMP JUMPDEST PUSH0 JUMPDEST DUP3 DUP2 LT ISZERO PUSH2 0x7AB JUMPI DUP5 DUP10 ADD MLOAD DUP3 SSTORE PUSH1 0x1 DUP3 ADD SWAP2 POP PUSH1 0x20 DUP6 ADD SWAP5 POP PUSH1 0x20 DUP2 ADD SWAP1 POP PUSH2 0x786 JUMP JUMPDEST DUP7 DUP4 LT ISZERO PUSH2 0x7C8 JUMPI DUP5 DUP10 ADD MLOAD PUSH2 0x7C4 PUSH1 0x1F DUP10 AND DUP3 PUSH2 0x6D7 JUMP JUMPDEST DUP4 SSTORE POP JUMPDEST PUSH1 0x1 PUSH1 0x2 DUP9 MUL ADD DUP9 SSTORE POP POP POP JUMPDEST POP POP POP POP POP POP JUMP JUMPDEST PUSH32 0x4E487B7100000000000000000000000000000000000000000000000000000000 PUSH0 MSTORE PUSH1 0x32 PUSH1 0x4 MSTORE PUSH1 0x24 PUSH0 REVERT INVALID LOG2 PUSH5 0x6970667358 0x22 SLT KECCAK256 SWAP11 PUSH29 0xF8CB3955FD7C88E97946B6F9CC29EE8CA5D723BC51D6833B1E9B7873A5 SELFBALANCE PUSH5 0x736F6C6343 STOP ADDMOD 0x1E STOP CALLER "
				},
				"gasEstimates": {
					"creation": {
						"codeDepositCost": "422400",
						"executionCost": "453",
						"totalCost": "422853"
					},
					"external": {
						"addNote(string)": "infinite",
						"getNote(uint256)": "infinite",
						"getcount()": "2417",
						"notes(uint256)": "infinite"
					}
				},
				"methodIdentifiers": {
					"addNote(string)": "a4edff47",
					"getNote(uint256)": "a965a941",
					"getcount()": "146af82b",
					"notes(uint256)": "61c3a7e6"
				}
			},
			"storageLayout": {
				"storage": [
					{
						"astId": 4,
						"contract": "personalnotes.sol:PersonalNotes",
						"label": "notes",
						"offset": 0,
						"slot": "0",
						"type": "t_array(t_string_storage)dyn_storage"
					}
				],
				"types": {
					"t_array(t_string_storage)dyn_storage": {
						"base": "t_string_storage",
						"encoding": "dynamic_array",
						"label": "string[]",
						"numberOfBytes": "32"
					},
					"t_string_storage": {
						"encoding": "bytes",
						"label": "string",
						"numberOfBytes": "32"
					}
				}
			},
			"userdoc": {
				"kind": "user",
				"methods": {},
				"version": 1
			}
		}
	}
}