{
	"data": {
		"bytecode": {
			"linkReferences": {},
			"object": "608060405234801561000f575f5ffd5b506040516125793803806125798339818101604052810190610031919061051d565b845f908161003f91906107d3565b50836001908161004f91906107d3565b508260025f6101000a81548160ff021916908360ff16021790555082600a61007791906109fe565b816100829190610a48565b6004819055503360075f6101000a81548173ffffffffffffffffffffffffffffffffffffffff021916908373ffffffffffffffffffffffffffffffffffffffff160217905550600160085f3373ffffffffffffffffffffffffffffffffffffffff1673ffffffffffffffffffffffffffffffffffffffff1681526020019081526020015f205f6101000a81548160ff021916908315150217905550600160095f3373ffffffffffffffffffffffffffffffffffffffff1673ffffffffffffffffffffffffffffffffffffffff1681526020019081526020015f205f6101000a81548160ff0219169083151502179055506101993384600a61018391906109fe565b8461018e9190610a48565b6101a360201b60201c565b5050505050610ae4565b5f73ffffffffffffffffffffffffffffffffffffffff168273ffffffffffffffffffffffffffffffffffffffff1603610208576040517fd92e233d00000000000000000000000000000000000000000000000000000000815260040160405180910390fd5b5f816003546102179190610a89565b9050600454811115610255576040517fc30436e900000000000000000000000000000000000000000000000000000000815260040160405180910390fd5b806003819055508160055f8573ffffffffffffffffffffffffffffffffffffffff1673ffffffffffffffffffffffffffffffffffffffff1681526020019081526020015f205f8282546102a89190610a89565b925050819055508273ffffffffffffffffffffffffffffffffffffffff167f0f6798a560793a54c3bcfe86a93cde1e73087d944c0ea20544137d4121396885836040516102f59190610acb565b60405180910390a28273ffffffffffffffffffffffffffffffffffffffff165f73ffffffffffffffffffffffffffffffffffffffff167fddf252ad1be2c89b69c2b068fc378daa952ba7f163c4a11628f55a4df523b3ef8460405161035a9190610acb565b60405180910390a3505050565b5f604051905090565b5f5ffd5b5f5ffd5b5f5ffd5b5f5ffd5b5f601f19601f8301169050919050565b7f4e487b71000000000000000000000000000000000000000000000000000000005f52604160045260245ffd5b6103c682610380565b810181811067ffffffffffffffff821117156103e5576103e4610390565b5b80604052505050565b5f6103f7610367565b905061040382826103bd565b919050565b5f67ffffffffffffffff82111561042257610421610390565b5b61042b82610380565b9050602081019050919050565b8281835e5f83830152505050565b5f61045861045384610408565b6103ee565b9050828152602081018484840111156104745761047361037c565b5b61047f848285610438565b509392505050565b5f82601f83011261049b5761049a610378565b5b81516104ab848260208601610446565b91505092915050565b5f60ff82169050919050565b6104c9816104b4565b81146104d3575f5ffd5b50565b5f815190506104e4816104c0565b92915050565b5f819050919050565b6104fc816104ea565b8114610506575f5ffd5b50565b5f81519050610517816104f3565b92915050565b5f5f5f5f5f60a0868803121561053657610535610370565b5b5f86015167ffffffffffffffff81111561055357610552610374565b5b61055f88828901610487565b955050602086015167ffffffffffffffff8111156105805761057f610374565b5b61058c88828901610487565b945050604061059d888289016104d6565b93505060606105ae88828901610509565b92505060806105bf88828901610509565b9150509295509295909350565b5f81519050919050565b7f4e487b71000000000000000000000000000000000000000000000000000000005f52602260045260245ffd5b5f600282049050600182168061061a57607f821691505b60208210810361062d5761062c6105d6565b5b50919050565b5f819050815f5260205f209050919050565b5f6020601f8301049050919050565b5f82821b905092915050565b5f6008830261068f7fffffffffffffffffffffffffffffffffffffffffffffffffffffffffffffffff82610654565b6106998683610654565b95508019841693508086168417925050509392505050565b5f819050919050565b5f6106d46106cf6106ca846104ea565b6106b1565b6104ea565b9050919050565b5f819050919050565b6106ed836106ba565b6107016106f9826106db565b848454610660565b825550505050565b5f5f905090565b610718610709565b6107238184846106e4565b505050565b5b818110156107465761073b5f82610710565b600181019050610729565b5050565b601f82111561078b5761075c81610633565b61076584610645565b81016020851015610774578190505b61078861078085610645565b830182610728565b50505b505050565b5f82821c905092915050565b5f6107ab5f1984600802610790565b1980831691505092915050565b5f6107c3838361079c565b9150826002028217905092915050565b6107dc826105cc565b67ffffffffffffffff8111156107f5576107f4610390565b5b6107ff8254610603565b61080a82828561074a565b5f60209050601f83116001811461083b575f8415610829578287015190505b61083385826107b8565b86555061089a565b601f19841661084986610633565b5f5b828110156108705784890151825560018201915060208501945060208101905061084b565b8683101561088d5784890151610889601f89168261079c565b8355505b6001600288020188555050505b505050505050565b7f4e487b71000000000000000000000000000000000000000000000000000000005f52601160045260245ffd5b5f8160011c9050919050565b5f5f8291508390505b600185111561092457808604811115610900576108ff6108a2565b5b600185161561090f5780820291505b808102905061091d856108cf565b94506108e4565b94509492505050565b5f8261093c57600190506109f7565b81610949575f90506109f7565b816001811461095f576002811461096957610998565b60019150506109f7565b60ff84111561097b5761097a6108a2565b5b8360020a915084821115610992576109916108a2565b5b506109f7565b5060208310610133831016604e8410600b84101617156109cd5782820a9050838111156109c8576109c76108a2565b5b6109f7565b6109da84848460016108db565b925090508184048111156109f1576109f06108a2565b5b81810290505b9392505050565b5f610a08826104ea565b9150610a13836104b4565b9250610a407fffffffffffffffffffffffffffffffffffffffffffffffffffffffffffffffff848461092d565b905092915050565b5f610a52826104ea565b9150610a5d836104ea565b9250828202610a6b816104ea565b91508282048414831517610a8257610a816108a2565b5b5092915050565b5f610a93826104ea565b9150610a9e836104ea565b9250828201905080821115610ab657610ab56108a2565b5b92915050565b610ac5816104ea565b82525050565b5f602082019050610ade5f830184610abc565b92915050565b611a8880610af15f395ff3fe608060405234801561000f575f5ffd5b5060043610610135575f3560e01c806370a08231116100b6578063a9059cbb1161007a578063a9059cbb14610337578063d5abeb0114610367578063dd62ed3e14610385578063f2fde38b146103b5578063f44637ba146103d1578063f46eccc4146103ed57610135565b806370a082311461029357806379cc6790146102c35780638da5cb5b146102df57806395d89b41146102fd578063983b2d561461031b57610135565b806323b872dd116100fd57806323b872dd146101f15780633092afd514610221578063313ce5671461023d57806340c10f191461025b57806342966c681461027757610135565b8063028468581461013957806303d41e0e1461015557806306fdde0314610185578063095ea7b3146101a357806318160ddd146101d3575b5f5ffd5b610153600480360381019061014e91906116c6565b61041d565b005b61016f600480360381019061016a91906116c6565b610548565b60405161017c919061170b565b60405180910390f35b61018d610565565b60405161019a9190611794565b60405180910390f35b6101bd60048036038101906101b891906117e7565b6105f0565b6040516101ca919061170b565b60405180910390f35b6101db610606565b6040516101e89190611834565b60405180910390f35b61020b6004803603810190610206919061184d565b61060c565b604051610218919061170b565b60405180910390f35b61023b600480360381019061023691906116c6565b61062e565b005b610245610759565b60405161025291906118b8565b60405180910390f35b610275600480360381019061027091906117e7565b61076b565b005b610291600480360381019061028c91906118d1565b6107f9565b005b6102ad60048036038101906102a891906116c6565b610806565b6040516102ba9190611834565b60405180910390f35b6102dd60048036038101906102d891906117e7565b61084c565b005b6102e76108e5565b6040516102f4919061190b565b60405180910390f35b61030561090a565b6040516103129190611794565b60405180910390f35b610335600480360381019061033091906116c6565b610996565b005b610351600480360381019061034c91906117e7565b610ac3565b60405161035e919061170b565b60405180910390f35b61036f610ad9565b60405161037c9190611834565b60405180910390f35b61039f600480360381019061039a9190611924565b610adf565b6040516103ac9190611834565b60405180910390f35b6103cf60048036038101906103ca91906116c6565b610b61565b005b6103eb60048036038101906103e691906116c6565b610c8f565b005b610407600480360381019061040291906116c6565b610dbc565b604051610414919061170b565b60405180910390f35b60075f9054906101000a900473ffffffffffffffffffffffffffffffffffffffff1673ffffffffffffffffffffffffffffffffffffffff163373ffffffffffffffffffffffffffffffffffffffff16146104a3576040517f30cd747100000000000000000000000000000000000000000000000000000000815260040160405180910390fd5b5f60095f8373ffffffffffffffffffffffffffffffffffffffff1673ffffffffffffffffffffffffffffffffffffffff1681526020019081526020015f205f6101000a81548160ff0219169083151502179055508073ffffffffffffffffffffffffffffffffffffffff167ff0e5abe4ab32ea692e3889b4c146fd4ddae5f17bb40ab4feba97fb67a2d4de0f5f60405161053d919061170b565b60405180910390a250565b6009602052805f5260405f205f915054906101000a900460ff1681565b5f80546105719061198f565b80601f016020809104026020016040519081016040528092919081815260200182805461059d9061198f565b80156105e85780601f106105bf576101008083540402835291602001916105e8565b820191905f5260205f20905b8154815290600101906020018083116105cb57829003601f168201915b505050505081565b5f6105fc338484610dd9565b6001905092915050565b60035481565b5f610618843384610fcc565b610623848484611057565b600190509392505050565b60075f9054906101000a900473ffffffffffffffffffffffffffffffffffffffff1673ffffffffffffffffffffffffffffffffffffffff163373ffffffffffffffffffffffffffffffffffffffff16146106b4576040517f30cd747100000000000000000000000000000000000000000000000000000000815260040160405180910390fd5b5f60085f8373ffffffffffffffffffffffffffffffffffffffff1673ffffffffffffffffffffffffffffffffffffffff1681526020019081526020015f205f6101000a81548160ff0219169083151502179055508073ffffffffffffffffffffffffffffffffffffffff167fb21afb9ce9be0a676f8f317ff0ca072fb89a4f8ce2d1b6fe80f8755c14f1cb195f60405161074e919061170b565b60405180910390a250565b60025f9054906101000a900460ff1681565b60085f3373ffffffffffffffffffffffffffffffffffffffff1673ffffffffffffffffffffffffffffffffffffffff1681526020019081526020015f205f9054906101000a900460ff166107eb576040517ff8d2906c00000000000000000000000000000000000000000000000000000000815260040160405180910390fd5b6107f582826112a7565b5050565b610803338261146b565b50565b5f60055f8373ffffffffffffffffffffffffffffffffffffffff1673ffffffffffffffffffffffffffffffffffffffff1681526020019081526020015f20549050919050565b60095f3373ffffffffffffffffffffffffffffffffffffffff1673ffffffffffffffffffffffffffffffffffffffff1681526020019081526020015f205f9054906101000a900460ff166108cc576040517ff019b1af00000000000000000000000000000000000000000000000000000000815260040160405180910390fd5b6108d7823383610fcc565b6108e1828261146b565b5050565b60075f9054906101000a900473ffffffffffffffffffffffffffffffffffffffff1681565b600180546109179061198f565b80601f01602080910402602001604051908101604052809291908181526020018280546109439061198f565b801561098e5780601f106109655761010080835404028352916020019161098e565b820191905f5260205f20905b81548152906001019060200180831161097157829003601f168201915b505050505081565b60075f9054906101000a900473ffffffffffffffffffffffffffffffffffffffff1673ffffffffffffffffffffffffffffffffffffffff163373ffffffffffffffffffffffffffffffffffffffff1614610a1c576040517f30cd747100000000000000000000000000000000000000000000000000000000815260040160405180910390fd5b600160085f8373ffffffffffffffffffffffffffffffffffffffff1673ffffffffffffffffffffffffffffffffffffffff1681526020019081526020015f205f6101000a81548160ff0219169083151502179055508073ffffffffffffffffffffffffffffffffffffffff167fb21afb9ce9be0a676f8f317ff0ca072fb89a4f8ce2d1b6fe80f8755c14f1cb196001604051610ab8919061170b565b60405180910390a250565b5f610acf338484611057565b6001905092915050565b60045481565b5f60065f8473ffffffffffffffffffffffffffffffffffffffff1673ffffffffffffffffffffffffffffffffffffffff1681526020019081526020015f205f8373ffffffffffffffffffffffffffffffffffffffff1673ffffffffffffffffffffffffffffffffffffffff1681526020019081526020015f2054905092915050565b60075f9054906101000a900473ffffffffffffffffffffffffffffffffffffffff1673ffffffffffffffffffffffffffffffffffffffff163373ffffffffffffffffffffffffffffffffffffffff1614610be7576040517f30cd747100000000000000000000000000000000000000000000000000000000815260040160405180910390fd5b5f73ffffffffffffffffffffffffffffffffffffffff168173ffffffffffffffffffffffffffffffffffffffff1603610c4c576040517fd92e233d00000000000000000000000000000000000000000000000000000000815260040160405180910390fd5b8060075f6101000a81548173ffffffffffffffffffffffffffffffffffffffff021916908373ffffffffffffffffffffffffffffffffffffffff16021790555050565b60075f9054906101000a900473ffffffffffffffffffffffffffffffffffffffff1673ffffffffffffffffffffffffffffffffffffffff163373ffffffffffffffffffffffffffffffffffffffff1614610d15576040517f30cd747100000000000000000000000000000000000000000000000000000000815260040160405180910390fd5b600160095f8373ffffffffffffffffffffffffffffffffffffffff1673ffffffffffffffffffffffffffffffffffffffff1681526020019081526020015f205f6101000a81548160ff0219169083151502179055508073ffffffffffffffffffffffffffffffffffffffff167ff0e5abe4ab32ea692e3889b4c146fd4ddae5f17bb40ab4feba97fb67a2d4de0f6001604051610db1919061170b565b60405180910390a250565b6008602052805f5260405f205f915054906101000a900460ff1681565b5f73ffffffffffffffffffffffffffffffffffffffff168373ffffffffffffffffffffffffffffffffffffffff1603610e3e576040517fd92e233d00000000000000000000000000000000000000000000000000000000815260040160405180910390fd5b5f73ffffffffffffffffffffffffffffffffffffffff168273ffffffffffffffffffffffffffffffffffffffff1603610ea3576040517fd92e233d00000000000000000000000000000000000000000000000000000000815260040160405180910390fd5b8060065f60075f9054906101000a900473ffffffffffffffffffffffffffffffffffffffff1673ffffffffffffffffffffffffffffffffffffffff1673ffffffffffffffffffffffffffffffffffffffff1681526020019081526020015f205f8473ffffffffffffffffffffffffffffffffffffffff1673ffffffffffffffffffffffffffffffffffffffff1681526020019081526020015f20819055508173ffffffffffffffffffffffffffffffffffffffff1660075f9054906101000a900473ffffffffffffffffffffffffffffffffffffffff1673ffffffffffffffffffffffffffffffffffffffff167f8c5be1e5ebec7d5bd14f71427d1e84f3dd0314c0f7b2291e5b200ac8c7c3b92583604051610fbf9190611834565b60405180910390a3505050565b5f610fd78484610adf565b90507fffffffffffffffffffffffffffffffffffffffffffffffffffffffffffffffff8114611051578181101561103a576040517ff4d678b800000000000000000000000000000000000000000000000000000000815260040160405180910390fd5b6110508484848461104b91906119ec565b610dd9565b5b50505050565b5f73ffffffffffffffffffffffffffffffffffffffff168373ffffffffffffffffffffffffffffffffffffffff16036110bc576040517fd92e233d00000000000000000000000000000000000000000000000000000000815260040160405180910390fd5b5f73ffffffffffffffffffffffffffffffffffffffff168273ffffffffffffffffffffffffffffffffffffffff1603611121576040517fd92e233d00000000000000000000000000000000000000000000000000000000815260040160405180910390fd5b5f60055f8573ffffffffffffffffffffffffffffffffffffffff1673ffffffffffffffffffffffffffffffffffffffff1681526020019081526020015f205490508181101561119c576040517ff4d678b800000000000000000000000000000000000000000000000000000000815260040160405180910390fd5b81816111a891906119ec565b60055f8673ffffffffffffffffffffffffffffffffffffffff1673ffffffffffffffffffffffffffffffffffffffff1681526020019081526020015f20819055508160055f8573ffffffffffffffffffffffffffffffffffffffff1673ffffffffffffffffffffffffffffffffffffffff1681526020019081526020015f205f8282546112359190611a1f565b925050819055508273ffffffffffffffffffffffffffffffffffffffff168473ffffffffffffffffffffffffffffffffffffffff167fddf252ad1be2c89b69c2b068fc378daa952ba7f163c4a11628f55a4df523b3ef846040516112999190611834565b60405180910390a350505050565b5f73ffffffffffffffffffffffffffffffffffffffff168273ffffffffffffffffffffffffffffffffffffffff160361130c576040517fd92e233d00000000000000000000000000000000000000000000000000000000815260040160405180910390fd5b5f8160035461131b9190611a1f565b9050600454811115611359576040517fc30436e900000000000000000000000000000000000000000000000000000000815260040160405180910390fd5b806003819055508160055f8573ffffffffffffffffffffffffffffffffffffffff1673ffffffffffffffffffffffffffffffffffffffff1681526020019081526020015f205f8282546113ac9190611a1f565b925050819055508273ffffffffffffffffffffffffffffffffffffffff167f0f6798a560793a54c3bcfe86a93cde1e73087d944c0ea20544137d4121396885836040516113f99190611834565b60405180910390a28273ffffffffffffffffffffffffffffffffffffffff165f73ffffffffffffffffffffffffffffffffffffffff167fddf252ad1be2c89b69c2b068fc378daa952ba7f163c4a11628f55a4df523b3ef8460405161145e9190611834565b60405180910390a3505050565b5f73ffffffffffffffffffffffffffffffffffffffff168273ffffffffffffffffffffffffffffffffffffffff16036114d0576040517fd92e233d00000000000000000000000000000000000000000000000000000000815260040160405180910390fd5b5f60055f8473ffffffffffffffffffffffffffffffffffffffff1673ffffffffffffffffffffffffffffffffffffffff1681526020019081526020015f205490508181101561154b576040517ff4d678b800000000000000000000000000000000000000000000000000000000815260040160405180910390fd5b818161155791906119ec565b60055f8573ffffffffffffffffffffffffffffffffffffffff1673ffffffffffffffffffffffffffffffffffffffff1681526020019081526020015f20819055508160035f8282546115a991906119ec565b925050819055508273ffffffffffffffffffffffffffffffffffffffff167fcc16f5dbb4873280815c1ee09dbd06736cffcc184412cf7a71a0fdb75d397ca5836040516115f69190611834565b60405180910390a25f73ffffffffffffffffffffffffffffffffffffffff168373ffffffffffffffffffffffffffffffffffffffff167fddf252ad1be2c89b69c2b068fc378daa952ba7f163c4a11628f55a4df523b3ef8460405161165b9190611834565b60405180910390a3505050565b5f5ffd5b5f73ffffffffffffffffffffffffffffffffffffffff82169050919050565b5f6116958261166c565b9050919050565b6116a58161168b565b81146116af575f5ffd5b50565b5f813590506116c08161169c565b92915050565b5f602082840312156116db576116da611668565b5b5f6116e8848285016116b2565b91505092915050565b5f8115159050919050565b611705816116f1565b82525050565b5f60208201905061171e5f8301846116fc565b92915050565b5f81519050919050565b5f82825260208201905092915050565b8281835e5f83830152505050565b5f601f19601f8301169050919050565b5f61176682611724565b611770818561172e565b935061178081856020860161173e565b6117898161174c565b840191505092915050565b5f6020820190508181035f8301526117ac818461175c565b905092915050565b5f819050919050565b6117c6816117b4565b81146117d0575f5ffd5b50565b5f813590506117e1816117bd565b92915050565b5f5f604083850312156117fd576117fc611668565b5b5f61180a858286016116b2565b925050602061181b858286016117d3565b9150509250929050565b61182e816117b4565b82525050565b5f6020820190506118475f830184611825565b92915050565b5f5f5f6060848603121561186457611863611668565b5b5f611871868287016116b2565b9350506020611882868287016116b2565b9250506040611893868287016117d3565b9150509250925092565b5f60ff82169050919050565b6118b28161189d565b82525050565b5f6020820190506118cb5f8301846118a9565b92915050565b5f602082840312156118e6576118e5611668565b5b5f6118f3848285016117d3565b91505092915050565b6119058161168b565b82525050565b5f60208201905061191e5f8301846118fc565b92915050565b5f5f6040838503121561193a57611939611668565b5b5f611947858286016116b2565b9250506020611958858286016116b2565b9150509250929050565b7f4e487b71000000000000000000000000000000000000000000000000000000005f52602260045260245ffd5b5f60028204905060018216806119a657607f821691505b6020821081036119b9576119b8611962565b5b50919050565b7f4e487b71000000000000000000000000000000000000000000000000000000005f52601160045260245ffd5b5f6119f6826117b4565b9150611a01836117b4565b9250828203905081811115611a1957611a186119bf565b5b92915050565b5f611a29826117b4565b9150611a34836117b4565b9250828201905080821115611a4c57611a4b6119bf565b5b9291505056fea26469706673582212208009dc4058a44404d499f6b9d504d8dff1226e6ee13d3ef8d464a8f4bdd3560764736f6c634300081e0033",
			"opcodes": "PUSH1 0x80 PUSH1 0x40 MSTORE CALLVALUE DUP1 ISZERO PUSH2 0xF JUMPI PUSH0 PUSH0 REVERT JUMPDEST POP PUSH1 0x40 MLOAD PUSH2 0x2579 CODESIZE SUB DUP1 PUSH2 0x2579 DUP4 CODECOPY DUP2 DUP2 ADD PUSH1 0x40 MSTORE DUP2 ADD SWAP1 PUSH2 0x31 SWAP2 SWAP1 PUSH2 0x51D JUMP JUMPDEST DUP5 PUSH0 SWAP1 DUP2 PUSH2 0x3F SWAP2 SWAP1 PUSH2 0x7D3 JUMP JUMPDEST POP DUP4 PUSH1 0x1 SWAP1 DUP2 PUSH2 0x4F SWAP2 SWAP1 PUSH2 0x7D3 JUMP JUMPDEST POP DUP3 PUSH1 0x2 PUSH0 PUSH2 0x100 EXP DUP2 SLOAD DUP2 PUSH1 0xFF MUL NOT AND SWAP1 DUP4 PUSH1 0xFF AND MUL OR SWAP1 SSTORE POP DUP3 PUSH1 0xA PUSH2 0x77 SWAP2 SWAP1 PUSH2 0x9FE JUMP JUMPDEST DUP2 PUSH2 0x82 SWAP2 SWAP1 PUSH2 0xA48 JUMP JUMPDEST PUSH1 0x4 DUP2 SWAP1 SSTORE POP CALLER PUSH1 0x7 PUSH0 PUSH2 0x100 EXP DUP2 SLOAD DUP2 PUSH20 0xFFFFFFFFFFFFFFFFFFFFFFFFFFFFFFFFFFFFFFFF MUL NOT AND SWAP1 DUP4 PUSH20 0xFFFFFFFFFFFFFFFFFFFFFFFFFFFFFFFFFFFFFFFF AND MUL OR SWAP1 SSTORE POP PUSH1 0x1 PUSH1 0x8 PUSH0 CALLER PUSH20 0xFFFFFFFFFFFFFFFFFFFFFFFFFFFFFFFFFFFFFFFF AND PUSH20 0xFFFFFFFFFFFFFFFFFFFFFFFFFFFFFFFFFFFFFFFF AND DUP2 MSTORE PUSH1 0x20 ADD SWAP1 DUP2 MSTORE PUSH1 0x20 ADD PUSH0 KECCAK256 PUSH0 PUSH2 0x100 EXP DUP2 SLOAD DUP2 PUSH1 0xFF MUL NOT AND SWAP1 DUP4 ISZERO ISZERO MUL OR SWAP1 SSTORE POP PUSH1 0x1 PUSH1 0x9 PUSH0 CALLER PUSH20 0xFFFFFFFFFFFFFFFFFFFFFFFFFFFFFFFFFFFFFFFF AND PUSH20 0xFFFFFFFFFFFFFFFFFFFFFFFFFFFFFFFFFFFFFFFF AND DUP2 MSTORE PUSH1 0x20 ADD SWAP1 DUP2 MSTORE PUSH1 0x20 ADD PUSH0 KECCAK256 PUSH0 PUSH2 0x100 EXP DUP2 SLOAD DUP2 PUSH1 0xFF MUL NOT AND SWAP1 DUP4 ISZERO ISZERO MUL OR SWAP1 SSTORE POP PUSH2 0x199 CALLER DUP5 PUSH1 0xA PUSH2 0x183 SWAP2 SWAP1 PUSH2 0x9FE JUMP JUMPDEST DUP5 PUSH2 0x18E SWAP2 SWAP1 PUSH2 0xA48 JUMP JUMPDEST PUSH2 0x1A3 PUSH1 0x20 SHL PUSH1 0x20 SHR JUMP JUMPDEST POP POP POP POP POP PUSH2 0xAE4 JUMP JUMPDEST PUSH0 PUSH20 0xFFFFFFFFFFFFFFFFFFFFFFFFFFFFFFFFFFFFFFFF AND DUP3 PUSH20 0xFFFFFFFFFFFFFFFFFFFFFFFFFFFFFFFFFFFFFFFF AND SUB PUSH2 0x208 JUMPI PUSH1 0x40 MLOAD PUSH32 0xD92E233D00000000000000000000000000000000000000000000000000000000 DUP2 MSTORE PUSH1 0x4 ADD PUSH1 0x40 MLOAD DUP1 SWAP2 SUB SWAP1 REVERT JUMPDEST PUSH0 DUP2 PUSH1 0x3 SLOAD PUSH2 0x217 SWAP2 SWAP1 PUSH2 0xA89 JUMP JUMPDEST SWAP1 POP PUSH1 0x4 SLOAD DUP2 GT ISZERO PUSH2 0x255 JUMPI PUSH1 0x40 MLOAD PUSH32 0xC30436E900000000000000000000000000000000000000000000000000000000 DUP2 MSTORE PUSH1 0x4 ADD PUSH1 0x40 MLOAD DUP1 SWAP2 SUB SWAP1 REVERT JUMPDEST DUP1 PUSH1 0x3 DUP2 SWAP1 SSTORE POP DUP2 PUSH1 0x5 PUSH0 DUP6 PUSH20 0xFFFFFFFFFFFFFFFFFFFFFFFFFFFFFFFFFFFFFFFF AND PUSH20 0xFFFFFFFFFFFFFFFFFFFFFFFFFFFFFFFFFFFFFFFF AND DUP2 MSTORE PUSH1 0x20 ADD SWAP1 DUP2 MSTORE PUSH1 0x20 ADD PUSH0 KECCAK256 PUSH0 DUP3 DUP3 SLOAD PUSH2 0x2A8 SWAP2 SWAP1 PUSH2 0xA89 JUMP JUMPDEST SWAP3 POP POP DUP2 SWAP1 SSTORE POP DUP3 PUSH20 0xFFFFFFFFFFFFFFFFFFFFFFFFFFFFFFFFFFFFFFFF AND PUSH32 0xF6798A560793A54C3BCFE86A93CDE1E73087D944C0EA20544137D4121396885 DUP4 PUSH1 0x40 MLOAD PUSH2 0x2F5 SWAP2 SWAP1 PUSH2 0xACB JUMP JUMPDEST PUSH1 0x40 MLOAD DUP1 SWAP2 SUB SWAP1 LOG2 DUP3 PUSH20 0xFFFFFFFFFFFFFFFFFFFFFFFFFFFFFFFFFFFFFFFF AND PUSH0 PUSH20 0xFFFFFFFFFFFFFFFFFFFFFFFFFFFFFFFFFFFFFFFF AND PUSH32 0xDDF252AD1BE2C89B69C2B068FC378DAA952BA7F163C4A11628F55A4DF523B3EF DUP5 PUSH1 0x40 MLOAD PUSH2 0x35A SWAP2 SWAP1 PUSH2 0xACB JUMP JUMPDEST PUSH1 0x40 MLOAD DUP1 SWAP2 SUB SWAP1 LOG3 POP POP POP JUMP JUMPDEST PUSH0 PUSH1 0x40 MLOAD SWAP1 POP SWAP1 JUMP JUMPDEST PUSH0 PUSH0 REVERT JUMPDEST PUSH0 PUSH0 REVERT JUMPDEST PUSH0 PUSH0 REVERT JUMPDEST PUSH0 PUSH0 REVERT JUMPDEST PUSH0 PUSH1 0x1F NOT PUSH1 0x1F DUP4 ADD AND SWAP1 POP SWAP2 SWAP1 POP JUMP JUMPDEST PUSH32 0x4E487B7100000000000000000000000000000000000000000000000000000000 PUSH0 MSTORE PUSH1 0x41 PUSH1 0x4 MSTORE PUSH1 0x24 PUSH0 REVERT JUMPDEST PUSH2 0x3C6 DUP3 PUSH2 0x380 JUMP JUMPDEST DUP2 ADD DUP2 DUP2 LT PUSH8 0xFFFFFFFFFFFFFFFF DUP3 GT OR ISZERO PUSH2 0x3E5 JUMPI PUSH2 0x3E4 PUSH2 0x390 JUMP JUMPDEST JUMPDEST DUP1 PUSH1 0x40 MSTORE POP POP POP JUMP JUMPDEST PUSH0 PUSH2 0x3F7 PUSH2 0x367 JUMP JUMPDEST SWAP1 POP PUSH2 0x403 DUP3 DUP3 PUSH2 0x3BD JUMP JUMPDEST SWAP2 SWAP1 POP JUMP JUMPDEST PUSH0 PUSH8 0xFFFFFFFFFFFFFFFF DUP3 GT ISZERO PUSH2 0x422 JUMPI PUSH2 0x421 PUSH2 0x390 JUMP JUMPDEST JUMPDEST PUSH2 0x42B DUP3 PUSH2 0x380 JUMP JUMPDEST SWAP1 POP PUSH1 0x20 DUP2 ADD SWAP1 POP SWAP2 SWAP1 POP JUMP JUMPDEST DUP3 DUP2 DUP4 MCOPY PUSH0 DUP4 DUP4 ADD MSTORE POP POP POP JUMP JUMPDEST PUSH0 PUSH2 0x458 PUSH2 0x453 DUP5 PUSH2 0x408 JUMP JUMPDEST PUSH2 0x3EE JUMP JUMPDEST SWAP1 POP DUP3 DUP2 MSTORE PUSH1 0x20 DUP2 ADD DUP5 DUP5 DUP5 ADD GT ISZERO PUSH2 0x474 JUMPI PUSH2 0x473 PUSH2 0x37C JUMP JUMPDEST JUMPDEST PUSH2 0x47F DUP5 DUP3 DUP6 PUSH2 0x438 JUMP JUMPDEST POP SWAP4 SWAP3 POP POP POP JUMP JUMPDEST PUSH0 DUP3 PUSH1 0x1F DUP4 ADD SLT PUSH2 0x49B JUMPI PUSH2 0x49A PUSH2 0x378 JUMP JUMPDEST JUMPDEST DUP2 MLOAD PUSH2 0x4AB DUP5 DUP3 PUSH1 0x20 DUP7 ADD PUSH2 0x446 JUMP JUMPDEST SWAP2 POP POP SWAP3 SWAP2 POP POP JUMP JUMPDEST PUSH0 PUSH1 0xFF DUP3 AND SWAP1 POP SWAP2 SWAP1 POP JUMP JUMPDEST PUSH2 0x4C9 DUP2 PUSH2 0x4B4 JUMP JUMPDEST DUP2 EQ PUSH2 0x4D3 JUMPI PUSH0 PUSH0 REVERT JUMPDEST POP JUMP JUMPDEST PUSH0 DUP2 MLOAD SWAP1 POP PUSH2 0x4E4 DUP2 PUSH2 0x4C0 JUMP JUMPDEST SWAP3 SWAP2 POP POP JUMP JUMPDEST PUSH0 DUP2 SWAP1 POP SWAP2 SWAP1 POP JUMP JUMPDEST PUSH2 0x4FC DUP2 PUSH2 0x4EA JUMP JUMPDEST DUP2 EQ PUSH2 0x506 JUMPI PUSH0 PUSH0 REVERT JUMPDEST POP JUMP JUMPDEST PUSH0 DUP2 MLOAD SWAP1 POP PUSH2 0x517 DUP2 PUSH2 0x4F3 JUMP JUMPDEST SWAP3 SWAP2 POP POP JUMP JUMPDEST PUSH0 PUSH0 PUSH0 PUSH0 PUSH0 PUSH1 0xA0 DUP7 DUP9 SUB SLT ISZERO PUSH2 0x536 JUMPI PUSH2 0x535 PUSH2 0x370 JUMP JUMPDEST JUMPDEST PUSH0 DUP7 ADD MLOAD PUSH8 0xFFFFFFFFFFFFFFFF DUP2 GT ISZERO PUSH2 0x553 JUMPI PUSH2 0x552 PUSH2 0x374 JUMP JUMPDEST JUMPDEST PUSH2 0x55F DUP9 DUP3 DUP10 ADD PUSH2 0x487 JUMP JUMPDEST SWAP6 POP POP PUSH1 0x20 DUP7 ADD MLOAD PUSH8 0xFFFFFFFFFFFFFFFF DUP2 GT ISZERO PUSH2 0x580 JUMPI PUSH2 0x57F PUSH2 0x374 JUMP JUMPDEST JUMPDEST PUSH2 0x58C DUP9 DUP3 DUP10 ADD PUSH2 0x487 JUMP JUMPDEST SWAP5 POP POP PUSH1 0x40 PUSH2 0x59D DUP9 DUP3 DUP10 ADD PUSH2 0x4D6 JUMP JUMPDEST SWAP4 POP POP PUSH1 0x60 PUSH2 0x5AE DUP9 DUP3 DUP10 ADD PUSH2 0x509 JUMP JUMPDEST SWAP3 POP POP PUSH1 0x80 PUSH2 0x5BF DUP9 DUP3 DUP10 ADD PUSH2 0x509 JUMP JUMPDEST SWAP2 POP POP SWAP3 SWAP6 POP SWAP3 SWAP6 SWAP1 SWAP4 POP JUMP JUMPDEST PUSH0 DUP2 MLOAD SWAP1 POP SWAP2 SWAP1 POP JUMP JUMPDEST PUSH32 0x4E487B7100000000000000000000000000000000000000000000000000000000 PUSH0 MSTORE PUSH1 0x22 PUSH1 0x4 MSTORE PUSH1 0x24 PUSH0 REVERT JUMPDEST PUSH0 PUSH1 0x2 DUP3 DIV SWAP1 POP PUSH1 0x1 DUP3 AND DUP1 PUSH2 0x61A JUMPI PUSH1 0x7F DUP3 AND SWAP2 POP JUMPDEST PUSH1 0x20 DUP3 LT DUP2 SUB PUSH2 0x62D JUMPI PUSH2 0x62C PUSH2 0x5D6 JUMP JUMPDEST JUMPDEST POP SWAP2 SWAP1 POP JUMP JUMPDEST PUSH0 DUP2 SWAP1 POP DUP2 PUSH0 MSTORE PUSH1 0x20 PUSH0 KECCAK256 SWAP1 POP SWAP2 SWAP1 POP JUMP JUMPDEST PUSH0 PUSH1 0x20 PUSH1 0x1F DUP4 ADD DIV SWAP1 POP SWAP2 SWAP1 POP JUMP JUMPDEST PUSH0 DUP3 DUP3 SHL SWAP1 POP SWAP3 SWAP2 POP POP JUMP JUMPDEST PUSH0 PUSH1 0x8 DUP4 MUL PUSH2 0x68F PUSH32 0xFFFFFFFFFFFFFFFFFFFFFFFFFFFFFFFFFFFFFFFFFFFFFFFFFFFFFFFFFFFFFFFF DUP3 PUSH2 0x654 JUMP JUMPDEST PUSH2 0x699 DUP7 DUP4 PUSH2 0x654 JUMP JUMPDEST SWAP6 POP DUP1 NOT DUP5 AND SWAP4 POP DUP1 DUP7 AND DUP5 OR SWAP3 POP POP POP SWAP4 SWAP3 POP POP POP JUMP JUMPDEST PUSH0 DUP2 SWAP1 POP SWAP2 SWAP1 POP JUMP JUMPDEST PUSH0 PUSH2 0x6D4 PUSH2 0x6CF PUSH2 0x6CA DUP5 PUSH2 0x4EA JUMP JUMPDEST PUSH2 0x6B1 JUMP JUMPDEST PUSH2 0x4EA JUMP JUMPDEST SWAP1 POP SWAP2 SWAP1 POP JUMP JUMPDEST PUSH0 DUP2 SWAP1 POP SWAP2 SWAP1 POP JUMP JUMPDEST PUSH2 0x6ED DUP4 PUSH2 0x6BA JUMP JUMPDEST PUSH2 0x701 PUSH2 0x6F9 DUP3 PUSH2 0x6DB JUMP JUMPDEST DUP5 DUP5 SLOAD PUSH2 0x660 JUMP JUMPDEST DUP3 SSTORE POP POP POP POP JUMP JUMPDEST PUSH0 PUSH0 SWAP1 POP SWAP1 JUMP JUMPDEST PUSH2 0x718 PUSH2 0x709 JUMP JUMPDEST PUSH2 0x723 DUP2 DUP5 DUP5 PUSH2 0x6E4 JUMP JUMPDEST POP POP POP JUMP JUMPDEST JUMPDEST DUP2 DUP2 LT ISZERO PUSH2 0x746 JUMPI PUSH2 0x73B PUSH0 DUP3 PUSH2 0x710 JUMP JUMPDEST PUSH1 0x1 DUP2 ADD SWAP1 POP PUSH2 0x729 JUMP JUMPDEST POP POP JUMP JUMPDEST PUSH1 0x1F DUP3 GT ISZERO PUSH2 0x78B JUMPI PUSH2 0x75C DUP2 PUSH2 0x633 JUMP JUMPDEST PUSH2 0x765 DUP5 PUSH2 0x645 JUMP JUMPDEST DUP2 ADD PUSH1 0x20 DUP6 LT ISZERO PUSH2 0x774 JUMPI DUP2 SWAP1 POP JUMPDEST PUSH2 0x788 PUSH2 0x780 DUP6 PUSH2 0x645 JUMP JUMPDEST DUP4 ADD DUP3 PUSH2 0x728 JUMP JUMPDEST POP POP JUMPDEST POP POP POP JUMP JUMPDEST PUSH0 DUP3 DUP3 SHR SWAP1 POP SWAP3 SWAP2 POP POP JUMP JUMPDEST PUSH0 PUSH2 0x7AB PUSH0 NOT DUP5 PUSH1 0x8 MUL PUSH2 0x790 JUMP JUMPDEST NOT DUP1 DUP4 AND SWAP2 POP POP SWAP3 SWAP2 POP POP JUMP JUMPDEST PUSH0 PUSH2 0x7C3 DUP4 DUP4 PUSH2 0x79C JUMP JUMPDEST SWAP2 POP DUP3 PUSH1 0x2 MUL DUP3 OR SWAP1 POP SWAP3 SWAP2 POP POP JUMP JUMPDEST PUSH2 0x7DC DUP3 PUSH2 0x5CC JUMP JUMPDEST PUSH8 0xFFFFFFFFFFFFFFFF DUP2 GT ISZERO PUSH2 0x7F5 JUMPI PUSH2 0x7F4 PUSH2 0x390 JUMP JUMPDEST JUMPDEST PUSH2 0x7FF DUP3 SLOAD PUSH2 0x603 JUMP JUMPDEST PUSH2 0x80A DUP3 DUP3 DUP6 PUSH2 0x74A JUMP JUMPDEST PUSH0 PUSH1 0x20 SWAP1 POP PUSH1 0x1F DUP4 GT PUSH1 0x1 DUP2 EQ PUSH2 0x83B JUMPI PUSH0 DUP5 ISZERO PUSH2 0x829 JUMPI DUP3 DUP8 ADD MLOAD SWAP1 POP JUMPDEST PUSH2 0x833 DUP6 DUP3 PUSH2 0x7B8 JUMP JUMPDEST DUP7 SSTORE POP PUSH2 0x89A JUMP JUMPDEST PUSH1 0x1F NOT DUP5 AND PUSH2 0x849 DUP7 PUSH2 0x633 JUMP JUMPDEST PUSH0 JUMPDEST DUP3 DUP2 LT ISZERO PUSH2 0x870 JUMPI DUP5 DUP10 ADD MLOAD DUP3 SSTORE PUSH1 0x1 DUP3 ADD SWAP2 POP PUSH1 0x20 DUP6 ADD SWAP5 POP PUSH1 0x20 DUP2 ADD SWAP1 POP PUSH2 0x84B JUMP JUMPDEST DUP7 DUP4 LT ISZERO PUSH2 0x88D JUMPI DUP5 DUP10 ADD MLOAD PUSH2 0x889 PUSH1 0x1F DUP10 AND DUP3 PUSH2 0x79C JUMP JUMPDEST DUP4 SSTORE POP JUMPDEST PUSH1 0x1 PUSH1 0x2 DUP9 MUL ADD DUP9 SSTORE POP POP POP JUMPDEST POP POP POP POP POP POP JUMP JUMPDEST PUSH32 0x4E487B7100000000000000000000000000000000000000000000000000000000 PUSH0 MSTORE PUSH1 0x11 PUSH1 0x4 MSTORE PUSH1 0x24 PUSH0 REVERT JUMPDEST PUSH0 DUP2 PUSH1 0x1 SHR SWAP1 POP SWAP2 SWAP1 POP JUMP JUMPDEST PUSH0 PUSH0 DUP3 SWAP2 POP DUP4 SWAP1 POP JUMPDEST PUSH1 0x1 DUP6 GT ISZERO PUSH2 0x924 JUMPI DUP1 DUP7 DIV DUP2 GT ISZERO PUSH2 0x900 JUMPI PUSH2 0x8FF PUSH2 0x8A2 JUMP JUMPDEST JUMPDEST PUSH1 0x1 DUP6 AND ISZERO PUSH2 0x90F JUMPI DUP1 DUP3 MUL SWAP2 POP JUMPDEST DUP1 DUP2 MUL SWAP1 POP PUSH2 0x91D DUP6 PUSH2 0x8CF JUMP JUMPDEST SWAP5 POP PUSH2 0x8E4 JUMP JUMPDEST SWAP5 POP SWAP5 SWAP3 POP POP POP JUMP JUMPDEST PUSH0 DUP3 PUSH2 0x93C JUMPI PUSH1 0x1 SWAP1 POP PUSH2 0x9F7 JUMP JUMPDEST DUP2 PUSH2 0x949 JUMPI PUSH0 SWAP1 POP PUSH2 0x9F7 JUMP JUMPDEST DUP2 PUSH1 0x1 DUP2 EQ PUSH2 0x95F JUMPI PUSH1 0x2 DUP2 EQ PUSH2 0x969 JUMPI PUSH2 0x998 JUMP JUMPDEST PUSH1 0x1 SWAP2 POP POP PUSH2 0x9F7 JUMP JUMPDEST PUSH1 0xFF DUP5 GT ISZERO PUSH2 0x97B JUMPI PUSH2 0x97A PUSH2 0x8A2 JUMP JUMPDEST JUMPDEST DUP4 PUSH1 0x2 EXP SWAP2 POP DUP5 DUP3 GT ISZERO PUSH2 0x992 JUMPI PUSH2 0x991 PUSH2 0x8A2 JUMP JUMPDEST JUMPDEST POP PUSH2 0x9F7 JUMP JUMPDEST POP PUSH1 0x20 DUP4 LT PUSH2 0x133 DUP4 LT AND PUSH1 0x4E DUP5 LT PUSH1 0xB DUP5 LT AND OR ISZERO PUSH2 0x9CD JUMPI DUP3 DUP3 EXP SWAP1 POP DUP4 DUP2 GT ISZERO PUSH2 0x9C8 JUMPI PUSH2 0x9C7 PUSH2 0x8A2 JUMP JUMPDEST JUMPDEST PUSH2 0x9F7 JUMP JUMPDEST PUSH2 0x9DA DUP5 DUP5 DUP5 PUSH1 0x1 PUSH2 0x8DB JUMP JUMPDEST SWAP3 POP SWAP1 POP DUP2 DUP5 DIV DUP2 GT ISZERO PUSH2 0x9F1 JUMPI PUSH2 0x9F0 PUSH2 0x8A2 JUMP JUMPDEST JUMPDEST DUP2 DUP2 MUL SWAP1 POP JUMPDEST SWAP4 SWAP3 POP POP POP JUMP JUMPDEST PUSH0 PUSH2 0xA08 DUP3 PUSH2 0x4EA JUMP JUMPDEST SWAP2 POP PUSH2 0xA13 DUP4 PUSH2 0x4B4 JUMP JUMPDEST SWAP3 POP PUSH2 0xA40 PUSH32 0xFFFFFFFFFFFFFFFFFFFFFFFFFFFFFFFFFFFFFFFFFFFFFFFFFFFFFFFFFFFFFFFF DUP5 DUP5 PUSH2 0x92D JUMP JUMPDEST SWAP1 POP SWAP3 SWAP2 POP POP JUMP JUMPDEST PUSH0 PUSH2 0xA52 DUP3 PUSH2 0x4EA JUMP JUMPDEST SWAP2 POP PUSH2 0xA5D DUP4 PUSH2 0x4EA JUMP JUMPDEST SWAP3 POP DUP3 DUP3 MUL PUSH2 0xA6B DUP2 PUSH2 0x4EA JUMP JUMPDEST SWAP2 POP DUP3 DUP3 DIV DUP5 EQ DUP4 ISZERO OR PUSH2 0xA82 JUMPI PUSH2 0xA81 PUSH2 0x8A2 JUMP JUMPDEST JUMPDEST POP SWAP3 SWAP2 POP POP JUMP JUMPDEST PUSH0 PUSH2 0xA93 DUP3 PUSH2 0x4EA JUMP JUMPDEST SWAP2 POP PUSH2 0xA9E DUP4 PUSH2 0x4EA JUMP JUMPDEST SWAP3 POP DUP3 DUP3 ADD SWAP1 POP DUP1 DUP3 GT ISZERO PUSH2 0xAB6 JUMPI PUSH2 0xAB5 PUSH2 0x8A2 JUMP JUMPDEST JUMPDEST SWAP3 SWAP2 POP POP JUMP JUMPDEST PUSH2 0xAC5 DUP2 PUSH2 0x4EA JUMP JUMPDEST DUP3 MSTORE POP POP JUMP JUMPDEST PUSH0 PUSH1 0x20 DUP3 ADD SWAP1 POP PUSH2 0xADE PUSH0 DUP4 ADD DUP5 PUSH2 0xABC JUMP JUMPDEST SWAP3 SWAP2 POP POP JUMP JUMPDEST PUSH2 0x1A88 DUP1 PUSH2 0xAF1 PUSH0 CODECOPY PUSH0 RETURN INVALID PUSH1 0x80 PUSH1 0x40 MSTORE CALLVALUE DUP1 ISZERO PUSH2 0xF JUMPI PUSH0 PUSH0 REVERT JUMPDEST POP PUSH1 0x4 CALLDATASIZE LT PUSH2 0x135 JUMPI PUSH0 CALLDATALOAD PUSH1 0xE0 SHR DUP1 PUSH4 0x70A08231 GT PUSH2 0xB6 JUMPI DUP1 PUSH4 0xA9059CBB GT PUSH2 0x7A JUMPI DUP1 PUSH4 0xA9059CBB EQ PUSH2 0x337 JUMPI DUP1 PUSH4 0xD5ABEB01 EQ PUSH2 0x367 JUMPI DUP1 PUSH4 0xDD62ED3E EQ PUSH2 0x385 JUMPI DUP1 PUSH4 0xF2FDE38B EQ PUSH2 0x3B5 JUMPI DUP1 PUSH4 0xF44637BA EQ PUSH2 0x3D1 JUMPI DUP1 PUSH4 0xF46ECCC4 EQ PUSH2 0x3ED JUMPI PUSH2 0x135 JUMP JUMPDEST DUP1 PUSH4 0x70A08231 EQ PUSH2 0x293 JUMPI DUP1 PUSH4 0x79CC6790 EQ PUSH2 0x2C3 JUMPI DUP1 PUSH4 0x8DA5CB5B EQ PUSH2 0x2DF JUMPI DUP1 PUSH4 0x95D89B41 EQ PUSH2 0x2FD JUMPI DUP1 PUSH4 0x983B2D56 EQ PUSH2 0x31B JUMPI PUSH2 0x135 JUMP JUMPDEST DUP1 PUSH4 0x23B872DD GT PUSH2 0xFD JUMPI DUP1 PUSH4 0x23B872DD EQ PUSH2 0x1F1 JUMPI DUP1 PUSH4 0x3092AFD5 EQ PUSH2 0x221 JUMPI DUP1 PUSH4 0x313CE567 EQ PUSH2 0x23D JUMPI DUP1 PUSH4 0x40C10F19 EQ PUSH2 0x25B JUMPI DUP1 PUSH4 0x42966C68 EQ PUSH2 0x277 JUMPI PUSH2 0x135 JUMP JUMPDEST DUP1 PUSH4 0x2846858 EQ PUSH2 0x139 JUMPI DUP1 PUSH4 0x3D41E0E EQ PUSH2 0x155 JUMPI DUP1 PUSH4 0x6FDDE03 EQ PUSH2 0x185 JUMPI DUP1 PUSH4 0x95EA7B3 EQ PUSH2 0x1A3 JUMPI DUP1 PUSH4 0x18160DDD EQ PUSH2 0x1D3 JUMPI JUMPDEST PUSH0 PUSH0 REVERT JUMPDEST PUSH2 0x153 PUSH1 0x4 DUP1 CALLDATASIZE SUB DUP2 ADD SWAP1 PUSH2 0x14E SWAP2 SWAP1 PUSH2 0x16C6 JUMP JUMPDEST PUSH2 0x41D JUMP JUMPDEST STOP JUMPDEST PUSH2 0x16F PUSH1 0x4 DUP1 CALLDATASIZE SUB DUP2 ADD SWAP1 PUSH2 0x16A SWAP2 SWAP1 PUSH2 0x16C6 JUMP JUMPDEST PUSH2 0x548 JUMP JUMPDEST PUSH1 0x40 MLOAD PUSH2 0x17C SWAP2 SWAP1 PUSH2 0x170B JUMP JUMPDEST PUSH1 0x40 MLOAD DUP1 SWAP2 SUB SWAP1 RETURN JUMPDEST PUSH2 0x18D PUSH2 0x565 JUMP JUMPDEST PUSH1 0x40 MLOAD PUSH2 0x19A SWAP2 SWAP1 PUSH2 0x1794 JUMP JUMPDEST PUSH1 0x40 MLOAD DUP1 SWAP2 SUB SWAP1 RETURN JUMPDEST PUSH2 0x1BD PUSH1 0x4 DUP1 CALLDATASIZE SUB DUP2 ADD SWAP1 PUSH2 0x1B8 SWAP2 SWAP1 PUSH2 0x17E7 JUMP JUMPDEST PUSH2 0x5F0 JUMP JUMPDEST PUSH1 0x40 MLOAD PUSH2 0x1CA SWAP2 SWAP1 PUSH2 0x170B JUMP JUMPDEST PUSH1 0x40 MLOAD DUP1 SWAP2 SUB SWAP1 RETURN JUMPDEST PUSH2 0x1DB PUSH2 0x606 JUMP JUMPDEST PUSH1 0x40 MLOAD PUSH2 0x1E8 SWAP2 SWAP1 PUSH2 0x1834 JUMP JUMPDEST PUSH1 0x40 MLOAD DUP1 SWAP2 SUB SWAP1 RETURN JUMPDEST PUSH2 0x20B PUSH1 0x4 DUP1 CALLDATASIZE SUB DUP2 ADD SWAP1 PUSH2 0x206 SWAP2 SWAP1 PUSH2 0x184D JUMP JUMPDEST PUSH2 0x60C JUMP JUMPDEST PUSH1 0x40 MLOAD PUSH2 0x218 SWAP2 SWAP1 PUSH2 0x170B JUMP JUMPDEST PUSH1 0x40 MLOAD DUP1 SWAP2 SUB SWAP1 RETURN JUMPDEST PUSH2 0x23B PUSH1 0x4 DUP1 CALLDATASIZE SUB DUP2 ADD SWAP1 PUSH2 0x236 SWAP2 SWAP1 PUSH2 0x16C6 JUMP JUMPDEST PUSH2 0x62E JUMP JUMPDEST STOP JUMPDEST PUSH2 0x245 PUSH2 0x759 JUMP JUMPDEST PUSH1 0x40 MLOAD PUSH2 0x252 SWAP2 SWAP1 PUSH2 0x18B8 JUMP JUMPDEST PUSH1 0x40 MLOAD DUP1 SWAP2 SUB SWAP1 RETURN JUMPDEST PUSH2 0x275 PUSH1 0x4 DUP1 CALLDATASIZE SUB DUP2 ADD SWAP1 PUSH2 0x270 SWAP2 SWAP1 PUSH2 0x17E7 JUMP JUMPDEST PUSH2 0x76B JUMP JUMPDEST STOP JUMPDEST PUSH2 0x291 PUSH1 0x4 DUP1 CALLDATASIZE SUB DUP2 ADD SWAP1 PUSH2 0x28C SWAP2 SWAP1 PUSH2 0x18D1 JUMP JUMPDEST PUSH2 0x7F9 JUMP JUMPDEST STOP JUMPDEST PUSH2 0x2AD PUSH1 0x4 DUP1 CALLDATASIZE SUB DUP2 ADD SWAP1 PUSH2 0x2A8 SWAP2 SWAP1 PUSH2 0x16C6 JUMP JUMPDEST PUSH2 0x806 JUMP JUMPDEST PUSH1 0x40 MLOAD PUSH2 0x2BA SWAP2 SWAP1 PUSH2 0x1834 JUMP JUMPDEST PUSH1 0x40 MLOAD DUP1 SWAP2 SUB SWAP1 RETURN JUMPDEST PUSH2 0x2DD PUSH1 0x4 DUP1 CALLDATASIZE SUB DUP2 ADD SWAP1 PUSH2 0x2D8 SWAP2 SWAP1 PUSH2 0x17E7 JUMP JUMPDEST PUSH2 0x84C JUMP JUMPDEST STOP JUMPDEST PUSH2 0x2E7 PUSH2 0x8E5 JUMP JUMPDEST PUSH1 0x40 MLOAD PUSH2 0x2F4 SWAP2 SWAP1 PUSH2 0x190B JUMP JUMPDEST PUSH1 0x40 MLOAD DUP1 SWAP2 SUB SWAP1 RETURN JUMPDEST PUSH2 0x305 PUSH2 0x90A JUMP JUMPDEST PUSH1 0x40 MLOAD PUSH2 0x312 SWAP2 SWAP1 PUSH2 0x1794 JUMP JUMPDEST PUSH1 0x40 MLOAD DUP1 SWAP2 SUB SWAP1 RETURN JUMPDEST PUSH2 0x335 PUSH1 0x4 DUP1 CALLDATASIZE SUB DUP2 ADD SWAP1 PUSH2 0x330 SWAP2 SWAP1 PUSH2 0x16C6 JUMP JUMPDEST PUSH2 0x996 JUMP JUMPDEST STOP JUMPDEST PUSH2 0x351 PUSH1 0x4 DUP1 CALLDATASIZE SUB DUP2 ADD SWAP1 PUSH2 0x34C SWAP2 SWAP1 PUSH2 0x17E7 JUMP JUMPDEST PUSH2 0xAC3 JUMP JUMPDEST PUSH1 0x40 MLOAD PUSH2 0x35E SWAP2 SWAP1 PUSH2 0x170B JUMP JUMPDEST PUSH1 0x40 MLOAD DUP1 SWAP2 SUB SWAP1 RETURN JUMPDEST PUSH2 0x36F PUSH2 0xAD9 JUMP JUMPDEST PUSH1 0x40 MLOAD PUSH2 0x37C SWAP2 SWAP1 PUSH2 0x1834 JUMP JUMPDEST PUSH1 0x40 MLOAD DUP1 SWAP2 SUB SWAP1 RETURN JUMPDEST PUSH2 0x39F PUSH1 0x4 DUP1 CALLDATASIZE SUB DUP2 ADD SWAP1 PUSH2 0x39A SWAP2 SWAP1 PUSH2 0x1924 JUMP JUMPDEST PUSH2 0xADF JUMP JUMPDEST PUSH1 0x40 MLOAD PUSH2 0x3AC SWAP2 SWAP1 PUSH2 0x1834 JUMP JUMPDEST PUSH1 0x40 MLOAD DUP1 SWAP2 SUB SWAP1 RETURN JUMPDEST PUSH2 0x3CF PUSH1 0x4 DUP1 CALLDATASIZE SUB DUP2 ADD SWAP1 PUSH2 0x3CA SWAP2 SWAP1 PUSH2 0x16C6 JUMP JUMPDEST PUSH2 0xB61 JUMP JUMPDEST STOP JUMPDEST PUSH2 0x3EB PUSH1 0x4 DUP1 CALLDATASIZE SUB DUP2 ADD SWAP1 PUSH2 0x3E6 SWAP2 SWAP1 PUSH2 0x16C6 JUMP JUMPDEST PUSH2 0xC8F JUMP JUMPDEST STOP JUMPDEST PUSH2 0x407 PUSH1 0x4 DUP1 CALLDATASIZE SUB DUP2 ADD SWAP1 PUSH2 0x402 SWAP2 SWAP1 PUSH2 0x16C6 JUMP JUMPDEST PUSH2 0xDBC JUMP JUMPDEST PUSH1 0x40 MLOAD PUSH2 0x414 SWAP2 SWAP1 PUSH2 0x170B JUMP JUMPDEST PUSH1 0x40 MLOAD DUP1 SWAP2 SUB SWAP1 RETURN JUMPDEST PUSH1 0x7 PUSH0 SWAP1 SLOAD SWAP1 PUSH2 0x100 EXP SWAP1 DIV PUSH20 0xFFFFFFFFFFFFFFFFFFFFFFFFFFFFFFFFFFFFFFFF AND PUSH20 0xFFFFFFFFFFFFFFFFFFFFFFFFFFFFFFFFFFFFFFFF AND CALLER PUSH20 0xFFFFFFFFFFFFFFFFFFFFFFFFFFFFFFFFFFFFFFFF AND EQ PUSH2 0x4A3 JUMPI PUSH1 0x40 MLOAD PUSH32 0x30CD747100000000000000000000000000000000000000000000000000000000 DUP2 MSTORE PUSH1 0x4 ADD PUSH1 0x40 MLOAD DUP1 SWAP2 SUB SWAP1 REVERT JUMPDEST PUSH0 PUSH1 0x9 PUSH0 DUP4 PUSH20 0xFFFFFFFFFFFFFFFFFFFFFFFFFFFFFFFFFFFFFFFF AND PUSH20 0xFFFFFFFFFFFFFFFFFFFFFFFFFFFFFFFFFFFFFFFF AND DUP2 MSTORE PUSH1 0x20 ADD SWAP1 DUP2 MSTORE PUSH1 0x20 ADD PUSH0 KECCAK256 PUSH0 PUSH2 0x100 EXP DUP2 SLOAD DUP2 PUSH1 0xFF MUL NOT AND SWAP1 DUP4 ISZERO ISZERO MUL OR SWAP1 SSTORE POP DUP1 PUSH20 0xFFFFFFFFFFFFFFFFFFFFFFFFFFFFFFFFFFFFFFFF AND PUSH32 0xF0E5ABE4AB32EA692E3889B4C146FD4DDAE5F17BB40AB4FEBA97FB67A2D4DE0F PUSH0 PUSH1 0x40 MLOAD PUSH2 0x53D SWAP2 SWAP1 PUSH2 0x170B JUMP JUMPDEST PUSH1 0x40 MLOAD DUP1 SWAP2 SUB SWAP1 LOG2 POP JUMP JUMPDEST PUSH1 0x9 PUSH1 0x20 MSTORE DUP1 PUSH0 MSTORE PUSH1 0x40 PUSH0 KECCAK256 PUSH0 SWAP2 POP SLOAD SWAP1 PUSH2 0x100 EXP SWAP1 DIV PUSH1 0xFF AND DUP2 JUMP JUMPDEST PUSH0 DUP1 SLOAD PUSH2 0x571 SWAP1 PUSH2 0x198F JUMP JUMPDEST DUP1 PUSH1 0x1F ADD PUSH1 0x20 DUP1 SWAP2 DIV MUL PUSH1 0x20 ADD PUSH1 0x40 MLOAD SWAP1 DUP2 ADD PUSH1 0x40 MSTORE DUP1 SWAP3 SWAP2 SWAP1 DUP2 DUP2 MSTORE PUSH1 0x20 ADD DUP3 DUP1 SLOAD PUSH2 0x59D SWAP1 PUSH2 0x198F JUMP JUMPDEST DUP1 ISZERO PUSH2 0x5E8 JUMPI DUP1 PUSH1 0x1F LT PUSH2 0x5BF JUMPI PUSH2 0x100 DUP1 DUP4 SLOAD DIV MUL DUP4 MSTORE SWAP2 PUSH1 0x20 ADD SWAP2 PUSH2 0x5E8 JUMP JUMPDEST DUP3 ADD SWAP2 SWAP1 PUSH0 MSTORE PUSH1 0x20 PUSH0 KECCAK256 SWAP1 JUMPDEST DUP2 SLOAD DUP2 MSTORE SWAP1 PUSH1 0x1 ADD SWAP1 PUSH1 0x20 ADD DUP1 DUP4 GT PUSH2 0x5CB JUMPI DUP3 SWAP1 SUB PUSH1 0x1F AND DUP3 ADD SWAP2 JUMPDEST POP POP POP POP POP DUP2 JUMP JUMPDEST PUSH0 PUSH2 0x5FC CALLER DUP5 DUP5 PUSH2 0xDD9 JUMP JUMPDEST PUSH1 0x1 SWAP1 POP SWAP3 SWAP2 POP POP JUMP JUMPDEST PUSH1 0x3 SLOAD DUP2 JUMP JUMPDEST PUSH0 PUSH2 0x618 DUP5 CALLER DUP5 PUSH2 0xFCC JUMP JUMPDEST PUSH2 0x623 DUP5 DUP5 DUP5 PUSH2 0x1057 JUMP JUMPDEST PUSH1 0x1 SWAP1 POP SWAP4 SWAP3 POP POP POP JUMP JUMPDEST PUSH1 0x7 PUSH0 SWAP1 SLOAD SWAP1 PUSH2 0x100 EXP SWAP1 DIV PUSH20 0xFFFFFFFFFFFFFFFFFFFFFFFFFFFFFFFFFFFFFFFF AND PUSH20 0xFFFFFFFFFFFFFFFFFFFFFFFFFFFFFFFFFFFFFFFF AND CALLER PUSH20 0xFFFFFFFFFFFFFFFFFFFFFFFFFFFFFFFFFFFFFFFF AND EQ PUSH2 0x6B4 JUMPI PUSH1 0x40 MLOAD PUSH32 0x30CD747100000000000000000000000000000000000000000000000000000000 DUP2 MSTORE PUSH1 0x4 ADD PUSH1 0x40 MLOAD DUP1 SWAP2 SUB SWAP1 REVERT JUMPDEST PUSH0 PUSH1 0x8 PUSH0 DUP4 PUSH20 0xFFFFFFFFFFFFFFFFFFFFFFFFFFFFFFFFFFFFFFFF AND PUSH20 0xFFFFFFFFFFFFFFFFFFFFFFFFFFFFFFFFFFFFFFFF AND DUP2 MSTORE PUSH1 0x20 ADD SWAP1 DUP2 MSTORE PUSH1 0x20 ADD PUSH0 KECCAK256 PUSH0 PUSH2 0x100 EXP DUP2 SLOAD DUP2 PUSH1 0xFF MUL NOT AND SWAP1 DUP4 ISZERO ISZERO MUL OR SWAP1 SSTORE POP DUP1 PUSH20 0xFFFFFFFFFFFFFFFFFFFFFFFFFFFFFFFFFFFFFFFF AND PUSH32 0xB21AFB9CE9BE0A676F8F317FF0CA072FB89A4F8CE2D1B6FE80F8755C14F1CB19 PUSH0 PUSH1 0x40 MLOAD PUSH2 0x74E SWAP2 SWAP1 PUSH2 0x170B JUMP JUMPDEST PUSH1 0x40 MLOAD DUP1 SWAP2 SUB SWAP1 LOG2 POP JUMP JUMPDEST PUSH1 0x2 PUSH0 SWAP1 SLOAD SWAP1 PUSH2 0x100 EXP SWAP1 DIV PUSH1 0xFF AND DUP2 JUMP JUMPDEST PUSH1 0x8 PUSH0 CALLER PUSH20 0xFFFFFFFFFFFFFFFFFFFFFFFFFFFFFFFFFFFFFFFF AND PUSH20 0xFFFFFFFFFFFFFFFFFFFFFFFFFFFFFFFFFFFFFFFF AND DUP2 MSTORE PUSH1 0x20 ADD SWAP1 DUP2 MSTORE PUSH1 0x20 ADD PUSH0 KECCAK256 PUSH0 SWAP1 SLOAD SWAP1 PUSH2 0x100 EXP SWAP1 DIV PUSH1 0xFF AND PUSH2 0x7EB JUMPI PUSH1 0x40 MLOAD PUSH32 0xF8D2906C00000000000000000000000000000000000000000000000000000000 DUP2 MSTORE PUSH1 0x4 ADD PUSH1 0x40 MLOAD DUP1 SWAP2 SUB SWAP1 REVERT JUMPDEST PUSH2 0x7F5 DUP3 DUP3 PUSH2 0x12A7 JUMP JUMPDEST POP POP JUMP JUMPDEST PUSH2 0x803 CALLER DUP3 PUSH2 0x146B JUMP JUMPDEST POP JUMP JUMPDEST PUSH0 PUSH1 0x5 PUSH0 DUP4 PUSH20 0xFFFFFFFFFFFFFFFFFFFFFFFFFFFFFFFFFFFFFFFF AND PUSH20 0xFFFFFFFFFFFFFFFFFFFFFFFFFFFFFFFFFFFFFFFF AND DUP2 MSTORE PUSH1 0x20 ADD SWAP1 DUP2 MSTORE PUSH1 0x20 ADD PUSH0 KECCAK256 SLOAD SWAP1 POP SWAP2 SWAP1 POP JUMP JUMPDEST PUSH1 0x9 PUSH0 CALLER PUSH20 0xFFFFFFFFFFFFFFFFFFFFFFFFFFFFFFFFFFFFFFFF AND PUSH20 0xFFFFFFFFFFFFFFFFFFFFFFFFFFFFFFFFFFFFFFFF AND DUP2 MSTORE PUSH1 0x20 ADD SWAP1 DUP2 MSTORE PUSH1 0x20 ADD PUSH0 KECCAK256 PUSH0 SWAP1 SLOAD SWAP1 PUSH2 0x100 EXP SWAP1 DIV PUSH1 0xFF AND PUSH2 0x8CC JUMPI PUSH1 0x40 MLOAD PUSH32 0xF019B1AF00000000000000000000000000000000000000000000000000000000 DUP2 MSTORE PUSH1 0x4 ADD PUSH1 0x40 MLOAD DUP1 SWAP2 SUB SWAP1 REVERT JUMPDEST PUSH2 0x8D7 DUP3 CALLER DUP4 PUSH2 0xFCC JUMP JUMPDEST PUSH2 0x8E1 DUP3 DUP3 PUSH2 0x146B JUMP JUMPDEST POP POP JUMP JUMPDEST PUSH1 0x7 PUSH0 SWAP1 SLOAD SWAP1 PUSH2 0x100 EXP SWAP1 DIV PUSH20 0xFFFFFFFFFFFFFFFFFFFFFFFFFFFFFFFFFFFFFFFF AND DUP2 JUMP JUMPDEST PUSH1 0x1 DUP1 SLOAD PUSH2 0x917 SWAP1 PUSH2 0x198F JUMP JUMPDEST DUP1 PUSH1 0x1F ADD PUSH1 0x20 DUP1 SWAP2 DIV MUL PUSH1 0x20 ADD PUSH1 0x40 MLOAD SWAP1 DUP2 ADD PUSH1 0x40 MSTORE DUP1 SWAP3 SWAP2 SWAP1 DUP2 DUP2 MSTORE PUSH1 0x20 ADD DUP3 DUP1 SLOAD PUSH2 0x943 SWAP1 PUSH2 0x198F JUMP JUMPDEST DUP1 ISZERO PUSH2 0x98E JUMPI DUP1 PUSH1 0x1F LT PUSH2 0x965 JUMPI PUSH2 0x100 DUP1 DUP4 SLOAD DIV MUL DUP4 MSTORE SWAP2 PUSH1 0x20 ADD SWAP2 PUSH2 0x98E JUMP JUMPDEST DUP3 ADD SWAP2 SWAP1 PUSH0 MSTORE PUSH1 0x20 PUSH0 KECCAK256 SWAP1 JUMPDEST DUP2 SLOAD DUP2 MSTORE SWAP1 PUSH1 0x1 ADD SWAP1 PUSH1 0x20 ADD DUP1 DUP4 GT PUSH2 0x971 JUMPI DUP3 SWAP1 SUB PUSH1 0x1F AND DUP3 ADD SWAP2 JUMPDEST POP POP POP POP POP DUP2 JUMP JUMPDEST PUSH1 0x7 PUSH0 SWAP1 SLOAD SWAP1 PUSH2 0x100 EXP SWAP1 DIV PUSH20 0xFFFFFFFFFFFFFFFFFFFFFFFFFFFFFFFFFFFFFFFF AND PUSH20 0xFFFFFFFFFFFFFFFFFFFFFFFFFFFFFFFFFFFFFFFF AND CALLER PUSH20 0xFFFFFFFFFFFFFFFFFFFFFFFFFFFFFFFFFFFFFFFF AND EQ PUSH2 0xA1C JUMPI PUSH1 0x40 MLOAD PUSH32 0x30CD747100000000000000000000000000000000000000000000000000000000 DUP2 MSTORE PUSH1 0x4 ADD PUSH1 0x40 MLOAD DUP1 SWAP2 SUB SWAP1 REVERT JUMPDEST PUSH1 0x1 PUSH1 0x8 PUSH0 DUP4 PUSH20 0xFFFFFFFFFFFFFFFFFFFFFFFFFFFFFFFFFFFFFFFF AND PUSH20 0xFFFFFFFFFFFFFFFFFFFFFFFFFFFFFFFFFFFFFFFF AND DUP2 MSTORE PUSH1 0x20 ADD SWAP1 DUP2 MSTORE PUSH1 0x20 ADD PUSH0 KECCAK256 PUSH0 PUSH2 0x100 EXP DUP2 SLOAD DUP2 PUSH1 0xFF MUL NOT AND SWAP1 DUP4 ISZERO ISZERO MUL OR SWAP1 SSTORE POP DUP1 PUSH20 0xFFFFFFFFFFFFFFFFFFFFFFFFFFFFFFFFFFFFFFFF AND PUSH32 0xB21AFB9CE9BE0A676F8F317FF0CA072FB89A4F8CE2D1B6FE80F8755C14F1CB19 PUSH1 0x1 PUSH1 0x40 MLOAD PUSH2 0xAB8 SWAP2 SWAP1 PUSH2 0x170B JUMP JUMPDEST PUSH1 0x40 MLOAD DUP1 SWAP2 SUB SWAP1 LOG2 POP JUMP JUMPDEST PUSH0 PUSH2 0xACF CALLER DUP5 DUP5 PUSH2 0x1057 JUMP JUMPDEST PUSH1 0x1 SWAP1 POP SWAP3 SWAP2 POP POP JUMP JUMPDEST PUSH1 0x4 SLOAD DUP2 JUMP JUMPDEST PUSH0 PUSH1 0x6 PUSH0 DUP5 PUSH20 0xFFFFFFFFFFFFFFFFFFFFFFFFFFFFFFFFFFFFFFFF AND PUSH20 0xFFFFFFFFFFFFFFFFFFFFFFFFFFFFFFFFFFFFFFFF AND DUP2 MSTORE PUSH1 0x20 ADD SWAP1 DUP2 MSTORE PUSH1 0x20 ADD PUSH0 KECCAK256 PUSH0 DUP4 PUSH20 0xFFFFFFFFFFFFFFFFFFFFFFFFFFFFFFFFFFFFFFFF AND PUSH20 0xFFFFFFFFFFFFFFFFFFFFFFFFFFFFFFFFFFFFFFFF AND DUP2 MSTORE PUSH1 0x20 ADD SWAP1 DUP2 MSTORE PUSH1 0x20 ADD PUSH0 KECCAK256 SLOAD SWAP1 POP SWAP3 SWAP2 POP POP JUMP JUMPDEST PUSH1 0x7 PUSH0 SWAP1 SLOAD SWAP1 PUSH2 0x100 EXP SWAP1 DIV PUSH20 0xFFFFFFFFFFFFFFFFFFFFFFFFFFFFFFFFFFFFFFFF AND PUSH20 0xFFFFFFFFFFFFFFFFFFFFFFFFFFFFFFFFFFFFFFFF AND CALLER PUSH20 0xFFFFFFFFFFFFFFFFFFFFFFFFFFFFFFFFFFFFFFFF AND EQ PUSH2 0xBE7 JUMPI PUSH1 0x40 MLOAD PUSH32 0x30CD747100000000000000000000000000000000000000000000000000000000 DUP2 MSTORE PUSH1 0x4 ADD PUSH1 0x40 MLOAD DUP1 SWAP2 SUB SWAP1 REVERT JUMPDEST PUSH0 PUSH20 0xFFFFFFFFFFFFFFFFFFFFFFFFFFFFFFFFFFFFFFFF AND DUP2 PUSH20 0xFFFFFFFFFFFFFFFFFFFFFFFFFFFFFFFFFFFFFFFF AND SUB PUSH2 0xC4C JUMPI PUSH1 0x40 MLOAD PUSH32 0xD92E233D00000000000000000000000000000000000000000000000000000000 DUP2 MSTORE PUSH1 0x4 ADD PUSH1 0x40 MLOAD DUP1 SWAP2 SUB SWAP1 REVERT JUMPDEST DUP1 PUSH1 0x7 PUSH0 PUSH2 0x100 EXP DUP2 SLOAD DUP2 PUSH20 0xFFFFFFFFFFFFFFFFFFFFFFFFFFFFFFFFFFFFFFFF MUL NOT AND SWAP1 DUP4 PUSH20 0xFFFFFFFFFFFFFFFFFFFFFFFFFFFFFFFFFFFFFFFF AND MUL OR SWAP1 SSTORE POP POP JUMP JUMPDEST PUSH1 0x7 PUSH0 SWAP1 SLOAD SWAP1 PUSH2 0x100 EXP SWAP1 DIV PUSH20 0xFFFFFFFFFFFFFFFFFFFFFFFFFFFFFFFFFFFFFFFF AND PUSH20 0xFFFFFFFFFFFFFFFFFFFFFFFFFFFFFFFFFFFFFFFF AND CALLER PUSH20 0xFFFFFFFFFFFFFFFFFFFFFFFFFFFFFFFFFFFFFFFF AND EQ PUSH2 0xD15 JUMPI PUSH1 0x40 MLOAD PUSH32 0x30CD747100000000000000000000000000000000000000000000000000000000 DUP2 MSTORE PUSH1 0x4 ADD PUSH1 0x40 MLOAD DUP1 SWAP2 SUB SWAP1 REVERT JUMPDEST PUSH1 0x1 PUSH1 0x9 PUSH0 DUP4 PUSH20 0xFFFFFFFFFFFFFFFFFFFFFFFFFFFFFFFFFFFFFFFF AND PUSH20 0xFFFFFFFFFFFFFFFFFFFFFFFFFFFFFFFFFFFFFFFF AND DUP2 MSTORE PUSH1 0x20 ADD SWAP1 DUP2 MSTORE PUSH1 0x20 ADD PUSH0 KECCAK256 PUSH0 PUSH2 0x100 EXP DUP2 SLOAD DUP2 PUSH1 0xFF MUL NOT AND SWAP1 DUP4 ISZERO ISZERO MUL OR SWAP1 SSTORE POP DUP1 PUSH20 0xFFFFFFFFFFFFFFFFFFFFFFFFFFFFFFFFFFFFFFFF AND PUSH32 0xF0E5ABE4AB32EA692E3889B4C146FD4DDAE5F17BB40AB4FEBA97FB67A2D4DE0F PUSH1 0x1 PUSH1 0x40 MLOAD PUSH2 0xDB1 SWAP2 SWAP1 PUSH2 0x170B JUMP JUMPDEST PUSH1 0x40 MLOAD DUP1 SWAP2 SUB SWAP1 LOG2 POP JUMP JUMPDEST PUSH1 0x8 PUSH1 0x20 MSTORE DUP1 PUSH0 MSTORE PUSH1 0x40 PUSH0 KECCAK256 PUSH0 SWAP2 POP SLOAD SWAP1 PUSH2 0x100 EXP SWAP1 DIV PUSH1 0xFF AND DUP2 JUMP JUMPDEST PUSH0 PUSH20 0xFFFFFFFFFFFFFFFFFFFFFFFFFFFFFFFFFFFFFFFF AND DUP4 PUSH20 0xFFFFFFFFFFFFFFFFFFFFFFFFFFFFFFFFFFFFFFFF AND SUB PUSH2 0xE3E JUMPI PUSH1 0x40 MLOAD PUSH32 0xD92E233D00000000000000000000000000000000000000000000000000000000 DUP2 MSTORE PUSH1 0x4 ADD PUSH1 0x40 MLOAD DUP1 SWAP2 SUB SWAP1 REVERT JUMPDEST PUSH0 PUSH20 0xFFFFFFFFFFFFFFFFFFFFFFFFFFFFFFFFFFFFFFFF AND DUP3 PUSH20 0xFFFFFFFFFFFFFFFFFFFFFFFFFFFFFFFFFFFFFFFF AND SUB PUSH2 0xEA3 JUMPI PUSH1 0x40 MLOAD PUSH32 0xD92E233D00000000000000000000000000000000000000000000000000000000 DUP2 MSTORE PUSH1 0x4 ADD PUSH1 0x40 MLOAD DUP1 SWAP2 SUB SWAP1 REVERT JUMPDEST DUP1 PUSH1 0x6 PUSH0 PUSH1 0x7 PUSH0 SWAP1 SLOAD SWAP1 PUSH2 0x100 EXP SWAP1 DIV PUSH20 0xFFFFFFFFFFFFFFFFFFFFFFFFFFFFFFFFFFFFFFFF AND PUSH20 0xFFFFFFFFFFFFFFFFFFFFFFFFFFFFFFFFFFFFFFFF AND PUSH20 0xFFFFFFFFFFFFFFFFFFFFFFFFFFFFFFFFFFFFFFFF AND DUP2 MSTORE PUSH1 0x20 ADD SWAP1 DUP2 MSTORE PUSH1 0x20 ADD PUSH0 KECCAK256 PUSH0 DUP5 PUSH20 0xFFFFFFFFFFFFFFFFFFFFFFFFFFFFFFFFFFFFFFFF AND PUSH20 0xFFFFFFFFFFFFFFFFFFFFFFFFFFFFFFFFFFFFFFFF AND DUP2 MSTORE PUSH1 0x20 ADD SWAP1 DUP2 MSTORE PUSH1 0x20 ADD PUSH0 KECCAK256 DUP2 SWAP1 SSTORE POP DUP2 PUSH20 0xFFFFFFFFFFFFFFFFFFFFFFFFFFFFFFFFFFFFFFFF AND PUSH1 0x7 PUSH0 SWAP1 SLOAD SWAP1 PUSH2 0x100 EXP SWAP1 DIV PUSH20 0xFFFFFFFFFFFFFFFFFFFFFFFFFFFFFFFFFFFFFFFF AND PUSH20 0xFFFFFFFFFFFFFFFFFFFFFFFFFFFFFFFFFFFFFFFF AND PUSH32 0x8C5BE1E5EBEC7D5BD14F71427D1E84F3DD0314C0F7B2291E5B200AC8C7C3B925 DUP4 PUSH1 0x40 MLOAD PUSH2 0xFBF SWAP2 SWAP1 PUSH2 0x1834 JUMP JUMPDEST PUSH1 0x40 MLOAD DUP1 SWAP2 SUB SWAP1 LOG3 POP POP POP JUMP JUMPDEST PUSH0 PUSH2 0xFD7 DUP5 DUP5 PUSH2 0xADF JUMP JUMPDEST SWAP1 POP PUSH32 0xFFFFFFFFFFFFFFFFFFFFFFFFFFFFFFFFFFFFFFFFFFFFFFFFFFFFFFFFFFFFFFFF DUP2 EQ PUSH2 0x1051 JUMPI DUP2 DUP2 LT ISZERO PUSH2 0x103A JUMPI PUSH1 0x40 MLOAD PUSH32 0xF4D678B800000000000000000000000000000000000000000000000000000000 DUP2 MSTORE PUSH1 0x4 ADD PUSH1 0x40 MLOAD DUP1 SWAP2 SUB SWAP1 REVERT JUMPDEST PUSH2 0x1050 DUP5 DUP5 DUP5 DUP5 PUSH2 0x104B SWAP2 SWAP1 PUSH2 0x19EC JUMP JUMPDEST PUSH2 0xDD9 JUMP JUMPDEST JUMPDEST POP POP POP POP JUMP JUMPDEST PUSH0 PUSH20 0xFFFFFFFFFFFFFFFFFFFFFFFFFFFFFFFFFFFFFFFF AND DUP4 PUSH20 0xFFFFFFFFFFFFFFFFFFFFFFFFFFFFFFFFFFFFFFFF AND SUB PUSH2 0x10BC JUMPI PUSH1 0x40 MLOAD PUSH32 0xD92E233D00000000000000000000000000000000000000000000000000000000 DUP2 MSTORE PUSH1 0x4 ADD PUSH1 0x40 MLOAD DUP1 SWAP2 SUB SWAP1 REVERT JUMPDEST PUSH0 PUSH20 0xFFFFFFFFFFFFFFFFFFFFFFFFFFFFFFFFFFFFFFFF AND DUP3 PUSH20 0xFFFFFFFFFFFFFFFFFFFFFFFFFFFFFFFFFFFFFFFF AND SUB PUSH2 0x1121 JUMPI PUSH1 0x40 MLOAD PUSH32 0xD92E233D00000000000000000000000000000000000000000000000000000000 DUP2 MSTORE PUSH1 0x4 ADD PUSH1 0x40 MLOAD DUP1 SWAP2 SUB SWAP1 REVERT JUMPDEST PUSH0 PUSH1 0x5 PUSH0 DUP6 PUSH20 0xFFFFFFFFFFFFFFFFFFFFFFFFFFFFFFFFFFFFFFFF AND PUSH20 0xFFFFFFFFFFFFFFFFFFFFFFFFFFFFFFFFFFFFFFFF AND DUP2 MSTORE PUSH1 0x20 ADD SWAP1 DUP2 MSTORE PUSH1 0x20 ADD PUSH0 KECCAK256 SLOAD SWAP1 POP DUP2 DUP2 LT ISZERO PUSH2 0x119C JUMPI PUSH1 0x40 MLOAD PUSH32 0xF4D678B800000000000000000000000000000000000000000000000000000000 DUP2 MSTORE PUSH1 0x4 ADD PUSH1 0x40 MLOAD DUP1 SWAP2 SUB SWAP1 REVERT JUMPDEST DUP2 DUP2 PUSH2 0x11A8 SWAP2 SWAP1 PUSH2 0x19EC JUMP JUMPDEST PUSH1 0x5 PUSH0 DUP7 PUSH20 0xFFFFFFFFFFFFFFFFFFFFFFFFFFFFFFFFFFFFFFFF AND PUSH20 0xFFFFFFFFFFFFFFFFFFFFFFFFFFFFFFFFFFFFFFFF AND DUP2 MSTORE PUSH1 0x20 ADD SWAP1 DUP2 MSTORE PUSH1 0x20 ADD PUSH0 KECCAK256 DUP2 SWAP1 SSTORE POP DUP2 PUSH1 0x5 PUSH0 DUP6 PUSH20 0xFFFFFFFFFFFFFFFFFFFFFFFFFFFFFFFFFFFFFFFF AND PUSH20 0xFFFFFFFFFFFFFFFFFFFFFFFFFFFFFFFFFFFFFFFF AND DUP2 MSTORE PUSH1 0x20 ADD SWAP1 DUP2 MSTORE PUSH1 0x20 ADD PUSH0 KECCAK256 PUSH0 DUP3 DUP3 SLOAD PUSH2 0x1235 SWAP2 SWAP1 PUSH2 0x1A1F JUMP JUMPDEST SWAP3 POP POP DUP2 SWAP1 SSTORE POP DUP3 PUSH20 0xFFFFFFFFFFFFFFFFFFFFFFFFFFFFFFFFFFFFFFFF AND DUP5 PUSH20 0xFFFFFFFFFFFFFFFFFFFFFFFFFFFFFFFFFFFFFFFF AND PUSH32 0xDDF252AD1BE2C89B69C2B068FC378DAA952BA7F163C4A11628F55A4DF523B3EF DUP5 PUSH1 0x40 MLOAD PUSH2 0x1299 SWAP2 SWAP1 PUSH2 0x1834 JUMP JUMPDEST PUSH1 0x40 MLOAD DUP1 SWAP2 SUB SWAP1 LOG3 POP POP POP POP JUMP JUMPDEST PUSH0 PUSH20 0xFFFFFFFFFFFFFFFFFFFFFFFFFFFFFFFFFFFFFFFF AND DUP3 PUSH20 0xFFFFFFFFFFFFFFFFFFFFFFFFFFFFFFFFFFFFFFFF AND SUB PUSH2 0x130C JUMPI PUSH1 0x40 MLOAD PUSH32 0xD92E233D00000000000000000000000000000000000000000000000000000000 DUP2 MSTORE PUSH1 0x4 ADD PUSH1 0x40 MLOAD DUP1 SWAP2 SUB SWAP1 REVERT JUMPDEST PUSH0 DUP2 PUSH1 0x3 SLOAD PUSH2 0x131B SWAP2 SWAP1 PUSH2 0x1A1F JUMP JUMPDEST SWAP1 POP PUSH1 0x4 SLOAD DUP2 GT ISZERO PUSH2 0x1359 JUMPI PUSH1 0x40 MLOAD PUSH32 0xC30436E900000000000000000000000000000000000000000000000000000000 DUP2 MSTORE PUSH1 0x4 ADD PUSH1 0x40 MLOAD DUP1 SWAP2 SUB SWAP1 REVERT JUMPDEST DUP1 PUSH1 0x3 DUP2 SWAP1 SSTORE POP DUP2 PUSH1 0x5 PUSH0 DUP6 PUSH20 0xFFFFFFFFFFFFFFFFFFFFFFFFFFFFFFFFFFFFFFFF AND PUSH20 0xFFFFFFFFFFFFFFFFFFFFFFFFFFFFFFFFFFFFFFFF AND DUP2 MSTORE PUSH1 0x20 ADD SWAP1 DUP2 MSTORE PUSH1 0x20 ADD PUSH0 KECCAK256 PUSH0 DUP3 DUP3 SLOAD PUSH2 0x13AC SWAP2 SWAP1 PUSH2 0x1A1F JUMP JUMPDEST SWAP3 POP POP DUP2 SWAP1 SSTORE POP DUP3 PUSH20 0xFFFFFFFFFFFFFFFFFFFFFFFFFFFFFFFFFFFFFFFF AND PUSH32 0xF6798A560793A54C3BCFE86A93CDE1E73087D944C0EA20544137D4121396885 DUP4 PUSH1 0x40 MLOAD PUSH2 0x13F9 SWAP2 SWAP1 PUSH2 0x1834 JUMP JUMPDEST PUSH1 0x40 MLOAD DUP1 SWAP2 SUB SWAP1 LOG2 DUP3 PUSH20 0xFFFFFFFFFFFFFFFFFFFFFFFFFFFFFFFFFFFFFFFF AND PUSH0 PUSH20 0xFFFFFFFFFFFFFFFFFFFFFFFFFFFFFFFFFFFFFFFF AND PUSH32 0xDDF252AD1BE2C89B69C2B068FC378DAA952BA7F163C4A11628F55A4DF523B3EF DUP5 PUSH1 0x40 MLOAD PUSH2 0x145E SWAP2 SWAP1 PUSH2 0x1834 JUMP JUMPDEST PUSH1 0x40 MLOAD DUP1 SWAP2 SUB SWAP1 LOG3 POP POP POP JUMP JUMPDEST PUSH0 PUSH20 0xFFFFFFFFFFFFFFFFFFFFFFFFFFFFFFFFFFFFFFFF AND DUP3 PUSH20 0xFFFFFFFFFFFFFFFFFFFFFFFFFFFFFFFFFFFFFFFF AND SUB PUSH2 0x14D0 JUMPI PUSH1 0x40 MLOAD PUSH32 0xD92E233D00000000000000000000000000000000000000000000000000000000 DUP2 MSTORE PUSH1 0x4 ADD PUSH1 0x40 MLOAD DUP1 SWAP2 SUB SWAP1 REVERT JUMPDEST PUSH0 PUSH1 0x5 PUSH0 DUP5 PUSH20 0xFFFFFFFFFFFFFFFFFFFFFFFFFFFFFFFFFFFFFFFF AND PUSH20 0xFFFFFFFFFFFFFFFFFFFFFFFFFFFFFFFFFFFFFFFF AND DUP2 MSTORE PUSH1 0x20 ADD SWAP1 DUP2 MSTORE PUSH1 0x20 ADD PUSH0 KECCAK256 SLOAD SWAP1 POP DUP2 DUP2 LT ISZERO PUSH2 0x154B JUMPI PUSH1 0x40 MLOAD PUSH32 0xF4D678B800000000000000000000000000000000000000000000000000000000 DUP2 MSTORE PUSH1 0x4 ADD PUSH1 0x40 MLOAD DUP1 SWAP2 SUB SWAP1 REVERT JUMPDEST DUP2 DUP2 PUSH2 0x1557 SWAP2 SWAP1 PUSH2 0x19EC JUMP JUMPDEST PUSH1 0x5 PUSH0 DUP6 PUSH20 0xFFFFFFFFFFFFFFFFFFFFFFFFFFFFFFFFFFFFFFFF AND PUSH20 0xFFFFFFFFFFFFFFFFFFFFFFFFFFFFFFFFFFFFFFFF AND DUP2 MSTORE PUSH1 0x20 ADD SWAP1 DUP2 MSTORE PUSH1 0x20 ADD PUSH0 KECCAK256 DUP2 SWAP1 SSTORE POP DUP2 PUSH1 0x3 PUSH0 DUP3 DUP3 SLOAD PUSH2 0x15A9 SWAP2 SWAP1 PUSH2 0x19EC JUMP JUMPDEST SWAP3 POP POP DUP2 SWAP1 SSTORE POP DUP3 PUSH20 0xFFFFFFFFFFFFFFFFFFFFFFFFFFFFFFFFFFFFFFFF AND PUSH32 0xCC16F5DBB4873280815C1EE09DBD06736CFFCC184412CF7A71A0FDB75D397CA5 DUP4 PUSH1 0x40 MLOAD PUSH2 0x15F6 SWAP2 SWAP1 PUSH2 0x1834 JUMP JUMPDEST PUSH1 0x40 MLOAD DUP1 SWAP2 SUB SWAP1 LOG2 PUSH0 PUSH20 0xFFFFFFFFFFFFFFFFFFFFFFFFFFFFFFFFFFFFFFFF AND DUP4 PUSH20 0xFFFFFFFFFFFFFFFFFFFFFFFFFFFFFFFFFFFFFFFF AND PUSH32 0xDDF252AD1BE2C89B69C2B068FC378DAA952BA7F163C4A11628F55A4DF523B3EF DUP5 PUSH1 0x40 MLOAD PUSH2 0x165B SWAP2 SWAP1 PUSH2 0x1834 JUMP JUMPDEST PUSH1 0x40 MLOAD DUP1 SWAP2 SUB SWAP1 LOG3 POP POP POP JUMP JUMPDEST PUSH0 PUSH0 REVERT JUMPDEST PUSH0 PUSH20 0xFFFFFFFFFFFFFFFFFFFFFFFFFFFFFFFFFFFFFFFF DUP3 AND SWAP1 POP SWAP2 SWAP1 POP JUMP JUMPDEST PUSH0 PUSH2 0x1695 DUP3 PUSH2 0x166C JUMP JUMPDEST SWAP1 POP SWAP2 SWAP1 POP JUMP JUMPDEST PUSH2 0x16A5 DUP2 PUSH2 0x168B JUMP JUMPDEST DUP2 EQ PUSH2 0x16AF JUMPI PUSH0 PUSH0 REVERT JUMPDEST POP JUMP JUMPDEST PUSH0 DUP2 CALLDATALOAD SWAP1 POP PUSH2 0x16C0 DUP2 PUSH2 0x169C JUMP JUMPDEST SWAP3 SWAP2 POP POP JUMP JUMPDEST PUSH0 PUSH1 0x20 DUP3 DUP5 SUB SLT ISZERO PUSH2 0x16DB JUMPI PUSH2 0x16DA PUSH2 0x1668 JUMP JUMPDEST JUMPDEST PUSH0 PUSH2 0x16E8 DUP5 DUP3 DUP6 ADD PUSH2 0x16B2 JUMP JUMPDEST SWAP2 POP POP SWAP3 SWAP2 POP POP JUMP JUMPDEST PUSH0 DUP2 ISZERO ISZERO SWAP1 POP SWAP2 SWAP1 POP JUMP JUMPDEST PUSH2 0x1705 DUP2 PUSH2 0x16F1 JUMP JUMPDEST DUP3 MSTORE POP POP JUMP JUMPDEST PUSH0 PUSH1 0x20 DUP3 ADD SWAP1 POP PUSH2 0x171E PUSH0 DUP4 ADD DUP5 PUSH2 0x16FC JUMP JUMPDEST SWAP3 SWAP2 POP POP JUMP JUMPDEST PUSH0 DUP2 MLOAD SWAP1 POP SWAP2 SWAP1 POP JUMP JUMPDEST PUSH0 DUP3 DUP3 MSTORE PUSH1 0x20 DUP3 ADD SWAP1 POP SWAP3 SWAP2 POP POP JUMP JUMPDEST DUP3 DUP2 DUP4 MCOPY PUSH0 DUP4 DUP4 ADD MSTORE POP POP POP JUMP JUMPDEST PUSH0 PUSH1 0x1F NOT PUSH1 0x1F DUP4 ADD AND SWAP1 POP SWAP2 SWAP1 POP JUMP JUMPDEST PUSH0 PUSH2 0x1766 DUP3 PUSH2 0x1724 JUMP JUMPDEST PUSH2 0x1770 DUP2 DUP6 PUSH2 0x172E JUMP JUMPDEST SWAP4 POP PUSH2 0x1780 DUP2 DUP6 PUSH1 0x20 DUP7 ADD PUSH2 0x173E JUMP JUMPDEST PUSH2 0x1789 DUP2 PUSH2 0x174C JUMP JUMPDEST DUP5 ADD SWAP2 POP POP SWAP3 SWAP2 POP POP JUMP JUMPDEST PUSH0 PUSH1 0x20 DUP3 ADD SWAP1 POP DUP2 DUP2 SUB PUSH0 DUP4 ADD MSTORE PUSH2 0x17AC DUP2 DUP5 PUSH2 0x175C JUMP JUMPDEST SWAP1 POP SWAP3 SWAP2 POP POP JUMP JUMPDEST PUSH0 DUP2 SWAP1 POP SWAP2 SWAP1 POP JUMP JUMPDEST PUSH2 0x17C6 DUP2 PUSH2 0x17B4 JUMP JUMPDEST DUP2 EQ PUSH2 0x17D0 JUMPI PUSH0 PUSH0 REVERT JUMPDEST POP JUMP JUMPDEST PUSH0 DUP2 CALLDATALOAD SWAP1 POP PUSH2 0x17E1 DUP2 PUSH2 0x17BD JUMP JUMPDEST SWAP3 SWAP2 POP POP JUMP JUMPDEST PUSH0 PUSH0 PUSH1 0x40 DUP4 DUP6 SUB SLT ISZERO PUSH2 0x17FD JUMPI PUSH2 0x17FC PUSH2 0x1668 JUMP JUMPDEST JUMPDEST PUSH0 PUSH2 0x180A DUP6 DUP3 DUP7 ADD PUSH2 0x16B2 JUMP JUMPDEST SWAP3 POP POP PUSH1 0x20 PUSH2 0x181B DUP6 DUP3 DUP7 ADD PUSH2 0x17D3 JUMP JUMPDEST SWAP2 POP POP SWAP3 POP SWAP3 SWAP1 POP JUMP JUMPDEST PUSH2 0x182E DUP2 PUSH2 0x17B4 JUMP JUMPDEST DUP3 MSTORE POP POP JUMP JUMPDEST PUSH0 PUSH1 0x20 DUP3 ADD SWAP1 POP PUSH2 0x1847 PUSH0 DUP4 ADD DUP5 PUSH2 0x1825 JUMP JUMPDEST SWAP3 SWAP2 POP POP JUMP JUMPDEST PUSH0 PUSH0 PUSH0 PUSH1 0x60 DUP5 DUP7 SUB SLT ISZERO PUSH2 0x1864 JUMPI PUSH2 0x1863 PUSH2 0x1668 JUMP JUMPDEST JUMPDEST PUSH0 PUSH2 0x1871 DUP7 DUP3 DUP8 ADD PUSH2 0x16B2 JUMP JUMPDEST SWAP4 POP POP PUSH1 0x20 PUSH2 0x1882 DUP7 DUP3 DUP8 ADD PUSH2 0x16B2 JUMP JUMPDEST SWAP3 POP POP PUSH1 0x40 PUSH2 0x1893 DUP7 DUP3 DUP8 ADD PUSH2 0x17D3 JUMP JUMPDEST SWAP2 POP POP SWAP3 POP SWAP3 POP SWAP3 JUMP JUMPDEST PUSH0 PUSH1 0xFF DUP3 AND SWAP1 POP SWAP2 SWAP1 POP JUMP JUMPDEST PUSH2 0x18B2 DUP2 PUSH2 0x189D JUMP JUMPDEST DUP3 MSTORE POP POP JUMP JUMPDEST PUSH0 PUSH1 0x20 DUP3 ADD SWAP1 POP PUSH2 0x18CB PUSH0 DUP4 ADD DUP5 PUSH2 0x18A9 JUMP JUMPDEST SWAP3 SWAP2 POP POP JUMP JUMPDEST PUSH0 PUSH1 0x20 DUP3 DUP5 SUB SLT ISZERO PUSH2 0x18E6 JUMPI PUSH2 0x18E5 PUSH2 0x1668 JUMP JUMPDEST JUMPDEST PUSH0 PUSH2 0x18F3 DUP5 DUP3 DUP6 ADD PUSH2 0x17D3 JUMP JUMPDEST SWAP2 POP POP SWAP3 SWAP2 POP POP JUMP JUMPDEST PUSH2 0x1905 DUP2 PUSH2 0x168B JUMP JUMPDEST DUP3 MSTORE POP POP JUMP JUMPDEST PUSH0 PUSH1 0x20 DUP3 ADD SWAP1 POP PUSH2 0x191E PUSH0 DUP4 ADD DUP5 PUSH2 0x18FC JUMP JUMPDEST SWAP3 SWAP2 POP POP JUMP JUMPDEST PUSH0 PUSH0 PUSH1 0x40 DUP4 DUP6 SUB SLT ISZERO PUSH2 0x193A JUMPI PUSH2 0x1939 PUSH2 0x1668 JUMP JUMPDEST JUMPDEST PUSH0 PUSH2 0x1947 DUP6 DUP3 DUP7 ADD PUSH2 0x16B2 JUMP JUMPDEST SWAP3 POP POP PUSH1 0x20 PUSH2 0x1958 DUP6 DUP3 DUP7 ADD PUSH2 0x16B2 JUMP JUMPDEST SWAP2 POP POP SWAP3 POP SWAP3 SWAP1 POP JUMP JUMPDEST PUSH32 0x4E487B7100000000000000000000000000000000000000000000000000000000 PUSH0 MSTORE PUSH1 0x22 PUSH1 0x4 MSTORE PUSH1 0x24 PUSH0 REVERT JUMPDEST PUSH0 PUSH1 0x2 DUP3 DIV SWAP1 POP PUSH1 0x1 DUP3 AND DUP1 PUSH2 0x19A6 JUMPI PUSH1 0x7F DUP3 AND SWAP2 POP JUMPDEST PUSH1 0x20 DUP3 LT DUP2 SUB PUSH2 0x19B9 JUMPI PUSH2 0x19B8 PUSH2 0x1962 JUMP JUMPDEST JUMPDEST POP SWAP2 SWAP1 POP JUMP JUMPDEST PUSH32 0x4E487B7100000000000000000000000000000000000000000000000000000000 PUSH0 MSTORE PUSH1 0x11 PUSH1 0x4 MSTORE PUSH1 0x24 PUSH0 REVERT JUMPDEST PUSH0 PUSH2 0x19F6 DUP3 PUSH2 0x17B4 JUMP JUMPDEST SWAP2 POP PUSH2 0x1A01 DUP4 PUSH2 0x17B4 JUMP JUMPDEST SWAP3 POP DUP3 DUP3 SUB SWAP1 POP DUP2 DUP2 GT ISZERO PUSH2 0x1A19 JUMPI PUSH2 0x1A18 PUSH2 0x19BF JUMP JUMPDEST JUMPDEST SWAP3 SWAP2 POP POP JUMP JUMPDEST PUSH0 PUSH2 0x1A29 DUP3 PUSH2 0x17B4 JUMP JUMPDEST SWAP2 POP PUSH2 0x1A34 DUP4 PUSH2 0x17B4 JUMP JUMPDEST SWAP3 POP DUP3 DUP3 ADD SWAP1 POP DUP1 DUP3 GT ISZERO PUSH2 0x1A4C JUMPI PUSH2 0x1A4B PUSH2 0x19BF JUMP JUMPDEST JUMPDEST SWAP3 SWAP2 POP POP JUMP INVALID LOG2 PUSH5 0x6970667358 0x22 SLT KECCAK256 DUP1 MULMOD 0xDC BLOCKHASH PC LOG4 PREVRANDAO DIV 0xD4 SWAP10 0xF6 0xB9 0xD5 DIV 0xD8 0xDF CALL 0x22 PUSH15 0x6EE13D3EF8D464A8F4BDD356076473 PUSH16 0x6C634300081E00330000000000000000 "
		},
		"gasEstimates": {
			"creation": {
				"codeDepositCost": "1358400",
				"executionCost": "infinite",
				"totalCost": "infinite"
			},
			"external": {
				"addBurner(address)": "28660",
				"addMinter(address)": "28661",
				"allowance(address,address)": "infinite",
				"approve(address,uint256)": "infinite",
				"balanceOf(address)": "2852",
				"burn(uint256)": "infinite",
				"burnFrom(address,uint256)": "infinite",
				"burners(address)": "2879",
				"decimals()": "2533",
				"maxSupply()": "2469",
				"mint(address,uint256)": "infinite",
				"minters(address)": "2965",
				"name()": "infinite",
				"owner()": "2575",
				"removeBurner(address)": "28572",
				"removeMinter(address)": "28593",
				"symbol()": "infinite",
				"totalSupply()": "2537",
				"transfer(address,uint256)": "infinite",
				"transferFrom(address,address,uint256)": "infinite",
				"transferOwnership(address)": "27006"
			},
			"internal": {
				"_approve(address,address,uint256)": "infinite",
				"_burn(address,uint256)": "infinite",
				"_mint(address,uint256)": "infinite",
				"_spendAllowance(address,address,uint256)": "infinite",
				"_transfer(address,address,uint256)": "infinite"
			}
		},
		"methodIdentifiers": {
			"addBurner(address)": "f44637ba",
			"addMinter(address)": "983b2d56",
			"allowance(address,address)": "dd62ed3e",
			"approve(address,uint256)": "095ea7b3",
			"balanceOf(address)": "70a08231",
			"burn(uint256)": "42966c68",
			"burnFrom(address,uint256)": "79cc6790",
			"burners(address)": "03d41e0e",
			"decimals()": "313ce567",
			"maxSupply()": "d5abeb01",
			"mint(address,uint256)": "40c10f19",
			"minters(address)": "f46eccc4",
			"name()": "06fdde03",
			"owner()": "8da5cb5b",
			"removeBurner(address)": "02846858",
			"removeMinter(address)": "3092afd5",
			"symbol()": "95d89b41",
			"totalSupply()": "18160ddd",
			"transfer(address,uint256)": "a9059cbb",
			"transferFrom(address,address,uint256)": "23b872dd",
			"transferOwnership(address)": "f2fde38b"
		}
	},
	"abi": [
		{
			"inputs": [
				{
					"internalType": "string",
					"name": "_name",
					"type": "string"
				},
				{
					"internalType": "string",
					"name": "_symbol",
					"type": "string"
				},
				{
					"internalType": "uint8",
					"name": "_decimals",
					"type": "uint8"
				},
				{
					"internalType": "uint256",
					"name": "_initialSupply",
					"type": "uint256"
				},
				{
					"internalType": "uint256",
					"name": "_maxSupply",
					"type": "uint256"
				}
			],
			"stateMutability": "nonpayable",
			"type": "constructor"
		},
		{
			"inputs": [],
			"name": "ExceedsMaxSupply",
			"type": "error"
		},
		{
			"inputs": [],
			"name": "InsufficientBalance",
			"type": "error"
		},
		{
			"inputs": [],
			"name": "NotBurner",
			"type": "error"
		},
		{
			"inputs": [],
			"name": "NotMinter",
			"type": "error"
		},
		{
			"inputs": [],
			"name": "NotOwner",
			"type": "error"
		},
		{
			"inputs": [],
			"name": "ZeroAddress",
			"type": "error"
		},
		{
			"anonymous": false,
			"inputs": [
				{
					"indexed": true,
					"internalType": "address",
					"name": "owner",
					"type": "address"
				},
				{
					"indexed": true,
					"internalType": "address",
					"name": "spender",
					"type": "address"
				},
				{
					"indexed": false,
					"internalType": "uint256",
					"name": "value",
					"type": "uint256"
				}
			],
			"name": "Approval",
			"type": "event"
		},
		{
			"anonymous": false,
			"inputs": [
				{
					"indexed": true,
					"internalType": "address",
					"name": "from",
					"type": "address"
				},
				{
					"indexed": false,
					"internalType": "uint256",
					"name": "amount",
					"type": "uint256"
				}
			],
			"name": "Burn",
			"type": "event"
		},
		{
			"anonymous": false,
			"inputs": [
				{
					"indexed": true,
					"internalType": "address",
					"name": "account",
					"type": "address"
				},
				{
					"indexed": false,
					"internalType": "bool",
					"name": "status",
					"type": "bool"
				}
			],
			"name": "BurnerUpdated",
			"type": "event"
		},
		{
			"anonymous": false,
			"inputs": [
				{
					"indexed": true,
					"internalType": "address",
					"name": "to",
					"type": "address"
				},
				{
					"indexed": false,
					"internalType": "uint256",
					"name": "amount",
					"type": "uint256"
				}
			],
			"name": "Mint",
			"type": "event"
		},
		{
			"anonymous": false,
			"inputs": [
				{
					"indexed": true,
					"internalType": "address",
					"name": "account",
					"type": "address"
				},
				{
					"indexed": false,
					"internalType": "bool",
					"name": "status",
					"type": "bool"
				}
			],
			"name": "MinterUpdated",
			"type": "event"
		},
		{
			"anonymous": false,
			"inputs": [
				{
					"indexed": true,
					"internalType": "address",
					"name": "from",
					"type": "address"
				},
				{
					"indexed": true,
					"internalType": "address",
					"name": "to",
					"type": "address"
				},
				{
					"indexed": false,
					"internalType": "uint256",
					"name": "value",
					"type": "uint256"
				}
			],
			"name": "Transfer",
			"type": "event"
		},
		{
			"inputs": [
				{
					"internalType": "address",
					"name": "account",
					"type": "address"
				}
			],
			"name": "addBurner",
			"outputs": [],
			"stateMutability": "nonpayable",
			"type": "function"
		},
		{
			"inputs": [
				{
					"internalType": "address",
					"name": "account",
					"type": "address"
				}
			],
			"name": "addMinter",
			"outputs": [],
			"stateMutability": "nonpayable",
			"type": "function"
		},
		{
			"inputs": [
				{
					"internalType": "address",
					"name": "owner1",
					"type": "address"
				},
				{
					"internalType": "address",
					"name": "spender",
					"type": "address"
				}
			],
			"name": "allowance",
			"outputs": [
				{
					"internalType": "uint256",
					"name": "",
					"type": "uint256"
				}
			],
			"stateMutability": "view",
			"type": "function"
		},
		{
			"inputs": [
				{
					"internalType": "address",
					"name": "spender",
					"type": "address"
				},
				{
					"internalType": "uint256",
					"name": "amount",
					"type": "uint256"
				}
			],
			"name": "approve",
			"outputs": [
				{
					"internalType": "bool",
					"name": "",
					"type": "bool"
				}
			],
			"stateMutability": "nonpayable",
			"type": "function"
		},
		{
			"inputs": [
				{
					"internalType": "address",
					"name": "account",
					"type": "address"
				}
			],
			"name": "balanceOf",
			"outputs": [
				{
					"internalType": "uint256",
					"name": "",
					"type": "uint256"
				}
			],
			"stateMutability": "view",
			"type": "function"
		},
		{
			"inputs": [
				{
					"internalType": "uint256",
					"name": "amount",
					"type": "uint256"
				}
			],
			"name": "burn",
			"outputs": [],
			"stateMutability": "nonpayable",
			"type": "function"
		},
		{
			"inputs": [
				{
					"internalType": "address",
					"name": "from",
					"type": "address"
				},
				{
					"internalType": "uint256",
					"name": "amount",
					"type": "uint256"
				}
			],
			"name": "burnFrom",
			"outputs": [],
			"stateMutability": "nonpayable",
			"type": "function"
		},
		{
			"inputs": [
				{
					"internalType": "address",
					"name": "",
					"type": "address"
				}
			],
			"name": "burners",
			"outputs": [
				{
					"internalType": "bool",
					"name": "",
					"type": "bool"
				}
			],
			"stateMutability": "view",
			"type": "function"
		},
		{
			"inputs": [],
			"name": "decimals",
			"outputs": [
				{
					"internalType": "uint8",
					"name": "",
					"type": "uint8"
				}
			],
			"stateMutability": "view",
			"type": "function"
		},
		{
			"inputs": [],
			"name": "maxSupply",
			"outputs": [
				{
					"internalType": "uint256",
					"name": "",
					"type": "uint256"
				}
			],
			"stateMutability": "view",
			"type": "function"
		},
		{
			"inputs": [
				{
					"internalType": "address",
					"name": "to",
					"type": "address"
				},
				{
					"internalType": "uint256",
					"name": "amount",
					"type": "uint256"
				}
			],
			"name": "mint",
			"outputs": [],
			"stateMutability": "nonpayable",
			"type": "function"
		},
		{
			"inputs": [
				{
					"internalType": "address",
					"name": "",
					"type": "address"
				}
			],
			"name": "minters",
			"outputs": [
				{
					"internalType": "bool",
					"name": "",
					"type": "bool"
				}
			],
			"stateMutability": "view",
			"type": "function"
		},
		{
			"inputs": [],
			"name": "name",
			"outputs": [
				{
					"internalType": "string",
					"name": "",
					"type": "string"
				}
			],
			"stateMutability": "view",
			"type": "function"
		},
		{
			"inputs": [],
			"name": "owner",
			"outputs": [
				{
					"internalType": "address",
					"name": "",
					"type": "address"
				}
			],
			"stateMutability": "view",
			"type": "function"
		},
		{
			"inputs": [
				{
					"internalType": "address",
					"name": "account",
					"type": "address"
				}
			],
			"name": "removeBurner",
			"outputs": [],
			"stateMutability": "nonpayable",
			"type": "function"
		},
		{
			"inputs": [
				{
					"internalType": "address",
					"name": "account",
					"type": "address"
				}
			],
			"name": "removeMinter",
			"outputs": [],
			"stateMutability": "nonpayable",
			"type": "function"
		},
		{
			"inputs": [],
			"name": "symbol",
			"outputs": [
				{
					"internalType": "string",
					"name": "",
					"type": "string"
				}
			],
			"stateMutability": "view",
			"type": "function"
		},
		{
			"inputs": [],
			"name": "totalSupply",
			"outputs": [
				{
					"internalType": "uint256",
					"name": "",
					"type": "uint256"
				}
			],
			"stateMutability": "view",
			"type": "function"
		},
		{
			"inputs": [
				{
					"internalType": "address",
					"name": "to",
					"type": "address"
				},
				{
					"internalType": "uint256",
					"name": "amount",
					"type": "uint256"
				}
			],
			"name": "transfer",
			"outputs": [
				{
					"internalType": "bool",
					"name": "",
					"type": "bool"
				}
			],
			"stateMutability": "nonpayable",
			"type": "function"
		},
		{
			"inputs": [
				{
					"internalType": "address",
					"name": "from",
					"type": "address"
				},
				{
					"internalType": "address",
					"name": "to",
					"type": "address"
				},
				{
					"internalType": "uint256",
					"name": "amount",
					"type": "uint256"
				}
			],
			"name": "transferFrom",
			"outputs": [
				{
					"internalType": "bool",
					"name": "",
					"type": "bool"
				}
			],
			"stateMutability": "nonpayable",
			"type": "function"
		},
		{
			"inputs": [
				{
					"internalType": "address",
					"name": "newOwner",
					"type": "address"
				}
			],
			"name": "transferOwnership",
			"outputs": [],
			"stateMutability": "nonpayable",
			"type": "function"
		}
	]
}