{
	"tryit/function.sol": {
		"Behaviordemo": {
			"abi": [
				{
					"inputs": [
						{
							"internalType": "int256",
							"name": "a",
							"type": "int256"
						},
						{
							"internalType": "int256",
							"name": "b",
							"type": "int256"
						}
					],
					"name": "add",
					"outputs": [
						{
							"internalType": "int256",
							"name": "",
							"type": "int256"
						}
					],
					"stateMutability": "pure",
					"type": "function"
				},
				{
					"inputs": [],
					"name": "getnumber",
					"outputs": [
						{
							"internalType": "int256",
							"name": "",
							"type": "int256"
						}
					],
					"stateMutability": "view",
					"type": "function"
				},
				{
					"inputs": [],
					"name": "number",
					"outputs": [
						{
							"internalType": "int256",
							"name": "",
							"type": "int256"
						}
					],
					"stateMutability": "view",
					"type": "function"
				},
				{
					"inputs": [
						{
							"internalType": "int256",
							"name": "_num",
							"type": "int256"
						}
					],
					"name": "setnumber",
					"outputs": [],
					"stateMutability": "nonpayable",
					"type": "function"
				}
			],
			"devdoc": {
				"kind": "dev",
				"methods": {},
				"version": 1
			},
			"evm": {
				"assembly": "    /* \"tryit/function.sol\":380:692  contract Behaviordemo {... */\n  mstore(0x40, 0x80)\n    /* \"tryit/function.sol\":429:431  10 */\n  0x0a\n    /* \"tryit/function.sol\":409:431  int public number = 10 */\n  0x00\n  sstore\n    /* \"tryit/function.sol\":380:692  contract Behaviordemo {... */\n  callvalue\n  dup1\n  iszero\n  tag_1\n  jumpi\n  revert(0x00, 0x00)\ntag_1:\n  pop\n  dataSize(sub_0)\n  dup1\n  dataOffset(sub_0)\n  0x00\n  codecopy\n  0x00\n  return\nstop\n\nsub_0: assembly {\n        /* \"tryit/function.sol\":380:692  contract Behaviordemo {... */\n      mstore(0x40, 0x80)\n      callvalue\n      dup1\n      iszero\n      tag_1\n      jumpi\n      revert(0x00, 0x00)\n    tag_1:\n      pop\n      jumpi(tag_2, lt(calldatasize, 0x04))\n      shr(0xe0, calldataload(0x00))\n      dup1\n      0x486b7217\n      eq\n      tag_3\n      jumpi\n      dup1\n      0x8381f58a\n      eq\n      tag_4\n      jumpi\n      dup1\n      0xa5f3c23b\n      eq\n      tag_5\n      jumpi\n      dup1\n      0xbd3e994e\n      eq\n      tag_6\n      jumpi\n    tag_2:\n      revert(0x00, 0x00)\n        /* \"tryit/function.sol\":438:517  function getnumber() public view returns (int) {... */\n    tag_3:\n      tag_7\n      tag_8\n      jump\t// in\n    tag_7:\n      mload(0x40)\n      tag_9\n      swap2\n      swap1\n      tag_10\n      jump\t// in\n    tag_9:\n      mload(0x40)\n      dup1\n      swap2\n      sub\n      swap1\n      return\n        /* \"tryit/function.sol\":409:431  int public number = 10 */\n    tag_4:\n      tag_11\n      tag_12\n      jump\t// in\n    tag_11:\n      mload(0x40)\n      tag_13\n      swap2\n      swap1\n      tag_10\n      jump\t// in\n    tag_13:\n      mload(0x40)\n      dup1\n      swap2\n      sub\n      swap1\n      return\n        /* \"tryit/function.sol\":523:608  function add(int a, int b) public pure returns (int) {... */\n    tag_5:\n      tag_14\n      0x04\n      dup1\n      calldatasize\n      sub\n      dup2\n      add\n      swap1\n      tag_15\n      swap2\n      swap1\n      tag_16\n      jump\t// in\n    tag_15:\n      tag_17\n      jump\t// in\n    tag_14:\n      mload(0x40)\n      tag_18\n      swap2\n      swap1\n      tag_10\n      jump\t// in\n    tag_18:\n      mload(0x40)\n      dup1\n      swap2\n      sub\n      swap1\n      return\n        /* \"tryit/function.sol\":614:683  function setnumber(int _num) public  {... */\n    tag_6:\n      tag_19\n      0x04\n      dup1\n      calldatasize\n      sub\n      dup2\n      add\n      swap1\n      tag_20\n      swap2\n      swap1\n      tag_21\n      jump\t// in\n    tag_20:\n      tag_22\n      jump\t// in\n    tag_19:\n      stop\n        /* \"tryit/function.sol\":438:517  function getnumber() public view returns (int) {... */\n    tag_8:\n        /* \"tryit/function.sol\":480:483  int */\n      0x00\n        /* \"tryit/function.sol\":503:509  number */\n      sload(0x00)\n        /* \"tryit/function.sol\":496:509  return number */\n      swap1\n      pop\n        /* \"tryit/function.sol\":438:517  function getnumber() public view returns (int) {... */\n      swap1\n      jump\t// out\n        /* \"tryit/function.sol\":409:431  int public number = 10 */\n    tag_12:\n      sload(0x00)\n      dup2\n      jump\t// out\n        /* \"tryit/function.sol\":523:608  function add(int a, int b) public pure returns (int) {... */\n    tag_17:\n        /* \"tryit/function.sol\":571:574  int */\n      0x00\n        /* \"tryit/function.sol\":598:599  b */\n      dup2\n        /* \"tryit/function.sol\":594:595  a */\n      dup4\n        /* \"tryit/function.sol\":594:599  a + b */\n      tag_25\n      swap2\n      swap1\n      tag_26\n      jump\t// in\n    tag_25:\n        /* \"tryit/function.sol\":587:599  return a + b */\n      swap1\n      pop\n        /* \"tryit/function.sol\":523:608  function add(int a, int b) public pure returns (int) {... */\n      swap3\n      swap2\n      pop\n      pop\n      jump\t// out\n        /* \"tryit/function.sol\":614:683  function setnumber(int _num) public  {... */\n    tag_22:\n        /* \"tryit/function.sol\":671:675  _num */\n      dup1\n        /* \"tryit/function.sol\":662:668  number */\n      0x00\n        /* \"tryit/function.sol\":662:675  number = _num */\n      dup2\n      swap1\n      sstore\n      pop\n        /* \"tryit/function.sol\":614:683  function setnumber(int _num) public  {... */\n      pop\n      jump\t// out\n        /* \"#utility.yul\":7:83   */\n    tag_28:\n        /* \"#utility.yul\":43:50   */\n      0x00\n        /* \"#utility.yul\":72:77   */\n      dup2\n        /* \"#utility.yul\":61:77   */\n      swap1\n      pop\n        /* \"#utility.yul\":7:83   */\n      swap2\n      swap1\n      pop\n      jump\t// out\n        /* \"#utility.yul\":89:204   */\n    tag_29:\n        /* \"#utility.yul\":174:197   */\n      tag_39\n        /* \"#utility.yul\":191:196   */\n      dup2\n        /* \"#utility.yul\":174:197   */\n      tag_28\n      jump\t// in\n    tag_39:\n        /* \"#utility.yul\":169:172   */\n      dup3\n        /* \"#utility.yul\":162:198   */\n      mstore\n        /* \"#utility.yul\":89:204   */\n      pop\n      pop\n      jump\t// out\n        /* \"#utility.yul\":210:428   */\n    tag_10:\n        /* \"#utility.yul\":301:305   */\n      0x00\n        /* \"#utility.yul\":339:341   */\n      0x20\n        /* \"#utility.yul\":328:337   */\n      dup3\n        /* \"#utility.yul\":324:342   */\n      add\n        /* \"#utility.yul\":316:342   */\n      swap1\n      pop\n        /* \"#utility.yul\":352:421   */\n      tag_41\n        /* \"#utility.yul\":418:419   */\n      0x00\n        /* \"#utility.yul\":407:416   */\n      dup4\n        /* \"#utility.yul\":403:420   */\n      add\n        /* \"#utility.yul\":394:400   */\n      dup5\n        /* \"#utility.yul\":352:421   */\n      tag_29\n      jump\t// in\n    tag_41:\n        /* \"#utility.yul\":210:428   */\n      swap3\n      swap2\n      pop\n      pop\n      jump\t// out\n        /* \"#utility.yul\":515:632   */\n    tag_31:\n        /* \"#utility.yul\":624:625   */\n      0x00\n        /* \"#utility.yul\":621:622   */\n      0x00\n        /* \"#utility.yul\":614:626   */\n      revert\n        /* \"#utility.yul\":761:881   */\n    tag_33:\n        /* \"#utility.yul\":833:856   */\n      tag_46\n        /* \"#utility.yul\":850:855   */\n      dup2\n        /* \"#utility.yul\":833:856   */\n      tag_28\n      jump\t// in\n    tag_46:\n        /* \"#utility.yul\":826:831   */\n      dup2\n        /* \"#utility.yul\":823:857   */\n      eq\n        /* \"#utility.yul\":813:875   */\n      tag_47\n      jumpi\n        /* \"#utility.yul\":871:872   */\n      0x00\n        /* \"#utility.yul\":868:869   */\n      0x00\n        /* \"#utility.yul\":861:873   */\n      revert\n        /* \"#utility.yul\":813:875   */\n    tag_47:\n        /* \"#utility.yul\":761:881   */\n      pop\n      jump\t// out\n        /* \"#utility.yul\":887:1024   */\n    tag_34:\n        /* \"#utility.yul\":932:937   */\n      0x00\n        /* \"#utility.yul\":970:976   */\n      dup2\n        /* \"#utility.yul\":957:977   */\n      calldataload\n        /* \"#utility.yul\":948:977   */\n      swap1\n      pop\n        /* \"#utility.yul\":986:1018   */\n      tag_49\n        /* \"#utility.yul\":1012:1017   */\n      dup2\n        /* \"#utility.yul\":986:1018   */\n      tag_33\n      jump\t// in\n    tag_49:\n        /* \"#utility.yul\":887:1024   */\n      swap3\n      swap2\n      pop\n      pop\n      jump\t// out\n        /* \"#utility.yul\":1030:1500   */\n    tag_16:\n        /* \"#utility.yul\":1096:1102   */\n      0x00\n        /* \"#utility.yul\":1104:1110   */\n      0x00\n        /* \"#utility.yul\":1153:1155   */\n      0x40\n        /* \"#utility.yul\":1141:1150   */\n      dup4\n        /* \"#utility.yul\":1132:1139   */\n      dup6\n        /* \"#utility.yul\":1128:1151   */\n      sub\n        /* \"#utility.yul\":1124:1156   */\n      slt\n        /* \"#utility.yul\":1121:1240   */\n      iszero\n      tag_51\n      jumpi\n        /* \"#utility.yul\":1159:1238   */\n      tag_52\n      tag_31\n      jump\t// in\n    tag_52:\n        /* \"#utility.yul\":1121:1240   */\n    tag_51:\n        /* \"#utility.yul\":1279:1280   */\n      0x00\n        /* \"#utility.yul\":1304:1356   */\n      tag_53\n        /* \"#utility.yul\":1348:1355   */\n      dup6\n        /* \"#utility.yul\":1339:1345   */\n      dup3\n        /* \"#utility.yul\":1328:1337   */\n      dup7\n        /* \"#utility.yul\":1324:1346   */\n      add\n        /* \"#utility.yul\":1304:1356   */\n      tag_34\n      jump\t// in\n    tag_53:\n        /* \"#utility.yul\":1294:1356   */\n      swap3\n      pop\n        /* \"#utility.yul\":1250:1366   */\n      pop\n        /* \"#utility.yul\":1405:1407   */\n      0x20\n        /* \"#utility.yul\":1431:1483   */\n      tag_54\n        /* \"#utility.yul\":1475:1482   */\n      dup6\n        /* \"#utility.yul\":1466:1472   */\n      dup3\n        /* \"#utility.yul\":1455:1464   */\n      dup7\n        /* \"#utility.yul\":1451:1473   */\n      add\n        /* \"#utility.yul\":1431:1483   */\n      tag_34\n      jump\t// in\n    tag_54:\n        /* \"#utility.yul\":1421:1483   */\n      swap2\n      pop\n        /* \"#utility.yul\":1376:1493   */\n      pop\n        /* \"#utility.yul\":1030:1500   */\n      swap3\n      pop\n      swap3\n      swap1\n      pop\n      jump\t// out\n        /* \"#utility.yul\":1506:1833   */\n    tag_21:\n        /* \"#utility.yul\":1564:1570   */\n      0x00\n        /* \"#utility.yul\":1613:1615   */\n      0x20\n        /* \"#utility.yul\":1601:1610   */\n      dup3\n        /* \"#utility.yul\":1592:1599   */\n      dup5\n        /* \"#utility.yul\":1588:1611   */\n      sub\n        /* \"#utility.yul\":1584:1616   */\n      slt\n        /* \"#utility.yul\":1581:1700   */\n      iszero\n      tag_56\n      jumpi\n        /* \"#utility.yul\":1619:1698   */\n      tag_57\n      tag_31\n      jump\t// in\n    tag_57:\n        /* \"#utility.yul\":1581:1700   */\n    tag_56:\n        /* \"#utility.yul\":1739:1740   */\n      0x00\n        /* \"#utility.yul\":1764:1816   */\n      tag_58\n        /* \"#utility.yul\":1808:1815   */\n      dup5\n        /* \"#utility.yul\":1799:1805   */\n      dup3\n        /* \"#utility.yul\":1788:1797   */\n      dup6\n        /* \"#utility.yul\":1784:1806   */\n      add\n        /* \"#utility.yul\":1764:1816   */\n      tag_34\n      jump\t// in\n    tag_58:\n        /* \"#utility.yul\":1754:1816   */\n      swap2\n      pop\n        /* \"#utility.yul\":1710:1826   */\n      pop\n        /* \"#utility.yul\":1506:1833   */\n      swap3\n      swap2\n      pop\n      pop\n      jump\t// out\n        /* \"#utility.yul\":1839:2019   */\n    tag_35:\n        /* \"#utility.yul\":1887:1964   */\n      0x4e487b7100000000000000000000000000000000000000000000000000000000\n        /* \"#utility.yul\":1884:1885   */\n      0x00\n        /* \"#utility.yul\":1877:1965   */\n      mstore\n        /* \"#utility.yul\":1984:1988   */\n      0x11\n        /* \"#utility.yul\":1981:1982   */\n      0x04\n        /* \"#utility.yul\":1974:1989   */\n      mstore\n        /* \"#utility.yul\":2008:2012   */\n      0x24\n        /* \"#utility.yul\":2005:2006   */\n      0x00\n        /* \"#utility.yul\":1998:2013   */\n      revert\n        /* \"#utility.yul\":2025:2400   */\n    tag_26:\n        /* \"#utility.yul\":2064:2067   */\n      0x00\n        /* \"#utility.yul\":2083:2102   */\n      tag_61\n        /* \"#utility.yul\":2100:2101   */\n      dup3\n        /* \"#utility.yul\":2083:2102   */\n      tag_28\n      jump\t// in\n    tag_61:\n        /* \"#utility.yul\":2078:2102   */\n      swap2\n      pop\n        /* \"#utility.yul\":2116:2135   */\n      tag_62\n        /* \"#utility.yul\":2133:2134   */\n      dup4\n        /* \"#utility.yul\":2116:2135   */\n      tag_28\n      jump\t// in\n    tag_62:\n        /* \"#utility.yul\":2111:2135   */\n      swap3\n      pop\n        /* \"#utility.yul\":2158:2159   */\n      dup3\n        /* \"#utility.yul\":2155:2156   */\n      dup3\n        /* \"#utility.yul\":2151:2160   */\n      add\n        /* \"#utility.yul\":2144:2160   */\n      swap1\n      pop\n        /* \"#utility.yul\":2356:2357   */\n      dup3\n        /* \"#utility.yul\":2351:2354   */\n      dup2\n        /* \"#utility.yul\":2347:2358   */\n      slt\n        /* \"#utility.yul\":2340:2359   */\n      iszero\n        /* \"#utility.yul\":2336:2337   */\n      0x00\n        /* \"#utility.yul\":2333:2334   */\n      dup4\n        /* \"#utility.yul\":2329:2338   */\n      slt\n        /* \"#utility.yul\":2325:2360   */\n      and\n        /* \"#utility.yul\":2308:2309   */\n      dup4\n        /* \"#utility.yul\":2303:2306   */\n      dup3\n        /* \"#utility.yul\":2299:2310   */\n      slt\n        /* \"#utility.yul\":2294:2295   */\n      0x00\n        /* \"#utility.yul\":2291:2292   */\n      dup5\n        /* \"#utility.yul\":2287:2296   */\n      slt\n        /* \"#utility.yul\":2280:2297   */\n      iszero\n        /* \"#utility.yul\":2276:2311   */\n      and\n        /* \"#utility.yul\":2260:2370   */\n      or\n        /* \"#utility.yul\":2257:2393   */\n      iszero\n      tag_63\n      jumpi\n        /* \"#utility.yul\":2373:2391   */\n      tag_64\n      tag_35\n      jump\t// in\n    tag_64:\n        /* \"#utility.yul\":2257:2393   */\n    tag_63:\n        /* \"#utility.yul\":2025:2400   */\n      swap3\n      swap2\n      pop\n      pop\n      jump\t// out\n\n    auxdata: 0xa2646970667358221220381ffdda56cec7d7e881755bd2f10d7b1719cab8d13b760693c1b3040f0e4b1564736f6c634300081e0033\n}\n",
				"bytecode": {
					"linkReferences": {},
					"object": "6080604052600a5f553480156012575f5ffd5b5061026d806100205f395ff3fe608060405234801561000f575f5ffd5b506004361061004a575f3560e01c8063486b72171461004e5780638381f58a1461006c578063a5f3c23b1461008a578063bd3e994e146100ba575b5f5ffd5b6100566100d6565b6040516100639190610119565b60405180910390f35b6100746100de565b6040516100819190610119565b60405180910390f35b6100a4600480360381019061009f9190610160565b6100e3565b6040516100b19190610119565b60405180910390f35b6100d460048036038101906100cf919061019e565b6100f8565b005b5f5f54905090565b5f5481565b5f81836100f091906101f6565b905092915050565b805f8190555050565b5f819050919050565b61011381610101565b82525050565b5f60208201905061012c5f83018461010a565b92915050565b5f5ffd5b61013f81610101565b8114610149575f5ffd5b50565b5f8135905061015a81610136565b92915050565b5f5f6040838503121561017657610175610132565b5b5f6101838582860161014c565b92505060206101948582860161014c565b9150509250929050565b5f602082840312156101b3576101b2610132565b5b5f6101c08482850161014c565b91505092915050565b7f4e487b71000000000000000000000000000000000000000000000000000000005f52601160045260245ffd5b5f61020082610101565b915061020b83610101565b92508282019050828112155f8312168382125f841215161715610231576102306101c9565b5b9291505056fea2646970667358221220381ffdda56cec7d7e881755bd2f10d7b1719cab8d13b760693c1b3040f0e4b1564736f6c634300081e0033",
					"opcodes": "PUSH1 0x80 PUSH1 0x40 MSTORE PUSH1 0xA PUSH0 SSTORE CALLVALUE DUP1 ISZERO PUSH1 0x12 JUMPI PUSH0 PUSH0 REVERT JUMPDEST POP PUSH2 0x26D DUP1 PUSH2 0x20 PUSH0 CODECOPY PUSH0 RETURN INVALID PUSH1 0x80 PUSH1 0x40 MSTORE CALLVALUE DUP1 ISZERO PUSH2 0xF JUMPI PUSH0 PUSH0 REVERT JUMPDEST POP PUSH1 0x4 CALLDATASIZE LT PUSH2 0x4A JUMPI PUSH0 CALLDATALOAD PUSH1 0xE0 SHR DUP1 PUSH4 0x486B7217 EQ PUSH2 0x4E JUMPI DUP1 PUSH4 0x8381F58A EQ PUSH2 0x6C JUMPI DUP1 PUSH4 0xA5F3C23B EQ PUSH2 0x8A JUMPI DUP1 PUSH4 0xBD3E994E EQ PUSH2 0xBA JUMPI JUMPDEST PUSH0 PUSH0 REVERT JUMPDEST PUSH2 0x56 PUSH2 0xD6 JUMP JUMPDEST PUSH1 0x40 MLOAD PUSH2 0x63 SWAP2 SWAP1 PUSH2 0x119 JUMP JUMPDEST PUSH1 0x40 MLOAD DUP1 SWAP2 SUB SWAP1 RETURN JUMPDEST PUSH2 0x74 PUSH2 0xDE JUMP JUMPDEST PUSH1 0x40 MLOAD PUSH2 0x81 SWAP2 SWAP1 PUSH2 0x119 JUMP JUMPDEST PUSH1 0x40 MLOAD DUP1 SWAP2 SUB SWAP1 RETURN JUMPDEST PUSH2 0xA4 PUSH1 0x4 DUP1 CALLDATASIZE SUB DUP2 ADD SWAP1 PUSH2 0x9F SWAP2 SWAP1 PUSH2 0x160 JUMP JUMPDEST PUSH2 0xE3 JUMP JUMPDEST PUSH1 0x40 MLOAD PUSH2 0xB1 SWAP2 SWAP1 PUSH2 0x119 JUMP JUMPDEST PUSH1 0x40 MLOAD DUP1 SWAP2 SUB SWAP1 RETURN JUMPDEST PUSH2 0xD4 PUSH1 0x4 DUP1 CALLDATASIZE SUB DUP2 ADD SWAP1 PUSH2 0xCF SWAP2 SWAP1 PUSH2 0x19E JUMP JUMPDEST PUSH2 0xF8 JUMP JUMPDEST STOP JUMPDEST PUSH0 PUSH0 SLOAD SWAP1 POP SWAP1 JUMP JUMPDEST PUSH0 SLOAD DUP2 JUMP JUMPDEST PUSH0 DUP2 DUP4 PUSH2 0xF0 SWAP2 SWAP1 PUSH2 0x1F6 JUMP JUMPDEST SWAP1 POP SWAP3 SWAP2 POP POP JUMP JUMPDEST DUP1 PUSH0 DUP2 SWAP1 SSTORE POP POP JUMP JUMPDEST PUSH0 DUP2 SWAP1 POP SWAP2 SWAP1 POP JUMP JUMPDEST PUSH2 0x113 DUP2 PUSH2 0x101 JUMP JUMPDEST DUP3 MSTORE POP POP JUMP JUMPDEST PUSH0 PUSH1 0x20 DUP3 ADD SWAP1 POP PUSH2 0x12C PUSH0 DUP4 ADD DUP5 PUSH2 0x10A JUMP JUMPDEST SWAP3 SWAP2 POP POP JUMP JUMPDEST PUSH0 PUSH0 REVERT JUMPDEST PUSH2 0x13F DUP2 PUSH2 0x101 JUMP JUMPDEST DUP2 EQ PUSH2 0x149 JUMPI PUSH0 PUSH0 REVERT JUMPDEST POP JUMP JUMPDEST PUSH0 DUP2 CALLDATALOAD SWAP1 POP PUSH2 0x15A DUP2 PUSH2 0x136 JUMP JUMPDEST SWAP3 SWAP2 POP POP JUMP JUMPDEST PUSH0 PUSH0 PUSH1 0x40 DUP4 DUP6 SUB SLT ISZERO PUSH2 0x176 JUMPI PUSH2 0x175 PUSH2 0x132 JUMP JUMPDEST JUMPDEST PUSH0 PUSH2 0x183 DUP6 DUP3 DUP7 ADD PUSH2 0x14C JUMP JUMPDEST SWAP3 POP POP PUSH1 0x20 PUSH2 0x194 DUP6 DUP3 DUP7 ADD PUSH2 0x14C JUMP JUMPDEST SWAP2 POP POP SWAP3 POP SWAP3 SWAP1 POP JUMP JUMPDEST PUSH0 PUSH1 0x20 DUP3 DUP5 SUB SLT ISZERO PUSH2 0x1B3 JUMPI PUSH2 0x1B2 PUSH2 0x132 JUMP JUMPDEST JUMPDEST PUSH0 PUSH2 0x1C0 DUP5 DUP3 DUP6 ADD PUSH2 0x14C JUMP JUMPDEST SWAP2 POP POP SWAP3 SWAP2 POP POP JUMP JUMPDEST PUSH32 0x4E487B7100000000000000000000000000000000000000000000000000000000 PUSH0 MSTORE PUSH1 0x11 PUSH1 0x4 MSTORE PUSH1 0x24 PUSH0 REVERT JUMPDEST PUSH0 PUSH2 0x200 DUP3 PUSH2 0x101 JUMP JUMPDEST SWAP2 POP PUSH2 0x20B DUP4 PUSH2 0x101 JUMP JUMPDEST SWAP3 POP DUP3 DUP3 ADD SWAP1 POP DUP3 DUP2 SLT ISZERO PUSH0 DUP4 SLT AND DUP4 DUP3 SLT PUSH0 DUP5 SLT ISZERO AND OR ISZERO PUSH2 0x231 JUMPI PUSH2 0x230 PUSH2 0x1C9 JUMP JUMPDEST JUMPDEST SWAP3 SWAP2 POP POP JUMP INVALID LOG2 PUSH5 0x6970667358 0x22 SLT KECCAK256 CODESIZE 0x1F REVERT 0xDA JUMP 0xCE 0xC7 0xD7 0xE8 DUP2 PUSH22 0x5BD2F10D7B1719CAB8D13B760693C1B3040F0E4B1564 PUSH20 0x6F6C634300081E00330000000000000000000000 "
				},
				"gasEstimates": {
					"creation": {
						"codeDepositCost": "124200",
						"executionCost": "22274",
						"totalCost": "146474"
					},
					"external": {
						"add(int256,int256)": "infinite",
						"getnumber()": "2409",
						"number()": "2424",
						"setnumber(int256)": "22558"
					}
				},
				"methodIdentifiers": {
					"add(int256,int256)": "a5f3c23b",
					"getnumber()": "486b7217",
					"number()": "8381f58a",
					"setnumber(int256)": "bd3e994e"
				}
			},
			"storageLayout": {
				"storage": [
					{
						"astId": 27,
						"contract": "tryit/function.sol:Behaviordemo",
						"label": "number",
						"offset": 0,
						"slot": "0",
						"type": "t_int256"
					}
				],
				"types": {
					"t_int256": {
						"encoding": "inplace",
						"label": "int256",
						"numberOfBytes": "32"
					}
				}
			},
			"userdoc": {
				"kind": "user",
				"methods": {},
				"version": 1
			}
		}
	}
}