{
	"ECR-20/feetoken.sol": {
		"FeeToken": {
			"abi": [
				{
					"inputs": [
						{
							"internalType": "string",
							"name": "_name",
							"type": "string"
						},
						{
							"internalType": "string",
							"name": "_symbol",
							"type": "string"
						},
						{
							"internalType": "uint8",
							"name": "_decimals",
							"type": "uint8"
						},
						{
							"internalType": "uint256",
							"name": "_initialSupply",
							"type": "uint256"
						},
						{
							"internalType": "address",
							"name": "_feeCollector",
							"type": "address"
						},
						{
							"internalType": "uint256",
							"name": "_transferFee",
							"type": "uint256"
						}
					],
					"stateMutability": "nonpayable",
					"type": "constructor"
				},
				{
					"inputs": [],
					"name": "InsufficientBalance",
					"type": "error"
				},
				{
					"inputs": [],
					"name": "InvalidFee",
					"type": "error"
				},
				{
					"inputs": [],
					"name": "ZeroAddress",
					"type": "error"
				},
				{
					"anonymous": false,
					"inputs": [
						{
							"indexed": true,
							"internalType": "address",
							"name": "owner",
							"type": "address"
						},
						{
							"indexed": true,
							"internalType": "address",
							"name": "spender",
							"type": "address"
						},
						{
							"indexed": false,
							"internalType": "uint256",
							"name": "value",
							"type": "uint256"
						}
					],
					"name": "Approval",
					"type": "event"
				},
				{
					"anonymous": false,
					"inputs": [
						{
							"indexed": true,
							"internalType": "address",
							"name": "from",
							"type": "address"
						},
						{
							"indexed": false,
							"internalType": "uint256",
							"name": "feeAmount",
							"type": "uint256"
						}
					],
					"name": "FeeCollected",
					"type": "event"
				},
				{
					"anonymous": false,
					"inputs": [
						{
							"indexed": true,
							"internalType": "address",
							"name": "from",
							"type": "address"
						},
						{
							"indexed": true,
							"internalType": "address",
							"name": "to",
							"type": "address"
						},
						{
							"indexed": false,
							"internalType": "uint256",
							"name": "value",
							"type": "uint256"
						}
					],
					"name": "Transfer",
					"type": "event"
				},
				{
					"inputs": [
						{
							"internalType": "address",
							"name": "owner",
							"type": "address"
						},
						{
							"internalType": "address",
							"name": "spender",
							"type": "address"
						}
					],
					"name": "allowance",
					"outputs": [
						{
							"internalType": "uint256",
							"name": "",
							"type": "uint256"
						}
					],
					"stateMutability": "view",
					"type": "function"
				},
				{
					"inputs": [
						{
							"internalType": "address",
							"name": "spender",
							"type": "address"
						},
						{
							"internalType": "uint256",
							"name": "amount",
							"type": "uint256"
						}
					],
					"name": "approve",
					"outputs": [
						{
							"internalType": "bool",
							"name": "",
							"type": "bool"
						}
					],
					"stateMutability": "nonpayable",
					"type": "function"
				},
				{
					"inputs": [
						{
							"internalType": "address",
							"name": "account",
							"type": "address"
						}
					],
					"name": "balanceOf",
					"outputs": [
						{
							"internalType": "uint256",
							"name": "",
							"type": "uint256"
						}
					],
					"stateMutability": "view",
					"type": "function"
				},
				{
					"inputs": [],
					"name": "decimals",
					"outputs": [
						{
							"internalType": "uint8",
							"name": "",
							"type": "uint8"
						}
					],
					"stateMutability": "view",
					"type": "function"
				},
				{
					"inputs": [],
					"name": "feeCollector",
					"outputs": [
						{
							"internalType": "address",
							"name": "",
							"type": "address"
						}
					],
					"stateMutability": "view",
					"type": "function"
				},
				{
					"inputs": [],
					"name": "name",
					"outputs": [
						{
							"internalType": "string",
							"name": "",
							"type": "string"
						}
					],
					"stateMutability": "view",
					"type": "function"
				},
				{
					"inputs": [],
					"name": "symbol",
					"outputs": [
						{
							"internalType": "string",
							"name": "",
							"type": "string"
						}
					],
					"stateMutability": "view",
					"type": "function"
				},
				{
					"inputs": [],
					"name": "totalSupply",
					"outputs": [
						{
							"internalType": "uint256",
							"name": "",
							"type": "uint256"
						}
					],
					"stateMutability": "view",
					"type": "function"
				},
				{
					"inputs": [
						{
							"internalType": "address",
							"name": "to",
							"type": "address"
						},
						{
							"internalType": "uint256",
							"name": "amount",
							"type": "uint256"
						}
					],
					"name": "transfer",
					"outputs": [
						{
							"internalType": "bool",
							"name": "",
							"type": "bool"
						}
					],
					"stateMutability": "nonpayable",
					"type": "function"
				},
				{
					"inputs": [],
					"name": "transferFee",
					"outputs": [
						{
							"internalType": "uint256",
							"name": "",
							"type": "uint256"
						}
					],
					"stateMutability": "view",
					"type": "function"
				},
				{
					"inputs": [
						{
							"internalType": "address",
							"name": "from",
							"type": "address"
						},
						{
							"internalType": "address",
							"name": "to",
							"type": "address"
						},
						{
							"internalType": "uint256",
							"name": "amount",
							"type": "uint256"
						}
					],
					"name": "transferFrom",
					"outputs": [
						{
							"internalType": "bool",
							"name": "",
							"type": "bool"
						}
					],
					"stateMutability": "nonpayable",
					"type": "function"
				},
				{
					"inputs": [
						{
							"internalType": "uint256",
							"name": "newFee",
							"type": "uint256"
						}
					],
					"name": "updateFee",
					"outputs": [],
					"stateMutability": "nonpayable",
					"type": "function"
				},
				{
					"inputs": [
						{
							"internalType": "address",
							"name": "newCollector",
							"type": "address"
						}
					],
					"name": "updateFeeCollector",
					"outputs": [],
					"stateMutability": "nonpayable",
					"type": "function"
				}
			],
			"devdoc": {
				"kind": "dev",
				"methods": {},
				"version": 1
			},
			"evm": {
				"assembly": "    /* \"ECR-20/feetoken.sol\":61:4634  contract FeeToken {... */\n  mstore(0x40, 0x80)\n    /* \"ECR-20/feetoken.sol\":1067:1687  constructor(... */\n  callvalue\n  dup1\n  iszero\n  tag_1\n  jumpi\n  revert(0x00, 0x00)\ntag_1:\n  pop\n  mload(0x40)\n  sub(codesize, bytecodeSize)\n  dup1\n  bytecodeSize\n  dup4\n  codecopy\n  dup2\n  dup2\n  add\n  0x40\n  mstore\n  dup2\n  add\n  swap1\n  tag_2\n  swap2\n  swap1\n  tag_3\n  jump\t// in\ntag_2:\n    /* \"ECR-20/feetoken.sol\":1288:1293  _name */\n  dup6\n    /* \"ECR-20/feetoken.sol\":1281:1285  name */\n  0x00\n    /* \"ECR-20/feetoken.sol\":1281:1293  name = _name */\n  swap1\n  dup2\n  tag_6\n  swap2\n  swap1\n  tag_7\n  jump\t// in\ntag_6:\n  pop\n    /* \"ECR-20/feetoken.sol\":1313:1320  _symbol */\n  dup5\n    /* \"ECR-20/feetoken.sol\":1304:1310  symbol */\n  0x01\n    /* \"ECR-20/feetoken.sol\":1304:1320  symbol = _symbol */\n  swap1\n  dup2\n  tag_8\n  swap2\n  swap1\n  tag_7\n  jump\t// in\ntag_8:\n  pop\n    /* \"ECR-20/feetoken.sol\":1342:1351  _decimals */\n  dup4\n    /* \"ECR-20/feetoken.sol\":1331:1339  decimals */\n  0x02\n  0x00\n    /* \"ECR-20/feetoken.sol\":1331:1351  decimals = _decimals */\n  0x0100\n  exp\n  dup2\n  sload\n  dup2\n  0xff\n  mul\n  not\n  and\n  swap1\n  dup4\n  0xff\n  and\n  mul\n  or\n  swap1\n  sstore\n  pop\n    /* \"ECR-20/feetoken.sol\":1397:1406  _decimals */\n  dup4\n    /* \"ECR-20/feetoken.sol\":1393:1395  10 */\n  0x0a\n    /* \"ECR-20/feetoken.sol\":1393:1406  10**_decimals */\n  tag_9\n  swap2\n  swap1\n  tag_10\n  jump\t// in\ntag_9:\n    /* \"ECR-20/feetoken.sol\":1376:1390  _initialSupply */\n  dup4\n    /* \"ECR-20/feetoken.sol\":1376:1406  _initialSupply * 10**_decimals */\n  tag_11\n  swap2\n  swap1\n  tag_12\n  jump\t// in\ntag_11:\n    /* \"ECR-20/feetoken.sol\":1362:1373  totalSupply */\n  0x03\n    /* \"ECR-20/feetoken.sol\":1362:1406  totalSupply = _initialSupply * 10**_decimals */\n  dup2\n  swap1\n  sstore\n  pop\n    /* \"ECR-20/feetoken.sol\":1432:1445  _feeCollector */\n  dup2\n    /* \"ECR-20/feetoken.sol\":1417:1429  feeCollector */\n  0x06\n  0x00\n    /* \"ECR-20/feetoken.sol\":1417:1445  feeCollector = _feeCollector */\n  0x0100\n  exp\n  dup2\n  sload\n  dup2\n  0xffffffffffffffffffffffffffffffffffffffff\n  mul\n  not\n  and\n  swap1\n  dup4\n  0xffffffffffffffffffffffffffffffffffffffff\n  and\n  mul\n  or\n  swap1\n  sstore\n  pop\n    /* \"ECR-20/feetoken.sol\":1485:1489  1000 */\n  0x03e8\n    /* \"ECR-20/feetoken.sol\":1470:1482  _transferFee */\n  dup2\n    /* \"ECR-20/feetoken.sol\":1470:1489  _transferFee > 1000 */\n  gt\n    /* \"ECR-20/feetoken.sol\":1466:1510  if (_transferFee > 1000) revert InvalidFee() */\n  iszero\n  tag_13\n  jumpi\n    /* \"ECR-20/feetoken.sol\":1498:1510  InvalidFee() */\n  mload(0x40)\n  0x58d620b300000000000000000000000000000000000000000000000000000000\n  dup2\n  mstore\n  0x04\n  add\n  mload(0x40)\n  dup1\n  swap2\n  sub\n  swap1\n  revert\n    /* \"ECR-20/feetoken.sol\":1466:1510  if (_transferFee > 1000) revert InvalidFee() */\ntag_13:\n    /* \"ECR-20/feetoken.sol\":1550:1562  _transferFee */\n  dup1\n    /* \"ECR-20/feetoken.sol\":1536:1547  transferFee */\n  0x07\n    /* \"ECR-20/feetoken.sol\":1536:1562  transferFee = _transferFee */\n  dup2\n  swap1\n  sstore\n  pop\n    /* \"ECR-20/feetoken.sol\":1607:1618  totalSupply */\n  sload(0x03)\n    /* \"ECR-20/feetoken.sol\":1583:1592  _balances */\n  0x04\n    /* \"ECR-20/feetoken.sol\":1583:1604  _balances[msg.sender] */\n  0x00\n    /* \"ECR-20/feetoken.sol\":1593:1603  msg.sender */\n  caller\n    /* \"ECR-20/feetoken.sol\":1583:1604  _balances[msg.sender] */\n  0xffffffffffffffffffffffffffffffffffffffff\n  and\n  0xffffffffffffffffffffffffffffffffffffffff\n  and\n  dup2\n  mstore\n  0x20\n  add\n  swap1\n  dup2\n  mstore\n  0x20\n  add\n  0x00\n  keccak256\n    /* \"ECR-20/feetoken.sol\":1583:1618  _balances[msg.sender] = totalSupply */\n  dup2\n  swap1\n  sstore\n  pop\n    /* \"ECR-20/feetoken.sol\":1655:1665  msg.sender */\n  caller\n    /* \"ECR-20/feetoken.sol\":1634:1679  Transfer(address(0), msg.sender, totalSupply) */\n  0xffffffffffffffffffffffffffffffffffffffff\n  and\n    /* \"ECR-20/feetoken.sol\":1651:1652  0 */\n  0x00\n    /* \"ECR-20/feetoken.sol\":1634:1679  Transfer(address(0), msg.sender, totalSupply) */\n  0xffffffffffffffffffffffffffffffffffffffff\n  and\n  0xddf252ad1be2c89b69c2b068fc378daa952ba7f163c4a11628f55a4df523b3ef\n    /* \"ECR-20/feetoken.sol\":1667:1678  totalSupply */\n  sload(0x03)\n    /* \"ECR-20/feetoken.sol\":1634:1679  Transfer(address(0), msg.sender, totalSupply) */\n  mload(0x40)\n  tag_14\n  swap2\n  swap1\n  tag_15\n  jump\t// in\ntag_14:\n  mload(0x40)\n  dup1\n  swap2\n  sub\n  swap1\n  log3\n    /* \"ECR-20/feetoken.sol\":1067:1687  constructor(... */\n  pop\n  pop\n  pop\n  pop\n  pop\n  pop\n    /* \"ECR-20/feetoken.sol\":61:4634  contract FeeToken {... */\n  jump(tag_16)\n    /* \"#utility.yul\":7:82   */\ntag_17:\n    /* \"#utility.yul\":40:46   */\n  0x00\n    /* \"#utility.yul\":73:75   */\n  0x40\n    /* \"#utility.yul\":67:76   */\n  mload\n    /* \"#utility.yul\":57:76   */\n  swap1\n  pop\n    /* \"#utility.yul\":7:82   */\n  swap1\n  jump\t// out\n    /* \"#utility.yul\":88:205   */\ntag_18:\n    /* \"#utility.yul\":197:198   */\n  0x00\n    /* \"#utility.yul\":194:195   */\n  0x00\n    /* \"#utility.yul\":187:199   */\n  revert\n    /* \"#utility.yul\":211:328   */\ntag_19:\n    /* \"#utility.yul\":320:321   */\n  0x00\n    /* \"#utility.yul\":317:318   */\n  0x00\n    /* \"#utility.yul\":310:322   */\n  revert\n    /* \"#utility.yul\":334:451   */\ntag_20:\n    /* \"#utility.yul\":443:444   */\n  0x00\n    /* \"#utility.yul\":440:441   */\n  0x00\n    /* \"#utility.yul\":433:445   */\n  revert\n    /* \"#utility.yul\":457:574   */\ntag_21:\n    /* \"#utility.yul\":566:567   */\n  0x00\n    /* \"#utility.yul\":563:564   */\n  0x00\n    /* \"#utility.yul\":556:568   */\n  revert\n    /* \"#utility.yul\":580:682   */\ntag_22:\n    /* \"#utility.yul\":621:627   */\n  0x00\n    /* \"#utility.yul\":672:674   */\n  0x1f\n    /* \"#utility.yul\":668:675   */\n  not\n    /* \"#utility.yul\":663:665   */\n  0x1f\n    /* \"#utility.yul\":656:661   */\n  dup4\n    /* \"#utility.yul\":652:666   */\n  add\n    /* \"#utility.yul\":648:676   */\n  and\n    /* \"#utility.yul\":638:676   */\n  swap1\n  pop\n    /* \"#utility.yul\":580:682   */\n  swap2\n  swap1\n  pop\n  jump\t// out\n    /* \"#utility.yul\":688:868   */\ntag_23:\n    /* \"#utility.yul\":736:813   */\n  0x4e487b7100000000000000000000000000000000000000000000000000000000\n    /* \"#utility.yul\":733:734   */\n  0x00\n    /* \"#utility.yul\":726:814   */\n  mstore\n    /* \"#utility.yul\":833:837   */\n  0x41\n    /* \"#utility.yul\":830:831   */\n  0x04\n    /* \"#utility.yul\":823:838   */\n  mstore\n    /* \"#utility.yul\":857:861   */\n  0x24\n    /* \"#utility.yul\":854:855   */\n  0x00\n    /* \"#utility.yul\":847:862   */\n  revert\n    /* \"#utility.yul\":874:1155   */\ntag_24:\n    /* \"#utility.yul\":957:984   */\n  tag_72\n    /* \"#utility.yul\":979:983   */\n  dup3\n    /* \"#utility.yul\":957:984   */\n  tag_22\n  jump\t// in\ntag_72:\n    /* \"#utility.yul\":949:955   */\n  dup2\n    /* \"#utility.yul\":945:985   */\n  add\n    /* \"#utility.yul\":1087:1093   */\n  dup2\n    /* \"#utility.yul\":1075:1085   */\n  dup2\n    /* \"#utility.yul\":1072:1094   */\n  lt\n    /* \"#utility.yul\":1051:1069   */\n  0xffffffffffffffff\n    /* \"#utility.yul\":1039:1049   */\n  dup3\n    /* \"#utility.yul\":1036:1070   */\n  gt\n    /* \"#utility.yul\":1033:1095   */\n  or\n    /* \"#utility.yul\":1030:1118   */\n  iszero\n  tag_73\n  jumpi\n    /* \"#utility.yul\":1098:1116   */\n  tag_74\n  tag_23\n  jump\t// in\ntag_74:\n    /* \"#utility.yul\":1030:1118   */\ntag_73:\n    /* \"#utility.yul\":1138:1148   */\n  dup1\n    /* \"#utility.yul\":1134:1136   */\n  0x40\n    /* \"#utility.yul\":1127:1149   */\n  mstore\n    /* \"#utility.yul\":917:1155   */\n  pop\n    /* \"#utility.yul\":874:1155   */\n  pop\n  pop\n  jump\t// out\n    /* \"#utility.yul\":1161:1290   */\ntag_25:\n    /* \"#utility.yul\":1195:1201   */\n  0x00\n    /* \"#utility.yul\":1222:1242   */\n  tag_76\n  tag_17\n  jump\t// in\ntag_76:\n    /* \"#utility.yul\":1212:1242   */\n  swap1\n  pop\n    /* \"#utility.yul\":1251:1284   */\n  tag_77\n    /* \"#utility.yul\":1279:1283   */\n  dup3\n    /* \"#utility.yul\":1271:1277   */\n  dup3\n    /* \"#utility.yul\":1251:1284   */\n  tag_24\n  jump\t// in\ntag_77:\n    /* \"#utility.yul\":1161:1290   */\n  swap2\n  swap1\n  pop\n  jump\t// out\n    /* \"#utility.yul\":1296:1604   */\ntag_26:\n    /* \"#utility.yul\":1358:1362   */\n  0x00\n    /* \"#utility.yul\":1448:1466   */\n  0xffffffffffffffff\n    /* \"#utility.yul\":1440:1446   */\n  dup3\n    /* \"#utility.yul\":1437:1467   */\n  gt\n    /* \"#utility.yul\":1434:1490   */\n  iszero\n  tag_79\n  jumpi\n    /* \"#utility.yul\":1470:1488   */\n  tag_80\n  tag_23\n  jump\t// in\ntag_80:\n    /* \"#utility.yul\":1434:1490   */\ntag_79:\n    /* \"#utility.yul\":1508:1537   */\n  tag_81\n    /* \"#utility.yul\":1530:1536   */\n  dup3\n    /* \"#utility.yul\":1508:1537   */\n  tag_22\n  jump\t// in\ntag_81:\n    /* \"#utility.yul\":1500:1537   */\n  swap1\n  pop\n    /* \"#utility.yul\":1592:1596   */\n  0x20\n    /* \"#utility.yul\":1586:1590   */\n  dup2\n    /* \"#utility.yul\":1582:1597   */\n  add\n    /* \"#utility.yul\":1574:1597   */\n  swap1\n  pop\n    /* \"#utility.yul\":1296:1604   */\n  swap2\n  swap1\n  pop\n  jump\t// out\n    /* \"#utility.yul\":1610:1749   */\ntag_27:\n    /* \"#utility.yul\":1699:1705   */\n  dup3\n    /* \"#utility.yul\":1694:1697   */\n  dup2\n    /* \"#utility.yul\":1689:1692   */\n  dup4\n    /* \"#utility.yul\":1683:1706   */\n  mcopy\n    /* \"#utility.yul\":1740:1741   */\n  0x00\n    /* \"#utility.yul\":1731:1737   */\n  dup4\n    /* \"#utility.yul\":1726:1729   */\n  dup4\n    /* \"#utility.yul\":1722:1738   */\n  add\n    /* \"#utility.yul\":1715:1742   */\n  mstore\n    /* \"#utility.yul\":1610:1749   */\n  pop\n  pop\n  pop\n  jump\t// out\n    /* \"#utility.yul\":1755:2189   */\ntag_28:\n    /* \"#utility.yul\":1844:1849   */\n  0x00\n    /* \"#utility.yul\":1869:1935   */\n  tag_84\n    /* \"#utility.yul\":1885:1934   */\n  tag_85\n    /* \"#utility.yul\":1927:1933   */\n  dup5\n    /* \"#utility.yul\":1885:1934   */\n  tag_26\n  jump\t// in\ntag_85:\n    /* \"#utility.yul\":1869:1935   */\n  tag_25\n  jump\t// in\ntag_84:\n    /* \"#utility.yul\":1860:1935   */\n  swap1\n  pop\n    /* \"#utility.yul\":1958:1964   */\n  dup3\n    /* \"#utility.yul\":1951:1956   */\n  dup2\n    /* \"#utility.yul\":1944:1965   */\n  mstore\n    /* \"#utility.yul\":1996:2000   */\n  0x20\n    /* \"#utility.yul\":1989:1994   */\n  dup2\n    /* \"#utility.yul\":1985:2001   */\n  add\n    /* \"#utility.yul\":2034:2037   */\n  dup5\n    /* \"#utility.yul\":2025:2031   */\n  dup5\n    /* \"#utility.yul\":2020:2023   */\n  dup5\n    /* \"#utility.yul\":2016:2032   */\n  add\n    /* \"#utility.yul\":2013:2038   */\n  gt\n    /* \"#utility.yul\":2010:2122   */\n  iszero\n  tag_86\n  jumpi\n    /* \"#utility.yul\":2041:2120   */\n  tag_87\n  tag_21\n  jump\t// in\ntag_87:\n    /* \"#utility.yul\":2010:2122   */\ntag_86:\n    /* \"#utility.yul\":2131:2183   */\n  tag_88\n    /* \"#utility.yul\":2176:2182   */\n  dup5\n    /* \"#utility.yul\":2171:2174   */\n  dup3\n    /* \"#utility.yul\":2166:2169   */\n  dup6\n    /* \"#utility.yul\":2131:2183   */\n  tag_27\n  jump\t// in\ntag_88:\n    /* \"#utility.yul\":1850:2189   */\n  pop\n    /* \"#utility.yul\":1755:2189   */\n  swap4\n  swap3\n  pop\n  pop\n  pop\n  jump\t// out\n    /* \"#utility.yul\":2209:2564   */\ntag_29:\n    /* \"#utility.yul\":2276:2281   */\n  0x00\n    /* \"#utility.yul\":2325:2328   */\n  dup3\n    /* \"#utility.yul\":2318:2322   */\n  0x1f\n    /* \"#utility.yul\":2310:2316   */\n  dup4\n    /* \"#utility.yul\":2306:2323   */\n  add\n    /* \"#utility.yul\":2302:2329   */\n  slt\n    /* \"#utility.yul\":2292:2414   */\n  tag_90\n  jumpi\n    /* \"#utility.yul\":2333:2412   */\n  tag_91\n  tag_20\n  jump\t// in\ntag_91:\n    /* \"#utility.yul\":2292:2414   */\ntag_90:\n    /* \"#utility.yul\":2443:2449   */\n  dup2\n    /* \"#utility.yul\":2437:2450   */\n  mload\n    /* \"#utility.yul\":2468:2558   */\n  tag_92\n    /* \"#utility.yul\":2554:2557   */\n  dup5\n    /* \"#utility.yul\":2546:2552   */\n  dup3\n    /* \"#utility.yul\":2539:2543   */\n  0x20\n    /* \"#utility.yul\":2531:2537   */\n  dup7\n    /* \"#utility.yul\":2527:2544   */\n  add\n    /* \"#utility.yul\":2468:2558   */\n  tag_28\n  jump\t// in\ntag_92:\n    /* \"#utility.yul\":2459:2558   */\n  swap2\n  pop\n    /* \"#utility.yul\":2282:2564   */\n  pop\n    /* \"#utility.yul\":2209:2564   */\n  swap3\n  swap2\n  pop\n  pop\n  jump\t// out\n    /* \"#utility.yul\":2570:2656   */\ntag_30:\n    /* \"#utility.yul\":2605:2612   */\n  0x00\n    /* \"#utility.yul\":2645:2649   */\n  0xff\n    /* \"#utility.yul\":2638:2643   */\n  dup3\n    /* \"#utility.yul\":2634:2650   */\n  and\n    /* \"#utility.yul\":2623:2650   */\n  swap1\n  pop\n    /* \"#utility.yul\":2570:2656   */\n  swap2\n  swap1\n  pop\n  jump\t// out\n    /* \"#utility.yul\":2662:2780   */\ntag_31:\n    /* \"#utility.yul\":2733:2755   */\n  tag_95\n    /* \"#utility.yul\":2749:2754   */\n  dup2\n    /* \"#utility.yul\":2733:2755   */\n  tag_30\n  jump\t// in\ntag_95:\n    /* \"#utility.yul\":2726:2731   */\n  dup2\n    /* \"#utility.yul\":2723:2756   */\n  eq\n    /* \"#utility.yul\":2713:2774   */\n  tag_96\n  jumpi\n    /* \"#utility.yul\":2770:2771   */\n  0x00\n    /* \"#utility.yul\":2767:2768   */\n  0x00\n    /* \"#utility.yul\":2760:2772   */\n  revert\n    /* \"#utility.yul\":2713:2774   */\ntag_96:\n    /* \"#utility.yul\":2662:2780   */\n  pop\n  jump\t// out\n    /* \"#utility.yul\":2786:2925   */\ntag_32:\n    /* \"#utility.yul\":2841:2846   */\n  0x00\n    /* \"#utility.yul\":2872:2878   */\n  dup2\n    /* \"#utility.yul\":2866:2879   */\n  mload\n    /* \"#utility.yul\":2857:2879   */\n  swap1\n  pop\n    /* \"#utility.yul\":2888:2919   */\n  tag_98\n    /* \"#utility.yul\":2913:2918   */\n  dup2\n    /* \"#utility.yul\":2888:2919   */\n  tag_31\n  jump\t// in\ntag_98:\n    /* \"#utility.yul\":2786:2925   */\n  swap3\n  swap2\n  pop\n  pop\n  jump\t// out\n    /* \"#utility.yul\":2931:3008   */\ntag_33:\n    /* \"#utility.yul\":2968:2975   */\n  0x00\n    /* \"#utility.yul\":2997:3002   */\n  dup2\n    /* \"#utility.yul\":2986:3002   */\n  swap1\n  pop\n    /* \"#utility.yul\":2931:3008   */\n  swap2\n  swap1\n  pop\n  jump\t// out\n    /* \"#utility.yul\":3014:3136   */\ntag_34:\n    /* \"#utility.yul\":3087:3111   */\n  tag_101\n    /* \"#utility.yul\":3105:3110   */\n  dup2\n    /* \"#utility.yul\":3087:3111   */\n  tag_33\n  jump\t// in\ntag_101:\n    /* \"#utility.yul\":3080:3085   */\n  dup2\n    /* \"#utility.yul\":3077:3112   */\n  eq\n    /* \"#utility.yul\":3067:3130   */\n  tag_102\n  jumpi\n    /* \"#utility.yul\":3126:3127   */\n  0x00\n    /* \"#utility.yul\":3123:3124   */\n  0x00\n    /* \"#utility.yul\":3116:3128   */\n  revert\n    /* \"#utility.yul\":3067:3130   */\ntag_102:\n    /* \"#utility.yul\":3014:3136   */\n  pop\n  jump\t// out\n    /* \"#utility.yul\":3142:3285   */\ntag_35:\n    /* \"#utility.yul\":3199:3204   */\n  0x00\n    /* \"#utility.yul\":3230:3236   */\n  dup2\n    /* \"#utility.yul\":3224:3237   */\n  mload\n    /* \"#utility.yul\":3215:3237   */\n  swap1\n  pop\n    /* \"#utility.yul\":3246:3279   */\n  tag_104\n    /* \"#utility.yul\":3273:3278   */\n  dup2\n    /* \"#utility.yul\":3246:3279   */\n  tag_34\n  jump\t// in\ntag_104:\n    /* \"#utility.yul\":3142:3285   */\n  swap3\n  swap2\n  pop\n  pop\n  jump\t// out\n    /* \"#utility.yul\":3291:3417   */\ntag_36:\n    /* \"#utility.yul\":3328:3335   */\n  0x00\n    /* \"#utility.yul\":3368:3410   */\n  0xffffffffffffffffffffffffffffffffffffffff\n    /* \"#utility.yul\":3361:3366   */\n  dup3\n    /* \"#utility.yul\":3357:3411   */\n  and\n    /* \"#utility.yul\":3346:3411   */\n  swap1\n  pop\n    /* \"#utility.yul\":3291:3417   */\n  swap2\n  swap1\n  pop\n  jump\t// out\n    /* \"#utility.yul\":3423:3519   */\ntag_37:\n    /* \"#utility.yul\":3460:3467   */\n  0x00\n    /* \"#utility.yul\":3489:3513   */\n  tag_107\n    /* \"#utility.yul\":3507:3512   */\n  dup3\n    /* \"#utility.yul\":3489:3513   */\n  tag_36\n  jump\t// in\ntag_107:\n    /* \"#utility.yul\":3478:3513   */\n  swap1\n  pop\n    /* \"#utility.yul\":3423:3519   */\n  swap2\n  swap1\n  pop\n  jump\t// out\n    /* \"#utility.yul\":3525:3647   */\ntag_38:\n    /* \"#utility.yul\":3598:3622   */\n  tag_109\n    /* \"#utility.yul\":3616:3621   */\n  dup2\n    /* \"#utility.yul\":3598:3622   */\n  tag_37\n  jump\t// in\ntag_109:\n    /* \"#utility.yul\":3591:3596   */\n  dup2\n    /* \"#utility.yul\":3588:3623   */\n  eq\n    /* \"#utility.yul\":3578:3641   */\n  tag_110\n  jumpi\n    /* \"#utility.yul\":3637:3638   */\n  0x00\n    /* \"#utility.yul\":3634:3635   */\n  0x00\n    /* \"#utility.yul\":3627:3639   */\n  revert\n    /* \"#utility.yul\":3578:3641   */\ntag_110:\n    /* \"#utility.yul\":3525:3647   */\n  pop\n  jump\t// out\n    /* \"#utility.yul\":3653:3796   */\ntag_39:\n    /* \"#utility.yul\":3710:3715   */\n  0x00\n    /* \"#utility.yul\":3741:3747   */\n  dup2\n    /* \"#utility.yul\":3735:3748   */\n  mload\n    /* \"#utility.yul\":3726:3748   */\n  swap1\n  pop\n    /* \"#utility.yul\":3757:3790   */\n  tag_112\n    /* \"#utility.yul\":3784:3789   */\n  dup2\n    /* \"#utility.yul\":3757:3790   */\n  tag_38\n  jump\t// in\ntag_112:\n    /* \"#utility.yul\":3653:3796   */\n  swap3\n  swap2\n  pop\n  pop\n  jump\t// out\n    /* \"#utility.yul\":3802:5278   */\ntag_3:\n    /* \"#utility.yul\":3935:3941   */\n  0x00\n    /* \"#utility.yul\":3943:3949   */\n  0x00\n    /* \"#utility.yul\":3951:3957   */\n  0x00\n    /* \"#utility.yul\":3959:3965   */\n  0x00\n    /* \"#utility.yul\":3967:3973   */\n  0x00\n    /* \"#utility.yul\":3975:3981   */\n  0x00\n    /* \"#utility.yul\":4024:4027   */\n  0xc0\n    /* \"#utility.yul\":4012:4021   */\n  dup8\n    /* \"#utility.yul\":4003:4010   */\n  dup10\n    /* \"#utility.yul\":3999:4022   */\n  sub\n    /* \"#utility.yul\":3995:4028   */\n  slt\n    /* \"#utility.yul\":3992:4112   */\n  iszero\n  tag_114\n  jumpi\n    /* \"#utility.yul\":4031:4110   */\n  tag_115\n  tag_18\n  jump\t// in\ntag_115:\n    /* \"#utility.yul\":3992:4112   */\ntag_114:\n    /* \"#utility.yul\":4172:4173   */\n  0x00\n    /* \"#utility.yul\":4161:4170   */\n  dup8\n    /* \"#utility.yul\":4157:4174   */\n  add\n    /* \"#utility.yul\":4151:4175   */\n  mload\n    /* \"#utility.yul\":4202:4220   */\n  0xffffffffffffffff\n    /* \"#utility.yul\":4194:4200   */\n  dup2\n    /* \"#utility.yul\":4191:4221   */\n  gt\n    /* \"#utility.yul\":4188:4305   */\n  iszero\n  tag_116\n  jumpi\n    /* \"#utility.yul\":4224:4303   */\n  tag_117\n  tag_19\n  jump\t// in\ntag_117:\n    /* \"#utility.yul\":4188:4305   */\ntag_116:\n    /* \"#utility.yul\":4329:4403   */\n  tag_118\n    /* \"#utility.yul\":4395:4402   */\n  dup10\n    /* \"#utility.yul\":4386:4392   */\n  dup3\n    /* \"#utility.yul\":4375:4384   */\n  dup11\n    /* \"#utility.yul\":4371:4393   */\n  add\n    /* \"#utility.yul\":4329:4403   */\n  tag_29\n  jump\t// in\ntag_118:\n    /* \"#utility.yul\":4319:4403   */\n  swap7\n  pop\n    /* \"#utility.yul\":4122:4413   */\n  pop\n    /* \"#utility.yul\":4473:4475   */\n  0x20\n    /* \"#utility.yul\":4462:4471   */\n  dup8\n    /* \"#utility.yul\":4458:4476   */\n  add\n    /* \"#utility.yul\":4452:4477   */\n  mload\n    /* \"#utility.yul\":4504:4522   */\n  0xffffffffffffffff\n    /* \"#utility.yul\":4496:4502   */\n  dup2\n    /* \"#utility.yul\":4493:4523   */\n  gt\n    /* \"#utility.yul\":4490:4607   */\n  iszero\n  tag_119\n  jumpi\n    /* \"#utility.yul\":4526:4605   */\n  tag_120\n  tag_19\n  jump\t// in\ntag_120:\n    /* \"#utility.yul\":4490:4607   */\ntag_119:\n    /* \"#utility.yul\":4631:4705   */\n  tag_121\n    /* \"#utility.yul\":4697:4704   */\n  dup10\n    /* \"#utility.yul\":4688:4694   */\n  dup3\n    /* \"#utility.yul\":4677:4686   */\n  dup11\n    /* \"#utility.yul\":4673:4695   */\n  add\n    /* \"#utility.yul\":4631:4705   */\n  tag_29\n  jump\t// in\ntag_121:\n    /* \"#utility.yul\":4621:4705   */\n  swap6\n  pop\n    /* \"#utility.yul\":4423:4715   */\n  pop\n    /* \"#utility.yul\":4754:4756   */\n  0x40\n    /* \"#utility.yul\":4780:4842   */\n  tag_122\n    /* \"#utility.yul\":4834:4841   */\n  dup10\n    /* \"#utility.yul\":4825:4831   */\n  dup3\n    /* \"#utility.yul\":4814:4823   */\n  dup11\n    /* \"#utility.yul\":4810:4832   */\n  add\n    /* \"#utility.yul\":4780:4842   */\n  tag_32\n  jump\t// in\ntag_122:\n    /* \"#utility.yul\":4770:4842   */\n  swap5\n  pop\n    /* \"#utility.yul\":4725:4852   */\n  pop\n    /* \"#utility.yul\":4891:4893   */\n  0x60\n    /* \"#utility.yul\":4917:4981   */\n  tag_123\n    /* \"#utility.yul\":4973:4980   */\n  dup10\n    /* \"#utility.yul\":4964:4970   */\n  dup3\n    /* \"#utility.yul\":4953:4962   */\n  dup11\n    /* \"#utility.yul\":4949:4971   */\n  add\n    /* \"#utility.yul\":4917:4981   */\n  tag_35\n  jump\t// in\ntag_123:\n    /* \"#utility.yul\":4907:4981   */\n  swap4\n  pop\n    /* \"#utility.yul\":4862:4991   */\n  pop\n    /* \"#utility.yul\":5030:5033   */\n  0x80\n    /* \"#utility.yul\":5057:5121   */\n  tag_124\n    /* \"#utility.yul\":5113:5120   */\n  dup10\n    /* \"#utility.yul\":5104:5110   */\n  dup3\n    /* \"#utility.yul\":5093:5102   */\n  dup11\n    /* \"#utility.yul\":5089:5111   */\n  add\n    /* \"#utility.yul\":5057:5121   */\n  tag_39\n  jump\t// in\ntag_124:\n    /* \"#utility.yul\":5047:5121   */\n  swap3\n  pop\n    /* \"#utility.yul\":5001:5131   */\n  pop\n    /* \"#utility.yul\":5170:5173   */\n  0xa0\n    /* \"#utility.yul\":5197:5261   */\n  tag_125\n    /* \"#utility.yul\":5253:5260   */\n  dup10\n    /* \"#utility.yul\":5244:5250   */\n  dup3\n    /* \"#utility.yul\":5233:5242   */\n  dup11\n    /* \"#utility.yul\":5229:5251   */\n  add\n    /* \"#utility.yul\":5197:5261   */\n  tag_35\n  jump\t// in\ntag_125:\n    /* \"#utility.yul\":5187:5261   */\n  swap2\n  pop\n    /* \"#utility.yul\":5141:5271   */\n  pop\n    /* \"#utility.yul\":3802:5278   */\n  swap3\n  swap6\n  pop\n  swap3\n  swap6\n  pop\n  swap3\n  swap6\n  jump\t// out\n    /* \"#utility.yul\":5284:5383   */\ntag_40:\n    /* \"#utility.yul\":5336:5342   */\n  0x00\n    /* \"#utility.yul\":5370:5375   */\n  dup2\n    /* \"#utility.yul\":5364:5376   */\n  mload\n    /* \"#utility.yul\":5354:5376   */\n  swap1\n  pop\n    /* \"#utility.yul\":5284:5383   */\n  swap2\n  swap1\n  pop\n  jump\t// out\n    /* \"#utility.yul\":5389:5569   */\ntag_41:\n    /* \"#utility.yul\":5437:5514   */\n  0x4e487b7100000000000000000000000000000000000000000000000000000000\n    /* \"#utility.yul\":5434:5435   */\n  0x00\n    /* \"#utility.yul\":5427:5515   */\n  mstore\n    /* \"#utility.yul\":5534:5538   */\n  0x22\n    /* \"#utility.yul\":5531:5532   */\n  0x04\n    /* \"#utility.yul\":5524:5539   */\n  mstore\n    /* \"#utility.yul\":5558:5562   */\n  0x24\n    /* \"#utility.yul\":5555:5556   */\n  0x00\n    /* \"#utility.yul\":5548:5563   */\n  revert\n    /* \"#utility.yul\":5575:5895   */\ntag_42:\n    /* \"#utility.yul\":5619:5625   */\n  0x00\n    /* \"#utility.yul\":5656:5657   */\n  0x02\n    /* \"#utility.yul\":5650:5654   */\n  dup3\n    /* \"#utility.yul\":5646:5658   */\n  div\n    /* \"#utility.yul\":5636:5658   */\n  swap1\n  pop\n    /* \"#utility.yul\":5703:5704   */\n  0x01\n    /* \"#utility.yul\":5697:5701   */\n  dup3\n    /* \"#utility.yul\":5693:5705   */\n  and\n    /* \"#utility.yul\":5724:5742   */\n  dup1\n    /* \"#utility.yul\":5714:5795   */\n  tag_129\n  jumpi\n    /* \"#utility.yul\":5780:5784   */\n  0x7f\n    /* \"#utility.yul\":5772:5778   */\n  dup3\n    /* \"#utility.yul\":5768:5785   */\n  and\n    /* \"#utility.yul\":5758:5785   */\n  swap2\n  pop\n    /* \"#utility.yul\":5714:5795   */\ntag_129:\n    /* \"#utility.yul\":5842:5844   */\n  0x20\n    /* \"#utility.yul\":5834:5840   */\n  dup3\n    /* \"#utility.yul\":5831:5845   */\n  lt\n    /* \"#utility.yul\":5811:5829   */\n  dup2\n    /* \"#utility.yul\":5808:5846   */\n  sub\n    /* \"#utility.yul\":5805:5889   */\n  tag_130\n  jumpi\n    /* \"#utility.yul\":5861:5879   */\n  tag_131\n  tag_41\n  jump\t// in\ntag_131:\n    /* \"#utility.yul\":5805:5889   */\ntag_130:\n    /* \"#utility.yul\":5626:5895   */\n  pop\n    /* \"#utility.yul\":5575:5895   */\n  swap2\n  swap1\n  pop\n  jump\t// out\n    /* \"#utility.yul\":5901:6042   */\ntag_43:\n    /* \"#utility.yul\":5950:5954   */\n  0x00\n    /* \"#utility.yul\":5973:5976   */\n  dup2\n    /* \"#utility.yul\":5965:5976   */\n  swap1\n  pop\n    /* \"#utility.yul\":5996:5999   */\n  dup2\n    /* \"#utility.yul\":5993:5994   */\n  0x00\n    /* \"#utility.yul\":5986:6000   */\n  mstore\n    /* \"#utility.yul\":6030:6034   */\n  0x20\n    /* \"#utility.yul\":6027:6028   */\n  0x00\n    /* \"#utility.yul\":6017:6035   */\n  keccak256\n    /* \"#utility.yul\":6009:6035   */\n  swap1\n  pop\n    /* \"#utility.yul\":5901:6042   */\n  swap2\n  swap1\n  pop\n  jump\t// out\n    /* \"#utility.yul\":6048:6141   */\ntag_44:\n    /* \"#utility.yul\":6085:6091   */\n  0x00\n    /* \"#utility.yul\":6132:6134   */\n  0x20\n    /* \"#utility.yul\":6127:6129   */\n  0x1f\n    /* \"#utility.yul\":6120:6125   */\n  dup4\n    /* \"#utility.yul\":6116:6130   */\n  add\n    /* \"#utility.yul\":6112:6135   */\n  div\n    /* \"#utility.yul\":6102:6135   */\n  swap1\n  pop\n    /* \"#utility.yul\":6048:6141   */\n  swap2\n  swap1\n  pop\n  jump\t// out\n    /* \"#utility.yul\":6147:6254   */\ntag_45:\n    /* \"#utility.yul\":6191:6199   */\n  0x00\n    /* \"#utility.yul\":6241:6246   */\n  dup3\n    /* \"#utility.yul\":6235:6239   */\n  dup3\n    /* \"#utility.yul\":6231:6247   */\n  shl\n    /* \"#utility.yul\":6210:6247   */\n  swap1\n  pop\n    /* \"#utility.yul\":6147:6254   */\n  swap3\n  swap2\n  pop\n  pop\n  jump\t// out\n    /* \"#utility.yul\":6260:6653   */\ntag_46:\n    /* \"#utility.yul\":6329:6335   */\n  0x00\n    /* \"#utility.yul\":6379:6380   */\n  0x08\n    /* \"#utility.yul\":6367:6377   */\n  dup4\n    /* \"#utility.yul\":6363:6381   */\n  mul\n    /* \"#utility.yul\":6402:6499   */\n  tag_136\n    /* \"#utility.yul\":6432:6498   */\n  0xffffffffffffffffffffffffffffffffffffffffffffffffffffffffffffffff\n    /* \"#utility.yul\":6421:6430   */\n  dup3\n    /* \"#utility.yul\":6402:6499   */\n  tag_45\n  jump\t// in\ntag_136:\n    /* \"#utility.yul\":6520:6559   */\n  tag_137\n    /* \"#utility.yul\":6550:6558   */\n  dup7\n    /* \"#utility.yul\":6539:6548   */\n  dup4\n    /* \"#utility.yul\":6520:6559   */\n  tag_45\n  jump\t// in\ntag_137:\n    /* \"#utility.yul\":6508:6559   */\n  swap6\n  pop\n    /* \"#utility.yul\":6592:6596   */\n  dup1\n    /* \"#utility.yul\":6588:6597   */\n  not\n    /* \"#utility.yul\":6581:6586   */\n  dup5\n    /* \"#utility.yul\":6577:6598   */\n  and\n    /* \"#utility.yul\":6568:6598   */\n  swap4\n  pop\n    /* \"#utility.yul\":6641:6645   */\n  dup1\n    /* \"#utility.yul\":6631:6639   */\n  dup7\n    /* \"#utility.yul\":6627:6646   */\n  and\n    /* \"#utility.yul\":6620:6625   */\n  dup5\n    /* \"#utility.yul\":6617:6647   */\n  or\n    /* \"#utility.yul\":6607:6647   */\n  swap3\n  pop\n    /* \"#utility.yul\":6336:6653   */\n  pop\n  pop\n    /* \"#utility.yul\":6260:6653   */\n  swap4\n  swap3\n  pop\n  pop\n  pop\n  jump\t// out\n    /* \"#utility.yul\":6659:6719   */\ntag_47:\n    /* \"#utility.yul\":6687:6690   */\n  0x00\n    /* \"#utility.yul\":6708:6713   */\n  dup2\n    /* \"#utility.yul\":6701:6713   */\n  swap1\n  pop\n    /* \"#utility.yul\":6659:6719   */\n  swap2\n  swap1\n  pop\n  jump\t// out\n    /* \"#utility.yul\":6725:6867   */\ntag_48:\n    /* \"#utility.yul\":6775:6784   */\n  0x00\n    /* \"#utility.yul\":6808:6861   */\n  tag_140\n    /* \"#utility.yul\":6826:6860   */\n  tag_141\n    /* \"#utility.yul\":6835:6859   */\n  tag_142\n    /* \"#utility.yul\":6853:6858   */\n  dup5\n    /* \"#utility.yul\":6835:6859   */\n  tag_33\n  jump\t// in\ntag_142:\n    /* \"#utility.yul\":6826:6860   */\n  tag_47\n  jump\t// in\ntag_141:\n    /* \"#utility.yul\":6808:6861   */\n  tag_33\n  jump\t// in\ntag_140:\n    /* \"#utility.yul\":6795:6861   */\n  swap1\n  pop\n    /* \"#utility.yul\":6725:6867   */\n  swap2\n  swap1\n  pop\n  jump\t// out\n    /* \"#utility.yul\":6873:6948   */\ntag_49:\n    /* \"#utility.yul\":6916:6919   */\n  0x00\n    /* \"#utility.yul\":6937:6942   */\n  dup2\n    /* \"#utility.yul\":6930:6942   */\n  swap1\n  pop\n    /* \"#utility.yul\":6873:6948   */\n  swap2\n  swap1\n  pop\n  jump\t// out\n    /* \"#utility.yul\":6954:7223   */\ntag_50:\n    /* \"#utility.yul\":7064:7103   */\n  tag_145\n    /* \"#utility.yul\":7095:7102   */\n  dup4\n    /* \"#utility.yul\":7064:7103   */\n  tag_48\n  jump\t// in\ntag_145:\n    /* \"#utility.yul\":7125:7216   */\n  tag_146\n    /* \"#utility.yul\":7174:7215   */\n  tag_147\n    /* \"#utility.yul\":7198:7214   */\n  dup3\n    /* \"#utility.yul\":7174:7215   */\n  tag_49\n  jump\t// in\ntag_147:\n    /* \"#utility.yul\":7166:7172   */\n  dup5\n    /* \"#utility.yul\":7159:7163   */\n  dup5\n    /* \"#utility.yul\":7153:7164   */\n  sload\n    /* \"#utility.yul\":7125:7216   */\n  tag_46\n  jump\t// in\ntag_146:\n    /* \"#utility.yul\":7119:7123   */\n  dup3\n    /* \"#utility.yul\":7112:7217   */\n  sstore\n    /* \"#utility.yul\":7030:7223   */\n  pop\n    /* \"#utility.yul\":6954:7223   */\n  pop\n  pop\n  pop\n  jump\t// out\n    /* \"#utility.yul\":7229:7302   */\ntag_51:\n    /* \"#utility.yul\":7274:7277   */\n  0x00\n    /* \"#utility.yul\":7295:7296   */\n  0x00\n    /* \"#utility.yul\":7288:7296   */\n  swap1\n  pop\n    /* \"#utility.yul\":7229:7302   */\n  swap1\n  jump\t// out\n    /* \"#utility.yul\":7308:7497   */\ntag_52:\n    /* \"#utility.yul\":7385:7417   */\n  tag_150\n  tag_51\n  jump\t// in\ntag_150:\n    /* \"#utility.yul\":7426:7491   */\n  tag_151\n    /* \"#utility.yul\":7484:7490   */\n  dup2\n    /* \"#utility.yul\":7476:7482   */\n  dup5\n    /* \"#utility.yul\":7470:7474   */\n  dup5\n    /* \"#utility.yul\":7426:7491   */\n  tag_50\n  jump\t// in\ntag_151:\n    /* \"#utility.yul\":7361:7497   */\n  pop\n    /* \"#utility.yul\":7308:7497   */\n  pop\n  pop\n  jump\t// out\n    /* \"#utility.yul\":7503:7689   */\ntag_53:\n    /* \"#utility.yul\":7563:7683   */\ntag_153:\n    /* \"#utility.yul\":7580:7583   */\n  dup2\n    /* \"#utility.yul\":7573:7578   */\n  dup2\n    /* \"#utility.yul\":7570:7584   */\n  lt\n    /* \"#utility.yul\":7563:7683   */\n  iszero\n  tag_155\n  jumpi\n    /* \"#utility.yul\":7634:7673   */\n  tag_156\n    /* \"#utility.yul\":7671:7672   */\n  0x00\n    /* \"#utility.yul\":7664:7669   */\n  dup3\n    /* \"#utility.yul\":7634:7673   */\n  tag_52\n  jump\t// in\ntag_156:\n    /* \"#utility.yul\":7607:7608   */\n  0x01\n    /* \"#utility.yul\":7600:7605   */\n  dup2\n    /* \"#utility.yul\":7596:7609   */\n  add\n    /* \"#utility.yul\":7587:7609   */\n  swap1\n  pop\n    /* \"#utility.yul\":7563:7683   */\n  jump(tag_153)\ntag_155:\n    /* \"#utility.yul\":7503:7689   */\n  pop\n  pop\n  jump\t// out\n    /* \"#utility.yul\":7695:8238   */\ntag_54:\n    /* \"#utility.yul\":7796:7798   */\n  0x1f\n    /* \"#utility.yul\":7791:7794   */\n  dup3\n    /* \"#utility.yul\":7788:7799   */\n  gt\n    /* \"#utility.yul\":7785:8231   */\n  iszero\n  tag_158\n  jumpi\n    /* \"#utility.yul\":7830:7868   */\n  tag_159\n    /* \"#utility.yul\":7862:7867   */\n  dup2\n    /* \"#utility.yul\":7830:7868   */\n  tag_43\n  jump\t// in\ntag_159:\n    /* \"#utility.yul\":7914:7943   */\n  tag_160\n    /* \"#utility.yul\":7932:7942   */\n  dup5\n    /* \"#utility.yul\":7914:7943   */\n  tag_44\n  jump\t// in\ntag_160:\n    /* \"#utility.yul\":7904:7912   */\n  dup2\n    /* \"#utility.yul\":7900:7944   */\n  add\n    /* \"#utility.yul\":8097:8099   */\n  0x20\n    /* \"#utility.yul\":8085:8095   */\n  dup6\n    /* \"#utility.yul\":8082:8100   */\n  lt\n    /* \"#utility.yul\":8079:8128   */\n  iszero\n  tag_161\n  jumpi\n    /* \"#utility.yul\":8118:8126   */\n  dup2\n    /* \"#utility.yul\":8103:8126   */\n  swap1\n  pop\n    /* \"#utility.yul\":8079:8128   */\ntag_161:\n    /* \"#utility.yul\":8141:8221   */\n  tag_162\n    /* \"#utility.yul\":8197:8219   */\n  tag_163\n    /* \"#utility.yul\":8215:8218   */\n  dup6\n    /* \"#utility.yul\":8197:8219   */\n  tag_44\n  jump\t// in\ntag_163:\n    /* \"#utility.yul\":8187:8195   */\n  dup4\n    /* \"#utility.yul\":8183:8220   */\n  add\n    /* \"#utility.yul\":8170:8181   */\n  dup3\n    /* \"#utility.yul\":8141:8221   */\n  tag_53\n  jump\t// in\ntag_162:\n    /* \"#utility.yul\":7800:8231   */\n  pop\n  pop\n    /* \"#utility.yul\":7785:8231   */\ntag_158:\n    /* \"#utility.yul\":7695:8238   */\n  pop\n  pop\n  pop\n  jump\t// out\n    /* \"#utility.yul\":8244:8361   */\ntag_55:\n    /* \"#utility.yul\":8298:8306   */\n  0x00\n    /* \"#utility.yul\":8348:8353   */\n  dup3\n    /* \"#utility.yul\":8342:8346   */\n  dup3\n    /* \"#utility.yul\":8338:8354   */\n  shr\n    /* \"#utility.yul\":8317:8354   */\n  swap1\n  pop\n    /* \"#utility.yul\":8244:8361   */\n  swap3\n  swap2\n  pop\n  pop\n  jump\t// out\n    /* \"#utility.yul\":8367:8536   */\ntag_56:\n    /* \"#utility.yul\":8411:8417   */\n  0x00\n    /* \"#utility.yul\":8444:8495   */\n  tag_166\n    /* \"#utility.yul\":8492:8493   */\n  0x00\n    /* \"#utility.yul\":8488:8494   */\n  not\n    /* \"#utility.yul\":8480:8485   */\n  dup5\n    /* \"#utility.yul\":8477:8478   */\n  0x08\n    /* \"#utility.yul\":8473:8486   */\n  mul\n    /* \"#utility.yul\":8444:8495   */\n  tag_55\n  jump\t// in\ntag_166:\n    /* \"#utility.yul\":8440:8496   */\n  not\n    /* \"#utility.yul\":8525:8529   */\n  dup1\n    /* \"#utility.yul\":8519:8523   */\n  dup4\n    /* \"#utility.yul\":8515:8530   */\n  and\n    /* \"#utility.yul\":8505:8530   */\n  swap2\n  pop\n    /* \"#utility.yul\":8418:8536   */\n  pop\n    /* \"#utility.yul\":8367:8536   */\n  swap3\n  swap2\n  pop\n  pop\n  jump\t// out\n    /* \"#utility.yul\":8541:8836   */\ntag_57:\n    /* \"#utility.yul\":8617:8621   */\n  0x00\n    /* \"#utility.yul\":8763:8792   */\n  tag_168\n    /* \"#utility.yul\":8788:8791   */\n  dup4\n    /* \"#utility.yul\":8782:8786   */\n  dup4\n    /* \"#utility.yul\":8763:8792   */\n  tag_56\n  jump\t// in\ntag_168:\n    /* \"#utility.yul\":8755:8792   */\n  swap2\n  pop\n    /* \"#utility.yul\":8825:8828   */\n  dup3\n    /* \"#utility.yul\":8822:8823   */\n  0x02\n    /* \"#utility.yul\":8818:8829   */\n  mul\n    /* \"#utility.yul\":8812:8816   */\n  dup3\n    /* \"#utility.yul\":8809:8830   */\n  or\n    /* \"#utility.yul\":8801:8830   */\n  swap1\n  pop\n    /* \"#utility.yul\":8541:8836   */\n  swap3\n  swap2\n  pop\n  pop\n  jump\t// out\n    /* \"#utility.yul\":8841:10236   */\ntag_7:\n    /* \"#utility.yul\":8958:8995   */\n  tag_170\n    /* \"#utility.yul\":8991:8994   */\n  dup3\n    /* \"#utility.yul\":8958:8995   */\n  tag_40\n  jump\t// in\ntag_170:\n    /* \"#utility.yul\":9060:9078   */\n  0xffffffffffffffff\n    /* \"#utility.yul\":9052:9058   */\n  dup2\n    /* \"#utility.yul\":9049:9079   */\n  gt\n    /* \"#utility.yul\":9046:9102   */\n  iszero\n  tag_171\n  jumpi\n    /* \"#utility.yul\":9082:9100   */\n  tag_172\n  tag_23\n  jump\t// in\ntag_172:\n    /* \"#utility.yul\":9046:9102   */\ntag_171:\n    /* \"#utility.yul\":9126:9164   */\n  tag_173\n    /* \"#utility.yul\":9158:9162   */\n  dup3\n    /* \"#utility.yul\":9152:9163   */\n  sload\n    /* \"#utility.yul\":9126:9164   */\n  tag_42\n  jump\t// in\ntag_173:\n    /* \"#utility.yul\":9211:9278   */\n  tag_174\n    /* \"#utility.yul\":9271:9277   */\n  dup3\n    /* \"#utility.yul\":9263:9269   */\n  dup3\n    /* \"#utility.yul\":9257:9261   */\n  dup6\n    /* \"#utility.yul\":9211:9278   */\n  tag_54\n  jump\t// in\ntag_174:\n    /* \"#utility.yul\":9305:9306   */\n  0x00\n    /* \"#utility.yul\":9329:9333   */\n  0x20\n    /* \"#utility.yul\":9316:9333   */\n  swap1\n  pop\n    /* \"#utility.yul\":9361:9363   */\n  0x1f\n    /* \"#utility.yul\":9353:9359   */\n  dup4\n    /* \"#utility.yul\":9350:9364   */\n  gt\n    /* \"#utility.yul\":9378:9379   */\n  0x01\n    /* \"#utility.yul\":9373:9991   */\n  dup2\n  eq\n  tag_176\n  jumpi\n    /* \"#utility.yul\":10035:10036   */\n  0x00\n    /* \"#utility.yul\":10052:10058   */\n  dup5\n    /* \"#utility.yul\":10049:10126   */\n  iszero\n  tag_177\n  jumpi\n    /* \"#utility.yul\":10101:10110   */\n  dup3\n    /* \"#utility.yul\":10096:10099   */\n  dup8\n    /* \"#utility.yul\":10092:10111   */\n  add\n    /* \"#utility.yul\":10086:10112   */\n  mload\n    /* \"#utility.yul\":10077:10112   */\n  swap1\n  pop\n    /* \"#utility.yul\":10049:10126   */\ntag_177:\n    /* \"#utility.yul\":10152:10219   */\n  tag_178\n    /* \"#utility.yul\":10212:10218   */\n  dup6\n    /* \"#utility.yul\":10205:10210   */\n  dup3\n    /* \"#utility.yul\":10152:10219   */\n  tag_57\n  jump\t// in\ntag_178:\n    /* \"#utility.yul\":10146:10150   */\n  dup7\n    /* \"#utility.yul\":10139:10220   */\n  sstore\n    /* \"#utility.yul\":10008:10230   */\n  pop\n    /* \"#utility.yul\":9343:10230   */\n  jump(tag_175)\n    /* \"#utility.yul\":9373:9991   */\ntag_176:\n    /* \"#utility.yul\":9425:9429   */\n  0x1f\n    /* \"#utility.yul\":9421:9430   */\n  not\n    /* \"#utility.yul\":9413:9419   */\n  dup5\n    /* \"#utility.yul\":9409:9431   */\n  and\n    /* \"#utility.yul\":9459:9496   */\n  tag_179\n    /* \"#utility.yul\":9491:9495   */\n  dup7\n    /* \"#utility.yul\":9459:9496   */\n  tag_43\n  jump\t// in\ntag_179:\n    /* \"#utility.yul\":9518:9519   */\n  0x00\n    /* \"#utility.yul\":9532:9740   */\ntag_180:\n    /* \"#utility.yul\":9546:9553   */\n  dup3\n    /* \"#utility.yul\":9543:9544   */\n  dup2\n    /* \"#utility.yul\":9540:9554   */\n  lt\n    /* \"#utility.yul\":9532:9740   */\n  iszero\n  tag_182\n  jumpi\n    /* \"#utility.yul\":9625:9634   */\n  dup5\n    /* \"#utility.yul\":9620:9623   */\n  dup10\n    /* \"#utility.yul\":9616:9635   */\n  add\n    /* \"#utility.yul\":9610:9636   */\n  mload\n    /* \"#utility.yul\":9602:9608   */\n  dup3\n    /* \"#utility.yul\":9595:9637   */\n  sstore\n    /* \"#utility.yul\":9676:9677   */\n  0x01\n    /* \"#utility.yul\":9668:9674   */\n  dup3\n    /* \"#utility.yul\":9664:9678   */\n  add\n    /* \"#utility.yul\":9654:9678   */\n  swap2\n  pop\n    /* \"#utility.yul\":9723:9725   */\n  0x20\n    /* \"#utility.yul\":9712:9721   */\n  dup6\n    /* \"#utility.yul\":9708:9726   */\n  add\n    /* \"#utility.yul\":9695:9726   */\n  swap5\n  pop\n    /* \"#utility.yul\":9569:9573   */\n  0x20\n    /* \"#utility.yul\":9566:9567   */\n  dup2\n    /* \"#utility.yul\":9562:9574   */\n  add\n    /* \"#utility.yul\":9557:9574   */\n  swap1\n  pop\n    /* \"#utility.yul\":9532:9740   */\n  jump(tag_180)\ntag_182:\n    /* \"#utility.yul\":9768:9774   */\n  dup7\n    /* \"#utility.yul\":9759:9766   */\n  dup4\n    /* \"#utility.yul\":9756:9775   */\n  lt\n    /* \"#utility.yul\":9753:9932   */\n  iszero\n  tag_183\n  jumpi\n    /* \"#utility.yul\":9826:9835   */\n  dup5\n    /* \"#utility.yul\":9821:9824   */\n  dup10\n    /* \"#utility.yul\":9817:9836   */\n  add\n    /* \"#utility.yul\":9811:9837   */\n  mload\n    /* \"#utility.yul\":9869:9917   */\n  tag_184\n    /* \"#utility.yul\":9911:9915   */\n  0x1f\n    /* \"#utility.yul\":9903:9909   */\n  dup10\n    /* \"#utility.yul\":9899:9916   */\n  and\n    /* \"#utility.yul\":9888:9897   */\n  dup3\n    /* \"#utility.yul\":9869:9917   */\n  tag_56\n  jump\t// in\ntag_184:\n    /* \"#utility.yul\":9861:9867   */\n  dup4\n    /* \"#utility.yul\":9854:9918   */\n  sstore\n    /* \"#utility.yul\":9776:9932   */\n  pop\n    /* \"#utility.yul\":9753:9932   */\ntag_183:\n    /* \"#utility.yul\":9978:9979   */\n  0x01\n    /* \"#utility.yul\":9974:9975   */\n  0x02\n    /* \"#utility.yul\":9966:9972   */\n  dup9\n    /* \"#utility.yul\":9962:9976   */\n  mul\n    /* \"#utility.yul\":9958:9980   */\n  add\n    /* \"#utility.yul\":9952:9956   */\n  dup9\n    /* \"#utility.yul\":9945:9981   */\n  sstore\n    /* \"#utility.yul\":9380:9991   */\n  pop\n  pop\n  pop\n    /* \"#utility.yul\":9343:10230   */\ntag_175:\n  pop\n    /* \"#utility.yul\":8933:10236   */\n  pop\n  pop\n  pop\n    /* \"#utility.yul\":8841:10236   */\n  pop\n  pop\n  jump\t// out\n    /* \"#utility.yul\":10242:10422   */\ntag_58:\n    /* \"#utility.yul\":10290:10367   */\n  0x4e487b7100000000000000000000000000000000000000000000000000000000\n    /* \"#utility.yul\":10287:10288   */\n  0x00\n    /* \"#utility.yul\":10280:10368   */\n  mstore\n    /* \"#utility.yul\":10387:10391   */\n  0x11\n    /* \"#utility.yul\":10384:10385   */\n  0x04\n    /* \"#utility.yul\":10377:10392   */\n  mstore\n    /* \"#utility.yul\":10411:10415   */\n  0x24\n    /* \"#utility.yul\":10408:10409   */\n  0x00\n    /* \"#utility.yul\":10401:10416   */\n  revert\n    /* \"#utility.yul\":10428:10530   */\ntag_59:\n    /* \"#utility.yul\":10470:10478   */\n  0x00\n    /* \"#utility.yul\":10517:10522   */\n  dup2\n    /* \"#utility.yul\":10514:10515   */\n  0x01\n    /* \"#utility.yul\":10510:10523   */\n  shr\n    /* \"#utility.yul\":10489:10523   */\n  swap1\n  pop\n    /* \"#utility.yul\":10428:10530   */\n  swap2\n  swap1\n  pop\n  jump\t// out\n    /* \"#utility.yul\":10536:11384   */\ntag_60:\n    /* \"#utility.yul\":10597:10602   */\n  0x00\n    /* \"#utility.yul\":10604:10608   */\n  0x00\n    /* \"#utility.yul\":10628:10634   */\n  dup3\n    /* \"#utility.yul\":10619:10634   */\n  swap2\n  pop\n    /* \"#utility.yul\":10652:10657   */\n  dup4\n    /* \"#utility.yul\":10643:10657   */\n  swap1\n  pop\n    /* \"#utility.yul\":10666:11378   */\ntag_188:\n    /* \"#utility.yul\":10687:10688   */\n  0x01\n    /* \"#utility.yul\":10677:10685   */\n  dup6\n    /* \"#utility.yul\":10674:10689   */\n  gt\n    /* \"#utility.yul\":10666:11378   */\n  iszero\n  tag_190\n  jumpi\n    /* \"#utility.yul\":10782:10786   */\n  dup1\n    /* \"#utility.yul\":10777:10780   */\n  dup7\n    /* \"#utility.yul\":10773:10787   */\n  div\n    /* \"#utility.yul\":10767:10771   */\n  dup2\n    /* \"#utility.yul\":10764:10788   */\n  gt\n    /* \"#utility.yul\":10761:10811   */\n  iszero\n  tag_191\n  jumpi\n    /* \"#utility.yul\":10791:10809   */\n  tag_192\n  tag_58\n  jump\t// in\ntag_192:\n    /* \"#utility.yul\":10761:10811   */\ntag_191:\n    /* \"#utility.yul\":10841:10842   */\n  0x01\n    /* \"#utility.yul\":10831:10839   */\n  dup6\n    /* \"#utility.yul\":10827:10843   */\n  and\n    /* \"#utility.yul\":10824:11275   */\n  iszero\n  tag_193\n  jumpi\n    /* \"#utility.yul\":11256:11260   */\n  dup1\n    /* \"#utility.yul\":11249:11254   */\n  dup3\n    /* \"#utility.yul\":11245:11261   */\n  mul\n    /* \"#utility.yul\":11236:11261   */\n  swap2\n  pop\n    /* \"#utility.yul\":10824:11275   */\ntag_193:\n    /* \"#utility.yul\":11306:11310   */\n  dup1\n    /* \"#utility.yul\":11300:11304   */\n  dup2\n    /* \"#utility.yul\":11296:11311   */\n  mul\n    /* \"#utility.yul\":11288:11311   */\n  swap1\n  pop\n    /* \"#utility.yul\":11336:11368   */\n  tag_194\n    /* \"#utility.yul\":11359:11367   */\n  dup6\n    /* \"#utility.yul\":11336:11368   */\n  tag_59\n  jump\t// in\ntag_194:\n    /* \"#utility.yul\":11324:11368   */\n  swap5\n  pop\n    /* \"#utility.yul\":10666:11378   */\n  jump(tag_188)\ntag_190:\n    /* \"#utility.yul\":10536:11384   */\n  swap5\n  pop\n  swap5\n  swap3\n  pop\n  pop\n  pop\n  jump\t// out\n    /* \"#utility.yul\":11390:12463   */\ntag_61:\n    /* \"#utility.yul\":11444:11449   */\n  0x00\n    /* \"#utility.yul\":11635:11643   */\n  dup3\n    /* \"#utility.yul\":11625:11665   */\n  tag_196\n  jumpi\n    /* \"#utility.yul\":11656:11657   */\n  0x01\n    /* \"#utility.yul\":11647:11657   */\n  swap1\n  pop\n    /* \"#utility.yul\":11658:11663   */\n  jump(tag_195)\n    /* \"#utility.yul\":11625:11665   */\ntag_196:\n    /* \"#utility.yul\":11684:11688   */\n  dup2\n    /* \"#utility.yul\":11674:11710   */\n  tag_197\n  jumpi\n    /* \"#utility.yul\":11701:11702   */\n  0x00\n    /* \"#utility.yul\":11692:11702   */\n  swap1\n  pop\n    /* \"#utility.yul\":11703:11708   */\n  jump(tag_195)\n    /* \"#utility.yul\":11674:11710   */\ntag_197:\n    /* \"#utility.yul\":11770:11774   */\n  dup2\n    /* \"#utility.yul\":11818:11819   */\n  0x01\n    /* \"#utility.yul\":11813:11840   */\n  dup2\n  eq\n  tag_199\n  jumpi\n    /* \"#utility.yul\":11854:11855   */\n  0x02\n    /* \"#utility.yul\":11849:12040   */\n  dup2\n  eq\n  tag_200\n  jumpi\n    /* \"#utility.yul\":11763:12040   */\n  jump(tag_198)\n    /* \"#utility.yul\":11813:11840   */\ntag_199:\n    /* \"#utility.yul\":11831:11832   */\n  0x01\n    /* \"#utility.yul\":11822:11832   */\n  swap2\n  pop\n    /* \"#utility.yul\":11833:11838   */\n  pop\n  jump(tag_195)\n    /* \"#utility.yul\":11849:12040   */\ntag_200:\n    /* \"#utility.yul\":11894:11897   */\n  0xff\n    /* \"#utility.yul\":11884:11892   */\n  dup5\n    /* \"#utility.yul\":11881:11898   */\n  gt\n    /* \"#utility.yul\":11878:11921   */\n  iszero\n  tag_201\n  jumpi\n    /* \"#utility.yul\":11901:11919   */\n  tag_202\n  tag_58\n  jump\t// in\ntag_202:\n    /* \"#utility.yul\":11878:11921   */\ntag_201:\n    /* \"#utility.yul\":11950:11958   */\n  dup4\n    /* \"#utility.yul\":11947:11948   */\n  0x02\n    /* \"#utility.yul\":11943:11959   */\n  exp\n    /* \"#utility.yul\":11934:11959   */\n  swap2\n  pop\n    /* \"#utility.yul\":11985:11988   */\n  dup5\n    /* \"#utility.yul\":11978:11983   */\n  dup3\n    /* \"#utility.yul\":11975:11989   */\n  gt\n    /* \"#utility.yul\":11972:12012   */\n  iszero\n  tag_203\n  jumpi\n    /* \"#utility.yul\":11992:12010   */\n  tag_204\n  tag_58\n  jump\t// in\ntag_204:\n    /* \"#utility.yul\":11972:12012   */\ntag_203:\n    /* \"#utility.yul\":12025:12030   */\n  pop\n  jump(tag_195)\n    /* \"#utility.yul\":11763:12040   */\ntag_198:\n  pop\n    /* \"#utility.yul\":12149:12151   */\n  0x20\n    /* \"#utility.yul\":12139:12147   */\n  dup4\n    /* \"#utility.yul\":12136:12152   */\n  lt\n    /* \"#utility.yul\":12130:12133   */\n  0x0133\n    /* \"#utility.yul\":12124:12128   */\n  dup4\n    /* \"#utility.yul\":12121:12134   */\n  lt\n    /* \"#utility.yul\":12117:12153   */\n  and\n    /* \"#utility.yul\":12099:12101   */\n  0x4e\n    /* \"#utility.yul\":12089:12097   */\n  dup5\n    /* \"#utility.yul\":12086:12102   */\n  lt\n    /* \"#utility.yul\":12081:12083   */\n  0x0b\n    /* \"#utility.yul\":12075:12079   */\n  dup5\n    /* \"#utility.yul\":12072:12084   */\n  lt\n    /* \"#utility.yul\":12068:12103   */\n  and\n    /* \"#utility.yul\":12052:12163   */\n  or\n    /* \"#utility.yul\":12049:12295   */\n  iszero\n  tag_205\n  jumpi\n    /* \"#utility.yul\":12205:12213   */\n  dup3\n    /* \"#utility.yul\":12199:12203   */\n  dup3\n    /* \"#utility.yul\":12195:12214   */\n  exp\n    /* \"#utility.yul\":12186:12214   */\n  swap1\n  pop\n    /* \"#utility.yul\":12240:12243   */\n  dup4\n    /* \"#utility.yul\":12233:12238   */\n  dup2\n    /* \"#utility.yul\":12230:12244   */\n  gt\n    /* \"#utility.yul\":12227:12267   */\n  iszero\n  tag_206\n  jumpi\n    /* \"#utility.yul\":12247:12265   */\n  tag_207\n  tag_58\n  jump\t// in\ntag_207:\n    /* \"#utility.yul\":12227:12267   */\ntag_206:\n    /* \"#utility.yul\":12280:12285   */\n  jump(tag_195)\n    /* \"#utility.yul\":12049:12295   */\ntag_205:\n    /* \"#utility.yul\":12320:12362   */\n  tag_208\n    /* \"#utility.yul\":12358:12361   */\n  dup5\n    /* \"#utility.yul\":12348:12356   */\n  dup5\n    /* \"#utility.yul\":12342:12346   */\n  dup5\n    /* \"#utility.yul\":12339:12340   */\n  0x01\n    /* \"#utility.yul\":12320:12362   */\n  tag_60\n  jump\t// in\ntag_208:\n    /* \"#utility.yul\":12305:12362   */\n  swap3\n  pop\n  swap1\n  pop\n    /* \"#utility.yul\":12394:12398   */\n  dup2\n    /* \"#utility.yul\":12389:12392   */\n  dup5\n    /* \"#utility.yul\":12385:12399   */\n  div\n    /* \"#utility.yul\":12378:12383   */\n  dup2\n    /* \"#utility.yul\":12375:12400   */\n  gt\n    /* \"#utility.yul\":12372:12423   */\n  iszero\n  tag_209\n  jumpi\n    /* \"#utility.yul\":12403:12421   */\n  tag_210\n  tag_58\n  jump\t// in\ntag_210:\n    /* \"#utility.yul\":12372:12423   */\ntag_209:\n    /* \"#utility.yul\":12452:12456   */\n  dup2\n    /* \"#utility.yul\":12445:12450   */\n  dup2\n    /* \"#utility.yul\":12441:12457   */\n  mul\n    /* \"#utility.yul\":12432:12457   */\n  swap1\n  pop\n    /* \"#utility.yul\":11390:12463   */\ntag_195:\n  swap4\n  swap3\n  pop\n  pop\n  pop\n  jump\t// out\n    /* \"#utility.yul\":12469:12750   */\ntag_10:\n    /* \"#utility.yul\":12527:12532   */\n  0x00\n    /* \"#utility.yul\":12551:12574   */\n  tag_212\n    /* \"#utility.yul\":12569:12573   */\n  dup3\n    /* \"#utility.yul\":12551:12574   */\n  tag_33\n  jump\t// in\ntag_212:\n    /* \"#utility.yul\":12543:12574   */\n  swap2\n  pop\n    /* \"#utility.yul\":12595:12620   */\n  tag_213\n    /* \"#utility.yul\":12611:12619   */\n  dup4\n    /* \"#utility.yul\":12595:12620   */\n  tag_30\n  jump\t// in\ntag_213:\n    /* \"#utility.yul\":12583:12620   */\n  swap3\n  pop\n    /* \"#utility.yul\":12639:12743   */\n  tag_214\n    /* \"#utility.yul\":12676:12742   */\n  0xffffffffffffffffffffffffffffffffffffffffffffffffffffffffffffffff\n    /* \"#utility.yul\":12666:12674   */\n  dup5\n    /* \"#utility.yul\":12660:12664   */\n  dup5\n    /* \"#utility.yul\":12639:12743   */\n  tag_61\n  jump\t// in\ntag_214:\n    /* \"#utility.yul\":12630:12743   */\n  swap1\n  pop\n    /* \"#utility.yul\":12469:12750   */\n  swap3\n  swap2\n  pop\n  pop\n  jump\t// out\n    /* \"#utility.yul\":12756:13166   */\ntag_12:\n    /* \"#utility.yul\":12796:12803   */\n  0x00\n    /* \"#utility.yul\":12819:12839   */\n  tag_216\n    /* \"#utility.yul\":12837:12838   */\n  dup3\n    /* \"#utility.yul\":12819:12839   */\n  tag_33\n  jump\t// in\ntag_216:\n    /* \"#utility.yul\":12814:12839   */\n  swap2\n  pop\n    /* \"#utility.yul\":12853:12873   */\n  tag_217\n    /* \"#utility.yul\":12871:12872   */\n  dup4\n    /* \"#utility.yul\":12853:12873   */\n  tag_33\n  jump\t// in\ntag_217:\n    /* \"#utility.yul\":12848:12873   */\n  swap3\n  pop\n    /* \"#utility.yul\":12908:12909   */\n  dup3\n    /* \"#utility.yul\":12905:12906   */\n  dup3\n    /* \"#utility.yul\":12901:12910   */\n  mul\n    /* \"#utility.yul\":12930:12960   */\n  tag_218\n    /* \"#utility.yul\":12948:12959   */\n  dup2\n    /* \"#utility.yul\":12930:12960   */\n  tag_33\n  jump\t// in\ntag_218:\n    /* \"#utility.yul\":12919:12960   */\n  swap2\n  pop\n    /* \"#utility.yul\":13109:13110   */\n  dup3\n    /* \"#utility.yul\":13100:13107   */\n  dup3\n    /* \"#utility.yul\":13096:13111   */\n  div\n    /* \"#utility.yul\":13093:13094   */\n  dup5\n    /* \"#utility.yul\":13090:13112   */\n  eq\n    /* \"#utility.yul\":13070:13071   */\n  dup4\n    /* \"#utility.yul\":13063:13072   */\n  iszero\n    /* \"#utility.yul\":13043:13126   */\n  or\n    /* \"#utility.yul\":13020:13159   */\n  tag_219\n  jumpi\n    /* \"#utility.yul\":13139:13157   */\n  tag_220\n  tag_58\n  jump\t// in\ntag_220:\n    /* \"#utility.yul\":13020:13159   */\ntag_219:\n    /* \"#utility.yul\":12804:13166   */\n  pop\n    /* \"#utility.yul\":12756:13166   */\n  swap3\n  swap2\n  pop\n  pop\n  jump\t// out\n    /* \"#utility.yul\":13172:13290   */\ntag_62:\n    /* \"#utility.yul\":13259:13283   */\n  tag_222\n    /* \"#utility.yul\":13277:13282   */\n  dup2\n    /* \"#utility.yul\":13259:13283   */\n  tag_33\n  jump\t// in\ntag_222:\n    /* \"#utility.yul\":13254:13257   */\n  dup3\n    /* \"#utility.yul\":13247:13284   */\n  mstore\n    /* \"#utility.yul\":13172:13290   */\n  pop\n  pop\n  jump\t// out\n    /* \"#utility.yul\":13296:13518   */\ntag_15:\n    /* \"#utility.yul\":13389:13393   */\n  0x00\n    /* \"#utility.yul\":13427:13429   */\n  0x20\n    /* \"#utility.yul\":13416:13425   */\n  dup3\n    /* \"#utility.yul\":13412:13430   */\n  add\n    /* \"#utility.yul\":13404:13430   */\n  swap1\n  pop\n    /* \"#utility.yul\":13440:13511   */\n  tag_224\n    /* \"#utility.yul\":13508:13509   */\n  0x00\n    /* \"#utility.yul\":13497:13506   */\n  dup4\n    /* \"#utility.yul\":13493:13510   */\n  add\n    /* \"#utility.yul\":13484:13490   */\n  dup5\n    /* \"#utility.yul\":13440:13511   */\n  tag_62\n  jump\t// in\ntag_224:\n    /* \"#utility.yul\":13296:13518   */\n  swap3\n  swap2\n  pop\n  pop\n  jump\t// out\n    /* \"ECR-20/feetoken.sol\":61:4634  contract FeeToken {... */\ntag_16:\n  dataSize(sub_0)\n  dup1\n  dataOffset(sub_0)\n  0x00\n  codecopy\n  0x00\n  return\nstop\n\nsub_0: assembly {\n        /* \"ECR-20/feetoken.sol\":61:4634  contract FeeToken {... */\n      mstore(0x40, 0x80)\n      callvalue\n      dup1\n      iszero\n      tag_1\n      jumpi\n      revert(0x00, 0x00)\n    tag_1:\n      pop\n      jumpi(tag_2, lt(calldatasize, 0x04))\n      shr(0xe0, calldataload(0x00))\n      dup1\n      0x9012c4a8\n      gt\n      tag_16\n      jumpi\n      dup1\n      0xacb2ad6f\n      gt\n      tag_17\n      jumpi\n      dup1\n      0xacb2ad6f\n      eq\n      tag_12\n      jumpi\n      dup1\n      0xc415b95c\n      eq\n      tag_13\n      jumpi\n      dup1\n      0xd2c35ce8\n      eq\n      tag_14\n      jumpi\n      dup1\n      0xdd62ed3e\n      eq\n      tag_15\n      jumpi\n      jump(tag_2)\n    tag_17:\n      dup1\n      0x9012c4a8\n      eq\n      tag_9\n      jumpi\n      dup1\n      0x95d89b41\n      eq\n      tag_10\n      jumpi\n      dup1\n      0xa9059cbb\n      eq\n      tag_11\n      jumpi\n      jump(tag_2)\n    tag_16:\n      dup1\n      0x06fdde03\n      eq\n      tag_3\n      jumpi\n      dup1\n      0x095ea7b3\n      eq\n      tag_4\n      jumpi\n      dup1\n      0x18160ddd\n      eq\n      tag_5\n      jumpi\n      dup1\n      0x23b872dd\n      eq\n      tag_6\n      jumpi\n      dup1\n      0x313ce567\n      eq\n      tag_7\n      jumpi\n      dup1\n      0x70a08231\n      eq\n      tag_8\n      jumpi\n    tag_2:\n      revert(0x00, 0x00)\n        /* \"ECR-20/feetoken.sol\":123:141  string public name */\n    tag_3:\n      tag_18\n      tag_19\n      jump\t// in\n    tag_18:\n      mload(0x40)\n      tag_20\n      swap2\n      swap1\n      tag_21\n      jump\t// in\n    tag_20:\n      mload(0x40)\n      dup1\n      swap2\n      sub\n      swap1\n      return\n        /* \"ECR-20/feetoken.sol\":2128:2278  function approve(address spender, uint256 amount) public returns (bool) {... */\n    tag_4:\n      tag_22\n      0x04\n      dup1\n      calldatasize\n      sub\n      dup2\n      add\n      swap1\n      tag_23\n      swap2\n      swap1\n      tag_24\n      jump\t// in\n    tag_23:\n      tag_25\n      jump\t// in\n    tag_22:\n      mload(0x40)\n      tag_26\n      swap2\n      swap1\n      tag_27\n      jump\t// in\n    tag_26:\n      mload(0x40)\n      dup1\n      swap2\n      sub\n      swap1\n      return\n        /* \"ECR-20/feetoken.sol\":203:229  uint256 public totalSupply */\n    tag_5:\n      tag_28\n      tag_29\n      jump\t// in\n    tag_28:\n      mload(0x40)\n      tag_30\n      swap2\n      swap1\n      tag_31\n      jump\t// in\n    tag_30:\n      mload(0x40)\n      dup1\n      swap2\n      sub\n      swap1\n      return\n        /* \"ECR-20/feetoken.sol\":2290:2503  function transferFrom(address from, address to, uint256 amount) public returns (bool) {... */\n    tag_6:\n      tag_32\n      0x04\n      dup1\n      calldatasize\n      sub\n      dup2\n      add\n      swap1\n      tag_33\n      swap2\n      swap1\n      tag_34\n      jump\t// in\n    tag_33:\n      tag_35\n      jump\t// in\n    tag_32:\n      mload(0x40)\n      tag_36\n      swap2\n      swap1\n      tag_27\n      jump\t// in\n    tag_36:\n      mload(0x40)\n      dup1\n      swap2\n      sub\n      swap1\n      return\n        /* \"ECR-20/feetoken.sol\":175:196  uint8 public decimals */\n    tag_7:\n      tag_37\n      tag_38\n      jump\t// in\n    tag_37:\n      mload(0x40)\n      tag_39\n      swap2\n      swap1\n      tag_40\n      jump\t// in\n    tag_39:\n      mload(0x40)\n      dup1\n      swap2\n      sub\n      swap1\n      return\n        /* \"ECR-20/feetoken.sol\":1699:1809  function balanceOf(address account) public view returns (uint256) {... */\n    tag_8:\n      tag_41\n      0x04\n      dup1\n      calldatasize\n      sub\n      dup2\n      add\n      swap1\n      tag_42\n      swap2\n      swap1\n      tag_43\n      jump\t// in\n    tag_42:\n      tag_44\n      jump\t// in\n    tag_41:\n      mload(0x40)\n      tag_45\n      swap2\n      swap1\n      tag_31\n      jump\t// in\n    tag_45:\n      mload(0x40)\n      dup1\n      swap2\n      sub\n      swap1\n      return\n        /* \"ECR-20/feetoken.sol\":4289:4436  function updateFee(uint256 newFee) public onlyFeeCollector {... */\n    tag_9:\n      tag_46\n      0x04\n      dup1\n      calldatasize\n      sub\n      dup2\n      add\n      swap1\n      tag_47\n      swap2\n      swap1\n      tag_48\n      jump\t// in\n    tag_47:\n      tag_49\n      jump\t// in\n    tag_46:\n      stop\n        /* \"ECR-20/feetoken.sol\":148:168  string public symbol */\n    tag_10:\n      tag_50\n      tag_51\n      jump\t// in\n    tag_50:\n      mload(0x40)\n      tag_52\n      swap2\n      swap1\n      tag_21\n      jump\t// in\n    tag_52:\n      mload(0x40)\n      dup1\n      swap2\n      sub\n      swap1\n      return\n        /* \"ECR-20/feetoken.sol\":1821:1970  function transfer(address to, uint256 amount) public returns (bool) {... */\n    tag_11:\n      tag_53\n      0x04\n      dup1\n      calldatasize\n      sub\n      dup2\n      add\n      swap1\n      tag_54\n      swap2\n      swap1\n      tag_24\n      jump\t// in\n    tag_54:\n      tag_55\n      jump\t// in\n    tag_53:\n      mload(0x40)\n      tag_56\n      swap2\n      swap1\n      tag_27\n      jump\t// in\n    tag_56:\n      mload(0x40)\n      dup1\n      swap2\n      sub\n      swap1\n      return\n        /* \"ECR-20/feetoken.sol\":458:484  uint256 public transferFee */\n    tag_12:\n      tag_57\n      tag_58\n      jump\t// in\n    tag_57:\n      mload(0x40)\n      tag_59\n      swap2\n      swap1\n      tag_31\n      jump\t// in\n    tag_59:\n      mload(0x40)\n      dup1\n      swap2\n      sub\n      swap1\n      return\n        /* \"ECR-20/feetoken.sol\":424:451  address public feeCollector */\n    tag_13:\n      tag_60\n      tag_61\n      jump\t// in\n    tag_60:\n      mload(0x40)\n      tag_62\n      swap2\n      swap1\n      tag_63\n      jump\t// in\n    tag_62:\n      mload(0x40)\n      dup1\n      swap2\n      sub\n      swap1\n      return\n        /* \"ECR-20/feetoken.sol\":4448:4631  function updateFeeCollector(address newCollector) public onlyFeeCollector {... */\n    tag_14:\n      tag_64\n      0x04\n      dup1\n      calldatasize\n      sub\n      dup2\n      add\n      swap1\n      tag_65\n      swap2\n      swap1\n      tag_43\n      jump\t// in\n    tag_65:\n      tag_66\n      jump\t// in\n    tag_64:\n      stop\n        /* \"ECR-20/feetoken.sol\":1982:2116  function allowance(address owner, address spender) public view returns (uint256) {... */\n    tag_15:\n      tag_67\n      0x04\n      dup1\n      calldatasize\n      sub\n      dup2\n      add\n      swap1\n      tag_68\n      swap2\n      swap1\n      tag_69\n      jump\t// in\n    tag_68:\n      tag_70\n      jump\t// in\n    tag_67:\n      mload(0x40)\n      tag_71\n      swap2\n      swap1\n      tag_31\n      jump\t// in\n    tag_71:\n      mload(0x40)\n      dup1\n      swap2\n      sub\n      swap1\n      return\n        /* \"ECR-20/feetoken.sol\":123:141  string public name */\n    tag_19:\n      0x00\n      dup1\n      sload\n      tag_72\n      swap1\n      tag_73\n      jump\t// in\n    tag_72:\n      dup1\n      0x1f\n      add\n      0x20\n      dup1\n      swap2\n      div\n      mul\n      0x20\n      add\n      mload(0x40)\n      swap1\n      dup2\n      add\n      0x40\n      mstore\n      dup1\n      swap3\n      swap2\n      swap1\n      dup2\n      dup2\n      mstore\n      0x20\n      add\n      dup3\n      dup1\n      sload\n      tag_74\n      swap1\n      tag_73\n      jump\t// in\n    tag_74:\n      dup1\n      iszero\n      tag_75\n      jumpi\n      dup1\n      0x1f\n      lt\n      tag_76\n      jumpi\n      0x0100\n      dup1\n      dup4\n      sload\n      div\n      mul\n      dup4\n      mstore\n      swap2\n      0x20\n      add\n      swap2\n      jump(tag_75)\n    tag_76:\n      dup3\n      add\n      swap2\n      swap1\n      0x00\n      mstore\n      keccak256(0x00, 0x20)\n      swap1\n    tag_77:\n      dup2\n      sload\n      dup2\n      mstore\n      swap1\n      0x01\n      add\n      swap1\n      0x20\n      add\n      dup1\n      dup4\n      gt\n      tag_77\n      jumpi\n      dup3\n      swap1\n      sub\n      0x1f\n      and\n      dup3\n      add\n      swap2\n    tag_75:\n      pop\n      pop\n      pop\n      pop\n      pop\n      dup2\n      jump\t// out\n        /* \"ECR-20/feetoken.sol\":2128:2278  function approve(address spender, uint256 amount) public returns (bool) {... */\n    tag_25:\n        /* \"ECR-20/feetoken.sol\":2194:2198  bool */\n      0x00\n        /* \"ECR-20/feetoken.sol\":2211:2248  _approve(msg.sender, spender, amount) */\n      tag_79\n        /* \"ECR-20/feetoken.sol\":2220:2230  msg.sender */\n      caller\n        /* \"ECR-20/feetoken.sol\":2232:2239  spender */\n      dup5\n        /* \"ECR-20/feetoken.sol\":2241:2247  amount */\n      dup5\n        /* \"ECR-20/feetoken.sol\":2211:2219  _approve */\n      tag_80\n        /* \"ECR-20/feetoken.sol\":2211:2248  _approve(msg.sender, spender, amount) */\n      jump\t// in\n    tag_79:\n        /* \"ECR-20/feetoken.sol\":2266:2270  true */\n      0x01\n        /* \"ECR-20/feetoken.sol\":2259:2270  return true */\n      swap1\n      pop\n        /* \"ECR-20/feetoken.sol\":2128:2278  function approve(address spender, uint256 amount) public returns (bool) {... */\n      swap3\n      swap2\n      pop\n      pop\n      jump\t// out\n        /* \"ECR-20/feetoken.sol\":203:229  uint256 public totalSupply */\n    tag_29:\n      sload(0x03)\n      dup2\n      jump\t// out\n        /* \"ECR-20/feetoken.sol\":2290:2503  function transferFrom(address from, address to, uint256 amount) public returns (bool) {... */\n    tag_35:\n        /* \"ECR-20/feetoken.sol\":2370:2374  bool */\n      0x00\n        /* \"ECR-20/feetoken.sol\":2387:2428  _spendAllowance(from, msg.sender, amount) */\n      tag_82\n        /* \"ECR-20/feetoken.sol\":2403:2407  from */\n      dup5\n        /* \"ECR-20/feetoken.sol\":2409:2419  msg.sender */\n      caller\n        /* \"ECR-20/feetoken.sol\":2421:2427  amount */\n      dup5\n        /* \"ECR-20/feetoken.sol\":2387:2402  _spendAllowance */\n      tag_83\n        /* \"ECR-20/feetoken.sol\":2387:2428  _spendAllowance(from, msg.sender, amount) */\n      jump\t// in\n    tag_82:\n        /* \"ECR-20/feetoken.sol\":2439:2473  _transferWithFee(from, to, amount) */\n      tag_84\n        /* \"ECR-20/feetoken.sol\":2456:2460  from */\n      dup5\n        /* \"ECR-20/feetoken.sol\":2462:2464  to */\n      dup5\n        /* \"ECR-20/feetoken.sol\":2466:2472  amount */\n      dup5\n        /* \"ECR-20/feetoken.sol\":2439:2455  _transferWithFee */\n      tag_85\n        /* \"ECR-20/feetoken.sol\":2439:2473  _transferWithFee(from, to, amount) */\n      jump\t// in\n    tag_84:\n        /* \"ECR-20/feetoken.sol\":2491:2495  true */\n      0x01\n        /* \"ECR-20/feetoken.sol\":2484:2495  return true */\n      swap1\n      pop\n        /* \"ECR-20/feetoken.sol\":2290:2503  function transferFrom(address from, address to, uint256 amount) public returns (bool) {... */\n      swap4\n      swap3\n      pop\n      pop\n      pop\n      jump\t// out\n        /* \"ECR-20/feetoken.sol\":175:196  uint8 public decimals */\n    tag_38:\n      0x02\n      0x00\n      swap1\n      sload\n      swap1\n      0x0100\n      exp\n      swap1\n      div\n      0xff\n      and\n      dup2\n      jump\t// out\n        /* \"ECR-20/feetoken.sol\":1699:1809  function balanceOf(address account) public view returns (uint256) {... */\n    tag_44:\n        /* \"ECR-20/feetoken.sol\":1756:1763  uint256 */\n      0x00\n        /* \"ECR-20/feetoken.sol\":1783:1792  _balances */\n      0x04\n        /* \"ECR-20/feetoken.sol\":1783:1801  _balances[account] */\n      0x00\n        /* \"ECR-20/feetoken.sol\":1793:1800  account */\n      dup4\n        /* \"ECR-20/feetoken.sol\":1783:1801  _balances[account] */\n      0xffffffffffffffffffffffffffffffffffffffff\n      and\n      0xffffffffffffffffffffffffffffffffffffffff\n      and\n      dup2\n      mstore\n      0x20\n      add\n      swap1\n      dup2\n      mstore\n      0x20\n      add\n      0x00\n      keccak256\n      sload\n        /* \"ECR-20/feetoken.sol\":1776:1801  return _balances[account] */\n      swap1\n      pop\n        /* \"ECR-20/feetoken.sol\":1699:1809  function balanceOf(address account) public view returns (uint256) {... */\n      swap2\n      swap1\n      pop\n      jump\t// out\n        /* \"ECR-20/feetoken.sol\":4289:4436  function updateFee(uint256 newFee) public onlyFeeCollector {... */\n    tag_49:\n        /* \"ECR-20/feetoken.sol\":1001:1013  feeCollector */\n      0x06\n      0x00\n      swap1\n      sload\n      swap1\n      0x0100\n      exp\n      swap1\n      div\n      0xffffffffffffffffffffffffffffffffffffffff\n      and\n        /* \"ECR-20/feetoken.sol\":987:1013  msg.sender == feeCollector */\n      0xffffffffffffffffffffffffffffffffffffffff\n      and\n        /* \"ECR-20/feetoken.sol\":987:997  msg.sender */\n      caller\n        /* \"ECR-20/feetoken.sol\":987:1013  msg.sender == feeCollector */\n      0xffffffffffffffffffffffffffffffffffffffff\n      and\n      eq\n        /* \"ECR-20/feetoken.sol\":979:1035  require(msg.sender == feeCollector, \"Not fee collector\") */\n      tag_88\n      jumpi\n      mload(0x40)\n      0x08c379a000000000000000000000000000000000000000000000000000000000\n      dup2\n      mstore\n      0x04\n      add\n      tag_89\n      swap1\n      tag_90\n      jump\t// in\n    tag_89:\n      mload(0x40)\n      dup1\n      swap2\n      sub\n      swap1\n      revert\n    tag_88:\n        /* \"ECR-20/feetoken.sol\":4372:4376  1000 */\n      0x03e8\n        /* \"ECR-20/feetoken.sol\":4363:4369  newFee */\n      dup2\n        /* \"ECR-20/feetoken.sol\":4363:4376  newFee > 1000 */\n      gt\n        /* \"ECR-20/feetoken.sol\":4359:4397  if (newFee > 1000) revert InvalidFee() */\n      iszero\n      tag_92\n      jumpi\n        /* \"ECR-20/feetoken.sol\":4385:4397  InvalidFee() */\n      mload(0x40)\n      0x58d620b300000000000000000000000000000000000000000000000000000000\n      dup2\n      mstore\n      0x04\n      add\n      mload(0x40)\n      dup1\n      swap2\n      sub\n      swap1\n      revert\n        /* \"ECR-20/feetoken.sol\":4359:4397  if (newFee > 1000) revert InvalidFee() */\n    tag_92:\n        /* \"ECR-20/feetoken.sol\":4422:4428  newFee */\n      dup1\n        /* \"ECR-20/feetoken.sol\":4408:4419  transferFee */\n      0x07\n        /* \"ECR-20/feetoken.sol\":4408:4428  transferFee = newFee */\n      dup2\n      swap1\n      sstore\n      pop\n        /* \"ECR-20/feetoken.sol\":4289:4436  function updateFee(uint256 newFee) public onlyFeeCollector {... */\n      pop\n      jump\t// out\n        /* \"ECR-20/feetoken.sol\":148:168  string public symbol */\n    tag_51:\n      0x01\n      dup1\n      sload\n      tag_93\n      swap1\n      tag_73\n      jump\t// in\n    tag_93:\n      dup1\n      0x1f\n      add\n      0x20\n      dup1\n      swap2\n      div\n      mul\n      0x20\n      add\n      mload(0x40)\n      swap1\n      dup2\n      add\n      0x40\n      mstore\n      dup1\n      swap3\n      swap2\n      swap1\n      dup2\n      dup2\n      mstore\n      0x20\n      add\n      dup3\n      dup1\n      sload\n      tag_94\n      swap1\n      tag_73\n      jump\t// in\n    tag_94:\n      dup1\n      iszero\n      tag_95\n      jumpi\n      dup1\n      0x1f\n      lt\n      tag_96\n      jumpi\n      0x0100\n      dup1\n      dup4\n      sload\n      div\n      mul\n      dup4\n      mstore\n      swap2\n      0x20\n      add\n      swap2\n      jump(tag_95)\n    tag_96:\n      dup3\n      add\n      swap2\n      swap1\n      0x00\n      mstore\n      keccak256(0x00, 0x20)\n      swap1\n    tag_97:\n      dup2\n      sload\n      dup2\n      mstore\n      swap1\n      0x01\n      add\n      swap1\n      0x20\n      add\n      dup1\n      dup4\n      gt\n      tag_97\n      jumpi\n      dup3\n      swap1\n      sub\n      0x1f\n      and\n      dup3\n      add\n      swap2\n    tag_95:\n      pop\n      pop\n      pop\n      pop\n      pop\n      dup2\n      jump\t// out\n        /* \"ECR-20/feetoken.sol\":1821:1970  function transfer(address to, uint256 amount) public returns (bool) {... */\n    tag_55:\n        /* \"ECR-20/feetoken.sol\":1883:1887  bool */\n      0x00\n        /* \"ECR-20/feetoken.sol\":1900:1940  _transferWithFee(msg.sender, to, amount) */\n      tag_99\n        /* \"ECR-20/feetoken.sol\":1917:1927  msg.sender */\n      caller\n        /* \"ECR-20/feetoken.sol\":1929:1931  to */\n      dup5\n        /* \"ECR-20/feetoken.sol\":1933:1939  amount */\n      dup5\n        /* \"ECR-20/feetoken.sol\":1900:1916  _transferWithFee */\n      tag_85\n        /* \"ECR-20/feetoken.sol\":1900:1940  _transferWithFee(msg.sender, to, amount) */\n      jump\t// in\n    tag_99:\n        /* \"ECR-20/feetoken.sol\":1958:1962  true */\n      0x01\n        /* \"ECR-20/feetoken.sol\":1951:1962  return true */\n      swap1\n      pop\n        /* \"ECR-20/feetoken.sol\":1821:1970  function transfer(address to, uint256 amount) public returns (bool) {... */\n      swap3\n      swap2\n      pop\n      pop\n      jump\t// out\n        /* \"ECR-20/feetoken.sol\":458:484  uint256 public transferFee */\n    tag_58:\n      sload(0x07)\n      dup2\n      jump\t// out\n        /* \"ECR-20/feetoken.sol\":424:451  address public feeCollector */\n    tag_61:\n      0x06\n      0x00\n      swap1\n      sload\n      swap1\n      0x0100\n      exp\n      swap1\n      div\n      0xffffffffffffffffffffffffffffffffffffffff\n      and\n      dup2\n      jump\t// out\n        /* \"ECR-20/feetoken.sol\":4448:4631  function updateFeeCollector(address newCollector) public onlyFeeCollector {... */\n    tag_66:\n        /* \"ECR-20/feetoken.sol\":1001:1013  feeCollector */\n      0x06\n      0x00\n      swap1\n      sload\n      swap1\n      0x0100\n      exp\n      swap1\n      div\n      0xffffffffffffffffffffffffffffffffffffffff\n      and\n        /* \"ECR-20/feetoken.sol\":987:1013  msg.sender == feeCollector */\n      0xffffffffffffffffffffffffffffffffffffffff\n      and\n        /* \"ECR-20/feetoken.sol\":987:997  msg.sender */\n      caller\n        /* \"ECR-20/feetoken.sol\":987:1013  msg.sender == feeCollector */\n      0xffffffffffffffffffffffffffffffffffffffff\n      and\n      eq\n        /* \"ECR-20/feetoken.sol\":979:1035  require(msg.sender == feeCollector, \"Not fee collector\") */\n      tag_101\n      jumpi\n      mload(0x40)\n      0x08c379a000000000000000000000000000000000000000000000000000000000\n      dup2\n      mstore\n      0x04\n      add\n      tag_102\n      swap1\n      tag_90\n      jump\t// in\n    tag_102:\n      mload(0x40)\n      dup1\n      swap2\n      sub\n      swap1\n      revert\n    tag_101:\n        /* \"ECR-20/feetoken.sol\":4561:4562  0 */\n      0x00\n        /* \"ECR-20/feetoken.sol\":4537:4563  newCollector == address(0) */\n      0xffffffffffffffffffffffffffffffffffffffff\n      and\n        /* \"ECR-20/feetoken.sol\":4537:4549  newCollector */\n      dup2\n        /* \"ECR-20/feetoken.sol\":4537:4563  newCollector == address(0) */\n      0xffffffffffffffffffffffffffffffffffffffff\n      and\n      sub\n        /* \"ECR-20/feetoken.sol\":4533:4585  if (newCollector == address(0)) revert ZeroAddress() */\n      tag_104\n      jumpi\n        /* \"ECR-20/feetoken.sol\":4572:4585  ZeroAddress() */\n      mload(0x40)\n      0xd92e233d00000000000000000000000000000000000000000000000000000000\n      dup2\n      mstore\n      0x04\n      add\n      mload(0x40)\n      dup1\n      swap2\n      sub\n      swap1\n      revert\n        /* \"ECR-20/feetoken.sol\":4533:4585  if (newCollector == address(0)) revert ZeroAddress() */\n    tag_104:\n        /* \"ECR-20/feetoken.sol\":4611:4623  newCollector */\n      dup1\n        /* \"ECR-20/feetoken.sol\":4596:4608  feeCollector */\n      0x06\n      0x00\n        /* \"ECR-20/feetoken.sol\":4596:4623  feeCollector = newCollector */\n      0x0100\n      exp\n      dup2\n      sload\n      dup2\n      0xffffffffffffffffffffffffffffffffffffffff\n      mul\n      not\n      and\n      swap1\n      dup4\n      0xffffffffffffffffffffffffffffffffffffffff\n      and\n      mul\n      or\n      swap1\n      sstore\n      pop\n        /* \"ECR-20/feetoken.sol\":4448:4631  function updateFeeCollector(address newCollector) public onlyFeeCollector {... */\n      pop\n      jump\t// out\n        /* \"ECR-20/feetoken.sol\":1982:2116  function allowance(address owner, address spender) public view returns (uint256) {... */\n    tag_70:\n        /* \"ECR-20/feetoken.sol\":2054:2061  uint256 */\n      0x00\n        /* \"ECR-20/feetoken.sol\":2081:2092  _allowances */\n      0x05\n        /* \"ECR-20/feetoken.sol\":2081:2099  _allowances[owner] */\n      0x00\n        /* \"ECR-20/feetoken.sol\":2093:2098  owner */\n      dup5\n        /* \"ECR-20/feetoken.sol\":2081:2099  _allowances[owner] */\n      0xffffffffffffffffffffffffffffffffffffffff\n      and\n      0xffffffffffffffffffffffffffffffffffffffff\n      and\n      dup2\n      mstore\n      0x20\n      add\n      swap1\n      dup2\n      mstore\n      0x20\n      add\n      0x00\n      keccak256\n        /* \"ECR-20/feetoken.sol\":2081:2108  _allowances[owner][spender] */\n      0x00\n        /* \"ECR-20/feetoken.sol\":2100:2107  spender */\n      dup4\n        /* \"ECR-20/feetoken.sol\":2081:2108  _allowances[owner][spender] */\n      0xffffffffffffffffffffffffffffffffffffffff\n      and\n      0xffffffffffffffffffffffffffffffffffffffff\n      and\n      dup2\n      mstore\n      0x20\n      add\n      swap1\n      dup2\n      mstore\n      0x20\n      add\n      0x00\n      keccak256\n      sload\n        /* \"ECR-20/feetoken.sol\":2074:2108  return _allowances[owner][spender] */\n      swap1\n      pop\n        /* \"ECR-20/feetoken.sol\":1982:2116  function allowance(address owner, address spender) public view returns (uint256) {... */\n      swap3\n      swap2\n      pop\n      pop\n      jump\t// out\n        /* \"ECR-20/feetoken.sol\":3560:3862  function _approve(address owner, address spender, uint256 amount) internal {... */\n    tag_80:\n        /* \"ECR-20/feetoken.sol\":3667:3668  0 */\n      0x00\n        /* \"ECR-20/feetoken.sol\":3650:3669  owner == address(0) */\n      0xffffffffffffffffffffffffffffffffffffffff\n      and\n        /* \"ECR-20/feetoken.sol\":3650:3655  owner */\n      dup4\n        /* \"ECR-20/feetoken.sol\":3650:3669  owner == address(0) */\n      0xffffffffffffffffffffffffffffffffffffffff\n      and\n      sub\n        /* \"ECR-20/feetoken.sol\":3646:3691  if (owner == address(0)) revert ZeroAddress() */\n      tag_107\n      jumpi\n        /* \"ECR-20/feetoken.sol\":3678:3691  ZeroAddress() */\n      mload(0x40)\n      0xd92e233d00000000000000000000000000000000000000000000000000000000\n      dup2\n      mstore\n      0x04\n      add\n      mload(0x40)\n      dup1\n      swap2\n      sub\n      swap1\n      revert\n        /* \"ECR-20/feetoken.sol\":3646:3691  if (owner == address(0)) revert ZeroAddress() */\n    tag_107:\n        /* \"ECR-20/feetoken.sol\":3725:3726  0 */\n      0x00\n        /* \"ECR-20/feetoken.sol\":3706:3727  spender == address(0) */\n      0xffffffffffffffffffffffffffffffffffffffff\n      and\n        /* \"ECR-20/feetoken.sol\":3706:3713  spender */\n      dup3\n        /* \"ECR-20/feetoken.sol\":3706:3727  spender == address(0) */\n      0xffffffffffffffffffffffffffffffffffffffff\n      and\n      sub\n        /* \"ECR-20/feetoken.sol\":3702:3749  if (spender == address(0)) revert ZeroAddress() */\n      tag_108\n      jumpi\n        /* \"ECR-20/feetoken.sol\":3736:3749  ZeroAddress() */\n      mload(0x40)\n      0xd92e233d00000000000000000000000000000000000000000000000000000000\n      dup2\n      mstore\n      0x04\n      add\n      mload(0x40)\n      dup1\n      swap2\n      sub\n      swap1\n      revert\n        /* \"ECR-20/feetoken.sol\":3702:3749  if (spender == address(0)) revert ZeroAddress() */\n    tag_108:\n        /* \"ECR-20/feetoken.sol\":3800:3806  amount */\n      dup1\n        /* \"ECR-20/feetoken.sol\":3770:3781  _allowances */\n      0x05\n        /* \"ECR-20/feetoken.sol\":3770:3788  _allowances[owner] */\n      0x00\n        /* \"ECR-20/feetoken.sol\":3782:3787  owner */\n      dup6\n        /* \"ECR-20/feetoken.sol\":3770:3788  _allowances[owner] */\n      0xffffffffffffffffffffffffffffffffffffffff\n      and\n      0xffffffffffffffffffffffffffffffffffffffff\n      and\n      dup2\n      mstore\n      0x20\n      add\n      swap1\n      dup2\n      mstore\n      0x20\n      add\n      0x00\n      keccak256\n        /* \"ECR-20/feetoken.sol\":3770:3797  _allowances[owner][spender] */\n      0x00\n        /* \"ECR-20/feetoken.sol\":3789:3796  spender */\n      dup5\n        /* \"ECR-20/feetoken.sol\":3770:3797  _allowances[owner][spender] */\n      0xffffffffffffffffffffffffffffffffffffffff\n      and\n      0xffffffffffffffffffffffffffffffffffffffff\n      and\n      dup2\n      mstore\n      0x20\n      add\n      swap1\n      dup2\n      mstore\n      0x20\n      add\n      0x00\n      keccak256\n        /* \"ECR-20/feetoken.sol\":3770:3806  _allowances[owner][spender] = amount */\n      dup2\n      swap1\n      sstore\n      pop\n        /* \"ECR-20/feetoken.sol\":3838:3845  spender */\n      dup2\n        /* \"ECR-20/feetoken.sol\":3822:3854  Approval(owner, spender, amount) */\n      0xffffffffffffffffffffffffffffffffffffffff\n      and\n        /* \"ECR-20/feetoken.sol\":3831:3836  owner */\n      dup4\n        /* \"ECR-20/feetoken.sol\":3822:3854  Approval(owner, spender, amount) */\n      0xffffffffffffffffffffffffffffffffffffffff\n      and\n      0x8c5be1e5ebec7d5bd14f71427d1e84f3dd0314c0f7b2291e5b200ac8c7c3b925\n        /* \"ECR-20/feetoken.sol\":3847:3853  amount */\n      dup4\n        /* \"ECR-20/feetoken.sol\":3822:3854  Approval(owner, spender, amount) */\n      mload(0x40)\n      tag_109\n      swap2\n      swap1\n      tag_31\n      jump\t// in\n    tag_109:\n      mload(0x40)\n      dup1\n      swap2\n      sub\n      swap1\n      log3\n        /* \"ECR-20/feetoken.sol\":3560:3862  function _approve(address owner, address spender, uint256 amount) internal {... */\n      pop\n      pop\n      pop\n      jump\t// out\n        /* \"ECR-20/feetoken.sol\":3874:4232  function _spendAllowance(address owner, address spender, uint256 amount) internal {... */\n    tag_83:\n        /* \"ECR-20/feetoken.sol\":3967:3991  uint256 currentAllowance */\n      0x00\n        /* \"ECR-20/feetoken.sol\":3994:4019  allowance(owner, spender) */\n      tag_111\n        /* \"ECR-20/feetoken.sol\":4004:4009  owner */\n      dup5\n        /* \"ECR-20/feetoken.sol\":4011:4018  spender */\n      dup5\n        /* \"ECR-20/feetoken.sol\":3994:4003  allowance */\n      tag_70\n        /* \"ECR-20/feetoken.sol\":3994:4019  allowance(owner, spender) */\n      jump\t// in\n    tag_111:\n        /* \"ECR-20/feetoken.sol\":3967:4019  uint256 currentAllowance = allowance(owner, spender) */\n      swap1\n      pop\n        /* \"ECR-20/feetoken.sol\":4054:4071  type(uint256).max */\n      0xffffffffffffffffffffffffffffffffffffffffffffffffffffffffffffffff\n        /* \"ECR-20/feetoken.sol\":4034:4050  currentAllowance */\n      dup2\n        /* \"ECR-20/feetoken.sol\":4034:4071  currentAllowance != type(uint256).max */\n      eq\n        /* \"ECR-20/feetoken.sol\":4030:4225  if (currentAllowance != type(uint256).max) {... */\n      tag_112\n      jumpi\n        /* \"ECR-20/feetoken.sol\":4111:4117  amount */\n      dup2\n        /* \"ECR-20/feetoken.sol\":4092:4108  currentAllowance */\n      dup2\n        /* \"ECR-20/feetoken.sol\":4092:4117  currentAllowance < amount */\n      lt\n        /* \"ECR-20/feetoken.sol\":4088:4147  if (currentAllowance < amount) revert InsufficientBalance() */\n      iszero\n      tag_113\n      jumpi\n        /* \"ECR-20/feetoken.sol\":4126:4147  InsufficientBalance() */\n      mload(0x40)\n      0xf4d678b800000000000000000000000000000000000000000000000000000000\n      dup2\n      mstore\n      0x04\n      add\n      mload(0x40)\n      dup1\n      swap2\n      sub\n      swap1\n      revert\n        /* \"ECR-20/feetoken.sol\":4088:4147  if (currentAllowance < amount) revert InsufficientBalance() */\n    tag_113:\n        /* \"ECR-20/feetoken.sol\":4162:4213  _approve(owner, spender, currentAllowance - amount) */\n      tag_114\n        /* \"ECR-20/feetoken.sol\":4171:4176  owner */\n      dup5\n        /* \"ECR-20/feetoken.sol\":4178:4185  spender */\n      dup5\n        /* \"ECR-20/feetoken.sol\":4206:4212  amount */\n      dup5\n        /* \"ECR-20/feetoken.sol\":4187:4203  currentAllowance */\n      dup5\n        /* \"ECR-20/feetoken.sol\":4187:4212  currentAllowance - amount */\n      tag_115\n      swap2\n      swap1\n      tag_116\n      jump\t// in\n    tag_115:\n        /* \"ECR-20/feetoken.sol\":4162:4170  _approve */\n      tag_80\n        /* \"ECR-20/feetoken.sol\":4162:4213  _approve(owner, spender, currentAllowance - amount) */\n      jump\t// in\n    tag_114:\n        /* \"ECR-20/feetoken.sol\":4030:4225  if (currentAllowance != type(uint256).max) {... */\n    tag_112:\n        /* \"ECR-20/feetoken.sol\":3956:4232  {... */\n      pop\n        /* \"ECR-20/feetoken.sol\":3874:4232  function _spendAllowance(address owner, address spender, uint256 amount) internal {... */\n      pop\n      pop\n      pop\n      jump\t// out\n        /* \"ECR-20/feetoken.sol\":2561:3499  function _transferWithFee(address from, address to, uint256 amount) internal {... */\n    tag_85:\n        /* \"ECR-20/feetoken.sol\":2669:2670  0 */\n      0x00\n        /* \"ECR-20/feetoken.sol\":2653:2671  from == address(0) */\n      0xffffffffffffffffffffffffffffffffffffffff\n      and\n        /* \"ECR-20/feetoken.sol\":2653:2657  from */\n      dup4\n        /* \"ECR-20/feetoken.sol\":2653:2671  from == address(0) */\n      0xffffffffffffffffffffffffffffffffffffffff\n      and\n      sub\n        /* \"ECR-20/feetoken.sol\":2649:2693  if (from == address(0)) revert ZeroAddress() */\n      tag_118\n      jumpi\n        /* \"ECR-20/feetoken.sol\":2680:2693  ZeroAddress() */\n      mload(0x40)\n      0xd92e233d00000000000000000000000000000000000000000000000000000000\n      dup2\n      mstore\n      0x04\n      add\n      mload(0x40)\n      dup1\n      swap2\n      sub\n      swap1\n      revert\n        /* \"ECR-20/feetoken.sol\":2649:2693  if (from == address(0)) revert ZeroAddress() */\n    tag_118:\n        /* \"ECR-20/feetoken.sol\":2722:2723  0 */\n      0x00\n        /* \"ECR-20/feetoken.sol\":2708:2724  to == address(0) */\n      0xffffffffffffffffffffffffffffffffffffffff\n      and\n        /* \"ECR-20/feetoken.sol\":2708:2710  to */\n      dup3\n        /* \"ECR-20/feetoken.sol\":2708:2724  to == address(0) */\n      0xffffffffffffffffffffffffffffffffffffffff\n      and\n      sub\n        /* \"ECR-20/feetoken.sol\":2704:2746  if (to == address(0)) revert ZeroAddress() */\n      tag_119\n      jumpi\n        /* \"ECR-20/feetoken.sol\":2733:2746  ZeroAddress() */\n      mload(0x40)\n      0xd92e233d00000000000000000000000000000000000000000000000000000000\n      dup2\n      mstore\n      0x04\n      add\n      mload(0x40)\n      dup1\n      swap2\n      sub\n      swap1\n      revert\n        /* \"ECR-20/feetoken.sol\":2704:2746  if (to == address(0)) revert ZeroAddress() */\n    tag_119:\n        /* \"ECR-20/feetoken.sol\":2767:2786  uint256 fromBalance */\n      0x00\n        /* \"ECR-20/feetoken.sol\":2789:2798  _balances */\n      0x04\n        /* \"ECR-20/feetoken.sol\":2789:2804  _balances[from] */\n      0x00\n        /* \"ECR-20/feetoken.sol\":2799:2803  from */\n      dup6\n        /* \"ECR-20/feetoken.sol\":2789:2804  _balances[from] */\n      0xffffffffffffffffffffffffffffffffffffffff\n      and\n      0xffffffffffffffffffffffffffffffffffffffff\n      and\n      dup2\n      mstore\n      0x20\n      add\n      swap1\n      dup2\n      mstore\n      0x20\n      add\n      0x00\n      keccak256\n      sload\n        /* \"ECR-20/feetoken.sol\":2767:2804  uint256 fromBalance = _balances[from] */\n      swap1\n      pop\n        /* \"ECR-20/feetoken.sol\":2833:2839  amount */\n      dup2\n        /* \"ECR-20/feetoken.sol\":2819:2830  fromBalance */\n      dup2\n        /* \"ECR-20/feetoken.sol\":2819:2839  fromBalance < amount */\n      lt\n        /* \"ECR-20/feetoken.sol\":2815:2869  if (fromBalance < amount) revert InsufficientBalance() */\n      iszero\n      tag_120\n      jumpi\n        /* \"ECR-20/feetoken.sol\":2848:2869  InsufficientBalance() */\n      mload(0x40)\n      0xf4d678b800000000000000000000000000000000000000000000000000000000\n      dup2\n      mstore\n      0x04\n      add\n      mload(0x40)\n      dup1\n      swap2\n      sub\n      swap1\n      revert\n        /* \"ECR-20/feetoken.sol\":2815:2869  if (fromBalance < amount) revert InsufficientBalance() */\n    tag_120:\n        /* \"ECR-20/feetoken.sol\":2928:2945  uint256 feeAmount */\n      0x00\n        /* \"ECR-20/feetoken.sol\":2973:2978  10000 */\n      0x2710\n        /* \"ECR-20/feetoken.sol\":2958:2969  transferFee */\n      sload(0x07)\n        /* \"ECR-20/feetoken.sol\":2949:2955  amount */\n      dup5\n        /* \"ECR-20/feetoken.sol\":2949:2969  amount * transferFee */\n      tag_121\n      swap2\n      swap1\n      tag_122\n      jump\t// in\n    tag_121:\n        /* \"ECR-20/feetoken.sol\":2948:2978  (amount * transferFee) / 10000 */\n      tag_123\n      swap2\n      swap1\n      tag_124\n      jump\t// in\n    tag_123:\n        /* \"ECR-20/feetoken.sol\":2928:2978  uint256 feeAmount = (amount * transferFee) / 10000 */\n      swap1\n      pop\n        /* \"ECR-20/feetoken.sol\":2989:3006  uint256 netAmount */\n      0x00\n        /* \"ECR-20/feetoken.sol\":3018:3027  feeAmount */\n      dup2\n        /* \"ECR-20/feetoken.sol\":3009:3015  amount */\n      dup5\n        /* \"ECR-20/feetoken.sol\":3009:3027  amount - feeAmount */\n      tag_125\n      swap2\n      swap1\n      tag_116\n      jump\t// in\n    tag_125:\n        /* \"ECR-20/feetoken.sol\":2989:3027  uint256 netAmount = amount - feeAmount */\n      swap1\n      pop\n        /* \"ECR-20/feetoken.sol\":3108:3114  amount */\n      dup4\n        /* \"ECR-20/feetoken.sol\":3094:3105  fromBalance */\n      dup4\n        /* \"ECR-20/feetoken.sol\":3094:3114  fromBalance - amount */\n      tag_126\n      swap2\n      swap1\n      tag_116\n      jump\t// in\n    tag_126:\n        /* \"ECR-20/feetoken.sol\":3076:3085  _balances */\n      0x04\n        /* \"ECR-20/feetoken.sol\":3076:3091  _balances[from] */\n      0x00\n        /* \"ECR-20/feetoken.sol\":3086:3090  from */\n      dup9\n        /* \"ECR-20/feetoken.sol\":3076:3091  _balances[from] */\n      0xffffffffffffffffffffffffffffffffffffffff\n      and\n      0xffffffffffffffffffffffffffffffffffffffff\n      and\n      dup2\n      mstore\n      0x20\n      add\n      swap1\n      dup2\n      mstore\n      0x20\n      add\n      0x00\n      keccak256\n        /* \"ECR-20/feetoken.sol\":3076:3114  _balances[from] = fromBalance - amount */\n      dup2\n      swap1\n      sstore\n      pop\n        /* \"ECR-20/feetoken.sol\":3142:3151  netAmount */\n      dup1\n        /* \"ECR-20/feetoken.sol\":3125:3134  _balances */\n      0x04\n        /* \"ECR-20/feetoken.sol\":3125:3138  _balances[to] */\n      0x00\n        /* \"ECR-20/feetoken.sol\":3135:3137  to */\n      dup8\n        /* \"ECR-20/feetoken.sol\":3125:3138  _balances[to] */\n      0xffffffffffffffffffffffffffffffffffffffff\n      and\n      0xffffffffffffffffffffffffffffffffffffffff\n      and\n      dup2\n      mstore\n      0x20\n      add\n      swap1\n      dup2\n      mstore\n      0x20\n      add\n      0x00\n      keccak256\n      0x00\n        /* \"ECR-20/feetoken.sol\":3125:3151  _balances[to] += netAmount */\n      dup3\n      dup3\n      sload\n      tag_127\n      swap2\n      swap1\n      tag_128\n      jump\t// in\n    tag_127:\n      swap3\n      pop\n      pop\n      dup2\n      swap1\n      sstore\n      pop\n        /* \"ECR-20/feetoken.sol\":3222:3223  0 */\n      0x00\n        /* \"ECR-20/feetoken.sol\":3210:3219  feeAmount */\n      dup3\n        /* \"ECR-20/feetoken.sol\":3210:3223  feeAmount > 0 */\n      gt\n        /* \"ECR-20/feetoken.sol\":3206:3337  if (feeAmount > 0) {... */\n      iszero\n      tag_129\n      jumpi\n        /* \"ECR-20/feetoken.sol\":3267:3276  feeAmount */\n      dup2\n        /* \"ECR-20/feetoken.sol\":3240:3249  _balances */\n      0x04\n        /* \"ECR-20/feetoken.sol\":3240:3263  _balances[feeCollector] */\n      0x00\n        /* \"ECR-20/feetoken.sol\":3250:3262  feeCollector */\n      0x06\n      0x00\n      swap1\n      sload\n      swap1\n      0x0100\n      exp\n      swap1\n      div\n      0xffffffffffffffffffffffffffffffffffffffff\n      and\n        /* \"ECR-20/feetoken.sol\":3240:3263  _balances[feeCollector] */\n      0xffffffffffffffffffffffffffffffffffffffff\n      and\n      0xffffffffffffffffffffffffffffffffffffffff\n      and\n      dup2\n      mstore\n      0x20\n      add\n      swap1\n      dup2\n      mstore\n      0x20\n      add\n      0x00\n      keccak256\n      0x00\n        /* \"ECR-20/feetoken.sol\":3240:3276  _balances[feeCollector] += feeAmount */\n      dup3\n      dup3\n      sload\n      tag_130\n      swap2\n      swap1\n      tag_128\n      jump\t// in\n    tag_130:\n      swap3\n      pop\n      pop\n      dup2\n      swap1\n      sstore\n      pop\n        /* \"ECR-20/feetoken.sol\":3309:3313  from */\n      dup6\n        /* \"ECR-20/feetoken.sol\":3296:3325  FeeCollected(from, feeAmount) */\n      0xffffffffffffffffffffffffffffffffffffffff\n      and\n      0x06c5efeff5c320943d265dc4e5f1af95ad523555ce0c1957e367dda5514572df\n        /* \"ECR-20/feetoken.sol\":3315:3324  feeAmount */\n      dup4\n        /* \"ECR-20/feetoken.sol\":3296:3325  FeeCollected(from, feeAmount) */\n      mload(0x40)\n      tag_131\n      swap2\n      swap1\n      tag_31\n      jump\t// in\n    tag_131:\n      mload(0x40)\n      dup1\n      swap2\n      sub\n      swap1\n      log2\n        /* \"ECR-20/feetoken.sol\":3206:3337  if (feeAmount > 0) {... */\n    tag_129:\n        /* \"ECR-20/feetoken.sol\":3377:3379  to */\n      dup5\n        /* \"ECR-20/feetoken.sol\":3362:3391  Transfer(from, to, netAmount) */\n      0xffffffffffffffffffffffffffffffffffffffff\n      and\n        /* \"ECR-20/feetoken.sol\":3371:3375  from */\n      dup7\n        /* \"ECR-20/feetoken.sol\":3362:3391  Transfer(from, to, netAmount) */\n      0xffffffffffffffffffffffffffffffffffffffff\n      and\n      0xddf252ad1be2c89b69c2b068fc378daa952ba7f163c4a11628f55a4df523b3ef\n        /* \"ECR-20/feetoken.sol\":3381:3390  netAmount */\n      dup4\n        /* \"ECR-20/feetoken.sol\":3362:3391  Transfer(from, to, netAmount) */\n      mload(0x40)\n      tag_132\n      swap2\n      swap1\n      tag_31\n      jump\t// in\n    tag_132:\n      mload(0x40)\n      dup1\n      swap2\n      sub\n      swap1\n      log3\n        /* \"ECR-20/feetoken.sol\":3418:3419  0 */\n      0x00\n        /* \"ECR-20/feetoken.sol\":3406:3415  feeAmount */\n      dup3\n        /* \"ECR-20/feetoken.sol\":3406:3419  feeAmount > 0 */\n      gt\n        /* \"ECR-20/feetoken.sol\":3402:3492  if (feeAmount > 0) {... */\n      iszero\n      tag_133\n      jumpi\n        /* \"ECR-20/feetoken.sol\":3456:3468  feeCollector */\n      0x06\n      0x00\n      swap1\n      sload\n      swap1\n      0x0100\n      exp\n      swap1\n      div\n      0xffffffffffffffffffffffffffffffffffffffff\n      and\n        /* \"ECR-20/feetoken.sol\":3441:3480  Transfer(from, feeCollector, feeAmount) */\n      0xffffffffffffffffffffffffffffffffffffffff\n      and\n        /* \"ECR-20/feetoken.sol\":3450:3454  from */\n      dup7\n        /* \"ECR-20/feetoken.sol\":3441:3480  Transfer(from, feeCollector, feeAmount) */\n      0xffffffffffffffffffffffffffffffffffffffff\n      and\n      0xddf252ad1be2c89b69c2b068fc378daa952ba7f163c4a11628f55a4df523b3ef\n        /* \"ECR-20/feetoken.sol\":3470:3479  feeAmount */\n      dup5\n        /* \"ECR-20/feetoken.sol\":3441:3480  Transfer(from, feeCollector, feeAmount) */\n      mload(0x40)\n      tag_134\n      swap2\n      swap1\n      tag_31\n      jump\t// in\n    tag_134:\n      mload(0x40)\n      dup1\n      swap2\n      sub\n      swap1\n      log3\n        /* \"ECR-20/feetoken.sol\":3402:3492  if (feeAmount > 0) {... */\n    tag_133:\n        /* \"ECR-20/feetoken.sol\":2638:3499  {... */\n      pop\n      pop\n      pop\n        /* \"ECR-20/feetoken.sol\":2561:3499  function _transferWithFee(address from, address to, uint256 amount) internal {... */\n      pop\n      pop\n      pop\n      jump\t// out\n        /* \"#utility.yul\":7:106   */\n    tag_135:\n        /* \"#utility.yul\":59:65   */\n      0x00\n        /* \"#utility.yul\":93:98   */\n      dup2\n        /* \"#utility.yul\":87:99   */\n      mload\n        /* \"#utility.yul\":77:99   */\n      swap1\n      pop\n        /* \"#utility.yul\":7:106   */\n      swap2\n      swap1\n      pop\n      jump\t// out\n        /* \"#utility.yul\":112:281   */\n    tag_136:\n        /* \"#utility.yul\":196:207   */\n      0x00\n        /* \"#utility.yul\":230:236   */\n      dup3\n        /* \"#utility.yul\":225:228   */\n      dup3\n        /* \"#utility.yul\":218:237   */\n      mstore\n        /* \"#utility.yul\":270:274   */\n      0x20\n        /* \"#utility.yul\":265:268   */\n      dup3\n        /* \"#utility.yul\":261:275   */\n      add\n        /* \"#utility.yul\":246:275   */\n      swap1\n      pop\n        /* \"#utility.yul\":112:281   */\n      swap3\n      swap2\n      pop\n      pop\n      jump\t// out\n        /* \"#utility.yul\":287:426   */\n    tag_137:\n        /* \"#utility.yul\":376:382   */\n      dup3\n        /* \"#utility.yul\":371:374   */\n      dup2\n        /* \"#utility.yul\":366:369   */\n      dup4\n        /* \"#utility.yul\":360:383   */\n      mcopy\n        /* \"#utility.yul\":417:418   */\n      0x00\n        /* \"#utility.yul\":408:414   */\n      dup4\n        /* \"#utility.yul\":403:406   */\n      dup4\n        /* \"#utility.yul\":399:415   */\n      add\n        /* \"#utility.yul\":392:419   */\n      mstore\n        /* \"#utility.yul\":287:426   */\n      pop\n      pop\n      pop\n      jump\t// out\n        /* \"#utility.yul\":432:534   */\n    tag_138:\n        /* \"#utility.yul\":473:479   */\n      0x00\n        /* \"#utility.yul\":524:526   */\n      0x1f\n        /* \"#utility.yul\":520:527   */\n      not\n        /* \"#utility.yul\":515:517   */\n      0x1f\n        /* \"#utility.yul\":508:513   */\n      dup4\n        /* \"#utility.yul\":504:518   */\n      add\n        /* \"#utility.yul\":500:528   */\n      and\n        /* \"#utility.yul\":490:528   */\n      swap1\n      pop\n        /* \"#utility.yul\":432:534   */\n      swap2\n      swap1\n      pop\n      jump\t// out\n        /* \"#utility.yul\":540:917   */\n    tag_139:\n        /* \"#utility.yul\":628:631   */\n      0x00\n        /* \"#utility.yul\":656:695   */\n      tag_167\n        /* \"#utility.yul\":689:694   */\n      dup3\n        /* \"#utility.yul\":656:695   */\n      tag_135\n      jump\t// in\n    tag_167:\n        /* \"#utility.yul\":711:782   */\n      tag_168\n        /* \"#utility.yul\":775:781   */\n      dup2\n        /* \"#utility.yul\":770:773   */\n      dup6\n        /* \"#utility.yul\":711:782   */\n      tag_136\n      jump\t// in\n    tag_168:\n        /* \"#utility.yul\":704:782   */\n      swap4\n      pop\n        /* \"#utility.yul\":791:856   */\n      tag_169\n        /* \"#utility.yul\":849:855   */\n      dup2\n        /* \"#utility.yul\":844:847   */\n      dup6\n        /* \"#utility.yul\":837:841   */\n      0x20\n        /* \"#utility.yul\":830:835   */\n      dup7\n        /* \"#utility.yul\":826:842   */\n      add\n        /* \"#utility.yul\":791:856   */\n      tag_137\n      jump\t// in\n    tag_169:\n        /* \"#utility.yul\":881:910   */\n      tag_170\n        /* \"#utility.yul\":903:909   */\n      dup2\n        /* \"#utility.yul\":881:910   */\n      tag_138\n      jump\t// in\n    tag_170:\n        /* \"#utility.yul\":876:879   */\n      dup5\n        /* \"#utility.yul\":872:911   */\n      add\n        /* \"#utility.yul\":865:911   */\n      swap2\n      pop\n        /* \"#utility.yul\":632:917   */\n      pop\n        /* \"#utility.yul\":540:917   */\n      swap3\n      swap2\n      pop\n      pop\n      jump\t// out\n        /* \"#utility.yul\":923:1236   */\n    tag_21:\n        /* \"#utility.yul\":1036:1040   */\n      0x00\n        /* \"#utility.yul\":1074:1076   */\n      0x20\n        /* \"#utility.yul\":1063:1072   */\n      dup3\n        /* \"#utility.yul\":1059:1077   */\n      add\n        /* \"#utility.yul\":1051:1077   */\n      swap1\n      pop\n        /* \"#utility.yul\":1123:1132   */\n      dup2\n        /* \"#utility.yul\":1117:1121   */\n      dup2\n        /* \"#utility.yul\":1113:1133   */\n      sub\n        /* \"#utility.yul\":1109:1110   */\n      0x00\n        /* \"#utility.yul\":1098:1107   */\n      dup4\n        /* \"#utility.yul\":1094:1111   */\n      add\n        /* \"#utility.yul\":1087:1134   */\n      mstore\n        /* \"#utility.yul\":1151:1229   */\n      tag_172\n        /* \"#utility.yul\":1224:1228   */\n      dup2\n        /* \"#utility.yul\":1215:1221   */\n      dup5\n        /* \"#utility.yul\":1151:1229   */\n      tag_139\n      jump\t// in\n    tag_172:\n        /* \"#utility.yul\":1143:1229   */\n      swap1\n      pop\n        /* \"#utility.yul\":923:1236   */\n      swap3\n      swap2\n      pop\n      pop\n      jump\t// out\n        /* \"#utility.yul\":1323:1440   */\n    tag_141:\n        /* \"#utility.yul\":1432:1433   */\n      0x00\n        /* \"#utility.yul\":1429:1430   */\n      0x00\n        /* \"#utility.yul\":1422:1434   */\n      revert\n        /* \"#utility.yul\":1569:1695   */\n    tag_143:\n        /* \"#utility.yul\":1606:1613   */\n      0x00\n        /* \"#utility.yul\":1646:1688   */\n      0xffffffffffffffffffffffffffffffffffffffff\n        /* \"#utility.yul\":1639:1644   */\n      dup3\n        /* \"#utility.yul\":1635:1689   */\n      and\n        /* \"#utility.yul\":1624:1689   */\n      swap1\n      pop\n        /* \"#utility.yul\":1569:1695   */\n      swap2\n      swap1\n      pop\n      jump\t// out\n        /* \"#utility.yul\":1701:1797   */\n    tag_144:\n        /* \"#utility.yul\":1738:1745   */\n      0x00\n        /* \"#utility.yul\":1767:1791   */\n      tag_178\n        /* \"#utility.yul\":1785:1790   */\n      dup3\n        /* \"#utility.yul\":1767:1791   */\n      tag_143\n      jump\t// in\n    tag_178:\n        /* \"#utility.yul\":1756:1791   */\n      swap1\n      pop\n        /* \"#utility.yul\":1701:1797   */\n      swap2\n      swap1\n      pop\n      jump\t// out\n        /* \"#utility.yul\":1803:1925   */\n    tag_145:\n        /* \"#utility.yul\":1876:1900   */\n      tag_180\n        /* \"#utility.yul\":1894:1899   */\n      dup2\n        /* \"#utility.yul\":1876:1900   */\n      tag_144\n      jump\t// in\n    tag_180:\n        /* \"#utility.yul\":1869:1874   */\n      dup2\n        /* \"#utility.yul\":1866:1901   */\n      eq\n        /* \"#utility.yul\":1856:1919   */\n      tag_181\n      jumpi\n        /* \"#utility.yul\":1915:1916   */\n      0x00\n        /* \"#utility.yul\":1912:1913   */\n      0x00\n        /* \"#utility.yul\":1905:1917   */\n      revert\n        /* \"#utility.yul\":1856:1919   */\n    tag_181:\n        /* \"#utility.yul\":1803:1925   */\n      pop\n      jump\t// out\n        /* \"#utility.yul\":1931:2070   */\n    tag_146:\n        /* \"#utility.yul\":1977:1982   */\n      0x00\n        /* \"#utility.yul\":2015:2021   */\n      dup2\n        /* \"#utility.yul\":2002:2022   */\n      calldataload\n        /* \"#utility.yul\":1993:2022   */\n      swap1\n      pop\n        /* \"#utility.yul\":2031:2064   */\n      tag_183\n        /* \"#utility.yul\":2058:2063   */\n      dup2\n        /* \"#utility.yul\":2031:2064   */\n      tag_145\n      jump\t// in\n    tag_183:\n        /* \"#utility.yul\":1931:2070   */\n      swap3\n      swap2\n      pop\n      pop\n      jump\t// out\n        /* \"#utility.yul\":2076:2153   */\n    tag_147:\n        /* \"#utility.yul\":2113:2120   */\n      0x00\n        /* \"#utility.yul\":2142:2147   */\n      dup2\n        /* \"#utility.yul\":2131:2147   */\n      swap1\n      pop\n        /* \"#utility.yul\":2076:2153   */\n      swap2\n      swap1\n      pop\n      jump\t// out\n        /* \"#utility.yul\":2159:2281   */\n    tag_148:\n        /* \"#utility.yul\":2232:2256   */\n      tag_186\n        /* \"#utility.yul\":2250:2255   */\n      dup2\n        /* \"#utility.yul\":2232:2256   */\n      tag_147\n      jump\t// in\n    tag_186:\n        /* \"#utility.yul\":2225:2230   */\n      dup2\n        /* \"#utility.yul\":2222:2257   */\n      eq\n        /* \"#utility.yul\":2212:2275   */\n      tag_187\n      jumpi\n        /* \"#utility.yul\":2271:2272   */\n      0x00\n        /* \"#utility.yul\":2268:2269   */\n      0x00\n        /* \"#utility.yul\":2261:2273   */\n      revert\n        /* \"#utility.yul\":2212:2275   */\n    tag_187:\n        /* \"#utility.yul\":2159:2281   */\n      pop\n      jump\t// out\n        /* \"#utility.yul\":2287:2426   */\n    tag_149:\n        /* \"#utility.yul\":2333:2338   */\n      0x00\n        /* \"#utility.yul\":2371:2377   */\n      dup2\n        /* \"#utility.yul\":2358:2378   */\n      calldataload\n        /* \"#utility.yul\":2349:2378   */\n      swap1\n      pop\n        /* \"#utility.yul\":2387:2420   */\n      tag_189\n        /* \"#utility.yul\":2414:2419   */\n      dup2\n        /* \"#utility.yul\":2387:2420   */\n      tag_148\n      jump\t// in\n    tag_189:\n        /* \"#utility.yul\":2287:2426   */\n      swap3\n      swap2\n      pop\n      pop\n      jump\t// out\n        /* \"#utility.yul\":2432:2906   */\n    tag_24:\n        /* \"#utility.yul\":2500:2506   */\n      0x00\n        /* \"#utility.yul\":2508:2514   */\n      0x00\n        /* \"#utility.yul\":2557:2559   */\n      0x40\n        /* \"#utility.yul\":2545:2554   */\n      dup4\n        /* \"#utility.yul\":2536:2543   */\n      dup6\n        /* \"#utility.yul\":2532:2555   */\n      sub\n        /* \"#utility.yul\":2528:2560   */\n      slt\n        /* \"#utility.yul\":2525:2644   */\n      iszero\n      tag_191\n      jumpi\n        /* \"#utility.yul\":2563:2642   */\n      tag_192\n      tag_141\n      jump\t// in\n    tag_192:\n        /* \"#utility.yul\":2525:2644   */\n    tag_191:\n        /* \"#utility.yul\":2683:2684   */\n      0x00\n        /* \"#utility.yul\":2708:2761   */\n      tag_193\n        /* \"#utility.yul\":2753:2760   */\n      dup6\n        /* \"#utility.yul\":2744:2750   */\n      dup3\n        /* \"#utility.yul\":2733:2742   */\n      dup7\n        /* \"#utility.yul\":2729:2751   */\n      add\n        /* \"#utility.yul\":2708:2761   */\n      tag_146\n      jump\t// in\n    tag_193:\n        /* \"#utility.yul\":2698:2761   */\n      swap3\n      pop\n        /* \"#utility.yul\":2654:2771   */\n      pop\n        /* \"#utility.yul\":2810:2812   */\n      0x20\n        /* \"#utility.yul\":2836:2889   */\n      tag_194\n        /* \"#utility.yul\":2881:2888   */\n      dup6\n        /* \"#utility.yul\":2872:2878   */\n      dup3\n        /* \"#utility.yul\":2861:2870   */\n      dup7\n        /* \"#utility.yul\":2857:2879   */\n      add\n        /* \"#utility.yul\":2836:2889   */\n      tag_149\n      jump\t// in\n    tag_194:\n        /* \"#utility.yul\":2826:2889   */\n      swap2\n      pop\n        /* \"#utility.yul\":2781:2899   */\n      pop\n        /* \"#utility.yul\":2432:2906   */\n      swap3\n      pop\n      swap3\n      swap1\n      pop\n      jump\t// out\n        /* \"#utility.yul\":2912:3002   */\n    tag_150:\n        /* \"#utility.yul\":2946:2953   */\n      0x00\n        /* \"#utility.yul\":2989:2994   */\n      dup2\n        /* \"#utility.yul\":2982:2995   */\n      iszero\n        /* \"#utility.yul\":2975:2996   */\n      iszero\n        /* \"#utility.yul\":2964:2996   */\n      swap1\n      pop\n        /* \"#utility.yul\":2912:3002   */\n      swap2\n      swap1\n      pop\n      jump\t// out\n        /* \"#utility.yul\":3008:3117   */\n    tag_151:\n        /* \"#utility.yul\":3089:3110   */\n      tag_197\n        /* \"#utility.yul\":3104:3109   */\n      dup2\n        /* \"#utility.yul\":3089:3110   */\n      tag_150\n      jump\t// in\n    tag_197:\n        /* \"#utility.yul\":3084:3087   */\n      dup3\n        /* \"#utility.yul\":3077:3111   */\n      mstore\n        /* \"#utility.yul\":3008:3117   */\n      pop\n      pop\n      jump\t// out\n        /* \"#utility.yul\":3123:3333   */\n    tag_27:\n        /* \"#utility.yul\":3210:3214   */\n      0x00\n        /* \"#utility.yul\":3248:3250   */\n      0x20\n        /* \"#utility.yul\":3237:3246   */\n      dup3\n        /* \"#utility.yul\":3233:3251   */\n      add\n        /* \"#utility.yul\":3225:3251   */\n      swap1\n      pop\n        /* \"#utility.yul\":3261:3326   */\n      tag_199\n        /* \"#utility.yul\":3323:3324   */\n      0x00\n        /* \"#utility.yul\":3312:3321   */\n      dup4\n        /* \"#utility.yul\":3308:3325   */\n      add\n        /* \"#utility.yul\":3299:3305   */\n      dup5\n        /* \"#utility.yul\":3261:3326   */\n      tag_151\n      jump\t// in\n    tag_199:\n        /* \"#utility.yul\":3123:3333   */\n      swap3\n      swap2\n      pop\n      pop\n      jump\t// out\n        /* \"#utility.yul\":3339:3457   */\n    tag_152:\n        /* \"#utility.yul\":3426:3450   */\n      tag_201\n        /* \"#utility.yul\":3444:3449   */\n      dup2\n        /* \"#utility.yul\":3426:3450   */\n      tag_147\n      jump\t// in\n    tag_201:\n        /* \"#utility.yul\":3421:3424   */\n      dup3\n        /* \"#utility.yul\":3414:3451   */\n      mstore\n        /* \"#utility.yul\":3339:3457   */\n      pop\n      pop\n      jump\t// out\n        /* \"#utility.yul\":3463:3685   */\n    tag_31:\n        /* \"#utility.yul\":3556:3560   */\n      0x00\n        /* \"#utility.yul\":3594:3596   */\n      0x20\n        /* \"#utility.yul\":3583:3592   */\n      dup3\n        /* \"#utility.yul\":3579:3597   */\n      add\n        /* \"#utility.yul\":3571:3597   */\n      swap1\n      pop\n        /* \"#utility.yul\":3607:3678   */\n      tag_203\n        /* \"#utility.yul\":3675:3676   */\n      0x00\n        /* \"#utility.yul\":3664:3673   */\n      dup4\n        /* \"#utility.yul\":3660:3677   */\n      add\n        /* \"#utility.yul\":3651:3657   */\n      dup5\n        /* \"#utility.yul\":3607:3678   */\n      tag_152\n      jump\t// in\n    tag_203:\n        /* \"#utility.yul\":3463:3685   */\n      swap3\n      swap2\n      pop\n      pop\n      jump\t// out\n        /* \"#utility.yul\":3691:4310   */\n    tag_34:\n        /* \"#utility.yul\":3768:3774   */\n      0x00\n        /* \"#utility.yul\":3776:3782   */\n      0x00\n        /* \"#utility.yul\":3784:3790   */\n      0x00\n        /* \"#utility.yul\":3833:3835   */\n      0x60\n        /* \"#utility.yul\":3821:3830   */\n      dup5\n        /* \"#utility.yul\":3812:3819   */\n      dup7\n        /* \"#utility.yul\":3808:3831   */\n      sub\n        /* \"#utility.yul\":3804:3836   */\n      slt\n        /* \"#utility.yul\":3801:3920   */\n      iszero\n      tag_205\n      jumpi\n        /* \"#utility.yul\":3839:3918   */\n      tag_206\n      tag_141\n      jump\t// in\n    tag_206:\n        /* \"#utility.yul\":3801:3920   */\n    tag_205:\n        /* \"#utility.yul\":3959:3960   */\n      0x00\n        /* \"#utility.yul\":3984:4037   */\n      tag_207\n        /* \"#utility.yul\":4029:4036   */\n      dup7\n        /* \"#utility.yul\":4020:4026   */\n      dup3\n        /* \"#utility.yul\":4009:4018   */\n      dup8\n        /* \"#utility.yul\":4005:4027   */\n      add\n        /* \"#utility.yul\":3984:4037   */\n      tag_146\n      jump\t// in\n    tag_207:\n        /* \"#utility.yul\":3974:4037   */\n      swap4\n      pop\n        /* \"#utility.yul\":3930:4047   */\n      pop\n        /* \"#utility.yul\":4086:4088   */\n      0x20\n        /* \"#utility.yul\":4112:4165   */\n      tag_208\n        /* \"#utility.yul\":4157:4164   */\n      dup7\n        /* \"#utility.yul\":4148:4154   */\n      dup3\n        /* \"#utility.yul\":4137:4146   */\n      dup8\n        /* \"#utility.yul\":4133:4155   */\n      add\n        /* \"#utility.yul\":4112:4165   */\n      tag_146\n      jump\t// in\n    tag_208:\n        /* \"#utility.yul\":4102:4165   */\n      swap3\n      pop\n        /* \"#utility.yul\":4057:4175   */\n      pop\n        /* \"#utility.yul\":4214:4216   */\n      0x40\n        /* \"#utility.yul\":4240:4293   */\n      tag_209\n        /* \"#utility.yul\":4285:4292   */\n      dup7\n        /* \"#utility.yul\":4276:4282   */\n      dup3\n        /* \"#utility.yul\":4265:4274   */\n      dup8\n        /* \"#utility.yul\":4261:4283   */\n      add\n        /* \"#utility.yul\":4240:4293   */\n      tag_149\n      jump\t// in\n    tag_209:\n        /* \"#utility.yul\":4230:4293   */\n      swap2\n      pop\n        /* \"#utility.yul\":4185:4303   */\n      pop\n        /* \"#utility.yul\":3691:4310   */\n      swap3\n      pop\n      swap3\n      pop\n      swap3\n      jump\t// out\n        /* \"#utility.yul\":4316:4402   */\n    tag_153:\n        /* \"#utility.yul\":4351:4358   */\n      0x00\n        /* \"#utility.yul\":4391:4395   */\n      0xff\n        /* \"#utility.yul\":4384:4389   */\n      dup3\n        /* \"#utility.yul\":4380:4396   */\n      and\n        /* \"#utility.yul\":4369:4396   */\n      swap1\n      pop\n        /* \"#utility.yul\":4316:4402   */\n      swap2\n      swap1\n      pop\n      jump\t// out\n        /* \"#utility.yul\":4408:4520   */\n    tag_154:\n        /* \"#utility.yul\":4491:4513   */\n      tag_212\n        /* \"#utility.yul\":4507:4512   */\n      dup2\n        /* \"#utility.yul\":4491:4513   */\n      tag_153\n      jump\t// in\n    tag_212:\n        /* \"#utility.yul\":4486:4489   */\n      dup3\n        /* \"#utility.yul\":4479:4514   */\n      mstore\n        /* \"#utility.yul\":4408:4520   */\n      pop\n      pop\n      jump\t// out\n        /* \"#utility.yul\":4526:4740   */\n    tag_40:\n        /* \"#utility.yul\":4615:4619   */\n      0x00\n        /* \"#utility.yul\":4653:4655   */\n      0x20\n        /* \"#utility.yul\":4642:4651   */\n      dup3\n        /* \"#utility.yul\":4638:4656   */\n      add\n        /* \"#utility.yul\":4630:4656   */\n      swap1\n      pop\n        /* \"#utility.yul\":4666:4733   */\n      tag_214\n        /* \"#utility.yul\":4730:4731   */\n      0x00\n        /* \"#utility.yul\":4719:4728   */\n      dup4\n        /* \"#utility.yul\":4715:4732   */\n      add\n        /* \"#utility.yul\":4706:4712   */\n      dup5\n        /* \"#utility.yul\":4666:4733   */\n      tag_154\n      jump\t// in\n    tag_214:\n        /* \"#utility.yul\":4526:4740   */\n      swap3\n      swap2\n      pop\n      pop\n      jump\t// out\n        /* \"#utility.yul\":4746:5075   */\n    tag_43:\n        /* \"#utility.yul\":4805:4811   */\n      0x00\n        /* \"#utility.yul\":4854:4856   */\n      0x20\n        /* \"#utility.yul\":4842:4851   */\n      dup3\n        /* \"#utility.yul\":4833:4840   */\n      dup5\n        /* \"#utility.yul\":4829:4852   */\n      sub\n        /* \"#utility.yul\":4825:4857   */\n      slt\n        /* \"#utility.yul\":4822:4941   */\n      iszero\n      tag_216\n      jumpi\n        /* \"#utility.yul\":4860:4939   */\n      tag_217\n      tag_141\n      jump\t// in\n    tag_217:\n        /* \"#utility.yul\":4822:4941   */\n    tag_216:\n        /* \"#utility.yul\":4980:4981   */\n      0x00\n        /* \"#utility.yul\":5005:5058   */\n      tag_218\n        /* \"#utility.yul\":5050:5057   */\n      dup5\n        /* \"#utility.yul\":5041:5047   */\n      dup3\n        /* \"#utility.yul\":5030:5039   */\n      dup6\n        /* \"#utility.yul\":5026:5048   */\n      add\n        /* \"#utility.yul\":5005:5058   */\n      tag_146\n      jump\t// in\n    tag_218:\n        /* \"#utility.yul\":4995:5058   */\n      swap2\n      pop\n        /* \"#utility.yul\":4951:5068   */\n      pop\n        /* \"#utility.yul\":4746:5075   */\n      swap3\n      swap2\n      pop\n      pop\n      jump\t// out\n        /* \"#utility.yul\":5081:5410   */\n    tag_48:\n        /* \"#utility.yul\":5140:5146   */\n      0x00\n        /* \"#utility.yul\":5189:5191   */\n      0x20\n        /* \"#utility.yul\":5177:5186   */\n      dup3\n        /* \"#utility.yul\":5168:5175   */\n      dup5\n        /* \"#utility.yul\":5164:5187   */\n      sub\n        /* \"#utility.yul\":5160:5192   */\n      slt\n        /* \"#utility.yul\":5157:5276   */\n      iszero\n      tag_220\n      jumpi\n        /* \"#utility.yul\":5195:5274   */\n      tag_221\n      tag_141\n      jump\t// in\n    tag_221:\n        /* \"#utility.yul\":5157:5276   */\n    tag_220:\n        /* \"#utility.yul\":5315:5316   */\n      0x00\n        /* \"#utility.yul\":5340:5393   */\n      tag_222\n        /* \"#utility.yul\":5385:5392   */\n      dup5\n        /* \"#utility.yul\":5376:5382   */\n      dup3\n        /* \"#utility.yul\":5365:5374   */\n      dup6\n        /* \"#utility.yul\":5361:5383   */\n      add\n        /* \"#utility.yul\":5340:5393   */\n      tag_149\n      jump\t// in\n    tag_222:\n        /* \"#utility.yul\":5330:5393   */\n      swap2\n      pop\n        /* \"#utility.yul\":5286:5403   */\n      pop\n        /* \"#utility.yul\":5081:5410   */\n      swap3\n      swap2\n      pop\n      pop\n      jump\t// out\n        /* \"#utility.yul\":5416:5534   */\n    tag_155:\n        /* \"#utility.yul\":5503:5527   */\n      tag_224\n        /* \"#utility.yul\":5521:5526   */\n      dup2\n        /* \"#utility.yul\":5503:5527   */\n      tag_144\n      jump\t// in\n    tag_224:\n        /* \"#utility.yul\":5498:5501   */\n      dup3\n        /* \"#utility.yul\":5491:5528   */\n      mstore\n        /* \"#utility.yul\":5416:5534   */\n      pop\n      pop\n      jump\t// out\n        /* \"#utility.yul\":5540:5762   */\n    tag_63:\n        /* \"#utility.yul\":5633:5637   */\n      0x00\n        /* \"#utility.yul\":5671:5673   */\n      0x20\n        /* \"#utility.yul\":5660:5669   */\n      dup3\n        /* \"#utility.yul\":5656:5674   */\n      add\n        /* \"#utility.yul\":5648:5674   */\n      swap1\n      pop\n        /* \"#utility.yul\":5684:5755   */\n      tag_226\n        /* \"#utility.yul\":5752:5753   */\n      0x00\n        /* \"#utility.yul\":5741:5750   */\n      dup4\n        /* \"#utility.yul\":5737:5754   */\n      add\n        /* \"#utility.yul\":5728:5734   */\n      dup5\n        /* \"#utility.yul\":5684:5755   */\n      tag_155\n      jump\t// in\n    tag_226:\n        /* \"#utility.yul\":5540:5762   */\n      swap3\n      swap2\n      pop\n      pop\n      jump\t// out\n        /* \"#utility.yul\":5768:6242   */\n    tag_69:\n        /* \"#utility.yul\":5836:5842   */\n      0x00\n        /* \"#utility.yul\":5844:5850   */\n      0x00\n        /* \"#utility.yul\":5893:5895   */\n      0x40\n        /* \"#utility.yul\":5881:5890   */\n      dup4\n        /* \"#utility.yul\":5872:5879   */\n      dup6\n        /* \"#utility.yul\":5868:5891   */\n      sub\n        /* \"#utility.yul\":5864:5896   */\n      slt\n        /* \"#utility.yul\":5861:5980   */\n      iszero\n      tag_228\n      jumpi\n        /* \"#utility.yul\":5899:5978   */\n      tag_229\n      tag_141\n      jump\t// in\n    tag_229:\n        /* \"#utility.yul\":5861:5980   */\n    tag_228:\n        /* \"#utility.yul\":6019:6020   */\n      0x00\n        /* \"#utility.yul\":6044:6097   */\n      tag_230\n        /* \"#utility.yul\":6089:6096   */\n      dup6\n        /* \"#utility.yul\":6080:6086   */\n      dup3\n        /* \"#utility.yul\":6069:6078   */\n      dup7\n        /* \"#utility.yul\":6065:6087   */\n      add\n        /* \"#utility.yul\":6044:6097   */\n      tag_146\n      jump\t// in\n    tag_230:\n        /* \"#utility.yul\":6034:6097   */\n      swap3\n      pop\n        /* \"#utility.yul\":5990:6107   */\n      pop\n        /* \"#utility.yul\":6146:6148   */\n      0x20\n        /* \"#utility.yul\":6172:6225   */\n      tag_231\n        /* \"#utility.yul\":6217:6224   */\n      dup6\n        /* \"#utility.yul\":6208:6214   */\n      dup3\n        /* \"#utility.yul\":6197:6206   */\n      dup7\n        /* \"#utility.yul\":6193:6215   */\n      add\n        /* \"#utility.yul\":6172:6225   */\n      tag_146\n      jump\t// in\n    tag_231:\n        /* \"#utility.yul\":6162:6225   */\n      swap2\n      pop\n        /* \"#utility.yul\":6117:6235   */\n      pop\n        /* \"#utility.yul\":5768:6242   */\n      swap3\n      pop\n      swap3\n      swap1\n      pop\n      jump\t// out\n        /* \"#utility.yul\":6248:6428   */\n    tag_156:\n        /* \"#utility.yul\":6296:6373   */\n      0x4e487b7100000000000000000000000000000000000000000000000000000000\n        /* \"#utility.yul\":6293:6294   */\n      0x00\n        /* \"#utility.yul\":6286:6374   */\n      mstore\n        /* \"#utility.yul\":6393:6397   */\n      0x22\n        /* \"#utility.yul\":6390:6391   */\n      0x04\n        /* \"#utility.yul\":6383:6398   */\n      mstore\n        /* \"#utility.yul\":6417:6421   */\n      0x24\n        /* \"#utility.yul\":6414:6415   */\n      0x00\n        /* \"#utility.yul\":6407:6422   */\n      revert\n        /* \"#utility.yul\":6434:6754   */\n    tag_73:\n        /* \"#utility.yul\":6478:6484   */\n      0x00\n        /* \"#utility.yul\":6515:6516   */\n      0x02\n        /* \"#utility.yul\":6509:6513   */\n      dup3\n        /* \"#utility.yul\":6505:6517   */\n      div\n        /* \"#utility.yul\":6495:6517   */\n      swap1\n      pop\n        /* \"#utility.yul\":6562:6563   */\n      0x01\n        /* \"#utility.yul\":6556:6560   */\n      dup3\n        /* \"#utility.yul\":6552:6564   */\n      and\n        /* \"#utility.yul\":6583:6601   */\n      dup1\n        /* \"#utility.yul\":6573:6654   */\n      tag_234\n      jumpi\n        /* \"#utility.yul\":6639:6643   */\n      0x7f\n        /* \"#utility.yul\":6631:6637   */\n      dup3\n        /* \"#utility.yul\":6627:6644   */\n      and\n        /* \"#utility.yul\":6617:6644   */\n      swap2\n      pop\n        /* \"#utility.yul\":6573:6654   */\n    tag_234:\n        /* \"#utility.yul\":6701:6703   */\n      0x20\n        /* \"#utility.yul\":6693:6699   */\n      dup3\n        /* \"#utility.yul\":6690:6704   */\n      lt\n        /* \"#utility.yul\":6670:6688   */\n      dup2\n        /* \"#utility.yul\":6667:6705   */\n      sub\n        /* \"#utility.yul\":6664:6748   */\n      tag_235\n      jumpi\n        /* \"#utility.yul\":6720:6738   */\n      tag_236\n      tag_156\n      jump\t// in\n    tag_236:\n        /* \"#utility.yul\":6664:6748   */\n    tag_235:\n        /* \"#utility.yul\":6485:6754   */\n      pop\n        /* \"#utility.yul\":6434:6754   */\n      swap2\n      swap1\n      pop\n      jump\t// out\n        /* \"#utility.yul\":6760:6927   */\n    tag_157:\n        /* \"#utility.yul\":6900:6919   */\n      0x4e6f742066656520636f6c6c6563746f72000000000000000000000000000000\n        /* \"#utility.yul\":6896:6897   */\n      0x00\n        /* \"#utility.yul\":6888:6894   */\n      dup3\n        /* \"#utility.yul\":6884:6898   */\n      add\n        /* \"#utility.yul\":6877:6920   */\n      mstore\n        /* \"#utility.yul\":6760:6927   */\n      pop\n      jump\t// out\n        /* \"#utility.yul\":6933:7299   */\n    tag_158:\n        /* \"#utility.yul\":7075:7078   */\n      0x00\n        /* \"#utility.yul\":7096:7163   */\n      tag_239\n        /* \"#utility.yul\":7160:7162   */\n      0x11\n        /* \"#utility.yul\":7155:7158   */\n      dup4\n        /* \"#utility.yul\":7096:7163   */\n      tag_136\n      jump\t// in\n    tag_239:\n        /* \"#utility.yul\":7089:7163   */\n      swap2\n      pop\n        /* \"#utility.yul\":7172:7265   */\n      tag_240\n        /* \"#utility.yul\":7261:7264   */\n      dup3\n        /* \"#utility.yul\":7172:7265   */\n      tag_157\n      jump\t// in\n    tag_240:\n        /* \"#utility.yul\":7290:7292   */\n      0x20\n        /* \"#utility.yul\":7285:7288   */\n      dup3\n        /* \"#utility.yul\":7281:7293   */\n      add\n        /* \"#utility.yul\":7274:7293   */\n      swap1\n      pop\n        /* \"#utility.yul\":6933:7299   */\n      swap2\n      swap1\n      pop\n      jump\t// out\n        /* \"#utility.yul\":7305:7724   */\n    tag_90:\n        /* \"#utility.yul\":7471:7475   */\n      0x00\n        /* \"#utility.yul\":7509:7511   */\n      0x20\n        /* \"#utility.yul\":7498:7507   */\n      dup3\n        /* \"#utility.yul\":7494:7512   */\n      add\n        /* \"#utility.yul\":7486:7512   */\n      swap1\n      pop\n        /* \"#utility.yul\":7558:7567   */\n      dup2\n        /* \"#utility.yul\":7552:7556   */\n      dup2\n        /* \"#utility.yul\":7548:7568   */\n      sub\n        /* \"#utility.yul\":7544:7545   */\n      0x00\n        /* \"#utility.yul\":7533:7542   */\n      dup4\n        /* \"#utility.yul\":7529:7546   */\n      add\n        /* \"#utility.yul\":7522:7569   */\n      mstore\n        /* \"#utility.yul\":7586:7717   */\n      tag_242\n        /* \"#utility.yul\":7712:7716   */\n      dup2\n        /* \"#utility.yul\":7586:7717   */\n      tag_158\n      jump\t// in\n    tag_242:\n        /* \"#utility.yul\":7578:7717   */\n      swap1\n      pop\n        /* \"#utility.yul\":7305:7724   */\n      swap2\n      swap1\n      pop\n      jump\t// out\n        /* \"#utility.yul\":7730:7910   */\n    tag_159:\n        /* \"#utility.yul\":7778:7855   */\n      0x4e487b7100000000000000000000000000000000000000000000000000000000\n        /* \"#utility.yul\":7775:7776   */\n      0x00\n        /* \"#utility.yul\":7768:7856   */\n      mstore\n        /* \"#utility.yul\":7875:7879   */\n      0x11\n        /* \"#utility.yul\":7872:7873   */\n      0x04\n        /* \"#utility.yul\":7865:7880   */\n      mstore\n        /* \"#utility.yul\":7899:7903   */\n      0x24\n        /* \"#utility.yul\":7896:7897   */\n      0x00\n        /* \"#utility.yul\":7889:7904   */\n      revert\n        /* \"#utility.yul\":7916:8110   */\n    tag_116:\n        /* \"#utility.yul\":7956:7960   */\n      0x00\n        /* \"#utility.yul\":7976:7996   */\n      tag_245\n        /* \"#utility.yul\":7994:7995   */\n      dup3\n        /* \"#utility.yul\":7976:7996   */\n      tag_147\n      jump\t// in\n    tag_245:\n        /* \"#utility.yul\":7971:7996   */\n      swap2\n      pop\n        /* \"#utility.yul\":8010:8030   */\n      tag_246\n        /* \"#utility.yul\":8028:8029   */\n      dup4\n        /* \"#utility.yul\":8010:8030   */\n      tag_147\n      jump\t// in\n    tag_246:\n        /* \"#utility.yul\":8005:8030   */\n      swap3\n      pop\n        /* \"#utility.yul\":8054:8055   */\n      dup3\n        /* \"#utility.yul\":8051:8052   */\n      dup3\n        /* \"#utility.yul\":8047:8056   */\n      sub\n        /* \"#utility.yul\":8039:8056   */\n      swap1\n      pop\n        /* \"#utility.yul\":8078:8079   */\n      dup2\n        /* \"#utility.yul\":8072:8076   */\n      dup2\n        /* \"#utility.yul\":8069:8080   */\n      gt\n        /* \"#utility.yul\":8066:8103   */\n      iszero\n      tag_247\n      jumpi\n        /* \"#utility.yul\":8083:8101   */\n      tag_248\n      tag_159\n      jump\t// in\n    tag_248:\n        /* \"#utility.yul\":8066:8103   */\n    tag_247:\n        /* \"#utility.yul\":7916:8110   */\n      swap3\n      swap2\n      pop\n      pop\n      jump\t// out\n        /* \"#utility.yul\":8116:8526   */\n    tag_122:\n        /* \"#utility.yul\":8156:8163   */\n      0x00\n        /* \"#utility.yul\":8179:8199   */\n      tag_250\n        /* \"#utility.yul\":8197:8198   */\n      dup3\n        /* \"#utility.yul\":8179:8199   */\n      tag_147\n      jump\t// in\n    tag_250:\n        /* \"#utility.yul\":8174:8199   */\n      swap2\n      pop\n        /* \"#utility.yul\":8213:8233   */\n      tag_251\n        /* \"#utility.yul\":8231:8232   */\n      dup4\n        /* \"#utility.yul\":8213:8233   */\n      tag_147\n      jump\t// in\n    tag_251:\n        /* \"#utility.yul\":8208:8233   */\n      swap3\n      pop\n        /* \"#utility.yul\":8268:8269   */\n      dup3\n        /* \"#utility.yul\":8265:8266   */\n      dup3\n        /* \"#utility.yul\":8261:8270   */\n      mul\n        /* \"#utility.yul\":8290:8320   */\n      tag_252\n        /* \"#utility.yul\":8308:8319   */\n      dup2\n        /* \"#utility.yul\":8290:8320   */\n      tag_147\n      jump\t// in\n    tag_252:\n        /* \"#utility.yul\":8279:8320   */\n      swap2\n      pop\n        /* \"#utility.yul\":8469:8470   */\n      dup3\n        /* \"#utility.yul\":8460:8467   */\n      dup3\n        /* \"#utility.yul\":8456:8471   */\n      div\n        /* \"#utility.yul\":8453:8454   */\n      dup5\n        /* \"#utility.yul\":8450:8472   */\n      eq\n        /* \"#utility.yul\":8430:8431   */\n      dup4\n        /* \"#utility.yul\":8423:8432   */\n      iszero\n        /* \"#utility.yul\":8403:8486   */\n      or\n        /* \"#utility.yul\":8380:8519   */\n      tag_253\n      jumpi\n        /* \"#utility.yul\":8499:8517   */\n      tag_254\n      tag_159\n      jump\t// in\n    tag_254:\n        /* \"#utility.yul\":8380:8519   */\n    tag_253:\n        /* \"#utility.yul\":8164:8526   */\n      pop\n        /* \"#utility.yul\":8116:8526   */\n      swap3\n      swap2\n      pop\n      pop\n      jump\t// out\n        /* \"#utility.yul\":8532:8712   */\n    tag_160:\n        /* \"#utility.yul\":8580:8657   */\n      0x4e487b7100000000000000000000000000000000000000000000000000000000\n        /* \"#utility.yul\":8577:8578   */\n      0x00\n        /* \"#utility.yul\":8570:8658   */\n      mstore\n        /* \"#utility.yul\":8677:8681   */\n      0x12\n        /* \"#utility.yul\":8674:8675   */\n      0x04\n        /* \"#utility.yul\":8667:8682   */\n      mstore\n        /* \"#utility.yul\":8701:8705   */\n      0x24\n        /* \"#utility.yul\":8698:8699   */\n      0x00\n        /* \"#utility.yul\":8691:8706   */\n      revert\n        /* \"#utility.yul\":8718:8903   */\n    tag_124:\n        /* \"#utility.yul\":8758:8759   */\n      0x00\n        /* \"#utility.yul\":8775:8795   */\n      tag_257\n        /* \"#utility.yul\":8793:8794   */\n      dup3\n        /* \"#utility.yul\":8775:8795   */\n      tag_147\n      jump\t// in\n    tag_257:\n        /* \"#utility.yul\":8770:8795   */\n      swap2\n      pop\n        /* \"#utility.yul\":8809:8829   */\n      tag_258\n        /* \"#utility.yul\":8827:8828   */\n      dup4\n        /* \"#utility.yul\":8809:8829   */\n      tag_147\n      jump\t// in\n    tag_258:\n        /* \"#utility.yul\":8804:8829   */\n      swap3\n      pop\n        /* \"#utility.yul\":8848:8849   */\n      dup3\n        /* \"#utility.yul\":8838:8873   */\n      tag_259\n      jumpi\n        /* \"#utility.yul\":8853:8871   */\n      tag_260\n      tag_160\n      jump\t// in\n    tag_260:\n        /* \"#utility.yul\":8838:8873   */\n    tag_259:\n        /* \"#utility.yul\":8895:8896   */\n      dup3\n        /* \"#utility.yul\":8892:8893   */\n      dup3\n        /* \"#utility.yul\":8888:8897   */\n      div\n        /* \"#utility.yul\":8883:8897   */\n      swap1\n      pop\n        /* \"#utility.yul\":8718:8903   */\n      swap3\n      swap2\n      pop\n      pop\n      jump\t// out\n        /* \"#utility.yul\":8909:9100   */\n    tag_128:\n        /* \"#utility.yul\":8949:8952   */\n      0x00\n        /* \"#utility.yul\":8968:8988   */\n      tag_262\n        /* \"#utility.yul\":8986:8987   */\n      dup3\n        /* \"#utility.yul\":8968:8988   */\n      tag_147\n      jump\t// in\n    tag_262:\n        /* \"#utility.yul\":8963:8988   */\n      swap2\n      pop\n        /* \"#utility.yul\":9002:9022   */\n      tag_263\n        /* \"#utility.yul\":9020:9021   */\n      dup4\n        /* \"#utility.yul\":9002:9022   */\n      tag_147\n      jump\t// in\n    tag_263:\n        /* \"#utility.yul\":8997:9022   */\n      swap3\n      pop\n        /* \"#utility.yul\":9045:9046   */\n      dup3\n        /* \"#utility.yul\":9042:9043   */\n      dup3\n        /* \"#utility.yul\":9038:9047   */\n      add\n        /* \"#utility.yul\":9031:9047   */\n      swap1\n      pop\n        /* \"#utility.yul\":9066:9069   */\n      dup1\n        /* \"#utility.yul\":9063:9064   */\n      dup3\n        /* \"#utility.yul\":9060:9070   */\n      gt\n        /* \"#utility.yul\":9057:9093   */\n      iszero\n      tag_264\n      jumpi\n        /* \"#utility.yul\":9073:9091   */\n      tag_265\n      tag_159\n      jump\t// in\n    tag_265:\n        /* \"#utility.yul\":9057:9093   */\n    tag_264:\n        /* \"#utility.yul\":8909:9100   */\n      swap3\n      swap2\n      pop\n      pop\n      jump\t// out\n\n    auxdata: 0xa264697066735822122020227410c0dadffddd62b144cffcb87e04a17dcfa6fb628a1519077eeaa2df5264736f6c634300081e0033\n}\n",
				"bytecode": {
					"linkReferences": {},
					"object": "608060405234801561000f575f5ffd5b50604051611be8380380611be8833981810160405281019061003191906103d1565b855f908161003f9190610699565b50846001908161004f9190610699565b508360025f6101000a81548160ff021916908360ff16021790555083600a61007791906108c4565b83610082919061090e565b6003819055508160065f6101000a81548173ffffffffffffffffffffffffffffffffffffffff021916908373ffffffffffffffffffffffffffffffffffffffff1602179055506103e8811115610104576040517f58d620b300000000000000000000000000000000000000000000000000000000815260040160405180910390fd5b8060078190555060035460045f3373ffffffffffffffffffffffffffffffffffffffff1673ffffffffffffffffffffffffffffffffffffffff1681526020019081526020015f20819055503373ffffffffffffffffffffffffffffffffffffffff165f73ffffffffffffffffffffffffffffffffffffffff167fddf252ad1be2c89b69c2b068fc378daa952ba7f163c4a11628f55a4df523b3ef6003546040516101ae919061095e565b60405180910390a3505050505050610977565b5f604051905090565b5f5ffd5b5f5ffd5b5f5ffd5b5f5ffd5b5f601f19601f8301169050919050565b7f4e487b71000000000000000000000000000000000000000000000000000000005f52604160045260245ffd5b610220826101da565b810181811067ffffffffffffffff8211171561023f5761023e6101ea565b5b80604052505050565b5f6102516101c1565b905061025d8282610217565b919050565b5f67ffffffffffffffff82111561027c5761027b6101ea565b5b610285826101da565b9050602081019050919050565b8281835e5f83830152505050565b5f6102b26102ad84610262565b610248565b9050828152602081018484840111156102ce576102cd6101d6565b5b6102d9848285610292565b509392505050565b5f82601f8301126102f5576102f46101d2565b5b81516103058482602086016102a0565b91505092915050565b5f60ff82169050919050565b6103238161030e565b811461032d575f5ffd5b50565b5f8151905061033e8161031a565b92915050565b5f819050919050565b61035681610344565b8114610360575f5ffd5b50565b5f815190506103718161034d565b92915050565b5f73ffffffffffffffffffffffffffffffffffffffff82169050919050565b5f6103a082610377565b9050919050565b6103b081610396565b81146103ba575f5ffd5b50565b5f815190506103cb816103a7565b92915050565b5f5f5f5f5f5f60c087890312156103eb576103ea6101ca565b5b5f87015167ffffffffffffffff811115610408576104076101ce565b5b61041489828a016102e1565b965050602087015167ffffffffffffffff811115610435576104346101ce565b5b61044189828a016102e1565b955050604061045289828a01610330565b945050606061046389828a01610363565b935050608061047489828a016103bd565b92505060a061048589828a01610363565b9150509295509295509295565b5f81519050919050565b7f4e487b71000000000000000000000000000000000000000000000000000000005f52602260045260245ffd5b5f60028204905060018216806104e057607f821691505b6020821081036104f3576104f261049c565b5b50919050565b5f819050815f5260205f209050919050565b5f6020601f8301049050919050565b5f82821b905092915050565b5f600883026105557fffffffffffffffffffffffffffffffffffffffffffffffffffffffffffffffff8261051a565b61055f868361051a565b95508019841693508086168417925050509392505050565b5f819050919050565b5f61059a61059561059084610344565b610577565b610344565b9050919050565b5f819050919050565b6105b383610580565b6105c76105bf826105a1565b848454610526565b825550505050565b5f5f905090565b6105de6105cf565b6105e98184846105aa565b505050565b5b8181101561060c576106015f826105d6565b6001810190506105ef565b5050565b601f82111561065157610622816104f9565b61062b8461050b565b8101602085101561063a578190505b61064e6106468561050b565b8301826105ee565b50505b505050565b5f82821c905092915050565b5f6106715f1984600802610656565b1980831691505092915050565b5f6106898383610662565b9150826002028217905092915050565b6106a282610492565b67ffffffffffffffff8111156106bb576106ba6101ea565b5b6106c582546104c9565b6106d0828285610610565b5f60209050601f831160018114610701575f84156106ef578287015190505b6106f9858261067e565b865550610760565b601f19841661070f866104f9565b5f5b8281101561073657848901518255600182019150602085019450602081019050610711565b86831015610753578489015161074f601f891682610662565b8355505b6001600288020188555050505b505050505050565b7f4e487b71000000000000000000000000000000000000000000000000000000005f52601160045260245ffd5b5f8160011c9050919050565b5f5f8291508390505b60018511156107ea578086048111156107c6576107c5610768565b5b60018516156107d55780820291505b80810290506107e385610795565b94506107aa565b94509492505050565b5f8261080257600190506108bd565b8161080f575f90506108bd565b8160018114610825576002811461082f5761085e565b60019150506108bd565b60ff84111561084157610840610768565b5b8360020a91508482111561085857610857610768565b5b506108bd565b5060208310610133831016604e8410600b84101617156108935782820a90508381111561088e5761088d610768565b5b6108bd565b6108a084848460016107a1565b925090508184048111156108b7576108b6610768565b5b81810290505b9392505050565b5f6108ce82610344565b91506108d98361030e565b92506109067fffffffffffffffffffffffffffffffffffffffffffffffffffffffffffffffff84846107f3565b905092915050565b5f61091882610344565b915061092383610344565b925082820261093181610344565b9150828204841483151761094857610947610768565b5b5092915050565b61095881610344565b82525050565b5f6020820190506109715f83018461094f565b92915050565b611264806109845f395ff3fe608060405234801561000f575f5ffd5b50600436106100cd575f3560e01c80639012c4a81161008a578063acb2ad6f11610064578063acb2ad6f14610225578063c415b95c14610243578063d2c35ce814610261578063dd62ed3e1461027d576100cd565b80639012c4a8146101bb57806395d89b41146101d7578063a9059cbb146101f5576100cd565b806306fdde03146100d1578063095ea7b3146100ef57806318160ddd1461011f57806323b872dd1461013d578063313ce5671461016d57806370a082311461018b575b5f5ffd5b6100d96102ad565b6040516100e69190610dae565b60405180910390f35b61010960048036038101906101049190610e5f565b610338565b6040516101169190610eb7565b60405180910390f35b61012761034e565b6040516101349190610edf565b60405180910390f35b61015760048036038101906101529190610ef8565b610354565b6040516101649190610eb7565b60405180910390f35b610175610376565b6040516101829190610f63565b60405180910390f35b6101a560048036038101906101a09190610f7c565b610388565b6040516101b29190610edf565b60405180910390f35b6101d560048036038101906101d09190610fa7565b6103ce565b005b6101df6104a3565b6040516101ec9190610dae565b60405180910390f35b61020f600480360381019061020a9190610e5f565b61052f565b60405161021c9190610eb7565b60405180910390f35b61022d610545565b60405161023a9190610edf565b60405180910390f35b61024b61054b565b6040516102589190610fe1565b60405180910390f35b61027b60048036038101906102769190610f7c565b610570565b005b61029760048036038101906102929190610ffa565b6106a7565b6040516102a49190610edf565b60405180910390f35b5f80546102b990611065565b80601f01602080910402602001604051908101604052809291908181526020018280546102e590611065565b80156103305780601f1061030757610100808354040283529160200191610330565b820191905f5260205f20905b81548152906001019060200180831161031357829003601f168201915b505050505081565b5f610344338484610729565b6001905092915050565b60035481565b5f6103608433846108da565b61036b848484610965565b600190509392505050565b60025f9054906101000a900460ff1681565b5f60045f8373ffffffffffffffffffffffffffffffffffffffff1673ffffffffffffffffffffffffffffffffffffffff1681526020019081526020015f20549050919050565b60065f9054906101000a900473ffffffffffffffffffffffffffffffffffffffff1673ffffffffffffffffffffffffffffffffffffffff163373ffffffffffffffffffffffffffffffffffffffff161461045d576040517f08c379a0000000000000000000000000000000000000000000000000000000008152600401610454906110df565b60405180910390fd5b6103e8811115610499576040517f58d620b300000000000000000000000000000000000000000000000000000000815260040160405180910390fd5b8060078190555050565b600180546104b090611065565b80601f01602080910402602001604051908101604052809291908181526020018280546104dc90611065565b80156105275780601f106104fe57610100808354040283529160200191610527565b820191905f5260205f20905b81548152906001019060200180831161050a57829003601f168201915b505050505081565b5f61053b338484610965565b6001905092915050565b60075481565b60065f9054906101000a900473ffffffffffffffffffffffffffffffffffffffff1681565b60065f9054906101000a900473ffffffffffffffffffffffffffffffffffffffff1673ffffffffffffffffffffffffffffffffffffffff163373ffffffffffffffffffffffffffffffffffffffff16146105ff576040517f08c379a00000000000000000000000000000000000000000000000000000000081526004016105f6906110df565b60405180910390fd5b5f73ffffffffffffffffffffffffffffffffffffffff168173ffffffffffffffffffffffffffffffffffffffff1603610664576040517fd92e233d00000000000000000000000000000000000000000000000000000000815260040160405180910390fd5b8060065f6101000a81548173ffffffffffffffffffffffffffffffffffffffff021916908373ffffffffffffffffffffffffffffffffffffffff16021790555050565b5f60055f8473ffffffffffffffffffffffffffffffffffffffff1673ffffffffffffffffffffffffffffffffffffffff1681526020019081526020015f205f8373ffffffffffffffffffffffffffffffffffffffff1673ffffffffffffffffffffffffffffffffffffffff1681526020019081526020015f2054905092915050565b5f73ffffffffffffffffffffffffffffffffffffffff168373ffffffffffffffffffffffffffffffffffffffff160361078e576040517fd92e233d00000000000000000000000000000000000000000000000000000000815260040160405180910390fd5b5f73ffffffffffffffffffffffffffffffffffffffff168273ffffffffffffffffffffffffffffffffffffffff16036107f3576040517fd92e233d00000000000000000000000000000000000000000000000000000000815260040160405180910390fd5b8060055f8573ffffffffffffffffffffffffffffffffffffffff1673ffffffffffffffffffffffffffffffffffffffff1681526020019081526020015f205f8473ffffffffffffffffffffffffffffffffffffffff1673ffffffffffffffffffffffffffffffffffffffff1681526020019081526020015f20819055508173ffffffffffffffffffffffffffffffffffffffff168373ffffffffffffffffffffffffffffffffffffffff167f8c5be1e5ebec7d5bd14f71427d1e84f3dd0314c0f7b2291e5b200ac8c7c3b925836040516108cd9190610edf565b60405180910390a3505050565b5f6108e584846106a7565b90507fffffffffffffffffffffffffffffffffffffffffffffffffffffffffffffffff811461095f5781811015610948576040517ff4d678b800000000000000000000000000000000000000000000000000000000815260040160405180910390fd5b61095e84848484610959919061112a565b610729565b5b50505050565b5f73ffffffffffffffffffffffffffffffffffffffff168373ffffffffffffffffffffffffffffffffffffffff16036109ca576040517fd92e233d00000000000000000000000000000000000000000000000000000000815260040160405180910390fd5b5f73ffffffffffffffffffffffffffffffffffffffff168273ffffffffffffffffffffffffffffffffffffffff1603610a2f576040517fd92e233d00000000000000000000000000000000000000000000000000000000815260040160405180910390fd5b5f60045f8573ffffffffffffffffffffffffffffffffffffffff1673ffffffffffffffffffffffffffffffffffffffff1681526020019081526020015f2054905081811015610aaa576040517ff4d678b800000000000000000000000000000000000000000000000000000000815260040160405180910390fd5b5f61271060075484610abc919061115d565b610ac691906111cb565b90505f8184610ad5919061112a565b90508383610ae3919061112a565b60045f8873ffffffffffffffffffffffffffffffffffffffff1673ffffffffffffffffffffffffffffffffffffffff1681526020019081526020015f20819055508060045f8773ffffffffffffffffffffffffffffffffffffffff1673ffffffffffffffffffffffffffffffffffffffff1681526020019081526020015f205f828254610b7091906111fb565b925050819055505f821115610c42578160045f60065f9054906101000a900473ffffffffffffffffffffffffffffffffffffffff1673ffffffffffffffffffffffffffffffffffffffff1673ffffffffffffffffffffffffffffffffffffffff1681526020019081526020015f205f828254610bec91906111fb565b925050819055508573ffffffffffffffffffffffffffffffffffffffff167f06c5efeff5c320943d265dc4e5f1af95ad523555ce0c1957e367dda5514572df83604051610c399190610edf565b60405180910390a25b8473ffffffffffffffffffffffffffffffffffffffff168673ffffffffffffffffffffffffffffffffffffffff167fddf252ad1be2c89b69c2b068fc378daa952ba7f163c4a11628f55a4df523b3ef83604051610c9f9190610edf565b60405180910390a35f821115610d365760065f9054906101000a900473ffffffffffffffffffffffffffffffffffffffff1673ffffffffffffffffffffffffffffffffffffffff168673ffffffffffffffffffffffffffffffffffffffff167fddf252ad1be2c89b69c2b068fc378daa952ba7f163c4a11628f55a4df523b3ef84604051610d2d9190610edf565b60405180910390a35b505050505050565b5f81519050919050565b5f82825260208201905092915050565b8281835e5f83830152505050565b5f601f19601f8301169050919050565b5f610d8082610d3e565b610d8a8185610d48565b9350610d9a818560208601610d58565b610da381610d66565b840191505092915050565b5f6020820190508181035f830152610dc68184610d76565b905092915050565b5f5ffd5b5f73ffffffffffffffffffffffffffffffffffffffff82169050919050565b5f610dfb82610dd2565b9050919050565b610e0b81610df1565b8114610e15575f5ffd5b50565b5f81359050610e2681610e02565b92915050565b5f819050919050565b610e3e81610e2c565b8114610e48575f5ffd5b50565b5f81359050610e5981610e35565b92915050565b5f5f60408385031215610e7557610e74610dce565b5b5f610e8285828601610e18565b9250506020610e9385828601610e4b565b9150509250929050565b5f8115159050919050565b610eb181610e9d565b82525050565b5f602082019050610eca5f830184610ea8565b92915050565b610ed981610e2c565b82525050565b5f602082019050610ef25f830184610ed0565b92915050565b5f5f5f60608486031215610f0f57610f0e610dce565b5b5f610f1c86828701610e18565b9350506020610f2d86828701610e18565b9250506040610f3e86828701610e4b565b9150509250925092565b5f60ff82169050919050565b610f5d81610f48565b82525050565b5f602082019050610f765f830184610f54565b92915050565b5f60208284031215610f9157610f90610dce565b5b5f610f9e84828501610e18565b91505092915050565b5f60208284031215610fbc57610fbb610dce565b5b5f610fc984828501610e4b565b91505092915050565b610fdb81610df1565b82525050565b5f602082019050610ff45f830184610fd2565b92915050565b5f5f604083850312156110105761100f610dce565b5b5f61101d85828601610e18565b925050602061102e85828601610e18565b9150509250929050565b7f4e487b71000000000000000000000000000000000000000000000000000000005f52602260045260245ffd5b5f600282049050600182168061107c57607f821691505b60208210810361108f5761108e611038565b5b50919050565b7f4e6f742066656520636f6c6c6563746f720000000000000000000000000000005f82015250565b5f6110c9601183610d48565b91506110d482611095565b602082019050919050565b5f6020820190508181035f8301526110f6816110bd565b9050919050565b7f4e487b71000000000000000000000000000000000000000000000000000000005f52601160045260245ffd5b5f61113482610e2c565b915061113f83610e2c565b9250828203905081811115611157576111566110fd565b5b92915050565b5f61116782610e2c565b915061117283610e2c565b925082820261118081610e2c565b91508282048414831517611197576111966110fd565b5b5092915050565b7f4e487b71000000000000000000000000000000000000000000000000000000005f52601260045260245ffd5b5f6111d582610e2c565b91506111e083610e2c565b9250826111f0576111ef61119e565b5b828204905092915050565b5f61120582610e2c565b915061121083610e2c565b9250828201905080821115611228576112276110fd565b5b9291505056fea264697066735822122020227410c0dadffddd62b144cffcb87e04a17dcfa6fb628a1519077eeaa2df5264736f6c634300081e0033",
					"opcodes": "PUSH1 0x80 PUSH1 0x40 MSTORE CALLVALUE DUP1 ISZERO PUSH2 0xF JUMPI PUSH0 PUSH0 REVERT JUMPDEST POP PUSH1 0x40 MLOAD PUSH2 0x1BE8 CODESIZE SUB DUP1 PUSH2 0x1BE8 DUP4 CODECOPY DUP2 DUP2 ADD PUSH1 0x40 MSTORE DUP2 ADD SWAP1 PUSH2 0x31 SWAP2 SWAP1 PUSH2 0x3D1 JUMP JUMPDEST DUP6 PUSH0 SWAP1 DUP2 PUSH2 0x3F SWAP2 SWAP1 PUSH2 0x699 JUMP JUMPDEST POP DUP5 PUSH1 0x1 SWAP1 DUP2 PUSH2 0x4F SWAP2 SWAP1 PUSH2 0x699 JUMP JUMPDEST POP DUP4 PUSH1 0x2 PUSH0 PUSH2 0x100 EXP DUP2 SLOAD DUP2 PUSH1 0xFF MUL NOT AND SWAP1 DUP4 PUSH1 0xFF AND MUL OR SWAP1 SSTORE POP DUP4 PUSH1 0xA PUSH2 0x77 SWAP2 SWAP1 PUSH2 0x8C4 JUMP JUMPDEST DUP4 PUSH2 0x82 SWAP2 SWAP1 PUSH2 0x90E JUMP JUMPDEST PUSH1 0x3 DUP2 SWAP1 SSTORE POP DUP2 PUSH1 0x6 PUSH0 PUSH2 0x100 EXP DUP2 SLOAD DUP2 PUSH20 0xFFFFFFFFFFFFFFFFFFFFFFFFFFFFFFFFFFFFFFFF MUL NOT AND SWAP1 DUP4 PUSH20 0xFFFFFFFFFFFFFFFFFFFFFFFFFFFFFFFFFFFFFFFF AND MUL OR SWAP1 SSTORE POP PUSH2 0x3E8 DUP2 GT ISZERO PUSH2 0x104 JUMPI PUSH1 0x40 MLOAD PUSH32 0x58D620B300000000000000000000000000000000000000000000000000000000 DUP2 MSTORE PUSH1 0x4 ADD PUSH1 0x40 MLOAD DUP1 SWAP2 SUB SWAP1 REVERT JUMPDEST DUP1 PUSH1 0x7 DUP2 SWAP1 SSTORE POP PUSH1 0x3 SLOAD PUSH1 0x4 PUSH0 CALLER PUSH20 0xFFFFFFFFFFFFFFFFFFFFFFFFFFFFFFFFFFFFFFFF AND PUSH20 0xFFFFFFFFFFFFFFFFFFFFFFFFFFFFFFFFFFFFFFFF AND DUP2 MSTORE PUSH1 0x20 ADD SWAP1 DUP2 MSTORE PUSH1 0x20 ADD PUSH0 KECCAK256 DUP2 SWAP1 SSTORE POP CALLER PUSH20 0xFFFFFFFFFFFFFFFFFFFFFFFFFFFFFFFFFFFFFFFF AND PUSH0 PUSH20 0xFFFFFFFFFFFFFFFFFFFFFFFFFFFFFFFFFFFFFFFF AND PUSH32 0xDDF252AD1BE2C89B69C2B068FC378DAA952BA7F163C4A11628F55A4DF523B3EF PUSH1 0x3 SLOAD PUSH1 0x40 MLOAD PUSH2 0x1AE SWAP2 SWAP1 PUSH2 0x95E JUMP JUMPDEST PUSH1 0x40 MLOAD DUP1 SWAP2 SUB SWAP1 LOG3 POP POP POP POP POP POP PUSH2 0x977 JUMP JUMPDEST PUSH0 PUSH1 0x40 MLOAD SWAP1 POP SWAP1 JUMP JUMPDEST PUSH0 PUSH0 REVERT JUMPDEST PUSH0 PUSH0 REVERT JUMPDEST PUSH0 PUSH0 REVERT JUMPDEST PUSH0 PUSH0 REVERT JUMPDEST PUSH0 PUSH1 0x1F NOT PUSH1 0x1F DUP4 ADD AND SWAP1 POP SWAP2 SWAP1 POP JUMP JUMPDEST PUSH32 0x4E487B7100000000000000000000000000000000000000000000000000000000 PUSH0 MSTORE PUSH1 0x41 PUSH1 0x4 MSTORE PUSH1 0x24 PUSH0 REVERT JUMPDEST PUSH2 0x220 DUP3 PUSH2 0x1DA JUMP JUMPDEST DUP2 ADD DUP2 DUP2 LT PUSH8 0xFFFFFFFFFFFFFFFF DUP3 GT OR ISZERO PUSH2 0x23F JUMPI PUSH2 0x23E PUSH2 0x1EA JUMP JUMPDEST JUMPDEST DUP1 PUSH1 0x40 MSTORE POP POP POP JUMP JUMPDEST PUSH0 PUSH2 0x251 PUSH2 0x1C1 JUMP JUMPDEST SWAP1 POP PUSH2 0x25D DUP3 DUP3 PUSH2 0x217 JUMP JUMPDEST SWAP2 SWAP1 POP JUMP JUMPDEST PUSH0 PUSH8 0xFFFFFFFFFFFFFFFF DUP3 GT ISZERO PUSH2 0x27C JUMPI PUSH2 0x27B PUSH2 0x1EA JUMP JUMPDEST JUMPDEST PUSH2 0x285 DUP3 PUSH2 0x1DA JUMP JUMPDEST SWAP1 POP PUSH1 0x20 DUP2 ADD SWAP1 POP SWAP2 SWAP1 POP JUMP JUMPDEST DUP3 DUP2 DUP4 MCOPY PUSH0 DUP4 DUP4 ADD MSTORE POP POP POP JUMP JUMPDEST PUSH0 PUSH2 0x2B2 PUSH2 0x2AD DUP5 PUSH2 0x262 JUMP JUMPDEST PUSH2 0x248 JUMP JUMPDEST SWAP1 POP DUP3 DUP2 MSTORE PUSH1 0x20 DUP2 ADD DUP5 DUP5 DUP5 ADD GT ISZERO PUSH2 0x2CE JUMPI PUSH2 0x2CD PUSH2 0x1D6 JUMP JUMPDEST JUMPDEST PUSH2 0x2D9 DUP5 DUP3 DUP6 PUSH2 0x292 JUMP JUMPDEST POP SWAP4 SWAP3 POP POP POP JUMP JUMPDEST PUSH0 DUP3 PUSH1 0x1F DUP4 ADD SLT PUSH2 0x2F5 JUMPI PUSH2 0x2F4 PUSH2 0x1D2 JUMP JUMPDEST JUMPDEST DUP2 MLOAD PUSH2 0x305 DUP5 DUP3 PUSH1 0x20 DUP7 ADD PUSH2 0x2A0 JUMP JUMPDEST SWAP2 POP POP SWAP3 SWAP2 POP POP JUMP JUMPDEST PUSH0 PUSH1 0xFF DUP3 AND SWAP1 POP SWAP2 SWAP1 POP JUMP JUMPDEST PUSH2 0x323 DUP2 PUSH2 0x30E JUMP JUMPDEST DUP2 EQ PUSH2 0x32D JUMPI PUSH0 PUSH0 REVERT JUMPDEST POP JUMP JUMPDEST PUSH0 DUP2 MLOAD SWAP1 POP PUSH2 0x33E DUP2 PUSH2 0x31A JUMP JUMPDEST SWAP3 SWAP2 POP POP JUMP JUMPDEST PUSH0 DUP2 SWAP1 POP SWAP2 SWAP1 POP JUMP JUMPDEST PUSH2 0x356 DUP2 PUSH2 0x344 JUMP JUMPDEST DUP2 EQ PUSH2 0x360 JUMPI PUSH0 PUSH0 REVERT JUMPDEST POP JUMP JUMPDEST PUSH0 DUP2 MLOAD SWAP1 POP PUSH2 0x371 DUP2 PUSH2 0x34D JUMP JUMPDEST SWAP3 SWAP2 POP POP JUMP JUMPDEST PUSH0 PUSH20 0xFFFFFFFFFFFFFFFFFFFFFFFFFFFFFFFFFFFFFFFF DUP3 AND SWAP1 POP SWAP2 SWAP1 POP JUMP JUMPDEST PUSH0 PUSH2 0x3A0 DUP3 PUSH2 0x377 JUMP JUMPDEST SWAP1 POP SWAP2 SWAP1 POP JUMP JUMPDEST PUSH2 0x3B0 DUP2 PUSH2 0x396 JUMP JUMPDEST DUP2 EQ PUSH2 0x3BA JUMPI PUSH0 PUSH0 REVERT JUMPDEST POP JUMP JUMPDEST PUSH0 DUP2 MLOAD SWAP1 POP PUSH2 0x3CB DUP2 PUSH2 0x3A7 JUMP JUMPDEST SWAP3 SWAP2 POP POP JUMP JUMPDEST PUSH0 PUSH0 PUSH0 PUSH0 PUSH0 PUSH0 PUSH1 0xC0 DUP8 DUP10 SUB SLT ISZERO PUSH2 0x3EB JUMPI PUSH2 0x3EA PUSH2 0x1CA JUMP JUMPDEST JUMPDEST PUSH0 DUP8 ADD MLOAD PUSH8 0xFFFFFFFFFFFFFFFF DUP2 GT ISZERO PUSH2 0x408 JUMPI PUSH2 0x407 PUSH2 0x1CE JUMP JUMPDEST JUMPDEST PUSH2 0x414 DUP10 DUP3 DUP11 ADD PUSH2 0x2E1 JUMP JUMPDEST SWAP7 POP POP PUSH1 0x20 DUP8 ADD MLOAD PUSH8 0xFFFFFFFFFFFFFFFF DUP2 GT ISZERO PUSH2 0x435 JUMPI PUSH2 0x434 PUSH2 0x1CE JUMP JUMPDEST JUMPDEST PUSH2 0x441 DUP10 DUP3 DUP11 ADD PUSH2 0x2E1 JUMP JUMPDEST SWAP6 POP POP PUSH1 0x40 PUSH2 0x452 DUP10 DUP3 DUP11 ADD PUSH2 0x330 JUMP JUMPDEST SWAP5 POP POP PUSH1 0x60 PUSH2 0x463 DUP10 DUP3 DUP11 ADD PUSH2 0x363 JUMP JUMPDEST SWAP4 POP POP PUSH1 0x80 PUSH2 0x474 DUP10 DUP3 DUP11 ADD PUSH2 0x3BD JUMP JUMPDEST SWAP3 POP POP PUSH1 0xA0 PUSH2 0x485 DUP10 DUP3 DUP11 ADD PUSH2 0x363 JUMP JUMPDEST SWAP2 POP POP SWAP3 SWAP6 POP SWAP3 SWAP6 POP SWAP3 SWAP6 JUMP JUMPDEST PUSH0 DUP2 MLOAD SWAP1 POP SWAP2 SWAP1 POP JUMP JUMPDEST PUSH32 0x4E487B7100000000000000000000000000000000000000000000000000000000 PUSH0 MSTORE PUSH1 0x22 PUSH1 0x4 MSTORE PUSH1 0x24 PUSH0 REVERT JUMPDEST PUSH0 PUSH1 0x2 DUP3 DIV SWAP1 POP PUSH1 0x1 DUP3 AND DUP1 PUSH2 0x4E0 JUMPI PUSH1 0x7F DUP3 AND SWAP2 POP JUMPDEST PUSH1 0x20 DUP3 LT DUP2 SUB PUSH2 0x4F3 JUMPI PUSH2 0x4F2 PUSH2 0x49C JUMP JUMPDEST JUMPDEST POP SWAP2 SWAP1 POP JUMP JUMPDEST PUSH0 DUP2 SWAP1 POP DUP2 PUSH0 MSTORE PUSH1 0x20 PUSH0 KECCAK256 SWAP1 POP SWAP2 SWAP1 POP JUMP JUMPDEST PUSH0 PUSH1 0x20 PUSH1 0x1F DUP4 ADD DIV SWAP1 POP SWAP2 SWAP1 POP JUMP JUMPDEST PUSH0 DUP3 DUP3 SHL SWAP1 POP SWAP3 SWAP2 POP POP JUMP JUMPDEST PUSH0 PUSH1 0x8 DUP4 MUL PUSH2 0x555 PUSH32 0xFFFFFFFFFFFFFFFFFFFFFFFFFFFFFFFFFFFFFFFFFFFFFFFFFFFFFFFFFFFFFFFF DUP3 PUSH2 0x51A JUMP JUMPDEST PUSH2 0x55F DUP7 DUP4 PUSH2 0x51A JUMP JUMPDEST SWAP6 POP DUP1 NOT DUP5 AND SWAP4 POP DUP1 DUP7 AND DUP5 OR SWAP3 POP POP POP SWAP4 SWAP3 POP POP POP JUMP JUMPDEST PUSH0 DUP2 SWAP1 POP SWAP2 SWAP1 POP JUMP JUMPDEST PUSH0 PUSH2 0x59A PUSH2 0x595 PUSH2 0x590 DUP5 PUSH2 0x344 JUMP JUMPDEST PUSH2 0x577 JUMP JUMPDEST PUSH2 0x344 JUMP JUMPDEST SWAP1 POP SWAP2 SWAP1 POP JUMP JUMPDEST PUSH0 DUP2 SWAP1 POP SWAP2 SWAP1 POP JUMP JUMPDEST PUSH2 0x5B3 DUP4 PUSH2 0x580 JUMP JUMPDEST PUSH2 0x5C7 PUSH2 0x5BF DUP3 PUSH2 0x5A1 JUMP JUMPDEST DUP5 DUP5 SLOAD PUSH2 0x526 JUMP JUMPDEST DUP3 SSTORE POP POP POP POP JUMP JUMPDEST PUSH0 PUSH0 SWAP1 POP SWAP1 JUMP JUMPDEST PUSH2 0x5DE PUSH2 0x5CF JUMP JUMPDEST PUSH2 0x5E9 DUP2 DUP5 DUP5 PUSH2 0x5AA JUMP JUMPDEST POP POP POP JUMP JUMPDEST JUMPDEST DUP2 DUP2 LT ISZERO PUSH2 0x60C JUMPI PUSH2 0x601 PUSH0 DUP3 PUSH2 0x5D6 JUMP JUMPDEST PUSH1 0x1 DUP2 ADD SWAP1 POP PUSH2 0x5EF JUMP JUMPDEST POP POP JUMP JUMPDEST PUSH1 0x1F DUP3 GT ISZERO PUSH2 0x651 JUMPI PUSH2 0x622 DUP2 PUSH2 0x4F9 JUMP JUMPDEST PUSH2 0x62B DUP5 PUSH2 0x50B JUMP JUMPDEST DUP2 ADD PUSH1 0x20 DUP6 LT ISZERO PUSH2 0x63A JUMPI DUP2 SWAP1 POP JUMPDEST PUSH2 0x64E PUSH2 0x646 DUP6 PUSH2 0x50B JUMP JUMPDEST DUP4 ADD DUP3 PUSH2 0x5EE JUMP JUMPDEST POP POP JUMPDEST POP POP POP JUMP JUMPDEST PUSH0 DUP3 DUP3 SHR SWAP1 POP SWAP3 SWAP2 POP POP JUMP JUMPDEST PUSH0 PUSH2 0x671 PUSH0 NOT DUP5 PUSH1 0x8 MUL PUSH2 0x656 JUMP JUMPDEST NOT DUP1 DUP4 AND SWAP2 POP POP SWAP3 SWAP2 POP POP JUMP JUMPDEST PUSH0 PUSH2 0x689 DUP4 DUP4 PUSH2 0x662 JUMP JUMPDEST SWAP2 POP DUP3 PUSH1 0x2 MUL DUP3 OR SWAP1 POP SWAP3 SWAP2 POP POP JUMP JUMPDEST PUSH2 0x6A2 DUP3 PUSH2 0x492 JUMP JUMPDEST PUSH8 0xFFFFFFFFFFFFFFFF DUP2 GT ISZERO PUSH2 0x6BB JUMPI PUSH2 0x6BA PUSH2 0x1EA JUMP JUMPDEST JUMPDEST PUSH2 0x6C5 DUP3 SLOAD PUSH2 0x4C9 JUMP JUMPDEST PUSH2 0x6D0 DUP3 DUP3 DUP6 PUSH2 0x610 JUMP JUMPDEST PUSH0 PUSH1 0x20 SWAP1 POP PUSH1 0x1F DUP4 GT PUSH1 0x1 DUP2 EQ PUSH2 0x701 JUMPI PUSH0 DUP5 ISZERO PUSH2 0x6EF JUMPI DUP3 DUP8 ADD MLOAD SWAP1 POP JUMPDEST PUSH2 0x6F9 DUP6 DUP3 PUSH2 0x67E JUMP JUMPDEST DUP7 SSTORE POP PUSH2 0x760 JUMP JUMPDEST PUSH1 0x1F NOT DUP5 AND PUSH2 0x70F DUP7 PUSH2 0x4F9 JUMP JUMPDEST PUSH0 JUMPDEST DUP3 DUP2 LT ISZERO PUSH2 0x736 JUMPI DUP5 DUP10 ADD MLOAD DUP3 SSTORE PUSH1 0x1 DUP3 ADD SWAP2 POP PUSH1 0x20 DUP6 ADD SWAP5 POP PUSH1 0x20 DUP2 ADD SWAP1 POP PUSH2 0x711 JUMP JUMPDEST DUP7 DUP4 LT ISZERO PUSH2 0x753 JUMPI DUP5 DUP10 ADD MLOAD PUSH2 0x74F PUSH1 0x1F DUP10 AND DUP3 PUSH2 0x662 JUMP JUMPDEST DUP4 SSTORE POP JUMPDEST PUSH1 0x1 PUSH1 0x2 DUP9 MUL ADD DUP9 SSTORE POP POP POP JUMPDEST POP POP POP POP POP POP JUMP JUMPDEST PUSH32 0x4E487B7100000000000000000000000000000000000000000000000000000000 PUSH0 MSTORE PUSH1 0x11 PUSH1 0x4 MSTORE PUSH1 0x24 PUSH0 REVERT JUMPDEST PUSH0 DUP2 PUSH1 0x1 SHR SWAP1 POP SWAP2 SWAP1 POP JUMP JUMPDEST PUSH0 PUSH0 DUP3 SWAP2 POP DUP4 SWAP1 POP JUMPDEST PUSH1 0x1 DUP6 GT ISZERO PUSH2 0x7EA JUMPI DUP1 DUP7 DIV DUP2 GT ISZERO PUSH2 0x7C6 JUMPI PUSH2 0x7C5 PUSH2 0x768 JUMP JUMPDEST JUMPDEST PUSH1 0x1 DUP6 AND ISZERO PUSH2 0x7D5 JUMPI DUP1 DUP3 MUL SWAP2 POP JUMPDEST DUP1 DUP2 MUL SWAP1 POP PUSH2 0x7E3 DUP6 PUSH2 0x795 JUMP JUMPDEST SWAP5 POP PUSH2 0x7AA JUMP JUMPDEST SWAP5 POP SWAP5 SWAP3 POP POP POP JUMP JUMPDEST PUSH0 DUP3 PUSH2 0x802 JUMPI PUSH1 0x1 SWAP1 POP PUSH2 0x8BD JUMP JUMPDEST DUP2 PUSH2 0x80F JUMPI PUSH0 SWAP1 POP PUSH2 0x8BD JUMP JUMPDEST DUP2 PUSH1 0x1 DUP2 EQ PUSH2 0x825 JUMPI PUSH1 0x2 DUP2 EQ PUSH2 0x82F JUMPI PUSH2 0x85E JUMP JUMPDEST PUSH1 0x1 SWAP2 POP POP PUSH2 0x8BD JUMP JUMPDEST PUSH1 0xFF DUP5 GT ISZERO PUSH2 0x841 JUMPI PUSH2 0x840 PUSH2 0x768 JUMP JUMPDEST JUMPDEST DUP4 PUSH1 0x2 EXP SWAP2 POP DUP5 DUP3 GT ISZERO PUSH2 0x858 JUMPI PUSH2 0x857 PUSH2 0x768 JUMP JUMPDEST JUMPDEST POP PUSH2 0x8BD JUMP JUMPDEST POP PUSH1 0x20 DUP4 LT PUSH2 0x133 DUP4 LT AND PUSH1 0x4E DUP5 LT PUSH1 0xB DUP5 LT AND OR ISZERO PUSH2 0x893 JUMPI DUP3 DUP3 EXP SWAP1 POP DUP4 DUP2 GT ISZERO PUSH2 0x88E JUMPI PUSH2 0x88D PUSH2 0x768 JUMP JUMPDEST JUMPDEST PUSH2 0x8BD JUMP JUMPDEST PUSH2 0x8A0 DUP5 DUP5 DUP5 PUSH1 0x1 PUSH2 0x7A1 JUMP JUMPDEST SWAP3 POP SWAP1 POP DUP2 DUP5 DIV DUP2 GT ISZERO PUSH2 0x8B7 JUMPI PUSH2 0x8B6 PUSH2 0x768 JUMP JUMPDEST JUMPDEST DUP2 DUP2 MUL SWAP1 POP JUMPDEST SWAP4 SWAP3 POP POP POP JUMP JUMPDEST PUSH0 PUSH2 0x8CE DUP3 PUSH2 0x344 JUMP JUMPDEST SWAP2 POP PUSH2 0x8D9 DUP4 PUSH2 0x30E JUMP JUMPDEST SWAP3 POP PUSH2 0x906 PUSH32 0xFFFFFFFFFFFFFFFFFFFFFFFFFFFFFFFFFFFFFFFFFFFFFFFFFFFFFFFFFFFFFFFF DUP5 DUP5 PUSH2 0x7F3 JUMP JUMPDEST SWAP1 POP SWAP3 SWAP2 POP POP JUMP JUMPDEST PUSH0 PUSH2 0x918 DUP3 PUSH2 0x344 JUMP JUMPDEST SWAP2 POP PUSH2 0x923 DUP4 PUSH2 0x344 JUMP JUMPDEST SWAP3 POP DUP3 DUP3 MUL PUSH2 0x931 DUP2 PUSH2 0x344 JUMP JUMPDEST SWAP2 POP DUP3 DUP3 DIV DUP5 EQ DUP4 ISZERO OR PUSH2 0x948 JUMPI PUSH2 0x947 PUSH2 0x768 JUMP JUMPDEST JUMPDEST POP SWAP3 SWAP2 POP POP JUMP JUMPDEST PUSH2 0x958 DUP2 PUSH2 0x344 JUMP JUMPDEST DUP3 MSTORE POP POP JUMP JUMPDEST PUSH0 PUSH1 0x20 DUP3 ADD SWAP1 POP PUSH2 0x971 PUSH0 DUP4 ADD DUP5 PUSH2 0x94F JUMP JUMPDEST SWAP3 SWAP2 POP POP JUMP JUMPDEST PUSH2 0x1264 DUP1 PUSH2 0x984 PUSH0 CODECOPY PUSH0 RETURN INVALID PUSH1 0x80 PUSH1 0x40 MSTORE CALLVALUE DUP1 ISZERO PUSH2 0xF JUMPI PUSH0 PUSH0 REVERT JUMPDEST POP PUSH1 0x4 CALLDATASIZE LT PUSH2 0xCD JUMPI PUSH0 CALLDATALOAD PUSH1 0xE0 SHR DUP1 PUSH4 0x9012C4A8 GT PUSH2 0x8A JUMPI DUP1 PUSH4 0xACB2AD6F GT PUSH2 0x64 JUMPI DUP1 PUSH4 0xACB2AD6F EQ PUSH2 0x225 JUMPI DUP1 PUSH4 0xC415B95C EQ PUSH2 0x243 JUMPI DUP1 PUSH4 0xD2C35CE8 EQ PUSH2 0x261 JUMPI DUP1 PUSH4 0xDD62ED3E EQ PUSH2 0x27D JUMPI PUSH2 0xCD JUMP JUMPDEST DUP1 PUSH4 0x9012C4A8 EQ PUSH2 0x1BB JUMPI DUP1 PUSH4 0x95D89B41 EQ PUSH2 0x1D7 JUMPI DUP1 PUSH4 0xA9059CBB EQ PUSH2 0x1F5 JUMPI PUSH2 0xCD JUMP JUMPDEST DUP1 PUSH4 0x6FDDE03 EQ PUSH2 0xD1 JUMPI DUP1 PUSH4 0x95EA7B3 EQ PUSH2 0xEF JUMPI DUP1 PUSH4 0x18160DDD EQ PUSH2 0x11F JUMPI DUP1 PUSH4 0x23B872DD EQ PUSH2 0x13D JUMPI DUP1 PUSH4 0x313CE567 EQ PUSH2 0x16D JUMPI DUP1 PUSH4 0x70A08231 EQ PUSH2 0x18B JUMPI JUMPDEST PUSH0 PUSH0 REVERT JUMPDEST PUSH2 0xD9 PUSH2 0x2AD JUMP JUMPDEST PUSH1 0x40 MLOAD PUSH2 0xE6 SWAP2 SWAP1 PUSH2 0xDAE JUMP JUMPDEST PUSH1 0x40 MLOAD DUP1 SWAP2 SUB SWAP1 RETURN JUMPDEST PUSH2 0x109 PUSH1 0x4 DUP1 CALLDATASIZE SUB DUP2 ADD SWAP1 PUSH2 0x104 SWAP2 SWAP1 PUSH2 0xE5F JUMP JUMPDEST PUSH2 0x338 JUMP JUMPDEST PUSH1 0x40 MLOAD PUSH2 0x116 SWAP2 SWAP1 PUSH2 0xEB7 JUMP JUMPDEST PUSH1 0x40 MLOAD DUP1 SWAP2 SUB SWAP1 RETURN JUMPDEST PUSH2 0x127 PUSH2 0x34E JUMP JUMPDEST PUSH1 0x40 MLOAD PUSH2 0x134 SWAP2 SWAP1 PUSH2 0xEDF JUMP JUMPDEST PUSH1 0x40 MLOAD DUP1 SWAP2 SUB SWAP1 RETURN JUMPDEST PUSH2 0x157 PUSH1 0x4 DUP1 CALLDATASIZE SUB DUP2 ADD SWAP1 PUSH2 0x152 SWAP2 SWAP1 PUSH2 0xEF8 JUMP JUMPDEST PUSH2 0x354 JUMP JUMPDEST PUSH1 0x40 MLOAD PUSH2 0x164 SWAP2 SWAP1 PUSH2 0xEB7 JUMP JUMPDEST PUSH1 0x40 MLOAD DUP1 SWAP2 SUB SWAP1 RETURN JUMPDEST PUSH2 0x175 PUSH2 0x376 JUMP JUMPDEST PUSH1 0x40 MLOAD PUSH2 0x182 SWAP2 SWAP1 PUSH2 0xF63 JUMP JUMPDEST PUSH1 0x40 MLOAD DUP1 SWAP2 SUB SWAP1 RETURN JUMPDEST PUSH2 0x1A5 PUSH1 0x4 DUP1 CALLDATASIZE SUB DUP2 ADD SWAP1 PUSH2 0x1A0 SWAP2 SWAP1 PUSH2 0xF7C JUMP JUMPDEST PUSH2 0x388 JUMP JUMPDEST PUSH1 0x40 MLOAD PUSH2 0x1B2 SWAP2 SWAP1 PUSH2 0xEDF JUMP JUMPDEST PUSH1 0x40 MLOAD DUP1 SWAP2 SUB SWAP1 RETURN JUMPDEST PUSH2 0x1D5 PUSH1 0x4 DUP1 CALLDATASIZE SUB DUP2 ADD SWAP1 PUSH2 0x1D0 SWAP2 SWAP1 PUSH2 0xFA7 JUMP JUMPDEST PUSH2 0x3CE JUMP JUMPDEST STOP JUMPDEST PUSH2 0x1DF PUSH2 0x4A3 JUMP JUMPDEST PUSH1 0x40 MLOAD PUSH2 0x1EC SWAP2 SWAP1 PUSH2 0xDAE JUMP JUMPDEST PUSH1 0x40 MLOAD DUP1 SWAP2 SUB SWAP1 RETURN JUMPDEST PUSH2 0x20F PUSH1 0x4 DUP1 CALLDATASIZE SUB DUP2 ADD SWAP1 PUSH2 0x20A SWAP2 SWAP1 PUSH2 0xE5F JUMP JUMPDEST PUSH2 0x52F JUMP JUMPDEST PUSH1 0x40 MLOAD PUSH2 0x21C SWAP2 SWAP1 PUSH2 0xEB7 JUMP JUMPDEST PUSH1 0x40 MLOAD DUP1 SWAP2 SUB SWAP1 RETURN JUMPDEST PUSH2 0x22D PUSH2 0x545 JUMP JUMPDEST PUSH1 0x40 MLOAD PUSH2 0x23A SWAP2 SWAP1 PUSH2 0xEDF JUMP JUMPDEST PUSH1 0x40 MLOAD DUP1 SWAP2 SUB SWAP1 RETURN JUMPDEST PUSH2 0x24B PUSH2 0x54B JUMP JUMPDEST PUSH1 0x40 MLOAD PUSH2 0x258 SWAP2 SWAP1 PUSH2 0xFE1 JUMP JUMPDEST PUSH1 0x40 MLOAD DUP1 SWAP2 SUB SWAP1 RETURN JUMPDEST PUSH2 0x27B PUSH1 0x4 DUP1 CALLDATASIZE SUB DUP2 ADD SWAP1 PUSH2 0x276 SWAP2 SWAP1 PUSH2 0xF7C JUMP JUMPDEST PUSH2 0x570 JUMP JUMPDEST STOP JUMPDEST PUSH2 0x297 PUSH1 0x4 DUP1 CALLDATASIZE SUB DUP2 ADD SWAP1 PUSH2 0x292 SWAP2 SWAP1 PUSH2 0xFFA JUMP JUMPDEST PUSH2 0x6A7 JUMP JUMPDEST PUSH1 0x40 MLOAD PUSH2 0x2A4 SWAP2 SWAP1 PUSH2 0xEDF JUMP JUMPDEST PUSH1 0x40 MLOAD DUP1 SWAP2 SUB SWAP1 RETURN JUMPDEST PUSH0 DUP1 SLOAD PUSH2 0x2B9 SWAP1 PUSH2 0x1065 JUMP JUMPDEST DUP1 PUSH1 0x1F ADD PUSH1 0x20 DUP1 SWAP2 DIV MUL PUSH1 0x20 ADD PUSH1 0x40 MLOAD SWAP1 DUP2 ADD PUSH1 0x40 MSTORE DUP1 SWAP3 SWAP2 SWAP1 DUP2 DUP2 MSTORE PUSH1 0x20 ADD DUP3 DUP1 SLOAD PUSH2 0x2E5 SWAP1 PUSH2 0x1065 JUMP JUMPDEST DUP1 ISZERO PUSH2 0x330 JUMPI DUP1 PUSH1 0x1F LT PUSH2 0x307 JUMPI PUSH2 0x100 DUP1 DUP4 SLOAD DIV MUL DUP4 MSTORE SWAP2 PUSH1 0x20 ADD SWAP2 PUSH2 0x330 JUMP JUMPDEST DUP3 ADD SWAP2 SWAP1 PUSH0 MSTORE PUSH1 0x20 PUSH0 KECCAK256 SWAP1 JUMPDEST DUP2 SLOAD DUP2 MSTORE SWAP1 PUSH1 0x1 ADD SWAP1 PUSH1 0x20 ADD DUP1 DUP4 GT PUSH2 0x313 JUMPI DUP3 SWAP1 SUB PUSH1 0x1F AND DUP3 ADD SWAP2 JUMPDEST POP POP POP POP POP DUP2 JUMP JUMPDEST PUSH0 PUSH2 0x344 CALLER DUP5 DUP5 PUSH2 0x729 JUMP JUMPDEST PUSH1 0x1 SWAP1 POP SWAP3 SWAP2 POP POP JUMP JUMPDEST PUSH1 0x3 SLOAD DUP2 JUMP JUMPDEST PUSH0 PUSH2 0x360 DUP5 CALLER DUP5 PUSH2 0x8DA JUMP JUMPDEST PUSH2 0x36B DUP5 DUP5 DUP5 PUSH2 0x965 JUMP JUMPDEST PUSH1 0x1 SWAP1 POP SWAP4 SWAP3 POP POP POP JUMP JUMPDEST PUSH1 0x2 PUSH0 SWAP1 SLOAD SWAP1 PUSH2 0x100 EXP SWAP1 DIV PUSH1 0xFF AND DUP2 JUMP JUMPDEST PUSH0 PUSH1 0x4 PUSH0 DUP4 PUSH20 0xFFFFFFFFFFFFFFFFFFFFFFFFFFFFFFFFFFFFFFFF AND PUSH20 0xFFFFFFFFFFFFFFFFFFFFFFFFFFFFFFFFFFFFFFFF AND DUP2 MSTORE PUSH1 0x20 ADD SWAP1 DUP2 MSTORE PUSH1 0x20 ADD PUSH0 KECCAK256 SLOAD SWAP1 POP SWAP2 SWAP1 POP JUMP JUMPDEST PUSH1 0x6 PUSH0 SWAP1 SLOAD SWAP1 PUSH2 0x100 EXP SWAP1 DIV PUSH20 0xFFFFFFFFFFFFFFFFFFFFFFFFFFFFFFFFFFFFFFFF AND PUSH20 0xFFFFFFFFFFFFFFFFFFFFFFFFFFFFFFFFFFFFFFFF AND CALLER PUSH20 0xFFFFFFFFFFFFFFFFFFFFFFFFFFFFFFFFFFFFFFFF AND EQ PUSH2 0x45D JUMPI PUSH1 0x40 MLOAD PUSH32 0x8C379A000000000000000000000000000000000000000000000000000000000 DUP2 MSTORE PUSH1 0x4 ADD PUSH2 0x454 SWAP1 PUSH2 0x10DF JUMP JUMPDEST PUSH1 0x40 MLOAD DUP1 SWAP2 SUB SWAP1 REVERT JUMPDEST PUSH2 0x3E8 DUP2 GT ISZERO PUSH2 0x499 JUMPI PUSH1 0x40 MLOAD PUSH32 0x58D620B300000000000000000000000000000000000000000000000000000000 DUP2 MSTORE PUSH1 0x4 ADD PUSH1 0x40 MLOAD DUP1 SWAP2 SUB SWAP1 REVERT JUMPDEST DUP1 PUSH1 0x7 DUP2 SWAP1 SSTORE POP POP JUMP JUMPDEST PUSH1 0x1 DUP1 SLOAD PUSH2 0x4B0 SWAP1 PUSH2 0x1065 JUMP JUMPDEST DUP1 PUSH1 0x1F ADD PUSH1 0x20 DUP1 SWAP2 DIV MUL PUSH1 0x20 ADD PUSH1 0x40 MLOAD SWAP1 DUP2 ADD PUSH1 0x40 MSTORE DUP1 SWAP3 SWAP2 SWAP1 DUP2 DUP2 MSTORE PUSH1 0x20 ADD DUP3 DUP1 SLOAD PUSH2 0x4DC SWAP1 PUSH2 0x1065 JUMP JUMPDEST DUP1 ISZERO PUSH2 0x527 JUMPI DUP1 PUSH1 0x1F LT PUSH2 0x4FE JUMPI PUSH2 0x100 DUP1 DUP4 SLOAD DIV MUL DUP4 MSTORE SWAP2 PUSH1 0x20 ADD SWAP2 PUSH2 0x527 JUMP JUMPDEST DUP3 ADD SWAP2 SWAP1 PUSH0 MSTORE PUSH1 0x20 PUSH0 KECCAK256 SWAP1 JUMPDEST DUP2 SLOAD DUP2 MSTORE SWAP1 PUSH1 0x1 ADD SWAP1 PUSH1 0x20 ADD DUP1 DUP4 GT PUSH2 0x50A JUMPI DUP3 SWAP1 SUB PUSH1 0x1F AND DUP3 ADD SWAP2 JUMPDEST POP POP POP POP POP DUP2 JUMP JUMPDEST PUSH0 PUSH2 0x53B CALLER DUP5 DUP5 PUSH2 0x965 JUMP JUMPDEST PUSH1 0x1 SWAP1 POP SWAP3 SWAP2 POP POP JUMP JUMPDEST PUSH1 0x7 SLOAD DUP2 JUMP JUMPDEST PUSH1 0x6 PUSH0 SWAP1 SLOAD SWAP1 PUSH2 0x100 EXP SWAP1 DIV PUSH20 0xFFFFFFFFFFFFFFFFFFFFFFFFFFFFFFFFFFFFFFFF AND DUP2 JUMP JUMPDEST PUSH1 0x6 PUSH0 SWAP1 SLOAD SWAP1 PUSH2 0x100 EXP SWAP1 DIV PUSH20 0xFFFFFFFFFFFFFFFFFFFFFFFFFFFFFFFFFFFFFFFF AND PUSH20 0xFFFFFFFFFFFFFFFFFFFFFFFFFFFFFFFFFFFFFFFF AND CALLER PUSH20 0xFFFFFFFFFFFFFFFFFFFFFFFFFFFFFFFFFFFFFFFF AND EQ PUSH2 0x5FF JUMPI PUSH1 0x40 MLOAD PUSH32 0x8C379A000000000000000000000000000000000000000000000000000000000 DUP2 MSTORE PUSH1 0x4 ADD PUSH2 0x5F6 SWAP1 PUSH2 0x10DF JUMP JUMPDEST PUSH1 0x40 MLOAD DUP1 SWAP2 SUB SWAP1 REVERT JUMPDEST PUSH0 PUSH20 0xFFFFFFFFFFFFFFFFFFFFFFFFFFFFFFFFFFFFFFFF AND DUP2 PUSH20 0xFFFFFFFFFFFFFFFFFFFFFFFFFFFFFFFFFFFFFFFF AND SUB PUSH2 0x664 JUMPI PUSH1 0x40 MLOAD PUSH32 0xD92E233D00000000000000000000000000000000000000000000000000000000 DUP2 MSTORE PUSH1 0x4 ADD PUSH1 0x40 MLOAD DUP1 SWAP2 SUB SWAP1 REVERT JUMPDEST DUP1 PUSH1 0x6 PUSH0 PUSH2 0x100 EXP DUP2 SLOAD DUP2 PUSH20 0xFFFFFFFFFFFFFFFFFFFFFFFFFFFFFFFFFFFFFFFF MUL NOT AND SWAP1 DUP4 PUSH20 0xFFFFFFFFFFFFFFFFFFFFFFFFFFFFFFFFFFFFFFFF AND MUL OR SWAP1 SSTORE POP POP JUMP JUMPDEST PUSH0 PUSH1 0x5 PUSH0 DUP5 PUSH20 0xFFFFFFFFFFFFFFFFFFFFFFFFFFFFFFFFFFFFFFFF AND PUSH20 0xFFFFFFFFFFFFFFFFFFFFFFFFFFFFFFFFFFFFFFFF AND DUP2 MSTORE PUSH1 0x20 ADD SWAP1 DUP2 MSTORE PUSH1 0x20 ADD PUSH0 KECCAK256 PUSH0 DUP4 PUSH20 0xFFFFFFFFFFFFFFFFFFFFFFFFFFFFFFFFFFFFFFFF AND PUSH20 0xFFFFFFFFFFFFFFFFFFFFFFFFFFFFFFFFFFFFFFFF AND DUP2 MSTORE PUSH1 0x20 ADD SWAP1 DUP2 MSTORE PUSH1 0x20 ADD PUSH0 KECCAK256 SLOAD SWAP1 POP SWAP3 SWAP2 POP POP JUMP JUMPDEST PUSH0 PUSH20 0xFFFFFFFFFFFFFFFFFFFFFFFFFFFFFFFFFFFFFFFF AND DUP4 PUSH20 0xFFFFFFFFFFFFFFFFFFFFFFFFFFFFFFFFFFFFFFFF AND SUB PUSH2 0x78E JUMPI PUSH1 0x40 MLOAD PUSH32 0xD92E233D00000000000000000000000000000000000000000000000000000000 DUP2 MSTORE PUSH1 0x4 ADD PUSH1 0x40 MLOAD DUP1 SWAP2 SUB SWAP1 REVERT JUMPDEST PUSH0 PUSH20 0xFFFFFFFFFFFFFFFFFFFFFFFFFFFFFFFFFFFFFFFF AND DUP3 PUSH20 0xFFFFFFFFFFFFFFFFFFFFFFFFFFFFFFFFFFFFFFFF AND SUB PUSH2 0x7F3 JUMPI PUSH1 0x40 MLOAD PUSH32 0xD92E233D00000000000000000000000000000000000000000000000000000000 DUP2 MSTORE PUSH1 0x4 ADD PUSH1 0x40 MLOAD DUP1 SWAP2 SUB SWAP1 REVERT JUMPDEST DUP1 PUSH1 0x5 PUSH0 DUP6 PUSH20 0xFFFFFFFFFFFFFFFFFFFFFFFFFFFFFFFFFFFFFFFF AND PUSH20 0xFFFFFFFFFFFFFFFFFFFFFFFFFFFFFFFFFFFFFFFF AND DUP2 MSTORE PUSH1 0x20 ADD SWAP1 DUP2 MSTORE PUSH1 0x20 ADD PUSH0 KECCAK256 PUSH0 DUP5 PUSH20 0xFFFFFFFFFFFFFFFFFFFFFFFFFFFFFFFFFFFFFFFF AND PUSH20 0xFFFFFFFFFFFFFFFFFFFFFFFFFFFFFFFFFFFFFFFF AND DUP2 MSTORE PUSH1 0x20 ADD SWAP1 DUP2 MSTORE PUSH1 0x20 ADD PUSH0 KECCAK256 DUP2 SWAP1 SSTORE POP DUP2 PUSH20 0xFFFFFFFFFFFFFFFFFFFFFFFFFFFFFFFFFFFFFFFF AND DUP4 PUSH20 0xFFFFFFFFFFFFFFFFFFFFFFFFFFFFFFFFFFFFFFFF AND PUSH32 0x8C5BE1E5EBEC7D5BD14F71427D1E84F3DD0314C0F7B2291E5B200AC8C7C3B925 DUP4 PUSH1 0x40 MLOAD PUSH2 0x8CD SWAP2 SWAP1 PUSH2 0xEDF JUMP JUMPDEST PUSH1 0x40 MLOAD DUP1 SWAP2 SUB SWAP1 LOG3 POP POP POP JUMP JUMPDEST PUSH0 PUSH2 0x8E5 DUP5 DUP5 PUSH2 0x6A7 JUMP JUMPDEST SWAP1 POP PUSH32 0xFFFFFFFFFFFFFFFFFFFFFFFFFFFFFFFFFFFFFFFFFFFFFFFFFFFFFFFFFFFFFFFF DUP2 EQ PUSH2 0x95F JUMPI DUP2 DUP2 LT ISZERO PUSH2 0x948 JUMPI PUSH1 0x40 MLOAD PUSH32 0xF4D678B800000000000000000000000000000000000000000000000000000000 DUP2 MSTORE PUSH1 0x4 ADD PUSH1 0x40 MLOAD DUP1 SWAP2 SUB SWAP1 REVERT JUMPDEST PUSH2 0x95E DUP5 DUP5 DUP5 DUP5 PUSH2 0x959 SWAP2 SWAP1 PUSH2 0x112A JUMP JUMPDEST PUSH2 0x729 JUMP JUMPDEST JUMPDEST POP POP POP POP JUMP JUMPDEST PUSH0 PUSH20 0xFFFFFFFFFFFFFFFFFFFFFFFFFFFFFFFFFFFFFFFF AND DUP4 PUSH20 0xFFFFFFFFFFFFFFFFFFFFFFFFFFFFFFFFFFFFFFFF AND SUB PUSH2 0x9CA JUMPI PUSH1 0x40 MLOAD PUSH32 0xD92E233D00000000000000000000000000000000000000000000000000000000 DUP2 MSTORE PUSH1 0x4 ADD PUSH1 0x40 MLOAD DUP1 SWAP2 SUB SWAP1 REVERT JUMPDEST PUSH0 PUSH20 0xFFFFFFFFFFFFFFFFFFFFFFFFFFFFFFFFFFFFFFFF AND DUP3 PUSH20 0xFFFFFFFFFFFFFFFFFFFFFFFFFFFFFFFFFFFFFFFF AND SUB PUSH2 0xA2F JUMPI PUSH1 0x40 MLOAD PUSH32 0xD92E233D00000000000000000000000000000000000000000000000000000000 DUP2 MSTORE PUSH1 0x4 ADD PUSH1 0x40 MLOAD DUP1 SWAP2 SUB SWAP1 REVERT JUMPDEST PUSH0 PUSH1 0x4 PUSH0 DUP6 PUSH20 0xFFFFFFFFFFFFFFFFFFFFFFFFFFFFFFFFFFFFFFFF AND PUSH20 0xFFFFFFFFFFFFFFFFFFFFFFFFFFFFFFFFFFFFFFFF AND DUP2 MSTORE PUSH1 0x20 ADD SWAP1 DUP2 MSTORE PUSH1 0x20 ADD PUSH0 KECCAK256 SLOAD SWAP1 POP DUP2 DUP2 LT ISZERO PUSH2 0xAAA JUMPI PUSH1 0x40 MLOAD PUSH32 0xF4D678B800000000000000000000000000000000000000000000000000000000 DUP2 MSTORE PUSH1 0x4 ADD PUSH1 0x40 MLOAD DUP1 SWAP2 SUB SWAP1 REVERT JUMPDEST PUSH0 PUSH2 0x2710 PUSH1 0x7 SLOAD DUP5 PUSH2 0xABC SWAP2 SWAP1 PUSH2 0x115D JUMP JUMPDEST PUSH2 0xAC6 SWAP2 SWAP1 PUSH2 0x11CB JUMP JUMPDEST SWAP1 POP PUSH0 DUP2 DUP5 PUSH2 0xAD5 SWAP2 SWAP1 PUSH2 0x112A JUMP JUMPDEST SWAP1 POP DUP4 DUP4 PUSH2 0xAE3 SWAP2 SWAP1 PUSH2 0x112A JUMP JUMPDEST PUSH1 0x4 PUSH0 DUP9 PUSH20 0xFFFFFFFFFFFFFFFFFFFFFFFFFFFFFFFFFFFFFFFF AND PUSH20 0xFFFFFFFFFFFFFFFFFFFFFFFFFFFFFFFFFFFFFFFF AND DUP2 MSTORE PUSH1 0x20 ADD SWAP1 DUP2 MSTORE PUSH1 0x20 ADD PUSH0 KECCAK256 DUP2 SWAP1 SSTORE POP DUP1 PUSH1 0x4 PUSH0 DUP8 PUSH20 0xFFFFFFFFFFFFFFFFFFFFFFFFFFFFFFFFFFFFFFFF AND PUSH20 0xFFFFFFFFFFFFFFFFFFFFFFFFFFFFFFFFFFFFFFFF AND DUP2 MSTORE PUSH1 0x20 ADD SWAP1 DUP2 MSTORE PUSH1 0x20 ADD PUSH0 KECCAK256 PUSH0 DUP3 DUP3 SLOAD PUSH2 0xB70 SWAP2 SWAP1 PUSH2 0x11FB JUMP JUMPDEST SWAP3 POP POP DUP2 SWAP1 SSTORE POP PUSH0 DUP3 GT ISZERO PUSH2 0xC42 JUMPI DUP2 PUSH1 0x4 PUSH0 PUSH1 0x6 PUSH0 SWAP1 SLOAD SWAP1 PUSH2 0x100 EXP SWAP1 DIV PUSH20 0xFFFFFFFFFFFFFFFFFFFFFFFFFFFFFFFFFFFFFFFF AND PUSH20 0xFFFFFFFFFFFFFFFFFFFFFFFFFFFFFFFFFFFFFFFF AND PUSH20 0xFFFFFFFFFFFFFFFFFFFFFFFFFFFFFFFFFFFFFFFF AND DUP2 MSTORE PUSH1 0x20 ADD SWAP1 DUP2 MSTORE PUSH1 0x20 ADD PUSH0 KECCAK256 PUSH0 DUP3 DUP3 SLOAD PUSH2 0xBEC SWAP2 SWAP1 PUSH2 0x11FB JUMP JUMPDEST SWAP3 POP POP DUP2 SWAP1 SSTORE POP DUP6 PUSH20 0xFFFFFFFFFFFFFFFFFFFFFFFFFFFFFFFFFFFFFFFF AND PUSH32 0x6C5EFEFF5C320943D265DC4E5F1AF95AD523555CE0C1957E367DDA5514572DF DUP4 PUSH1 0x40 MLOAD PUSH2 0xC39 SWAP2 SWAP1 PUSH2 0xEDF JUMP JUMPDEST PUSH1 0x40 MLOAD DUP1 SWAP2 SUB SWAP1 LOG2 JUMPDEST DUP5 PUSH20 0xFFFFFFFFFFFFFFFFFFFFFFFFFFFFFFFFFFFFFFFF AND DUP7 PUSH20 0xFFFFFFFFFFFFFFFFFFFFFFFFFFFFFFFFFFFFFFFF AND PUSH32 0xDDF252AD1BE2C89B69C2B068FC378DAA952BA7F163C4A11628F55A4DF523B3EF DUP4 PUSH1 0x40 MLOAD PUSH2 0xC9F SWAP2 SWAP1 PUSH2 0xEDF JUMP JUMPDEST PUSH1 0x40 MLOAD DUP1 SWAP2 SUB SWAP1 LOG3 PUSH0 DUP3 GT ISZERO PUSH2 0xD36 JUMPI PUSH1 0x6 PUSH0 SWAP1 SLOAD SWAP1 PUSH2 0x100 EXP SWAP1 DIV PUSH20 0xFFFFFFFFFFFFFFFFFFFFFFFFFFFFFFFFFFFFFFFF AND PUSH20 0xFFFFFFFFFFFFFFFFFFFFFFFFFFFFFFFFFFFFFFFF AND DUP7 PUSH20 0xFFFFFFFFFFFFFFFFFFFFFFFFFFFFFFFFFFFFFFFF AND PUSH32 0xDDF252AD1BE2C89B69C2B068FC378DAA952BA7F163C4A11628F55A4DF523B3EF DUP5 PUSH1 0x40 MLOAD PUSH2 0xD2D SWAP2 SWAP1 PUSH2 0xEDF JUMP JUMPDEST PUSH1 0x40 MLOAD DUP1 SWAP2 SUB SWAP1 LOG3 JUMPDEST POP POP POP POP POP POP JUMP JUMPDEST PUSH0 DUP2 MLOAD SWAP1 POP SWAP2 SWAP1 POP JUMP JUMPDEST PUSH0 DUP3 DUP3 MSTORE PUSH1 0x20 DUP3 ADD SWAP1 POP SWAP3 SWAP2 POP POP JUMP JUMPDEST DUP3 DUP2 DUP4 MCOPY PUSH0 DUP4 DUP4 ADD MSTORE POP POP POP JUMP JUMPDEST PUSH0 PUSH1 0x1F NOT PUSH1 0x1F DUP4 ADD AND SWAP1 POP SWAP2 SWAP1 POP JUMP JUMPDEST PUSH0 PUSH2 0xD80 DUP3 PUSH2 0xD3E JUMP JUMPDEST PUSH2 0xD8A DUP2 DUP6 PUSH2 0xD48 JUMP JUMPDEST SWAP4 POP PUSH2 0xD9A DUP2 DUP6 PUSH1 0x20 DUP7 ADD PUSH2 0xD58 JUMP JUMPDEST PUSH2 0xDA3 DUP2 PUSH2 0xD66 JUMP JUMPDEST DUP5 ADD SWAP2 POP POP SWAP3 SWAP2 POP POP JUMP JUMPDEST PUSH0 PUSH1 0x20 DUP3 ADD SWAP1 POP DUP2 DUP2 SUB PUSH0 DUP4 ADD MSTORE PUSH2 0xDC6 DUP2 DUP5 PUSH2 0xD76 JUMP JUMPDEST SWAP1 POP SWAP3 SWAP2 POP POP JUMP JUMPDEST PUSH0 PUSH0 REVERT JUMPDEST PUSH0 PUSH20 0xFFFFFFFFFFFFFFFFFFFFFFFFFFFFFFFFFFFFFFFF DUP3 AND SWAP1 POP SWAP2 SWAP1 POP JUMP JUMPDEST PUSH0 PUSH2 0xDFB DUP3 PUSH2 0xDD2 JUMP JUMPDEST SWAP1 POP SWAP2 SWAP1 POP JUMP JUMPDEST PUSH2 0xE0B DUP2 PUSH2 0xDF1 JUMP JUMPDEST DUP2 EQ PUSH2 0xE15 JUMPI PUSH0 PUSH0 REVERT JUMPDEST POP JUMP JUMPDEST PUSH0 DUP2 CALLDATALOAD SWAP1 POP PUSH2 0xE26 DUP2 PUSH2 0xE02 JUMP JUMPDEST SWAP3 SWAP2 POP POP JUMP JUMPDEST PUSH0 DUP2 SWAP1 POP SWAP2 SWAP1 POP JUMP JUMPDEST PUSH2 0xE3E DUP2 PUSH2 0xE2C JUMP JUMPDEST DUP2 EQ PUSH2 0xE48 JUMPI PUSH0 PUSH0 REVERT JUMPDEST POP JUMP JUMPDEST PUSH0 DUP2 CALLDATALOAD SWAP1 POP PUSH2 0xE59 DUP2 PUSH2 0xE35 JUMP JUMPDEST SWAP3 SWAP2 POP POP JUMP JUMPDEST PUSH0 PUSH0 PUSH1 0x40 DUP4 DUP6 SUB SLT ISZERO PUSH2 0xE75 JUMPI PUSH2 0xE74 PUSH2 0xDCE JUMP JUMPDEST JUMPDEST PUSH0 PUSH2 0xE82 DUP6 DUP3 DUP7 ADD PUSH2 0xE18 JUMP JUMPDEST SWAP3 POP POP PUSH1 0x20 PUSH2 0xE93 DUP6 DUP3 DUP7 ADD PUSH2 0xE4B JUMP JUMPDEST SWAP2 POP POP SWAP3 POP SWAP3 SWAP1 POP JUMP JUMPDEST PUSH0 DUP2 ISZERO ISZERO SWAP1 POP SWAP2 SWAP1 POP JUMP JUMPDEST PUSH2 0xEB1 DUP2 PUSH2 0xE9D JUMP JUMPDEST DUP3 MSTORE POP POP JUMP JUMPDEST PUSH0 PUSH1 0x20 DUP3 ADD SWAP1 POP PUSH2 0xECA PUSH0 DUP4 ADD DUP5 PUSH2 0xEA8 JUMP JUMPDEST SWAP3 SWAP2 POP POP JUMP JUMPDEST PUSH2 0xED9 DUP2 PUSH2 0xE2C JUMP JUMPDEST DUP3 MSTORE POP POP JUMP JUMPDEST PUSH0 PUSH1 0x20 DUP3 ADD SWAP1 POP PUSH2 0xEF2 PUSH0 DUP4 ADD DUP5 PUSH2 0xED0 JUMP JUMPDEST SWAP3 SWAP2 POP POP JUMP JUMPDEST PUSH0 PUSH0 PUSH0 PUSH1 0x60 DUP5 DUP7 SUB SLT ISZERO PUSH2 0xF0F JUMPI PUSH2 0xF0E PUSH2 0xDCE JUMP JUMPDEST JUMPDEST PUSH0 PUSH2 0xF1C DUP7 DUP3 DUP8 ADD PUSH2 0xE18 JUMP JUMPDEST SWAP4 POP POP PUSH1 0x20 PUSH2 0xF2D DUP7 DUP3 DUP8 ADD PUSH2 0xE18 JUMP JUMPDEST SWAP3 POP POP PUSH1 0x40 PUSH2 0xF3E DUP7 DUP3 DUP8 ADD PUSH2 0xE4B JUMP JUMPDEST SWAP2 POP POP SWAP3 POP SWAP3 POP SWAP3 JUMP JUMPDEST PUSH0 PUSH1 0xFF DUP3 AND SWAP1 POP SWAP2 SWAP1 POP JUMP JUMPDEST PUSH2 0xF5D DUP2 PUSH2 0xF48 JUMP JUMPDEST DUP3 MSTORE POP POP JUMP JUMPDEST PUSH0 PUSH1 0x20 DUP3 ADD SWAP1 POP PUSH2 0xF76 PUSH0 DUP4 ADD DUP5 PUSH2 0xF54 JUMP JUMPDEST SWAP3 SWAP2 POP POP JUMP JUMPDEST PUSH0 PUSH1 0x20 DUP3 DUP5 SUB SLT ISZERO PUSH2 0xF91 JUMPI PUSH2 0xF90 PUSH2 0xDCE JUMP JUMPDEST JUMPDEST PUSH0 PUSH2 0xF9E DUP5 DUP3 DUP6 ADD PUSH2 0xE18 JUMP JUMPDEST SWAP2 POP POP SWAP3 SWAP2 POP POP JUMP JUMPDEST PUSH0 PUSH1 0x20 DUP3 DUP5 SUB SLT ISZERO PUSH2 0xFBC JUMPI PUSH2 0xFBB PUSH2 0xDCE JUMP JUMPDEST JUMPDEST PUSH0 PUSH2 0xFC9 DUP5 DUP3 DUP6 ADD PUSH2 0xE4B JUMP JUMPDEST SWAP2 POP POP SWAP3 SWAP2 POP POP JUMP JUMPDEST PUSH2 0xFDB DUP2 PUSH2 0xDF1 JUMP JUMPDEST DUP3 MSTORE POP POP JUMP JUMPDEST PUSH0 PUSH1 0x20 DUP3 ADD SWAP1 POP PUSH2 0xFF4 PUSH0 DUP4 ADD DUP5 PUSH2 0xFD2 JUMP JUMPDEST SWAP3 SWAP2 POP POP JUMP JUMPDEST PUSH0 PUSH0 PUSH1 0x40 DUP4 DUP6 SUB SLT ISZERO PUSH2 0x1010 JUMPI PUSH2 0x100F PUSH2 0xDCE JUMP JUMPDEST JUMPDEST PUSH0 PUSH2 0x101D DUP6 DUP3 DUP7 ADD PUSH2 0xE18 JUMP JUMPDEST SWAP3 POP POP PUSH1 0x20 PUSH2 0x102E DUP6 DUP3 DUP7 ADD PUSH2 0xE18 JUMP JUMPDEST SWAP2 POP POP SWAP3 POP SWAP3 SWAP1 POP JUMP JUMPDEST PUSH32 0x4E487B7100000000000000000000000000000000000000000000000000000000 PUSH0 MSTORE PUSH1 0x22 PUSH1 0x4 MSTORE PUSH1 0x24 PUSH0 REVERT JUMPDEST PUSH0 PUSH1 0x2 DUP3 DIV SWAP1 POP PUSH1 0x1 DUP3 AND DUP1 PUSH2 0x107C JUMPI PUSH1 0x7F DUP3 AND SWAP2 POP JUMPDEST PUSH1 0x20 DUP3 LT DUP2 SUB PUSH2 0x108F JUMPI PUSH2 0x108E PUSH2 0x1038 JUMP JUMPDEST JUMPDEST POP SWAP2 SWAP1 POP JUMP JUMPDEST PUSH32 0x4E6F742066656520636F6C6C6563746F72000000000000000000000000000000 PUSH0 DUP3 ADD MSTORE POP JUMP JUMPDEST PUSH0 PUSH2 0x10C9 PUSH1 0x11 DUP4 PUSH2 0xD48 JUMP JUMPDEST SWAP2 POP PUSH2 0x10D4 DUP3 PUSH2 0x1095 JUMP JUMPDEST PUSH1 0x20 DUP3 ADD SWAP1 POP SWAP2 SWAP1 POP JUMP JUMPDEST PUSH0 PUSH1 0x20 DUP3 ADD SWAP1 POP DUP2 DUP2 SUB PUSH0 DUP4 ADD MSTORE PUSH2 0x10F6 DUP2 PUSH2 0x10BD JUMP JUMPDEST SWAP1 POP SWAP2 SWAP1 POP JUMP JUMPDEST PUSH32 0x4E487B7100000000000000000000000000000000000000000000000000000000 PUSH0 MSTORE PUSH1 0x11 PUSH1 0x4 MSTORE PUSH1 0x24 PUSH0 REVERT JUMPDEST PUSH0 PUSH2 0x1134 DUP3 PUSH2 0xE2C JUMP JUMPDEST SWAP2 POP PUSH2 0x113F DUP4 PUSH2 0xE2C JUMP JUMPDEST SWAP3 POP DUP3 DUP3 SUB SWAP1 POP DUP2 DUP2 GT ISZERO PUSH2 0x1157 JUMPI PUSH2 0x1156 PUSH2 0x10FD JUMP JUMPDEST JUMPDEST SWAP3 SWAP2 POP POP JUMP JUMPDEST PUSH0 PUSH2 0x1167 DUP3 PUSH2 0xE2C JUMP JUMPDEST SWAP2 POP PUSH2 0x1172 DUP4 PUSH2 0xE2C JUMP JUMPDEST SWAP3 POP DUP3 DUP3 MUL PUSH2 0x1180 DUP2 PUSH2 0xE2C JUMP JUMPDEST SWAP2 POP DUP3 DUP3 DIV DUP5 EQ DUP4 ISZERO OR PUSH2 0x1197 JUMPI PUSH2 0x1196 PUSH2 0x10FD JUMP JUMPDEST JUMPDEST POP SWAP3 SWAP2 POP POP JUMP JUMPDEST PUSH32 0x4E487B7100000000000000000000000000000000000000000000000000000000 PUSH0 MSTORE PUSH1 0x12 PUSH1 0x4 MSTORE PUSH1 0x24 PUSH0 REVERT JUMPDEST PUSH0 PUSH2 0x11D5 DUP3 PUSH2 0xE2C JUMP JUMPDEST SWAP2 POP PUSH2 0x11E0 DUP4 PUSH2 0xE2C JUMP JUMPDEST SWAP3 POP DUP3 PUSH2 0x11F0 JUMPI PUSH2 0x11EF PUSH2 0x119E JUMP JUMPDEST JUMPDEST DUP3 DUP3 DIV SWAP1 POP SWAP3 SWAP2 POP POP JUMP JUMPDEST PUSH0 PUSH2 0x1205 DUP3 PUSH2 0xE2C JUMP JUMPDEST SWAP2 POP PUSH2 0x1210 DUP4 PUSH2 0xE2C JUMP JUMPDEST SWAP3 POP DUP3 DUP3 ADD SWAP1 POP DUP1 DUP3 GT ISZERO PUSH2 0x1228 JUMPI PUSH2 0x1227 PUSH2 0x10FD JUMP JUMPDEST JUMPDEST SWAP3 SWAP2 POP POP JUMP INVALID LOG2 PUSH5 0x6970667358 0x22 SLT KECCAK256 KECCAK256 0x22 PUSH21 0x10C0DADFFDDD62B144CFFCB87E04A17DCFA6FB628A ISZERO NOT SMOD PUSH31 0xEAA2DF5264736F6C634300081E003300000000000000000000000000000000 "
				},
				"gasEstimates": {
					"creation": {
						"codeDepositCost": "941600",
						"executionCost": "infinite",
						"totalCost": "infinite"
					},
					"external": {
						"allowance(address,address)": "infinite",
						"approve(address,uint256)": "infinite",
						"balanceOf(address)": "2940",
						"decimals()": "2555",
						"feeCollector()": "2552",
						"name()": "infinite",
						"symbol()": "infinite",
						"totalSupply()": "2470",
						"transfer(address,uint256)": "infinite",
						"transferFee()": "2447",
						"transferFrom(address,address,uint256)": "infinite",
						"updateFee(uint256)": "24733",
						"updateFeeCollector(address)": "26984"
					},
					"internal": {
						"_approve(address,address,uint256)": "infinite",
						"_spendAllowance(address,address,uint256)": "infinite",
						"_transferWithFee(address,address,uint256)": "infinite"
					}
				},
				"methodIdentifiers": {
					"allowance(address,address)": "dd62ed3e",
					"approve(address,uint256)": "095ea7b3",
					"balanceOf(address)": "70a08231",
					"decimals()": "313ce567",
					"feeCollector()": "c415b95c",
					"name()": "06fdde03",
					"symbol()": "95d89b41",
					"totalSupply()": "18160ddd",
					"transfer(address,uint256)": "a9059cbb",
					"transferFee()": "acb2ad6f",
					"transferFrom(address,address,uint256)": "23b872dd",
					"updateFee(uint256)": "9012c4a8",
					"updateFeeCollector(address)": "d2c35ce8"
				}
			},
			"storageLayout": {
				"storage": [
					{
						"astId": 3,
						"contract": "ECR-20/feetoken.sol:FeeToken",
						"label": "name",
						"offset": 0,
						"slot": "0",
						"type": "t_string_storage"
					},
					{
						"astId": 5,
						"contract": "ECR-20/feetoken.sol:FeeToken",
						"label": "symbol",
						"offset": 0,
						"slot": "1",
						"type": "t_string_storage"
					},
					{
						"astId": 7,
						"contract": "ECR-20/feetoken.sol:FeeToken",
						"label": "decimals",
						"offset": 0,
						"slot": "2",
						"type": "t_uint8"
					},
					{
						"astId": 9,
						"contract": "ECR-20/feetoken.sol:FeeToken",
						"label": "totalSupply",
						"offset": 0,
						"slot": "3",
						"type": "t_uint256"
					},
					{
						"astId": 13,
						"contract": "ECR-20/feetoken.sol:FeeToken",
						"label": "_balances",
						"offset": 0,
						"slot": "4",
						"type": "t_mapping(t_address,t_uint256)"
					},
					{
						"astId": 19,
						"contract": "ECR-20/feetoken.sol:FeeToken",
						"label": "_allowances",
						"offset": 0,
						"slot": "5",
						"type": "t_mapping(t_address,t_mapping(t_address,t_uint256))"
					},
					{
						"astId": 21,
						"contract": "ECR-20/feetoken.sol:FeeToken",
						"label": "feeCollector",
						"offset": 0,
						"slot": "6",
						"type": "t_address"
					},
					{
						"astId": 23,
						"contract": "ECR-20/feetoken.sol:FeeToken",
						"label": "transferFee",
						"offset": 0,
						"slot": "7",
						"type": "t_uint256"
					}
				],
				"types": {
					"t_address": {
						"encoding": "inplace",
						"label": "address",
						"numberOfBytes": "20"
					},
					"t_mapping(t_address,t_mapping(t_address,t_uint256))": {
						"encoding": "mapping",
						"key": "t_address",
						"label": "mapping(address => mapping(address => uint256))",
						"numberOfBytes": "32",
						"value": "t_mapping(t_address,t_uint256)"
					},
					"t_mapping(t_address,t_uint256)": {
						"encoding": "mapping",
						"key": "t_address",
						"label": "mapping(address => uint256)",
						"numberOfBytes": "32",
						"value": "t_uint256"
					},
					"t_string_storage": {
						"encoding": "bytes",
						"label": "string",
						"numberOfBytes": "32"
					},
					"t_uint256": {
						"encoding": "inplace",
						"label": "uint256",
						"numberOfBytes": "32"
					},
					"t_uint8": {
						"encoding": "inplace",
						"label": "uint8",
						"numberOfBytes": "1"
					}
				}
			},
			"userdoc": {
				"kind": "user",
				"methods": {},
				"version": 1
			}
		}
	}
}