{
	"tryit/SimpleBank.sol": {
		"SimpleBank": {
			"abi": [
				{
					"inputs": [],
					"name": "DEposit",
					"outputs": [],
					"stateMutability": "payable",
					"type": "function"
				},
				{
					"inputs": [
						{
							"internalType": "address",
							"name": "",
							"type": "address"
						}
					],
					"name": "balances",
					"outputs": [
						{
							"internalType": "uint256",
							"name": "",
							"type": "uint256"
						}
					],
					"stateMutability": "view",
					"type": "function"
				},
				{
					"inputs": [
						{
							"internalType": "uint256",
							"name": "amount",
							"type": "uint256"
						}
					],
					"name": "withdraw",
					"outputs": [],
					"stateMutability": "nonpayable",
					"type": "function"
				}
			],
			"devdoc": {
				"kind": "dev",
				"methods": {},
				"version": 1
			},
			"evm": {
				"assembly": "    /* \"tryit/SimpleBank.sol\":60:447  contract SimpleBank{... */\n  mstore(0x40, 0x80)\n  callvalue\n  dup1\n  iszero\n  tag_1\n  jumpi\n  revert(0x00, 0x00)\ntag_1:\n  pop\n  dataSize(sub_0)\n  dup1\n  dataOffset(sub_0)\n  0x00\n  codecopy\n  0x00\n  return\nstop\n\nsub_0: assembly {\n        /* \"tryit/SimpleBank.sol\":60:447  contract SimpleBank{... */\n      mstore(0x40, 0x80)\n      jumpi(tag_1, lt(calldatasize, 0x04))\n      shr(0xe0, calldataload(0x00))\n      dup1\n      0x1b5fa91f\n      eq\n      tag_2\n      jumpi\n      dup1\n      0x27e235e3\n      eq\n      tag_3\n      jumpi\n      dup1\n      0x2e1a7d4d\n      eq\n      tag_4\n      jumpi\n    tag_1:\n      revert(0x00, 0x00)\n        /* \"tryit/SimpleBank.sol\":140:227  function DEposit() public payable  {... */\n    tag_2:\n      tag_5\n      tag_6\n      jump\t// in\n    tag_5:\n      stop\n        /* \"tryit/SimpleBank.sol\":86:131  mapping ( address => uint256) public balances */\n    tag_3:\n      callvalue\n      dup1\n      iszero\n      tag_7\n      jumpi\n      revert(0x00, 0x00)\n    tag_7:\n      pop\n      tag_8\n      0x04\n      dup1\n      calldatasize\n      sub\n      dup2\n      add\n      swap1\n      tag_9\n      swap2\n      swap1\n      tag_10\n      jump\t// in\n    tag_9:\n      tag_11\n      jump\t// in\n    tag_8:\n      mload(0x40)\n      tag_12\n      swap2\n      swap1\n      tag_13\n      jump\t// in\n    tag_12:\n      mload(0x40)\n      dup1\n      swap2\n      sub\n      swap1\n      return\n        /* \"tryit/SimpleBank.sol\":235:446  function withdraw(uint256 amount) public {... */\n    tag_4:\n      callvalue\n      dup1\n      iszero\n      tag_14\n      jumpi\n      revert(0x00, 0x00)\n    tag_14:\n      pop\n      tag_15\n      0x04\n      dup1\n      calldatasize\n      sub\n      dup2\n      add\n      swap1\n      tag_16\n      swap2\n      swap1\n      tag_17\n      jump\t// in\n    tag_16:\n      tag_18\n      jump\t// in\n    tag_15:\n      stop\n        /* \"tryit/SimpleBank.sol\":140:227  function DEposit() public payable  {... */\n    tag_6:\n        /* \"tryit/SimpleBank.sol\":210:219  msg.value */\n      callvalue\n        /* \"tryit/SimpleBank.sol\":186:194  balances */\n      0x00\n        /* \"tryit/SimpleBank.sol\":186:206  balances[msg.sender] */\n      0x00\n        /* \"tryit/SimpleBank.sol\":195:205  msg.sender */\n      caller\n        /* \"tryit/SimpleBank.sol\":186:206  balances[msg.sender] */\n      0xffffffffffffffffffffffffffffffffffffffff\n      and\n      0xffffffffffffffffffffffffffffffffffffffff\n      and\n      dup2\n      mstore\n      0x20\n      add\n      swap1\n      dup2\n      mstore\n      0x20\n      add\n      0x00\n      keccak256\n      0x00\n        /* \"tryit/SimpleBank.sol\":186:219  balances[msg.sender] += msg.value */\n      dup3\n      dup3\n      sload\n      tag_20\n      swap2\n      swap1\n      tag_21\n      jump\t// in\n    tag_20:\n      swap3\n      pop\n      pop\n      dup2\n      swap1\n      sstore\n      pop\n        /* \"tryit/SimpleBank.sol\":140:227  function DEposit() public payable  {... */\n      jump\t// out\n        /* \"tryit/SimpleBank.sol\":86:131  mapping ( address => uint256) public balances */\n    tag_11:\n      mstore(0x20, 0x00)\n      dup1\n      0x00\n      mstore\n      keccak256(0x00, 0x40)\n      0x00\n      swap2\n      pop\n      swap1\n      pop\n      sload\n      dup2\n      jump\t// out\n        /* \"tryit/SimpleBank.sol\":235:446  function withdraw(uint256 amount) public {... */\n    tag_18:\n        /* \"tryit/SimpleBank.sol\":319:325  amount */\n      dup1\n        /* \"tryit/SimpleBank.sol\":295:303  balances */\n      0x00\n        /* \"tryit/SimpleBank.sol\":295:315  balances[msg.sender] */\n      0x00\n        /* \"tryit/SimpleBank.sol\":304:314  msg.sender */\n      caller\n        /* \"tryit/SimpleBank.sol\":295:315  balances[msg.sender] */\n      0xffffffffffffffffffffffffffffffffffffffff\n      and\n      0xffffffffffffffffffffffffffffffffffffffff\n      and\n      dup2\n      mstore\n      0x20\n      add\n      swap1\n      dup2\n      mstore\n      0x20\n      add\n      0x00\n      keccak256\n      sload\n        /* \"tryit/SimpleBank.sol\":295:325  balances[msg.sender] >= amount */\n      lt\n      iszero\n        /* \"tryit/SimpleBank.sol\":287:350  require(balances[msg.sender] >= amount, \"Insufficient balance\") */\n      tag_23\n      jumpi\n      mload(0x40)\n      0x08c379a000000000000000000000000000000000000000000000000000000000\n      dup2\n      mstore\n      0x04\n      add\n      tag_24\n      swap1\n      tag_25\n      jump\t// in\n    tag_24:\n      mload(0x40)\n      dup1\n      swap2\n      sub\n      swap1\n      revert\n    tag_23:\n        /* \"tryit/SimpleBank.sol\":387:393  amount */\n      dup1\n        /* \"tryit/SimpleBank.sol\":363:371  balances */\n      0x00\n        /* \"tryit/SimpleBank.sol\":363:383  balances[msg.sender] */\n      0x00\n        /* \"tryit/SimpleBank.sol\":372:382  msg.sender */\n      caller\n        /* \"tryit/SimpleBank.sol\":363:383  balances[msg.sender] */\n      0xffffffffffffffffffffffffffffffffffffffff\n      and\n      0xffffffffffffffffffffffffffffffffffffffff\n      and\n      dup2\n      mstore\n      0x20\n      add\n      swap1\n      dup2\n      mstore\n      0x20\n      add\n      0x00\n      keccak256\n      0x00\n        /* \"tryit/SimpleBank.sol\":363:393  balances[msg.sender] -= amount */\n      dup3\n      dup3\n      sload\n      tag_26\n      swap2\n      swap1\n      tag_27\n      jump\t// in\n    tag_26:\n      swap3\n      pop\n      pop\n      dup2\n      swap1\n      sstore\n      pop\n        /* \"tryit/SimpleBank.sol\":414:424  msg.sender */\n      caller\n        /* \"tryit/SimpleBank.sol\":406:434  payable(msg.sender).transfer */\n      0xffffffffffffffffffffffffffffffffffffffff\n      and\n        /* \"tryit/SimpleBank.sol\":406:442  payable(msg.sender).transfer(amount) */\n      0x08fc\n        /* \"tryit/SimpleBank.sol\":435:441  amount */\n      dup3\n        /* \"tryit/SimpleBank.sol\":406:442  payable(msg.sender).transfer(amount) */\n      swap1\n      dup2\n      iszero\n      mul\n      swap1\n      mload(0x40)\n      0x00\n      mload(0x40)\n      dup1\n      dup4\n      sub\n      dup2\n      dup6\n      dup9\n      dup9\n      call\n      swap4\n      pop\n      pop\n      pop\n      pop\n      iszero\n      dup1\n      iszero\n      tag_29\n      jumpi\n      returndatacopy(0x00, 0x00, returndatasize)\n      revert(0x00, returndatasize)\n    tag_29:\n      pop\n        /* \"tryit/SimpleBank.sol\":235:446  function withdraw(uint256 amount) public {... */\n      pop\n      jump\t// out\n        /* \"#utility.yul\":88:205   */\n    tag_31:\n        /* \"#utility.yul\":197:198   */\n      0x00\n        /* \"#utility.yul\":194:195   */\n      0x00\n        /* \"#utility.yul\":187:199   */\n      revert\n        /* \"#utility.yul\":334:460   */\n    tag_33:\n        /* \"#utility.yul\":371:378   */\n      0x00\n        /* \"#utility.yul\":411:453   */\n      0xffffffffffffffffffffffffffffffffffffffff\n        /* \"#utility.yul\":404:409   */\n      dup3\n        /* \"#utility.yul\":400:454   */\n      and\n        /* \"#utility.yul\":389:454   */\n      swap1\n      pop\n        /* \"#utility.yul\":334:460   */\n      swap2\n      swap1\n      pop\n      jump\t// out\n        /* \"#utility.yul\":466:562   */\n    tag_34:\n        /* \"#utility.yul\":503:510   */\n      0x00\n        /* \"#utility.yul\":532:556   */\n      tag_51\n        /* \"#utility.yul\":550:555   */\n      dup3\n        /* \"#utility.yul\":532:556   */\n      tag_33\n      jump\t// in\n    tag_51:\n        /* \"#utility.yul\":521:556   */\n      swap1\n      pop\n        /* \"#utility.yul\":466:562   */\n      swap2\n      swap1\n      pop\n      jump\t// out\n        /* \"#utility.yul\":568:690   */\n    tag_35:\n        /* \"#utility.yul\":641:665   */\n      tag_53\n        /* \"#utility.yul\":659:664   */\n      dup2\n        /* \"#utility.yul\":641:665   */\n      tag_34\n      jump\t// in\n    tag_53:\n        /* \"#utility.yul\":634:639   */\n      dup2\n        /* \"#utility.yul\":631:666   */\n      eq\n        /* \"#utility.yul\":621:684   */\n      tag_54\n      jumpi\n        /* \"#utility.yul\":680:681   */\n      0x00\n        /* \"#utility.yul\":677:678   */\n      0x00\n        /* \"#utility.yul\":670:682   */\n      revert\n        /* \"#utility.yul\":621:684   */\n    tag_54:\n        /* \"#utility.yul\":568:690   */\n      pop\n      jump\t// out\n        /* \"#utility.yul\":696:835   */\n    tag_36:\n        /* \"#utility.yul\":742:747   */\n      0x00\n        /* \"#utility.yul\":780:786   */\n      dup2\n        /* \"#utility.yul\":767:787   */\n      calldataload\n        /* \"#utility.yul\":758:787   */\n      swap1\n      pop\n        /* \"#utility.yul\":796:829   */\n      tag_56\n        /* \"#utility.yul\":823:828   */\n      dup2\n        /* \"#utility.yul\":796:829   */\n      tag_35\n      jump\t// in\n    tag_56:\n        /* \"#utility.yul\":696:835   */\n      swap3\n      swap2\n      pop\n      pop\n      jump\t// out\n        /* \"#utility.yul\":841:1170   */\n    tag_10:\n        /* \"#utility.yul\":900:906   */\n      0x00\n        /* \"#utility.yul\":949:951   */\n      0x20\n        /* \"#utility.yul\":937:946   */\n      dup3\n        /* \"#utility.yul\":928:935   */\n      dup5\n        /* \"#utility.yul\":924:947   */\n      sub\n        /* \"#utility.yul\":920:952   */\n      slt\n        /* \"#utility.yul\":917:1036   */\n      iszero\n      tag_58\n      jumpi\n        /* \"#utility.yul\":955:1034   */\n      tag_59\n      tag_31\n      jump\t// in\n    tag_59:\n        /* \"#utility.yul\":917:1036   */\n    tag_58:\n        /* \"#utility.yul\":1075:1076   */\n      0x00\n        /* \"#utility.yul\":1100:1153   */\n      tag_60\n        /* \"#utility.yul\":1145:1152   */\n      dup5\n        /* \"#utility.yul\":1136:1142   */\n      dup3\n        /* \"#utility.yul\":1125:1134   */\n      dup6\n        /* \"#utility.yul\":1121:1143   */\n      add\n        /* \"#utility.yul\":1100:1153   */\n      tag_36\n      jump\t// in\n    tag_60:\n        /* \"#utility.yul\":1090:1153   */\n      swap2\n      pop\n        /* \"#utility.yul\":1046:1163   */\n      pop\n        /* \"#utility.yul\":841:1170   */\n      swap3\n      swap2\n      pop\n      pop\n      jump\t// out\n        /* \"#utility.yul\":1176:1253   */\n    tag_37:\n        /* \"#utility.yul\":1213:1220   */\n      0x00\n        /* \"#utility.yul\":1242:1247   */\n      dup2\n        /* \"#utility.yul\":1231:1247   */\n      swap1\n      pop\n        /* \"#utility.yul\":1176:1253   */\n      swap2\n      swap1\n      pop\n      jump\t// out\n        /* \"#utility.yul\":1259:1377   */\n    tag_38:\n        /* \"#utility.yul\":1346:1370   */\n      tag_63\n        /* \"#utility.yul\":1364:1369   */\n      dup2\n        /* \"#utility.yul\":1346:1370   */\n      tag_37\n      jump\t// in\n    tag_63:\n        /* \"#utility.yul\":1341:1344   */\n      dup3\n        /* \"#utility.yul\":1334:1371   */\n      mstore\n        /* \"#utility.yul\":1259:1377   */\n      pop\n      pop\n      jump\t// out\n        /* \"#utility.yul\":1383:1605   */\n    tag_13:\n        /* \"#utility.yul\":1476:1480   */\n      0x00\n        /* \"#utility.yul\":1514:1516   */\n      0x20\n        /* \"#utility.yul\":1503:1512   */\n      dup3\n        /* \"#utility.yul\":1499:1517   */\n      add\n        /* \"#utility.yul\":1491:1517   */\n      swap1\n      pop\n        /* \"#utility.yul\":1527:1598   */\n      tag_65\n        /* \"#utility.yul\":1595:1596   */\n      0x00\n        /* \"#utility.yul\":1584:1593   */\n      dup4\n        /* \"#utility.yul\":1580:1597   */\n      add\n        /* \"#utility.yul\":1571:1577   */\n      dup5\n        /* \"#utility.yul\":1527:1598   */\n      tag_38\n      jump\t// in\n    tag_65:\n        /* \"#utility.yul\":1383:1605   */\n      swap3\n      swap2\n      pop\n      pop\n      jump\t// out\n        /* \"#utility.yul\":1611:1733   */\n    tag_39:\n        /* \"#utility.yul\":1684:1708   */\n      tag_67\n        /* \"#utility.yul\":1702:1707   */\n      dup2\n        /* \"#utility.yul\":1684:1708   */\n      tag_37\n      jump\t// in\n    tag_67:\n        /* \"#utility.yul\":1677:1682   */\n      dup2\n        /* \"#utility.yul\":1674:1709   */\n      eq\n        /* \"#utility.yul\":1664:1727   */\n      tag_68\n      jumpi\n        /* \"#utility.yul\":1723:1724   */\n      0x00\n        /* \"#utility.yul\":1720:1721   */\n      0x00\n        /* \"#utility.yul\":1713:1725   */\n      revert\n        /* \"#utility.yul\":1664:1727   */\n    tag_68:\n        /* \"#utility.yul\":1611:1733   */\n      pop\n      jump\t// out\n        /* \"#utility.yul\":1739:1878   */\n    tag_40:\n        /* \"#utility.yul\":1785:1790   */\n      0x00\n        /* \"#utility.yul\":1823:1829   */\n      dup2\n        /* \"#utility.yul\":1810:1830   */\n      calldataload\n        /* \"#utility.yul\":1801:1830   */\n      swap1\n      pop\n        /* \"#utility.yul\":1839:1872   */\n      tag_70\n        /* \"#utility.yul\":1866:1871   */\n      dup2\n        /* \"#utility.yul\":1839:1872   */\n      tag_39\n      jump\t// in\n    tag_70:\n        /* \"#utility.yul\":1739:1878   */\n      swap3\n      swap2\n      pop\n      pop\n      jump\t// out\n        /* \"#utility.yul\":1884:2213   */\n    tag_17:\n        /* \"#utility.yul\":1943:1949   */\n      0x00\n        /* \"#utility.yul\":1992:1994   */\n      0x20\n        /* \"#utility.yul\":1980:1989   */\n      dup3\n        /* \"#utility.yul\":1971:1978   */\n      dup5\n        /* \"#utility.yul\":1967:1990   */\n      sub\n        /* \"#utility.yul\":1963:1995   */\n      slt\n        /* \"#utility.yul\":1960:2079   */\n      iszero\n      tag_72\n      jumpi\n        /* \"#utility.yul\":1998:2077   */\n      tag_73\n      tag_31\n      jump\t// in\n    tag_73:\n        /* \"#utility.yul\":1960:2079   */\n    tag_72:\n        /* \"#utility.yul\":2118:2119   */\n      0x00\n        /* \"#utility.yul\":2143:2196   */\n      tag_74\n        /* \"#utility.yul\":2188:2195   */\n      dup5\n        /* \"#utility.yul\":2179:2185   */\n      dup3\n        /* \"#utility.yul\":2168:2177   */\n      dup6\n        /* \"#utility.yul\":2164:2186   */\n      add\n        /* \"#utility.yul\":2143:2196   */\n      tag_40\n      jump\t// in\n    tag_74:\n        /* \"#utility.yul\":2133:2196   */\n      swap2\n      pop\n        /* \"#utility.yul\":2089:2206   */\n      pop\n        /* \"#utility.yul\":1884:2213   */\n      swap3\n      swap2\n      pop\n      pop\n      jump\t// out\n        /* \"#utility.yul\":2219:2399   */\n    tag_41:\n        /* \"#utility.yul\":2267:2344   */\n      0x4e487b7100000000000000000000000000000000000000000000000000000000\n        /* \"#utility.yul\":2264:2265   */\n      0x00\n        /* \"#utility.yul\":2257:2345   */\n      mstore\n        /* \"#utility.yul\":2364:2368   */\n      0x11\n        /* \"#utility.yul\":2361:2362   */\n      0x04\n        /* \"#utility.yul\":2354:2369   */\n      mstore\n        /* \"#utility.yul\":2388:2392   */\n      0x24\n        /* \"#utility.yul\":2385:2386   */\n      0x00\n        /* \"#utility.yul\":2378:2393   */\n      revert\n        /* \"#utility.yul\":2405:2596   */\n    tag_21:\n        /* \"#utility.yul\":2445:2448   */\n      0x00\n        /* \"#utility.yul\":2464:2484   */\n      tag_77\n        /* \"#utility.yul\":2482:2483   */\n      dup3\n        /* \"#utility.yul\":2464:2484   */\n      tag_37\n      jump\t// in\n    tag_77:\n        /* \"#utility.yul\":2459:2484   */\n      swap2\n      pop\n        /* \"#utility.yul\":2498:2518   */\n      tag_78\n        /* \"#utility.yul\":2516:2517   */\n      dup4\n        /* \"#utility.yul\":2498:2518   */\n      tag_37\n      jump\t// in\n    tag_78:\n        /* \"#utility.yul\":2493:2518   */\n      swap3\n      pop\n        /* \"#utility.yul\":2541:2542   */\n      dup3\n        /* \"#utility.yul\":2538:2539   */\n      dup3\n        /* \"#utility.yul\":2534:2543   */\n      add\n        /* \"#utility.yul\":2527:2543   */\n      swap1\n      pop\n        /* \"#utility.yul\":2562:2565   */\n      dup1\n        /* \"#utility.yul\":2559:2560   */\n      dup3\n        /* \"#utility.yul\":2556:2566   */\n      gt\n        /* \"#utility.yul\":2553:2589   */\n      iszero\n      tag_79\n      jumpi\n        /* \"#utility.yul\":2569:2587   */\n      tag_80\n      tag_41\n      jump\t// in\n    tag_80:\n        /* \"#utility.yul\":2553:2589   */\n    tag_79:\n        /* \"#utility.yul\":2405:2596   */\n      swap3\n      swap2\n      pop\n      pop\n      jump\t// out\n        /* \"#utility.yul\":2602:2771   */\n    tag_42:\n        /* \"#utility.yul\":2686:2697   */\n      0x00\n        /* \"#utility.yul\":2720:2726   */\n      dup3\n        /* \"#utility.yul\":2715:2718   */\n      dup3\n        /* \"#utility.yul\":2708:2727   */\n      mstore\n        /* \"#utility.yul\":2760:2764   */\n      0x20\n        /* \"#utility.yul\":2755:2758   */\n      dup3\n        /* \"#utility.yul\":2751:2765   */\n      add\n        /* \"#utility.yul\":2736:2765   */\n      swap1\n      pop\n        /* \"#utility.yul\":2602:2771   */\n      swap3\n      swap2\n      pop\n      pop\n      jump\t// out\n        /* \"#utility.yul\":2777:2947   */\n    tag_43:\n        /* \"#utility.yul\":2917:2939   */\n      0x496e73756666696369656e742062616c616e6365000000000000000000000000\n        /* \"#utility.yul\":2913:2914   */\n      0x00\n        /* \"#utility.yul\":2905:2911   */\n      dup3\n        /* \"#utility.yul\":2901:2915   */\n      add\n        /* \"#utility.yul\":2894:2940   */\n      mstore\n        /* \"#utility.yul\":2777:2947   */\n      pop\n      jump\t// out\n        /* \"#utility.yul\":2953:3319   */\n    tag_44:\n        /* \"#utility.yul\":3095:3098   */\n      0x00\n        /* \"#utility.yul\":3116:3183   */\n      tag_84\n        /* \"#utility.yul\":3180:3182   */\n      0x14\n        /* \"#utility.yul\":3175:3178   */\n      dup4\n        /* \"#utility.yul\":3116:3183   */\n      tag_42\n      jump\t// in\n    tag_84:\n        /* \"#utility.yul\":3109:3183   */\n      swap2\n      pop\n        /* \"#utility.yul\":3192:3285   */\n      tag_85\n        /* \"#utility.yul\":3281:3284   */\n      dup3\n        /* \"#utility.yul\":3192:3285   */\n      tag_43\n      jump\t// in\n    tag_85:\n        /* \"#utility.yul\":3310:3312   */\n      0x20\n        /* \"#utility.yul\":3305:3308   */\n      dup3\n        /* \"#utility.yul\":3301:3313   */\n      add\n        /* \"#utility.yul\":3294:3313   */\n      swap1\n      pop\n        /* \"#utility.yul\":2953:3319   */\n      swap2\n      swap1\n      pop\n      jump\t// out\n        /* \"#utility.yul\":3325:3744   */\n    tag_25:\n        /* \"#utility.yul\":3491:3495   */\n      0x00\n        /* \"#utility.yul\":3529:3531   */\n      0x20\n        /* \"#utility.yul\":3518:3527   */\n      dup3\n        /* \"#utility.yul\":3514:3532   */\n      add\n        /* \"#utility.yul\":3506:3532   */\n      swap1\n      pop\n        /* \"#utility.yul\":3578:3587   */\n      dup2\n        /* \"#utility.yul\":3572:3576   */\n      dup2\n        /* \"#utility.yul\":3568:3588   */\n      sub\n        /* \"#utility.yul\":3564:3565   */\n      0x00\n        /* \"#utility.yul\":3553:3562   */\n      dup4\n        /* \"#utility.yul\":3549:3566   */\n      add\n        /* \"#utility.yul\":3542:3589   */\n      mstore\n        /* \"#utility.yul\":3606:3737   */\n      tag_87\n        /* \"#utility.yul\":3732:3736   */\n      dup2\n        /* \"#utility.yul\":3606:3737   */\n      tag_44\n      jump\t// in\n    tag_87:\n        /* \"#utility.yul\":3598:3737   */\n      swap1\n      pop\n        /* \"#utility.yul\":3325:3744   */\n      swap2\n      swap1\n      pop\n      jump\t// out\n        /* \"#utility.yul\":3750:3944   */\n    tag_27:\n        /* \"#utility.yul\":3790:3794   */\n      0x00\n        /* \"#utility.yul\":3810:3830   */\n      tag_89\n        /* \"#utility.yul\":3828:3829   */\n      dup3\n        /* \"#utility.yul\":3810:3830   */\n      tag_37\n      jump\t// in\n    tag_89:\n        /* \"#utility.yul\":3805:3830   */\n      swap2\n      pop\n        /* \"#utility.yul\":3844:3864   */\n      tag_90\n        /* \"#utility.yul\":3862:3863   */\n      dup4\n        /* \"#utility.yul\":3844:3864   */\n      tag_37\n      jump\t// in\n    tag_90:\n        /* \"#utility.yul\":3839:3864   */\n      swap3\n      pop\n        /* \"#utility.yul\":3888:3889   */\n      dup3\n        /* \"#utility.yul\":3885:3886   */\n      dup3\n        /* \"#utility.yul\":3881:3890   */\n      sub\n        /* \"#utility.yul\":3873:3890   */\n      swap1\n      pop\n        /* \"#utility.yul\":3912:3913   */\n      dup2\n        /* \"#utility.yul\":3906:3910   */\n      dup2\n        /* \"#utility.yul\":3903:3914   */\n      gt\n        /* \"#utility.yul\":3900:3937   */\n      iszero\n      tag_91\n      jumpi\n        /* \"#utility.yul\":3917:3935   */\n      tag_92\n      tag_41\n      jump\t// in\n    tag_92:\n        /* \"#utility.yul\":3900:3937   */\n    tag_91:\n        /* \"#utility.yul\":3750:3944   */\n      swap3\n      swap2\n      pop\n      pop\n      jump\t// out\n\n    auxdata: 0xa2646970667358221220374f71166fc05f238854a18ca31915e5019ba00e1bee433f9298cde33b4221f964736f6c634300081e0033\n}\n",
				"bytecode": {
					"linkReferences": {},
					"object": "6080604052348015600e575f5ffd5b506104758061001c5f395ff3fe608060405260043610610033575f3560e01c80631b5fa91f1461003757806327e235e3146100415780632e1a7d4d1461007d575b5f5ffd5b61003f6100a5565b005b34801561004c575f5ffd5b5061006760048036038101906100629190610283565b6100f9565b60405161007491906102c6565b60405180910390f35b348015610088575f5ffd5b506100a3600480360381019061009e9190610309565b61010d565b005b345f5f3373ffffffffffffffffffffffffffffffffffffffff1673ffffffffffffffffffffffffffffffffffffffff1681526020019081526020015f205f8282546100f09190610361565b92505081905550565b5f602052805f5260405f205f915090505481565b805f5f3373ffffffffffffffffffffffffffffffffffffffff1673ffffffffffffffffffffffffffffffffffffffff1681526020019081526020015f2054101561018c576040517f08c379a0000000000000000000000000000000000000000000000000000000008152600401610183906103ee565b60405180910390fd5b805f5f3373ffffffffffffffffffffffffffffffffffffffff1673ffffffffffffffffffffffffffffffffffffffff1681526020019081526020015f205f8282546101d7919061040c565b925050819055503373ffffffffffffffffffffffffffffffffffffffff166108fc8290811502906040515f60405180830381858888f19350505050158015610221573d5f5f3e3d5ffd5b5050565b5f5ffd5b5f73ffffffffffffffffffffffffffffffffffffffff82169050919050565b5f61025282610229565b9050919050565b61026281610248565b811461026c575f5ffd5b50565b5f8135905061027d81610259565b92915050565b5f6020828403121561029857610297610225565b5b5f6102a58482850161026f565b91505092915050565b5f819050919050565b6102c0816102ae565b82525050565b5f6020820190506102d95f8301846102b7565b92915050565b6102e8816102ae565b81146102f2575f5ffd5b50565b5f81359050610303816102df565b92915050565b5f6020828403121561031e5761031d610225565b5b5f61032b848285016102f5565b91505092915050565b7f4e487b71000000000000000000000000000000000000000000000000000000005f52601160045260245ffd5b5f61036b826102ae565b9150610376836102ae565b925082820190508082111561038e5761038d610334565b5b92915050565b5f82825260208201905092915050565b7f496e73756666696369656e742062616c616e63650000000000000000000000005f82015250565b5f6103d8601483610394565b91506103e3826103a4565b602082019050919050565b5f6020820190508181035f830152610405816103cc565b9050919050565b5f610416826102ae565b9150610421836102ae565b925082820390508181111561043957610438610334565b5b9291505056fea2646970667358221220374f71166fc05f238854a18ca31915e5019ba00e1bee433f9298cde33b4221f964736f6c634300081e0033",
					"opcodes": "PUSH1 0x80 PUSH1 0x40 MSTORE CALLVALUE DUP1 ISZERO PUSH1 0xE JUMPI PUSH0 PUSH0 REVERT JUMPDEST POP PUSH2 0x475 DUP1 PUSH2 0x1C PUSH0 CODECOPY PUSH0 RETURN INVALID PUSH1 0x80 PUSH1 0x40 MSTORE PUSH1 0x4 CALLDATASIZE LT PUSH2 0x33 JUMPI PUSH0 CALLDATALOAD PUSH1 0xE0 SHR DUP1 PUSH4 0x1B5FA91F EQ PUSH2 0x37 JUMPI DUP1 PUSH4 0x27E235E3 EQ PUSH2 0x41 JUMPI DUP1 PUSH4 0x2E1A7D4D EQ PUSH2 0x7D JUMPI JUMPDEST PUSH0 PUSH0 REVERT JUMPDEST PUSH2 0x3F PUSH2 0xA5 JUMP JUMPDEST STOP JUMPDEST CALLVALUE DUP1 ISZERO PUSH2 0x4C JUMPI PUSH0 PUSH0 REVERT JUMPDEST POP PUSH2 0x67 PUSH1 0x4 DUP1 CALLDATASIZE SUB DUP2 ADD SWAP1 PUSH2 0x62 SWAP2 SWAP1 PUSH2 0x283 JUMP JUMPDEST PUSH2 0xF9 JUMP JUMPDEST PUSH1 0x40 MLOAD PUSH2 0x74 SWAP2 SWAP1 PUSH2 0x2C6 JUMP JUMPDEST PUSH1 0x40 MLOAD DUP1 SWAP2 SUB SWAP1 RETURN JUMPDEST CALLVALUE DUP1 ISZERO PUSH2 0x88 JUMPI PUSH0 PUSH0 REVERT JUMPDEST POP PUSH2 0xA3 PUSH1 0x4 DUP1 CALLDATASIZE SUB DUP2 ADD SWAP1 PUSH2 0x9E SWAP2 SWAP1 PUSH2 0x309 JUMP JUMPDEST PUSH2 0x10D JUMP JUMPDEST STOP JUMPDEST CALLVALUE PUSH0 PUSH0 CALLER PUSH20 0xFFFFFFFFFFFFFFFFFFFFFFFFFFFFFFFFFFFFFFFF AND PUSH20 0xFFFFFFFFFFFFFFFFFFFFFFFFFFFFFFFFFFFFFFFF AND DUP2 MSTORE PUSH1 0x20 ADD SWAP1 DUP2 MSTORE PUSH1 0x20 ADD PUSH0 KECCAK256 PUSH0 DUP3 DUP3 SLOAD PUSH2 0xF0 SWAP2 SWAP1 PUSH2 0x361 JUMP JUMPDEST SWAP3 POP POP DUP2 SWAP1 SSTORE POP JUMP JUMPDEST PUSH0 PUSH1 0x20 MSTORE DUP1 PUSH0 MSTORE PUSH1 0x40 PUSH0 KECCAK256 PUSH0 SWAP2 POP SWAP1 POP SLOAD DUP2 JUMP JUMPDEST DUP1 PUSH0 PUSH0 CALLER PUSH20 0xFFFFFFFFFFFFFFFFFFFFFFFFFFFFFFFFFFFFFFFF AND PUSH20 0xFFFFFFFFFFFFFFFFFFFFFFFFFFFFFFFFFFFFFFFF AND DUP2 MSTORE PUSH1 0x20 ADD SWAP1 DUP2 MSTORE PUSH1 0x20 ADD PUSH0 KECCAK256 SLOAD LT ISZERO PUSH2 0x18C JUMPI PUSH1 0x40 MLOAD PUSH32 0x8C379A000000000000000000000000000000000000000000000000000000000 DUP2 MSTORE PUSH1 0x4 ADD PUSH2 0x183 SWAP1 PUSH2 0x3EE JUMP JUMPDEST PUSH1 0x40 MLOAD DUP1 SWAP2 SUB SWAP1 REVERT JUMPDEST DUP1 PUSH0 PUSH0 CALLER PUSH20 0xFFFFFFFFFFFFFFFFFFFFFFFFFFFFFFFFFFFFFFFF AND PUSH20 0xFFFFFFFFFFFFFFFFFFFFFFFFFFFFFFFFFFFFFFFF AND DUP2 MSTORE PUSH1 0x20 ADD SWAP1 DUP2 MSTORE PUSH1 0x20 ADD PUSH0 KECCAK256 PUSH0 DUP3 DUP3 SLOAD PUSH2 0x1D7 SWAP2 SWAP1 PUSH2 0x40C JUMP JUMPDEST SWAP3 POP POP DUP2 SWAP1 SSTORE POP CALLER PUSH20 0xFFFFFFFFFFFFFFFFFFFFFFFFFFFFFFFFFFFFFFFF AND PUSH2 0x8FC DUP3 SWAP1 DUP2 ISZERO MUL SWAP1 PUSH1 0x40 MLOAD PUSH0 PUSH1 0x40 MLOAD DUP1 DUP4 SUB DUP2 DUP6 DUP9 DUP9 CALL SWAP4 POP POP POP POP ISZERO DUP1 ISZERO PUSH2 0x221 JUMPI RETURNDATASIZE PUSH0 PUSH0 RETURNDATACOPY RETURNDATASIZE PUSH0 REVERT JUMPDEST POP POP JUMP JUMPDEST PUSH0 PUSH0 REVERT JUMPDEST PUSH0 PUSH20 0xFFFFFFFFFFFFFFFFFFFFFFFFFFFFFFFFFFFFFFFF DUP3 AND SWAP1 POP SWAP2 SWAP1 POP JUMP JUMPDEST PUSH0 PUSH2 0x252 DUP3 PUSH2 0x229 JUMP JUMPDEST SWAP1 POP SWAP2 SWAP1 POP JUMP JUMPDEST PUSH2 0x262 DUP2 PUSH2 0x248 JUMP JUMPDEST DUP2 EQ PUSH2 0x26C JUMPI PUSH0 PUSH0 REVERT JUMPDEST POP JUMP JUMPDEST PUSH0 DUP2 CALLDATALOAD SWAP1 POP PUSH2 0x27D DUP2 PUSH2 0x259 JUMP JUMPDEST SWAP3 SWAP2 POP POP JUMP JUMPDEST PUSH0 PUSH1 0x20 DUP3 DUP5 SUB SLT ISZERO PUSH2 0x298 JUMPI PUSH2 0x297 PUSH2 0x225 JUMP JUMPDEST JUMPDEST PUSH0 PUSH2 0x2A5 DUP5 DUP3 DUP6 ADD PUSH2 0x26F JUMP JUMPDEST SWAP2 POP POP SWAP3 SWAP2 POP POP JUMP JUMPDEST PUSH0 DUP2 SWAP1 POP SWAP2 SWAP1 POP JUMP JUMPDEST PUSH2 0x2C0 DUP2 PUSH2 0x2AE JUMP JUMPDEST DUP3 MSTORE POP POP JUMP JUMPDEST PUSH0 PUSH1 0x20 DUP3 ADD SWAP1 POP PUSH2 0x2D9 PUSH0 DUP4 ADD DUP5 PUSH2 0x2B7 JUMP JUMPDEST SWAP3 SWAP2 POP POP JUMP JUMPDEST PUSH2 0x2E8 DUP2 PUSH2 0x2AE JUMP JUMPDEST DUP2 EQ PUSH2 0x2F2 JUMPI PUSH0 PUSH0 REVERT JUMPDEST POP JUMP JUMPDEST PUSH0 DUP2 CALLDATALOAD SWAP1 POP PUSH2 0x303 DUP2 PUSH2 0x2DF JUMP JUMPDEST SWAP3 SWAP2 POP POP JUMP JUMPDEST PUSH0 PUSH1 0x20 DUP3 DUP5 SUB SLT ISZERO PUSH2 0x31E JUMPI PUSH2 0x31D PUSH2 0x225 JUMP JUMPDEST JUMPDEST PUSH0 PUSH2 0x32B DUP5 DUP3 DUP6 ADD PUSH2 0x2F5 JUMP JUMPDEST SWAP2 POP POP SWAP3 SWAP2 POP POP JUMP JUMPDEST PUSH32 0x4E487B7100000000000000000000000000000000000000000000000000000000 PUSH0 MSTORE PUSH1 0x11 PUSH1 0x4 MSTORE PUSH1 0x24 PUSH0 REVERT JUMPDEST PUSH0 PUSH2 0x36B DUP3 PUSH2 0x2AE JUMP JUMPDEST SWAP2 POP PUSH2 0x376 DUP4 PUSH2 0x2AE JUMP JUMPDEST SWAP3 POP DUP3 DUP3 ADD SWAP1 POP DUP1 DUP3 GT ISZERO PUSH2 0x38E JUMPI PUSH2 0x38D PUSH2 0x334 JUMP JUMPDEST JUMPDEST SWAP3 SWAP2 POP POP JUMP JUMPDEST PUSH0 DUP3 DUP3 MSTORE PUSH1 0x20 DUP3 ADD SWAP1 POP SWAP3 SWAP2 POP POP JUMP JUMPDEST PUSH32 0x496E73756666696369656E742062616C616E6365000000000000000000000000 PUSH0 DUP3 ADD MSTORE POP JUMP JUMPDEST PUSH0 PUSH2 0x3D8 PUSH1 0x14 DUP4 PUSH2 0x394 JUMP JUMPDEST SWAP2 POP PUSH2 0x3E3 DUP3 PUSH2 0x3A4 JUMP JUMPDEST PUSH1 0x20 DUP3 ADD SWAP1 POP SWAP2 SWAP1 POP JUMP JUMPDEST PUSH0 PUSH1 0x20 DUP3 ADD SWAP1 POP DUP2 DUP2 SUB PUSH0 DUP4 ADD MSTORE PUSH2 0x405 DUP2 PUSH2 0x3CC JUMP JUMPDEST SWAP1 POP SWAP2 SWAP1 POP JUMP JUMPDEST PUSH0 PUSH2 0x416 DUP3 PUSH2 0x2AE JUMP JUMPDEST SWAP2 POP PUSH2 0x421 DUP4 PUSH2 0x2AE JUMP JUMPDEST SWAP3 POP DUP3 DUP3 SUB SWAP1 POP DUP2 DUP2 GT ISZERO PUSH2 0x439 JUMPI PUSH2 0x438 PUSH2 0x334 JUMP JUMPDEST JUMPDEST SWAP3 SWAP2 POP POP JUMP INVALID LOG2 PUSH5 0x6970667358 0x22 SLT KECCAK256 CALLDATACOPY 0x4F PUSH18 0x166FC05F238854A18CA31915E5019BA00E1B RETURNCONTRACT 0x43 EXTCODEHASH SWAP3 SWAP9 0xCD CALLF 0x3B42 0x21 EXTDELEGATECALL PUSH5 0x736F6C6343 STOP ADDMOD 0x1E STOP CALLER "
				},
				"gasEstimates": {
					"creation": {
						"codeDepositCost": "228200",
						"executionCost": "267",
						"totalCost": "228467"
					},
					"external": {
						"DEposit()": "infinite",
						"balances(address)": "2801",
						"withdraw(uint256)": "infinite"
					}
				},
				"methodIdentifiers": {
					"DEposit()": "1b5fa91f",
					"balances(address)": "27e235e3",
					"withdraw(uint256)": "2e1a7d4d"
				}
			},
			"storageLayout": {
				"storage": [
					{
						"astId": 5,
						"contract": "tryit/SimpleBank.sol:SimpleBank",
						"label": "balances",
						"offset": 0,
						"slot": "0",
						"type": "t_mapping(t_address,t_uint256)"
					}
				],
				"types": {
					"t_address": {
						"encoding": "inplace",
						"label": "address",
						"numberOfBytes": "20"
					},
					"t_mapping(t_address,t_uint256)": {
						"encoding": "mapping",
						"key": "t_address",
						"label": "mapping(address => uint256)",
						"numberOfBytes": "32",
						"value": "t_uint256"
					},
					"t_uint256": {
						"encoding": "inplace",
						"label": "uint256",
						"numberOfBytes": "32"
					}
				}
			},
			"userdoc": {
				"kind": "user",
				"methods": {},
				"version": 1
			}
		}
	}
}