{
	"foundry/src/MultiSigWallet.sol": {
		"MultiSigWallet": {
			"abi": [
				{
					"inputs": [
						{
							"internalType": "address[]",
							"name": "_owners",
							"type": "address[]"
						},
						{
							"internalType": "uint256",
							"name": "_required",
							"type": "uint256"
						},
						{
							"internalType": "uint256",
							"name": "_dailyLimit",
							"type": "uint256"
						},
						{
							"internalType": "address",
							"name": "_recoveryAddress",
							"type": "address"
						}
					],
					"stateMutability": "nonpayable",
					"type": "constructor"
				},
				{
					"inputs": [],
					"name": "AlreadyConfirmed",
					"type": "error"
				},
				{
					"inputs": [],
					"name": "DailyLimitExceeded",
					"type": "error"
				},
				{
					"inputs": [],
					"name": "ExecutionTimeNotReached",
					"type": "error"
				},
				{
					"inputs": [],
					"name": "InsufficientConfirmations",
					"type": "error"
				},
				{
					"inputs": [],
					"name": "InvalidRequired",
					"type": "error"
				},
				{
					"inputs": [],
					"name": "NotOwner",
					"type": "error"
				},
				{
					"inputs": [],
					"name": "RecoveryNotInitiated",
					"type": "error"
				},
				{
					"inputs": [],
					"name": "RecoveryTimeNotReached",
					"type": "error"
				},
				{
					"inputs": [],
					"name": "TransactionAlreadyExecuted",
					"type": "error"
				},
				{
					"inputs": [],
					"name": "TransactionFailed",
					"type": "error"
				},
				{
					"inputs": [],
					"name": "TransactionNotConfirmed",
					"type": "error"
				},
				{
					"inputs": [],
					"name": "ZeroAddress",
					"type": "error"
				},
				{
					"anonymous": false,
					"inputs": [
						{
							"indexed": true,
							"internalType": "address",
							"name": "sender",
							"type": "address"
						},
						{
							"indexed": true,
							"internalType": "uint256",
							"name": "transactionId",
							"type": "uint256"
						}
					],
					"name": "Confirmation",
					"type": "event"
				},
				{
					"anonymous": false,
					"inputs": [
						{
							"indexed": true,
							"internalType": "address",
							"name": "sender",
							"type": "address"
						},
						{
							"indexed": false,
							"internalType": "uint256",
							"name": "amount",
							"type": "uint256"
						}
					],
					"name": "Deposit",
					"type": "event"
				},
				{
					"anonymous": false,
					"inputs": [
						{
							"indexed": true,
							"internalType": "uint256",
							"name": "transactionId",
							"type": "uint256"
						}
					],
					"name": "Execution",
					"type": "event"
				},
				{
					"anonymous": false,
					"inputs": [
						{
							"indexed": true,
							"internalType": "uint256",
							"name": "transactionId",
							"type": "uint256"
						}
					],
					"name": "ExecutionFailure",
					"type": "event"
				},
				{
					"anonymous": false,
					"inputs": [
						{
							"indexed": true,
							"internalType": "address",
							"name": "newOwner",
							"type": "address"
						}
					],
					"name": "RecoveryExecuted",
					"type": "event"
				},
				{
					"anonymous": false,
					"inputs": [
						{
							"indexed": true,
							"internalType": "address",
							"name": "initiator",
							"type": "address"
						},
						{
							"indexed": false,
							"internalType": "uint256",
							"name": "unlockTime",
							"type": "uint256"
						}
					],
					"name": "RecoveryInitiated",
					"type": "event"
				},
				{
					"anonymous": false,
					"inputs": [
						{
							"indexed": true,
							"internalType": "uint256",
							"name": "transactionId",
							"type": "uint256"
						}
					],
					"name": "Submission",
					"type": "event"
				},
				{
					"inputs": [
						{
							"internalType": "address",
							"name": "owner",
							"type": "address"
						}
					],
					"name": "addOwner",
					"outputs": [],
					"stateMutability": "nonpayable",
					"type": "function"
				},
				{
					"inputs": [],
					"name": "cancelRecovery",
					"outputs": [],
					"stateMutability": "nonpayable",
					"type": "function"
				},
				{
					"inputs": [
						{
							"internalType": "uint256",
							"name": "newDelay",
							"type": "uint256"
						}
					],
					"name": "changeExecutionDelay",
					"outputs": [],
					"stateMutability": "nonpayable",
					"type": "function"
				},
				{
					"inputs": [
						{
							"internalType": "uint256",
							"name": "newRequired",
							"type": "uint256"
						}
					],
					"name": "changeRequirement",
					"outputs": [],
					"stateMutability": "nonpayable",
					"type": "function"
				},
				{
					"inputs": [
						{
							"internalType": "uint256",
							"name": "transactionId",
							"type": "uint256"
						}
					],
					"name": "confirmTransaction",
					"outputs": [],
					"stateMutability": "nonpayable",
					"type": "function"
				},
				{
					"inputs": [
						{
							"internalType": "uint256",
							"name": "",
							"type": "uint256"
						},
						{
							"internalType": "address",
							"name": "",
							"type": "address"
						}
					],
					"name": "confirmations",
					"outputs": [
						{
							"internalType": "bool",
							"name": "",
							"type": "bool"
						}
					],
					"stateMutability": "view",
					"type": "function"
				},
				{
					"inputs": [],
					"name": "dailyLimit",
					"outputs": [
						{
							"internalType": "uint256",
							"name": "",
							"type": "uint256"
						}
					],
					"stateMutability": "view",
					"type": "function"
				},
				{
					"inputs": [],
					"name": "executeRecovery",
					"outputs": [],
					"stateMutability": "nonpayable",
					"type": "function"
				},
				{
					"inputs": [
						{
							"internalType": "uint256",
							"name": "transactionId",
							"type": "uint256"
						}
					],
					"name": "executeTransaction",
					"outputs": [],
					"stateMutability": "nonpayable",
					"type": "function"
				},
				{
					"inputs": [
						{
							"internalType": "bytes32",
							"name": "",
							"type": "bytes32"
						}
					],
					"name": "executedHashes",
					"outputs": [
						{
							"internalType": "bool",
							"name": "",
							"type": "bool"
						}
					],
					"stateMutability": "view",
					"type": "function"
				},
				{
					"inputs": [],
					"name": "executionDelay",
					"outputs": [
						{
							"internalType": "uint256",
							"name": "",
							"type": "uint256"
						}
					],
					"stateMutability": "view",
					"type": "function"
				},
				{
					"inputs": [
						{
							"internalType": "address",
							"name": "",
							"type": "address"
						}
					],
					"name": "executionNonce",
					"outputs": [
						{
							"internalType": "uint256",
							"name": "",
							"type": "uint256"
						}
					],
					"stateMutability": "view",
					"type": "function"
				},
				{
					"inputs": [
						{
							"internalType": "uint256",
							"name": "",
							"type": "uint256"
						}
					],
					"name": "executionTime",
					"outputs": [
						{
							"internalType": "uint256",
							"name": "",
							"type": "uint256"
						}
					],
					"stateMutability": "view",
					"type": "function"
				},
				{
					"inputs": [
						{
							"internalType": "uint256",
							"name": "transactionId",
							"type": "uint256"
						}
					],
					"name": "getConfirmationCount",
					"outputs": [
						{
							"internalType": "uint256",
							"name": "",
							"type": "uint256"
						}
					],
					"stateMutability": "view",
					"type": "function"
				},
				{
					"inputs": [
						{
							"internalType": "uint256",
							"name": "transactionId",
							"type": "uint256"
						}
					],
					"name": "getConfirmations",
					"outputs": [
						{
							"internalType": "address[]",
							"name": "",
							"type": "address[]"
						}
					],
					"stateMutability": "view",
					"type": "function"
				},
				{
					"inputs": [],
					"name": "getOwners",
					"outputs": [
						{
							"internalType": "address[]",
							"name": "",
							"type": "address[]"
						}
					],
					"stateMutability": "view",
					"type": "function"
				},
				{
					"inputs": [
						{
							"internalType": "uint256",
							"name": "from",
							"type": "uint256"
						},
						{
							"internalType": "uint256",
							"name": "to",
							"type": "uint256"
						},
						{
							"internalType": "bool",
							"name": "pending",
							"type": "bool"
						},
						{
							"internalType": "bool",
							"name": "executed",
							"type": "bool"
						}
					],
					"name": "getTransactionIds",
					"outputs": [
						{
							"internalType": "uint256[]",
							"name": "",
							"type": "uint256[]"
						}
					],
					"stateMutability": "view",
					"type": "function"
				},
				{
					"inputs": [],
					"name": "initiateRecovery",
					"outputs": [],
					"stateMutability": "nonpayable",
					"type": "function"
				},
				{
					"inputs": [
						{
							"internalType": "uint256",
							"name": "transactionId",
							"type": "uint256"
						}
					],
					"name": "isConfirmed",
					"outputs": [
						{
							"internalType": "bool",
							"name": "",
							"type": "bool"
						}
					],
					"stateMutability": "view",
					"type": "function"
				},
				{
					"inputs": [
						{
							"internalType": "address",
							"name": "",
							"type": "address"
						}
					],
					"name": "isOwner",
					"outputs": [
						{
							"internalType": "bool",
							"name": "",
							"type": "bool"
						}
					],
					"stateMutability": "view",
					"type": "function"
				},
				{
					"inputs": [],
					"name": "lastDay",
					"outputs": [
						{
							"internalType": "uint256",
							"name": "",
							"type": "uint256"
						}
					],
					"stateMutability": "view",
					"type": "function"
				},
				{
					"inputs": [
						{
							"internalType": "uint256",
							"name": "",
							"type": "uint256"
						}
					],
					"name": "owners",
					"outputs": [
						{
							"internalType": "address",
							"name": "",
							"type": "address"
						}
					],
					"stateMutability": "view",
					"type": "function"
				},
				{
					"inputs": [],
					"name": "recoveryAddress",
					"outputs": [
						{
							"internalType": "address",
							"name": "",
							"type": "address"
						}
					],
					"stateMutability": "view",
					"type": "function"
				},
				{
					"inputs": [],
					"name": "recoveryInitiated",
					"outputs": [
						{
							"internalType": "bool",
							"name": "",
							"type": "bool"
						}
					],
					"stateMutability": "view",
					"type": "function"
				},
				{
					"inputs": [],
					"name": "recoveryTime",
					"outputs": [
						{
							"internalType": "uint256",
							"name": "",
							"type": "uint256"
						}
					],
					"stateMutability": "view",
					"type": "function"
				},
				{
					"inputs": [
						{
							"internalType": "address",
							"name": "owner",
							"type": "address"
						}
					],
					"name": "removeOwner",
					"outputs": [],
					"stateMutability": "nonpayable",
					"type": "function"
				},
				{
					"inputs": [],
					"name": "required",
					"outputs": [
						{
							"internalType": "uint256",
							"name": "",
							"type": "uint256"
						}
					],
					"stateMutability": "view",
					"type": "function"
				},
				{
					"inputs": [
						{
							"internalType": "uint256",
							"name": "transactionId",
							"type": "uint256"
						}
					],
					"name": "revokeConfirmation",
					"outputs": [],
					"stateMutability": "nonpayable",
					"type": "function"
				},
				{
					"inputs": [
						{
							"internalType": "uint256",
							"name": "newLimit",
							"type": "uint256"
						}
					],
					"name": "setDailyLimit",
					"outputs": [],
					"stateMutability": "nonpayable",
					"type": "function"
				},
				{
					"inputs": [],
					"name": "spentToday",
					"outputs": [
						{
							"internalType": "uint256",
							"name": "",
							"type": "uint256"
						}
					],
					"stateMutability": "view",
					"type": "function"
				},
				{
					"inputs": [
						{
							"internalType": "address",
							"name": "to",
							"type": "address"
						},
						{
							"internalType": "uint256",
							"name": "value",
							"type": "uint256"
						},
						{
							"internalType": "bytes",
							"name": "data",
							"type": "bytes"
						}
					],
					"name": "submitTransaction",
					"outputs": [
						{
							"internalType": "uint256",
							"name": "",
							"type": "uint256"
						}
					],
					"stateMutability": "nonpayable",
					"type": "function"
				},
				{
					"inputs": [],
					"name": "transactionCount",
					"outputs": [
						{
							"internalType": "uint256",
							"name": "",
							"type": "uint256"
						}
					],
					"stateMutability": "view",
					"type": "function"
				},
				{
					"inputs": [
						{
							"internalType": "uint256",
							"name": "",
							"type": "uint256"
						}
					],
					"name": "transactions",
					"outputs": [
						{
							"internalType": "address",
							"name": "to",
							"type": "address"
						},
						{
							"internalType": "uint256",
							"name": "value",
							"type": "uint256"
						},
						{
							"internalType": "bytes",
							"name": "data",
							"type": "bytes"
						},
						{
							"internalType": "bool",
							"name": "executed",
							"type": "bool"
						},
						{
							"internalType": "uint256",
							"name": "confirmations",
							"type": "uint256"
						}
					],
					"stateMutability": "view",
					"type": "function"
				},
				{
					"stateMutability": "payable",
					"type": "receive"
				}
			],
			"devdoc": {
				"kind": "dev",
				"methods": {},
				"version": 1
			},
			"evm": {
				"assembly": "    /* \"foundry/src/MultiSigWallet.sol\":61:11382  contract MultiSigWallet {... */\n  mstore(0x40, 0x80)\n    /* \"foundry/src/MultiSigWallet.sol\":871:877  2 days */\n  0x02a300\n    /* \"foundry/src/MultiSigWallet.sol\":839:877  uint256 public executionDelay = 2 days */\n  0x0c\n  sstore\n    /* \"foundry/src/MultiSigWallet.sol\":3110:3946  constructor(... */\n  callvalue\n  dup1\n  iszero\n  tag_1\n  jumpi\n  revert(0x00, 0x00)\ntag_1:\n  pop\n  mload(0x40)\n  sub(codesize, bytecodeSize)\n  dup1\n  bytecodeSize\n  dup4\n  codecopy\n  dup2\n  dup2\n  add\n  0x40\n  mstore\n  dup2\n  add\n  swap1\n  tag_2\n  swap2\n  swap1\n  tag_3\n  jump\t// in\ntag_2:\n    /* \"foundry/src/MultiSigWallet.sol\":3293:3294  0 */\n  0x00\n    /* \"foundry/src/MultiSigWallet.sol\":3276:3283  _owners */\n  dup5\n    /* \"foundry/src/MultiSigWallet.sol\":3276:3290  _owners.length */\n  mload\n    /* \"foundry/src/MultiSigWallet.sol\":3276:3294  _owners.length > 0 */\n  gt\n    /* \"foundry/src/MultiSigWallet.sol\":3268:3314  require(_owners.length > 0, \"Owners required\") */\n  tag_6\n  jumpi\n  mload(0x40)\n  0x08c379a000000000000000000000000000000000000000000000000000000000\n  dup2\n  mstore\n  0x04\n  add\n  tag_7\n  swap1\n  tag_8\n  jump\t// in\ntag_7:\n  mload(0x40)\n  dup1\n  swap2\n  sub\n  swap1\n  revert\ntag_6:\n    /* \"foundry/src/MultiSigWallet.sol\":3345:3346  0 */\n  0x00\n    /* \"foundry/src/MultiSigWallet.sol\":3333:3342  _required */\n  dup4\n    /* \"foundry/src/MultiSigWallet.sol\":3333:3346  _required > 0 */\n  gt\n    /* \"foundry/src/MultiSigWallet.sol\":3333:3377  _required > 0 && _required <= _owners.length */\n  dup1\n  iszero\n  tag_9\n  jumpi\n  pop\n    /* \"foundry/src/MultiSigWallet.sol\":3363:3370  _owners */\n  dup4\n    /* \"foundry/src/MultiSigWallet.sol\":3363:3377  _owners.length */\n  mload\n    /* \"foundry/src/MultiSigWallet.sol\":3350:3359  _required */\n  dup4\n    /* \"foundry/src/MultiSigWallet.sol\":3350:3377  _required <= _owners.length */\n  gt\n  iszero\n    /* \"foundry/src/MultiSigWallet.sol\":3333:3377  _required > 0 && _required <= _owners.length */\ntag_9:\n    /* \"foundry/src/MultiSigWallet.sol\":3325:3405  require(_required > 0 && _required <= _owners.length, \"Invalid required number\") */\n  tag_10\n  jumpi\n  mload(0x40)\n  0x08c379a000000000000000000000000000000000000000000000000000000000\n  dup2\n  mstore\n  0x04\n  add\n  tag_11\n  swap1\n  tag_12\n  jump\t// in\ntag_11:\n  mload(0x40)\n  dup1\n  swap2\n  sub\n  swap1\n  revert\ntag_10:\n    /* \"foundry/src/MultiSigWallet.sol\":3452:3453  0 */\n  0x00\n    /* \"foundry/src/MultiSigWallet.sol\":3424:3454  _recoveryAddress != address(0) */\n  0xffffffffffffffffffffffffffffffffffffffff\n  and\n    /* \"foundry/src/MultiSigWallet.sol\":3424:3440  _recoveryAddress */\n  dup2\n    /* \"foundry/src/MultiSigWallet.sol\":3424:3454  _recoveryAddress != address(0) */\n  0xffffffffffffffffffffffffffffffffffffffff\n  and\n  sub\n    /* \"foundry/src/MultiSigWallet.sol\":3416:3483  require(_recoveryAddress != address(0), \"Invalid recovery address\") */\n  tag_13\n  jumpi\n  mload(0x40)\n  0x08c379a000000000000000000000000000000000000000000000000000000000\n  dup2\n  mstore\n  0x04\n  add\n  tag_14\n  swap1\n  tag_15\n  jump\t// in\ntag_14:\n  mload(0x40)\n  dup1\n  swap2\n  sub\n  swap1\n  revert\ntag_13:\n    /* \"foundry/src/MultiSigWallet.sol\":3509:3518  uint256 i */\n  0x00\n    /* \"foundry/src/MultiSigWallet.sol\":3521:3522  0 */\n  0x00\n    /* \"foundry/src/MultiSigWallet.sol\":3509:3522  uint256 i = 0 */\n  swap1\n  pop\n    /* \"foundry/src/MultiSigWallet.sol\":3504:3782  for (uint256 i = 0; i < _owners.length; i++) {... */\ntag_16:\n    /* \"foundry/src/MultiSigWallet.sol\":3528:3535  _owners */\n  dup5\n    /* \"foundry/src/MultiSigWallet.sol\":3528:3542  _owners.length */\n  mload\n    /* \"foundry/src/MultiSigWallet.sol\":3524:3525  i */\n  dup2\n    /* \"foundry/src/MultiSigWallet.sol\":3524:3542  i < _owners.length */\n  lt\n    /* \"foundry/src/MultiSigWallet.sol\":3504:3782  for (uint256 i = 0; i < _owners.length; i++) {... */\n  iszero\n  tag_17\n  jumpi\n    /* \"foundry/src/MultiSigWallet.sol\":3594:3595  0 */\n  0x00\n    /* \"foundry/src/MultiSigWallet.sol\":3572:3596  _owners[i] != address(0) */\n  0xffffffffffffffffffffffffffffffffffffffff\n  and\n    /* \"foundry/src/MultiSigWallet.sol\":3572:3579  _owners */\n  dup6\n    /* \"foundry/src/MultiSigWallet.sol\":3580:3581  i */\n  dup3\n    /* \"foundry/src/MultiSigWallet.sol\":3572:3582  _owners[i] */\n  dup2\n  mload\n  dup2\n  lt\n  tag_19\n  jumpi\n  tag_20\n  tag_21\n  jump\t// in\ntag_20:\ntag_19:\n  0x20\n  mul\n  0x20\n  add\n  add\n  mload\n    /* \"foundry/src/MultiSigWallet.sol\":3572:3596  _owners[i] != address(0) */\n  0xffffffffffffffffffffffffffffffffffffffff\n  and\n  sub\n    /* \"foundry/src/MultiSigWallet.sol\":3564:3614  require(_owners[i] != address(0), \"Invalid owner\") */\n  tag_22\n  jumpi\n  mload(0x40)\n  0x08c379a000000000000000000000000000000000000000000000000000000000\n  dup2\n  mstore\n  0x04\n  add\n  tag_23\n  swap1\n  tag_24\n  jump\t// in\ntag_23:\n  mload(0x40)\n  dup1\n  swap2\n  sub\n  swap1\n  revert\ntag_22:\n    /* \"foundry/src/MultiSigWallet.sol\":3638:3645  isOwner */\n  0x01\n    /* \"foundry/src/MultiSigWallet.sol\":3638:3657  isOwner[_owners[i]] */\n  0x00\n    /* \"foundry/src/MultiSigWallet.sol\":3646:3653  _owners */\n  dup7\n    /* \"foundry/src/MultiSigWallet.sol\":3654:3655  i */\n  dup4\n    /* \"foundry/src/MultiSigWallet.sol\":3646:3656  _owners[i] */\n  dup2\n  mload\n  dup2\n  lt\n  tag_25\n  jumpi\n  tag_26\n  tag_21\n  jump\t// in\ntag_26:\ntag_25:\n  0x20\n  mul\n  0x20\n  add\n  add\n  mload\n    /* \"foundry/src/MultiSigWallet.sol\":3638:3657  isOwner[_owners[i]] */\n  0xffffffffffffffffffffffffffffffffffffffff\n  and\n  0xffffffffffffffffffffffffffffffffffffffff\n  and\n  dup2\n  mstore\n  0x20\n  add\n  swap1\n  dup2\n  mstore\n  0x20\n  add\n  0x00\n  keccak256\n  0x00\n  swap1\n  sload\n  swap1\n  0x0100\n  exp\n  swap1\n  div\n  0xff\n  and\n    /* \"foundry/src/MultiSigWallet.sol\":3637:3657  !isOwner[_owners[i]] */\n  iszero\n    /* \"foundry/src/MultiSigWallet.sol\":3629:3677  require(!isOwner[_owners[i]], \"Duplicate owner\") */\n  tag_27\n  jumpi\n  mload(0x40)\n  0x08c379a000000000000000000000000000000000000000000000000000000000\n  dup2\n  mstore\n  0x04\n  add\n  tag_28\n  swap1\n  tag_29\n  jump\t// in\ntag_28:\n  mload(0x40)\n  dup1\n  swap2\n  sub\n  swap1\n  revert\ntag_27:\n    /* \"foundry/src/MultiSigWallet.sol\":3728:3732  true */\n  0x01\n    /* \"foundry/src/MultiSigWallet.sol\":3706:3713  isOwner */\n  dup1\n    /* \"foundry/src/MultiSigWallet.sol\":3706:3725  isOwner[_owners[i]] */\n  0x00\n    /* \"foundry/src/MultiSigWallet.sol\":3714:3721  _owners */\n  dup8\n    /* \"foundry/src/MultiSigWallet.sol\":3722:3723  i */\n  dup5\n    /* \"foundry/src/MultiSigWallet.sol\":3714:3724  _owners[i] */\n  dup2\n  mload\n  dup2\n  lt\n  tag_30\n  jumpi\n  tag_31\n  tag_21\n  jump\t// in\ntag_31:\ntag_30:\n  0x20\n  mul\n  0x20\n  add\n  add\n  mload\n    /* \"foundry/src/MultiSigWallet.sol\":3706:3725  isOwner[_owners[i]] */\n  0xffffffffffffffffffffffffffffffffffffffff\n  and\n  0xffffffffffffffffffffffffffffffffffffffff\n  and\n  dup2\n  mstore\n  0x20\n  add\n  swap1\n  dup2\n  mstore\n  0x20\n  add\n  0x00\n  keccak256\n  0x00\n    /* \"foundry/src/MultiSigWallet.sol\":3706:3732  isOwner[_owners[i]] = true */\n  0x0100\n  exp\n  dup2\n  sload\n  dup2\n  0xff\n  mul\n  not\n  and\n  swap1\n  dup4\n  iszero\n  iszero\n  mul\n  or\n  swap1\n  sstore\n  pop\n    /* \"foundry/src/MultiSigWallet.sol\":3747:3753  owners */\n  0x00\n    /* \"foundry/src/MultiSigWallet.sol\":3759:3766  _owners */\n  dup6\n    /* \"foundry/src/MultiSigWallet.sol\":3767:3768  i */\n  dup3\n    /* \"foundry/src/MultiSigWallet.sol\":3759:3769  _owners[i] */\n  dup2\n  mload\n  dup2\n  lt\n  tag_32\n  jumpi\n  tag_33\n  tag_21\n  jump\t// in\ntag_33:\ntag_32:\n  0x20\n  mul\n  0x20\n  add\n  add\n  mload\n    /* \"foundry/src/MultiSigWallet.sol\":3747:3770  owners.push(_owners[i]) */\n  swap1\n  dup1\n  0x01\n  dup2\n  sload\n  add\n  dup1\n  dup3\n  sstore\n  dup1\n  swap2\n  pop\n  pop\n  0x01\n  swap1\n  sub\n  swap1\n  0x00\n  mstore\n  keccak256(0x00, 0x20)\n  add\n  0x00\n  swap1\n  swap2\n  swap1\n  swap2\n  swap1\n  swap2\n  0x0100\n  exp\n  dup2\n  sload\n  dup2\n  0xffffffffffffffffffffffffffffffffffffffff\n  mul\n  not\n  and\n  swap1\n  dup4\n  0xffffffffffffffffffffffffffffffffffffffff\n  and\n  mul\n  or\n  swap1\n  sstore\n  pop\n    /* \"foundry/src/MultiSigWallet.sol\":3544:3547  i++ */\n  dup1\n  dup1\n  0x01\n  add\n  swap2\n  pop\n  pop\n    /* \"foundry/src/MultiSigWallet.sol\":3504:3782  for (uint256 i = 0; i < _owners.length; i++) {... */\n  jump(tag_16)\ntag_17:\n  pop\n    /* \"foundry/src/MultiSigWallet.sol\":3813:3822  _required */\n  dup3\n    /* \"foundry/src/MultiSigWallet.sol\":3802:3810  required */\n  0x02\n    /* \"foundry/src/MultiSigWallet.sol\":3802:3822  required = _required */\n  dup2\n  swap1\n  sstore\n  pop\n    /* \"foundry/src/MultiSigWallet.sol\":3846:3857  _dailyLimit */\n  dup2\n    /* \"foundry/src/MultiSigWallet.sol\":3833:3843  dailyLimit */\n  0x04\n    /* \"foundry/src/MultiSigWallet.sol\":3833:3857  dailyLimit = _dailyLimit */\n  dup2\n  swap1\n  sstore\n  pop\n    /* \"foundry/src/MultiSigWallet.sol\":3886:3902  _recoveryAddress */\n  dup1\n    /* \"foundry/src/MultiSigWallet.sol\":3868:3883  recoveryAddress */\n  0x0d\n  0x00\n    /* \"foundry/src/MultiSigWallet.sol\":3868:3902  recoveryAddress = _recoveryAddress */\n  0x0100\n  exp\n  dup2\n  sload\n  dup2\n  0xffffffffffffffffffffffffffffffffffffffff\n  mul\n  not\n  and\n  swap1\n  dup4\n  0xffffffffffffffffffffffffffffffffffffffff\n  and\n  mul\n  or\n  swap1\n  sstore\n  pop\n    /* \"foundry/src/MultiSigWallet.sol\":3923:3938  block.timestamp */\n  timestamp\n    /* \"foundry/src/MultiSigWallet.sol\":3913:3920  lastDay */\n  0x06\n    /* \"foundry/src/MultiSigWallet.sol\":3913:3938  lastDay = block.timestamp */\n  dup2\n  swap1\n  sstore\n  pop\n    /* \"foundry/src/MultiSigWallet.sol\":3110:3946  constructor(... */\n  pop\n  pop\n  pop\n  pop\n    /* \"foundry/src/MultiSigWallet.sol\":61:11382  contract MultiSigWallet {... */\n  jump(tag_35)\n    /* \"#utility.yul\":7:82   */\ntag_36:\n    /* \"#utility.yul\":40:46   */\n  0x00\n    /* \"#utility.yul\":73:75   */\n  0x40\n    /* \"#utility.yul\":67:76   */\n  mload\n    /* \"#utility.yul\":57:76   */\n  swap1\n  pop\n    /* \"#utility.yul\":7:82   */\n  swap1\n  jump\t// out\n    /* \"#utility.yul\":88:205   */\ntag_37:\n    /* \"#utility.yul\":197:198   */\n  0x00\n    /* \"#utility.yul\":194:195   */\n  0x00\n    /* \"#utility.yul\":187:199   */\n  revert\n    /* \"#utility.yul\":211:328   */\ntag_38:\n    /* \"#utility.yul\":320:321   */\n  0x00\n    /* \"#utility.yul\":317:318   */\n  0x00\n    /* \"#utility.yul\":310:322   */\n  revert\n    /* \"#utility.yul\":334:451   */\ntag_39:\n    /* \"#utility.yul\":443:444   */\n  0x00\n    /* \"#utility.yul\":440:441   */\n  0x00\n    /* \"#utility.yul\":433:445   */\n  revert\n    /* \"#utility.yul\":457:559   */\ntag_40:\n    /* \"#utility.yul\":498:504   */\n  0x00\n    /* \"#utility.yul\":549:551   */\n  0x1f\n    /* \"#utility.yul\":545:552   */\n  not\n    /* \"#utility.yul\":540:542   */\n  0x1f\n    /* \"#utility.yul\":533:538   */\n  dup4\n    /* \"#utility.yul\":529:543   */\n  add\n    /* \"#utility.yul\":525:553   */\n  and\n    /* \"#utility.yul\":515:553   */\n  swap1\n  pop\n    /* \"#utility.yul\":457:559   */\n  swap2\n  swap1\n  pop\n  jump\t// out\n    /* \"#utility.yul\":565:745   */\ntag_41:\n    /* \"#utility.yul\":613:690   */\n  0x4e487b7100000000000000000000000000000000000000000000000000000000\n    /* \"#utility.yul\":610:611   */\n  0x00\n    /* \"#utility.yul\":603:691   */\n  mstore\n    /* \"#utility.yul\":710:714   */\n  0x41\n    /* \"#utility.yul\":707:708   */\n  0x04\n    /* \"#utility.yul\":700:715   */\n  mstore\n    /* \"#utility.yul\":734:738   */\n  0x24\n    /* \"#utility.yul\":731:732   */\n  0x00\n    /* \"#utility.yul\":724:739   */\n  revert\n    /* \"#utility.yul\":751:1032   */\ntag_42:\n    /* \"#utility.yul\":834:861   */\n  tag_74\n    /* \"#utility.yul\":856:860   */\n  dup3\n    /* \"#utility.yul\":834:861   */\n  tag_40\n  jump\t// in\ntag_74:\n    /* \"#utility.yul\":826:832   */\n  dup2\n    /* \"#utility.yul\":822:862   */\n  add\n    /* \"#utility.yul\":964:970   */\n  dup2\n    /* \"#utility.yul\":952:962   */\n  dup2\n    /* \"#utility.yul\":949:971   */\n  lt\n    /* \"#utility.yul\":928:946   */\n  0xffffffffffffffff\n    /* \"#utility.yul\":916:926   */\n  dup3\n    /* \"#utility.yul\":913:947   */\n  gt\n    /* \"#utility.yul\":910:972   */\n  or\n    /* \"#utility.yul\":907:995   */\n  iszero\n  tag_75\n  jumpi\n    /* \"#utility.yul\":975:993   */\n  tag_76\n  tag_41\n  jump\t// in\ntag_76:\n    /* \"#utility.yul\":907:995   */\ntag_75:\n    /* \"#utility.yul\":1015:1025   */\n  dup1\n    /* \"#utility.yul\":1011:1013   */\n  0x40\n    /* \"#utility.yul\":1004:1026   */\n  mstore\n    /* \"#utility.yul\":794:1032   */\n  pop\n    /* \"#utility.yul\":751:1032   */\n  pop\n  pop\n  jump\t// out\n    /* \"#utility.yul\":1038:1167   */\ntag_43:\n    /* \"#utility.yul\":1072:1078   */\n  0x00\n    /* \"#utility.yul\":1099:1119   */\n  tag_78\n  tag_36\n  jump\t// in\ntag_78:\n    /* \"#utility.yul\":1089:1119   */\n  swap1\n  pop\n    /* \"#utility.yul\":1128:1161   */\n  tag_79\n    /* \"#utility.yul\":1156:1160   */\n  dup3\n    /* \"#utility.yul\":1148:1154   */\n  dup3\n    /* \"#utility.yul\":1128:1161   */\n  tag_42\n  jump\t// in\ntag_79:\n    /* \"#utility.yul\":1038:1167   */\n  swap2\n  swap1\n  pop\n  jump\t// out\n    /* \"#utility.yul\":1173:1484   */\ntag_44:\n    /* \"#utility.yul\":1250:1254   */\n  0x00\n    /* \"#utility.yul\":1340:1358   */\n  0xffffffffffffffff\n    /* \"#utility.yul\":1332:1338   */\n  dup3\n    /* \"#utility.yul\":1329:1359   */\n  gt\n    /* \"#utility.yul\":1326:1382   */\n  iszero\n  tag_81\n  jumpi\n    /* \"#utility.yul\":1362:1380   */\n  tag_82\n  tag_41\n  jump\t// in\ntag_82:\n    /* \"#utility.yul\":1326:1382   */\ntag_81:\n    /* \"#utility.yul\":1412:1416   */\n  0x20\n    /* \"#utility.yul\":1404:1410   */\n  dup3\n    /* \"#utility.yul\":1400:1417   */\n  mul\n    /* \"#utility.yul\":1392:1417   */\n  swap1\n  pop\n    /* \"#utility.yul\":1472:1476   */\n  0x20\n    /* \"#utility.yul\":1466:1470   */\n  dup2\n    /* \"#utility.yul\":1462:1477   */\n  add\n    /* \"#utility.yul\":1454:1477   */\n  swap1\n  pop\n    /* \"#utility.yul\":1173:1484   */\n  swap2\n  swap1\n  pop\n  jump\t// out\n    /* \"#utility.yul\":1490:1607   */\ntag_45:\n    /* \"#utility.yul\":1599:1600   */\n  0x00\n    /* \"#utility.yul\":1596:1597   */\n  0x00\n    /* \"#utility.yul\":1589:1601   */\n  revert\n    /* \"#utility.yul\":1613:1739   */\ntag_46:\n    /* \"#utility.yul\":1650:1657   */\n  0x00\n    /* \"#utility.yul\":1690:1732   */\n  0xffffffffffffffffffffffffffffffffffffffff\n    /* \"#utility.yul\":1683:1688   */\n  dup3\n    /* \"#utility.yul\":1679:1733   */\n  and\n    /* \"#utility.yul\":1668:1733   */\n  swap1\n  pop\n    /* \"#utility.yul\":1613:1739   */\n  swap2\n  swap1\n  pop\n  jump\t// out\n    /* \"#utility.yul\":1745:1841   */\ntag_47:\n    /* \"#utility.yul\":1782:1789   */\n  0x00\n    /* \"#utility.yul\":1811:1835   */\n  tag_86\n    /* \"#utility.yul\":1829:1834   */\n  dup3\n    /* \"#utility.yul\":1811:1835   */\n  tag_46\n  jump\t// in\ntag_86:\n    /* \"#utility.yul\":1800:1835   */\n  swap1\n  pop\n    /* \"#utility.yul\":1745:1841   */\n  swap2\n  swap1\n  pop\n  jump\t// out\n    /* \"#utility.yul\":1847:1969   */\ntag_48:\n    /* \"#utility.yul\":1920:1944   */\n  tag_88\n    /* \"#utility.yul\":1938:1943   */\n  dup2\n    /* \"#utility.yul\":1920:1944   */\n  tag_47\n  jump\t// in\ntag_88:\n    /* \"#utility.yul\":1913:1918   */\n  dup2\n    /* \"#utility.yul\":1910:1945   */\n  eq\n    /* \"#utility.yul\":1900:1963   */\n  tag_89\n  jumpi\n    /* \"#utility.yul\":1959:1960   */\n  0x00\n    /* \"#utility.yul\":1956:1957   */\n  0x00\n    /* \"#utility.yul\":1949:1961   */\n  revert\n    /* \"#utility.yul\":1900:1963   */\ntag_89:\n    /* \"#utility.yul\":1847:1969   */\n  pop\n  jump\t// out\n    /* \"#utility.yul\":1975:2118   */\ntag_49:\n    /* \"#utility.yul\":2032:2037   */\n  0x00\n    /* \"#utility.yul\":2063:2069   */\n  dup2\n    /* \"#utility.yul\":2057:2070   */\n  mload\n    /* \"#utility.yul\":2048:2070   */\n  swap1\n  pop\n    /* \"#utility.yul\":2079:2112   */\n  tag_91\n    /* \"#utility.yul\":2106:2111   */\n  dup2\n    /* \"#utility.yul\":2079:2112   */\n  tag_48\n  jump\t// in\ntag_91:\n    /* \"#utility.yul\":1975:2118   */\n  swap3\n  swap2\n  pop\n  pop\n  jump\t// out\n    /* \"#utility.yul\":2141:2873   */\ntag_50:\n    /* \"#utility.yul\":2248:2253   */\n  0x00\n    /* \"#utility.yul\":2273:2354   */\n  tag_93\n    /* \"#utility.yul\":2289:2353   */\n  tag_94\n    /* \"#utility.yul\":2346:2352   */\n  dup5\n    /* \"#utility.yul\":2289:2353   */\n  tag_44\n  jump\t// in\ntag_94:\n    /* \"#utility.yul\":2273:2354   */\n  tag_43\n  jump\t// in\ntag_93:\n    /* \"#utility.yul\":2264:2354   */\n  swap1\n  pop\n    /* \"#utility.yul\":2374:2379   */\n  dup1\n    /* \"#utility.yul\":2403:2409   */\n  dup4\n    /* \"#utility.yul\":2396:2401   */\n  dup3\n    /* \"#utility.yul\":2389:2410   */\n  mstore\n    /* \"#utility.yul\":2437:2441   */\n  0x20\n    /* \"#utility.yul\":2430:2435   */\n  dup3\n    /* \"#utility.yul\":2426:2442   */\n  add\n    /* \"#utility.yul\":2419:2442   */\n  swap1\n  pop\n    /* \"#utility.yul\":2490:2494   */\n  0x20\n    /* \"#utility.yul\":2482:2488   */\n  dup5\n    /* \"#utility.yul\":2478:2495   */\n  mul\n    /* \"#utility.yul\":2470:2476   */\n  dup4\n    /* \"#utility.yul\":2466:2496   */\n  add\n    /* \"#utility.yul\":2519:2522   */\n  dup6\n    /* \"#utility.yul\":2511:2517   */\n  dup2\n    /* \"#utility.yul\":2508:2523   */\n  gt\n    /* \"#utility.yul\":2505:2627   */\n  iszero\n  tag_95\n  jumpi\n    /* \"#utility.yul\":2538:2617   */\n  tag_96\n  tag_45\n  jump\t// in\ntag_96:\n    /* \"#utility.yul\":2505:2627   */\ntag_95:\n    /* \"#utility.yul\":2653:2659   */\n  dup4\n    /* \"#utility.yul\":2636:2867   */\ntag_97:\n    /* \"#utility.yul\":2670:2676   */\n  dup2\n    /* \"#utility.yul\":2665:2668   */\n  dup2\n    /* \"#utility.yul\":2662:2677   */\n  lt\n    /* \"#utility.yul\":2636:2867   */\n  iszero\n  tag_99\n  jumpi\n    /* \"#utility.yul\":2745:2748   */\n  dup1\n    /* \"#utility.yul\":2774:2822   */\n  tag_100\n    /* \"#utility.yul\":2818:2821   */\n  dup9\n    /* \"#utility.yul\":2806:2816   */\n  dup3\n    /* \"#utility.yul\":2774:2822   */\n  tag_49\n  jump\t// in\ntag_100:\n    /* \"#utility.yul\":2769:2772   */\n  dup5\n    /* \"#utility.yul\":2762:2823   */\n  mstore\n    /* \"#utility.yul\":2852:2856   */\n  0x20\n    /* \"#utility.yul\":2847:2850   */\n  dup5\n    /* \"#utility.yul\":2843:2857   */\n  add\n    /* \"#utility.yul\":2836:2857   */\n  swap4\n  pop\n    /* \"#utility.yul\":2712:2867   */\n  pop\n    /* \"#utility.yul\":2696:2700   */\n  0x20\n    /* \"#utility.yul\":2691:2694   */\n  dup2\n    /* \"#utility.yul\":2687:2701   */\n  add\n    /* \"#utility.yul\":2680:2701   */\n  swap1\n  pop\n    /* \"#utility.yul\":2636:2867   */\n  jump(tag_97)\ntag_99:\n    /* \"#utility.yul\":2640:2661   */\n  pop\n    /* \"#utility.yul\":2254:2873   */\n  pop\n  pop\n    /* \"#utility.yul\":2141:2873   */\n  swap4\n  swap3\n  pop\n  pop\n  pop\n  jump\t// out\n    /* \"#utility.yul\":2896:3281   */\ntag_51:\n    /* \"#utility.yul\":2978:2983   */\n  0x00\n    /* \"#utility.yul\":3027:3030   */\n  dup3\n    /* \"#utility.yul\":3020:3024   */\n  0x1f\n    /* \"#utility.yul\":3012:3018   */\n  dup4\n    /* \"#utility.yul\":3008:3025   */\n  add\n    /* \"#utility.yul\":3004:3031   */\n  slt\n    /* \"#utility.yul\":2994:3116   */\n  tag_102\n  jumpi\n    /* \"#utility.yul\":3035:3114   */\n  tag_103\n  tag_39\n  jump\t// in\ntag_103:\n    /* \"#utility.yul\":2994:3116   */\ntag_102:\n    /* \"#utility.yul\":3145:3151   */\n  dup2\n    /* \"#utility.yul\":3139:3152   */\n  mload\n    /* \"#utility.yul\":3170:3275   */\n  tag_104\n    /* \"#utility.yul\":3271:3274   */\n  dup5\n    /* \"#utility.yul\":3263:3269   */\n  dup3\n    /* \"#utility.yul\":3256:3260   */\n  0x20\n    /* \"#utility.yul\":3248:3254   */\n  dup7\n    /* \"#utility.yul\":3244:3261   */\n  add\n    /* \"#utility.yul\":3170:3275   */\n  tag_50\n  jump\t// in\ntag_104:\n    /* \"#utility.yul\":3161:3275   */\n  swap2\n  pop\n    /* \"#utility.yul\":2984:3281   */\n  pop\n    /* \"#utility.yul\":2896:3281   */\n  swap3\n  swap2\n  pop\n  pop\n  jump\t// out\n    /* \"#utility.yul\":3287:3364   */\ntag_52:\n    /* \"#utility.yul\":3324:3331   */\n  0x00\n    /* \"#utility.yul\":3353:3358   */\n  dup2\n    /* \"#utility.yul\":3342:3358   */\n  swap1\n  pop\n    /* \"#utility.yul\":3287:3364   */\n  swap2\n  swap1\n  pop\n  jump\t// out\n    /* \"#utility.yul\":3370:3492   */\ntag_53:\n    /* \"#utility.yul\":3443:3467   */\n  tag_107\n    /* \"#utility.yul\":3461:3466   */\n  dup2\n    /* \"#utility.yul\":3443:3467   */\n  tag_52\n  jump\t// in\ntag_107:\n    /* \"#utility.yul\":3436:3441   */\n  dup2\n    /* \"#utility.yul\":3433:3468   */\n  eq\n    /* \"#utility.yul\":3423:3486   */\n  tag_108\n  jumpi\n    /* \"#utility.yul\":3482:3483   */\n  0x00\n    /* \"#utility.yul\":3479:3480   */\n  0x00\n    /* \"#utility.yul\":3472:3484   */\n  revert\n    /* \"#utility.yul\":3423:3486   */\ntag_108:\n    /* \"#utility.yul\":3370:3492   */\n  pop\n  jump\t// out\n    /* \"#utility.yul\":3498:3641   */\ntag_54:\n    /* \"#utility.yul\":3555:3560   */\n  0x00\n    /* \"#utility.yul\":3586:3592   */\n  dup2\n    /* \"#utility.yul\":3580:3593   */\n  mload\n    /* \"#utility.yul\":3571:3593   */\n  swap1\n  pop\n    /* \"#utility.yul\":3602:3635   */\n  tag_110\n    /* \"#utility.yul\":3629:3634   */\n  dup2\n    /* \"#utility.yul\":3602:3635   */\n  tag_53\n  jump\t// in\ntag_110:\n    /* \"#utility.yul\":3498:3641   */\n  swap3\n  swap2\n  pop\n  pop\n  jump\t// out\n    /* \"#utility.yul\":3647:4670   */\ntag_3:\n    /* \"#utility.yul\":3769:3775   */\n  0x00\n    /* \"#utility.yul\":3777:3783   */\n  0x00\n    /* \"#utility.yul\":3785:3791   */\n  0x00\n    /* \"#utility.yul\":3793:3799   */\n  0x00\n    /* \"#utility.yul\":3842:3845   */\n  0x80\n    /* \"#utility.yul\":3830:3839   */\n  dup6\n    /* \"#utility.yul\":3821:3828   */\n  dup8\n    /* \"#utility.yul\":3817:3840   */\n  sub\n    /* \"#utility.yul\":3813:3846   */\n  slt\n    /* \"#utility.yul\":3810:3930   */\n  iszero\n  tag_112\n  jumpi\n    /* \"#utility.yul\":3849:3928   */\n  tag_113\n  tag_37\n  jump\t// in\ntag_113:\n    /* \"#utility.yul\":3810:3930   */\ntag_112:\n    /* \"#utility.yul\":3990:3991   */\n  0x00\n    /* \"#utility.yul\":3979:3988   */\n  dup6\n    /* \"#utility.yul\":3975:3992   */\n  add\n    /* \"#utility.yul\":3969:3993   */\n  mload\n    /* \"#utility.yul\":4020:4038   */\n  0xffffffffffffffff\n    /* \"#utility.yul\":4012:4018   */\n  dup2\n    /* \"#utility.yul\":4009:4039   */\n  gt\n    /* \"#utility.yul\":4006:4123   */\n  iszero\n  tag_114\n  jumpi\n    /* \"#utility.yul\":4042:4121   */\n  tag_115\n  tag_38\n  jump\t// in\ntag_115:\n    /* \"#utility.yul\":4006:4123   */\ntag_114:\n    /* \"#utility.yul\":4147:4236   */\n  tag_116\n    /* \"#utility.yul\":4228:4235   */\n  dup8\n    /* \"#utility.yul\":4219:4225   */\n  dup3\n    /* \"#utility.yul\":4208:4217   */\n  dup9\n    /* \"#utility.yul\":4204:4226   */\n  add\n    /* \"#utility.yul\":4147:4236   */\n  tag_51\n  jump\t// in\ntag_116:\n    /* \"#utility.yul\":4137:4236   */\n  swap5\n  pop\n    /* \"#utility.yul\":3940:4246   */\n  pop\n    /* \"#utility.yul\":4285:4287   */\n  0x20\n    /* \"#utility.yul\":4311:4375   */\n  tag_117\n    /* \"#utility.yul\":4367:4374   */\n  dup8\n    /* \"#utility.yul\":4358:4364   */\n  dup3\n    /* \"#utility.yul\":4347:4356   */\n  dup9\n    /* \"#utility.yul\":4343:4365   */\n  add\n    /* \"#utility.yul\":4311:4375   */\n  tag_54\n  jump\t// in\ntag_117:\n    /* \"#utility.yul\":4301:4375   */\n  swap4\n  pop\n    /* \"#utility.yul\":4256:4385   */\n  pop\n    /* \"#utility.yul\":4424:4426   */\n  0x40\n    /* \"#utility.yul\":4450:4514   */\n  tag_118\n    /* \"#utility.yul\":4506:4513   */\n  dup8\n    /* \"#utility.yul\":4497:4503   */\n  dup3\n    /* \"#utility.yul\":4486:4495   */\n  dup9\n    /* \"#utility.yul\":4482:4504   */\n  add\n    /* \"#utility.yul\":4450:4514   */\n  tag_54\n  jump\t// in\ntag_118:\n    /* \"#utility.yul\":4440:4514   */\n  swap3\n  pop\n    /* \"#utility.yul\":4395:4524   */\n  pop\n    /* \"#utility.yul\":4563:4565   */\n  0x60\n    /* \"#utility.yul\":4589:4653   */\n  tag_119\n    /* \"#utility.yul\":4645:4652   */\n  dup8\n    /* \"#utility.yul\":4636:4642   */\n  dup3\n    /* \"#utility.yul\":4625:4634   */\n  dup9\n    /* \"#utility.yul\":4621:4643   */\n  add\n    /* \"#utility.yul\":4589:4653   */\n  tag_49\n  jump\t// in\ntag_119:\n    /* \"#utility.yul\":4579:4653   */\n  swap2\n  pop\n    /* \"#utility.yul\":4534:4663   */\n  pop\n    /* \"#utility.yul\":3647:4670   */\n  swap3\n  swap6\n  swap2\n  swap5\n  pop\n  swap3\n  pop\n  jump\t// out\n    /* \"#utility.yul\":4676:4845   */\ntag_55:\n    /* \"#utility.yul\":4760:4771   */\n  0x00\n    /* \"#utility.yul\":4794:4800   */\n  dup3\n    /* \"#utility.yul\":4789:4792   */\n  dup3\n    /* \"#utility.yul\":4782:4801   */\n  mstore\n    /* \"#utility.yul\":4834:4838   */\n  0x20\n    /* \"#utility.yul\":4829:4832   */\n  dup3\n    /* \"#utility.yul\":4825:4839   */\n  add\n    /* \"#utility.yul\":4810:4839   */\n  swap1\n  pop\n    /* \"#utility.yul\":4676:4845   */\n  swap3\n  swap2\n  pop\n  pop\n  jump\t// out\n    /* \"#utility.yul\":4851:5016   */\ntag_56:\n    /* \"#utility.yul\":4991:5008   */\n  0x4f776e6572732072657175697265640000000000000000000000000000000000\n    /* \"#utility.yul\":4987:4988   */\n  0x00\n    /* \"#utility.yul\":4979:4985   */\n  dup3\n    /* \"#utility.yul\":4975:4989   */\n  add\n    /* \"#utility.yul\":4968:5009   */\n  mstore\n    /* \"#utility.yul\":4851:5016   */\n  pop\n  jump\t// out\n    /* \"#utility.yul\":5022:5388   */\ntag_57:\n    /* \"#utility.yul\":5164:5167   */\n  0x00\n    /* \"#utility.yul\":5185:5252   */\n  tag_123\n    /* \"#utility.yul\":5249:5251   */\n  0x0f\n    /* \"#utility.yul\":5244:5247   */\n  dup4\n    /* \"#utility.yul\":5185:5252   */\n  tag_55\n  jump\t// in\ntag_123:\n    /* \"#utility.yul\":5178:5252   */\n  swap2\n  pop\n    /* \"#utility.yul\":5261:5354   */\n  tag_124\n    /* \"#utility.yul\":5350:5353   */\n  dup3\n    /* \"#utility.yul\":5261:5354   */\n  tag_56\n  jump\t// in\ntag_124:\n    /* \"#utility.yul\":5379:5381   */\n  0x20\n    /* \"#utility.yul\":5374:5377   */\n  dup3\n    /* \"#utility.yul\":5370:5382   */\n  add\n    /* \"#utility.yul\":5363:5382   */\n  swap1\n  pop\n    /* \"#utility.yul\":5022:5388   */\n  swap2\n  swap1\n  pop\n  jump\t// out\n    /* \"#utility.yul\":5394:5813   */\ntag_8:\n    /* \"#utility.yul\":5560:5564   */\n  0x00\n    /* \"#utility.yul\":5598:5600   */\n  0x20\n    /* \"#utility.yul\":5587:5596   */\n  dup3\n    /* \"#utility.yul\":5583:5601   */\n  add\n    /* \"#utility.yul\":5575:5601   */\n  swap1\n  pop\n    /* \"#utility.yul\":5647:5656   */\n  dup2\n    /* \"#utility.yul\":5641:5645   */\n  dup2\n    /* \"#utility.yul\":5637:5657   */\n  sub\n    /* \"#utility.yul\":5633:5634   */\n  0x00\n    /* \"#utility.yul\":5622:5631   */\n  dup4\n    /* \"#utility.yul\":5618:5635   */\n  add\n    /* \"#utility.yul\":5611:5658   */\n  mstore\n    /* \"#utility.yul\":5675:5806   */\n  tag_126\n    /* \"#utility.yul\":5801:5805   */\n  dup2\n    /* \"#utility.yul\":5675:5806   */\n  tag_57\n  jump\t// in\ntag_126:\n    /* \"#utility.yul\":5667:5806   */\n  swap1\n  pop\n    /* \"#utility.yul\":5394:5813   */\n  swap2\n  swap1\n  pop\n  jump\t// out\n    /* \"#utility.yul\":5819:5992   */\ntag_58:\n    /* \"#utility.yul\":5959:5984   */\n  0x496e76616c6964207265717569726564206e756d626572000000000000000000\n    /* \"#utility.yul\":5955:5956   */\n  0x00\n    /* \"#utility.yul\":5947:5953   */\n  dup3\n    /* \"#utility.yul\":5943:5957   */\n  add\n    /* \"#utility.yul\":5936:5985   */\n  mstore\n    /* \"#utility.yul\":5819:5992   */\n  pop\n  jump\t// out\n    /* \"#utility.yul\":5998:6364   */\ntag_59:\n    /* \"#utility.yul\":6140:6143   */\n  0x00\n    /* \"#utility.yul\":6161:6228   */\n  tag_129\n    /* \"#utility.yul\":6225:6227   */\n  0x17\n    /* \"#utility.yul\":6220:6223   */\n  dup4\n    /* \"#utility.yul\":6161:6228   */\n  tag_55\n  jump\t// in\ntag_129:\n    /* \"#utility.yul\":6154:6228   */\n  swap2\n  pop\n    /* \"#utility.yul\":6237:6330   */\n  tag_130\n    /* \"#utility.yul\":6326:6329   */\n  dup3\n    /* \"#utility.yul\":6237:6330   */\n  tag_58\n  jump\t// in\ntag_130:\n    /* \"#utility.yul\":6355:6357   */\n  0x20\n    /* \"#utility.yul\":6350:6353   */\n  dup3\n    /* \"#utility.yul\":6346:6358   */\n  add\n    /* \"#utility.yul\":6339:6358   */\n  swap1\n  pop\n    /* \"#utility.yul\":5998:6364   */\n  swap2\n  swap1\n  pop\n  jump\t// out\n    /* \"#utility.yul\":6370:6789   */\ntag_12:\n    /* \"#utility.yul\":6536:6540   */\n  0x00\n    /* \"#utility.yul\":6574:6576   */\n  0x20\n    /* \"#utility.yul\":6563:6572   */\n  dup3\n    /* \"#utility.yul\":6559:6577   */\n  add\n    /* \"#utility.yul\":6551:6577   */\n  swap1\n  pop\n    /* \"#utility.yul\":6623:6632   */\n  dup2\n    /* \"#utility.yul\":6617:6621   */\n  dup2\n    /* \"#utility.yul\":6613:6633   */\n  sub\n    /* \"#utility.yul\":6609:6610   */\n  0x00\n    /* \"#utility.yul\":6598:6607   */\n  dup4\n    /* \"#utility.yul\":6594:6611   */\n  add\n    /* \"#utility.yul\":6587:6634   */\n  mstore\n    /* \"#utility.yul\":6651:6782   */\n  tag_132\n    /* \"#utility.yul\":6777:6781   */\n  dup2\n    /* \"#utility.yul\":6651:6782   */\n  tag_59\n  jump\t// in\ntag_132:\n    /* \"#utility.yul\":6643:6782   */\n  swap1\n  pop\n    /* \"#utility.yul\":6370:6789   */\n  swap2\n  swap1\n  pop\n  jump\t// out\n    /* \"#utility.yul\":6795:6969   */\ntag_60:\n    /* \"#utility.yul\":6935:6961   */\n  0x496e76616c6964207265636f7665727920616464726573730000000000000000\n    /* \"#utility.yul\":6931:6932   */\n  0x00\n    /* \"#utility.yul\":6923:6929   */\n  dup3\n    /* \"#utility.yul\":6919:6933   */\n  add\n    /* \"#utility.yul\":6912:6962   */\n  mstore\n    /* \"#utility.yul\":6795:6969   */\n  pop\n  jump\t// out\n    /* \"#utility.yul\":6975:7341   */\ntag_61:\n    /* \"#utility.yul\":7117:7120   */\n  0x00\n    /* \"#utility.yul\":7138:7205   */\n  tag_135\n    /* \"#utility.yul\":7202:7204   */\n  0x18\n    /* \"#utility.yul\":7197:7200   */\n  dup4\n    /* \"#utility.yul\":7138:7205   */\n  tag_55\n  jump\t// in\ntag_135:\n    /* \"#utility.yul\":7131:7205   */\n  swap2\n  pop\n    /* \"#utility.yul\":7214:7307   */\n  tag_136\n    /* \"#utility.yul\":7303:7306   */\n  dup3\n    /* \"#utility.yul\":7214:7307   */\n  tag_60\n  jump\t// in\ntag_136:\n    /* \"#utility.yul\":7332:7334   */\n  0x20\n    /* \"#utility.yul\":7327:7330   */\n  dup3\n    /* \"#utility.yul\":7323:7335   */\n  add\n    /* \"#utility.yul\":7316:7335   */\n  swap1\n  pop\n    /* \"#utility.yul\":6975:7341   */\n  swap2\n  swap1\n  pop\n  jump\t// out\n    /* \"#utility.yul\":7347:7766   */\ntag_15:\n    /* \"#utility.yul\":7513:7517   */\n  0x00\n    /* \"#utility.yul\":7551:7553   */\n  0x20\n    /* \"#utility.yul\":7540:7549   */\n  dup3\n    /* \"#utility.yul\":7536:7554   */\n  add\n    /* \"#utility.yul\":7528:7554   */\n  swap1\n  pop\n    /* \"#utility.yul\":7600:7609   */\n  dup2\n    /* \"#utility.yul\":7594:7598   */\n  dup2\n    /* \"#utility.yul\":7590:7610   */\n  sub\n    /* \"#utility.yul\":7586:7587   */\n  0x00\n    /* \"#utility.yul\":7575:7584   */\n  dup4\n    /* \"#utility.yul\":7571:7588   */\n  add\n    /* \"#utility.yul\":7564:7611   */\n  mstore\n    /* \"#utility.yul\":7628:7759   */\n  tag_138\n    /* \"#utility.yul\":7754:7758   */\n  dup2\n    /* \"#utility.yul\":7628:7759   */\n  tag_61\n  jump\t// in\ntag_138:\n    /* \"#utility.yul\":7620:7759   */\n  swap1\n  pop\n    /* \"#utility.yul\":7347:7766   */\n  swap2\n  swap1\n  pop\n  jump\t// out\n    /* \"#utility.yul\":7772:7952   */\ntag_21:\n    /* \"#utility.yul\":7820:7897   */\n  0x4e487b7100000000000000000000000000000000000000000000000000000000\n    /* \"#utility.yul\":7817:7818   */\n  0x00\n    /* \"#utility.yul\":7810:7898   */\n  mstore\n    /* \"#utility.yul\":7917:7921   */\n  0x32\n    /* \"#utility.yul\":7914:7915   */\n  0x04\n    /* \"#utility.yul\":7907:7922   */\n  mstore\n    /* \"#utility.yul\":7941:7945   */\n  0x24\n    /* \"#utility.yul\":7938:7939   */\n  0x00\n    /* \"#utility.yul\":7931:7946   */\n  revert\n    /* \"#utility.yul\":7958:8121   */\ntag_62:\n    /* \"#utility.yul\":8098:8113   */\n  0x496e76616c6964206f776e657200000000000000000000000000000000000000\n    /* \"#utility.yul\":8094:8095   */\n  0x00\n    /* \"#utility.yul\":8086:8092   */\n  dup3\n    /* \"#utility.yul\":8082:8096   */\n  add\n    /* \"#utility.yul\":8075:8114   */\n  mstore\n    /* \"#utility.yul\":7958:8121   */\n  pop\n  jump\t// out\n    /* \"#utility.yul\":8127:8493   */\ntag_63:\n    /* \"#utility.yul\":8269:8272   */\n  0x00\n    /* \"#utility.yul\":8290:8357   */\n  tag_142\n    /* \"#utility.yul\":8354:8356   */\n  0x0d\n    /* \"#utility.yul\":8349:8352   */\n  dup4\n    /* \"#utility.yul\":8290:8357   */\n  tag_55\n  jump\t// in\ntag_142:\n    /* \"#utility.yul\":8283:8357   */\n  swap2\n  pop\n    /* \"#utility.yul\":8366:8459   */\n  tag_143\n    /* \"#utility.yul\":8455:8458   */\n  dup3\n    /* \"#utility.yul\":8366:8459   */\n  tag_62\n  jump\t// in\ntag_143:\n    /* \"#utility.yul\":8484:8486   */\n  0x20\n    /* \"#utility.yul\":8479:8482   */\n  dup3\n    /* \"#utility.yul\":8475:8487   */\n  add\n    /* \"#utility.yul\":8468:8487   */\n  swap1\n  pop\n    /* \"#utility.yul\":8127:8493   */\n  swap2\n  swap1\n  pop\n  jump\t// out\n    /* \"#utility.yul\":8499:8918   */\ntag_24:\n    /* \"#utility.yul\":8665:8669   */\n  0x00\n    /* \"#utility.yul\":8703:8705   */\n  0x20\n    /* \"#utility.yul\":8692:8701   */\n  dup3\n    /* \"#utility.yul\":8688:8706   */\n  add\n    /* \"#utility.yul\":8680:8706   */\n  swap1\n  pop\n    /* \"#utility.yul\":8752:8761   */\n  dup2\n    /* \"#utility.yul\":8746:8750   */\n  dup2\n    /* \"#utility.yul\":8742:8762   */\n  sub\n    /* \"#utility.yul\":8738:8739   */\n  0x00\n    /* \"#utility.yul\":8727:8736   */\n  dup4\n    /* \"#utility.yul\":8723:8740   */\n  add\n    /* \"#utility.yul\":8716:8763   */\n  mstore\n    /* \"#utility.yul\":8780:8911   */\n  tag_145\n    /* \"#utility.yul\":8906:8910   */\n  dup2\n    /* \"#utility.yul\":8780:8911   */\n  tag_63\n  jump\t// in\ntag_145:\n    /* \"#utility.yul\":8772:8911   */\n  swap1\n  pop\n    /* \"#utility.yul\":8499:8918   */\n  swap2\n  swap1\n  pop\n  jump\t// out\n    /* \"#utility.yul\":8924:9089   */\ntag_64:\n    /* \"#utility.yul\":9064:9081   */\n  0x4475706c6963617465206f776e65720000000000000000000000000000000000\n    /* \"#utility.yul\":9060:9061   */\n  0x00\n    /* \"#utility.yul\":9052:9058   */\n  dup3\n    /* \"#utility.yul\":9048:9062   */\n  add\n    /* \"#utility.yul\":9041:9082   */\n  mstore\n    /* \"#utility.yul\":8924:9089   */\n  pop\n  jump\t// out\n    /* \"#utility.yul\":9095:9461   */\ntag_65:\n    /* \"#utility.yul\":9237:9240   */\n  0x00\n    /* \"#utility.yul\":9258:9325   */\n  tag_148\n    /* \"#utility.yul\":9322:9324   */\n  0x0f\n    /* \"#utility.yul\":9317:9320   */\n  dup4\n    /* \"#utility.yul\":9258:9325   */\n  tag_55\n  jump\t// in\ntag_148:\n    /* \"#utility.yul\":9251:9325   */\n  swap2\n  pop\n    /* \"#utility.yul\":9334:9427   */\n  tag_149\n    /* \"#utility.yul\":9423:9426   */\n  dup3\n    /* \"#utility.yul\":9334:9427   */\n  tag_64\n  jump\t// in\ntag_149:\n    /* \"#utility.yul\":9452:9454   */\n  0x20\n    /* \"#utility.yul\":9447:9450   */\n  dup3\n    /* \"#utility.yul\":9443:9455   */\n  add\n    /* \"#utility.yul\":9436:9455   */\n  swap1\n  pop\n    /* \"#utility.yul\":9095:9461   */\n  swap2\n  swap1\n  pop\n  jump\t// out\n    /* \"#utility.yul\":9467:9886   */\ntag_29:\n    /* \"#utility.yul\":9633:9637   */\n  0x00\n    /* \"#utility.yul\":9671:9673   */\n  0x20\n    /* \"#utility.yul\":9660:9669   */\n  dup3\n    /* \"#utility.yul\":9656:9674   */\n  add\n    /* \"#utility.yul\":9648:9674   */\n  swap1\n  pop\n    /* \"#utility.yul\":9720:9729   */\n  dup2\n    /* \"#utility.yul\":9714:9718   */\n  dup2\n    /* \"#utility.yul\":9710:9730   */\n  sub\n    /* \"#utility.yul\":9706:9707   */\n  0x00\n    /* \"#utility.yul\":9695:9704   */\n  dup4\n    /* \"#utility.yul\":9691:9708   */\n  add\n    /* \"#utility.yul\":9684:9731   */\n  mstore\n    /* \"#utility.yul\":9748:9879   */\n  tag_151\n    /* \"#utility.yul\":9874:9878   */\n  dup2\n    /* \"#utility.yul\":9748:9879   */\n  tag_65\n  jump\t// in\ntag_151:\n    /* \"#utility.yul\":9740:9879   */\n  swap1\n  pop\n    /* \"#utility.yul\":9467:9886   */\n  swap2\n  swap1\n  pop\n  jump\t// out\n    /* \"foundry/src/MultiSigWallet.sol\":61:11382  contract MultiSigWallet {... */\ntag_35:\n  dataSize(sub_0)\n  dup1\n  dataOffset(sub_0)\n  0x00\n  codecopy\n  0x00\n  return\nstop\n\nsub_0: assembly {\n        /* \"foundry/src/MultiSigWallet.sol\":61:11382  contract MultiSigWallet {... */\n      mstore(0x40, 0x80)\n      jumpi(tag_1, lt(calldatasize, 0x04))\n      shr(0xe0, calldataload(0x00))\n      dup1\n      0x8ac46935\n      gt\n      tag_36\n      jumpi\n      dup1\n      0xb5dc40c3\n      gt\n      tag_37\n      jumpi\n      dup1\n      0xc6427474\n      gt\n      tag_38\n      jumpi\n      dup1\n      0xc6427474\n      eq\n      tag_31\n      jumpi\n      dup1\n      0xca2a65ad\n      eq\n      tag_32\n      jumpi\n      dup1\n      0xdc8452cd\n      eq\n      tag_33\n      jumpi\n      dup1\n      0xee22610b\n      eq\n      tag_34\n      jumpi\n      dup1\n      0xf059cf2b\n      eq\n      tag_35\n      jumpi\n      jump(tag_2)\n    tag_38:\n      dup1\n      0xb5dc40c3\n      eq\n      tag_27\n      jumpi\n      dup1\n      0xb77bf600\n      eq\n      tag_28\n      jumpi\n      dup1\n      0xba51a6df\n      eq\n      tag_29\n      jumpi\n      dup1\n      0xc01a8c84\n      eq\n      tag_30\n      jumpi\n      jump(tag_2)\n    tag_37:\n      dup1\n      0x9ace38c2\n      gt\n      tag_39\n      jumpi\n      dup1\n      0x9ace38c2\n      eq\n      tag_23\n      jumpi\n      dup1\n      0xa0e67e2b\n      eq\n      tag_24\n      jumpi\n      dup1\n      0xa8abe69a\n      eq\n      tag_25\n      jumpi\n      dup1\n      0xb20d30a9\n      eq\n      tag_26\n      jumpi\n      jump(tag_2)\n    tag_39:\n      dup1\n      0x8ac46935\n      eq\n      tag_19\n      jumpi\n      dup1\n      0x8b257989\n      eq\n      tag_20\n      jumpi\n      dup1\n      0x8b51d13f\n      eq\n      tag_21\n      jumpi\n      dup1\n      0x992fcf49\n      eq\n      tag_22\n      jumpi\n      jump(tag_2)\n    tag_36:\n      dup1\n      0x48f6ba12\n      gt\n      tag_40\n      jumpi\n      dup1\n      0x6b0c932d\n      gt\n      tag_41\n      jumpi\n      dup1\n      0x6b0c932d\n      eq\n      tag_15\n      jumpi\n      dup1\n      0x7065cb48\n      eq\n      tag_16\n      jumpi\n      dup1\n      0x710eb26c\n      eq\n      tag_17\n      jumpi\n      dup1\n      0x784547a7\n      eq\n      tag_18\n      jumpi\n      jump(tag_2)\n    tag_41:\n      dup1\n      0x48f6ba12\n      eq\n      tag_11\n      jumpi\n      dup1\n      0x62ffc7ac\n      eq\n      tag_12\n      jumpi\n      dup1\n      0x67eeba0c\n      eq\n      tag_13\n      jumpi\n      dup1\n      0x6925b0d6\n      eq\n      tag_14\n      jumpi\n      jump(tag_2)\n    tag_40:\n      dup1\n      0x20ea8d86\n      gt\n      tag_42\n      jumpi\n      dup1\n      0x20ea8d86\n      eq\n      tag_7\n      jumpi\n      dup1\n      0x260d711e\n      eq\n      tag_8\n      jumpi\n      dup1\n      0x2f54bf6e\n      eq\n      tag_9\n      jumpi\n      dup1\n      0x3411c81c\n      eq\n      tag_10\n      jumpi\n      jump(tag_2)\n    tag_42:\n      dup1\n      0x025e7c27\n      eq\n      tag_3\n      jumpi\n      dup1\n      0x0ba234d6\n      eq\n      tag_4\n      jumpi\n      dup1\n      0x173825d9\n      eq\n      tag_5\n      jumpi\n      dup1\n      0x20c5a3e1\n      eq\n      tag_6\n      jumpi\n      jump(tag_2)\n    tag_1:\n      jumpi(tag_2, calldatasize)\n        /* \"foundry/src/MultiSigWallet.sol\":11307:11308  0 */\n      0x00\n        /* \"foundry/src/MultiSigWallet.sol\":11295:11304  msg.value */\n      callvalue\n        /* \"foundry/src/MultiSigWallet.sol\":11295:11308  msg.value > 0 */\n      gt\n        /* \"foundry/src/MultiSigWallet.sol\":11291:11372  if (msg.value > 0) {... */\n      iszero\n      tag_45\n      jumpi\n        /* \"foundry/src/MultiSigWallet.sol\":11338:11348  msg.sender */\n      caller\n        /* \"foundry/src/MultiSigWallet.sol\":11330:11360  Deposit(msg.sender, msg.value) */\n      0xffffffffffffffffffffffffffffffffffffffff\n      and\n      0xe1fffcc4923d04b559f4d29a8bfc6cda04eb5b0d3c460751c2402c5c5cc9109c\n        /* \"foundry/src/MultiSigWallet.sol\":11350:11359  msg.value */\n      callvalue\n        /* \"foundry/src/MultiSigWallet.sol\":11330:11360  Deposit(msg.sender, msg.value) */\n      mload(0x40)\n      tag_46\n      swap2\n      swap1\n      tag_47\n      jump\t// in\n    tag_46:\n      mload(0x40)\n      dup1\n      swap2\n      sub\n      swap1\n      log2\n        /* \"foundry/src/MultiSigWallet.sol\":11291:11372  if (msg.value > 0) {... */\n    tag_45:\n        /* \"foundry/src/MultiSigWallet.sol\":61:11382  contract MultiSigWallet {... */\n      stop\n    tag_2:\n      revert(0x00, 0x00)\n        /* \"foundry/src/MultiSigWallet.sol\":116:139  address[] public owners */\n    tag_3:\n      callvalue\n      dup1\n      iszero\n      tag_48\n      jumpi\n      revert(0x00, 0x00)\n    tag_48:\n      pop\n      tag_49\n      0x04\n      dup1\n      calldatasize\n      sub\n      dup2\n      add\n      swap1\n      tag_50\n      swap2\n      swap1\n      tag_51\n      jump\t// in\n    tag_50:\n      tag_52\n      jump\t// in\n    tag_49:\n      mload(0x40)\n      tag_53\n      swap2\n      swap1\n      tag_54\n      jump\t// in\n    tag_53:\n      mload(0x40)\n      dup1\n      swap2\n      sub\n      swap1\n      return\n        /* \"foundry/src/MultiSigWallet.sol\":7862:8013  function cancelRecovery() public onlyWallet {... */\n    tag_4:\n      callvalue\n      dup1\n      iszero\n      tag_55\n      jumpi\n      revert(0x00, 0x00)\n    tag_55:\n      pop\n      tag_56\n      tag_57\n      jump\t// in\n    tag_56:\n      stop\n        /* \"foundry/src/MultiSigWallet.sol\":8430:8892  function removeOwner(address owner) public onlyWallet ownerExists(owner) {... */\n    tag_5:\n      callvalue\n      dup1\n      iszero\n      tag_58\n      jumpi\n      revert(0x00, 0x00)\n    tag_58:\n      pop\n      tag_59\n      0x04\n      dup1\n      calldatasize\n      sub\n      dup2\n      add\n      swap1\n      tag_60\n      swap2\n      swap1\n      tag_61\n      jump\t// in\n    tag_60:\n      tag_62\n      jump\t// in\n    tag_59:\n      stop\n        /* \"foundry/src/MultiSigWallet.sol\":7217:7850  function executeRecovery() public {... */\n    tag_6:\n      callvalue\n      dup1\n      iszero\n      tag_63\n      jumpi\n      revert(0x00, 0x00)\n    tag_63:\n      pop\n      tag_64\n      tag_65\n      jump\t// in\n    tag_64:\n      stop\n        /* \"foundry/src/MultiSigWallet.sol\":6157:6503  function revokeConfirmation(uint256 transactionId) ... */\n    tag_7:\n      callvalue\n      dup1\n      iszero\n      tag_66\n      jumpi\n      revert(0x00, 0x00)\n    tag_66:\n      pop\n      tag_67\n      0x04\n      dup1\n      calldatasize\n      sub\n      dup2\n      add\n      swap1\n      tag_68\n      swap2\n      swap1\n      tag_51\n      jump\t// in\n    tag_68:\n      tag_69\n      jump\t// in\n    tag_67:\n      stop\n        /* \"foundry/src/MultiSigWallet.sol\":706:752  mapping(bytes32 => bool) public executedHashes */\n    tag_8:\n      callvalue\n      dup1\n      iszero\n      tag_70\n      jumpi\n      revert(0x00, 0x00)\n    tag_70:\n      pop\n      tag_71\n      0x04\n      dup1\n      calldatasize\n      sub\n      dup2\n      add\n      swap1\n      tag_72\n      swap2\n      swap1\n      tag_73\n      jump\t// in\n    tag_72:\n      tag_74\n      jump\t// in\n    tag_71:\n      mload(0x40)\n      tag_75\n      swap2\n      swap1\n      tag_76\n      jump\t// in\n    tag_75:\n      mload(0x40)\n      dup1\n      swap2\n      sub\n      swap1\n      return\n        /* \"foundry/src/MultiSigWallet.sol\":146:185  mapping(address => bool) public isOwner */\n    tag_9:\n      callvalue\n      dup1\n      iszero\n      tag_77\n      jumpi\n      revert(0x00, 0x00)\n    tag_77:\n      pop\n      tag_78\n      0x04\n      dup1\n      calldatasize\n      sub\n      dup2\n      add\n      swap1\n      tag_79\n      swap2\n      swap1\n      tag_61\n      jump\t// in\n    tag_79:\n      tag_80\n      jump\t// in\n    tag_78:\n      mload(0x40)\n      tag_81\n      swap2\n      swap1\n      tag_76\n      jump\t// in\n    tag_81:\n      mload(0x40)\n      dup1\n      swap2\n      sub\n      swap1\n      return\n        /* \"foundry/src/MultiSigWallet.sol\":578:643  mapping(uint256 => mapping(address => bool)) public confirmations */\n    tag_10:\n      callvalue\n      dup1\n      iszero\n      tag_82\n      jumpi\n      revert(0x00, 0x00)\n    tag_82:\n      pop\n      tag_83\n      0x04\n      dup1\n      calldatasize\n      sub\n      dup2\n      add\n      swap1\n      tag_84\n      swap2\n      swap1\n      tag_85\n      jump\t// in\n    tag_84:\n      tag_86\n      jump\t// in\n    tag_83:\n      mload(0x40)\n      tag_87\n      swap2\n      swap1\n      tag_76\n      jump\t// in\n    tag_87:\n      mload(0x40)\n      dup1\n      swap2\n      sub\n      swap1\n      return\n        /* \"foundry/src/MultiSigWallet.sol\":985:1014  bool public recoveryInitiated */\n    tag_11:\n      callvalue\n      dup1\n      iszero\n      tag_88\n      jumpi\n      revert(0x00, 0x00)\n    tag_88:\n      pop\n      tag_89\n      tag_90\n      jump\t// in\n    tag_89:\n      mload(0x40)\n      tag_91\n      swap2\n      swap1\n      tag_76\n      jump\t// in\n    tag_91:\n      mload(0x40)\n      dup1\n      swap2\n      sub\n      swap1\n      return\n        /* \"foundry/src/MultiSigWallet.sol\":951:978  uint256 public recoveryTime */\n    tag_12:\n      callvalue\n      dup1\n      iszero\n      tag_92\n      jumpi\n      revert(0x00, 0x00)\n    tag_92:\n      pop\n      tag_93\n      tag_94\n      jump\t// in\n    tag_93:\n      mload(0x40)\n      tag_95\n      swap2\n      swap1\n      tag_47\n      jump\t// in\n    tag_95:\n      mload(0x40)\n      dup1\n      swap2\n      sub\n      swap1\n      return\n        /* \"foundry/src/MultiSigWallet.sol\":260:285  uint256 public dailyLimit */\n    tag_13:\n      callvalue\n      dup1\n      iszero\n      tag_96\n      jumpi\n      revert(0x00, 0x00)\n    tag_96:\n      pop\n      tag_97\n      tag_98\n      jump\t// in\n    tag_97:\n      mload(0x40)\n      tag_99\n      swap2\n      swap1\n      tag_47\n      jump\t// in\n    tag_99:\n      mload(0x40)\n      dup1\n      swap2\n      sub\n      swap1\n      return\n        /* \"foundry/src/MultiSigWallet.sol\":650:699  mapping(address => uint256) public executionNonce */\n    tag_14:\n      callvalue\n      dup1\n      iszero\n      tag_100\n      jumpi\n      revert(0x00, 0x00)\n    tag_100:\n      pop\n      tag_101\n      0x04\n      dup1\n      calldatasize\n      sub\n      dup2\n      add\n      swap1\n      tag_102\n      swap2\n      swap1\n      tag_61\n      jump\t// in\n    tag_102:\n      tag_103\n      jump\t// in\n    tag_101:\n      mload(0x40)\n      tag_104\n      swap2\n      swap1\n      tag_47\n      jump\t// in\n    tag_104:\n      mload(0x40)\n      dup1\n      swap2\n      sub\n      swap1\n      return\n        /* \"foundry/src/MultiSigWallet.sol\":324:346  uint256 public lastDay */\n    tag_15:\n      callvalue\n      dup1\n      iszero\n      tag_105\n      jumpi\n      revert(0x00, 0x00)\n    tag_105:\n      pop\n      tag_106\n      tag_107\n      jump\t// in\n    tag_106:\n      mload(0x40)\n      tag_108\n      swap2\n      swap1\n      tag_47\n      jump\t// in\n    tag_108:\n      mload(0x40)\n      dup1\n      swap2\n      sub\n      swap1\n      return\n        /* \"foundry/src/MultiSigWallet.sol\":8059:8418  function addOwner(address owner) ... */\n    tag_16:\n      callvalue\n      dup1\n      iszero\n      tag_109\n      jumpi\n      revert(0x00, 0x00)\n    tag_109:\n      pop\n      tag_110\n      0x04\n      dup1\n      calldatasize\n      sub\n      dup2\n      add\n      swap1\n      tag_111\n      swap2\n      swap1\n      tag_61\n      jump\t// in\n    tag_111:\n      tag_112\n      jump\t// in\n    tag_110:\n      stop\n        /* \"foundry/src/MultiSigWallet.sol\":914:944  address public recoveryAddress */\n    tag_17:\n      callvalue\n      dup1\n      iszero\n      tag_113\n      jumpi\n      revert(0x00, 0x00)\n    tag_113:\n      pop\n      tag_114\n      tag_115\n      jump\t// in\n    tag_114:\n      mload(0x40)\n      tag_116\n      swap2\n      swap1\n      tag_54\n      jump\t// in\n    tag_116:\n      mload(0x40)\n      dup1\n      swap2\n      sub\n      swap1\n      return\n        /* \"foundry/src/MultiSigWallet.sol\":9425:9575  function isConfirmed(uint256 transactionId) public view returns (bool) {... */\n    tag_18:\n      callvalue\n      dup1\n      iszero\n      tag_117\n      jumpi\n      revert(0x00, 0x00)\n    tag_117:\n      pop\n      tag_118\n      0x04\n      dup1\n      calldatasize\n      sub\n      dup2\n      add\n      swap1\n      tag_119\n      swap2\n      swap1\n      tag_51\n      jump\t// in\n    tag_119:\n      tag_120\n      jump\t// in\n    tag_118:\n      mload(0x40)\n      tag_121\n      swap2\n      swap1\n      tag_76\n      jump\t// in\n    tag_121:\n      mload(0x40)\n      dup1\n      swap2\n      sub\n      swap1\n      return\n        /* \"foundry/src/MultiSigWallet.sol\":6919:7205  function initiateRecovery() public onlyWallet {... */\n    tag_19:\n      callvalue\n      dup1\n      iszero\n      tag_122\n      jumpi\n      revert(0x00, 0x00)\n    tag_122:\n      pop\n      tag_123\n      tag_124\n      jump\t// in\n    tag_123:\n      stop\n        /* \"foundry/src/MultiSigWallet.sol\":839:877  uint256 public executionDelay = 2 days */\n    tag_20:\n      callvalue\n      dup1\n      iszero\n      tag_125\n      jumpi\n      revert(0x00, 0x00)\n    tag_125:\n      pop\n      tag_126\n      tag_127\n      jump\t// in\n    tag_126:\n      mload(0x40)\n      tag_128\n      swap2\n      swap1\n      tag_47\n      jump\t// in\n    tag_128:\n      mload(0x40)\n      dup1\n      swap2\n      sub\n      swap1\n      return\n        /* \"foundry/src/MultiSigWallet.sol\":9263:9413  function getConfirmationCount(uint256 transactionId) public view returns (uint256) {... */\n    tag_21:\n      callvalue\n      dup1\n      iszero\n      tag_129\n      jumpi\n      revert(0x00, 0x00)\n    tag_129:\n      pop\n      tag_130\n      0x04\n      dup1\n      calldatasize\n      sub\n      dup2\n      add\n      swap1\n      tag_131\n      swap2\n      swap1\n      tag_51\n      jump\t// in\n    tag_131:\n      tag_132\n      jump\t// in\n    tag_130:\n      mload(0x40)\n      tag_133\n      swap2\n      swap1\n      tag_47\n      jump\t// in\n    tag_133:\n      mload(0x40)\n      dup1\n      swap2\n      sub\n      swap1\n      return\n        /* \"foundry/src/MultiSigWallet.sol\":9110:9220  function changeExecutionDelay(uint256 newDelay) public onlyWallet {... */\n    tag_22:\n      callvalue\n      dup1\n      iszero\n      tag_134\n      jumpi\n      revert(0x00, 0x00)\n    tag_134:\n      pop\n      tag_135\n      0x04\n      dup1\n      calldatasize\n      sub\n      dup2\n      add\n      swap1\n      tag_136\n      swap2\n      swap1\n      tag_51\n      jump\t// in\n    tag_136:\n      tag_137\n      jump\t// in\n    tag_135:\n      stop\n        /* \"foundry/src/MultiSigWallet.sol\":520:571  mapping(uint256 => Transaction) public transactions */\n    tag_23:\n      callvalue\n      dup1\n      iszero\n      tag_138\n      jumpi\n      revert(0x00, 0x00)\n    tag_138:\n      pop\n      tag_139\n      0x04\n      dup1\n      calldatasize\n      sub\n      dup2\n      add\n      swap1\n      tag_140\n      swap2\n      swap1\n      tag_51\n      jump\t// in\n    tag_140:\n      tag_141\n      jump\t// in\n    tag_139:\n      mload(0x40)\n      tag_142\n      swap6\n      swap5\n      swap4\n      swap3\n      swap2\n      swap1\n      tag_143\n      jump\t// in\n    tag_142:\n      mload(0x40)\n      dup1\n      swap2\n      sub\n      swap1\n      return\n        /* \"foundry/src/MultiSigWallet.sol\":9587:9679  function getOwners() public view returns (address[] memory) {... */\n    tag_24:\n      callvalue\n      dup1\n      iszero\n      tag_144\n      jumpi\n      revert(0x00, 0x00)\n    tag_144:\n      pop\n      tag_145\n      tag_146\n      jump\t// in\n    tag_145:\n      mload(0x40)\n      tag_147\n      swap2\n      swap1\n      tag_148\n      jump\t// in\n    tag_147:\n      mload(0x40)\n      dup1\n      swap2\n      sub\n      swap1\n      return\n        /* \"foundry/src/MultiSigWallet.sol\":10366:11203  function getTransactionIds(... */\n    tag_25:\n      callvalue\n      dup1\n      iszero\n      tag_149\n      jumpi\n      revert(0x00, 0x00)\n    tag_149:\n      pop\n      tag_150\n      0x04\n      dup1\n      calldatasize\n      sub\n      dup2\n      add\n      swap1\n      tag_151\n      swap2\n      swap1\n      tag_152\n      jump\t// in\n    tag_151:\n      tag_153\n      jump\t// in\n    tag_150:\n      mload(0x40)\n      tag_154\n      swap2\n      swap1\n      tag_155\n      jump\t// in\n    tag_154:\n      mload(0x40)\n      dup1\n      swap2\n      sub\n      swap1\n      return\n        /* \"foundry/src/MultiSigWallet.sol\":6776:6875  function setDailyLimit(uint256 newLimit) public onlyWallet {... */\n    tag_26:\n      callvalue\n      dup1\n      iszero\n      tag_156\n      jumpi\n      revert(0x00, 0x00)\n    tag_156:\n      pop\n      tag_157\n      0x04\n      dup1\n      calldatasize\n      sub\n      dup2\n      add\n      swap1\n      tag_158\n      swap2\n      swap1\n      tag_51\n      jump\t// in\n    tag_158:\n      tag_159\n      jump\t// in\n    tag_157:\n      stop\n        /* \"foundry/src/MultiSigWallet.sol\":9691:10354  function getConfirmations(uint256 transactionId) public view returns (address[] memory) {... */\n    tag_27:\n      callvalue\n      dup1\n      iszero\n      tag_160\n      jumpi\n      revert(0x00, 0x00)\n    tag_160:\n      pop\n      tag_161\n      0x04\n      dup1\n      calldatasize\n      sub\n      dup2\n      add\n      swap1\n      tag_162\n      swap2\n      swap1\n      tag_51\n      jump\t// in\n    tag_162:\n      tag_163\n      jump\t// in\n    tag_161:\n      mload(0x40)\n      tag_164\n      swap2\n      swap1\n      tag_148\n      jump\t// in\n    tag_164:\n      mload(0x40)\n      dup1\n      swap2\n      sub\n      swap1\n      return\n        /* \"foundry/src/MultiSigWallet.sol\":222:253  uint256 public transactionCount */\n    tag_28:\n      callvalue\n      dup1\n      iszero\n      tag_165\n      jumpi\n      revert(0x00, 0x00)\n    tag_165:\n      pop\n      tag_166\n      tag_167\n      jump\t// in\n    tag_166:\n      mload(0x40)\n      tag_168\n      swap2\n      swap1\n      tag_47\n      jump\t// in\n    tag_168:\n      mload(0x40)\n      dup1\n      swap2\n      sub\n      swap1\n      return\n        /* \"foundry/src/MultiSigWallet.sol\":8904:9098  function changeRequirement(uint256 newRequired) public onlyWallet {... */\n    tag_29:\n      callvalue\n      dup1\n      iszero\n      tag_169\n      jumpi\n      revert(0x00, 0x00)\n    tag_169:\n      pop\n      tag_170\n      0x04\n      dup1\n      calldatasize\n      sub\n      dup2\n      add\n      swap1\n      tag_171\n      swap2\n      swap1\n      tag_51\n      jump\t// in\n    tag_171:\n      tag_172\n      jump\t// in\n    tag_170:\n      stop\n        /* \"foundry/src/MultiSigWallet.sol\":4685:5098  function confirmTransaction(uint256 transactionId) ... */\n    tag_30:\n      callvalue\n      dup1\n      iszero\n      tag_173\n      jumpi\n      revert(0x00, 0x00)\n    tag_173:\n      pop\n      tag_174\n      0x04\n      dup1\n      calldatasize\n      sub\n      dup2\n      add\n      swap1\n      tag_175\n      swap2\n      swap1\n      tag_51\n      jump\t// in\n    tag_175:\n      tag_176\n      jump\t// in\n    tag_174:\n      stop\n        /* \"foundry/src/MultiSigWallet.sol\":3998:4673  function submitTransaction(... */\n    tag_31:\n      callvalue\n      dup1\n      iszero\n      tag_177\n      jumpi\n      revert(0x00, 0x00)\n    tag_177:\n      pop\n      tag_178\n      0x04\n      dup1\n      calldatasize\n      sub\n      dup2\n      add\n      swap1\n      tag_179\n      swap2\n      swap1\n      tag_180\n      jump\t// in\n    tag_179:\n      tag_181\n      jump\t// in\n    tag_178:\n      mload(0x40)\n      tag_182\n      swap2\n      swap1\n      tag_47\n      jump\t// in\n    tag_182:\n      mload(0x40)\n      dup1\n      swap2\n      sub\n      swap1\n      return\n        /* \"foundry/src/MultiSigWallet.sol\":784:832  mapping(uint256 => uint256) public executionTime */\n    tag_32:\n      callvalue\n      dup1\n      iszero\n      tag_183\n      jumpi\n      revert(0x00, 0x00)\n    tag_183:\n      pop\n      tag_184\n      0x04\n      dup1\n      calldatasize\n      sub\n      dup2\n      add\n      swap1\n      tag_185\n      swap2\n      swap1\n      tag_51\n      jump\t// in\n    tag_185:\n      tag_186\n      jump\t// in\n    tag_184:\n      mload(0x40)\n      tag_187\n      swap2\n      swap1\n      tag_47\n      jump\t// in\n    tag_187:\n      mload(0x40)\n      dup1\n      swap2\n      sub\n      swap1\n      return\n        /* \"foundry/src/MultiSigWallet.sol\":192:215  uint256 public required */\n    tag_33:\n      callvalue\n      dup1\n      iszero\n      tag_188\n      jumpi\n      revert(0x00, 0x00)\n    tag_188:\n      pop\n      tag_189\n      tag_190\n      jump\t// in\n    tag_189:\n      mload(0x40)\n      tag_191\n      swap2\n      swap1\n      tag_47\n      jump\t// in\n    tag_191:\n      mload(0x40)\n      dup1\n      swap2\n      sub\n      swap1\n      return\n        /* \"foundry/src/MultiSigWallet.sol\":5110:6145  function executeTransaction(uint256 transactionId) ... */\n    tag_34:\n      callvalue\n      dup1\n      iszero\n      tag_192\n      jumpi\n      revert(0x00, 0x00)\n    tag_192:\n      pop\n      tag_193\n      0x04\n      dup1\n      calldatasize\n      sub\n      dup2\n      add\n      swap1\n      tag_194\n      swap2\n      swap1\n      tag_51\n      jump\t// in\n    tag_194:\n      tag_195\n      jump\t// in\n    tag_193:\n      stop\n        /* \"foundry/src/MultiSigWallet.sol\":292:317  uint256 public spentToday */\n    tag_35:\n      callvalue\n      dup1\n      iszero\n      tag_196\n      jumpi\n      revert(0x00, 0x00)\n    tag_196:\n      pop\n      tag_197\n      tag_198\n      jump\t// in\n    tag_197:\n      mload(0x40)\n      tag_199\n      swap2\n      swap1\n      tag_47\n      jump\t// in\n    tag_199:\n      mload(0x40)\n      dup1\n      swap2\n      sub\n      swap1\n      return\n        /* \"foundry/src/MultiSigWallet.sol\":116:139  address[] public owners */\n    tag_52:\n      0x00\n      dup2\n      dup2\n      sload\n      dup2\n      lt\n      tag_200\n      jumpi\n      0x00\n      dup1\n      revert\n    tag_200:\n      swap1\n      0x00\n      mstore\n      keccak256(0x00, 0x20)\n      add\n      0x00\n      swap2\n      pop\n      sload\n      swap1\n      0x0100\n      exp\n      swap1\n      div\n      0xffffffffffffffffffffffffffffffffffffffff\n      and\n      dup2\n      jump\t// out\n        /* \"foundry/src/MultiSigWallet.sol\":7862:8013  function cancelRecovery() public onlyWallet {... */\n    tag_57:\n        /* \"foundry/src/MultiSigWallet.sol\":1968:1975  isOwner */\n      0x01\n        /* \"foundry/src/MultiSigWallet.sol\":1968:1987  isOwner[msg.sender] */\n      0x00\n        /* \"foundry/src/MultiSigWallet.sol\":1976:1986  msg.sender */\n      caller\n        /* \"foundry/src/MultiSigWallet.sol\":1968:1987  isOwner[msg.sender] */\n      0xffffffffffffffffffffffffffffffffffffffff\n      and\n      0xffffffffffffffffffffffffffffffffffffffff\n      and\n      dup2\n      mstore\n      0x20\n      add\n      swap1\n      dup2\n      mstore\n      0x20\n      add\n      0x00\n      keccak256\n      0x00\n      swap1\n      sload\n      swap1\n      0x0100\n      exp\n      swap1\n      div\n      0xff\n      and\n        /* \"foundry/src/MultiSigWallet.sol\":1963:2006  if (!isOwner[msg.sender]) revert NotOwner() */\n      tag_203\n      jumpi\n        /* \"foundry/src/MultiSigWallet.sol\":1996:2006  NotOwner() */\n      mload(0x40)\n      0x30cd747100000000000000000000000000000000000000000000000000000000\n      dup2\n      mstore\n      0x04\n      add\n      mload(0x40)\n      dup1\n      swap2\n      sub\n      swap1\n      revert\n        /* \"foundry/src/MultiSigWallet.sol\":1963:2006  if (!isOwner[msg.sender]) revert NotOwner() */\n    tag_203:\n        /* \"foundry/src/MultiSigWallet.sol\":7925:7942  recoveryInitiated */\n      0x0f\n      0x00\n      swap1\n      sload\n      swap1\n      0x0100\n      exp\n      swap1\n      div\n      0xff\n      and\n        /* \"foundry/src/MultiSigWallet.sol\":7917:7969  require(recoveryInitiated, \"Recovery not initiated\") */\n      tag_205\n      jumpi\n      mload(0x40)\n      0x08c379a000000000000000000000000000000000000000000000000000000000\n      dup2\n      mstore\n      0x04\n      add\n      tag_206\n      swap1\n      tag_207\n      jump\t// in\n    tag_206:\n      mload(0x40)\n      dup1\n      swap2\n      sub\n      swap1\n      revert\n    tag_205:\n        /* \"foundry/src/MultiSigWallet.sol\":8000:8005  false */\n      0x00\n        /* \"foundry/src/MultiSigWallet.sol\":7980:7997  recoveryInitiated */\n      0x0f\n      0x00\n        /* \"foundry/src/MultiSigWallet.sol\":7980:8005  recoveryInitiated = false */\n      0x0100\n      exp\n      dup2\n      sload\n      dup2\n      0xff\n      mul\n      not\n      and\n      swap1\n      dup4\n      iszero\n      iszero\n      mul\n      or\n      swap1\n      sstore\n      pop\n        /* \"foundry/src/MultiSigWallet.sol\":7862:8013  function cancelRecovery() public onlyWallet {... */\n      jump\t// out\n        /* \"foundry/src/MultiSigWallet.sol\":8430:8892  function removeOwner(address owner) public onlyWallet ownerExists(owner) {... */\n    tag_62:\n        /* \"foundry/src/MultiSigWallet.sol\":1968:1975  isOwner */\n      0x01\n        /* \"foundry/src/MultiSigWallet.sol\":1968:1987  isOwner[msg.sender] */\n      0x00\n        /* \"foundry/src/MultiSigWallet.sol\":1976:1986  msg.sender */\n      caller\n        /* \"foundry/src/MultiSigWallet.sol\":1968:1987  isOwner[msg.sender] */\n      0xffffffffffffffffffffffffffffffffffffffff\n      and\n      0xffffffffffffffffffffffffffffffffffffffff\n      and\n      dup2\n      mstore\n      0x20\n      add\n      swap1\n      dup2\n      mstore\n      0x20\n      add\n      0x00\n      keccak256\n      0x00\n      swap1\n      sload\n      swap1\n      0x0100\n      exp\n      swap1\n      div\n      0xff\n      and\n        /* \"foundry/src/MultiSigWallet.sol\":1963:2006  if (!isOwner[msg.sender]) revert NotOwner() */\n      tag_209\n      jumpi\n        /* \"foundry/src/MultiSigWallet.sol\":1996:2006  NotOwner() */\n      mload(0x40)\n      0x30cd747100000000000000000000000000000000000000000000000000000000\n      dup2\n      mstore\n      0x04\n      add\n      mload(0x40)\n      dup1\n      swap2\n      sub\n      swap1\n      revert\n        /* \"foundry/src/MultiSigWallet.sol\":1963:2006  if (!isOwner[msg.sender]) revert NotOwner() */\n    tag_209:\n        /* \"foundry/src/MultiSigWallet.sol\":8496:8501  owner */\n      dup1\n        /* \"foundry/src/MultiSigWallet.sol\":2217:2224  isOwner */\n      0x01\n        /* \"foundry/src/MultiSigWallet.sol\":2217:2231  isOwner[owner] */\n      0x00\n        /* \"foundry/src/MultiSigWallet.sol\":2225:2230  owner */\n      dup3\n        /* \"foundry/src/MultiSigWallet.sol\":2217:2231  isOwner[owner] */\n      0xffffffffffffffffffffffffffffffffffffffff\n      and\n      0xffffffffffffffffffffffffffffffffffffffff\n      and\n      dup2\n      mstore\n      0x20\n      add\n      swap1\n      dup2\n      mstore\n      0x20\n      add\n      0x00\n      keccak256\n      0x00\n      swap1\n      sload\n      swap1\n      0x0100\n      exp\n      swap1\n      div\n      0xff\n      and\n        /* \"foundry/src/MultiSigWallet.sol\":2212:2250  if (!isOwner[owner]) revert NotOwner() */\n      tag_211\n      jumpi\n        /* \"foundry/src/MultiSigWallet.sol\":2240:2250  NotOwner() */\n      mload(0x40)\n      0x30cd747100000000000000000000000000000000000000000000000000000000\n      dup2\n      mstore\n      0x04\n      add\n      mload(0x40)\n      dup1\n      swap2\n      sub\n      swap1\n      revert\n        /* \"foundry/src/MultiSigWallet.sol\":2212:2250  if (!isOwner[owner]) revert NotOwner() */\n    tag_211:\n        /* \"foundry/src/MultiSigWallet.sol\":8531:8536  false */\n      0x00\n        /* \"foundry/src/MultiSigWallet.sol\":8514:8521  isOwner */\n      0x01\n        /* \"foundry/src/MultiSigWallet.sol\":8514:8528  isOwner[owner] */\n      0x00\n        /* \"foundry/src/MultiSigWallet.sol\":8522:8527  owner */\n      dup5\n        /* \"foundry/src/MultiSigWallet.sol\":8514:8528  isOwner[owner] */\n      0xffffffffffffffffffffffffffffffffffffffff\n      and\n      0xffffffffffffffffffffffffffffffffffffffff\n      and\n      dup2\n      mstore\n      0x20\n      add\n      swap1\n      dup2\n      mstore\n      0x20\n      add\n      0x00\n      keccak256\n      0x00\n        /* \"foundry/src/MultiSigWallet.sol\":8514:8536  isOwner[owner] = false */\n      0x0100\n      exp\n      dup2\n      sload\n      dup2\n      0xff\n      mul\n      not\n      and\n      swap1\n      dup4\n      iszero\n      iszero\n      mul\n      or\n      swap1\n      sstore\n      pop\n        /* \"foundry/src/MultiSigWallet.sol\":8562:8571  uint256 i */\n      0x00\n        /* \"foundry/src/MultiSigWallet.sol\":8574:8575  0 */\n      0x00\n        /* \"foundry/src/MultiSigWallet.sol\":8562:8575  uint256 i = 0 */\n      swap1\n      pop\n        /* \"foundry/src/MultiSigWallet.sol\":8557:8751  for (uint256 i = 0; i < owners.length - 1; i++) {... */\n    tag_213:\n        /* \"foundry/src/MultiSigWallet.sol\":8597:8598  1 */\n      0x01\n        /* \"foundry/src/MultiSigWallet.sol\":8581:8587  owners */\n      0x00\n        /* \"foundry/src/MultiSigWallet.sol\":8581:8594  owners.length */\n      dup1\n      sload\n      swap1\n      pop\n        /* \"foundry/src/MultiSigWallet.sol\":8581:8598  owners.length - 1 */\n      tag_216\n      swap2\n      swap1\n      tag_217\n      jump\t// in\n    tag_216:\n        /* \"foundry/src/MultiSigWallet.sol\":8577:8578  i */\n      dup2\n        /* \"foundry/src/MultiSigWallet.sol\":8577:8598  i < owners.length - 1 */\n      lt\n        /* \"foundry/src/MultiSigWallet.sol\":8557:8751  for (uint256 i = 0; i < owners.length - 1; i++) {... */\n      iszero\n      tag_214\n      jumpi\n        /* \"foundry/src/MultiSigWallet.sol\":8637:8642  owner */\n      dup3\n        /* \"foundry/src/MultiSigWallet.sol\":8624:8642  owners[i] == owner */\n      0xffffffffffffffffffffffffffffffffffffffff\n      and\n        /* \"foundry/src/MultiSigWallet.sol\":8624:8630  owners */\n      0x00\n        /* \"foundry/src/MultiSigWallet.sol\":8631:8632  i */\n      dup3\n        /* \"foundry/src/MultiSigWallet.sol\":8624:8633  owners[i] */\n      dup2\n      sload\n      dup2\n      lt\n      tag_218\n      jumpi\n      tag_219\n      tag_220\n      jump\t// in\n    tag_219:\n    tag_218:\n      swap1\n      0x00\n      mstore\n      keccak256(0x00, 0x20)\n      add\n      0x00\n      swap1\n      sload\n      swap1\n      0x0100\n      exp\n      swap1\n      div\n      0xffffffffffffffffffffffffffffffffffffffff\n      and\n        /* \"foundry/src/MultiSigWallet.sol\":8624:8642  owners[i] == owner */\n      0xffffffffffffffffffffffffffffffffffffffff\n      and\n      sub\n        /* \"foundry/src/MultiSigWallet.sol\":8620:8740  if (owners[i] == owner) {... */\n      tag_222\n      jumpi\n        /* \"foundry/src/MultiSigWallet.sol\":8675:8681  owners */\n      0x00\n        /* \"foundry/src/MultiSigWallet.sol\":8698:8699  1 */\n      0x01\n        /* \"foundry/src/MultiSigWallet.sol\":8682:8688  owners */\n      0x00\n        /* \"foundry/src/MultiSigWallet.sol\":8682:8695  owners.length */\n      dup1\n      sload\n      swap1\n      pop\n        /* \"foundry/src/MultiSigWallet.sol\":8682:8699  owners.length - 1 */\n      tag_223\n      swap2\n      swap1\n      tag_217\n      jump\t// in\n    tag_223:\n        /* \"foundry/src/MultiSigWallet.sol\":8675:8700  owners[owners.length - 1] */\n      dup2\n      sload\n      dup2\n      lt\n      tag_224\n      jumpi\n      tag_225\n      tag_220\n      jump\t// in\n    tag_225:\n    tag_224:\n      swap1\n      0x00\n      mstore\n      keccak256(0x00, 0x20)\n      add\n      0x00\n      swap1\n      sload\n      swap1\n      0x0100\n      exp\n      swap1\n      div\n      0xffffffffffffffffffffffffffffffffffffffff\n      and\n        /* \"foundry/src/MultiSigWallet.sol\":8663:8669  owners */\n      0x00\n        /* \"foundry/src/MultiSigWallet.sol\":8670:8671  i */\n      dup3\n        /* \"foundry/src/MultiSigWallet.sol\":8663:8672  owners[i] */\n      dup2\n      sload\n      dup2\n      lt\n      tag_227\n      jumpi\n      tag_228\n      tag_220\n      jump\t// in\n    tag_228:\n    tag_227:\n      swap1\n      0x00\n      mstore\n      keccak256(0x00, 0x20)\n      add\n      0x00\n        /* \"foundry/src/MultiSigWallet.sol\":8663:8700  owners[i] = owners[owners.length - 1] */\n      0x0100\n      exp\n      dup2\n      sload\n      dup2\n      0xffffffffffffffffffffffffffffffffffffffff\n      mul\n      not\n      and\n      swap1\n      dup4\n      0xffffffffffffffffffffffffffffffffffffffff\n      and\n      mul\n      or\n      swap1\n      sstore\n      pop\n        /* \"foundry/src/MultiSigWallet.sol\":8719:8724  break */\n      jump(tag_214)\n        /* \"foundry/src/MultiSigWallet.sol\":8620:8740  if (owners[i] == owner) {... */\n    tag_222:\n        /* \"foundry/src/MultiSigWallet.sol\":8600:8603  i++ */\n      dup1\n      dup1\n      0x01\n      add\n      swap2\n      pop\n      pop\n        /* \"foundry/src/MultiSigWallet.sol\":8557:8751  for (uint256 i = 0; i < owners.length - 1; i++) {... */\n      jump(tag_213)\n    tag_214:\n      pop\n        /* \"foundry/src/MultiSigWallet.sol\":8771:8777  owners */\n      0x00\n        /* \"foundry/src/MultiSigWallet.sol\":8771:8783  owners.pop() */\n      dup1\n      sload\n      dup1\n      tag_230\n      jumpi\n      tag_231\n      tag_232\n      jump\t// in\n    tag_231:\n    tag_230:\n      0x01\n      swap1\n      sub\n      dup2\n      dup2\n      swap1\n      0x00\n      mstore\n      keccak256(0x00, 0x20)\n      add\n      exp(0x0100, 0x00)\n      dup2\n      sload\n      swap1\n      0xffffffffffffffffffffffffffffffffffffffff\n      mul\n      not\n      and\n      swap1\n      sstore\n      swap1\n      sstore\n        /* \"foundry/src/MultiSigWallet.sol\":8819:8825  owners */\n      0x00\n        /* \"foundry/src/MultiSigWallet.sol\":8819:8832  owners.length */\n      dup1\n      sload\n      swap1\n      pop\n        /* \"foundry/src/MultiSigWallet.sol\":8808:8816  required */\n      sload(0x02)\n        /* \"foundry/src/MultiSigWallet.sol\":8808:8832  required > owners.length */\n      gt\n        /* \"foundry/src/MultiSigWallet.sol\":8804:8885  if (required > owners.length) {... */\n      iszero\n      tag_234\n      jumpi\n        /* \"foundry/src/MultiSigWallet.sol\":8860:8866  owners */\n      0x00\n        /* \"foundry/src/MultiSigWallet.sol\":8860:8873  owners.length */\n      dup1\n      sload\n      swap1\n      pop\n        /* \"foundry/src/MultiSigWallet.sol\":8849:8857  required */\n      0x02\n        /* \"foundry/src/MultiSigWallet.sol\":8849:8873  required = owners.length */\n      dup2\n      swap1\n      sstore\n      pop\n        /* \"foundry/src/MultiSigWallet.sol\":8804:8885  if (required > owners.length) {... */\n    tag_234:\n        /* \"foundry/src/MultiSigWallet.sol\":2017:2018  _ */\n      pop\n        /* \"foundry/src/MultiSigWallet.sol\":8430:8892  function removeOwner(address owner) public onlyWallet ownerExists(owner) {... */\n      pop\n      jump\t// out\n        /* \"foundry/src/MultiSigWallet.sol\":7217:7850  function executeRecovery() public {... */\n    tag_65:\n        /* \"foundry/src/MultiSigWallet.sol\":7270:7287  recoveryInitiated */\n      0x0f\n      0x00\n      swap1\n      sload\n      swap1\n      0x0100\n      exp\n      swap1\n      div\n      0xff\n      and\n        /* \"foundry/src/MultiSigWallet.sol\":7262:7314  require(recoveryInitiated, \"Recovery not initiated\") */\n      tag_236\n      jumpi\n      mload(0x40)\n      0x08c379a000000000000000000000000000000000000000000000000000000000\n      dup2\n      mstore\n      0x04\n      add\n      tag_237\n      swap1\n      tag_207\n      jump\t// in\n    tag_237:\n      mload(0x40)\n      dup1\n      swap2\n      sub\n      swap1\n      revert\n    tag_236:\n        /* \"foundry/src/MultiSigWallet.sol\":7352:7364  recoveryTime */\n      sload(0x0e)\n        /* \"foundry/src/MultiSigWallet.sol\":7333:7348  block.timestamp */\n      timestamp\n        /* \"foundry/src/MultiSigWallet.sol\":7333:7364  block.timestamp >= recoveryTime */\n      lt\n      iszero\n        /* \"foundry/src/MultiSigWallet.sol\":7325:7394  require(block.timestamp >= recoveryTime, \"Recovery time not reached\") */\n      tag_238\n      jumpi\n      mload(0x40)\n      0x08c379a000000000000000000000000000000000000000000000000000000000\n      dup2\n      mstore\n      0x04\n      add\n      tag_239\n      swap1\n      tag_240\n      jump\t// in\n    tag_239:\n      mload(0x40)\n      dup1\n      swap2\n      sub\n      swap1\n      revert\n    tag_238:\n        /* \"foundry/src/MultiSigWallet.sol\":7427:7442  recoveryAddress */\n      0x0d\n      0x00\n      swap1\n      sload\n      swap1\n      0x0100\n      exp\n      swap1\n      div\n      0xffffffffffffffffffffffffffffffffffffffff\n      and\n        /* \"foundry/src/MultiSigWallet.sol\":7413:7442  msg.sender == recoveryAddress */\n      0xffffffffffffffffffffffffffffffffffffffff\n      and\n        /* \"foundry/src/MultiSigWallet.sol\":7413:7423  msg.sender */\n      caller\n        /* \"foundry/src/MultiSigWallet.sol\":7413:7442  msg.sender == recoveryAddress */\n      0xffffffffffffffffffffffffffffffffffffffff\n      and\n      eq\n        /* \"foundry/src/MultiSigWallet.sol\":7405:7467  require(msg.sender == recoveryAddress, \"Not recovery address\") */\n      tag_241\n      jumpi\n      mload(0x40)\n      0x08c379a000000000000000000000000000000000000000000000000000000000\n      dup2\n      mstore\n      0x04\n      add\n      tag_242\n      swap1\n      tag_243\n      jump\t// in\n    tag_242:\n      mload(0x40)\n      dup1\n      swap2\n      sub\n      swap1\n      revert\n    tag_241:\n        /* \"foundry/src/MultiSigWallet.sol\":7544:7553  uint256 i */\n      0x00\n        /* \"foundry/src/MultiSigWallet.sol\":7556:7557  0 */\n      0x00\n        /* \"foundry/src/MultiSigWallet.sol\":7544:7557  uint256 i = 0 */\n      swap1\n      pop\n        /* \"foundry/src/MultiSigWallet.sol\":7539:7636  for (uint256 i = 0; i < owners.length; i++) {... */\n    tag_244:\n        /* \"foundry/src/MultiSigWallet.sol\":7563:7569  owners */\n      0x00\n        /* \"foundry/src/MultiSigWallet.sol\":7563:7576  owners.length */\n      dup1\n      sload\n      swap1\n      pop\n        /* \"foundry/src/MultiSigWallet.sol\":7559:7560  i */\n      dup2\n        /* \"foundry/src/MultiSigWallet.sol\":7559:7576  i < owners.length */\n      lt\n        /* \"foundry/src/MultiSigWallet.sol\":7539:7636  for (uint256 i = 0; i < owners.length; i++) {... */\n      iszero\n      tag_245\n      jumpi\n        /* \"foundry/src/MultiSigWallet.sol\":7619:7624  false */\n      0x00\n        /* \"foundry/src/MultiSigWallet.sol\":7598:7605  isOwner */\n      0x01\n        /* \"foundry/src/MultiSigWallet.sol\":7598:7616  isOwner[owners[i]] */\n      0x00\n        /* \"foundry/src/MultiSigWallet.sol\":7606:7612  owners */\n      0x00\n        /* \"foundry/src/MultiSigWallet.sol\":7613:7614  i */\n      dup5\n        /* \"foundry/src/MultiSigWallet.sol\":7606:7615  owners[i] */\n      dup2\n      sload\n      dup2\n      lt\n      tag_247\n      jumpi\n      tag_248\n      tag_220\n      jump\t// in\n    tag_248:\n    tag_247:\n      swap1\n      0x00\n      mstore\n      keccak256(0x00, 0x20)\n      add\n      0x00\n      swap1\n      sload\n      swap1\n      0x0100\n      exp\n      swap1\n      div\n      0xffffffffffffffffffffffffffffffffffffffff\n      and\n        /* \"foundry/src/MultiSigWallet.sol\":7598:7616  isOwner[owners[i]] */\n      0xffffffffffffffffffffffffffffffffffffffff\n      and\n      0xffffffffffffffffffffffffffffffffffffffff\n      and\n      dup2\n      mstore\n      0x20\n      add\n      swap1\n      dup2\n      mstore\n      0x20\n      add\n      0x00\n      keccak256\n      0x00\n        /* \"foundry/src/MultiSigWallet.sol\":7598:7624  isOwner[owners[i]] = false */\n      0x0100\n      exp\n      dup2\n      sload\n      dup2\n      0xff\n      mul\n      not\n      and\n      swap1\n      dup4\n      iszero\n      iszero\n      mul\n      or\n      swap1\n      sstore\n      pop\n        /* \"foundry/src/MultiSigWallet.sol\":7578:7581  i++ */\n      dup1\n      dup1\n      0x01\n      add\n      swap2\n      pop\n      pop\n        /* \"foundry/src/MultiSigWallet.sol\":7539:7636  for (uint256 i = 0; i < owners.length; i++) {... */\n      jump(tag_244)\n    tag_245:\n      pop\n        /* \"foundry/src/MultiSigWallet.sol\":7656:7682  owners = [recoveryAddress] */\n      mload(0x40)\n      dup1\n      0x20\n      add\n      0x40\n      mstore\n      dup1\n        /* \"foundry/src/MultiSigWallet.sol\":7666:7681  recoveryAddress */\n      0x0d\n      0x00\n      swap1\n      sload\n      swap1\n      0x0100\n      exp\n      swap1\n      div\n      0xffffffffffffffffffffffffffffffffffffffff\n      and\n        /* \"foundry/src/MultiSigWallet.sol\":7656:7682  owners = [recoveryAddress] */\n      0xffffffffffffffffffffffffffffffffffffffff\n      and\n      0xffffffffffffffffffffffffffffffffffffffff\n      and\n      dup2\n      mstore\n      pop\n        /* \"foundry/src/MultiSigWallet.sol\":7656:7662  owners */\n      0x00\n        /* \"foundry/src/MultiSigWallet.sol\":7656:7682  owners = [recoveryAddress] */\n      swap1\n      0x01\n      tag_250\n      swap3\n      swap2\n      swap1\n      tag_251\n      jump\t// in\n    tag_250:\n      pop\n        /* \"foundry/src/MultiSigWallet.sol\":7720:7724  true */\n      0x01\n        /* \"foundry/src/MultiSigWallet.sol\":7693:7700  isOwner */\n      dup1\n        /* \"foundry/src/MultiSigWallet.sol\":7693:7717  isOwner[recoveryAddress] */\n      0x00\n        /* \"foundry/src/MultiSigWallet.sol\":7701:7716  recoveryAddress */\n      0x0d\n      0x00\n      swap1\n      sload\n      swap1\n      0x0100\n      exp\n      swap1\n      div\n      0xffffffffffffffffffffffffffffffffffffffff\n      and\n        /* \"foundry/src/MultiSigWallet.sol\":7693:7717  isOwner[recoveryAddress] */\n      0xffffffffffffffffffffffffffffffffffffffff\n      and\n      0xffffffffffffffffffffffffffffffffffffffff\n      and\n      dup2\n      mstore\n      0x20\n      add\n      swap1\n      dup2\n      mstore\n      0x20\n      add\n      0x00\n      keccak256\n      0x00\n        /* \"foundry/src/MultiSigWallet.sol\":7693:7724  isOwner[recoveryAddress] = true */\n      0x0100\n      exp\n      dup2\n      sload\n      dup2\n      0xff\n      mul\n      not\n      and\n      swap1\n      dup4\n      iszero\n      iszero\n      mul\n      or\n      swap1\n      sstore\n      pop\n        /* \"foundry/src/MultiSigWallet.sol\":7746:7747  1 */\n      0x01\n        /* \"foundry/src/MultiSigWallet.sol\":7735:7743  required */\n      0x02\n        /* \"foundry/src/MultiSigWallet.sol\":7735:7747  required = 1 */\n      dup2\n      swap1\n      sstore\n      pop\n        /* \"foundry/src/MultiSigWallet.sol\":7778:7783  false */\n      0x00\n        /* \"foundry/src/MultiSigWallet.sol\":7758:7775  recoveryInitiated */\n      0x0f\n      0x00\n        /* \"foundry/src/MultiSigWallet.sol\":7758:7783  recoveryInitiated = false */\n      0x0100\n      exp\n      dup2\n      sload\n      dup2\n      0xff\n      mul\n      not\n      and\n      swap1\n      dup4\n      iszero\n      iszero\n      mul\n      or\n      swap1\n      sstore\n      pop\n        /* \"foundry/src/MultiSigWallet.sol\":7826:7841  recoveryAddress */\n      0x0d\n      0x00\n      swap1\n      sload\n      swap1\n      0x0100\n      exp\n      swap1\n      div\n      0xffffffffffffffffffffffffffffffffffffffff\n      and\n        /* \"foundry/src/MultiSigWallet.sol\":7809:7842  RecoveryExecuted(recoveryAddress) */\n      0xffffffffffffffffffffffffffffffffffffffff\n      and\n      0xfcd2de31341801b7fd80895c780aae50c1505fd674ff1b9b9764c56c633434d6\n      mload(0x40)\n      mload(0x40)\n      dup1\n      swap2\n      sub\n      swap1\n      log2\n        /* \"foundry/src/MultiSigWallet.sol\":7217:7850  function executeRecovery() public {... */\n      jump\t// out\n        /* \"foundry/src/MultiSigWallet.sol\":6157:6503  function revokeConfirmation(uint256 transactionId) ... */\n    tag_69:\n        /* \"foundry/src/MultiSigWallet.sol\":1968:1975  isOwner */\n      0x01\n        /* \"foundry/src/MultiSigWallet.sol\":1968:1987  isOwner[msg.sender] */\n      0x00\n        /* \"foundry/src/MultiSigWallet.sol\":1976:1986  msg.sender */\n      caller\n        /* \"foundry/src/MultiSigWallet.sol\":1968:1987  isOwner[msg.sender] */\n      0xffffffffffffffffffffffffffffffffffffffff\n      and\n      0xffffffffffffffffffffffffffffffffffffffff\n      and\n      dup2\n      mstore\n      0x20\n      add\n      swap1\n      dup2\n      mstore\n      0x20\n      add\n      0x00\n      keccak256\n      0x00\n      swap1\n      sload\n      swap1\n      0x0100\n      exp\n      swap1\n      div\n      0xff\n      and\n        /* \"foundry/src/MultiSigWallet.sol\":1963:2006  if (!isOwner[msg.sender]) revert NotOwner() */\n      tag_253\n      jumpi\n        /* \"foundry/src/MultiSigWallet.sol\":1996:2006  NotOwner() */\n      mload(0x40)\n      0x30cd747100000000000000000000000000000000000000000000000000000000\n      dup2\n      mstore\n      0x04\n      add\n      mload(0x40)\n      dup1\n      swap2\n      sub\n      swap1\n      revert\n        /* \"foundry/src/MultiSigWallet.sol\":1963:2006  if (!isOwner[msg.sender]) revert NotOwner() */\n    tag_253:\n        /* \"foundry/src/MultiSigWallet.sol\":6274:6287  transactionId */\n      dup1\n        /* \"foundry/src/MultiSigWallet.sol\":2389:2390  0 */\n      0x00\n        /* \"foundry/src/MultiSigWallet.sol\":2347:2391  transactions[transactionId].to == address(0) */\n      0xffffffffffffffffffffffffffffffffffffffff\n      and\n        /* \"foundry/src/MultiSigWallet.sol\":2347:2359  transactions */\n      0x07\n        /* \"foundry/src/MultiSigWallet.sol\":2347:2374  transactions[transactionId] */\n      0x00\n        /* \"foundry/src/MultiSigWallet.sol\":2360:2373  transactionId */\n      dup4\n        /* \"foundry/src/MultiSigWallet.sol\":2347:2374  transactions[transactionId] */\n      dup2\n      mstore\n      0x20\n      add\n      swap1\n      dup2\n      mstore\n      0x20\n      add\n      0x00\n      keccak256\n        /* \"foundry/src/MultiSigWallet.sol\":2347:2377  transactions[transactionId].to */\n      0x00\n      add\n      0x00\n      swap1\n      sload\n      swap1\n      0x0100\n      exp\n      swap1\n      div\n      0xffffffffffffffffffffffffffffffffffffffff\n      and\n        /* \"foundry/src/MultiSigWallet.sol\":2347:2391  transactions[transactionId].to == address(0) */\n      0xffffffffffffffffffffffffffffffffffffffff\n      and\n      sub\n        /* \"foundry/src/MultiSigWallet.sol\":2343:2429  if (transactions[transactionId].to == address(0)) revert(\"Transaction does not exist\") */\n      tag_255\n      jumpi\n        /* \"foundry/src/MultiSigWallet.sol\":2393:2429  revert(\"Transaction does not exist\") */\n      mload(0x40)\n      0x08c379a000000000000000000000000000000000000000000000000000000000\n      dup2\n      mstore\n      0x04\n      add\n      tag_256\n      swap1\n      tag_257\n      jump\t// in\n    tag_256:\n      mload(0x40)\n      dup1\n      swap2\n      sub\n      swap1\n      revert\n        /* \"foundry/src/MultiSigWallet.sol\":2343:2429  if (transactions[transactionId].to == address(0)) revert(\"Transaction does not exist\") */\n    tag_255:\n        /* \"foundry/src/MultiSigWallet.sol\":6311:6324  transactionId */\n      dup2\n        /* \"foundry/src/MultiSigWallet.sol\":2863:2875  transactions */\n      0x07\n        /* \"foundry/src/MultiSigWallet.sol\":2863:2890  transactions[transactionId] */\n      0x00\n        /* \"foundry/src/MultiSigWallet.sol\":2876:2889  transactionId */\n      dup3\n        /* \"foundry/src/MultiSigWallet.sol\":2863:2890  transactions[transactionId] */\n      dup2\n      mstore\n      0x20\n      add\n      swap1\n      dup2\n      mstore\n      0x20\n      add\n      0x00\n      keccak256\n        /* \"foundry/src/MultiSigWallet.sol\":2863:2899  transactions[transactionId].executed */\n      0x03\n      add\n      0x00\n      swap1\n      sload\n      swap1\n      0x0100\n      exp\n      swap1\n      div\n      0xff\n      and\n        /* \"foundry/src/MultiSigWallet.sol\":2859:2936  if (transactions[transactionId].executed) revert TransactionAlreadyExecuted() */\n      iszero\n      tag_259\n      jumpi\n        /* \"foundry/src/MultiSigWallet.sol\":2908:2936  TransactionAlreadyExecuted() */\n      mload(0x40)\n      0xdb5e659b00000000000000000000000000000000000000000000000000000000\n      dup2\n      mstore\n      0x04\n      add\n      mload(0x40)\n      dup1\n      swap2\n      sub\n      swap1\n      revert\n        /* \"foundry/src/MultiSigWallet.sol\":2859:2936  if (transactions[transactionId].executed) revert TransactionAlreadyExecuted() */\n    tag_259:\n        /* \"foundry/src/MultiSigWallet.sol\":6346:6359  transactionId */\n      dup3\n        /* \"foundry/src/MultiSigWallet.sol\":6361:6371  msg.sender */\n      caller\n        /* \"foundry/src/MultiSigWallet.sol\":2534:2547  confirmations */\n      0x08\n        /* \"foundry/src/MultiSigWallet.sol\":2534:2562  confirmations[transactionId] */\n      0x00\n        /* \"foundry/src/MultiSigWallet.sol\":2548:2561  transactionId */\n      dup4\n        /* \"foundry/src/MultiSigWallet.sol\":2534:2562  confirmations[transactionId] */\n      dup2\n      mstore\n      0x20\n      add\n      swap1\n      dup2\n      mstore\n      0x20\n      add\n      0x00\n      keccak256\n        /* \"foundry/src/MultiSigWallet.sol\":2534:2569  confirmations[transactionId][owner] */\n      0x00\n        /* \"foundry/src/MultiSigWallet.sol\":2563:2568  owner */\n      dup3\n        /* \"foundry/src/MultiSigWallet.sol\":2534:2569  confirmations[transactionId][owner] */\n      0xffffffffffffffffffffffffffffffffffffffff\n      and\n      0xffffffffffffffffffffffffffffffffffffffff\n      and\n      dup2\n      mstore\n      0x20\n      add\n      swap1\n      dup2\n      mstore\n      0x20\n      add\n      0x00\n      keccak256\n      0x00\n      swap1\n      sload\n      swap1\n      0x0100\n      exp\n      swap1\n      div\n      0xff\n      and\n        /* \"foundry/src/MultiSigWallet.sol\":2529:2603  if (!confirmations[transactionId][owner]) revert TransactionNotConfirmed() */\n      tag_261\n      jumpi\n        /* \"foundry/src/MultiSigWallet.sol\":2578:2603  TransactionNotConfirmed() */\n      mload(0x40)\n      0xfdac7c0000000000000000000000000000000000000000000000000000000000\n      dup2\n      mstore\n      0x04\n      add\n      mload(0x40)\n      dup1\n      swap2\n      sub\n      swap1\n      revert\n        /* \"foundry/src/MultiSigWallet.sol\":2529:2603  if (!confirmations[transactionId][owner]) revert TransactionNotConfirmed() */\n    tag_261:\n        /* \"foundry/src/MultiSigWallet.sol\":6433:6438  false */\n      0x00\n        /* \"foundry/src/MultiSigWallet.sol\":6390:6403  confirmations */\n      0x08\n        /* \"foundry/src/MultiSigWallet.sol\":6390:6418  confirmations[transactionId] */\n      0x00\n        /* \"foundry/src/MultiSigWallet.sol\":6404:6417  transactionId */\n      dup8\n        /* \"foundry/src/MultiSigWallet.sol\":6390:6418  confirmations[transactionId] */\n      dup2\n      mstore\n      0x20\n      add\n      swap1\n      dup2\n      mstore\n      0x20\n      add\n      0x00\n      keccak256\n        /* \"foundry/src/MultiSigWallet.sol\":6390:6430  confirmations[transactionId][msg.sender] */\n      0x00\n        /* \"foundry/src/MultiSigWallet.sol\":6419:6429  msg.sender */\n      caller\n        /* \"foundry/src/MultiSigWallet.sol\":6390:6430  confirmations[transactionId][msg.sender] */\n      0xffffffffffffffffffffffffffffffffffffffff\n      and\n      0xffffffffffffffffffffffffffffffffffffffff\n      and\n      dup2\n      mstore\n      0x20\n      add\n      swap1\n      dup2\n      mstore\n      0x20\n      add\n      0x00\n      keccak256\n      0x00\n        /* \"foundry/src/MultiSigWallet.sol\":6390:6438  confirmations[transactionId][msg.sender] = false */\n      0x0100\n      exp\n      dup2\n      sload\n      dup2\n      0xff\n      mul\n      not\n      and\n      swap1\n      dup4\n      iszero\n      iszero\n      mul\n      or\n      swap1\n      sstore\n      pop\n        /* \"foundry/src/MultiSigWallet.sol\":6494:6495  1 */\n      0x01\n        /* \"foundry/src/MultiSigWallet.sol\":6449:6461  transactions */\n      0x07\n        /* \"foundry/src/MultiSigWallet.sol\":6449:6476  transactions[transactionId] */\n      0x00\n        /* \"foundry/src/MultiSigWallet.sol\":6462:6475  transactionId */\n      dup8\n        /* \"foundry/src/MultiSigWallet.sol\":6449:6476  transactions[transactionId] */\n      dup2\n      mstore\n      0x20\n      add\n      swap1\n      dup2\n      mstore\n      0x20\n      add\n      0x00\n      keccak256\n        /* \"foundry/src/MultiSigWallet.sol\":6449:6490  transactions[transactionId].confirmations */\n      0x04\n      add\n      0x00\n        /* \"foundry/src/MultiSigWallet.sol\":6449:6495  transactions[transactionId].confirmations -= 1 */\n      dup3\n      dup3\n      sload\n      tag_263\n      swap2\n      swap1\n      tag_217\n      jump\t// in\n    tag_263:\n      swap3\n      pop\n      pop\n      dup2\n      swap1\n      sstore\n      pop\n        /* \"foundry/src/MultiSigWallet.sol\":2947:2948  _ */\n      pop\n      pop\n        /* \"foundry/src/MultiSigWallet.sol\":2440:2441  _ */\n      pop\n        /* \"foundry/src/MultiSigWallet.sol\":2017:2018  _ */\n      pop\n        /* \"foundry/src/MultiSigWallet.sol\":6157:6503  function revokeConfirmation(uint256 transactionId) ... */\n      pop\n      jump\t// out\n        /* \"foundry/src/MultiSigWallet.sol\":706:752  mapping(bytes32 => bool) public executedHashes */\n    tag_74:\n      mstore(0x20, 0x0a)\n      dup1\n      0x00\n      mstore\n      keccak256(0x00, 0x40)\n      0x00\n      swap2\n      pop\n      sload\n      swap1\n      0x0100\n      exp\n      swap1\n      div\n      0xff\n      and\n      dup2\n      jump\t// out\n        /* \"foundry/src/MultiSigWallet.sol\":146:185  mapping(address => bool) public isOwner */\n    tag_80:\n      mstore(0x20, 0x01)\n      dup1\n      0x00\n      mstore\n      keccak256(0x00, 0x40)\n      0x00\n      swap2\n      pop\n      sload\n      swap1\n      0x0100\n      exp\n      swap1\n      div\n      0xff\n      and\n      dup2\n      jump\t// out\n        /* \"foundry/src/MultiSigWallet.sol\":578:643  mapping(uint256 => mapping(address => bool)) public confirmations */\n    tag_86:\n      mstore(0x20, 0x08)\n      dup2\n      0x00\n      mstore\n      mstore(0x20, keccak256(0x00, 0x40))\n      dup1\n      0x00\n      mstore\n      keccak256(0x00, 0x40)\n      0x00\n      swap2\n      pop\n      swap2\n      pop\n      swap1\n      sload\n      swap1\n      0x0100\n      exp\n      swap1\n      div\n      0xff\n      and\n      dup2\n      jump\t// out\n        /* \"foundry/src/MultiSigWallet.sol\":985:1014  bool public recoveryInitiated */\n    tag_90:\n      0x0f\n      0x00\n      swap1\n      sload\n      swap1\n      0x0100\n      exp\n      swap1\n      div\n      0xff\n      and\n      dup2\n      jump\t// out\n        /* \"foundry/src/MultiSigWallet.sol\":951:978  uint256 public recoveryTime */\n    tag_94:\n      sload(0x0e)\n      dup2\n      jump\t// out\n        /* \"foundry/src/MultiSigWallet.sol\":260:285  uint256 public dailyLimit */\n    tag_98:\n      sload(0x04)\n      dup2\n      jump\t// out\n        /* \"foundry/src/MultiSigWallet.sol\":650:699  mapping(address => uint256) public executionNonce */\n    tag_103:\n      mstore(0x20, 0x09)\n      dup1\n      0x00\n      mstore\n      keccak256(0x00, 0x40)\n      0x00\n      swap2\n      pop\n      swap1\n      pop\n      sload\n      dup2\n      jump\t// out\n        /* \"foundry/src/MultiSigWallet.sol\":324:346  uint256 public lastDay */\n    tag_107:\n      sload(0x06)\n      dup2\n      jump\t// out\n        /* \"foundry/src/MultiSigWallet.sol\":8059:8418  function addOwner(address owner) ... */\n    tag_112:\n        /* \"foundry/src/MultiSigWallet.sol\":1968:1975  isOwner */\n      0x01\n        /* \"foundry/src/MultiSigWallet.sol\":1968:1987  isOwner[msg.sender] */\n      0x00\n        /* \"foundry/src/MultiSigWallet.sol\":1976:1986  msg.sender */\n      caller\n        /* \"foundry/src/MultiSigWallet.sol\":1968:1987  isOwner[msg.sender] */\n      0xffffffffffffffffffffffffffffffffffffffff\n      and\n      0xffffffffffffffffffffffffffffffffffffffff\n      and\n      dup2\n      mstore\n      0x20\n      add\n      swap1\n      dup2\n      mstore\n      0x20\n      add\n      0x00\n      keccak256\n      0x00\n      swap1\n      sload\n      swap1\n      0x0100\n      exp\n      swap1\n      div\n      0xff\n      and\n        /* \"foundry/src/MultiSigWallet.sol\":1963:2006  if (!isOwner[msg.sender]) revert NotOwner() */\n      tag_265\n      jumpi\n        /* \"foundry/src/MultiSigWallet.sol\":1996:2006  NotOwner() */\n      mload(0x40)\n      0x30cd747100000000000000000000000000000000000000000000000000000000\n      dup2\n      mstore\n      0x04\n      add\n      mload(0x40)\n      dup1\n      swap2\n      sub\n      swap1\n      revert\n        /* \"foundry/src/MultiSigWallet.sol\":1963:2006  if (!isOwner[msg.sender]) revert NotOwner() */\n    tag_265:\n        /* \"foundry/src/MultiSigWallet.sol\":8148:8153  owner */\n      dup1\n        /* \"foundry/src/MultiSigWallet.sol\":3030:3031  0 */\n      0x00\n        /* \"foundry/src/MultiSigWallet.sol\":3014:3032  addr == address(0) */\n      0xffffffffffffffffffffffffffffffffffffffff\n      and\n        /* \"foundry/src/MultiSigWallet.sol\":3014:3018  addr */\n      dup2\n        /* \"foundry/src/MultiSigWallet.sol\":3014:3032  addr == address(0) */\n      0xffffffffffffffffffffffffffffffffffffffff\n      and\n      sub\n        /* \"foundry/src/MultiSigWallet.sol\":3010:3054  if (addr == address(0)) revert ZeroAddress() */\n      tag_267\n      jumpi\n        /* \"foundry/src/MultiSigWallet.sol\":3041:3054  ZeroAddress() */\n      mload(0x40)\n      0xd92e233d00000000000000000000000000000000000000000000000000000000\n      dup2\n      mstore\n      0x04\n      add\n      mload(0x40)\n      dup1\n      swap2\n      sub\n      swap1\n      revert\n        /* \"foundry/src/MultiSigWallet.sol\":3010:3054  if (addr == address(0)) revert ZeroAddress() */\n    tag_267:\n        /* \"foundry/src/MultiSigWallet.sol\":8183:8188  owner */\n      dup2\n        /* \"foundry/src/MultiSigWallet.sol\":2095:2102  isOwner */\n      0x01\n        /* \"foundry/src/MultiSigWallet.sol\":2095:2109  isOwner[owner] */\n      0x00\n        /* \"foundry/src/MultiSigWallet.sol\":2103:2108  owner */\n      dup3\n        /* \"foundry/src/MultiSigWallet.sol\":2095:2109  isOwner[owner] */\n      0xffffffffffffffffffffffffffffffffffffffff\n      and\n      0xffffffffffffffffffffffffffffffffffffffff\n      and\n      dup2\n      mstore\n      0x20\n      add\n      swap1\n      dup2\n      mstore\n      0x20\n      add\n      0x00\n      keccak256\n      0x00\n      swap1\n      sload\n      swap1\n      0x0100\n      exp\n      swap1\n      div\n      0xff\n      and\n        /* \"foundry/src/MultiSigWallet.sol\":2091:2133  if (isOwner[owner]) revert(\"Owner exists\") */\n      iszero\n      tag_269\n      jumpi\n        /* \"foundry/src/MultiSigWallet.sol\":2111:2133  revert(\"Owner exists\") */\n      mload(0x40)\n      0x08c379a000000000000000000000000000000000000000000000000000000000\n      dup2\n      mstore\n      0x04\n      add\n      tag_270\n      swap1\n      tag_271\n      jump\t// in\n    tag_270:\n      mload(0x40)\n      dup1\n      swap2\n      sub\n      swap1\n      revert\n        /* \"foundry/src/MultiSigWallet.sol\":2091:2133  if (isOwner[owner]) revert(\"Owner exists\") */\n    tag_269:\n        /* \"foundry/src/MultiSigWallet.sol\":8224:8228  true */\n      0x01\n        /* \"foundry/src/MultiSigWallet.sol\":8207:8214  isOwner */\n      dup1\n        /* \"foundry/src/MultiSigWallet.sol\":8207:8221  isOwner[owner] */\n      0x00\n        /* \"foundry/src/MultiSigWallet.sol\":8215:8220  owner */\n      dup6\n        /* \"foundry/src/MultiSigWallet.sol\":8207:8221  isOwner[owner] */\n      0xffffffffffffffffffffffffffffffffffffffff\n      and\n      0xffffffffffffffffffffffffffffffffffffffff\n      and\n      dup2\n      mstore\n      0x20\n      add\n      swap1\n      dup2\n      mstore\n      0x20\n      add\n      0x00\n      keccak256\n      0x00\n        /* \"foundry/src/MultiSigWallet.sol\":8207:8228  isOwner[owner] = true */\n      0x0100\n      exp\n      dup2\n      sload\n      dup2\n      0xff\n      mul\n      not\n      and\n      swap1\n      dup4\n      iszero\n      iszero\n      mul\n      or\n      swap1\n      sstore\n      pop\n        /* \"foundry/src/MultiSigWallet.sol\":8239:8245  owners */\n      0x00\n        /* \"foundry/src/MultiSigWallet.sol\":8251:8256  owner */\n      dup4\n        /* \"foundry/src/MultiSigWallet.sol\":8239:8257  owners.push(owner) */\n      swap1\n      dup1\n      0x01\n      dup2\n      sload\n      add\n      dup1\n      dup3\n      sstore\n      dup1\n      swap2\n      pop\n      pop\n      0x01\n      swap1\n      sub\n      swap1\n      0x00\n      mstore\n      keccak256(0x00, 0x20)\n      add\n      0x00\n      swap1\n      swap2\n      swap1\n      swap2\n      swap1\n      swap2\n      0x0100\n      exp\n      dup2\n      sload\n      dup2\n      0xffffffffffffffffffffffffffffffffffffffff\n      mul\n      not\n      and\n      swap1\n      dup4\n      0xffffffffffffffffffffffffffffffffffffffff\n      and\n      mul\n      or\n      swap1\n      sstore\n      pop\n        /* \"foundry/src/MultiSigWallet.sol\":8345:8351  owners */\n      0x00\n        /* \"foundry/src/MultiSigWallet.sol\":8345:8358  owners.length */\n      dup1\n      sload\n      swap1\n      pop\n        /* \"foundry/src/MultiSigWallet.sol\":8334:8342  required */\n      sload(0x02)\n        /* \"foundry/src/MultiSigWallet.sol\":8334:8358  required > owners.length */\n      gt\n        /* \"foundry/src/MultiSigWallet.sol\":8330:8411  if (required > owners.length) {... */\n      iszero\n      tag_274\n      jumpi\n        /* \"foundry/src/MultiSigWallet.sol\":8386:8392  owners */\n      0x00\n        /* \"foundry/src/MultiSigWallet.sol\":8386:8399  owners.length */\n      dup1\n      sload\n      swap1\n      pop\n        /* \"foundry/src/MultiSigWallet.sol\":8375:8383  required */\n      0x02\n        /* \"foundry/src/MultiSigWallet.sol\":8375:8399  required = owners.length */\n      dup2\n      swap1\n      sstore\n      pop\n        /* \"foundry/src/MultiSigWallet.sol\":8330:8411  if (required > owners.length) {... */\n    tag_274:\n        /* \"foundry/src/MultiSigWallet.sol\":3065:3066  _ */\n      pop\n        /* \"foundry/src/MultiSigWallet.sol\":2017:2018  _ */\n      pop\n        /* \"foundry/src/MultiSigWallet.sol\":8059:8418  function addOwner(address owner) ... */\n      pop\n      jump\t// out\n        /* \"foundry/src/MultiSigWallet.sol\":914:944  address public recoveryAddress */\n    tag_115:\n      0x0d\n      0x00\n      swap1\n      sload\n      swap1\n      0x0100\n      exp\n      swap1\n      div\n      0xffffffffffffffffffffffffffffffffffffffff\n      and\n      dup2\n      jump\t// out\n        /* \"foundry/src/MultiSigWallet.sol\":9425:9575  function isConfirmed(uint256 transactionId) public view returns (bool) {... */\n    tag_120:\n        /* \"foundry/src/MultiSigWallet.sol\":9490:9494  bool */\n      0x00\n        /* \"foundry/src/MultiSigWallet.sol\":9559:9567  required */\n      sload(0x02)\n        /* \"foundry/src/MultiSigWallet.sol\":9514:9526  transactions */\n      0x07\n        /* \"foundry/src/MultiSigWallet.sol\":9514:9541  transactions[transactionId] */\n      0x00\n        /* \"foundry/src/MultiSigWallet.sol\":9527:9540  transactionId */\n      dup5\n        /* \"foundry/src/MultiSigWallet.sol\":9514:9541  transactions[transactionId] */\n      dup2\n      mstore\n      0x20\n      add\n      swap1\n      dup2\n      mstore\n      0x20\n      add\n      0x00\n      keccak256\n        /* \"foundry/src/MultiSigWallet.sol\":9514:9555  transactions[transactionId].confirmations */\n      0x04\n      add\n      sload\n        /* \"foundry/src/MultiSigWallet.sol\":9514:9567  transactions[transactionId].confirmations >= required */\n      lt\n      iszero\n        /* \"foundry/src/MultiSigWallet.sol\":9507:9567  return transactions[transactionId].confirmations >= required */\n      swap1\n      pop\n        /* \"foundry/src/MultiSigWallet.sol\":9425:9575  function isConfirmed(uint256 transactionId) public view returns (bool) {... */\n      swap2\n      swap1\n      pop\n      jump\t// out\n        /* \"foundry/src/MultiSigWallet.sol\":6919:7205  function initiateRecovery() public onlyWallet {... */\n    tag_124:\n        /* \"foundry/src/MultiSigWallet.sol\":1968:1975  isOwner */\n      0x01\n        /* \"foundry/src/MultiSigWallet.sol\":1968:1987  isOwner[msg.sender] */\n      0x00\n        /* \"foundry/src/MultiSigWallet.sol\":1976:1986  msg.sender */\n      caller\n        /* \"foundry/src/MultiSigWallet.sol\":1968:1987  isOwner[msg.sender] */\n      0xffffffffffffffffffffffffffffffffffffffff\n      and\n      0xffffffffffffffffffffffffffffffffffffffff\n      and\n      dup2\n      mstore\n      0x20\n      add\n      swap1\n      dup2\n      mstore\n      0x20\n      add\n      0x00\n      keccak256\n      0x00\n      swap1\n      sload\n      swap1\n      0x0100\n      exp\n      swap1\n      div\n      0xff\n      and\n        /* \"foundry/src/MultiSigWallet.sol\":1963:2006  if (!isOwner[msg.sender]) revert NotOwner() */\n      tag_277\n      jumpi\n        /* \"foundry/src/MultiSigWallet.sol\":1996:2006  NotOwner() */\n      mload(0x40)\n      0x30cd747100000000000000000000000000000000000000000000000000000000\n      dup2\n      mstore\n      0x04\n      add\n      mload(0x40)\n      dup1\n      swap2\n      sub\n      swap1\n      revert\n        /* \"foundry/src/MultiSigWallet.sol\":1963:2006  if (!isOwner[msg.sender]) revert NotOwner() */\n    tag_277:\n        /* \"foundry/src/MultiSigWallet.sol\":6985:7002  recoveryInitiated */\n      0x0f\n      0x00\n      swap1\n      sload\n      swap1\n      0x0100\n      exp\n      swap1\n      div\n      0xff\n      and\n        /* \"foundry/src/MultiSigWallet.sol\":6984:7002  !recoveryInitiated */\n      iszero\n        /* \"foundry/src/MultiSigWallet.sol\":6976:7033  require(!recoveryInitiated, \"Recovery already initiated\") */\n      tag_279\n      jumpi\n      mload(0x40)\n      0x08c379a000000000000000000000000000000000000000000000000000000000\n      dup2\n      mstore\n      0x04\n      add\n      tag_280\n      swap1\n      tag_281\n      jump\t// in\n    tag_280:\n      mload(0x40)\n      dup1\n      swap2\n      sub\n      swap1\n      revert\n    tag_279:\n        /* \"foundry/src/MultiSigWallet.sol\":7074:7078  true */\n      0x01\n        /* \"foundry/src/MultiSigWallet.sol\":7054:7071  recoveryInitiated */\n      0x0f\n      0x00\n        /* \"foundry/src/MultiSigWallet.sol\":7054:7078  recoveryInitiated = true */\n      0x0100\n      exp\n      dup2\n      sload\n      dup2\n      0xff\n      mul\n      not\n      and\n      swap1\n      dup4\n      iszero\n      iszero\n      mul\n      or\n      swap1\n      sstore\n      pop\n        /* \"foundry/src/MultiSigWallet.sol\":7122:7128  7 days */\n      0x093a80\n        /* \"foundry/src/MultiSigWallet.sol\":7104:7119  block.timestamp */\n      timestamp\n        /* \"foundry/src/MultiSigWallet.sol\":7104:7128  block.timestamp + 7 days */\n      tag_282\n      swap2\n      swap1\n      tag_283\n      jump\t// in\n    tag_282:\n        /* \"foundry/src/MultiSigWallet.sol\":7089:7101  recoveryTime */\n      0x0e\n        /* \"foundry/src/MultiSigWallet.sol\":7089:7128  recoveryTime = block.timestamp + 7 days */\n      dup2\n      swap1\n      sstore\n      pop\n        /* \"foundry/src/MultiSigWallet.sol\":7172:7182  msg.sender */\n      caller\n        /* \"foundry/src/MultiSigWallet.sol\":7154:7197  RecoveryInitiated(msg.sender, recoveryTime) */\n      0xffffffffffffffffffffffffffffffffffffffff\n      and\n      0x8a9bdbd6fa6536bd7e02875d089a0604de2d92780294abc78536d93fd6c95b7c\n        /* \"foundry/src/MultiSigWallet.sol\":7184:7196  recoveryTime */\n      sload(0x0e)\n        /* \"foundry/src/MultiSigWallet.sol\":7154:7197  RecoveryInitiated(msg.sender, recoveryTime) */\n      mload(0x40)\n      tag_284\n      swap2\n      swap1\n      tag_47\n      jump\t// in\n    tag_284:\n      mload(0x40)\n      dup1\n      swap2\n      sub\n      swap1\n      log2\n        /* \"foundry/src/MultiSigWallet.sol\":6919:7205  function initiateRecovery() public onlyWallet {... */\n      jump\t// out\n        /* \"foundry/src/MultiSigWallet.sol\":839:877  uint256 public executionDelay = 2 days */\n    tag_127:\n      sload(0x0c)\n      dup2\n      jump\t// out\n        /* \"foundry/src/MultiSigWallet.sol\":9263:9413  function getConfirmationCount(uint256 transactionId) public view returns (uint256) {... */\n    tag_132:\n        /* \"foundry/src/MultiSigWallet.sol\":9337:9344  uint256 */\n      0x00\n        /* \"foundry/src/MultiSigWallet.sol\":9364:9376  transactions */\n      0x07\n        /* \"foundry/src/MultiSigWallet.sol\":9364:9391  transactions[transactionId] */\n      0x00\n        /* \"foundry/src/MultiSigWallet.sol\":9377:9390  transactionId */\n      dup4\n        /* \"foundry/src/MultiSigWallet.sol\":9364:9391  transactions[transactionId] */\n      dup2\n      mstore\n      0x20\n      add\n      swap1\n      dup2\n      mstore\n      0x20\n      add\n      0x00\n      keccak256\n        /* \"foundry/src/MultiSigWallet.sol\":9364:9405  transactions[transactionId].confirmations */\n      0x04\n      add\n      sload\n        /* \"foundry/src/MultiSigWallet.sol\":9357:9405  return transactions[transactionId].confirmations */\n      swap1\n      pop\n        /* \"foundry/src/MultiSigWallet.sol\":9263:9413  function getConfirmationCount(uint256 transactionId) public view returns (uint256) {... */\n      swap2\n      swap1\n      pop\n      jump\t// out\n        /* \"foundry/src/MultiSigWallet.sol\":9110:9220  function changeExecutionDelay(uint256 newDelay) public onlyWallet {... */\n    tag_137:\n        /* \"foundry/src/MultiSigWallet.sol\":1968:1975  isOwner */\n      0x01\n        /* \"foundry/src/MultiSigWallet.sol\":1968:1987  isOwner[msg.sender] */\n      0x00\n        /* \"foundry/src/MultiSigWallet.sol\":1976:1986  msg.sender */\n      caller\n        /* \"foundry/src/MultiSigWallet.sol\":1968:1987  isOwner[msg.sender] */\n      0xffffffffffffffffffffffffffffffffffffffff\n      and\n      0xffffffffffffffffffffffffffffffffffffffff\n      and\n      dup2\n      mstore\n      0x20\n      add\n      swap1\n      dup2\n      mstore\n      0x20\n      add\n      0x00\n      keccak256\n      0x00\n      swap1\n      sload\n      swap1\n      0x0100\n      exp\n      swap1\n      div\n      0xff\n      and\n        /* \"foundry/src/MultiSigWallet.sol\":1963:2006  if (!isOwner[msg.sender]) revert NotOwner() */\n      tag_287\n      jumpi\n        /* \"foundry/src/MultiSigWallet.sol\":1996:2006  NotOwner() */\n      mload(0x40)\n      0x30cd747100000000000000000000000000000000000000000000000000000000\n      dup2\n      mstore\n      0x04\n      add\n      mload(0x40)\n      dup1\n      swap2\n      sub\n      swap1\n      revert\n        /* \"foundry/src/MultiSigWallet.sol\":1963:2006  if (!isOwner[msg.sender]) revert NotOwner() */\n    tag_287:\n        /* \"foundry/src/MultiSigWallet.sol\":9204:9212  newDelay */\n      dup1\n        /* \"foundry/src/MultiSigWallet.sol\":9187:9201  executionDelay */\n      0x0c\n        /* \"foundry/src/MultiSigWallet.sol\":9187:9212  executionDelay = newDelay */\n      dup2\n      swap1\n      sstore\n      pop\n        /* \"foundry/src/MultiSigWallet.sol\":9110:9220  function changeExecutionDelay(uint256 newDelay) public onlyWallet {... */\n      pop\n      jump\t// out\n        /* \"foundry/src/MultiSigWallet.sol\":520:571  mapping(uint256 => Transaction) public transactions */\n    tag_141:\n      mstore(0x20, 0x07)\n      dup1\n      0x00\n      mstore\n      keccak256(0x00, 0x40)\n      0x00\n      swap2\n      pop\n      swap1\n      pop\n      dup1\n      0x00\n      add\n      0x00\n      swap1\n      sload\n      swap1\n      0x0100\n      exp\n      swap1\n      div\n      0xffffffffffffffffffffffffffffffffffffffff\n      and\n      swap1\n      dup1\n      0x01\n      add\n      sload\n      swap1\n      dup1\n      0x02\n      add\n      dup1\n      sload\n      tag_289\n      swap1\n      tag_290\n      jump\t// in\n    tag_289:\n      dup1\n      0x1f\n      add\n      0x20\n      dup1\n      swap2\n      div\n      mul\n      0x20\n      add\n      mload(0x40)\n      swap1\n      dup2\n      add\n      0x40\n      mstore\n      dup1\n      swap3\n      swap2\n      swap1\n      dup2\n      dup2\n      mstore\n      0x20\n      add\n      dup3\n      dup1\n      sload\n      tag_291\n      swap1\n      tag_290\n      jump\t// in\n    tag_291:\n      dup1\n      iszero\n      tag_292\n      jumpi\n      dup1\n      0x1f\n      lt\n      tag_293\n      jumpi\n      0x0100\n      dup1\n      dup4\n      sload\n      div\n      mul\n      dup4\n      mstore\n      swap2\n      0x20\n      add\n      swap2\n      jump(tag_292)\n    tag_293:\n      dup3\n      add\n      swap2\n      swap1\n      0x00\n      mstore\n      keccak256(0x00, 0x20)\n      swap1\n    tag_294:\n      dup2\n      sload\n      dup2\n      mstore\n      swap1\n      0x01\n      add\n      swap1\n      0x20\n      add\n      dup1\n      dup4\n      gt\n      tag_294\n      jumpi\n      dup3\n      swap1\n      sub\n      0x1f\n      and\n      dup3\n      add\n      swap2\n    tag_292:\n      pop\n      pop\n      pop\n      pop\n      pop\n      swap1\n      dup1\n      0x03\n      add\n      0x00\n      swap1\n      sload\n      swap1\n      0x0100\n      exp\n      swap1\n      div\n      0xff\n      and\n      swap1\n      dup1\n      0x04\n      add\n      sload\n      swap1\n      pop\n      dup6\n      jump\t// out\n        /* \"foundry/src/MultiSigWallet.sol\":9587:9679  function getOwners() public view returns (address[] memory) {... */\n    tag_146:\n        /* \"foundry/src/MultiSigWallet.sol\":9629:9645  address[] memory */\n      0x60\n        /* \"foundry/src/MultiSigWallet.sol\":9665:9671  owners */\n      0x00\n        /* \"foundry/src/MultiSigWallet.sol\":9658:9671  return owners */\n      dup1\n      sload\n      dup1\n      0x20\n      mul\n      0x20\n      add\n      mload(0x40)\n      swap1\n      dup2\n      add\n      0x40\n      mstore\n      dup1\n      swap3\n      swap2\n      swap1\n      dup2\n      dup2\n      mstore\n      0x20\n      add\n      dup3\n      dup1\n      sload\n      dup1\n      iszero\n      tag_296\n      jumpi\n      0x20\n      mul\n      dup3\n      add\n      swap2\n      swap1\n      0x00\n      mstore\n      keccak256(0x00, 0x20)\n      swap1\n    tag_297:\n      dup2\n      0x00\n      swap1\n      sload\n      swap1\n      0x0100\n      exp\n      swap1\n      div\n      0xffffffffffffffffffffffffffffffffffffffff\n      and\n      0xffffffffffffffffffffffffffffffffffffffff\n      and\n      dup2\n      mstore\n      0x20\n      add\n      swap1\n      0x01\n      add\n      swap1\n      dup1\n      dup4\n      gt\n      tag_297\n      jumpi\n    tag_296:\n      pop\n      pop\n      pop\n      pop\n      pop\n      swap1\n      pop\n        /* \"foundry/src/MultiSigWallet.sol\":9587:9679  function getOwners() public view returns (address[] memory) {... */\n      swap1\n      jump\t// out\n        /* \"foundry/src/MultiSigWallet.sol\":10366:11203  function getTransactionIds(... */\n    tag_153:\n        /* \"foundry/src/MultiSigWallet.sol\":10512:10528  uint256[] memory */\n      0x60\n        /* \"foundry/src/MultiSigWallet.sol\":10541:10572  uint256[] memory transactionIds */\n      0x00\n        /* \"foundry/src/MultiSigWallet.sol\":10589:10605  transactionCount */\n      sload(0x03)\n        /* \"foundry/src/MultiSigWallet.sol\":10575:10606  new uint256[](transactionCount) */\n      0xffffffffffffffff\n      dup2\n      gt\n      iszero\n      tag_299\n      jumpi\n      tag_300\n      tag_301\n      jump\t// in\n    tag_300:\n    tag_299:\n      mload(0x40)\n      swap1\n      dup1\n      dup3\n      mstore\n      dup1\n      0x20\n      mul\n      0x20\n      add\n      dup3\n      add\n      0x40\n      mstore\n      dup1\n      iszero\n      tag_302\n      jumpi\n      dup2\n      0x20\n      add\n      0x20\n      dup3\n      mul\n      dup1\n      calldatasize\n      dup4\n      calldatacopy\n      dup1\n      dup3\n      add\n      swap2\n      pop\n      pop\n      swap1\n      pop\n    tag_302:\n      pop\n        /* \"foundry/src/MultiSigWallet.sol\":10541:10606  uint256[] memory transactionIds = new uint256[](transactionCount) */\n      swap1\n      pop\n        /* \"foundry/src/MultiSigWallet.sol\":10617:10630  uint256 count */\n      0x00\n        /* \"foundry/src/MultiSigWallet.sol\":10633:10634  0 */\n      0x00\n        /* \"foundry/src/MultiSigWallet.sol\":10617:10634  uint256 count = 0 */\n      swap1\n      pop\n        /* \"foundry/src/MultiSigWallet.sol\":10660:10669  uint256 i */\n      0x00\n        /* \"foundry/src/MultiSigWallet.sol\":10672:10673  0 */\n      0x00\n        /* \"foundry/src/MultiSigWallet.sol\":10660:10673  uint256 i = 0 */\n      swap1\n      pop\n        /* \"foundry/src/MultiSigWallet.sol\":10655:10968  for (uint256 i = 0; i < transactionCount; i++) {... */\n    tag_303:\n        /* \"foundry/src/MultiSigWallet.sol\":10679:10695  transactionCount */\n      sload(0x03)\n        /* \"foundry/src/MultiSigWallet.sol\":10675:10676  i */\n      dup2\n        /* \"foundry/src/MultiSigWallet.sol\":10675:10695  i < transactionCount */\n      lt\n        /* \"foundry/src/MultiSigWallet.sol\":10655:10968  for (uint256 i = 0; i < transactionCount; i++) {... */\n      iszero\n      tag_304\n      jumpi\n        /* \"foundry/src/MultiSigWallet.sol\":10721:10728  pending */\n      dup6\n        /* \"foundry/src/MultiSigWallet.sol\":10721:10757  pending && !transactions[i].executed */\n      dup1\n      iszero\n      tag_306\n      jumpi\n      pop\n        /* \"foundry/src/MultiSigWallet.sol\":10733:10745  transactions */\n      0x07\n        /* \"foundry/src/MultiSigWallet.sol\":10733:10748  transactions[i] */\n      0x00\n        /* \"foundry/src/MultiSigWallet.sol\":10746:10747  i */\n      dup3\n        /* \"foundry/src/MultiSigWallet.sol\":10733:10748  transactions[i] */\n      dup2\n      mstore\n      0x20\n      add\n      swap1\n      dup2\n      mstore\n      0x20\n      add\n      0x00\n      keccak256\n        /* \"foundry/src/MultiSigWallet.sol\":10733:10757  transactions[i].executed */\n      0x03\n      add\n      0x00\n      swap1\n      sload\n      swap1\n      0x0100\n      exp\n      swap1\n      div\n      0xff\n      and\n        /* \"foundry/src/MultiSigWallet.sol\":10732:10757  !transactions[i].executed */\n      iszero\n        /* \"foundry/src/MultiSigWallet.sol\":10721:10757  pending && !transactions[i].executed */\n    tag_306:\n        /* \"foundry/src/MultiSigWallet.sol\":10721:10797  pending && !transactions[i].executed || executed && transactions[i].executed */\n      dup1\n      tag_307\n      jumpi\n      pop\n        /* \"foundry/src/MultiSigWallet.sol\":10761:10769  executed */\n      dup5\n        /* \"foundry/src/MultiSigWallet.sol\":10761:10797  executed && transactions[i].executed */\n      dup1\n      iszero\n      tag_308\n      jumpi\n      pop\n        /* \"foundry/src/MultiSigWallet.sol\":10773:10785  transactions */\n      0x07\n        /* \"foundry/src/MultiSigWallet.sol\":10773:10788  transactions[i] */\n      0x00\n        /* \"foundry/src/MultiSigWallet.sol\":10786:10787  i */\n      dup3\n        /* \"foundry/src/MultiSigWallet.sol\":10773:10788  transactions[i] */\n      dup2\n      mstore\n      0x20\n      add\n      swap1\n      dup2\n      mstore\n      0x20\n      add\n      0x00\n      keccak256\n        /* \"foundry/src/MultiSigWallet.sol\":10773:10797  transactions[i].executed */\n      0x03\n      add\n      0x00\n      swap1\n      sload\n      swap1\n      0x0100\n      exp\n      swap1\n      div\n      0xff\n      and\n        /* \"foundry/src/MultiSigWallet.sol\":10761:10797  executed && transactions[i].executed */\n    tag_308:\n        /* \"foundry/src/MultiSigWallet.sol\":10721:10797  pending && !transactions[i].executed || executed && transactions[i].executed */\n    tag_307:\n        /* \"foundry/src/MultiSigWallet.sol\":10717:10957  if (pending && !transactions[i].executed || executed && transactions[i].executed) {... */\n      iszero\n      tag_309\n      jumpi\n        /* \"foundry/src/MultiSigWallet.sol\":10830:10831  i */\n      dup1\n        /* \"foundry/src/MultiSigWallet.sol\":10822:10826  from */\n      dup9\n        /* \"foundry/src/MultiSigWallet.sol\":10822:10831  from <= i */\n      gt\n      iszero\n        /* \"foundry/src/MultiSigWallet.sol\":10822:10842  from <= i && i <= to */\n      dup1\n      iszero\n      tag_310\n      jumpi\n      pop\n        /* \"foundry/src/MultiSigWallet.sol\":10840:10842  to */\n      dup7\n        /* \"foundry/src/MultiSigWallet.sol\":10835:10836  i */\n      dup2\n        /* \"foundry/src/MultiSigWallet.sol\":10835:10842  i <= to */\n      gt\n      iszero\n        /* \"foundry/src/MultiSigWallet.sol\":10822:10842  from <= i && i <= to */\n    tag_310:\n        /* \"foundry/src/MultiSigWallet.sol\":10818:10942  if (from <= i && i <= to) {... */\n      iszero\n      tag_311\n      jumpi\n        /* \"foundry/src/MultiSigWallet.sol\":10891:10892  i */\n      dup1\n        /* \"foundry/src/MultiSigWallet.sol\":10867:10881  transactionIds */\n      dup4\n        /* \"foundry/src/MultiSigWallet.sol\":10882:10887  count */\n      dup4\n        /* \"foundry/src/MultiSigWallet.sol\":10867:10888  transactionIds[count] */\n      dup2\n      mload\n      dup2\n      lt\n      tag_312\n      jumpi\n      tag_313\n      tag_220\n      jump\t// in\n    tag_313:\n    tag_312:\n      0x20\n      mul\n      0x20\n      add\n      add\n        /* \"foundry/src/MultiSigWallet.sol\":10867:10892  transactionIds[count] = i */\n      dup2\n      dup2\n      mstore\n      pop\n      pop\n        /* \"foundry/src/MultiSigWallet.sol\":10915:10922  count++ */\n      dup2\n      dup1\n      tag_314\n      swap1\n      tag_315\n      jump\t// in\n    tag_314:\n      swap3\n      pop\n      pop\n        /* \"foundry/src/MultiSigWallet.sol\":10818:10942  if (from <= i && i <= to) {... */\n    tag_311:\n        /* \"foundry/src/MultiSigWallet.sol\":10717:10957  if (pending && !transactions[i].executed || executed && transactions[i].executed) {... */\n    tag_309:\n        /* \"foundry/src/MultiSigWallet.sol\":10697:10700  i++ */\n      dup1\n      dup1\n      0x01\n      add\n      swap2\n      pop\n      pop\n        /* \"foundry/src/MultiSigWallet.sol\":10655:10968  for (uint256 i = 0; i < transactionCount; i++) {... */\n      jump(tag_303)\n    tag_304:\n      pop\n        /* \"foundry/src/MultiSigWallet.sol\":11013:11036  uint256[] memory result */\n      0x00\n        /* \"foundry/src/MultiSigWallet.sol\":11053:11058  count */\n      dup2\n        /* \"foundry/src/MultiSigWallet.sol\":11039:11059  new uint256[](count) */\n      0xffffffffffffffff\n      dup2\n      gt\n      iszero\n      tag_316\n      jumpi\n      tag_317\n      tag_301\n      jump\t// in\n    tag_317:\n    tag_316:\n      mload(0x40)\n      swap1\n      dup1\n      dup3\n      mstore\n      dup1\n      0x20\n      mul\n      0x20\n      add\n      dup3\n      add\n      0x40\n      mstore\n      dup1\n      iszero\n      tag_318\n      jumpi\n      dup2\n      0x20\n      add\n      0x20\n      dup3\n      mul\n      dup1\n      calldatasize\n      dup4\n      calldatacopy\n      dup1\n      dup3\n      add\n      swap2\n      pop\n      pop\n      swap1\n      pop\n    tag_318:\n      pop\n        /* \"foundry/src/MultiSigWallet.sol\":11013:11059  uint256[] memory result = new uint256[](count) */\n      swap1\n      pop\n        /* \"foundry/src/MultiSigWallet.sol\":11075:11084  uint256 i */\n      0x00\n        /* \"foundry/src/MultiSigWallet.sol\":11087:11088  0 */\n      0x00\n        /* \"foundry/src/MultiSigWallet.sol\":11075:11088  uint256 i = 0 */\n      swap1\n      pop\n        /* \"foundry/src/MultiSigWallet.sol\":11070:11162  for (uint256 i = 0; i < count; i++) {... */\n    tag_319:\n        /* \"foundry/src/MultiSigWallet.sol\":11094:11099  count */\n      dup3\n        /* \"foundry/src/MultiSigWallet.sol\":11090:11091  i */\n      dup2\n        /* \"foundry/src/MultiSigWallet.sol\":11090:11099  i < count */\n      lt\n        /* \"foundry/src/MultiSigWallet.sol\":11070:11162  for (uint256 i = 0; i < count; i++) {... */\n      iszero\n      tag_320\n      jumpi\n        /* \"foundry/src/MultiSigWallet.sol\":11133:11147  transactionIds */\n      dup4\n        /* \"foundry/src/MultiSigWallet.sol\":11148:11149  i */\n      dup2\n        /* \"foundry/src/MultiSigWallet.sol\":11133:11150  transactionIds[i] */\n      dup2\n      mload\n      dup2\n      lt\n      tag_322\n      jumpi\n      tag_323\n      tag_220\n      jump\t// in\n    tag_323:\n    tag_322:\n      0x20\n      mul\n      0x20\n      add\n      add\n      mload\n        /* \"foundry/src/MultiSigWallet.sol\":11121:11127  result */\n      dup3\n        /* \"foundry/src/MultiSigWallet.sol\":11128:11129  i */\n      dup3\n        /* \"foundry/src/MultiSigWallet.sol\":11121:11130  result[i] */\n      dup2\n      mload\n      dup2\n      lt\n      tag_324\n      jumpi\n      tag_325\n      tag_220\n      jump\t// in\n    tag_325:\n    tag_324:\n      0x20\n      mul\n      0x20\n      add\n      add\n        /* \"foundry/src/MultiSigWallet.sol\":11121:11150  result[i] = transactionIds[i] */\n      dup2\n      dup2\n      mstore\n      pop\n      pop\n        /* \"foundry/src/MultiSigWallet.sol\":11101:11104  i++ */\n      dup1\n      dup1\n      0x01\n      add\n      swap2\n      pop\n      pop\n        /* \"foundry/src/MultiSigWallet.sol\":11070:11162  for (uint256 i = 0; i < count; i++) {... */\n      jump(tag_319)\n    tag_320:\n      pop\n        /* \"foundry/src/MultiSigWallet.sol\":11189:11195  result */\n      dup1\n        /* \"foundry/src/MultiSigWallet.sol\":11182:11195  return result */\n      swap4\n      pop\n      pop\n      pop\n      pop\n        /* \"foundry/src/MultiSigWallet.sol\":10366:11203  function getTransactionIds(... */\n      swap5\n      swap4\n      pop\n      pop\n      pop\n      pop\n      jump\t// out\n        /* \"foundry/src/MultiSigWallet.sol\":6776:6875  function setDailyLimit(uint256 newLimit) public onlyWallet {... */\n    tag_159:\n        /* \"foundry/src/MultiSigWallet.sol\":1968:1975  isOwner */\n      0x01\n        /* \"foundry/src/MultiSigWallet.sol\":1968:1987  isOwner[msg.sender] */\n      0x00\n        /* \"foundry/src/MultiSigWallet.sol\":1976:1986  msg.sender */\n      caller\n        /* \"foundry/src/MultiSigWallet.sol\":1968:1987  isOwner[msg.sender] */\n      0xffffffffffffffffffffffffffffffffffffffff\n      and\n      0xffffffffffffffffffffffffffffffffffffffff\n      and\n      dup2\n      mstore\n      0x20\n      add\n      swap1\n      dup2\n      mstore\n      0x20\n      add\n      0x00\n      keccak256\n      0x00\n      swap1\n      sload\n      swap1\n      0x0100\n      exp\n      swap1\n      div\n      0xff\n      and\n        /* \"foundry/src/MultiSigWallet.sol\":1963:2006  if (!isOwner[msg.sender]) revert NotOwner() */\n      tag_327\n      jumpi\n        /* \"foundry/src/MultiSigWallet.sol\":1996:2006  NotOwner() */\n      mload(0x40)\n      0x30cd747100000000000000000000000000000000000000000000000000000000\n      dup2\n      mstore\n      0x04\n      add\n      mload(0x40)\n      dup1\n      swap2\n      sub\n      swap1\n      revert\n        /* \"foundry/src/MultiSigWallet.sol\":1963:2006  if (!isOwner[msg.sender]) revert NotOwner() */\n    tag_327:\n        /* \"foundry/src/MultiSigWallet.sol\":6859:6867  newLimit */\n      dup1\n        /* \"foundry/src/MultiSigWallet.sol\":6846:6856  dailyLimit */\n      0x04\n        /* \"foundry/src/MultiSigWallet.sol\":6846:6867  dailyLimit = newLimit */\n      dup2\n      swap1\n      sstore\n      pop\n        /* \"foundry/src/MultiSigWallet.sol\":6776:6875  function setDailyLimit(uint256 newLimit) public onlyWallet {... */\n      pop\n      jump\t// out\n        /* \"foundry/src/MultiSigWallet.sol\":9691:10354  function getConfirmations(uint256 transactionId) public view returns (address[] memory) {... */\n    tag_163:\n        /* \"foundry/src/MultiSigWallet.sol\":9761:9777  address[] memory */\n      0x60\n        /* \"foundry/src/MultiSigWallet.sol\":9790:9824  address[] memory confirmationsList */\n      0x00\n        /* \"foundry/src/MultiSigWallet.sol\":9841:9847  owners */\n      0x00\n        /* \"foundry/src/MultiSigWallet.sol\":9841:9854  owners.length */\n      dup1\n      sload\n      swap1\n      pop\n        /* \"foundry/src/MultiSigWallet.sol\":9827:9855  new address[](owners.length) */\n      0xffffffffffffffff\n      dup2\n      gt\n      iszero\n      tag_330\n      jumpi\n      tag_331\n      tag_301\n      jump\t// in\n    tag_331:\n    tag_330:\n      mload(0x40)\n      swap1\n      dup1\n      dup3\n      mstore\n      dup1\n      0x20\n      mul\n      0x20\n      add\n      dup3\n      add\n      0x40\n      mstore\n      dup1\n      iszero\n      tag_332\n      jumpi\n      dup2\n      0x20\n      add\n      0x20\n      dup3\n      mul\n      dup1\n      calldatasize\n      dup4\n      calldatacopy\n      dup1\n      dup3\n      add\n      swap2\n      pop\n      pop\n      swap1\n      pop\n    tag_332:\n      pop\n        /* \"foundry/src/MultiSigWallet.sol\":9790:9855  address[] memory confirmationsList = new address[](owners.length) */\n      swap1\n      pop\n        /* \"foundry/src/MultiSigWallet.sol\":9866:9879  uint256 count */\n      0x00\n        /* \"foundry/src/MultiSigWallet.sol\":9882:9883  0 */\n      0x00\n        /* \"foundry/src/MultiSigWallet.sol\":9866:9883  uint256 count = 0 */\n      swap1\n      pop\n        /* \"foundry/src/MultiSigWallet.sol\":9909:9918  uint256 i */\n      0x00\n        /* \"foundry/src/MultiSigWallet.sol\":9921:9922  0 */\n      0x00\n        /* \"foundry/src/MultiSigWallet.sol\":9909:9922  uint256 i = 0 */\n      swap1\n      pop\n        /* \"foundry/src/MultiSigWallet.sol\":9904:10116  for (uint256 i = 0; i < owners.length; i++) {... */\n    tag_333:\n        /* \"foundry/src/MultiSigWallet.sol\":9928:9934  owners */\n      0x00\n        /* \"foundry/src/MultiSigWallet.sol\":9928:9941  owners.length */\n      dup1\n      sload\n      swap1\n      pop\n        /* \"foundry/src/MultiSigWallet.sol\":9924:9925  i */\n      dup2\n        /* \"foundry/src/MultiSigWallet.sol\":9924:9941  i < owners.length */\n      lt\n        /* \"foundry/src/MultiSigWallet.sol\":9904:10116  for (uint256 i = 0; i < owners.length; i++) {... */\n      iszero\n      tag_334\n      jumpi\n        /* \"foundry/src/MultiSigWallet.sol\":9967:9980  confirmations */\n      0x08\n        /* \"foundry/src/MultiSigWallet.sol\":9967:9995  confirmations[transactionId] */\n      0x00\n        /* \"foundry/src/MultiSigWallet.sol\":9981:9994  transactionId */\n      dup7\n        /* \"foundry/src/MultiSigWallet.sol\":9967:9995  confirmations[transactionId] */\n      dup2\n      mstore\n      0x20\n      add\n      swap1\n      dup2\n      mstore\n      0x20\n      add\n      0x00\n      keccak256\n        /* \"foundry/src/MultiSigWallet.sol\":9967:10006  confirmations[transactionId][owners[i]] */\n      0x00\n        /* \"foundry/src/MultiSigWallet.sol\":9996:10002  owners */\n      0x00\n        /* \"foundry/src/MultiSigWallet.sol\":10003:10004  i */\n      dup4\n        /* \"foundry/src/MultiSigWallet.sol\":9996:10005  owners[i] */\n      dup2\n      sload\n      dup2\n      lt\n      tag_336\n      jumpi\n      tag_337\n      tag_220\n      jump\t// in\n    tag_337:\n    tag_336:\n      swap1\n      0x00\n      mstore\n      keccak256(0x00, 0x20)\n      add\n      0x00\n      swap1\n      sload\n      swap1\n      0x0100\n      exp\n      swap1\n      div\n      0xffffffffffffffffffffffffffffffffffffffff\n      and\n        /* \"foundry/src/MultiSigWallet.sol\":9967:10006  confirmations[transactionId][owners[i]] */\n      0xffffffffffffffffffffffffffffffffffffffff\n      and\n      0xffffffffffffffffffffffffffffffffffffffff\n      and\n      dup2\n      mstore\n      0x20\n      add\n      swap1\n      dup2\n      mstore\n      0x20\n      add\n      0x00\n      keccak256\n      0x00\n      swap1\n      sload\n      swap1\n      0x0100\n      exp\n      swap1\n      div\n      0xff\n      and\n        /* \"foundry/src/MultiSigWallet.sol\":9963:10105  if (confirmations[transactionId][owners[i]]) {... */\n      iszero\n      tag_339\n      jumpi\n        /* \"foundry/src/MultiSigWallet.sol\":10054:10060  owners */\n      0x00\n        /* \"foundry/src/MultiSigWallet.sol\":10061:10062  i */\n      dup2\n        /* \"foundry/src/MultiSigWallet.sol\":10054:10063  owners[i] */\n      dup2\n      sload\n      dup2\n      lt\n      tag_340\n      jumpi\n      tag_341\n      tag_220\n      jump\t// in\n    tag_341:\n    tag_340:\n      swap1\n      0x00\n      mstore\n      keccak256(0x00, 0x20)\n      add\n      0x00\n      swap1\n      sload\n      swap1\n      0x0100\n      exp\n      swap1\n      div\n      0xffffffffffffffffffffffffffffffffffffffff\n      and\n        /* \"foundry/src/MultiSigWallet.sol\":10027:10044  confirmationsList */\n      dup4\n        /* \"foundry/src/MultiSigWallet.sol\":10045:10050  count */\n      dup4\n        /* \"foundry/src/MultiSigWallet.sol\":10027:10051  confirmationsList[count] */\n      dup2\n      mload\n      dup2\n      lt\n      tag_343\n      jumpi\n      tag_344\n      tag_220\n      jump\t// in\n    tag_344:\n    tag_343:\n      0x20\n      mul\n      0x20\n      add\n      add\n        /* \"foundry/src/MultiSigWallet.sol\":10027:10063  confirmationsList[count] = owners[i] */\n      swap1\n      0xffffffffffffffffffffffffffffffffffffffff\n      and\n      swap1\n      dup2\n      0xffffffffffffffffffffffffffffffffffffffff\n      and\n      dup2\n      mstore\n      pop\n      pop\n        /* \"foundry/src/MultiSigWallet.sol\":10082:10089  count++ */\n      dup2\n      dup1\n      tag_345\n      swap1\n      tag_315\n      jump\t// in\n    tag_345:\n      swap3\n      pop\n      pop\n        /* \"foundry/src/MultiSigWallet.sol\":9963:10105  if (confirmations[transactionId][owners[i]]) {... */\n    tag_339:\n        /* \"foundry/src/MultiSigWallet.sol\":9943:9946  i++ */\n      dup1\n      dup1\n      0x01\n      add\n      swap2\n      pop\n      pop\n        /* \"foundry/src/MultiSigWallet.sol\":9904:10116  for (uint256 i = 0; i < owners.length; i++) {... */\n      jump(tag_333)\n    tag_334:\n      pop\n        /* \"foundry/src/MultiSigWallet.sol\":10161:10184  address[] memory result */\n      0x00\n        /* \"foundry/src/MultiSigWallet.sol\":10201:10206  count */\n      dup2\n        /* \"foundry/src/MultiSigWallet.sol\":10187:10207  new address[](count) */\n      0xffffffffffffffff\n      dup2\n      gt\n      iszero\n      tag_346\n      jumpi\n      tag_347\n      tag_301\n      jump\t// in\n    tag_347:\n    tag_346:\n      mload(0x40)\n      swap1\n      dup1\n      dup3\n      mstore\n      dup1\n      0x20\n      mul\n      0x20\n      add\n      dup3\n      add\n      0x40\n      mstore\n      dup1\n      iszero\n      tag_348\n      jumpi\n      dup2\n      0x20\n      add\n      0x20\n      dup3\n      mul\n      dup1\n      calldatasize\n      dup4\n      calldatacopy\n      dup1\n      dup3\n      add\n      swap2\n      pop\n      pop\n      swap1\n      pop\n    tag_348:\n      pop\n        /* \"foundry/src/MultiSigWallet.sol\":10161:10207  address[] memory result = new address[](count) */\n      swap1\n      pop\n        /* \"foundry/src/MultiSigWallet.sol\":10223:10232  uint256 i */\n      0x00\n        /* \"foundry/src/MultiSigWallet.sol\":10235:10236  0 */\n      0x00\n        /* \"foundry/src/MultiSigWallet.sol\":10223:10236  uint256 i = 0 */\n      swap1\n      pop\n        /* \"foundry/src/MultiSigWallet.sol\":10218:10313  for (uint256 i = 0; i < count; i++) {... */\n    tag_349:\n        /* \"foundry/src/MultiSigWallet.sol\":10242:10247  count */\n      dup3\n        /* \"foundry/src/MultiSigWallet.sol\":10238:10239  i */\n      dup2\n        /* \"foundry/src/MultiSigWallet.sol\":10238:10247  i < count */\n      lt\n        /* \"foundry/src/MultiSigWallet.sol\":10218:10313  for (uint256 i = 0; i < count; i++) {... */\n      iszero\n      tag_350\n      jumpi\n        /* \"foundry/src/MultiSigWallet.sol\":10281:10298  confirmationsList */\n      dup4\n        /* \"foundry/src/MultiSigWallet.sol\":10299:10300  i */\n      dup2\n        /* \"foundry/src/MultiSigWallet.sol\":10281:10301  confirmationsList[i] */\n      dup2\n      mload\n      dup2\n      lt\n      tag_352\n      jumpi\n      tag_353\n      tag_220\n      jump\t// in\n    tag_353:\n    tag_352:\n      0x20\n      mul\n      0x20\n      add\n      add\n      mload\n        /* \"foundry/src/MultiSigWallet.sol\":10269:10275  result */\n      dup3\n        /* \"foundry/src/MultiSigWallet.sol\":10276:10277  i */\n      dup3\n        /* \"foundry/src/MultiSigWallet.sol\":10269:10278  result[i] */\n      dup2\n      mload\n      dup2\n      lt\n      tag_354\n      jumpi\n      tag_355\n      tag_220\n      jump\t// in\n    tag_355:\n    tag_354:\n      0x20\n      mul\n      0x20\n      add\n      add\n        /* \"foundry/src/MultiSigWallet.sol\":10269:10301  result[i] = confirmationsList[i] */\n      swap1\n      0xffffffffffffffffffffffffffffffffffffffff\n      and\n      swap1\n      dup2\n      0xffffffffffffffffffffffffffffffffffffffff\n      and\n      dup2\n      mstore\n      pop\n      pop\n        /* \"foundry/src/MultiSigWallet.sol\":10249:10252  i++ */\n      dup1\n      dup1\n      0x01\n      add\n      swap2\n      pop\n      pop\n        /* \"foundry/src/MultiSigWallet.sol\":10218:10313  for (uint256 i = 0; i < count; i++) {... */\n      jump(tag_349)\n    tag_350:\n      pop\n        /* \"foundry/src/MultiSigWallet.sol\":10340:10346  result */\n      dup1\n        /* \"foundry/src/MultiSigWallet.sol\":10333:10346  return result */\n      swap4\n      pop\n      pop\n      pop\n      pop\n        /* \"foundry/src/MultiSigWallet.sol\":9691:10354  function getConfirmations(uint256 transactionId) public view returns (address[] memory) {... */\n      swap2\n      swap1\n      pop\n      jump\t// out\n        /* \"foundry/src/MultiSigWallet.sol\":222:253  uint256 public transactionCount */\n    tag_167:\n      sload(0x03)\n      dup2\n      jump\t// out\n        /* \"foundry/src/MultiSigWallet.sol\":8904:9098  function changeRequirement(uint256 newRequired) public onlyWallet {... */\n    tag_172:\n        /* \"foundry/src/MultiSigWallet.sol\":1968:1975  isOwner */\n      0x01\n        /* \"foundry/src/MultiSigWallet.sol\":1968:1987  isOwner[msg.sender] */\n      0x00\n        /* \"foundry/src/MultiSigWallet.sol\":1976:1986  msg.sender */\n      caller\n        /* \"foundry/src/MultiSigWallet.sol\":1968:1987  isOwner[msg.sender] */\n      0xffffffffffffffffffffffffffffffffffffffff\n      and\n      0xffffffffffffffffffffffffffffffffffffffff\n      and\n      dup2\n      mstore\n      0x20\n      add\n      swap1\n      dup2\n      mstore\n      0x20\n      add\n      0x00\n      keccak256\n      0x00\n      swap1\n      sload\n      swap1\n      0x0100\n      exp\n      swap1\n      div\n      0xff\n      and\n        /* \"foundry/src/MultiSigWallet.sol\":1963:2006  if (!isOwner[msg.sender]) revert NotOwner() */\n      tag_357\n      jumpi\n        /* \"foundry/src/MultiSigWallet.sol\":1996:2006  NotOwner() */\n      mload(0x40)\n      0x30cd747100000000000000000000000000000000000000000000000000000000\n      dup2\n      mstore\n      0x04\n      add\n      mload(0x40)\n      dup1\n      swap2\n      sub\n      swap1\n      revert\n        /* \"foundry/src/MultiSigWallet.sol\":1963:2006  if (!isOwner[msg.sender]) revert NotOwner() */\n    tag_357:\n        /* \"foundry/src/MultiSigWallet.sol\":9003:9004  0 */\n      0x00\n        /* \"foundry/src/MultiSigWallet.sol\":8989:9000  newRequired */\n      dup2\n        /* \"foundry/src/MultiSigWallet.sol\":8989:9004  newRequired > 0 */\n      gt\n        /* \"foundry/src/MultiSigWallet.sol\":8989:9036  newRequired > 0 && newRequired <= owners.length */\n      dup1\n      iszero\n      tag_359\n      jumpi\n      pop\n        /* \"foundry/src/MultiSigWallet.sol\":9023:9029  owners */\n      0x00\n        /* \"foundry/src/MultiSigWallet.sol\":9023:9036  owners.length */\n      dup1\n      sload\n      swap1\n      pop\n        /* \"foundry/src/MultiSigWallet.sol\":9008:9019  newRequired */\n      dup2\n        /* \"foundry/src/MultiSigWallet.sol\":9008:9036  newRequired <= owners.length */\n      gt\n      iszero\n        /* \"foundry/src/MultiSigWallet.sol\":8989:9036  newRequired > 0 && newRequired <= owners.length */\n    tag_359:\n        /* \"foundry/src/MultiSigWallet.sol\":8981:9057  require(newRequired > 0 && newRequired <= owners.length, \"Invalid required\") */\n      tag_360\n      jumpi\n      mload(0x40)\n      0x08c379a000000000000000000000000000000000000000000000000000000000\n      dup2\n      mstore\n      0x04\n      add\n      tag_361\n      swap1\n      tag_362\n      jump\t// in\n    tag_361:\n      mload(0x40)\n      dup1\n      swap2\n      sub\n      swap1\n      revert\n    tag_360:\n        /* \"foundry/src/MultiSigWallet.sol\":9079:9090  newRequired */\n      dup1\n        /* \"foundry/src/MultiSigWallet.sol\":9068:9076  required */\n      0x02\n        /* \"foundry/src/MultiSigWallet.sol\":9068:9090  required = newRequired */\n      dup2\n      swap1\n      sstore\n      pop\n        /* \"foundry/src/MultiSigWallet.sol\":8904:9098  function changeRequirement(uint256 newRequired) public onlyWallet {... */\n      pop\n      jump\t// out\n        /* \"foundry/src/MultiSigWallet.sol\":4685:5098  function confirmTransaction(uint256 transactionId) ... */\n    tag_176:\n        /* \"foundry/src/MultiSigWallet.sol\":1968:1975  isOwner */\n      0x01\n        /* \"foundry/src/MultiSigWallet.sol\":1968:1987  isOwner[msg.sender] */\n      0x00\n        /* \"foundry/src/MultiSigWallet.sol\":1976:1986  msg.sender */\n      caller\n        /* \"foundry/src/MultiSigWallet.sol\":1968:1987  isOwner[msg.sender] */\n      0xffffffffffffffffffffffffffffffffffffffff\n      and\n      0xffffffffffffffffffffffffffffffffffffffff\n      and\n      dup2\n      mstore\n      0x20\n      add\n      swap1\n      dup2\n      mstore\n      0x20\n      add\n      0x00\n      keccak256\n      0x00\n      swap1\n      sload\n      swap1\n      0x0100\n      exp\n      swap1\n      div\n      0xff\n      and\n        /* \"foundry/src/MultiSigWallet.sol\":1963:2006  if (!isOwner[msg.sender]) revert NotOwner() */\n      tag_364\n      jumpi\n        /* \"foundry/src/MultiSigWallet.sol\":1996:2006  NotOwner() */\n      mload(0x40)\n      0x30cd747100000000000000000000000000000000000000000000000000000000\n      dup2\n      mstore\n      0x04\n      add\n      mload(0x40)\n      dup1\n      swap2\n      sub\n      swap1\n      revert\n        /* \"foundry/src/MultiSigWallet.sol\":1963:2006  if (!isOwner[msg.sender]) revert NotOwner() */\n    tag_364:\n        /* \"foundry/src/MultiSigWallet.sol\":4802:4815  transactionId */\n      dup1\n        /* \"foundry/src/MultiSigWallet.sol\":2389:2390  0 */\n      0x00\n        /* \"foundry/src/MultiSigWallet.sol\":2347:2391  transactions[transactionId].to == address(0) */\n      0xffffffffffffffffffffffffffffffffffffffff\n      and\n        /* \"foundry/src/MultiSigWallet.sol\":2347:2359  transactions */\n      0x07\n        /* \"foundry/src/MultiSigWallet.sol\":2347:2374  transactions[transactionId] */\n      0x00\n        /* \"foundry/src/MultiSigWallet.sol\":2360:2373  transactionId */\n      dup4\n        /* \"foundry/src/MultiSigWallet.sol\":2347:2374  transactions[transactionId] */\n      dup2\n      mstore\n      0x20\n      add\n      swap1\n      dup2\n      mstore\n      0x20\n      add\n      0x00\n      keccak256\n        /* \"foundry/src/MultiSigWallet.sol\":2347:2377  transactions[transactionId].to */\n      0x00\n      add\n      0x00\n      swap1\n      sload\n      swap1\n      0x0100\n      exp\n      swap1\n      div\n      0xffffffffffffffffffffffffffffffffffffffff\n      and\n        /* \"foundry/src/MultiSigWallet.sol\":2347:2391  transactions[transactionId].to == address(0) */\n      0xffffffffffffffffffffffffffffffffffffffff\n      and\n      sub\n        /* \"foundry/src/MultiSigWallet.sol\":2343:2429  if (transactions[transactionId].to == address(0)) revert(\"Transaction does not exist\") */\n      tag_366\n      jumpi\n        /* \"foundry/src/MultiSigWallet.sol\":2393:2429  revert(\"Transaction does not exist\") */\n      mload(0x40)\n      0x08c379a000000000000000000000000000000000000000000000000000000000\n      dup2\n      mstore\n      0x04\n      add\n      tag_367\n      swap1\n      tag_257\n      jump\t// in\n    tag_367:\n      mload(0x40)\n      dup1\n      swap2\n      sub\n      swap1\n      revert\n        /* \"foundry/src/MultiSigWallet.sol\":2343:2429  if (transactions[transactionId].to == address(0)) revert(\"Transaction does not exist\") */\n    tag_366:\n        /* \"foundry/src/MultiSigWallet.sol\":4840:4853  transactionId */\n      dup2\n        /* \"foundry/src/MultiSigWallet.sol\":4855:4865  msg.sender */\n      caller\n        /* \"foundry/src/MultiSigWallet.sol\":2710:2723  confirmations */\n      0x08\n        /* \"foundry/src/MultiSigWallet.sol\":2710:2738  confirmations[transactionId] */\n      0x00\n        /* \"foundry/src/MultiSigWallet.sol\":2724:2737  transactionId */\n      dup4\n        /* \"foundry/src/MultiSigWallet.sol\":2710:2738  confirmations[transactionId] */\n      dup2\n      mstore\n      0x20\n      add\n      swap1\n      dup2\n      mstore\n      0x20\n      add\n      0x00\n      keccak256\n        /* \"foundry/src/MultiSigWallet.sol\":2710:2745  confirmations[transactionId][owner] */\n      0x00\n        /* \"foundry/src/MultiSigWallet.sol\":2739:2744  owner */\n      dup3\n        /* \"foundry/src/MultiSigWallet.sol\":2710:2745  confirmations[transactionId][owner] */\n      0xffffffffffffffffffffffffffffffffffffffff\n      and\n      0xffffffffffffffffffffffffffffffffffffffff\n      and\n      dup2\n      mstore\n      0x20\n      add\n      swap1\n      dup2\n      mstore\n      0x20\n      add\n      0x00\n      keccak256\n      0x00\n      swap1\n      sload\n      swap1\n      0x0100\n      exp\n      swap1\n      div\n      0xff\n      and\n        /* \"foundry/src/MultiSigWallet.sol\":2706:2772  if (confirmations[transactionId][owner]) revert AlreadyConfirmed() */\n      iszero\n      tag_369\n      jumpi\n        /* \"foundry/src/MultiSigWallet.sol\":2754:2772  AlreadyConfirmed() */\n      mload(0x40)\n      0x5f8a9c0b00000000000000000000000000000000000000000000000000000000\n      dup2\n      mstore\n      0x04\n      add\n      mload(0x40)\n      dup1\n      swap2\n      sub\n      swap1\n      revert\n        /* \"foundry/src/MultiSigWallet.sol\":2706:2772  if (confirmations[transactionId][owner]) revert AlreadyConfirmed() */\n    tag_369:\n        /* \"foundry/src/MultiSigWallet.sol\":4889:4902  transactionId */\n      dup4\n        /* \"foundry/src/MultiSigWallet.sol\":2863:2875  transactions */\n      0x07\n        /* \"foundry/src/MultiSigWallet.sol\":2863:2890  transactions[transactionId] */\n      0x00\n        /* \"foundry/src/MultiSigWallet.sol\":2876:2889  transactionId */\n      dup3\n        /* \"foundry/src/MultiSigWallet.sol\":2863:2890  transactions[transactionId] */\n      dup2\n      mstore\n      0x20\n      add\n      swap1\n      dup2\n      mstore\n      0x20\n      add\n      0x00\n      keccak256\n        /* \"foundry/src/MultiSigWallet.sol\":2863:2899  transactions[transactionId].executed */\n      0x03\n      add\n      0x00\n      swap1\n      sload\n      swap1\n      0x0100\n      exp\n      swap1\n      div\n      0xff\n      and\n        /* \"foundry/src/MultiSigWallet.sol\":2859:2936  if (transactions[transactionId].executed) revert TransactionAlreadyExecuted() */\n      iszero\n      tag_371\n      jumpi\n        /* \"foundry/src/MultiSigWallet.sol\":2908:2936  TransactionAlreadyExecuted() */\n      mload(0x40)\n      0xdb5e659b00000000000000000000000000000000000000000000000000000000\n      dup2\n      mstore\n      0x04\n      add\n      mload(0x40)\n      dup1\n      swap2\n      sub\n      swap1\n      revert\n        /* \"foundry/src/MultiSigWallet.sol\":2859:2936  if (transactions[transactionId].executed) revert TransactionAlreadyExecuted() */\n    tag_371:\n        /* \"foundry/src/MultiSigWallet.sol\":4964:4968  true */\n      0x01\n        /* \"foundry/src/MultiSigWallet.sol\":4921:4934  confirmations */\n      0x08\n        /* \"foundry/src/MultiSigWallet.sol\":4921:4949  confirmations[transactionId] */\n      0x00\n        /* \"foundry/src/MultiSigWallet.sol\":4935:4948  transactionId */\n      dup8\n        /* \"foundry/src/MultiSigWallet.sol\":4921:4949  confirmations[transactionId] */\n      dup2\n      mstore\n      0x20\n      add\n      swap1\n      dup2\n      mstore\n      0x20\n      add\n      0x00\n      keccak256\n        /* \"foundry/src/MultiSigWallet.sol\":4921:4961  confirmations[transactionId][msg.sender] */\n      0x00\n        /* \"foundry/src/MultiSigWallet.sol\":4950:4960  msg.sender */\n      caller\n        /* \"foundry/src/MultiSigWallet.sol\":4921:4961  confirmations[transactionId][msg.sender] */\n      0xffffffffffffffffffffffffffffffffffffffff\n      and\n      0xffffffffffffffffffffffffffffffffffffffff\n      and\n      dup2\n      mstore\n      0x20\n      add\n      swap1\n      dup2\n      mstore\n      0x20\n      add\n      0x00\n      keccak256\n      0x00\n        /* \"foundry/src/MultiSigWallet.sol\":4921:4968  confirmations[transactionId][msg.sender] = true */\n      0x0100\n      exp\n      dup2\n      sload\n      dup2\n      0xff\n      mul\n      not\n      and\n      swap1\n      dup4\n      iszero\n      iszero\n      mul\n      or\n      swap1\n      sstore\n      pop\n        /* \"foundry/src/MultiSigWallet.sol\":5024:5025  1 */\n      0x01\n        /* \"foundry/src/MultiSigWallet.sol\":4979:4991  transactions */\n      0x07\n        /* \"foundry/src/MultiSigWallet.sol\":4979:5006  transactions[transactionId] */\n      0x00\n        /* \"foundry/src/MultiSigWallet.sol\":4992:5005  transactionId */\n      dup8\n        /* \"foundry/src/MultiSigWallet.sol\":4979:5006  transactions[transactionId] */\n      dup2\n      mstore\n      0x20\n      add\n      swap1\n      dup2\n      mstore\n      0x20\n      add\n      0x00\n      keccak256\n        /* \"foundry/src/MultiSigWallet.sol\":4979:5020  transactions[transactionId].confirmations */\n      0x04\n      add\n      0x00\n        /* \"foundry/src/MultiSigWallet.sol\":4979:5025  transactions[transactionId].confirmations += 1 */\n      dup3\n      dup3\n      sload\n      tag_373\n      swap2\n      swap1\n      tag_283\n      jump\t// in\n    tag_373:\n      swap3\n      pop\n      pop\n      dup2\n      swap1\n      sstore\n      pop\n        /* \"foundry/src/MultiSigWallet.sol\":5076:5089  transactionId */\n      dup5\n        /* \"foundry/src/MultiSigWallet.sol\":5064:5074  msg.sender */\n      caller\n        /* \"foundry/src/MultiSigWallet.sol\":5051:5090  Confirmation(msg.sender, transactionId) */\n      0xffffffffffffffffffffffffffffffffffffffff\n      and\n      0x4a504a94899432a9846e1aa406dceb1bcfd538bb839071d49d1e5e23f5be30ef\n      mload(0x40)\n      mload(0x40)\n      dup1\n      swap2\n      sub\n      swap1\n      log3\n        /* \"foundry/src/MultiSigWallet.sol\":2783:2784  _ */\n      pop\n        /* \"foundry/src/MultiSigWallet.sol\":2440:2441  _ */\n      pop\n      pop\n        /* \"foundry/src/MultiSigWallet.sol\":2017:2018  _ */\n      pop\n        /* \"foundry/src/MultiSigWallet.sol\":4685:5098  function confirmTransaction(uint256 transactionId) ... */\n      pop\n      jump\t// out\n        /* \"foundry/src/MultiSigWallet.sol\":3998:4673  function submitTransaction(... */\n    tag_181:\n        /* \"foundry/src/MultiSigWallet.sol\":4144:4151  uint256 */\n      0x00\n        /* \"foundry/src/MultiSigWallet.sol\":1968:1975  isOwner */\n      0x01\n        /* \"foundry/src/MultiSigWallet.sol\":1968:1987  isOwner[msg.sender] */\n      0x00\n        /* \"foundry/src/MultiSigWallet.sol\":1976:1986  msg.sender */\n      caller\n        /* \"foundry/src/MultiSigWallet.sol\":1968:1987  isOwner[msg.sender] */\n      0xffffffffffffffffffffffffffffffffffffffff\n      and\n      0xffffffffffffffffffffffffffffffffffffffff\n      and\n      dup2\n      mstore\n      0x20\n      add\n      swap1\n      dup2\n      mstore\n      0x20\n      add\n      0x00\n      keccak256\n      0x00\n      swap1\n      sload\n      swap1\n      0x0100\n      exp\n      swap1\n      div\n      0xff\n      and\n        /* \"foundry/src/MultiSigWallet.sol\":1963:2006  if (!isOwner[msg.sender]) revert NotOwner() */\n      tag_375\n      jumpi\n        /* \"foundry/src/MultiSigWallet.sol\":1996:2006  NotOwner() */\n      mload(0x40)\n      0x30cd747100000000000000000000000000000000000000000000000000000000\n      dup2\n      mstore\n      0x04\n      add\n      mload(0x40)\n      dup1\n      swap2\n      sub\n      swap1\n      revert\n        /* \"foundry/src/MultiSigWallet.sol\":1963:2006  if (!isOwner[msg.sender]) revert NotOwner() */\n    tag_375:\n        /* \"foundry/src/MultiSigWallet.sol\":4131:4133  to */\n      dup4\n        /* \"foundry/src/MultiSigWallet.sol\":3030:3031  0 */\n      0x00\n        /* \"foundry/src/MultiSigWallet.sol\":3014:3032  addr == address(0) */\n      0xffffffffffffffffffffffffffffffffffffffff\n      and\n        /* \"foundry/src/MultiSigWallet.sol\":3014:3018  addr */\n      dup2\n        /* \"foundry/src/MultiSigWallet.sol\":3014:3032  addr == address(0) */\n      0xffffffffffffffffffffffffffffffffffffffff\n      and\n      sub\n        /* \"foundry/src/MultiSigWallet.sol\":3010:3054  if (addr == address(0)) revert ZeroAddress() */\n      tag_377\n      jumpi\n        /* \"foundry/src/MultiSigWallet.sol\":3041:3054  ZeroAddress() */\n      mload(0x40)\n      0xd92e233d00000000000000000000000000000000000000000000000000000000\n      dup2\n      mstore\n      0x04\n      add\n      mload(0x40)\n      dup1\n      swap2\n      sub\n      swap1\n      revert\n        /* \"foundry/src/MultiSigWallet.sol\":3010:3054  if (addr == address(0)) revert ZeroAddress() */\n    tag_377:\n        /* \"foundry/src/MultiSigWallet.sol\":4164:4185  uint256 transactionId */\n      0x00\n        /* \"foundry/src/MultiSigWallet.sol\":4188:4204  transactionCount */\n      sload(0x03)\n        /* \"foundry/src/MultiSigWallet.sol\":4164:4204  uint256 transactionId = transactionCount */\n      swap1\n      pop\n        /* \"foundry/src/MultiSigWallet.sol\":4255:4413  Transaction({... */\n      mload(0x40)\n      dup1\n      0xa0\n      add\n      0x40\n      mstore\n      dup1\n        /* \"foundry/src/MultiSigWallet.sol\":4286:4288  to */\n      dup8\n        /* \"foundry/src/MultiSigWallet.sol\":4255:4413  Transaction({... */\n      0xffffffffffffffffffffffffffffffffffffffff\n      and\n      dup2\n      mstore\n      0x20\n      add\n        /* \"foundry/src/MultiSigWallet.sol\":4310:4315  value */\n      dup7\n        /* \"foundry/src/MultiSigWallet.sol\":4255:4413  Transaction({... */\n      dup2\n      mstore\n      0x20\n      add\n        /* \"foundry/src/MultiSigWallet.sol\":4336:4340  data */\n      dup6\n        /* \"foundry/src/MultiSigWallet.sol\":4255:4413  Transaction({... */\n      dup2\n      mstore\n      0x20\n      add\n        /* \"foundry/src/MultiSigWallet.sol\":4365:4370  false */\n      0x00\n        /* \"foundry/src/MultiSigWallet.sol\":4255:4413  Transaction({... */\n      iszero\n      iszero\n      dup2\n      mstore\n      0x20\n      add\n        /* \"foundry/src/MultiSigWallet.sol\":4400:4401  0 */\n      0x00\n        /* \"foundry/src/MultiSigWallet.sol\":4255:4413  Transaction({... */\n      dup2\n      mstore\n      pop\n        /* \"foundry/src/MultiSigWallet.sol\":4225:4237  transactions */\n      0x07\n        /* \"foundry/src/MultiSigWallet.sol\":4225:4252  transactions[transactionId] */\n      0x00\n        /* \"foundry/src/MultiSigWallet.sol\":4238:4251  transactionId */\n      dup4\n        /* \"foundry/src/MultiSigWallet.sol\":4225:4252  transactions[transactionId] */\n      dup2\n      mstore\n      0x20\n      add\n      swap1\n      dup2\n      mstore\n      0x20\n      add\n      0x00\n      keccak256\n        /* \"foundry/src/MultiSigWallet.sol\":4225:4413  transactions[transactionId] = Transaction({... */\n      0x00\n      dup3\n      add\n      mload\n      dup2\n      0x00\n      add\n      exp(0x0100, 0x00)\n      dup2\n      sload\n      dup2\n      0xffffffffffffffffffffffffffffffffffffffff\n      mul\n      not\n      and\n      swap1\n      dup4\n      0xffffffffffffffffffffffffffffffffffffffff\n      and\n      mul\n      or\n      swap1\n      sstore\n      pop\n      0x20\n      dup3\n      add\n      mload\n      dup2\n      0x01\n      add\n      sstore\n      0x40\n      dup3\n      add\n      mload\n      dup2\n      0x02\n      add\n      swap1\n      dup2\n      tag_379\n      swap2\n      swap1\n      tag_380\n      jump\t// in\n    tag_379:\n      pop\n      0x60\n      dup3\n      add\n      mload\n      dup2\n      0x03\n      add\n      exp(0x0100, 0x00)\n      dup2\n      sload\n      dup2\n      0xff\n      mul\n      not\n      and\n      swap1\n      dup4\n      iszero\n      iszero\n      mul\n      or\n      swap1\n      sstore\n      pop\n      0x80\n      dup3\n      add\n      mload\n      dup2\n      0x04\n      add\n      sstore\n      swap1\n      pop\n      pop\n        /* \"foundry/src/MultiSigWallet.sol\":4454:4455  1 */\n      0x01\n        /* \"foundry/src/MultiSigWallet.sol\":4434:4450  transactionCount */\n      0x03\n      0x00\n        /* \"foundry/src/MultiSigWallet.sol\":4434:4455  transactionCount += 1 */\n      dup3\n      dup3\n      sload\n      tag_381\n      swap2\n      swap1\n      tag_283\n      jump\t// in\n    tag_381:\n      swap3\n      pop\n      pop\n      dup2\n      swap1\n      sstore\n      pop\n        /* \"foundry/src/MultiSigWallet.sol\":4515:4529  executionDelay */\n      sload(0x0c)\n        /* \"foundry/src/MultiSigWallet.sol\":4497:4512  block.timestamp */\n      timestamp\n        /* \"foundry/src/MultiSigWallet.sol\":4497:4529  block.timestamp + executionDelay */\n      tag_382\n      swap2\n      swap1\n      tag_283\n      jump\t// in\n    tag_382:\n        /* \"foundry/src/MultiSigWallet.sol\":4466:4479  executionTime */\n      0x0b\n        /* \"foundry/src/MultiSigWallet.sol\":4466:4494  executionTime[transactionId] */\n      0x00\n        /* \"foundry/src/MultiSigWallet.sol\":4480:4493  transactionId */\n      dup4\n        /* \"foundry/src/MultiSigWallet.sol\":4466:4494  executionTime[transactionId] */\n      dup2\n      mstore\n      0x20\n      add\n      swap1\n      dup2\n      mstore\n      0x20\n      add\n      0x00\n      keccak256\n        /* \"foundry/src/MultiSigWallet.sol\":4466:4529  executionTime[transactionId] = block.timestamp + executionDelay */\n      dup2\n      swap1\n      sstore\n      pop\n        /* \"foundry/src/MultiSigWallet.sol\":4566:4579  transactionId */\n      dup1\n        /* \"foundry/src/MultiSigWallet.sol\":4555:4580  Submission(transactionId) */\n      0xc0ba8fe4b176c1714197d43b9cc6bcf797a4a7461c5fe8d0ef6e184ae7601e51\n      mload(0x40)\n      mload(0x40)\n      dup1\n      swap2\n      sub\n      swap1\n      log2\n        /* \"foundry/src/MultiSigWallet.sol\":4591:4624  confirmTransaction(transactionId) */\n      tag_383\n        /* \"foundry/src/MultiSigWallet.sol\":4610:4623  transactionId */\n      dup2\n        /* \"foundry/src/MultiSigWallet.sol\":4591:4609  confirmTransaction */\n      tag_176\n        /* \"foundry/src/MultiSigWallet.sol\":4591:4624  confirmTransaction(transactionId) */\n      jump\t// in\n    tag_383:\n        /* \"foundry/src/MultiSigWallet.sol\":4652:4665  transactionId */\n      dup1\n        /* \"foundry/src/MultiSigWallet.sol\":4645:4665  return transactionId */\n      swap3\n      pop\n      pop\n        /* \"foundry/src/MultiSigWallet.sol\":2017:2018  _ */\n      pop\n        /* \"foundry/src/MultiSigWallet.sol\":3998:4673  function submitTransaction(... */\n      swap4\n      swap3\n      pop\n      pop\n      pop\n      jump\t// out\n        /* \"foundry/src/MultiSigWallet.sol\":784:832  mapping(uint256 => uint256) public executionTime */\n    tag_186:\n      mstore(0x20, 0x0b)\n      dup1\n      0x00\n      mstore\n      keccak256(0x00, 0x40)\n      0x00\n      swap2\n      pop\n      swap1\n      pop\n      sload\n      dup2\n      jump\t// out\n        /* \"foundry/src/MultiSigWallet.sol\":192:215  uint256 public required */\n    tag_190:\n      sload(0x02)\n      dup2\n      jump\t// out\n        /* \"foundry/src/MultiSigWallet.sol\":5110:6145  function executeTransaction(uint256 transactionId) ... */\n    tag_195:\n        /* \"foundry/src/MultiSigWallet.sol\":1968:1975  isOwner */\n      0x01\n        /* \"foundry/src/MultiSigWallet.sol\":1968:1987  isOwner[msg.sender] */\n      0x00\n        /* \"foundry/src/MultiSigWallet.sol\":1976:1986  msg.sender */\n      caller\n        /* \"foundry/src/MultiSigWallet.sol\":1968:1987  isOwner[msg.sender] */\n      0xffffffffffffffffffffffffffffffffffffffff\n      and\n      0xffffffffffffffffffffffffffffffffffffffff\n      and\n      dup2\n      mstore\n      0x20\n      add\n      swap1\n      dup2\n      mstore\n      0x20\n      add\n      0x00\n      keccak256\n      0x00\n      swap1\n      sload\n      swap1\n      0x0100\n      exp\n      swap1\n      div\n      0xff\n      and\n        /* \"foundry/src/MultiSigWallet.sol\":1963:2006  if (!isOwner[msg.sender]) revert NotOwner() */\n      tag_385\n      jumpi\n        /* \"foundry/src/MultiSigWallet.sol\":1996:2006  NotOwner() */\n      mload(0x40)\n      0x30cd747100000000000000000000000000000000000000000000000000000000\n      dup2\n      mstore\n      0x04\n      add\n      mload(0x40)\n      dup1\n      swap2\n      sub\n      swap1\n      revert\n        /* \"foundry/src/MultiSigWallet.sol\":1963:2006  if (!isOwner[msg.sender]) revert NotOwner() */\n    tag_385:\n        /* \"foundry/src/MultiSigWallet.sol\":5227:5240  transactionId */\n      dup1\n        /* \"foundry/src/MultiSigWallet.sol\":2389:2390  0 */\n      0x00\n        /* \"foundry/src/MultiSigWallet.sol\":2347:2391  transactions[transactionId].to == address(0) */\n      0xffffffffffffffffffffffffffffffffffffffff\n      and\n        /* \"foundry/src/MultiSigWallet.sol\":2347:2359  transactions */\n      0x07\n        /* \"foundry/src/MultiSigWallet.sol\":2347:2374  transactions[transactionId] */\n      0x00\n        /* \"foundry/src/MultiSigWallet.sol\":2360:2373  transactionId */\n      dup4\n        /* \"foundry/src/MultiSigWallet.sol\":2347:2374  transactions[transactionId] */\n      dup2\n      mstore\n      0x20\n      add\n      swap1\n      dup2\n      mstore\n      0x20\n      add\n      0x00\n      keccak256\n        /* \"foundry/src/MultiSigWallet.sol\":2347:2377  transactions[transactionId].to */\n      0x00\n      add\n      0x00\n      swap1\n      sload\n      swap1\n      0x0100\n      exp\n      swap1\n      div\n      0xffffffffffffffffffffffffffffffffffffffff\n      and\n        /* \"foundry/src/MultiSigWallet.sol\":2347:2391  transactions[transactionId].to == address(0) */\n      0xffffffffffffffffffffffffffffffffffffffff\n      and\n      sub\n        /* \"foundry/src/MultiSigWallet.sol\":2343:2429  if (transactions[transactionId].to == address(0)) revert(\"Transaction does not exist\") */\n      tag_387\n      jumpi\n        /* \"foundry/src/MultiSigWallet.sol\":2393:2429  revert(\"Transaction does not exist\") */\n      mload(0x40)\n      0x08c379a000000000000000000000000000000000000000000000000000000000\n      dup2\n      mstore\n      0x04\n      add\n      tag_388\n      swap1\n      tag_257\n      jump\t// in\n    tag_388:\n      mload(0x40)\n      dup1\n      swap2\n      sub\n      swap1\n      revert\n        /* \"foundry/src/MultiSigWallet.sol\":2343:2429  if (transactions[transactionId].to == address(0)) revert(\"Transaction does not exist\") */\n    tag_387:\n        /* \"foundry/src/MultiSigWallet.sol\":5264:5277  transactionId */\n      dup2\n        /* \"foundry/src/MultiSigWallet.sol\":2863:2875  transactions */\n      0x07\n        /* \"foundry/src/MultiSigWallet.sol\":2863:2890  transactions[transactionId] */\n      0x00\n        /* \"foundry/src/MultiSigWallet.sol\":2876:2889  transactionId */\n      dup3\n        /* \"foundry/src/MultiSigWallet.sol\":2863:2890  transactions[transactionId] */\n      dup2\n      mstore\n      0x20\n      add\n      swap1\n      dup2\n      mstore\n      0x20\n      add\n      0x00\n      keccak256\n        /* \"foundry/src/MultiSigWallet.sol\":2863:2899  transactions[transactionId].executed */\n      0x03\n      add\n      0x00\n      swap1\n      sload\n      swap1\n      0x0100\n      exp\n      swap1\n      div\n      0xff\n      and\n        /* \"foundry/src/MultiSigWallet.sol\":2859:2936  if (transactions[transactionId].executed) revert TransactionAlreadyExecuted() */\n      iszero\n      tag_390\n      jumpi\n        /* \"foundry/src/MultiSigWallet.sol\":2908:2936  TransactionAlreadyExecuted() */\n      mload(0x40)\n      0xdb5e659b00000000000000000000000000000000000000000000000000000000\n      dup2\n      mstore\n      0x04\n      add\n      mload(0x40)\n      dup1\n      swap2\n      sub\n      swap1\n      revert\n        /* \"foundry/src/MultiSigWallet.sol\":2859:2936  if (transactions[transactionId].executed) revert TransactionAlreadyExecuted() */\n    tag_390:\n        /* \"foundry/src/MultiSigWallet.sol\":5296:5319  Transaction storage txn */\n      0x00\n        /* \"foundry/src/MultiSigWallet.sol\":5322:5334  transactions */\n      0x07\n        /* \"foundry/src/MultiSigWallet.sol\":5322:5349  transactions[transactionId] */\n      0x00\n        /* \"foundry/src/MultiSigWallet.sol\":5335:5348  transactionId */\n      dup6\n        /* \"foundry/src/MultiSigWallet.sol\":5322:5349  transactions[transactionId] */\n      dup2\n      mstore\n      0x20\n      add\n      swap1\n      dup2\n      mstore\n      0x20\n      add\n      0x00\n      keccak256\n        /* \"foundry/src/MultiSigWallet.sol\":5296:5349  Transaction storage txn = transactions[transactionId] */\n      swap1\n      pop\n        /* \"foundry/src/MultiSigWallet.sol\":5426:5434  required */\n      sload(0x02)\n        /* \"foundry/src/MultiSigWallet.sol\":5406:5409  txn */\n      dup2\n        /* \"foundry/src/MultiSigWallet.sol\":5406:5423  txn.confirmations */\n      0x04\n      add\n      sload\n        /* \"foundry/src/MultiSigWallet.sol\":5406:5434  txn.confirmations < required */\n      lt\n        /* \"foundry/src/MultiSigWallet.sol\":5402:5470  if (txn.confirmations < required) revert InsufficientConfirmations() */\n      iszero\n      tag_392\n      jumpi\n        /* \"foundry/src/MultiSigWallet.sol\":5443:5470  InsufficientConfirmations() */\n      mload(0x40)\n      0xe16db4b300000000000000000000000000000000000000000000000000000000\n      dup2\n      mstore\n      0x04\n      add\n      mload(0x40)\n      dup1\n      swap2\n      sub\n      swap1\n      revert\n        /* \"foundry/src/MultiSigWallet.sol\":5402:5470  if (txn.confirmations < required) revert InsufficientConfirmations() */\n    tag_392:\n        /* \"foundry/src/MultiSigWallet.sol\":5541:5554  executionTime */\n      0x0b\n        /* \"foundry/src/MultiSigWallet.sol\":5541:5569  executionTime[transactionId] */\n      0x00\n        /* \"foundry/src/MultiSigWallet.sol\":5555:5568  transactionId */\n      dup6\n        /* \"foundry/src/MultiSigWallet.sol\":5541:5569  executionTime[transactionId] */\n      dup2\n      mstore\n      0x20\n      add\n      swap1\n      dup2\n      mstore\n      0x20\n      add\n      0x00\n      keccak256\n      sload\n        /* \"foundry/src/MultiSigWallet.sol\":5523:5538  block.timestamp */\n      timestamp\n        /* \"foundry/src/MultiSigWallet.sol\":5523:5569  block.timestamp < executionTime[transactionId] */\n      lt\n        /* \"foundry/src/MultiSigWallet.sol\":5519:5603  if (block.timestamp < executionTime[transactionId]) revert ExecutionTimeNotReached() */\n      iszero\n      tag_393\n      jumpi\n        /* \"foundry/src/MultiSigWallet.sol\":5578:5603  ExecutionTimeNotReached() */\n      mload(0x40)\n      0xc53af06600000000000000000000000000000000000000000000000000000000\n      dup2\n      mstore\n      0x04\n      add\n      mload(0x40)\n      dup1\n      swap2\n      sub\n      swap1\n      revert\n        /* \"foundry/src/MultiSigWallet.sol\":5519:5603  if (block.timestamp < executionTime[transactionId]) revert ExecutionTimeNotReached() */\n    tag_393:\n        /* \"foundry/src/MultiSigWallet.sol\":5654:5673  _updateDailySpent() */\n      tag_394\n        /* \"foundry/src/MultiSigWallet.sol\":5654:5671  _updateDailySpent */\n      tag_395\n        /* \"foundry/src/MultiSigWallet.sol\":5654:5673  _updateDailySpent() */\n      jump\t// in\n    tag_394:\n        /* \"foundry/src/MultiSigWallet.sol\":5713:5723  dailyLimit */\n      sload(0x04)\n        /* \"foundry/src/MultiSigWallet.sol\":5701:5704  txn */\n      dup2\n        /* \"foundry/src/MultiSigWallet.sol\":5701:5710  txn.value */\n      0x01\n      add\n      sload\n        /* \"foundry/src/MultiSigWallet.sol\":5688:5698  spentToday */\n      sload(0x05)\n        /* \"foundry/src/MultiSigWallet.sol\":5688:5710  spentToday + txn.value */\n      tag_396\n      swap2\n      swap1\n      tag_283\n      jump\t// in\n    tag_396:\n        /* \"foundry/src/MultiSigWallet.sol\":5688:5723  spentToday + txn.value > dailyLimit */\n      gt\n        /* \"foundry/src/MultiSigWallet.sol\":5684:5752  if (spentToday + txn.value > dailyLimit) revert DailyLimitExceeded() */\n      iszero\n      tag_397\n      jumpi\n        /* \"foundry/src/MultiSigWallet.sol\":5732:5752  DailyLimitExceeded() */\n      mload(0x40)\n      0x194bd31400000000000000000000000000000000000000000000000000000000\n      dup2\n      mstore\n      0x04\n      add\n      mload(0x40)\n      dup1\n      swap2\n      sub\n      swap1\n      revert\n        /* \"foundry/src/MultiSigWallet.sol\":5684:5752  if (spentToday + txn.value > dailyLimit) revert DailyLimitExceeded() */\n    tag_397:\n        /* \"foundry/src/MultiSigWallet.sol\":5820:5824  true */\n      0x01\n        /* \"foundry/src/MultiSigWallet.sol\":5805:5808  txn */\n      dup2\n        /* \"foundry/src/MultiSigWallet.sol\":5805:5817  txn.executed */\n      0x03\n      add\n      0x00\n        /* \"foundry/src/MultiSigWallet.sol\":5805:5824  txn.executed = true */\n      0x0100\n      exp\n      dup2\n      sload\n      dup2\n      0xff\n      mul\n      not\n      and\n      swap1\n      dup4\n      iszero\n      iszero\n      mul\n      or\n      swap1\n      sstore\n      pop\n        /* \"foundry/src/MultiSigWallet.sol\":5849:5852  txn */\n      dup1\n        /* \"foundry/src/MultiSigWallet.sol\":5849:5858  txn.value */\n      0x01\n      add\n      sload\n        /* \"foundry/src/MultiSigWallet.sol\":5835:5845  spentToday */\n      0x05\n      0x00\n        /* \"foundry/src/MultiSigWallet.sol\":5835:5858  spentToday += txn.value */\n      dup3\n      dup3\n      sload\n      tag_398\n      swap2\n      swap1\n      tag_283\n      jump\t// in\n    tag_398:\n      swap3\n      pop\n      pop\n      dup2\n      swap1\n      sstore\n      pop\n        /* \"foundry/src/MultiSigWallet.sol\":5880:5892  bool success */\n      0x00\n        /* \"foundry/src/MultiSigWallet.sol\":5898:5901  txn */\n      dup2\n        /* \"foundry/src/MultiSigWallet.sol\":5898:5904  txn.to */\n      0x00\n      add\n      0x00\n      swap1\n      sload\n      swap1\n      0x0100\n      exp\n      swap1\n      div\n      0xffffffffffffffffffffffffffffffffffffffff\n      and\n        /* \"foundry/src/MultiSigWallet.sol\":5898:5909  txn.to.call */\n      0xffffffffffffffffffffffffffffffffffffffff\n      and\n        /* \"foundry/src/MultiSigWallet.sol\":5917:5920  txn */\n      dup3\n        /* \"foundry/src/MultiSigWallet.sol\":5917:5926  txn.value */\n      0x01\n      add\n      sload\n        /* \"foundry/src/MultiSigWallet.sol\":5928:5931  txn */\n      dup4\n        /* \"foundry/src/MultiSigWallet.sol\":5928:5936  txn.data */\n      0x02\n      add\n        /* \"foundry/src/MultiSigWallet.sol\":5898:5937  txn.to.call{value: txn.value}(txn.data) */\n      mload(0x40)\n      tag_399\n      swap2\n      swap1\n      tag_400\n      jump\t// in\n    tag_399:\n      0x00\n      mload(0x40)\n      dup1\n      dup4\n      sub\n      dup2\n      dup6\n      dup8\n      gas\n      call\n      swap3\n      pop\n      pop\n      pop\n      returndatasize\n      dup1\n      0x00\n      dup2\n      eq\n      tag_403\n      jumpi\n      mload(0x40)\n      swap2\n      pop\n      and(add(returndatasize, 0x3f), not(0x1f))\n      dup3\n      add\n      0x40\n      mstore\n      returndatasize\n      dup3\n      mstore\n      returndatasize\n      0x00\n      0x20\n      dup5\n      add\n      returndatacopy\n      jump(tag_402)\n    tag_403:\n      0x60\n      swap2\n      pop\n    tag_402:\n      pop\n        /* \"foundry/src/MultiSigWallet.sol\":5879:5937  (bool success, ) = txn.to.call{value: txn.value}(txn.data) */\n      pop\n      swap1\n      pop\n        /* \"foundry/src/MultiSigWallet.sol\":5953:5960  success */\n      dup1\n        /* \"foundry/src/MultiSigWallet.sol\":5948:6088  if (!success) {... */\n      tag_404\n      jumpi\n        /* \"foundry/src/MultiSigWallet.sol\":5992:5997  false */\n      0x00\n        /* \"foundry/src/MultiSigWallet.sol\":5977:5980  txn */\n      dup3\n        /* \"foundry/src/MultiSigWallet.sol\":5977:5989  txn.executed */\n      0x03\n      add\n      0x00\n        /* \"foundry/src/MultiSigWallet.sol\":5977:5997  txn.executed = false */\n      0x0100\n      exp\n      dup2\n      sload\n      dup2\n      0xff\n      mul\n      not\n      and\n      swap1\n      dup4\n      iszero\n      iszero\n      mul\n      or\n      swap1\n      sstore\n      pop\n        /* \"foundry/src/MultiSigWallet.sol\":6026:6029  txn */\n      dup2\n        /* \"foundry/src/MultiSigWallet.sol\":6026:6035  txn.value */\n      0x01\n      add\n      sload\n        /* \"foundry/src/MultiSigWallet.sol\":6012:6022  spentToday */\n      0x05\n      0x00\n        /* \"foundry/src/MultiSigWallet.sol\":6012:6035  spentToday -= txn.value */\n      dup3\n      dup3\n      sload\n      tag_405\n      swap2\n      swap1\n      tag_217\n      jump\t// in\n    tag_405:\n      swap3\n      pop\n      pop\n      dup2\n      swap1\n      sstore\n      pop\n        /* \"foundry/src/MultiSigWallet.sol\":6057:6076  TransactionFailed() */\n      mload(0x40)\n      0xbf961a2800000000000000000000000000000000000000000000000000000000\n      dup2\n      mstore\n      0x04\n      add\n      mload(0x40)\n      dup1\n      swap2\n      sub\n      swap1\n      revert\n        /* \"foundry/src/MultiSigWallet.sol\":5948:6088  if (!success) {... */\n    tag_404:\n        /* \"foundry/src/MultiSigWallet.sol\":6123:6136  transactionId */\n      dup5\n        /* \"foundry/src/MultiSigWallet.sol\":6113:6137  Execution(transactionId) */\n      0x33e13ecb54c3076d8e8bb8c2881800a4d972b792045ffae98fdf46df365fed75\n      mload(0x40)\n      mload(0x40)\n      dup1\n      swap2\n      sub\n      swap1\n      log2\n        /* \"foundry/src/MultiSigWallet.sol\":5285:6145  {... */\n      pop\n      pop\n        /* \"foundry/src/MultiSigWallet.sol\":2440:2441  _ */\n      pop\n        /* \"foundry/src/MultiSigWallet.sol\":2017:2018  _ */\n      pop\n        /* \"foundry/src/MultiSigWallet.sol\":5110:6145  function executeTransaction(uint256 transactionId) ... */\n      pop\n      jump\t// out\n        /* \"foundry/src/MultiSigWallet.sol\":292:317  uint256 public spentToday */\n    tag_198:\n      sload(0x05)\n      dup2\n      jump\t// out\n        /* \"foundry/src/MultiSigWallet.sol\":6554:6764  function _updateDailySpent() internal {... */\n    tag_395:\n        /* \"foundry/src/MultiSigWallet.sol\":6635:6643  24 hours */\n      0x015180\n        /* \"foundry/src/MultiSigWallet.sol\":6625:6632  lastDay */\n      sload(0x06)\n        /* \"foundry/src/MultiSigWallet.sol\":6625:6643  lastDay + 24 hours */\n      tag_407\n      swap2\n      swap1\n      tag_283\n      jump\t// in\n    tag_407:\n        /* \"foundry/src/MultiSigWallet.sol\":6607:6622  block.timestamp */\n      timestamp\n        /* \"foundry/src/MultiSigWallet.sol\":6607:6643  block.timestamp > lastDay + 24 hours */\n      gt\n        /* \"foundry/src/MultiSigWallet.sol\":6603:6757  if (block.timestamp > lastDay + 24 hours) {... */\n      iszero\n      tag_408\n      jumpi\n        /* \"foundry/src/MultiSigWallet.sol\":6673:6674  0 */\n      0x00\n        /* \"foundry/src/MultiSigWallet.sol\":6660:6670  spentToday */\n      0x05\n        /* \"foundry/src/MultiSigWallet.sol\":6660:6674  spentToday = 0 */\n      dup2\n      swap1\n      sstore\n      pop\n        /* \"foundry/src/MultiSigWallet.sol\":6736:6744  24 hours */\n      0x015180\n        /* \"foundry/src/MultiSigWallet.sol\":6718:6733  block.timestamp */\n      timestamp\n        /* \"foundry/src/MultiSigWallet.sol\":6718:6744  block.timestamp % 24 hours */\n      tag_409\n      swap2\n      swap1\n      tag_410\n      jump\t// in\n    tag_409:\n        /* \"foundry/src/MultiSigWallet.sol\":6699:6714  block.timestamp */\n      timestamp\n        /* \"foundry/src/MultiSigWallet.sol\":6699:6745  block.timestamp - (block.timestamp % 24 hours) */\n      tag_411\n      swap2\n      swap1\n      tag_217\n      jump\t// in\n    tag_411:\n        /* \"foundry/src/MultiSigWallet.sol\":6689:6696  lastDay */\n      0x06\n        /* \"foundry/src/MultiSigWallet.sol\":6689:6745  lastDay = block.timestamp - (block.timestamp % 24 hours) */\n      dup2\n      swap1\n      sstore\n      pop\n        /* \"foundry/src/MultiSigWallet.sol\":6603:6757  if (block.timestamp > lastDay + 24 hours) {... */\n    tag_408:\n        /* \"foundry/src/MultiSigWallet.sol\":6554:6764  function _updateDailySpent() internal {... */\n      jump\t// out\n    tag_251:\n      dup3\n      dup1\n      sload\n      dup3\n      dup3\n      sstore\n      swap1\n      0x00\n      mstore\n      keccak256(0x00, 0x20)\n      swap1\n      dup2\n      add\n      swap3\n      dup3\n      iszero\n      tag_412\n      jumpi\n      swap2\n      0x20\n      mul\n      dup3\n      add\n    tag_413:\n      dup3\n      dup2\n      gt\n      iszero\n      tag_414\n      jumpi\n      dup3\n      mload\n      dup3\n      exp(0x0100, 0x00)\n      dup2\n      sload\n      dup2\n      0xffffffffffffffffffffffffffffffffffffffff\n      mul\n      not\n      and\n      swap1\n      dup4\n      0xffffffffffffffffffffffffffffffffffffffff\n      and\n      mul\n      or\n      swap1\n      sstore\n      pop\n      swap2\n      0x20\n      add\n      swap2\n      swap1\n      0x01\n      add\n      swap1\n      jump(tag_413)\n    tag_414:\n    tag_412:\n      pop\n      swap1\n      pop\n      tag_415\n      swap2\n      swap1\n      tag_416\n      jump\t// in\n    tag_415:\n      pop\n      swap1\n      jump\t// out\n    tag_416:\n    tag_417:\n      dup1\n      dup3\n      gt\n      iszero\n      tag_418\n      jumpi\n      0x00\n      dup2\n      0x00\n      swap1\n      sstore\n      pop\n      0x01\n      add\n      jump(tag_417)\n    tag_418:\n      pop\n      swap1\n      jump\t// out\n        /* \"#utility.yul\":7:84   */\n    tag_419:\n        /* \"#utility.yul\":44:51   */\n      0x00\n        /* \"#utility.yul\":73:78   */\n      dup2\n        /* \"#utility.yul\":62:78   */\n      swap1\n      pop\n        /* \"#utility.yul\":7:84   */\n      swap2\n      swap1\n      pop\n      jump\t// out\n        /* \"#utility.yul\":90:208   */\n    tag_420:\n        /* \"#utility.yul\":177:201   */\n      tag_503\n        /* \"#utility.yul\":195:200   */\n      dup2\n        /* \"#utility.yul\":177:201   */\n      tag_419\n      jump\t// in\n    tag_503:\n        /* \"#utility.yul\":172:175   */\n      dup3\n        /* \"#utility.yul\":165:202   */\n      mstore\n        /* \"#utility.yul\":90:208   */\n      pop\n      pop\n      jump\t// out\n        /* \"#utility.yul\":214:436   */\n    tag_47:\n        /* \"#utility.yul\":307:311   */\n      0x00\n        /* \"#utility.yul\":345:347   */\n      0x20\n        /* \"#utility.yul\":334:343   */\n      dup3\n        /* \"#utility.yul\":330:348   */\n      add\n        /* \"#utility.yul\":322:348   */\n      swap1\n      pop\n        /* \"#utility.yul\":358:429   */\n      tag_505\n        /* \"#utility.yul\":426:427   */\n      0x00\n        /* \"#utility.yul\":415:424   */\n      dup4\n        /* \"#utility.yul\":411:428   */\n      add\n        /* \"#utility.yul\":402:408   */\n      dup5\n        /* \"#utility.yul\":358:429   */\n      tag_420\n      jump\t// in\n    tag_505:\n        /* \"#utility.yul\":214:436   */\n      swap3\n      swap2\n      pop\n      pop\n      jump\t// out\n        /* \"#utility.yul\":442:517   */\n    tag_421:\n        /* \"#utility.yul\":475:481   */\n      0x00\n        /* \"#utility.yul\":508:510   */\n      0x40\n        /* \"#utility.yul\":502:511   */\n      mload\n        /* \"#utility.yul\":492:511   */\n      swap1\n      pop\n        /* \"#utility.yul\":442:517   */\n      swap1\n      jump\t// out\n        /* \"#utility.yul\":523:640   */\n    tag_422:\n        /* \"#utility.yul\":632:633   */\n      0x00\n        /* \"#utility.yul\":629:630   */\n      0x00\n        /* \"#utility.yul\":622:634   */\n      revert\n        /* \"#utility.yul\":646:763   */\n    tag_423:\n        /* \"#utility.yul\":755:756   */\n      0x00\n        /* \"#utility.yul\":752:753   */\n      0x00\n        /* \"#utility.yul\":745:757   */\n      revert\n        /* \"#utility.yul\":769:891   */\n    tag_424:\n        /* \"#utility.yul\":842:866   */\n      tag_510\n        /* \"#utility.yul\":860:865   */\n      dup2\n        /* \"#utility.yul\":842:866   */\n      tag_419\n      jump\t// in\n    tag_510:\n        /* \"#utility.yul\":835:840   */\n      dup2\n        /* \"#utility.yul\":832:867   */\n      eq\n        /* \"#utility.yul\":822:885   */\n      tag_511\n      jumpi\n        /* \"#utility.yul\":881:882   */\n      0x00\n        /* \"#utility.yul\":878:879   */\n      0x00\n        /* \"#utility.yul\":871:883   */\n      revert\n        /* \"#utility.yul\":822:885   */\n    tag_511:\n        /* \"#utility.yul\":769:891   */\n      pop\n      jump\t// out\n        /* \"#utility.yul\":897:1036   */\n    tag_425:\n        /* \"#utility.yul\":943:948   */\n      0x00\n        /* \"#utility.yul\":981:987   */\n      dup2\n        /* \"#utility.yul\":968:988   */\n      calldataload\n        /* \"#utility.yul\":959:988   */\n      swap1\n      pop\n        /* \"#utility.yul\":997:1030   */\n      tag_513\n        /* \"#utility.yul\":1024:1029   */\n      dup2\n        /* \"#utility.yul\":997:1030   */\n      tag_424\n      jump\t// in\n    tag_513:\n        /* \"#utility.yul\":897:1036   */\n      swap3\n      swap2\n      pop\n      pop\n      jump\t// out\n        /* \"#utility.yul\":1042:1371   */\n    tag_51:\n        /* \"#utility.yul\":1101:1107   */\n      0x00\n        /* \"#utility.yul\":1150:1152   */\n      0x20\n        /* \"#utility.yul\":1138:1147   */\n      dup3\n        /* \"#utility.yul\":1129:1136   */\n      dup5\n        /* \"#utility.yul\":1125:1148   */\n      sub\n        /* \"#utility.yul\":1121:1153   */\n      slt\n        /* \"#utility.yul\":1118:1237   */\n      iszero\n      tag_515\n      jumpi\n        /* \"#utility.yul\":1156:1235   */\n      tag_516\n      tag_422\n      jump\t// in\n    tag_516:\n        /* \"#utility.yul\":1118:1237   */\n    tag_515:\n        /* \"#utility.yul\":1276:1277   */\n      0x00\n        /* \"#utility.yul\":1301:1354   */\n      tag_517\n        /* \"#utility.yul\":1346:1353   */\n      dup5\n        /* \"#utility.yul\":1337:1343   */\n      dup3\n        /* \"#utility.yul\":1326:1335   */\n      dup6\n        /* \"#utility.yul\":1322:1344   */\n      add\n        /* \"#utility.yul\":1301:1354   */\n      tag_425\n      jump\t// in\n    tag_517:\n        /* \"#utility.yul\":1291:1354   */\n      swap2\n      pop\n        /* \"#utility.yul\":1247:1364   */\n      pop\n        /* \"#utility.yul\":1042:1371   */\n      swap3\n      swap2\n      pop\n      pop\n      jump\t// out\n        /* \"#utility.yul\":1377:1503   */\n    tag_426:\n        /* \"#utility.yul\":1414:1421   */\n      0x00\n        /* \"#utility.yul\":1454:1496   */\n      0xffffffffffffffffffffffffffffffffffffffff\n        /* \"#utility.yul\":1447:1452   */\n      dup3\n        /* \"#utility.yul\":1443:1497   */\n      and\n        /* \"#utility.yul\":1432:1497   */\n      swap1\n      pop\n        /* \"#utility.yul\":1377:1503   */\n      swap2\n      swap1\n      pop\n      jump\t// out\n        /* \"#utility.yul\":1509:1605   */\n    tag_427:\n        /* \"#utility.yul\":1546:1553   */\n      0x00\n        /* \"#utility.yul\":1575:1599   */\n      tag_520\n        /* \"#utility.yul\":1593:1598   */\n      dup3\n        /* \"#utility.yul\":1575:1599   */\n      tag_426\n      jump\t// in\n    tag_520:\n        /* \"#utility.yul\":1564:1599   */\n      swap1\n      pop\n        /* \"#utility.yul\":1509:1605   */\n      swap2\n      swap1\n      pop\n      jump\t// out\n        /* \"#utility.yul\":1611:1729   */\n    tag_428:\n        /* \"#utility.yul\":1698:1722   */\n      tag_522\n        /* \"#utility.yul\":1716:1721   */\n      dup2\n        /* \"#utility.yul\":1698:1722   */\n      tag_427\n      jump\t// in\n    tag_522:\n        /* \"#utility.yul\":1693:1696   */\n      dup3\n        /* \"#utility.yul\":1686:1723   */\n      mstore\n        /* \"#utility.yul\":1611:1729   */\n      pop\n      pop\n      jump\t// out\n        /* \"#utility.yul\":1735:1957   */\n    tag_54:\n        /* \"#utility.yul\":1828:1832   */\n      0x00\n        /* \"#utility.yul\":1866:1868   */\n      0x20\n        /* \"#utility.yul\":1855:1864   */\n      dup3\n        /* \"#utility.yul\":1851:1869   */\n      add\n        /* \"#utility.yul\":1843:1869   */\n      swap1\n      pop\n        /* \"#utility.yul\":1879:1950   */\n      tag_524\n        /* \"#utility.yul\":1947:1948   */\n      0x00\n        /* \"#utility.yul\":1936:1945   */\n      dup4\n        /* \"#utility.yul\":1932:1949   */\n      add\n        /* \"#utility.yul\":1923:1929   */\n      dup5\n        /* \"#utility.yul\":1879:1950   */\n      tag_428\n      jump\t// in\n    tag_524:\n        /* \"#utility.yul\":1735:1957   */\n      swap3\n      swap2\n      pop\n      pop\n      jump\t// out\n        /* \"#utility.yul\":1963:2085   */\n    tag_429:\n        /* \"#utility.yul\":2036:2060   */\n      tag_526\n        /* \"#utility.yul\":2054:2059   */\n      dup2\n        /* \"#utility.yul\":2036:2060   */\n      tag_427\n      jump\t// in\n    tag_526:\n        /* \"#utility.yul\":2029:2034   */\n      dup2\n        /* \"#utility.yul\":2026:2061   */\n      eq\n        /* \"#utility.yul\":2016:2079   */\n      tag_527\n      jumpi\n        /* \"#utility.yul\":2075:2076   */\n      0x00\n        /* \"#utility.yul\":2072:2073   */\n      0x00\n        /* \"#utility.yul\":2065:2077   */\n      revert\n        /* \"#utility.yul\":2016:2079   */\n    tag_527:\n        /* \"#utility.yul\":1963:2085   */\n      pop\n      jump\t// out\n        /* \"#utility.yul\":2091:2230   */\n    tag_430:\n        /* \"#utility.yul\":2137:2142   */\n      0x00\n        /* \"#utility.yul\":2175:2181   */\n      dup2\n        /* \"#utility.yul\":2162:2182   */\n      calldataload\n        /* \"#utility.yul\":2153:2182   */\n      swap1\n      pop\n        /* \"#utility.yul\":2191:2224   */\n      tag_529\n        /* \"#utility.yul\":2218:2223   */\n      dup2\n        /* \"#utility.yul\":2191:2224   */\n      tag_429\n      jump\t// in\n    tag_529:\n        /* \"#utility.yul\":2091:2230   */\n      swap3\n      swap2\n      pop\n      pop\n      jump\t// out\n        /* \"#utility.yul\":2236:2565   */\n    tag_61:\n        /* \"#utility.yul\":2295:2301   */\n      0x00\n        /* \"#utility.yul\":2344:2346   */\n      0x20\n        /* \"#utility.yul\":2332:2341   */\n      dup3\n        /* \"#utility.yul\":2323:2330   */\n      dup5\n        /* \"#utility.yul\":2319:2342   */\n      sub\n        /* \"#utility.yul\":2315:2347   */\n      slt\n        /* \"#utility.yul\":2312:2431   */\n      iszero\n      tag_531\n      jumpi\n        /* \"#utility.yul\":2350:2429   */\n      tag_532\n      tag_422\n      jump\t// in\n    tag_532:\n        /* \"#utility.yul\":2312:2431   */\n    tag_531:\n        /* \"#utility.yul\":2470:2471   */\n      0x00\n        /* \"#utility.yul\":2495:2548   */\n      tag_533\n        /* \"#utility.yul\":2540:2547   */\n      dup5\n        /* \"#utility.yul\":2531:2537   */\n      dup3\n        /* \"#utility.yul\":2520:2529   */\n      dup6\n        /* \"#utility.yul\":2516:2538   */\n      add\n        /* \"#utility.yul\":2495:2548   */\n      tag_430\n      jump\t// in\n    tag_533:\n        /* \"#utility.yul\":2485:2548   */\n      swap2\n      pop\n        /* \"#utility.yul\":2441:2558   */\n      pop\n        /* \"#utility.yul\":2236:2565   */\n      swap3\n      swap2\n      pop\n      pop\n      jump\t// out\n        /* \"#utility.yul\":2571:2648   */\n    tag_431:\n        /* \"#utility.yul\":2608:2615   */\n      0x00\n        /* \"#utility.yul\":2637:2642   */\n      dup2\n        /* \"#utility.yul\":2626:2642   */\n      swap1\n      pop\n        /* \"#utility.yul\":2571:2648   */\n      swap2\n      swap1\n      pop\n      jump\t// out\n        /* \"#utility.yul\":2654:2776   */\n    tag_432:\n        /* \"#utility.yul\":2727:2751   */\n      tag_536\n        /* \"#utility.yul\":2745:2750   */\n      dup2\n        /* \"#utility.yul\":2727:2751   */\n      tag_431\n      jump\t// in\n    tag_536:\n        /* \"#utility.yul\":2720:2725   */\n      dup2\n        /* \"#utility.yul\":2717:2752   */\n      eq\n        /* \"#utility.yul\":2707:2770   */\n      tag_537\n      jumpi\n        /* \"#utility.yul\":2766:2767   */\n      0x00\n        /* \"#utility.yul\":2763:2764   */\n      0x00\n        /* \"#utility.yul\":2756:2768   */\n      revert\n        /* \"#utility.yul\":2707:2770   */\n    tag_537:\n        /* \"#utility.yul\":2654:2776   */\n      pop\n      jump\t// out\n        /* \"#utility.yul\":2782:2921   */\n    tag_433:\n        /* \"#utility.yul\":2828:2833   */\n      0x00\n        /* \"#utility.yul\":2866:2872   */\n      dup2\n        /* \"#utility.yul\":2853:2873   */\n      calldataload\n        /* \"#utility.yul\":2844:2873   */\n      swap1\n      pop\n        /* \"#utility.yul\":2882:2915   */\n      tag_539\n        /* \"#utility.yul\":2909:2914   */\n      dup2\n        /* \"#utility.yul\":2882:2915   */\n      tag_432\n      jump\t// in\n    tag_539:\n        /* \"#utility.yul\":2782:2921   */\n      swap3\n      swap2\n      pop\n      pop\n      jump\t// out\n        /* \"#utility.yul\":2927:3256   */\n    tag_73:\n        /* \"#utility.yul\":2986:2992   */\n      0x00\n        /* \"#utility.yul\":3035:3037   */\n      0x20\n        /* \"#utility.yul\":3023:3032   */\n      dup3\n        /* \"#utility.yul\":3014:3021   */\n      dup5\n        /* \"#utility.yul\":3010:3033   */\n      sub\n        /* \"#utility.yul\":3006:3038   */\n      slt\n        /* \"#utility.yul\":3003:3122   */\n      iszero\n      tag_541\n      jumpi\n        /* \"#utility.yul\":3041:3120   */\n      tag_542\n      tag_422\n      jump\t// in\n    tag_542:\n        /* \"#utility.yul\":3003:3122   */\n    tag_541:\n        /* \"#utility.yul\":3161:3162   */\n      0x00\n        /* \"#utility.yul\":3186:3239   */\n      tag_543\n        /* \"#utility.yul\":3231:3238   */\n      dup5\n        /* \"#utility.yul\":3222:3228   */\n      dup3\n        /* \"#utility.yul\":3211:3220   */\n      dup6\n        /* \"#utility.yul\":3207:3229   */\n      add\n        /* \"#utility.yul\":3186:3239   */\n      tag_433\n      jump\t// in\n    tag_543:\n        /* \"#utility.yul\":3176:3239   */\n      swap2\n      pop\n        /* \"#utility.yul\":3132:3249   */\n      pop\n        /* \"#utility.yul\":2927:3256   */\n      swap3\n      swap2\n      pop\n      pop\n      jump\t// out\n        /* \"#utility.yul\":3262:3352   */\n    tag_434:\n        /* \"#utility.yul\":3296:3303   */\n      0x00\n        /* \"#utility.yul\":3339:3344   */\n      dup2\n        /* \"#utility.yul\":3332:3345   */\n      iszero\n        /* \"#utility.yul\":3325:3346   */\n      iszero\n        /* \"#utility.yul\":3314:3346   */\n      swap1\n      pop\n        /* \"#utility.yul\":3262:3352   */\n      swap2\n      swap1\n      pop\n      jump\t// out\n        /* \"#utility.yul\":3358:3467   */\n    tag_435:\n        /* \"#utility.yul\":3439:3460   */\n      tag_546\n        /* \"#utility.yul\":3454:3459   */\n      dup2\n        /* \"#utility.yul\":3439:3460   */\n      tag_434\n      jump\t// in\n    tag_546:\n        /* \"#utility.yul\":3434:3437   */\n      dup3\n        /* \"#utility.yul\":3427:3461   */\n      mstore\n        /* \"#utility.yul\":3358:3467   */\n      pop\n      pop\n      jump\t// out\n        /* \"#utility.yul\":3473:3683   */\n    tag_76:\n        /* \"#utility.yul\":3560:3564   */\n      0x00\n        /* \"#utility.yul\":3598:3600   */\n      0x20\n        /* \"#utility.yul\":3587:3596   */\n      dup3\n        /* \"#utility.yul\":3583:3601   */\n      add\n        /* \"#utility.yul\":3575:3601   */\n      swap1\n      pop\n        /* \"#utility.yul\":3611:3676   */\n      tag_548\n        /* \"#utility.yul\":3673:3674   */\n      0x00\n        /* \"#utility.yul\":3662:3671   */\n      dup4\n        /* \"#utility.yul\":3658:3675   */\n      add\n        /* \"#utility.yul\":3649:3655   */\n      dup5\n        /* \"#utility.yul\":3611:3676   */\n      tag_435\n      jump\t// in\n    tag_548:\n        /* \"#utility.yul\":3473:3683   */\n      swap3\n      swap2\n      pop\n      pop\n      jump\t// out\n        /* \"#utility.yul\":3689:4163   */\n    tag_85:\n        /* \"#utility.yul\":3757:3763   */\n      0x00\n        /* \"#utility.yul\":3765:3771   */\n      0x00\n        /* \"#utility.yul\":3814:3816   */\n      0x40\n        /* \"#utility.yul\":3802:3811   */\n      dup4\n        /* \"#utility.yul\":3793:3800   */\n      dup6\n        /* \"#utility.yul\":3789:3812   */\n      sub\n        /* \"#utility.yul\":3785:3817   */\n      slt\n        /* \"#utility.yul\":3782:3901   */\n      iszero\n      tag_550\n      jumpi\n        /* \"#utility.yul\":3820:3899   */\n      tag_551\n      tag_422\n      jump\t// in\n    tag_551:\n        /* \"#utility.yul\":3782:3901   */\n    tag_550:\n        /* \"#utility.yul\":3940:3941   */\n      0x00\n        /* \"#utility.yul\":3965:4018   */\n      tag_552\n        /* \"#utility.yul\":4010:4017   */\n      dup6\n        /* \"#utility.yul\":4001:4007   */\n      dup3\n        /* \"#utility.yul\":3990:3999   */\n      dup7\n        /* \"#utility.yul\":3986:4008   */\n      add\n        /* \"#utility.yul\":3965:4018   */\n      tag_425\n      jump\t// in\n    tag_552:\n        /* \"#utility.yul\":3955:4018   */\n      swap3\n      pop\n        /* \"#utility.yul\":3911:4028   */\n      pop\n        /* \"#utility.yul\":4067:4069   */\n      0x20\n        /* \"#utility.yul\":4093:4146   */\n      tag_553\n        /* \"#utility.yul\":4138:4145   */\n      dup6\n        /* \"#utility.yul\":4129:4135   */\n      dup3\n        /* \"#utility.yul\":4118:4127   */\n      dup7\n        /* \"#utility.yul\":4114:4136   */\n      add\n        /* \"#utility.yul\":4093:4146   */\n      tag_430\n      jump\t// in\n    tag_553:\n        /* \"#utility.yul\":4083:4146   */\n      swap2\n      pop\n        /* \"#utility.yul\":4038:4156   */\n      pop\n        /* \"#utility.yul\":3689:4163   */\n      swap3\n      pop\n      swap3\n      swap1\n      pop\n      jump\t// out\n        /* \"#utility.yul\":4169:4267   */\n    tag_436:\n        /* \"#utility.yul\":4220:4226   */\n      0x00\n        /* \"#utility.yul\":4254:4259   */\n      dup2\n        /* \"#utility.yul\":4248:4260   */\n      mload\n        /* \"#utility.yul\":4238:4260   */\n      swap1\n      pop\n        /* \"#utility.yul\":4169:4267   */\n      swap2\n      swap1\n      pop\n      jump\t// out\n        /* \"#utility.yul\":4273:4441   */\n    tag_437:\n        /* \"#utility.yul\":4356:4367   */\n      0x00\n        /* \"#utility.yul\":4390:4396   */\n      dup3\n        /* \"#utility.yul\":4385:4388   */\n      dup3\n        /* \"#utility.yul\":4378:4397   */\n      mstore\n        /* \"#utility.yul\":4430:4434   */\n      0x20\n        /* \"#utility.yul\":4425:4428   */\n      dup3\n        /* \"#utility.yul\":4421:4435   */\n      add\n        /* \"#utility.yul\":4406:4435   */\n      swap1\n      pop\n        /* \"#utility.yul\":4273:4441   */\n      swap3\n      swap2\n      pop\n      pop\n      jump\t// out\n        /* \"#utility.yul\":4447:4586   */\n    tag_438:\n        /* \"#utility.yul\":4536:4542   */\n      dup3\n        /* \"#utility.yul\":4531:4534   */\n      dup2\n        /* \"#utility.yul\":4526:4529   */\n      dup4\n        /* \"#utility.yul\":4520:4543   */\n      mcopy\n        /* \"#utility.yul\":4577:4578   */\n      0x00\n        /* \"#utility.yul\":4568:4574   */\n      dup4\n        /* \"#utility.yul\":4563:4566   */\n      dup4\n        /* \"#utility.yul\":4559:4575   */\n      add\n        /* \"#utility.yul\":4552:4579   */\n      mstore\n        /* \"#utility.yul\":4447:4586   */\n      pop\n      pop\n      pop\n      jump\t// out\n        /* \"#utility.yul\":4592:4694   */\n    tag_439:\n        /* \"#utility.yul\":4633:4639   */\n      0x00\n        /* \"#utility.yul\":4684:4686   */\n      0x1f\n        /* \"#utility.yul\":4680:4687   */\n      not\n        /* \"#utility.yul\":4675:4677   */\n      0x1f\n        /* \"#utility.yul\":4668:4673   */\n      dup4\n        /* \"#utility.yul\":4664:4678   */\n      add\n        /* \"#utility.yul\":4660:4688   */\n      and\n        /* \"#utility.yul\":4650:4688   */\n      swap1\n      pop\n        /* \"#utility.yul\":4592:4694   */\n      swap2\n      swap1\n      pop\n      jump\t// out\n        /* \"#utility.yul\":4700:5073   */\n    tag_440:\n        /* \"#utility.yul\":4786:4789   */\n      0x00\n        /* \"#utility.yul\":4814:4852   */\n      tag_559\n        /* \"#utility.yul\":4846:4851   */\n      dup3\n        /* \"#utility.yul\":4814:4852   */\n      tag_436\n      jump\t// in\n    tag_559:\n        /* \"#utility.yul\":4868:4938   */\n      tag_560\n        /* \"#utility.yul\":4931:4937   */\n      dup2\n        /* \"#utility.yul\":4926:4929   */\n      dup6\n        /* \"#utility.yul\":4868:4938   */\n      tag_437\n      jump\t// in\n    tag_560:\n        /* \"#utility.yul\":4861:4938   */\n      swap4\n      pop\n        /* \"#utility.yul\":4947:5012   */\n      tag_561\n        /* \"#utility.yul\":5005:5011   */\n      dup2\n        /* \"#utility.yul\":5000:5003   */\n      dup6\n        /* \"#utility.yul\":4993:4997   */\n      0x20\n        /* \"#utility.yul\":4986:4991   */\n      dup7\n        /* \"#utility.yul\":4982:4998   */\n      add\n        /* \"#utility.yul\":4947:5012   */\n      tag_438\n      jump\t// in\n    tag_561:\n        /* \"#utility.yul\":5037:5066   */\n      tag_562\n        /* \"#utility.yul\":5059:5065   */\n      dup2\n        /* \"#utility.yul\":5037:5066   */\n      tag_439\n      jump\t// in\n    tag_562:\n        /* \"#utility.yul\":5032:5035   */\n      dup5\n        /* \"#utility.yul\":5028:5067   */\n      add\n        /* \"#utility.yul\":5021:5067   */\n      swap2\n      pop\n        /* \"#utility.yul\":4790:5073   */\n      pop\n        /* \"#utility.yul\":4700:5073   */\n      swap3\n      swap2\n      pop\n      pop\n      jump\t// out\n        /* \"#utility.yul\":5079:5818   */\n    tag_143:\n        /* \"#utility.yul\":5296:5300   */\n      0x00\n        /* \"#utility.yul\":5334:5337   */\n      0xa0\n        /* \"#utility.yul\":5323:5332   */\n      dup3\n        /* \"#utility.yul\":5319:5338   */\n      add\n        /* \"#utility.yul\":5311:5338   */\n      swap1\n      pop\n        /* \"#utility.yul\":5348:5419   */\n      tag_564\n        /* \"#utility.yul\":5416:5417   */\n      0x00\n        /* \"#utility.yul\":5405:5414   */\n      dup4\n        /* \"#utility.yul\":5401:5418   */\n      add\n        /* \"#utility.yul\":5392:5398   */\n      dup9\n        /* \"#utility.yul\":5348:5419   */\n      tag_428\n      jump\t// in\n    tag_564:\n        /* \"#utility.yul\":5429:5501   */\n      tag_565\n        /* \"#utility.yul\":5497:5499   */\n      0x20\n        /* \"#utility.yul\":5486:5495   */\n      dup4\n        /* \"#utility.yul\":5482:5500   */\n      add\n        /* \"#utility.yul\":5473:5479   */\n      dup8\n        /* \"#utility.yul\":5429:5501   */\n      tag_420\n      jump\t// in\n    tag_565:\n        /* \"#utility.yul\":5548:5557   */\n      dup2\n        /* \"#utility.yul\":5542:5546   */\n      dup2\n        /* \"#utility.yul\":5538:5558   */\n      sub\n        /* \"#utility.yul\":5533:5535   */\n      0x40\n        /* \"#utility.yul\":5522:5531   */\n      dup4\n        /* \"#utility.yul\":5518:5536   */\n      add\n        /* \"#utility.yul\":5511:5559   */\n      mstore\n        /* \"#utility.yul\":5576:5652   */\n      tag_566\n        /* \"#utility.yul\":5647:5651   */\n      dup2\n        /* \"#utility.yul\":5638:5644   */\n      dup7\n        /* \"#utility.yul\":5576:5652   */\n      tag_440\n      jump\t// in\n    tag_566:\n        /* \"#utility.yul\":5568:5652   */\n      swap1\n      pop\n        /* \"#utility.yul\":5662:5728   */\n      tag_567\n        /* \"#utility.yul\":5724:5726   */\n      0x60\n        /* \"#utility.yul\":5713:5722   */\n      dup4\n        /* \"#utility.yul\":5709:5727   */\n      add\n        /* \"#utility.yul\":5700:5706   */\n      dup6\n        /* \"#utility.yul\":5662:5728   */\n      tag_435\n      jump\t// in\n    tag_567:\n        /* \"#utility.yul\":5738:5811   */\n      tag_568\n        /* \"#utility.yul\":5806:5809   */\n      0x80\n        /* \"#utility.yul\":5795:5804   */\n      dup4\n        /* \"#utility.yul\":5791:5810   */\n      add\n        /* \"#utility.yul\":5782:5788   */\n      dup5\n        /* \"#utility.yul\":5738:5811   */\n      tag_420\n      jump\t// in\n    tag_568:\n        /* \"#utility.yul\":5079:5818   */\n      swap7\n      swap6\n      pop\n      pop\n      pop\n      pop\n      pop\n      pop\n      jump\t// out\n        /* \"#utility.yul\":5824:5938   */\n    tag_441:\n        /* \"#utility.yul\":5891:5897   */\n      0x00\n        /* \"#utility.yul\":5925:5930   */\n      dup2\n        /* \"#utility.yul\":5919:5931   */\n      mload\n        /* \"#utility.yul\":5909:5931   */\n      swap1\n      pop\n        /* \"#utility.yul\":5824:5938   */\n      swap2\n      swap1\n      pop\n      jump\t// out\n        /* \"#utility.yul\":5944:6128   */\n    tag_442:\n        /* \"#utility.yul\":6043:6054   */\n      0x00\n        /* \"#utility.yul\":6077:6083   */\n      dup3\n        /* \"#utility.yul\":6072:6075   */\n      dup3\n        /* \"#utility.yul\":6065:6084   */\n      mstore\n        /* \"#utility.yul\":6117:6121   */\n      0x20\n        /* \"#utility.yul\":6112:6115   */\n      dup3\n        /* \"#utility.yul\":6108:6122   */\n      add\n        /* \"#utility.yul\":6093:6122   */\n      swap1\n      pop\n        /* \"#utility.yul\":5944:6128   */\n      swap3\n      swap2\n      pop\n      pop\n      jump\t// out\n        /* \"#utility.yul\":6134:6266   */\n    tag_443:\n        /* \"#utility.yul\":6201:6205   */\n      0x00\n        /* \"#utility.yul\":6224:6227   */\n      dup2\n        /* \"#utility.yul\":6216:6227   */\n      swap1\n      pop\n        /* \"#utility.yul\":6254:6258   */\n      0x20\n        /* \"#utility.yul\":6249:6252   */\n      dup3\n        /* \"#utility.yul\":6245:6259   */\n      add\n        /* \"#utility.yul\":6237:6259   */\n      swap1\n      pop\n        /* \"#utility.yul\":6134:6266   */\n      swap2\n      swap1\n      pop\n      jump\t// out\n        /* \"#utility.yul\":6272:6380   */\n    tag_444:\n        /* \"#utility.yul\":6349:6373   */\n      tag_573\n        /* \"#utility.yul\":6367:6372   */\n      dup2\n        /* \"#utility.yul\":6349:6373   */\n      tag_427\n      jump\t// in\n    tag_573:\n        /* \"#utility.yul\":6344:6347   */\n      dup3\n        /* \"#utility.yul\":6337:6374   */\n      mstore\n        /* \"#utility.yul\":6272:6380   */\n      pop\n      pop\n      jump\t// out\n        /* \"#utility.yul\":6386:6565   */\n    tag_445:\n        /* \"#utility.yul\":6455:6465   */\n      0x00\n        /* \"#utility.yul\":6476:6522   */\n      tag_575\n        /* \"#utility.yul\":6518:6521   */\n      dup4\n        /* \"#utility.yul\":6510:6516   */\n      dup4\n        /* \"#utility.yul\":6476:6522   */\n      tag_444\n      jump\t// in\n    tag_575:\n        /* \"#utility.yul\":6554:6558   */\n      0x20\n        /* \"#utility.yul\":6549:6552   */\n      dup4\n        /* \"#utility.yul\":6545:6559   */\n      add\n        /* \"#utility.yul\":6531:6559   */\n      swap1\n      pop\n        /* \"#utility.yul\":6386:6565   */\n      swap3\n      swap2\n      pop\n      pop\n      jump\t// out\n        /* \"#utility.yul\":6571:6684   */\n    tag_446:\n        /* \"#utility.yul\":6641:6645   */\n      0x00\n        /* \"#utility.yul\":6673:6677   */\n      0x20\n        /* \"#utility.yul\":6668:6671   */\n      dup3\n        /* \"#utility.yul\":6664:6678   */\n      add\n        /* \"#utility.yul\":6656:6678   */\n      swap1\n      pop\n        /* \"#utility.yul\":6571:6684   */\n      swap2\n      swap1\n      pop\n      jump\t// out\n        /* \"#utility.yul\":6720:7452   */\n    tag_447:\n        /* \"#utility.yul\":6839:6842   */\n      0x00\n        /* \"#utility.yul\":6868:6922   */\n      tag_578\n        /* \"#utility.yul\":6916:6921   */\n      dup3\n        /* \"#utility.yul\":6868:6922   */\n      tag_441\n      jump\t// in\n    tag_578:\n        /* \"#utility.yul\":6938:7024   */\n      tag_579\n        /* \"#utility.yul\":7017:7023   */\n      dup2\n        /* \"#utility.yul\":7012:7015   */\n      dup6\n        /* \"#utility.yul\":6938:7024   */\n      tag_442\n      jump\t// in\n    tag_579:\n        /* \"#utility.yul\":6931:7024   */\n      swap4\n      pop\n        /* \"#utility.yul\":7048:7104   */\n      tag_580\n        /* \"#utility.yul\":7098:7103   */\n      dup4\n        /* \"#utility.yul\":7048:7104   */\n      tag_443\n      jump\t// in\n    tag_580:\n        /* \"#utility.yul\":7127:7134   */\n      dup1\n        /* \"#utility.yul\":7158:7159   */\n      0x00\n        /* \"#utility.yul\":7143:7427   */\n    tag_581:\n        /* \"#utility.yul\":7168:7174   */\n      dup4\n        /* \"#utility.yul\":7165:7166   */\n      dup2\n        /* \"#utility.yul\":7162:7175   */\n      lt\n        /* \"#utility.yul\":7143:7427   */\n      iszero\n      tag_583\n      jumpi\n        /* \"#utility.yul\":7244:7250   */\n      dup2\n        /* \"#utility.yul\":7238:7251   */\n      mload\n        /* \"#utility.yul\":7271:7334   */\n      tag_584\n        /* \"#utility.yul\":7330:7333   */\n      dup9\n        /* \"#utility.yul\":7315:7328   */\n      dup3\n        /* \"#utility.yul\":7271:7334   */\n      tag_445\n      jump\t// in\n    tag_584:\n        /* \"#utility.yul\":7264:7334   */\n      swap8\n      pop\n        /* \"#utility.yul\":7357:7417   */\n      tag_585\n        /* \"#utility.yul\":7410:7416   */\n      dup4\n        /* \"#utility.yul\":7357:7417   */\n      tag_446\n      jump\t// in\n    tag_585:\n        /* \"#utility.yul\":7347:7417   */\n      swap3\n      pop\n        /* \"#utility.yul\":7203:7427   */\n      pop\n        /* \"#utility.yul\":7190:7191   */\n      0x01\n        /* \"#utility.yul\":7187:7188   */\n      dup2\n        /* \"#utility.yul\":7183:7192   */\n      add\n        /* \"#utility.yul\":7178:7192   */\n      swap1\n      pop\n        /* \"#utility.yul\":7143:7427   */\n      jump(tag_581)\n    tag_583:\n        /* \"#utility.yul\":7147:7161   */\n      pop\n        /* \"#utility.yul\":7443:7446   */\n      dup6\n        /* \"#utility.yul\":7436:7446   */\n      swap4\n      pop\n        /* \"#utility.yul\":6844:7452   */\n      pop\n      pop\n      pop\n        /* \"#utility.yul\":6720:7452   */\n      swap3\n      swap2\n      pop\n      pop\n      jump\t// out\n        /* \"#utility.yul\":7458:7831   */\n    tag_148:\n        /* \"#utility.yul\":7601:7605   */\n      0x00\n        /* \"#utility.yul\":7639:7641   */\n      0x20\n        /* \"#utility.yul\":7628:7637   */\n      dup3\n        /* \"#utility.yul\":7624:7642   */\n      add\n        /* \"#utility.yul\":7616:7642   */\n      swap1\n      pop\n        /* \"#utility.yul\":7688:7697   */\n      dup2\n        /* \"#utility.yul\":7682:7686   */\n      dup2\n        /* \"#utility.yul\":7678:7698   */\n      sub\n        /* \"#utility.yul\":7674:7675   */\n      0x00\n        /* \"#utility.yul\":7663:7672   */\n      dup4\n        /* \"#utility.yul\":7659:7676   */\n      add\n        /* \"#utility.yul\":7652:7699   */\n      mstore\n        /* \"#utility.yul\":7716:7824   */\n      tag_587\n        /* \"#utility.yul\":7819:7823   */\n      dup2\n        /* \"#utility.yul\":7810:7816   */\n      dup5\n        /* \"#utility.yul\":7716:7824   */\n      tag_447\n      jump\t// in\n    tag_587:\n        /* \"#utility.yul\":7708:7824   */\n      swap1\n      pop\n        /* \"#utility.yul\":7458:7831   */\n      swap3\n      swap2\n      pop\n      pop\n      jump\t// out\n        /* \"#utility.yul\":7837:7953   */\n    tag_448:\n        /* \"#utility.yul\":7907:7928   */\n      tag_589\n        /* \"#utility.yul\":7922:7927   */\n      dup2\n        /* \"#utility.yul\":7907:7928   */\n      tag_434\n      jump\t// in\n    tag_589:\n        /* \"#utility.yul\":7900:7905   */\n      dup2\n        /* \"#utility.yul\":7897:7929   */\n      eq\n        /* \"#utility.yul\":7887:7947   */\n      tag_590\n      jumpi\n        /* \"#utility.yul\":7943:7944   */\n      0x00\n        /* \"#utility.yul\":7940:7941   */\n      0x00\n        /* \"#utility.yul\":7933:7945   */\n      revert\n        /* \"#utility.yul\":7887:7947   */\n    tag_590:\n        /* \"#utility.yul\":7837:7953   */\n      pop\n      jump\t// out\n        /* \"#utility.yul\":7959:8092   */\n    tag_449:\n        /* \"#utility.yul\":8002:8007   */\n      0x00\n        /* \"#utility.yul\":8040:8046   */\n      dup2\n        /* \"#utility.yul\":8027:8047   */\n      calldataload\n        /* \"#utility.yul\":8018:8047   */\n      swap1\n      pop\n        /* \"#utility.yul\":8056:8086   */\n      tag_592\n        /* \"#utility.yul\":8080:8085   */\n      dup2\n        /* \"#utility.yul\":8056:8086   */\n      tag_448\n      jump\t// in\n    tag_592:\n        /* \"#utility.yul\":7959:8092   */\n      swap3\n      swap2\n      pop\n      pop\n      jump\t// out\n        /* \"#utility.yul\":8098:8851   */\n    tag_152:\n        /* \"#utility.yul\":8178:8184   */\n      0x00\n        /* \"#utility.yul\":8186:8192   */\n      0x00\n        /* \"#utility.yul\":8194:8200   */\n      0x00\n        /* \"#utility.yul\":8202:8208   */\n      0x00\n        /* \"#utility.yul\":8251:8254   */\n      0x80\n        /* \"#utility.yul\":8239:8248   */\n      dup6\n        /* \"#utility.yul\":8230:8237   */\n      dup8\n        /* \"#utility.yul\":8226:8249   */\n      sub\n        /* \"#utility.yul\":8222:8255   */\n      slt\n        /* \"#utility.yul\":8219:8339   */\n      iszero\n      tag_594\n      jumpi\n        /* \"#utility.yul\":8258:8337   */\n      tag_595\n      tag_422\n      jump\t// in\n    tag_595:\n        /* \"#utility.yul\":8219:8339   */\n    tag_594:\n        /* \"#utility.yul\":8378:8379   */\n      0x00\n        /* \"#utility.yul\":8403:8456   */\n      tag_596\n        /* \"#utility.yul\":8448:8455   */\n      dup8\n        /* \"#utility.yul\":8439:8445   */\n      dup3\n        /* \"#utility.yul\":8428:8437   */\n      dup9\n        /* \"#utility.yul\":8424:8446   */\n      add\n        /* \"#utility.yul\":8403:8456   */\n      tag_425\n      jump\t// in\n    tag_596:\n        /* \"#utility.yul\":8393:8456   */\n      swap5\n      pop\n        /* \"#utility.yul\":8349:8466   */\n      pop\n        /* \"#utility.yul\":8505:8507   */\n      0x20\n        /* \"#utility.yul\":8531:8584   */\n      tag_597\n        /* \"#utility.yul\":8576:8583   */\n      dup8\n        /* \"#utility.yul\":8567:8573   */\n      dup3\n        /* \"#utility.yul\":8556:8565   */\n      dup9\n        /* \"#utility.yul\":8552:8574   */\n      add\n        /* \"#utility.yul\":8531:8584   */\n      tag_425\n      jump\t// in\n    tag_597:\n        /* \"#utility.yul\":8521:8584   */\n      swap4\n      pop\n        /* \"#utility.yul\":8476:8594   */\n      pop\n        /* \"#utility.yul\":8633:8635   */\n      0x40\n        /* \"#utility.yul\":8659:8709   */\n      tag_598\n        /* \"#utility.yul\":8701:8708   */\n      dup8\n        /* \"#utility.yul\":8692:8698   */\n      dup3\n        /* \"#utility.yul\":8681:8690   */\n      dup9\n        /* \"#utility.yul\":8677:8699   */\n      add\n        /* \"#utility.yul\":8659:8709   */\n      tag_449\n      jump\t// in\n    tag_598:\n        /* \"#utility.yul\":8649:8709   */\n      swap3\n      pop\n        /* \"#utility.yul\":8604:8719   */\n      pop\n        /* \"#utility.yul\":8758:8760   */\n      0x60\n        /* \"#utility.yul\":8784:8834   */\n      tag_599\n        /* \"#utility.yul\":8826:8833   */\n      dup8\n        /* \"#utility.yul\":8817:8823   */\n      dup3\n        /* \"#utility.yul\":8806:8815   */\n      dup9\n        /* \"#utility.yul\":8802:8824   */\n      add\n        /* \"#utility.yul\":8784:8834   */\n      tag_449\n      jump\t// in\n    tag_599:\n        /* \"#utility.yul\":8774:8834   */\n      swap2\n      pop\n        /* \"#utility.yul\":8729:8844   */\n      pop\n        /* \"#utility.yul\":8098:8851   */\n      swap3\n      swap6\n      swap2\n      swap5\n      pop\n      swap3\n      pop\n      jump\t// out\n        /* \"#utility.yul\":8857:8971   */\n    tag_450:\n        /* \"#utility.yul\":8924:8930   */\n      0x00\n        /* \"#utility.yul\":8958:8963   */\n      dup2\n        /* \"#utility.yul\":8952:8964   */\n      mload\n        /* \"#utility.yul\":8942:8964   */\n      swap1\n      pop\n        /* \"#utility.yul\":8857:8971   */\n      swap2\n      swap1\n      pop\n      jump\t// out\n        /* \"#utility.yul\":8977:9161   */\n    tag_451:\n        /* \"#utility.yul\":9076:9087   */\n      0x00\n        /* \"#utility.yul\":9110:9116   */\n      dup3\n        /* \"#utility.yul\":9105:9108   */\n      dup3\n        /* \"#utility.yul\":9098:9117   */\n      mstore\n        /* \"#utility.yul\":9150:9154   */\n      0x20\n        /* \"#utility.yul\":9145:9148   */\n      dup3\n        /* \"#utility.yul\":9141:9155   */\n      add\n        /* \"#utility.yul\":9126:9155   */\n      swap1\n      pop\n        /* \"#utility.yul\":8977:9161   */\n      swap3\n      swap2\n      pop\n      pop\n      jump\t// out\n        /* \"#utility.yul\":9167:9299   */\n    tag_452:\n        /* \"#utility.yul\":9234:9238   */\n      0x00\n        /* \"#utility.yul\":9257:9260   */\n      dup2\n        /* \"#utility.yul\":9249:9260   */\n      swap1\n      pop\n        /* \"#utility.yul\":9287:9291   */\n      0x20\n        /* \"#utility.yul\":9282:9285   */\n      dup3\n        /* \"#utility.yul\":9278:9292   */\n      add\n        /* \"#utility.yul\":9270:9292   */\n      swap1\n      pop\n        /* \"#utility.yul\":9167:9299   */\n      swap2\n      swap1\n      pop\n      jump\t// out\n        /* \"#utility.yul\":9305:9413   */\n    tag_453:\n        /* \"#utility.yul\":9382:9406   */\n      tag_604\n        /* \"#utility.yul\":9400:9405   */\n      dup2\n        /* \"#utility.yul\":9382:9406   */\n      tag_419\n      jump\t// in\n    tag_604:\n        /* \"#utility.yul\":9377:9380   */\n      dup3\n        /* \"#utility.yul\":9370:9407   */\n      mstore\n        /* \"#utility.yul\":9305:9413   */\n      pop\n      pop\n      jump\t// out\n        /* \"#utility.yul\":9419:9598   */\n    tag_454:\n        /* \"#utility.yul\":9488:9498   */\n      0x00\n        /* \"#utility.yul\":9509:9555   */\n      tag_606\n        /* \"#utility.yul\":9551:9554   */\n      dup4\n        /* \"#utility.yul\":9543:9549   */\n      dup4\n        /* \"#utility.yul\":9509:9555   */\n      tag_453\n      jump\t// in\n    tag_606:\n        /* \"#utility.yul\":9587:9591   */\n      0x20\n        /* \"#utility.yul\":9582:9585   */\n      dup4\n        /* \"#utility.yul\":9578:9592   */\n      add\n        /* \"#utility.yul\":9564:9592   */\n      swap1\n      pop\n        /* \"#utility.yul\":9419:9598   */\n      swap3\n      swap2\n      pop\n      pop\n      jump\t// out\n        /* \"#utility.yul\":9604:9717   */\n    tag_455:\n        /* \"#utility.yul\":9674:9678   */\n      0x00\n        /* \"#utility.yul\":9706:9710   */\n      0x20\n        /* \"#utility.yul\":9701:9704   */\n      dup3\n        /* \"#utility.yul\":9697:9711   */\n      add\n        /* \"#utility.yul\":9689:9711   */\n      swap1\n      pop\n        /* \"#utility.yul\":9604:9717   */\n      swap2\n      swap1\n      pop\n      jump\t// out\n        /* \"#utility.yul\":9753:10485   */\n    tag_456:\n        /* \"#utility.yul\":9872:9875   */\n      0x00\n        /* \"#utility.yul\":9901:9955   */\n      tag_609\n        /* \"#utility.yul\":9949:9954   */\n      dup3\n        /* \"#utility.yul\":9901:9955   */\n      tag_450\n      jump\t// in\n    tag_609:\n        /* \"#utility.yul\":9971:10057   */\n      tag_610\n        /* \"#utility.yul\":10050:10056   */\n      dup2\n        /* \"#utility.yul\":10045:10048   */\n      dup6\n        /* \"#utility.yul\":9971:10057   */\n      tag_451\n      jump\t// in\n    tag_610:\n        /* \"#utility.yul\":9964:10057   */\n      swap4\n      pop\n        /* \"#utility.yul\":10081:10137   */\n      tag_611\n        /* \"#utility.yul\":10131:10136   */\n      dup4\n        /* \"#utility.yul\":10081:10137   */\n      tag_452\n      jump\t// in\n    tag_611:\n        /* \"#utility.yul\":10160:10167   */\n      dup1\n        /* \"#utility.yul\":10191:10192   */\n      0x00\n        /* \"#utility.yul\":10176:10460   */\n    tag_612:\n        /* \"#utility.yul\":10201:10207   */\n      dup4\n        /* \"#utility.yul\":10198:10199   */\n      dup2\n        /* \"#utility.yul\":10195:10208   */\n      lt\n        /* \"#utility.yul\":10176:10460   */\n      iszero\n      tag_614\n      jumpi\n        /* \"#utility.yul\":10277:10283   */\n      dup2\n        /* \"#utility.yul\":10271:10284   */\n      mload\n        /* \"#utility.yul\":10304:10367   */\n      tag_615\n        /* \"#utility.yul\":10363:10366   */\n      dup9\n        /* \"#utility.yul\":10348:10361   */\n      dup3\n        /* \"#utility.yul\":10304:10367   */\n      tag_454\n      jump\t// in\n    tag_615:\n        /* \"#utility.yul\":10297:10367   */\n      swap8\n      pop\n        /* \"#utility.yul\":10390:10450   */\n      tag_616\n        /* \"#utility.yul\":10443:10449   */\n      dup4\n        /* \"#utility.yul\":10390:10450   */\n      tag_455\n      jump\t// in\n    tag_616:\n        /* \"#utility.yul\":10380:10450   */\n      swap3\n      pop\n        /* \"#utility.yul\":10236:10460   */\n      pop\n        /* \"#utility.yul\":10223:10224   */\n      0x01\n        /* \"#utility.yul\":10220:10221   */\n      dup2\n        /* \"#utility.yul\":10216:10225   */\n      add\n        /* \"#utility.yul\":10211:10225   */\n      swap1\n      pop\n        /* \"#utility.yul\":10176:10460   */\n      jump(tag_612)\n    tag_614:\n        /* \"#utility.yul\":10180:10194   */\n      pop\n        /* \"#utility.yul\":10476:10479   */\n      dup6\n        /* \"#utility.yul\":10469:10479   */\n      swap4\n      pop\n        /* \"#utility.yul\":9877:10485   */\n      pop\n      pop\n      pop\n        /* \"#utility.yul\":9753:10485   */\n      swap3\n      swap2\n      pop\n      pop\n      jump\t// out\n        /* \"#utility.yul\":10491:10864   */\n    tag_155:\n        /* \"#utility.yul\":10634:10638   */\n      0x00\n        /* \"#utility.yul\":10672:10674   */\n      0x20\n        /* \"#utility.yul\":10661:10670   */\n      dup3\n        /* \"#utility.yul\":10657:10675   */\n      add\n        /* \"#utility.yul\":10649:10675   */\n      swap1\n      pop\n        /* \"#utility.yul\":10721:10730   */\n      dup2\n        /* \"#utility.yul\":10715:10719   */\n      dup2\n        /* \"#utility.yul\":10711:10731   */\n      sub\n        /* \"#utility.yul\":10707:10708   */\n      0x00\n        /* \"#utility.yul\":10696:10705   */\n      dup4\n        /* \"#utility.yul\":10692:10709   */\n      add\n        /* \"#utility.yul\":10685:10732   */\n      mstore\n        /* \"#utility.yul\":10749:10857   */\n      tag_618\n        /* \"#utility.yul\":10852:10856   */\n      dup2\n        /* \"#utility.yul\":10843:10849   */\n      dup5\n        /* \"#utility.yul\":10749:10857   */\n      tag_456\n      jump\t// in\n    tag_618:\n        /* \"#utility.yul\":10741:10857   */\n      swap1\n      pop\n        /* \"#utility.yul\":10491:10864   */\n      swap3\n      swap2\n      pop\n      pop\n      jump\t// out\n        /* \"#utility.yul\":10870:10987   */\n    tag_457:\n        /* \"#utility.yul\":10979:10980   */\n      0x00\n        /* \"#utility.yul\":10976:10977   */\n      0x00\n        /* \"#utility.yul\":10969:10981   */\n      revert\n        /* \"#utility.yul\":10993:11110   */\n    tag_458:\n        /* \"#utility.yul\":11102:11103   */\n      0x00\n        /* \"#utility.yul\":11099:11100   */\n      0x00\n        /* \"#utility.yul\":11092:11104   */\n      revert\n        /* \"#utility.yul\":11116:11296   */\n    tag_301:\n        /* \"#utility.yul\":11164:11241   */\n      0x4e487b7100000000000000000000000000000000000000000000000000000000\n        /* \"#utility.yul\":11161:11162   */\n      0x00\n        /* \"#utility.yul\":11154:11242   */\n      mstore\n        /* \"#utility.yul\":11261:11265   */\n      0x41\n        /* \"#utility.yul\":11258:11259   */\n      0x04\n        /* \"#utility.yul\":11251:11266   */\n      mstore\n        /* \"#utility.yul\":11285:11289   */\n      0x24\n        /* \"#utility.yul\":11282:11283   */\n      0x00\n        /* \"#utility.yul\":11275:11290   */\n      revert\n        /* \"#utility.yul\":11302:11583   */\n    tag_459:\n        /* \"#utility.yul\":11385:11412   */\n      tag_623\n        /* \"#utility.yul\":11407:11411   */\n      dup3\n        /* \"#utility.yul\":11385:11412   */\n      tag_439\n      jump\t// in\n    tag_623:\n        /* \"#utility.yul\":11377:11383   */\n      dup2\n        /* \"#utility.yul\":11373:11413   */\n      add\n        /* \"#utility.yul\":11515:11521   */\n      dup2\n        /* \"#utility.yul\":11503:11513   */\n      dup2\n        /* \"#utility.yul\":11500:11522   */\n      lt\n        /* \"#utility.yul\":11479:11497   */\n      0xffffffffffffffff\n        /* \"#utility.yul\":11467:11477   */\n      dup3\n        /* \"#utility.yul\":11464:11498   */\n      gt\n        /* \"#utility.yul\":11461:11523   */\n      or\n        /* \"#utility.yul\":11458:11546   */\n      iszero\n      tag_624\n      jumpi\n        /* \"#utility.yul\":11526:11544   */\n      tag_625\n      tag_301\n      jump\t// in\n    tag_625:\n        /* \"#utility.yul\":11458:11546   */\n    tag_624:\n        /* \"#utility.yul\":11566:11576   */\n      dup1\n        /* \"#utility.yul\":11562:11564   */\n      0x40\n        /* \"#utility.yul\":11555:11577   */\n      mstore\n        /* \"#utility.yul\":11345:11583   */\n      pop\n        /* \"#utility.yul\":11302:11583   */\n      pop\n      pop\n      jump\t// out\n        /* \"#utility.yul\":11589:11718   */\n    tag_460:\n        /* \"#utility.yul\":11623:11629   */\n      0x00\n        /* \"#utility.yul\":11650:11670   */\n      tag_627\n      tag_421\n      jump\t// in\n    tag_627:\n        /* \"#utility.yul\":11640:11670   */\n      swap1\n      pop\n        /* \"#utility.yul\":11679:11712   */\n      tag_628\n        /* \"#utility.yul\":11707:11711   */\n      dup3\n        /* \"#utility.yul\":11699:11705   */\n      dup3\n        /* \"#utility.yul\":11679:11712   */\n      tag_459\n      jump\t// in\n    tag_628:\n        /* \"#utility.yul\":11589:11718   */\n      swap2\n      swap1\n      pop\n      jump\t// out\n        /* \"#utility.yul\":11724:12031   */\n    tag_461:\n        /* \"#utility.yul\":11785:11789   */\n      0x00\n        /* \"#utility.yul\":11875:11893   */\n      0xffffffffffffffff\n        /* \"#utility.yul\":11867:11873   */\n      dup3\n        /* \"#utility.yul\":11864:11894   */\n      gt\n        /* \"#utility.yul\":11861:11917   */\n      iszero\n      tag_630\n      jumpi\n        /* \"#utility.yul\":11897:11915   */\n      tag_631\n      tag_301\n      jump\t// in\n    tag_631:\n        /* \"#utility.yul\":11861:11917   */\n    tag_630:\n        /* \"#utility.yul\":11935:11964   */\n      tag_632\n        /* \"#utility.yul\":11957:11963   */\n      dup3\n        /* \"#utility.yul\":11935:11964   */\n      tag_439\n      jump\t// in\n    tag_632:\n        /* \"#utility.yul\":11927:11964   */\n      swap1\n      pop\n        /* \"#utility.yul\":12019:12023   */\n      0x20\n        /* \"#utility.yul\":12013:12017   */\n      dup2\n        /* \"#utility.yul\":12009:12024   */\n      add\n        /* \"#utility.yul\":12001:12024   */\n      swap1\n      pop\n        /* \"#utility.yul\":11724:12031   */\n      swap2\n      swap1\n      pop\n      jump\t// out\n        /* \"#utility.yul\":12037:12185   */\n    tag_462:\n        /* \"#utility.yul\":12135:12141   */\n      dup3\n        /* \"#utility.yul\":12130:12133   */\n      dup2\n        /* \"#utility.yul\":12125:12128   */\n      dup4\n        /* \"#utility.yul\":12112:12142   */\n      calldatacopy\n        /* \"#utility.yul\":12176:12177   */\n      0x00\n        /* \"#utility.yul\":12167:12173   */\n      dup4\n        /* \"#utility.yul\":12162:12165   */\n      dup4\n        /* \"#utility.yul\":12158:12174   */\n      add\n        /* \"#utility.yul\":12151:12178   */\n      mstore\n        /* \"#utility.yul\":12037:12185   */\n      pop\n      pop\n      pop\n      jump\t// out\n        /* \"#utility.yul\":12191:12614   */\n    tag_463:\n        /* \"#utility.yul\":12268:12273   */\n      0x00\n        /* \"#utility.yul\":12293:12358   */\n      tag_635\n        /* \"#utility.yul\":12309:12357   */\n      tag_636\n        /* \"#utility.yul\":12350:12356   */\n      dup5\n        /* \"#utility.yul\":12309:12357   */\n      tag_461\n      jump\t// in\n    tag_636:\n        /* \"#utility.yul\":12293:12358   */\n      tag_460\n      jump\t// in\n    tag_635:\n        /* \"#utility.yul\":12284:12358   */\n      swap1\n      pop\n        /* \"#utility.yul\":12381:12387   */\n      dup3\n        /* \"#utility.yul\":12374:12379   */\n      dup2\n        /* \"#utility.yul\":12367:12388   */\n      mstore\n        /* \"#utility.yul\":12419:12423   */\n      0x20\n        /* \"#utility.yul\":12412:12417   */\n      dup2\n        /* \"#utility.yul\":12408:12424   */\n      add\n        /* \"#utility.yul\":12457:12460   */\n      dup5\n        /* \"#utility.yul\":12448:12454   */\n      dup5\n        /* \"#utility.yul\":12443:12446   */\n      dup5\n        /* \"#utility.yul\":12439:12455   */\n      add\n        /* \"#utility.yul\":12436:12461   */\n      gt\n        /* \"#utility.yul\":12433:12545   */\n      iszero\n      tag_637\n      jumpi\n        /* \"#utility.yul\":12464:12543   */\n      tag_638\n      tag_458\n      jump\t// in\n    tag_638:\n        /* \"#utility.yul\":12433:12545   */\n    tag_637:\n        /* \"#utility.yul\":12554:12608   */\n      tag_639\n        /* \"#utility.yul\":12601:12607   */\n      dup5\n        /* \"#utility.yul\":12596:12599   */\n      dup3\n        /* \"#utility.yul\":12591:12594   */\n      dup6\n        /* \"#utility.yul\":12554:12608   */\n      tag_462\n      jump\t// in\n    tag_639:\n        /* \"#utility.yul\":12274:12614   */\n      pop\n        /* \"#utility.yul\":12191:12614   */\n      swap4\n      swap3\n      pop\n      pop\n      pop\n      jump\t// out\n        /* \"#utility.yul\":12633:12971   */\n    tag_464:\n        /* \"#utility.yul\":12688:12693   */\n      0x00\n        /* \"#utility.yul\":12737:12740   */\n      dup3\n        /* \"#utility.yul\":12730:12734   */\n      0x1f\n        /* \"#utility.yul\":12722:12728   */\n      dup4\n        /* \"#utility.yul\":12718:12735   */\n      add\n        /* \"#utility.yul\":12714:12741   */\n      slt\n        /* \"#utility.yul\":12704:12826   */\n      tag_641\n      jumpi\n        /* \"#utility.yul\":12745:12824   */\n      tag_642\n      tag_457\n      jump\t// in\n    tag_642:\n        /* \"#utility.yul\":12704:12826   */\n    tag_641:\n        /* \"#utility.yul\":12862:12868   */\n      dup2\n        /* \"#utility.yul\":12849:12869   */\n      calldataload\n        /* \"#utility.yul\":12887:12965   */\n      tag_643\n        /* \"#utility.yul\":12961:12964   */\n      dup5\n        /* \"#utility.yul\":12953:12959   */\n      dup3\n        /* \"#utility.yul\":12946:12950   */\n      0x20\n        /* \"#utility.yul\":12938:12944   */\n      dup7\n        /* \"#utility.yul\":12934:12951   */\n      add\n        /* \"#utility.yul\":12887:12965   */\n      tag_463\n      jump\t// in\n    tag_643:\n        /* \"#utility.yul\":12878:12965   */\n      swap2\n      pop\n        /* \"#utility.yul\":12694:12971   */\n      pop\n        /* \"#utility.yul\":12633:12971   */\n      swap3\n      swap2\n      pop\n      pop\n      jump\t// out\n        /* \"#utility.yul\":12977:13774   */\n    tag_180:\n        /* \"#utility.yul\":13063:13069   */\n      0x00\n        /* \"#utility.yul\":13071:13077   */\n      0x00\n        /* \"#utility.yul\":13079:13085   */\n      0x00\n        /* \"#utility.yul\":13128:13130   */\n      0x60\n        /* \"#utility.yul\":13116:13125   */\n      dup5\n        /* \"#utility.yul\":13107:13114   */\n      dup7\n        /* \"#utility.yul\":13103:13126   */\n      sub\n        /* \"#utility.yul\":13099:13131   */\n      slt\n        /* \"#utility.yul\":13096:13215   */\n      iszero\n      tag_645\n      jumpi\n        /* \"#utility.yul\":13134:13213   */\n      tag_646\n      tag_422\n      jump\t// in\n    tag_646:\n        /* \"#utility.yul\":13096:13215   */\n    tag_645:\n        /* \"#utility.yul\":13254:13255   */\n      0x00\n        /* \"#utility.yul\":13279:13332   */\n      tag_647\n        /* \"#utility.yul\":13324:13331   */\n      dup7\n        /* \"#utility.yul\":13315:13321   */\n      dup3\n        /* \"#utility.yul\":13304:13313   */\n      dup8\n        /* \"#utility.yul\":13300:13322   */\n      add\n        /* \"#utility.yul\":13279:13332   */\n      tag_430\n      jump\t// in\n    tag_647:\n        /* \"#utility.yul\":13269:13332   */\n      swap4\n      pop\n        /* \"#utility.yul\":13225:13342   */\n      pop\n        /* \"#utility.yul\":13381:13383   */\n      0x20\n        /* \"#utility.yul\":13407:13460   */\n      tag_648\n        /* \"#utility.yul\":13452:13459   */\n      dup7\n        /* \"#utility.yul\":13443:13449   */\n      dup3\n        /* \"#utility.yul\":13432:13441   */\n      dup8\n        /* \"#utility.yul\":13428:13450   */\n      add\n        /* \"#utility.yul\":13407:13460   */\n      tag_425\n      jump\t// in\n    tag_648:\n        /* \"#utility.yul\":13397:13460   */\n      swap3\n      pop\n        /* \"#utility.yul\":13352:13470   */\n      pop\n        /* \"#utility.yul\":13537:13539   */\n      0x40\n        /* \"#utility.yul\":13526:13535   */\n      dup5\n        /* \"#utility.yul\":13522:13540   */\n      add\n        /* \"#utility.yul\":13509:13541   */\n      calldataload\n        /* \"#utility.yul\":13568:13586   */\n      0xffffffffffffffff\n        /* \"#utility.yul\":13560:13566   */\n      dup2\n        /* \"#utility.yul\":13557:13587   */\n      gt\n        /* \"#utility.yul\":13554:13671   */\n      iszero\n      tag_649\n      jumpi\n        /* \"#utility.yul\":13590:13669   */\n      tag_650\n      tag_423\n      jump\t// in\n    tag_650:\n        /* \"#utility.yul\":13554:13671   */\n    tag_649:\n        /* \"#utility.yul\":13695:13757   */\n      tag_651\n        /* \"#utility.yul\":13749:13756   */\n      dup7\n        /* \"#utility.yul\":13740:13746   */\n      dup3\n        /* \"#utility.yul\":13729:13738   */\n      dup8\n        /* \"#utility.yul\":13725:13747   */\n      add\n        /* \"#utility.yul\":13695:13757   */\n      tag_464\n      jump\t// in\n    tag_651:\n        /* \"#utility.yul\":13685:13757   */\n      swap2\n      pop\n        /* \"#utility.yul\":13480:13767   */\n      pop\n        /* \"#utility.yul\":12977:13774   */\n      swap3\n      pop\n      swap3\n      pop\n      swap3\n      jump\t// out\n        /* \"#utility.yul\":13780:13949   */\n    tag_465:\n        /* \"#utility.yul\":13864:13875   */\n      0x00\n        /* \"#utility.yul\":13898:13904   */\n      dup3\n        /* \"#utility.yul\":13893:13896   */\n      dup3\n        /* \"#utility.yul\":13886:13905   */\n      mstore\n        /* \"#utility.yul\":13938:13942   */\n      0x20\n        /* \"#utility.yul\":13933:13936   */\n      dup3\n        /* \"#utility.yul\":13929:13943   */\n      add\n        /* \"#utility.yul\":13914:13943   */\n      swap1\n      pop\n        /* \"#utility.yul\":13780:13949   */\n      swap3\n      swap2\n      pop\n      pop\n      jump\t// out\n        /* \"#utility.yul\":13955:14127   */\n    tag_466:\n        /* \"#utility.yul\":14095:14119   */\n      0x5265636f76657279206e6f7420696e6974696174656400000000000000000000\n        /* \"#utility.yul\":14091:14092   */\n      0x00\n        /* \"#utility.yul\":14083:14089   */\n      dup3\n        /* \"#utility.yul\":14079:14093   */\n      add\n        /* \"#utility.yul\":14072:14120   */\n      mstore\n        /* \"#utility.yul\":13955:14127   */\n      pop\n      jump\t// out\n        /* \"#utility.yul\":14133:14499   */\n    tag_467:\n        /* \"#utility.yul\":14275:14278   */\n      0x00\n        /* \"#utility.yul\":14296:14363   */\n      tag_655\n        /* \"#utility.yul\":14360:14362   */\n      0x16\n        /* \"#utility.yul\":14355:14358   */\n      dup4\n        /* \"#utility.yul\":14296:14363   */\n      tag_465\n      jump\t// in\n    tag_655:\n        /* \"#utility.yul\":14289:14363   */\n      swap2\n      pop\n        /* \"#utility.yul\":14372:14465   */\n      tag_656\n        /* \"#utility.yul\":14461:14464   */\n      dup3\n        /* \"#utility.yul\":14372:14465   */\n      tag_466\n      jump\t// in\n    tag_656:\n        /* \"#utility.yul\":14490:14492   */\n      0x20\n        /* \"#utility.yul\":14485:14488   */\n      dup3\n        /* \"#utility.yul\":14481:14493   */\n      add\n        /* \"#utility.yul\":14474:14493   */\n      swap1\n      pop\n        /* \"#utility.yul\":14133:14499   */\n      swap2\n      swap1\n      pop\n      jump\t// out\n        /* \"#utility.yul\":14505:14924   */\n    tag_207:\n        /* \"#utility.yul\":14671:14675   */\n      0x00\n        /* \"#utility.yul\":14709:14711   */\n      0x20\n        /* \"#utility.yul\":14698:14707   */\n      dup3\n        /* \"#utility.yul\":14694:14712   */\n      add\n        /* \"#utility.yul\":14686:14712   */\n      swap1\n      pop\n        /* \"#utility.yul\":14758:14767   */\n      dup2\n        /* \"#utility.yul\":14752:14756   */\n      dup2\n        /* \"#utility.yul\":14748:14768   */\n      sub\n        /* \"#utility.yul\":14744:14745   */\n      0x00\n        /* \"#utility.yul\":14733:14742   */\n      dup4\n        /* \"#utility.yul\":14729:14746   */\n      add\n        /* \"#utility.yul\":14722:14769   */\n      mstore\n        /* \"#utility.yul\":14786:14917   */\n      tag_658\n        /* \"#utility.yul\":14912:14916   */\n      dup2\n        /* \"#utility.yul\":14786:14917   */\n      tag_467\n      jump\t// in\n    tag_658:\n        /* \"#utility.yul\":14778:14917   */\n      swap1\n      pop\n        /* \"#utility.yul\":14505:14924   */\n      swap2\n      swap1\n      pop\n      jump\t// out\n        /* \"#utility.yul\":14930:15110   */\n    tag_468:\n        /* \"#utility.yul\":14978:15055   */\n      0x4e487b7100000000000000000000000000000000000000000000000000000000\n        /* \"#utility.yul\":14975:14976   */\n      0x00\n        /* \"#utility.yul\":14968:15056   */\n      mstore\n        /* \"#utility.yul\":15075:15079   */\n      0x11\n        /* \"#utility.yul\":15072:15073   */\n      0x04\n        /* \"#utility.yul\":15065:15080   */\n      mstore\n        /* \"#utility.yul\":15099:15103   */\n      0x24\n        /* \"#utility.yul\":15096:15097   */\n      0x00\n        /* \"#utility.yul\":15089:15104   */\n      revert\n        /* \"#utility.yul\":15116:15310   */\n    tag_217:\n        /* \"#utility.yul\":15156:15160   */\n      0x00\n        /* \"#utility.yul\":15176:15196   */\n      tag_661\n        /* \"#utility.yul\":15194:15195   */\n      dup3\n        /* \"#utility.yul\":15176:15196   */\n      tag_419\n      jump\t// in\n    tag_661:\n        /* \"#utility.yul\":15171:15196   */\n      swap2\n      pop\n        /* \"#utility.yul\":15210:15230   */\n      tag_662\n        /* \"#utility.yul\":15228:15229   */\n      dup4\n        /* \"#utility.yul\":15210:15230   */\n      tag_419\n      jump\t// in\n    tag_662:\n        /* \"#utility.yul\":15205:15230   */\n      swap3\n      pop\n        /* \"#utility.yul\":15254:15255   */\n      dup3\n        /* \"#utility.yul\":15251:15252   */\n      dup3\n        /* \"#utility.yul\":15247:15256   */\n      sub\n        /* \"#utility.yul\":15239:15256   */\n      swap1\n      pop\n        /* \"#utility.yul\":15278:15279   */\n      dup2\n        /* \"#utility.yul\":15272:15276   */\n      dup2\n        /* \"#utility.yul\":15269:15280   */\n      gt\n        /* \"#utility.yul\":15266:15303   */\n      iszero\n      tag_663\n      jumpi\n        /* \"#utility.yul\":15283:15301   */\n      tag_664\n      tag_468\n      jump\t// in\n    tag_664:\n        /* \"#utility.yul\":15266:15303   */\n    tag_663:\n        /* \"#utility.yul\":15116:15310   */\n      swap3\n      swap2\n      pop\n      pop\n      jump\t// out\n        /* \"#utility.yul\":15316:15496   */\n    tag_220:\n        /* \"#utility.yul\":15364:15441   */\n      0x4e487b7100000000000000000000000000000000000000000000000000000000\n        /* \"#utility.yul\":15361:15362   */\n      0x00\n        /* \"#utility.yul\":15354:15442   */\n      mstore\n        /* \"#utility.yul\":15461:15465   */\n      0x32\n        /* \"#utility.yul\":15458:15459   */\n      0x04\n        /* \"#utility.yul\":15451:15466   */\n      mstore\n        /* \"#utility.yul\":15485:15489   */\n      0x24\n        /* \"#utility.yul\":15482:15483   */\n      0x00\n        /* \"#utility.yul\":15475:15490   */\n      revert\n        /* \"#utility.yul\":15502:15682   */\n    tag_232:\n        /* \"#utility.yul\":15550:15627   */\n      0x4e487b7100000000000000000000000000000000000000000000000000000000\n        /* \"#utility.yul\":15547:15548   */\n      0x00\n        /* \"#utility.yul\":15540:15628   */\n      mstore\n        /* \"#utility.yul\":15647:15651   */\n      0x31\n        /* \"#utility.yul\":15644:15645   */\n      0x04\n        /* \"#utility.yul\":15637:15652   */\n      mstore\n        /* \"#utility.yul\":15671:15675   */\n      0x24\n        /* \"#utility.yul\":15668:15669   */\n      0x00\n        /* \"#utility.yul\":15661:15676   */\n      revert\n        /* \"#utility.yul\":15688:15863   */\n    tag_469:\n        /* \"#utility.yul\":15828:15855   */\n      0x5265636f766572792074696d65206e6f74207265616368656400000000000000\n        /* \"#utility.yul\":15824:15825   */\n      0x00\n        /* \"#utility.yul\":15816:15822   */\n      dup3\n        /* \"#utility.yul\":15812:15826   */\n      add\n        /* \"#utility.yul\":15805:15856   */\n      mstore\n        /* \"#utility.yul\":15688:15863   */\n      pop\n      jump\t// out\n        /* \"#utility.yul\":15869:16235   */\n    tag_470:\n        /* \"#utility.yul\":16011:16014   */\n      0x00\n        /* \"#utility.yul\":16032:16099   */\n      tag_669\n        /* \"#utility.yul\":16096:16098   */\n      0x19\n        /* \"#utility.yul\":16091:16094   */\n      dup4\n        /* \"#utility.yul\":16032:16099   */\n      tag_465\n      jump\t// in\n    tag_669:\n        /* \"#utility.yul\":16025:16099   */\n      swap2\n      pop\n        /* \"#utility.yul\":16108:16201   */\n      tag_670\n        /* \"#utility.yul\":16197:16200   */\n      dup3\n        /* \"#utility.yul\":16108:16201   */\n      tag_469\n      jump\t// in\n    tag_670:\n        /* \"#utility.yul\":16226:16228   */\n      0x20\n        /* \"#utility.yul\":16221:16224   */\n      dup3\n        /* \"#utility.yul\":16217:16229   */\n      add\n        /* \"#utility.yul\":16210:16229   */\n      swap1\n      pop\n        /* \"#utility.yul\":15869:16235   */\n      swap2\n      swap1\n      pop\n      jump\t// out\n        /* \"#utility.yul\":16241:16660   */\n    tag_240:\n        /* \"#utility.yul\":16407:16411   */\n      0x00\n        /* \"#utility.yul\":16445:16447   */\n      0x20\n        /* \"#utility.yul\":16434:16443   */\n      dup3\n        /* \"#utility.yul\":16430:16448   */\n      add\n        /* \"#utility.yul\":16422:16448   */\n      swap1\n      pop\n        /* \"#utility.yul\":16494:16503   */\n      dup2\n        /* \"#utility.yul\":16488:16492   */\n      dup2\n        /* \"#utility.yul\":16484:16504   */\n      sub\n        /* \"#utility.yul\":16480:16481   */\n      0x00\n        /* \"#utility.yul\":16469:16478   */\n      dup4\n        /* \"#utility.yul\":16465:16482   */\n      add\n        /* \"#utility.yul\":16458:16505   */\n      mstore\n        /* \"#utility.yul\":16522:16653   */\n      tag_672\n        /* \"#utility.yul\":16648:16652   */\n      dup2\n        /* \"#utility.yul\":16522:16653   */\n      tag_470\n      jump\t// in\n    tag_672:\n        /* \"#utility.yul\":16514:16653   */\n      swap1\n      pop\n        /* \"#utility.yul\":16241:16660   */\n      swap2\n      swap1\n      pop\n      jump\t// out\n        /* \"#utility.yul\":16666:16836   */\n    tag_471:\n        /* \"#utility.yul\":16806:16828   */\n      0x4e6f74207265636f766572792061646472657373000000000000000000000000\n        /* \"#utility.yul\":16802:16803   */\n      0x00\n        /* \"#utility.yul\":16794:16800   */\n      dup3\n        /* \"#utility.yul\":16790:16804   */\n      add\n        /* \"#utility.yul\":16783:16829   */\n      mstore\n        /* \"#utility.yul\":16666:16836   */\n      pop\n      jump\t// out\n        /* \"#utility.yul\":16842:17208   */\n    tag_472:\n        /* \"#utility.yul\":16984:16987   */\n      0x00\n        /* \"#utility.yul\":17005:17072   */\n      tag_675\n        /* \"#utility.yul\":17069:17071   */\n      0x14\n        /* \"#utility.yul\":17064:17067   */\n      dup4\n        /* \"#utility.yul\":17005:17072   */\n      tag_465\n      jump\t// in\n    tag_675:\n        /* \"#utility.yul\":16998:17072   */\n      swap2\n      pop\n        /* \"#utility.yul\":17081:17174   */\n      tag_676\n        /* \"#utility.yul\":17170:17173   */\n      dup3\n        /* \"#utility.yul\":17081:17174   */\n      tag_471\n      jump\t// in\n    tag_676:\n        /* \"#utility.yul\":17199:17201   */\n      0x20\n        /* \"#utility.yul\":17194:17197   */\n      dup3\n        /* \"#utility.yul\":17190:17202   */\n      add\n        /* \"#utility.yul\":17183:17202   */\n      swap1\n      pop\n        /* \"#utility.yul\":16842:17208   */\n      swap2\n      swap1\n      pop\n      jump\t// out\n        /* \"#utility.yul\":17214:17633   */\n    tag_243:\n        /* \"#utility.yul\":17380:17384   */\n      0x00\n        /* \"#utility.yul\":17418:17420   */\n      0x20\n        /* \"#utility.yul\":17407:17416   */\n      dup3\n        /* \"#utility.yul\":17403:17421   */\n      add\n        /* \"#utility.yul\":17395:17421   */\n      swap1\n      pop\n        /* \"#utility.yul\":17467:17476   */\n      dup2\n        /* \"#utility.yul\":17461:17465   */\n      dup2\n        /* \"#utility.yul\":17457:17477   */\n      sub\n        /* \"#utility.yul\":17453:17454   */\n      0x00\n        /* \"#utility.yul\":17442:17451   */\n      dup4\n        /* \"#utility.yul\":17438:17455   */\n      add\n        /* \"#utility.yul\":17431:17478   */\n      mstore\n        /* \"#utility.yul\":17495:17626   */\n      tag_678\n        /* \"#utility.yul\":17621:17625   */\n      dup2\n        /* \"#utility.yul\":17495:17626   */\n      tag_472\n      jump\t// in\n    tag_678:\n        /* \"#utility.yul\":17487:17626   */\n      swap1\n      pop\n        /* \"#utility.yul\":17214:17633   */\n      swap2\n      swap1\n      pop\n      jump\t// out\n        /* \"#utility.yul\":17639:17815   */\n    tag_473:\n        /* \"#utility.yul\":17779:17807   */\n      0x5472616e73616374696f6e20646f6573206e6f74206578697374000000000000\n        /* \"#utility.yul\":17775:17776   */\n      0x00\n        /* \"#utility.yul\":17767:17773   */\n      dup3\n        /* \"#utility.yul\":17763:17777   */\n      add\n        /* \"#utility.yul\":17756:17808   */\n      mstore\n        /* \"#utility.yul\":17639:17815   */\n      pop\n      jump\t// out\n        /* \"#utility.yul\":17821:18187   */\n    tag_474:\n        /* \"#utility.yul\":17963:17966   */\n      0x00\n        /* \"#utility.yul\":17984:18051   */\n      tag_681\n        /* \"#utility.yul\":18048:18050   */\n      0x1a\n        /* \"#utility.yul\":18043:18046   */\n      dup4\n        /* \"#utility.yul\":17984:18051   */\n      tag_465\n      jump\t// in\n    tag_681:\n        /* \"#utility.yul\":17977:18051   */\n      swap2\n      pop\n        /* \"#utility.yul\":18060:18153   */\n      tag_682\n        /* \"#utility.yul\":18149:18152   */\n      dup3\n        /* \"#utility.yul\":18060:18153   */\n      tag_473\n      jump\t// in\n    tag_682:\n        /* \"#utility.yul\":18178:18180   */\n      0x20\n        /* \"#utility.yul\":18173:18176   */\n      dup3\n        /* \"#utility.yul\":18169:18181   */\n      add\n        /* \"#utility.yul\":18162:18181   */\n      swap1\n      pop\n        /* \"#utility.yul\":17821:18187   */\n      swap2\n      swap1\n      pop\n      jump\t// out\n        /* \"#utility.yul\":18193:18612   */\n    tag_257:\n        /* \"#utility.yul\":18359:18363   */\n      0x00\n        /* \"#utility.yul\":18397:18399   */\n      0x20\n        /* \"#utility.yul\":18386:18395   */\n      dup3\n        /* \"#utility.yul\":18382:18400   */\n      add\n        /* \"#utility.yul\":18374:18400   */\n      swap1\n      pop\n        /* \"#utility.yul\":18446:18455   */\n      dup2\n        /* \"#utility.yul\":18440:18444   */\n      dup2\n        /* \"#utility.yul\":18436:18456   */\n      sub\n        /* \"#utility.yul\":18432:18433   */\n      0x00\n        /* \"#utility.yul\":18421:18430   */\n      dup4\n        /* \"#utility.yul\":18417:18434   */\n      add\n        /* \"#utility.yul\":18410:18457   */\n      mstore\n        /* \"#utility.yul\":18474:18605   */\n      tag_684\n        /* \"#utility.yul\":18600:18604   */\n      dup2\n        /* \"#utility.yul\":18474:18605   */\n      tag_474\n      jump\t// in\n    tag_684:\n        /* \"#utility.yul\":18466:18605   */\n      swap1\n      pop\n        /* \"#utility.yul\":18193:18612   */\n      swap2\n      swap1\n      pop\n      jump\t// out\n        /* \"#utility.yul\":18618:18780   */\n    tag_475:\n        /* \"#utility.yul\":18758:18772   */\n      0x4f776e6572206578697374730000000000000000000000000000000000000000\n        /* \"#utility.yul\":18754:18755   */\n      0x00\n        /* \"#utility.yul\":18746:18752   */\n      dup3\n        /* \"#utility.yul\":18742:18756   */\n      add\n        /* \"#utility.yul\":18735:18773   */\n      mstore\n        /* \"#utility.yul\":18618:18780   */\n      pop\n      jump\t// out\n        /* \"#utility.yul\":18786:19152   */\n    tag_476:\n        /* \"#utility.yul\":18928:18931   */\n      0x00\n        /* \"#utility.yul\":18949:19016   */\n      tag_687\n        /* \"#utility.yul\":19013:19015   */\n      0x0c\n        /* \"#utility.yul\":19008:19011   */\n      dup4\n        /* \"#utility.yul\":18949:19016   */\n      tag_465\n      jump\t// in\n    tag_687:\n        /* \"#utility.yul\":18942:19016   */\n      swap2\n      pop\n        /* \"#utility.yul\":19025:19118   */\n      tag_688\n        /* \"#utility.yul\":19114:19117   */\n      dup3\n        /* \"#utility.yul\":19025:19118   */\n      tag_475\n      jump\t// in\n    tag_688:\n        /* \"#utility.yul\":19143:19145   */\n      0x20\n        /* \"#utility.yul\":19138:19141   */\n      dup3\n        /* \"#utility.yul\":19134:19146   */\n      add\n        /* \"#utility.yul\":19127:19146   */\n      swap1\n      pop\n        /* \"#utility.yul\":18786:19152   */\n      swap2\n      swap1\n      pop\n      jump\t// out\n        /* \"#utility.yul\":19158:19577   */\n    tag_271:\n        /* \"#utility.yul\":19324:19328   */\n      0x00\n        /* \"#utility.yul\":19362:19364   */\n      0x20\n        /* \"#utility.yul\":19351:19360   */\n      dup3\n        /* \"#utility.yul\":19347:19365   */\n      add\n        /* \"#utility.yul\":19339:19365   */\n      swap1\n      pop\n        /* \"#utility.yul\":19411:19420   */\n      dup2\n        /* \"#utility.yul\":19405:19409   */\n      dup2\n        /* \"#utility.yul\":19401:19421   */\n      sub\n        /* \"#utility.yul\":19397:19398   */\n      0x00\n        /* \"#utility.yul\":19386:19395   */\n      dup4\n        /* \"#utility.yul\":19382:19399   */\n      add\n        /* \"#utility.yul\":19375:19422   */\n      mstore\n        /* \"#utility.yul\":19439:19570   */\n      tag_690\n        /* \"#utility.yul\":19565:19569   */\n      dup2\n        /* \"#utility.yul\":19439:19570   */\n      tag_476\n      jump\t// in\n    tag_690:\n        /* \"#utility.yul\":19431:19570   */\n      swap1\n      pop\n        /* \"#utility.yul\":19158:19577   */\n      swap2\n      swap1\n      pop\n      jump\t// out\n        /* \"#utility.yul\":19583:19759   */\n    tag_477:\n        /* \"#utility.yul\":19723:19751   */\n      0x5265636f7665727920616c726561647920696e69746961746564000000000000\n        /* \"#utility.yul\":19719:19720   */\n      0x00\n        /* \"#utility.yul\":19711:19717   */\n      dup3\n        /* \"#utility.yul\":19707:19721   */\n      add\n        /* \"#utility.yul\":19700:19752   */\n      mstore\n        /* \"#utility.yul\":19583:19759   */\n      pop\n      jump\t// out\n        /* \"#utility.yul\":19765:20131   */\n    tag_478:\n        /* \"#utility.yul\":19907:19910   */\n      0x00\n        /* \"#utility.yul\":19928:19995   */\n      tag_693\n        /* \"#utility.yul\":19992:19994   */\n      0x1a\n        /* \"#utility.yul\":19987:19990   */\n      dup4\n        /* \"#utility.yul\":19928:19995   */\n      tag_465\n      jump\t// in\n    tag_693:\n        /* \"#utility.yul\":19921:19995   */\n      swap2\n      pop\n        /* \"#utility.yul\":20004:20097   */\n      tag_694\n        /* \"#utility.yul\":20093:20096   */\n      dup3\n        /* \"#utility.yul\":20004:20097   */\n      tag_477\n      jump\t// in\n    tag_694:\n        /* \"#utility.yul\":20122:20124   */\n      0x20\n        /* \"#utility.yul\":20117:20120   */\n      dup3\n        /* \"#utility.yul\":20113:20125   */\n      add\n        /* \"#utility.yul\":20106:20125   */\n      swap1\n      pop\n        /* \"#utility.yul\":19765:20131   */\n      swap2\n      swap1\n      pop\n      jump\t// out\n        /* \"#utility.yul\":20137:20556   */\n    tag_281:\n        /* \"#utility.yul\":20303:20307   */\n      0x00\n        /* \"#utility.yul\":20341:20343   */\n      0x20\n        /* \"#utility.yul\":20330:20339   */\n      dup3\n        /* \"#utility.yul\":20326:20344   */\n      add\n        /* \"#utility.yul\":20318:20344   */\n      swap1\n      pop\n        /* \"#utility.yul\":20390:20399   */\n      dup2\n        /* \"#utility.yul\":20384:20388   */\n      dup2\n        /* \"#utility.yul\":20380:20400   */\n      sub\n        /* \"#utility.yul\":20376:20377   */\n      0x00\n        /* \"#utility.yul\":20365:20374   */\n      dup4\n        /* \"#utility.yul\":20361:20378   */\n      add\n        /* \"#utility.yul\":20354:20401   */\n      mstore\n        /* \"#utility.yul\":20418:20549   */\n      tag_696\n        /* \"#utility.yul\":20544:20548   */\n      dup2\n        /* \"#utility.yul\":20418:20549   */\n      tag_478\n      jump\t// in\n    tag_696:\n        /* \"#utility.yul\":20410:20549   */\n      swap1\n      pop\n        /* \"#utility.yul\":20137:20556   */\n      swap2\n      swap1\n      pop\n      jump\t// out\n        /* \"#utility.yul\":20562:20753   */\n    tag_283:\n        /* \"#utility.yul\":20602:20605   */\n      0x00\n        /* \"#utility.yul\":20621:20641   */\n      tag_698\n        /* \"#utility.yul\":20639:20640   */\n      dup3\n        /* \"#utility.yul\":20621:20641   */\n      tag_419\n      jump\t// in\n    tag_698:\n        /* \"#utility.yul\":20616:20641   */\n      swap2\n      pop\n        /* \"#utility.yul\":20655:20675   */\n      tag_699\n        /* \"#utility.yul\":20673:20674   */\n      dup4\n        /* \"#utility.yul\":20655:20675   */\n      tag_419\n      jump\t// in\n    tag_699:\n        /* \"#utility.yul\":20650:20675   */\n      swap3\n      pop\n        /* \"#utility.yul\":20698:20699   */\n      dup3\n        /* \"#utility.yul\":20695:20696   */\n      dup3\n        /* \"#utility.yul\":20691:20700   */\n      add\n        /* \"#utility.yul\":20684:20700   */\n      swap1\n      pop\n        /* \"#utility.yul\":20719:20722   */\n      dup1\n        /* \"#utility.yul\":20716:20717   */\n      dup3\n        /* \"#utility.yul\":20713:20723   */\n      gt\n        /* \"#utility.yul\":20710:20746   */\n      iszero\n      tag_700\n      jumpi\n        /* \"#utility.yul\":20726:20744   */\n      tag_701\n      tag_468\n      jump\t// in\n    tag_701:\n        /* \"#utility.yul\":20710:20746   */\n    tag_700:\n        /* \"#utility.yul\":20562:20753   */\n      swap3\n      swap2\n      pop\n      pop\n      jump\t// out\n        /* \"#utility.yul\":20759:20939   */\n    tag_479:\n        /* \"#utility.yul\":20807:20884   */\n      0x4e487b7100000000000000000000000000000000000000000000000000000000\n        /* \"#utility.yul\":20804:20805   */\n      0x00\n        /* \"#utility.yul\":20797:20885   */\n      mstore\n        /* \"#utility.yul\":20904:20908   */\n      0x22\n        /* \"#utility.yul\":20901:20902   */\n      0x04\n        /* \"#utility.yul\":20894:20909   */\n      mstore\n        /* \"#utility.yul\":20928:20932   */\n      0x24\n        /* \"#utility.yul\":20925:20926   */\n      0x00\n        /* \"#utility.yul\":20918:20933   */\n      revert\n        /* \"#utility.yul\":20945:21265   */\n    tag_290:\n        /* \"#utility.yul\":20989:20995   */\n      0x00\n        /* \"#utility.yul\":21026:21027   */\n      0x02\n        /* \"#utility.yul\":21020:21024   */\n      dup3\n        /* \"#utility.yul\":21016:21028   */\n      div\n        /* \"#utility.yul\":21006:21028   */\n      swap1\n      pop\n        /* \"#utility.yul\":21073:21074   */\n      0x01\n        /* \"#utility.yul\":21067:21071   */\n      dup3\n        /* \"#utility.yul\":21063:21075   */\n      and\n        /* \"#utility.yul\":21094:21112   */\n      dup1\n        /* \"#utility.yul\":21084:21165   */\n      tag_704\n      jumpi\n        /* \"#utility.yul\":21150:21154   */\n      0x7f\n        /* \"#utility.yul\":21142:21148   */\n      dup3\n        /* \"#utility.yul\":21138:21155   */\n      and\n        /* \"#utility.yul\":21128:21155   */\n      swap2\n      pop\n        /* \"#utility.yul\":21084:21165   */\n    tag_704:\n        /* \"#utility.yul\":21212:21214   */\n      0x20\n        /* \"#utility.yul\":21204:21210   */\n      dup3\n        /* \"#utility.yul\":21201:21215   */\n      lt\n        /* \"#utility.yul\":21181:21199   */\n      dup2\n        /* \"#utility.yul\":21178:21216   */\n      sub\n        /* \"#utility.yul\":21175:21259   */\n      tag_705\n      jumpi\n        /* \"#utility.yul\":21231:21249   */\n      tag_706\n      tag_479\n      jump\t// in\n    tag_706:\n        /* \"#utility.yul\":21175:21259   */\n    tag_705:\n        /* \"#utility.yul\":20996:21265   */\n      pop\n        /* \"#utility.yul\":20945:21265   */\n      swap2\n      swap1\n      pop\n      jump\t// out\n        /* \"#utility.yul\":21271:21504   */\n    tag_315:\n        /* \"#utility.yul\":21310:21313   */\n      0x00\n        /* \"#utility.yul\":21333:21357   */\n      tag_708\n        /* \"#utility.yul\":21351:21356   */\n      dup3\n        /* \"#utility.yul\":21333:21357   */\n      tag_419\n      jump\t// in\n    tag_708:\n        /* \"#utility.yul\":21324:21357   */\n      swap2\n      pop\n        /* \"#utility.yul\":21379:21445   */\n      0xffffffffffffffffffffffffffffffffffffffffffffffffffffffffffffffff\n        /* \"#utility.yul\":21372:21377   */\n      dup3\n        /* \"#utility.yul\":21369:21446   */\n      sub\n        /* \"#utility.yul\":21366:21469   */\n      tag_709\n      jumpi\n        /* \"#utility.yul\":21449:21467   */\n      tag_710\n      tag_468\n      jump\t// in\n    tag_710:\n        /* \"#utility.yul\":21366:21469   */\n    tag_709:\n        /* \"#utility.yul\":21496:21497   */\n      0x01\n        /* \"#utility.yul\":21489:21494   */\n      dup3\n        /* \"#utility.yul\":21485:21498   */\n      add\n        /* \"#utility.yul\":21478:21498   */\n      swap1\n      pop\n        /* \"#utility.yul\":21271:21504   */\n      swap2\n      swap1\n      pop\n      jump\t// out\n        /* \"#utility.yul\":21510:21676   */\n    tag_480:\n        /* \"#utility.yul\":21650:21668   */\n      0x496e76616c696420726571756972656400000000000000000000000000000000\n        /* \"#utility.yul\":21646:21647   */\n      0x00\n        /* \"#utility.yul\":21638:21644   */\n      dup3\n        /* \"#utility.yul\":21634:21648   */\n      add\n        /* \"#utility.yul\":21627:21669   */\n      mstore\n        /* \"#utility.yul\":21510:21676   */\n      pop\n      jump\t// out\n        /* \"#utility.yul\":21682:22048   */\n    tag_481:\n        /* \"#utility.yul\":21824:21827   */\n      0x00\n        /* \"#utility.yul\":21845:21912   */\n      tag_713\n        /* \"#utility.yul\":21909:21911   */\n      0x10\n        /* \"#utility.yul\":21904:21907   */\n      dup4\n        /* \"#utility.yul\":21845:21912   */\n      tag_465\n      jump\t// in\n    tag_713:\n        /* \"#utility.yul\":21838:21912   */\n      swap2\n      pop\n        /* \"#utility.yul\":21921:22014   */\n      tag_714\n        /* \"#utility.yul\":22010:22013   */\n      dup3\n        /* \"#utility.yul\":21921:22014   */\n      tag_480\n      jump\t// in\n    tag_714:\n        /* \"#utility.yul\":22039:22041   */\n      0x20\n        /* \"#utility.yul\":22034:22037   */\n      dup3\n        /* \"#utility.yul\":22030:22042   */\n      add\n        /* \"#utility.yul\":22023:22042   */\n      swap1\n      pop\n        /* \"#utility.yul\":21682:22048   */\n      swap2\n      swap1\n      pop\n      jump\t// out\n        /* \"#utility.yul\":22054:22473   */\n    tag_362:\n        /* \"#utility.yul\":22220:22224   */\n      0x00\n        /* \"#utility.yul\":22258:22260   */\n      0x20\n        /* \"#utility.yul\":22247:22256   */\n      dup3\n        /* \"#utility.yul\":22243:22261   */\n      add\n        /* \"#utility.yul\":22235:22261   */\n      swap1\n      pop\n        /* \"#utility.yul\":22307:22316   */\n      dup2\n        /* \"#utility.yul\":22301:22305   */\n      dup2\n        /* \"#utility.yul\":22297:22317   */\n      sub\n        /* \"#utility.yul\":22293:22294   */\n      0x00\n        /* \"#utility.yul\":22282:22291   */\n      dup4\n        /* \"#utility.yul\":22278:22295   */\n      add\n        /* \"#utility.yul\":22271:22318   */\n      mstore\n        /* \"#utility.yul\":22335:22466   */\n      tag_716\n        /* \"#utility.yul\":22461:22465   */\n      dup2\n        /* \"#utility.yul\":22335:22466   */\n      tag_481\n      jump\t// in\n    tag_716:\n        /* \"#utility.yul\":22327:22466   */\n      swap1\n      pop\n        /* \"#utility.yul\":22054:22473   */\n      swap2\n      swap1\n      pop\n      jump\t// out\n        /* \"#utility.yul\":22479:22619   */\n    tag_482:\n        /* \"#utility.yul\":22527:22531   */\n      0x00\n        /* \"#utility.yul\":22550:22553   */\n      dup2\n        /* \"#utility.yul\":22542:22553   */\n      swap1\n      pop\n        /* \"#utility.yul\":22573:22576   */\n      dup2\n        /* \"#utility.yul\":22570:22571   */\n      0x00\n        /* \"#utility.yul\":22563:22577   */\n      mstore\n        /* \"#utility.yul\":22607:22611   */\n      0x20\n        /* \"#utility.yul\":22604:22605   */\n      0x00\n        /* \"#utility.yul\":22594:22612   */\n      keccak256\n        /* \"#utility.yul\":22586:22612   */\n      swap1\n      pop\n        /* \"#utility.yul\":22479:22619   */\n      swap2\n      swap1\n      pop\n      jump\t// out\n        /* \"#utility.yul\":22625:22718   */\n    tag_483:\n        /* \"#utility.yul\":22662:22668   */\n      0x00\n        /* \"#utility.yul\":22709:22711   */\n      0x20\n        /* \"#utility.yul\":22704:22706   */\n      0x1f\n        /* \"#utility.yul\":22697:22702   */\n      dup4\n        /* \"#utility.yul\":22693:22707   */\n      add\n        /* \"#utility.yul\":22689:22712   */\n      div\n        /* \"#utility.yul\":22679:22712   */\n      swap1\n      pop\n        /* \"#utility.yul\":22625:22718   */\n      swap2\n      swap1\n      pop\n      jump\t// out\n        /* \"#utility.yul\":22724:22831   */\n    tag_484:\n        /* \"#utility.yul\":22768:22776   */\n      0x00\n        /* \"#utility.yul\":22818:22823   */\n      dup3\n        /* \"#utility.yul\":22812:22816   */\n      dup3\n        /* \"#utility.yul\":22808:22824   */\n      shl\n        /* \"#utility.yul\":22787:22824   */\n      swap1\n      pop\n        /* \"#utility.yul\":22724:22831   */\n      swap3\n      swap2\n      pop\n      pop\n      jump\t// out\n        /* \"#utility.yul\":22837:23230   */\n    tag_485:\n        /* \"#utility.yul\":22906:22912   */\n      0x00\n        /* \"#utility.yul\":22956:22957   */\n      0x08\n        /* \"#utility.yul\":22944:22954   */\n      dup4\n        /* \"#utility.yul\":22940:22958   */\n      mul\n        /* \"#utility.yul\":22979:23076   */\n      tag_721\n        /* \"#utility.yul\":23009:23075   */\n      0xffffffffffffffffffffffffffffffffffffffffffffffffffffffffffffffff\n        /* \"#utility.yul\":22998:23007   */\n      dup3\n        /* \"#utility.yul\":22979:23076   */\n      tag_484\n      jump\t// in\n    tag_721:\n        /* \"#utility.yul\":23097:23136   */\n      tag_722\n        /* \"#utility.yul\":23127:23135   */\n      dup7\n        /* \"#utility.yul\":23116:23125   */\n      dup4\n        /* \"#utility.yul\":23097:23136   */\n      tag_484\n      jump\t// in\n    tag_722:\n        /* \"#utility.yul\":23085:23136   */\n      swap6\n      pop\n        /* \"#utility.yul\":23169:23173   */\n      dup1\n        /* \"#utility.yul\":23165:23174   */\n      not\n        /* \"#utility.yul\":23158:23163   */\n      dup5\n        /* \"#utility.yul\":23154:23175   */\n      and\n        /* \"#utility.yul\":23145:23175   */\n      swap4\n      pop\n        /* \"#utility.yul\":23218:23222   */\n      dup1\n        /* \"#utility.yul\":23208:23216   */\n      dup7\n        /* \"#utility.yul\":23204:23223   */\n      and\n        /* \"#utility.yul\":23197:23202   */\n      dup5\n        /* \"#utility.yul\":23194:23224   */\n      or\n        /* \"#utility.yul\":23184:23224   */\n      swap3\n      pop\n        /* \"#utility.yul\":22913:23230   */\n      pop\n      pop\n        /* \"#utility.yul\":22837:23230   */\n      swap4\n      swap3\n      pop\n      pop\n      pop\n      jump\t// out\n        /* \"#utility.yul\":23236:23296   */\n    tag_486:\n        /* \"#utility.yul\":23264:23267   */\n      0x00\n        /* \"#utility.yul\":23285:23290   */\n      dup2\n        /* \"#utility.yul\":23278:23290   */\n      swap1\n      pop\n        /* \"#utility.yul\":23236:23296   */\n      swap2\n      swap1\n      pop\n      jump\t// out\n        /* \"#utility.yul\":23302:23444   */\n    tag_487:\n        /* \"#utility.yul\":23352:23361   */\n      0x00\n        /* \"#utility.yul\":23385:23438   */\n      tag_725\n        /* \"#utility.yul\":23403:23437   */\n      tag_726\n        /* \"#utility.yul\":23412:23436   */\n      tag_727\n        /* \"#utility.yul\":23430:23435   */\n      dup5\n        /* \"#utility.yul\":23412:23436   */\n      tag_419\n      jump\t// in\n    tag_727:\n        /* \"#utility.yul\":23403:23437   */\n      tag_486\n      jump\t// in\n    tag_726:\n        /* \"#utility.yul\":23385:23438   */\n      tag_419\n      jump\t// in\n    tag_725:\n        /* \"#utility.yul\":23372:23438   */\n      swap1\n      pop\n        /* \"#utility.yul\":23302:23444   */\n      swap2\n      swap1\n      pop\n      jump\t// out\n        /* \"#utility.yul\":23450:23525   */\n    tag_488:\n        /* \"#utility.yul\":23493:23496   */\n      0x00\n        /* \"#utility.yul\":23514:23519   */\n      dup2\n        /* \"#utility.yul\":23507:23519   */\n      swap1\n      pop\n        /* \"#utility.yul\":23450:23525   */\n      swap2\n      swap1\n      pop\n      jump\t// out\n        /* \"#utility.yul\":23531:23800   */\n    tag_489:\n        /* \"#utility.yul\":23641:23680   */\n      tag_730\n        /* \"#utility.yul\":23672:23679   */\n      dup4\n        /* \"#utility.yul\":23641:23680   */\n      tag_487\n      jump\t// in\n    tag_730:\n        /* \"#utility.yul\":23702:23793   */\n      tag_731\n        /* \"#utility.yul\":23751:23792   */\n      tag_732\n        /* \"#utility.yul\":23775:23791   */\n      dup3\n        /* \"#utility.yul\":23751:23792   */\n      tag_488\n      jump\t// in\n    tag_732:\n        /* \"#utility.yul\":23743:23749   */\n      dup5\n        /* \"#utility.yul\":23736:23740   */\n      dup5\n        /* \"#utility.yul\":23730:23741   */\n      sload\n        /* \"#utility.yul\":23702:23793   */\n      tag_485\n      jump\t// in\n    tag_731:\n        /* \"#utility.yul\":23696:23700   */\n      dup3\n        /* \"#utility.yul\":23689:23794   */\n      sstore\n        /* \"#utility.yul\":23607:23800   */\n      pop\n        /* \"#utility.yul\":23531:23800   */\n      pop\n      pop\n      pop\n      jump\t// out\n        /* \"#utility.yul\":23806:23879   */\n    tag_490:\n        /* \"#utility.yul\":23851:23854   */\n      0x00\n        /* \"#utility.yul\":23872:23873   */\n      0x00\n        /* \"#utility.yul\":23865:23873   */\n      swap1\n      pop\n        /* \"#utility.yul\":23806:23879   */\n      swap1\n      jump\t// out\n        /* \"#utility.yul\":23885:24074   */\n    tag_491:\n        /* \"#utility.yul\":23962:23994   */\n      tag_735\n      tag_490\n      jump\t// in\n    tag_735:\n        /* \"#utility.yul\":24003:24068   */\n      tag_736\n        /* \"#utility.yul\":24061:24067   */\n      dup2\n        /* \"#utility.yul\":24053:24059   */\n      dup5\n        /* \"#utility.yul\":24047:24051   */\n      dup5\n        /* \"#utility.yul\":24003:24068   */\n      tag_489\n      jump\t// in\n    tag_736:\n        /* \"#utility.yul\":23938:24074   */\n      pop\n        /* \"#utility.yul\":23885:24074   */\n      pop\n      pop\n      jump\t// out\n        /* \"#utility.yul\":24080:24266   */\n    tag_492:\n        /* \"#utility.yul\":24140:24260   */\n    tag_738:\n        /* \"#utility.yul\":24157:24160   */\n      dup2\n        /* \"#utility.yul\":24150:24155   */\n      dup2\n        /* \"#utility.yul\":24147:24161   */\n      lt\n        /* \"#utility.yul\":24140:24260   */\n      iszero\n      tag_740\n      jumpi\n        /* \"#utility.yul\":24211:24250   */\n      tag_741\n        /* \"#utility.yul\":24248:24249   */\n      0x00\n        /* \"#utility.yul\":24241:24246   */\n      dup3\n        /* \"#utility.yul\":24211:24250   */\n      tag_491\n      jump\t// in\n    tag_741:\n        /* \"#utility.yul\":24184:24185   */\n      0x01\n        /* \"#utility.yul\":24177:24182   */\n      dup2\n        /* \"#utility.yul\":24173:24186   */\n      add\n        /* \"#utility.yul\":24164:24186   */\n      swap1\n      pop\n        /* \"#utility.yul\":24140:24260   */\n      jump(tag_738)\n    tag_740:\n        /* \"#utility.yul\":24080:24266   */\n      pop\n      pop\n      jump\t// out\n        /* \"#utility.yul\":24272:24813   */\n    tag_493:\n        /* \"#utility.yul\":24372:24374   */\n      0x1f\n        /* \"#utility.yul\":24367:24370   */\n      dup3\n        /* \"#utility.yul\":24364:24375   */\n      gt\n        /* \"#utility.yul\":24361:24806   */\n      iszero\n      tag_743\n      jumpi\n        /* \"#utility.yul\":24406:24443   */\n      tag_744\n        /* \"#utility.yul\":24437:24442   */\n      dup2\n        /* \"#utility.yul\":24406:24443   */\n      tag_482\n      jump\t// in\n    tag_744:\n        /* \"#utility.yul\":24489:24518   */\n      tag_745\n        /* \"#utility.yul\":24507:24517   */\n      dup5\n        /* \"#utility.yul\":24489:24518   */\n      tag_483\n      jump\t// in\n    tag_745:\n        /* \"#utility.yul\":24479:24487   */\n      dup2\n        /* \"#utility.yul\":24475:24519   */\n      add\n        /* \"#utility.yul\":24672:24674   */\n      0x20\n        /* \"#utility.yul\":24660:24670   */\n      dup6\n        /* \"#utility.yul\":24657:24675   */\n      lt\n        /* \"#utility.yul\":24654:24703   */\n      iszero\n      tag_746\n      jumpi\n        /* \"#utility.yul\":24693:24701   */\n      dup2\n        /* \"#utility.yul\":24678:24701   */\n      swap1\n      pop\n        /* \"#utility.yul\":24654:24703   */\n    tag_746:\n        /* \"#utility.yul\":24716:24796   */\n      tag_747\n        /* \"#utility.yul\":24772:24794   */\n      tag_748\n        /* \"#utility.yul\":24790:24793   */\n      dup6\n        /* \"#utility.yul\":24772:24794   */\n      tag_483\n      jump\t// in\n    tag_748:\n        /* \"#utility.yul\":24762:24770   */\n      dup4\n        /* \"#utility.yul\":24758:24795   */\n      add\n        /* \"#utility.yul\":24745:24756   */\n      dup3\n        /* \"#utility.yul\":24716:24796   */\n      tag_492\n      jump\t// in\n    tag_747:\n        /* \"#utility.yul\":24376:24806   */\n      pop\n      pop\n        /* \"#utility.yul\":24361:24806   */\n    tag_743:\n        /* \"#utility.yul\":24272:24813   */\n      pop\n      pop\n      pop\n      jump\t// out\n        /* \"#utility.yul\":24819:24936   */\n    tag_494:\n        /* \"#utility.yul\":24873:24881   */\n      0x00\n        /* \"#utility.yul\":24923:24928   */\n      dup3\n        /* \"#utility.yul\":24917:24921   */\n      dup3\n        /* \"#utility.yul\":24913:24929   */\n      shr\n        /* \"#utility.yul\":24892:24929   */\n      swap1\n      pop\n        /* \"#utility.yul\":24819:24936   */\n      swap3\n      swap2\n      pop\n      pop\n      jump\t// out\n        /* \"#utility.yul\":24942:25111   */\n    tag_495:\n        /* \"#utility.yul\":24986:24992   */\n      0x00\n        /* \"#utility.yul\":25019:25070   */\n      tag_751\n        /* \"#utility.yul\":25067:25068   */\n      0x00\n        /* \"#utility.yul\":25063:25069   */\n      not\n        /* \"#utility.yul\":25055:25060   */\n      dup5\n        /* \"#utility.yul\":25052:25053   */\n      0x08\n        /* \"#utility.yul\":25048:25061   */\n      mul\n        /* \"#utility.yul\":25019:25070   */\n      tag_494\n      jump\t// in\n    tag_751:\n        /* \"#utility.yul\":25015:25071   */\n      not\n        /* \"#utility.yul\":25100:25104   */\n      dup1\n        /* \"#utility.yul\":25094:25098   */\n      dup4\n        /* \"#utility.yul\":25090:25105   */\n      and\n        /* \"#utility.yul\":25080:25105   */\n      swap2\n      pop\n        /* \"#utility.yul\":24993:25111   */\n      pop\n        /* \"#utility.yul\":24942:25111   */\n      swap3\n      swap2\n      pop\n      pop\n      jump\t// out\n        /* \"#utility.yul\":25116:25411   */\n    tag_496:\n        /* \"#utility.yul\":25192:25196   */\n      0x00\n        /* \"#utility.yul\":25338:25367   */\n      tag_753\n        /* \"#utility.yul\":25363:25366   */\n      dup4\n        /* \"#utility.yul\":25357:25361   */\n      dup4\n        /* \"#utility.yul\":25338:25367   */\n      tag_495\n      jump\t// in\n    tag_753:\n        /* \"#utility.yul\":25330:25367   */\n      swap2\n      pop\n        /* \"#utility.yul\":25400:25403   */\n      dup3\n        /* \"#utility.yul\":25397:25398   */\n      0x02\n        /* \"#utility.yul\":25393:25404   */\n      mul\n        /* \"#utility.yul\":25387:25391   */\n      dup3\n        /* \"#utility.yul\":25384:25405   */\n      or\n        /* \"#utility.yul\":25376:25405   */\n      swap1\n      pop\n        /* \"#utility.yul\":25116:25411   */\n      swap3\n      swap2\n      pop\n      pop\n      jump\t// out\n        /* \"#utility.yul\":25416:26806   */\n    tag_380:\n        /* \"#utility.yul\":25531:25567   */\n      tag_755\n        /* \"#utility.yul\":25563:25566   */\n      dup3\n        /* \"#utility.yul\":25531:25567   */\n      tag_436\n      jump\t// in\n    tag_755:\n        /* \"#utility.yul\":25632:25650   */\n      0xffffffffffffffff\n        /* \"#utility.yul\":25624:25630   */\n      dup2\n        /* \"#utility.yul\":25621:25651   */\n      gt\n        /* \"#utility.yul\":25618:25674   */\n      iszero\n      tag_756\n      jumpi\n        /* \"#utility.yul\":25654:25672   */\n      tag_757\n      tag_301\n      jump\t// in\n    tag_757:\n        /* \"#utility.yul\":25618:25674   */\n    tag_756:\n        /* \"#utility.yul\":25698:25736   */\n      tag_758\n        /* \"#utility.yul\":25730:25734   */\n      dup3\n        /* \"#utility.yul\":25724:25735   */\n      sload\n        /* \"#utility.yul\":25698:25736   */\n      tag_290\n      jump\t// in\n    tag_758:\n        /* \"#utility.yul\":25783:25849   */\n      tag_759\n        /* \"#utility.yul\":25842:25848   */\n      dup3\n        /* \"#utility.yul\":25834:25840   */\n      dup3\n        /* \"#utility.yul\":25828:25832   */\n      dup6\n        /* \"#utility.yul\":25783:25849   */\n      tag_493\n      jump\t// in\n    tag_759:\n        /* \"#utility.yul\":25876:25877   */\n      0x00\n        /* \"#utility.yul\":25900:25904   */\n      0x20\n        /* \"#utility.yul\":25887:25904   */\n      swap1\n      pop\n        /* \"#utility.yul\":25932:25934   */\n      0x1f\n        /* \"#utility.yul\":25924:25930   */\n      dup4\n        /* \"#utility.yul\":25921:25935   */\n      gt\n        /* \"#utility.yul\":25949:25950   */\n      0x01\n        /* \"#utility.yul\":25944:26561   */\n      dup2\n      eq\n      tag_761\n      jumpi\n        /* \"#utility.yul\":26605:26606   */\n      0x00\n        /* \"#utility.yul\":26622:26628   */\n      dup5\n        /* \"#utility.yul\":26619:26696   */\n      iszero\n      tag_762\n      jumpi\n        /* \"#utility.yul\":26671:26680   */\n      dup3\n        /* \"#utility.yul\":26666:26669   */\n      dup8\n        /* \"#utility.yul\":26662:26681   */\n      add\n        /* \"#utility.yul\":26656:26682   */\n      mload\n        /* \"#utility.yul\":26647:26682   */\n      swap1\n      pop\n        /* \"#utility.yul\":26619:26696   */\n    tag_762:\n        /* \"#utility.yul\":26722:26789   */\n      tag_763\n        /* \"#utility.yul\":26782:26788   */\n      dup6\n        /* \"#utility.yul\":26775:26780   */\n      dup3\n        /* \"#utility.yul\":26722:26789   */\n      tag_496\n      jump\t// in\n    tag_763:\n        /* \"#utility.yul\":26716:26720   */\n      dup7\n        /* \"#utility.yul\":26709:26790   */\n      sstore\n        /* \"#utility.yul\":26578:26800   */\n      pop\n        /* \"#utility.yul\":25914:26800   */\n      jump(tag_760)\n        /* \"#utility.yul\":25944:26561   */\n    tag_761:\n        /* \"#utility.yul\":25996:26000   */\n      0x1f\n        /* \"#utility.yul\":25992:26001   */\n      not\n        /* \"#utility.yul\":25984:25990   */\n      dup5\n        /* \"#utility.yul\":25980:26002   */\n      and\n        /* \"#utility.yul\":26030:26066   */\n      tag_764\n        /* \"#utility.yul\":26061:26065   */\n      dup7\n        /* \"#utility.yul\":26030:26066   */\n      tag_482\n      jump\t// in\n    tag_764:\n        /* \"#utility.yul\":26088:26089   */\n      0x00\n        /* \"#utility.yul\":26102:26310   */\n    tag_765:\n        /* \"#utility.yul\":26116:26123   */\n      dup3\n        /* \"#utility.yul\":26113:26114   */\n      dup2\n        /* \"#utility.yul\":26110:26124   */\n      lt\n        /* \"#utility.yul\":26102:26310   */\n      iszero\n      tag_767\n      jumpi\n        /* \"#utility.yul\":26195:26204   */\n      dup5\n        /* \"#utility.yul\":26190:26193   */\n      dup10\n        /* \"#utility.yul\":26186:26205   */\n      add\n        /* \"#utility.yul\":26180:26206   */\n      mload\n        /* \"#utility.yul\":26172:26178   */\n      dup3\n        /* \"#utility.yul\":26165:26207   */\n      sstore\n        /* \"#utility.yul\":26246:26247   */\n      0x01\n        /* \"#utility.yul\":26238:26244   */\n      dup3\n        /* \"#utility.yul\":26234:26248   */\n      add\n        /* \"#utility.yul\":26224:26248   */\n      swap2\n      pop\n        /* \"#utility.yul\":26293:26295   */\n      0x20\n        /* \"#utility.yul\":26282:26291   */\n      dup6\n        /* \"#utility.yul\":26278:26296   */\n      add\n        /* \"#utility.yul\":26265:26296   */\n      swap5\n      pop\n        /* \"#utility.yul\":26139:26143   */\n      0x20\n        /* \"#utility.yul\":26136:26137   */\n      dup2\n        /* \"#utility.yul\":26132:26144   */\n      add\n        /* \"#utility.yul\":26127:26144   */\n      swap1\n      pop\n        /* \"#utility.yul\":26102:26310   */\n      jump(tag_765)\n    tag_767:\n        /* \"#utility.yul\":26338:26344   */\n      dup7\n        /* \"#utility.yul\":26329:26336   */\n      dup4\n        /* \"#utility.yul\":26326:26345   */\n      lt\n        /* \"#utility.yul\":26323:26502   */\n      iszero\n      tag_768\n      jumpi\n        /* \"#utility.yul\":26396:26405   */\n      dup5\n        /* \"#utility.yul\":26391:26394   */\n      dup10\n        /* \"#utility.yul\":26387:26406   */\n      add\n        /* \"#utility.yul\":26381:26407   */\n      mload\n        /* \"#utility.yul\":26439:26487   */\n      tag_769\n        /* \"#utility.yul\":26481:26485   */\n      0x1f\n        /* \"#utility.yul\":26473:26479   */\n      dup10\n        /* \"#utility.yul\":26469:26486   */\n      and\n        /* \"#utility.yul\":26458:26467   */\n      dup3\n        /* \"#utility.yul\":26439:26487   */\n      tag_495\n      jump\t// in\n    tag_769:\n        /* \"#utility.yul\":26431:26437   */\n      dup4\n        /* \"#utility.yul\":26424:26488   */\n      sstore\n        /* \"#utility.yul\":26346:26502   */\n      pop\n        /* \"#utility.yul\":26323:26502   */\n    tag_768:\n        /* \"#utility.yul\":26548:26549   */\n      0x01\n        /* \"#utility.yul\":26544:26545   */\n      0x02\n        /* \"#utility.yul\":26536:26542   */\n      dup9\n        /* \"#utility.yul\":26532:26546   */\n      mul\n        /* \"#utility.yul\":26528:26550   */\n      add\n        /* \"#utility.yul\":26522:26526   */\n      dup9\n        /* \"#utility.yul\":26515:26551   */\n      sstore\n        /* \"#utility.yul\":25951:26561   */\n      pop\n      pop\n      pop\n        /* \"#utility.yul\":25914:26800   */\n    tag_760:\n      pop\n        /* \"#utility.yul\":25506:26806   */\n      pop\n      pop\n      pop\n        /* \"#utility.yul\":25416:26806   */\n      pop\n      pop\n      jump\t// out\n        /* \"#utility.yul\":26812:26959   */\n    tag_497:\n        /* \"#utility.yul\":26913:26924   */\n      0x00\n        /* \"#utility.yul\":26950:26953   */\n      dup2\n        /* \"#utility.yul\":26935:26953   */\n      swap1\n      pop\n        /* \"#utility.yul\":26812:26959   */\n      swap3\n      swap2\n      pop\n      pop\n      jump\t// out\n        /* \"#utility.yul\":26987:27857   */\n    tag_498:\n        /* \"#utility.yul\":27088:27091   */\n      0x00\n        /* \"#utility.yul\":27125:27130   */\n      dup2\n        /* \"#utility.yul\":27119:27131   */\n      sload\n        /* \"#utility.yul\":27154:27190   */\n      tag_772\n        /* \"#utility.yul\":27180:27189   */\n      dup2\n        /* \"#utility.yul\":27154:27190   */\n      tag_290\n      jump\t// in\n    tag_772:\n        /* \"#utility.yul\":27206:27294   */\n      tag_773\n        /* \"#utility.yul\":27287:27293   */\n      dup2\n        /* \"#utility.yul\":27282:27285   */\n      dup7\n        /* \"#utility.yul\":27206:27294   */\n      tag_497\n      jump\t// in\n    tag_773:\n        /* \"#utility.yul\":27199:27294   */\n      swap5\n      pop\n        /* \"#utility.yul\":27325:27326   */\n      0x01\n        /* \"#utility.yul\":27314:27323   */\n      dup3\n        /* \"#utility.yul\":27310:27327   */\n      and\n        /* \"#utility.yul\":27341:27342   */\n      0x00\n        /* \"#utility.yul\":27336:27502   */\n      dup2\n      eq\n      tag_775\n      jumpi\n        /* \"#utility.yul\":27516:27517   */\n      0x01\n        /* \"#utility.yul\":27511:27851   */\n      dup2\n      eq\n      tag_776\n      jumpi\n        /* \"#utility.yul\":27303:27851   */\n      jump(tag_774)\n        /* \"#utility.yul\":27336:27502   */\n    tag_775:\n        /* \"#utility.yul\":27420:27424   */\n      0xff\n        /* \"#utility.yul\":27416:27425   */\n      not\n        /* \"#utility.yul\":27405:27414   */\n      dup4\n        /* \"#utility.yul\":27401:27426   */\n      and\n        /* \"#utility.yul\":27396:27399   */\n      dup7\n        /* \"#utility.yul\":27389:27427   */\n      mstore\n        /* \"#utility.yul\":27482:27488   */\n      dup2\n        /* \"#utility.yul\":27475:27489   */\n      iszero\n        /* \"#utility.yul\":27468:27490   */\n      iszero\n        /* \"#utility.yul\":27460:27466   */\n      dup3\n        /* \"#utility.yul\":27456:27491   */\n      mul\n        /* \"#utility.yul\":27451:27454   */\n      dup7\n        /* \"#utility.yul\":27447:27492   */\n      add\n        /* \"#utility.yul\":27440:27492   */\n      swap4\n      pop\n        /* \"#utility.yul\":27336:27502   */\n      jump(tag_774)\n        /* \"#utility.yul\":27511:27851   */\n    tag_776:\n        /* \"#utility.yul\":27578:27615   */\n      tag_777\n        /* \"#utility.yul\":27609:27614   */\n      dup6\n        /* \"#utility.yul\":27578:27615   */\n      tag_482\n      jump\t// in\n    tag_777:\n        /* \"#utility.yul\":27637:27638   */\n      0x00\n        /* \"#utility.yul\":27651:27805   */\n    tag_778:\n        /* \"#utility.yul\":27665:27671   */\n      dup4\n        /* \"#utility.yul\":27662:27663   */\n      dup2\n        /* \"#utility.yul\":27659:27672   */\n      lt\n        /* \"#utility.yul\":27651:27805   */\n      iszero\n      tag_780\n      jumpi\n        /* \"#utility.yul\":27739:27746   */\n      dup2\n        /* \"#utility.yul\":27733:27747   */\n      sload\n        /* \"#utility.yul\":27729:27730   */\n      dup2\n        /* \"#utility.yul\":27724:27727   */\n      dup10\n        /* \"#utility.yul\":27720:27731   */\n      add\n        /* \"#utility.yul\":27713:27748   */\n      mstore\n        /* \"#utility.yul\":27789:27790   */\n      0x01\n        /* \"#utility.yul\":27780:27787   */\n      dup3\n        /* \"#utility.yul\":27776:27791   */\n      add\n        /* \"#utility.yul\":27765:27791   */\n      swap2\n      pop\n        /* \"#utility.yul\":27687:27691   */\n      0x20\n        /* \"#utility.yul\":27684:27685   */\n      dup2\n        /* \"#utility.yul\":27680:27692   */\n      add\n        /* \"#utility.yul\":27675:27692   */\n      swap1\n      pop\n        /* \"#utility.yul\":27651:27805   */\n      jump(tag_778)\n    tag_780:\n        /* \"#utility.yul\":27834:27840   */\n      dup4\n        /* \"#utility.yul\":27829:27832   */\n      dup9\n        /* \"#utility.yul\":27825:27841   */\n      add\n        /* \"#utility.yul\":27818:27841   */\n      swap6\n      pop\n        /* \"#utility.yul\":27518:27851   */\n      pop\n      pop\n        /* \"#utility.yul\":27303:27851   */\n    tag_774:\n      pop\n        /* \"#utility.yul\":27092:27857   */\n      pop\n      pop\n        /* \"#utility.yul\":26987:27857   */\n      swap3\n      swap2\n      pop\n      pop\n      jump\t// out\n        /* \"#utility.yul\":27863:28128   */\n    tag_400:\n        /* \"#utility.yul\":27990:27993   */\n      0x00\n        /* \"#utility.yul\":28012:28102   */\n      tag_782\n        /* \"#utility.yul\":28098:28101   */\n      dup3\n        /* \"#utility.yul\":28089:28095   */\n      dup5\n        /* \"#utility.yul\":28012:28102   */\n      tag_498\n      jump\t// in\n    tag_782:\n        /* \"#utility.yul\":28005:28102   */\n      swap2\n      pop\n        /* \"#utility.yul\":28119:28122   */\n      dup2\n        /* \"#utility.yul\":28112:28122   */\n      swap1\n      pop\n        /* \"#utility.yul\":27863:28128   */\n      swap3\n      swap2\n      pop\n      pop\n      jump\t// out\n        /* \"#utility.yul\":28134:28314   */\n    tag_499:\n        /* \"#utility.yul\":28182:28259   */\n      0x4e487b7100000000000000000000000000000000000000000000000000000000\n        /* \"#utility.yul\":28179:28180   */\n      0x00\n        /* \"#utility.yul\":28172:28260   */\n      mstore\n        /* \"#utility.yul\":28279:28283   */\n      0x12\n        /* \"#utility.yul\":28276:28277   */\n      0x04\n        /* \"#utility.yul\":28269:28284   */\n      mstore\n        /* \"#utility.yul\":28303:28307   */\n      0x24\n        /* \"#utility.yul\":28300:28301   */\n      0x00\n        /* \"#utility.yul\":28293:28308   */\n      revert\n        /* \"#utility.yul\":28320:28496   */\n    tag_410:\n        /* \"#utility.yul\":28352:28353   */\n      0x00\n        /* \"#utility.yul\":28369:28389   */\n      tag_785\n        /* \"#utility.yul\":28387:28388   */\n      dup3\n        /* \"#utility.yul\":28369:28389   */\n      tag_419\n      jump\t// in\n    tag_785:\n        /* \"#utility.yul\":28364:28389   */\n      swap2\n      pop\n        /* \"#utility.yul\":28403:28423   */\n      tag_786\n        /* \"#utility.yul\":28421:28422   */\n      dup4\n        /* \"#utility.yul\":28403:28423   */\n      tag_419\n      jump\t// in\n    tag_786:\n        /* \"#utility.yul\":28398:28423   */\n      swap3\n      pop\n        /* \"#utility.yul\":28442:28443   */\n      dup3\n        /* \"#utility.yul\":28432:28467   */\n      tag_787\n      jumpi\n        /* \"#utility.yul\":28447:28465   */\n      tag_788\n      tag_499\n      jump\t// in\n    tag_788:\n        /* \"#utility.yul\":28432:28467   */\n    tag_787:\n        /* \"#utility.yul\":28488:28489   */\n      dup3\n        /* \"#utility.yul\":28485:28486   */\n      dup3\n        /* \"#utility.yul\":28481:28490   */\n      mod\n        /* \"#utility.yul\":28476:28490   */\n      swap1\n      pop\n        /* \"#utility.yul\":28320:28496   */\n      swap3\n      swap2\n      pop\n      pop\n      jump\t// out\n\n    auxdata: 0xa2646970667358221220c0c621c49a2d409fc6c0df259a0f5c7bd52b9adde7354141d1ba788b9cf821da64736f6c634300081e0033\n}\n",
				"bytecode": {
					"linkReferences": {},
					"object": "60806040526202a300600c55348015610016575f5ffd5b50604051613fde380380613fde833981810160405281019061003891906105b3565b5f84511161007b576040517f08c379a00000000000000000000000000000000000000000000000000000000081526004016100729061068d565b60405180910390fd5b5f8311801561008b575083518311155b6100ca576040517f08c379a00000000000000000000000000000000000000000000000000000000081526004016100c1906106f5565b60405180910390fd5b5f73ffffffffffffffffffffffffffffffffffffffff168173ffffffffffffffffffffffffffffffffffffffff1603610138576040517f08c379a000000000000000000000000000000000000000000000000000000000815260040161012f9061075d565b60405180910390fd5b5f5f90505b8451811015610366575f73ffffffffffffffffffffffffffffffffffffffff168582815181106101705761016f61077b565b5b602002602001015173ffffffffffffffffffffffffffffffffffffffff16036101ce576040517f08c379a00000000000000000000000000000000000000000000000000000000081526004016101c5906107f2565b60405180910390fd5b60015f8683815181106101e4576101e361077b565b5b602002602001015173ffffffffffffffffffffffffffffffffffffffff1673ffffffffffffffffffffffffffffffffffffffff1681526020019081526020015f205f9054906101000a900460ff1615610272576040517f08c379a00000000000000000000000000000000000000000000000000000000081526004016102699061085a565b60405180910390fd5b6001805f8784815181106102895761028861077b565b5b602002602001015173ffffffffffffffffffffffffffffffffffffffff1673ffffffffffffffffffffffffffffffffffffffff1681526020019081526020015f205f6101000a81548160ff0219169083151502179055505f8582815181106102f4576102f361077b565b5b6020026020010151908060018154018082558091505060019003905f5260205f20015f9091909190916101000a81548173ffffffffffffffffffffffffffffffffffffffff021916908373ffffffffffffffffffffffffffffffffffffffff160217905550808060010191505061013d565b50826002819055508160048190555080600d5f6101000a81548173ffffffffffffffffffffffffffffffffffffffff021916908373ffffffffffffffffffffffffffffffffffffffff1602179055504260068190555050505050610878565b5f604051905090565b5f5ffd5b5f5ffd5b5f5ffd5b5f601f19601f8301169050919050565b7f4e487b71000000000000000000000000000000000000000000000000000000005f52604160045260245ffd5b610420826103da565b810181811067ffffffffffffffff8211171561043f5761043e6103ea565b5b80604052505050565b5f6104516103c5565b905061045d8282610417565b919050565b5f67ffffffffffffffff82111561047c5761047b6103ea565b5b602082029050602081019050919050565b5f5ffd5b5f73ffffffffffffffffffffffffffffffffffffffff82169050919050565b5f6104ba82610491565b9050919050565b6104ca816104b0565b81146104d4575f5ffd5b50565b5f815190506104e5816104c1565b92915050565b5f6104fd6104f884610462565b610448565b905080838252602082019050602084028301858111156105205761051f61048d565b5b835b81811015610549578061053588826104d7565b845260208401935050602081019050610522565b5050509392505050565b5f82601f830112610567576105666103d6565b5b81516105778482602086016104eb565b91505092915050565b5f819050919050565b61059281610580565b811461059c575f5ffd5b50565b5f815190506105ad81610589565b92915050565b5f5f5f5f608085870312156105cb576105ca6103ce565b5b5f85015167ffffffffffffffff8111156105e8576105e76103d2565b5b6105f487828801610553565b94505060206106058782880161059f565b93505060406106168782880161059f565b9250506060610627878288016104d7565b91505092959194509250565b5f82825260208201905092915050565b7f4f776e65727320726571756972656400000000000000000000000000000000005f82015250565b5f610677600f83610633565b915061068282610643565b602082019050919050565b5f6020820190508181035f8301526106a48161066b565b9050919050565b7f496e76616c6964207265717569726564206e756d6265720000000000000000005f82015250565b5f6106df601783610633565b91506106ea826106ab565b602082019050919050565b5f6020820190508181035f83015261070c816106d3565b9050919050565b7f496e76616c6964207265636f76657279206164647265737300000000000000005f82015250565b5f610747601883610633565b915061075282610713565b602082019050919050565b5f6020820190508181035f8301526107748161073b565b9050919050565b7f4e487b71000000000000000000000000000000000000000000000000000000005f52603260045260245ffd5b7f496e76616c6964206f776e6572000000000000000000000000000000000000005f82015250565b5f6107dc600d83610633565b91506107e7826107a8565b602082019050919050565b5f6020820190508181035f830152610809816107d0565b9050919050565b7f4475706c6963617465206f776e657200000000000000000000000000000000005f82015250565b5f610844600f83610633565b915061084f82610810565b602082019050919050565b5f6020820190508181035f83015261087181610838565b9050919050565b613759806108855f395ff3fe6080604052600436106101f1575f3560e01c80638ac469351161010c578063b5dc40c31161009f578063c64274741161006e578063c642747414610759578063ca2a65ad14610795578063dc8452cd146107d1578063ee22610b146107fb578063f059cf2b146108235761024f565b8063b5dc40c3146106a3578063b77bf600146106df578063ba51a6df14610709578063c01a8c84146107315761024f565b80639ace38c2116100db5780639ace38c2146105d5578063a0e67e2b14610615578063a8abe69a1461063f578063b20d30a91461067b5761024f565b80638ac46935146105315780638b257989146105475780638b51d13f14610571578063992fcf49146105ad5761024f565b806348f6ba12116101845780636b0c932d116101535780636b0c932d146104795780637065cb48146104a3578063710eb26c146104cb578063784547a7146104f55761024f565b806348f6ba12146103bf57806362ffc7ac146103e957806367eeba0c146104135780636925b0d61461043d5761024f565b806320ea8d86116101c057806320ea8d86146102e3578063260d711e1461030b5780632f54bf6e146103475780633411c81c146103835761024f565b8063025e7c27146102535780630ba234d61461028f578063173825d9146102a557806320c5a3e1146102cd5761024f565b3661024f575f34111561024d573373ffffffffffffffffffffffffffffffffffffffff167fe1fffcc4923d04b559f4d29a8bfc6cda04eb5b0d3c460751c2402c5c5cc9109c3460405161024491906128a7565b60405180910390a25b005b5f5ffd5b34801561025e575f5ffd5b50610279600480360381019061027491906128fb565b61084d565b6040516102869190612965565b60405180910390f35b34801561029a575f5ffd5b506102a3610887565b005b3480156102b0575f5ffd5b506102cb60048036038101906102c691906129a8565b610970565b005b3480156102d8575f5ffd5b506102e1610c66565b005b3480156102ee575f5ffd5b50610309600480360381019061030491906128fb565b610f9d565b005b348015610316575f5ffd5b50610331600480360381019061032c9190612a06565b61123d565b60405161033e9190612a4b565b60405180910390f35b348015610352575f5ffd5b5061036d600480360381019061036891906129a8565b61125a565b60405161037a9190612a4b565b60405180910390f35b34801561038e575f5ffd5b506103a960048036038101906103a49190612a64565b611277565b6040516103b69190612a4b565b60405180910390f35b3480156103ca575f5ffd5b506103d36112a1565b6040516103e09190612a4b565b60405180910390f35b3480156103f4575f5ffd5b506103fd6112b3565b60405161040a91906128a7565b60405180910390f35b34801561041e575f5ffd5b506104276112b9565b60405161043491906128a7565b60405180910390f35b348015610448575f5ffd5b50610463600480360381019061045e91906129a8565b6112bf565b60405161047091906128a7565b60405180910390f35b348015610484575f5ffd5b5061048d6112d4565b60405161049a91906128a7565b60405180910390f35b3480156104ae575f5ffd5b506104c960048036038101906104c491906129a8565b6112da565b005b3480156104d6575f5ffd5b506104df61151d565b6040516104ec9190612965565b60405180910390f35b348015610500575f5ffd5b5061051b600480360381019061051691906128fb565b611542565b6040516105289190612a4b565b60405180910390f35b34801561053c575f5ffd5b50610545611564565b005b348015610552575f5ffd5b5061055b6116b4565b60405161056891906128a7565b60405180910390f35b34801561057c575f5ffd5b50610597600480360381019061059291906128fb565b6116ba565b6040516105a491906128a7565b60405180910390f35b3480156105b8575f5ffd5b506105d360048036038101906105ce91906128fb565b6116d7565b005b3480156105e0575f5ffd5b506105fb60048036038101906105f691906128fb565b611761565b60405161060c959493929190612b12565b60405180910390f35b348015610620575f5ffd5b50610629611844565b6040516106369190612c21565b60405180910390f35b34801561064a575f5ffd5b5061066560048036038101906106609190612c6b565b6118ce565b6040516106729190612d86565b60405180910390f35b348015610686575f5ffd5b506106a1600480360381019061069c91906128fb565b611a94565b005b3480156106ae575f5ffd5b506106c960048036038101906106c491906128fb565b611b1e565b6040516106d69190612c21565b60405180910390f35b3480156106ea575f5ffd5b506106f3611d9c565b60405161070091906128a7565b60405180910390f35b348015610714575f5ffd5b5061072f600480360381019061072a91906128fb565b611da2565b005b34801561073c575f5ffd5b50610757600480360381019061075291906128fb565b611e7e565b005b348015610764575f5ffd5b5061077f600480360381019061077a9190612ed2565b612164565b60405161078c91906128a7565b60405180910390f35b3480156107a0575f5ffd5b506107bb60048036038101906107b691906128fb565b6123af565b6040516107c891906128a7565b60405180910390f35b3480156107dc575f5ffd5b506107e56123c4565b6040516107f291906128a7565b60405180910390f35b348015610806575f5ffd5b50610821600480360381019061081c91906128fb565b6123ca565b005b34801561082e575f5ffd5b506108376127a5565b60405161084491906128a7565b60405180910390f35b5f818154811061085b575f80fd5b905f5260205f20015f915054906101000a900473ffffffffffffffffffffffffffffffffffffffff1681565b60015f3373ffffffffffffffffffffffffffffffffffffffff1673ffffffffffffffffffffffffffffffffffffffff1681526020019081526020015f205f9054906101000a900460ff16610907576040517f30cd747100000000000000000000000000000000000000000000000000000000815260040160405180910390fd5b600f5f9054906101000a900460ff16610955576040517f08c379a000000000000000000000000000000000000000000000000000000000815260040161094c90612f98565b60405180910390fd5b5f600f5f6101000a81548160ff021916908315150217905550565b60015f3373ffffffffffffffffffffffffffffffffffffffff1673ffffffffffffffffffffffffffffffffffffffff1681526020019081526020015f205f9054906101000a900460ff166109f0576040517f30cd747100000000000000000000000000000000000000000000000000000000815260040160405180910390fd5b8060015f8273ffffffffffffffffffffffffffffffffffffffff1673ffffffffffffffffffffffffffffffffffffffff1681526020019081526020015f205f9054906101000a900460ff16610a71576040517f30cd747100000000000000000000000000000000000000000000000000000000815260040160405180910390fd5b5f60015f8473ffffffffffffffffffffffffffffffffffffffff1673ffffffffffffffffffffffffffffffffffffffff1681526020019081526020015f205f6101000a81548160ff0219169083151502179055505f5f90505b60015f80549050610adb9190612fe3565b811015610c04578273ffffffffffffffffffffffffffffffffffffffff165f8281548110610b0c57610b0b613016565b5b905f5260205f20015f9054906101000a900473ffffffffffffffffffffffffffffffffffffffff1673ffffffffffffffffffffffffffffffffffffffff1603610bf7575f60015f80549050610b619190612fe3565b81548110610b7257610b71613016565b5b905f5260205f20015f9054906101000a900473ffffffffffffffffffffffffffffffffffffffff165f8281548110610bad57610bac613016565b5b905f5260205f20015f6101000a81548173ffffffffffffffffffffffffffffffffffffffff021916908373ffffffffffffffffffffffffffffffffffffffff160217905550610c04565b8080600101915050610aca565b505f805480610c1657610c15613043565b5b600190038181905f5260205f20015f6101000a81549073ffffffffffffffffffffffffffffffffffffffff021916905590555f805490506002541115610c62575f805490506002819055505b5050565b600f5f9054906101000a900460ff16610cb4576040517f08c379a0000000000000000000000000000000000000000000000000000000008152600401610cab90612f98565b60405180910390fd5b600e54421015610cf9576040517f08c379a0000000000000000000000000000000000000000000000000000000008152600401610cf0906130ba565b60405180910390fd5b600d5f9054906101000a900473ffffffffffffffffffffffffffffffffffffffff1673ffffffffffffffffffffffffffffffffffffffff163373ffffffffffffffffffffffffffffffffffffffff1614610d88576040517f08c379a0000000000000000000000000000000000000000000000000000000008152600401610d7f90613122565b60405180910390fd5b5f5f90505b5f80549050811015610e34575f60015f5f8481548110610db057610daf613016565b5b905f5260205f20015f9054906101000a900473ffffffffffffffffffffffffffffffffffffffff1673ffffffffffffffffffffffffffffffffffffffff1673ffffffffffffffffffffffffffffffffffffffff1681526020019081526020015f205f6101000a81548160ff0219169083151502179055508080600101915050610d8d565b506040518060200160405280600d5f9054906101000a900473ffffffffffffffffffffffffffffffffffffffff1673ffffffffffffffffffffffffffffffffffffffff1673ffffffffffffffffffffffffffffffffffffffff168152505f906001610ea09291906127ed565b506001805f600d5f9054906101000a900473ffffffffffffffffffffffffffffffffffffffff1673ffffffffffffffffffffffffffffffffffffffff1673ffffffffffffffffffffffffffffffffffffffff1681526020019081526020015f205f6101000a81548160ff02191690831515021790555060016002819055505f600f5f6101000a81548160ff021916908315150217905550600d5f9054906101000a900473ffffffffffffffffffffffffffffffffffffffff1673ffffffffffffffffffffffffffffffffffffffff167ffcd2de31341801b7fd80895c780aae50c1505fd674ff1b9b9764c56c633434d660405160405180910390a2565b60015f3373ffffffffffffffffffffffffffffffffffffffff1673ffffffffffffffffffffffffffffffffffffffff1681526020019081526020015f205f9054906101000a900460ff1661101d576040517f30cd747100000000000000000000000000000000000000000000000000000000815260040160405180910390fd5b805f73ffffffffffffffffffffffffffffffffffffffff1660075f8381526020019081526020015f205f015f9054906101000a900473ffffffffffffffffffffffffffffffffffffffff1673ffffffffffffffffffffffffffffffffffffffff16036110be576040517f08c379a00000000000000000000000000000000000000000000000000000000081526004016110b59061318a565b60405180910390fd5b8160075f8281526020019081526020015f206003015f9054906101000a900460ff1615611117576040517fdb5e659b00000000000000000000000000000000000000000000000000000000815260040160405180910390fd5b823360085f8381526020019081526020015f205f8273ffffffffffffffffffffffffffffffffffffffff1673ffffffffffffffffffffffffffffffffffffffff1681526020019081526020015f205f9054906101000a900460ff166111a8576040517ffdac7c0000000000000000000000000000000000000000000000000000000000815260040160405180910390fd5b5f60085f8781526020019081526020015f205f3373ffffffffffffffffffffffffffffffffffffffff1673ffffffffffffffffffffffffffffffffffffffff1681526020019081526020015f205f6101000a81548160ff021916908315150217905550600160075f8781526020019081526020015f206004015f82825461122f9190612fe3565b925050819055505050505050565b600a602052805f5260405f205f915054906101000a900460ff1681565b6001602052805f5260405f205f915054906101000a900460ff1681565b6008602052815f5260405f20602052805f5260405f205f915091509054906101000a900460ff1681565b600f5f9054906101000a900460ff1681565b600e5481565b60045481565b6009602052805f5260405f205f915090505481565b60065481565b60015f3373ffffffffffffffffffffffffffffffffffffffff1673ffffffffffffffffffffffffffffffffffffffff1681526020019081526020015f205f9054906101000a900460ff1661135a576040517f30cd747100000000000000000000000000000000000000000000000000000000815260040160405180910390fd5b805f73ffffffffffffffffffffffffffffffffffffffff168173ffffffffffffffffffffffffffffffffffffffff16036113c0576040517fd92e233d00000000000000000000000000000000000000000000000000000000815260040160405180910390fd5b8160015f8273ffffffffffffffffffffffffffffffffffffffff1673ffffffffffffffffffffffffffffffffffffffff1681526020019081526020015f205f9054906101000a900460ff161561144b576040517f08c379a0000000000000000000000000000000000000000000000000000000008152600401611442906131f2565b60405180910390fd5b6001805f8573ffffffffffffffffffffffffffffffffffffffff1673ffffffffffffffffffffffffffffffffffffffff1681526020019081526020015f205f6101000a81548160ff0219169083151502179055505f83908060018154018082558091505060019003905f5260205f20015f9091909190916101000a81548173ffffffffffffffffffffffffffffffffffffffff021916908373ffffffffffffffffffffffffffffffffffffffff1602179055505f805490506002541115611518575f805490506002819055505b505050565b600d5f9054906101000a900473ffffffffffffffffffffffffffffffffffffffff1681565b5f60025460075f8481526020019081526020015f206004015410159050919050565b60015f3373ffffffffffffffffffffffffffffffffffffffff1673ffffffffffffffffffffffffffffffffffffffff1681526020019081526020015f205f9054906101000a900460ff166115e4576040517f30cd747100000000000000000000000000000000000000000000000000000000815260040160405180910390fd5b600f5f9054906101000a900460ff1615611633576040517f08c379a000000000000000000000000000000000000000000000000000000000815260040161162a9061325a565b60405180910390fd5b6001600f5f6101000a81548160ff02191690831515021790555062093a804261165c9190613278565b600e819055503373ffffffffffffffffffffffffffffffffffffffff167f8a9bdbd6fa6536bd7e02875d089a0604de2d92780294abc78536d93fd6c95b7c600e546040516116aa91906128a7565b60405180910390a2565b600c5481565b5f60075f8381526020019081526020015f20600401549050919050565b60015f3373ffffffffffffffffffffffffffffffffffffffff1673ffffffffffffffffffffffffffffffffffffffff1681526020019081526020015f205f9054906101000a900460ff16611757576040517f30cd747100000000000000000000000000000000000000000000000000000000815260040160405180910390fd5b80600c8190555050565b6007602052805f5260405f205f91509050805f015f9054906101000a900473ffffffffffffffffffffffffffffffffffffffff16908060010154908060020180546117ab906132d8565b80601f01602080910402602001604051908101604052809291908181526020018280546117d7906132d8565b80156118225780601f106117f957610100808354040283529160200191611822565b820191905f5260205f20905b81548152906001019060200180831161180557829003601f168201915b505050505090806003015f9054906101000a900460ff16908060040154905085565b60605f8054806020026020016040519081016040528092919081815260200182805480156118c457602002820191905f5260205f20905b815f9054906101000a900473ffffffffffffffffffffffffffffffffffffffff1673ffffffffffffffffffffffffffffffffffffffff168152602001906001019080831161187b575b5050505050905090565b60605f60035467ffffffffffffffff8111156118ed576118ec612dae565b5b60405190808252806020026020018201604052801561191b5781602001602082028036833780820191505090505b5090505f5f90505f5f90505b6003548110156119e45785801561195c575060075f8281526020019081526020015f206003015f9054906101000a900460ff16155b8061198d575084801561198c575060075f8281526020019081526020015f206003015f9054906101000a900460ff165b5b156119d7578088111580156119a25750868111155b156119d657808383815181106119bb576119ba613016565b5b60200260200101818152505081806119d290613308565b9250505b5b8080600101915050611927565b505f8167ffffffffffffffff811115611a00576119ff612dae565b5b604051908082528060200260200182016040528015611a2e5781602001602082028036833780820191505090505b5090505f5f90505b82811015611a8557838181518110611a5157611a50613016565b5b6020026020010151828281518110611a6c57611a6b613016565b5b6020026020010181815250508080600101915050611a36565b50809350505050949350505050565b60015f3373ffffffffffffffffffffffffffffffffffffffff1673ffffffffffffffffffffffffffffffffffffffff1681526020019081526020015f205f9054906101000a900460ff16611b14576040517f30cd747100000000000000000000000000000000000000000000000000000000815260040160405180910390fd5b8060048190555050565b60605f5f8054905067ffffffffffffffff811115611b3f57611b3e612dae565b5b604051908082528060200260200182016040528015611b6d5781602001602082028036833780820191505090505b5090505f5f90505f5f90505b5f80549050811015611cc15760085f8681526020019081526020015f205f5f8381548110611baa57611ba9613016565b5b905f5260205f20015f9054906101000a900473ffffffffffffffffffffffffffffffffffffffff1673ffffffffffffffffffffffffffffffffffffffff1673ffffffffffffffffffffffffffffffffffffffff1681526020019081526020015f205f9054906101000a900460ff1615611cb4575f8181548110611c3057611c2f613016565b5b905f5260205f20015f9054906101000a900473ffffffffffffffffffffffffffffffffffffffff16838381518110611c6b57611c6a613016565b5b602002602001019073ffffffffffffffffffffffffffffffffffffffff16908173ffffffffffffffffffffffffffffffffffffffff16815250508180611cb090613308565b9250505b8080600101915050611b79565b505f8167ffffffffffffffff811115611cdd57611cdc612dae565b5b604051908082528060200260200182016040528015611d0b5781602001602082028036833780820191505090505b5090505f5f90505b82811015611d9057838181518110611d2e57611d2d613016565b5b6020026020010151828281518110611d4957611d48613016565b5b602002602001019073ffffffffffffffffffffffffffffffffffffffff16908173ffffffffffffffffffffffffffffffffffffffff16815250508080600101915050611d13565b50809350505050919050565b60035481565b60015f3373ffffffffffffffffffffffffffffffffffffffff1673ffffffffffffffffffffffffffffffffffffffff1681526020019081526020015f205f9054906101000a900460ff16611e22576040517f30cd747100000000000000000000000000000000000000000000000000000000815260040160405180910390fd5b5f81118015611e3557505f805490508111155b611e74576040517f08c379a0000000000000000000000000000000000000000000000000000000008152600401611e6b90613399565b60405180910390fd5b8060028190555050565b60015f3373ffffffffffffffffffffffffffffffffffffffff1673ffffffffffffffffffffffffffffffffffffffff1681526020019081526020015f205f9054906101000a900460ff16611efe576040517f30cd747100000000000000000000000000000000000000000000000000000000815260040160405180910390fd5b805f73ffffffffffffffffffffffffffffffffffffffff1660075f8381526020019081526020015f205f015f9054906101000a900473ffffffffffffffffffffffffffffffffffffffff1673ffffffffffffffffffffffffffffffffffffffff1603611f9f576040517f08c379a0000000000000000000000000000000000000000000000000000000008152600401611f969061318a565b60405180910390fd5b813360085f8381526020019081526020015f205f8273ffffffffffffffffffffffffffffffffffffffff1673ffffffffffffffffffffffffffffffffffffffff1681526020019081526020015f205f9054906101000a900460ff1615612031576040517f5f8a9c0b00000000000000000000000000000000000000000000000000000000815260040160405180910390fd5b8360075f8281526020019081526020015f206003015f9054906101000a900460ff161561208a576040517fdb5e659b00000000000000000000000000000000000000000000000000000000815260040160405180910390fd5b600160085f8781526020019081526020015f205f3373ffffffffffffffffffffffffffffffffffffffff1673ffffffffffffffffffffffffffffffffffffffff1681526020019081526020015f205f6101000a81548160ff021916908315150217905550600160075f8781526020019081526020015f206004015f8282546121129190613278565b92505081905550843373ffffffffffffffffffffffffffffffffffffffff167f4a504a94899432a9846e1aa406dceb1bcfd538bb839071d49d1e5e23f5be30ef60405160405180910390a35050505050565b5f60015f3373ffffffffffffffffffffffffffffffffffffffff1673ffffffffffffffffffffffffffffffffffffffff1681526020019081526020015f205f9054906101000a900460ff166121e5576040517f30cd747100000000000000000000000000000000000000000000000000000000815260040160405180910390fd5b835f73ffffffffffffffffffffffffffffffffffffffff168173ffffffffffffffffffffffffffffffffffffffff160361224b576040517fd92e233d00000000000000000000000000000000000000000000000000000000815260040160405180910390fd5b5f60035490506040518060a001604052808773ffffffffffffffffffffffffffffffffffffffff1681526020018681526020018581526020015f151581526020015f81525060075f8381526020019081526020015f205f820151815f015f6101000a81548173ffffffffffffffffffffffffffffffffffffffff021916908373ffffffffffffffffffffffffffffffffffffffff1602179055506020820151816001015560408201518160020190816123049190613557565b506060820151816003015f6101000a81548160ff02191690831515021790555060808201518160040155905050600160035f8282546123439190613278565b92505081905550600c54426123589190613278565b600b5f8381526020019081526020015f2081905550807fc0ba8fe4b176c1714197d43b9cc6bcf797a4a7461c5fe8d0ef6e184ae7601e5160405160405180910390a26123a381611e7e565b80925050509392505050565b600b602052805f5260405f205f915090505481565b60025481565b60015f3373ffffffffffffffffffffffffffffffffffffffff1673ffffffffffffffffffffffffffffffffffffffff1681526020019081526020015f205f9054906101000a900460ff1661244a576040517f30cd747100000000000000000000000000000000000000000000000000000000815260040160405180910390fd5b805f73ffffffffffffffffffffffffffffffffffffffff1660075f8381526020019081526020015f205f015f9054906101000a900473ffffffffffffffffffffffffffffffffffffffff1673ffffffffffffffffffffffffffffffffffffffff16036124eb576040517f08c379a00000000000000000000000000000000000000000000000000000000081526004016124e29061318a565b60405180910390fd5b8160075f8281526020019081526020015f206003015f9054906101000a900460ff1615612544576040517fdb5e659b00000000000000000000000000000000000000000000000000000000815260040160405180910390fd5b5f60075f8581526020019081526020015f20905060025481600401541015612598576040517fe16db4b300000000000000000000000000000000000000000000000000000000815260040160405180910390fd5b600b5f8581526020019081526020015f20544210156125e3576040517fc53af06600000000000000000000000000000000000000000000000000000000815260040160405180910390fd5b6125eb6127ab565b60045481600101546005546126009190613278565b1115612638576040517f194bd31400000000000000000000000000000000000000000000000000000000815260040160405180910390fd5b6001816003015f6101000a81548160ff021916908315150217905550806001015460055f8282546126699190613278565b925050819055505f815f015f9054906101000a900473ffffffffffffffffffffffffffffffffffffffff1673ffffffffffffffffffffffffffffffffffffffff168260010154836002016040516126c091906136b0565b5f6040518083038185875af1925050503d805f81146126fa576040519150601f19603f3d011682016040523d82523d5f602084013e6126ff565b606091505b5050905080612771575f826003015f6101000a81548160ff021916908315150217905550816001015460055f8282546127389190612fe3565b925050819055506040517fbf961a2800000000000000000000000000000000000000000000000000000000815260040160405180910390fd5b847f33e13ecb54c3076d8e8bb8c2881800a4d972b792045ffae98fdf46df365fed7560405160405180910390a25050505050565b60055481565b620151806006546127bc9190613278565b4211156127eb575f60058190555062015180426127d991906136f3565b426127e49190612fe3565b6006819055505b565b828054828255905f5260205f20908101928215612863579160200282015b82811115612862578251825f6101000a81548173ffffffffffffffffffffffffffffffffffffffff021916908373ffffffffffffffffffffffffffffffffffffffff1602179055509160200191906001019061280b565b5b5090506128709190612874565b5090565b5b8082111561288b575f815f905550600101612875565b5090565b5f819050919050565b6128a18161288f565b82525050565b5f6020820190506128ba5f830184612898565b92915050565b5f604051905090565b5f5ffd5b5f5ffd5b6128da8161288f565b81146128e4575f5ffd5b50565b5f813590506128f5816128d1565b92915050565b5f602082840312156129105761290f6128c9565b5b5f61291d848285016128e7565b91505092915050565b5f73ffffffffffffffffffffffffffffffffffffffff82169050919050565b5f61294f82612926565b9050919050565b61295f81612945565b82525050565b5f6020820190506129785f830184612956565b92915050565b61298781612945565b8114612991575f5ffd5b50565b5f813590506129a28161297e565b92915050565b5f602082840312156129bd576129bc6128c9565b5b5f6129ca84828501612994565b91505092915050565b5f819050919050565b6129e5816129d3565b81146129ef575f5ffd5b50565b5f81359050612a00816129dc565b92915050565b5f60208284031215612a1b57612a1a6128c9565b5b5f612a28848285016129f2565b91505092915050565b5f8115159050919050565b612a4581612a31565b82525050565b5f602082019050612a5e5f830184612a3c565b92915050565b5f5f60408385031215612a7a57612a796128c9565b5b5f612a87858286016128e7565b9250506020612a9885828601612994565b9150509250929050565b5f81519050919050565b5f82825260208201905092915050565b8281835e5f83830152505050565b5f601f19601f8301169050919050565b5f612ae482612aa2565b612aee8185612aac565b9350612afe818560208601612abc565b612b0781612aca565b840191505092915050565b5f60a082019050612b255f830188612956565b612b326020830187612898565b8181036040830152612b448186612ada565b9050612b536060830185612a3c565b612b606080830184612898565b9695505050505050565b5f81519050919050565b5f82825260208201905092915050565b5f819050602082019050919050565b612b9c81612945565b82525050565b5f612bad8383612b93565b60208301905092915050565b5f602082019050919050565b5f612bcf82612b6a565b612bd98185612b74565b9350612be483612b84565b805f5b83811015612c14578151612bfb8882612ba2565b9750612c0683612bb9565b925050600181019050612be7565b5085935050505092915050565b5f6020820190508181035f830152612c398184612bc5565b905092915050565b612c4a81612a31565b8114612c54575f5ffd5b50565b5f81359050612c6581612c41565b92915050565b5f5f5f5f60808587031215612c8357612c826128c9565b5b5f612c90878288016128e7565b9450506020612ca1878288016128e7565b9350506040612cb287828801612c57565b9250506060612cc387828801612c57565b91505092959194509250565b5f81519050919050565b5f82825260208201905092915050565b5f819050602082019050919050565b612d018161288f565b82525050565b5f612d128383612cf8565b60208301905092915050565b5f602082019050919050565b5f612d3482612ccf565b612d3e8185612cd9565b9350612d4983612ce9565b805f5b83811015612d79578151612d608882612d07565b9750612d6b83612d1e565b925050600181019050612d4c565b5085935050505092915050565b5f6020820190508181035f830152612d9e8184612d2a565b905092915050565b5f5ffd5b5f5ffd5b7f4e487b71000000000000000000000000000000000000000000000000000000005f52604160045260245ffd5b612de482612aca565b810181811067ffffffffffffffff82111715612e0357612e02612dae565b5b80604052505050565b5f612e156128c0565b9050612e218282612ddb565b919050565b5f67ffffffffffffffff821115612e4057612e3f612dae565b5b612e4982612aca565b9050602081019050919050565b828183375f83830152505050565b5f612e76612e7184612e26565b612e0c565b905082815260208101848484011115612e9257612e91612daa565b5b612e9d848285612e56565b509392505050565b5f82601f830112612eb957612eb8612da6565b5b8135612ec9848260208601612e64565b91505092915050565b5f5f5f60608486031215612ee957612ee86128c9565b5b5f612ef686828701612994565b9350506020612f07868287016128e7565b925050604084013567ffffffffffffffff811115612f2857612f276128cd565b5b612f3486828701612ea5565b9150509250925092565b5f82825260208201905092915050565b7f5265636f76657279206e6f7420696e69746961746564000000000000000000005f82015250565b5f612f82601683612f3e565b9150612f8d82612f4e565b602082019050919050565b5f6020820190508181035f830152612faf81612f76565b9050919050565b7f4e487b71000000000000000000000000000000000000000000000000000000005f52601160045260245ffd5b5f612fed8261288f565b9150612ff88361288f565b92508282039050818111156130105761300f612fb6565b5b92915050565b7f4e487b71000000000000000000000000000000000000000000000000000000005f52603260045260245ffd5b7f4e487b71000000000000000000000000000000000000000000000000000000005f52603160045260245ffd5b7f5265636f766572792074696d65206e6f742072656163686564000000000000005f82015250565b5f6130a4601983612f3e565b91506130af82613070565b602082019050919050565b5f6020820190508181035f8301526130d181613098565b9050919050565b7f4e6f74207265636f7665727920616464726573730000000000000000000000005f82015250565b5f61310c601483612f3e565b9150613117826130d8565b602082019050919050565b5f6020820190508181035f83015261313981613100565b9050919050565b7f5472616e73616374696f6e20646f6573206e6f742065786973740000000000005f82015250565b5f613174601a83612f3e565b915061317f82613140565b602082019050919050565b5f6020820190508181035f8301526131a181613168565b9050919050565b7f4f776e65722065786973747300000000000000000000000000000000000000005f82015250565b5f6131dc600c83612f3e565b91506131e7826131a8565b602082019050919050565b5f6020820190508181035f830152613209816131d0565b9050919050565b7f5265636f7665727920616c726561647920696e697469617465640000000000005f82015250565b5f613244601a83612f3e565b915061324f82613210565b602082019050919050565b5f6020820190508181035f83015261327181613238565b9050919050565b5f6132828261288f565b915061328d8361288f565b92508282019050808211156132a5576132a4612fb6565b5b92915050565b7f4e487b71000000000000000000000000000000000000000000000000000000005f52602260045260245ffd5b5f60028204905060018216806132ef57607f821691505b602082108103613302576133016132ab565b5b50919050565b5f6133128261288f565b91507fffffffffffffffffffffffffffffffffffffffffffffffffffffffffffffffff820361334457613343612fb6565b5b600182019050919050565b7f496e76616c6964207265717569726564000000000000000000000000000000005f82015250565b5f613383601083612f3e565b915061338e8261334f565b602082019050919050565b5f6020820190508181035f8301526133b081613377565b9050919050565b5f819050815f5260205f209050919050565b5f6020601f8301049050919050565b5f82821b905092915050565b5f600883026134137fffffffffffffffffffffffffffffffffffffffffffffffffffffffffffffffff826133d8565b61341d86836133d8565b95508019841693508086168417925050509392505050565b5f819050919050565b5f61345861345361344e8461288f565b613435565b61288f565b9050919050565b5f819050919050565b6134718361343e565b61348561347d8261345f565b8484546133e4565b825550505050565b5f5f905090565b61349c61348d565b6134a7818484613468565b505050565b5b818110156134ca576134bf5f82613494565b6001810190506134ad565b5050565b601f82111561350f576134e0816133b7565b6134e9846133c9565b810160208510156134f8578190505b61350c613504856133c9565b8301826134ac565b50505b505050565b5f82821c905092915050565b5f61352f5f1984600802613514565b1980831691505092915050565b5f6135478383613520565b9150826002028217905092915050565b61356082612aa2565b67ffffffffffffffff81111561357957613578612dae565b5b61358382546132d8565b61358e8282856134ce565b5f60209050601f8311600181146135bf575f84156135ad578287015190505b6135b7858261353c565b86555061361e565b601f1984166135cd866133b7565b5f5b828110156135f4578489015182556001820191506020850194506020810190506135cf565b86831015613611578489015161360d601f891682613520565b8355505b6001600288020188555050505b505050505050565b5f81905092915050565b5f815461363c816132d8565b6136468186613626565b9450600182165f81146136605760018114613675576136a7565b60ff19831686528115158202860193506136a7565b61367e856133b7565b5f5b8381101561369f57815481890152600182019150602081019050613680565b838801955050505b50505092915050565b5f6136bb8284613630565b915081905092915050565b7f4e487b71000000000000000000000000000000000000000000000000000000005f52601260045260245ffd5b5f6136fd8261288f565b91506137088361288f565b925082613718576137176136c6565b5b82820690509291505056fea2646970667358221220c0c621c49a2d409fc6c0df259a0f5c7bd52b9adde7354141d1ba788b9cf821da64736f6c634300081e0033",
					"opcodes": "PUSH1 0x80 PUSH1 0x40 MSTORE PUSH3 0x2A300 PUSH1 0xC SSTORE CALLVALUE DUP1 ISZERO PUSH2 0x16 JUMPI PUSH0 PUSH0 REVERT JUMPDEST POP PUSH1 0x40 MLOAD PUSH2 0x3FDE CODESIZE SUB DUP1 PUSH2 0x3FDE DUP4 CODECOPY DUP2 DUP2 ADD PUSH1 0x40 MSTORE DUP2 ADD SWAP1 PUSH2 0x38 SWAP2 SWAP1 PUSH2 0x5B3 JUMP JUMPDEST PUSH0 DUP5 MLOAD GT PUSH2 0x7B JUMPI PUSH1 0x40 MLOAD PUSH32 0x8C379A000000000000000000000000000000000000000000000000000000000 DUP2 MSTORE PUSH1 0x4 ADD PUSH2 0x72 SWAP1 PUSH2 0x68D JUMP JUMPDEST PUSH1 0x40 MLOAD DUP1 SWAP2 SUB SWAP1 REVERT JUMPDEST PUSH0 DUP4 GT DUP1 ISZERO PUSH2 0x8B JUMPI POP DUP4 MLOAD DUP4 GT ISZERO JUMPDEST PUSH2 0xCA JUMPI PUSH1 0x40 MLOAD PUSH32 0x8C379A000000000000000000000000000000000000000000000000000000000 DUP2 MSTORE PUSH1 0x4 ADD PUSH2 0xC1 SWAP1 PUSH2 0x6F5 JUMP JUMPDEST PUSH1 0x40 MLOAD DUP1 SWAP2 SUB SWAP1 REVERT JUMPDEST PUSH0 PUSH20 0xFFFFFFFFFFFFFFFFFFFFFFFFFFFFFFFFFFFFFFFF AND DUP2 PUSH20 0xFFFFFFFFFFFFFFFFFFFFFFFFFFFFFFFFFFFFFFFF AND SUB PUSH2 0x138 JUMPI PUSH1 0x40 MLOAD PUSH32 0x8C379A000000000000000000000000000000000000000000000000000000000 DUP2 MSTORE PUSH1 0x4 ADD PUSH2 0x12F SWAP1 PUSH2 0x75D JUMP JUMPDEST PUSH1 0x40 MLOAD DUP1 SWAP2 SUB SWAP1 REVERT JUMPDEST PUSH0 PUSH0 SWAP1 POP JUMPDEST DUP5 MLOAD DUP2 LT ISZERO PUSH2 0x366 JUMPI PUSH0 PUSH20 0xFFFFFFFFFFFFFFFFFFFFFFFFFFFFFFFFFFFFFFFF AND DUP6 DUP3 DUP2 MLOAD DUP2 LT PUSH2 0x170 JUMPI PUSH2 0x16F PUSH2 0x77B JUMP JUMPDEST JUMPDEST PUSH1 0x20 MUL PUSH1 0x20 ADD ADD MLOAD PUSH20 0xFFFFFFFFFFFFFFFFFFFFFFFFFFFFFFFFFFFFFFFF AND SUB PUSH2 0x1CE JUMPI PUSH1 0x40 MLOAD PUSH32 0x8C379A000000000000000000000000000000000000000000000000000000000 DUP2 MSTORE PUSH1 0x4 ADD PUSH2 0x1C5 SWAP1 PUSH2 0x7F2 JUMP JUMPDEST PUSH1 0x40 MLOAD DUP1 SWAP2 SUB SWAP1 REVERT JUMPDEST PUSH1 0x1 PUSH0 DUP7 DUP4 DUP2 MLOAD DUP2 LT PUSH2 0x1E4 JUMPI PUSH2 0x1E3 PUSH2 0x77B JUMP JUMPDEST JUMPDEST PUSH1 0x20 MUL PUSH1 0x20 ADD ADD MLOAD PUSH20 0xFFFFFFFFFFFFFFFFFFFFFFFFFFFFFFFFFFFFFFFF AND PUSH20 0xFFFFFFFFFFFFFFFFFFFFFFFFFFFFFFFFFFFFFFFF AND DUP2 MSTORE PUSH1 0x20 ADD SWAP1 DUP2 MSTORE PUSH1 0x20 ADD PUSH0 KECCAK256 PUSH0 SWAP1 SLOAD SWAP1 PUSH2 0x100 EXP SWAP1 DIV PUSH1 0xFF AND ISZERO PUSH2 0x272 JUMPI PUSH1 0x40 MLOAD PUSH32 0x8C379A000000000000000000000000000000000000000000000000000000000 DUP2 MSTORE PUSH1 0x4 ADD PUSH2 0x269 SWAP1 PUSH2 0x85A JUMP JUMPDEST PUSH1 0x40 MLOAD DUP1 SWAP2 SUB SWAP1 REVERT JUMPDEST PUSH1 0x1 DUP1 PUSH0 DUP8 DUP5 DUP2 MLOAD DUP2 LT PUSH2 0x289 JUMPI PUSH2 0x288 PUSH2 0x77B JUMP JUMPDEST JUMPDEST PUSH1 0x20 MUL PUSH1 0x20 ADD ADD MLOAD PUSH20 0xFFFFFFFFFFFFFFFFFFFFFFFFFFFFFFFFFFFFFFFF AND PUSH20 0xFFFFFFFFFFFFFFFFFFFFFFFFFFFFFFFFFFFFFFFF AND DUP2 MSTORE PUSH1 0x20 ADD SWAP1 DUP2 MSTORE PUSH1 0x20 ADD PUSH0 KECCAK256 PUSH0 PUSH2 0x100 EXP DUP2 SLOAD DUP2 PUSH1 0xFF MUL NOT AND SWAP1 DUP4 ISZERO ISZERO MUL OR SWAP1 SSTORE POP PUSH0 DUP6 DUP3 DUP2 MLOAD DUP2 LT PUSH2 0x2F4 JUMPI PUSH2 0x2F3 PUSH2 0x77B JUMP JUMPDEST JUMPDEST PUSH1 0x20 MUL PUSH1 0x20 ADD ADD MLOAD SWAP1 DUP1 PUSH1 0x1 DUP2 SLOAD ADD DUP1 DUP3 SSTORE DUP1 SWAP2 POP POP PUSH1 0x1 SWAP1 SUB SWAP1 PUSH0 MSTORE PUSH1 0x20 PUSH0 KECCAK256 ADD PUSH0 SWAP1 SWAP2 SWAP1 SWAP2 SWAP1 SWAP2 PUSH2 0x100 EXP DUP2 SLOAD DUP2 PUSH20 0xFFFFFFFFFFFFFFFFFFFFFFFFFFFFFFFFFFFFFFFF MUL NOT AND SWAP1 DUP4 PUSH20 0xFFFFFFFFFFFFFFFFFFFFFFFFFFFFFFFFFFFFFFFF AND MUL OR SWAP1 SSTORE POP DUP1 DUP1 PUSH1 0x1 ADD SWAP2 POP POP PUSH2 0x13D JUMP JUMPDEST POP DUP3 PUSH1 0x2 DUP2 SWAP1 SSTORE POP DUP2 PUSH1 0x4 DUP2 SWAP1 SSTORE POP DUP1 PUSH1 0xD PUSH0 PUSH2 0x100 EXP DUP2 SLOAD DUP2 PUSH20 0xFFFFFFFFFFFFFFFFFFFFFFFFFFFFFFFFFFFFFFFF MUL NOT AND SWAP1 DUP4 PUSH20 0xFFFFFFFFFFFFFFFFFFFFFFFFFFFFFFFFFFFFFFFF AND MUL OR SWAP1 SSTORE POP TIMESTAMP PUSH1 0x6 DUP2 SWAP1 SSTORE POP POP POP POP POP PUSH2 0x878 JUMP JUMPDEST PUSH0 PUSH1 0x40 MLOAD SWAP1 POP SWAP1 JUMP JUMPDEST PUSH0 PUSH0 REVERT JUMPDEST PUSH0 PUSH0 REVERT JUMPDEST PUSH0 PUSH0 REVERT JUMPDEST PUSH0 PUSH1 0x1F NOT PUSH1 0x1F DUP4 ADD AND SWAP1 POP SWAP2 SWAP1 POP JUMP JUMPDEST PUSH32 0x4E487B7100000000000000000000000000000000000000000000000000000000 PUSH0 MSTORE PUSH1 0x41 PUSH1 0x4 MSTORE PUSH1 0x24 PUSH0 REVERT JUMPDEST PUSH2 0x420 DUP3 PUSH2 0x3DA JUMP JUMPDEST DUP2 ADD DUP2 DUP2 LT PUSH8 0xFFFFFFFFFFFFFFFF DUP3 GT OR ISZERO PUSH2 0x43F JUMPI PUSH2 0x43E PUSH2 0x3EA JUMP JUMPDEST JUMPDEST DUP1 PUSH1 0x40 MSTORE POP POP POP JUMP JUMPDEST PUSH0 PUSH2 0x451 PUSH2 0x3C5 JUMP JUMPDEST SWAP1 POP PUSH2 0x45D DUP3 DUP3 PUSH2 0x417 JUMP JUMPDEST SWAP2 SWAP1 POP JUMP JUMPDEST PUSH0 PUSH8 0xFFFFFFFFFFFFFFFF DUP3 GT ISZERO PUSH2 0x47C JUMPI PUSH2 0x47B PUSH2 0x3EA JUMP JUMPDEST JUMPDEST PUSH1 0x20 DUP3 MUL SWAP1 POP PUSH1 0x20 DUP2 ADD SWAP1 POP SWAP2 SWAP1 POP JUMP JUMPDEST PUSH0 PUSH0 REVERT JUMPDEST PUSH0 PUSH20 0xFFFFFFFFFFFFFFFFFFFFFFFFFFFFFFFFFFFFFFFF DUP3 AND SWAP1 POP SWAP2 SWAP1 POP JUMP JUMPDEST PUSH0 PUSH2 0x4BA DUP3 PUSH2 0x491 JUMP JUMPDEST SWAP1 POP SWAP2 SWAP1 POP JUMP JUMPDEST PUSH2 0x4CA DUP2 PUSH2 0x4B0 JUMP JUMPDEST DUP2 EQ PUSH2 0x4D4 JUMPI PUSH0 PUSH0 REVERT JUMPDEST POP JUMP JUMPDEST PUSH0 DUP2 MLOAD SWAP1 POP PUSH2 0x4E5 DUP2 PUSH2 0x4C1 JUMP JUMPDEST SWAP3 SWAP2 POP POP JUMP JUMPDEST PUSH0 PUSH2 0x4FD PUSH2 0x4F8 DUP5 PUSH2 0x462 JUMP JUMPDEST PUSH2 0x448 JUMP JUMPDEST SWAP1 POP DUP1 DUP4 DUP3 MSTORE PUSH1 0x20 DUP3 ADD SWAP1 POP PUSH1 0x20 DUP5 MUL DUP4 ADD DUP6 DUP2 GT ISZERO PUSH2 0x520 JUMPI PUSH2 0x51F PUSH2 0x48D JUMP JUMPDEST JUMPDEST DUP4 JUMPDEST DUP2 DUP2 LT ISZERO PUSH2 0x549 JUMPI DUP1 PUSH2 0x535 DUP9 DUP3 PUSH2 0x4D7 JUMP JUMPDEST DUP5 MSTORE PUSH1 0x20 DUP5 ADD SWAP4 POP POP PUSH1 0x20 DUP2 ADD SWAP1 POP PUSH2 0x522 JUMP JUMPDEST POP POP POP SWAP4 SWAP3 POP POP POP JUMP JUMPDEST PUSH0 DUP3 PUSH1 0x1F DUP4 ADD SLT PUSH2 0x567 JUMPI PUSH2 0x566 PUSH2 0x3D6 JUMP JUMPDEST JUMPDEST DUP2 MLOAD PUSH2 0x577 DUP5 DUP3 PUSH1 0x20 DUP7 ADD PUSH2 0x4EB JUMP JUMPDEST SWAP2 POP POP SWAP3 SWAP2 POP POP JUMP JUMPDEST PUSH0 DUP2 SWAP1 POP SWAP2 SWAP1 POP JUMP JUMPDEST PUSH2 0x592 DUP2 PUSH2 0x580 JUMP JUMPDEST DUP2 EQ PUSH2 0x59C JUMPI PUSH0 PUSH0 REVERT JUMPDEST POP JUMP JUMPDEST PUSH0 DUP2 MLOAD SWAP1 POP PUSH2 0x5AD DUP2 PUSH2 0x589 JUMP JUMPDEST SWAP3 SWAP2 POP POP JUMP JUMPDEST PUSH0 PUSH0 PUSH0 PUSH0 PUSH1 0x80 DUP6 DUP8 SUB SLT ISZERO PUSH2 0x5CB JUMPI PUSH2 0x5CA PUSH2 0x3CE JUMP JUMPDEST JUMPDEST PUSH0 DUP6 ADD MLOAD PUSH8 0xFFFFFFFFFFFFFFFF DUP2 GT ISZERO PUSH2 0x5E8 JUMPI PUSH2 0x5E7 PUSH2 0x3D2 JUMP JUMPDEST JUMPDEST PUSH2 0x5F4 DUP8 DUP3 DUP9 ADD PUSH2 0x553 JUMP JUMPDEST SWAP5 POP POP PUSH1 0x20 PUSH2 0x605 DUP8 DUP3 DUP9 ADD PUSH2 0x59F JUMP JUMPDEST SWAP4 POP POP PUSH1 0x40 PUSH2 0x616 DUP8 DUP3 DUP9 ADD PUSH2 0x59F JUMP JUMPDEST SWAP3 POP POP PUSH1 0x60 PUSH2 0x627 DUP8 DUP3 DUP9 ADD PUSH2 0x4D7 JUMP JUMPDEST SWAP2 POP POP SWAP3 SWAP6 SWAP2 SWAP5 POP SWAP3 POP JUMP JUMPDEST PUSH0 DUP3 DUP3 MSTORE PUSH1 0x20 DUP3 ADD SWAP1 POP SWAP3 SWAP2 POP POP JUMP JUMPDEST PUSH32 0x4F776E6572732072657175697265640000000000000000000000000000000000 PUSH0 DUP3 ADD MSTORE POP JUMP JUMPDEST PUSH0 PUSH2 0x677 PUSH1 0xF DUP4 PUSH2 0x633 JUMP JUMPDEST SWAP2 POP PUSH2 0x682 DUP3 PUSH2 0x643 JUMP JUMPDEST PUSH1 0x20 DUP3 ADD SWAP1 POP SWAP2 SWAP1 POP JUMP JUMPDEST PUSH0 PUSH1 0x20 DUP3 ADD SWAP1 POP DUP2 DUP2 SUB PUSH0 DUP4 ADD MSTORE PUSH2 0x6A4 DUP2 PUSH2 0x66B JUMP JUMPDEST SWAP1 POP SWAP2 SWAP1 POP JUMP JUMPDEST PUSH32 0x496E76616C6964207265717569726564206E756D626572000000000000000000 PUSH0 DUP3 ADD MSTORE POP JUMP JUMPDEST PUSH0 PUSH2 0x6DF PUSH1 0x17 DUP4 PUSH2 0x633 JUMP JUMPDEST SWAP2 POP PUSH2 0x6EA DUP3 PUSH2 0x6AB JUMP JUMPDEST PUSH1 0x20 DUP3 ADD SWAP1 POP SWAP2 SWAP1 POP JUMP JUMPDEST PUSH0 PUSH1 0x20 DUP3 ADD SWAP1 POP DUP2 DUP2 SUB PUSH0 DUP4 ADD MSTORE PUSH2 0x70C DUP2 PUSH2 0x6D3 JUMP JUMPDEST SWAP1 POP SWAP2 SWAP1 POP JUMP JUMPDEST PUSH32 0x496E76616C6964207265636F7665727920616464726573730000000000000000 PUSH0 DUP3 ADD MSTORE POP JUMP JUMPDEST PUSH0 PUSH2 0x747 PUSH1 0x18 DUP4 PUSH2 0x633 JUMP JUMPDEST SWAP2 POP PUSH2 0x752 DUP3 PUSH2 0x713 JUMP JUMPDEST PUSH1 0x20 DUP3 ADD SWAP1 POP SWAP2 SWAP1 POP JUMP JUMPDEST PUSH0 PUSH1 0x20 DUP3 ADD SWAP1 POP DUP2 DUP2 SUB PUSH0 DUP4 ADD MSTORE PUSH2 0x774 DUP2 PUSH2 0x73B JUMP JUMPDEST SWAP1 POP SWAP2 SWAP1 POP JUMP JUMPDEST PUSH32 0x4E487B7100000000000000000000000000000000000000000000000000000000 PUSH0 MSTORE PUSH1 0x32 PUSH1 0x4 MSTORE PUSH1 0x24 PUSH0 REVERT JUMPDEST PUSH32 0x496E76616C6964206F776E657200000000000000000000000000000000000000 PUSH0 DUP3 ADD MSTORE POP JUMP JUMPDEST PUSH0 PUSH2 0x7DC PUSH1 0xD DUP4 PUSH2 0x633 JUMP JUMPDEST SWAP2 POP PUSH2 0x7E7 DUP3 PUSH2 0x7A8 JUMP JUMPDEST PUSH1 0x20 DUP3 ADD SWAP1 POP SWAP2 SWAP1 POP JUMP JUMPDEST PUSH0 PUSH1 0x20 DUP3 ADD SWAP1 POP DUP2 DUP2 SUB PUSH0 DUP4 ADD MSTORE PUSH2 0x809 DUP2 PUSH2 0x7D0 JUMP JUMPDEST SWAP1 POP SWAP2 SWAP1 POP JUMP JUMPDEST PUSH32 0x4475706C6963617465206F776E65720000000000000000000000000000000000 PUSH0 DUP3 ADD MSTORE POP JUMP JUMPDEST PUSH0 PUSH2 0x844 PUSH1 0xF DUP4 PUSH2 0x633 JUMP JUMPDEST SWAP2 POP PUSH2 0x84F DUP3 PUSH2 0x810 JUMP JUMPDEST PUSH1 0x20 DUP3 ADD SWAP1 POP SWAP2 SWAP1 POP JUMP JUMPDEST PUSH0 PUSH1 0x20 DUP3 ADD SWAP1 POP DUP2 DUP2 SUB PUSH0 DUP4 ADD MSTORE PUSH2 0x871 DUP2 PUSH2 0x838 JUMP JUMPDEST SWAP1 POP SWAP2 SWAP1 POP JUMP JUMPDEST PUSH2 0x3759 DUP1 PUSH2 0x885 PUSH0 CODECOPY PUSH0 RETURN INVALID PUSH1 0x80 PUSH1 0x40 MSTORE PUSH1 0x4 CALLDATASIZE LT PUSH2 0x1F1 JUMPI PUSH0 CALLDATALOAD PUSH1 0xE0 SHR DUP1 PUSH4 0x8AC46935 GT PUSH2 0x10C JUMPI DUP1 PUSH4 0xB5DC40C3 GT PUSH2 0x9F JUMPI DUP1 PUSH4 0xC6427474 GT PUSH2 0x6E JUMPI DUP1 PUSH4 0xC6427474 EQ PUSH2 0x759 JUMPI DUP1 PUSH4 0xCA2A65AD EQ PUSH2 0x795 JUMPI DUP1 PUSH4 0xDC8452CD EQ PUSH2 0x7D1 JUMPI DUP1 PUSH4 0xEE22610B EQ PUSH2 0x7FB JUMPI DUP1 PUSH4 0xF059CF2B EQ PUSH2 0x823 JUMPI PUSH2 0x24F JUMP JUMPDEST DUP1 PUSH4 0xB5DC40C3 EQ PUSH2 0x6A3 JUMPI DUP1 PUSH4 0xB77BF600 EQ PUSH2 0x6DF JUMPI DUP1 PUSH4 0xBA51A6DF EQ PUSH2 0x709 JUMPI DUP1 PUSH4 0xC01A8C84 EQ PUSH2 0x731 JUMPI PUSH2 0x24F JUMP JUMPDEST DUP1 PUSH4 0x9ACE38C2 GT PUSH2 0xDB JUMPI DUP1 PUSH4 0x9ACE38C2 EQ PUSH2 0x5D5 JUMPI DUP1 PUSH4 0xA0E67E2B EQ PUSH2 0x615 JUMPI DUP1 PUSH4 0xA8ABE69A EQ PUSH2 0x63F JUMPI DUP1 PUSH4 0xB20D30A9 EQ PUSH2 0x67B JUMPI PUSH2 0x24F JUMP JUMPDEST DUP1 PUSH4 0x8AC46935 EQ PUSH2 0x531 JUMPI DUP1 PUSH4 0x8B257989 EQ PUSH2 0x547 JUMPI DUP1 PUSH4 0x8B51D13F EQ PUSH2 0x571 JUMPI DUP1 PUSH4 0x992FCF49 EQ PUSH2 0x5AD JUMPI PUSH2 0x24F JUMP JUMPDEST DUP1 PUSH4 0x48F6BA12 GT PUSH2 0x184 JUMPI DUP1 PUSH4 0x6B0C932D GT PUSH2 0x153 JUMPI DUP1 PUSH4 0x6B0C932D EQ PUSH2 0x479 JUMPI DUP1 PUSH4 0x7065CB48 EQ PUSH2 0x4A3 JUMPI DUP1 PUSH4 0x710EB26C EQ PUSH2 0x4CB JUMPI DUP1 PUSH4 0x784547A7 EQ PUSH2 0x4F5 JUMPI PUSH2 0x24F JUMP JUMPDEST DUP1 PUSH4 0x48F6BA12 EQ PUSH2 0x3BF JUMPI DUP1 PUSH4 0x62FFC7AC EQ PUSH2 0x3E9 JUMPI DUP1 PUSH4 0x67EEBA0C EQ PUSH2 0x413 JUMPI DUP1 PUSH4 0x6925B0D6 EQ PUSH2 0x43D JUMPI PUSH2 0x24F JUMP JUMPDEST DUP1 PUSH4 0x20EA8D86 GT PUSH2 0x1C0 JUMPI DUP1 PUSH4 0x20EA8D86 EQ PUSH2 0x2E3 JUMPI DUP1 PUSH4 0x260D711E EQ PUSH2 0x30B JUMPI DUP1 PUSH4 0x2F54BF6E EQ PUSH2 0x347 JUMPI DUP1 PUSH4 0x3411C81C EQ PUSH2 0x383 JUMPI PUSH2 0x24F JUMP JUMPDEST DUP1 PUSH4 0x25E7C27 EQ PUSH2 0x253 JUMPI DUP1 PUSH4 0xBA234D6 EQ PUSH2 0x28F JUMPI DUP1 PUSH4 0x173825D9 EQ PUSH2 0x2A5 JUMPI DUP1 PUSH4 0x20C5A3E1 EQ PUSH2 0x2CD JUMPI PUSH2 0x24F JUMP JUMPDEST CALLDATASIZE PUSH2 0x24F JUMPI PUSH0 CALLVALUE GT ISZERO PUSH2 0x24D JUMPI CALLER PUSH20 0xFFFFFFFFFFFFFFFFFFFFFFFFFFFFFFFFFFFFFFFF AND PUSH32 0xE1FFFCC4923D04B559F4D29A8BFC6CDA04EB5B0D3C460751C2402C5C5CC9109C CALLVALUE PUSH1 0x40 MLOAD PUSH2 0x244 SWAP2 SWAP1 PUSH2 0x28A7 JUMP JUMPDEST PUSH1 0x40 MLOAD DUP1 SWAP2 SUB SWAP1 LOG2 JUMPDEST STOP JUMPDEST PUSH0 PUSH0 REVERT JUMPDEST CALLVALUE DUP1 ISZERO PUSH2 0x25E JUMPI PUSH0 PUSH0 REVERT JUMPDEST POP PUSH2 0x279 PUSH1 0x4 DUP1 CALLDATASIZE SUB DUP2 ADD SWAP1 PUSH2 0x274 SWAP2 SWAP1 PUSH2 0x28FB JUMP JUMPDEST PUSH2 0x84D JUMP JUMPDEST PUSH1 0x40 MLOAD PUSH2 0x286 SWAP2 SWAP1 PUSH2 0x2965 JUMP JUMPDEST PUSH1 0x40 MLOAD DUP1 SWAP2 SUB SWAP1 RETURN JUMPDEST CALLVALUE DUP1 ISZERO PUSH2 0x29A JUMPI PUSH0 PUSH0 REVERT JUMPDEST POP PUSH2 0x2A3 PUSH2 0x887 JUMP JUMPDEST STOP JUMPDEST CALLVALUE DUP1 ISZERO PUSH2 0x2B0 JUMPI PUSH0 PUSH0 REVERT JUMPDEST POP PUSH2 0x2CB PUSH1 0x4 DUP1 CALLDATASIZE SUB DUP2 ADD SWAP1 PUSH2 0x2C6 SWAP2 SWAP1 PUSH2 0x29A8 JUMP JUMPDEST PUSH2 0x970 JUMP JUMPDEST STOP JUMPDEST CALLVALUE DUP1 ISZERO PUSH2 0x2D8 JUMPI PUSH0 PUSH0 REVERT JUMPDEST POP PUSH2 0x2E1 PUSH2 0xC66 JUMP JUMPDEST STOP JUMPDEST CALLVALUE DUP1 ISZERO PUSH2 0x2EE JUMPI PUSH0 PUSH0 REVERT JUMPDEST POP PUSH2 0x309 PUSH1 0x4 DUP1 CALLDATASIZE SUB DUP2 ADD SWAP1 PUSH2 0x304 SWAP2 SWAP1 PUSH2 0x28FB JUMP JUMPDEST PUSH2 0xF9D JUMP JUMPDEST STOP JUMPDEST CALLVALUE DUP1 ISZERO PUSH2 0x316 JUMPI PUSH0 PUSH0 REVERT JUMPDEST POP PUSH2 0x331 PUSH1 0x4 DUP1 CALLDATASIZE SUB DUP2 ADD SWAP1 PUSH2 0x32C SWAP2 SWAP1 PUSH2 0x2A06 JUMP JUMPDEST PUSH2 0x123D JUMP JUMPDEST PUSH1 0x40 MLOAD PUSH2 0x33E SWAP2 SWAP1 PUSH2 0x2A4B JUMP JUMPDEST PUSH1 0x40 MLOAD DUP1 SWAP2 SUB SWAP1 RETURN JUMPDEST CALLVALUE DUP1 ISZERO PUSH2 0x352 JUMPI PUSH0 PUSH0 REVERT JUMPDEST POP PUSH2 0x36D PUSH1 0x4 DUP1 CALLDATASIZE SUB DUP2 ADD SWAP1 PUSH2 0x368 SWAP2 SWAP1 PUSH2 0x29A8 JUMP JUMPDEST PUSH2 0x125A JUMP JUMPDEST PUSH1 0x40 MLOAD PUSH2 0x37A SWAP2 SWAP1 PUSH2 0x2A4B JUMP JUMPDEST PUSH1 0x40 MLOAD DUP1 SWAP2 SUB SWAP1 RETURN JUMPDEST CALLVALUE DUP1 ISZERO PUSH2 0x38E JUMPI PUSH0 PUSH0 REVERT JUMPDEST POP PUSH2 0x3A9 PUSH1 0x4 DUP1 CALLDATASIZE SUB DUP2 ADD SWAP1 PUSH2 0x3A4 SWAP2 SWAP1 PUSH2 0x2A64 JUMP JUMPDEST PUSH2 0x1277 JUMP JUMPDEST PUSH1 0x40 MLOAD PUSH2 0x3B6 SWAP2 SWAP1 PUSH2 0x2A4B JUMP JUMPDEST PUSH1 0x40 MLOAD DUP1 SWAP2 SUB SWAP1 RETURN JUMPDEST CALLVALUE DUP1 ISZERO PUSH2 0x3CA JUMPI PUSH0 PUSH0 REVERT JUMPDEST POP PUSH2 0x3D3 PUSH2 0x12A1 JUMP JUMPDEST PUSH1 0x40 MLOAD PUSH2 0x3E0 SWAP2 SWAP1 PUSH2 0x2A4B JUMP JUMPDEST PUSH1 0x40 MLOAD DUP1 SWAP2 SUB SWAP1 RETURN JUMPDEST CALLVALUE DUP1 ISZERO PUSH2 0x3F4 JUMPI PUSH0 PUSH0 REVERT JUMPDEST POP PUSH2 0x3FD PUSH2 0x12B3 JUMP JUMPDEST PUSH1 0x40 MLOAD PUSH2 0x40A SWAP2 SWAP1 PUSH2 0x28A7 JUMP JUMPDEST PUSH1 0x40 MLOAD DUP1 SWAP2 SUB SWAP1 RETURN JUMPDEST CALLVALUE DUP1 ISZERO PUSH2 0x41E JUMPI PUSH0 PUSH0 REVERT JUMPDEST POP PUSH2 0x427 PUSH2 0x12B9 JUMP JUMPDEST PUSH1 0x40 MLOAD PUSH2 0x434 SWAP2 SWAP1 PUSH2 0x28A7 JUMP JUMPDEST PUSH1 0x40 MLOAD DUP1 SWAP2 SUB SWAP1 RETURN JUMPDEST CALLVALUE DUP1 ISZERO PUSH2 0x448 JUMPI PUSH0 PUSH0 REVERT JUMPDEST POP PUSH2 0x463 PUSH1 0x4 DUP1 CALLDATASIZE SUB DUP2 ADD SWAP1 PUSH2 0x45E SWAP2 SWAP1 PUSH2 0x29A8 JUMP JUMPDEST PUSH2 0x12BF JUMP JUMPDEST PUSH1 0x40 MLOAD PUSH2 0x470 SWAP2 SWAP1 PUSH2 0x28A7 JUMP JUMPDEST PUSH1 0x40 MLOAD DUP1 SWAP2 SUB SWAP1 RETURN JUMPDEST CALLVALUE DUP1 ISZERO PUSH2 0x484 JUMPI PUSH0 PUSH0 REVERT JUMPDEST POP PUSH2 0x48D PUSH2 0x12D4 JUMP JUMPDEST PUSH1 0x40 MLOAD PUSH2 0x49A SWAP2 SWAP1 PUSH2 0x28A7 JUMP JUMPDEST PUSH1 0x40 MLOAD DUP1 SWAP2 SUB SWAP1 RETURN JUMPDEST CALLVALUE DUP1 ISZERO PUSH2 0x4AE JUMPI PUSH0 PUSH0 REVERT JUMPDEST POP PUSH2 0x4C9 PUSH1 0x4 DUP1 CALLDATASIZE SUB DUP2 ADD SWAP1 PUSH2 0x4C4 SWAP2 SWAP1 PUSH2 0x29A8 JUMP JUMPDEST PUSH2 0x12DA JUMP JUMPDEST STOP JUMPDEST CALLVALUE DUP1 ISZERO PUSH2 0x4D6 JUMPI PUSH0 PUSH0 REVERT JUMPDEST POP PUSH2 0x4DF PUSH2 0x151D JUMP JUMPDEST PUSH1 0x40 MLOAD PUSH2 0x4EC SWAP2 SWAP1 PUSH2 0x2965 JUMP JUMPDEST PUSH1 0x40 MLOAD DUP1 SWAP2 SUB SWAP1 RETURN JUMPDEST CALLVALUE DUP1 ISZERO PUSH2 0x500 JUMPI PUSH0 PUSH0 REVERT JUMPDEST POP PUSH2 0x51B PUSH1 0x4 DUP1 CALLDATASIZE SUB DUP2 ADD SWAP1 PUSH2 0x516 SWAP2 SWAP1 PUSH2 0x28FB JUMP JUMPDEST PUSH2 0x1542 JUMP JUMPDEST PUSH1 0x40 MLOAD PUSH2 0x528 SWAP2 SWAP1 PUSH2 0x2A4B JUMP JUMPDEST PUSH1 0x40 MLOAD DUP1 SWAP2 SUB SWAP1 RETURN JUMPDEST CALLVALUE DUP1 ISZERO PUSH2 0x53C JUMPI PUSH0 PUSH0 REVERT JUMPDEST POP PUSH2 0x545 PUSH2 0x1564 JUMP JUMPDEST STOP JUMPDEST CALLVALUE DUP1 ISZERO PUSH2 0x552 JUMPI PUSH0 PUSH0 REVERT JUMPDEST POP PUSH2 0x55B PUSH2 0x16B4 JUMP JUMPDEST PUSH1 0x40 MLOAD PUSH2 0x568 SWAP2 SWAP1 PUSH2 0x28A7 JUMP JUMPDEST PUSH1 0x40 MLOAD DUP1 SWAP2 SUB SWAP1 RETURN JUMPDEST CALLVALUE DUP1 ISZERO PUSH2 0x57C JUMPI PUSH0 PUSH0 REVERT JUMPDEST POP PUSH2 0x597 PUSH1 0x4 DUP1 CALLDATASIZE SUB DUP2 ADD SWAP1 PUSH2 0x592 SWAP2 SWAP1 PUSH2 0x28FB JUMP JUMPDEST PUSH2 0x16BA JUMP JUMPDEST PUSH1 0x40 MLOAD PUSH2 0x5A4 SWAP2 SWAP1 PUSH2 0x28A7 JUMP JUMPDEST PUSH1 0x40 MLOAD DUP1 SWAP2 SUB SWAP1 RETURN JUMPDEST CALLVALUE DUP1 ISZERO PUSH2 0x5B8 JUMPI PUSH0 PUSH0 REVERT JUMPDEST POP PUSH2 0x5D3 PUSH1 0x4 DUP1 CALLDATASIZE SUB DUP2 ADD SWAP1 PUSH2 0x5CE SWAP2 SWAP1 PUSH2 0x28FB JUMP JUMPDEST PUSH2 0x16D7 JUMP JUMPDEST STOP JUMPDEST CALLVALUE DUP1 ISZERO PUSH2 0x5E0 JUMPI PUSH0 PUSH0 REVERT JUMPDEST POP PUSH2 0x5FB PUSH1 0x4 DUP1 CALLDATASIZE SUB DUP2 ADD SWAP1 PUSH2 0x5F6 SWAP2 SWAP1 PUSH2 0x28FB JUMP JUMPDEST PUSH2 0x1761 JUMP JUMPDEST PUSH1 0x40 MLOAD PUSH2 0x60C SWAP6 SWAP5 SWAP4 SWAP3 SWAP2 SWAP1 PUSH2 0x2B12 JUMP JUMPDEST PUSH1 0x40 MLOAD DUP1 SWAP2 SUB SWAP1 RETURN JUMPDEST CALLVALUE DUP1 ISZERO PUSH2 0x620 JUMPI PUSH0 PUSH0 REVERT JUMPDEST POP PUSH2 0x629 PUSH2 0x1844 JUMP JUMPDEST PUSH1 0x40 MLOAD PUSH2 0x636 SWAP2 SWAP1 PUSH2 0x2C21 JUMP JUMPDEST PUSH1 0x40 MLOAD DUP1 SWAP2 SUB SWAP1 RETURN JUMPDEST CALLVALUE DUP1 ISZERO PUSH2 0x64A JUMPI PUSH0 PUSH0 REVERT JUMPDEST POP PUSH2 0x665 PUSH1 0x4 DUP1 CALLDATASIZE SUB DUP2 ADD SWAP1 PUSH2 0x660 SWAP2 SWAP1 PUSH2 0x2C6B JUMP JUMPDEST PUSH2 0x18CE JUMP JUMPDEST PUSH1 0x40 MLOAD PUSH2 0x672 SWAP2 SWAP1 PUSH2 0x2D86 JUMP JUMPDEST PUSH1 0x40 MLOAD DUP1 SWAP2 SUB SWAP1 RETURN JUMPDEST CALLVALUE DUP1 ISZERO PUSH2 0x686 JUMPI PUSH0 PUSH0 REVERT JUMPDEST POP PUSH2 0x6A1 PUSH1 0x4 DUP1 CALLDATASIZE SUB DUP2 ADD SWAP1 PUSH2 0x69C SWAP2 SWAP1 PUSH2 0x28FB JUMP JUMPDEST PUSH2 0x1A94 JUMP JUMPDEST STOP JUMPDEST CALLVALUE DUP1 ISZERO PUSH2 0x6AE JUMPI PUSH0 PUSH0 REVERT JUMPDEST POP PUSH2 0x6C9 PUSH1 0x4 DUP1 CALLDATASIZE SUB DUP2 ADD SWAP1 PUSH2 0x6C4 SWAP2 SWAP1 PUSH2 0x28FB JUMP JUMPDEST PUSH2 0x1B1E JUMP JUMPDEST PUSH1 0x40 MLOAD PUSH2 0x6D6 SWAP2 SWAP1 PUSH2 0x2C21 JUMP JUMPDEST PUSH1 0x40 MLOAD DUP1 SWAP2 SUB SWAP1 RETURN JUMPDEST CALLVALUE DUP1 ISZERO PUSH2 0x6EA JUMPI PUSH0 PUSH0 REVERT JUMPDEST POP PUSH2 0x6F3 PUSH2 0x1D9C JUMP JUMPDEST PUSH1 0x40 MLOAD PUSH2 0x700 SWAP2 SWAP1 PUSH2 0x28A7 JUMP JUMPDEST PUSH1 0x40 MLOAD DUP1 SWAP2 SUB SWAP1 RETURN JUMPDEST CALLVALUE DUP1 ISZERO PUSH2 0x714 JUMPI PUSH0 PUSH0 REVERT JUMPDEST POP PUSH2 0x72F PUSH1 0x4 DUP1 CALLDATASIZE SUB DUP2 ADD SWAP1 PUSH2 0x72A SWAP2 SWAP1 PUSH2 0x28FB JUMP JUMPDEST PUSH2 0x1DA2 JUMP JUMPDEST STOP JUMPDEST CALLVALUE DUP1 ISZERO PUSH2 0x73C JUMPI PUSH0 PUSH0 REVERT JUMPDEST POP PUSH2 0x757 PUSH1 0x4 DUP1 CALLDATASIZE SUB DUP2 ADD SWAP1 PUSH2 0x752 SWAP2 SWAP1 PUSH2 0x28FB JUMP JUMPDEST PUSH2 0x1E7E JUMP JUMPDEST STOP JUMPDEST CALLVALUE DUP1 ISZERO PUSH2 0x764 JUMPI PUSH0 PUSH0 REVERT JUMPDEST POP PUSH2 0x77F PUSH1 0x4 DUP1 CALLDATASIZE SUB DUP2 ADD SWAP1 PUSH2 0x77A SWAP2 SWAP1 PUSH2 0x2ED2 JUMP JUMPDEST PUSH2 0x2164 JUMP JUMPDEST PUSH1 0x40 MLOAD PUSH2 0x78C SWAP2 SWAP1 PUSH2 0x28A7 JUMP JUMPDEST PUSH1 0x40 MLOAD DUP1 SWAP2 SUB SWAP1 RETURN JUMPDEST CALLVALUE DUP1 ISZERO PUSH2 0x7A0 JUMPI PUSH0 PUSH0 REVERT JUMPDEST POP PUSH2 0x7BB PUSH1 0x4 DUP1 CALLDATASIZE SUB DUP2 ADD SWAP1 PUSH2 0x7B6 SWAP2 SWAP1 PUSH2 0x28FB JUMP JUMPDEST PUSH2 0x23AF JUMP JUMPDEST PUSH1 0x40 MLOAD PUSH2 0x7C8 SWAP2 SWAP1 PUSH2 0x28A7 JUMP JUMPDEST PUSH1 0x40 MLOAD DUP1 SWAP2 SUB SWAP1 RETURN JUMPDEST CALLVALUE DUP1 ISZERO PUSH2 0x7DC JUMPI PUSH0 PUSH0 REVERT JUMPDEST POP PUSH2 0x7E5 PUSH2 0x23C4 JUMP JUMPDEST PUSH1 0x40 MLOAD PUSH2 0x7F2 SWAP2 SWAP1 PUSH2 0x28A7 JUMP JUMPDEST PUSH1 0x40 MLOAD DUP1 SWAP2 SUB SWAP1 RETURN JUMPDEST CALLVALUE DUP1 ISZERO PUSH2 0x806 JUMPI PUSH0 PUSH0 REVERT JUMPDEST POP PUSH2 0x821 PUSH1 0x4 DUP1 CALLDATASIZE SUB DUP2 ADD SWAP1 PUSH2 0x81C SWAP2 SWAP1 PUSH2 0x28FB JUMP JUMPDEST PUSH2 0x23CA JUMP JUMPDEST STOP JUMPDEST CALLVALUE DUP1 ISZERO PUSH2 0x82E JUMPI PUSH0 PUSH0 REVERT JUMPDEST POP PUSH2 0x837 PUSH2 0x27A5 JUMP JUMPDEST PUSH1 0x40 MLOAD PUSH2 0x844 SWAP2 SWAP1 PUSH2 0x28A7 JUMP JUMPDEST PUSH1 0x40 MLOAD DUP1 SWAP2 SUB SWAP1 RETURN JUMPDEST PUSH0 DUP2 DUP2 SLOAD DUP2 LT PUSH2 0x85B JUMPI PUSH0 DUP1 REVERT JUMPDEST SWAP1 PUSH0 MSTORE PUSH1 0x20 PUSH0 KECCAK256 ADD PUSH0 SWAP2 POP SLOAD SWAP1 PUSH2 0x100 EXP SWAP1 DIV PUSH20 0xFFFFFFFFFFFFFFFFFFFFFFFFFFFFFFFFFFFFFFFF AND DUP2 JUMP JUMPDEST PUSH1 0x1 PUSH0 CALLER PUSH20 0xFFFFFFFFFFFFFFFFFFFFFFFFFFFFFFFFFFFFFFFF AND PUSH20 0xFFFFFFFFFFFFFFFFFFFFFFFFFFFFFFFFFFFFFFFF AND DUP2 MSTORE PUSH1 0x20 ADD SWAP1 DUP2 MSTORE PUSH1 0x20 ADD PUSH0 KECCAK256 PUSH0 SWAP1 SLOAD SWAP1 PUSH2 0x100 EXP SWAP1 DIV PUSH1 0xFF AND PUSH2 0x907 JUMPI PUSH1 0x40 MLOAD PUSH32 0x30CD747100000000000000000000000000000000000000000000000000000000 DUP2 MSTORE PUSH1 0x4 ADD PUSH1 0x40 MLOAD DUP1 SWAP2 SUB SWAP1 REVERT JUMPDEST PUSH1 0xF PUSH0 SWAP1 SLOAD SWAP1 PUSH2 0x100 EXP SWAP1 DIV PUSH1 0xFF AND PUSH2 0x955 JUMPI PUSH1 0x40 MLOAD PUSH32 0x8C379A000000000000000000000000000000000000000000000000000000000 DUP2 MSTORE PUSH1 0x4 ADD PUSH2 0x94C SWAP1 PUSH2 0x2F98 JUMP JUMPDEST PUSH1 0x40 MLOAD DUP1 SWAP2 SUB SWAP1 REVERT JUMPDEST PUSH0 PUSH1 0xF PUSH0 PUSH2 0x100 EXP DUP2 SLOAD DUP2 PUSH1 0xFF MUL NOT AND SWAP1 DUP4 ISZERO ISZERO MUL OR SWAP1 SSTORE POP JUMP JUMPDEST PUSH1 0x1 PUSH0 CALLER PUSH20 0xFFFFFFFFFFFFFFFFFFFFFFFFFFFFFFFFFFFFFFFF AND PUSH20 0xFFFFFFFFFFFFFFFFFFFFFFFFFFFFFFFFFFFFFFFF AND DUP2 MSTORE PUSH1 0x20 ADD SWAP1 DUP2 MSTORE PUSH1 0x20 ADD PUSH0 KECCAK256 PUSH0 SWAP1 SLOAD SWAP1 PUSH2 0x100 EXP SWAP1 DIV PUSH1 0xFF AND PUSH2 0x9F0 JUMPI PUSH1 0x40 MLOAD PUSH32 0x30CD747100000000000000000000000000000000000000000000000000000000 DUP2 MSTORE PUSH1 0x4 ADD PUSH1 0x40 MLOAD DUP1 SWAP2 SUB SWAP1 REVERT JUMPDEST DUP1 PUSH1 0x1 PUSH0 DUP3 PUSH20 0xFFFFFFFFFFFFFFFFFFFFFFFFFFFFFFFFFFFFFFFF AND PUSH20 0xFFFFFFFFFFFFFFFFFFFFFFFFFFFFFFFFFFFFFFFF AND DUP2 MSTORE PUSH1 0x20 ADD SWAP1 DUP2 MSTORE PUSH1 0x20 ADD PUSH0 KECCAK256 PUSH0 SWAP1 SLOAD SWAP1 PUSH2 0x100 EXP SWAP1 DIV PUSH1 0xFF AND PUSH2 0xA71 JUMPI PUSH1 0x40 MLOAD PUSH32 0x30CD747100000000000000000000000000000000000000000000000000000000 DUP2 MSTORE PUSH1 0x4 ADD PUSH1 0x40 MLOAD DUP1 SWAP2 SUB SWAP1 REVERT JUMPDEST PUSH0 PUSH1 0x1 PUSH0 DUP5 PUSH20 0xFFFFFFFFFFFFFFFFFFFFFFFFFFFFFFFFFFFFFFFF AND PUSH20 0xFFFFFFFFFFFFFFFFFFFFFFFFFFFFFFFFFFFFFFFF AND DUP2 MSTORE PUSH1 0x20 ADD SWAP1 DUP2 MSTORE PUSH1 0x20 ADD PUSH0 KECCAK256 PUSH0 PUSH2 0x100 EXP DUP2 SLOAD DUP2 PUSH1 0xFF MUL NOT AND SWAP1 DUP4 ISZERO ISZERO MUL OR SWAP1 SSTORE POP PUSH0 PUSH0 SWAP1 POP JUMPDEST PUSH1 0x1 PUSH0 DUP1 SLOAD SWAP1 POP PUSH2 0xADB SWAP2 SWAP1 PUSH2 0x2FE3 JUMP JUMPDEST DUP2 LT ISZERO PUSH2 0xC04 JUMPI DUP3 PUSH20 0xFFFFFFFFFFFFFFFFFFFFFFFFFFFFFFFFFFFFFFFF AND PUSH0 DUP3 DUP2 SLOAD DUP2 LT PUSH2 0xB0C JUMPI PUSH2 0xB0B PUSH2 0x3016 JUMP JUMPDEST JUMPDEST SWAP1 PUSH0 MSTORE PUSH1 0x20 PUSH0 KECCAK256 ADD PUSH0 SWAP1 SLOAD SWAP1 PUSH2 0x100 EXP SWAP1 DIV PUSH20 0xFFFFFFFFFFFFFFFFFFFFFFFFFFFFFFFFFFFFFFFF AND PUSH20 0xFFFFFFFFFFFFFFFFFFFFFFFFFFFFFFFFFFFFFFFF AND SUB PUSH2 0xBF7 JUMPI PUSH0 PUSH1 0x1 PUSH0 DUP1 SLOAD SWAP1 POP PUSH2 0xB61 SWAP2 SWAP1 PUSH2 0x2FE3 JUMP JUMPDEST DUP2 SLOAD DUP2 LT PUSH2 0xB72 JUMPI PUSH2 0xB71 PUSH2 0x3016 JUMP JUMPDEST JUMPDEST SWAP1 PUSH0 MSTORE PUSH1 0x20 PUSH0 KECCAK256 ADD PUSH0 SWAP1 SLOAD SWAP1 PUSH2 0x100 EXP SWAP1 DIV PUSH20 0xFFFFFFFFFFFFFFFFFFFFFFFFFFFFFFFFFFFFFFFF AND PUSH0 DUP3 DUP2 SLOAD DUP2 LT PUSH2 0xBAD JUMPI PUSH2 0xBAC PUSH2 0x3016 JUMP JUMPDEST JUMPDEST SWAP1 PUSH0 MSTORE PUSH1 0x20 PUSH0 KECCAK256 ADD PUSH0 PUSH2 0x100 EXP DUP2 SLOAD DUP2 PUSH20 0xFFFFFFFFFFFFFFFFFFFFFFFFFFFFFFFFFFFFFFFF MUL NOT AND SWAP1 DUP4 PUSH20 0xFFFFFFFFFFFFFFFFFFFFFFFFFFFFFFFFFFFFFFFF AND MUL OR SWAP1 SSTORE POP PUSH2 0xC04 JUMP JUMPDEST DUP1 DUP1 PUSH1 0x1 ADD SWAP2 POP POP PUSH2 0xACA JUMP JUMPDEST POP PUSH0 DUP1 SLOAD DUP1 PUSH2 0xC16 JUMPI PUSH2 0xC15 PUSH2 0x3043 JUMP JUMPDEST JUMPDEST PUSH1 0x1 SWAP1 SUB DUP2 DUP2 SWAP1 PUSH0 MSTORE PUSH1 0x20 PUSH0 KECCAK256 ADD PUSH0 PUSH2 0x100 EXP DUP2 SLOAD SWAP1 PUSH20 0xFFFFFFFFFFFFFFFFFFFFFFFFFFFFFFFFFFFFFFFF MUL NOT AND SWAP1 SSTORE SWAP1 SSTORE PUSH0 DUP1 SLOAD SWAP1 POP PUSH1 0x2 SLOAD GT ISZERO PUSH2 0xC62 JUMPI PUSH0 DUP1 SLOAD SWAP1 POP PUSH1 0x2 DUP2 SWAP1 SSTORE POP JUMPDEST POP POP JUMP JUMPDEST PUSH1 0xF PUSH0 SWAP1 SLOAD SWAP1 PUSH2 0x100 EXP SWAP1 DIV PUSH1 0xFF AND PUSH2 0xCB4 JUMPI PUSH1 0x40 MLOAD PUSH32 0x8C379A000000000000000000000000000000000000000000000000000000000 DUP2 MSTORE PUSH1 0x4 ADD PUSH2 0xCAB SWAP1 PUSH2 0x2F98 JUMP JUMPDEST PUSH1 0x40 MLOAD DUP1 SWAP2 SUB SWAP1 REVERT JUMPDEST PUSH1 0xE SLOAD TIMESTAMP LT ISZERO PUSH2 0xCF9 JUMPI PUSH1 0x40 MLOAD PUSH32 0x8C379A000000000000000000000000000000000000000000000000000000000 DUP2 MSTORE PUSH1 0x4 ADD PUSH2 0xCF0 SWAP1 PUSH2 0x30BA JUMP JUMPDEST PUSH1 0x40 MLOAD DUP1 SWAP2 SUB SWAP1 REVERT JUMPDEST PUSH1 0xD PUSH0 SWAP1 SLOAD SWAP1 PUSH2 0x100 EXP SWAP1 DIV PUSH20 0xFFFFFFFFFFFFFFFFFFFFFFFFFFFFFFFFFFFFFFFF AND PUSH20 0xFFFFFFFFFFFFFFFFFFFFFFFFFFFFFFFFFFFFFFFF AND CALLER PUSH20 0xFFFFFFFFFFFFFFFFFFFFFFFFFFFFFFFFFFFFFFFF AND EQ PUSH2 0xD88 JUMPI PUSH1 0x40 MLOAD PUSH32 0x8C379A000000000000000000000000000000000000000000000000000000000 DUP2 MSTORE PUSH1 0x4 ADD PUSH2 0xD7F SWAP1 PUSH2 0x3122 JUMP JUMPDEST PUSH1 0x40 MLOAD DUP1 SWAP2 SUB SWAP1 REVERT JUMPDEST PUSH0 PUSH0 SWAP1 POP JUMPDEST PUSH0 DUP1 SLOAD SWAP1 POP DUP2 LT ISZERO PUSH2 0xE34 JUMPI PUSH0 PUSH1 0x1 PUSH0 PUSH0 DUP5 DUP2 SLOAD DUP2 LT PUSH2 0xDB0 JUMPI PUSH2 0xDAF PUSH2 0x3016 JUMP JUMPDEST JUMPDEST SWAP1 PUSH0 MSTORE PUSH1 0x20 PUSH0 KECCAK256 ADD PUSH0 SWAP1 SLOAD SWAP1 PUSH2 0x100 EXP SWAP1 DIV PUSH20 0xFFFFFFFFFFFFFFFFFFFFFFFFFFFFFFFFFFFFFFFF AND PUSH20 0xFFFFFFFFFFFFFFFFFFFFFFFFFFFFFFFFFFFFFFFF AND PUSH20 0xFFFFFFFFFFFFFFFFFFFFFFFFFFFFFFFFFFFFFFFF AND DUP2 MSTORE PUSH1 0x20 ADD SWAP1 DUP2 MSTORE PUSH1 0x20 ADD PUSH0 KECCAK256 PUSH0 PUSH2 0x100 EXP DUP2 SLOAD DUP2 PUSH1 0xFF MUL NOT AND SWAP1 DUP4 ISZERO ISZERO MUL OR SWAP1 SSTORE POP DUP1 DUP1 PUSH1 0x1 ADD SWAP2 POP POP PUSH2 0xD8D JUMP JUMPDEST POP PUSH1 0x40 MLOAD DUP1 PUSH1 0x20 ADD PUSH1 0x40 MSTORE DUP1 PUSH1 0xD PUSH0 SWAP1 SLOAD SWAP1 PUSH2 0x100 EXP SWAP1 DIV PUSH20 0xFFFFFFFFFFFFFFFFFFFFFFFFFFFFFFFFFFFFFFFF AND PUSH20 0xFFFFFFFFFFFFFFFFFFFFFFFFFFFFFFFFFFFFFFFF AND PUSH20 0xFFFFFFFFFFFFFFFFFFFFFFFFFFFFFFFFFFFFFFFF AND DUP2 MSTORE POP PUSH0 SWAP1 PUSH1 0x1 PUSH2 0xEA0 SWAP3 SWAP2 SWAP1 PUSH2 0x27ED JUMP JUMPDEST POP PUSH1 0x1 DUP1 PUSH0 PUSH1 0xD PUSH0 SWAP1 SLOAD SWAP1 PUSH2 0x100 EXP SWAP1 DIV PUSH20 0xFFFFFFFFFFFFFFFFFFFFFFFFFFFFFFFFFFFFFFFF AND PUSH20 0xFFFFFFFFFFFFFFFFFFFFFFFFFFFFFFFFFFFFFFFF AND PUSH20 0xFFFFFFFFFFFFFFFFFFFFFFFFFFFFFFFFFFFFFFFF AND DUP2 MSTORE PUSH1 0x20 ADD SWAP1 DUP2 MSTORE PUSH1 0x20 ADD PUSH0 KECCAK256 PUSH0 PUSH2 0x100 EXP DUP2 SLOAD DUP2 PUSH1 0xFF MUL NOT AND SWAP1 DUP4 ISZERO ISZERO MUL OR SWAP1 SSTORE POP PUSH1 0x1 PUSH1 0x2 DUP2 SWAP1 SSTORE POP PUSH0 PUSH1 0xF PUSH0 PUSH2 0x100 EXP DUP2 SLOAD DUP2 PUSH1 0xFF MUL NOT AND SWAP1 DUP4 ISZERO ISZERO MUL OR SWAP1 SSTORE POP PUSH1 0xD PUSH0 SWAP1 SLOAD SWAP1 PUSH2 0x100 EXP SWAP1 DIV PUSH20 0xFFFFFFFFFFFFFFFFFFFFFFFFFFFFFFFFFFFFFFFF AND PUSH20 0xFFFFFFFFFFFFFFFFFFFFFFFFFFFFFFFFFFFFFFFF AND PUSH32 0xFCD2DE31341801B7FD80895C780AAE50C1505FD674FF1B9B9764C56C633434D6 PUSH1 0x40 MLOAD PUSH1 0x40 MLOAD DUP1 SWAP2 SUB SWAP1 LOG2 JUMP JUMPDEST PUSH1 0x1 PUSH0 CALLER PUSH20 0xFFFFFFFFFFFFFFFFFFFFFFFFFFFFFFFFFFFFFFFF AND PUSH20 0xFFFFFFFFFFFFFFFFFFFFFFFFFFFFFFFFFFFFFFFF AND DUP2 MSTORE PUSH1 0x20 ADD SWAP1 DUP2 MSTORE PUSH1 0x20 ADD PUSH0 KECCAK256 PUSH0 SWAP1 SLOAD SWAP1 PUSH2 0x100 EXP SWAP1 DIV PUSH1 0xFF AND PUSH2 0x101D JUMPI PUSH1 0x40 MLOAD PUSH32 0x30CD747100000000000000000000000000000000000000000000000000000000 DUP2 MSTORE PUSH1 0x4 ADD PUSH1 0x40 MLOAD DUP1 SWAP2 SUB SWAP1 REVERT JUMPDEST DUP1 PUSH0 PUSH20 0xFFFFFFFFFFFFFFFFFFFFFFFFFFFFFFFFFFFFFFFF AND PUSH1 0x7 PUSH0 DUP4 DUP2 MSTORE PUSH1 0x20 ADD SWAP1 DUP2 MSTORE PUSH1 0x20 ADD PUSH0 KECCAK256 PUSH0 ADD PUSH0 SWAP1 SLOAD SWAP1 PUSH2 0x100 EXP SWAP1 DIV PUSH20 0xFFFFFFFFFFFFFFFFFFFFFFFFFFFFFFFFFFFFFFFF AND PUSH20 0xFFFFFFFFFFFFFFFFFFFFFFFFFFFFFFFFFFFFFFFF AND SUB PUSH2 0x10BE JUMPI PUSH1 0x40 MLOAD PUSH32 0x8C379A000000000000000000000000000000000000000000000000000000000 DUP2 MSTORE PUSH1 0x4 ADD PUSH2 0x10B5 SWAP1 PUSH2 0x318A JUMP JUMPDEST PUSH1 0x40 MLOAD DUP1 SWAP2 SUB SWAP1 REVERT JUMPDEST DUP2 PUSH1 0x7 PUSH0 DUP3 DUP2 MSTORE PUSH1 0x20 ADD SWAP1 DUP2 MSTORE PUSH1 0x20 ADD PUSH0 KECCAK256 PUSH1 0x3 ADD PUSH0 SWAP1 SLOAD SWAP1 PUSH2 0x100 EXP SWAP1 DIV PUSH1 0xFF AND ISZERO PUSH2 0x1117 JUMPI PUSH1 0x40 MLOAD PUSH32 0xDB5E659B00000000000000000000000000000000000000000000000000000000 DUP2 MSTORE PUSH1 0x4 ADD PUSH1 0x40 MLOAD DUP1 SWAP2 SUB SWAP1 REVERT JUMPDEST DUP3 CALLER PUSH1 0x8 PUSH0 DUP4 DUP2 MSTORE PUSH1 0x20 ADD SWAP1 DUP2 MSTORE PUSH1 0x20 ADD PUSH0 KECCAK256 PUSH0 DUP3 PUSH20 0xFFFFFFFFFFFFFFFFFFFFFFFFFFFFFFFFFFFFFFFF AND PUSH20 0xFFFFFFFFFFFFFFFFFFFFFFFFFFFFFFFFFFFFFFFF AND DUP2 MSTORE PUSH1 0x20 ADD SWAP1 DUP2 MSTORE PUSH1 0x20 ADD PUSH0 KECCAK256 PUSH0 SWAP1 SLOAD SWAP1 PUSH2 0x100 EXP SWAP1 DIV PUSH1 0xFF AND PUSH2 0x11A8 JUMPI PUSH1 0x40 MLOAD PUSH32 0xFDAC7C0000000000000000000000000000000000000000000000000000000000 DUP2 MSTORE PUSH1 0x4 ADD PUSH1 0x40 MLOAD DUP1 SWAP2 SUB SWAP1 REVERT JUMPDEST PUSH0 PUSH1 0x8 PUSH0 DUP8 DUP2 MSTORE PUSH1 0x20 ADD SWAP1 DUP2 MSTORE PUSH1 0x20 ADD PUSH0 KECCAK256 PUSH0 CALLER PUSH20 0xFFFFFFFFFFFFFFFFFFFFFFFFFFFFFFFFFFFFFFFF AND PUSH20 0xFFFFFFFFFFFFFFFFFFFFFFFFFFFFFFFFFFFFFFFF AND DUP2 MSTORE PUSH1 0x20 ADD SWAP1 DUP2 MSTORE PUSH1 0x20 ADD PUSH0 KECCAK256 PUSH0 PUSH2 0x100 EXP DUP2 SLOAD DUP2 PUSH1 0xFF MUL NOT AND SWAP1 DUP4 ISZERO ISZERO MUL OR SWAP1 SSTORE POP PUSH1 0x1 PUSH1 0x7 PUSH0 DUP8 DUP2 MSTORE PUSH1 0x20 ADD SWAP1 DUP2 MSTORE PUSH1 0x20 ADD PUSH0 KECCAK256 PUSH1 0x4 ADD PUSH0 DUP3 DUP3 SLOAD PUSH2 0x122F SWAP2 SWAP1 PUSH2 0x2FE3 JUMP JUMPDEST SWAP3 POP POP DUP2 SWAP1 SSTORE POP POP POP POP POP POP JUMP JUMPDEST PUSH1 0xA PUSH1 0x20 MSTORE DUP1 PUSH0 MSTORE PUSH1 0x40 PUSH0 KECCAK256 PUSH0 SWAP2 POP SLOAD SWAP1 PUSH2 0x100 EXP SWAP1 DIV PUSH1 0xFF AND DUP2 JUMP JUMPDEST PUSH1 0x1 PUSH1 0x20 MSTORE DUP1 PUSH0 MSTORE PUSH1 0x40 PUSH0 KECCAK256 PUSH0 SWAP2 POP SLOAD SWAP1 PUSH2 0x100 EXP SWAP1 DIV PUSH1 0xFF AND DUP2 JUMP JUMPDEST PUSH1 0x8 PUSH1 0x20 MSTORE DUP2 PUSH0 MSTORE PUSH1 0x40 PUSH0 KECCAK256 PUSH1 0x20 MSTORE DUP1 PUSH0 MSTORE PUSH1 0x40 PUSH0 KECCAK256 PUSH0 SWAP2 POP SWAP2 POP SWAP1 SLOAD SWAP1 PUSH2 0x100 EXP SWAP1 DIV PUSH1 0xFF AND DUP2 JUMP JUMPDEST PUSH1 0xF PUSH0 SWAP1 SLOAD SWAP1 PUSH2 0x100 EXP SWAP1 DIV PUSH1 0xFF AND DUP2 JUMP JUMPDEST PUSH1 0xE SLOAD DUP2 JUMP JUMPDEST PUSH1 0x4 SLOAD DUP2 JUMP JUMPDEST PUSH1 0x9 PUSH1 0x20 MSTORE DUP1 PUSH0 MSTORE PUSH1 0x40 PUSH0 KECCAK256 PUSH0 SWAP2 POP SWAP1 POP SLOAD DUP2 JUMP JUMPDEST PUSH1 0x6 SLOAD DUP2 JUMP JUMPDEST PUSH1 0x1 PUSH0 CALLER PUSH20 0xFFFFFFFFFFFFFFFFFFFFFFFFFFFFFFFFFFFFFFFF AND PUSH20 0xFFFFFFFFFFFFFFFFFFFFFFFFFFFFFFFFFFFFFFFF AND DUP2 MSTORE PUSH1 0x20 ADD SWAP1 DUP2 MSTORE PUSH1 0x20 ADD PUSH0 KECCAK256 PUSH0 SWAP1 SLOAD SWAP1 PUSH2 0x100 EXP SWAP1 DIV PUSH1 0xFF AND PUSH2 0x135A JUMPI PUSH1 0x40 MLOAD PUSH32 0x30CD747100000000000000000000000000000000000000000000000000000000 DUP2 MSTORE PUSH1 0x4 ADD PUSH1 0x40 MLOAD DUP1 SWAP2 SUB SWAP1 REVERT JUMPDEST DUP1 PUSH0 PUSH20 0xFFFFFFFFFFFFFFFFFFFFFFFFFFFFFFFFFFFFFFFF AND DUP2 PUSH20 0xFFFFFFFFFFFFFFFFFFFFFFFFFFFFFFFFFFFFFFFF AND SUB PUSH2 0x13C0 JUMPI PUSH1 0x40 MLOAD PUSH32 0xD92E233D00000000000000000000000000000000000000000000000000000000 DUP2 MSTORE PUSH1 0x4 ADD PUSH1 0x40 MLOAD DUP1 SWAP2 SUB SWAP1 REVERT JUMPDEST DUP2 PUSH1 0x1 PUSH0 DUP3 PUSH20 0xFFFFFFFFFFFFFFFFFFFFFFFFFFFFFFFFFFFFFFFF AND PUSH20 0xFFFFFFFFFFFFFFFFFFFFFFFFFFFFFFFFFFFFFFFF AND DUP2 MSTORE PUSH1 0x20 ADD SWAP1 DUP2 MSTORE PUSH1 0x20 ADD PUSH0 KECCAK256 PUSH0 SWAP1 SLOAD SWAP1 PUSH2 0x100 EXP SWAP1 DIV PUSH1 0xFF AND ISZERO PUSH2 0x144B JUMPI PUSH1 0x40 MLOAD PUSH32 0x8C379A000000000000000000000000000000000000000000000000000000000 DUP2 MSTORE PUSH1 0x4 ADD PUSH2 0x1442 SWAP1 PUSH2 0x31F2 JUMP JUMPDEST PUSH1 0x40 MLOAD DUP1 SWAP2 SUB SWAP1 REVERT JUMPDEST PUSH1 0x1 DUP1 PUSH0 DUP6 PUSH20 0xFFFFFFFFFFFFFFFFFFFFFFFFFFFFFFFFFFFFFFFF AND PUSH20 0xFFFFFFFFFFFFFFFFFFFFFFFFFFFFFFFFFFFFFFFF AND DUP2 MSTORE PUSH1 0x20 ADD SWAP1 DUP2 MSTORE PUSH1 0x20 ADD PUSH0 KECCAK256 PUSH0 PUSH2 0x100 EXP DUP2 SLOAD DUP2 PUSH1 0xFF MUL NOT AND SWAP1 DUP4 ISZERO ISZERO MUL OR SWAP1 SSTORE POP PUSH0 DUP4 SWAP1 DUP1 PUSH1 0x1 DUP2 SLOAD ADD DUP1 DUP3 SSTORE DUP1 SWAP2 POP POP PUSH1 0x1 SWAP1 SUB SWAP1 PUSH0 MSTORE PUSH1 0x20 PUSH0 KECCAK256 ADD PUSH0 SWAP1 SWAP2 SWAP1 SWAP2 SWAP1 SWAP2 PUSH2 0x100 EXP DUP2 SLOAD DUP2 PUSH20 0xFFFFFFFFFFFFFFFFFFFFFFFFFFFFFFFFFFFFFFFF MUL NOT AND SWAP1 DUP4 PUSH20 0xFFFFFFFFFFFFFFFFFFFFFFFFFFFFFFFFFFFFFFFF AND MUL OR SWAP1 SSTORE POP PUSH0 DUP1 SLOAD SWAP1 POP PUSH1 0x2 SLOAD GT ISZERO PUSH2 0x1518 JUMPI PUSH0 DUP1 SLOAD SWAP1 POP PUSH1 0x2 DUP2 SWAP1 SSTORE POP JUMPDEST POP POP POP JUMP JUMPDEST PUSH1 0xD PUSH0 SWAP1 SLOAD SWAP1 PUSH2 0x100 EXP SWAP1 DIV PUSH20 0xFFFFFFFFFFFFFFFFFFFFFFFFFFFFFFFFFFFFFFFF AND DUP2 JUMP JUMPDEST PUSH0 PUSH1 0x2 SLOAD PUSH1 0x7 PUSH0 DUP5 DUP2 MSTORE PUSH1 0x20 ADD SWAP1 DUP2 MSTORE PUSH1 0x20 ADD PUSH0 KECCAK256 PUSH1 0x4 ADD SLOAD LT ISZERO SWAP1 POP SWAP2 SWAP1 POP JUMP JUMPDEST PUSH1 0x1 PUSH0 CALLER PUSH20 0xFFFFFFFFFFFFFFFFFFFFFFFFFFFFFFFFFFFFFFFF AND PUSH20 0xFFFFFFFFFFFFFFFFFFFFFFFFFFFFFFFFFFFFFFFF AND DUP2 MSTORE PUSH1 0x20 ADD SWAP1 DUP2 MSTORE PUSH1 0x20 ADD PUSH0 KECCAK256 PUSH0 SWAP1 SLOAD SWAP1 PUSH2 0x100 EXP SWAP1 DIV PUSH1 0xFF AND PUSH2 0x15E4 JUMPI PUSH1 0x40 MLOAD PUSH32 0x30CD747100000000000000000000000000000000000000000000000000000000 DUP2 MSTORE PUSH1 0x4 ADD PUSH1 0x40 MLOAD DUP1 SWAP2 SUB SWAP1 REVERT JUMPDEST PUSH1 0xF PUSH0 SWAP1 SLOAD SWAP1 PUSH2 0x100 EXP SWAP1 DIV PUSH1 0xFF AND ISZERO PUSH2 0x1633 JUMPI PUSH1 0x40 MLOAD PUSH32 0x8C379A000000000000000000000000000000000000000000000000000000000 DUP2 MSTORE PUSH1 0x4 ADD PUSH2 0x162A SWAP1 PUSH2 0x325A JUMP JUMPDEST PUSH1 0x40 MLOAD DUP1 SWAP2 SUB SWAP1 REVERT JUMPDEST PUSH1 0x1 PUSH1 0xF PUSH0 PUSH2 0x100 EXP DUP2 SLOAD DUP2 PUSH1 0xFF MUL NOT AND SWAP1 DUP4 ISZERO ISZERO MUL OR SWAP1 SSTORE POP PUSH3 0x93A80 TIMESTAMP PUSH2 0x165C SWAP2 SWAP1 PUSH2 0x3278 JUMP JUMPDEST PUSH1 0xE DUP2 SWAP1 SSTORE POP CALLER PUSH20 0xFFFFFFFFFFFFFFFFFFFFFFFFFFFFFFFFFFFFFFFF AND PUSH32 0x8A9BDBD6FA6536BD7E02875D089A0604DE2D92780294ABC78536D93FD6C95B7C PUSH1 0xE SLOAD PUSH1 0x40 MLOAD PUSH2 0x16AA SWAP2 SWAP1 PUSH2 0x28A7 JUMP JUMPDEST PUSH1 0x40 MLOAD DUP1 SWAP2 SUB SWAP1 LOG2 JUMP JUMPDEST PUSH1 0xC SLOAD DUP2 JUMP JUMPDEST PUSH0 PUSH1 0x7 PUSH0 DUP4 DUP2 MSTORE PUSH1 0x20 ADD SWAP1 DUP2 MSTORE PUSH1 0x20 ADD PUSH0 KECCAK256 PUSH1 0x4 ADD SLOAD SWAP1 POP SWAP2 SWAP1 POP JUMP JUMPDEST PUSH1 0x1 PUSH0 CALLER PUSH20 0xFFFFFFFFFFFFFFFFFFFFFFFFFFFFFFFFFFFFFFFF AND PUSH20 0xFFFFFFFFFFFFFFFFFFFFFFFFFFFFFFFFFFFFFFFF AND DUP2 MSTORE PUSH1 0x20 ADD SWAP1 DUP2 MSTORE PUSH1 0x20 ADD PUSH0 KECCAK256 PUSH0 SWAP1 SLOAD SWAP1 PUSH2 0x100 EXP SWAP1 DIV PUSH1 0xFF AND PUSH2 0x1757 JUMPI PUSH1 0x40 MLOAD PUSH32 0x30CD747100000000000000000000000000000000000000000000000000000000 DUP2 MSTORE PUSH1 0x4 ADD PUSH1 0x40 MLOAD DUP1 SWAP2 SUB SWAP1 REVERT JUMPDEST DUP1 PUSH1 0xC DUP2 SWAP1 SSTORE POP POP JUMP JUMPDEST PUSH1 0x7 PUSH1 0x20 MSTORE DUP1 PUSH0 MSTORE PUSH1 0x40 PUSH0 KECCAK256 PUSH0 SWAP2 POP SWAP1 POP DUP1 PUSH0 ADD PUSH0 SWAP1 SLOAD SWAP1 PUSH2 0x100 EXP SWAP1 DIV PUSH20 0xFFFFFFFFFFFFFFFFFFFFFFFFFFFFFFFFFFFFFFFF AND SWAP1 DUP1 PUSH1 0x1 ADD SLOAD SWAP1 DUP1 PUSH1 0x2 ADD DUP1 SLOAD PUSH2 0x17AB SWAP1 PUSH2 0x32D8 JUMP JUMPDEST DUP1 PUSH1 0x1F ADD PUSH1 0x20 DUP1 SWAP2 DIV MUL PUSH1 0x20 ADD PUSH1 0x40 MLOAD SWAP1 DUP2 ADD PUSH1 0x40 MSTORE DUP1 SWAP3 SWAP2 SWAP1 DUP2 DUP2 MSTORE PUSH1 0x20 ADD DUP3 DUP1 SLOAD PUSH2 0x17D7 SWAP1 PUSH2 0x32D8 JUMP JUMPDEST DUP1 ISZERO PUSH2 0x1822 JUMPI DUP1 PUSH1 0x1F LT PUSH2 0x17F9 JUMPI PUSH2 0x100 DUP1 DUP4 SLOAD DIV MUL DUP4 MSTORE SWAP2 PUSH1 0x20 ADD SWAP2 PUSH2 0x1822 JUMP JUMPDEST DUP3 ADD SWAP2 SWAP1 PUSH0 MSTORE PUSH1 0x20 PUSH0 KECCAK256 SWAP1 JUMPDEST DUP2 SLOAD DUP2 MSTORE SWAP1 PUSH1 0x1 ADD SWAP1 PUSH1 0x20 ADD DUP1 DUP4 GT PUSH2 0x1805 JUMPI DUP3 SWAP1 SUB PUSH1 0x1F AND DUP3 ADD SWAP2 JUMPDEST POP POP POP POP POP SWAP1 DUP1 PUSH1 0x3 ADD PUSH0 SWAP1 SLOAD SWAP1 PUSH2 0x100 EXP SWAP1 DIV PUSH1 0xFF AND SWAP1 DUP1 PUSH1 0x4 ADD SLOAD SWAP1 POP DUP6 JUMP JUMPDEST PUSH1 0x60 PUSH0 DUP1 SLOAD DUP1 PUSH1 0x20 MUL PUSH1 0x20 ADD PUSH1 0x40 MLOAD SWAP1 DUP2 ADD PUSH1 0x40 MSTORE DUP1 SWAP3 SWAP2 SWAP1 DUP2 DUP2 MSTORE PUSH1 0x20 ADD DUP3 DUP1 SLOAD DUP1 ISZERO PUSH2 0x18C4 JUMPI PUSH1 0x20 MUL DUP3 ADD SWAP2 SWAP1 PUSH0 MSTORE PUSH1 0x20 PUSH0 KECCAK256 SWAP1 JUMPDEST DUP2 PUSH0 SWAP1 SLOAD SWAP1 PUSH2 0x100 EXP SWAP1 DIV PUSH20 0xFFFFFFFFFFFFFFFFFFFFFFFFFFFFFFFFFFFFFFFF AND PUSH20 0xFFFFFFFFFFFFFFFFFFFFFFFFFFFFFFFFFFFFFFFF AND DUP2 MSTORE PUSH1 0x20 ADD SWAP1 PUSH1 0x1 ADD SWAP1 DUP1 DUP4 GT PUSH2 0x187B JUMPI JUMPDEST POP POP POP POP POP SWAP1 POP SWAP1 JUMP JUMPDEST PUSH1 0x60 PUSH0 PUSH1 0x3 SLOAD PUSH8 0xFFFFFFFFFFFFFFFF DUP2 GT ISZERO PUSH2 0x18ED JUMPI PUSH2 0x18EC PUSH2 0x2DAE JUMP JUMPDEST JUMPDEST PUSH1 0x40 MLOAD SWAP1 DUP1 DUP3 MSTORE DUP1 PUSH1 0x20 MUL PUSH1 0x20 ADD DUP3 ADD PUSH1 0x40 MSTORE DUP1 ISZERO PUSH2 0x191B JUMPI DUP2 PUSH1 0x20 ADD PUSH1 0x20 DUP3 MUL DUP1 CALLDATASIZE DUP4 CALLDATACOPY DUP1 DUP3 ADD SWAP2 POP POP SWAP1 POP JUMPDEST POP SWAP1 POP PUSH0 PUSH0 SWAP1 POP PUSH0 PUSH0 SWAP1 POP JUMPDEST PUSH1 0x3 SLOAD DUP2 LT ISZERO PUSH2 0x19E4 JUMPI DUP6 DUP1 ISZERO PUSH2 0x195C JUMPI POP PUSH1 0x7 PUSH0 DUP3 DUP2 MSTORE PUSH1 0x20 ADD SWAP1 DUP2 MSTORE PUSH1 0x20 ADD PUSH0 KECCAK256 PUSH1 0x3 ADD PUSH0 SWAP1 SLOAD SWAP1 PUSH2 0x100 EXP SWAP1 DIV PUSH1 0xFF AND ISZERO JUMPDEST DUP1 PUSH2 0x198D JUMPI POP DUP5 DUP1 ISZERO PUSH2 0x198C JUMPI POP PUSH1 0x7 PUSH0 DUP3 DUP2 MSTORE PUSH1 0x20 ADD SWAP1 DUP2 MSTORE PUSH1 0x20 ADD PUSH0 KECCAK256 PUSH1 0x3 ADD PUSH0 SWAP1 SLOAD SWAP1 PUSH2 0x100 EXP SWAP1 DIV PUSH1 0xFF AND JUMPDEST JUMPDEST ISZERO PUSH2 0x19D7 JUMPI DUP1 DUP9 GT ISZERO DUP1 ISZERO PUSH2 0x19A2 JUMPI POP DUP7 DUP2 GT ISZERO JUMPDEST ISZERO PUSH2 0x19D6 JUMPI DUP1 DUP4 DUP4 DUP2 MLOAD DUP2 LT PUSH2 0x19BB JUMPI PUSH2 0x19BA PUSH2 0x3016 JUMP JUMPDEST JUMPDEST PUSH1 0x20 MUL PUSH1 0x20 ADD ADD DUP2 DUP2 MSTORE POP POP DUP2 DUP1 PUSH2 0x19D2 SWAP1 PUSH2 0x3308 JUMP JUMPDEST SWAP3 POP POP JUMPDEST JUMPDEST DUP1 DUP1 PUSH1 0x1 ADD SWAP2 POP POP PUSH2 0x1927 JUMP JUMPDEST POP PUSH0 DUP2 PUSH8 0xFFFFFFFFFFFFFFFF DUP2 GT ISZERO PUSH2 0x1A00 JUMPI PUSH2 0x19FF PUSH2 0x2DAE JUMP JUMPDEST JUMPDEST PUSH1 0x40 MLOAD SWAP1 DUP1 DUP3 MSTORE DUP1 PUSH1 0x20 MUL PUSH1 0x20 ADD DUP3 ADD PUSH1 0x40 MSTORE DUP1 ISZERO PUSH2 0x1A2E JUMPI DUP2 PUSH1 0x20 ADD PUSH1 0x20 DUP3 MUL DUP1 CALLDATASIZE DUP4 CALLDATACOPY DUP1 DUP3 ADD SWAP2 POP POP SWAP1 POP JUMPDEST POP SWAP1 POP PUSH0 PUSH0 SWAP1 POP JUMPDEST DUP3 DUP2 LT ISZERO PUSH2 0x1A85 JUMPI DUP4 DUP2 DUP2 MLOAD DUP2 LT PUSH2 0x1A51 JUMPI PUSH2 0x1A50 PUSH2 0x3016 JUMP JUMPDEST JUMPDEST PUSH1 0x20 MUL PUSH1 0x20 ADD ADD MLOAD DUP3 DUP3 DUP2 MLOAD DUP2 LT PUSH2 0x1A6C JUMPI PUSH2 0x1A6B PUSH2 0x3016 JUMP JUMPDEST JUMPDEST PUSH1 0x20 MUL PUSH1 0x20 ADD ADD DUP2 DUP2 MSTORE POP POP DUP1 DUP1 PUSH1 0x1 ADD SWAP2 POP POP PUSH2 0x1A36 JUMP JUMPDEST POP DUP1 SWAP4 POP POP POP POP SWAP5 SWAP4 POP POP POP POP JUMP JUMPDEST PUSH1 0x1 PUSH0 CALLER PUSH20 0xFFFFFFFFFFFFFFFFFFFFFFFFFFFFFFFFFFFFFFFF AND PUSH20 0xFFFFFFFFFFFFFFFFFFFFFFFFFFFFFFFFFFFFFFFF AND DUP2 MSTORE PUSH1 0x20 ADD SWAP1 DUP2 MSTORE PUSH1 0x20 ADD PUSH0 KECCAK256 PUSH0 SWAP1 SLOAD SWAP1 PUSH2 0x100 EXP SWAP1 DIV PUSH1 0xFF AND PUSH2 0x1B14 JUMPI PUSH1 0x40 MLOAD PUSH32 0x30CD747100000000000000000000000000000000000000000000000000000000 DUP2 MSTORE PUSH1 0x4 ADD PUSH1 0x40 MLOAD DUP1 SWAP2 SUB SWAP1 REVERT JUMPDEST DUP1 PUSH1 0x4 DUP2 SWAP1 SSTORE POP POP JUMP JUMPDEST PUSH1 0x60 PUSH0 PUSH0 DUP1 SLOAD SWAP1 POP PUSH8 0xFFFFFFFFFFFFFFFF DUP2 GT ISZERO PUSH2 0x1B3F JUMPI PUSH2 0x1B3E PUSH2 0x2DAE JUMP JUMPDEST JUMPDEST PUSH1 0x40 MLOAD SWAP1 DUP1 DUP3 MSTORE DUP1 PUSH1 0x20 MUL PUSH1 0x20 ADD DUP3 ADD PUSH1 0x40 MSTORE DUP1 ISZERO PUSH2 0x1B6D JUMPI DUP2 PUSH1 0x20 ADD PUSH1 0x20 DUP3 MUL DUP1 CALLDATASIZE DUP4 CALLDATACOPY DUP1 DUP3 ADD SWAP2 POP POP SWAP1 POP JUMPDEST POP SWAP1 POP PUSH0 PUSH0 SWAP1 POP PUSH0 PUSH0 SWAP1 POP JUMPDEST PUSH0 DUP1 SLOAD SWAP1 POP DUP2 LT ISZERO PUSH2 0x1CC1 JUMPI PUSH1 0x8 PUSH0 DUP7 DUP2 MSTORE PUSH1 0x20 ADD SWAP1 DUP2 MSTORE PUSH1 0x20 ADD PUSH0 KECCAK256 PUSH0 PUSH0 DUP4 DUP2 SLOAD DUP2 LT PUSH2 0x1BAA JUMPI PUSH2 0x1BA9 PUSH2 0x3016 JUMP JUMPDEST JUMPDEST SWAP1 PUSH0 MSTORE PUSH1 0x20 PUSH0 KECCAK256 ADD PUSH0 SWAP1 SLOAD SWAP1 PUSH2 0x100 EXP SWAP1 DIV PUSH20 0xFFFFFFFFFFFFFFFFFFFFFFFFFFFFFFFFFFFFFFFF AND PUSH20 0xFFFFFFFFFFFFFFFFFFFFFFFFFFFFFFFFFFFFFFFF AND PUSH20 0xFFFFFFFFFFFFFFFFFFFFFFFFFFFFFFFFFFFFFFFF AND DUP2 MSTORE PUSH1 0x20 ADD SWAP1 DUP2 MSTORE PUSH1 0x20 ADD PUSH0 KECCAK256 PUSH0 SWAP1 SLOAD SWAP1 PUSH2 0x100 EXP SWAP1 DIV PUSH1 0xFF AND ISZERO PUSH2 0x1CB4 JUMPI PUSH0 DUP2 DUP2 SLOAD DUP2 LT PUSH2 0x1C30 JUMPI PUSH2 0x1C2F PUSH2 0x3016 JUMP JUMPDEST JUMPDEST SWAP1 PUSH0 MSTORE PUSH1 0x20 PUSH0 KECCAK256 ADD PUSH0 SWAP1 SLOAD SWAP1 PUSH2 0x100 EXP SWAP1 DIV PUSH20 0xFFFFFFFFFFFFFFFFFFFFFFFFFFFFFFFFFFFFFFFF AND DUP4 DUP4 DUP2 MLOAD DUP2 LT PUSH2 0x1C6B JUMPI PUSH2 0x1C6A PUSH2 0x3016 JUMP JUMPDEST JUMPDEST PUSH1 0x20 MUL PUSH1 0x20 ADD ADD SWAP1 PUSH20 0xFFFFFFFFFFFFFFFFFFFFFFFFFFFFFFFFFFFFFFFF AND SWAP1 DUP2 PUSH20 0xFFFFFFFFFFFFFFFFFFFFFFFFFFFFFFFFFFFFFFFF AND DUP2 MSTORE POP POP DUP2 DUP1 PUSH2 0x1CB0 SWAP1 PUSH2 0x3308 JUMP JUMPDEST SWAP3 POP POP JUMPDEST DUP1 DUP1 PUSH1 0x1 ADD SWAP2 POP POP PUSH2 0x1B79 JUMP JUMPDEST POP PUSH0 DUP2 PUSH8 0xFFFFFFFFFFFFFFFF DUP2 GT ISZERO PUSH2 0x1CDD JUMPI PUSH2 0x1CDC PUSH2 0x2DAE JUMP JUMPDEST JUMPDEST PUSH1 0x40 MLOAD SWAP1 DUP1 DUP3 MSTORE DUP1 PUSH1 0x20 MUL PUSH1 0x20 ADD DUP3 ADD PUSH1 0x40 MSTORE DUP1 ISZERO PUSH2 0x1D0B JUMPI DUP2 PUSH1 0x20 ADD PUSH1 0x20 DUP3 MUL DUP1 CALLDATASIZE DUP4 CALLDATACOPY DUP1 DUP3 ADD SWAP2 POP POP SWAP1 POP JUMPDEST POP SWAP1 POP PUSH0 PUSH0 SWAP1 POP JUMPDEST DUP3 DUP2 LT ISZERO PUSH2 0x1D90 JUMPI DUP4 DUP2 DUP2 MLOAD DUP2 LT PUSH2 0x1D2E JUMPI PUSH2 0x1D2D PUSH2 0x3016 JUMP JUMPDEST JUMPDEST PUSH1 0x20 MUL PUSH1 0x20 ADD ADD MLOAD DUP3 DUP3 DUP2 MLOAD DUP2 LT PUSH2 0x1D49 JUMPI PUSH2 0x1D48 PUSH2 0x3016 JUMP JUMPDEST JUMPDEST PUSH1 0x20 MUL PUSH1 0x20 ADD ADD SWAP1 PUSH20 0xFFFFFFFFFFFFFFFFFFFFFFFFFFFFFFFFFFFFFFFF AND SWAP1 DUP2 PUSH20 0xFFFFFFFFFFFFFFFFFFFFFFFFFFFFFFFFFFFFFFFF AND DUP2 MSTORE POP POP DUP1 DUP1 PUSH1 0x1 ADD SWAP2 POP POP PUSH2 0x1D13 JUMP JUMPDEST POP DUP1 SWAP4 POP POP POP POP SWAP2 SWAP1 POP JUMP JUMPDEST PUSH1 0x3 SLOAD DUP2 JUMP JUMPDEST PUSH1 0x1 PUSH0 CALLER PUSH20 0xFFFFFFFFFFFFFFFFFFFFFFFFFFFFFFFFFFFFFFFF AND PUSH20 0xFFFFFFFFFFFFFFFFFFFFFFFFFFFFFFFFFFFFFFFF AND DUP2 MSTORE PUSH1 0x20 ADD SWAP1 DUP2 MSTORE PUSH1 0x20 ADD PUSH0 KECCAK256 PUSH0 SWAP1 SLOAD SWAP1 PUSH2 0x100 EXP SWAP1 DIV PUSH1 0xFF AND PUSH2 0x1E22 JUMPI PUSH1 0x40 MLOAD PUSH32 0x30CD747100000000000000000000000000000000000000000000000000000000 DUP2 MSTORE PUSH1 0x4 ADD PUSH1 0x40 MLOAD DUP1 SWAP2 SUB SWAP1 REVERT JUMPDEST PUSH0 DUP2 GT DUP1 ISZERO PUSH2 0x1E35 JUMPI POP PUSH0 DUP1 SLOAD SWAP1 POP DUP2 GT ISZERO JUMPDEST PUSH2 0x1E74 JUMPI PUSH1 0x40 MLOAD PUSH32 0x8C379A000000000000000000000000000000000000000000000000000000000 DUP2 MSTORE PUSH1 0x4 ADD PUSH2 0x1E6B SWAP1 PUSH2 0x3399 JUMP JUMPDEST PUSH1 0x40 MLOAD DUP1 SWAP2 SUB SWAP1 REVERT JUMPDEST DUP1 PUSH1 0x2 DUP2 SWAP1 SSTORE POP POP JUMP JUMPDEST PUSH1 0x1 PUSH0 CALLER PUSH20 0xFFFFFFFFFFFFFFFFFFFFFFFFFFFFFFFFFFFFFFFF AND PUSH20 0xFFFFFFFFFFFFFFFFFFFFFFFFFFFFFFFFFFFFFFFF AND DUP2 MSTORE PUSH1 0x20 ADD SWAP1 DUP2 MSTORE PUSH1 0x20 ADD PUSH0 KECCAK256 PUSH0 SWAP1 SLOAD SWAP1 PUSH2 0x100 EXP SWAP1 DIV PUSH1 0xFF AND PUSH2 0x1EFE JUMPI PUSH1 0x40 MLOAD PUSH32 0x30CD747100000000000000000000000000000000000000000000000000000000 DUP2 MSTORE PUSH1 0x4 ADD PUSH1 0x40 MLOAD DUP1 SWAP2 SUB SWAP1 REVERT JUMPDEST DUP1 PUSH0 PUSH20 0xFFFFFFFFFFFFFFFFFFFFFFFFFFFFFFFFFFFFFFFF AND PUSH1 0x7 PUSH0 DUP4 DUP2 MSTORE PUSH1 0x20 ADD SWAP1 DUP2 MSTORE PUSH1 0x20 ADD PUSH0 KECCAK256 PUSH0 ADD PUSH0 SWAP1 SLOAD SWAP1 PUSH2 0x100 EXP SWAP1 DIV PUSH20 0xFFFFFFFFFFFFFFFFFFFFFFFFFFFFFFFFFFFFFFFF AND PUSH20 0xFFFFFFFFFFFFFFFFFFFFFFFFFFFFFFFFFFFFFFFF AND SUB PUSH2 0x1F9F JUMPI PUSH1 0x40 MLOAD PUSH32 0x8C379A000000000000000000000000000000000000000000000000000000000 DUP2 MSTORE PUSH1 0x4 ADD PUSH2 0x1F96 SWAP1 PUSH2 0x318A JUMP JUMPDEST PUSH1 0x40 MLOAD DUP1 SWAP2 SUB SWAP1 REVERT JUMPDEST DUP2 CALLER PUSH1 0x8 PUSH0 DUP4 DUP2 MSTORE PUSH1 0x20 ADD SWAP1 DUP2 MSTORE PUSH1 0x20 ADD PUSH0 KECCAK256 PUSH0 DUP3 PUSH20 0xFFFFFFFFFFFFFFFFFFFFFFFFFFFFFFFFFFFFFFFF AND PUSH20 0xFFFFFFFFFFFFFFFFFFFFFFFFFFFFFFFFFFFFFFFF AND DUP2 MSTORE PUSH1 0x20 ADD SWAP1 DUP2 MSTORE PUSH1 0x20 ADD PUSH0 KECCAK256 PUSH0 SWAP1 SLOAD SWAP1 PUSH2 0x100 EXP SWAP1 DIV PUSH1 0xFF AND ISZERO PUSH2 0x2031 JUMPI PUSH1 0x40 MLOAD PUSH32 0x5F8A9C0B00000000000000000000000000000000000000000000000000000000 DUP2 MSTORE PUSH1 0x4 ADD PUSH1 0x40 MLOAD DUP1 SWAP2 SUB SWAP1 REVERT JUMPDEST DUP4 PUSH1 0x7 PUSH0 DUP3 DUP2 MSTORE PUSH1 0x20 ADD SWAP1 DUP2 MSTORE PUSH1 0x20 ADD PUSH0 KECCAK256 PUSH1 0x3 ADD PUSH0 SWAP1 SLOAD SWAP1 PUSH2 0x100 EXP SWAP1 DIV PUSH1 0xFF AND ISZERO PUSH2 0x208A JUMPI PUSH1 0x40 MLOAD PUSH32 0xDB5E659B00000000000000000000000000000000000000000000000000000000 DUP2 MSTORE PUSH1 0x4 ADD PUSH1 0x40 MLOAD DUP1 SWAP2 SUB SWAP1 REVERT JUMPDEST PUSH1 0x1 PUSH1 0x8 PUSH0 DUP8 DUP2 MSTORE PUSH1 0x20 ADD SWAP1 DUP2 MSTORE PUSH1 0x20 ADD PUSH0 KECCAK256 PUSH0 CALLER PUSH20 0xFFFFFFFFFFFFFFFFFFFFFFFFFFFFFFFFFFFFFFFF AND PUSH20 0xFFFFFFFFFFFFFFFFFFFFFFFFFFFFFFFFFFFFFFFF AND DUP2 MSTORE PUSH1 0x20 ADD SWAP1 DUP2 MSTORE PUSH1 0x20 ADD PUSH0 KECCAK256 PUSH0 PUSH2 0x100 EXP DUP2 SLOAD DUP2 PUSH1 0xFF MUL NOT AND SWAP1 DUP4 ISZERO ISZERO MUL OR SWAP1 SSTORE POP PUSH1 0x1 PUSH1 0x7 PUSH0 DUP8 DUP2 MSTORE PUSH1 0x20 ADD SWAP1 DUP2 MSTORE PUSH1 0x20 ADD PUSH0 KECCAK256 PUSH1 0x4 ADD PUSH0 DUP3 DUP3 SLOAD PUSH2 0x2112 SWAP2 SWAP1 PUSH2 0x3278 JUMP JUMPDEST SWAP3 POP POP DUP2 SWAP1 SSTORE POP DUP5 CALLER PUSH20 0xFFFFFFFFFFFFFFFFFFFFFFFFFFFFFFFFFFFFFFFF AND PUSH32 0x4A504A94899432A9846E1AA406DCEB1BCFD538BB839071D49D1E5E23F5BE30EF PUSH1 0x40 MLOAD PUSH1 0x40 MLOAD DUP1 SWAP2 SUB SWAP1 LOG3 POP POP POP POP POP JUMP JUMPDEST PUSH0 PUSH1 0x1 PUSH0 CALLER PUSH20 0xFFFFFFFFFFFFFFFFFFFFFFFFFFFFFFFFFFFFFFFF AND PUSH20 0xFFFFFFFFFFFFFFFFFFFFFFFFFFFFFFFFFFFFFFFF AND DUP2 MSTORE PUSH1 0x20 ADD SWAP1 DUP2 MSTORE PUSH1 0x20 ADD PUSH0 KECCAK256 PUSH0 SWAP1 SLOAD SWAP1 PUSH2 0x100 EXP SWAP1 DIV PUSH1 0xFF AND PUSH2 0x21E5 JUMPI PUSH1 0x40 MLOAD PUSH32 0x30CD747100000000000000000000000000000000000000000000000000000000 DUP2 MSTORE PUSH1 0x4 ADD PUSH1 0x40 MLOAD DUP1 SWAP2 SUB SWAP1 REVERT JUMPDEST DUP4 PUSH0 PUSH20 0xFFFFFFFFFFFFFFFFFFFFFFFFFFFFFFFFFFFFFFFF AND DUP2 PUSH20 0xFFFFFFFFFFFFFFFFFFFFFFFFFFFFFFFFFFFFFFFF AND SUB PUSH2 0x224B JUMPI PUSH1 0x40 MLOAD PUSH32 0xD92E233D00000000000000000000000000000000000000000000000000000000 DUP2 MSTORE PUSH1 0x4 ADD PUSH1 0x40 MLOAD DUP1 SWAP2 SUB SWAP1 REVERT JUMPDEST PUSH0 PUSH1 0x3 SLOAD SWAP1 POP PUSH1 0x40 MLOAD DUP1 PUSH1 0xA0 ADD PUSH1 0x40 MSTORE DUP1 DUP8 PUSH20 0xFFFFFFFFFFFFFFFFFFFFFFFFFFFFFFFFFFFFFFFF AND DUP2 MSTORE PUSH1 0x20 ADD DUP7 DUP2 MSTORE PUSH1 0x20 ADD DUP6 DUP2 MSTORE PUSH1 0x20 ADD PUSH0 ISZERO ISZERO DUP2 MSTORE PUSH1 0x20 ADD PUSH0 DUP2 MSTORE POP PUSH1 0x7 PUSH0 DUP4 DUP2 MSTORE PUSH1 0x20 ADD SWAP1 DUP2 MSTORE PUSH1 0x20 ADD PUSH0 KECCAK256 PUSH0 DUP3 ADD MLOAD DUP2 PUSH0 ADD PUSH0 PUSH2 0x100 EXP DUP2 SLOAD DUP2 PUSH20 0xFFFFFFFFFFFFFFFFFFFFFFFFFFFFFFFFFFFFFFFF MUL NOT AND SWAP1 DUP4 PUSH20 0xFFFFFFFFFFFFFFFFFFFFFFFFFFFFFFFFFFFFFFFF AND MUL OR SWAP1 SSTORE POP PUSH1 0x20 DUP3 ADD MLOAD DUP2 PUSH1 0x1 ADD SSTORE PUSH1 0x40 DUP3 ADD MLOAD DUP2 PUSH1 0x2 ADD SWAP1 DUP2 PUSH2 0x2304 SWAP2 SWAP1 PUSH2 0x3557 JUMP JUMPDEST POP PUSH1 0x60 DUP3 ADD MLOAD DUP2 PUSH1 0x3 ADD PUSH0 PUSH2 0x100 EXP DUP2 SLOAD DUP2 PUSH1 0xFF MUL NOT AND SWAP1 DUP4 ISZERO ISZERO MUL OR SWAP1 SSTORE POP PUSH1 0x80 DUP3 ADD MLOAD DUP2 PUSH1 0x4 ADD SSTORE SWAP1 POP POP PUSH1 0x1 PUSH1 0x3 PUSH0 DUP3 DUP3 SLOAD PUSH2 0x2343 SWAP2 SWAP1 PUSH2 0x3278 JUMP JUMPDEST SWAP3 POP POP DUP2 SWAP1 SSTORE POP PUSH1 0xC SLOAD TIMESTAMP PUSH2 0x2358 SWAP2 SWAP1 PUSH2 0x3278 JUMP JUMPDEST PUSH1 0xB PUSH0 DUP4 DUP2 MSTORE PUSH1 0x20 ADD SWAP1 DUP2 MSTORE PUSH1 0x20 ADD PUSH0 KECCAK256 DUP2 SWAP1 SSTORE POP DUP1 PUSH32 0xC0BA8FE4B176C1714197D43B9CC6BCF797A4A7461C5FE8D0EF6E184AE7601E51 PUSH1 0x40 MLOAD PUSH1 0x40 MLOAD DUP1 SWAP2 SUB SWAP1 LOG2 PUSH2 0x23A3 DUP2 PUSH2 0x1E7E JUMP JUMPDEST DUP1 SWAP3 POP POP POP SWAP4 SWAP3 POP POP POP JUMP JUMPDEST PUSH1 0xB PUSH1 0x20 MSTORE DUP1 PUSH0 MSTORE PUSH1 0x40 PUSH0 KECCAK256 PUSH0 SWAP2 POP SWAP1 POP SLOAD DUP2 JUMP JUMPDEST PUSH1 0x2 SLOAD DUP2 JUMP JUMPDEST PUSH1 0x1 PUSH0 CALLER PUSH20 0xFFFFFFFFFFFFFFFFFFFFFFFFFFFFFFFFFFFFFFFF AND PUSH20 0xFFFFFFFFFFFFFFFFFFFFFFFFFFFFFFFFFFFFFFFF AND DUP2 MSTORE PUSH1 0x20 ADD SWAP1 DUP2 MSTORE PUSH1 0x20 ADD PUSH0 KECCAK256 PUSH0 SWAP1 SLOAD SWAP1 PUSH2 0x100 EXP SWAP1 DIV PUSH1 0xFF AND PUSH2 0x244A JUMPI PUSH1 0x40 MLOAD PUSH32 0x30CD747100000000000000000000000000000000000000000000000000000000 DUP2 MSTORE PUSH1 0x4 ADD PUSH1 0x40 MLOAD DUP1 SWAP2 SUB SWAP1 REVERT JUMPDEST DUP1 PUSH0 PUSH20 0xFFFFFFFFFFFFFFFFFFFFFFFFFFFFFFFFFFFFFFFF AND PUSH1 0x7 PUSH0 DUP4 DUP2 MSTORE PUSH1 0x20 ADD SWAP1 DUP2 MSTORE PUSH1 0x20 ADD PUSH0 KECCAK256 PUSH0 ADD PUSH0 SWAP1 SLOAD SWAP1 PUSH2 0x100 EXP SWAP1 DIV PUSH20 0xFFFFFFFFFFFFFFFFFFFFFFFFFFFFFFFFFFFFFFFF AND PUSH20 0xFFFFFFFFFFFFFFFFFFFFFFFFFFFFFFFFFFFFFFFF AND SUB PUSH2 0x24EB JUMPI PUSH1 0x40 MLOAD PUSH32 0x8C379A000000000000000000000000000000000000000000000000000000000 DUP2 MSTORE PUSH1 0x4 ADD PUSH2 0x24E2 SWAP1 PUSH2 0x318A JUMP JUMPDEST PUSH1 0x40 MLOAD DUP1 SWAP2 SUB SWAP1 REVERT JUMPDEST DUP2 PUSH1 0x7 PUSH0 DUP3 DUP2 MSTORE PUSH1 0x20 ADD SWAP1 DUP2 MSTORE PUSH1 0x20 ADD PUSH0 KECCAK256 PUSH1 0x3 ADD PUSH0 SWAP1 SLOAD SWAP1 PUSH2 0x100 EXP SWAP1 DIV PUSH1 0xFF AND ISZERO PUSH2 0x2544 JUMPI PUSH1 0x40 MLOAD PUSH32 0xDB5E659B00000000000000000000000000000000000000000000000000000000 DUP2 MSTORE PUSH1 0x4 ADD PUSH1 0x40 MLOAD DUP1 SWAP2 SUB SWAP1 REVERT JUMPDEST PUSH0 PUSH1 0x7 PUSH0 DUP6 DUP2 MSTORE PUSH1 0x20 ADD SWAP1 DUP2 MSTORE PUSH1 0x20 ADD PUSH0 KECCAK256 SWAP1 POP PUSH1 0x2 SLOAD DUP2 PUSH1 0x4 ADD SLOAD LT ISZERO PUSH2 0x2598 JUMPI PUSH1 0x40 MLOAD PUSH32 0xE16DB4B300000000000000000000000000000000000000000000000000000000 DUP2 MSTORE PUSH1 0x4 ADD PUSH1 0x40 MLOAD DUP1 SWAP2 SUB SWAP1 REVERT JUMPDEST PUSH1 0xB PUSH0 DUP6 DUP2 MSTORE PUSH1 0x20 ADD SWAP1 DUP2 MSTORE PUSH1 0x20 ADD PUSH0 KECCAK256 SLOAD TIMESTAMP LT ISZERO PUSH2 0x25E3 JUMPI PUSH1 0x40 MLOAD PUSH32 0xC53AF06600000000000000000000000000000000000000000000000000000000 DUP2 MSTORE PUSH1 0x4 ADD PUSH1 0x40 MLOAD DUP1 SWAP2 SUB SWAP1 REVERT JUMPDEST PUSH2 0x25EB PUSH2 0x27AB JUMP JUMPDEST PUSH1 0x4 SLOAD DUP2 PUSH1 0x1 ADD SLOAD PUSH1 0x5 SLOAD PUSH2 0x2600 SWAP2 SWAP1 PUSH2 0x3278 JUMP JUMPDEST GT ISZERO PUSH2 0x2638 JUMPI PUSH1 0x40 MLOAD PUSH32 0x194BD31400000000000000000000000000000000000000000000000000000000 DUP2 MSTORE PUSH1 0x4 ADD PUSH1 0x40 MLOAD DUP1 SWAP2 SUB SWAP1 REVERT JUMPDEST PUSH1 0x1 DUP2 PUSH1 0x3 ADD PUSH0 PUSH2 0x100 EXP DUP2 SLOAD DUP2 PUSH1 0xFF MUL NOT AND SWAP1 DUP4 ISZERO ISZERO MUL OR SWAP1 SSTORE POP DUP1 PUSH1 0x1 ADD SLOAD PUSH1 0x5 PUSH0 DUP3 DUP3 SLOAD PUSH2 0x2669 SWAP2 SWAP1 PUSH2 0x3278 JUMP JUMPDEST SWAP3 POP POP DUP2 SWAP1 SSTORE POP PUSH0 DUP2 PUSH0 ADD PUSH0 SWAP1 SLOAD SWAP1 PUSH2 0x100 EXP SWAP1 DIV PUSH20 0xFFFFFFFFFFFFFFFFFFFFFFFFFFFFFFFFFFFFFFFF AND PUSH20 0xFFFFFFFFFFFFFFFFFFFFFFFFFFFFFFFFFFFFFFFF AND DUP3 PUSH1 0x1 ADD SLOAD DUP4 PUSH1 0x2 ADD PUSH1 0x40 MLOAD PUSH2 0x26C0 SWAP2 SWAP1 PUSH2 0x36B0 JUMP JUMPDEST PUSH0 PUSH1 0x40 MLOAD DUP1 DUP4 SUB DUP2 DUP6 DUP8 GAS CALL SWAP3 POP POP POP RETURNDATASIZE DUP1 PUSH0 DUP2 EQ PUSH2 0x26FA JUMPI PUSH1 0x40 MLOAD SWAP2 POP PUSH1 0x1F NOT PUSH1 0x3F RETURNDATASIZE ADD AND DUP3 ADD PUSH1 0x40 MSTORE RETURNDATASIZE DUP3 MSTORE RETURNDATASIZE PUSH0 PUSH1 0x20 DUP5 ADD RETURNDATACOPY PUSH2 0x26FF JUMP JUMPDEST PUSH1 0x60 SWAP2 POP JUMPDEST POP POP SWAP1 POP DUP1 PUSH2 0x2771 JUMPI PUSH0 DUP3 PUSH1 0x3 ADD PUSH0 PUSH2 0x100 EXP DUP2 SLOAD DUP2 PUSH1 0xFF MUL NOT AND SWAP1 DUP4 ISZERO ISZERO MUL OR SWAP1 SSTORE POP DUP2 PUSH1 0x1 ADD SLOAD PUSH1 0x5 PUSH0 DUP3 DUP3 SLOAD PUSH2 0x2738 SWAP2 SWAP1 PUSH2 0x2FE3 JUMP JUMPDEST SWAP3 POP POP DUP2 SWAP1 SSTORE POP PUSH1 0x40 MLOAD PUSH32 0xBF961A2800000000000000000000000000000000000000000000000000000000 DUP2 MSTORE PUSH1 0x4 ADD PUSH1 0x40 MLOAD DUP1 SWAP2 SUB SWAP1 REVERT JUMPDEST DUP5 PUSH32 0x33E13ECB54C3076D8E8BB8C2881800A4D972B792045FFAE98FDF46DF365FED75 PUSH1 0x40 MLOAD PUSH1 0x40 MLOAD DUP1 SWAP2 SUB SWAP1 LOG2 POP POP POP POP POP JUMP JUMPDEST PUSH1 0x5 SLOAD DUP2 JUMP JUMPDEST PUSH3 0x15180 PUSH1 0x6 SLOAD PUSH2 0x27BC SWAP2 SWAP1 PUSH2 0x3278 JUMP JUMPDEST TIMESTAMP GT ISZERO PUSH2 0x27EB JUMPI PUSH0 PUSH1 0x5 DUP2 SWAP1 SSTORE POP PUSH3 0x15180 TIMESTAMP PUSH2 0x27D9 SWAP2 SWAP1 PUSH2 0x36F3 JUMP JUMPDEST TIMESTAMP PUSH2 0x27E4 SWAP2 SWAP1 PUSH2 0x2FE3 JUMP JUMPDEST PUSH1 0x6 DUP2 SWAP1 SSTORE POP JUMPDEST JUMP JUMPDEST DUP3 DUP1 SLOAD DUP3 DUP3 SSTORE SWAP1 PUSH0 MSTORE PUSH1 0x20 PUSH0 KECCAK256 SWAP1 DUP2 ADD SWAP3 DUP3 ISZERO PUSH2 0x2863 JUMPI SWAP2 PUSH1 0x20 MUL DUP3 ADD JUMPDEST DUP3 DUP2 GT ISZERO PUSH2 0x2862 JUMPI DUP3 MLOAD DUP3 PUSH0 PUSH2 0x100 EXP DUP2 SLOAD DUP2 PUSH20 0xFFFFFFFFFFFFFFFFFFFFFFFFFFFFFFFFFFFFFFFF MUL NOT AND SWAP1 DUP4 PUSH20 0xFFFFFFFFFFFFFFFFFFFFFFFFFFFFFFFFFFFFFFFF AND MUL OR SWAP1 SSTORE POP SWAP2 PUSH1 0x20 ADD SWAP2 SWAP1 PUSH1 0x1 ADD SWAP1 PUSH2 0x280B JUMP JUMPDEST JUMPDEST POP SWAP1 POP PUSH2 0x2870 SWAP2 SWAP1 PUSH2 0x2874 JUMP JUMPDEST POP SWAP1 JUMP JUMPDEST JUMPDEST DUP1 DUP3 GT ISZERO PUSH2 0x288B JUMPI PUSH0 DUP2 PUSH0 SWAP1 SSTORE POP PUSH1 0x1 ADD PUSH2 0x2875 JUMP JUMPDEST POP SWAP1 JUMP JUMPDEST PUSH0 DUP2 SWAP1 POP SWAP2 SWAP1 POP JUMP JUMPDEST PUSH2 0x28A1 DUP2 PUSH2 0x288F JUMP JUMPDEST DUP3 MSTORE POP POP JUMP JUMPDEST PUSH0 PUSH1 0x20 DUP3 ADD SWAP1 POP PUSH2 0x28BA PUSH0 DUP4 ADD DUP5 PUSH2 0x2898 JUMP JUMPDEST SWAP3 SWAP2 POP POP JUMP JUMPDEST PUSH0 PUSH1 0x40 MLOAD SWAP1 POP SWAP1 JUMP JUMPDEST PUSH0 PUSH0 REVERT JUMPDEST PUSH0 PUSH0 REVERT JUMPDEST PUSH2 0x28DA DUP2 PUSH2 0x288F JUMP JUMPDEST DUP2 EQ PUSH2 0x28E4 JUMPI PUSH0 PUSH0 REVERT JUMPDEST POP JUMP JUMPDEST PUSH0 DUP2 CALLDATALOAD SWAP1 POP PUSH2 0x28F5 DUP2 PUSH2 0x28D1 JUMP JUMPDEST SWAP3 SWAP2 POP POP JUMP JUMPDEST PUSH0 PUSH1 0x20 DUP3 DUP5 SUB SLT ISZERO PUSH2 0x2910 JUMPI PUSH2 0x290F PUSH2 0x28C9 JUMP JUMPDEST JUMPDEST PUSH0 PUSH2 0x291D DUP5 DUP3 DUP6 ADD PUSH2 0x28E7 JUMP JUMPDEST SWAP2 POP POP SWAP3 SWAP2 POP POP JUMP JUMPDEST PUSH0 PUSH20 0xFFFFFFFFFFFFFFFFFFFFFFFFFFFFFFFFFFFFFFFF DUP3 AND SWAP1 POP SWAP2 SWAP1 POP JUMP JUMPDEST PUSH0 PUSH2 0x294F DUP3 PUSH2 0x2926 JUMP JUMPDEST SWAP1 POP SWAP2 SWAP1 POP JUMP JUMPDEST PUSH2 0x295F DUP2 PUSH2 0x2945 JUMP JUMPDEST DUP3 MSTORE POP POP JUMP JUMPDEST PUSH0 PUSH1 0x20 DUP3 ADD SWAP1 POP PUSH2 0x2978 PUSH0 DUP4 ADD DUP5 PUSH2 0x2956 JUMP JUMPDEST SWAP3 SWAP2 POP POP JUMP JUMPDEST PUSH2 0x2987 DUP2 PUSH2 0x2945 JUMP JUMPDEST DUP2 EQ PUSH2 0x2991 JUMPI PUSH0 PUSH0 REVERT JUMPDEST POP JUMP JUMPDEST PUSH0 DUP2 CALLDATALOAD SWAP1 POP PUSH2 0x29A2 DUP2 PUSH2 0x297E JUMP JUMPDEST SWAP3 SWAP2 POP POP JUMP JUMPDEST PUSH0 PUSH1 0x20 DUP3 DUP5 SUB SLT ISZERO PUSH2 0x29BD JUMPI PUSH2 0x29BC PUSH2 0x28C9 JUMP JUMPDEST JUMPDEST PUSH0 PUSH2 0x29CA DUP5 DUP3 DUP6 ADD PUSH2 0x2994 JUMP JUMPDEST SWAP2 POP POP SWAP3 SWAP2 POP POP JUMP JUMPDEST PUSH0 DUP2 SWAP1 POP SWAP2 SWAP1 POP JUMP JUMPDEST PUSH2 0x29E5 DUP2 PUSH2 0x29D3 JUMP JUMPDEST DUP2 EQ PUSH2 0x29EF JUMPI PUSH0 PUSH0 REVERT JUMPDEST POP JUMP JUMPDEST PUSH0 DUP2 CALLDATALOAD SWAP1 POP PUSH2 0x2A00 DUP2 PUSH2 0x29DC JUMP JUMPDEST SWAP3 SWAP2 POP POP JUMP JUMPDEST PUSH0 PUSH1 0x20 DUP3 DUP5 SUB SLT ISZERO PUSH2 0x2A1B JUMPI PUSH2 0x2A1A PUSH2 0x28C9 JUMP JUMPDEST JUMPDEST PUSH0 PUSH2 0x2A28 DUP5 DUP3 DUP6 ADD PUSH2 0x29F2 JUMP JUMPDEST SWAP2 POP POP SWAP3 SWAP2 POP POP JUMP JUMPDEST PUSH0 DUP2 ISZERO ISZERO SWAP1 POP SWAP2 SWAP1 POP JUMP JUMPDEST PUSH2 0x2A45 DUP2 PUSH2 0x2A31 JUMP JUMPDEST DUP3 MSTORE POP POP JUMP JUMPDEST PUSH0 PUSH1 0x20 DUP3 ADD SWAP1 POP PUSH2 0x2A5E PUSH0 DUP4 ADD DUP5 PUSH2 0x2A3C JUMP JUMPDEST SWAP3 SWAP2 POP POP JUMP JUMPDEST PUSH0 PUSH0 PUSH1 0x40 DUP4 DUP6 SUB SLT ISZERO PUSH2 0x2A7A JUMPI PUSH2 0x2A79 PUSH2 0x28C9 JUMP JUMPDEST JUMPDEST PUSH0 PUSH2 0x2A87 DUP6 DUP3 DUP7 ADD PUSH2 0x28E7 JUMP JUMPDEST SWAP3 POP POP PUSH1 0x20 PUSH2 0x2A98 DUP6 DUP3 DUP7 ADD PUSH2 0x2994 JUMP JUMPDEST SWAP2 POP POP SWAP3 POP SWAP3 SWAP1 POP JUMP JUMPDEST PUSH0 DUP2 MLOAD SWAP1 POP SWAP2 SWAP1 POP JUMP JUMPDEST PUSH0 DUP3 DUP3 MSTORE PUSH1 0x20 DUP3 ADD SWAP1 POP SWAP3 SWAP2 POP POP JUMP JUMPDEST DUP3 DUP2 DUP4 MCOPY PUSH0 DUP4 DUP4 ADD MSTORE POP POP POP JUMP JUMPDEST PUSH0 PUSH1 0x1F NOT PUSH1 0x1F DUP4 ADD AND SWAP1 POP SWAP2 SWAP1 POP JUMP JUMPDEST PUSH0 PUSH2 0x2AE4 DUP3 PUSH2 0x2AA2 JUMP JUMPDEST PUSH2 0x2AEE DUP2 DUP6 PUSH2 0x2AAC JUMP JUMPDEST SWAP4 POP PUSH2 0x2AFE DUP2 DUP6 PUSH1 0x20 DUP7 ADD PUSH2 0x2ABC JUMP JUMPDEST PUSH2 0x2B07 DUP2 PUSH2 0x2ACA JUMP JUMPDEST DUP5 ADD SWAP2 POP POP SWAP3 SWAP2 POP POP JUMP JUMPDEST PUSH0 PUSH1 0xA0 DUP3 ADD SWAP1 POP PUSH2 0x2B25 PUSH0 DUP4 ADD DUP9 PUSH2 0x2956 JUMP JUMPDEST PUSH2 0x2B32 PUSH1 0x20 DUP4 ADD DUP8 PUSH2 0x2898 JUMP JUMPDEST DUP2 DUP2 SUB PUSH1 0x40 DUP4 ADD MSTORE PUSH2 0x2B44 DUP2 DUP7 PUSH2 0x2ADA JUMP JUMPDEST SWAP1 POP PUSH2 0x2B53 PUSH1 0x60 DUP4 ADD DUP6 PUSH2 0x2A3C JUMP JUMPDEST PUSH2 0x2B60 PUSH1 0x80 DUP4 ADD DUP5 PUSH2 0x2898 JUMP JUMPDEST SWAP7 SWAP6 POP POP POP POP POP POP JUMP JUMPDEST PUSH0 DUP2 MLOAD SWAP1 POP SWAP2 SWAP1 POP JUMP JUMPDEST PUSH0 DUP3 DUP3 MSTORE PUSH1 0x20 DUP3 ADD SWAP1 POP SWAP3 SWAP2 POP POP JUMP JUMPDEST PUSH0 DUP2 SWAP1 POP PUSH1 0x20 DUP3 ADD SWAP1 POP SWAP2 SWAP1 POP JUMP JUMPDEST PUSH2 0x2B9C DUP2 PUSH2 0x2945 JUMP JUMPDEST DUP3 MSTORE POP POP JUMP JUMPDEST PUSH0 PUSH2 0x2BAD DUP4 DUP4 PUSH2 0x2B93 JUMP JUMPDEST PUSH1 0x20 DUP4 ADD SWAP1 POP SWAP3 SWAP2 POP POP JUMP JUMPDEST PUSH0 PUSH1 0x20 DUP3 ADD SWAP1 POP SWAP2 SWAP1 POP JUMP JUMPDEST PUSH0 PUSH2 0x2BCF DUP3 PUSH2 0x2B6A JUMP JUMPDEST PUSH2 0x2BD9 DUP2 DUP6 PUSH2 0x2B74 JUMP JUMPDEST SWAP4 POP PUSH2 0x2BE4 DUP4 PUSH2 0x2B84 JUMP JUMPDEST DUP1 PUSH0 JUMPDEST DUP4 DUP2 LT ISZERO PUSH2 0x2C14 JUMPI DUP2 MLOAD PUSH2 0x2BFB DUP9 DUP3 PUSH2 0x2BA2 JUMP JUMPDEST SWAP8 POP PUSH2 0x2C06 DUP4 PUSH2 0x2BB9 JUMP JUMPDEST SWAP3 POP POP PUSH1 0x1 DUP2 ADD SWAP1 POP PUSH2 0x2BE7 JUMP JUMPDEST POP DUP6 SWAP4 POP POP POP POP SWAP3 SWAP2 POP POP JUMP JUMPDEST PUSH0 PUSH1 0x20 DUP3 ADD SWAP1 POP DUP2 DUP2 SUB PUSH0 DUP4 ADD MSTORE PUSH2 0x2C39 DUP2 DUP5 PUSH2 0x2BC5 JUMP JUMPDEST SWAP1 POP SWAP3 SWAP2 POP POP JUMP JUMPDEST PUSH2 0x2C4A DUP2 PUSH2 0x2A31 JUMP JUMPDEST DUP2 EQ PUSH2 0x2C54 JUMPI PUSH0 PUSH0 REVERT JUMPDEST POP JUMP JUMPDEST PUSH0 DUP2 CALLDATALOAD SWAP1 POP PUSH2 0x2C65 DUP2 PUSH2 0x2C41 JUMP JUMPDEST SWAP3 SWAP2 POP POP JUMP JUMPDEST PUSH0 PUSH0 PUSH0 PUSH0 PUSH1 0x80 DUP6 DUP8 SUB SLT ISZERO PUSH2 0x2C83 JUMPI PUSH2 0x2C82 PUSH2 0x28C9 JUMP JUMPDEST JUMPDEST PUSH0 PUSH2 0x2C90 DUP8 DUP3 DUP9 ADD PUSH2 0x28E7 JUMP JUMPDEST SWAP5 POP POP PUSH1 0x20 PUSH2 0x2CA1 DUP8 DUP3 DUP9 ADD PUSH2 0x28E7 JUMP JUMPDEST SWAP4 POP POP PUSH1 0x40 PUSH2 0x2CB2 DUP8 DUP3 DUP9 ADD PUSH2 0x2C57 JUMP JUMPDEST SWAP3 POP POP PUSH1 0x60 PUSH2 0x2CC3 DUP8 DUP3 DUP9 ADD PUSH2 0x2C57 JUMP JUMPDEST SWAP2 POP POP SWAP3 SWAP6 SWAP2 SWAP5 POP SWAP3 POP JUMP JUMPDEST PUSH0 DUP2 MLOAD SWAP1 POP SWAP2 SWAP1 POP JUMP JUMPDEST PUSH0 DUP3 DUP3 MSTORE PUSH1 0x20 DUP3 ADD SWAP1 POP SWAP3 SWAP2 POP POP JUMP JUMPDEST PUSH0 DUP2 SWAP1 POP PUSH1 0x20 DUP3 ADD SWAP1 POP SWAP2 SWAP1 POP JUMP JUMPDEST PUSH2 0x2D01 DUP2 PUSH2 0x288F JUMP JUMPDEST DUP3 MSTORE POP POP JUMP JUMPDEST PUSH0 PUSH2 0x2D12 DUP4 DUP4 PUSH2 0x2CF8 JUMP JUMPDEST PUSH1 0x20 DUP4 ADD SWAP1 POP SWAP3 SWAP2 POP POP JUMP JUMPDEST PUSH0 PUSH1 0x20 DUP3 ADD SWAP1 POP SWAP2 SWAP1 POP JUMP JUMPDEST PUSH0 PUSH2 0x2D34 DUP3 PUSH2 0x2CCF JUMP JUMPDEST PUSH2 0x2D3E DUP2 DUP6 PUSH2 0x2CD9 JUMP JUMPDEST SWAP4 POP PUSH2 0x2D49 DUP4 PUSH2 0x2CE9 JUMP JUMPDEST DUP1 PUSH0 JUMPDEST DUP4 DUP2 LT ISZERO PUSH2 0x2D79 JUMPI DUP2 MLOAD PUSH2 0x2D60 DUP9 DUP3 PUSH2 0x2D07 JUMP JUMPDEST SWAP8 POP PUSH2 0x2D6B DUP4 PUSH2 0x2D1E JUMP JUMPDEST SWAP3 POP POP PUSH1 0x1 DUP2 ADD SWAP1 POP PUSH2 0x2D4C JUMP JUMPDEST POP DUP6 SWAP4 POP POP POP POP SWAP3 SWAP2 POP POP JUMP JUMPDEST PUSH0 PUSH1 0x20 DUP3 ADD SWAP1 POP DUP2 DUP2 SUB PUSH0 DUP4 ADD MSTORE PUSH2 0x2D9E DUP2 DUP5 PUSH2 0x2D2A JUMP JUMPDEST SWAP1 POP SWAP3 SWAP2 POP POP JUMP JUMPDEST PUSH0 PUSH0 REVERT JUMPDEST PUSH0 PUSH0 REVERT JUMPDEST PUSH32 0x4E487B7100000000000000000000000000000000000000000000000000000000 PUSH0 MSTORE PUSH1 0x41 PUSH1 0x4 MSTORE PUSH1 0x24 PUSH0 REVERT JUMPDEST PUSH2 0x2DE4 DUP3 PUSH2 0x2ACA JUMP JUMPDEST DUP2 ADD DUP2 DUP2 LT PUSH8 0xFFFFFFFFFFFFFFFF DUP3 GT OR ISZERO PUSH2 0x2E03 JUMPI PUSH2 0x2E02 PUSH2 0x2DAE JUMP JUMPDEST JUMPDEST DUP1 PUSH1 0x40 MSTORE POP POP POP JUMP JUMPDEST PUSH0 PUSH2 0x2E15 PUSH2 0x28C0 JUMP JUMPDEST SWAP1 POP PUSH2 0x2E21 DUP3 DUP3 PUSH2 0x2DDB JUMP JUMPDEST SWAP2 SWAP1 POP JUMP JUMPDEST PUSH0 PUSH8 0xFFFFFFFFFFFFFFFF DUP3 GT ISZERO PUSH2 0x2E40 JUMPI PUSH2 0x2E3F PUSH2 0x2DAE JUMP JUMPDEST JUMPDEST PUSH2 0x2E49 DUP3 PUSH2 0x2ACA JUMP JUMPDEST SWAP1 POP PUSH1 0x20 DUP2 ADD SWAP1 POP SWAP2 SWAP1 POP JUMP JUMPDEST DUP3 DUP2 DUP4 CALLDATACOPY PUSH0 DUP4 DUP4 ADD MSTORE POP POP POP JUMP JUMPDEST PUSH0 PUSH2 0x2E76 PUSH2 0x2E71 DUP5 PUSH2 0x2E26 JUMP JUMPDEST PUSH2 0x2E0C JUMP JUMPDEST SWAP1 POP DUP3 DUP2 MSTORE PUSH1 0x20 DUP2 ADD DUP5 DUP5 DUP5 ADD GT ISZERO PUSH2 0x2E92 JUMPI PUSH2 0x2E91 PUSH2 0x2DAA JUMP JUMPDEST JUMPDEST PUSH2 0x2E9D DUP5 DUP3 DUP6 PUSH2 0x2E56 JUMP JUMPDEST POP SWAP4 SWAP3 POP POP POP JUMP JUMPDEST PUSH0 DUP3 PUSH1 0x1F DUP4 ADD SLT PUSH2 0x2EB9 JUMPI PUSH2 0x2EB8 PUSH2 0x2DA6 JUMP JUMPDEST JUMPDEST DUP2 CALLDATALOAD PUSH2 0x2EC9 DUP5 DUP3 PUSH1 0x20 DUP7 ADD PUSH2 0x2E64 JUMP JUMPDEST SWAP2 POP POP SWAP3 SWAP2 POP POP JUMP JUMPDEST PUSH0 PUSH0 PUSH0 PUSH1 0x60 DUP5 DUP7 SUB SLT ISZERO PUSH2 0x2EE9 JUMPI PUSH2 0x2EE8 PUSH2 0x28C9 JUMP JUMPDEST JUMPDEST PUSH0 PUSH2 0x2EF6 DUP7 DUP3 DUP8 ADD PUSH2 0x2994 JUMP JUMPDEST SWAP4 POP POP PUSH1 0x20 PUSH2 0x2F07 DUP7 DUP3 DUP8 ADD PUSH2 0x28E7 JUMP JUMPDEST SWAP3 POP POP PUSH1 0x40 DUP5 ADD CALLDATALOAD PUSH8 0xFFFFFFFFFFFFFFFF DUP2 GT ISZERO PUSH2 0x2F28 JUMPI PUSH2 0x2F27 PUSH2 0x28CD JUMP JUMPDEST JUMPDEST PUSH2 0x2F34 DUP7 DUP3 DUP8 ADD PUSH2 0x2EA5 JUMP JUMPDEST SWAP2 POP POP SWAP3 POP SWAP3 POP SWAP3 JUMP JUMPDEST PUSH0 DUP3 DUP3 MSTORE PUSH1 0x20 DUP3 ADD SWAP1 POP SWAP3 SWAP2 POP POP JUMP JUMPDEST PUSH32 0x5265636F76657279206E6F7420696E6974696174656400000000000000000000 PUSH0 DUP3 ADD MSTORE POP JUMP JUMPDEST PUSH0 PUSH2 0x2F82 PUSH1 0x16 DUP4 PUSH2 0x2F3E JUMP JUMPDEST SWAP2 POP PUSH2 0x2F8D DUP3 PUSH2 0x2F4E JUMP JUMPDEST PUSH1 0x20 DUP3 ADD SWAP1 POP SWAP2 SWAP1 POP JUMP JUMPDEST PUSH0 PUSH1 0x20 DUP3 ADD SWAP1 POP DUP2 DUP2 SUB PUSH0 DUP4 ADD MSTORE PUSH2 0x2FAF DUP2 PUSH2 0x2F76 JUMP JUMPDEST SWAP1 POP SWAP2 SWAP1 POP JUMP JUMPDEST PUSH32 0x4E487B7100000000000000000000000000000000000000000000000000000000 PUSH0 MSTORE PUSH1 0x11 PUSH1 0x4 MSTORE PUSH1 0x24 PUSH0 REVERT JUMPDEST PUSH0 PUSH2 0x2FED DUP3 PUSH2 0x288F JUMP JUMPDEST SWAP2 POP PUSH2 0x2FF8 DUP4 PUSH2 0x288F JUMP JUMPDEST SWAP3 POP DUP3 DUP3 SUB SWAP1 POP DUP2 DUP2 GT ISZERO PUSH2 0x3010 JUMPI PUSH2 0x300F PUSH2 0x2FB6 JUMP JUMPDEST JUMPDEST SWAP3 SWAP2 POP POP JUMP JUMPDEST PUSH32 0x4E487B7100000000000000000000000000000000000000000000000000000000 PUSH0 MSTORE PUSH1 0x32 PUSH1 0x4 MSTORE PUSH1 0x24 PUSH0 REVERT JUMPDEST PUSH32 0x4E487B7100000000000000000000000000000000000000000000000000000000 PUSH0 MSTORE PUSH1 0x31 PUSH1 0x4 MSTORE PUSH1 0x24 PUSH0 REVERT JUMPDEST PUSH32 0x5265636F766572792074696D65206E6F74207265616368656400000000000000 PUSH0 DUP3 ADD MSTORE POP JUMP JUMPDEST PUSH0 PUSH2 0x30A4 PUSH1 0x19 DUP4 PUSH2 0x2F3E JUMP JUMPDEST SWAP2 POP PUSH2 0x30AF DUP3 PUSH2 0x3070 JUMP JUMPDEST PUSH1 0x20 DUP3 ADD SWAP1 POP SWAP2 SWAP1 POP JUMP JUMPDEST PUSH0 PUSH1 0x20 DUP3 ADD SWAP1 POP DUP2 DUP2 SUB PUSH0 DUP4 ADD MSTORE PUSH2 0x30D1 DUP2 PUSH2 0x3098 JUMP JUMPDEST SWAP1 POP SWAP2 SWAP1 POP JUMP JUMPDEST PUSH32 0x4E6F74207265636F766572792061646472657373000000000000000000000000 PUSH0 DUP3 ADD MSTORE POP JUMP JUMPDEST PUSH0 PUSH2 0x310C PUSH1 0x14 DUP4 PUSH2 0x2F3E JUMP JUMPDEST SWAP2 POP PUSH2 0x3117 DUP3 PUSH2 0x30D8 JUMP JUMPDEST PUSH1 0x20 DUP3 ADD SWAP1 POP SWAP2 SWAP1 POP JUMP JUMPDEST PUSH0 PUSH1 0x20 DUP3 ADD SWAP1 POP DUP2 DUP2 SUB PUSH0 DUP4 ADD MSTORE PUSH2 0x3139 DUP2 PUSH2 0x3100 JUMP JUMPDEST SWAP1 POP SWAP2 SWAP1 POP JUMP JUMPDEST PUSH32 0x5472616E73616374696F6E20646F6573206E6F74206578697374000000000000 PUSH0 DUP3 ADD MSTORE POP JUMP JUMPDEST PUSH0 PUSH2 0x3174 PUSH1 0x1A DUP4 PUSH2 0x2F3E JUMP JUMPDEST SWAP2 POP PUSH2 0x317F DUP3 PUSH2 0x3140 JUMP JUMPDEST PUSH1 0x20 DUP3 ADD SWAP1 POP SWAP2 SWAP1 POP JUMP JUMPDEST PUSH0 PUSH1 0x20 DUP3 ADD SWAP1 POP DUP2 DUP2 SUB PUSH0 DUP4 ADD MSTORE PUSH2 0x31A1 DUP2 PUSH2 0x3168 JUMP JUMPDEST SWAP1 POP SWAP2 SWAP1 POP JUMP JUMPDEST PUSH32 0x4F776E6572206578697374730000000000000000000000000000000000000000 PUSH0 DUP3 ADD MSTORE POP JUMP JUMPDEST PUSH0 PUSH2 0x31DC PUSH1 0xC DUP4 PUSH2 0x2F3E JUMP JUMPDEST SWAP2 POP PUSH2 0x31E7 DUP3 PUSH2 0x31A8 JUMP JUMPDEST PUSH1 0x20 DUP3 ADD SWAP1 POP SWAP2 SWAP1 POP JUMP JUMPDEST PUSH0 PUSH1 0x20 DUP3 ADD SWAP1 POP DUP2 DUP2 SUB PUSH0 DUP4 ADD MSTORE PUSH2 0x3209 DUP2 PUSH2 0x31D0 JUMP JUMPDEST SWAP1 POP SWAP2 SWAP1 POP JUMP JUMPDEST PUSH32 0x5265636F7665727920616C726561647920696E69746961746564000000000000 PUSH0 DUP3 ADD MSTORE POP JUMP JUMPDEST PUSH0 PUSH2 0x3244 PUSH1 0x1A DUP4 PUSH2 0x2F3E JUMP JUMPDEST SWAP2 POP PUSH2 0x324F DUP3 PUSH2 0x3210 JUMP JUMPDEST PUSH1 0x20 DUP3 ADD SWAP1 POP SWAP2 SWAP1 POP JUMP JUMPDEST PUSH0 PUSH1 0x20 DUP3 ADD SWAP1 POP DUP2 DUP2 SUB PUSH0 DUP4 ADD MSTORE PUSH2 0x3271 DUP2 PUSH2 0x3238 JUMP JUMPDEST SWAP1 POP SWAP2 SWAP1 POP JUMP JUMPDEST PUSH0 PUSH2 0x3282 DUP3 PUSH2 0x288F JUMP JUMPDEST SWAP2 POP PUSH2 0x328D DUP4 PUSH2 0x288F JUMP JUMPDEST SWAP3 POP DUP3 DUP3 ADD SWAP1 POP DUP1 DUP3 GT ISZERO PUSH2 0x32A5 JUMPI PUSH2 0x32A4 PUSH2 0x2FB6 JUMP JUMPDEST JUMPDEST SWAP3 SWAP2 POP POP JUMP JUMPDEST PUSH32 0x4E487B7100000000000000000000000000000000000000000000000000000000 PUSH0 MSTORE PUSH1 0x22 PUSH1 0x4 MSTORE PUSH1 0x24 PUSH0 REVERT JUMPDEST PUSH0 PUSH1 0x2 DUP3 DIV SWAP1 POP PUSH1 0x1 DUP3 AND DUP1 PUSH2 0x32EF JUMPI PUSH1 0x7F DUP3 AND SWAP2 POP JUMPDEST PUSH1 0x20 DUP3 LT DUP2 SUB PUSH2 0x3302 JUMPI PUSH2 0x3301 PUSH2 0x32AB JUMP JUMPDEST JUMPDEST POP SWAP2 SWAP1 POP JUMP JUMPDEST PUSH0 PUSH2 0x3312 DUP3 PUSH2 0x288F JUMP JUMPDEST SWAP2 POP PUSH32 0xFFFFFFFFFFFFFFFFFFFFFFFFFFFFFFFFFFFFFFFFFFFFFFFFFFFFFFFFFFFFFFFF DUP3 SUB PUSH2 0x3344 JUMPI PUSH2 0x3343 PUSH2 0x2FB6 JUMP JUMPDEST JUMPDEST PUSH1 0x1 DUP3 ADD SWAP1 POP SWAP2 SWAP1 POP JUMP JUMPDEST PUSH32 0x496E76616C696420726571756972656400000000000000000000000000000000 PUSH0 DUP3 ADD MSTORE POP JUMP JUMPDEST PUSH0 PUSH2 0x3383 PUSH1 0x10 DUP4 PUSH2 0x2F3E JUMP JUMPDEST SWAP2 POP PUSH2 0x338E DUP3 PUSH2 0x334F JUMP JUMPDEST PUSH1 0x20 DUP3 ADD SWAP1 POP SWAP2 SWAP1 POP JUMP JUMPDEST PUSH0 PUSH1 0x20 DUP3 ADD SWAP1 POP DUP2 DUP2 SUB PUSH0 DUP4 ADD MSTORE PUSH2 0x33B0 DUP2 PUSH2 0x3377 JUMP JUMPDEST SWAP1 POP SWAP2 SWAP1 POP JUMP JUMPDEST PUSH0 DUP2 SWAP1 POP DUP2 PUSH0 MSTORE PUSH1 0x20 PUSH0 KECCAK256 SWAP1 POP SWAP2 SWAP1 POP JUMP JUMPDEST PUSH0 PUSH1 0x20 PUSH1 0x1F DUP4 ADD DIV SWAP1 POP SWAP2 SWAP1 POP JUMP JUMPDEST PUSH0 DUP3 DUP3 SHL SWAP1 POP SWAP3 SWAP2 POP POP JUMP JUMPDEST PUSH0 PUSH1 0x8 DUP4 MUL PUSH2 0x3413 PUSH32 0xFFFFFFFFFFFFFFFFFFFFFFFFFFFFFFFFFFFFFFFFFFFFFFFFFFFFFFFFFFFFFFFF DUP3 PUSH2 0x33D8 JUMP JUMPDEST PUSH2 0x341D DUP7 DUP4 PUSH2 0x33D8 JUMP JUMPDEST SWAP6 POP DUP1 NOT DUP5 AND SWAP4 POP DUP1 DUP7 AND DUP5 OR SWAP3 POP POP POP SWAP4 SWAP3 POP POP POP JUMP JUMPDEST PUSH0 DUP2 SWAP1 POP SWAP2 SWAP1 POP JUMP JUMPDEST PUSH0 PUSH2 0x3458 PUSH2 0x3453 PUSH2 0x344E DUP5 PUSH2 0x288F JUMP JUMPDEST PUSH2 0x3435 JUMP JUMPDEST PUSH2 0x288F JUMP JUMPDEST SWAP1 POP SWAP2 SWAP1 POP JUMP JUMPDEST PUSH0 DUP2 SWAP1 POP SWAP2 SWAP1 POP JUMP JUMPDEST PUSH2 0x3471 DUP4 PUSH2 0x343E JUMP JUMPDEST PUSH2 0x3485 PUSH2 0x347D DUP3 PUSH2 0x345F JUMP JUMPDEST DUP5 DUP5 SLOAD PUSH2 0x33E4 JUMP JUMPDEST DUP3 SSTORE POP POP POP POP JUMP JUMPDEST PUSH0 PUSH0 SWAP1 POP SWAP1 JUMP JUMPDEST PUSH2 0x349C PUSH2 0x348D JUMP JUMPDEST PUSH2 0x34A7 DUP2 DUP5 DUP5 PUSH2 0x3468 JUMP JUMPDEST POP POP POP JUMP JUMPDEST JUMPDEST DUP2 DUP2 LT ISZERO PUSH2 0x34CA JUMPI PUSH2 0x34BF PUSH0 DUP3 PUSH2 0x3494 JUMP JUMPDEST PUSH1 0x1 DUP2 ADD SWAP1 POP PUSH2 0x34AD JUMP JUMPDEST POP POP JUMP JUMPDEST PUSH1 0x1F DUP3 GT ISZERO PUSH2 0x350F JUMPI PUSH2 0x34E0 DUP2 PUSH2 0x33B7 JUMP JUMPDEST PUSH2 0x34E9 DUP5 PUSH2 0x33C9 JUMP JUMPDEST DUP2 ADD PUSH1 0x20 DUP6 LT ISZERO PUSH2 0x34F8 JUMPI DUP2 SWAP1 POP JUMPDEST PUSH2 0x350C PUSH2 0x3504 DUP6 PUSH2 0x33C9 JUMP JUMPDEST DUP4 ADD DUP3 PUSH2 0x34AC JUMP JUMPDEST POP POP JUMPDEST POP POP POP JUMP JUMPDEST PUSH0 DUP3 DUP3 SHR SWAP1 POP SWAP3 SWAP2 POP POP JUMP JUMPDEST PUSH0 PUSH2 0x352F PUSH0 NOT DUP5 PUSH1 0x8 MUL PUSH2 0x3514 JUMP JUMPDEST NOT DUP1 DUP4 AND SWAP2 POP POP SWAP3 SWAP2 POP POP JUMP JUMPDEST PUSH0 PUSH2 0x3547 DUP4 DUP4 PUSH2 0x3520 JUMP JUMPDEST SWAP2 POP DUP3 PUSH1 0x2 MUL DUP3 OR SWAP1 POP SWAP3 SWAP2 POP POP JUMP JUMPDEST PUSH2 0x3560 DUP3 PUSH2 0x2AA2 JUMP JUMPDEST PUSH8 0xFFFFFFFFFFFFFFFF DUP2 GT ISZERO PUSH2 0x3579 JUMPI PUSH2 0x3578 PUSH2 0x2DAE JUMP JUMPDEST JUMPDEST PUSH2 0x3583 DUP3 SLOAD PUSH2 0x32D8 JUMP JUMPDEST PUSH2 0x358E DUP3 DUP3 DUP6 PUSH2 0x34CE JUMP JUMPDEST PUSH0 PUSH1 0x20 SWAP1 POP PUSH1 0x1F DUP4 GT PUSH1 0x1 DUP2 EQ PUSH2 0x35BF JUMPI PUSH0 DUP5 ISZERO PUSH2 0x35AD JUMPI DUP3 DUP8 ADD MLOAD SWAP1 POP JUMPDEST PUSH2 0x35B7 DUP6 DUP3 PUSH2 0x353C JUMP JUMPDEST DUP7 SSTORE POP PUSH2 0x361E JUMP JUMPDEST PUSH1 0x1F NOT DUP5 AND PUSH2 0x35CD DUP7 PUSH2 0x33B7 JUMP JUMPDEST PUSH0 JUMPDEST DUP3 DUP2 LT ISZERO PUSH2 0x35F4 JUMPI DUP5 DUP10 ADD MLOAD DUP3 SSTORE PUSH1 0x1 DUP3 ADD SWAP2 POP PUSH1 0x20 DUP6 ADD SWAP5 POP PUSH1 0x20 DUP2 ADD SWAP1 POP PUSH2 0x35CF JUMP JUMPDEST DUP7 DUP4 LT ISZERO PUSH2 0x3611 JUMPI DUP5 DUP10 ADD MLOAD PUSH2 0x360D PUSH1 0x1F DUP10 AND DUP3 PUSH2 0x3520 JUMP JUMPDEST DUP4 SSTORE POP JUMPDEST PUSH1 0x1 PUSH1 0x2 DUP9 MUL ADD DUP9 SSTORE POP POP POP JUMPDEST POP POP POP POP POP POP JUMP JUMPDEST PUSH0 DUP2 SWAP1 POP SWAP3 SWAP2 POP POP JUMP JUMPDEST PUSH0 DUP2 SLOAD PUSH2 0x363C DUP2 PUSH2 0x32D8 JUMP JUMPDEST PUSH2 0x3646 DUP2 DUP7 PUSH2 0x3626 JUMP JUMPDEST SWAP5 POP PUSH1 0x1 DUP3 AND PUSH0 DUP2 EQ PUSH2 0x3660 JUMPI PUSH1 0x1 DUP2 EQ PUSH2 0x3675 JUMPI PUSH2 0x36A7 JUMP JUMPDEST PUSH1 0xFF NOT DUP4 AND DUP7 MSTORE DUP2 ISZERO ISZERO DUP3 MUL DUP7 ADD SWAP4 POP PUSH2 0x36A7 JUMP JUMPDEST PUSH2 0x367E DUP6 PUSH2 0x33B7 JUMP JUMPDEST PUSH0 JUMPDEST DUP4 DUP2 LT ISZERO PUSH2 0x369F JUMPI DUP2 SLOAD DUP2 DUP10 ADD MSTORE PUSH1 0x1 DUP3 ADD SWAP2 POP PUSH1 0x20 DUP2 ADD SWAP1 POP PUSH2 0x3680 JUMP JUMPDEST DUP4 DUP9 ADD SWAP6 POP POP POP JUMPDEST POP POP POP SWAP3 SWAP2 POP POP JUMP JUMPDEST PUSH0 PUSH2 0x36BB DUP3 DUP5 PUSH2 0x3630 JUMP JUMPDEST SWAP2 POP DUP2 SWAP1 POP SWAP3 SWAP2 POP POP JUMP JUMPDEST PUSH32 0x4E487B7100000000000000000000000000000000000000000000000000000000 PUSH0 MSTORE PUSH1 0x12 PUSH1 0x4 MSTORE PUSH1 0x24 PUSH0 REVERT JUMPDEST PUSH0 PUSH2 0x36FD DUP3 PUSH2 0x288F JUMP JUMPDEST SWAP2 POP PUSH2 0x3708 DUP4 PUSH2 0x288F JUMP JUMPDEST SWAP3 POP DUP3 PUSH2 0x3718 JUMPI PUSH2 0x3717 PUSH2 0x36C6 JUMP JUMPDEST JUMPDEST DUP3 DUP3 MOD SWAP1 POP SWAP3 SWAP2 POP POP JUMP INVALID LOG2 PUSH5 0x6970667358 0x22 SLT KECCAK256 0xC0 0xC6 0x21 0xC4 SWAP11 0x2D BLOCKHASH SWAP16 0xC6 0xC0 0xDF 0x25 SWAP11 0xF TLOAD PUSH28 0xD52B9ADDE7354141D1BA788B9CF821DA64736F6C634300081E003300 "
				},
				"gasEstimates": {
					"creation": {
						"codeDepositCost": "2833800",
						"executionCost": "infinite",
						"totalCost": "infinite"
					},
					"external": {
						"addOwner(address)": "106425",
						"cancelRecovery()": "28868",
						"changeExecutionDelay(uint256)": "24866",
						"changeRequirement(uint256)": "27006",
						"confirmTransaction(uint256)": "infinite",
						"confirmations(uint256,address)": "3182",
						"dailyLimit()": "2515",
						"executeRecovery()": "infinite",
						"executeTransaction(uint256)": "infinite",
						"executedHashes(bytes32)": "2853",
						"executionDelay()": "2493",
						"executionNonce(address)": "2914",
						"executionTime(uint256)": "infinite",
						"getConfirmationCount(uint256)": "infinite",
						"getConfirmations(uint256)": "infinite",
						"getOwners()": "infinite",
						"getTransactionIds(uint256,uint256,bool,bool)": "infinite",
						"initiateRecovery()": "infinite",
						"isConfirmed(uint256)": "5001",
						"isOwner(address)": "2923",
						"lastDay()": "2470",
						"owners(uint256)": "4990",
						"recoveryAddress()": "2597",
						"recoveryInitiated()": "2512",
						"recoveryTime()": "2493",
						"removeOwner(address)": "infinite",
						"required()": "2513",
						"revokeConfirmation(uint256)": "infinite",
						"setDailyLimit(uint256)": "24865",
						"spentToday()": "2557",
						"submitTransaction(address,uint256,bytes)": "infinite",
						"transactionCount()": "2492",
						"transactions(uint256)": "infinite"
					},
					"internal": {
						"_updateDailySpent()": "infinite"
					}
				},
				"methodIdentifiers": {
					"addOwner(address)": "7065cb48",
					"cancelRecovery()": "0ba234d6",
					"changeExecutionDelay(uint256)": "992fcf49",
					"changeRequirement(uint256)": "ba51a6df",
					"confirmTransaction(uint256)": "c01a8c84",
					"confirmations(uint256,address)": "3411c81c",
					"dailyLimit()": "67eeba0c",
					"executeRecovery()": "20c5a3e1",
					"executeTransaction(uint256)": "ee22610b",
					"executedHashes(bytes32)": "260d711e",
					"executionDelay()": "8b257989",
					"executionNonce(address)": "6925b0d6",
					"executionTime(uint256)": "ca2a65ad",
					"getConfirmationCount(uint256)": "8b51d13f",
					"getConfirmations(uint256)": "b5dc40c3",
					"getOwners()": "a0e67e2b",
					"getTransactionIds(uint256,uint256,bool,bool)": "a8abe69a",
					"initiateRecovery()": "8ac46935",
					"isConfirmed(uint256)": "784547a7",
					"isOwner(address)": "2f54bf6e",
					"lastDay()": "6b0c932d",
					"owners(uint256)": "025e7c27",
					"recoveryAddress()": "710eb26c",
					"recoveryInitiated()": "48f6ba12",
					"recoveryTime()": "62ffc7ac",
					"removeOwner(address)": "173825d9",
					"required()": "dc8452cd",
					"revokeConfirmation(uint256)": "20ea8d86",
					"setDailyLimit(uint256)": "b20d30a9",
					"spentToday()": "f059cf2b",
					"submitTransaction(address,uint256,bytes)": "c6427474",
					"transactionCount()": "b77bf600",
					"transactions(uint256)": "9ace38c2"
				}
			},
			"storageLayout": {
				"storage": [
					{
						"astId": 4,
						"contract": "foundry/src/MultiSigWallet.sol:MultiSigWallet",
						"label": "owners",
						"offset": 0,
						"slot": "0",
						"type": "t_array(t_address)dyn_storage"
					},
					{
						"astId": 8,
						"contract": "foundry/src/MultiSigWallet.sol:MultiSigWallet",
						"label": "isOwner",
						"offset": 0,
						"slot": "1",
						"type": "t_mapping(t_address,t_bool)"
					},
					{
						"astId": 10,
						"contract": "foundry/src/MultiSigWallet.sol:MultiSigWallet",
						"label": "required",
						"offset": 0,
						"slot": "2",
						"type": "t_uint256"
					},
					{
						"astId": 12,
						"contract": "foundry/src/MultiSigWallet.sol:MultiSigWallet",
						"label": "transactionCount",
						"offset": 0,
						"slot": "3",
						"type": "t_uint256"
					},
					{
						"astId": 14,
						"contract": "foundry/src/MultiSigWallet.sol:MultiSigWallet",
						"label": "dailyLimit",
						"offset": 0,
						"slot": "4",
						"type": "t_uint256"
					},
					{
						"astId": 16,
						"contract": "foundry/src/MultiSigWallet.sol:MultiSigWallet",
						"label": "spentToday",
						"offset": 0,
						"slot": "5",
						"type": "t_uint256"
					},
					{
						"astId": 18,
						"contract": "foundry/src/MultiSigWallet.sol:MultiSigWallet",
						"label": "lastDay",
						"offset": 0,
						"slot": "6",
						"type": "t_uint256"
					},
					{
						"astId": 34,
						"contract": "foundry/src/MultiSigWallet.sol:MultiSigWallet",
						"label": "transactions",
						"offset": 0,
						"slot": "7",
						"type": "t_mapping(t_uint256,t_struct(Transaction)29_storage)"
					},
					{
						"astId": 40,
						"contract": "foundry/src/MultiSigWallet.sol:MultiSigWallet",
						"label": "confirmations",
						"offset": 0,
						"slot": "8",
						"type": "t_mapping(t_uint256,t_mapping(t_address,t_bool))"
					},
					{
						"astId": 44,
						"contract": "foundry/src/MultiSigWallet.sol:MultiSigWallet",
						"label": "executionNonce",
						"offset": 0,
						"slot": "9",
						"type": "t_mapping(t_address,t_uint256)"
					},
					{
						"astId": 48,
						"contract": "foundry/src/MultiSigWallet.sol:MultiSigWallet",
						"label": "executedHashes",
						"offset": 0,
						"slot": "10",
						"type": "t_mapping(t_bytes32,t_bool)"
					},
					{
						"astId": 52,
						"contract": "foundry/src/MultiSigWallet.sol:MultiSigWallet",
						"label": "executionTime",
						"offset": 0,
						"slot": "11",
						"type": "t_mapping(t_uint256,t_uint256)"
					},
					{
						"astId": 55,
						"contract": "foundry/src/MultiSigWallet.sol:MultiSigWallet",
						"label": "executionDelay",
						"offset": 0,
						"slot": "12",
						"type": "t_uint256"
					},
					{
						"astId": 57,
						"contract": "foundry/src/MultiSigWallet.sol:MultiSigWallet",
						"label": "recoveryAddress",
						"offset": 0,
						"slot": "13",
						"type": "t_address"
					},
					{
						"astId": 59,
						"contract": "foundry/src/MultiSigWallet.sol:MultiSigWallet",
						"label": "recoveryTime",
						"offset": 0,
						"slot": "14",
						"type": "t_uint256"
					},
					{
						"astId": 61,
						"contract": "foundry/src/MultiSigWallet.sol:MultiSigWallet",
						"label": "recoveryInitiated",
						"offset": 0,
						"slot": "15",
						"type": "t_bool"
					}
				],
				"types": {
					"t_address": {
						"encoding": "inplace",
						"label": "address",
						"numberOfBytes": "20"
					},
					"t_array(t_address)dyn_storage": {
						"base": "t_address",
						"encoding": "dynamic_array",
						"label": "address[]",
						"numberOfBytes": "32"
					},
					"t_bool": {
						"encoding": "inplace",
						"label": "bool",
						"numberOfBytes": "1"
					},
					"t_bytes32": {
						"encoding": "inplace",
						"label": "bytes32",
						"numberOfBytes": "32"
					},
					"t_bytes_storage": {
						"encoding": "bytes",
						"label": "bytes",
						"numberOfBytes": "32"
					},
					"t_mapping(t_address,t_bool)": {
						"encoding": "mapping",
						"key": "t_address",
						"label": "mapping(address => bool)",
						"numberOfBytes": "32",
						"value": "t_bool"
					},
					"t_mapping(t_address,t_uint256)": {
						"encoding": "mapping",
						"key": "t_address",
						"label": "mapping(address => uint256)",
						"numberOfBytes": "32",
						"value": "t_uint256"
					},
					"t_mapping(t_bytes32,t_bool)": {
						"encoding": "mapping",
						"key": "t_bytes32",
						"label": "mapping(bytes32 => bool)",
						"numberOfBytes": "32",
						"value": "t_bool"
					},
					"t_mapping(t_uint256,t_mapping(t_address,t_bool))": {
						"encoding": "mapping",
						"key": "t_uint256",
						"label": "mapping(uint256 => mapping(address => bool))",
						"numberOfBytes": "32",
						"value": "t_mapping(t_address,t_bool)"
					},
					"t_mapping(t_uint256,t_struct(Transaction)29_storage)": {
						"encoding": "mapping",
						"key": "t_uint256",
						"label": "mapping(uint256 => struct MultiSigWallet.Transaction)",
						"numberOfBytes": "32",
						"value": "t_struct(Transaction)29_storage"
					},
					"t_mapping(t_uint256,t_uint256)": {
						"encoding": "mapping",
						"key": "t_uint256",
						"label": "mapping(uint256 => uint256)",
						"numberOfBytes": "32",
						"value": "t_uint256"
					},
					"t_struct(Transaction)29_storage": {
						"encoding": "inplace",
						"label": "struct MultiSigWallet.Transaction",
						"members": [
							{
								"astId": 20,
								"contract": "foundry/src/MultiSigWallet.sol:MultiSigWallet",
								"label": "to",
								"offset": 0,
								"slot": "0",
								"type": "t_address"
							},
							{
								"astId": 22,
								"contract": "foundry/src/MultiSigWallet.sol:MultiSigWallet",
								"label": "value",
								"offset": 0,
								"slot": "1",
								"type": "t_uint256"
							},
							{
								"astId": 24,
								"contract": "foundry/src/MultiSigWallet.sol:MultiSigWallet",
								"label": "data",
								"offset": 0,
								"slot": "2",
								"type": "t_bytes_storage"
							},
							{
								"astId": 26,
								"contract": "foundry/src/MultiSigWallet.sol:MultiSigWallet",
								"label": "executed",
								"offset": 0,
								"slot": "3",
								"type": "t_bool"
							},
							{
								"astId": 28,
								"contract": "foundry/src/MultiSigWallet.sol:MultiSigWallet",
								"label": "confirmations",
								"offset": 0,
								"slot": "4",
								"type": "t_uint256"
							}
						],
						"numberOfBytes": "160"
					},
					"t_uint256": {
						"encoding": "inplace",
						"label": "uint256",
						"numberOfBytes": "32"
					}
				}
			},
			"userdoc": {
				"kind": "user",
				"methods": {},
				"version": 1
			}
		}
	}
}