{
	"Solidity/tryit/gasoptimization.sol": {
		"StorageAnalysis": {
			"abi": [
				{
					"inputs": [],
					"name": "a",
					"outputs": [
						{
							"internalType": "uint256",
							"name": "",
							"type": "uint256"
						}
					],
					"stateMutability": "view",
					"type": "function"
				},
				{
					"inputs": [],
					"name": "b",
					"outputs": [
						{
							"internalType": "uint128",
							"name": "",
							"type": "uint128"
						}
					],
					"stateMutability": "view",
					"type": "function"
				},
				{
					"inputs": [],
					"name": "c",
					"outputs": [
						{
							"internalType": "uint128",
							"name": "",
							"type": "uint128"
						}
					],
					"stateMutability": "view",
					"type": "function"
				},
				{
					"inputs": [],
					"name": "d",
					"outputs": [
						{
							"internalType": "uint256",
							"name": "",
							"type": "uint256"
						}
					],
					"stateMutability": "view",
					"type": "function"
				},
				{
					"inputs": [],
					"name": "e",
					"outputs": [
						{
							"internalType": "bool",
							"name": "",
							"type": "bool"
						}
					],
					"stateMutability": "view",
					"type": "function"
				},
				{
					"inputs": [],
					"name": "f",
					"outputs": [
						{
							"internalType": "address",
							"name": "",
							"type": "address"
						}
					],
					"stateMutability": "view",
					"type": "function"
				},
				{
					"inputs": [],
					"name": "g",
					"outputs": [
						{
							"internalType": "uint64",
							"name": "",
							"type": "uint64"
						}
					],
					"stateMutability": "view",
					"type": "function"
				},
				{
					"inputs": [],
					"name": "h",
					"outputs": [
						{
							"internalType": "uint64",
							"name": "",
							"type": "uint64"
						}
					],
					"stateMutability": "view",
					"type": "function"
				},
				{
					"inputs": [],
					"name": "i",
					"outputs": [
						{
							"internalType": "uint64",
							"name": "",
							"type": "uint64"
						}
					],
					"stateMutability": "view",
					"type": "function"
				}
			],
			"devdoc": {
				"kind": "dev",
				"methods": {},
				"version": 1
			},
			"evm": {
				"assembly": "    /* \"Solidity/tryit/gasoptimization.sol\":61:290  contract StorageAnalysis{... */\n  mstore(0x40, 0x80)\n  callvalue\n  dup1\n  iszero\n  tag_1\n  jumpi\n  revert(0x00, 0x00)\ntag_1:\n  pop\n  dataSize(sub_0)\n  dup1\n  dataOffset(sub_0)\n  0x00\n  codecopy\n  0x00\n  return\nstop\n\nsub_0: assembly {\n        /* \"Solidity/tryit/gasoptimization.sol\":61:290  contract StorageAnalysis{... */\n      mstore(0x40, 0x80)\n      callvalue\n      dup1\n      iszero\n      tag_1\n      jumpi\n      revert(0x00, 0x00)\n    tag_1:\n      pop\n      jumpi(tag_2, lt(calldatasize, 0x04))\n      shr(0xe0, calldataload(0x00))\n      dup1\n      0xb8c9d365\n      gt\n      tag_12\n      jumpi\n      dup1\n      0xb8c9d365\n      eq\n      tag_7\n      jumpi\n      dup1\n      0xc3da42b8\n      eq\n      tag_8\n      jumpi\n      dup1\n      0xe2179b8e\n      eq\n      tag_9\n      jumpi\n      dup1\n      0xe5aa3d58\n      eq\n      tag_10\n      jumpi\n      dup1\n      0xffae15ba\n      eq\n      tag_11\n      jumpi\n      jump(tag_2)\n    tag_12:\n      dup1\n      0x0dbe671f\n      eq\n      tag_3\n      jumpi\n      dup1\n      0x26121ff0\n      eq\n      tag_4\n      jumpi\n      dup1\n      0x4df7e3d0\n      eq\n      tag_5\n      jumpi\n      dup1\n      0x8a054ac2\n      eq\n      tag_6\n      jumpi\n    tag_2:\n      revert(0x00, 0x00)\n        /* \"Solidity/tryit/gasoptimization.sol\":92:108  uint256 public a */\n    tag_3:\n      tag_13\n      tag_14\n      jump\t// in\n    tag_13:\n      mload(0x40)\n      tag_15\n      swap2\n      swap1\n      tag_16\n      jump\t// in\n    tag_15:\n      mload(0x40)\n      dup1\n      swap2\n      sub\n      swap1\n      return\n        /* \"Solidity/tryit/gasoptimization.sol\":204:220  address public f */\n    tag_4:\n      tag_17\n      tag_18\n      jump\t// in\n    tag_17:\n      mload(0x40)\n      tag_19\n      swap2\n      swap1\n      tag_20\n      jump\t// in\n    tag_19:\n      mload(0x40)\n      dup1\n      swap2\n      sub\n      swap1\n      return\n        /* \"Solidity/tryit/gasoptimization.sol\":115:131  uint128 public b */\n    tag_5:\n      tag_21\n      tag_22\n      jump\t// in\n    tag_21:\n      mload(0x40)\n      tag_23\n      swap2\n      swap1\n      tag_24\n      jump\t// in\n    tag_23:\n      mload(0x40)\n      dup1\n      swap2\n      sub\n      swap1\n      return\n        /* \"Solidity/tryit/gasoptimization.sol\":161:177  uint256 public d */\n    tag_6:\n      tag_25\n      tag_26\n      jump\t// in\n    tag_25:\n      mload(0x40)\n      tag_27\n      swap2\n      swap1\n      tag_16\n      jump\t// in\n    tag_27:\n      mload(0x40)\n      dup1\n      swap2\n      sub\n      swap1\n      return\n        /* \"Solidity/tryit/gasoptimization.sol\":249:264  uint64 public h */\n    tag_7:\n      tag_28\n      tag_29\n      jump\t// in\n    tag_28:\n      mload(0x40)\n      tag_30\n      swap2\n      swap1\n      tag_31\n      jump\t// in\n    tag_30:\n      mload(0x40)\n      dup1\n      swap2\n      sub\n      swap1\n      return\n        /* \"Solidity/tryit/gasoptimization.sol\":138:154  uint128 public c */\n    tag_8:\n      tag_32\n      tag_33\n      jump\t// in\n    tag_32:\n      mload(0x40)\n      tag_34\n      swap2\n      swap1\n      tag_24\n      jump\t// in\n    tag_34:\n      mload(0x40)\n      dup1\n      swap2\n      sub\n      swap1\n      return\n        /* \"Solidity/tryit/gasoptimization.sol\":227:242  uint64 public g */\n    tag_9:\n      tag_35\n      tag_36\n      jump\t// in\n    tag_35:\n      mload(0x40)\n      tag_37\n      swap2\n      swap1\n      tag_31\n      jump\t// in\n    tag_37:\n      mload(0x40)\n      dup1\n      swap2\n      sub\n      swap1\n      return\n        /* \"Solidity/tryit/gasoptimization.sol\":271:286  uint64 public i */\n    tag_10:\n      tag_38\n      tag_39\n      jump\t// in\n    tag_38:\n      mload(0x40)\n      tag_40\n      swap2\n      swap1\n      tag_31\n      jump\t// in\n    tag_40:\n      mload(0x40)\n      dup1\n      swap2\n      sub\n      swap1\n      return\n        /* \"Solidity/tryit/gasoptimization.sol\":184:197  bool public e */\n    tag_11:\n      tag_41\n      tag_42\n      jump\t// in\n    tag_41:\n      mload(0x40)\n      tag_43\n      swap2\n      swap1\n      tag_44\n      jump\t// in\n    tag_43:\n      mload(0x40)\n      dup1\n      swap2\n      sub\n      swap1\n      return\n        /* \"Solidity/tryit/gasoptimization.sol\":92:108  uint256 public a */\n    tag_14:\n      sload(0x00)\n      dup2\n      jump\t// out\n        /* \"Solidity/tryit/gasoptimization.sol\":204:220  address public f */\n    tag_18:\n      0x03\n      0x01\n      swap1\n      sload\n      swap1\n      0x0100\n      exp\n      swap1\n      div\n      0xffffffffffffffffffffffffffffffffffffffff\n      and\n      dup2\n      jump\t// out\n        /* \"Solidity/tryit/gasoptimization.sol\":115:131  uint128 public b */\n    tag_22:\n      0x01\n      0x00\n      swap1\n      sload\n      swap1\n      0x0100\n      exp\n      swap1\n      div\n      0xffffffffffffffffffffffffffffffff\n      and\n      dup2\n      jump\t// out\n        /* \"Solidity/tryit/gasoptimization.sol\":161:177  uint256 public d */\n    tag_26:\n      sload(0x02)\n      dup2\n      jump\t// out\n        /* \"Solidity/tryit/gasoptimization.sol\":249:264  uint64 public h */\n    tag_29:\n      0x04\n      0x00\n      swap1\n      sload\n      swap1\n      0x0100\n      exp\n      swap1\n      div\n      0xffffffffffffffff\n      and\n      dup2\n      jump\t// out\n        /* \"Solidity/tryit/gasoptimization.sol\":138:154  uint128 public c */\n    tag_33:\n      0x01\n      0x10\n      swap1\n      sload\n      swap1\n      0x0100\n      exp\n      swap1\n      div\n      0xffffffffffffffffffffffffffffffff\n      and\n      dup2\n      jump\t// out\n        /* \"Solidity/tryit/gasoptimization.sol\":227:242  uint64 public g */\n    tag_36:\n      0x03\n      0x15\n      swap1\n      sload\n      swap1\n      0x0100\n      exp\n      swap1\n      div\n      0xffffffffffffffff\n      and\n      dup2\n      jump\t// out\n        /* \"Solidity/tryit/gasoptimization.sol\":271:286  uint64 public i */\n    tag_39:\n      0x04\n      0x08\n      swap1\n      sload\n      swap1\n      0x0100\n      exp\n      swap1\n      div\n      0xffffffffffffffff\n      and\n      dup2\n      jump\t// out\n        /* \"Solidity/tryit/gasoptimization.sol\":184:197  bool public e */\n    tag_42:\n      0x03\n      0x00\n      swap1\n      sload\n      swap1\n      0x0100\n      exp\n      swap1\n      div\n      0xff\n      and\n      dup2\n      jump\t// out\n        /* \"#utility.yul\":7:84   */\n    tag_45:\n        /* \"#utility.yul\":44:51   */\n      0x00\n        /* \"#utility.yul\":73:78   */\n      dup2\n        /* \"#utility.yul\":62:78   */\n      swap1\n      pop\n        /* \"#utility.yul\":7:84   */\n      swap2\n      swap1\n      pop\n      jump\t// out\n        /* \"#utility.yul\":90:208   */\n    tag_46:\n        /* \"#utility.yul\":177:201   */\n      tag_59\n        /* \"#utility.yul\":195:200   */\n      dup2\n        /* \"#utility.yul\":177:201   */\n      tag_45\n      jump\t// in\n    tag_59:\n        /* \"#utility.yul\":172:175   */\n      dup3\n        /* \"#utility.yul\":165:202   */\n      mstore\n        /* \"#utility.yul\":90:208   */\n      pop\n      pop\n      jump\t// out\n        /* \"#utility.yul\":214:436   */\n    tag_16:\n        /* \"#utility.yul\":307:311   */\n      0x00\n        /* \"#utility.yul\":345:347   */\n      0x20\n        /* \"#utility.yul\":334:343   */\n      dup3\n        /* \"#utility.yul\":330:348   */\n      add\n        /* \"#utility.yul\":322:348   */\n      swap1\n      pop\n        /* \"#utility.yul\":358:429   */\n      tag_61\n        /* \"#utility.yul\":426:427   */\n      0x00\n        /* \"#utility.yul\":415:424   */\n      dup4\n        /* \"#utility.yul\":411:428   */\n      add\n        /* \"#utility.yul\":402:408   */\n      dup5\n        /* \"#utility.yul\":358:429   */\n      tag_46\n      jump\t// in\n    tag_61:\n        /* \"#utility.yul\":214:436   */\n      swap3\n      swap2\n      pop\n      pop\n      jump\t// out\n        /* \"#utility.yul\":442:568   */\n    tag_47:\n        /* \"#utility.yul\":479:486   */\n      0x00\n        /* \"#utility.yul\":519:561   */\n      0xffffffffffffffffffffffffffffffffffffffff\n        /* \"#utility.yul\":512:517   */\n      dup3\n        /* \"#utility.yul\":508:562   */\n      and\n        /* \"#utility.yul\":497:562   */\n      swap1\n      pop\n        /* \"#utility.yul\":442:568   */\n      swap2\n      swap1\n      pop\n      jump\t// out\n        /* \"#utility.yul\":574:670   */\n    tag_48:\n        /* \"#utility.yul\":611:618   */\n      0x00\n        /* \"#utility.yul\":640:664   */\n      tag_64\n        /* \"#utility.yul\":658:663   */\n      dup3\n        /* \"#utility.yul\":640:664   */\n      tag_47\n      jump\t// in\n    tag_64:\n        /* \"#utility.yul\":629:664   */\n      swap1\n      pop\n        /* \"#utility.yul\":574:670   */\n      swap2\n      swap1\n      pop\n      jump\t// out\n        /* \"#utility.yul\":676:794   */\n    tag_49:\n        /* \"#utility.yul\":763:787   */\n      tag_66\n        /* \"#utility.yul\":781:786   */\n      dup2\n        /* \"#utility.yul\":763:787   */\n      tag_48\n      jump\t// in\n    tag_66:\n        /* \"#utility.yul\":758:761   */\n      dup3\n        /* \"#utility.yul\":751:788   */\n      mstore\n        /* \"#utility.yul\":676:794   */\n      pop\n      pop\n      jump\t// out\n        /* \"#utility.yul\":800:1022   */\n    tag_20:\n        /* \"#utility.yul\":893:897   */\n      0x00\n        /* \"#utility.yul\":931:933   */\n      0x20\n        /* \"#utility.yul\":920:929   */\n      dup3\n        /* \"#utility.yul\":916:934   */\n      add\n        /* \"#utility.yul\":908:934   */\n      swap1\n      pop\n        /* \"#utility.yul\":944:1015   */\n      tag_68\n        /* \"#utility.yul\":1012:1013   */\n      0x00\n        /* \"#utility.yul\":1001:1010   */\n      dup4\n        /* \"#utility.yul\":997:1014   */\n      add\n        /* \"#utility.yul\":988:994   */\n      dup5\n        /* \"#utility.yul\":944:1015   */\n      tag_49\n      jump\t// in\n    tag_68:\n        /* \"#utility.yul\":800:1022   */\n      swap3\n      swap2\n      pop\n      pop\n      jump\t// out\n        /* \"#utility.yul\":1028:1146   */\n    tag_50:\n        /* \"#utility.yul\":1065:1072   */\n      0x00\n        /* \"#utility.yul\":1105:1139   */\n      0xffffffffffffffffffffffffffffffff\n        /* \"#utility.yul\":1098:1103   */\n      dup3\n        /* \"#utility.yul\":1094:1140   */\n      and\n        /* \"#utility.yul\":1083:1140   */\n      swap1\n      pop\n        /* \"#utility.yul\":1028:1146   */\n      swap2\n      swap1\n      pop\n      jump\t// out\n        /* \"#utility.yul\":1152:1270   */\n    tag_51:\n        /* \"#utility.yul\":1239:1263   */\n      tag_71\n        /* \"#utility.yul\":1257:1262   */\n      dup2\n        /* \"#utility.yul\":1239:1263   */\n      tag_50\n      jump\t// in\n    tag_71:\n        /* \"#utility.yul\":1234:1237   */\n      dup3\n        /* \"#utility.yul\":1227:1264   */\n      mstore\n        /* \"#utility.yul\":1152:1270   */\n      pop\n      pop\n      jump\t// out\n        /* \"#utility.yul\":1276:1498   */\n    tag_24:\n        /* \"#utility.yul\":1369:1373   */\n      0x00\n        /* \"#utility.yul\":1407:1409   */\n      0x20\n        /* \"#utility.yul\":1396:1405   */\n      dup3\n        /* \"#utility.yul\":1392:1410   */\n      add\n        /* \"#utility.yul\":1384:1410   */\n      swap1\n      pop\n        /* \"#utility.yul\":1420:1491   */\n      tag_73\n        /* \"#utility.yul\":1488:1489   */\n      0x00\n        /* \"#utility.yul\":1477:1486   */\n      dup4\n        /* \"#utility.yul\":1473:1490   */\n      add\n        /* \"#utility.yul\":1464:1470   */\n      dup5\n        /* \"#utility.yul\":1420:1491   */\n      tag_51\n      jump\t// in\n    tag_73:\n        /* \"#utility.yul\":1276:1498   */\n      swap3\n      swap2\n      pop\n      pop\n      jump\t// out\n        /* \"#utility.yul\":1504:1605   */\n    tag_52:\n        /* \"#utility.yul\":1540:1547   */\n      0x00\n        /* \"#utility.yul\":1580:1598   */\n      0xffffffffffffffff\n        /* \"#utility.yul\":1573:1578   */\n      dup3\n        /* \"#utility.yul\":1569:1599   */\n      and\n        /* \"#utility.yul\":1558:1599   */\n      swap1\n      pop\n        /* \"#utility.yul\":1504:1605   */\n      swap2\n      swap1\n      pop\n      jump\t// out\n        /* \"#utility.yul\":1611:1726   */\n    tag_53:\n        /* \"#utility.yul\":1696:1719   */\n      tag_76\n        /* \"#utility.yul\":1713:1718   */\n      dup2\n        /* \"#utility.yul\":1696:1719   */\n      tag_52\n      jump\t// in\n    tag_76:\n        /* \"#utility.yul\":1691:1694   */\n      dup3\n        /* \"#utility.yul\":1684:1720   */\n      mstore\n        /* \"#utility.yul\":1611:1726   */\n      pop\n      pop\n      jump\t// out\n        /* \"#utility.yul\":1732:1950   */\n    tag_31:\n        /* \"#utility.yul\":1823:1827   */\n      0x00\n        /* \"#utility.yul\":1861:1863   */\n      0x20\n        /* \"#utility.yul\":1850:1859   */\n      dup3\n        /* \"#utility.yul\":1846:1864   */\n      add\n        /* \"#utility.yul\":1838:1864   */\n      swap1\n      pop\n        /* \"#utility.yul\":1874:1943   */\n      tag_78\n        /* \"#utility.yul\":1940:1941   */\n      0x00\n        /* \"#utility.yul\":1929:1938   */\n      dup4\n        /* \"#utility.yul\":1925:1942   */\n      add\n        /* \"#utility.yul\":1916:1922   */\n      dup5\n        /* \"#utility.yul\":1874:1943   */\n      tag_53\n      jump\t// in\n    tag_78:\n        /* \"#utility.yul\":1732:1950   */\n      swap3\n      swap2\n      pop\n      pop\n      jump\t// out\n        /* \"#utility.yul\":1956:2046   */\n    tag_54:\n        /* \"#utility.yul\":1990:1997   */\n      0x00\n        /* \"#utility.yul\":2033:2038   */\n      dup2\n        /* \"#utility.yul\":2026:2039   */\n      iszero\n        /* \"#utility.yul\":2019:2040   */\n      iszero\n        /* \"#utility.yul\":2008:2040   */\n      swap1\n      pop\n        /* \"#utility.yul\":1956:2046   */\n      swap2\n      swap1\n      pop\n      jump\t// out\n        /* \"#utility.yul\":2052:2161   */\n    tag_55:\n        /* \"#utility.yul\":2133:2154   */\n      tag_81\n        /* \"#utility.yul\":2148:2153   */\n      dup2\n        /* \"#utility.yul\":2133:2154   */\n      tag_54\n      jump\t// in\n    tag_81:\n        /* \"#utility.yul\":2128:2131   */\n      dup3\n        /* \"#utility.yul\":2121:2155   */\n      mstore\n        /* \"#utility.yul\":2052:2161   */\n      pop\n      pop\n      jump\t// out\n        /* \"#utility.yul\":2167:2377   */\n    tag_44:\n        /* \"#utility.yul\":2254:2258   */\n      0x00\n        /* \"#utility.yul\":2292:2294   */\n      0x20\n        /* \"#utility.yul\":2281:2290   */\n      dup3\n        /* \"#utility.yul\":2277:2295   */\n      add\n        /* \"#utility.yul\":2269:2295   */\n      swap1\n      pop\n        /* \"#utility.yul\":2305:2370   */\n      tag_83\n        /* \"#utility.yul\":2367:2368   */\n      0x00\n        /* \"#utility.yul\":2356:2365   */\n      dup4\n        /* \"#utility.yul\":2352:2369   */\n      add\n        /* \"#utility.yul\":2343:2349   */\n      dup5\n        /* \"#utility.yul\":2305:2370   */\n      tag_55\n      jump\t// in\n    tag_83:\n        /* \"#utility.yul\":2167:2377   */\n      swap3\n      swap2\n      pop\n      pop\n      jump\t// out\n\n    auxdata: 0xa26469706673582212204554c3167416d5e668d3fd17f62721cf4f145a07d20f134d8c7ee84fc34284be64736f6c634300081e0033\n}\n",
				"bytecode": {
					"linkReferences": {},
					"object": "6080604052348015600e575f5ffd5b506103e68061001c5f395ff3fe608060405234801561000f575f5ffd5b5060043610610091575f3560e01c8063b8c9d36511610064578063b8c9d3651461010d578063c3da42b81461012b578063e2179b8e14610149578063e5aa3d5814610167578063ffae15ba1461018557610091565b80630dbe671f1461009557806326121ff0146100b35780634df7e3d0146100d15780638a054ac2146100ef575b5f5ffd5b61009d6101a3565b6040516100aa919061028e565b60405180910390f35b6100bb6101a8565b6040516100c891906102e6565b60405180910390f35b6100d96101ce565b6040516100e69190610329565b60405180910390f35b6100f76101ef565b604051610104919061028e565b60405180910390f35b6101156101f5565b6040516101229190610364565b60405180910390f35b61013361020e565b6040516101409190610329565b60405180910390f35b610151610230565b60405161015e9190610364565b60405180910390f35b61016f61024a565b60405161017c9190610364565b60405180910390f35b61018d610264565b60405161019a9190610397565b60405180910390f35b5f5481565b600360019054906101000a900473ffffffffffffffffffffffffffffffffffffffff1681565b60015f9054906101000a90046fffffffffffffffffffffffffffffffff1681565b60025481565b60045f9054906101000a900467ffffffffffffffff1681565b600160109054906101000a90046fffffffffffffffffffffffffffffffff1681565b600360159054906101000a900467ffffffffffffffff1681565b600460089054906101000a900467ffffffffffffffff1681565b60035f9054906101000a900460ff1681565b5f819050919050565b61028881610276565b82525050565b5f6020820190506102a15f83018461027f565b92915050565b5f73ffffffffffffffffffffffffffffffffffffffff82169050919050565b5f6102d0826102a7565b9050919050565b6102e0816102c6565b82525050565b5f6020820190506102f95f8301846102d7565b92915050565b5f6fffffffffffffffffffffffffffffffff82169050919050565b610323816102ff565b82525050565b5f60208201905061033c5f83018461031a565b92915050565b5f67ffffffffffffffff82169050919050565b61035e81610342565b82525050565b5f6020820190506103775f830184610355565b92915050565b5f8115159050919050565b6103918161037d565b82525050565b5f6020820190506103aa5f830184610388565b9291505056fea26469706673582212204554c3167416d5e668d3fd17f62721cf4f145a07d20f134d8c7ee84fc34284be64736f6c634300081e0033",
					"opcodes": "PUSH1 0x80 PUSH1 0x40 MSTORE CALLVALUE DUP1 ISZERO PUSH1 0xE JUMPI PUSH0 PUSH0 REVERT JUMPDEST POP PUSH2 0x3E6 DUP1 PUSH2 0x1C PUSH0 CODECOPY PUSH0 RETURN INVALID PUSH1 0x80 PUSH1 0x40 MSTORE CALLVALUE DUP1 ISZERO PUSH2 0xF JUMPI PUSH0 PUSH0 REVERT JUMPDEST POP PUSH1 0x4 CALLDATASIZE LT PUSH2 0x91 JUMPI PUSH0 CALLDATALOAD PUSH1 0xE0 SHR DUP1 PUSH4 0xB8C9D365 GT PUSH2 0x64 JUMPI DUP1 PUSH4 0xB8C9D365 EQ PUSH2 0x10D JUMPI DUP1 PUSH4 0xC3DA42B8 EQ PUSH2 0x12B JUMPI DUP1 PUSH4 0xE2179B8E EQ PUSH2 0x149 JUMPI DUP1 PUSH4 0xE5AA3D58 EQ PUSH2 0x167 JUMPI DUP1 PUSH4 0xFFAE15BA EQ PUSH2 0x185 JUMPI PUSH2 0x91 JUMP JUMPDEST DUP1 PUSH4 0xDBE671F EQ PUSH2 0x95 JUMPI DUP1 PUSH4 0x26121FF0 EQ PUSH2 0xB3 JUMPI DUP1 PUSH4 0x4DF7E3D0 EQ PUSH2 0xD1 JUMPI DUP1 PUSH4 0x8A054AC2 EQ PUSH2 0xEF JUMPI JUMPDEST PUSH0 PUSH0 REVERT JUMPDEST PUSH2 0x9D PUSH2 0x1A3 JUMP JUMPDEST PUSH1 0x40 MLOAD PUSH2 0xAA SWAP2 SWAP1 PUSH2 0x28E JUMP JUMPDEST PUSH1 0x40 MLOAD DUP1 SWAP2 SUB SWAP1 RETURN JUMPDEST PUSH2 0xBB PUSH2 0x1A8 JUMP JUMPDEST PUSH1 0x40 MLOAD PUSH2 0xC8 SWAP2 SWAP1 PUSH2 0x2E6 JUMP JUMPDEST PUSH1 0x40 MLOAD DUP1 SWAP2 SUB SWAP1 RETURN JUMPDEST PUSH2 0xD9 PUSH2 0x1CE JUMP JUMPDEST PUSH1 0x40 MLOAD PUSH2 0xE6 SWAP2 SWAP1 PUSH2 0x329 JUMP JUMPDEST PUSH1 0x40 MLOAD DUP1 SWAP2 SUB SWAP1 RETURN JUMPDEST PUSH2 0xF7 PUSH2 0x1EF JUMP JUMPDEST PUSH1 0x40 MLOAD PUSH2 0x104 SWAP2 SWAP1 PUSH2 0x28E JUMP JUMPDEST PUSH1 0x40 MLOAD DUP1 SWAP2 SUB SWAP1 RETURN JUMPDEST PUSH2 0x115 PUSH2 0x1F5 JUMP JUMPDEST PUSH1 0x40 MLOAD PUSH2 0x122 SWAP2 SWAP1 PUSH2 0x364 JUMP JUMPDEST PUSH1 0x40 MLOAD DUP1 SWAP2 SUB SWAP1 RETURN JUMPDEST PUSH2 0x133 PUSH2 0x20E JUMP JUMPDEST PUSH1 0x40 MLOAD PUSH2 0x140 SWAP2 SWAP1 PUSH2 0x329 JUMP JUMPDEST PUSH1 0x40 MLOAD DUP1 SWAP2 SUB SWAP1 RETURN JUMPDEST PUSH2 0x151 PUSH2 0x230 JUMP JUMPDEST PUSH1 0x40 MLOAD PUSH2 0x15E SWAP2 SWAP1 PUSH2 0x364 JUMP JUMPDEST PUSH1 0x40 MLOAD DUP1 SWAP2 SUB SWAP1 RETURN JUMPDEST PUSH2 0x16F PUSH2 0x24A JUMP JUMPDEST PUSH1 0x40 MLOAD PUSH2 0x17C SWAP2 SWAP1 PUSH2 0x364 JUMP JUMPDEST PUSH1 0x40 MLOAD DUP1 SWAP2 SUB SWAP1 RETURN JUMPDEST PUSH2 0x18D PUSH2 0x264 JUMP JUMPDEST PUSH1 0x40 MLOAD PUSH2 0x19A SWAP2 SWAP1 PUSH2 0x397 JUMP JUMPDEST PUSH1 0x40 MLOAD DUP1 SWAP2 SUB SWAP1 RETURN JUMPDEST PUSH0 SLOAD DUP2 JUMP JUMPDEST PUSH1 0x3 PUSH1 0x1 SWAP1 SLOAD SWAP1 PUSH2 0x100 EXP SWAP1 DIV PUSH20 0xFFFFFFFFFFFFFFFFFFFFFFFFFFFFFFFFFFFFFFFF AND DUP2 JUMP JUMPDEST PUSH1 0x1 PUSH0 SWAP1 SLOAD SWAP1 PUSH2 0x100 EXP SWAP1 DIV PUSH16 0xFFFFFFFFFFFFFFFFFFFFFFFFFFFFFFFF AND DUP2 JUMP JUMPDEST PUSH1 0x2 SLOAD DUP2 JUMP JUMPDEST PUSH1 0x4 PUSH0 SWAP1 SLOAD SWAP1 PUSH2 0x100 EXP SWAP1 DIV PUSH8 0xFFFFFFFFFFFFFFFF AND DUP2 JUMP JUMPDEST PUSH1 0x1 PUSH1 0x10 SWAP1 SLOAD SWAP1 PUSH2 0x100 EXP SWAP1 DIV PUSH16 0xFFFFFFFFFFFFFFFFFFFFFFFFFFFFFFFF AND DUP2 JUMP JUMPDEST PUSH1 0x3 PUSH1 0x15 SWAP1 SLOAD SWAP1 PUSH2 0x100 EXP SWAP1 DIV PUSH8 0xFFFFFFFFFFFFFFFF AND DUP2 JUMP JUMPDEST PUSH1 0x4 PUSH1 0x8 SWAP1 SLOAD SWAP1 PUSH2 0x100 EXP SWAP1 DIV PUSH8 0xFFFFFFFFFFFFFFFF AND DUP2 JUMP JUMPDEST PUSH1 0x3 PUSH0 SWAP1 SLOAD SWAP1 PUSH2 0x100 EXP SWAP1 DIV PUSH1 0xFF AND DUP2 JUMP JUMPDEST PUSH0 DUP2 SWAP1 POP SWAP2 SWAP1 POP JUMP JUMPDEST PUSH2 0x288 DUP2 PUSH2 0x276 JUMP JUMPDEST DUP3 MSTORE POP POP JUMP JUMPDEST PUSH0 PUSH1 0x20 DUP3 ADD SWAP1 POP PUSH2 0x2A1 PUSH0 DUP4 ADD DUP5 PUSH2 0x27F JUMP JUMPDEST SWAP3 SWAP2 POP POP JUMP JUMPDEST PUSH0 PUSH20 0xFFFFFFFFFFFFFFFFFFFFFFFFFFFFFFFFFFFFFFFF DUP3 AND SWAP1 POP SWAP2 SWAP1 POP JUMP JUMPDEST PUSH0 PUSH2 0x2D0 DUP3 PUSH2 0x2A7 JUMP JUMPDEST SWAP1 POP SWAP2 SWAP1 POP JUMP JUMPDEST PUSH2 0x2E0 DUP2 PUSH2 0x2C6 JUMP JUMPDEST DUP3 MSTORE POP POP JUMP JUMPDEST PUSH0 PUSH1 0x20 DUP3 ADD SWAP1 POP PUSH2 0x2F9 PUSH0 DUP4 ADD DUP5 PUSH2 0x2D7 JUMP JUMPDEST SWAP3 SWAP2 POP POP JUMP JUMPDEST PUSH0 PUSH16 0xFFFFFFFFFFFFFFFFFFFFFFFFFFFFFFFF DUP3 AND SWAP1 POP SWAP2 SWAP1 POP JUMP JUMPDEST PUSH2 0x323 DUP2 PUSH2 0x2FF JUMP JUMPDEST DUP3 MSTORE POP POP JUMP JUMPDEST PUSH0 PUSH1 0x20 DUP3 ADD SWAP1 POP PUSH2 0x33C PUSH0 DUP4 ADD DUP5 PUSH2 0x31A JUMP JUMPDEST SWAP3 SWAP2 POP POP JUMP JUMPDEST PUSH0 PUSH8 0xFFFFFFFFFFFFFFFF DUP3 AND SWAP1 POP SWAP2 SWAP1 POP JUMP JUMPDEST PUSH2 0x35E DUP2 PUSH2 0x342 JUMP JUMPDEST DUP3 MSTORE POP POP JUMP JUMPDEST PUSH0 PUSH1 0x20 DUP3 ADD SWAP1 POP PUSH2 0x377 PUSH0 DUP4 ADD DUP5 PUSH2 0x355 JUMP JUMPDEST SWAP3 SWAP2 POP POP JUMP JUMPDEST PUSH0 DUP2 ISZERO ISZERO SWAP1 POP SWAP2 SWAP1 POP JUMP JUMPDEST PUSH2 0x391 DUP2 PUSH2 0x37D JUMP JUMPDEST DUP3 MSTORE POP POP JUMP JUMPDEST PUSH0 PUSH1 0x20 DUP3 ADD SWAP1 POP PUSH2 0x3AA PUSH0 DUP4 ADD DUP5 PUSH2 0x388 JUMP JUMPDEST SWAP3 SWAP2 POP POP JUMP INVALID LOG2 PUSH5 0x6970667358 0x22 SLT KECCAK256 GASLIMIT SLOAD 0xC3 AND PUSH21 0x16D5E668D3FD17F62721CF4F145A07D20F134D8C7E 0xE8 0x4F 0xC3 TIMESTAMP DUP5 0xBE PUSH5 0x736F6C6343 STOP ADDMOD 0x1E STOP CALLER "
				},
				"gasEstimates": {
					"creation": {
						"codeDepositCost": "199600",
						"executionCost": "243",
						"totalCost": "199843"
					},
					"external": {
						"a()": "2425",
						"b()": "2511",
						"c()": "2539",
						"d()": "2492",
						"e()": "2554",
						"f()": "2582",
						"g()": "2561",
						"h()": "2466",
						"i()": "2583"
					}
				},
				"methodIdentifiers": {
					"a()": "0dbe671f",
					"b()": "4df7e3d0",
					"c()": "c3da42b8",
					"d()": "8a054ac2",
					"e()": "ffae15ba",
					"f()": "26121ff0",
					"g()": "e2179b8e",
					"h()": "b8c9d365",
					"i()": "e5aa3d58"
				}
			},
			"storageLayout": {
				"storage": [
					{
						"astId": 3,
						"contract": "Solidity/tryit/gasoptimization.sol:StorageAnalysis",
						"label": "a",
						"offset": 0,
						"slot": "0",
						"type": "t_uint256"
					},
					{
						"astId": 5,
						"contract": "Solidity/tryit/gasoptimization.sol:StorageAnalysis",
						"label": "b",
						"offset": 0,
						"slot": "1",
						"type": "t_uint128"
					},
					{
						"astId": 7,
						"contract": "Solidity/tryit/gasoptimization.sol:StorageAnalysis",
						"label": "c",
						"offset": 16,
						"slot": "1",
						"type": "t_uint128"
					},
					{
						"astId": 9,
						"contract": "Solidity/tryit/gasoptimization.sol:StorageAnalysis",
						"label": "d",
						"offset": 0,
						"slot": "2",
						"type": "t_uint256"
					},
					{
						"astId": 11,
						"contract": "Solidity/tryit/gasoptimization.sol:StorageAnalysis",
						"label": "e",
						"offset": 0,
						"slot": "3",
						"type": "t_bool"
					},
					{
						"astId": 13,
						"contract": "Solidity/tryit/gasoptimization.sol:StorageAnalysis",
						"label": "f",
						"offset": 1,
						"slot": "3",
						"type": "t_address"
					},
					{
						"astId": 15,
						"contract": "Solidity/tryit/gasoptimization.sol:StorageAnalysis",
						"label": "g",
						"offset": 21,
						"slot": "3",
						"type": "t_uint64"
					},
					{
						"astId": 17,
						"contract": "Solidity/tryit/gasoptimization.sol:StorageAnalysis",
						"label": "h",
						"offset": 0,
						"slot": "4",
						"type": "t_uint64"
					},
					{
						"astId": 19,
						"contract": "Solidity/tryit/gasoptimization.sol:StorageAnalysis",
						"label": "i",
						"offset": 8,
						"slot": "4",
						"type": "t_uint64"
					}
				],
				"types": {
					"t_address": {
						"encoding": "inplace",
						"label": "address",
						"numberOfBytes": "20"
					},
					"t_bool": {
						"encoding": "inplace",
						"label": "bool",
						"numberOfBytes": "1"
					},
					"t_uint128": {
						"encoding": "inplace",
						"label": "uint128",
						"numberOfBytes": "16"
					},
					"t_uint256": {
						"encoding": "inplace",
						"label": "uint256",
						"numberOfBytes": "32"
					},
					"t_uint64": {
						"encoding": "inplace",
						"label": "uint64",
						"numberOfBytes": "8"
					}
				}
			},
			"userdoc": {
				"kind": "user",
				"methods": {},
				"version": 1
			}
		}
	}
}