{
  "_format": "hh3-artifact-1",
  "contractName": "rocket",
  "sourceName": "contracts/rocket.sol",
  "abi": [
    {
      "inputs": [],
      "name": "launch",
      "outputs": [],
      "stateMutability": "nonpayable",
      "type": "function"
    },
    {
      "inputs": [],
      "name": "name",
      "outputs": [
        {
          "internalType": "string",
          "name": "",
          "type": "string"
        }
      ],
      "stateMutability": "view",
      "type": "function"
    },
    {
      "inputs": [
        {
          "internalType": "string",
          "name": "_name",
          "type": "string"
        }
      ],
      "name": "setname",
      "outputs": [],
      "stateMutability": "nonpayable",
      "type": "function"
    },
    {
      "inputs": [],
      "name": "status",
      "outputs": [
        {
          "internalType": "string",
          "name": "",
          "type": "string"
        }
      ],
      "stateMutability": "view",
      "type": "function"
    }
  ],
  "bytecode": "0x6080604052348015600e575f5ffd5b506104068061001c5f395ff3fe608060405234801561000f575f5ffd5b506004361061004a575f3560e01c806301339c211461004e57806306fdde0314610058578063200d2ed2146100765780632cefeb071461007e575b5f5ffd5b610056610091565b005b6100606100c1565b60405161006d9190610195565b60405180910390f35b61006061014c565b61005661008c3660046101de565b610159565b6040805180820190915260098152683634b33a16b1b7b33360b91b60208201526001906100be9082610315565b50565b5f80546100cd90610291565b80601f01602080910402602001604051908101604052809291908181526020018280546100f990610291565b80156101445780601f1061011b57610100808354040283529160200191610144565b820191905f5260205f20905b81548152906001019060200180831161012757829003601f168201915b505050505081565b600180546100cd90610291565b5f6101648282610315565b5060408051808201909152600881526734b3b734ba34b7b760c11b60208201526001906101919082610315565b5050565b602081525f82518060208401528060208501604085015e5f604082850101526040601f19601f83011684010191505092915050565b634e487b7160e01b5f52604160045260245ffd5b5f602082840312156101ee575f5ffd5b813567ffffffffffffffff811115610204575f5ffd5b8201601f81018413610214575f5ffd5b803567ffffffffffffffff81111561022e5761022e6101ca565b604051601f8201601f19908116603f0116810167ffffffffffffffff8111828210171561025d5761025d6101ca565b604052818152828201602001861015610274575f5ffd5b816020840160208301375f91810160200191909152949350505050565b600181811c908216806102a557607f821691505b6020821081036102c357634e487b7160e01b5f52602260045260245ffd5b50919050565b601f82111561031057805f5260205f20601f840160051c810160208510156102ee5750805b601f840160051c820191505b8181101561030d575f81556001016102fa565b50505b505050565b815167ffffffffffffffff81111561032f5761032f6101ca565b6103438161033d8454610291565b846102c9565b6020601f821160018114610375575f831561035e5750848201515b5f19600385901b1c1916600184901b17845561030d565b5f84815260208120601f198516915b828110156103a45787850151825560209485019460019092019101610384565b50848210156103c157868401515f19600387901b60f8161c191681555b50505050600190811b0190555056fea26469706673582212208c9fcaf09a5457b28927f025de172e26bd9250d2c73ea80cf7d0699f176f117b64736f6c634300081c0033",
  "linkReferences": {},
  "deployedLinkReferences": {},
  "immutableReferences": {},
  "inputSourceName": "project/contracts/rocket.sol",
  "buildInfoId": "solc-0_8_28-91c068328068f9ca64c94f239414fb0b1a4e69f8"
}