{
	"Solidity/Tokens/MasterToken.sol": {
		"MasterToken": {
			"abi": [
				{
					"inputs": [
						{
							"internalType": "string",
							"name": "_name",
							"type": "string"
						},
						{
							"internalType": "string",
							"name": "_symbol",
							"type": "string"
						},
						{
							"internalType": "uint8",
							"name": "_decimals",
							"type": "uint8"
						},
						{
							"internalType": "uint256",
							"name": "_initialSupply",
							"type": "uint256"
						},
						{
							"internalType": "uint256",
							"name": "_maxSupply",
							"type": "uint256"
						},
						{
							"internalType": "address",
							"name": "_feeCollector",
							"type": "address"
						},
						{
							"internalType": "uint256",
							"name": "_transferFee",
							"type": "uint256"
						}
					],
					"stateMutability": "nonpayable",
					"type": "constructor"
				},
				{
					"inputs": [],
					"name": "ExceedsMaxSupply",
					"type": "error"
				},
				{
					"inputs": [],
					"name": "InsufficientBalance",
					"type": "error"
				},
				{
					"inputs": [],
					"name": "InsufficientUnlockedBalance",
					"type": "error"
				},
				{
					"inputs": [],
					"name": "InvalidFee",
					"type": "error"
				},
				{
					"inputs": [],
					"name": "NotBurner",
					"type": "error"
				},
				{
					"inputs": [],
					"name": "NotMinter",
					"type": "error"
				},
				{
					"inputs": [],
					"name": "NotOwner",
					"type": "error"
				},
				{
					"inputs": [],
					"name": "ZeroAddress",
					"type": "error"
				},
				{
					"inputs": [],
					"name": "addressBlacklisted",
					"type": "error"
				},
				{
					"anonymous": false,
					"inputs": [
						{
							"indexed": true,
							"internalType": "address",
							"name": "account",
							"type": "address"
						}
					],
					"name": "AddressBlacklisted",
					"type": "event"
				},
				{
					"anonymous": false,
					"inputs": [
						{
							"indexed": true,
							"internalType": "address",
							"name": "account",
							"type": "address"
						}
					],
					"name": "AddressWhitelisted",
					"type": "event"
				},
				{
					"anonymous": false,
					"inputs": [
						{
							"indexed": true,
							"internalType": "address",
							"name": "owner",
							"type": "address"
						},
						{
							"indexed": true,
							"internalType": "address",
							"name": "spender",
							"type": "address"
						},
						{
							"indexed": false,
							"internalType": "uint256",
							"name": "value",
							"type": "uint256"
						}
					],
					"name": "Approval",
					"type": "event"
				},
				{
					"anonymous": false,
					"inputs": [
						{
							"indexed": true,
							"internalType": "address",
							"name": "from",
							"type": "address"
						},
						{
							"indexed": false,
							"internalType": "uint256",
							"name": "amount",
							"type": "uint256"
						}
					],
					"name": "Burn",
					"type": "event"
				},
				{
					"anonymous": false,
					"inputs": [
						{
							"indexed": false,
							"internalType": "address",
							"name": "newCollector",
							"type": "address"
						}
					],
					"name": "FeeCollectorUpdated",
					"type": "event"
				},
				{
					"anonymous": false,
					"inputs": [
						{
							"indexed": false,
							"internalType": "uint256",
							"name": "newFee",
							"type": "uint256"
						}
					],
					"name": "FeeUpdated",
					"type": "event"
				},
				{
					"anonymous": false,
					"inputs": [
						{
							"indexed": true,
							"internalType": "address",
							"name": "to",
							"type": "address"
						},
						{
							"indexed": false,
							"internalType": "uint256",
							"name": "amount",
							"type": "uint256"
						}
					],
					"name": "Mint",
					"type": "event"
				},
				{
					"anonymous": false,
					"inputs": [
						{
							"indexed": true,
							"internalType": "address",
							"name": "user",
							"type": "address"
						},
						{
							"indexed": false,
							"internalType": "uint256",
							"name": "amount",
							"type": "uint256"
						},
						{
							"indexed": false,
							"internalType": "uint256",
							"name": "unlockTime",
							"type": "uint256"
						}
					],
					"name": "TokensLocked",
					"type": "event"
				},
				{
					"anonymous": false,
					"inputs": [
						{
							"indexed": true,
							"internalType": "address",
							"name": "user",
							"type": "address"
						},
						{
							"indexed": false,
							"internalType": "uint256",
							"name": "amount",
							"type": "uint256"
						}
					],
					"name": "TokensUnlocked",
					"type": "event"
				},
				{
					"anonymous": false,
					"inputs": [
						{
							"indexed": true,
							"internalType": "address",
							"name": "from",
							"type": "address"
						},
						{
							"indexed": true,
							"internalType": "address",
							"name": "to",
							"type": "address"
						},
						{
							"indexed": false,
							"internalType": "uint256",
							"name": "value",
							"type": "uint256"
						}
					],
					"name": "Transfer",
					"type": "event"
				},
				{
					"inputs": [
						{
							"internalType": "address",
							"name": "account",
							"type": "address"
						}
					],
					"name": "addBurner",
					"outputs": [],
					"stateMutability": "nonpayable",
					"type": "function"
				},
				{
					"inputs": [
						{
							"internalType": "address",
							"name": "account",
							"type": "address"
						}
					],
					"name": "addMinter",
					"outputs": [],
					"stateMutability": "nonpayable",
					"type": "function"
				},
				{
					"inputs": [
						{
							"internalType": "address",
							"name": "owner9",
							"type": "address"
						},
						{
							"internalType": "address",
							"name": "spender",
							"type": "address"
						}
					],
					"name": "allowance",
					"outputs": [
						{
							"internalType": "uint256",
							"name": "",
							"type": "uint256"
						}
					],
					"stateMutability": "view",
					"type": "function"
				},
				{
					"inputs": [
						{
							"internalType": "address",
							"name": "spender",
							"type": "address"
						},
						{
							"internalType": "uint256",
							"name": "amount",
							"type": "uint256"
						}
					],
					"name": "approve",
					"outputs": [
						{
							"internalType": "bool",
							"name": "",
							"type": "bool"
						}
					],
					"stateMutability": "nonpayable",
					"type": "function"
				},
				{
					"inputs": [
						{
							"internalType": "address",
							"name": "account",
							"type": "address"
						}
					],
					"name": "balanceOf",
					"outputs": [
						{
							"internalType": "uint256",
							"name": "",
							"type": "uint256"
						}
					],
					"stateMutability": "view",
					"type": "function"
				},
				{
					"inputs": [
						{
							"internalType": "address",
							"name": "account",
							"type": "address"
						}
					],
					"name": "blacklistAddress",
					"outputs": [],
					"stateMutability": "nonpayable",
					"type": "function"
				},
				{
					"inputs": [
						{
							"internalType": "address",
							"name": "",
							"type": "address"
						}
					],
					"name": "blacklisted",
					"outputs": [
						{
							"internalType": "bool",
							"name": "",
							"type": "bool"
						}
					],
					"stateMutability": "view",
					"type": "function"
				},
				{
					"inputs": [
						{
							"internalType": "uint256",
							"name": "amount",
							"type": "uint256"
						}
					],
					"name": "burn",
					"outputs": [],
					"stateMutability": "nonpayable",
					"type": "function"
				},
				{
					"inputs": [
						{
							"internalType": "address",
							"name": "from",
							"type": "address"
						},
						{
							"internalType": "uint256",
							"name": "amount",
							"type": "uint256"
						}
					],
					"name": "burnFrom",
					"outputs": [],
					"stateMutability": "nonpayable",
					"type": "function"
				},
				{
					"inputs": [
						{
							"internalType": "address",
							"name": "",
							"type": "address"
						}
					],
					"name": "burners",
					"outputs": [
						{
							"internalType": "bool",
							"name": "",
							"type": "bool"
						}
					],
					"stateMutability": "view",
					"type": "function"
				},
				{
					"inputs": [],
					"name": "decimals",
					"outputs": [
						{
							"internalType": "uint8",
							"name": "",
							"type": "uint8"
						}
					],
					"stateMutability": "view",
					"type": "function"
				},
				{
					"inputs": [],
					"name": "feeCollector",
					"outputs": [
						{
							"internalType": "address",
							"name": "",
							"type": "address"
						}
					],
					"stateMutability": "view",
					"type": "function"
				},
				{
					"inputs": [
						{
							"internalType": "address",
							"name": "user",
							"type": "address"
						}
					],
					"name": "getLockDetails",
					"outputs": [
						{
							"components": [
								{
									"internalType": "uint256",
									"name": "amount",
									"type": "uint256"
								},
								{
									"internalType": "uint256",
									"name": "unlockTime",
									"type": "uint256"
								}
							],
							"internalType": "struct MasterToken.LockedBalance[]",
							"name": "",
							"type": "tuple[]"
						}
					],
					"stateMutability": "view",
					"type": "function"
				},
				{
					"inputs": [
						{
							"internalType": "address",
							"name": "user",
							"type": "address"
						}
					],
					"name": "getUnlockedBalance",
					"outputs": [
						{
							"internalType": "uint256",
							"name": "",
							"type": "uint256"
						}
					],
					"stateMutability": "view",
					"type": "function"
				},
				{
					"inputs": [
						{
							"internalType": "address",
							"name": "user",
							"type": "address"
						},
						{
							"internalType": "uint256",
							"name": "amount",
							"type": "uint256"
						},
						{
							"internalType": "uint256",
							"name": "unlockTime",
							"type": "uint256"
						}
					],
					"name": "lockTokens",
					"outputs": [],
					"stateMutability": "nonpayable",
					"type": "function"
				},
				{
					"inputs": [
						{
							"internalType": "address",
							"name": "",
							"type": "address"
						},
						{
							"internalType": "uint256",
							"name": "",
							"type": "uint256"
						}
					],
					"name": "lockedBalances",
					"outputs": [
						{
							"internalType": "uint256",
							"name": "amount",
							"type": "uint256"
						},
						{
							"internalType": "uint256",
							"name": "unlockTime",
							"type": "uint256"
						}
					],
					"stateMutability": "view",
					"type": "function"
				},
				{
					"inputs": [],
					"name": "maxFee",
					"outputs": [
						{
							"internalType": "uint256",
							"name": "",
							"type": "uint256"
						}
					],
					"stateMutability": "view",
					"type": "function"
				},
				{
					"inputs": [],
					"name": "maxSupply",
					"outputs": [
						{
							"internalType": "uint256",
							"name": "",
							"type": "uint256"
						}
					],
					"stateMutability": "view",
					"type": "function"
				},
				{
					"inputs": [
						{
							"internalType": "address",
							"name": "to",
							"type": "address"
						},
						{
							"internalType": "uint256",
							"name": "amount",
							"type": "uint256"
						}
					],
					"name": "mint",
					"outputs": [],
					"stateMutability": "nonpayable",
					"type": "function"
				},
				{
					"inputs": [
						{
							"internalType": "address",
							"name": "",
							"type": "address"
						}
					],
					"name": "minters",
					"outputs": [
						{
							"internalType": "bool",
							"name": "",
							"type": "bool"
						}
					],
					"stateMutability": "view",
					"type": "function"
				},
				{
					"inputs": [],
					"name": "name",
					"outputs": [
						{
							"internalType": "string",
							"name": "",
							"type": "string"
						}
					],
					"stateMutability": "view",
					"type": "function"
				},
				{
					"inputs": [],
					"name": "owner",
					"outputs": [
						{
							"internalType": "address",
							"name": "",
							"type": "address"
						}
					],
					"stateMutability": "view",
					"type": "function"
				},
				{
					"inputs": [
						{
							"internalType": "address",
							"name": "account",
							"type": "address"
						}
					],
					"name": "removeBurner",
					"outputs": [],
					"stateMutability": "nonpayable",
					"type": "function"
				},
				{
					"inputs": [
						{
							"internalType": "address",
							"name": "account",
							"type": "address"
						}
					],
					"name": "removeMinter",
					"outputs": [],
					"stateMutability": "nonpayable",
					"type": "function"
				},
				{
					"inputs": [],
					"name": "symbol",
					"outputs": [
						{
							"internalType": "string",
							"name": "",
							"type": "string"
						}
					],
					"stateMutability": "view",
					"type": "function"
				},
				{
					"inputs": [
						{
							"internalType": "address",
							"name": "",
							"type": "address"
						}
					],
					"name": "totalLocked",
					"outputs": [
						{
							"internalType": "uint256",
							"name": "",
							"type": "uint256"
						}
					],
					"stateMutability": "view",
					"type": "function"
				},
				{
					"inputs": [],
					"name": "totalSupply",
					"outputs": [
						{
							"internalType": "uint256",
							"name": "",
							"type": "uint256"
						}
					],
					"stateMutability": "view",
					"type": "function"
				},
				{
					"inputs": [
						{
							"internalType": "address",
							"name": "to",
							"type": "address"
						},
						{
							"internalType": "uint256",
							"name": "amount",
							"type": "uint256"
						}
					],
					"name": "transfer",
					"outputs": [
						{
							"internalType": "bool",
							"name": "",
							"type": "bool"
						}
					],
					"stateMutability": "nonpayable",
					"type": "function"
				},
				{
					"inputs": [],
					"name": "transferFee",
					"outputs": [
						{
							"internalType": "uint256",
							"name": "",
							"type": "uint256"
						}
					],
					"stateMutability": "view",
					"type": "function"
				},
				{
					"inputs": [
						{
							"internalType": "address",
							"name": "from",
							"type": "address"
						},
						{
							"internalType": "address",
							"name": "to",
							"type": "address"
						},
						{
							"internalType": "uint256",
							"name": "amount",
							"type": "uint256"
						}
					],
					"name": "transferFrom",
					"outputs": [
						{
							"internalType": "bool",
							"name": "",
							"type": "bool"
						}
					],
					"stateMutability": "nonpayable",
					"type": "function"
				},
				{
					"inputs": [
						{
							"internalType": "address",
							"name": "user",
							"type": "address"
						}
					],
					"name": "unlockTokens",
					"outputs": [],
					"stateMutability": "nonpayable",
					"type": "function"
				},
				{
					"inputs": [
						{
							"internalType": "uint256",
							"name": "newFee",
							"type": "uint256"
						}
					],
					"name": "updateFee",
					"outputs": [],
					"stateMutability": "nonpayable",
					"type": "function"
				},
				{
					"inputs": [
						{
							"internalType": "address",
							"name": "newCollector",
							"type": "address"
						}
					],
					"name": "updateFeeCollector",
					"outputs": [],
					"stateMutability": "nonpayable",
					"type": "function"
				},
				{
					"inputs": [
						{
							"internalType": "address",
							"name": "account",
							"type": "address"
						}
					],
					"name": "whitelistAddress",
					"outputs": [],
					"stateMutability": "nonpayable",
					"type": "function"
				}
			],
			"devdoc": {
				"kind": "dev",
				"methods": {},
				"version": 1
			},
			"evm": {
				"assembly": "    /* \"Solidity/Tokens/MasterToken.sol\":61:10618  contract MasterToken {... */\n  mstore(0x40, 0x80)\n    /* \"Solidity/Tokens/MasterToken.sol\":539:543  1000 */\n  0x03e8\n    /* \"Solidity/Tokens/MasterToken.sol\":515:543  uint256 public maxFee = 1000 */\n  0x09\n  sstore\n    /* \"Solidity/Tokens/MasterToken.sol\":2650:3446  constructor(... */\n  callvalue\n  dup1\n  iszero\n  tag_1\n  jumpi\n  revert(0x00, 0x00)\ntag_1:\n  pop\n  mload(0x40)\n  sub(codesize, bytecodeSize)\n  dup1\n  bytecodeSize\n  dup4\n  codecopy\n  dup2\n  dup2\n  add\n  0x40\n  mstore\n  dup2\n  add\n  swap1\n  tag_2\n  swap2\n  swap1\n  tag_3\n  jump\t// in\ntag_2:\n    /* \"Solidity/Tokens/MasterToken.sol\":2900:2905  _name */\n  dup7\n    /* \"Solidity/Tokens/MasterToken.sol\":2893:2897  name */\n  0x00\n    /* \"Solidity/Tokens/MasterToken.sol\":2893:2905  name = _name */\n  swap1\n  dup2\n  tag_6\n  swap2\n  swap1\n  tag_7\n  jump\t// in\ntag_6:\n  pop\n    /* \"Solidity/Tokens/MasterToken.sol\":2925:2932  _symbol */\n  dup6\n    /* \"Solidity/Tokens/MasterToken.sol\":2916:2922  symbol */\n  0x01\n    /* \"Solidity/Tokens/MasterToken.sol\":2916:2932  symbol = _symbol */\n  swap1\n  dup2\n  tag_8\n  swap2\n  swap1\n  tag_7\n  jump\t// in\ntag_8:\n  pop\n    /* \"Solidity/Tokens/MasterToken.sol\":2954:2963  _decimals */\n  dup5\n    /* \"Solidity/Tokens/MasterToken.sol\":2943:2951  decimals */\n  0x02\n  0x00\n    /* \"Solidity/Tokens/MasterToken.sol\":2943:2963  decimals = _decimals */\n  0x0100\n  exp\n  dup2\n  sload\n  dup2\n  0xff\n  mul\n  not\n  and\n  swap1\n  dup4\n  0xff\n  and\n  mul\n  or\n  swap1\n  sstore\n  pop\n    /* \"Solidity/Tokens/MasterToken.sol\":3003:3012  _decimals */\n  dup5\n    /* \"Solidity/Tokens/MasterToken.sol\":2999:3001  10 */\n  0x0a\n    /* \"Solidity/Tokens/MasterToken.sol\":2999:3012  10**_decimals */\n  tag_9\n  swap2\n  swap1\n  tag_10\n  jump\t// in\ntag_9:\n    /* \"Solidity/Tokens/MasterToken.sol\":2986:2996  _maxSupply */\n  dup4\n    /* \"Solidity/Tokens/MasterToken.sol\":2986:3012  _maxSupply * 10**_decimals */\n  tag_11\n  swap2\n  swap1\n  tag_12\n  jump\t// in\ntag_11:\n    /* \"Solidity/Tokens/MasterToken.sol\":2974:2983  maxSupply */\n  0x04\n    /* \"Solidity/Tokens/MasterToken.sol\":2974:3012  maxSupply = _maxSupply * 10**_decimals */\n  dup2\n  swap1\n  sstore\n  pop\n    /* \"Solidity/Tokens/MasterToken.sol\":3041:3051  msg.sender */\n  caller\n    /* \"Solidity/Tokens/MasterToken.sol\":3033:3038  owner */\n  0x0a\n  0x00\n    /* \"Solidity/Tokens/MasterToken.sol\":3033:3051  owner = msg.sender */\n  0x0100\n  exp\n  dup2\n  sload\n  dup2\n  0xffffffffffffffffffffffffffffffffffffffff\n  mul\n  not\n  and\n  swap1\n  dup4\n  0xffffffffffffffffffffffffffffffffffffffff\n  and\n  mul\n  or\n  swap1\n  sstore\n  pop\n    /* \"Solidity/Tokens/MasterToken.sol\":3077:3090  _feeCollector */\n  dup2\n    /* \"Solidity/Tokens/MasterToken.sol\":3062:3074  feeCollector */\n  0x07\n  0x00\n    /* \"Solidity/Tokens/MasterToken.sol\":3062:3090  feeCollector = _feeCollector */\n  0x0100\n  exp\n  dup2\n  sload\n  dup2\n  0xffffffffffffffffffffffffffffffffffffffff\n  mul\n  not\n  and\n  swap1\n  dup4\n  0xffffffffffffffffffffffffffffffffffffffff\n  and\n  mul\n  or\n  swap1\n  sstore\n  pop\n    /* \"Solidity/Tokens/MasterToken.sol\":3158:3162  true */\n  0x01\n    /* \"Solidity/Tokens/MasterToken.sol\":3136:3143  minters */\n  0x0b\n    /* \"Solidity/Tokens/MasterToken.sol\":3136:3155  minters[msg.sender] */\n  0x00\n    /* \"Solidity/Tokens/MasterToken.sol\":3144:3154  msg.sender */\n  caller\n    /* \"Solidity/Tokens/MasterToken.sol\":3136:3155  minters[msg.sender] */\n  0xffffffffffffffffffffffffffffffffffffffff\n  and\n  0xffffffffffffffffffffffffffffffffffffffff\n  and\n  dup2\n  mstore\n  0x20\n  add\n  swap1\n  dup2\n  mstore\n  0x20\n  add\n  0x00\n  keccak256\n  0x00\n    /* \"Solidity/Tokens/MasterToken.sol\":3136:3162  minters[msg.sender] = true */\n  0x0100\n  exp\n  dup2\n  sload\n  dup2\n  0xff\n  mul\n  not\n  and\n  swap1\n  dup4\n  iszero\n  iszero\n  mul\n  or\n  swap1\n  sstore\n  pop\n    /* \"Solidity/Tokens/MasterToken.sol\":3195:3199  true */\n  0x01\n    /* \"Solidity/Tokens/MasterToken.sol\":3173:3180  burners */\n  0x0c\n    /* \"Solidity/Tokens/MasterToken.sol\":3173:3192  burners[msg.sender] */\n  0x00\n    /* \"Solidity/Tokens/MasterToken.sol\":3181:3191  msg.sender */\n  caller\n    /* \"Solidity/Tokens/MasterToken.sol\":3173:3192  burners[msg.sender] */\n  0xffffffffffffffffffffffffffffffffffffffff\n  and\n  0xffffffffffffffffffffffffffffffffffffffff\n  and\n  dup2\n  mstore\n  0x20\n  add\n  swap1\n  dup2\n  mstore\n  0x20\n  add\n  0x00\n  keccak256\n  0x00\n    /* \"Solidity/Tokens/MasterToken.sol\":3173:3199  burners[msg.sender] = true */\n  0x0100\n  exp\n  dup2\n  sload\n  dup2\n  0xff\n  mul\n  not\n  and\n  swap1\n  dup4\n  iszero\n  iszero\n  mul\n  or\n  swap1\n  sstore\n  pop\n    /* \"Solidity/Tokens/MasterToken.sol\":3272:3278  maxFee */\n  sload(0x09)\n    /* \"Solidity/Tokens/MasterToken.sol\":3257:3269  _transferFee */\n  dup2\n    /* \"Solidity/Tokens/MasterToken.sol\":3257:3278  _transferFee > maxFee */\n  gt\n    /* \"Solidity/Tokens/MasterToken.sol\":3253:3299  if (_transferFee > maxFee) revert InvalidFee() */\n  iszero\n  tag_13\n  jumpi\n    /* \"Solidity/Tokens/MasterToken.sol\":3287:3299  InvalidFee() */\n  mload(0x40)\n  0x58d620b300000000000000000000000000000000000000000000000000000000\n  dup2\n  mstore\n  0x04\n  add\n  mload(0x40)\n  dup1\n  swap2\n  sub\n  swap1\n  revert\n    /* \"Solidity/Tokens/MasterToken.sol\":3253:3299  if (_transferFee > maxFee) revert InvalidFee() */\ntag_13:\n    /* \"Solidity/Tokens/MasterToken.sol\":3324:3336  _transferFee */\n  dup1\n    /* \"Solidity/Tokens/MasterToken.sol\":3310:3321  transferFee */\n  0x08\n    /* \"Solidity/Tokens/MasterToken.sol\":3310:3336  transferFee = _transferFee */\n  dup2\n  swap1\n  sstore\n  pop\n    /* \"Solidity/Tokens/MasterToken.sol\":3389:3438  _mint(msg.sender, _initialSupply * 10**_decimals) */\n  tag_14\n    /* \"Solidity/Tokens/MasterToken.sol\":3395:3405  msg.sender */\n  caller\n    /* \"Solidity/Tokens/MasterToken.sol\":3428:3437  _decimals */\n  dup7\n    /* \"Solidity/Tokens/MasterToken.sol\":3424:3426  10 */\n  0x0a\n    /* \"Solidity/Tokens/MasterToken.sol\":3424:3437  10**_decimals */\n  tag_15\n  swap2\n  swap1\n  tag_10\n  jump\t// in\ntag_15:\n    /* \"Solidity/Tokens/MasterToken.sol\":3407:3421  _initialSupply */\n  dup7\n    /* \"Solidity/Tokens/MasterToken.sol\":3407:3437  _initialSupply * 10**_decimals */\n  tag_16\n  swap2\n  swap1\n  tag_12\n  jump\t// in\ntag_16:\n    /* \"Solidity/Tokens/MasterToken.sol\":3389:3394  _mint */\n  shl(0x20, tag_17)\n    /* \"Solidity/Tokens/MasterToken.sol\":3389:3438  _mint(msg.sender, _initialSupply * 10**_decimals) */\n  0x20\n  shr\n  jump\t// in\ntag_14:\n    /* \"Solidity/Tokens/MasterToken.sol\":2650:3446  constructor(... */\n  pop\n  pop\n  pop\n  pop\n  pop\n  pop\n  pop\n    /* \"Solidity/Tokens/MasterToken.sol\":61:10618  contract MasterToken {... */\n  jump(tag_18)\n    /* \"Solidity/Tokens/MasterToken.sol\":4989:5409  function _mint(address to, uint256 amount) internal {... */\ntag_17:\n    /* \"Solidity/Tokens/MasterToken.sol\":5070:5071  0 */\n  0x00\n    /* \"Solidity/Tokens/MasterToken.sol\":5056:5072  to == address(0) */\n  0xffffffffffffffffffffffffffffffffffffffff\n  and\n    /* \"Solidity/Tokens/MasterToken.sol\":5056:5058  to */\n  dup3\n    /* \"Solidity/Tokens/MasterToken.sol\":5056:5072  to == address(0) */\n  0xffffffffffffffffffffffffffffffffffffffff\n  and\n  sub\n    /* \"Solidity/Tokens/MasterToken.sol\":5052:5094  if (to == address(0)) revert ZeroAddress() */\n  tag_20\n  jumpi\n    /* \"Solidity/Tokens/MasterToken.sol\":5081:5094  ZeroAddress() */\n  mload(0x40)\n  0xd92e233d00000000000000000000000000000000000000000000000000000000\n  dup2\n  mstore\n  0x04\n  add\n  mload(0x40)\n  dup1\n  swap2\n  sub\n  swap1\n  revert\n    /* \"Solidity/Tokens/MasterToken.sol\":5052:5094  if (to == address(0)) revert ZeroAddress() */\ntag_20:\n    /* \"Solidity/Tokens/MasterToken.sol\":5115:5137  uint256 newTotalSupply */\n  0x00\n    /* \"Solidity/Tokens/MasterToken.sol\":5154:5160  amount */\n  dup2\n    /* \"Solidity/Tokens/MasterToken.sol\":5140:5151  totalSupply */\n  sload(0x03)\n    /* \"Solidity/Tokens/MasterToken.sol\":5140:5160  totalSupply + amount */\n  tag_21\n  swap2\n  swap1\n  tag_22\n  jump\t// in\ntag_21:\n    /* \"Solidity/Tokens/MasterToken.sol\":5115:5160  uint256 newTotalSupply = totalSupply + amount */\n  swap1\n  pop\n    /* \"Solidity/Tokens/MasterToken.sol\":5192:5201  maxSupply */\n  sload(0x04)\n    /* \"Solidity/Tokens/MasterToken.sol\":5175:5189  newTotalSupply */\n  dup2\n    /* \"Solidity/Tokens/MasterToken.sol\":5175:5201  newTotalSupply > maxSupply */\n  gt\n    /* \"Solidity/Tokens/MasterToken.sol\":5171:5228  if (newTotalSupply > maxSupply) revert ExceedsMaxSupply() */\n  iszero\n  tag_23\n  jumpi\n    /* \"Solidity/Tokens/MasterToken.sol\":5210:5228  ExceedsMaxSupply() */\n  mload(0x40)\n  0xc30436e900000000000000000000000000000000000000000000000000000000\n  dup2\n  mstore\n  0x04\n  add\n  mload(0x40)\n  dup1\n  swap2\n  sub\n  swap1\n  revert\n    /* \"Solidity/Tokens/MasterToken.sol\":5171:5228  if (newTotalSupply > maxSupply) revert ExceedsMaxSupply() */\ntag_23:\n    /* \"Solidity/Tokens/MasterToken.sol\":5263:5277  newTotalSupply */\n  dup1\n    /* \"Solidity/Tokens/MasterToken.sol\":5249:5260  totalSupply */\n  0x03\n    /* \"Solidity/Tokens/MasterToken.sol\":5249:5277  totalSupply = newTotalSupply */\n  dup2\n  swap1\n  sstore\n  pop\n    /* \"Solidity/Tokens/MasterToken.sol\":5305:5311  amount */\n  dup2\n    /* \"Solidity/Tokens/MasterToken.sol\":5288:5297  _balances */\n  0x05\n    /* \"Solidity/Tokens/MasterToken.sol\":5288:5301  _balances[to] */\n  0x00\n    /* \"Solidity/Tokens/MasterToken.sol\":5298:5300  to */\n  dup6\n    /* \"Solidity/Tokens/MasterToken.sol\":5288:5301  _balances[to] */\n  0xffffffffffffffffffffffffffffffffffffffff\n  and\n  0xffffffffffffffffffffffffffffffffffffffff\n  and\n  dup2\n  mstore\n  0x20\n  add\n  swap1\n  dup2\n  mstore\n  0x20\n  add\n  0x00\n  keccak256\n  0x00\n    /* \"Solidity/Tokens/MasterToken.sol\":5288:5311  _balances[to] += amount */\n  dup3\n  dup3\n  sload\n  tag_24\n  swap2\n  swap1\n  tag_22\n  jump\t// in\ntag_24:\n  swap3\n  pop\n  pop\n  dup2\n  swap1\n  sstore\n  pop\n    /* \"Solidity/Tokens/MasterToken.sol\":5342:5344  to */\n  dup3\n    /* \"Solidity/Tokens/MasterToken.sol\":5337:5353  Mint(to, amount) */\n  0xffffffffffffffffffffffffffffffffffffffff\n  and\n  0x0f6798a560793a54c3bcfe86a93cde1e73087d944c0ea20544137d4121396885\n    /* \"Solidity/Tokens/MasterToken.sol\":5346:5352  amount */\n  dup4\n    /* \"Solidity/Tokens/MasterToken.sol\":5337:5353  Mint(to, amount) */\n  mload(0x40)\n  tag_25\n  swap2\n  swap1\n  tag_26\n  jump\t// in\ntag_25:\n  mload(0x40)\n  dup1\n  swap2\n  sub\n  swap1\n  log2\n    /* \"Solidity/Tokens/MasterToken.sol\":5390:5392  to */\n  dup3\n    /* \"Solidity/Tokens/MasterToken.sol\":5369:5401  Transfer(address(0), to, amount) */\n  0xffffffffffffffffffffffffffffffffffffffff\n  and\n    /* \"Solidity/Tokens/MasterToken.sol\":5386:5387  0 */\n  0x00\n    /* \"Solidity/Tokens/MasterToken.sol\":5369:5401  Transfer(address(0), to, amount) */\n  0xffffffffffffffffffffffffffffffffffffffff\n  and\n  0xddf252ad1be2c89b69c2b068fc378daa952ba7f163c4a11628f55a4df523b3ef\n    /* \"Solidity/Tokens/MasterToken.sol\":5394:5400  amount */\n  dup5\n    /* \"Solidity/Tokens/MasterToken.sol\":5369:5401  Transfer(address(0), to, amount) */\n  mload(0x40)\n  tag_27\n  swap2\n  swap1\n  tag_26\n  jump\t// in\ntag_27:\n  mload(0x40)\n  dup1\n  swap2\n  sub\n  swap1\n  log3\n    /* \"Solidity/Tokens/MasterToken.sol\":5041:5409  {... */\n  pop\n    /* \"Solidity/Tokens/MasterToken.sol\":4989:5409  function _mint(address to, uint256 amount) internal {... */\n  pop\n  pop\n  jump\t// out\n    /* \"#utility.yul\":7:82   */\ntag_28:\n    /* \"#utility.yul\":40:46   */\n  0x00\n    /* \"#utility.yul\":73:75   */\n  0x40\n    /* \"#utility.yul\":67:76   */\n  mload\n    /* \"#utility.yul\":57:76   */\n  swap1\n  pop\n    /* \"#utility.yul\":7:82   */\n  swap1\n  jump\t// out\n    /* \"#utility.yul\":88:205   */\ntag_29:\n    /* \"#utility.yul\":197:198   */\n  0x00\n    /* \"#utility.yul\":194:195   */\n  0x00\n    /* \"#utility.yul\":187:199   */\n  revert\n    /* \"#utility.yul\":211:328   */\ntag_30:\n    /* \"#utility.yul\":320:321   */\n  0x00\n    /* \"#utility.yul\":317:318   */\n  0x00\n    /* \"#utility.yul\":310:322   */\n  revert\n    /* \"#utility.yul\":334:451   */\ntag_31:\n    /* \"#utility.yul\":443:444   */\n  0x00\n    /* \"#utility.yul\":440:441   */\n  0x00\n    /* \"#utility.yul\":433:445   */\n  revert\n    /* \"#utility.yul\":457:574   */\ntag_32:\n    /* \"#utility.yul\":566:567   */\n  0x00\n    /* \"#utility.yul\":563:564   */\n  0x00\n    /* \"#utility.yul\":556:568   */\n  revert\n    /* \"#utility.yul\":580:682   */\ntag_33:\n    /* \"#utility.yul\":621:627   */\n  0x00\n    /* \"#utility.yul\":672:674   */\n  0x1f\n    /* \"#utility.yul\":668:675   */\n  not\n    /* \"#utility.yul\":663:665   */\n  0x1f\n    /* \"#utility.yul\":656:661   */\n  dup4\n    /* \"#utility.yul\":652:666   */\n  add\n    /* \"#utility.yul\":648:676   */\n  and\n    /* \"#utility.yul\":638:676   */\n  swap1\n  pop\n    /* \"#utility.yul\":580:682   */\n  swap2\n  swap1\n  pop\n  jump\t// out\n    /* \"#utility.yul\":688:868   */\ntag_34:\n    /* \"#utility.yul\":736:813   */\n  0x4e487b7100000000000000000000000000000000000000000000000000000000\n    /* \"#utility.yul\":733:734   */\n  0x00\n    /* \"#utility.yul\":726:814   */\n  mstore\n    /* \"#utility.yul\":833:837   */\n  0x41\n    /* \"#utility.yul\":830:831   */\n  0x04\n    /* \"#utility.yul\":823:838   */\n  mstore\n    /* \"#utility.yul\":857:861   */\n  0x24\n    /* \"#utility.yul\":854:855   */\n  0x00\n    /* \"#utility.yul\":847:862   */\n  revert\n    /* \"#utility.yul\":874:1155   */\ntag_35:\n    /* \"#utility.yul\":957:984   */\n  tag_83\n    /* \"#utility.yul\":979:983   */\n  dup3\n    /* \"#utility.yul\":957:984   */\n  tag_33\n  jump\t// in\ntag_83:\n    /* \"#utility.yul\":949:955   */\n  dup2\n    /* \"#utility.yul\":945:985   */\n  add\n    /* \"#utility.yul\":1087:1093   */\n  dup2\n    /* \"#utility.yul\":1075:1085   */\n  dup2\n    /* \"#utility.yul\":1072:1094   */\n  lt\n    /* \"#utility.yul\":1051:1069   */\n  0xffffffffffffffff\n    /* \"#utility.yul\":1039:1049   */\n  dup3\n    /* \"#utility.yul\":1036:1070   */\n  gt\n    /* \"#utility.yul\":1033:1095   */\n  or\n    /* \"#utility.yul\":1030:1118   */\n  iszero\n  tag_84\n  jumpi\n    /* \"#utility.yul\":1098:1116   */\n  tag_85\n  tag_34\n  jump\t// in\ntag_85:\n    /* \"#utility.yul\":1030:1118   */\ntag_84:\n    /* \"#utility.yul\":1138:1148   */\n  dup1\n    /* \"#utility.yul\":1134:1136   */\n  0x40\n    /* \"#utility.yul\":1127:1149   */\n  mstore\n    /* \"#utility.yul\":917:1155   */\n  pop\n    /* \"#utility.yul\":874:1155   */\n  pop\n  pop\n  jump\t// out\n    /* \"#utility.yul\":1161:1290   */\ntag_36:\n    /* \"#utility.yul\":1195:1201   */\n  0x00\n    /* \"#utility.yul\":1222:1242   */\n  tag_87\n  tag_28\n  jump\t// in\ntag_87:\n    /* \"#utility.yul\":1212:1242   */\n  swap1\n  pop\n    /* \"#utility.yul\":1251:1284   */\n  tag_88\n    /* \"#utility.yul\":1279:1283   */\n  dup3\n    /* \"#utility.yul\":1271:1277   */\n  dup3\n    /* \"#utility.yul\":1251:1284   */\n  tag_35\n  jump\t// in\ntag_88:\n    /* \"#utility.yul\":1161:1290   */\n  swap2\n  swap1\n  pop\n  jump\t// out\n    /* \"#utility.yul\":1296:1604   */\ntag_37:\n    /* \"#utility.yul\":1358:1362   */\n  0x00\n    /* \"#utility.yul\":1448:1466   */\n  0xffffffffffffffff\n    /* \"#utility.yul\":1440:1446   */\n  dup3\n    /* \"#utility.yul\":1437:1467   */\n  gt\n    /* \"#utility.yul\":1434:1490   */\n  iszero\n  tag_90\n  jumpi\n    /* \"#utility.yul\":1470:1488   */\n  tag_91\n  tag_34\n  jump\t// in\ntag_91:\n    /* \"#utility.yul\":1434:1490   */\ntag_90:\n    /* \"#utility.yul\":1508:1537   */\n  tag_92\n    /* \"#utility.yul\":1530:1536   */\n  dup3\n    /* \"#utility.yul\":1508:1537   */\n  tag_33\n  jump\t// in\ntag_92:\n    /* \"#utility.yul\":1500:1537   */\n  swap1\n  pop\n    /* \"#utility.yul\":1592:1596   */\n  0x20\n    /* \"#utility.yul\":1586:1590   */\n  dup2\n    /* \"#utility.yul\":1582:1597   */\n  add\n    /* \"#utility.yul\":1574:1597   */\n  swap1\n  pop\n    /* \"#utility.yul\":1296:1604   */\n  swap2\n  swap1\n  pop\n  jump\t// out\n    /* \"#utility.yul\":1610:1749   */\ntag_38:\n    /* \"#utility.yul\":1699:1705   */\n  dup3\n    /* \"#utility.yul\":1694:1697   */\n  dup2\n    /* \"#utility.yul\":1689:1692   */\n  dup4\n    /* \"#utility.yul\":1683:1706   */\n  mcopy\n    /* \"#utility.yul\":1740:1741   */\n  0x00\n    /* \"#utility.yul\":1731:1737   */\n  dup4\n    /* \"#utility.yul\":1726:1729   */\n  dup4\n    /* \"#utility.yul\":1722:1738   */\n  add\n    /* \"#utility.yul\":1715:1742   */\n  mstore\n    /* \"#utility.yul\":1610:1749   */\n  pop\n  pop\n  pop\n  jump\t// out\n    /* \"#utility.yul\":1755:2189   */\ntag_39:\n    /* \"#utility.yul\":1844:1849   */\n  0x00\n    /* \"#utility.yul\":1869:1935   */\n  tag_95\n    /* \"#utility.yul\":1885:1934   */\n  tag_96\n    /* \"#utility.yul\":1927:1933   */\n  dup5\n    /* \"#utility.yul\":1885:1934   */\n  tag_37\n  jump\t// in\ntag_96:\n    /* \"#utility.yul\":1869:1935   */\n  tag_36\n  jump\t// in\ntag_95:\n    /* \"#utility.yul\":1860:1935   */\n  swap1\n  pop\n    /* \"#utility.yul\":1958:1964   */\n  dup3\n    /* \"#utility.yul\":1951:1956   */\n  dup2\n    /* \"#utility.yul\":1944:1965   */\n  mstore\n    /* \"#utility.yul\":1996:2000   */\n  0x20\n    /* \"#utility.yul\":1989:1994   */\n  dup2\n    /* \"#utility.yul\":1985:2001   */\n  add\n    /* \"#utility.yul\":2034:2037   */\n  dup5\n    /* \"#utility.yul\":2025:2031   */\n  dup5\n    /* \"#utility.yul\":2020:2023   */\n  dup5\n    /* \"#utility.yul\":2016:2032   */\n  add\n    /* \"#utility.yul\":2013:2038   */\n  gt\n    /* \"#utility.yul\":2010:2122   */\n  iszero\n  tag_97\n  jumpi\n    /* \"#utility.yul\":2041:2120   */\n  tag_98\n  tag_32\n  jump\t// in\ntag_98:\n    /* \"#utility.yul\":2010:2122   */\ntag_97:\n    /* \"#utility.yul\":2131:2183   */\n  tag_99\n    /* \"#utility.yul\":2176:2182   */\n  dup5\n    /* \"#utility.yul\":2171:2174   */\n  dup3\n    /* \"#utility.yul\":2166:2169   */\n  dup6\n    /* \"#utility.yul\":2131:2183   */\n  tag_38\n  jump\t// in\ntag_99:\n    /* \"#utility.yul\":1850:2189   */\n  pop\n    /* \"#utility.yul\":1755:2189   */\n  swap4\n  swap3\n  pop\n  pop\n  pop\n  jump\t// out\n    /* \"#utility.yul\":2209:2564   */\ntag_40:\n    /* \"#utility.yul\":2276:2281   */\n  0x00\n    /* \"#utility.yul\":2325:2328   */\n  dup3\n    /* \"#utility.yul\":2318:2322   */\n  0x1f\n    /* \"#utility.yul\":2310:2316   */\n  dup4\n    /* \"#utility.yul\":2306:2323   */\n  add\n    /* \"#utility.yul\":2302:2329   */\n  slt\n    /* \"#utility.yul\":2292:2414   */\n  tag_101\n  jumpi\n    /* \"#utility.yul\":2333:2412   */\n  tag_102\n  tag_31\n  jump\t// in\ntag_102:\n    /* \"#utility.yul\":2292:2414   */\ntag_101:\n    /* \"#utility.yul\":2443:2449   */\n  dup2\n    /* \"#utility.yul\":2437:2450   */\n  mload\n    /* \"#utility.yul\":2468:2558   */\n  tag_103\n    /* \"#utility.yul\":2554:2557   */\n  dup5\n    /* \"#utility.yul\":2546:2552   */\n  dup3\n    /* \"#utility.yul\":2539:2543   */\n  0x20\n    /* \"#utility.yul\":2531:2537   */\n  dup7\n    /* \"#utility.yul\":2527:2544   */\n  add\n    /* \"#utility.yul\":2468:2558   */\n  tag_39\n  jump\t// in\ntag_103:\n    /* \"#utility.yul\":2459:2558   */\n  swap2\n  pop\n    /* \"#utility.yul\":2282:2564   */\n  pop\n    /* \"#utility.yul\":2209:2564   */\n  swap3\n  swap2\n  pop\n  pop\n  jump\t// out\n    /* \"#utility.yul\":2570:2656   */\ntag_41:\n    /* \"#utility.yul\":2605:2612   */\n  0x00\n    /* \"#utility.yul\":2645:2649   */\n  0xff\n    /* \"#utility.yul\":2638:2643   */\n  dup3\n    /* \"#utility.yul\":2634:2650   */\n  and\n    /* \"#utility.yul\":2623:2650   */\n  swap1\n  pop\n    /* \"#utility.yul\":2570:2656   */\n  swap2\n  swap1\n  pop\n  jump\t// out\n    /* \"#utility.yul\":2662:2780   */\ntag_42:\n    /* \"#utility.yul\":2733:2755   */\n  tag_106\n    /* \"#utility.yul\":2749:2754   */\n  dup2\n    /* \"#utility.yul\":2733:2755   */\n  tag_41\n  jump\t// in\ntag_106:\n    /* \"#utility.yul\":2726:2731   */\n  dup2\n    /* \"#utility.yul\":2723:2756   */\n  eq\n    /* \"#utility.yul\":2713:2774   */\n  tag_107\n  jumpi\n    /* \"#utility.yul\":2770:2771   */\n  0x00\n    /* \"#utility.yul\":2767:2768   */\n  0x00\n    /* \"#utility.yul\":2760:2772   */\n  revert\n    /* \"#utility.yul\":2713:2774   */\ntag_107:\n    /* \"#utility.yul\":2662:2780   */\n  pop\n  jump\t// out\n    /* \"#utility.yul\":2786:2925   */\ntag_43:\n    /* \"#utility.yul\":2841:2846   */\n  0x00\n    /* \"#utility.yul\":2872:2878   */\n  dup2\n    /* \"#utility.yul\":2866:2879   */\n  mload\n    /* \"#utility.yul\":2857:2879   */\n  swap1\n  pop\n    /* \"#utility.yul\":2888:2919   */\n  tag_109\n    /* \"#utility.yul\":2913:2918   */\n  dup2\n    /* \"#utility.yul\":2888:2919   */\n  tag_42\n  jump\t// in\ntag_109:\n    /* \"#utility.yul\":2786:2925   */\n  swap3\n  swap2\n  pop\n  pop\n  jump\t// out\n    /* \"#utility.yul\":2931:3008   */\ntag_44:\n    /* \"#utility.yul\":2968:2975   */\n  0x00\n    /* \"#utility.yul\":2997:3002   */\n  dup2\n    /* \"#utility.yul\":2986:3002   */\n  swap1\n  pop\n    /* \"#utility.yul\":2931:3008   */\n  swap2\n  swap1\n  pop\n  jump\t// out\n    /* \"#utility.yul\":3014:3136   */\ntag_45:\n    /* \"#utility.yul\":3087:3111   */\n  tag_112\n    /* \"#utility.yul\":3105:3110   */\n  dup2\n    /* \"#utility.yul\":3087:3111   */\n  tag_44\n  jump\t// in\ntag_112:\n    /* \"#utility.yul\":3080:3085   */\n  dup2\n    /* \"#utility.yul\":3077:3112   */\n  eq\n    /* \"#utility.yul\":3067:3130   */\n  tag_113\n  jumpi\n    /* \"#utility.yul\":3126:3127   */\n  0x00\n    /* \"#utility.yul\":3123:3124   */\n  0x00\n    /* \"#utility.yul\":3116:3128   */\n  revert\n    /* \"#utility.yul\":3067:3130   */\ntag_113:\n    /* \"#utility.yul\":3014:3136   */\n  pop\n  jump\t// out\n    /* \"#utility.yul\":3142:3285   */\ntag_46:\n    /* \"#utility.yul\":3199:3204   */\n  0x00\n    /* \"#utility.yul\":3230:3236   */\n  dup2\n    /* \"#utility.yul\":3224:3237   */\n  mload\n    /* \"#utility.yul\":3215:3237   */\n  swap1\n  pop\n    /* \"#utility.yul\":3246:3279   */\n  tag_115\n    /* \"#utility.yul\":3273:3278   */\n  dup2\n    /* \"#utility.yul\":3246:3279   */\n  tag_45\n  jump\t// in\ntag_115:\n    /* \"#utility.yul\":3142:3285   */\n  swap3\n  swap2\n  pop\n  pop\n  jump\t// out\n    /* \"#utility.yul\":3291:3417   */\ntag_47:\n    /* \"#utility.yul\":3328:3335   */\n  0x00\n    /* \"#utility.yul\":3368:3410   */\n  0xffffffffffffffffffffffffffffffffffffffff\n    /* \"#utility.yul\":3361:3366   */\n  dup3\n    /* \"#utility.yul\":3357:3411   */\n  and\n    /* \"#utility.yul\":3346:3411   */\n  swap1\n  pop\n    /* \"#utility.yul\":3291:3417   */\n  swap2\n  swap1\n  pop\n  jump\t// out\n    /* \"#utility.yul\":3423:3519   */\ntag_48:\n    /* \"#utility.yul\":3460:3467   */\n  0x00\n    /* \"#utility.yul\":3489:3513   */\n  tag_118\n    /* \"#utility.yul\":3507:3512   */\n  dup3\n    /* \"#utility.yul\":3489:3513   */\n  tag_47\n  jump\t// in\ntag_118:\n    /* \"#utility.yul\":3478:3513   */\n  swap1\n  pop\n    /* \"#utility.yul\":3423:3519   */\n  swap2\n  swap1\n  pop\n  jump\t// out\n    /* \"#utility.yul\":3525:3647   */\ntag_49:\n    /* \"#utility.yul\":3598:3622   */\n  tag_120\n    /* \"#utility.yul\":3616:3621   */\n  dup2\n    /* \"#utility.yul\":3598:3622   */\n  tag_48\n  jump\t// in\ntag_120:\n    /* \"#utility.yul\":3591:3596   */\n  dup2\n    /* \"#utility.yul\":3588:3623   */\n  eq\n    /* \"#utility.yul\":3578:3641   */\n  tag_121\n  jumpi\n    /* \"#utility.yul\":3637:3638   */\n  0x00\n    /* \"#utility.yul\":3634:3635   */\n  0x00\n    /* \"#utility.yul\":3627:3639   */\n  revert\n    /* \"#utility.yul\":3578:3641   */\ntag_121:\n    /* \"#utility.yul\":3525:3647   */\n  pop\n  jump\t// out\n    /* \"#utility.yul\":3653:3796   */\ntag_50:\n    /* \"#utility.yul\":3710:3715   */\n  0x00\n    /* \"#utility.yul\":3741:3747   */\n  dup2\n    /* \"#utility.yul\":3735:3748   */\n  mload\n    /* \"#utility.yul\":3726:3748   */\n  swap1\n  pop\n    /* \"#utility.yul\":3757:3790   */\n  tag_123\n    /* \"#utility.yul\":3784:3789   */\n  dup2\n    /* \"#utility.yul\":3757:3790   */\n  tag_49\n  jump\t// in\ntag_123:\n    /* \"#utility.yul\":3653:3796   */\n  swap3\n  swap2\n  pop\n  pop\n  jump\t// out\n    /* \"#utility.yul\":3802:5435   */\ntag_3:\n    /* \"#utility.yul\":3944:3950   */\n  0x00\n    /* \"#utility.yul\":3952:3958   */\n  0x00\n    /* \"#utility.yul\":3960:3966   */\n  0x00\n    /* \"#utility.yul\":3968:3974   */\n  0x00\n    /* \"#utility.yul\":3976:3982   */\n  0x00\n    /* \"#utility.yul\":3984:3990   */\n  0x00\n    /* \"#utility.yul\":3992:3998   */\n  0x00\n    /* \"#utility.yul\":4041:4044   */\n  0xe0\n    /* \"#utility.yul\":4029:4038   */\n  dup9\n    /* \"#utility.yul\":4020:4027   */\n  dup11\n    /* \"#utility.yul\":4016:4039   */\n  sub\n    /* \"#utility.yul\":4012:4045   */\n  slt\n    /* \"#utility.yul\":4009:4129   */\n  iszero\n  tag_125\n  jumpi\n    /* \"#utility.yul\":4048:4127   */\n  tag_126\n  tag_29\n  jump\t// in\ntag_126:\n    /* \"#utility.yul\":4009:4129   */\ntag_125:\n    /* \"#utility.yul\":4189:4190   */\n  0x00\n    /* \"#utility.yul\":4178:4187   */\n  dup9\n    /* \"#utility.yul\":4174:4191   */\n  add\n    /* \"#utility.yul\":4168:4192   */\n  mload\n    /* \"#utility.yul\":4219:4237   */\n  0xffffffffffffffff\n    /* \"#utility.yul\":4211:4217   */\n  dup2\n    /* \"#utility.yul\":4208:4238   */\n  gt\n    /* \"#utility.yul\":4205:4322   */\n  iszero\n  tag_127\n  jumpi\n    /* \"#utility.yul\":4241:4320   */\n  tag_128\n  tag_30\n  jump\t// in\ntag_128:\n    /* \"#utility.yul\":4205:4322   */\ntag_127:\n    /* \"#utility.yul\":4346:4420   */\n  tag_129\n    /* \"#utility.yul\":4412:4419   */\n  dup11\n    /* \"#utility.yul\":4403:4409   */\n  dup3\n    /* \"#utility.yul\":4392:4401   */\n  dup12\n    /* \"#utility.yul\":4388:4410   */\n  add\n    /* \"#utility.yul\":4346:4420   */\n  tag_40\n  jump\t// in\ntag_129:\n    /* \"#utility.yul\":4336:4420   */\n  swap8\n  pop\n    /* \"#utility.yul\":4139:4430   */\n  pop\n    /* \"#utility.yul\":4490:4492   */\n  0x20\n    /* \"#utility.yul\":4479:4488   */\n  dup9\n    /* \"#utility.yul\":4475:4493   */\n  add\n    /* \"#utility.yul\":4469:4494   */\n  mload\n    /* \"#utility.yul\":4521:4539   */\n  0xffffffffffffffff\n    /* \"#utility.yul\":4513:4519   */\n  dup2\n    /* \"#utility.yul\":4510:4540   */\n  gt\n    /* \"#utility.yul\":4507:4624   */\n  iszero\n  tag_130\n  jumpi\n    /* \"#utility.yul\":4543:4622   */\n  tag_131\n  tag_30\n  jump\t// in\ntag_131:\n    /* \"#utility.yul\":4507:4624   */\ntag_130:\n    /* \"#utility.yul\":4648:4722   */\n  tag_132\n    /* \"#utility.yul\":4714:4721   */\n  dup11\n    /* \"#utility.yul\":4705:4711   */\n  dup3\n    /* \"#utility.yul\":4694:4703   */\n  dup12\n    /* \"#utility.yul\":4690:4712   */\n  add\n    /* \"#utility.yul\":4648:4722   */\n  tag_40\n  jump\t// in\ntag_132:\n    /* \"#utility.yul\":4638:4722   */\n  swap7\n  pop\n    /* \"#utility.yul\":4440:4732   */\n  pop\n    /* \"#utility.yul\":4771:4773   */\n  0x40\n    /* \"#utility.yul\":4797:4859   */\n  tag_133\n    /* \"#utility.yul\":4851:4858   */\n  dup11\n    /* \"#utility.yul\":4842:4848   */\n  dup3\n    /* \"#utility.yul\":4831:4840   */\n  dup12\n    /* \"#utility.yul\":4827:4849   */\n  add\n    /* \"#utility.yul\":4797:4859   */\n  tag_43\n  jump\t// in\ntag_133:\n    /* \"#utility.yul\":4787:4859   */\n  swap6\n  pop\n    /* \"#utility.yul\":4742:4869   */\n  pop\n    /* \"#utility.yul\":4908:4910   */\n  0x60\n    /* \"#utility.yul\":4934:4998   */\n  tag_134\n    /* \"#utility.yul\":4990:4997   */\n  dup11\n    /* \"#utility.yul\":4981:4987   */\n  dup3\n    /* \"#utility.yul\":4970:4979   */\n  dup12\n    /* \"#utility.yul\":4966:4988   */\n  add\n    /* \"#utility.yul\":4934:4998   */\n  tag_46\n  jump\t// in\ntag_134:\n    /* \"#utility.yul\":4924:4998   */\n  swap5\n  pop\n    /* \"#utility.yul\":4879:5008   */\n  pop\n    /* \"#utility.yul\":5047:5050   */\n  0x80\n    /* \"#utility.yul\":5074:5138   */\n  tag_135\n    /* \"#utility.yul\":5130:5137   */\n  dup11\n    /* \"#utility.yul\":5121:5127   */\n  dup3\n    /* \"#utility.yul\":5110:5119   */\n  dup12\n    /* \"#utility.yul\":5106:5128   */\n  add\n    /* \"#utility.yul\":5074:5138   */\n  tag_46\n  jump\t// in\ntag_135:\n    /* \"#utility.yul\":5064:5138   */\n  swap4\n  pop\n    /* \"#utility.yul\":5018:5148   */\n  pop\n    /* \"#utility.yul\":5187:5190   */\n  0xa0\n    /* \"#utility.yul\":5214:5278   */\n  tag_136\n    /* \"#utility.yul\":5270:5277   */\n  dup11\n    /* \"#utility.yul\":5261:5267   */\n  dup3\n    /* \"#utility.yul\":5250:5259   */\n  dup12\n    /* \"#utility.yul\":5246:5268   */\n  add\n    /* \"#utility.yul\":5214:5278   */\n  tag_50\n  jump\t// in\ntag_136:\n    /* \"#utility.yul\":5204:5278   */\n  swap3\n  pop\n    /* \"#utility.yul\":5158:5288   */\n  pop\n    /* \"#utility.yul\":5327:5330   */\n  0xc0\n    /* \"#utility.yul\":5354:5418   */\n  tag_137\n    /* \"#utility.yul\":5410:5417   */\n  dup11\n    /* \"#utility.yul\":5401:5407   */\n  dup3\n    /* \"#utility.yul\":5390:5399   */\n  dup12\n    /* \"#utility.yul\":5386:5408   */\n  add\n    /* \"#utility.yul\":5354:5418   */\n  tag_46\n  jump\t// in\ntag_137:\n    /* \"#utility.yul\":5344:5418   */\n  swap2\n  pop\n    /* \"#utility.yul\":5298:5428   */\n  pop\n    /* \"#utility.yul\":3802:5435   */\n  swap3\n  swap6\n  swap9\n  swap2\n  swap5\n  swap8\n  pop\n  swap3\n  swap6\n  pop\n  jump\t// out\n    /* \"#utility.yul\":5441:5540   */\ntag_51:\n    /* \"#utility.yul\":5493:5499   */\n  0x00\n    /* \"#utility.yul\":5527:5532   */\n  dup2\n    /* \"#utility.yul\":5521:5533   */\n  mload\n    /* \"#utility.yul\":5511:5533   */\n  swap1\n  pop\n    /* \"#utility.yul\":5441:5540   */\n  swap2\n  swap1\n  pop\n  jump\t// out\n    /* \"#utility.yul\":5546:5726   */\ntag_52:\n    /* \"#utility.yul\":5594:5671   */\n  0x4e487b7100000000000000000000000000000000000000000000000000000000\n    /* \"#utility.yul\":5591:5592   */\n  0x00\n    /* \"#utility.yul\":5584:5672   */\n  mstore\n    /* \"#utility.yul\":5691:5695   */\n  0x22\n    /* \"#utility.yul\":5688:5689   */\n  0x04\n    /* \"#utility.yul\":5681:5696   */\n  mstore\n    /* \"#utility.yul\":5715:5719   */\n  0x24\n    /* \"#utility.yul\":5712:5713   */\n  0x00\n    /* \"#utility.yul\":5705:5720   */\n  revert\n    /* \"#utility.yul\":5732:6052   */\ntag_53:\n    /* \"#utility.yul\":5776:5782   */\n  0x00\n    /* \"#utility.yul\":5813:5814   */\n  0x02\n    /* \"#utility.yul\":5807:5811   */\n  dup3\n    /* \"#utility.yul\":5803:5815   */\n  div\n    /* \"#utility.yul\":5793:5815   */\n  swap1\n  pop\n    /* \"#utility.yul\":5860:5861   */\n  0x01\n    /* \"#utility.yul\":5854:5858   */\n  dup3\n    /* \"#utility.yul\":5850:5862   */\n  and\n    /* \"#utility.yul\":5881:5899   */\n  dup1\n    /* \"#utility.yul\":5871:5952   */\n  tag_141\n  jumpi\n    /* \"#utility.yul\":5937:5941   */\n  0x7f\n    /* \"#utility.yul\":5929:5935   */\n  dup3\n    /* \"#utility.yul\":5925:5942   */\n  and\n    /* \"#utility.yul\":5915:5942   */\n  swap2\n  pop\n    /* \"#utility.yul\":5871:5952   */\ntag_141:\n    /* \"#utility.yul\":5999:6001   */\n  0x20\n    /* \"#utility.yul\":5991:5997   */\n  dup3\n    /* \"#utility.yul\":5988:6002   */\n  lt\n    /* \"#utility.yul\":5968:5986   */\n  dup2\n    /* \"#utility.yul\":5965:6003   */\n  sub\n    /* \"#utility.yul\":5962:6046   */\n  tag_142\n  jumpi\n    /* \"#utility.yul\":6018:6036   */\n  tag_143\n  tag_52\n  jump\t// in\ntag_143:\n    /* \"#utility.yul\":5962:6046   */\ntag_142:\n    /* \"#utility.yul\":5783:6052   */\n  pop\n    /* \"#utility.yul\":5732:6052   */\n  swap2\n  swap1\n  pop\n  jump\t// out\n    /* \"#utility.yul\":6058:6199   */\ntag_54:\n    /* \"#utility.yul\":6107:6111   */\n  0x00\n    /* \"#utility.yul\":6130:6133   */\n  dup2\n    /* \"#utility.yul\":6122:6133   */\n  swap1\n  pop\n    /* \"#utility.yul\":6153:6156   */\n  dup2\n    /* \"#utility.yul\":6150:6151   */\n  0x00\n    /* \"#utility.yul\":6143:6157   */\n  mstore\n    /* \"#utility.yul\":6187:6191   */\n  0x20\n    /* \"#utility.yul\":6184:6185   */\n  0x00\n    /* \"#utility.yul\":6174:6192   */\n  keccak256\n    /* \"#utility.yul\":6166:6192   */\n  swap1\n  pop\n    /* \"#utility.yul\":6058:6199   */\n  swap2\n  swap1\n  pop\n  jump\t// out\n    /* \"#utility.yul\":6205:6298   */\ntag_55:\n    /* \"#utility.yul\":6242:6248   */\n  0x00\n    /* \"#utility.yul\":6289:6291   */\n  0x20\n    /* \"#utility.yul\":6284:6286   */\n  0x1f\n    /* \"#utility.yul\":6277:6282   */\n  dup4\n    /* \"#utility.yul\":6273:6287   */\n  add\n    /* \"#utility.yul\":6269:6292   */\n  div\n    /* \"#utility.yul\":6259:6292   */\n  swap1\n  pop\n    /* \"#utility.yul\":6205:6298   */\n  swap2\n  swap1\n  pop\n  jump\t// out\n    /* \"#utility.yul\":6304:6411   */\ntag_56:\n    /* \"#utility.yul\":6348:6356   */\n  0x00\n    /* \"#utility.yul\":6398:6403   */\n  dup3\n    /* \"#utility.yul\":6392:6396   */\n  dup3\n    /* \"#utility.yul\":6388:6404   */\n  shl\n    /* \"#utility.yul\":6367:6404   */\n  swap1\n  pop\n    /* \"#utility.yul\":6304:6411   */\n  swap3\n  swap2\n  pop\n  pop\n  jump\t// out\n    /* \"#utility.yul\":6417:6810   */\ntag_57:\n    /* \"#utility.yul\":6486:6492   */\n  0x00\n    /* \"#utility.yul\":6536:6537   */\n  0x08\n    /* \"#utility.yul\":6524:6534   */\n  dup4\n    /* \"#utility.yul\":6520:6538   */\n  mul\n    /* \"#utility.yul\":6559:6656   */\n  tag_148\n    /* \"#utility.yul\":6589:6655   */\n  0xffffffffffffffffffffffffffffffffffffffffffffffffffffffffffffffff\n    /* \"#utility.yul\":6578:6587   */\n  dup3\n    /* \"#utility.yul\":6559:6656   */\n  tag_56\n  jump\t// in\ntag_148:\n    /* \"#utility.yul\":6677:6716   */\n  tag_149\n    /* \"#utility.yul\":6707:6715   */\n  dup7\n    /* \"#utility.yul\":6696:6705   */\n  dup4\n    /* \"#utility.yul\":6677:6716   */\n  tag_56\n  jump\t// in\ntag_149:\n    /* \"#utility.yul\":6665:6716   */\n  swap6\n  pop\n    /* \"#utility.yul\":6749:6753   */\n  dup1\n    /* \"#utility.yul\":6745:6754   */\n  not\n    /* \"#utility.yul\":6738:6743   */\n  dup5\n    /* \"#utility.yul\":6734:6755   */\n  and\n    /* \"#utility.yul\":6725:6755   */\n  swap4\n  pop\n    /* \"#utility.yul\":6798:6802   */\n  dup1\n    /* \"#utility.yul\":6788:6796   */\n  dup7\n    /* \"#utility.yul\":6784:6803   */\n  and\n    /* \"#utility.yul\":6777:6782   */\n  dup5\n    /* \"#utility.yul\":6774:6804   */\n  or\n    /* \"#utility.yul\":6764:6804   */\n  swap3\n  pop\n    /* \"#utility.yul\":6493:6810   */\n  pop\n  pop\n    /* \"#utility.yul\":6417:6810   */\n  swap4\n  swap3\n  pop\n  pop\n  pop\n  jump\t// out\n    /* \"#utility.yul\":6816:6876   */\ntag_58:\n    /* \"#utility.yul\":6844:6847   */\n  0x00\n    /* \"#utility.yul\":6865:6870   */\n  dup2\n    /* \"#utility.yul\":6858:6870   */\n  swap1\n  pop\n    /* \"#utility.yul\":6816:6876   */\n  swap2\n  swap1\n  pop\n  jump\t// out\n    /* \"#utility.yul\":6882:7024   */\ntag_59:\n    /* \"#utility.yul\":6932:6941   */\n  0x00\n    /* \"#utility.yul\":6965:7018   */\n  tag_152\n    /* \"#utility.yul\":6983:7017   */\n  tag_153\n    /* \"#utility.yul\":6992:7016   */\n  tag_154\n    /* \"#utility.yul\":7010:7015   */\n  dup5\n    /* \"#utility.yul\":6992:7016   */\n  tag_44\n  jump\t// in\ntag_154:\n    /* \"#utility.yul\":6983:7017   */\n  tag_58\n  jump\t// in\ntag_153:\n    /* \"#utility.yul\":6965:7018   */\n  tag_44\n  jump\t// in\ntag_152:\n    /* \"#utility.yul\":6952:7018   */\n  swap1\n  pop\n    /* \"#utility.yul\":6882:7024   */\n  swap2\n  swap1\n  pop\n  jump\t// out\n    /* \"#utility.yul\":7030:7105   */\ntag_60:\n    /* \"#utility.yul\":7073:7076   */\n  0x00\n    /* \"#utility.yul\":7094:7099   */\n  dup2\n    /* \"#utility.yul\":7087:7099   */\n  swap1\n  pop\n    /* \"#utility.yul\":7030:7105   */\n  swap2\n  swap1\n  pop\n  jump\t// out\n    /* \"#utility.yul\":7111:7380   */\ntag_61:\n    /* \"#utility.yul\":7221:7260   */\n  tag_157\n    /* \"#utility.yul\":7252:7259   */\n  dup4\n    /* \"#utility.yul\":7221:7260   */\n  tag_59\n  jump\t// in\ntag_157:\n    /* \"#utility.yul\":7282:7373   */\n  tag_158\n    /* \"#utility.yul\":7331:7372   */\n  tag_159\n    /* \"#utility.yul\":7355:7371   */\n  dup3\n    /* \"#utility.yul\":7331:7372   */\n  tag_60\n  jump\t// in\ntag_159:\n    /* \"#utility.yul\":7323:7329   */\n  dup5\n    /* \"#utility.yul\":7316:7320   */\n  dup5\n    /* \"#utility.yul\":7310:7321   */\n  sload\n    /* \"#utility.yul\":7282:7373   */\n  tag_57\n  jump\t// in\ntag_158:\n    /* \"#utility.yul\":7276:7280   */\n  dup3\n    /* \"#utility.yul\":7269:7374   */\n  sstore\n    /* \"#utility.yul\":7187:7380   */\n  pop\n    /* \"#utility.yul\":7111:7380   */\n  pop\n  pop\n  pop\n  jump\t// out\n    /* \"#utility.yul\":7386:7459   */\ntag_62:\n    /* \"#utility.yul\":7431:7434   */\n  0x00\n    /* \"#utility.yul\":7452:7453   */\n  0x00\n    /* \"#utility.yul\":7445:7453   */\n  swap1\n  pop\n    /* \"#utility.yul\":7386:7459   */\n  swap1\n  jump\t// out\n    /* \"#utility.yul\":7465:7654   */\ntag_63:\n    /* \"#utility.yul\":7542:7574   */\n  tag_162\n  tag_62\n  jump\t// in\ntag_162:\n    /* \"#utility.yul\":7583:7648   */\n  tag_163\n    /* \"#utility.yul\":7641:7647   */\n  dup2\n    /* \"#utility.yul\":7633:7639   */\n  dup5\n    /* \"#utility.yul\":7627:7631   */\n  dup5\n    /* \"#utility.yul\":7583:7648   */\n  tag_61\n  jump\t// in\ntag_163:\n    /* \"#utility.yul\":7518:7654   */\n  pop\n    /* \"#utility.yul\":7465:7654   */\n  pop\n  pop\n  jump\t// out\n    /* \"#utility.yul\":7660:7846   */\ntag_64:\n    /* \"#utility.yul\":7720:7840   */\ntag_165:\n    /* \"#utility.yul\":7737:7740   */\n  dup2\n    /* \"#utility.yul\":7730:7735   */\n  dup2\n    /* \"#utility.yul\":7727:7741   */\n  lt\n    /* \"#utility.yul\":7720:7840   */\n  iszero\n  tag_167\n  jumpi\n    /* \"#utility.yul\":7791:7830   */\n  tag_168\n    /* \"#utility.yul\":7828:7829   */\n  0x00\n    /* \"#utility.yul\":7821:7826   */\n  dup3\n    /* \"#utility.yul\":7791:7830   */\n  tag_63\n  jump\t// in\ntag_168:\n    /* \"#utility.yul\":7764:7765   */\n  0x01\n    /* \"#utility.yul\":7757:7762   */\n  dup2\n    /* \"#utility.yul\":7753:7766   */\n  add\n    /* \"#utility.yul\":7744:7766   */\n  swap1\n  pop\n    /* \"#utility.yul\":7720:7840   */\n  jump(tag_165)\ntag_167:\n    /* \"#utility.yul\":7660:7846   */\n  pop\n  pop\n  jump\t// out\n    /* \"#utility.yul\":7852:8395   */\ntag_65:\n    /* \"#utility.yul\":7953:7955   */\n  0x1f\n    /* \"#utility.yul\":7948:7951   */\n  dup3\n    /* \"#utility.yul\":7945:7956   */\n  gt\n    /* \"#utility.yul\":7942:8388   */\n  iszero\n  tag_170\n  jumpi\n    /* \"#utility.yul\":7987:8025   */\n  tag_171\n    /* \"#utility.yul\":8019:8024   */\n  dup2\n    /* \"#utility.yul\":7987:8025   */\n  tag_54\n  jump\t// in\ntag_171:\n    /* \"#utility.yul\":8071:8100   */\n  tag_172\n    /* \"#utility.yul\":8089:8099   */\n  dup5\n    /* \"#utility.yul\":8071:8100   */\n  tag_55\n  jump\t// in\ntag_172:\n    /* \"#utility.yul\":8061:8069   */\n  dup2\n    /* \"#utility.yul\":8057:8101   */\n  add\n    /* \"#utility.yul\":8254:8256   */\n  0x20\n    /* \"#utility.yul\":8242:8252   */\n  dup6\n    /* \"#utility.yul\":8239:8257   */\n  lt\n    /* \"#utility.yul\":8236:8285   */\n  iszero\n  tag_173\n  jumpi\n    /* \"#utility.yul\":8275:8283   */\n  dup2\n    /* \"#utility.yul\":8260:8283   */\n  swap1\n  pop\n    /* \"#utility.yul\":8236:8285   */\ntag_173:\n    /* \"#utility.yul\":8298:8378   */\n  tag_174\n    /* \"#utility.yul\":8354:8376   */\n  tag_175\n    /* \"#utility.yul\":8372:8375   */\n  dup6\n    /* \"#utility.yul\":8354:8376   */\n  tag_55\n  jump\t// in\ntag_175:\n    /* \"#utility.yul\":8344:8352   */\n  dup4\n    /* \"#utility.yul\":8340:8377   */\n  add\n    /* \"#utility.yul\":8327:8338   */\n  dup3\n    /* \"#utility.yul\":8298:8378   */\n  tag_64\n  jump\t// in\ntag_174:\n    /* \"#utility.yul\":7957:8388   */\n  pop\n  pop\n    /* \"#utility.yul\":7942:8388   */\ntag_170:\n    /* \"#utility.yul\":7852:8395   */\n  pop\n  pop\n  pop\n  jump\t// out\n    /* \"#utility.yul\":8401:8518   */\ntag_66:\n    /* \"#utility.yul\":8455:8463   */\n  0x00\n    /* \"#utility.yul\":8505:8510   */\n  dup3\n    /* \"#utility.yul\":8499:8503   */\n  dup3\n    /* \"#utility.yul\":8495:8511   */\n  shr\n    /* \"#utility.yul\":8474:8511   */\n  swap1\n  pop\n    /* \"#utility.yul\":8401:8518   */\n  swap3\n  swap2\n  pop\n  pop\n  jump\t// out\n    /* \"#utility.yul\":8524:8693   */\ntag_67:\n    /* \"#utility.yul\":8568:8574   */\n  0x00\n    /* \"#utility.yul\":8601:8652   */\n  tag_178\n    /* \"#utility.yul\":8649:8650   */\n  0x00\n    /* \"#utility.yul\":8645:8651   */\n  not\n    /* \"#utility.yul\":8637:8642   */\n  dup5\n    /* \"#utility.yul\":8634:8635   */\n  0x08\n    /* \"#utility.yul\":8630:8643   */\n  mul\n    /* \"#utility.yul\":8601:8652   */\n  tag_66\n  jump\t// in\ntag_178:\n    /* \"#utility.yul\":8597:8653   */\n  not\n    /* \"#utility.yul\":8682:8686   */\n  dup1\n    /* \"#utility.yul\":8676:8680   */\n  dup4\n    /* \"#utility.yul\":8672:8687   */\n  and\n    /* \"#utility.yul\":8662:8687   */\n  swap2\n  pop\n    /* \"#utility.yul\":8575:8693   */\n  pop\n    /* \"#utility.yul\":8524:8693   */\n  swap3\n  swap2\n  pop\n  pop\n  jump\t// out\n    /* \"#utility.yul\":8698:8993   */\ntag_68:\n    /* \"#utility.yul\":8774:8778   */\n  0x00\n    /* \"#utility.yul\":8920:8949   */\n  tag_180\n    /* \"#utility.yul\":8945:8948   */\n  dup4\n    /* \"#utility.yul\":8939:8943   */\n  dup4\n    /* \"#utility.yul\":8920:8949   */\n  tag_67\n  jump\t// in\ntag_180:\n    /* \"#utility.yul\":8912:8949   */\n  swap2\n  pop\n    /* \"#utility.yul\":8982:8985   */\n  dup3\n    /* \"#utility.yul\":8979:8980   */\n  0x02\n    /* \"#utility.yul\":8975:8986   */\n  mul\n    /* \"#utility.yul\":8969:8973   */\n  dup3\n    /* \"#utility.yul\":8966:8987   */\n  or\n    /* \"#utility.yul\":8958:8987   */\n  swap1\n  pop\n    /* \"#utility.yul\":8698:8993   */\n  swap3\n  swap2\n  pop\n  pop\n  jump\t// out\n    /* \"#utility.yul\":8998:10393   */\ntag_7:\n    /* \"#utility.yul\":9115:9152   */\n  tag_182\n    /* \"#utility.yul\":9148:9151   */\n  dup3\n    /* \"#utility.yul\":9115:9152   */\n  tag_51\n  jump\t// in\ntag_182:\n    /* \"#utility.yul\":9217:9235   */\n  0xffffffffffffffff\n    /* \"#utility.yul\":9209:9215   */\n  dup2\n    /* \"#utility.yul\":9206:9236   */\n  gt\n    /* \"#utility.yul\":9203:9259   */\n  iszero\n  tag_183\n  jumpi\n    /* \"#utility.yul\":9239:9257   */\n  tag_184\n  tag_34\n  jump\t// in\ntag_184:\n    /* \"#utility.yul\":9203:9259   */\ntag_183:\n    /* \"#utility.yul\":9283:9321   */\n  tag_185\n    /* \"#utility.yul\":9315:9319   */\n  dup3\n    /* \"#utility.yul\":9309:9320   */\n  sload\n    /* \"#utility.yul\":9283:9321   */\n  tag_53\n  jump\t// in\ntag_185:\n    /* \"#utility.yul\":9368:9435   */\n  tag_186\n    /* \"#utility.yul\":9428:9434   */\n  dup3\n    /* \"#utility.yul\":9420:9426   */\n  dup3\n    /* \"#utility.yul\":9414:9418   */\n  dup6\n    /* \"#utility.yul\":9368:9435   */\n  tag_65\n  jump\t// in\ntag_186:\n    /* \"#utility.yul\":9462:9463   */\n  0x00\n    /* \"#utility.yul\":9486:9490   */\n  0x20\n    /* \"#utility.yul\":9473:9490   */\n  swap1\n  pop\n    /* \"#utility.yul\":9518:9520   */\n  0x1f\n    /* \"#utility.yul\":9510:9516   */\n  dup4\n    /* \"#utility.yul\":9507:9521   */\n  gt\n    /* \"#utility.yul\":9535:9536   */\n  0x01\n    /* \"#utility.yul\":9530:10148   */\n  dup2\n  eq\n  tag_188\n  jumpi\n    /* \"#utility.yul\":10192:10193   */\n  0x00\n    /* \"#utility.yul\":10209:10215   */\n  dup5\n    /* \"#utility.yul\":10206:10283   */\n  iszero\n  tag_189\n  jumpi\n    /* \"#utility.yul\":10258:10267   */\n  dup3\n    /* \"#utility.yul\":10253:10256   */\n  dup8\n    /* \"#utility.yul\":10249:10268   */\n  add\n    /* \"#utility.yul\":10243:10269   */\n  mload\n    /* \"#utility.yul\":10234:10269   */\n  swap1\n  pop\n    /* \"#utility.yul\":10206:10283   */\ntag_189:\n    /* \"#utility.yul\":10309:10376   */\n  tag_190\n    /* \"#utility.yul\":10369:10375   */\n  dup6\n    /* \"#utility.yul\":10362:10367   */\n  dup3\n    /* \"#utility.yul\":10309:10376   */\n  tag_68\n  jump\t// in\ntag_190:\n    /* \"#utility.yul\":10303:10307   */\n  dup7\n    /* \"#utility.yul\":10296:10377   */\n  sstore\n    /* \"#utility.yul\":10165:10387   */\n  pop\n    /* \"#utility.yul\":9500:10387   */\n  jump(tag_187)\n    /* \"#utility.yul\":9530:10148   */\ntag_188:\n    /* \"#utility.yul\":9582:9586   */\n  0x1f\n    /* \"#utility.yul\":9578:9587   */\n  not\n    /* \"#utility.yul\":9570:9576   */\n  dup5\n    /* \"#utility.yul\":9566:9588   */\n  and\n    /* \"#utility.yul\":9616:9653   */\n  tag_191\n    /* \"#utility.yul\":9648:9652   */\n  dup7\n    /* \"#utility.yul\":9616:9653   */\n  tag_54\n  jump\t// in\ntag_191:\n    /* \"#utility.yul\":9675:9676   */\n  0x00\n    /* \"#utility.yul\":9689:9897   */\ntag_192:\n    /* \"#utility.yul\":9703:9710   */\n  dup3\n    /* \"#utility.yul\":9700:9701   */\n  dup2\n    /* \"#utility.yul\":9697:9711   */\n  lt\n    /* \"#utility.yul\":9689:9897   */\n  iszero\n  tag_194\n  jumpi\n    /* \"#utility.yul\":9782:9791   */\n  dup5\n    /* \"#utility.yul\":9777:9780   */\n  dup10\n    /* \"#utility.yul\":9773:9792   */\n  add\n    /* \"#utility.yul\":9767:9793   */\n  mload\n    /* \"#utility.yul\":9759:9765   */\n  dup3\n    /* \"#utility.yul\":9752:9794   */\n  sstore\n    /* \"#utility.yul\":9833:9834   */\n  0x01\n    /* \"#utility.yul\":9825:9831   */\n  dup3\n    /* \"#utility.yul\":9821:9835   */\n  add\n    /* \"#utility.yul\":9811:9835   */\n  swap2\n  pop\n    /* \"#utility.yul\":9880:9882   */\n  0x20\n    /* \"#utility.yul\":9869:9878   */\n  dup6\n    /* \"#utility.yul\":9865:9883   */\n  add\n    /* \"#utility.yul\":9852:9883   */\n  swap5\n  pop\n    /* \"#utility.yul\":9726:9730   */\n  0x20\n    /* \"#utility.yul\":9723:9724   */\n  dup2\n    /* \"#utility.yul\":9719:9731   */\n  add\n    /* \"#utility.yul\":9714:9731   */\n  swap1\n  pop\n    /* \"#utility.yul\":9689:9897   */\n  jump(tag_192)\ntag_194:\n    /* \"#utility.yul\":9925:9931   */\n  dup7\n    /* \"#utility.yul\":9916:9923   */\n  dup4\n    /* \"#utility.yul\":9913:9932   */\n  lt\n    /* \"#utility.yul\":9910:10089   */\n  iszero\n  tag_195\n  jumpi\n    /* \"#utility.yul\":9983:9992   */\n  dup5\n    /* \"#utility.yul\":9978:9981   */\n  dup10\n    /* \"#utility.yul\":9974:9993   */\n  add\n    /* \"#utility.yul\":9968:9994   */\n  mload\n    /* \"#utility.yul\":10026:10074   */\n  tag_196\n    /* \"#utility.yul\":10068:10072   */\n  0x1f\n    /* \"#utility.yul\":10060:10066   */\n  dup10\n    /* \"#utility.yul\":10056:10073   */\n  and\n    /* \"#utility.yul\":10045:10054   */\n  dup3\n    /* \"#utility.yul\":10026:10074   */\n  tag_67\n  jump\t// in\ntag_196:\n    /* \"#utility.yul\":10018:10024   */\n  dup4\n    /* \"#utility.yul\":10011:10075   */\n  sstore\n    /* \"#utility.yul\":9933:10089   */\n  pop\n    /* \"#utility.yul\":9910:10089   */\ntag_195:\n    /* \"#utility.yul\":10135:10136   */\n  0x01\n    /* \"#utility.yul\":10131:10132   */\n  0x02\n    /* \"#utility.yul\":10123:10129   */\n  dup9\n    /* \"#utility.yul\":10119:10133   */\n  mul\n    /* \"#utility.yul\":10115:10137   */\n  add\n    /* \"#utility.yul\":10109:10113   */\n  dup9\n    /* \"#utility.yul\":10102:10138   */\n  sstore\n    /* \"#utility.yul\":9537:10148   */\n  pop\n  pop\n  pop\n    /* \"#utility.yul\":9500:10387   */\ntag_187:\n  pop\n    /* \"#utility.yul\":9090:10393   */\n  pop\n  pop\n  pop\n    /* \"#utility.yul\":8998:10393   */\n  pop\n  pop\n  jump\t// out\n    /* \"#utility.yul\":10399:10579   */\ntag_69:\n    /* \"#utility.yul\":10447:10524   */\n  0x4e487b7100000000000000000000000000000000000000000000000000000000\n    /* \"#utility.yul\":10444:10445   */\n  0x00\n    /* \"#utility.yul\":10437:10525   */\n  mstore\n    /* \"#utility.yul\":10544:10548   */\n  0x11\n    /* \"#utility.yul\":10541:10542   */\n  0x04\n    /* \"#utility.yul\":10534:10549   */\n  mstore\n    /* \"#utility.yul\":10568:10572   */\n  0x24\n    /* \"#utility.yul\":10565:10566   */\n  0x00\n    /* \"#utility.yul\":10558:10573   */\n  revert\n    /* \"#utility.yul\":10585:10687   */\ntag_70:\n    /* \"#utility.yul\":10627:10635   */\n  0x00\n    /* \"#utility.yul\":10674:10679   */\n  dup2\n    /* \"#utility.yul\":10671:10672   */\n  0x01\n    /* \"#utility.yul\":10667:10680   */\n  shr\n    /* \"#utility.yul\":10646:10680   */\n  swap1\n  pop\n    /* \"#utility.yul\":10585:10687   */\n  swap2\n  swap1\n  pop\n  jump\t// out\n    /* \"#utility.yul\":10693:11541   */\ntag_71:\n    /* \"#utility.yul\":10754:10759   */\n  0x00\n    /* \"#utility.yul\":10761:10765   */\n  0x00\n    /* \"#utility.yul\":10785:10791   */\n  dup3\n    /* \"#utility.yul\":10776:10791   */\n  swap2\n  pop\n    /* \"#utility.yul\":10809:10814   */\n  dup4\n    /* \"#utility.yul\":10800:10814   */\n  swap1\n  pop\n    /* \"#utility.yul\":10823:11535   */\ntag_200:\n    /* \"#utility.yul\":10844:10845   */\n  0x01\n    /* \"#utility.yul\":10834:10842   */\n  dup6\n    /* \"#utility.yul\":10831:10846   */\n  gt\n    /* \"#utility.yul\":10823:11535   */\n  iszero\n  tag_202\n  jumpi\n    /* \"#utility.yul\":10939:10943   */\n  dup1\n    /* \"#utility.yul\":10934:10937   */\n  dup7\n    /* \"#utility.yul\":10930:10944   */\n  div\n    /* \"#utility.yul\":10924:10928   */\n  dup2\n    /* \"#utility.yul\":10921:10945   */\n  gt\n    /* \"#utility.yul\":10918:10968   */\n  iszero\n  tag_203\n  jumpi\n    /* \"#utility.yul\":10948:10966   */\n  tag_204\n  tag_69\n  jump\t// in\ntag_204:\n    /* \"#utility.yul\":10918:10968   */\ntag_203:\n    /* \"#utility.yul\":10998:10999   */\n  0x01\n    /* \"#utility.yul\":10988:10996   */\n  dup6\n    /* \"#utility.yul\":10984:11000   */\n  and\n    /* \"#utility.yul\":10981:11432   */\n  iszero\n  tag_205\n  jumpi\n    /* \"#utility.yul\":11413:11417   */\n  dup1\n    /* \"#utility.yul\":11406:11411   */\n  dup3\n    /* \"#utility.yul\":11402:11418   */\n  mul\n    /* \"#utility.yul\":11393:11418   */\n  swap2\n  pop\n    /* \"#utility.yul\":10981:11432   */\ntag_205:\n    /* \"#utility.yul\":11463:11467   */\n  dup1\n    /* \"#utility.yul\":11457:11461   */\n  dup2\n    /* \"#utility.yul\":11453:11468   */\n  mul\n    /* \"#utility.yul\":11445:11468   */\n  swap1\n  pop\n    /* \"#utility.yul\":11493:11525   */\n  tag_206\n    /* \"#utility.yul\":11516:11524   */\n  dup6\n    /* \"#utility.yul\":11493:11525   */\n  tag_70\n  jump\t// in\ntag_206:\n    /* \"#utility.yul\":11481:11525   */\n  swap5\n  pop\n    /* \"#utility.yul\":10823:11535   */\n  jump(tag_200)\ntag_202:\n    /* \"#utility.yul\":10693:11541   */\n  swap5\n  pop\n  swap5\n  swap3\n  pop\n  pop\n  pop\n  jump\t// out\n    /* \"#utility.yul\":11547:12620   */\ntag_72:\n    /* \"#utility.yul\":11601:11606   */\n  0x00\n    /* \"#utility.yul\":11792:11800   */\n  dup3\n    /* \"#utility.yul\":11782:11822   */\n  tag_208\n  jumpi\n    /* \"#utility.yul\":11813:11814   */\n  0x01\n    /* \"#utility.yul\":11804:11814   */\n  swap1\n  pop\n    /* \"#utility.yul\":11815:11820   */\n  jump(tag_207)\n    /* \"#utility.yul\":11782:11822   */\ntag_208:\n    /* \"#utility.yul\":11841:11845   */\n  dup2\n    /* \"#utility.yul\":11831:11867   */\n  tag_209\n  jumpi\n    /* \"#utility.yul\":11858:11859   */\n  0x00\n    /* \"#utility.yul\":11849:11859   */\n  swap1\n  pop\n    /* \"#utility.yul\":11860:11865   */\n  jump(tag_207)\n    /* \"#utility.yul\":11831:11867   */\ntag_209:\n    /* \"#utility.yul\":11927:11931   */\n  dup2\n    /* \"#utility.yul\":11975:11976   */\n  0x01\n    /* \"#utility.yul\":11970:11997   */\n  dup2\n  eq\n  tag_211\n  jumpi\n    /* \"#utility.yul\":12011:12012   */\n  0x02\n    /* \"#utility.yul\":12006:12197   */\n  dup2\n  eq\n  tag_212\n  jumpi\n    /* \"#utility.yul\":11920:12197   */\n  jump(tag_210)\n    /* \"#utility.yul\":11970:11997   */\ntag_211:\n    /* \"#utility.yul\":11988:11989   */\n  0x01\n    /* \"#utility.yul\":11979:11989   */\n  swap2\n  pop\n    /* \"#utility.yul\":11990:11995   */\n  pop\n  jump(tag_207)\n    /* \"#utility.yul\":12006:12197   */\ntag_212:\n    /* \"#utility.yul\":12051:12054   */\n  0xff\n    /* \"#utility.yul\":12041:12049   */\n  dup5\n    /* \"#utility.yul\":12038:12055   */\n  gt\n    /* \"#utility.yul\":12035:12078   */\n  iszero\n  tag_213\n  jumpi\n    /* \"#utility.yul\":12058:12076   */\n  tag_214\n  tag_69\n  jump\t// in\ntag_214:\n    /* \"#utility.yul\":12035:12078   */\ntag_213:\n    /* \"#utility.yul\":12107:12115   */\n  dup4\n    /* \"#utility.yul\":12104:12105   */\n  0x02\n    /* \"#utility.yul\":12100:12116   */\n  exp\n    /* \"#utility.yul\":12091:12116   */\n  swap2\n  pop\n    /* \"#utility.yul\":12142:12145   */\n  dup5\n    /* \"#utility.yul\":12135:12140   */\n  dup3\n    /* \"#utility.yul\":12132:12146   */\n  gt\n    /* \"#utility.yul\":12129:12169   */\n  iszero\n  tag_215\n  jumpi\n    /* \"#utility.yul\":12149:12167   */\n  tag_216\n  tag_69\n  jump\t// in\ntag_216:\n    /* \"#utility.yul\":12129:12169   */\ntag_215:\n    /* \"#utility.yul\":12182:12187   */\n  pop\n  jump(tag_207)\n    /* \"#utility.yul\":11920:12197   */\ntag_210:\n  pop\n    /* \"#utility.yul\":12306:12308   */\n  0x20\n    /* \"#utility.yul\":12296:12304   */\n  dup4\n    /* \"#utility.yul\":12293:12309   */\n  lt\n    /* \"#utility.yul\":12287:12290   */\n  0x0133\n    /* \"#utility.yul\":12281:12285   */\n  dup4\n    /* \"#utility.yul\":12278:12291   */\n  lt\n    /* \"#utility.yul\":12274:12310   */\n  and\n    /* \"#utility.yul\":12256:12258   */\n  0x4e\n    /* \"#utility.yul\":12246:12254   */\n  dup5\n    /* \"#utility.yul\":12243:12259   */\n  lt\n    /* \"#utility.yul\":12238:12240   */\n  0x0b\n    /* \"#utility.yul\":12232:12236   */\n  dup5\n    /* \"#utility.yul\":12229:12241   */\n  lt\n    /* \"#utility.yul\":12225:12260   */\n  and\n    /* \"#utility.yul\":12209:12320   */\n  or\n    /* \"#utility.yul\":12206:12452   */\n  iszero\n  tag_217\n  jumpi\n    /* \"#utility.yul\":12362:12370   */\n  dup3\n    /* \"#utility.yul\":12356:12360   */\n  dup3\n    /* \"#utility.yul\":12352:12371   */\n  exp\n    /* \"#utility.yul\":12343:12371   */\n  swap1\n  pop\n    /* \"#utility.yul\":12397:12400   */\n  dup4\n    /* \"#utility.yul\":12390:12395   */\n  dup2\n    /* \"#utility.yul\":12387:12401   */\n  gt\n    /* \"#utility.yul\":12384:12424   */\n  iszero\n  tag_218\n  jumpi\n    /* \"#utility.yul\":12404:12422   */\n  tag_219\n  tag_69\n  jump\t// in\ntag_219:\n    /* \"#utility.yul\":12384:12424   */\ntag_218:\n    /* \"#utility.yul\":12437:12442   */\n  jump(tag_207)\n    /* \"#utility.yul\":12206:12452   */\ntag_217:\n    /* \"#utility.yul\":12477:12519   */\n  tag_220\n    /* \"#utility.yul\":12515:12518   */\n  dup5\n    /* \"#utility.yul\":12505:12513   */\n  dup5\n    /* \"#utility.yul\":12499:12503   */\n  dup5\n    /* \"#utility.yul\":12496:12497   */\n  0x01\n    /* \"#utility.yul\":12477:12519   */\n  tag_71\n  jump\t// in\ntag_220:\n    /* \"#utility.yul\":12462:12519   */\n  swap3\n  pop\n  swap1\n  pop\n    /* \"#utility.yul\":12551:12555   */\n  dup2\n    /* \"#utility.yul\":12546:12549   */\n  dup5\n    /* \"#utility.yul\":12542:12556   */\n  div\n    /* \"#utility.yul\":12535:12540   */\n  dup2\n    /* \"#utility.yul\":12532:12557   */\n  gt\n    /* \"#utility.yul\":12529:12580   */\n  iszero\n  tag_221\n  jumpi\n    /* \"#utility.yul\":12560:12578   */\n  tag_222\n  tag_69\n  jump\t// in\ntag_222:\n    /* \"#utility.yul\":12529:12580   */\ntag_221:\n    /* \"#utility.yul\":12609:12613   */\n  dup2\n    /* \"#utility.yul\":12602:12607   */\n  dup2\n    /* \"#utility.yul\":12598:12614   */\n  mul\n    /* \"#utility.yul\":12589:12614   */\n  swap1\n  pop\n    /* \"#utility.yul\":11547:12620   */\ntag_207:\n  swap4\n  swap3\n  pop\n  pop\n  pop\n  jump\t// out\n    /* \"#utility.yul\":12626:12907   */\ntag_10:\n    /* \"#utility.yul\":12684:12689   */\n  0x00\n    /* \"#utility.yul\":12708:12731   */\n  tag_224\n    /* \"#utility.yul\":12726:12730   */\n  dup3\n    /* \"#utility.yul\":12708:12731   */\n  tag_44\n  jump\t// in\ntag_224:\n    /* \"#utility.yul\":12700:12731   */\n  swap2\n  pop\n    /* \"#utility.yul\":12752:12777   */\n  tag_225\n    /* \"#utility.yul\":12768:12776   */\n  dup4\n    /* \"#utility.yul\":12752:12777   */\n  tag_41\n  jump\t// in\ntag_225:\n    /* \"#utility.yul\":12740:12777   */\n  swap3\n  pop\n    /* \"#utility.yul\":12796:12900   */\n  tag_226\n    /* \"#utility.yul\":12833:12899   */\n  0xffffffffffffffffffffffffffffffffffffffffffffffffffffffffffffffff\n    /* \"#utility.yul\":12823:12831   */\n  dup5\n    /* \"#utility.yul\":12817:12821   */\n  dup5\n    /* \"#utility.yul\":12796:12900   */\n  tag_72\n  jump\t// in\ntag_226:\n    /* \"#utility.yul\":12787:12900   */\n  swap1\n  pop\n    /* \"#utility.yul\":12626:12907   */\n  swap3\n  swap2\n  pop\n  pop\n  jump\t// out\n    /* \"#utility.yul\":12913:13323   */\ntag_12:\n    /* \"#utility.yul\":12953:12960   */\n  0x00\n    /* \"#utility.yul\":12976:12996   */\n  tag_228\n    /* \"#utility.yul\":12994:12995   */\n  dup3\n    /* \"#utility.yul\":12976:12996   */\n  tag_44\n  jump\t// in\ntag_228:\n    /* \"#utility.yul\":12971:12996   */\n  swap2\n  pop\n    /* \"#utility.yul\":13010:13030   */\n  tag_229\n    /* \"#utility.yul\":13028:13029   */\n  dup4\n    /* \"#utility.yul\":13010:13030   */\n  tag_44\n  jump\t// in\ntag_229:\n    /* \"#utility.yul\":13005:13030   */\n  swap3\n  pop\n    /* \"#utility.yul\":13065:13066   */\n  dup3\n    /* \"#utility.yul\":13062:13063   */\n  dup3\n    /* \"#utility.yul\":13058:13067   */\n  mul\n    /* \"#utility.yul\":13087:13117   */\n  tag_230\n    /* \"#utility.yul\":13105:13116   */\n  dup2\n    /* \"#utility.yul\":13087:13117   */\n  tag_44\n  jump\t// in\ntag_230:\n    /* \"#utility.yul\":13076:13117   */\n  swap2\n  pop\n    /* \"#utility.yul\":13266:13267   */\n  dup3\n    /* \"#utility.yul\":13257:13264   */\n  dup3\n    /* \"#utility.yul\":13253:13268   */\n  div\n    /* \"#utility.yul\":13250:13251   */\n  dup5\n    /* \"#utility.yul\":13247:13269   */\n  eq\n    /* \"#utility.yul\":13227:13228   */\n  dup4\n    /* \"#utility.yul\":13220:13229   */\n  iszero\n    /* \"#utility.yul\":13200:13283   */\n  or\n    /* \"#utility.yul\":13177:13316   */\n  tag_231\n  jumpi\n    /* \"#utility.yul\":13296:13314   */\n  tag_232\n  tag_69\n  jump\t// in\ntag_232:\n    /* \"#utility.yul\":13177:13316   */\ntag_231:\n    /* \"#utility.yul\":12961:13323   */\n  pop\n    /* \"#utility.yul\":12913:13323   */\n  swap3\n  swap2\n  pop\n  pop\n  jump\t// out\n    /* \"#utility.yul\":13329:13520   */\ntag_22:\n    /* \"#utility.yul\":13369:13372   */\n  0x00\n    /* \"#utility.yul\":13388:13408   */\n  tag_234\n    /* \"#utility.yul\":13406:13407   */\n  dup3\n    /* \"#utility.yul\":13388:13408   */\n  tag_44\n  jump\t// in\ntag_234:\n    /* \"#utility.yul\":13383:13408   */\n  swap2\n  pop\n    /* \"#utility.yul\":13422:13442   */\n  tag_235\n    /* \"#utility.yul\":13440:13441   */\n  dup4\n    /* \"#utility.yul\":13422:13442   */\n  tag_44\n  jump\t// in\ntag_235:\n    /* \"#utility.yul\":13417:13442   */\n  swap3\n  pop\n    /* \"#utility.yul\":13465:13466   */\n  dup3\n    /* \"#utility.yul\":13462:13463   */\n  dup3\n    /* \"#utility.yul\":13458:13467   */\n  add\n    /* \"#utility.yul\":13451:13467   */\n  swap1\n  pop\n    /* \"#utility.yul\":13486:13489   */\n  dup1\n    /* \"#utility.yul\":13483:13484   */\n  dup3\n    /* \"#utility.yul\":13480:13490   */\n  gt\n    /* \"#utility.yul\":13477:13513   */\n  iszero\n  tag_236\n  jumpi\n    /* \"#utility.yul\":13493:13511   */\n  tag_237\n  tag_69\n  jump\t// in\ntag_237:\n    /* \"#utility.yul\":13477:13513   */\ntag_236:\n    /* \"#utility.yul\":13329:13520   */\n  swap3\n  swap2\n  pop\n  pop\n  jump\t// out\n    /* \"#utility.yul\":13526:13644   */\ntag_73:\n    /* \"#utility.yul\":13613:13637   */\n  tag_239\n    /* \"#utility.yul\":13631:13636   */\n  dup2\n    /* \"#utility.yul\":13613:13637   */\n  tag_44\n  jump\t// in\ntag_239:\n    /* \"#utility.yul\":13608:13611   */\n  dup3\n    /* \"#utility.yul\":13601:13638   */\n  mstore\n    /* \"#utility.yul\":13526:13644   */\n  pop\n  pop\n  jump\t// out\n    /* \"#utility.yul\":13650:13872   */\ntag_26:\n    /* \"#utility.yul\":13743:13747   */\n  0x00\n    /* \"#utility.yul\":13781:13783   */\n  0x20\n    /* \"#utility.yul\":13770:13779   */\n  dup3\n    /* \"#utility.yul\":13766:13784   */\n  add\n    /* \"#utility.yul\":13758:13784   */\n  swap1\n  pop\n    /* \"#utility.yul\":13794:13865   */\n  tag_241\n    /* \"#utility.yul\":13862:13863   */\n  0x00\n    /* \"#utility.yul\":13851:13860   */\n  dup4\n    /* \"#utility.yul\":13847:13864   */\n  add\n    /* \"#utility.yul\":13838:13844   */\n  dup5\n    /* \"#utility.yul\":13794:13865   */\n  tag_73\n  jump\t// in\ntag_241:\n    /* \"#utility.yul\":13650:13872   */\n  swap3\n  swap2\n  pop\n  pop\n  jump\t// out\n    /* \"Solidity/Tokens/MasterToken.sol\":61:10618  contract MasterToken {... */\ntag_18:\n  dataSize(sub_0)\n  dup1\n  dataOffset(sub_0)\n  0x00\n  codecopy\n  0x00\n  return\nstop\n\nsub_0: assembly {\n        /* \"Solidity/Tokens/MasterToken.sol\":61:10618  contract MasterToken {... */\n      mstore(0x40, 0x80)\n      callvalue\n      dup1\n      iszero\n      tag_1\n      jumpi\n      revert(0x00, 0x00)\n    tag_1:\n      pop\n      jumpi(tag_2, lt(calldatasize, 0x04))\n      shr(0xe0, calldataload(0x00))\n      dup1\n      0x8da5cb5b\n      gt\n      tag_37\n      jumpi\n      dup1\n      0xcb67f948\n      gt\n      tag_38\n      jumpi\n      dup1\n      0xdbac26e9\n      gt\n      tag_39\n      jumpi\n      dup1\n      0xdbac26e9\n      eq\n      tag_32\n      jumpi\n      dup1\n      0xdd62ed3e\n      eq\n      tag_33\n      jumpi\n      dup1\n      0xf3290d75\n      eq\n      tag_34\n      jumpi\n      dup1\n      0xf44637ba\n      eq\n      tag_35\n      jumpi\n      dup1\n      0xf46eccc4\n      eq\n      tag_36\n      jumpi\n      jump(tag_2)\n    tag_39:\n      dup1\n      0xcb67f948\n      eq\n      tag_28\n      jumpi\n      dup1\n      0xd2c35ce8\n      eq\n      tag_29\n      jumpi\n      dup1\n      0xd5abeb01\n      eq\n      tag_30\n      jumpi\n      dup1\n      0xd8fb9337\n      eq\n      tag_31\n      jumpi\n      jump(tag_2)\n    tag_38:\n      dup1\n      0xa25983e5\n      gt\n      tag_40\n      jumpi\n      dup1\n      0xa25983e5\n      eq\n      tag_24\n      jumpi\n      dup1\n      0xa9059cbb\n      eq\n      tag_25\n      jumpi\n      dup1\n      0xacb2ad6f\n      eq\n      tag_26\n      jumpi\n      dup1\n      0xc415b95c\n      eq\n      tag_27\n      jumpi\n      jump(tag_2)\n    tag_40:\n      dup1\n      0x8da5cb5b\n      eq\n      tag_20\n      jumpi\n      dup1\n      0x9012c4a8\n      eq\n      tag_21\n      jumpi\n      dup1\n      0x95d89b41\n      eq\n      tag_22\n      jumpi\n      dup1\n      0x983b2d56\n      eq\n      tag_23\n      jumpi\n      jump(tag_2)\n    tag_37:\n      dup1\n      0x23b872dd\n      gt\n      tag_41\n      jumpi\n      dup1\n      0x41566585\n      gt\n      tag_42\n      jumpi\n      dup1\n      0x41566585\n      eq\n      tag_15\n      jumpi\n      dup1\n      0x42966c68\n      eq\n      tag_16\n      jumpi\n      dup1\n      0x5d16a6f9\n      eq\n      tag_17\n      jumpi\n      dup1\n      0x70a08231\n      eq\n      tag_18\n      jumpi\n      dup1\n      0x79cc6790\n      eq\n      tag_19\n      jumpi\n      jump(tag_2)\n    tag_42:\n      dup1\n      0x23b872dd\n      eq\n      tag_11\n      jumpi\n      dup1\n      0x3092afd5\n      eq\n      tag_12\n      jumpi\n      dup1\n      0x313ce567\n      eq\n      tag_13\n      jumpi\n      dup1\n      0x40c10f19\n      eq\n      tag_14\n      jumpi\n      jump(tag_2)\n    tag_41:\n      dup1\n      0x095ea7b3\n      gt\n      tag_43\n      jumpi\n      dup1\n      0x095ea7b3\n      eq\n      tag_7\n      jumpi\n      dup1\n      0x129de5bf\n      eq\n      tag_8\n      jumpi\n      dup1\n      0x15056b54\n      eq\n      tag_9\n      jumpi\n      dup1\n      0x18160ddd\n      eq\n      tag_10\n      jumpi\n      jump(tag_2)\n    tag_43:\n      dup1\n      0x01f59d16\n      eq\n      tag_3\n      jumpi\n      dup1\n      0x02846858\n      eq\n      tag_4\n      jumpi\n      dup1\n      0x03d41e0e\n      eq\n      tag_5\n      jumpi\n      dup1\n      0x06fdde03\n      eq\n      tag_6\n      jumpi\n    tag_2:\n      revert(0x00, 0x00)\n        /* \"Solidity/Tokens/MasterToken.sol\":515:543  uint256 public maxFee = 1000 */\n    tag_3:\n      tag_44\n      tag_45\n      jump\t// in\n    tag_44:\n      mload(0x40)\n      tag_46\n      swap2\n      swap1\n      tag_47\n      jump\t// in\n    tag_46:\n      mload(0x40)\n      dup1\n      swap2\n      sub\n      swap1\n      return\n        /* \"Solidity/Tokens/MasterToken.sol\":9893:10014  function removeBurner(address account) public onlyOwner validAddress(account) {... */\n    tag_4:\n      tag_48\n      0x04\n      dup1\n      calldatasize\n      sub\n      dup2\n      add\n      swap1\n      tag_49\n      swap2\n      swap1\n      tag_50\n      jump\t// in\n    tag_49:\n      tag_51\n      jump\t// in\n    tag_48:\n      stop\n        /* \"Solidity/Tokens/MasterToken.sol\":669:708  mapping(address => bool) public burners */\n    tag_5:\n      tag_52\n      0x04\n      dup1\n      calldatasize\n      sub\n      dup2\n      add\n      swap1\n      tag_53\n      swap2\n      swap1\n      tag_50\n      jump\t// in\n    tag_53:\n      tag_54\n      jump\t// in\n    tag_52:\n      mload(0x40)\n      tag_55\n      swap2\n      swap1\n      tag_56\n      jump\t// in\n    tag_55:\n      mload(0x40)\n      dup1\n      swap2\n      sub\n      swap1\n      return\n        /* \"Solidity/Tokens/MasterToken.sol\":113:131  string public name */\n    tag_6:\n      tag_57\n      tag_58\n      jump\t// in\n    tag_57:\n      mload(0x40)\n      tag_59\n      swap2\n      swap1\n      tag_60\n      jump\t// in\n    tag_59:\n      mload(0x40)\n      dup1\n      swap2\n      sub\n      swap1\n      return\n        /* \"Solidity/Tokens/MasterToken.sol\":4108:4353  function approve(address spender, uint256 amount) ... */\n    tag_7:\n      tag_61\n      0x04\n      dup1\n      calldatasize\n      sub\n      dup2\n      add\n      swap1\n      tag_62\n      swap2\n      swap1\n      tag_63\n      jump\t// in\n    tag_62:\n      tag_64\n      jump\t// in\n    tag_61:\n      mload(0x40)\n      tag_65\n      swap2\n      swap1\n      tag_56\n      jump\t// in\n    tag_65:\n      mload(0x40)\n      dup1\n      swap2\n      sub\n      swap1\n      return\n        /* \"Solidity/Tokens/MasterToken.sol\":8373:8506  function getUnlockedBalance(address user) public view returns (uint256) {... */\n    tag_8:\n      tag_66\n      0x04\n      dup1\n      calldatasize\n      sub\n      dup2\n      add\n      swap1\n      tag_67\n      swap2\n      swap1\n      tag_50\n      jump\t// in\n    tag_67:\n      tag_68\n      jump\t// in\n    tag_66:\n      mload(0x40)\n      tag_69\n      swap2\n      swap1\n      tag_47\n      jump\t// in\n    tag_69:\n      mload(0x40)\n      dup1\n      swap2\n      sub\n      swap1\n      return\n        /* \"Solidity/Tokens/MasterToken.sol\":8518:8647  function getLockDetails(address user) public view returns (LockedBalance[] memory) {... */\n    tag_9:\n      tag_70\n      0x04\n      dup1\n      calldatasize\n      sub\n      dup2\n      add\n      swap1\n      tag_71\n      swap2\n      swap1\n      tag_50\n      jump\t// in\n    tag_71:\n      tag_72\n      jump\t// in\n    tag_70:\n      mload(0x40)\n      tag_73\n      swap2\n      swap1\n      tag_74\n      jump\t// in\n    tag_73:\n      mload(0x40)\n      dup1\n      swap2\n      sub\n      swap1\n      return\n        /* \"Solidity/Tokens/MasterToken.sol\":193:219  uint256 public totalSupply */\n    tag_10:\n      tag_75\n      tag_76\n      jump\t// in\n    tag_75:\n      mload(0x40)\n      tag_77\n      swap2\n      swap1\n      tag_47\n      jump\t// in\n    tag_77:\n      mload(0x40)\n      dup1\n      swap2\n      sub\n      swap1\n      return\n        /* \"Solidity/Tokens/MasterToken.sol\":4365:4785  function transferFrom(address from, address to, uint256 amount) ... */\n    tag_11:\n      tag_78\n      0x04\n      dup1\n      calldatasize\n      sub\n      dup2\n      add\n      swap1\n      tag_79\n      swap2\n      swap1\n      tag_80\n      jump\t// in\n    tag_79:\n      tag_81\n      jump\t// in\n    tag_78:\n      mload(0x40)\n      tag_82\n      swap2\n      swap1\n      tag_56\n      jump\t// in\n    tag_82:\n      mload(0x40)\n      dup1\n      swap2\n      sub\n      swap1\n      return\n        /* \"Solidity/Tokens/MasterToken.sol\":9631:9752  function removeMinter(address account) public onlyOwner validAddress(account) {... */\n    tag_12:\n      tag_83\n      0x04\n      dup1\n      calldatasize\n      sub\n      dup2\n      add\n      swap1\n      tag_84\n      swap2\n      swap1\n      tag_50\n      jump\t// in\n    tag_84:\n      tag_85\n      jump\t// in\n    tag_83:\n      stop\n        /* \"Solidity/Tokens/MasterToken.sol\":165:186  uint8 public decimals */\n    tag_13:\n      tag_86\n      tag_87\n      jump\t// in\n    tag_86:\n      mload(0x40)\n      tag_88\n      swap2\n      swap1\n      tag_89\n      jump\t// in\n    tag_88:\n      mload(0x40)\n      dup1\n      swap2\n      sub\n      swap1\n      return\n        /* \"Solidity/Tokens/MasterToken.sol\":4828:4977  function mint(address to, uint256 amount) ... */\n    tag_14:\n      tag_90\n      0x04\n      dup1\n      calldatasize\n      sub\n      dup2\n      add\n      swap1\n      tag_91\n      swap2\n      swap1\n      tag_63\n      jump\t// in\n    tag_91:\n      tag_92\n      jump\t// in\n    tag_90:\n      stop\n        /* \"Solidity/Tokens/MasterToken.sol\":8853:9003  function whitelistAddress(address account) public onlyOwner {... */\n    tag_15:\n      tag_93\n      0x04\n      dup1\n      calldatasize\n      sub\n      dup2\n      add\n      swap1\n      tag_94\n      swap2\n      swap1\n      tag_50\n      jump\t// in\n    tag_94:\n      tag_95\n      jump\t// in\n    tag_93:\n      stop\n        /* \"Solidity/Tokens/MasterToken.sol\":5452:5533  function burn(uint256 amount) public {... */\n    tag_16:\n      tag_96\n      0x04\n      dup1\n      calldatasize\n      sub\n      dup2\n      add\n      swap1\n      tag_97\n      swap2\n      swap1\n      tag_98\n      jump\t// in\n    tag_97:\n      tag_99\n      jump\t// in\n    tag_96:\n      stop\n        /* \"Solidity/Tokens/MasterToken.sol\":746:803  mapping(address => LockedBalance[]) public lockedBalances */\n    tag_17:\n      tag_100\n      0x04\n      dup1\n      calldatasize\n      sub\n      dup2\n      add\n      swap1\n      tag_101\n      swap2\n      swap1\n      tag_63\n      jump\t// in\n    tag_101:\n      tag_102\n      jump\t// in\n    tag_100:\n      mload(0x40)\n      tag_103\n      swap3\n      swap2\n      swap1\n      tag_104\n      jump\t// in\n    tag_103:\n      mload(0x40)\n      dup1\n      swap2\n      sub\n      swap1\n      return\n        /* \"Solidity/Tokens/MasterToken.sol\":3494:3604  function balanceOf(address account) public view returns (uint256) {... */\n    tag_18:\n      tag_105\n      0x04\n      dup1\n      calldatasize\n      sub\n      dup2\n      add\n      swap1\n      tag_106\n      swap2\n      swap1\n      tag_50\n      jump\t// in\n    tag_106:\n      tag_107\n      jump\t// in\n    tag_105:\n      mload(0x40)\n      tag_108\n      swap2\n      swap1\n      tag_47\n      jump\t// in\n    tag_108:\n      mload(0x40)\n      dup1\n      swap2\n      sub\n      swap1\n      return\n        /* \"Solidity/Tokens/MasterToken.sol\":5545:5756  function burnFrom(address from, uint256 amount) ... */\n    tag_19:\n      tag_109\n      0x04\n      dup1\n      calldatasize\n      sub\n      dup2\n      add\n      swap1\n      tag_110\n      swap2\n      swap1\n      tag_63\n      jump\t// in\n    tag_110:\n      tag_111\n      jump\t// in\n    tag_109:\n      stop\n        /* \"Solidity/Tokens/MasterToken.sol\":596:616  address public owner */\n    tag_20:\n      tag_112\n      tag_113\n      jump\t// in\n    tag_112:\n      mload(0x40)\n      tag_114\n      swap2\n      swap1\n      tag_115\n      jump\t// in\n    tag_114:\n      mload(0x40)\n      dup1\n      swap2\n      sub\n      swap1\n      return\n        /* \"Solidity/Tokens/MasterToken.sol\":9046:9222  function updateFee(uint256 newFee) public onlyOwner {... */\n    tag_21:\n      tag_116\n      0x04\n      dup1\n      calldatasize\n      sub\n      dup2\n      add\n      swap1\n      tag_117\n      swap2\n      swap1\n      tag_98\n      jump\t// in\n    tag_117:\n      tag_118\n      jump\t// in\n    tag_116:\n      stop\n        /* \"Solidity/Tokens/MasterToken.sol\":138:158  string public symbol */\n    tag_22:\n      tag_119\n      tag_120\n      jump\t// in\n    tag_119:\n      mload(0x40)\n      tag_121\n      swap2\n      swap1\n      tag_60\n      jump\t// in\n    tag_121:\n      mload(0x40)\n      dup1\n      swap2\n      sub\n      swap1\n      return\n        /* \"Solidity/Tokens/MasterToken.sol\":9502:9619  function addMinter(address account) public onlyOwner validAddress(account) {... */\n    tag_23:\n      tag_122\n      0x04\n      dup1\n      calldatasize\n      sub\n      dup2\n      add\n      swap1\n      tag_123\n      swap2\n      swap1\n      tag_50\n      jump\t// in\n    tag_123:\n      tag_124\n      jump\t// in\n    tag_122:\n      stop\n        /* \"Solidity/Tokens/MasterToken.sol\":7144:7744  function lockTokens(address user, uint256 amount, uint256 unlockTime) ... */\n    tag_24:\n      tag_125\n      0x04\n      dup1\n      calldatasize\n      sub\n      dup2\n      add\n      swap1\n      tag_126\n      swap2\n      swap1\n      tag_127\n      jump\t// in\n    tag_126:\n      tag_128\n      jump\t// in\n    tag_125:\n      stop\n        /* \"Solidity/Tokens/MasterToken.sol\":3616:3948  function transfer(address to, uint256 amount) ... */\n    tag_25:\n      tag_129\n      0x04\n      dup1\n      calldatasize\n      sub\n      dup2\n      add\n      swap1\n      tag_130\n      swap2\n      swap1\n      tag_63\n      jump\t// in\n    tag_130:\n      tag_131\n      jump\t// in\n    tag_129:\n      mload(0x40)\n      tag_132\n      swap2\n      swap1\n      tag_56\n      jump\t// in\n    tag_132:\n      mload(0x40)\n      dup1\n      swap2\n      sub\n      swap1\n      return\n        /* \"Solidity/Tokens/MasterToken.sol\":470:496  uint256 public transferFee */\n    tag_26:\n      tag_133\n      tag_134\n      jump\t// in\n    tag_133:\n      mload(0x40)\n      tag_135\n      swap2\n      swap1\n      tag_47\n      jump\t// in\n    tag_135:\n      mload(0x40)\n      dup1\n      swap2\n      sub\n      swap1\n      return\n        /* \"Solidity/Tokens/MasterToken.sol\":436:463  address public feeCollector */\n    tag_27:\n      tag_136\n      tag_137\n      jump\t// in\n    tag_136:\n      mload(0x40)\n      tag_138\n      swap2\n      swap1\n      tag_115\n      jump\t// in\n    tag_138:\n      mload(0x40)\n      dup1\n      swap2\n      sub\n      swap1\n      return\n        /* \"Solidity/Tokens/MasterToken.sol\":7756:8361  function unlockTokens(address user) public {... */\n    tag_28:\n      tag_139\n      0x04\n      dup1\n      calldatasize\n      sub\n      dup2\n      add\n      swap1\n      tag_140\n      swap2\n      swap1\n      tag_50\n      jump\t// in\n    tag_140:\n      tag_141\n      jump\t// in\n    tag_139:\n      stop\n        /* \"Solidity/Tokens/MasterToken.sol\":9234:9458  function updateFeeCollector(address newCollector) ... */\n    tag_29:\n      tag_142\n      0x04\n      dup1\n      calldatasize\n      sub\n      dup2\n      add\n      swap1\n      tag_143\n      swap2\n      swap1\n      tag_50\n      jump\t// in\n    tag_143:\n      tag_144\n      jump\t// in\n    tag_142:\n      stop\n        /* \"Solidity/Tokens/MasterToken.sol\":226:250  uint256 public maxSupply */\n    tag_30:\n      tag_145\n      tag_146\n      jump\t// in\n    tag_145:\n      mload(0x40)\n      tag_147\n      swap2\n      swap1\n      tag_47\n      jump\t// in\n    tag_147:\n      mload(0x40)\n      dup1\n      swap2\n      sub\n      swap1\n      return\n        /* \"Solidity/Tokens/MasterToken.sol\":810:856  mapping(address => uint256) public totalLocked */\n    tag_31:\n      tag_148\n      0x04\n      dup1\n      calldatasize\n      sub\n      dup2\n      add\n      swap1\n      tag_149\n      swap2\n      swap1\n      tag_50\n      jump\t// in\n    tag_149:\n      tag_150\n      jump\t// in\n    tag_148:\n      mload(0x40)\n      tag_151\n      swap2\n      swap1\n      tag_47\n      jump\t// in\n    tag_151:\n      mload(0x40)\n      dup1\n      swap2\n      sub\n      swap1\n      return\n        /* \"Solidity/Tokens/MasterToken.sol\":894:937  mapping(address => bool) public blacklisted */\n    tag_32:\n      tag_152\n      0x04\n      dup1\n      calldatasize\n      sub\n      dup2\n      add\n      swap1\n      tag_153\n      swap2\n      swap1\n      tag_50\n      jump\t// in\n    tag_153:\n      tag_154\n      jump\t// in\n    tag_152:\n      mload(0x40)\n      tag_155\n      swap2\n      swap1\n      tag_56\n      jump\t// in\n    tag_155:\n      mload(0x40)\n      dup1\n      swap2\n      sub\n      swap1\n      return\n        /* \"Solidity/Tokens/MasterToken.sol\":3960:4096  function allowance(address owner9, address spender) public view returns (uint256) {... */\n    tag_33:\n      tag_156\n      0x04\n      dup1\n      calldatasize\n      sub\n      dup2\n      add\n      swap1\n      tag_157\n      swap2\n      swap1\n      tag_158\n      jump\t// in\n    tag_157:\n      tag_159\n      jump\t// in\n    tag_156:\n      mload(0x40)\n      tag_160\n      swap2\n      swap1\n      tag_47\n      jump\t// in\n    tag_160:\n      mload(0x40)\n      dup1\n      swap2\n      sub\n      swap1\n      return\n        /* \"Solidity/Tokens/MasterToken.sol\":8692:8841  function blacklistAddress(address account) public onlyOwner {... */\n    tag_34:\n      tag_161\n      0x04\n      dup1\n      calldatasize\n      sub\n      dup2\n      add\n      swap1\n      tag_162\n      swap2\n      swap1\n      tag_50\n      jump\t// in\n    tag_162:\n      tag_163\n      jump\t// in\n    tag_161:\n      stop\n        /* \"Solidity/Tokens/MasterToken.sol\":9764:9881  function addBurner(address account) public onlyOwner validAddress(account) {... */\n    tag_35:\n      tag_164\n      0x04\n      dup1\n      calldatasize\n      sub\n      dup2\n      add\n      swap1\n      tag_165\n      swap2\n      swap1\n      tag_50\n      jump\t// in\n    tag_165:\n      tag_166\n      jump\t// in\n    tag_164:\n      stop\n        /* \"Solidity/Tokens/MasterToken.sol\":623:662  mapping(address => bool) public minters */\n    tag_36:\n      tag_167\n      0x04\n      dup1\n      calldatasize\n      sub\n      dup2\n      add\n      swap1\n      tag_168\n      swap2\n      swap1\n      tag_50\n      jump\t// in\n    tag_168:\n      tag_169\n      jump\t// in\n    tag_167:\n      mload(0x40)\n      tag_170\n      swap2\n      swap1\n      tag_56\n      jump\t// in\n    tag_170:\n      mload(0x40)\n      dup1\n      swap2\n      sub\n      swap1\n      return\n        /* \"Solidity/Tokens/MasterToken.sol\":515:543  uint256 public maxFee = 1000 */\n    tag_45:\n      sload(0x09)\n      dup2\n      jump\t// out\n        /* \"Solidity/Tokens/MasterToken.sol\":9893:10014  function removeBurner(address account) public onlyOwner validAddress(account) {... */\n    tag_51:\n        /* \"Solidity/Tokens/MasterToken.sol\":2088:2093  owner */\n      0x0a\n      0x00\n      swap1\n      sload\n      swap1\n      0x0100\n      exp\n      swap1\n      div\n      0xffffffffffffffffffffffffffffffffffffffff\n      and\n        /* \"Solidity/Tokens/MasterToken.sol\":2074:2093  msg.sender != owner */\n      0xffffffffffffffffffffffffffffffffffffffff\n      and\n        /* \"Solidity/Tokens/MasterToken.sol\":2074:2084  msg.sender */\n      caller\n        /* \"Solidity/Tokens/MasterToken.sol\":2074:2093  msg.sender != owner */\n      0xffffffffffffffffffffffffffffffffffffffff\n      and\n      eq\n        /* \"Solidity/Tokens/MasterToken.sol\":2070:2112  if (msg.sender != owner) revert NotOwner() */\n      tag_172\n      jumpi\n        /* \"Solidity/Tokens/MasterToken.sol\":2102:2112  NotOwner() */\n      mload(0x40)\n      0x30cd747100000000000000000000000000000000000000000000000000000000\n      dup2\n      mstore\n      0x04\n      add\n      mload(0x40)\n      dup1\n      swap2\n      sub\n      swap1\n      revert\n        /* \"Solidity/Tokens/MasterToken.sol\":2070:2112  if (msg.sender != owner) revert NotOwner() */\n    tag_172:\n        /* \"Solidity/Tokens/MasterToken.sol\":9962:9969  account */\n      dup1\n        /* \"Solidity/Tokens/MasterToken.sol\":2566:2567  0 */\n      0x00\n        /* \"Solidity/Tokens/MasterToken.sol\":2550:2568  addr == address(0) */\n      0xffffffffffffffffffffffffffffffffffffffff\n      and\n        /* \"Solidity/Tokens/MasterToken.sol\":2550:2554  addr */\n      dup2\n        /* \"Solidity/Tokens/MasterToken.sol\":2550:2568  addr == address(0) */\n      0xffffffffffffffffffffffffffffffffffffffff\n      and\n      sub\n        /* \"Solidity/Tokens/MasterToken.sol\":2546:2590  if (addr == address(0)) revert ZeroAddress() */\n      tag_174\n      jumpi\n        /* \"Solidity/Tokens/MasterToken.sol\":2577:2590  ZeroAddress() */\n      mload(0x40)\n      0xd92e233d00000000000000000000000000000000000000000000000000000000\n      dup2\n      mstore\n      0x04\n      add\n      mload(0x40)\n      dup1\n      swap2\n      sub\n      swap1\n      revert\n        /* \"Solidity/Tokens/MasterToken.sol\":2546:2590  if (addr == address(0)) revert ZeroAddress() */\n    tag_174:\n        /* \"Solidity/Tokens/MasterToken.sol\":10001:10006  false */\n      0x00\n        /* \"Solidity/Tokens/MasterToken.sol\":9982:9989  burners */\n      0x0c\n        /* \"Solidity/Tokens/MasterToken.sol\":9982:9998  burners[account] */\n      0x00\n        /* \"Solidity/Tokens/MasterToken.sol\":9990:9997  account */\n      dup5\n        /* \"Solidity/Tokens/MasterToken.sol\":9982:9998  burners[account] */\n      0xffffffffffffffffffffffffffffffffffffffff\n      and\n      0xffffffffffffffffffffffffffffffffffffffff\n      and\n      dup2\n      mstore\n      0x20\n      add\n      swap1\n      dup2\n      mstore\n      0x20\n      add\n      0x00\n      keccak256\n      0x00\n        /* \"Solidity/Tokens/MasterToken.sol\":9982:10006  burners[account] = false */\n      0x0100\n      exp\n      dup2\n      sload\n      dup2\n      0xff\n      mul\n      not\n      and\n      swap1\n      dup4\n      iszero\n      iszero\n      mul\n      or\n      swap1\n      sstore\n      pop\n        /* \"Solidity/Tokens/MasterToken.sol\":2123:2124  _ */\n      pop\n        /* \"Solidity/Tokens/MasterToken.sol\":9893:10014  function removeBurner(address account) public onlyOwner validAddress(account) {... */\n      pop\n      jump\t// out\n        /* \"Solidity/Tokens/MasterToken.sol\":669:708  mapping(address => bool) public burners */\n    tag_54:\n      mstore(0x20, 0x0c)\n      dup1\n      0x00\n      mstore\n      keccak256(0x00, 0x40)\n      0x00\n      swap2\n      pop\n      sload\n      swap1\n      0x0100\n      exp\n      swap1\n      div\n      0xff\n      and\n      dup2\n      jump\t// out\n        /* \"Solidity/Tokens/MasterToken.sol\":113:131  string public name */\n    tag_58:\n      0x00\n      dup1\n      sload\n      tag_176\n      swap1\n      tag_177\n      jump\t// in\n    tag_176:\n      dup1\n      0x1f\n      add\n      0x20\n      dup1\n      swap2\n      div\n      mul\n      0x20\n      add\n      mload(0x40)\n      swap1\n      dup2\n      add\n      0x40\n      mstore\n      dup1\n      swap3\n      swap2\n      swap1\n      dup2\n      dup2\n      mstore\n      0x20\n      add\n      dup3\n      dup1\n      sload\n      tag_178\n      swap1\n      tag_177\n      jump\t// in\n    tag_178:\n      dup1\n      iszero\n      tag_179\n      jumpi\n      dup1\n      0x1f\n      lt\n      tag_180\n      jumpi\n      0x0100\n      dup1\n      dup4\n      sload\n      div\n      mul\n      dup4\n      mstore\n      swap2\n      0x20\n      add\n      swap2\n      jump(tag_179)\n    tag_180:\n      dup3\n      add\n      swap2\n      swap1\n      0x00\n      mstore\n      keccak256(0x00, 0x20)\n      swap1\n    tag_181:\n      dup2\n      sload\n      dup2\n      mstore\n      swap1\n      0x01\n      add\n      swap1\n      0x20\n      add\n      dup1\n      dup4\n      gt\n      tag_181\n      jumpi\n      dup3\n      swap1\n      sub\n      0x1f\n      and\n      dup3\n      add\n      swap2\n    tag_179:\n      pop\n      pop\n      pop\n      pop\n      pop\n      dup2\n      jump\t// out\n        /* \"Solidity/Tokens/MasterToken.sol\":4108:4353  function approve(address spender, uint256 amount) ... */\n    tag_64:\n        /* \"Solidity/Tokens/MasterToken.sol\":4263:4267  bool */\n      0x00\n        /* \"Solidity/Tokens/MasterToken.sol\":4200:4210  msg.sender */\n      caller\n        /* \"Solidity/Tokens/MasterToken.sol\":2418:2429  blacklisted */\n      0x0f\n        /* \"Solidity/Tokens/MasterToken.sol\":2418:2438  blacklisted[account] */\n      0x00\n        /* \"Solidity/Tokens/MasterToken.sol\":2430:2437  account */\n      dup3\n        /* \"Solidity/Tokens/MasterToken.sol\":2418:2438  blacklisted[account] */\n      0xffffffffffffffffffffffffffffffffffffffff\n      and\n      0xffffffffffffffffffffffffffffffffffffffff\n      and\n      dup2\n      mstore\n      0x20\n      add\n      swap1\n      dup2\n      mstore\n      0x20\n      add\n      0x00\n      keccak256\n      0x00\n      swap1\n      sload\n      swap1\n      0x0100\n      exp\n      swap1\n      div\n      0xff\n      and\n        /* \"Solidity/Tokens/MasterToken.sol\":2414:2467  if (blacklisted[account]) revert addressBlacklisted() */\n      iszero\n      tag_183\n      jumpi\n        /* \"Solidity/Tokens/MasterToken.sol\":2447:2467  addressBlacklisted() */\n      mload(0x40)\n      0x6eb8b83a00000000000000000000000000000000000000000000000000000000\n      dup2\n      mstore\n      0x04\n      add\n      mload(0x40)\n      dup1\n      swap2\n      sub\n      swap1\n      revert\n        /* \"Solidity/Tokens/MasterToken.sol\":2414:2467  if (blacklisted[account]) revert addressBlacklisted() */\n    tag_183:\n        /* \"Solidity/Tokens/MasterToken.sol\":4236:4243  spender */\n      dup4\n        /* \"Solidity/Tokens/MasterToken.sol\":2418:2429  blacklisted */\n      0x0f\n        /* \"Solidity/Tokens/MasterToken.sol\":2418:2438  blacklisted[account] */\n      0x00\n        /* \"Solidity/Tokens/MasterToken.sol\":2430:2437  account */\n      dup3\n        /* \"Solidity/Tokens/MasterToken.sol\":2418:2438  blacklisted[account] */\n      0xffffffffffffffffffffffffffffffffffffffff\n      and\n      0xffffffffffffffffffffffffffffffffffffffff\n      and\n      dup2\n      mstore\n      0x20\n      add\n      swap1\n      dup2\n      mstore\n      0x20\n      add\n      0x00\n      keccak256\n      0x00\n      swap1\n      sload\n      swap1\n      0x0100\n      exp\n      swap1\n      div\n      0xff\n      and\n        /* \"Solidity/Tokens/MasterToken.sol\":2414:2467  if (blacklisted[account]) revert addressBlacklisted() */\n      iszero\n      tag_185\n      jumpi\n        /* \"Solidity/Tokens/MasterToken.sol\":2447:2467  addressBlacklisted() */\n      mload(0x40)\n      0x6eb8b83a00000000000000000000000000000000000000000000000000000000\n      dup2\n      mstore\n      0x04\n      add\n      mload(0x40)\n      dup1\n      swap2\n      sub\n      swap1\n      revert\n        /* \"Solidity/Tokens/MasterToken.sol\":2414:2467  if (blacklisted[account]) revert addressBlacklisted() */\n    tag_185:\n        /* \"Solidity/Tokens/MasterToken.sol\":4286:4323  _approve(msg.sender, spender, amount) */\n      tag_187\n        /* \"Solidity/Tokens/MasterToken.sol\":4295:4305  msg.sender */\n      caller\n        /* \"Solidity/Tokens/MasterToken.sol\":4307:4314  spender */\n      dup7\n        /* \"Solidity/Tokens/MasterToken.sol\":4316:4322  amount */\n      dup7\n        /* \"Solidity/Tokens/MasterToken.sol\":4286:4294  _approve */\n      tag_188\n        /* \"Solidity/Tokens/MasterToken.sol\":4286:4323  _approve(msg.sender, spender, amount) */\n      jump\t// in\n    tag_187:\n        /* \"Solidity/Tokens/MasterToken.sol\":4341:4345  true */\n      0x01\n        /* \"Solidity/Tokens/MasterToken.sol\":4334:4345  return true */\n      swap3\n      pop\n        /* \"Solidity/Tokens/MasterToken.sol\":2478:2479  _ */\n      pop\n        /* \"Solidity/Tokens/MasterToken.sol\":4108:4353  function approve(address spender, uint256 amount) ... */\n      pop\n      swap3\n      swap2\n      pop\n      pop\n      jump\t// out\n        /* \"Solidity/Tokens/MasterToken.sol\":8373:8506  function getUnlockedBalance(address user) public view returns (uint256) {... */\n    tag_68:\n        /* \"Solidity/Tokens/MasterToken.sol\":8436:8443  uint256 */\n      0x00\n        /* \"Solidity/Tokens/MasterToken.sol\":8481:8492  totalLocked */\n      0x0e\n        /* \"Solidity/Tokens/MasterToken.sol\":8481:8498  totalLocked[user] */\n      0x00\n        /* \"Solidity/Tokens/MasterToken.sol\":8493:8497  user */\n      dup4\n        /* \"Solidity/Tokens/MasterToken.sol\":8481:8498  totalLocked[user] */\n      0xffffffffffffffffffffffffffffffffffffffff\n      and\n      0xffffffffffffffffffffffffffffffffffffffff\n      and\n      dup2\n      mstore\n      0x20\n      add\n      swap1\n      dup2\n      mstore\n      0x20\n      add\n      0x00\n      keccak256\n      sload\n        /* \"Solidity/Tokens/MasterToken.sol\":8463:8472  _balances */\n      0x05\n        /* \"Solidity/Tokens/MasterToken.sol\":8463:8478  _balances[user] */\n      0x00\n        /* \"Solidity/Tokens/MasterToken.sol\":8473:8477  user */\n      dup5\n        /* \"Solidity/Tokens/MasterToken.sol\":8463:8478  _balances[user] */\n      0xffffffffffffffffffffffffffffffffffffffff\n      and\n      0xffffffffffffffffffffffffffffffffffffffff\n      and\n      dup2\n      mstore\n      0x20\n      add\n      swap1\n      dup2\n      mstore\n      0x20\n      add\n      0x00\n      keccak256\n      sload\n        /* \"Solidity/Tokens/MasterToken.sol\":8463:8498  _balances[user] - totalLocked[user] */\n      tag_190\n      swap2\n      swap1\n      tag_191\n      jump\t// in\n    tag_190:\n        /* \"Solidity/Tokens/MasterToken.sol\":8456:8498  return _balances[user] - totalLocked[user] */\n      swap1\n      pop\n        /* \"Solidity/Tokens/MasterToken.sol\":8373:8506  function getUnlockedBalance(address user) public view returns (uint256) {... */\n      swap2\n      swap1\n      pop\n      jump\t// out\n        /* \"Solidity/Tokens/MasterToken.sol\":8518:8647  function getLockDetails(address user) public view returns (LockedBalance[] memory) {... */\n    tag_72:\n        /* \"Solidity/Tokens/MasterToken.sol\":8577:8599  LockedBalance[] memory */\n      0x60\n        /* \"Solidity/Tokens/MasterToken.sol\":8619:8633  lockedBalances */\n      0x0d\n        /* \"Solidity/Tokens/MasterToken.sol\":8619:8639  lockedBalances[user] */\n      0x00\n        /* \"Solidity/Tokens/MasterToken.sol\":8634:8638  user */\n      dup4\n        /* \"Solidity/Tokens/MasterToken.sol\":8619:8639  lockedBalances[user] */\n      0xffffffffffffffffffffffffffffffffffffffff\n      and\n      0xffffffffffffffffffffffffffffffffffffffff\n      and\n      dup2\n      mstore\n      0x20\n      add\n      swap1\n      dup2\n      mstore\n      0x20\n      add\n      0x00\n      keccak256\n        /* \"Solidity/Tokens/MasterToken.sol\":8612:8639  return lockedBalances[user] */\n      dup1\n      sload\n      dup1\n      0x20\n      mul\n      0x20\n      add\n      mload(0x40)\n      swap1\n      dup2\n      add\n      0x40\n      mstore\n      dup1\n      swap3\n      swap2\n      swap1\n      dup2\n      dup2\n      mstore\n      0x20\n      add\n      0x00\n      swap1\n    tag_193:\n      dup3\n      dup3\n      lt\n      iszero\n      tag_194\n      jumpi\n      dup4\n      dup3\n      swap1\n      0x00\n      mstore\n      keccak256(0x00, 0x20)\n      swap1\n      0x02\n      mul\n      add\n      mload(0x40)\n      dup1\n      0x40\n      add\n      0x40\n      mstore\n      swap1\n      dup2\n      0x00\n      dup3\n      add\n      sload\n      dup2\n      mstore\n      0x20\n      add\n      0x01\n      dup3\n      add\n      sload\n      dup2\n      mstore\n      pop\n      pop\n      dup2\n      mstore\n      0x20\n      add\n      swap1\n      0x01\n      add\n      swap1\n      jump(tag_193)\n    tag_194:\n      pop\n      pop\n      pop\n      pop\n      swap1\n      pop\n        /* \"Solidity/Tokens/MasterToken.sol\":8518:8647  function getLockDetails(address user) public view returns (LockedBalance[] memory) {... */\n      swap2\n      swap1\n      pop\n      jump\t// out\n        /* \"Solidity/Tokens/MasterToken.sol\":193:219  uint256 public totalSupply */\n    tag_76:\n      sload(0x03)\n      dup2\n      jump\t// out\n        /* \"Solidity/Tokens/MasterToken.sol\":4365:4785  function transferFrom(address from, address to, uint256 amount) ... */\n    tag_81:\n        /* \"Solidity/Tokens/MasterToken.sol\":4559:4563  bool */\n      0x00\n        /* \"Solidity/Tokens/MasterToken.sol\":4471:4475  from */\n      dup4\n        /* \"Solidity/Tokens/MasterToken.sol\":2418:2429  blacklisted */\n      0x0f\n        /* \"Solidity/Tokens/MasterToken.sol\":2418:2438  blacklisted[account] */\n      0x00\n        /* \"Solidity/Tokens/MasterToken.sol\":2430:2437  account */\n      dup3\n        /* \"Solidity/Tokens/MasterToken.sol\":2418:2438  blacklisted[account] */\n      0xffffffffffffffffffffffffffffffffffffffff\n      and\n      0xffffffffffffffffffffffffffffffffffffffff\n      and\n      dup2\n      mstore\n      0x20\n      add\n      swap1\n      dup2\n      mstore\n      0x20\n      add\n      0x00\n      keccak256\n      0x00\n      swap1\n      sload\n      swap1\n      0x0100\n      exp\n      swap1\n      div\n      0xff\n      and\n        /* \"Solidity/Tokens/MasterToken.sol\":2414:2467  if (blacklisted[account]) revert addressBlacklisted() */\n      iszero\n      tag_197\n      jumpi\n        /* \"Solidity/Tokens/MasterToken.sol\":2447:2467  addressBlacklisted() */\n      mload(0x40)\n      0x6eb8b83a00000000000000000000000000000000000000000000000000000000\n      dup2\n      mstore\n      0x04\n      add\n      mload(0x40)\n      dup1\n      swap2\n      sub\n      swap1\n      revert\n        /* \"Solidity/Tokens/MasterToken.sol\":2414:2467  if (blacklisted[account]) revert addressBlacklisted() */\n    tag_197:\n        /* \"Solidity/Tokens/MasterToken.sol\":4501:4503  to */\n      dup4\n        /* \"Solidity/Tokens/MasterToken.sol\":2418:2429  blacklisted */\n      0x0f\n        /* \"Solidity/Tokens/MasterToken.sol\":2418:2438  blacklisted[account] */\n      0x00\n        /* \"Solidity/Tokens/MasterToken.sol\":2430:2437  account */\n      dup3\n        /* \"Solidity/Tokens/MasterToken.sol\":2418:2438  blacklisted[account] */\n      0xffffffffffffffffffffffffffffffffffffffff\n      and\n      0xffffffffffffffffffffffffffffffffffffffff\n      and\n      dup2\n      mstore\n      0x20\n      add\n      swap1\n      dup2\n      mstore\n      0x20\n      add\n      0x00\n      keccak256\n      0x00\n      swap1\n      sload\n      swap1\n      0x0100\n      exp\n      swap1\n      div\n      0xff\n      and\n        /* \"Solidity/Tokens/MasterToken.sol\":2414:2467  if (blacklisted[account]) revert addressBlacklisted() */\n      iszero\n      tag_199\n      jumpi\n        /* \"Solidity/Tokens/MasterToken.sol\":2447:2467  addressBlacklisted() */\n      mload(0x40)\n      0x6eb8b83a00000000000000000000000000000000000000000000000000000000\n      dup2\n      mstore\n      0x04\n      add\n      mload(0x40)\n      dup1\n      swap2\n      sub\n      swap1\n      revert\n        /* \"Solidity/Tokens/MasterToken.sol\":2414:2467  if (blacklisted[account]) revert addressBlacklisted() */\n    tag_199:\n        /* \"Solidity/Tokens/MasterToken.sol\":4529:4539  msg.sender */\n      caller\n        /* \"Solidity/Tokens/MasterToken.sol\":2418:2429  blacklisted */\n      0x0f\n        /* \"Solidity/Tokens/MasterToken.sol\":2418:2438  blacklisted[account] */\n      0x00\n        /* \"Solidity/Tokens/MasterToken.sol\":2430:2437  account */\n      dup3\n        /* \"Solidity/Tokens/MasterToken.sol\":2418:2438  blacklisted[account] */\n      0xffffffffffffffffffffffffffffffffffffffff\n      and\n      0xffffffffffffffffffffffffffffffffffffffff\n      and\n      dup2\n      mstore\n      0x20\n      add\n      swap1\n      dup2\n      mstore\n      0x20\n      add\n      0x00\n      keccak256\n      0x00\n      swap1\n      sload\n      swap1\n      0x0100\n      exp\n      swap1\n      div\n      0xff\n      and\n        /* \"Solidity/Tokens/MasterToken.sol\":2414:2467  if (blacklisted[account]) revert addressBlacklisted() */\n      iszero\n      tag_201\n      jumpi\n        /* \"Solidity/Tokens/MasterToken.sol\":2447:2467  addressBlacklisted() */\n      mload(0x40)\n      0x6eb8b83a00000000000000000000000000000000000000000000000000000000\n      dup2\n      mstore\n      0x04\n      add\n      mload(0x40)\n      dup1\n      swap2\n      sub\n      swap1\n      revert\n        /* \"Solidity/Tokens/MasterToken.sol\":2414:2467  if (blacklisted[account]) revert addressBlacklisted() */\n    tag_201:\n        /* \"Solidity/Tokens/MasterToken.sol\":4618:4624  amount */\n      dup5\n        /* \"Solidity/Tokens/MasterToken.sol\":4590:4614  getUnlockedBalance(from) */\n      tag_203\n        /* \"Solidity/Tokens/MasterToken.sol\":4609:4613  from */\n      dup9\n        /* \"Solidity/Tokens/MasterToken.sol\":4590:4608  getUnlockedBalance */\n      tag_68\n        /* \"Solidity/Tokens/MasterToken.sol\":4590:4614  getUnlockedBalance(from) */\n      jump\t// in\n    tag_203:\n        /* \"Solidity/Tokens/MasterToken.sol\":4590:4624  getUnlockedBalance(from) >= amount */\n      lt\n      iszero\n        /* \"Solidity/Tokens/MasterToken.sol\":4582:4658  require(getUnlockedBalance(from) >= amount, \"Insufficient unlocked balance\") */\n      tag_204\n      jumpi\n      mload(0x40)\n      0x08c379a000000000000000000000000000000000000000000000000000000000\n      dup2\n      mstore\n      0x04\n      add\n      tag_205\n      swap1\n      tag_206\n      jump\t// in\n    tag_205:\n      mload(0x40)\n      dup1\n      swap2\n      sub\n      swap1\n      revert\n    tag_204:\n        /* \"Solidity/Tokens/MasterToken.sol\":4669:4710  _spendAllowance(from, msg.sender, amount) */\n      tag_207\n        /* \"Solidity/Tokens/MasterToken.sol\":4685:4689  from */\n      dup8\n        /* \"Solidity/Tokens/MasterToken.sol\":4691:4701  msg.sender */\n      caller\n        /* \"Solidity/Tokens/MasterToken.sol\":4703:4709  amount */\n      dup8\n        /* \"Solidity/Tokens/MasterToken.sol\":4669:4684  _spendAllowance */\n      tag_208\n        /* \"Solidity/Tokens/MasterToken.sol\":4669:4710  _spendAllowance(from, msg.sender, amount) */\n      jump\t// in\n    tag_207:\n        /* \"Solidity/Tokens/MasterToken.sol\":4721:4755  _transferWithFee(from, to, amount) */\n      tag_209\n        /* \"Solidity/Tokens/MasterToken.sol\":4738:4742  from */\n      dup8\n        /* \"Solidity/Tokens/MasterToken.sol\":4744:4746  to */\n      dup8\n        /* \"Solidity/Tokens/MasterToken.sol\":4748:4754  amount */\n      dup8\n        /* \"Solidity/Tokens/MasterToken.sol\":4721:4737  _transferWithFee */\n      tag_210\n        /* \"Solidity/Tokens/MasterToken.sol\":4721:4755  _transferWithFee(from, to, amount) */\n      jump\t// in\n    tag_209:\n        /* \"Solidity/Tokens/MasterToken.sol\":4773:4777  true */\n      0x01\n        /* \"Solidity/Tokens/MasterToken.sol\":4766:4777  return true */\n      swap4\n      pop\n        /* \"Solidity/Tokens/MasterToken.sol\":2478:2479  _ */\n      pop\n      pop\n        /* \"Solidity/Tokens/MasterToken.sol\":4365:4785  function transferFrom(address from, address to, uint256 amount) ... */\n      pop\n      swap4\n      swap3\n      pop\n      pop\n      pop\n      jump\t// out\n        /* \"Solidity/Tokens/MasterToken.sol\":9631:9752  function removeMinter(address account) public onlyOwner validAddress(account) {... */\n    tag_85:\n        /* \"Solidity/Tokens/MasterToken.sol\":2088:2093  owner */\n      0x0a\n      0x00\n      swap1\n      sload\n      swap1\n      0x0100\n      exp\n      swap1\n      div\n      0xffffffffffffffffffffffffffffffffffffffff\n      and\n        /* \"Solidity/Tokens/MasterToken.sol\":2074:2093  msg.sender != owner */\n      0xffffffffffffffffffffffffffffffffffffffff\n      and\n        /* \"Solidity/Tokens/MasterToken.sol\":2074:2084  msg.sender */\n      caller\n        /* \"Solidity/Tokens/MasterToken.sol\":2074:2093  msg.sender != owner */\n      0xffffffffffffffffffffffffffffffffffffffff\n      and\n      eq\n        /* \"Solidity/Tokens/MasterToken.sol\":2070:2112  if (msg.sender != owner) revert NotOwner() */\n      tag_212\n      jumpi\n        /* \"Solidity/Tokens/MasterToken.sol\":2102:2112  NotOwner() */\n      mload(0x40)\n      0x30cd747100000000000000000000000000000000000000000000000000000000\n      dup2\n      mstore\n      0x04\n      add\n      mload(0x40)\n      dup1\n      swap2\n      sub\n      swap1\n      revert\n        /* \"Solidity/Tokens/MasterToken.sol\":2070:2112  if (msg.sender != owner) revert NotOwner() */\n    tag_212:\n        /* \"Solidity/Tokens/MasterToken.sol\":9700:9707  account */\n      dup1\n        /* \"Solidity/Tokens/MasterToken.sol\":2566:2567  0 */\n      0x00\n        /* \"Solidity/Tokens/MasterToken.sol\":2550:2568  addr == address(0) */\n      0xffffffffffffffffffffffffffffffffffffffff\n      and\n        /* \"Solidity/Tokens/MasterToken.sol\":2550:2554  addr */\n      dup2\n        /* \"Solidity/Tokens/MasterToken.sol\":2550:2568  addr == address(0) */\n      0xffffffffffffffffffffffffffffffffffffffff\n      and\n      sub\n        /* \"Solidity/Tokens/MasterToken.sol\":2546:2590  if (addr == address(0)) revert ZeroAddress() */\n      tag_214\n      jumpi\n        /* \"Solidity/Tokens/MasterToken.sol\":2577:2590  ZeroAddress() */\n      mload(0x40)\n      0xd92e233d00000000000000000000000000000000000000000000000000000000\n      dup2\n      mstore\n      0x04\n      add\n      mload(0x40)\n      dup1\n      swap2\n      sub\n      swap1\n      revert\n        /* \"Solidity/Tokens/MasterToken.sol\":2546:2590  if (addr == address(0)) revert ZeroAddress() */\n    tag_214:\n        /* \"Solidity/Tokens/MasterToken.sol\":9739:9744  false */\n      0x00\n        /* \"Solidity/Tokens/MasterToken.sol\":9720:9727  minters */\n      0x0b\n        /* \"Solidity/Tokens/MasterToken.sol\":9720:9736  minters[account] */\n      0x00\n        /* \"Solidity/Tokens/MasterToken.sol\":9728:9735  account */\n      dup5\n        /* \"Solidity/Tokens/MasterToken.sol\":9720:9736  minters[account] */\n      0xffffffffffffffffffffffffffffffffffffffff\n      and\n      0xffffffffffffffffffffffffffffffffffffffff\n      and\n      dup2\n      mstore\n      0x20\n      add\n      swap1\n      dup2\n      mstore\n      0x20\n      add\n      0x00\n      keccak256\n      0x00\n        /* \"Solidity/Tokens/MasterToken.sol\":9720:9744  minters[account] = false */\n      0x0100\n      exp\n      dup2\n      sload\n      dup2\n      0xff\n      mul\n      not\n      and\n      swap1\n      dup4\n      iszero\n      iszero\n      mul\n      or\n      swap1\n      sstore\n      pop\n        /* \"Solidity/Tokens/MasterToken.sol\":2123:2124  _ */\n      pop\n        /* \"Solidity/Tokens/MasterToken.sol\":9631:9752  function removeMinter(address account) public onlyOwner validAddress(account) {... */\n      pop\n      jump\t// out\n        /* \"Solidity/Tokens/MasterToken.sol\":165:186  uint8 public decimals */\n    tag_87:\n      0x02\n      0x00\n      swap1\n      sload\n      swap1\n      0x0100\n      exp\n      swap1\n      div\n      0xff\n      and\n      dup2\n      jump\t// out\n        /* \"Solidity/Tokens/MasterToken.sol\":4828:4977  function mint(address to, uint256 amount) ... */\n    tag_92:\n        /* \"Solidity/Tokens/MasterToken.sol\":2182:2189  minters */\n      0x0b\n        /* \"Solidity/Tokens/MasterToken.sol\":2182:2201  minters[msg.sender] */\n      0x00\n        /* \"Solidity/Tokens/MasterToken.sol\":2190:2200  msg.sender */\n      caller\n        /* \"Solidity/Tokens/MasterToken.sol\":2182:2201  minters[msg.sender] */\n      0xffffffffffffffffffffffffffffffffffffffff\n      and\n      0xffffffffffffffffffffffffffffffffffffffff\n      and\n      dup2\n      mstore\n      0x20\n      add\n      swap1\n      dup2\n      mstore\n      0x20\n      add\n      0x00\n      keccak256\n      0x00\n      swap1\n      sload\n      swap1\n      0x0100\n      exp\n      swap1\n      div\n      0xff\n      and\n        /* \"Solidity/Tokens/MasterToken.sol\":2177:2221  if (!minters[msg.sender]) revert NotMinter() */\n      tag_217\n      jumpi\n        /* \"Solidity/Tokens/MasterToken.sol\":2210:2221  NotMinter() */\n      mload(0x40)\n      0xf8d2906c00000000000000000000000000000000000000000000000000000000\n      dup2\n      mstore\n      0x04\n      add\n      mload(0x40)\n      dup1\n      swap2\n      sub\n      swap1\n      revert\n        /* \"Solidity/Tokens/MasterToken.sol\":2177:2221  if (!minters[msg.sender]) revert NotMinter() */\n    tag_217:\n        /* \"Solidity/Tokens/MasterToken.sol\":4932:4934  to */\n      dup2\n        /* \"Solidity/Tokens/MasterToken.sol\":2418:2429  blacklisted */\n      0x0f\n        /* \"Solidity/Tokens/MasterToken.sol\":2418:2438  blacklisted[account] */\n      0x00\n        /* \"Solidity/Tokens/MasterToken.sol\":2430:2437  account */\n      dup3\n        /* \"Solidity/Tokens/MasterToken.sol\":2418:2438  blacklisted[account] */\n      0xffffffffffffffffffffffffffffffffffffffff\n      and\n      0xffffffffffffffffffffffffffffffffffffffff\n      and\n      dup2\n      mstore\n      0x20\n      add\n      swap1\n      dup2\n      mstore\n      0x20\n      add\n      0x00\n      keccak256\n      0x00\n      swap1\n      sload\n      swap1\n      0x0100\n      exp\n      swap1\n      div\n      0xff\n      and\n        /* \"Solidity/Tokens/MasterToken.sol\":2414:2467  if (blacklisted[account]) revert addressBlacklisted() */\n      iszero\n      tag_219\n      jumpi\n        /* \"Solidity/Tokens/MasterToken.sol\":2447:2467  addressBlacklisted() */\n      mload(0x40)\n      0x6eb8b83a00000000000000000000000000000000000000000000000000000000\n      dup2\n      mstore\n      0x04\n      add\n      mload(0x40)\n      dup1\n      swap2\n      sub\n      swap1\n      revert\n        /* \"Solidity/Tokens/MasterToken.sol\":2414:2467  if (blacklisted[account]) revert addressBlacklisted() */\n    tag_219:\n        /* \"Solidity/Tokens/MasterToken.sol\":4952:4969  _mint(to, amount) */\n      tag_221\n        /* \"Solidity/Tokens/MasterToken.sol\":4958:4960  to */\n      dup4\n        /* \"Solidity/Tokens/MasterToken.sol\":4962:4968  amount */\n      dup4\n        /* \"Solidity/Tokens/MasterToken.sol\":4952:4957  _mint */\n      tag_222\n        /* \"Solidity/Tokens/MasterToken.sol\":4952:4969  _mint(to, amount) */\n      jump\t// in\n    tag_221:\n        /* \"Solidity/Tokens/MasterToken.sol\":2232:2233  _ */\n      pop\n        /* \"Solidity/Tokens/MasterToken.sol\":4828:4977  function mint(address to, uint256 amount) ... */\n      pop\n      pop\n      jump\t// out\n        /* \"Solidity/Tokens/MasterToken.sol\":8853:9003  function whitelistAddress(address account) public onlyOwner {... */\n    tag_95:\n        /* \"Solidity/Tokens/MasterToken.sol\":2088:2093  owner */\n      0x0a\n      0x00\n      swap1\n      sload\n      swap1\n      0x0100\n      exp\n      swap1\n      div\n      0xffffffffffffffffffffffffffffffffffffffff\n      and\n        /* \"Solidity/Tokens/MasterToken.sol\":2074:2093  msg.sender != owner */\n      0xffffffffffffffffffffffffffffffffffffffff\n      and\n        /* \"Solidity/Tokens/MasterToken.sol\":2074:2084  msg.sender */\n      caller\n        /* \"Solidity/Tokens/MasterToken.sol\":2074:2093  msg.sender != owner */\n      0xffffffffffffffffffffffffffffffffffffffff\n      and\n      eq\n        /* \"Solidity/Tokens/MasterToken.sol\":2070:2112  if (msg.sender != owner) revert NotOwner() */\n      tag_224\n      jumpi\n        /* \"Solidity/Tokens/MasterToken.sol\":2102:2112  NotOwner() */\n      mload(0x40)\n      0x30cd747100000000000000000000000000000000000000000000000000000000\n      dup2\n      mstore\n      0x04\n      add\n      mload(0x40)\n      dup1\n      swap2\n      sub\n      swap1\n      revert\n        /* \"Solidity/Tokens/MasterToken.sol\":2070:2112  if (msg.sender != owner) revert NotOwner() */\n    tag_224:\n        /* \"Solidity/Tokens/MasterToken.sol\":8947:8952  false */\n      0x00\n        /* \"Solidity/Tokens/MasterToken.sol\":8924:8935  blacklisted */\n      0x0f\n        /* \"Solidity/Tokens/MasterToken.sol\":8924:8944  blacklisted[account] */\n      0x00\n        /* \"Solidity/Tokens/MasterToken.sol\":8936:8943  account */\n      dup4\n        /* \"Solidity/Tokens/MasterToken.sol\":8924:8944  blacklisted[account] */\n      0xffffffffffffffffffffffffffffffffffffffff\n      and\n      0xffffffffffffffffffffffffffffffffffffffff\n      and\n      dup2\n      mstore\n      0x20\n      add\n      swap1\n      dup2\n      mstore\n      0x20\n      add\n      0x00\n      keccak256\n      0x00\n        /* \"Solidity/Tokens/MasterToken.sol\":8924:8952  blacklisted[account] = false */\n      0x0100\n      exp\n      dup2\n      sload\n      dup2\n      0xff\n      mul\n      not\n      and\n      swap1\n      dup4\n      iszero\n      iszero\n      mul\n      or\n      swap1\n      sstore\n      pop\n        /* \"Solidity/Tokens/MasterToken.sol\":8987:8994  account */\n      dup1\n        /* \"Solidity/Tokens/MasterToken.sol\":8968:8995  AddressWhitelisted(account) */\n      0xffffffffffffffffffffffffffffffffffffffff\n      and\n      0x4f783c179409b4127238bc9c990bc99b9a651666a0d20b51d6c42849eb88466d\n      mload(0x40)\n      mload(0x40)\n      dup1\n      swap2\n      sub\n      swap1\n      log2\n        /* \"Solidity/Tokens/MasterToken.sol\":8853:9003  function whitelistAddress(address account) public onlyOwner {... */\n      pop\n      jump\t// out\n        /* \"Solidity/Tokens/MasterToken.sol\":5452:5533  function burn(uint256 amount) public {... */\n    tag_99:\n        /* \"Solidity/Tokens/MasterToken.sol\":5500:5525  _burn(msg.sender, amount) */\n      tag_227\n        /* \"Solidity/Tokens/MasterToken.sol\":5506:5516  msg.sender */\n      caller\n        /* \"Solidity/Tokens/MasterToken.sol\":5518:5524  amount */\n      dup3\n        /* \"Solidity/Tokens/MasterToken.sol\":5500:5505  _burn */\n      tag_228\n        /* \"Solidity/Tokens/MasterToken.sol\":5500:5525  _burn(msg.sender, amount) */\n      jump\t// in\n    tag_227:\n        /* \"Solidity/Tokens/MasterToken.sol\":5452:5533  function burn(uint256 amount) public {... */\n      pop\n      jump\t// out\n        /* \"Solidity/Tokens/MasterToken.sol\":746:803  mapping(address => LockedBalance[]) public lockedBalances */\n    tag_102:\n      mstore(0x20, 0x0d)\n      dup2\n      0x00\n      mstore\n      keccak256(0x00, 0x40)\n      dup2\n      dup2\n      sload\n      dup2\n      lt\n      tag_229\n      jumpi\n      0x00\n      dup1\n      revert\n    tag_229:\n      swap1\n      0x00\n      mstore\n      keccak256(0x00, 0x20)\n      swap1\n      0x02\n      mul\n      add\n      0x00\n      swap2\n      pop\n      swap2\n      pop\n      pop\n      dup1\n      0x00\n      add\n      sload\n      swap1\n      dup1\n      0x01\n      add\n      sload\n      swap1\n      pop\n      dup3\n      jump\t// out\n        /* \"Solidity/Tokens/MasterToken.sol\":3494:3604  function balanceOf(address account) public view returns (uint256) {... */\n    tag_107:\n        /* \"Solidity/Tokens/MasterToken.sol\":3551:3558  uint256 */\n      0x00\n        /* \"Solidity/Tokens/MasterToken.sol\":3578:3587  _balances */\n      0x05\n        /* \"Solidity/Tokens/MasterToken.sol\":3578:3596  _balances[account] */\n      0x00\n        /* \"Solidity/Tokens/MasterToken.sol\":3588:3595  account */\n      dup4\n        /* \"Solidity/Tokens/MasterToken.sol\":3578:3596  _balances[account] */\n      0xffffffffffffffffffffffffffffffffffffffff\n      and\n      0xffffffffffffffffffffffffffffffffffffffff\n      and\n      dup2\n      mstore\n      0x20\n      add\n      swap1\n      dup2\n      mstore\n      0x20\n      add\n      0x00\n      keccak256\n      sload\n        /* \"Solidity/Tokens/MasterToken.sol\":3571:3596  return _balances[account] */\n      swap1\n      pop\n        /* \"Solidity/Tokens/MasterToken.sol\":3494:3604  function balanceOf(address account) public view returns (uint256) {... */\n      swap2\n      swap1\n      pop\n      jump\t// out\n        /* \"Solidity/Tokens/MasterToken.sol\":5545:5756  function burnFrom(address from, uint256 amount) ... */\n    tag_111:\n        /* \"Solidity/Tokens/MasterToken.sol\":2291:2298  burners */\n      0x0c\n        /* \"Solidity/Tokens/MasterToken.sol\":2291:2310  burners[msg.sender] */\n      0x00\n        /* \"Solidity/Tokens/MasterToken.sol\":2299:2309  msg.sender */\n      caller\n        /* \"Solidity/Tokens/MasterToken.sol\":2291:2310  burners[msg.sender] */\n      0xffffffffffffffffffffffffffffffffffffffff\n      and\n      0xffffffffffffffffffffffffffffffffffffffff\n      and\n      dup2\n      mstore\n      0x20\n      add\n      swap1\n      dup2\n      mstore\n      0x20\n      add\n      0x00\n      keccak256\n      0x00\n      swap1\n      sload\n      swap1\n      0x0100\n      exp\n      swap1\n      div\n      0xff\n      and\n        /* \"Solidity/Tokens/MasterToken.sol\":2286:2330  if (!burners[msg.sender]) revert NotBurner() */\n      tag_233\n      jumpi\n        /* \"Solidity/Tokens/MasterToken.sol\":2319:2330  NotBurner() */\n      mload(0x40)\n      0xf019b1af00000000000000000000000000000000000000000000000000000000\n      dup2\n      mstore\n      0x04\n      add\n      mload(0x40)\n      dup1\n      swap2\n      sub\n      swap1\n      revert\n        /* \"Solidity/Tokens/MasterToken.sol\":2286:2330  if (!burners[msg.sender]) revert NotBurner() */\n    tag_233:\n        /* \"Solidity/Tokens/MasterToken.sol\":5655:5659  from */\n      dup2\n        /* \"Solidity/Tokens/MasterToken.sol\":2418:2429  blacklisted */\n      0x0f\n        /* \"Solidity/Tokens/MasterToken.sol\":2418:2438  blacklisted[account] */\n      0x00\n        /* \"Solidity/Tokens/MasterToken.sol\":2430:2437  account */\n      dup3\n        /* \"Solidity/Tokens/MasterToken.sol\":2418:2438  blacklisted[account] */\n      0xffffffffffffffffffffffffffffffffffffffff\n      and\n      0xffffffffffffffffffffffffffffffffffffffff\n      and\n      dup2\n      mstore\n      0x20\n      add\n      swap1\n      dup2\n      mstore\n      0x20\n      add\n      0x00\n      keccak256\n      0x00\n      swap1\n      sload\n      swap1\n      0x0100\n      exp\n      swap1\n      div\n      0xff\n      and\n        /* \"Solidity/Tokens/MasterToken.sol\":2414:2467  if (blacklisted[account]) revert addressBlacklisted() */\n      iszero\n      tag_235\n      jumpi\n        /* \"Solidity/Tokens/MasterToken.sol\":2447:2467  addressBlacklisted() */\n      mload(0x40)\n      0x6eb8b83a00000000000000000000000000000000000000000000000000000000\n      dup2\n      mstore\n      0x04\n      add\n      mload(0x40)\n      dup1\n      swap2\n      sub\n      swap1\n      revert\n        /* \"Solidity/Tokens/MasterToken.sol\":2414:2467  if (blacklisted[account]) revert addressBlacklisted() */\n    tag_235:\n        /* \"Solidity/Tokens/MasterToken.sol\":5677:5718  _spendAllowance(from, msg.sender, amount) */\n      tag_237\n        /* \"Solidity/Tokens/MasterToken.sol\":5693:5697  from */\n      dup4\n        /* \"Solidity/Tokens/MasterToken.sol\":5699:5709  msg.sender */\n      caller\n        /* \"Solidity/Tokens/MasterToken.sol\":5711:5717  amount */\n      dup5\n        /* \"Solidity/Tokens/MasterToken.sol\":5677:5692  _spendAllowance */\n      tag_208\n        /* \"Solidity/Tokens/MasterToken.sol\":5677:5718  _spendAllowance(from, msg.sender, amount) */\n      jump\t// in\n    tag_237:\n        /* \"Solidity/Tokens/MasterToken.sol\":5729:5748  _burn(from, amount) */\n      tag_238\n        /* \"Solidity/Tokens/MasterToken.sol\":5735:5739  from */\n      dup4\n        /* \"Solidity/Tokens/MasterToken.sol\":5741:5747  amount */\n      dup4\n        /* \"Solidity/Tokens/MasterToken.sol\":5729:5734  _burn */\n      tag_228\n        /* \"Solidity/Tokens/MasterToken.sol\":5729:5748  _burn(from, amount) */\n      jump\t// in\n    tag_238:\n        /* \"Solidity/Tokens/MasterToken.sol\":2341:2342  _ */\n      pop\n        /* \"Solidity/Tokens/MasterToken.sol\":5545:5756  function burnFrom(address from, uint256 amount) ... */\n      pop\n      pop\n      jump\t// out\n        /* \"Solidity/Tokens/MasterToken.sol\":596:616  address public owner */\n    tag_113:\n      0x0a\n      0x00\n      swap1\n      sload\n      swap1\n      0x0100\n      exp\n      swap1\n      div\n      0xffffffffffffffffffffffffffffffffffffffff\n      and\n      dup2\n      jump\t// out\n        /* \"Solidity/Tokens/MasterToken.sol\":9046:9222  function updateFee(uint256 newFee) public onlyOwner {... */\n    tag_118:\n        /* \"Solidity/Tokens/MasterToken.sol\":2088:2093  owner */\n      0x0a\n      0x00\n      swap1\n      sload\n      swap1\n      0x0100\n      exp\n      swap1\n      div\n      0xffffffffffffffffffffffffffffffffffffffff\n      and\n        /* \"Solidity/Tokens/MasterToken.sol\":2074:2093  msg.sender != owner */\n      0xffffffffffffffffffffffffffffffffffffffff\n      and\n        /* \"Solidity/Tokens/MasterToken.sol\":2074:2084  msg.sender */\n      caller\n        /* \"Solidity/Tokens/MasterToken.sol\":2074:2093  msg.sender != owner */\n      0xffffffffffffffffffffffffffffffffffffffff\n      and\n      eq\n        /* \"Solidity/Tokens/MasterToken.sol\":2070:2112  if (msg.sender != owner) revert NotOwner() */\n      tag_240\n      jumpi\n        /* \"Solidity/Tokens/MasterToken.sol\":2102:2112  NotOwner() */\n      mload(0x40)\n      0x30cd747100000000000000000000000000000000000000000000000000000000\n      dup2\n      mstore\n      0x04\n      add\n      mload(0x40)\n      dup1\n      swap2\n      sub\n      swap1\n      revert\n        /* \"Solidity/Tokens/MasterToken.sol\":2070:2112  if (msg.sender != owner) revert NotOwner() */\n    tag_240:\n        /* \"Solidity/Tokens/MasterToken.sol\":9122:9128  maxFee */\n      sload(0x09)\n        /* \"Solidity/Tokens/MasterToken.sol\":9113:9119  newFee */\n      dup2\n        /* \"Solidity/Tokens/MasterToken.sol\":9113:9128  newFee > maxFee */\n      gt\n        /* \"Solidity/Tokens/MasterToken.sol\":9109:9149  if (newFee > maxFee) revert InvalidFee() */\n      iszero\n      tag_242\n      jumpi\n        /* \"Solidity/Tokens/MasterToken.sol\":9137:9149  InvalidFee() */\n      mload(0x40)\n      0x58d620b300000000000000000000000000000000000000000000000000000000\n      dup2\n      mstore\n      0x04\n      add\n      mload(0x40)\n      dup1\n      swap2\n      sub\n      swap1\n      revert\n        /* \"Solidity/Tokens/MasterToken.sol\":9109:9149  if (newFee > maxFee) revert InvalidFee() */\n    tag_242:\n        /* \"Solidity/Tokens/MasterToken.sol\":9174:9180  newFee */\n      dup1\n        /* \"Solidity/Tokens/MasterToken.sol\":9160:9171  transferFee */\n      0x08\n        /* \"Solidity/Tokens/MasterToken.sol\":9160:9180  transferFee = newFee */\n      dup2\n      swap1\n      sstore\n      pop\n        /* \"Solidity/Tokens/MasterToken.sol\":9196:9214  FeeUpdated(newFee) */\n      0x8c4d35e54a3f2ef1134138fd8ea3daee6a3c89e10d2665996babdf70261e2c76\n        /* \"Solidity/Tokens/MasterToken.sol\":9207:9213  newFee */\n      dup2\n        /* \"Solidity/Tokens/MasterToken.sol\":9196:9214  FeeUpdated(newFee) */\n      mload(0x40)\n      tag_243\n      swap2\n      swap1\n      tag_47\n      jump\t// in\n    tag_243:\n      mload(0x40)\n      dup1\n      swap2\n      sub\n      swap1\n      log1\n        /* \"Solidity/Tokens/MasterToken.sol\":9046:9222  function updateFee(uint256 newFee) public onlyOwner {... */\n      pop\n      jump\t// out\n        /* \"Solidity/Tokens/MasterToken.sol\":138:158  string public symbol */\n    tag_120:\n      0x01\n      dup1\n      sload\n      tag_244\n      swap1\n      tag_177\n      jump\t// in\n    tag_244:\n      dup1\n      0x1f\n      add\n      0x20\n      dup1\n      swap2\n      div\n      mul\n      0x20\n      add\n      mload(0x40)\n      swap1\n      dup2\n      add\n      0x40\n      mstore\n      dup1\n      swap3\n      swap2\n      swap1\n      dup2\n      dup2\n      mstore\n      0x20\n      add\n      dup3\n      dup1\n      sload\n      tag_245\n      swap1\n      tag_177\n      jump\t// in\n    tag_245:\n      dup1\n      iszero\n      tag_246\n      jumpi\n      dup1\n      0x1f\n      lt\n      tag_247\n      jumpi\n      0x0100\n      dup1\n      dup4\n      sload\n      div\n      mul\n      dup4\n      mstore\n      swap2\n      0x20\n      add\n      swap2\n      jump(tag_246)\n    tag_247:\n      dup3\n      add\n      swap2\n      swap1\n      0x00\n      mstore\n      keccak256(0x00, 0x20)\n      swap1\n    tag_248:\n      dup2\n      sload\n      dup2\n      mstore\n      swap1\n      0x01\n      add\n      swap1\n      0x20\n      add\n      dup1\n      dup4\n      gt\n      tag_248\n      jumpi\n      dup3\n      swap1\n      sub\n      0x1f\n      and\n      dup3\n      add\n      swap2\n    tag_246:\n      pop\n      pop\n      pop\n      pop\n      pop\n      dup2\n      jump\t// out\n        /* \"Solidity/Tokens/MasterToken.sol\":9502:9619  function addMinter(address account) public onlyOwner validAddress(account) {... */\n    tag_124:\n        /* \"Solidity/Tokens/MasterToken.sol\":2088:2093  owner */\n      0x0a\n      0x00\n      swap1\n      sload\n      swap1\n      0x0100\n      exp\n      swap1\n      div\n      0xffffffffffffffffffffffffffffffffffffffff\n      and\n        /* \"Solidity/Tokens/MasterToken.sol\":2074:2093  msg.sender != owner */\n      0xffffffffffffffffffffffffffffffffffffffff\n      and\n        /* \"Solidity/Tokens/MasterToken.sol\":2074:2084  msg.sender */\n      caller\n        /* \"Solidity/Tokens/MasterToken.sol\":2074:2093  msg.sender != owner */\n      0xffffffffffffffffffffffffffffffffffffffff\n      and\n      eq\n        /* \"Solidity/Tokens/MasterToken.sol\":2070:2112  if (msg.sender != owner) revert NotOwner() */\n      tag_250\n      jumpi\n        /* \"Solidity/Tokens/MasterToken.sol\":2102:2112  NotOwner() */\n      mload(0x40)\n      0x30cd747100000000000000000000000000000000000000000000000000000000\n      dup2\n      mstore\n      0x04\n      add\n      mload(0x40)\n      dup1\n      swap2\n      sub\n      swap1\n      revert\n        /* \"Solidity/Tokens/MasterToken.sol\":2070:2112  if (msg.sender != owner) revert NotOwner() */\n    tag_250:\n        /* \"Solidity/Tokens/MasterToken.sol\":9568:9575  account */\n      dup1\n        /* \"Solidity/Tokens/MasterToken.sol\":2566:2567  0 */\n      0x00\n        /* \"Solidity/Tokens/MasterToken.sol\":2550:2568  addr == address(0) */\n      0xffffffffffffffffffffffffffffffffffffffff\n      and\n        /* \"Solidity/Tokens/MasterToken.sol\":2550:2554  addr */\n      dup2\n        /* \"Solidity/Tokens/MasterToken.sol\":2550:2568  addr == address(0) */\n      0xffffffffffffffffffffffffffffffffffffffff\n      and\n      sub\n        /* \"Solidity/Tokens/MasterToken.sol\":2546:2590  if (addr == address(0)) revert ZeroAddress() */\n      tag_252\n      jumpi\n        /* \"Solidity/Tokens/MasterToken.sol\":2577:2590  ZeroAddress() */\n      mload(0x40)\n      0xd92e233d00000000000000000000000000000000000000000000000000000000\n      dup2\n      mstore\n      0x04\n      add\n      mload(0x40)\n      dup1\n      swap2\n      sub\n      swap1\n      revert\n        /* \"Solidity/Tokens/MasterToken.sol\":2546:2590  if (addr == address(0)) revert ZeroAddress() */\n    tag_252:\n        /* \"Solidity/Tokens/MasterToken.sol\":9607:9611  true */\n      0x01\n        /* \"Solidity/Tokens/MasterToken.sol\":9588:9595  minters */\n      0x0b\n        /* \"Solidity/Tokens/MasterToken.sol\":9588:9604  minters[account] */\n      0x00\n        /* \"Solidity/Tokens/MasterToken.sol\":9596:9603  account */\n      dup5\n        /* \"Solidity/Tokens/MasterToken.sol\":9588:9604  minters[account] */\n      0xffffffffffffffffffffffffffffffffffffffff\n      and\n      0xffffffffffffffffffffffffffffffffffffffff\n      and\n      dup2\n      mstore\n      0x20\n      add\n      swap1\n      dup2\n      mstore\n      0x20\n      add\n      0x00\n      keccak256\n      0x00\n        /* \"Solidity/Tokens/MasterToken.sol\":9588:9611  minters[account] = true */\n      0x0100\n      exp\n      dup2\n      sload\n      dup2\n      0xff\n      mul\n      not\n      and\n      swap1\n      dup4\n      iszero\n      iszero\n      mul\n      or\n      swap1\n      sstore\n      pop\n        /* \"Solidity/Tokens/MasterToken.sol\":2123:2124  _ */\n      pop\n        /* \"Solidity/Tokens/MasterToken.sol\":9502:9619  function addMinter(address account) public onlyOwner validAddress(account) {... */\n      pop\n      jump\t// out\n        /* \"Solidity/Tokens/MasterToken.sol\":7144:7744  function lockTokens(address user, uint256 amount, uint256 unlockTime) ... */\n    tag_128:\n        /* \"Solidity/Tokens/MasterToken.sol\":2088:2093  owner */\n      0x0a\n      0x00\n      swap1\n      sload\n      swap1\n      0x0100\n      exp\n      swap1\n      div\n      0xffffffffffffffffffffffffffffffffffffffff\n      and\n        /* \"Solidity/Tokens/MasterToken.sol\":2074:2093  msg.sender != owner */\n      0xffffffffffffffffffffffffffffffffffffffff\n      and\n        /* \"Solidity/Tokens/MasterToken.sol\":2074:2084  msg.sender */\n      caller\n        /* \"Solidity/Tokens/MasterToken.sol\":2074:2093  msg.sender != owner */\n      0xffffffffffffffffffffffffffffffffffffffff\n      and\n      eq\n        /* \"Solidity/Tokens/MasterToken.sol\":2070:2112  if (msg.sender != owner) revert NotOwner() */\n      tag_255\n      jumpi\n        /* \"Solidity/Tokens/MasterToken.sol\":2102:2112  NotOwner() */\n      mload(0x40)\n      0x30cd747100000000000000000000000000000000000000000000000000000000\n      dup2\n      mstore\n      0x04\n      add\n      mload(0x40)\n      dup1\n      swap2\n      sub\n      swap1\n      revert\n        /* \"Solidity/Tokens/MasterToken.sol\":2070:2112  if (msg.sender != owner) revert NotOwner() */\n    tag_255:\n        /* \"Solidity/Tokens/MasterToken.sol\":7276:7280  user */\n      dup3\n        /* \"Solidity/Tokens/MasterToken.sol\":2418:2429  blacklisted */\n      0x0f\n        /* \"Solidity/Tokens/MasterToken.sol\":2418:2438  blacklisted[account] */\n      0x00\n        /* \"Solidity/Tokens/MasterToken.sol\":2430:2437  account */\n      dup3\n        /* \"Solidity/Tokens/MasterToken.sol\":2418:2438  blacklisted[account] */\n      0xffffffffffffffffffffffffffffffffffffffff\n      and\n      0xffffffffffffffffffffffffffffffffffffffff\n      and\n      dup2\n      mstore\n      0x20\n      add\n      swap1\n      dup2\n      mstore\n      0x20\n      add\n      0x00\n      keccak256\n      0x00\n      swap1\n      sload\n      swap1\n      0x0100\n      exp\n      swap1\n      div\n      0xff\n      and\n        /* \"Solidity/Tokens/MasterToken.sol\":2414:2467  if (blacklisted[account]) revert addressBlacklisted() */\n      iszero\n      tag_257\n      jumpi\n        /* \"Solidity/Tokens/MasterToken.sol\":2447:2467  addressBlacklisted() */\n      mload(0x40)\n      0x6eb8b83a00000000000000000000000000000000000000000000000000000000\n      dup2\n      mstore\n      0x04\n      add\n      mload(0x40)\n      dup1\n      swap2\n      sub\n      swap1\n      revert\n        /* \"Solidity/Tokens/MasterToken.sol\":2414:2467  if (blacklisted[account]) revert addressBlacklisted() */\n    tag_257:\n        /* \"Solidity/Tokens/MasterToken.sol\":7315:7316  0 */\n      0x00\n        /* \"Solidity/Tokens/MasterToken.sol\":7306:7312  amount */\n      dup4\n        /* \"Solidity/Tokens/MasterToken.sol\":7306:7316  amount > 0 */\n      gt\n        /* \"Solidity/Tokens/MasterToken.sol\":7298:7344  require(amount > 0, \"Amount must be positive\") */\n      tag_259\n      jumpi\n      mload(0x40)\n      0x08c379a000000000000000000000000000000000000000000000000000000000\n      dup2\n      mstore\n      0x04\n      add\n      tag_260\n      swap1\n      tag_261\n      jump\t// in\n    tag_260:\n      mload(0x40)\n      dup1\n      swap2\n      sub\n      swap1\n      revert\n    tag_259:\n        /* \"Solidity/Tokens/MasterToken.sol\":7376:7391  block.timestamp */\n      timestamp\n        /* \"Solidity/Tokens/MasterToken.sol\":7363:7373  unlockTime */\n      dup3\n        /* \"Solidity/Tokens/MasterToken.sol\":7363:7391  unlockTime > block.timestamp */\n      gt\n        /* \"Solidity/Tokens/MasterToken.sol\":7355:7425  require(unlockTime > block.timestamp, \"Unlock time must be in future\") */\n      tag_262\n      jumpi\n      mload(0x40)\n      0x08c379a000000000000000000000000000000000000000000000000000000000\n      dup2\n      mstore\n      0x04\n      add\n      tag_263\n      swap1\n      tag_264\n      jump\t// in\n    tag_263:\n      mload(0x40)\n      dup1\n      swap2\n      sub\n      swap1\n      revert\n    tag_262:\n        /* \"Solidity/Tokens/MasterToken.sol\":7463:7469  amount */\n      dup3\n        /* \"Solidity/Tokens/MasterToken.sol\":7444:7453  _balances */\n      0x05\n        /* \"Solidity/Tokens/MasterToken.sol\":7444:7459  _balances[user] */\n      0x00\n        /* \"Solidity/Tokens/MasterToken.sol\":7454:7458  user */\n      dup7\n        /* \"Solidity/Tokens/MasterToken.sol\":7444:7459  _balances[user] */\n      0xffffffffffffffffffffffffffffffffffffffff\n      and\n      0xffffffffffffffffffffffffffffffffffffffff\n      and\n      dup2\n      mstore\n      0x20\n      add\n      swap1\n      dup2\n      mstore\n      0x20\n      add\n      0x00\n      keccak256\n      sload\n        /* \"Solidity/Tokens/MasterToken.sol\":7444:7469  _balances[user] >= amount */\n      lt\n      iszero\n        /* \"Solidity/Tokens/MasterToken.sol\":7436:7494  require(_balances[user] >= amount, \"Insufficient balance\") */\n      tag_265\n      jumpi\n      mload(0x40)\n      0x08c379a000000000000000000000000000000000000000000000000000000000\n      dup2\n      mstore\n      0x04\n      add\n      tag_266\n      swap1\n      tag_267\n      jump\t// in\n    tag_266:\n      mload(0x40)\n      dup1\n      swap2\n      sub\n      swap1\n      revert\n    tag_265:\n        /* \"Solidity/Tokens/MasterToken.sol\":7515:7529  lockedBalances */\n      0x0d\n        /* \"Solidity/Tokens/MasterToken.sol\":7515:7535  lockedBalances[user] */\n      0x00\n        /* \"Solidity/Tokens/MasterToken.sol\":7530:7534  user */\n      dup6\n        /* \"Solidity/Tokens/MasterToken.sol\":7515:7535  lockedBalances[user] */\n      0xffffffffffffffffffffffffffffffffffffffff\n      and\n      0xffffffffffffffffffffffffffffffffffffffff\n      and\n      dup2\n      mstore\n      0x20\n      add\n      swap1\n      dup2\n      mstore\n      0x20\n      add\n      0x00\n      keccak256\n        /* \"Solidity/Tokens/MasterToken.sol\":7541:7633  LockedBalance({... */\n      mload(0x40)\n      dup1\n      0x40\n      add\n      0x40\n      mstore\n      dup1\n        /* \"Solidity/Tokens/MasterToken.sol\":7578:7584  amount */\n      dup6\n        /* \"Solidity/Tokens/MasterToken.sol\":7541:7633  LockedBalance({... */\n      dup2\n      mstore\n      0x20\n      add\n        /* \"Solidity/Tokens/MasterToken.sol\":7611:7621  unlockTime */\n      dup5\n        /* \"Solidity/Tokens/MasterToken.sol\":7541:7633  LockedBalance({... */\n      dup2\n      mstore\n      pop\n        /* \"Solidity/Tokens/MasterToken.sol\":7515:7634  lockedBalances[user].push(LockedBalance({... */\n      swap1\n      dup1\n      0x01\n      dup2\n      sload\n      add\n      dup1\n      dup3\n      sstore\n      dup1\n      swap2\n      pop\n      pop\n      0x01\n      swap1\n      sub\n      swap1\n      0x00\n      mstore\n      keccak256(0x00, 0x20)\n      swap1\n      0x02\n      mul\n      add\n      0x00\n      swap1\n      swap2\n      swap1\n      swap2\n      swap1\n      swap2\n      pop\n      0x00\n      dup3\n      add\n      mload\n      dup2\n      0x00\n      add\n      sstore\n      0x20\n      dup3\n      add\n      mload\n      dup2\n      0x01\n      add\n      sstore\n      pop\n      pop\n        /* \"Solidity/Tokens/MasterToken.sol\":7676:7682  amount */\n      dup3\n        /* \"Solidity/Tokens/MasterToken.sol\":7655:7666  totalLocked */\n      0x0e\n        /* \"Solidity/Tokens/MasterToken.sol\":7655:7672  totalLocked[user] */\n      0x00\n        /* \"Solidity/Tokens/MasterToken.sol\":7667:7671  user */\n      dup7\n        /* \"Solidity/Tokens/MasterToken.sol\":7655:7672  totalLocked[user] */\n      0xffffffffffffffffffffffffffffffffffffffff\n      and\n      0xffffffffffffffffffffffffffffffffffffffff\n      and\n      dup2\n      mstore\n      0x20\n      add\n      swap1\n      dup2\n      mstore\n      0x20\n      add\n      0x00\n      keccak256\n      0x00\n        /* \"Solidity/Tokens/MasterToken.sol\":7655:7682  totalLocked[user] += amount */\n      dup3\n      dup3\n      sload\n      tag_269\n      swap2\n      swap1\n      tag_270\n      jump\t// in\n    tag_269:\n      swap3\n      pop\n      pop\n      dup2\n      swap1\n      sstore\n      pop\n        /* \"Solidity/Tokens/MasterToken.sol\":7711:7715  user */\n      dup4\n        /* \"Solidity/Tokens/MasterToken.sol\":7698:7736  TokensLocked(user, amount, unlockTime) */\n      0xffffffffffffffffffffffffffffffffffffffff\n      and\n      0xd741e738a23fd18a03a26522320d9fc6cac1fed483e215ea9150fbc2fc43385d\n        /* \"Solidity/Tokens/MasterToken.sol\":7717:7723  amount */\n      dup5\n        /* \"Solidity/Tokens/MasterToken.sol\":7725:7735  unlockTime */\n      dup5\n        /* \"Solidity/Tokens/MasterToken.sol\":7698:7736  TokensLocked(user, amount, unlockTime) */\n      mload(0x40)\n      tag_271\n      swap3\n      swap2\n      swap1\n      tag_104\n      jump\t// in\n    tag_271:\n      mload(0x40)\n      dup1\n      swap2\n      sub\n      swap1\n      log2\n        /* \"Solidity/Tokens/MasterToken.sol\":2123:2124  _ */\n      pop\n        /* \"Solidity/Tokens/MasterToken.sol\":7144:7744  function lockTokens(address user, uint256 amount, uint256 unlockTime) ... */\n      pop\n      pop\n      pop\n      jump\t// out\n        /* \"Solidity/Tokens/MasterToken.sol\":3616:3948  function transfer(address to, uint256 amount) ... */\n    tag_131:\n        /* \"Solidity/Tokens/MasterToken.sol\":3762:3766  bool */\n      0x00\n        /* \"Solidity/Tokens/MasterToken.sol\":3704:3714  msg.sender */\n      caller\n        /* \"Solidity/Tokens/MasterToken.sol\":2418:2429  blacklisted */\n      0x0f\n        /* \"Solidity/Tokens/MasterToken.sol\":2418:2438  blacklisted[account] */\n      0x00\n        /* \"Solidity/Tokens/MasterToken.sol\":2430:2437  account */\n      dup3\n        /* \"Solidity/Tokens/MasterToken.sol\":2418:2438  blacklisted[account] */\n      0xffffffffffffffffffffffffffffffffffffffff\n      and\n      0xffffffffffffffffffffffffffffffffffffffff\n      and\n      dup2\n      mstore\n      0x20\n      add\n      swap1\n      dup2\n      mstore\n      0x20\n      add\n      0x00\n      keccak256\n      0x00\n      swap1\n      sload\n      swap1\n      0x0100\n      exp\n      swap1\n      div\n      0xff\n      and\n        /* \"Solidity/Tokens/MasterToken.sol\":2414:2467  if (blacklisted[account]) revert addressBlacklisted() */\n      iszero\n      tag_273\n      jumpi\n        /* \"Solidity/Tokens/MasterToken.sol\":2447:2467  addressBlacklisted() */\n      mload(0x40)\n      0x6eb8b83a00000000000000000000000000000000000000000000000000000000\n      dup2\n      mstore\n      0x04\n      add\n      mload(0x40)\n      dup1\n      swap2\n      sub\n      swap1\n      revert\n        /* \"Solidity/Tokens/MasterToken.sol\":2414:2467  if (blacklisted[account]) revert addressBlacklisted() */\n    tag_273:\n        /* \"Solidity/Tokens/MasterToken.sol\":3740:3742  to */\n      dup4\n        /* \"Solidity/Tokens/MasterToken.sol\":2418:2429  blacklisted */\n      0x0f\n        /* \"Solidity/Tokens/MasterToken.sol\":2418:2438  blacklisted[account] */\n      0x00\n        /* \"Solidity/Tokens/MasterToken.sol\":2430:2437  account */\n      dup3\n        /* \"Solidity/Tokens/MasterToken.sol\":2418:2438  blacklisted[account] */\n      0xffffffffffffffffffffffffffffffffffffffff\n      and\n      0xffffffffffffffffffffffffffffffffffffffff\n      and\n      dup2\n      mstore\n      0x20\n      add\n      swap1\n      dup2\n      mstore\n      0x20\n      add\n      0x00\n      keccak256\n      0x00\n      swap1\n      sload\n      swap1\n      0x0100\n      exp\n      swap1\n      div\n      0xff\n      and\n        /* \"Solidity/Tokens/MasterToken.sol\":2414:2467  if (blacklisted[account]) revert addressBlacklisted() */\n      iszero\n      tag_275\n      jumpi\n        /* \"Solidity/Tokens/MasterToken.sol\":2447:2467  addressBlacklisted() */\n      mload(0x40)\n      0x6eb8b83a00000000000000000000000000000000000000000000000000000000\n      dup2\n      mstore\n      0x04\n      add\n      mload(0x40)\n      dup1\n      swap2\n      sub\n      swap1\n      revert\n        /* \"Solidity/Tokens/MasterToken.sol\":2414:2467  if (blacklisted[account]) revert addressBlacklisted() */\n    tag_275:\n        /* \"Solidity/Tokens/MasterToken.sol\":3827:3833  amount */\n      dup4\n        /* \"Solidity/Tokens/MasterToken.sol\":3793:3823  getUnlockedBalance(msg.sender) */\n      tag_277\n        /* \"Solidity/Tokens/MasterToken.sol\":3812:3822  msg.sender */\n      caller\n        /* \"Solidity/Tokens/MasterToken.sol\":3793:3811  getUnlockedBalance */\n      tag_68\n        /* \"Solidity/Tokens/MasterToken.sol\":3793:3823  getUnlockedBalance(msg.sender) */\n      jump\t// in\n    tag_277:\n        /* \"Solidity/Tokens/MasterToken.sol\":3793:3833  getUnlockedBalance(msg.sender) >= amount */\n      lt\n      iszero\n        /* \"Solidity/Tokens/MasterToken.sol\":3785:3867  require(getUnlockedBalance(msg.sender) >= amount, \"Insufficient unlocked balance\") */\n      tag_278\n      jumpi\n      mload(0x40)\n      0x08c379a000000000000000000000000000000000000000000000000000000000\n      dup2\n      mstore\n      0x04\n      add\n      tag_279\n      swap1\n      tag_206\n      jump\t// in\n    tag_279:\n      mload(0x40)\n      dup1\n      swap2\n      sub\n      swap1\n      revert\n    tag_278:\n        /* \"Solidity/Tokens/MasterToken.sol\":3878:3918  _transferWithFee(msg.sender, to, amount) */\n      tag_280\n        /* \"Solidity/Tokens/MasterToken.sol\":3895:3905  msg.sender */\n      caller\n        /* \"Solidity/Tokens/MasterToken.sol\":3907:3909  to */\n      dup7\n        /* \"Solidity/Tokens/MasterToken.sol\":3911:3917  amount */\n      dup7\n        /* \"Solidity/Tokens/MasterToken.sol\":3878:3894  _transferWithFee */\n      tag_210\n        /* \"Solidity/Tokens/MasterToken.sol\":3878:3918  _transferWithFee(msg.sender, to, amount) */\n      jump\t// in\n    tag_280:\n        /* \"Solidity/Tokens/MasterToken.sol\":3936:3940  true */\n      0x01\n        /* \"Solidity/Tokens/MasterToken.sol\":3929:3940  return true */\n      swap3\n      pop\n        /* \"Solidity/Tokens/MasterToken.sol\":2478:2479  _ */\n      pop\n        /* \"Solidity/Tokens/MasterToken.sol\":3616:3948  function transfer(address to, uint256 amount) ... */\n      pop\n      swap3\n      swap2\n      pop\n      pop\n      jump\t// out\n        /* \"Solidity/Tokens/MasterToken.sol\":470:496  uint256 public transferFee */\n    tag_134:\n      sload(0x08)\n      dup2\n      jump\t// out\n        /* \"Solidity/Tokens/MasterToken.sol\":436:463  address public feeCollector */\n    tag_137:\n      0x07\n      0x00\n      swap1\n      sload\n      swap1\n      0x0100\n      exp\n      swap1\n      div\n      0xffffffffffffffffffffffffffffffffffffffff\n      and\n      dup2\n      jump\t// out\n        /* \"Solidity/Tokens/MasterToken.sol\":7756:8361  function unlockTokens(address user) public {... */\n    tag_141:\n        /* \"Solidity/Tokens/MasterToken.sol\":7810:7832  uint256 unlockedAmount */\n      0x00\n        /* \"Solidity/Tokens/MasterToken.sol\":7835:7836  0 */\n      0x00\n        /* \"Solidity/Tokens/MasterToken.sol\":7810:7836  uint256 unlockedAmount = 0 */\n      swap1\n      pop\n        /* \"Solidity/Tokens/MasterToken.sol\":7862:7871  uint256 i */\n      0x00\n        /* \"Solidity/Tokens/MasterToken.sol\":7874:7875  0 */\n      0x00\n        /* \"Solidity/Tokens/MasterToken.sol\":7862:7875  uint256 i = 0 */\n      swap1\n      pop\n        /* \"Solidity/Tokens/MasterToken.sol\":7857:8192  for (uint256 i = 0; i < lockedBalances[user].length; i++) {... */\n    tag_282:\n        /* \"Solidity/Tokens/MasterToken.sol\":7881:7895  lockedBalances */\n      0x0d\n        /* \"Solidity/Tokens/MasterToken.sol\":7881:7901  lockedBalances[user] */\n      0x00\n        /* \"Solidity/Tokens/MasterToken.sol\":7896:7900  user */\n      dup5\n        /* \"Solidity/Tokens/MasterToken.sol\":7881:7901  lockedBalances[user] */\n      0xffffffffffffffffffffffffffffffffffffffff\n      and\n      0xffffffffffffffffffffffffffffffffffffffff\n      and\n      dup2\n      mstore\n      0x20\n      add\n      swap1\n      dup2\n      mstore\n      0x20\n      add\n      0x00\n      keccak256\n        /* \"Solidity/Tokens/MasterToken.sol\":7881:7908  lockedBalances[user].length */\n      dup1\n      sload\n      swap1\n      pop\n        /* \"Solidity/Tokens/MasterToken.sol\":7877:7878  i */\n      dup2\n        /* \"Solidity/Tokens/MasterToken.sol\":7877:7908  i < lockedBalances[user].length */\n      lt\n        /* \"Solidity/Tokens/MasterToken.sol\":7857:8192  for (uint256 i = 0; i < lockedBalances[user].length; i++) {... */\n      iszero\n      tag_283\n      jumpi\n        /* \"Solidity/Tokens/MasterToken.sol\":7972:7987  block.timestamp */\n      timestamp\n        /* \"Solidity/Tokens/MasterToken.sol\":7934:7948  lockedBalances */\n      0x0d\n        /* \"Solidity/Tokens/MasterToken.sol\":7934:7954  lockedBalances[user] */\n      0x00\n        /* \"Solidity/Tokens/MasterToken.sol\":7949:7953  user */\n      dup6\n        /* \"Solidity/Tokens/MasterToken.sol\":7934:7954  lockedBalances[user] */\n      0xffffffffffffffffffffffffffffffffffffffff\n      and\n      0xffffffffffffffffffffffffffffffffffffffff\n      and\n      dup2\n      mstore\n      0x20\n      add\n      swap1\n      dup2\n      mstore\n      0x20\n      add\n      0x00\n      keccak256\n        /* \"Solidity/Tokens/MasterToken.sol\":7955:7956  i */\n      dup3\n        /* \"Solidity/Tokens/MasterToken.sol\":7934:7957  lockedBalances[user][i] */\n      dup2\n      sload\n      dup2\n      lt\n      tag_285\n      jumpi\n      tag_286\n      tag_287\n      jump\t// in\n    tag_286:\n    tag_285:\n      swap1\n      0x00\n      mstore\n      keccak256(0x00, 0x20)\n      swap1\n      0x02\n      mul\n      add\n        /* \"Solidity/Tokens/MasterToken.sol\":7934:7968  lockedBalances[user][i].unlockTime */\n      0x01\n      add\n      sload\n        /* \"Solidity/Tokens/MasterToken.sol\":7934:7987  lockedBalances[user][i].unlockTime <= block.timestamp */\n      gt\n      iszero\n        /* \"Solidity/Tokens/MasterToken.sol\":7934:8043  lockedBalances[user][i].unlockTime <= block.timestamp && ... */\n      dup1\n      iszero\n      tag_289\n      jumpi\n      pop\n        /* \"Solidity/Tokens/MasterToken.sol\":8042:8043  0 */\n      0x00\n        /* \"Solidity/Tokens/MasterToken.sol\":8009:8023  lockedBalances */\n      0x0d\n        /* \"Solidity/Tokens/MasterToken.sol\":8009:8029  lockedBalances[user] */\n      0x00\n        /* \"Solidity/Tokens/MasterToken.sol\":8024:8028  user */\n      dup6\n        /* \"Solidity/Tokens/MasterToken.sol\":8009:8029  lockedBalances[user] */\n      0xffffffffffffffffffffffffffffffffffffffff\n      and\n      0xffffffffffffffffffffffffffffffffffffffff\n      and\n      dup2\n      mstore\n      0x20\n      add\n      swap1\n      dup2\n      mstore\n      0x20\n      add\n      0x00\n      keccak256\n        /* \"Solidity/Tokens/MasterToken.sol\":8030:8031  i */\n      dup3\n        /* \"Solidity/Tokens/MasterToken.sol\":8009:8032  lockedBalances[user][i] */\n      dup2\n      sload\n      dup2\n      lt\n      tag_290\n      jumpi\n      tag_291\n      tag_287\n      jump\t// in\n    tag_291:\n    tag_290:\n      swap1\n      0x00\n      mstore\n      keccak256(0x00, 0x20)\n      swap1\n      0x02\n      mul\n      add\n        /* \"Solidity/Tokens/MasterToken.sol\":8009:8039  lockedBalances[user][i].amount */\n      0x00\n      add\n      sload\n        /* \"Solidity/Tokens/MasterToken.sol\":8009:8043  lockedBalances[user][i].amount > 0 */\n      gt\n        /* \"Solidity/Tokens/MasterToken.sol\":7934:8043  lockedBalances[user][i].unlockTime <= block.timestamp && ... */\n    tag_289:\n        /* \"Solidity/Tokens/MasterToken.sol\":7930:8181  if (lockedBalances[user][i].unlockTime <= block.timestamp && ... */\n      iszero\n      tag_293\n      jumpi\n        /* \"Solidity/Tokens/MasterToken.sol\":8082:8096  lockedBalances */\n      0x0d\n        /* \"Solidity/Tokens/MasterToken.sol\":8082:8102  lockedBalances[user] */\n      0x00\n        /* \"Solidity/Tokens/MasterToken.sol\":8097:8101  user */\n      dup5\n        /* \"Solidity/Tokens/MasterToken.sol\":8082:8102  lockedBalances[user] */\n      0xffffffffffffffffffffffffffffffffffffffff\n      and\n      0xffffffffffffffffffffffffffffffffffffffff\n      and\n      dup2\n      mstore\n      0x20\n      add\n      swap1\n      dup2\n      mstore\n      0x20\n      add\n      0x00\n      keccak256\n        /* \"Solidity/Tokens/MasterToken.sol\":8103:8104  i */\n      dup2\n        /* \"Solidity/Tokens/MasterToken.sol\":8082:8105  lockedBalances[user][i] */\n      dup2\n      sload\n      dup2\n      lt\n      tag_294\n      jumpi\n      tag_295\n      tag_287\n      jump\t// in\n    tag_295:\n    tag_294:\n      swap1\n      0x00\n      mstore\n      keccak256(0x00, 0x20)\n      swap1\n      0x02\n      mul\n      add\n        /* \"Solidity/Tokens/MasterToken.sol\":8082:8112  lockedBalances[user][i].amount */\n      0x00\n      add\n      sload\n        /* \"Solidity/Tokens/MasterToken.sol\":8064:8112  unlockedAmount += lockedBalances[user][i].amount */\n      dup3\n      tag_297\n      swap2\n      swap1\n      tag_270\n      jump\t// in\n    tag_297:\n      swap2\n      pop\n        /* \"Solidity/Tokens/MasterToken.sol\":8164:8165  0 */\n      0x00\n        /* \"Solidity/Tokens/MasterToken.sol\":8131:8145  lockedBalances */\n      0x0d\n        /* \"Solidity/Tokens/MasterToken.sol\":8131:8151  lockedBalances[user] */\n      0x00\n        /* \"Solidity/Tokens/MasterToken.sol\":8146:8150  user */\n      dup6\n        /* \"Solidity/Tokens/MasterToken.sol\":8131:8151  lockedBalances[user] */\n      0xffffffffffffffffffffffffffffffffffffffff\n      and\n      0xffffffffffffffffffffffffffffffffffffffff\n      and\n      dup2\n      mstore\n      0x20\n      add\n      swap1\n      dup2\n      mstore\n      0x20\n      add\n      0x00\n      keccak256\n        /* \"Solidity/Tokens/MasterToken.sol\":8152:8153  i */\n      dup3\n        /* \"Solidity/Tokens/MasterToken.sol\":8131:8154  lockedBalances[user][i] */\n      dup2\n      sload\n      dup2\n      lt\n      tag_298\n      jumpi\n      tag_299\n      tag_287\n      jump\t// in\n    tag_299:\n    tag_298:\n      swap1\n      0x00\n      mstore\n      keccak256(0x00, 0x20)\n      swap1\n      0x02\n      mul\n      add\n        /* \"Solidity/Tokens/MasterToken.sol\":8131:8161  lockedBalances[user][i].amount */\n      0x00\n      add\n        /* \"Solidity/Tokens/MasterToken.sol\":8131:8165  lockedBalances[user][i].amount = 0 */\n      dup2\n      swap1\n      sstore\n      pop\n        /* \"Solidity/Tokens/MasterToken.sol\":7930:8181  if (lockedBalances[user][i].unlockTime <= block.timestamp && ... */\n    tag_293:\n        /* \"Solidity/Tokens/MasterToken.sol\":7910:7913  i++ */\n      dup1\n      dup1\n      0x01\n      add\n      swap2\n      pop\n      pop\n        /* \"Solidity/Tokens/MasterToken.sol\":7857:8192  for (uint256 i = 0; i < lockedBalances[user].length; i++) {... */\n      jump(tag_282)\n    tag_283:\n      pop\n        /* \"Solidity/Tokens/MasterToken.sol\":8233:8234  0 */\n      0x00\n        /* \"Solidity/Tokens/MasterToken.sol\":8216:8230  unlockedAmount */\n      dup2\n        /* \"Solidity/Tokens/MasterToken.sol\":8216:8234  unlockedAmount > 0 */\n      gt\n        /* \"Solidity/Tokens/MasterToken.sol\":8212:8354  if (unlockedAmount > 0) {... */\n      iszero\n      tag_301\n      jumpi\n        /* \"Solidity/Tokens/MasterToken.sol\":8272:8286  unlockedAmount */\n      dup1\n        /* \"Solidity/Tokens/MasterToken.sol\":8251:8262  totalLocked */\n      0x0e\n        /* \"Solidity/Tokens/MasterToken.sol\":8251:8268  totalLocked[user] */\n      0x00\n        /* \"Solidity/Tokens/MasterToken.sol\":8263:8267  user */\n      dup5\n        /* \"Solidity/Tokens/MasterToken.sol\":8251:8268  totalLocked[user] */\n      0xffffffffffffffffffffffffffffffffffffffff\n      and\n      0xffffffffffffffffffffffffffffffffffffffff\n      and\n      dup2\n      mstore\n      0x20\n      add\n      swap1\n      dup2\n      mstore\n      0x20\n      add\n      0x00\n      keccak256\n      0x00\n        /* \"Solidity/Tokens/MasterToken.sol\":8251:8286  totalLocked[user] -= unlockedAmount */\n      dup3\n      dup3\n      sload\n      tag_302\n      swap2\n      swap1\n      tag_191\n      jump\t// in\n    tag_302:\n      swap3\n      pop\n      pop\n      dup2\n      swap1\n      sstore\n      pop\n        /* \"Solidity/Tokens/MasterToken.sol\":8321:8325  user */\n      dup2\n        /* \"Solidity/Tokens/MasterToken.sol\":8306:8342  TokensUnlocked(user, unlockedAmount) */\n      0xffffffffffffffffffffffffffffffffffffffff\n      and\n      0xe7b379c6c1fa169e9079c25e9143b127637eef8ec8c9d5c06ddb4ab3e1195888\n        /* \"Solidity/Tokens/MasterToken.sol\":8327:8341  unlockedAmount */\n      dup3\n        /* \"Solidity/Tokens/MasterToken.sol\":8306:8342  TokensUnlocked(user, unlockedAmount) */\n      mload(0x40)\n      tag_303\n      swap2\n      swap1\n      tag_47\n      jump\t// in\n    tag_303:\n      mload(0x40)\n      dup1\n      swap2\n      sub\n      swap1\n      log2\n        /* \"Solidity/Tokens/MasterToken.sol\":8212:8354  if (unlockedAmount > 0) {... */\n    tag_301:\n        /* \"Solidity/Tokens/MasterToken.sol\":7799:8361  {... */\n      pop\n        /* \"Solidity/Tokens/MasterToken.sol\":7756:8361  function unlockTokens(address user) public {... */\n      pop\n      jump\t// out\n        /* \"Solidity/Tokens/MasterToken.sol\":9234:9458  function updateFeeCollector(address newCollector) ... */\n    tag_144:\n        /* \"Solidity/Tokens/MasterToken.sol\":2088:2093  owner */\n      0x0a\n      0x00\n      swap1\n      sload\n      swap1\n      0x0100\n      exp\n      swap1\n      div\n      0xffffffffffffffffffffffffffffffffffffffff\n      and\n        /* \"Solidity/Tokens/MasterToken.sol\":2074:2093  msg.sender != owner */\n      0xffffffffffffffffffffffffffffffffffffffff\n      and\n        /* \"Solidity/Tokens/MasterToken.sol\":2074:2084  msg.sender */\n      caller\n        /* \"Solidity/Tokens/MasterToken.sol\":2074:2093  msg.sender != owner */\n      0xffffffffffffffffffffffffffffffffffffffff\n      and\n      eq\n        /* \"Solidity/Tokens/MasterToken.sol\":2070:2112  if (msg.sender != owner) revert NotOwner() */\n      tag_305\n      jumpi\n        /* \"Solidity/Tokens/MasterToken.sol\":2102:2112  NotOwner() */\n      mload(0x40)\n      0x30cd747100000000000000000000000000000000000000000000000000000000\n      dup2\n      mstore\n      0x04\n      add\n      mload(0x40)\n      dup1\n      swap2\n      sub\n      swap1\n      revert\n        /* \"Solidity/Tokens/MasterToken.sol\":2070:2112  if (msg.sender != owner) revert NotOwner() */\n    tag_305:\n        /* \"Solidity/Tokens/MasterToken.sol\":9344:9356  newCollector */\n      dup1\n        /* \"Solidity/Tokens/MasterToken.sol\":2566:2567  0 */\n      0x00\n        /* \"Solidity/Tokens/MasterToken.sol\":2550:2568  addr == address(0) */\n      0xffffffffffffffffffffffffffffffffffffffff\n      and\n        /* \"Solidity/Tokens/MasterToken.sol\":2550:2554  addr */\n      dup2\n        /* \"Solidity/Tokens/MasterToken.sol\":2550:2568  addr == address(0) */\n      0xffffffffffffffffffffffffffffffffffffffff\n      and\n      sub\n        /* \"Solidity/Tokens/MasterToken.sol\":2546:2590  if (addr == address(0)) revert ZeroAddress() */\n      tag_307\n      jumpi\n        /* \"Solidity/Tokens/MasterToken.sol\":2577:2590  ZeroAddress() */\n      mload(0x40)\n      0xd92e233d00000000000000000000000000000000000000000000000000000000\n      dup2\n      mstore\n      0x04\n      add\n      mload(0x40)\n      dup1\n      swap2\n      sub\n      swap1\n      revert\n        /* \"Solidity/Tokens/MasterToken.sol\":2546:2590  if (addr == address(0)) revert ZeroAddress() */\n    tag_307:\n        /* \"Solidity/Tokens/MasterToken.sol\":9389:9401  newCollector */\n      dup2\n        /* \"Solidity/Tokens/MasterToken.sol\":9374:9386  feeCollector */\n      0x07\n      0x00\n        /* \"Solidity/Tokens/MasterToken.sol\":9374:9401  feeCollector = newCollector */\n      0x0100\n      exp\n      dup2\n      sload\n      dup2\n      0xffffffffffffffffffffffffffffffffffffffff\n      mul\n      not\n      and\n      swap1\n      dup4\n      0xffffffffffffffffffffffffffffffffffffffff\n      and\n      mul\n      or\n      swap1\n      sstore\n      pop\n        /* \"Solidity/Tokens/MasterToken.sol\":9417:9450  FeeCollectorUpdated(newCollector) */\n      0xe5693914d19c789bdee50a362998c0bc8d035a835f9871da5d51152f0582c34f\n        /* \"Solidity/Tokens/MasterToken.sol\":9437:9449  newCollector */\n      dup3\n        /* \"Solidity/Tokens/MasterToken.sol\":9417:9450  FeeCollectorUpdated(newCollector) */\n      mload(0x40)\n      tag_309\n      swap2\n      swap1\n      tag_115\n      jump\t// in\n    tag_309:\n      mload(0x40)\n      dup1\n      swap2\n      sub\n      swap1\n      log1\n        /* \"Solidity/Tokens/MasterToken.sol\":2123:2124  _ */\n      pop\n        /* \"Solidity/Tokens/MasterToken.sol\":9234:9458  function updateFeeCollector(address newCollector) ... */\n      pop\n      jump\t// out\n        /* \"Solidity/Tokens/MasterToken.sol\":226:250  uint256 public maxSupply */\n    tag_146:\n      sload(0x04)\n      dup2\n      jump\t// out\n        /* \"Solidity/Tokens/MasterToken.sol\":810:856  mapping(address => uint256) public totalLocked */\n    tag_150:\n      mstore(0x20, 0x0e)\n      dup1\n      0x00\n      mstore\n      keccak256(0x00, 0x40)\n      0x00\n      swap2\n      pop\n      swap1\n      pop\n      sload\n      dup2\n      jump\t// out\n        /* \"Solidity/Tokens/MasterToken.sol\":894:937  mapping(address => bool) public blacklisted */\n    tag_154:\n      mstore(0x20, 0x0f)\n      dup1\n      0x00\n      mstore\n      keccak256(0x00, 0x40)\n      0x00\n      swap2\n      pop\n      sload\n      swap1\n      0x0100\n      exp\n      swap1\n      div\n      0xff\n      and\n      dup2\n      jump\t// out\n        /* \"Solidity/Tokens/MasterToken.sol\":3960:4096  function allowance(address owner9, address spender) public view returns (uint256) {... */\n    tag_159:\n        /* \"Solidity/Tokens/MasterToken.sol\":4033:4040  uint256 */\n      0x00\n        /* \"Solidity/Tokens/MasterToken.sol\":4060:4071  _allowances */\n      0x06\n        /* \"Solidity/Tokens/MasterToken.sol\":4060:4079  _allowances[owner9] */\n      0x00\n        /* \"Solidity/Tokens/MasterToken.sol\":4072:4078  owner9 */\n      dup5\n        /* \"Solidity/Tokens/MasterToken.sol\":4060:4079  _allowances[owner9] */\n      0xffffffffffffffffffffffffffffffffffffffff\n      and\n      0xffffffffffffffffffffffffffffffffffffffff\n      and\n      dup2\n      mstore\n      0x20\n      add\n      swap1\n      dup2\n      mstore\n      0x20\n      add\n      0x00\n      keccak256\n        /* \"Solidity/Tokens/MasterToken.sol\":4060:4088  _allowances[owner9][spender] */\n      0x00\n        /* \"Solidity/Tokens/MasterToken.sol\":4080:4087  spender */\n      dup4\n        /* \"Solidity/Tokens/MasterToken.sol\":4060:4088  _allowances[owner9][spender] */\n      0xffffffffffffffffffffffffffffffffffffffff\n      and\n      0xffffffffffffffffffffffffffffffffffffffff\n      and\n      dup2\n      mstore\n      0x20\n      add\n      swap1\n      dup2\n      mstore\n      0x20\n      add\n      0x00\n      keccak256\n      sload\n        /* \"Solidity/Tokens/MasterToken.sol\":4053:4088  return _allowances[owner9][spender] */\n      swap1\n      pop\n        /* \"Solidity/Tokens/MasterToken.sol\":3960:4096  function allowance(address owner9, address spender) public view returns (uint256) {... */\n      swap3\n      swap2\n      pop\n      pop\n      jump\t// out\n        /* \"Solidity/Tokens/MasterToken.sol\":8692:8841  function blacklistAddress(address account) public onlyOwner {... */\n    tag_163:\n        /* \"Solidity/Tokens/MasterToken.sol\":2088:2093  owner */\n      0x0a\n      0x00\n      swap1\n      sload\n      swap1\n      0x0100\n      exp\n      swap1\n      div\n      0xffffffffffffffffffffffffffffffffffffffff\n      and\n        /* \"Solidity/Tokens/MasterToken.sol\":2074:2093  msg.sender != owner */\n      0xffffffffffffffffffffffffffffffffffffffff\n      and\n        /* \"Solidity/Tokens/MasterToken.sol\":2074:2084  msg.sender */\n      caller\n        /* \"Solidity/Tokens/MasterToken.sol\":2074:2093  msg.sender != owner */\n      0xffffffffffffffffffffffffffffffffffffffff\n      and\n      eq\n        /* \"Solidity/Tokens/MasterToken.sol\":2070:2112  if (msg.sender != owner) revert NotOwner() */\n      tag_312\n      jumpi\n        /* \"Solidity/Tokens/MasterToken.sol\":2102:2112  NotOwner() */\n      mload(0x40)\n      0x30cd747100000000000000000000000000000000000000000000000000000000\n      dup2\n      mstore\n      0x04\n      add\n      mload(0x40)\n      dup1\n      swap2\n      sub\n      swap1\n      revert\n        /* \"Solidity/Tokens/MasterToken.sol\":2070:2112  if (msg.sender != owner) revert NotOwner() */\n    tag_312:\n        /* \"Solidity/Tokens/MasterToken.sol\":8786:8790  true */\n      0x01\n        /* \"Solidity/Tokens/MasterToken.sol\":8763:8774  blacklisted */\n      0x0f\n        /* \"Solidity/Tokens/MasterToken.sol\":8763:8783  blacklisted[account] */\n      0x00\n        /* \"Solidity/Tokens/MasterToken.sol\":8775:8782  account */\n      dup4\n        /* \"Solidity/Tokens/MasterToken.sol\":8763:8783  blacklisted[account] */\n      0xffffffffffffffffffffffffffffffffffffffff\n      and\n      0xffffffffffffffffffffffffffffffffffffffff\n      and\n      dup2\n      mstore\n      0x20\n      add\n      swap1\n      dup2\n      mstore\n      0x20\n      add\n      0x00\n      keccak256\n      0x00\n        /* \"Solidity/Tokens/MasterToken.sol\":8763:8790  blacklisted[account] = true */\n      0x0100\n      exp\n      dup2\n      sload\n      dup2\n      0xff\n      mul\n      not\n      and\n      swap1\n      dup4\n      iszero\n      iszero\n      mul\n      or\n      swap1\n      sstore\n      pop\n        /* \"Solidity/Tokens/MasterToken.sol\":8825:8832  account */\n      dup1\n        /* \"Solidity/Tokens/MasterToken.sol\":8806:8833  AddressBlacklisted(account) */\n      0xffffffffffffffffffffffffffffffffffffffff\n      and\n      0xdaf49ab9345b6cb75bcb5a7f726bff9183c34dcf5c098c385730f9fd893765f6\n      mload(0x40)\n      mload(0x40)\n      dup1\n      swap2\n      sub\n      swap1\n      log2\n        /* \"Solidity/Tokens/MasterToken.sol\":8692:8841  function blacklistAddress(address account) public onlyOwner {... */\n      pop\n      jump\t// out\n        /* \"Solidity/Tokens/MasterToken.sol\":9764:9881  function addBurner(address account) public onlyOwner validAddress(account) {... */\n    tag_166:\n        /* \"Solidity/Tokens/MasterToken.sol\":2088:2093  owner */\n      0x0a\n      0x00\n      swap1\n      sload\n      swap1\n      0x0100\n      exp\n      swap1\n      div\n      0xffffffffffffffffffffffffffffffffffffffff\n      and\n        /* \"Solidity/Tokens/MasterToken.sol\":2074:2093  msg.sender != owner */\n      0xffffffffffffffffffffffffffffffffffffffff\n      and\n        /* \"Solidity/Tokens/MasterToken.sol\":2074:2084  msg.sender */\n      caller\n        /* \"Solidity/Tokens/MasterToken.sol\":2074:2093  msg.sender != owner */\n      0xffffffffffffffffffffffffffffffffffffffff\n      and\n      eq\n        /* \"Solidity/Tokens/MasterToken.sol\":2070:2112  if (msg.sender != owner) revert NotOwner() */\n      tag_315\n      jumpi\n        /* \"Solidity/Tokens/MasterToken.sol\":2102:2112  NotOwner() */\n      mload(0x40)\n      0x30cd747100000000000000000000000000000000000000000000000000000000\n      dup2\n      mstore\n      0x04\n      add\n      mload(0x40)\n      dup1\n      swap2\n      sub\n      swap1\n      revert\n        /* \"Solidity/Tokens/MasterToken.sol\":2070:2112  if (msg.sender != owner) revert NotOwner() */\n    tag_315:\n        /* \"Solidity/Tokens/MasterToken.sol\":9830:9837  account */\n      dup1\n        /* \"Solidity/Tokens/MasterToken.sol\":2566:2567  0 */\n      0x00\n        /* \"Solidity/Tokens/MasterToken.sol\":2550:2568  addr == address(0) */\n      0xffffffffffffffffffffffffffffffffffffffff\n      and\n        /* \"Solidity/Tokens/MasterToken.sol\":2550:2554  addr */\n      dup2\n        /* \"Solidity/Tokens/MasterToken.sol\":2550:2568  addr == address(0) */\n      0xffffffffffffffffffffffffffffffffffffffff\n      and\n      sub\n        /* \"Solidity/Tokens/MasterToken.sol\":2546:2590  if (addr == address(0)) revert ZeroAddress() */\n      tag_317\n      jumpi\n        /* \"Solidity/Tokens/MasterToken.sol\":2577:2590  ZeroAddress() */\n      mload(0x40)\n      0xd92e233d00000000000000000000000000000000000000000000000000000000\n      dup2\n      mstore\n      0x04\n      add\n      mload(0x40)\n      dup1\n      swap2\n      sub\n      swap1\n      revert\n        /* \"Solidity/Tokens/MasterToken.sol\":2546:2590  if (addr == address(0)) revert ZeroAddress() */\n    tag_317:\n        /* \"Solidity/Tokens/MasterToken.sol\":9869:9873  true */\n      0x01\n        /* \"Solidity/Tokens/MasterToken.sol\":9850:9857  burners */\n      0x0c\n        /* \"Solidity/Tokens/MasterToken.sol\":9850:9866  burners[account] */\n      0x00\n        /* \"Solidity/Tokens/MasterToken.sol\":9858:9865  account */\n      dup5\n        /* \"Solidity/Tokens/MasterToken.sol\":9850:9866  burners[account] */\n      0xffffffffffffffffffffffffffffffffffffffff\n      and\n      0xffffffffffffffffffffffffffffffffffffffff\n      and\n      dup2\n      mstore\n      0x20\n      add\n      swap1\n      dup2\n      mstore\n      0x20\n      add\n      0x00\n      keccak256\n      0x00\n        /* \"Solidity/Tokens/MasterToken.sol\":9850:9873  burners[account] = true */\n      0x0100\n      exp\n      dup2\n      sload\n      dup2\n      0xff\n      mul\n      not\n      and\n      swap1\n      dup4\n      iszero\n      iszero\n      mul\n      or\n      swap1\n      sstore\n      pop\n        /* \"Solidity/Tokens/MasterToken.sol\":2123:2124  _ */\n      pop\n        /* \"Solidity/Tokens/MasterToken.sol\":9764:9881  function addBurner(address account) public onlyOwner validAddress(account) {... */\n      pop\n      jump\t// out\n        /* \"Solidity/Tokens/MasterToken.sol\":623:662  mapping(address => bool) public minters */\n    tag_169:\n      mstore(0x20, 0x0b)\n      dup1\n      0x00\n      mstore\n      keccak256(0x00, 0x40)\n      0x00\n      swap2\n      pop\n      sload\n      swap1\n      0x0100\n      exp\n      swap1\n      div\n      0xff\n      and\n      dup2\n      jump\t// out\n        /* \"Solidity/Tokens/MasterToken.sol\":10061:10242  function _approve(address ownerr, address spender, uint256 amount) internal {... */\n    tag_188:\n        /* \"Solidity/Tokens/MasterToken.sol\":10179:10185  amount */\n      dup1\n        /* \"Solidity/Tokens/MasterToken.sol\":10148:10159  _allowances */\n      0x06\n        /* \"Solidity/Tokens/MasterToken.sol\":10148:10167  _allowances[ownerr] */\n      0x00\n        /* \"Solidity/Tokens/MasterToken.sol\":10160:10166  ownerr */\n      dup6\n        /* \"Solidity/Tokens/MasterToken.sol\":10148:10167  _allowances[ownerr] */\n      0xffffffffffffffffffffffffffffffffffffffff\n      and\n      0xffffffffffffffffffffffffffffffffffffffff\n      and\n      dup2\n      mstore\n      0x20\n      add\n      swap1\n      dup2\n      mstore\n      0x20\n      add\n      0x00\n      keccak256\n        /* \"Solidity/Tokens/MasterToken.sol\":10148:10176  _allowances[ownerr][spender] */\n      0x00\n        /* \"Solidity/Tokens/MasterToken.sol\":10168:10175  spender */\n      dup5\n        /* \"Solidity/Tokens/MasterToken.sol\":10148:10176  _allowances[ownerr][spender] */\n      0xffffffffffffffffffffffffffffffffffffffff\n      and\n      0xffffffffffffffffffffffffffffffffffffffff\n      and\n      dup2\n      mstore\n      0x20\n      add\n      swap1\n      dup2\n      mstore\n      0x20\n      add\n      0x00\n      keccak256\n        /* \"Solidity/Tokens/MasterToken.sol\":10148:10185  _allowances[ownerr][spender] = amount */\n      dup2\n      swap1\n      sstore\n      pop\n        /* \"Solidity/Tokens/MasterToken.sol\":10218:10225  spender */\n      dup2\n        /* \"Solidity/Tokens/MasterToken.sol\":10201:10234  Approval(ownerr, spender, amount) */\n      0xffffffffffffffffffffffffffffffffffffffff\n      and\n        /* \"Solidity/Tokens/MasterToken.sol\":10210:10216  ownerr */\n      dup4\n        /* \"Solidity/Tokens/MasterToken.sol\":10201:10234  Approval(ownerr, spender, amount) */\n      0xffffffffffffffffffffffffffffffffffffffff\n      and\n      0x8c5be1e5ebec7d5bd14f71427d1e84f3dd0314c0f7b2291e5b200ac8c7c3b925\n        /* \"Solidity/Tokens/MasterToken.sol\":10227:10233  amount */\n      dup4\n        /* \"Solidity/Tokens/MasterToken.sol\":10201:10234  Approval(ownerr, spender, amount) */\n      mload(0x40)\n      tag_320\n      swap2\n      swap1\n      tag_47\n      jump\t// in\n    tag_320:\n      mload(0x40)\n      dup1\n      swap2\n      sub\n      swap1\n      log3\n        /* \"Solidity/Tokens/MasterToken.sol\":10061:10242  function _approve(address ownerr, address spender, uint256 amount) internal {... */\n      pop\n      pop\n      pop\n      jump\t// out\n        /* \"Solidity/Tokens/MasterToken.sol\":10254:10615  function _spendAllowance(address owner1, address spender, uint256 amount) internal {... */\n    tag_208:\n        /* \"Solidity/Tokens/MasterToken.sol\":10348:10372  uint256 currentAllowance */\n      0x00\n        /* \"Solidity/Tokens/MasterToken.sol\":10375:10401  allowance(owner1, spender) */\n      tag_322\n        /* \"Solidity/Tokens/MasterToken.sol\":10385:10391  owner1 */\n      dup5\n        /* \"Solidity/Tokens/MasterToken.sol\":10393:10400  spender */\n      dup5\n        /* \"Solidity/Tokens/MasterToken.sol\":10375:10384  allowance */\n      tag_159\n        /* \"Solidity/Tokens/MasterToken.sol\":10375:10401  allowance(owner1, spender) */\n      jump\t// in\n    tag_322:\n        /* \"Solidity/Tokens/MasterToken.sol\":10348:10401  uint256 currentAllowance = allowance(owner1, spender) */\n      swap1\n      pop\n        /* \"Solidity/Tokens/MasterToken.sol\":10436:10453  type(uint256).max */\n      0xffffffffffffffffffffffffffffffffffffffffffffffffffffffffffffffff\n        /* \"Solidity/Tokens/MasterToken.sol\":10416:10432  currentAllowance */\n      dup2\n        /* \"Solidity/Tokens/MasterToken.sol\":10416:10453  currentAllowance != type(uint256).max */\n      eq\n        /* \"Solidity/Tokens/MasterToken.sol\":10412:10608  if (currentAllowance != type(uint256).max) {... */\n      tag_323\n      jumpi\n        /* \"Solidity/Tokens/MasterToken.sol\":10493:10499  amount */\n      dup2\n        /* \"Solidity/Tokens/MasterToken.sol\":10474:10490  currentAllowance */\n      dup2\n        /* \"Solidity/Tokens/MasterToken.sol\":10474:10499  currentAllowance < amount */\n      lt\n        /* \"Solidity/Tokens/MasterToken.sol\":10470:10529  if (currentAllowance < amount) revert InsufficientBalance() */\n      iszero\n      tag_324\n      jumpi\n        /* \"Solidity/Tokens/MasterToken.sol\":10508:10529  InsufficientBalance() */\n      mload(0x40)\n      0xf4d678b800000000000000000000000000000000000000000000000000000000\n      dup2\n      mstore\n      0x04\n      add\n      mload(0x40)\n      dup1\n      swap2\n      sub\n      swap1\n      revert\n        /* \"Solidity/Tokens/MasterToken.sol\":10470:10529  if (currentAllowance < amount) revert InsufficientBalance() */\n    tag_324:\n        /* \"Solidity/Tokens/MasterToken.sol\":10544:10596  _approve(owner1, spender, currentAllowance - amount) */\n      tag_325\n        /* \"Solidity/Tokens/MasterToken.sol\":10553:10559  owner1 */\n      dup5\n        /* \"Solidity/Tokens/MasterToken.sol\":10561:10568  spender */\n      dup5\n        /* \"Solidity/Tokens/MasterToken.sol\":10589:10595  amount */\n      dup5\n        /* \"Solidity/Tokens/MasterToken.sol\":10570:10586  currentAllowance */\n      dup5\n        /* \"Solidity/Tokens/MasterToken.sol\":10570:10595  currentAllowance - amount */\n      tag_326\n      swap2\n      swap1\n      tag_191\n      jump\t// in\n    tag_326:\n        /* \"Solidity/Tokens/MasterToken.sol\":10544:10552  _approve */\n      tag_188\n        /* \"Solidity/Tokens/MasterToken.sol\":10544:10596  _approve(owner1, spender, currentAllowance - amount) */\n      jump\t// in\n    tag_325:\n        /* \"Solidity/Tokens/MasterToken.sol\":10412:10608  if (currentAllowance != type(uint256).max) {... */\n    tag_323:\n        /* \"Solidity/Tokens/MasterToken.sol\":10337:10615  {... */\n      pop\n        /* \"Solidity/Tokens/MasterToken.sol\":10254:10615  function _spendAllowance(address owner1, address spender, uint256 amount) internal {... */\n      pop\n      pop\n      pop\n      jump\t// out\n        /* \"Solidity/Tokens/MasterToken.sol\":6232:7099  function _transferWithFee(address from, address to, uint256 amount) internal {... */\n    tag_210:\n        /* \"Solidity/Tokens/MasterToken.sol\":6340:6341  0 */\n      0x00\n        /* \"Solidity/Tokens/MasterToken.sol\":6324:6342  from == address(0) */\n      0xffffffffffffffffffffffffffffffffffffffff\n      and\n        /* \"Solidity/Tokens/MasterToken.sol\":6324:6328  from */\n      dup4\n        /* \"Solidity/Tokens/MasterToken.sol\":6324:6342  from == address(0) */\n      0xffffffffffffffffffffffffffffffffffffffff\n      and\n      sub\n        /* \"Solidity/Tokens/MasterToken.sol\":6320:6364  if (from == address(0)) revert ZeroAddress() */\n      tag_328\n      jumpi\n        /* \"Solidity/Tokens/MasterToken.sol\":6351:6364  ZeroAddress() */\n      mload(0x40)\n      0xd92e233d00000000000000000000000000000000000000000000000000000000\n      dup2\n      mstore\n      0x04\n      add\n      mload(0x40)\n      dup1\n      swap2\n      sub\n      swap1\n      revert\n        /* \"Solidity/Tokens/MasterToken.sol\":6320:6364  if (from == address(0)) revert ZeroAddress() */\n    tag_328:\n        /* \"Solidity/Tokens/MasterToken.sol\":6393:6394  0 */\n      0x00\n        /* \"Solidity/Tokens/MasterToken.sol\":6379:6395  to == address(0) */\n      0xffffffffffffffffffffffffffffffffffffffff\n      and\n        /* \"Solidity/Tokens/MasterToken.sol\":6379:6381  to */\n      dup3\n        /* \"Solidity/Tokens/MasterToken.sol\":6379:6395  to == address(0) */\n      0xffffffffffffffffffffffffffffffffffffffff\n      and\n      sub\n        /* \"Solidity/Tokens/MasterToken.sol\":6375:6417  if (to == address(0)) revert ZeroAddress() */\n      tag_329\n      jumpi\n        /* \"Solidity/Tokens/MasterToken.sol\":6404:6417  ZeroAddress() */\n      mload(0x40)\n      0xd92e233d00000000000000000000000000000000000000000000000000000000\n      dup2\n      mstore\n      0x04\n      add\n      mload(0x40)\n      dup1\n      swap2\n      sub\n      swap1\n      revert\n        /* \"Solidity/Tokens/MasterToken.sol\":6375:6417  if (to == address(0)) revert ZeroAddress() */\n    tag_329:\n        /* \"Solidity/Tokens/MasterToken.sol\":6438:6457  uint256 fromBalance */\n      0x00\n        /* \"Solidity/Tokens/MasterToken.sol\":6460:6469  _balances */\n      0x05\n        /* \"Solidity/Tokens/MasterToken.sol\":6460:6475  _balances[from] */\n      0x00\n        /* \"Solidity/Tokens/MasterToken.sol\":6470:6474  from */\n      dup6\n        /* \"Solidity/Tokens/MasterToken.sol\":6460:6475  _balances[from] */\n      0xffffffffffffffffffffffffffffffffffffffff\n      and\n      0xffffffffffffffffffffffffffffffffffffffff\n      and\n      dup2\n      mstore\n      0x20\n      add\n      swap1\n      dup2\n      mstore\n      0x20\n      add\n      0x00\n      keccak256\n      sload\n        /* \"Solidity/Tokens/MasterToken.sol\":6438:6475  uint256 fromBalance = _balances[from] */\n      swap1\n      pop\n        /* \"Solidity/Tokens/MasterToken.sol\":6504:6510  amount */\n      dup2\n        /* \"Solidity/Tokens/MasterToken.sol\":6490:6501  fromBalance */\n      dup2\n        /* \"Solidity/Tokens/MasterToken.sol\":6490:6510  fromBalance < amount */\n      lt\n        /* \"Solidity/Tokens/MasterToken.sol\":6486:6540  if (fromBalance < amount) revert InsufficientBalance() */\n      iszero\n      tag_330\n      jumpi\n        /* \"Solidity/Tokens/MasterToken.sol\":6519:6540  InsufficientBalance() */\n      mload(0x40)\n      0xf4d678b800000000000000000000000000000000000000000000000000000000\n      dup2\n      mstore\n      0x04\n      add\n      mload(0x40)\n      dup1\n      swap2\n      sub\n      swap1\n      revert\n        /* \"Solidity/Tokens/MasterToken.sol\":6486:6540  if (fromBalance < amount) revert InsufficientBalance() */\n    tag_330:\n        /* \"Solidity/Tokens/MasterToken.sol\":6587:6604  uint256 feeAmount */\n      0x00\n        /* \"Solidity/Tokens/MasterToken.sol\":6632:6637  10000 */\n      0x2710\n        /* \"Solidity/Tokens/MasterToken.sol\":6617:6628  transferFee */\n      sload(0x08)\n        /* \"Solidity/Tokens/MasterToken.sol\":6608:6614  amount */\n      dup5\n        /* \"Solidity/Tokens/MasterToken.sol\":6608:6628  amount * transferFee */\n      tag_331\n      swap2\n      swap1\n      tag_332\n      jump\t// in\n    tag_331:\n        /* \"Solidity/Tokens/MasterToken.sol\":6607:6637  (amount * transferFee) / 10000 */\n      tag_333\n      swap2\n      swap1\n      tag_334\n      jump\t// in\n    tag_333:\n        /* \"Solidity/Tokens/MasterToken.sol\":6587:6637  uint256 feeAmount = (amount * transferFee) / 10000 */\n      swap1\n      pop\n        /* \"Solidity/Tokens/MasterToken.sol\":6648:6665  uint256 netAmount */\n      0x00\n        /* \"Solidity/Tokens/MasterToken.sol\":6677:6686  feeAmount */\n      dup2\n        /* \"Solidity/Tokens/MasterToken.sol\":6668:6674  amount */\n      dup5\n        /* \"Solidity/Tokens/MasterToken.sol\":6668:6686  amount - feeAmount */\n      tag_335\n      swap2\n      swap1\n      tag_191\n      jump\t// in\n    tag_335:\n        /* \"Solidity/Tokens/MasterToken.sol\":6648:6686  uint256 netAmount = amount - feeAmount */\n      swap1\n      pop\n        /* \"Solidity/Tokens/MasterToken.sol\":6767:6773  amount */\n      dup4\n        /* \"Solidity/Tokens/MasterToken.sol\":6753:6764  fromBalance */\n      dup4\n        /* \"Solidity/Tokens/MasterToken.sol\":6753:6773  fromBalance - amount */\n      tag_336\n      swap2\n      swap1\n      tag_191\n      jump\t// in\n    tag_336:\n        /* \"Solidity/Tokens/MasterToken.sol\":6735:6744  _balances */\n      0x05\n        /* \"Solidity/Tokens/MasterToken.sol\":6735:6750  _balances[from] */\n      0x00\n        /* \"Solidity/Tokens/MasterToken.sol\":6745:6749  from */\n      dup9\n        /* \"Solidity/Tokens/MasterToken.sol\":6735:6750  _balances[from] */\n      0xffffffffffffffffffffffffffffffffffffffff\n      and\n      0xffffffffffffffffffffffffffffffffffffffff\n      and\n      dup2\n      mstore\n      0x20\n      add\n      swap1\n      dup2\n      mstore\n      0x20\n      add\n      0x00\n      keccak256\n        /* \"Solidity/Tokens/MasterToken.sol\":6735:6773  _balances[from] = fromBalance - amount */\n      dup2\n      swap1\n      sstore\n      pop\n        /* \"Solidity/Tokens/MasterToken.sol\":6801:6810  netAmount */\n      dup1\n        /* \"Solidity/Tokens/MasterToken.sol\":6784:6793  _balances */\n      0x05\n        /* \"Solidity/Tokens/MasterToken.sol\":6784:6797  _balances[to] */\n      0x00\n        /* \"Solidity/Tokens/MasterToken.sol\":6794:6796  to */\n      dup8\n        /* \"Solidity/Tokens/MasterToken.sol\":6784:6797  _balances[to] */\n      0xffffffffffffffffffffffffffffffffffffffff\n      and\n      0xffffffffffffffffffffffffffffffffffffffff\n      and\n      dup2\n      mstore\n      0x20\n      add\n      swap1\n      dup2\n      mstore\n      0x20\n      add\n      0x00\n      keccak256\n      0x00\n        /* \"Solidity/Tokens/MasterToken.sol\":6784:6810  _balances[to] += netAmount */\n      dup3\n      dup3\n      sload\n      tag_337\n      swap2\n      swap1\n      tag_270\n      jump\t// in\n    tag_337:\n      swap3\n      pop\n      pop\n      dup2\n      swap1\n      sstore\n      pop\n        /* \"Solidity/Tokens/MasterToken.sol\":6871:6872  0 */\n      0x00\n        /* \"Solidity/Tokens/MasterToken.sol\":6859:6868  feeAmount */\n      dup3\n        /* \"Solidity/Tokens/MasterToken.sol\":6859:6872  feeAmount > 0 */\n      gt\n        /* \"Solidity/Tokens/MasterToken.sol\":6855:6937  if (feeAmount > 0) {... */\n      iszero\n      tag_338\n      jumpi\n        /* \"Solidity/Tokens/MasterToken.sol\":6916:6925  feeAmount */\n      dup2\n        /* \"Solidity/Tokens/MasterToken.sol\":6889:6898  _balances */\n      0x05\n        /* \"Solidity/Tokens/MasterToken.sol\":6889:6912  _balances[feeCollector] */\n      0x00\n        /* \"Solidity/Tokens/MasterToken.sol\":6899:6911  feeCollector */\n      0x07\n      0x00\n      swap1\n      sload\n      swap1\n      0x0100\n      exp\n      swap1\n      div\n      0xffffffffffffffffffffffffffffffffffffffff\n      and\n        /* \"Solidity/Tokens/MasterToken.sol\":6889:6912  _balances[feeCollector] */\n      0xffffffffffffffffffffffffffffffffffffffff\n      and\n      0xffffffffffffffffffffffffffffffffffffffff\n      and\n      dup2\n      mstore\n      0x20\n      add\n      swap1\n      dup2\n      mstore\n      0x20\n      add\n      0x00\n      keccak256\n      0x00\n        /* \"Solidity/Tokens/MasterToken.sol\":6889:6925  _balances[feeCollector] += feeAmount */\n      dup3\n      dup3\n      sload\n      tag_339\n      swap2\n      swap1\n      tag_270\n      jump\t// in\n    tag_339:\n      swap3\n      pop\n      pop\n      dup2\n      swap1\n      sstore\n      pop\n        /* \"Solidity/Tokens/MasterToken.sol\":6855:6937  if (feeAmount > 0) {... */\n    tag_338:\n        /* \"Solidity/Tokens/MasterToken.sol\":6977:6979  to */\n      dup5\n        /* \"Solidity/Tokens/MasterToken.sol\":6962:6991  Transfer(from, to, netAmount) */\n      0xffffffffffffffffffffffffffffffffffffffff\n      and\n        /* \"Solidity/Tokens/MasterToken.sol\":6971:6975  from */\n      dup7\n        /* \"Solidity/Tokens/MasterToken.sol\":6962:6991  Transfer(from, to, netAmount) */\n      0xffffffffffffffffffffffffffffffffffffffff\n      and\n      0xddf252ad1be2c89b69c2b068fc378daa952ba7f163c4a11628f55a4df523b3ef\n        /* \"Solidity/Tokens/MasterToken.sol\":6981:6990  netAmount */\n      dup4\n        /* \"Solidity/Tokens/MasterToken.sol\":6962:6991  Transfer(from, to, netAmount) */\n      mload(0x40)\n      tag_340\n      swap2\n      swap1\n      tag_47\n      jump\t// in\n    tag_340:\n      mload(0x40)\n      dup1\n      swap2\n      sub\n      swap1\n      log3\n        /* \"Solidity/Tokens/MasterToken.sol\":7018:7019  0 */\n      0x00\n        /* \"Solidity/Tokens/MasterToken.sol\":7006:7015  feeAmount */\n      dup3\n        /* \"Solidity/Tokens/MasterToken.sol\":7006:7019  feeAmount > 0 */\n      gt\n        /* \"Solidity/Tokens/MasterToken.sol\":7002:7092  if (feeAmount > 0) {... */\n      iszero\n      tag_341\n      jumpi\n        /* \"Solidity/Tokens/MasterToken.sol\":7056:7068  feeCollector */\n      0x07\n      0x00\n      swap1\n      sload\n      swap1\n      0x0100\n      exp\n      swap1\n      div\n      0xffffffffffffffffffffffffffffffffffffffff\n      and\n        /* \"Solidity/Tokens/MasterToken.sol\":7041:7080  Transfer(from, feeCollector, feeAmount) */\n      0xffffffffffffffffffffffffffffffffffffffff\n      and\n        /* \"Solidity/Tokens/MasterToken.sol\":7050:7054  from */\n      dup7\n        /* \"Solidity/Tokens/MasterToken.sol\":7041:7080  Transfer(from, feeCollector, feeAmount) */\n      0xffffffffffffffffffffffffffffffffffffffff\n      and\n      0xddf252ad1be2c89b69c2b068fc378daa952ba7f163c4a11628f55a4df523b3ef\n        /* \"Solidity/Tokens/MasterToken.sol\":7070:7079  feeAmount */\n      dup5\n        /* \"Solidity/Tokens/MasterToken.sol\":7041:7080  Transfer(from, feeCollector, feeAmount) */\n      mload(0x40)\n      tag_342\n      swap2\n      swap1\n      tag_47\n      jump\t// in\n    tag_342:\n      mload(0x40)\n      dup1\n      swap2\n      sub\n      swap1\n      log3\n        /* \"Solidity/Tokens/MasterToken.sol\":7002:7092  if (feeAmount > 0) {... */\n    tag_341:\n        /* \"Solidity/Tokens/MasterToken.sol\":6309:7099  {... */\n      pop\n      pop\n      pop\n        /* \"Solidity/Tokens/MasterToken.sol\":6232:7099  function _transferWithFee(address from, address to, uint256 amount) internal {... */\n      pop\n      pop\n      pop\n      jump\t// out\n        /* \"Solidity/Tokens/MasterToken.sol\":4989:5409  function _mint(address to, uint256 amount) internal {... */\n    tag_222:\n        /* \"Solidity/Tokens/MasterToken.sol\":5070:5071  0 */\n      0x00\n        /* \"Solidity/Tokens/MasterToken.sol\":5056:5072  to == address(0) */\n      0xffffffffffffffffffffffffffffffffffffffff\n      and\n        /* \"Solidity/Tokens/MasterToken.sol\":5056:5058  to */\n      dup3\n        /* \"Solidity/Tokens/MasterToken.sol\":5056:5072  to == address(0) */\n      0xffffffffffffffffffffffffffffffffffffffff\n      and\n      sub\n        /* \"Solidity/Tokens/MasterToken.sol\":5052:5094  if (to == address(0)) revert ZeroAddress() */\n      tag_344\n      jumpi\n        /* \"Solidity/Tokens/MasterToken.sol\":5081:5094  ZeroAddress() */\n      mload(0x40)\n      0xd92e233d00000000000000000000000000000000000000000000000000000000\n      dup2\n      mstore\n      0x04\n      add\n      mload(0x40)\n      dup1\n      swap2\n      sub\n      swap1\n      revert\n        /* \"Solidity/Tokens/MasterToken.sol\":5052:5094  if (to == address(0)) revert ZeroAddress() */\n    tag_344:\n        /* \"Solidity/Tokens/MasterToken.sol\":5115:5137  uint256 newTotalSupply */\n      0x00\n        /* \"Solidity/Tokens/MasterToken.sol\":5154:5160  amount */\n      dup2\n        /* \"Solidity/Tokens/MasterToken.sol\":5140:5151  totalSupply */\n      sload(0x03)\n        /* \"Solidity/Tokens/MasterToken.sol\":5140:5160  totalSupply + amount */\n      tag_345\n      swap2\n      swap1\n      tag_270\n      jump\t// in\n    tag_345:\n        /* \"Solidity/Tokens/MasterToken.sol\":5115:5160  uint256 newTotalSupply = totalSupply + amount */\n      swap1\n      pop\n        /* \"Solidity/Tokens/MasterToken.sol\":5192:5201  maxSupply */\n      sload(0x04)\n        /* \"Solidity/Tokens/MasterToken.sol\":5175:5189  newTotalSupply */\n      dup2\n        /* \"Solidity/Tokens/MasterToken.sol\":5175:5201  newTotalSupply > maxSupply */\n      gt\n        /* \"Solidity/Tokens/MasterToken.sol\":5171:5228  if (newTotalSupply > maxSupply) revert ExceedsMaxSupply() */\n      iszero\n      tag_346\n      jumpi\n        /* \"Solidity/Tokens/MasterToken.sol\":5210:5228  ExceedsMaxSupply() */\n      mload(0x40)\n      0xc30436e900000000000000000000000000000000000000000000000000000000\n      dup2\n      mstore\n      0x04\n      add\n      mload(0x40)\n      dup1\n      swap2\n      sub\n      swap1\n      revert\n        /* \"Solidity/Tokens/MasterToken.sol\":5171:5228  if (newTotalSupply > maxSupply) revert ExceedsMaxSupply() */\n    tag_346:\n        /* \"Solidity/Tokens/MasterToken.sol\":5263:5277  newTotalSupply */\n      dup1\n        /* \"Solidity/Tokens/MasterToken.sol\":5249:5260  totalSupply */\n      0x03\n        /* \"Solidity/Tokens/MasterToken.sol\":5249:5277  totalSupply = newTotalSupply */\n      dup2\n      swap1\n      sstore\n      pop\n        /* \"Solidity/Tokens/MasterToken.sol\":5305:5311  amount */\n      dup2\n        /* \"Solidity/Tokens/MasterToken.sol\":5288:5297  _balances */\n      0x05\n        /* \"Solidity/Tokens/MasterToken.sol\":5288:5301  _balances[to] */\n      0x00\n        /* \"Solidity/Tokens/MasterToken.sol\":5298:5300  to */\n      dup6\n        /* \"Solidity/Tokens/MasterToken.sol\":5288:5301  _balances[to] */\n      0xffffffffffffffffffffffffffffffffffffffff\n      and\n      0xffffffffffffffffffffffffffffffffffffffff\n      and\n      dup2\n      mstore\n      0x20\n      add\n      swap1\n      dup2\n      mstore\n      0x20\n      add\n      0x00\n      keccak256\n      0x00\n        /* \"Solidity/Tokens/MasterToken.sol\":5288:5311  _balances[to] += amount */\n      dup3\n      dup3\n      sload\n      tag_347\n      swap2\n      swap1\n      tag_270\n      jump\t// in\n    tag_347:\n      swap3\n      pop\n      pop\n      dup2\n      swap1\n      sstore\n      pop\n        /* \"Solidity/Tokens/MasterToken.sol\":5342:5344  to */\n      dup3\n        /* \"Solidity/Tokens/MasterToken.sol\":5337:5353  Mint(to, amount) */\n      0xffffffffffffffffffffffffffffffffffffffff\n      and\n      0x0f6798a560793a54c3bcfe86a93cde1e73087d944c0ea20544137d4121396885\n        /* \"Solidity/Tokens/MasterToken.sol\":5346:5352  amount */\n      dup4\n        /* \"Solidity/Tokens/MasterToken.sol\":5337:5353  Mint(to, amount) */\n      mload(0x40)\n      tag_348\n      swap2\n      swap1\n      tag_47\n      jump\t// in\n    tag_348:\n      mload(0x40)\n      dup1\n      swap2\n      sub\n      swap1\n      log2\n        /* \"Solidity/Tokens/MasterToken.sol\":5390:5392  to */\n      dup3\n        /* \"Solidity/Tokens/MasterToken.sol\":5369:5401  Transfer(address(0), to, amount) */\n      0xffffffffffffffffffffffffffffffffffffffff\n      and\n        /* \"Solidity/Tokens/MasterToken.sol\":5386:5387  0 */\n      0x00\n        /* \"Solidity/Tokens/MasterToken.sol\":5369:5401  Transfer(address(0), to, amount) */\n      0xffffffffffffffffffffffffffffffffffffffff\n      and\n      0xddf252ad1be2c89b69c2b068fc378daa952ba7f163c4a11628f55a4df523b3ef\n        /* \"Solidity/Tokens/MasterToken.sol\":5394:5400  amount */\n      dup5\n        /* \"Solidity/Tokens/MasterToken.sol\":5369:5401  Transfer(address(0), to, amount) */\n      mload(0x40)\n      tag_349\n      swap2\n      swap1\n      tag_47\n      jump\t// in\n    tag_349:\n      mload(0x40)\n      dup1\n      swap2\n      sub\n      swap1\n      log3\n        /* \"Solidity/Tokens/MasterToken.sol\":5041:5409  {... */\n      pop\n        /* \"Solidity/Tokens/MasterToken.sol\":4989:5409  function _mint(address to, uint256 amount) internal {... */\n      pop\n      pop\n      jump\t// out\n        /* \"Solidity/Tokens/MasterToken.sol\":5768:6193  function _burn(address from, uint256 amount) internal {... */\n    tag_228:\n        /* \"Solidity/Tokens/MasterToken.sol\":5853:5854  0 */\n      0x00\n        /* \"Solidity/Tokens/MasterToken.sol\":5837:5855  from == address(0) */\n      0xffffffffffffffffffffffffffffffffffffffff\n      and\n        /* \"Solidity/Tokens/MasterToken.sol\":5837:5841  from */\n      dup3\n        /* \"Solidity/Tokens/MasterToken.sol\":5837:5855  from == address(0) */\n      0xffffffffffffffffffffffffffffffffffffffff\n      and\n      sub\n        /* \"Solidity/Tokens/MasterToken.sol\":5833:5877  if (from == address(0)) revert ZeroAddress() */\n      tag_351\n      jumpi\n        /* \"Solidity/Tokens/MasterToken.sol\":5864:5877  ZeroAddress() */\n      mload(0x40)\n      0xd92e233d00000000000000000000000000000000000000000000000000000000\n      dup2\n      mstore\n      0x04\n      add\n      mload(0x40)\n      dup1\n      swap2\n      sub\n      swap1\n      revert\n        /* \"Solidity/Tokens/MasterToken.sol\":5833:5877  if (from == address(0)) revert ZeroAddress() */\n    tag_351:\n        /* \"Solidity/Tokens/MasterToken.sol\":5898:5917  uint256 fromBalance */\n      0x00\n        /* \"Solidity/Tokens/MasterToken.sol\":5920:5929  _balances */\n      0x05\n        /* \"Solidity/Tokens/MasterToken.sol\":5920:5935  _balances[from] */\n      0x00\n        /* \"Solidity/Tokens/MasterToken.sol\":5930:5934  from */\n      dup5\n        /* \"Solidity/Tokens/MasterToken.sol\":5920:5935  _balances[from] */\n      0xffffffffffffffffffffffffffffffffffffffff\n      and\n      0xffffffffffffffffffffffffffffffffffffffff\n      and\n      dup2\n      mstore\n      0x20\n      add\n      swap1\n      dup2\n      mstore\n      0x20\n      add\n      0x00\n      keccak256\n      sload\n        /* \"Solidity/Tokens/MasterToken.sol\":5898:5935  uint256 fromBalance = _balances[from] */\n      swap1\n      pop\n        /* \"Solidity/Tokens/MasterToken.sol\":5964:5970  amount */\n      dup2\n        /* \"Solidity/Tokens/MasterToken.sol\":5950:5961  fromBalance */\n      dup2\n        /* \"Solidity/Tokens/MasterToken.sol\":5950:5970  fromBalance < amount */\n      lt\n        /* \"Solidity/Tokens/MasterToken.sol\":5946:6000  if (fromBalance < amount) revert InsufficientBalance() */\n      iszero\n      tag_352\n      jumpi\n        /* \"Solidity/Tokens/MasterToken.sol\":5979:6000  InsufficientBalance() */\n      mload(0x40)\n      0xf4d678b800000000000000000000000000000000000000000000000000000000\n      dup2\n      mstore\n      0x04\n      add\n      mload(0x40)\n      dup1\n      swap2\n      sub\n      swap1\n      revert\n        /* \"Solidity/Tokens/MasterToken.sol\":5946:6000  if (fromBalance < amount) revert InsufficientBalance() */\n    tag_352:\n        /* \"Solidity/Tokens/MasterToken.sol\":6053:6059  amount */\n      dup2\n        /* \"Solidity/Tokens/MasterToken.sol\":6039:6050  fromBalance */\n      dup2\n        /* \"Solidity/Tokens/MasterToken.sol\":6039:6059  fromBalance - amount */\n      tag_353\n      swap2\n      swap1\n      tag_191\n      jump\t// in\n    tag_353:\n        /* \"Solidity/Tokens/MasterToken.sol\":6021:6030  _balances */\n      0x05\n        /* \"Solidity/Tokens/MasterToken.sol\":6021:6036  _balances[from] */\n      0x00\n        /* \"Solidity/Tokens/MasterToken.sol\":6031:6035  from */\n      dup6\n        /* \"Solidity/Tokens/MasterToken.sol\":6021:6036  _balances[from] */\n      0xffffffffffffffffffffffffffffffffffffffff\n      and\n      0xffffffffffffffffffffffffffffffffffffffff\n      and\n      dup2\n      mstore\n      0x20\n      add\n      swap1\n      dup2\n      mstore\n      0x20\n      add\n      0x00\n      keccak256\n        /* \"Solidity/Tokens/MasterToken.sol\":6021:6059  _balances[from] = fromBalance - amount */\n      dup2\n      swap1\n      sstore\n      pop\n        /* \"Solidity/Tokens/MasterToken.sol\":6085:6091  amount */\n      dup2\n        /* \"Solidity/Tokens/MasterToken.sol\":6070:6081  totalSupply */\n      0x03\n      0x00\n        /* \"Solidity/Tokens/MasterToken.sol\":6070:6091  totalSupply -= amount */\n      dup3\n      dup3\n      sload\n      tag_354\n      swap2\n      swap1\n      tag_191\n      jump\t// in\n    tag_354:\n      swap3\n      pop\n      pop\n      dup2\n      swap1\n      sstore\n      pop\n        /* \"Solidity/Tokens/MasterToken.sol\":6122:6126  from */\n      dup3\n        /* \"Solidity/Tokens/MasterToken.sol\":6117:6135  Burn(from, amount) */\n      0xffffffffffffffffffffffffffffffffffffffff\n      and\n      0xcc16f5dbb4873280815c1ee09dbd06736cffcc184412cf7a71a0fdb75d397ca5\n        /* \"Solidity/Tokens/MasterToken.sol\":6128:6134  amount */\n      dup4\n        /* \"Solidity/Tokens/MasterToken.sol\":6117:6135  Burn(from, amount) */\n      mload(0x40)\n      tag_355\n      swap2\n      swap1\n      tag_47\n      jump\t// in\n    tag_355:\n      mload(0x40)\n      dup1\n      swap2\n      sub\n      swap1\n      log2\n        /* \"Solidity/Tokens/MasterToken.sol\":6174:6175  0 */\n      0x00\n        /* \"Solidity/Tokens/MasterToken.sol\":6151:6185  Transfer(from, address(0), amount) */\n      0xffffffffffffffffffffffffffffffffffffffff\n      and\n        /* \"Solidity/Tokens/MasterToken.sol\":6160:6164  from */\n      dup4\n        /* \"Solidity/Tokens/MasterToken.sol\":6151:6185  Transfer(from, address(0), amount) */\n      0xffffffffffffffffffffffffffffffffffffffff\n      and\n      0xddf252ad1be2c89b69c2b068fc378daa952ba7f163c4a11628f55a4df523b3ef\n        /* \"Solidity/Tokens/MasterToken.sol\":6178:6184  amount */\n      dup5\n        /* \"Solidity/Tokens/MasterToken.sol\":6151:6185  Transfer(from, address(0), amount) */\n      mload(0x40)\n      tag_356\n      swap2\n      swap1\n      tag_47\n      jump\t// in\n    tag_356:\n      mload(0x40)\n      dup1\n      swap2\n      sub\n      swap1\n      log3\n        /* \"Solidity/Tokens/MasterToken.sol\":5822:6193  {... */\n      pop\n        /* \"Solidity/Tokens/MasterToken.sol\":5768:6193  function _burn(address from, uint256 amount) internal {... */\n      pop\n      pop\n      jump\t// out\n        /* \"#utility.yul\":7:84   */\n    tag_357:\n        /* \"#utility.yul\":44:51   */\n      0x00\n        /* \"#utility.yul\":73:78   */\n      dup2\n        /* \"#utility.yul\":62:78   */\n      swap1\n      pop\n        /* \"#utility.yul\":7:84   */\n      swap2\n      swap1\n      pop\n      jump\t// out\n        /* \"#utility.yul\":90:208   */\n    tag_358:\n        /* \"#utility.yul\":177:201   */\n      tag_400\n        /* \"#utility.yul\":195:200   */\n      dup2\n        /* \"#utility.yul\":177:201   */\n      tag_357\n      jump\t// in\n    tag_400:\n        /* \"#utility.yul\":172:175   */\n      dup3\n        /* \"#utility.yul\":165:202   */\n      mstore\n        /* \"#utility.yul\":90:208   */\n      pop\n      pop\n      jump\t// out\n        /* \"#utility.yul\":214:436   */\n    tag_47:\n        /* \"#utility.yul\":307:311   */\n      0x00\n        /* \"#utility.yul\":345:347   */\n      0x20\n        /* \"#utility.yul\":334:343   */\n      dup3\n        /* \"#utility.yul\":330:348   */\n      add\n        /* \"#utility.yul\":322:348   */\n      swap1\n      pop\n        /* \"#utility.yul\":358:429   */\n      tag_402\n        /* \"#utility.yul\":426:427   */\n      0x00\n        /* \"#utility.yul\":415:424   */\n      dup4\n        /* \"#utility.yul\":411:428   */\n      add\n        /* \"#utility.yul\":402:408   */\n      dup5\n        /* \"#utility.yul\":358:429   */\n      tag_358\n      jump\t// in\n    tag_402:\n        /* \"#utility.yul\":214:436   */\n      swap3\n      swap2\n      pop\n      pop\n      jump\t// out\n        /* \"#utility.yul\":523:640   */\n    tag_360:\n        /* \"#utility.yul\":632:633   */\n      0x00\n        /* \"#utility.yul\":629:630   */\n      0x00\n        /* \"#utility.yul\":622:634   */\n      revert\n        /* \"#utility.yul\":769:895   */\n    tag_362:\n        /* \"#utility.yul\":806:813   */\n      0x00\n        /* \"#utility.yul\":846:888   */\n      0xffffffffffffffffffffffffffffffffffffffff\n        /* \"#utility.yul\":839:844   */\n      dup3\n        /* \"#utility.yul\":835:889   */\n      and\n        /* \"#utility.yul\":824:889   */\n      swap1\n      pop\n        /* \"#utility.yul\":769:895   */\n      swap2\n      swap1\n      pop\n      jump\t// out\n        /* \"#utility.yul\":901:997   */\n    tag_363:\n        /* \"#utility.yul\":938:945   */\n      0x00\n        /* \"#utility.yul\":967:991   */\n      tag_408\n        /* \"#utility.yul\":985:990   */\n      dup3\n        /* \"#utility.yul\":967:991   */\n      tag_362\n      jump\t// in\n    tag_408:\n        /* \"#utility.yul\":956:991   */\n      swap1\n      pop\n        /* \"#utility.yul\":901:997   */\n      swap2\n      swap1\n      pop\n      jump\t// out\n        /* \"#utility.yul\":1003:1125   */\n    tag_364:\n        /* \"#utility.yul\":1076:1100   */\n      tag_410\n        /* \"#utility.yul\":1094:1099   */\n      dup2\n        /* \"#utility.yul\":1076:1100   */\n      tag_363\n      jump\t// in\n    tag_410:\n        /* \"#utility.yul\":1069:1074   */\n      dup2\n        /* \"#utility.yul\":1066:1101   */\n      eq\n        /* \"#utility.yul\":1056:1119   */\n      tag_411\n      jumpi\n        /* \"#utility.yul\":1115:1116   */\n      0x00\n        /* \"#utility.yul\":1112:1113   */\n      0x00\n        /* \"#utility.yul\":1105:1117   */\n      revert\n        /* \"#utility.yul\":1056:1119   */\n    tag_411:\n        /* \"#utility.yul\":1003:1125   */\n      pop\n      jump\t// out\n        /* \"#utility.yul\":1131:1270   */\n    tag_365:\n        /* \"#utility.yul\":1177:1182   */\n      0x00\n        /* \"#utility.yul\":1215:1221   */\n      dup2\n        /* \"#utility.yul\":1202:1222   */\n      calldataload\n        /* \"#utility.yul\":1193:1222   */\n      swap1\n      pop\n        /* \"#utility.yul\":1231:1264   */\n      tag_413\n        /* \"#utility.yul\":1258:1263   */\n      dup2\n        /* \"#utility.yul\":1231:1264   */\n      tag_364\n      jump\t// in\n    tag_413:\n        /* \"#utility.yul\":1131:1270   */\n      swap3\n      swap2\n      pop\n      pop\n      jump\t// out\n        /* \"#utility.yul\":1276:1605   */\n    tag_50:\n        /* \"#utility.yul\":1335:1341   */\n      0x00\n        /* \"#utility.yul\":1384:1386   */\n      0x20\n        /* \"#utility.yul\":1372:1381   */\n      dup3\n        /* \"#utility.yul\":1363:1370   */\n      dup5\n        /* \"#utility.yul\":1359:1382   */\n      sub\n        /* \"#utility.yul\":1355:1387   */\n      slt\n        /* \"#utility.yul\":1352:1471   */\n      iszero\n      tag_415\n      jumpi\n        /* \"#utility.yul\":1390:1469   */\n      tag_416\n      tag_360\n      jump\t// in\n    tag_416:\n        /* \"#utility.yul\":1352:1471   */\n    tag_415:\n        /* \"#utility.yul\":1510:1511   */\n      0x00\n        /* \"#utility.yul\":1535:1588   */\n      tag_417\n        /* \"#utility.yul\":1580:1587   */\n      dup5\n        /* \"#utility.yul\":1571:1577   */\n      dup3\n        /* \"#utility.yul\":1560:1569   */\n      dup6\n        /* \"#utility.yul\":1556:1578   */\n      add\n        /* \"#utility.yul\":1535:1588   */\n      tag_365\n      jump\t// in\n    tag_417:\n        /* \"#utility.yul\":1525:1588   */\n      swap2\n      pop\n        /* \"#utility.yul\":1481:1598   */\n      pop\n        /* \"#utility.yul\":1276:1605   */\n      swap3\n      swap2\n      pop\n      pop\n      jump\t// out\n        /* \"#utility.yul\":1611:1701   */\n    tag_366:\n        /* \"#utility.yul\":1645:1652   */\n      0x00\n        /* \"#utility.yul\":1688:1693   */\n      dup2\n        /* \"#utility.yul\":1681:1694   */\n      iszero\n        /* \"#utility.yul\":1674:1695   */\n      iszero\n        /* \"#utility.yul\":1663:1695   */\n      swap1\n      pop\n        /* \"#utility.yul\":1611:1701   */\n      swap2\n      swap1\n      pop\n      jump\t// out\n        /* \"#utility.yul\":1707:1816   */\n    tag_367:\n        /* \"#utility.yul\":1788:1809   */\n      tag_420\n        /* \"#utility.yul\":1803:1808   */\n      dup2\n        /* \"#utility.yul\":1788:1809   */\n      tag_366\n      jump\t// in\n    tag_420:\n        /* \"#utility.yul\":1783:1786   */\n      dup3\n        /* \"#utility.yul\":1776:1810   */\n      mstore\n        /* \"#utility.yul\":1707:1816   */\n      pop\n      pop\n      jump\t// out\n        /* \"#utility.yul\":1822:2032   */\n    tag_56:\n        /* \"#utility.yul\":1909:1913   */\n      0x00\n        /* \"#utility.yul\":1947:1949   */\n      0x20\n        /* \"#utility.yul\":1936:1945   */\n      dup3\n        /* \"#utility.yul\":1932:1950   */\n      add\n        /* \"#utility.yul\":1924:1950   */\n      swap1\n      pop\n        /* \"#utility.yul\":1960:2025   */\n      tag_422\n        /* \"#utility.yul\":2022:2023   */\n      0x00\n        /* \"#utility.yul\":2011:2020   */\n      dup4\n        /* \"#utility.yul\":2007:2024   */\n      add\n        /* \"#utility.yul\":1998:2004   */\n      dup5\n        /* \"#utility.yul\":1960:2025   */\n      tag_367\n      jump\t// in\n    tag_422:\n        /* \"#utility.yul\":1822:2032   */\n      swap3\n      swap2\n      pop\n      pop\n      jump\t// out\n        /* \"#utility.yul\":2038:2137   */\n    tag_368:\n        /* \"#utility.yul\":2090:2096   */\n      0x00\n        /* \"#utility.yul\":2124:2129   */\n      dup2\n        /* \"#utility.yul\":2118:2130   */\n      mload\n        /* \"#utility.yul\":2108:2130   */\n      swap1\n      pop\n        /* \"#utility.yul\":2038:2137   */\n      swap2\n      swap1\n      pop\n      jump\t// out\n        /* \"#utility.yul\":2143:2312   */\n    tag_369:\n        /* \"#utility.yul\":2227:2238   */\n      0x00\n        /* \"#utility.yul\":2261:2267   */\n      dup3\n        /* \"#utility.yul\":2256:2259   */\n      dup3\n        /* \"#utility.yul\":2249:2268   */\n      mstore\n        /* \"#utility.yul\":2301:2305   */\n      0x20\n        /* \"#utility.yul\":2296:2299   */\n      dup3\n        /* \"#utility.yul\":2292:2306   */\n      add\n        /* \"#utility.yul\":2277:2306   */\n      swap1\n      pop\n        /* \"#utility.yul\":2143:2312   */\n      swap3\n      swap2\n      pop\n      pop\n      jump\t// out\n        /* \"#utility.yul\":2318:2457   */\n    tag_370:\n        /* \"#utility.yul\":2407:2413   */\n      dup3\n        /* \"#utility.yul\":2402:2405   */\n      dup2\n        /* \"#utility.yul\":2397:2400   */\n      dup4\n        /* \"#utility.yul\":2391:2414   */\n      mcopy\n        /* \"#utility.yul\":2448:2449   */\n      0x00\n        /* \"#utility.yul\":2439:2445   */\n      dup4\n        /* \"#utility.yul\":2434:2437   */\n      dup4\n        /* \"#utility.yul\":2430:2446   */\n      add\n        /* \"#utility.yul\":2423:2450   */\n      mstore\n        /* \"#utility.yul\":2318:2457   */\n      pop\n      pop\n      pop\n      jump\t// out\n        /* \"#utility.yul\":2463:2565   */\n    tag_371:\n        /* \"#utility.yul\":2504:2510   */\n      0x00\n        /* \"#utility.yul\":2555:2557   */\n      0x1f\n        /* \"#utility.yul\":2551:2558   */\n      not\n        /* \"#utility.yul\":2546:2548   */\n      0x1f\n        /* \"#utility.yul\":2539:2544   */\n      dup4\n        /* \"#utility.yul\":2535:2549   */\n      add\n        /* \"#utility.yul\":2531:2559   */\n      and\n        /* \"#utility.yul\":2521:2559   */\n      swap1\n      pop\n        /* \"#utility.yul\":2463:2565   */\n      swap2\n      swap1\n      pop\n      jump\t// out\n        /* \"#utility.yul\":2571:2948   */\n    tag_372:\n        /* \"#utility.yul\":2659:2662   */\n      0x00\n        /* \"#utility.yul\":2687:2726   */\n      tag_428\n        /* \"#utility.yul\":2720:2725   */\n      dup3\n        /* \"#utility.yul\":2687:2726   */\n      tag_368\n      jump\t// in\n    tag_428:\n        /* \"#utility.yul\":2742:2813   */\n      tag_429\n        /* \"#utility.yul\":2806:2812   */\n      dup2\n        /* \"#utility.yul\":2801:2804   */\n      dup6\n        /* \"#utility.yul\":2742:2813   */\n      tag_369\n      jump\t// in\n    tag_429:\n        /* \"#utility.yul\":2735:2813   */\n      swap4\n      pop\n        /* \"#utility.yul\":2822:2887   */\n      tag_430\n        /* \"#utility.yul\":2880:2886   */\n      dup2\n        /* \"#utility.yul\":2875:2878   */\n      dup6\n        /* \"#utility.yul\":2868:2872   */\n      0x20\n        /* \"#utility.yul\":2861:2866   */\n      dup7\n        /* \"#utility.yul\":2857:2873   */\n      add\n        /* \"#utility.yul\":2822:2887   */\n      tag_370\n      jump\t// in\n    tag_430:\n        /* \"#utility.yul\":2912:2941   */\n      tag_431\n        /* \"#utility.yul\":2934:2940   */\n      dup2\n        /* \"#utility.yul\":2912:2941   */\n      tag_371\n      jump\t// in\n    tag_431:\n        /* \"#utility.yul\":2907:2910   */\n      dup5\n        /* \"#utility.yul\":2903:2942   */\n      add\n        /* \"#utility.yul\":2896:2942   */\n      swap2\n      pop\n        /* \"#utility.yul\":2663:2948   */\n      pop\n        /* \"#utility.yul\":2571:2948   */\n      swap3\n      swap2\n      pop\n      pop\n      jump\t// out\n        /* \"#utility.yul\":2954:3267   */\n    tag_60:\n        /* \"#utility.yul\":3067:3071   */\n      0x00\n        /* \"#utility.yul\":3105:3107   */\n      0x20\n        /* \"#utility.yul\":3094:3103   */\n      dup3\n        /* \"#utility.yul\":3090:3108   */\n      add\n        /* \"#utility.yul\":3082:3108   */\n      swap1\n      pop\n        /* \"#utility.yul\":3154:3163   */\n      dup2\n        /* \"#utility.yul\":3148:3152   */\n      dup2\n        /* \"#utility.yul\":3144:3164   */\n      sub\n        /* \"#utility.yul\":3140:3141   */\n      0x00\n        /* \"#utility.yul\":3129:3138   */\n      dup4\n        /* \"#utility.yul\":3125:3142   */\n      add\n        /* \"#utility.yul\":3118:3165   */\n      mstore\n        /* \"#utility.yul\":3182:3260   */\n      tag_433\n        /* \"#utility.yul\":3255:3259   */\n      dup2\n        /* \"#utility.yul\":3246:3252   */\n      dup5\n        /* \"#utility.yul\":3182:3260   */\n      tag_372\n      jump\t// in\n    tag_433:\n        /* \"#utility.yul\":3174:3260   */\n      swap1\n      pop\n        /* \"#utility.yul\":2954:3267   */\n      swap3\n      swap2\n      pop\n      pop\n      jump\t// out\n        /* \"#utility.yul\":3273:3395   */\n    tag_373:\n        /* \"#utility.yul\":3346:3370   */\n      tag_435\n        /* \"#utility.yul\":3364:3369   */\n      dup2\n        /* \"#utility.yul\":3346:3370   */\n      tag_357\n      jump\t// in\n    tag_435:\n        /* \"#utility.yul\":3339:3344   */\n      dup2\n        /* \"#utility.yul\":3336:3371   */\n      eq\n        /* \"#utility.yul\":3326:3389   */\n      tag_436\n      jumpi\n        /* \"#utility.yul\":3385:3386   */\n      0x00\n        /* \"#utility.yul\":3382:3383   */\n      0x00\n        /* \"#utility.yul\":3375:3387   */\n      revert\n        /* \"#utility.yul\":3326:3389   */\n    tag_436:\n        /* \"#utility.yul\":3273:3395   */\n      pop\n      jump\t// out\n        /* \"#utility.yul\":3401:3540   */\n    tag_374:\n        /* \"#utility.yul\":3447:3452   */\n      0x00\n        /* \"#utility.yul\":3485:3491   */\n      dup2\n        /* \"#utility.yul\":3472:3492   */\n      calldataload\n        /* \"#utility.yul\":3463:3492   */\n      swap1\n      pop\n        /* \"#utility.yul\":3501:3534   */\n      tag_438\n        /* \"#utility.yul\":3528:3533   */\n      dup2\n        /* \"#utility.yul\":3501:3534   */\n      tag_373\n      jump\t// in\n    tag_438:\n        /* \"#utility.yul\":3401:3540   */\n      swap3\n      swap2\n      pop\n      pop\n      jump\t// out\n        /* \"#utility.yul\":3546:4020   */\n    tag_63:\n        /* \"#utility.yul\":3614:3620   */\n      0x00\n        /* \"#utility.yul\":3622:3628   */\n      0x00\n        /* \"#utility.yul\":3671:3673   */\n      0x40\n        /* \"#utility.yul\":3659:3668   */\n      dup4\n        /* \"#utility.yul\":3650:3657   */\n      dup6\n        /* \"#utility.yul\":3646:3669   */\n      sub\n        /* \"#utility.yul\":3642:3674   */\n      slt\n        /* \"#utility.yul\":3639:3758   */\n      iszero\n      tag_440\n      jumpi\n        /* \"#utility.yul\":3677:3756   */\n      tag_441\n      tag_360\n      jump\t// in\n    tag_441:\n        /* \"#utility.yul\":3639:3758   */\n    tag_440:\n        /* \"#utility.yul\":3797:3798   */\n      0x00\n        /* \"#utility.yul\":3822:3875   */\n      tag_442\n        /* \"#utility.yul\":3867:3874   */\n      dup6\n        /* \"#utility.yul\":3858:3864   */\n      dup3\n        /* \"#utility.yul\":3847:3856   */\n      dup7\n        /* \"#utility.yul\":3843:3865   */\n      add\n        /* \"#utility.yul\":3822:3875   */\n      tag_365\n      jump\t// in\n    tag_442:\n        /* \"#utility.yul\":3812:3875   */\n      swap3\n      pop\n        /* \"#utility.yul\":3768:3885   */\n      pop\n        /* \"#utility.yul\":3924:3926   */\n      0x20\n        /* \"#utility.yul\":3950:4003   */\n      tag_443\n        /* \"#utility.yul\":3995:4002   */\n      dup6\n        /* \"#utility.yul\":3986:3992   */\n      dup3\n        /* \"#utility.yul\":3975:3984   */\n      dup7\n        /* \"#utility.yul\":3971:3993   */\n      add\n        /* \"#utility.yul\":3950:4003   */\n      tag_374\n      jump\t// in\n    tag_443:\n        /* \"#utility.yul\":3940:4003   */\n      swap2\n      pop\n        /* \"#utility.yul\":3895:4013   */\n      pop\n        /* \"#utility.yul\":3546:4020   */\n      swap3\n      pop\n      swap3\n      swap1\n      pop\n      jump\t// out\n        /* \"#utility.yul\":4026:4169   */\n    tag_375:\n        /* \"#utility.yul\":4122:4128   */\n      0x00\n        /* \"#utility.yul\":4156:4161   */\n      dup2\n        /* \"#utility.yul\":4150:4162   */\n      mload\n        /* \"#utility.yul\":4140:4162   */\n      swap1\n      pop\n        /* \"#utility.yul\":4026:4169   */\n      swap2\n      swap1\n      pop\n      jump\t// out\n        /* \"#utility.yul\":4175:4388   */\n    tag_376:\n        /* \"#utility.yul\":4303:4314   */\n      0x00\n        /* \"#utility.yul\":4337:4343   */\n      dup3\n        /* \"#utility.yul\":4332:4335   */\n      dup3\n        /* \"#utility.yul\":4325:4344   */\n      mstore\n        /* \"#utility.yul\":4377:4381   */\n      0x20\n        /* \"#utility.yul\":4372:4375   */\n      dup3\n        /* \"#utility.yul\":4368:4382   */\n      add\n        /* \"#utility.yul\":4353:4382   */\n      swap1\n      pop\n        /* \"#utility.yul\":4175:4388   */\n      swap3\n      swap2\n      pop\n      pop\n      jump\t// out\n        /* \"#utility.yul\":4394:4555   */\n    tag_377:\n        /* \"#utility.yul\":4490:4494   */\n      0x00\n        /* \"#utility.yul\":4513:4516   */\n      dup2\n        /* \"#utility.yul\":4505:4516   */\n      swap1\n      pop\n        /* \"#utility.yul\":4543:4547   */\n      0x20\n        /* \"#utility.yul\":4538:4541   */\n      dup3\n        /* \"#utility.yul\":4534:4548   */\n      add\n        /* \"#utility.yul\":4526:4548   */\n      swap1\n      pop\n        /* \"#utility.yul\":4394:4555   */\n      swap2\n      swap1\n      pop\n      jump\t// out\n        /* \"#utility.yul\":4561:4669   */\n    tag_378:\n        /* \"#utility.yul\":4638:4662   */\n      tag_448\n        /* \"#utility.yul\":4656:4661   */\n      dup2\n        /* \"#utility.yul\":4638:4662   */\n      tag_357\n      jump\t// in\n    tag_448:\n        /* \"#utility.yul\":4633:4636   */\n      dup3\n        /* \"#utility.yul\":4626:4663   */\n      mstore\n        /* \"#utility.yul\":4561:4669   */\n      pop\n      pop\n      jump\t// out\n        /* \"#utility.yul\":4751:5264   */\n    tag_379:\n        /* \"#utility.yul\":4896:4900   */\n      0x40\n        /* \"#utility.yul\":4891:4894   */\n      dup3\n        /* \"#utility.yul\":4887:4901   */\n      add\n        /* \"#utility.yul\":4985:4989   */\n      0x00\n        /* \"#utility.yul\":4978:4983   */\n      dup3\n        /* \"#utility.yul\":4974:4990   */\n      add\n        /* \"#utility.yul\":4968:4991   */\n      mload\n        /* \"#utility.yul\":5004:5067   */\n      tag_450\n        /* \"#utility.yul\":5061:5065   */\n      0x00\n        /* \"#utility.yul\":5056:5059   */\n      dup6\n        /* \"#utility.yul\":5052:5066   */\n      add\n        /* \"#utility.yul\":5038:5050   */\n      dup3\n        /* \"#utility.yul\":5004:5067   */\n      tag_378\n      jump\t// in\n    tag_450:\n        /* \"#utility.yul\":4911:5077   */\n      pop\n        /* \"#utility.yul\":5165:5169   */\n      0x20\n        /* \"#utility.yul\":5158:5163   */\n      dup3\n        /* \"#utility.yul\":5154:5170   */\n      add\n        /* \"#utility.yul\":5148:5171   */\n      mload\n        /* \"#utility.yul\":5184:5247   */\n      tag_451\n        /* \"#utility.yul\":5241:5245   */\n      0x20\n        /* \"#utility.yul\":5236:5239   */\n      dup6\n        /* \"#utility.yul\":5232:5246   */\n      add\n        /* \"#utility.yul\":5218:5230   */\n      dup3\n        /* \"#utility.yul\":5184:5247   */\n      tag_378\n      jump\t// in\n    tag_451:\n        /* \"#utility.yul\":5087:5257   */\n      pop\n        /* \"#utility.yul\":4865:5264   */\n      pop\n        /* \"#utility.yul\":4751:5264   */\n      pop\n      pop\n      jump\t// out\n        /* \"#utility.yul\":5270:5565   */\n    tag_380:\n        /* \"#utility.yul\":5397:5407   */\n      0x00\n        /* \"#utility.yul\":5418:5522   */\n      tag_453\n        /* \"#utility.yul\":5518:5521   */\n      dup4\n        /* \"#utility.yul\":5510:5516   */\n      dup4\n        /* \"#utility.yul\":5418:5522   */\n      tag_379\n      jump\t// in\n    tag_453:\n        /* \"#utility.yul\":5554:5558   */\n      0x40\n        /* \"#utility.yul\":5549:5552   */\n      dup4\n        /* \"#utility.yul\":5545:5559   */\n      add\n        /* \"#utility.yul\":5531:5559   */\n      swap1\n      pop\n        /* \"#utility.yul\":5270:5565   */\n      swap3\n      swap2\n      pop\n      pop\n      jump\t// out\n        /* \"#utility.yul\":5571:5713   */\n    tag_381:\n        /* \"#utility.yul\":5670:5674   */\n      0x00\n        /* \"#utility.yul\":5702:5706   */\n      0x20\n        /* \"#utility.yul\":5697:5700   */\n      dup3\n        /* \"#utility.yul\":5693:5707   */\n      add\n        /* \"#utility.yul\":5685:5707   */\n      swap1\n      pop\n        /* \"#utility.yul\":5571:5713   */\n      swap2\n      swap1\n      pop\n      jump\t// out\n        /* \"#utility.yul\":5799:6763   */\n    tag_382:\n        /* \"#utility.yul\":5976:5979   */\n      0x00\n        /* \"#utility.yul\":6005:6088   */\n      tag_456\n        /* \"#utility.yul\":6082:6087   */\n      dup3\n        /* \"#utility.yul\":6005:6088   */\n      tag_375\n      jump\t// in\n    tag_456:\n        /* \"#utility.yul\":6104:6219   */\n      tag_457\n        /* \"#utility.yul\":6212:6218   */\n      dup2\n        /* \"#utility.yul\":6207:6210   */\n      dup6\n        /* \"#utility.yul\":6104:6219   */\n      tag_376\n      jump\t// in\n    tag_457:\n        /* \"#utility.yul\":6097:6219   */\n      swap4\n      pop\n        /* \"#utility.yul\":6243:6328   */\n      tag_458\n        /* \"#utility.yul\":6322:6327   */\n      dup4\n        /* \"#utility.yul\":6243:6328   */\n      tag_377\n      jump\t// in\n    tag_458:\n        /* \"#utility.yul\":6351:6358   */\n      dup1\n        /* \"#utility.yul\":6382:6383   */\n      0x00\n        /* \"#utility.yul\":6367:6738   */\n    tag_459:\n        /* \"#utility.yul\":6392:6398   */\n      dup4\n        /* \"#utility.yul\":6389:6390   */\n      dup2\n        /* \"#utility.yul\":6386:6399   */\n      lt\n        /* \"#utility.yul\":6367:6738   */\n      iszero\n      tag_461\n      jumpi\n        /* \"#utility.yul\":6468:6474   */\n      dup2\n        /* \"#utility.yul\":6462:6475   */\n      mload\n        /* \"#utility.yul\":6495:6616   */\n      tag_462\n        /* \"#utility.yul\":6612:6615   */\n      dup9\n        /* \"#utility.yul\":6597:6610   */\n      dup3\n        /* \"#utility.yul\":6495:6616   */\n      tag_380\n      jump\t// in\n    tag_462:\n        /* \"#utility.yul\":6488:6616   */\n      swap8\n      pop\n        /* \"#utility.yul\":6639:6728   */\n      tag_463\n        /* \"#utility.yul\":6721:6727   */\n      dup4\n        /* \"#utility.yul\":6639:6728   */\n      tag_381\n      jump\t// in\n    tag_463:\n        /* \"#utility.yul\":6629:6728   */\n      swap3\n      pop\n        /* \"#utility.yul\":6427:6738   */\n      pop\n        /* \"#utility.yul\":6414:6415   */\n      0x01\n        /* \"#utility.yul\":6411:6412   */\n      dup2\n        /* \"#utility.yul\":6407:6416   */\n      add\n        /* \"#utility.yul\":6402:6416   */\n      swap1\n      pop\n        /* \"#utility.yul\":6367:6738   */\n      jump(tag_459)\n    tag_461:\n        /* \"#utility.yul\":6371:6385   */\n      pop\n        /* \"#utility.yul\":6754:6757   */\n      dup6\n        /* \"#utility.yul\":6747:6757   */\n      swap4\n      pop\n        /* \"#utility.yul\":5981:6763   */\n      pop\n      pop\n      pop\n        /* \"#utility.yul\":5799:6763   */\n      swap3\n      swap2\n      pop\n      pop\n      jump\t// out\n        /* \"#utility.yul\":6769:7258   */\n    tag_74:\n        /* \"#utility.yul\":6970:6974   */\n      0x00\n        /* \"#utility.yul\":7008:7010   */\n      0x20\n        /* \"#utility.yul\":6997:7006   */\n      dup3\n        /* \"#utility.yul\":6993:7011   */\n      add\n        /* \"#utility.yul\":6985:7011   */\n      swap1\n      pop\n        /* \"#utility.yul\":7057:7066   */\n      dup2\n        /* \"#utility.yul\":7051:7055   */\n      dup2\n        /* \"#utility.yul\":7047:7067   */\n      sub\n        /* \"#utility.yul\":7043:7044   */\n      0x00\n        /* \"#utility.yul\":7032:7041   */\n      dup4\n        /* \"#utility.yul\":7028:7045   */\n      add\n        /* \"#utility.yul\":7021:7068   */\n      mstore\n        /* \"#utility.yul\":7085:7251   */\n      tag_465\n        /* \"#utility.yul\":7246:7250   */\n      dup2\n        /* \"#utility.yul\":7237:7243   */\n      dup5\n        /* \"#utility.yul\":7085:7251   */\n      tag_382\n      jump\t// in\n    tag_465:\n        /* \"#utility.yul\":7077:7251   */\n      swap1\n      pop\n        /* \"#utility.yul\":6769:7258   */\n      swap3\n      swap2\n      pop\n      pop\n      jump\t// out\n        /* \"#utility.yul\":7264:7883   */\n    tag_80:\n        /* \"#utility.yul\":7341:7347   */\n      0x00\n        /* \"#utility.yul\":7349:7355   */\n      0x00\n        /* \"#utility.yul\":7357:7363   */\n      0x00\n        /* \"#utility.yul\":7406:7408   */\n      0x60\n        /* \"#utility.yul\":7394:7403   */\n      dup5\n        /* \"#utility.yul\":7385:7392   */\n      dup7\n        /* \"#utility.yul\":7381:7404   */\n      sub\n        /* \"#utility.yul\":7377:7409   */\n      slt\n        /* \"#utility.yul\":7374:7493   */\n      iszero\n      tag_467\n      jumpi\n        /* \"#utility.yul\":7412:7491   */\n      tag_468\n      tag_360\n      jump\t// in\n    tag_468:\n        /* \"#utility.yul\":7374:7493   */\n    tag_467:\n        /* \"#utility.yul\":7532:7533   */\n      0x00\n        /* \"#utility.yul\":7557:7610   */\n      tag_469\n        /* \"#utility.yul\":7602:7609   */\n      dup7\n        /* \"#utility.yul\":7593:7599   */\n      dup3\n        /* \"#utility.yul\":7582:7591   */\n      dup8\n        /* \"#utility.yul\":7578:7600   */\n      add\n        /* \"#utility.yul\":7557:7610   */\n      tag_365\n      jump\t// in\n    tag_469:\n        /* \"#utility.yul\":7547:7610   */\n      swap4\n      pop\n        /* \"#utility.yul\":7503:7620   */\n      pop\n        /* \"#utility.yul\":7659:7661   */\n      0x20\n        /* \"#utility.yul\":7685:7738   */\n      tag_470\n        /* \"#utility.yul\":7730:7737   */\n      dup7\n        /* \"#utility.yul\":7721:7727   */\n      dup3\n        /* \"#utility.yul\":7710:7719   */\n      dup8\n        /* \"#utility.yul\":7706:7728   */\n      add\n        /* \"#utility.yul\":7685:7738   */\n      tag_365\n      jump\t// in\n    tag_470:\n        /* \"#utility.yul\":7675:7738   */\n      swap3\n      pop\n        /* \"#utility.yul\":7630:7748   */\n      pop\n        /* \"#utility.yul\":7787:7789   */\n      0x40\n        /* \"#utility.yul\":7813:7866   */\n      tag_471\n        /* \"#utility.yul\":7858:7865   */\n      dup7\n        /* \"#utility.yul\":7849:7855   */\n      dup3\n        /* \"#utility.yul\":7838:7847   */\n      dup8\n        /* \"#utility.yul\":7834:7856   */\n      add\n        /* \"#utility.yul\":7813:7866   */\n      tag_374\n      jump\t// in\n    tag_471:\n        /* \"#utility.yul\":7803:7866   */\n      swap2\n      pop\n        /* \"#utility.yul\":7758:7876   */\n      pop\n        /* \"#utility.yul\":7264:7883   */\n      swap3\n      pop\n      swap3\n      pop\n      swap3\n      jump\t// out\n        /* \"#utility.yul\":7889:7975   */\n    tag_383:\n        /* \"#utility.yul\":7924:7931   */\n      0x00\n        /* \"#utility.yul\":7964:7968   */\n      0xff\n        /* \"#utility.yul\":7957:7962   */\n      dup3\n        /* \"#utility.yul\":7953:7969   */\n      and\n        /* \"#utility.yul\":7942:7969   */\n      swap1\n      pop\n        /* \"#utility.yul\":7889:7975   */\n      swap2\n      swap1\n      pop\n      jump\t// out\n        /* \"#utility.yul\":7981:8093   */\n    tag_384:\n        /* \"#utility.yul\":8064:8086   */\n      tag_474\n        /* \"#utility.yul\":8080:8085   */\n      dup2\n        /* \"#utility.yul\":8064:8086   */\n      tag_383\n      jump\t// in\n    tag_474:\n        /* \"#utility.yul\":8059:8062   */\n      dup3\n        /* \"#utility.yul\":8052:8087   */\n      mstore\n        /* \"#utility.yul\":7981:8093   */\n      pop\n      pop\n      jump\t// out\n        /* \"#utility.yul\":8099:8313   */\n    tag_89:\n        /* \"#utility.yul\":8188:8192   */\n      0x00\n        /* \"#utility.yul\":8226:8228   */\n      0x20\n        /* \"#utility.yul\":8215:8224   */\n      dup3\n        /* \"#utility.yul\":8211:8229   */\n      add\n        /* \"#utility.yul\":8203:8229   */\n      swap1\n      pop\n        /* \"#utility.yul\":8239:8306   */\n      tag_476\n        /* \"#utility.yul\":8303:8304   */\n      0x00\n        /* \"#utility.yul\":8292:8301   */\n      dup4\n        /* \"#utility.yul\":8288:8305   */\n      add\n        /* \"#utility.yul\":8279:8285   */\n      dup5\n        /* \"#utility.yul\":8239:8306   */\n      tag_384\n      jump\t// in\n    tag_476:\n        /* \"#utility.yul\":8099:8313   */\n      swap3\n      swap2\n      pop\n      pop\n      jump\t// out\n        /* \"#utility.yul\":8319:8648   */\n    tag_98:\n        /* \"#utility.yul\":8378:8384   */\n      0x00\n        /* \"#utility.yul\":8427:8429   */\n      0x20\n        /* \"#utility.yul\":8415:8424   */\n      dup3\n        /* \"#utility.yul\":8406:8413   */\n      dup5\n        /* \"#utility.yul\":8402:8425   */\n      sub\n        /* \"#utility.yul\":8398:8430   */\n      slt\n        /* \"#utility.yul\":8395:8514   */\n      iszero\n      tag_478\n      jumpi\n        /* \"#utility.yul\":8433:8512   */\n      tag_479\n      tag_360\n      jump\t// in\n    tag_479:\n        /* \"#utility.yul\":8395:8514   */\n    tag_478:\n        /* \"#utility.yul\":8553:8554   */\n      0x00\n        /* \"#utility.yul\":8578:8631   */\n      tag_480\n        /* \"#utility.yul\":8623:8630   */\n      dup5\n        /* \"#utility.yul\":8614:8620   */\n      dup3\n        /* \"#utility.yul\":8603:8612   */\n      dup6\n        /* \"#utility.yul\":8599:8621   */\n      add\n        /* \"#utility.yul\":8578:8631   */\n      tag_374\n      jump\t// in\n    tag_480:\n        /* \"#utility.yul\":8568:8631   */\n      swap2\n      pop\n        /* \"#utility.yul\":8524:8641   */\n      pop\n        /* \"#utility.yul\":8319:8648   */\n      swap3\n      swap2\n      pop\n      pop\n      jump\t// out\n        /* \"#utility.yul\":8654:8986   */\n    tag_104:\n        /* \"#utility.yul\":8775:8779   */\n      0x00\n        /* \"#utility.yul\":8813:8815   */\n      0x40\n        /* \"#utility.yul\":8802:8811   */\n      dup3\n        /* \"#utility.yul\":8798:8816   */\n      add\n        /* \"#utility.yul\":8790:8816   */\n      swap1\n      pop\n        /* \"#utility.yul\":8826:8897   */\n      tag_482\n        /* \"#utility.yul\":8894:8895   */\n      0x00\n        /* \"#utility.yul\":8883:8892   */\n      dup4\n        /* \"#utility.yul\":8879:8896   */\n      add\n        /* \"#utility.yul\":8870:8876   */\n      dup6\n        /* \"#utility.yul\":8826:8897   */\n      tag_358\n      jump\t// in\n    tag_482:\n        /* \"#utility.yul\":8907:8979   */\n      tag_483\n        /* \"#utility.yul\":8975:8977   */\n      0x20\n        /* \"#utility.yul\":8964:8973   */\n      dup4\n        /* \"#utility.yul\":8960:8978   */\n      add\n        /* \"#utility.yul\":8951:8957   */\n      dup5\n        /* \"#utility.yul\":8907:8979   */\n      tag_358\n      jump\t// in\n    tag_483:\n        /* \"#utility.yul\":8654:8986   */\n      swap4\n      swap3\n      pop\n      pop\n      pop\n      jump\t// out\n        /* \"#utility.yul\":8992:9110   */\n    tag_385:\n        /* \"#utility.yul\":9079:9103   */\n      tag_485\n        /* \"#utility.yul\":9097:9102   */\n      dup2\n        /* \"#utility.yul\":9079:9103   */\n      tag_363\n      jump\t// in\n    tag_485:\n        /* \"#utility.yul\":9074:9077   */\n      dup3\n        /* \"#utility.yul\":9067:9104   */\n      mstore\n        /* \"#utility.yul\":8992:9110   */\n      pop\n      pop\n      jump\t// out\n        /* \"#utility.yul\":9116:9338   */\n    tag_115:\n        /* \"#utility.yul\":9209:9213   */\n      0x00\n        /* \"#utility.yul\":9247:9249   */\n      0x20\n        /* \"#utility.yul\":9236:9245   */\n      dup3\n        /* \"#utility.yul\":9232:9250   */\n      add\n        /* \"#utility.yul\":9224:9250   */\n      swap1\n      pop\n        /* \"#utility.yul\":9260:9331   */\n      tag_487\n        /* \"#utility.yul\":9328:9329   */\n      0x00\n        /* \"#utility.yul\":9317:9326   */\n      dup4\n        /* \"#utility.yul\":9313:9330   */\n      add\n        /* \"#utility.yul\":9304:9310   */\n      dup5\n        /* \"#utility.yul\":9260:9331   */\n      tag_385\n      jump\t// in\n    tag_487:\n        /* \"#utility.yul\":9116:9338   */\n      swap3\n      swap2\n      pop\n      pop\n      jump\t// out\n        /* \"#utility.yul\":9344:9963   */\n    tag_127:\n        /* \"#utility.yul\":9421:9427   */\n      0x00\n        /* \"#utility.yul\":9429:9435   */\n      0x00\n        /* \"#utility.yul\":9437:9443   */\n      0x00\n        /* \"#utility.yul\":9486:9488   */\n      0x60\n        /* \"#utility.yul\":9474:9483   */\n      dup5\n        /* \"#utility.yul\":9465:9472   */\n      dup7\n        /* \"#utility.yul\":9461:9484   */\n      sub\n        /* \"#utility.yul\":9457:9489   */\n      slt\n        /* \"#utility.yul\":9454:9573   */\n      iszero\n      tag_489\n      jumpi\n        /* \"#utility.yul\":9492:9571   */\n      tag_490\n      tag_360\n      jump\t// in\n    tag_490:\n        /* \"#utility.yul\":9454:9573   */\n    tag_489:\n        /* \"#utility.yul\":9612:9613   */\n      0x00\n        /* \"#utility.yul\":9637:9690   */\n      tag_491\n        /* \"#utility.yul\":9682:9689   */\n      dup7\n        /* \"#utility.yul\":9673:9679   */\n      dup3\n        /* \"#utility.yul\":9662:9671   */\n      dup8\n        /* \"#utility.yul\":9658:9680   */\n      add\n        /* \"#utility.yul\":9637:9690   */\n      tag_365\n      jump\t// in\n    tag_491:\n        /* \"#utility.yul\":9627:9690   */\n      swap4\n      pop\n        /* \"#utility.yul\":9583:9700   */\n      pop\n        /* \"#utility.yul\":9739:9741   */\n      0x20\n        /* \"#utility.yul\":9765:9818   */\n      tag_492\n        /* \"#utility.yul\":9810:9817   */\n      dup7\n        /* \"#utility.yul\":9801:9807   */\n      dup3\n        /* \"#utility.yul\":9790:9799   */\n      dup8\n        /* \"#utility.yul\":9786:9808   */\n      add\n        /* \"#utility.yul\":9765:9818   */\n      tag_374\n      jump\t// in\n    tag_492:\n        /* \"#utility.yul\":9755:9818   */\n      swap3\n      pop\n        /* \"#utility.yul\":9710:9828   */\n      pop\n        /* \"#utility.yul\":9867:9869   */\n      0x40\n        /* \"#utility.yul\":9893:9946   */\n      tag_493\n        /* \"#utility.yul\":9938:9945   */\n      dup7\n        /* \"#utility.yul\":9929:9935   */\n      dup3\n        /* \"#utility.yul\":9918:9927   */\n      dup8\n        /* \"#utility.yul\":9914:9936   */\n      add\n        /* \"#utility.yul\":9893:9946   */\n      tag_374\n      jump\t// in\n    tag_493:\n        /* \"#utility.yul\":9883:9946   */\n      swap2\n      pop\n        /* \"#utility.yul\":9838:9956   */\n      pop\n        /* \"#utility.yul\":9344:9963   */\n      swap3\n      pop\n      swap3\n      pop\n      swap3\n      jump\t// out\n        /* \"#utility.yul\":9969:10443   */\n    tag_158:\n        /* \"#utility.yul\":10037:10043   */\n      0x00\n        /* \"#utility.yul\":10045:10051   */\n      0x00\n        /* \"#utility.yul\":10094:10096   */\n      0x40\n        /* \"#utility.yul\":10082:10091   */\n      dup4\n        /* \"#utility.yul\":10073:10080   */\n      dup6\n        /* \"#utility.yul\":10069:10092   */\n      sub\n        /* \"#utility.yul\":10065:10097   */\n      slt\n        /* \"#utility.yul\":10062:10181   */\n      iszero\n      tag_495\n      jumpi\n        /* \"#utility.yul\":10100:10179   */\n      tag_496\n      tag_360\n      jump\t// in\n    tag_496:\n        /* \"#utility.yul\":10062:10181   */\n    tag_495:\n        /* \"#utility.yul\":10220:10221   */\n      0x00\n        /* \"#utility.yul\":10245:10298   */\n      tag_497\n        /* \"#utility.yul\":10290:10297   */\n      dup6\n        /* \"#utility.yul\":10281:10287   */\n      dup3\n        /* \"#utility.yul\":10270:10279   */\n      dup7\n        /* \"#utility.yul\":10266:10288   */\n      add\n        /* \"#utility.yul\":10245:10298   */\n      tag_365\n      jump\t// in\n    tag_497:\n        /* \"#utility.yul\":10235:10298   */\n      swap3\n      pop\n        /* \"#utility.yul\":10191:10308   */\n      pop\n        /* \"#utility.yul\":10347:10349   */\n      0x20\n        /* \"#utility.yul\":10373:10426   */\n      tag_498\n        /* \"#utility.yul\":10418:10425   */\n      dup6\n        /* \"#utility.yul\":10409:10415   */\n      dup3\n        /* \"#utility.yul\":10398:10407   */\n      dup7\n        /* \"#utility.yul\":10394:10416   */\n      add\n        /* \"#utility.yul\":10373:10426   */\n      tag_365\n      jump\t// in\n    tag_498:\n        /* \"#utility.yul\":10363:10426   */\n      swap2\n      pop\n        /* \"#utility.yul\":10318:10436   */\n      pop\n        /* \"#utility.yul\":9969:10443   */\n      swap3\n      pop\n      swap3\n      swap1\n      pop\n      jump\t// out\n        /* \"#utility.yul\":10449:10629   */\n    tag_386:\n        /* \"#utility.yul\":10497:10574   */\n      0x4e487b7100000000000000000000000000000000000000000000000000000000\n        /* \"#utility.yul\":10494:10495   */\n      0x00\n        /* \"#utility.yul\":10487:10575   */\n      mstore\n        /* \"#utility.yul\":10594:10598   */\n      0x22\n        /* \"#utility.yul\":10591:10592   */\n      0x04\n        /* \"#utility.yul\":10584:10599   */\n      mstore\n        /* \"#utility.yul\":10618:10622   */\n      0x24\n        /* \"#utility.yul\":10615:10616   */\n      0x00\n        /* \"#utility.yul\":10608:10623   */\n      revert\n        /* \"#utility.yul\":10635:10955   */\n    tag_177:\n        /* \"#utility.yul\":10679:10685   */\n      0x00\n        /* \"#utility.yul\":10716:10717   */\n      0x02\n        /* \"#utility.yul\":10710:10714   */\n      dup3\n        /* \"#utility.yul\":10706:10718   */\n      div\n        /* \"#utility.yul\":10696:10718   */\n      swap1\n      pop\n        /* \"#utility.yul\":10763:10764   */\n      0x01\n        /* \"#utility.yul\":10757:10761   */\n      dup3\n        /* \"#utility.yul\":10753:10765   */\n      and\n        /* \"#utility.yul\":10784:10802   */\n      dup1\n        /* \"#utility.yul\":10774:10855   */\n      tag_501\n      jumpi\n        /* \"#utility.yul\":10840:10844   */\n      0x7f\n        /* \"#utility.yul\":10832:10838   */\n      dup3\n        /* \"#utility.yul\":10828:10845   */\n      and\n        /* \"#utility.yul\":10818:10845   */\n      swap2\n      pop\n        /* \"#utility.yul\":10774:10855   */\n    tag_501:\n        /* \"#utility.yul\":10902:10904   */\n      0x20\n        /* \"#utility.yul\":10894:10900   */\n      dup3\n        /* \"#utility.yul\":10891:10905   */\n      lt\n        /* \"#utility.yul\":10871:10889   */\n      dup2\n        /* \"#utility.yul\":10868:10906   */\n      sub\n        /* \"#utility.yul\":10865:10949   */\n      tag_502\n      jumpi\n        /* \"#utility.yul\":10921:10939   */\n      tag_503\n      tag_386\n      jump\t// in\n    tag_503:\n        /* \"#utility.yul\":10865:10949   */\n    tag_502:\n        /* \"#utility.yul\":10686:10955   */\n      pop\n        /* \"#utility.yul\":10635:10955   */\n      swap2\n      swap1\n      pop\n      jump\t// out\n        /* \"#utility.yul\":10961:11141   */\n    tag_387:\n        /* \"#utility.yul\":11009:11086   */\n      0x4e487b7100000000000000000000000000000000000000000000000000000000\n        /* \"#utility.yul\":11006:11007   */\n      0x00\n        /* \"#utility.yul\":10999:11087   */\n      mstore\n        /* \"#utility.yul\":11106:11110   */\n      0x11\n        /* \"#utility.yul\":11103:11104   */\n      0x04\n        /* \"#utility.yul\":11096:11111   */\n      mstore\n        /* \"#utility.yul\":11130:11134   */\n      0x24\n        /* \"#utility.yul\":11127:11128   */\n      0x00\n        /* \"#utility.yul\":11120:11135   */\n      revert\n        /* \"#utility.yul\":11147:11341   */\n    tag_191:\n        /* \"#utility.yul\":11187:11191   */\n      0x00\n        /* \"#utility.yul\":11207:11227   */\n      tag_506\n        /* \"#utility.yul\":11225:11226   */\n      dup3\n        /* \"#utility.yul\":11207:11227   */\n      tag_357\n      jump\t// in\n    tag_506:\n        /* \"#utility.yul\":11202:11227   */\n      swap2\n      pop\n        /* \"#utility.yul\":11241:11261   */\n      tag_507\n        /* \"#utility.yul\":11259:11260   */\n      dup4\n        /* \"#utility.yul\":11241:11261   */\n      tag_357\n      jump\t// in\n    tag_507:\n        /* \"#utility.yul\":11236:11261   */\n      swap3\n      pop\n        /* \"#utility.yul\":11285:11286   */\n      dup3\n        /* \"#utility.yul\":11282:11283   */\n      dup3\n        /* \"#utility.yul\":11278:11287   */\n      sub\n        /* \"#utility.yul\":11270:11287   */\n      swap1\n      pop\n        /* \"#utility.yul\":11309:11310   */\n      dup2\n        /* \"#utility.yul\":11303:11307   */\n      dup2\n        /* \"#utility.yul\":11300:11311   */\n      gt\n        /* \"#utility.yul\":11297:11334   */\n      iszero\n      tag_508\n      jumpi\n        /* \"#utility.yul\":11314:11332   */\n      tag_509\n      tag_387\n      jump\t// in\n    tag_509:\n        /* \"#utility.yul\":11297:11334   */\n    tag_508:\n        /* \"#utility.yul\":11147:11341   */\n      swap3\n      swap2\n      pop\n      pop\n      jump\t// out\n        /* \"#utility.yul\":11347:11526   */\n    tag_388:\n        /* \"#utility.yul\":11487:11518   */\n      0x496e73756666696369656e7420756e6c6f636b65642062616c616e6365000000\n        /* \"#utility.yul\":11483:11484   */\n      0x00\n        /* \"#utility.yul\":11475:11481   */\n      dup3\n        /* \"#utility.yul\":11471:11485   */\n      add\n        /* \"#utility.yul\":11464:11519   */\n      mstore\n        /* \"#utility.yul\":11347:11526   */\n      pop\n      jump\t// out\n        /* \"#utility.yul\":11532:11898   */\n    tag_389:\n        /* \"#utility.yul\":11674:11677   */\n      0x00\n        /* \"#utility.yul\":11695:11762   */\n      tag_512\n        /* \"#utility.yul\":11759:11761   */\n      0x1d\n        /* \"#utility.yul\":11754:11757   */\n      dup4\n        /* \"#utility.yul\":11695:11762   */\n      tag_369\n      jump\t// in\n    tag_512:\n        /* \"#utility.yul\":11688:11762   */\n      swap2\n      pop\n        /* \"#utility.yul\":11771:11864   */\n      tag_513\n        /* \"#utility.yul\":11860:11863   */\n      dup3\n        /* \"#utility.yul\":11771:11864   */\n      tag_388\n      jump\t// in\n    tag_513:\n        /* \"#utility.yul\":11889:11891   */\n      0x20\n        /* \"#utility.yul\":11884:11887   */\n      dup3\n        /* \"#utility.yul\":11880:11892   */\n      add\n        /* \"#utility.yul\":11873:11892   */\n      swap1\n      pop\n        /* \"#utility.yul\":11532:11898   */\n      swap2\n      swap1\n      pop\n      jump\t// out\n        /* \"#utility.yul\":11904:12323   */\n    tag_206:\n        /* \"#utility.yul\":12070:12074   */\n      0x00\n        /* \"#utility.yul\":12108:12110   */\n      0x20\n        /* \"#utility.yul\":12097:12106   */\n      dup3\n        /* \"#utility.yul\":12093:12111   */\n      add\n        /* \"#utility.yul\":12085:12111   */\n      swap1\n      pop\n        /* \"#utility.yul\":12157:12166   */\n      dup2\n        /* \"#utility.yul\":12151:12155   */\n      dup2\n        /* \"#utility.yul\":12147:12167   */\n      sub\n        /* \"#utility.yul\":12143:12144   */\n      0x00\n        /* \"#utility.yul\":12132:12141   */\n      dup4\n        /* \"#utility.yul\":12128:12145   */\n      add\n        /* \"#utility.yul\":12121:12168   */\n      mstore\n        /* \"#utility.yul\":12185:12316   */\n      tag_515\n        /* \"#utility.yul\":12311:12315   */\n      dup2\n        /* \"#utility.yul\":12185:12316   */\n      tag_389\n      jump\t// in\n    tag_515:\n        /* \"#utility.yul\":12177:12316   */\n      swap1\n      pop\n        /* \"#utility.yul\":11904:12323   */\n      swap2\n      swap1\n      pop\n      jump\t// out\n        /* \"#utility.yul\":12329:12502   */\n    tag_390:\n        /* \"#utility.yul\":12469:12494   */\n      0x416d6f756e74206d75737420626520706f736974697665000000000000000000\n        /* \"#utility.yul\":12465:12466   */\n      0x00\n        /* \"#utility.yul\":12457:12463   */\n      dup3\n        /* \"#utility.yul\":12453:12467   */\n      add\n        /* \"#utility.yul\":12446:12495   */\n      mstore\n        /* \"#utility.yul\":12329:12502   */\n      pop\n      jump\t// out\n        /* \"#utility.yul\":12508:12874   */\n    tag_391:\n        /* \"#utility.yul\":12650:12653   */\n      0x00\n        /* \"#utility.yul\":12671:12738   */\n      tag_518\n        /* \"#utility.yul\":12735:12737   */\n      0x17\n        /* \"#utility.yul\":12730:12733   */\n      dup4\n        /* \"#utility.yul\":12671:12738   */\n      tag_369\n      jump\t// in\n    tag_518:\n        /* \"#utility.yul\":12664:12738   */\n      swap2\n      pop\n        /* \"#utility.yul\":12747:12840   */\n      tag_519\n        /* \"#utility.yul\":12836:12839   */\n      dup3\n        /* \"#utility.yul\":12747:12840   */\n      tag_390\n      jump\t// in\n    tag_519:\n        /* \"#utility.yul\":12865:12867   */\n      0x20\n        /* \"#utility.yul\":12860:12863   */\n      dup3\n        /* \"#utility.yul\":12856:12868   */\n      add\n        /* \"#utility.yul\":12849:12868   */\n      swap1\n      pop\n        /* \"#utility.yul\":12508:12874   */\n      swap2\n      swap1\n      pop\n      jump\t// out\n        /* \"#utility.yul\":12880:13299   */\n    tag_261:\n        /* \"#utility.yul\":13046:13050   */\n      0x00\n        /* \"#utility.yul\":13084:13086   */\n      0x20\n        /* \"#utility.yul\":13073:13082   */\n      dup3\n        /* \"#utility.yul\":13069:13087   */\n      add\n        /* \"#utility.yul\":13061:13087   */\n      swap1\n      pop\n        /* \"#utility.yul\":13133:13142   */\n      dup2\n        /* \"#utility.yul\":13127:13131   */\n      dup2\n        /* \"#utility.yul\":13123:13143   */\n      sub\n        /* \"#utility.yul\":13119:13120   */\n      0x00\n        /* \"#utility.yul\":13108:13117   */\n      dup4\n        /* \"#utility.yul\":13104:13121   */\n      add\n        /* \"#utility.yul\":13097:13144   */\n      mstore\n        /* \"#utility.yul\":13161:13292   */\n      tag_521\n        /* \"#utility.yul\":13287:13291   */\n      dup2\n        /* \"#utility.yul\":13161:13292   */\n      tag_391\n      jump\t// in\n    tag_521:\n        /* \"#utility.yul\":13153:13292   */\n      swap1\n      pop\n        /* \"#utility.yul\":12880:13299   */\n      swap2\n      swap1\n      pop\n      jump\t// out\n        /* \"#utility.yul\":13305:13484   */\n    tag_392:\n        /* \"#utility.yul\":13445:13476   */\n      0x556e6c6f636b2074696d65206d75737420626520696e20667574757265000000\n        /* \"#utility.yul\":13441:13442   */\n      0x00\n        /* \"#utility.yul\":13433:13439   */\n      dup3\n        /* \"#utility.yul\":13429:13443   */\n      add\n        /* \"#utility.yul\":13422:13477   */\n      mstore\n        /* \"#utility.yul\":13305:13484   */\n      pop\n      jump\t// out\n        /* \"#utility.yul\":13490:13856   */\n    tag_393:\n        /* \"#utility.yul\":13632:13635   */\n      0x00\n        /* \"#utility.yul\":13653:13720   */\n      tag_524\n        /* \"#utility.yul\":13717:13719   */\n      0x1d\n        /* \"#utility.yul\":13712:13715   */\n      dup4\n        /* \"#utility.yul\":13653:13720   */\n      tag_369\n      jump\t// in\n    tag_524:\n        /* \"#utility.yul\":13646:13720   */\n      swap2\n      pop\n        /* \"#utility.yul\":13729:13822   */\n      tag_525\n        /* \"#utility.yul\":13818:13821   */\n      dup3\n        /* \"#utility.yul\":13729:13822   */\n      tag_392\n      jump\t// in\n    tag_525:\n        /* \"#utility.yul\":13847:13849   */\n      0x20\n        /* \"#utility.yul\":13842:13845   */\n      dup3\n        /* \"#utility.yul\":13838:13850   */\n      add\n        /* \"#utility.yul\":13831:13850   */\n      swap1\n      pop\n        /* \"#utility.yul\":13490:13856   */\n      swap2\n      swap1\n      pop\n      jump\t// out\n        /* \"#utility.yul\":13862:14281   */\n    tag_264:\n        /* \"#utility.yul\":14028:14032   */\n      0x00\n        /* \"#utility.yul\":14066:14068   */\n      0x20\n        /* \"#utility.yul\":14055:14064   */\n      dup3\n        /* \"#utility.yul\":14051:14069   */\n      add\n        /* \"#utility.yul\":14043:14069   */\n      swap1\n      pop\n        /* \"#utility.yul\":14115:14124   */\n      dup2\n        /* \"#utility.yul\":14109:14113   */\n      dup2\n        /* \"#utility.yul\":14105:14125   */\n      sub\n        /* \"#utility.yul\":14101:14102   */\n      0x00\n        /* \"#utility.yul\":14090:14099   */\n      dup4\n        /* \"#utility.yul\":14086:14103   */\n      add\n        /* \"#utility.yul\":14079:14126   */\n      mstore\n        /* \"#utility.yul\":14143:14274   */\n      tag_527\n        /* \"#utility.yul\":14269:14273   */\n      dup2\n        /* \"#utility.yul\":14143:14274   */\n      tag_393\n      jump\t// in\n    tag_527:\n        /* \"#utility.yul\":14135:14274   */\n      swap1\n      pop\n        /* \"#utility.yul\":13862:14281   */\n      swap2\n      swap1\n      pop\n      jump\t// out\n        /* \"#utility.yul\":14287:14457   */\n    tag_394:\n        /* \"#utility.yul\":14427:14449   */\n      0x496e73756666696369656e742062616c616e6365000000000000000000000000\n        /* \"#utility.yul\":14423:14424   */\n      0x00\n        /* \"#utility.yul\":14415:14421   */\n      dup3\n        /* \"#utility.yul\":14411:14425   */\n      add\n        /* \"#utility.yul\":14404:14450   */\n      mstore\n        /* \"#utility.yul\":14287:14457   */\n      pop\n      jump\t// out\n        /* \"#utility.yul\":14463:14829   */\n    tag_395:\n        /* \"#utility.yul\":14605:14608   */\n      0x00\n        /* \"#utility.yul\":14626:14693   */\n      tag_530\n        /* \"#utility.yul\":14690:14692   */\n      0x14\n        /* \"#utility.yul\":14685:14688   */\n      dup4\n        /* \"#utility.yul\":14626:14693   */\n      tag_369\n      jump\t// in\n    tag_530:\n        /* \"#utility.yul\":14619:14693   */\n      swap2\n      pop\n        /* \"#utility.yul\":14702:14795   */\n      tag_531\n        /* \"#utility.yul\":14791:14794   */\n      dup3\n        /* \"#utility.yul\":14702:14795   */\n      tag_394\n      jump\t// in\n    tag_531:\n        /* \"#utility.yul\":14820:14822   */\n      0x20\n        /* \"#utility.yul\":14815:14818   */\n      dup3\n        /* \"#utility.yul\":14811:14823   */\n      add\n        /* \"#utility.yul\":14804:14823   */\n      swap1\n      pop\n        /* \"#utility.yul\":14463:14829   */\n      swap2\n      swap1\n      pop\n      jump\t// out\n        /* \"#utility.yul\":14835:15254   */\n    tag_267:\n        /* \"#utility.yul\":15001:15005   */\n      0x00\n        /* \"#utility.yul\":15039:15041   */\n      0x20\n        /* \"#utility.yul\":15028:15037   */\n      dup3\n        /* \"#utility.yul\":15024:15042   */\n      add\n        /* \"#utility.yul\":15016:15042   */\n      swap1\n      pop\n        /* \"#utility.yul\":15088:15097   */\n      dup2\n        /* \"#utility.yul\":15082:15086   */\n      dup2\n        /* \"#utility.yul\":15078:15098   */\n      sub\n        /* \"#utility.yul\":15074:15075   */\n      0x00\n        /* \"#utility.yul\":15063:15072   */\n      dup4\n        /* \"#utility.yul\":15059:15076   */\n      add\n        /* \"#utility.yul\":15052:15099   */\n      mstore\n        /* \"#utility.yul\":15116:15247   */\n      tag_533\n        /* \"#utility.yul\":15242:15246   */\n      dup2\n        /* \"#utility.yul\":15116:15247   */\n      tag_395\n      jump\t// in\n    tag_533:\n        /* \"#utility.yul\":15108:15247   */\n      swap1\n      pop\n        /* \"#utility.yul\":14835:15254   */\n      swap2\n      swap1\n      pop\n      jump\t// out\n        /* \"#utility.yul\":15260:15451   */\n    tag_270:\n        /* \"#utility.yul\":15300:15303   */\n      0x00\n        /* \"#utility.yul\":15319:15339   */\n      tag_535\n        /* \"#utility.yul\":15337:15338   */\n      dup3\n        /* \"#utility.yul\":15319:15339   */\n      tag_357\n      jump\t// in\n    tag_535:\n        /* \"#utility.yul\":15314:15339   */\n      swap2\n      pop\n        /* \"#utility.yul\":15353:15373   */\n      tag_536\n        /* \"#utility.yul\":15371:15372   */\n      dup4\n        /* \"#utility.yul\":15353:15373   */\n      tag_357\n      jump\t// in\n    tag_536:\n        /* \"#utility.yul\":15348:15373   */\n      swap3\n      pop\n        /* \"#utility.yul\":15396:15397   */\n      dup3\n        /* \"#utility.yul\":15393:15394   */\n      dup3\n        /* \"#utility.yul\":15389:15398   */\n      add\n        /* \"#utility.yul\":15382:15398   */\n      swap1\n      pop\n        /* \"#utility.yul\":15417:15420   */\n      dup1\n        /* \"#utility.yul\":15414:15415   */\n      dup3\n        /* \"#utility.yul\":15411:15421   */\n      gt\n        /* \"#utility.yul\":15408:15444   */\n      iszero\n      tag_537\n      jumpi\n        /* \"#utility.yul\":15424:15442   */\n      tag_538\n      tag_387\n      jump\t// in\n    tag_538:\n        /* \"#utility.yul\":15408:15444   */\n    tag_537:\n        /* \"#utility.yul\":15260:15451   */\n      swap3\n      swap2\n      pop\n      pop\n      jump\t// out\n        /* \"#utility.yul\":15457:15637   */\n    tag_287:\n        /* \"#utility.yul\":15505:15582   */\n      0x4e487b7100000000000000000000000000000000000000000000000000000000\n        /* \"#utility.yul\":15502:15503   */\n      0x00\n        /* \"#utility.yul\":15495:15583   */\n      mstore\n        /* \"#utility.yul\":15602:15606   */\n      0x32\n        /* \"#utility.yul\":15599:15600   */\n      0x04\n        /* \"#utility.yul\":15592:15607   */\n      mstore\n        /* \"#utility.yul\":15626:15630   */\n      0x24\n        /* \"#utility.yul\":15623:15624   */\n      0x00\n        /* \"#utility.yul\":15616:15631   */\n      revert\n        /* \"#utility.yul\":15643:16053   */\n    tag_332:\n        /* \"#utility.yul\":15683:15690   */\n      0x00\n        /* \"#utility.yul\":15706:15726   */\n      tag_541\n        /* \"#utility.yul\":15724:15725   */\n      dup3\n        /* \"#utility.yul\":15706:15726   */\n      tag_357\n      jump\t// in\n    tag_541:\n        /* \"#utility.yul\":15701:15726   */\n      swap2\n      pop\n        /* \"#utility.yul\":15740:15760   */\n      tag_542\n        /* \"#utility.yul\":15758:15759   */\n      dup4\n        /* \"#utility.yul\":15740:15760   */\n      tag_357\n      jump\t// in\n    tag_542:\n        /* \"#utility.yul\":15735:15760   */\n      swap3\n      pop\n        /* \"#utility.yul\":15795:15796   */\n      dup3\n        /* \"#utility.yul\":15792:15793   */\n      dup3\n        /* \"#utility.yul\":15788:15797   */\n      mul\n        /* \"#utility.yul\":15817:15847   */\n      tag_543\n        /* \"#utility.yul\":15835:15846   */\n      dup2\n        /* \"#utility.yul\":15817:15847   */\n      tag_357\n      jump\t// in\n    tag_543:\n        /* \"#utility.yul\":15806:15847   */\n      swap2\n      pop\n        /* \"#utility.yul\":15996:15997   */\n      dup3\n        /* \"#utility.yul\":15987:15994   */\n      dup3\n        /* \"#utility.yul\":15983:15998   */\n      div\n        /* \"#utility.yul\":15980:15981   */\n      dup5\n        /* \"#utility.yul\":15977:15999   */\n      eq\n        /* \"#utility.yul\":15957:15958   */\n      dup4\n        /* \"#utility.yul\":15950:15959   */\n      iszero\n        /* \"#utility.yul\":15930:16013   */\n      or\n        /* \"#utility.yul\":15907:16046   */\n      tag_544\n      jumpi\n        /* \"#utility.yul\":16026:16044   */\n      tag_545\n      tag_387\n      jump\t// in\n    tag_545:\n        /* \"#utility.yul\":15907:16046   */\n    tag_544:\n        /* \"#utility.yul\":15691:16053   */\n      pop\n        /* \"#utility.yul\":15643:16053   */\n      swap3\n      swap2\n      pop\n      pop\n      jump\t// out\n        /* \"#utility.yul\":16059:16239   */\n    tag_396:\n        /* \"#utility.yul\":16107:16184   */\n      0x4e487b7100000000000000000000000000000000000000000000000000000000\n        /* \"#utility.yul\":16104:16105   */\n      0x00\n        /* \"#utility.yul\":16097:16185   */\n      mstore\n        /* \"#utility.yul\":16204:16208   */\n      0x12\n        /* \"#utility.yul\":16201:16202   */\n      0x04\n        /* \"#utility.yul\":16194:16209   */\n      mstore\n        /* \"#utility.yul\":16228:16232   */\n      0x24\n        /* \"#utility.yul\":16225:16226   */\n      0x00\n        /* \"#utility.yul\":16218:16233   */\n      revert\n        /* \"#utility.yul\":16245:16430   */\n    tag_334:\n        /* \"#utility.yul\":16285:16286   */\n      0x00\n        /* \"#utility.yul\":16302:16322   */\n      tag_548\n        /* \"#utility.yul\":16320:16321   */\n      dup3\n        /* \"#utility.yul\":16302:16322   */\n      tag_357\n      jump\t// in\n    tag_548:\n        /* \"#utility.yul\":16297:16322   */\n      swap2\n      pop\n        /* \"#utility.yul\":16336:16356   */\n      tag_549\n        /* \"#utility.yul\":16354:16355   */\n      dup4\n        /* \"#utility.yul\":16336:16356   */\n      tag_357\n      jump\t// in\n    tag_549:\n        /* \"#utility.yul\":16331:16356   */\n      swap3\n      pop\n        /* \"#utility.yul\":16375:16376   */\n      dup3\n        /* \"#utility.yul\":16365:16400   */\n      tag_550\n      jumpi\n        /* \"#utility.yul\":16380:16398   */\n      tag_551\n      tag_396\n      jump\t// in\n    tag_551:\n        /* \"#utility.yul\":16365:16400   */\n    tag_550:\n        /* \"#utility.yul\":16422:16423   */\n      dup3\n        /* \"#utility.yul\":16419:16420   */\n      dup3\n        /* \"#utility.yul\":16415:16424   */\n      div\n        /* \"#utility.yul\":16410:16424   */\n      swap1\n      pop\n        /* \"#utility.yul\":16245:16430   */\n      swap3\n      swap2\n      pop\n      pop\n      jump\t// out\n\n    auxdata: 0xa264697066735822122073a5c25e9fdc12105155989f2162c9df052c9d3cea49a209956b13e0f01b91a364736f6c634300081e0033\n}\n",
				"bytecode": {
					"linkReferences": {},
					"object": "60806040526103e8600955348015610015575f5ffd5b50604051613e11380380613e1183398181016040528101906100379190610602565b865f908161004591906108de565b50856001908161005591906108de565b508460025f6101000a81548160ff021916908360ff16021790555084600a61007d9190610b09565b836100889190610b53565b60048190555033600a5f6101000a81548173ffffffffffffffffffffffffffffffffffffffff021916908373ffffffffffffffffffffffffffffffffffffffff1602179055508160075f6101000a81548173ffffffffffffffffffffffffffffffffffffffff021916908373ffffffffffffffffffffffffffffffffffffffff1602179055506001600b5f3373ffffffffffffffffffffffffffffffffffffffff1673ffffffffffffffffffffffffffffffffffffffff1681526020019081526020015f205f6101000a81548160ff0219169083151502179055506001600c5f3373ffffffffffffffffffffffffffffffffffffffff1673ffffffffffffffffffffffffffffffffffffffff1681526020019081526020015f205f6101000a81548160ff0219169083151502179055506009548111156101f4576040517f58d620b300000000000000000000000000000000000000000000000000000000815260040160405180910390fd5b806008819055506102223386600a61020c9190610b09565b866102179190610b53565b61022e60201b60201c565b50505050505050610bef565b5f73ffffffffffffffffffffffffffffffffffffffff168273ffffffffffffffffffffffffffffffffffffffff1603610293576040517fd92e233d00000000000000000000000000000000000000000000000000000000815260040160405180910390fd5b5f816003546102a29190610b94565b90506004548111156102e0576040517fc30436e900000000000000000000000000000000000000000000000000000000815260040160405180910390fd5b806003819055508160055f8573ffffffffffffffffffffffffffffffffffffffff1673ffffffffffffffffffffffffffffffffffffffff1681526020019081526020015f205f8282546103339190610b94565b925050819055508273ffffffffffffffffffffffffffffffffffffffff167f0f6798a560793a54c3bcfe86a93cde1e73087d944c0ea20544137d4121396885836040516103809190610bd6565b60405180910390a28273ffffffffffffffffffffffffffffffffffffffff165f73ffffffffffffffffffffffffffffffffffffffff167fddf252ad1be2c89b69c2b068fc378daa952ba7f163c4a11628f55a4df523b3ef846040516103e59190610bd6565b60405180910390a3505050565b5f604051905090565b5f5ffd5b5f5ffd5b5f5ffd5b5f5ffd5b5f601f19601f8301169050919050565b7f4e487b71000000000000000000000000000000000000000000000000000000005f52604160045260245ffd5b6104518261040b565b810181811067ffffffffffffffff821117156104705761046f61041b565b5b80604052505050565b5f6104826103f2565b905061048e8282610448565b919050565b5f67ffffffffffffffff8211156104ad576104ac61041b565b5b6104b68261040b565b9050602081019050919050565b8281835e5f83830152505050565b5f6104e36104de84610493565b610479565b9050828152602081018484840111156104ff576104fe610407565b5b61050a8482856104c3565b509392505050565b5f82601f83011261052657610525610403565b5b81516105368482602086016104d1565b91505092915050565b5f60ff82169050919050565b6105548161053f565b811461055e575f5ffd5b50565b5f8151905061056f8161054b565b92915050565b5f819050919050565b61058781610575565b8114610591575f5ffd5b50565b5f815190506105a28161057e565b92915050565b5f73ffffffffffffffffffffffffffffffffffffffff82169050919050565b5f6105d1826105a8565b9050919050565b6105e1816105c7565b81146105eb575f5ffd5b50565b5f815190506105fc816105d8565b92915050565b5f5f5f5f5f5f5f60e0888a03121561061d5761061c6103fb565b5b5f88015167ffffffffffffffff81111561063a576106396103ff565b5b6106468a828b01610512565b975050602088015167ffffffffffffffff811115610667576106666103ff565b5b6106738a828b01610512565b96505060406106848a828b01610561565b95505060606106958a828b01610594565b94505060806106a68a828b01610594565b93505060a06106b78a828b016105ee565b92505060c06106c88a828b01610594565b91505092959891949750929550565b5f81519050919050565b7f4e487b71000000000000000000000000000000000000000000000000000000005f52602260045260245ffd5b5f600282049050600182168061072557607f821691505b602082108103610738576107376106e1565b5b50919050565b5f819050815f5260205f209050919050565b5f6020601f8301049050919050565b5f82821b905092915050565b5f6008830261079a7fffffffffffffffffffffffffffffffffffffffffffffffffffffffffffffffff8261075f565b6107a4868361075f565b95508019841693508086168417925050509392505050565b5f819050919050565b5f6107df6107da6107d584610575565b6107bc565b610575565b9050919050565b5f819050919050565b6107f8836107c5565b61080c610804826107e6565b84845461076b565b825550505050565b5f5f905090565b610823610814565b61082e8184846107ef565b505050565b5b81811015610851576108465f8261081b565b600181019050610834565b5050565b601f821115610896576108678161073e565b61087084610750565b8101602085101561087f578190505b61089361088b85610750565b830182610833565b50505b505050565b5f82821c905092915050565b5f6108b65f198460080261089b565b1980831691505092915050565b5f6108ce83836108a7565b9150826002028217905092915050565b6108e7826106d7565b67ffffffffffffffff811115610900576108ff61041b565b5b61090a825461070e565b610915828285610855565b5f60209050601f831160018114610946575f8415610934578287015190505b61093e85826108c3565b8655506109a5565b601f1984166109548661073e565b5f5b8281101561097b57848901518255600182019150602085019450602081019050610956565b868310156109985784890151610994601f8916826108a7565b8355505b6001600288020188555050505b505050505050565b7f4e487b71000000000000000000000000000000000000000000000000000000005f52601160045260245ffd5b5f8160011c9050919050565b5f5f8291508390505b6001851115610a2f57808604811115610a0b57610a0a6109ad565b5b6001851615610a1a5780820291505b8081029050610a28856109da565b94506109ef565b94509492505050565b5f82610a475760019050610b02565b81610a54575f9050610b02565b8160018114610a6a5760028114610a7457610aa3565b6001915050610b02565b60ff841115610a8657610a856109ad565b5b8360020a915084821115610a9d57610a9c6109ad565b5b50610b02565b5060208310610133831016604e8410600b8410161715610ad85782820a905083811115610ad357610ad26109ad565b5b610b02565b610ae584848460016109e6565b92509050818404811115610afc57610afb6109ad565b5b81810290505b9392505050565b5f610b1382610575565b9150610b1e8361053f565b9250610b4b7fffffffffffffffffffffffffffffffffffffffffffffffffffffffffffffffff8484610a38565b905092915050565b5f610b5d82610575565b9150610b6883610575565b9250828202610b7681610575565b91508282048414831517610b8d57610b8c6109ad565b5b5092915050565b5f610b9e82610575565b9150610ba983610575565b9250828201905080821115610bc157610bc06109ad565b5b92915050565b610bd081610575565b82525050565b5f602082019050610be95f830184610bc7565b92915050565b61321580610bfc5f395ff3fe608060405234801561000f575f5ffd5b5060043610610204575f3560e01c80638da5cb5b11610118578063cb67f948116100ab578063dbac26e91161007a578063dbac26e9146105fb578063dd62ed3e1461062b578063f3290d751461065b578063f44637ba14610677578063f46eccc41461069357610204565b8063cb67f94814610575578063d2c35ce814610591578063d5abeb01146105ad578063d8fb9337146105cb57610204565b8063a25983e5116100e7578063a25983e5146104ed578063a9059cbb14610509578063acb2ad6f14610539578063c415b95c1461055757610204565b80638da5cb5b146104795780639012c4a81461049757806395d89b41146104b3578063983b2d56146104d157610204565b806323b872dd1161019b578063415665851161016a57806341566585146103c457806342966c68146103e05780635d16a6f9146103fc57806370a082311461042d57806379cc67901461045d57610204565b806323b872dd1461033e5780633092afd51461036e578063313ce5671461038a57806340c10f19146103a857610204565b8063095ea7b3116101d7578063095ea7b314610290578063129de5bf146102c057806315056b54146102f057806318160ddd1461032057610204565b806301f59d1614610208578063028468581461022657806303d41e0e1461024257806306fdde0314610272575b5f5ffd5b6102106106c3565b60405161021d9190612a27565b60405180910390f35b610240600480360381019061023b9190612a9e565b6106c9565b005b61025c60048036038101906102579190612a9e565b61080d565b6040516102699190612ae3565b60405180910390f35b61027a61082a565b6040516102879190612b6c565b60405180910390f35b6102aa60048036038101906102a59190612bb6565b6108b5565b6040516102b79190612ae3565b60405180910390f35b6102da60048036038101906102d59190612a9e565b6109d1565b6040516102e79190612a27565b60405180910390f35b61030a60048036038101906103059190612a9e565b610a5f565b6040516103179190612cd8565b60405180910390f35b610328610b0b565b6040516103359190612a27565b60405180910390f35b61035860048036038101906103539190612cf8565b610b11565b6040516103659190612ae3565b60405180910390f35b61038860048036038101906103839190612a9e565b610d07565b005b610392610e4b565b60405161039f9190612d63565b60405180910390f35b6103c260048036038101906103bd9190612bb6565b610e5d565b005b6103de60048036038101906103d99190612a9e565b610f6e565b005b6103fa60048036038101906103f59190612d7c565b61108e565b005b61041660048036038101906104119190612bb6565b61109b565b604051610424929190612da7565b60405180910390f35b61044760048036038101906104429190612a9e565b6110d5565b6040516104549190612a27565b60405180910390f35b61047760048036038101906104729190612bb6565b61111b565b005b610481611237565b60405161048e9190612ddd565b60405180910390f35b6104b160048036038101906104ac9190612d7c565b61125c565b005b6104bb61135f565b6040516104c89190612b6c565b60405180910390f35b6104eb60048036038101906104e69190612a9e565b6113eb565b005b61050760048036038101906105029190612df6565b611530565b005b610523600480360381019061051e9190612bb6565b611871565b6040516105309190612ae3565b60405180910390f35b6105416119d8565b60405161054e9190612a27565b60405180910390f35b61055f6119de565b60405161056c9190612ddd565b60405180910390f35b61058f600480360381019061058a9190612a9e565b611a03565b005b6105ab60048036038101906105a69190612a9e565b611cad565b005b6105b5611e14565b6040516105c29190612a27565b60405180910390f35b6105e560048036038101906105e09190612a9e565b611e1a565b6040516105f29190612a27565b60405180910390f35b61061560048036038101906106109190612a9e565b611e2f565b6040516106229190612ae3565b60405180910390f35b61064560048036038101906106409190612e46565b611e4c565b6040516106529190612a27565b60405180910390f35b61067560048036038101906106709190612a9e565b611ece565b005b610691600480360381019061068c9190612a9e565b611fef565b005b6106ad60048036038101906106a89190612a9e565b612134565b6040516106ba9190612ae3565b60405180910390f35b60095481565b600a5f9054906101000a900473ffffffffffffffffffffffffffffffffffffffff1673ffffffffffffffffffffffffffffffffffffffff163373ffffffffffffffffffffffffffffffffffffffff161461074f576040517f30cd747100000000000000000000000000000000000000000000000000000000815260040160405180910390fd5b805f73ffffffffffffffffffffffffffffffffffffffff168173ffffffffffffffffffffffffffffffffffffffff16036107b5576040517fd92e233d00000000000000000000000000000000000000000000000000000000815260040160405180910390fd5b5f600c5f8473ffffffffffffffffffffffffffffffffffffffff1673ffffffffffffffffffffffffffffffffffffffff1681526020019081526020015f205f6101000a81548160ff0219169083151502179055505050565b600c602052805f5260405f205f915054906101000a900460ff1681565b5f805461083690612eb1565b80601f016020809104026020016040519081016040528092919081815260200182805461086290612eb1565b80156108ad5780601f10610884576101008083540402835291602001916108ad565b820191905f5260205f20905b81548152906001019060200180831161089057829003601f168201915b505050505081565b5f33600f5f8273ffffffffffffffffffffffffffffffffffffffff1673ffffffffffffffffffffffffffffffffffffffff1681526020019081526020015f205f9054906101000a900460ff1615610938576040517f6eb8b83a00000000000000000000000000000000000000000000000000000000815260040160405180910390fd5b83600f5f8273ffffffffffffffffffffffffffffffffffffffff1673ffffffffffffffffffffffffffffffffffffffff1681526020019081526020015f205f9054906101000a900460ff16156109ba576040517f6eb8b83a00000000000000000000000000000000000000000000000000000000815260040160405180910390fd5b6109c5338686612151565b60019250505092915050565b5f600e5f8373ffffffffffffffffffffffffffffffffffffffff1673ffffffffffffffffffffffffffffffffffffffff1681526020019081526020015f205460055f8473ffffffffffffffffffffffffffffffffffffffff1673ffffffffffffffffffffffffffffffffffffffff1681526020019081526020015f2054610a589190612f0e565b9050919050565b6060600d5f8373ffffffffffffffffffffffffffffffffffffffff1673ffffffffffffffffffffffffffffffffffffffff1681526020019081526020015f20805480602002602001604051908101604052809291908181526020015f905b82821015610b00578382905f5260205f2090600202016040518060400160405290815f820154815260200160018201548152505081526020019060010190610abd565b505050509050919050565b60035481565b5f83600f5f8273ffffffffffffffffffffffffffffffffffffffff1673ffffffffffffffffffffffffffffffffffffffff1681526020019081526020015f205f9054906101000a900460ff1615610b94576040517f6eb8b83a00000000000000000000000000000000000000000000000000000000815260040160405180910390fd5b83600f5f8273ffffffffffffffffffffffffffffffffffffffff1673ffffffffffffffffffffffffffffffffffffffff1681526020019081526020015f205f9054906101000a900460ff1615610c16576040517f6eb8b83a00000000000000000000000000000000000000000000000000000000815260040160405180910390fd5b33600f5f8273ffffffffffffffffffffffffffffffffffffffff1673ffffffffffffffffffffffffffffffffffffffff1681526020019081526020015f205f9054906101000a900460ff1615610c98576040517f6eb8b83a00000000000000000000000000000000000000000000000000000000815260040160405180910390fd5b84610ca2886109d1565b1015610ce3576040517f08c379a0000000000000000000000000000000000000000000000000000000008152600401610cda90612f8b565b60405180910390fd5b610cee873387612238565b610cf98787876122c3565b600193505050509392505050565b600a5f9054906101000a900473ffffffffffffffffffffffffffffffffffffffff1673ffffffffffffffffffffffffffffffffffffffff163373ffffffffffffffffffffffffffffffffffffffff1614610d8d576040517f30cd747100000000000000000000000000000000000000000000000000000000815260040160405180910390fd5b805f73ffffffffffffffffffffffffffffffffffffffff168173ffffffffffffffffffffffffffffffffffffffff1603610df3576040517fd92e233d00000000000000000000000000000000000000000000000000000000815260040160405180910390fd5b5f600b5f8473ffffffffffffffffffffffffffffffffffffffff1673ffffffffffffffffffffffffffffffffffffffff1681526020019081526020015f205f6101000a81548160ff0219169083151502179055505050565b60025f9054906101000a900460ff1681565b600b5f3373ffffffffffffffffffffffffffffffffffffffff1673ffffffffffffffffffffffffffffffffffffffff1681526020019081526020015f205f9054906101000a900460ff16610edd576040517ff8d2906c00000000000000000000000000000000000000000000000000000000815260040160405180910390fd5b81600f5f8273ffffffffffffffffffffffffffffffffffffffff1673ffffffffffffffffffffffffffffffffffffffff1681526020019081526020015f205f9054906101000a900460ff1615610f5f576040517f6eb8b83a00000000000000000000000000000000000000000000000000000000815260040160405180910390fd5b610f69838361264e565b505050565b600a5f9054906101000a900473ffffffffffffffffffffffffffffffffffffffff1673ffffffffffffffffffffffffffffffffffffffff163373ffffffffffffffffffffffffffffffffffffffff1614610ff4576040517f30cd747100000000000000000000000000000000000000000000000000000000815260040160405180910390fd5b5f600f5f8373ffffffffffffffffffffffffffffffffffffffff1673ffffffffffffffffffffffffffffffffffffffff1681526020019081526020015f205f6101000a81548160ff0219169083151502179055508073ffffffffffffffffffffffffffffffffffffffff167f4f783c179409b4127238bc9c990bc99b9a651666a0d20b51d6c42849eb88466d60405160405180910390a250565b6110983382612812565b50565b600d602052815f5260405f2081815481106110b4575f80fd5b905f5260205f2090600202015f9150915050805f0154908060010154905082565b5f60055f8373ffffffffffffffffffffffffffffffffffffffff1673ffffffffffffffffffffffffffffffffffffffff1681526020019081526020015f20549050919050565b600c5f3373ffffffffffffffffffffffffffffffffffffffff1673ffffffffffffffffffffffffffffffffffffffff1681526020019081526020015f205f9054906101000a900460ff1661119b576040517ff019b1af00000000000000000000000000000000000000000000000000000000815260040160405180910390fd5b81600f5f8273ffffffffffffffffffffffffffffffffffffffff1673ffffffffffffffffffffffffffffffffffffffff1681526020019081526020015f205f9054906101000a900460ff161561121d576040517f6eb8b83a00000000000000000000000000000000000000000000000000000000815260040160405180910390fd5b611228833384612238565b6112328383612812565b505050565b600a5f9054906101000a900473ffffffffffffffffffffffffffffffffffffffff1681565b600a5f9054906101000a900473ffffffffffffffffffffffffffffffffffffffff1673ffffffffffffffffffffffffffffffffffffffff163373ffffffffffffffffffffffffffffffffffffffff16146112e2576040517f30cd747100000000000000000000000000000000000000000000000000000000815260040160405180910390fd5b60095481111561131e576040517f58d620b300000000000000000000000000000000000000000000000000000000815260040160405180910390fd5b806008819055507f8c4d35e54a3f2ef1134138fd8ea3daee6a3c89e10d2665996babdf70261e2c76816040516113549190612a27565b60405180910390a150565b6001805461136c90612eb1565b80601f016020809104026020016040519081016040528092919081815260200182805461139890612eb1565b80156113e35780601f106113ba576101008083540402835291602001916113e3565b820191905f5260205f20905b8154815290600101906020018083116113c657829003601f168201915b505050505081565b600a5f9054906101000a900473ffffffffffffffffffffffffffffffffffffffff1673ffffffffffffffffffffffffffffffffffffffff163373ffffffffffffffffffffffffffffffffffffffff1614611471576040517f30cd747100000000000000000000000000000000000000000000000000000000815260040160405180910390fd5b805f73ffffffffffffffffffffffffffffffffffffffff168173ffffffffffffffffffffffffffffffffffffffff16036114d7576040517fd92e233d00000000000000000000000000000000000000000000000000000000815260040160405180910390fd5b6001600b5f8473ffffffffffffffffffffffffffffffffffffffff1673ffffffffffffffffffffffffffffffffffffffff1681526020019081526020015f205f6101000a81548160ff0219169083151502179055505050565b600a5f9054906101000a900473ffffffffffffffffffffffffffffffffffffffff1673ffffffffffffffffffffffffffffffffffffffff163373ffffffffffffffffffffffffffffffffffffffff16146115b6576040517f30cd747100000000000000000000000000000000000000000000000000000000815260040160405180910390fd5b82600f5f8273ffffffffffffffffffffffffffffffffffffffff1673ffffffffffffffffffffffffffffffffffffffff1681526020019081526020015f205f9054906101000a900460ff1615611638576040517f6eb8b83a00000000000000000000000000000000000000000000000000000000815260040160405180910390fd5b5f831161167a576040517f08c379a000000000000000000000000000000000000000000000000000000000815260040161167190612ff3565b60405180910390fd5b4282116116bc576040517f08c379a00000000000000000000000000000000000000000000000000000000081526004016116b39061305b565b60405180910390fd5b8260055f8673ffffffffffffffffffffffffffffffffffffffff1673ffffffffffffffffffffffffffffffffffffffff1681526020019081526020015f2054101561173c576040517f08c379a0000000000000000000000000000000000000000000000000000000008152600401611733906130c3565b60405180910390fd5b600d5f8573ffffffffffffffffffffffffffffffffffffffff1673ffffffffffffffffffffffffffffffffffffffff1681526020019081526020015f20604051806040016040528085815260200184815250908060018154018082558091505060019003905f5260205f2090600202015f909190919091505f820151815f015560208201518160010155505082600e5f8673ffffffffffffffffffffffffffffffffffffffff1673ffffffffffffffffffffffffffffffffffffffff1681526020019081526020015f205f82825461181491906130e1565b925050819055508373ffffffffffffffffffffffffffffffffffffffff167fd741e738a23fd18a03a26522320d9fc6cac1fed483e215ea9150fbc2fc43385d8484604051611863929190612da7565b60405180910390a250505050565b5f33600f5f8273ffffffffffffffffffffffffffffffffffffffff1673ffffffffffffffffffffffffffffffffffffffff1681526020019081526020015f205f9054906101000a900460ff16156118f4576040517f6eb8b83a00000000000000000000000000000000000000000000000000000000815260040160405180910390fd5b83600f5f8273ffffffffffffffffffffffffffffffffffffffff1673ffffffffffffffffffffffffffffffffffffffff1681526020019081526020015f205f9054906101000a900460ff1615611976576040517f6eb8b83a00000000000000000000000000000000000000000000000000000000815260040160405180910390fd5b83611980336109d1565b10156119c1576040517f08c379a00000000000000000000000000000000000000000000000000000000081526004016119b890612f8b565b60405180910390fd5b6119cc3386866122c3565b60019250505092915050565b60085481565b60075f9054906101000a900473ffffffffffffffffffffffffffffffffffffffff1681565b5f5f90505f5f90505b600d5f8473ffffffffffffffffffffffffffffffffffffffff1673ffffffffffffffffffffffffffffffffffffffff1681526020019081526020015f2080549050811015611bfe5742600d5f8573ffffffffffffffffffffffffffffffffffffffff1673ffffffffffffffffffffffffffffffffffffffff1681526020019081526020015f208281548110611aa457611aa3613114565b5b905f5260205f2090600202016001015411158015611b1e57505f600d5f8573ffffffffffffffffffffffffffffffffffffffff1673ffffffffffffffffffffffffffffffffffffffff1681526020019081526020015f208281548110611b0d57611b0c613114565b5b905f5260205f2090600202015f0154115b15611bf157600d5f8473ffffffffffffffffffffffffffffffffffffffff1673ffffffffffffffffffffffffffffffffffffffff1681526020019081526020015f208181548110611b7257611b71613114565b5b905f5260205f2090600202015f015482611b8c91906130e1565b91505f600d5f8573ffffffffffffffffffffffffffffffffffffffff1673ffffffffffffffffffffffffffffffffffffffff1681526020019081526020015f208281548110611bde57611bdd613114565b5b905f5260205f2090600202015f01819055505b8080600101915050611a0c565b505f811115611ca95780600e5f8473ffffffffffffffffffffffffffffffffffffffff1673ffffffffffffffffffffffffffffffffffffffff1681526020019081526020015f205f828254611c539190612f0e565b925050819055508173ffffffffffffffffffffffffffffffffffffffff167fe7b379c6c1fa169e9079c25e9143b127637eef8ec8c9d5c06ddb4ab3e119588882604051611ca09190612a27565b60405180910390a25b5050565b600a5f9054906101000a900473ffffffffffffffffffffffffffffffffffffffff1673ffffffffffffffffffffffffffffffffffffffff163373ffffffffffffffffffffffffffffffffffffffff1614611d33576040517f30cd747100000000000000000000000000000000000000000000000000000000815260040160405180910390fd5b805f73ffffffffffffffffffffffffffffffffffffffff168173ffffffffffffffffffffffffffffffffffffffff1603611d99576040517fd92e233d00000000000000000000000000000000000000000000000000000000815260040160405180910390fd5b8160075f6101000a81548173ffffffffffffffffffffffffffffffffffffffff021916908373ffffffffffffffffffffffffffffffffffffffff1602179055507fe5693914d19c789bdee50a362998c0bc8d035a835f9871da5d51152f0582c34f82604051611e089190612ddd565b60405180910390a15050565b60045481565b600e602052805f5260405f205f915090505481565b600f602052805f5260405f205f915054906101000a900460ff1681565b5f60065f8473ffffffffffffffffffffffffffffffffffffffff1673ffffffffffffffffffffffffffffffffffffffff1681526020019081526020015f205f8373ffffffffffffffffffffffffffffffffffffffff1673ffffffffffffffffffffffffffffffffffffffff1681526020019081526020015f2054905092915050565b600a5f9054906101000a900473ffffffffffffffffffffffffffffffffffffffff1673ffffffffffffffffffffffffffffffffffffffff163373ffffffffffffffffffffffffffffffffffffffff1614611f54576040517f30cd747100000000000000000000000000000000000000000000000000000000815260040160405180910390fd5b6001600f5f8373ffffffffffffffffffffffffffffffffffffffff1673ffffffffffffffffffffffffffffffffffffffff1681526020019081526020015f205f6101000a81548160ff0219169083151502179055508073ffffffffffffffffffffffffffffffffffffffff167fdaf49ab9345b6cb75bcb5a7f726bff9183c34dcf5c098c385730f9fd893765f660405160405180910390a250565b600a5f9054906101000a900473ffffffffffffffffffffffffffffffffffffffff1673ffffffffffffffffffffffffffffffffffffffff163373ffffffffffffffffffffffffffffffffffffffff1614612075576040517f30cd747100000000000000000000000000000000000000000000000000000000815260040160405180910390fd5b805f73ffffffffffffffffffffffffffffffffffffffff168173ffffffffffffffffffffffffffffffffffffffff16036120db576040517fd92e233d00000000000000000000000000000000000000000000000000000000815260040160405180910390fd5b6001600c5f8473ffffffffffffffffffffffffffffffffffffffff1673ffffffffffffffffffffffffffffffffffffffff1681526020019081526020015f205f6101000a81548160ff0219169083151502179055505050565b600b602052805f5260405f205f915054906101000a900460ff1681565b8060065f8573ffffffffffffffffffffffffffffffffffffffff1673ffffffffffffffffffffffffffffffffffffffff1681526020019081526020015f205f8473ffffffffffffffffffffffffffffffffffffffff1673ffffffffffffffffffffffffffffffffffffffff1681526020019081526020015f20819055508173ffffffffffffffffffffffffffffffffffffffff168373ffffffffffffffffffffffffffffffffffffffff167f8c5be1e5ebec7d5bd14f71427d1e84f3dd0314c0f7b2291e5b200ac8c7c3b9258360405161222b9190612a27565b60405180910390a3505050565b5f6122438484611e4c565b90507fffffffffffffffffffffffffffffffffffffffffffffffffffffffffffffffff81146122bd57818110156122a6576040517ff4d678b800000000000000000000000000000000000000000000000000000000815260040160405180910390fd5b6122bc848484846122b79190612f0e565b612151565b5b50505050565b5f73ffffffffffffffffffffffffffffffffffffffff168373ffffffffffffffffffffffffffffffffffffffff1603612328576040517fd92e233d00000000000000000000000000000000000000000000000000000000815260040160405180910390fd5b5f73ffffffffffffffffffffffffffffffffffffffff168273ffffffffffffffffffffffffffffffffffffffff160361238d576040517fd92e233d00000000000000000000000000000000000000000000000000000000815260040160405180910390fd5b5f60055f8573ffffffffffffffffffffffffffffffffffffffff1673ffffffffffffffffffffffffffffffffffffffff1681526020019081526020015f2054905081811015612408576040517ff4d678b800000000000000000000000000000000000000000000000000000000815260040160405180910390fd5b5f6127106008548461241a9190613141565b61242491906131af565b90505f81846124339190612f0e565b905083836124419190612f0e565b60055f8873ffffffffffffffffffffffffffffffffffffffff1673ffffffffffffffffffffffffffffffffffffffff1681526020019081526020015f20819055508060055f8773ffffffffffffffffffffffffffffffffffffffff1673ffffffffffffffffffffffffffffffffffffffff1681526020019081526020015f205f8282546124ce91906130e1565b925050819055505f821115612552578160055f60075f9054906101000a900473ffffffffffffffffffffffffffffffffffffffff1673ffffffffffffffffffffffffffffffffffffffff1673ffffffffffffffffffffffffffffffffffffffff1681526020019081526020015f205f82825461254a91906130e1565b925050819055505b8473ffffffffffffffffffffffffffffffffffffffff168673ffffffffffffffffffffffffffffffffffffffff167fddf252ad1be2c89b69c2b068fc378daa952ba7f163c4a11628f55a4df523b3ef836040516125af9190612a27565b60405180910390a35f8211156126465760075f9054906101000a900473ffffffffffffffffffffffffffffffffffffffff1673ffffffffffffffffffffffffffffffffffffffff168673ffffffffffffffffffffffffffffffffffffffff167fddf252ad1be2c89b69c2b068fc378daa952ba7f163c4a11628f55a4df523b3ef8460405161263d9190612a27565b60405180910390a35b505050505050565b5f73ffffffffffffffffffffffffffffffffffffffff168273ffffffffffffffffffffffffffffffffffffffff16036126b3576040517fd92e233d00000000000000000000000000000000000000000000000000000000815260040160405180910390fd5b5f816003546126c291906130e1565b9050600454811115612700576040517fc30436e900000000000000000000000000000000000000000000000000000000815260040160405180910390fd5b806003819055508160055f8573ffffffffffffffffffffffffffffffffffffffff1673ffffffffffffffffffffffffffffffffffffffff1681526020019081526020015f205f82825461275391906130e1565b925050819055508273ffffffffffffffffffffffffffffffffffffffff167f0f6798a560793a54c3bcfe86a93cde1e73087d944c0ea20544137d4121396885836040516127a09190612a27565b60405180910390a28273ffffffffffffffffffffffffffffffffffffffff165f73ffffffffffffffffffffffffffffffffffffffff167fddf252ad1be2c89b69c2b068fc378daa952ba7f163c4a11628f55a4df523b3ef846040516128059190612a27565b60405180910390a3505050565b5f73ffffffffffffffffffffffffffffffffffffffff168273ffffffffffffffffffffffffffffffffffffffff1603612877576040517fd92e233d00000000000000000000000000000000000000000000000000000000815260040160405180910390fd5b5f60055f8473ffffffffffffffffffffffffffffffffffffffff1673ffffffffffffffffffffffffffffffffffffffff1681526020019081526020015f20549050818110156128f2576040517ff4d678b800000000000000000000000000000000000000000000000000000000815260040160405180910390fd5b81816128fe9190612f0e565b60055f8573ffffffffffffffffffffffffffffffffffffffff1673ffffffffffffffffffffffffffffffffffffffff1681526020019081526020015f20819055508160035f8282546129509190612f0e565b925050819055508273ffffffffffffffffffffffffffffffffffffffff167fcc16f5dbb4873280815c1ee09dbd06736cffcc184412cf7a71a0fdb75d397ca58360405161299d9190612a27565b60405180910390a25f73ffffffffffffffffffffffffffffffffffffffff168373ffffffffffffffffffffffffffffffffffffffff167fddf252ad1be2c89b69c2b068fc378daa952ba7f163c4a11628f55a4df523b3ef84604051612a029190612a27565b60405180910390a3505050565b5f819050919050565b612a2181612a0f565b82525050565b5f602082019050612a3a5f830184612a18565b92915050565b5f5ffd5b5f73ffffffffffffffffffffffffffffffffffffffff82169050919050565b5f612a6d82612a44565b9050919050565b612a7d81612a63565b8114612a87575f5ffd5b50565b5f81359050612a9881612a74565b92915050565b5f60208284031215612ab357612ab2612a40565b5b5f612ac084828501612a8a565b91505092915050565b5f8115159050919050565b612add81612ac9565b82525050565b5f602082019050612af65f830184612ad4565b92915050565b5f81519050919050565b5f82825260208201905092915050565b8281835e5f83830152505050565b5f601f19601f8301169050919050565b5f612b3e82612afc565b612b488185612b06565b9350612b58818560208601612b16565b612b6181612b24565b840191505092915050565b5f6020820190508181035f830152612b848184612b34565b905092915050565b612b9581612a0f565b8114612b9f575f5ffd5b50565b5f81359050612bb081612b8c565b92915050565b5f5f60408385031215612bcc57612bcb612a40565b5b5f612bd985828601612a8a565b9250506020612bea85828601612ba2565b9150509250929050565b5f81519050919050565b5f82825260208201905092915050565b5f819050602082019050919050565b612c2681612a0f565b82525050565b604082015f820151612c405f850182612c1d565b506020820151612c536020850182612c1d565b50505050565b5f612c648383612c2c565b60408301905092915050565b5f602082019050919050565b5f612c8682612bf4565b612c908185612bfe565b9350612c9b83612c0e565b805f5b83811015612ccb578151612cb28882612c59565b9750612cbd83612c70565b925050600181019050612c9e565b5085935050505092915050565b5f6020820190508181035f830152612cf08184612c7c565b905092915050565b5f5f5f60608486031215612d0f57612d0e612a40565b5b5f612d1c86828701612a8a565b9350506020612d2d86828701612a8a565b9250506040612d3e86828701612ba2565b9150509250925092565b5f60ff82169050919050565b612d5d81612d48565b82525050565b5f602082019050612d765f830184612d54565b92915050565b5f60208284031215612d9157612d90612a40565b5b5f612d9e84828501612ba2565b91505092915050565b5f604082019050612dba5f830185612a18565b612dc76020830184612a18565b9392505050565b612dd781612a63565b82525050565b5f602082019050612df05f830184612dce565b92915050565b5f5f5f60608486031215612e0d57612e0c612a40565b5b5f612e1a86828701612a8a565b9350506020612e2b86828701612ba2565b9250506040612e3c86828701612ba2565b9150509250925092565b5f5f60408385031215612e5c57612e5b612a40565b5b5f612e6985828601612a8a565b9250506020612e7a85828601612a8a565b9150509250929050565b7f4e487b71000000000000000000000000000000000000000000000000000000005f52602260045260245ffd5b5f6002820490506001821680612ec857607f821691505b602082108103612edb57612eda612e84565b5b50919050565b7f4e487b71000000000000000000000000000000000000000000000000000000005f52601160045260245ffd5b5f612f1882612a0f565b9150612f2383612a0f565b9250828203905081811115612f3b57612f3a612ee1565b5b92915050565b7f496e73756666696369656e7420756e6c6f636b65642062616c616e63650000005f82015250565b5f612f75601d83612b06565b9150612f8082612f41565b602082019050919050565b5f6020820190508181035f830152612fa281612f69565b9050919050565b7f416d6f756e74206d75737420626520706f7369746976650000000000000000005f82015250565b5f612fdd601783612b06565b9150612fe882612fa9565b602082019050919050565b5f6020820190508181035f83015261300a81612fd1565b9050919050565b7f556e6c6f636b2074696d65206d75737420626520696e206675747572650000005f82015250565b5f613045601d83612b06565b915061305082613011565b602082019050919050565b5f6020820190508181035f83015261307281613039565b9050919050565b7f496e73756666696369656e742062616c616e63650000000000000000000000005f82015250565b5f6130ad601483612b06565b91506130b882613079565b602082019050919050565b5f6020820190508181035f8301526130da816130a1565b9050919050565b5f6130eb82612a0f565b91506130f683612a0f565b925082820190508082111561310e5761310d612ee1565b5b92915050565b7f4e487b71000000000000000000000000000000000000000000000000000000005f52603260045260245ffd5b5f61314b82612a0f565b915061315683612a0f565b925082820261316481612a0f565b9150828204841483151761317b5761317a612ee1565b5b5092915050565b7f4e487b71000000000000000000000000000000000000000000000000000000005f52601260045260245ffd5b5f6131b982612a0f565b91506131c483612a0f565b9250826131d4576131d3613182565b5b82820490509291505056fea264697066735822122073a5c25e9fdc12105155989f2162c9df052c9d3cea49a209956b13e0f01b91a364736f6c634300081e0033",
					"opcodes": "PUSH1 0x80 PUSH1 0x40 MSTORE PUSH2 0x3E8 PUSH1 0x9 SSTORE CALLVALUE DUP1 ISZERO PUSH2 0x15 JUMPI PUSH0 PUSH0 REVERT JUMPDEST POP PUSH1 0x40 MLOAD PUSH2 0x3E11 CODESIZE SUB DUP1 PUSH2 0x3E11 DUP4 CODECOPY DUP2 DUP2 ADD PUSH1 0x40 MSTORE DUP2 ADD SWAP1 PUSH2 0x37 SWAP2 SWAP1 PUSH2 0x602 JUMP JUMPDEST DUP7 PUSH0 SWAP1 DUP2 PUSH2 0x45 SWAP2 SWAP1 PUSH2 0x8DE JUMP JUMPDEST POP DUP6 PUSH1 0x1 SWAP1 DUP2 PUSH2 0x55 SWAP2 SWAP1 PUSH2 0x8DE JUMP JUMPDEST POP DUP5 PUSH1 0x2 PUSH0 PUSH2 0x100 EXP DUP2 SLOAD DUP2 PUSH1 0xFF MUL NOT AND SWAP1 DUP4 PUSH1 0xFF AND MUL OR SWAP1 SSTORE POP DUP5 PUSH1 0xA PUSH2 0x7D SWAP2 SWAP1 PUSH2 0xB09 JUMP JUMPDEST DUP4 PUSH2 0x88 SWAP2 SWAP1 PUSH2 0xB53 JUMP JUMPDEST PUSH1 0x4 DUP2 SWAP1 SSTORE POP CALLER PUSH1 0xA PUSH0 PUSH2 0x100 EXP DUP2 SLOAD DUP2 PUSH20 0xFFFFFFFFFFFFFFFFFFFFFFFFFFFFFFFFFFFFFFFF MUL NOT AND SWAP1 DUP4 PUSH20 0xFFFFFFFFFFFFFFFFFFFFFFFFFFFFFFFFFFFFFFFF AND MUL OR SWAP1 SSTORE POP DUP2 PUSH1 0x7 PUSH0 PUSH2 0x100 EXP DUP2 SLOAD DUP2 PUSH20 0xFFFFFFFFFFFFFFFFFFFFFFFFFFFFFFFFFFFFFFFF MUL NOT AND SWAP1 DUP4 PUSH20 0xFFFFFFFFFFFFFFFFFFFFFFFFFFFFFFFFFFFFFFFF AND MUL OR SWAP1 SSTORE POP PUSH1 0x1 PUSH1 0xB PUSH0 CALLER PUSH20 0xFFFFFFFFFFFFFFFFFFFFFFFFFFFFFFFFFFFFFFFF AND PUSH20 0xFFFFFFFFFFFFFFFFFFFFFFFFFFFFFFFFFFFFFFFF AND DUP2 MSTORE PUSH1 0x20 ADD SWAP1 DUP2 MSTORE PUSH1 0x20 ADD PUSH0 KECCAK256 PUSH0 PUSH2 0x100 EXP DUP2 SLOAD DUP2 PUSH1 0xFF MUL NOT AND SWAP1 DUP4 ISZERO ISZERO MUL OR SWAP1 SSTORE POP PUSH1 0x1 PUSH1 0xC PUSH0 CALLER PUSH20 0xFFFFFFFFFFFFFFFFFFFFFFFFFFFFFFFFFFFFFFFF AND PUSH20 0xFFFFFFFFFFFFFFFFFFFFFFFFFFFFFFFFFFFFFFFF AND DUP2 MSTORE PUSH1 0x20 ADD SWAP1 DUP2 MSTORE PUSH1 0x20 ADD PUSH0 KECCAK256 PUSH0 PUSH2 0x100 EXP DUP2 SLOAD DUP2 PUSH1 0xFF MUL NOT AND SWAP1 DUP4 ISZERO ISZERO MUL OR SWAP1 SSTORE POP PUSH1 0x9 SLOAD DUP2 GT ISZERO PUSH2 0x1F4 JUMPI PUSH1 0x40 MLOAD PUSH32 0x58D620B300000000000000000000000000000000000000000000000000000000 DUP2 MSTORE PUSH1 0x4 ADD PUSH1 0x40 MLOAD DUP1 SWAP2 SUB SWAP1 REVERT JUMPDEST DUP1 PUSH1 0x8 DUP2 SWAP1 SSTORE POP PUSH2 0x222 CALLER DUP7 PUSH1 0xA PUSH2 0x20C SWAP2 SWAP1 PUSH2 0xB09 JUMP JUMPDEST DUP7 PUSH2 0x217 SWAP2 SWAP1 PUSH2 0xB53 JUMP JUMPDEST PUSH2 0x22E PUSH1 0x20 SHL PUSH1 0x20 SHR JUMP JUMPDEST POP POP POP POP POP POP POP PUSH2 0xBEF JUMP JUMPDEST PUSH0 PUSH20 0xFFFFFFFFFFFFFFFFFFFFFFFFFFFFFFFFFFFFFFFF AND DUP3 PUSH20 0xFFFFFFFFFFFFFFFFFFFFFFFFFFFFFFFFFFFFFFFF AND SUB PUSH2 0x293 JUMPI PUSH1 0x40 MLOAD PUSH32 0xD92E233D00000000000000000000000000000000000000000000000000000000 DUP2 MSTORE PUSH1 0x4 ADD PUSH1 0x40 MLOAD DUP1 SWAP2 SUB SWAP1 REVERT JUMPDEST PUSH0 DUP2 PUSH1 0x3 SLOAD PUSH2 0x2A2 SWAP2 SWAP1 PUSH2 0xB94 JUMP JUMPDEST SWAP1 POP PUSH1 0x4 SLOAD DUP2 GT ISZERO PUSH2 0x2E0 JUMPI PUSH1 0x40 MLOAD PUSH32 0xC30436E900000000000000000000000000000000000000000000000000000000 DUP2 MSTORE PUSH1 0x4 ADD PUSH1 0x40 MLOAD DUP1 SWAP2 SUB SWAP1 REVERT JUMPDEST DUP1 PUSH1 0x3 DUP2 SWAP1 SSTORE POP DUP2 PUSH1 0x5 PUSH0 DUP6 PUSH20 0xFFFFFFFFFFFFFFFFFFFFFFFFFFFFFFFFFFFFFFFF AND PUSH20 0xFFFFFFFFFFFFFFFFFFFFFFFFFFFFFFFFFFFFFFFF AND DUP2 MSTORE PUSH1 0x20 ADD SWAP1 DUP2 MSTORE PUSH1 0x20 ADD PUSH0 KECCAK256 PUSH0 DUP3 DUP3 SLOAD PUSH2 0x333 SWAP2 SWAP1 PUSH2 0xB94 JUMP JUMPDEST SWAP3 POP POP DUP2 SWAP1 SSTORE POP DUP3 PUSH20 0xFFFFFFFFFFFFFFFFFFFFFFFFFFFFFFFFFFFFFFFF AND PUSH32 0xF6798A560793A54C3BCFE86A93CDE1E73087D944C0EA20544137D4121396885 DUP4 PUSH1 0x40 MLOAD PUSH2 0x380 SWAP2 SWAP1 PUSH2 0xBD6 JUMP JUMPDEST PUSH1 0x40 MLOAD DUP1 SWAP2 SUB SWAP1 LOG2 DUP3 PUSH20 0xFFFFFFFFFFFFFFFFFFFFFFFFFFFFFFFFFFFFFFFF AND PUSH0 PUSH20 0xFFFFFFFFFFFFFFFFFFFFFFFFFFFFFFFFFFFFFFFF AND PUSH32 0xDDF252AD1BE2C89B69C2B068FC378DAA952BA7F163C4A11628F55A4DF523B3EF DUP5 PUSH1 0x40 MLOAD PUSH2 0x3E5 SWAP2 SWAP1 PUSH2 0xBD6 JUMP JUMPDEST PUSH1 0x40 MLOAD DUP1 SWAP2 SUB SWAP1 LOG3 POP POP POP JUMP JUMPDEST PUSH0 PUSH1 0x40 MLOAD SWAP1 POP SWAP1 JUMP JUMPDEST PUSH0 PUSH0 REVERT JUMPDEST PUSH0 PUSH0 REVERT JUMPDEST PUSH0 PUSH0 REVERT JUMPDEST PUSH0 PUSH0 REVERT JUMPDEST PUSH0 PUSH1 0x1F NOT PUSH1 0x1F DUP4 ADD AND SWAP1 POP SWAP2 SWAP1 POP JUMP JUMPDEST PUSH32 0x4E487B7100000000000000000000000000000000000000000000000000000000 PUSH0 MSTORE PUSH1 0x41 PUSH1 0x4 MSTORE PUSH1 0x24 PUSH0 REVERT JUMPDEST PUSH2 0x451 DUP3 PUSH2 0x40B JUMP JUMPDEST DUP2 ADD DUP2 DUP2 LT PUSH8 0xFFFFFFFFFFFFFFFF DUP3 GT OR ISZERO PUSH2 0x470 JUMPI PUSH2 0x46F PUSH2 0x41B JUMP JUMPDEST JUMPDEST DUP1 PUSH1 0x40 MSTORE POP POP POP JUMP JUMPDEST PUSH0 PUSH2 0x482 PUSH2 0x3F2 JUMP JUMPDEST SWAP1 POP PUSH2 0x48E DUP3 DUP3 PUSH2 0x448 JUMP JUMPDEST SWAP2 SWAP1 POP JUMP JUMPDEST PUSH0 PUSH8 0xFFFFFFFFFFFFFFFF DUP3 GT ISZERO PUSH2 0x4AD JUMPI PUSH2 0x4AC PUSH2 0x41B JUMP JUMPDEST JUMPDEST PUSH2 0x4B6 DUP3 PUSH2 0x40B JUMP JUMPDEST SWAP1 POP PUSH1 0x20 DUP2 ADD SWAP1 POP SWAP2 SWAP1 POP JUMP JUMPDEST DUP3 DUP2 DUP4 MCOPY PUSH0 DUP4 DUP4 ADD MSTORE POP POP POP JUMP JUMPDEST PUSH0 PUSH2 0x4E3 PUSH2 0x4DE DUP5 PUSH2 0x493 JUMP JUMPDEST PUSH2 0x479 JUMP JUMPDEST SWAP1 POP DUP3 DUP2 MSTORE PUSH1 0x20 DUP2 ADD DUP5 DUP5 DUP5 ADD GT ISZERO PUSH2 0x4FF JUMPI PUSH2 0x4FE PUSH2 0x407 JUMP JUMPDEST JUMPDEST PUSH2 0x50A DUP5 DUP3 DUP6 PUSH2 0x4C3 JUMP JUMPDEST POP SWAP4 SWAP3 POP POP POP JUMP JUMPDEST PUSH0 DUP3 PUSH1 0x1F DUP4 ADD SLT PUSH2 0x526 JUMPI PUSH2 0x525 PUSH2 0x403 JUMP JUMPDEST JUMPDEST DUP2 MLOAD PUSH2 0x536 DUP5 DUP3 PUSH1 0x20 DUP7 ADD PUSH2 0x4D1 JUMP JUMPDEST SWAP2 POP POP SWAP3 SWAP2 POP POP JUMP JUMPDEST PUSH0 PUSH1 0xFF DUP3 AND SWAP1 POP SWAP2 SWAP1 POP JUMP JUMPDEST PUSH2 0x554 DUP2 PUSH2 0x53F JUMP JUMPDEST DUP2 EQ PUSH2 0x55E JUMPI PUSH0 PUSH0 REVERT JUMPDEST POP JUMP JUMPDEST PUSH0 DUP2 MLOAD SWAP1 POP PUSH2 0x56F DUP2 PUSH2 0x54B JUMP JUMPDEST SWAP3 SWAP2 POP POP JUMP JUMPDEST PUSH0 DUP2 SWAP1 POP SWAP2 SWAP1 POP JUMP JUMPDEST PUSH2 0x587 DUP2 PUSH2 0x575 JUMP JUMPDEST DUP2 EQ PUSH2 0x591 JUMPI PUSH0 PUSH0 REVERT JUMPDEST POP JUMP JUMPDEST PUSH0 DUP2 MLOAD SWAP1 POP PUSH2 0x5A2 DUP2 PUSH2 0x57E JUMP JUMPDEST SWAP3 SWAP2 POP POP JUMP JUMPDEST PUSH0 PUSH20 0xFFFFFFFFFFFFFFFFFFFFFFFFFFFFFFFFFFFFFFFF DUP3 AND SWAP1 POP SWAP2 SWAP1 POP JUMP JUMPDEST PUSH0 PUSH2 0x5D1 DUP3 PUSH2 0x5A8 JUMP JUMPDEST SWAP1 POP SWAP2 SWAP1 POP JUMP JUMPDEST PUSH2 0x5E1 DUP2 PUSH2 0x5C7 JUMP JUMPDEST DUP2 EQ PUSH2 0x5EB JUMPI PUSH0 PUSH0 REVERT JUMPDEST POP JUMP JUMPDEST PUSH0 DUP2 MLOAD SWAP1 POP PUSH2 0x5FC DUP2 PUSH2 0x5D8 JUMP JUMPDEST SWAP3 SWAP2 POP POP JUMP JUMPDEST PUSH0 PUSH0 PUSH0 PUSH0 PUSH0 PUSH0 PUSH0 PUSH1 0xE0 DUP9 DUP11 SUB SLT ISZERO PUSH2 0x61D JUMPI PUSH2 0x61C PUSH2 0x3FB JUMP JUMPDEST JUMPDEST PUSH0 DUP9 ADD MLOAD PUSH8 0xFFFFFFFFFFFFFFFF DUP2 GT ISZERO PUSH2 0x63A JUMPI PUSH2 0x639 PUSH2 0x3FF JUMP JUMPDEST JUMPDEST PUSH2 0x646 DUP11 DUP3 DUP12 ADD PUSH2 0x512 JUMP JUMPDEST SWAP8 POP POP PUSH1 0x20 DUP9 ADD MLOAD PUSH8 0xFFFFFFFFFFFFFFFF DUP2 GT ISZERO PUSH2 0x667 JUMPI PUSH2 0x666 PUSH2 0x3FF JUMP JUMPDEST JUMPDEST PUSH2 0x673 DUP11 DUP3 DUP12 ADD PUSH2 0x512 JUMP JUMPDEST SWAP7 POP POP PUSH1 0x40 PUSH2 0x684 DUP11 DUP3 DUP12 ADD PUSH2 0x561 JUMP JUMPDEST SWAP6 POP POP PUSH1 0x60 PUSH2 0x695 DUP11 DUP3 DUP12 ADD PUSH2 0x594 JUMP JUMPDEST SWAP5 POP POP PUSH1 0x80 PUSH2 0x6A6 DUP11 DUP3 DUP12 ADD PUSH2 0x594 JUMP JUMPDEST SWAP4 POP POP PUSH1 0xA0 PUSH2 0x6B7 DUP11 DUP3 DUP12 ADD PUSH2 0x5EE JUMP JUMPDEST SWAP3 POP POP PUSH1 0xC0 PUSH2 0x6C8 DUP11 DUP3 DUP12 ADD PUSH2 0x594 JUMP JUMPDEST SWAP2 POP POP SWAP3 SWAP6 SWAP9 SWAP2 SWAP5 SWAP8 POP SWAP3 SWAP6 POP JUMP JUMPDEST PUSH0 DUP2 MLOAD SWAP1 POP SWAP2 SWAP1 POP JUMP JUMPDEST PUSH32 0x4E487B7100000000000000000000000000000000000000000000000000000000 PUSH0 MSTORE PUSH1 0x22 PUSH1 0x4 MSTORE PUSH1 0x24 PUSH0 REVERT JUMPDEST PUSH0 PUSH1 0x2 DUP3 DIV SWAP1 POP PUSH1 0x1 DUP3 AND DUP1 PUSH2 0x725 JUMPI PUSH1 0x7F DUP3 AND SWAP2 POP JUMPDEST PUSH1 0x20 DUP3 LT DUP2 SUB PUSH2 0x738 JUMPI PUSH2 0x737 PUSH2 0x6E1 JUMP JUMPDEST JUMPDEST POP SWAP2 SWAP1 POP JUMP JUMPDEST PUSH0 DUP2 SWAP1 POP DUP2 PUSH0 MSTORE PUSH1 0x20 PUSH0 KECCAK256 SWAP1 POP SWAP2 SWAP1 POP JUMP JUMPDEST PUSH0 PUSH1 0x20 PUSH1 0x1F DUP4 ADD DIV SWAP1 POP SWAP2 SWAP1 POP JUMP JUMPDEST PUSH0 DUP3 DUP3 SHL SWAP1 POP SWAP3 SWAP2 POP POP JUMP JUMPDEST PUSH0 PUSH1 0x8 DUP4 MUL PUSH2 0x79A PUSH32 0xFFFFFFFFFFFFFFFFFFFFFFFFFFFFFFFFFFFFFFFFFFFFFFFFFFFFFFFFFFFFFFFF DUP3 PUSH2 0x75F JUMP JUMPDEST PUSH2 0x7A4 DUP7 DUP4 PUSH2 0x75F JUMP JUMPDEST SWAP6 POP DUP1 NOT DUP5 AND SWAP4 POP DUP1 DUP7 AND DUP5 OR SWAP3 POP POP POP SWAP4 SWAP3 POP POP POP JUMP JUMPDEST PUSH0 DUP2 SWAP1 POP SWAP2 SWAP1 POP JUMP JUMPDEST PUSH0 PUSH2 0x7DF PUSH2 0x7DA PUSH2 0x7D5 DUP5 PUSH2 0x575 JUMP JUMPDEST PUSH2 0x7BC JUMP JUMPDEST PUSH2 0x575 JUMP JUMPDEST SWAP1 POP SWAP2 SWAP1 POP JUMP JUMPDEST PUSH0 DUP2 SWAP1 POP SWAP2 SWAP1 POP JUMP JUMPDEST PUSH2 0x7F8 DUP4 PUSH2 0x7C5 JUMP JUMPDEST PUSH2 0x80C PUSH2 0x804 DUP3 PUSH2 0x7E6 JUMP JUMPDEST DUP5 DUP5 SLOAD PUSH2 0x76B JUMP JUMPDEST DUP3 SSTORE POP POP POP POP JUMP JUMPDEST PUSH0 PUSH0 SWAP1 POP SWAP1 JUMP JUMPDEST PUSH2 0x823 PUSH2 0x814 JUMP JUMPDEST PUSH2 0x82E DUP2 DUP5 DUP5 PUSH2 0x7EF JUMP JUMPDEST POP POP POP JUMP JUMPDEST JUMPDEST DUP2 DUP2 LT ISZERO PUSH2 0x851 JUMPI PUSH2 0x846 PUSH0 DUP3 PUSH2 0x81B JUMP JUMPDEST PUSH1 0x1 DUP2 ADD SWAP1 POP PUSH2 0x834 JUMP JUMPDEST POP POP JUMP JUMPDEST PUSH1 0x1F DUP3 GT ISZERO PUSH2 0x896 JUMPI PUSH2 0x867 DUP2 PUSH2 0x73E JUMP JUMPDEST PUSH2 0x870 DUP5 PUSH2 0x750 JUMP JUMPDEST DUP2 ADD PUSH1 0x20 DUP6 LT ISZERO PUSH2 0x87F JUMPI DUP2 SWAP1 POP JUMPDEST PUSH2 0x893 PUSH2 0x88B DUP6 PUSH2 0x750 JUMP JUMPDEST DUP4 ADD DUP3 PUSH2 0x833 JUMP JUMPDEST POP POP JUMPDEST POP POP POP JUMP JUMPDEST PUSH0 DUP3 DUP3 SHR SWAP1 POP SWAP3 SWAP2 POP POP JUMP JUMPDEST PUSH0 PUSH2 0x8B6 PUSH0 NOT DUP5 PUSH1 0x8 MUL PUSH2 0x89B JUMP JUMPDEST NOT DUP1 DUP4 AND SWAP2 POP POP SWAP3 SWAP2 POP POP JUMP JUMPDEST PUSH0 PUSH2 0x8CE DUP4 DUP4 PUSH2 0x8A7 JUMP JUMPDEST SWAP2 POP DUP3 PUSH1 0x2 MUL DUP3 OR SWAP1 POP SWAP3 SWAP2 POP POP JUMP JUMPDEST PUSH2 0x8E7 DUP3 PUSH2 0x6D7 JUMP JUMPDEST PUSH8 0xFFFFFFFFFFFFFFFF DUP2 GT ISZERO PUSH2 0x900 JUMPI PUSH2 0x8FF PUSH2 0x41B JUMP JUMPDEST JUMPDEST PUSH2 0x90A DUP3 SLOAD PUSH2 0x70E JUMP JUMPDEST PUSH2 0x915 DUP3 DUP3 DUP6 PUSH2 0x855 JUMP JUMPDEST PUSH0 PUSH1 0x20 SWAP1 POP PUSH1 0x1F DUP4 GT PUSH1 0x1 DUP2 EQ PUSH2 0x946 JUMPI PUSH0 DUP5 ISZERO PUSH2 0x934 JUMPI DUP3 DUP8 ADD MLOAD SWAP1 POP JUMPDEST PUSH2 0x93E DUP6 DUP3 PUSH2 0x8C3 JUMP JUMPDEST DUP7 SSTORE POP PUSH2 0x9A5 JUMP JUMPDEST PUSH1 0x1F NOT DUP5 AND PUSH2 0x954 DUP7 PUSH2 0x73E JUMP JUMPDEST PUSH0 JUMPDEST DUP3 DUP2 LT ISZERO PUSH2 0x97B JUMPI DUP5 DUP10 ADD MLOAD DUP3 SSTORE PUSH1 0x1 DUP3 ADD SWAP2 POP PUSH1 0x20 DUP6 ADD SWAP5 POP PUSH1 0x20 DUP2 ADD SWAP1 POP PUSH2 0x956 JUMP JUMPDEST DUP7 DUP4 LT ISZERO PUSH2 0x998 JUMPI DUP5 DUP10 ADD MLOAD PUSH2 0x994 PUSH1 0x1F DUP10 AND DUP3 PUSH2 0x8A7 JUMP JUMPDEST DUP4 SSTORE POP JUMPDEST PUSH1 0x1 PUSH1 0x2 DUP9 MUL ADD DUP9 SSTORE POP POP POP JUMPDEST POP POP POP POP POP POP JUMP JUMPDEST PUSH32 0x4E487B7100000000000000000000000000000000000000000000000000000000 PUSH0 MSTORE PUSH1 0x11 PUSH1 0x4 MSTORE PUSH1 0x24 PUSH0 REVERT JUMPDEST PUSH0 DUP2 PUSH1 0x1 SHR SWAP1 POP SWAP2 SWAP1 POP JUMP JUMPDEST PUSH0 PUSH0 DUP3 SWAP2 POP DUP4 SWAP1 POP JUMPDEST PUSH1 0x1 DUP6 GT ISZERO PUSH2 0xA2F JUMPI DUP1 DUP7 DIV DUP2 GT ISZERO PUSH2 0xA0B JUMPI PUSH2 0xA0A PUSH2 0x9AD JUMP JUMPDEST JUMPDEST PUSH1 0x1 DUP6 AND ISZERO PUSH2 0xA1A JUMPI DUP1 DUP3 MUL SWAP2 POP JUMPDEST DUP1 DUP2 MUL SWAP1 POP PUSH2 0xA28 DUP6 PUSH2 0x9DA JUMP JUMPDEST SWAP5 POP PUSH2 0x9EF JUMP JUMPDEST SWAP5 POP SWAP5 SWAP3 POP POP POP JUMP JUMPDEST PUSH0 DUP3 PUSH2 0xA47 JUMPI PUSH1 0x1 SWAP1 POP PUSH2 0xB02 JUMP JUMPDEST DUP2 PUSH2 0xA54 JUMPI PUSH0 SWAP1 POP PUSH2 0xB02 JUMP JUMPDEST DUP2 PUSH1 0x1 DUP2 EQ PUSH2 0xA6A JUMPI PUSH1 0x2 DUP2 EQ PUSH2 0xA74 JUMPI PUSH2 0xAA3 JUMP JUMPDEST PUSH1 0x1 SWAP2 POP POP PUSH2 0xB02 JUMP JUMPDEST PUSH1 0xFF DUP5 GT ISZERO PUSH2 0xA86 JUMPI PUSH2 0xA85 PUSH2 0x9AD JUMP JUMPDEST JUMPDEST DUP4 PUSH1 0x2 EXP SWAP2 POP DUP5 DUP3 GT ISZERO PUSH2 0xA9D JUMPI PUSH2 0xA9C PUSH2 0x9AD JUMP JUMPDEST JUMPDEST POP PUSH2 0xB02 JUMP JUMPDEST POP PUSH1 0x20 DUP4 LT PUSH2 0x133 DUP4 LT AND PUSH1 0x4E DUP5 LT PUSH1 0xB DUP5 LT AND OR ISZERO PUSH2 0xAD8 JUMPI DUP3 DUP3 EXP SWAP1 POP DUP4 DUP2 GT ISZERO PUSH2 0xAD3 JUMPI PUSH2 0xAD2 PUSH2 0x9AD JUMP JUMPDEST JUMPDEST PUSH2 0xB02 JUMP JUMPDEST PUSH2 0xAE5 DUP5 DUP5 DUP5 PUSH1 0x1 PUSH2 0x9E6 JUMP JUMPDEST SWAP3 POP SWAP1 POP DUP2 DUP5 DIV DUP2 GT ISZERO PUSH2 0xAFC JUMPI PUSH2 0xAFB PUSH2 0x9AD JUMP JUMPDEST JUMPDEST DUP2 DUP2 MUL SWAP1 POP JUMPDEST SWAP4 SWAP3 POP POP POP JUMP JUMPDEST PUSH0 PUSH2 0xB13 DUP3 PUSH2 0x575 JUMP JUMPDEST SWAP2 POP PUSH2 0xB1E DUP4 PUSH2 0x53F JUMP JUMPDEST SWAP3 POP PUSH2 0xB4B PUSH32 0xFFFFFFFFFFFFFFFFFFFFFFFFFFFFFFFFFFFFFFFFFFFFFFFFFFFFFFFFFFFFFFFF DUP5 DUP5 PUSH2 0xA38 JUMP JUMPDEST SWAP1 POP SWAP3 SWAP2 POP POP JUMP JUMPDEST PUSH0 PUSH2 0xB5D DUP3 PUSH2 0x575 JUMP JUMPDEST SWAP2 POP PUSH2 0xB68 DUP4 PUSH2 0x575 JUMP JUMPDEST SWAP3 POP DUP3 DUP3 MUL PUSH2 0xB76 DUP2 PUSH2 0x575 JUMP JUMPDEST SWAP2 POP DUP3 DUP3 DIV DUP5 EQ DUP4 ISZERO OR PUSH2 0xB8D JUMPI PUSH2 0xB8C PUSH2 0x9AD JUMP JUMPDEST JUMPDEST POP SWAP3 SWAP2 POP POP JUMP JUMPDEST PUSH0 PUSH2 0xB9E DUP3 PUSH2 0x575 JUMP JUMPDEST SWAP2 POP PUSH2 0xBA9 DUP4 PUSH2 0x575 JUMP JUMPDEST SWAP3 POP DUP3 DUP3 ADD SWAP1 POP DUP1 DUP3 GT ISZERO PUSH2 0xBC1 JUMPI PUSH2 0xBC0 PUSH2 0x9AD JUMP JUMPDEST JUMPDEST SWAP3 SWAP2 POP POP JUMP JUMPDEST PUSH2 0xBD0 DUP2 PUSH2 0x575 JUMP JUMPDEST DUP3 MSTORE POP POP JUMP JUMPDEST PUSH0 PUSH1 0x20 DUP3 ADD SWAP1 POP PUSH2 0xBE9 PUSH0 DUP4 ADD DUP5 PUSH2 0xBC7 JUMP JUMPDEST SWAP3 SWAP2 POP POP JUMP JUMPDEST PUSH2 0x3215 DUP1 PUSH2 0xBFC PUSH0 CODECOPY PUSH0 RETURN INVALID PUSH1 0x80 PUSH1 0x40 MSTORE CALLVALUE DUP1 ISZERO PUSH2 0xF JUMPI PUSH0 PUSH0 REVERT JUMPDEST POP PUSH1 0x4 CALLDATASIZE LT PUSH2 0x204 JUMPI PUSH0 CALLDATALOAD PUSH1 0xE0 SHR DUP1 PUSH4 0x8DA5CB5B GT PUSH2 0x118 JUMPI DUP1 PUSH4 0xCB67F948 GT PUSH2 0xAB JUMPI DUP1 PUSH4 0xDBAC26E9 GT PUSH2 0x7A JUMPI DUP1 PUSH4 0xDBAC26E9 EQ PUSH2 0x5FB JUMPI DUP1 PUSH4 0xDD62ED3E EQ PUSH2 0x62B JUMPI DUP1 PUSH4 0xF3290D75 EQ PUSH2 0x65B JUMPI DUP1 PUSH4 0xF44637BA EQ PUSH2 0x677 JUMPI DUP1 PUSH4 0xF46ECCC4 EQ PUSH2 0x693 JUMPI PUSH2 0x204 JUMP JUMPDEST DUP1 PUSH4 0xCB67F948 EQ PUSH2 0x575 JUMPI DUP1 PUSH4 0xD2C35CE8 EQ PUSH2 0x591 JUMPI DUP1 PUSH4 0xD5ABEB01 EQ PUSH2 0x5AD JUMPI DUP1 PUSH4 0xD8FB9337 EQ PUSH2 0x5CB JUMPI PUSH2 0x204 JUMP JUMPDEST DUP1 PUSH4 0xA25983E5 GT PUSH2 0xE7 JUMPI DUP1 PUSH4 0xA25983E5 EQ PUSH2 0x4ED JUMPI DUP1 PUSH4 0xA9059CBB EQ PUSH2 0x509 JUMPI DUP1 PUSH4 0xACB2AD6F EQ PUSH2 0x539 JUMPI DUP1 PUSH4 0xC415B95C EQ PUSH2 0x557 JUMPI PUSH2 0x204 JUMP JUMPDEST DUP1 PUSH4 0x8DA5CB5B EQ PUSH2 0x479 JUMPI DUP1 PUSH4 0x9012C4A8 EQ PUSH2 0x497 JUMPI DUP1 PUSH4 0x95D89B41 EQ PUSH2 0x4B3 JUMPI DUP1 PUSH4 0x983B2D56 EQ PUSH2 0x4D1 JUMPI PUSH2 0x204 JUMP JUMPDEST DUP1 PUSH4 0x23B872DD GT PUSH2 0x19B JUMPI DUP1 PUSH4 0x41566585 GT PUSH2 0x16A JUMPI DUP1 PUSH4 0x41566585 EQ PUSH2 0x3C4 JUMPI DUP1 PUSH4 0x42966C68 EQ PUSH2 0x3E0 JUMPI DUP1 PUSH4 0x5D16A6F9 EQ PUSH2 0x3FC JUMPI DUP1 PUSH4 0x70A08231 EQ PUSH2 0x42D JUMPI DUP1 PUSH4 0x79CC6790 EQ PUSH2 0x45D JUMPI PUSH2 0x204 JUMP JUMPDEST DUP1 PUSH4 0x23B872DD EQ PUSH2 0x33E JUMPI DUP1 PUSH4 0x3092AFD5 EQ PUSH2 0x36E JUMPI DUP1 PUSH4 0x313CE567 EQ PUSH2 0x38A JUMPI DUP1 PUSH4 0x40C10F19 EQ PUSH2 0x3A8 JUMPI PUSH2 0x204 JUMP JUMPDEST DUP1 PUSH4 0x95EA7B3 GT PUSH2 0x1D7 JUMPI DUP1 PUSH4 0x95EA7B3 EQ PUSH2 0x290 JUMPI DUP1 PUSH4 0x129DE5BF EQ PUSH2 0x2C0 JUMPI DUP1 PUSH4 0x15056B54 EQ PUSH2 0x2F0 JUMPI DUP1 PUSH4 0x18160DDD EQ PUSH2 0x320 JUMPI PUSH2 0x204 JUMP JUMPDEST DUP1 PUSH4 0x1F59D16 EQ PUSH2 0x208 JUMPI DUP1 PUSH4 0x2846858 EQ PUSH2 0x226 JUMPI DUP1 PUSH4 0x3D41E0E EQ PUSH2 0x242 JUMPI DUP1 PUSH4 0x6FDDE03 EQ PUSH2 0x272 JUMPI JUMPDEST PUSH0 PUSH0 REVERT JUMPDEST PUSH2 0x210 PUSH2 0x6C3 JUMP JUMPDEST PUSH1 0x40 MLOAD PUSH2 0x21D SWAP2 SWAP1 PUSH2 0x2A27 JUMP JUMPDEST PUSH1 0x40 MLOAD DUP1 SWAP2 SUB SWAP1 RETURN JUMPDEST PUSH2 0x240 PUSH1 0x4 DUP1 CALLDATASIZE SUB DUP2 ADD SWAP1 PUSH2 0x23B SWAP2 SWAP1 PUSH2 0x2A9E JUMP JUMPDEST PUSH2 0x6C9 JUMP JUMPDEST STOP JUMPDEST PUSH2 0x25C PUSH1 0x4 DUP1 CALLDATASIZE SUB DUP2 ADD SWAP1 PUSH2 0x257 SWAP2 SWAP1 PUSH2 0x2A9E JUMP JUMPDEST PUSH2 0x80D JUMP JUMPDEST PUSH1 0x40 MLOAD PUSH2 0x269 SWAP2 SWAP1 PUSH2 0x2AE3 JUMP JUMPDEST PUSH1 0x40 MLOAD DUP1 SWAP2 SUB SWAP1 RETURN JUMPDEST PUSH2 0x27A PUSH2 0x82A JUMP JUMPDEST PUSH1 0x40 MLOAD PUSH2 0x287 SWAP2 SWAP1 PUSH2 0x2B6C JUMP JUMPDEST PUSH1 0x40 MLOAD DUP1 SWAP2 SUB SWAP1 RETURN JUMPDEST PUSH2 0x2AA PUSH1 0x4 DUP1 CALLDATASIZE SUB DUP2 ADD SWAP1 PUSH2 0x2A5 SWAP2 SWAP1 PUSH2 0x2BB6 JUMP JUMPDEST PUSH2 0x8B5 JUMP JUMPDEST PUSH1 0x40 MLOAD PUSH2 0x2B7 SWAP2 SWAP1 PUSH2 0x2AE3 JUMP JUMPDEST PUSH1 0x40 MLOAD DUP1 SWAP2 SUB SWAP1 RETURN JUMPDEST PUSH2 0x2DA PUSH1 0x4 DUP1 CALLDATASIZE SUB DUP2 ADD SWAP1 PUSH2 0x2D5 SWAP2 SWAP1 PUSH2 0x2A9E JUMP JUMPDEST PUSH2 0x9D1 JUMP JUMPDEST PUSH1 0x40 MLOAD PUSH2 0x2E7 SWAP2 SWAP1 PUSH2 0x2A27 JUMP JUMPDEST PUSH1 0x40 MLOAD DUP1 SWAP2 SUB SWAP1 RETURN JUMPDEST PUSH2 0x30A PUSH1 0x4 DUP1 CALLDATASIZE SUB DUP2 ADD SWAP1 PUSH2 0x305 SWAP2 SWAP1 PUSH2 0x2A9E JUMP JUMPDEST PUSH2 0xA5F JUMP JUMPDEST PUSH1 0x40 MLOAD PUSH2 0x317 SWAP2 SWAP1 PUSH2 0x2CD8 JUMP JUMPDEST PUSH1 0x40 MLOAD DUP1 SWAP2 SUB SWAP1 RETURN JUMPDEST PUSH2 0x328 PUSH2 0xB0B JUMP JUMPDEST PUSH1 0x40 MLOAD PUSH2 0x335 SWAP2 SWAP1 PUSH2 0x2A27 JUMP JUMPDEST PUSH1 0x40 MLOAD DUP1 SWAP2 SUB SWAP1 RETURN JUMPDEST PUSH2 0x358 PUSH1 0x4 DUP1 CALLDATASIZE SUB DUP2 ADD SWAP1 PUSH2 0x353 SWAP2 SWAP1 PUSH2 0x2CF8 JUMP JUMPDEST PUSH2 0xB11 JUMP JUMPDEST PUSH1 0x40 MLOAD PUSH2 0x365 SWAP2 SWAP1 PUSH2 0x2AE3 JUMP JUMPDEST PUSH1 0x40 MLOAD DUP1 SWAP2 SUB SWAP1 RETURN JUMPDEST PUSH2 0x388 PUSH1 0x4 DUP1 CALLDATASIZE SUB DUP2 ADD SWAP1 PUSH2 0x383 SWAP2 SWAP1 PUSH2 0x2A9E JUMP JUMPDEST PUSH2 0xD07 JUMP JUMPDEST STOP JUMPDEST PUSH2 0x392 PUSH2 0xE4B JUMP JUMPDEST PUSH1 0x40 MLOAD PUSH2 0x39F SWAP2 SWAP1 PUSH2 0x2D63 JUMP JUMPDEST PUSH1 0x40 MLOAD DUP1 SWAP2 SUB SWAP1 RETURN JUMPDEST PUSH2 0x3C2 PUSH1 0x4 DUP1 CALLDATASIZE SUB DUP2 ADD SWAP1 PUSH2 0x3BD SWAP2 SWAP1 PUSH2 0x2BB6 JUMP JUMPDEST PUSH2 0xE5D JUMP JUMPDEST STOP JUMPDEST PUSH2 0x3DE PUSH1 0x4 DUP1 CALLDATASIZE SUB DUP2 ADD SWAP1 PUSH2 0x3D9 SWAP2 SWAP1 PUSH2 0x2A9E JUMP JUMPDEST PUSH2 0xF6E JUMP JUMPDEST STOP JUMPDEST PUSH2 0x3FA PUSH1 0x4 DUP1 CALLDATASIZE SUB DUP2 ADD SWAP1 PUSH2 0x3F5 SWAP2 SWAP1 PUSH2 0x2D7C JUMP JUMPDEST PUSH2 0x108E JUMP JUMPDEST STOP JUMPDEST PUSH2 0x416 PUSH1 0x4 DUP1 CALLDATASIZE SUB DUP2 ADD SWAP1 PUSH2 0x411 SWAP2 SWAP1 PUSH2 0x2BB6 JUMP JUMPDEST PUSH2 0x109B JUMP JUMPDEST PUSH1 0x40 MLOAD PUSH2 0x424 SWAP3 SWAP2 SWAP1 PUSH2 0x2DA7 JUMP JUMPDEST PUSH1 0x40 MLOAD DUP1 SWAP2 SUB SWAP1 RETURN JUMPDEST PUSH2 0x447 PUSH1 0x4 DUP1 CALLDATASIZE SUB DUP2 ADD SWAP1 PUSH2 0x442 SWAP2 SWAP1 PUSH2 0x2A9E JUMP JUMPDEST PUSH2 0x10D5 JUMP JUMPDEST PUSH1 0x40 MLOAD PUSH2 0x454 SWAP2 SWAP1 PUSH2 0x2A27 JUMP JUMPDEST PUSH1 0x40 MLOAD DUP1 SWAP2 SUB SWAP1 RETURN JUMPDEST PUSH2 0x477 PUSH1 0x4 DUP1 CALLDATASIZE SUB DUP2 ADD SWAP1 PUSH2 0x472 SWAP2 SWAP1 PUSH2 0x2BB6 JUMP JUMPDEST PUSH2 0x111B JUMP JUMPDEST STOP JUMPDEST PUSH2 0x481 PUSH2 0x1237 JUMP JUMPDEST PUSH1 0x40 MLOAD PUSH2 0x48E SWAP2 SWAP1 PUSH2 0x2DDD JUMP JUMPDEST PUSH1 0x40 MLOAD DUP1 SWAP2 SUB SWAP1 RETURN JUMPDEST PUSH2 0x4B1 PUSH1 0x4 DUP1 CALLDATASIZE SUB DUP2 ADD SWAP1 PUSH2 0x4AC SWAP2 SWAP1 PUSH2 0x2D7C JUMP JUMPDEST PUSH2 0x125C JUMP JUMPDEST STOP JUMPDEST PUSH2 0x4BB PUSH2 0x135F JUMP JUMPDEST PUSH1 0x40 MLOAD PUSH2 0x4C8 SWAP2 SWAP1 PUSH2 0x2B6C JUMP JUMPDEST PUSH1 0x40 MLOAD DUP1 SWAP2 SUB SWAP1 RETURN JUMPDEST PUSH2 0x4EB PUSH1 0x4 DUP1 CALLDATASIZE SUB DUP2 ADD SWAP1 PUSH2 0x4E6 SWAP2 SWAP1 PUSH2 0x2A9E JUMP JUMPDEST PUSH2 0x13EB JUMP JUMPDEST STOP JUMPDEST PUSH2 0x507 PUSH1 0x4 DUP1 CALLDATASIZE SUB DUP2 ADD SWAP1 PUSH2 0x502 SWAP2 SWAP1 PUSH2 0x2DF6 JUMP JUMPDEST PUSH2 0x1530 JUMP JUMPDEST STOP JUMPDEST PUSH2 0x523 PUSH1 0x4 DUP1 CALLDATASIZE SUB DUP2 ADD SWAP1 PUSH2 0x51E SWAP2 SWAP1 PUSH2 0x2BB6 JUMP JUMPDEST PUSH2 0x1871 JUMP JUMPDEST PUSH1 0x40 MLOAD PUSH2 0x530 SWAP2 SWAP1 PUSH2 0x2AE3 JUMP JUMPDEST PUSH1 0x40 MLOAD DUP1 SWAP2 SUB SWAP1 RETURN JUMPDEST PUSH2 0x541 PUSH2 0x19D8 JUMP JUMPDEST PUSH1 0x40 MLOAD PUSH2 0x54E SWAP2 SWAP1 PUSH2 0x2A27 JUMP JUMPDEST PUSH1 0x40 MLOAD DUP1 SWAP2 SUB SWAP1 RETURN JUMPDEST PUSH2 0x55F PUSH2 0x19DE JUMP JUMPDEST PUSH1 0x40 MLOAD PUSH2 0x56C SWAP2 SWAP1 PUSH2 0x2DDD JUMP JUMPDEST PUSH1 0x40 MLOAD DUP1 SWAP2 SUB SWAP1 RETURN JUMPDEST PUSH2 0x58F PUSH1 0x4 DUP1 CALLDATASIZE SUB DUP2 ADD SWAP1 PUSH2 0x58A SWAP2 SWAP1 PUSH2 0x2A9E JUMP JUMPDEST PUSH2 0x1A03 JUMP JUMPDEST STOP JUMPDEST PUSH2 0x5AB PUSH1 0x4 DUP1 CALLDATASIZE SUB DUP2 ADD SWAP1 PUSH2 0x5A6 SWAP2 SWAP1 PUSH2 0x2A9E JUMP JUMPDEST PUSH2 0x1CAD JUMP JUMPDEST STOP JUMPDEST PUSH2 0x5B5 PUSH2 0x1E14 JUMP JUMPDEST PUSH1 0x40 MLOAD PUSH2 0x5C2 SWAP2 SWAP1 PUSH2 0x2A27 JUMP JUMPDEST PUSH1 0x40 MLOAD DUP1 SWAP2 SUB SWAP1 RETURN JUMPDEST PUSH2 0x5E5 PUSH1 0x4 DUP1 CALLDATASIZE SUB DUP2 ADD SWAP1 PUSH2 0x5E0 SWAP2 SWAP1 PUSH2 0x2A9E JUMP JUMPDEST PUSH2 0x1E1A JUMP JUMPDEST PUSH1 0x40 MLOAD PUSH2 0x5F2 SWAP2 SWAP1 PUSH2 0x2A27 JUMP JUMPDEST PUSH1 0x40 MLOAD DUP1 SWAP2 SUB SWAP1 RETURN JUMPDEST PUSH2 0x615 PUSH1 0x4 DUP1 CALLDATASIZE SUB DUP2 ADD SWAP1 PUSH2 0x610 SWAP2 SWAP1 PUSH2 0x2A9E JUMP JUMPDEST PUSH2 0x1E2F JUMP JUMPDEST PUSH1 0x40 MLOAD PUSH2 0x622 SWAP2 SWAP1 PUSH2 0x2AE3 JUMP JUMPDEST PUSH1 0x40 MLOAD DUP1 SWAP2 SUB SWAP1 RETURN JUMPDEST PUSH2 0x645 PUSH1 0x4 DUP1 CALLDATASIZE SUB DUP2 ADD SWAP1 PUSH2 0x640 SWAP2 SWAP1 PUSH2 0x2E46 JUMP JUMPDEST PUSH2 0x1E4C JUMP JUMPDEST PUSH1 0x40 MLOAD PUSH2 0x652 SWAP2 SWAP1 PUSH2 0x2A27 JUMP JUMPDEST PUSH1 0x40 MLOAD DUP1 SWAP2 SUB SWAP1 RETURN JUMPDEST PUSH2 0x675 PUSH1 0x4 DUP1 CALLDATASIZE SUB DUP2 ADD SWAP1 PUSH2 0x670 SWAP2 SWAP1 PUSH2 0x2A9E JUMP JUMPDEST PUSH2 0x1ECE JUMP JUMPDEST STOP JUMPDEST PUSH2 0x691 PUSH1 0x4 DUP1 CALLDATASIZE SUB DUP2 ADD SWAP1 PUSH2 0x68C SWAP2 SWAP1 PUSH2 0x2A9E JUMP JUMPDEST PUSH2 0x1FEF JUMP JUMPDEST STOP JUMPDEST PUSH2 0x6AD PUSH1 0x4 DUP1 CALLDATASIZE SUB DUP2 ADD SWAP1 PUSH2 0x6A8 SWAP2 SWAP1 PUSH2 0x2A9E JUMP JUMPDEST PUSH2 0x2134 JUMP JUMPDEST PUSH1 0x40 MLOAD PUSH2 0x6BA SWAP2 SWAP1 PUSH2 0x2AE3 JUMP JUMPDEST PUSH1 0x40 MLOAD DUP1 SWAP2 SUB SWAP1 RETURN JUMPDEST PUSH1 0x9 SLOAD DUP2 JUMP JUMPDEST PUSH1 0xA PUSH0 SWAP1 SLOAD SWAP1 PUSH2 0x100 EXP SWAP1 DIV PUSH20 0xFFFFFFFFFFFFFFFFFFFFFFFFFFFFFFFFFFFFFFFF AND PUSH20 0xFFFFFFFFFFFFFFFFFFFFFFFFFFFFFFFFFFFFFFFF AND CALLER PUSH20 0xFFFFFFFFFFFFFFFFFFFFFFFFFFFFFFFFFFFFFFFF AND EQ PUSH2 0x74F JUMPI PUSH1 0x40 MLOAD PUSH32 0x30CD747100000000000000000000000000000000000000000000000000000000 DUP2 MSTORE PUSH1 0x4 ADD PUSH1 0x40 MLOAD DUP1 SWAP2 SUB SWAP1 REVERT JUMPDEST DUP1 PUSH0 PUSH20 0xFFFFFFFFFFFFFFFFFFFFFFFFFFFFFFFFFFFFFFFF AND DUP2 PUSH20 0xFFFFFFFFFFFFFFFFFFFFFFFFFFFFFFFFFFFFFFFF AND SUB PUSH2 0x7B5 JUMPI PUSH1 0x40 MLOAD PUSH32 0xD92E233D00000000000000000000000000000000000000000000000000000000 DUP2 MSTORE PUSH1 0x4 ADD PUSH1 0x40 MLOAD DUP1 SWAP2 SUB SWAP1 REVERT JUMPDEST PUSH0 PUSH1 0xC PUSH0 DUP5 PUSH20 0xFFFFFFFFFFFFFFFFFFFFFFFFFFFFFFFFFFFFFFFF AND PUSH20 0xFFFFFFFFFFFFFFFFFFFFFFFFFFFFFFFFFFFFFFFF AND DUP2 MSTORE PUSH1 0x20 ADD SWAP1 DUP2 MSTORE PUSH1 0x20 ADD PUSH0 KECCAK256 PUSH0 PUSH2 0x100 EXP DUP2 SLOAD DUP2 PUSH1 0xFF MUL NOT AND SWAP1 DUP4 ISZERO ISZERO MUL OR SWAP1 SSTORE POP POP POP JUMP JUMPDEST PUSH1 0xC PUSH1 0x20 MSTORE DUP1 PUSH0 MSTORE PUSH1 0x40 PUSH0 KECCAK256 PUSH0 SWAP2 POP SLOAD SWAP1 PUSH2 0x100 EXP SWAP1 DIV PUSH1 0xFF AND DUP2 JUMP JUMPDEST PUSH0 DUP1 SLOAD PUSH2 0x836 SWAP1 PUSH2 0x2EB1 JUMP JUMPDEST DUP1 PUSH1 0x1F ADD PUSH1 0x20 DUP1 SWAP2 DIV MUL PUSH1 0x20 ADD PUSH1 0x40 MLOAD SWAP1 DUP2 ADD PUSH1 0x40 MSTORE DUP1 SWAP3 SWAP2 SWAP1 DUP2 DUP2 MSTORE PUSH1 0x20 ADD DUP3 DUP1 SLOAD PUSH2 0x862 SWAP1 PUSH2 0x2EB1 JUMP JUMPDEST DUP1 ISZERO PUSH2 0x8AD JUMPI DUP1 PUSH1 0x1F LT PUSH2 0x884 JUMPI PUSH2 0x100 DUP1 DUP4 SLOAD DIV MUL DUP4 MSTORE SWAP2 PUSH1 0x20 ADD SWAP2 PUSH2 0x8AD JUMP JUMPDEST DUP3 ADD SWAP2 SWAP1 PUSH0 MSTORE PUSH1 0x20 PUSH0 KECCAK256 SWAP1 JUMPDEST DUP2 SLOAD DUP2 MSTORE SWAP1 PUSH1 0x1 ADD SWAP1 PUSH1 0x20 ADD DUP1 DUP4 GT PUSH2 0x890 JUMPI DUP3 SWAP1 SUB PUSH1 0x1F AND DUP3 ADD SWAP2 JUMPDEST POP POP POP POP POP DUP2 JUMP JUMPDEST PUSH0 CALLER PUSH1 0xF PUSH0 DUP3 PUSH20 0xFFFFFFFFFFFFFFFFFFFFFFFFFFFFFFFFFFFFFFFF AND PUSH20 0xFFFFFFFFFFFFFFFFFFFFFFFFFFFFFFFFFFFFFFFF AND DUP2 MSTORE PUSH1 0x20 ADD SWAP1 DUP2 MSTORE PUSH1 0x20 ADD PUSH0 KECCAK256 PUSH0 SWAP1 SLOAD SWAP1 PUSH2 0x100 EXP SWAP1 DIV PUSH1 0xFF AND ISZERO PUSH2 0x938 JUMPI PUSH1 0x40 MLOAD PUSH32 0x6EB8B83A00000000000000000000000000000000000000000000000000000000 DUP2 MSTORE PUSH1 0x4 ADD PUSH1 0x40 MLOAD DUP1 SWAP2 SUB SWAP1 REVERT JUMPDEST DUP4 PUSH1 0xF PUSH0 DUP3 PUSH20 0xFFFFFFFFFFFFFFFFFFFFFFFFFFFFFFFFFFFFFFFF AND PUSH20 0xFFFFFFFFFFFFFFFFFFFFFFFFFFFFFFFFFFFFFFFF AND DUP2 MSTORE PUSH1 0x20 ADD SWAP1 DUP2 MSTORE PUSH1 0x20 ADD PUSH0 KECCAK256 PUSH0 SWAP1 SLOAD SWAP1 PUSH2 0x100 EXP SWAP1 DIV PUSH1 0xFF AND ISZERO PUSH2 0x9BA JUMPI PUSH1 0x40 MLOAD PUSH32 0x6EB8B83A00000000000000000000000000000000000000000000000000000000 DUP2 MSTORE PUSH1 0x4 ADD PUSH1 0x40 MLOAD DUP1 SWAP2 SUB SWAP1 REVERT JUMPDEST PUSH2 0x9C5 CALLER DUP7 DUP7 PUSH2 0x2151 JUMP JUMPDEST PUSH1 0x1 SWAP3 POP POP POP SWAP3 SWAP2 POP POP JUMP JUMPDEST PUSH0 PUSH1 0xE PUSH0 DUP4 PUSH20 0xFFFFFFFFFFFFFFFFFFFFFFFFFFFFFFFFFFFFFFFF AND PUSH20 0xFFFFFFFFFFFFFFFFFFFFFFFFFFFFFFFFFFFFFFFF AND DUP2 MSTORE PUSH1 0x20 ADD SWAP1 DUP2 MSTORE PUSH1 0x20 ADD PUSH0 KECCAK256 SLOAD PUSH1 0x5 PUSH0 DUP5 PUSH20 0xFFFFFFFFFFFFFFFFFFFFFFFFFFFFFFFFFFFFFFFF AND PUSH20 0xFFFFFFFFFFFFFFFFFFFFFFFFFFFFFFFFFFFFFFFF AND DUP2 MSTORE PUSH1 0x20 ADD SWAP1 DUP2 MSTORE PUSH1 0x20 ADD PUSH0 KECCAK256 SLOAD PUSH2 0xA58 SWAP2 SWAP1 PUSH2 0x2F0E JUMP JUMPDEST SWAP1 POP SWAP2 SWAP1 POP JUMP JUMPDEST PUSH1 0x60 PUSH1 0xD PUSH0 DUP4 PUSH20 0xFFFFFFFFFFFFFFFFFFFFFFFFFFFFFFFFFFFFFFFF AND PUSH20 0xFFFFFFFFFFFFFFFFFFFFFFFFFFFFFFFFFFFFFFFF AND DUP2 MSTORE PUSH1 0x20 ADD SWAP1 DUP2 MSTORE PUSH1 0x20 ADD PUSH0 KECCAK256 DUP1 SLOAD DUP1 PUSH1 0x20 MUL PUSH1 0x20 ADD PUSH1 0x40 MLOAD SWAP1 DUP2 ADD PUSH1 0x40 MSTORE DUP1 SWAP3 SWAP2 SWAP1 DUP2 DUP2 MSTORE PUSH1 0x20 ADD PUSH0 SWAP1 JUMPDEST DUP3 DUP3 LT ISZERO PUSH2 0xB00 JUMPI DUP4 DUP3 SWAP1 PUSH0 MSTORE PUSH1 0x20 PUSH0 KECCAK256 SWAP1 PUSH1 0x2 MUL ADD PUSH1 0x40 MLOAD DUP1 PUSH1 0x40 ADD PUSH1 0x40 MSTORE SWAP1 DUP2 PUSH0 DUP3 ADD SLOAD DUP2 MSTORE PUSH1 0x20 ADD PUSH1 0x1 DUP3 ADD SLOAD DUP2 MSTORE POP POP DUP2 MSTORE PUSH1 0x20 ADD SWAP1 PUSH1 0x1 ADD SWAP1 PUSH2 0xABD JUMP JUMPDEST POP POP POP POP SWAP1 POP SWAP2 SWAP1 POP JUMP JUMPDEST PUSH1 0x3 SLOAD DUP2 JUMP JUMPDEST PUSH0 DUP4 PUSH1 0xF PUSH0 DUP3 PUSH20 0xFFFFFFFFFFFFFFFFFFFFFFFFFFFFFFFFFFFFFFFF AND PUSH20 0xFFFFFFFFFFFFFFFFFFFFFFFFFFFFFFFFFFFFFFFF AND DUP2 MSTORE PUSH1 0x20 ADD SWAP1 DUP2 MSTORE PUSH1 0x20 ADD PUSH0 KECCAK256 PUSH0 SWAP1 SLOAD SWAP1 PUSH2 0x100 EXP SWAP1 DIV PUSH1 0xFF AND ISZERO PUSH2 0xB94 JUMPI PUSH1 0x40 MLOAD PUSH32 0x6EB8B83A00000000000000000000000000000000000000000000000000000000 DUP2 MSTORE PUSH1 0x4 ADD PUSH1 0x40 MLOAD DUP1 SWAP2 SUB SWAP1 REVERT JUMPDEST DUP4 PUSH1 0xF PUSH0 DUP3 PUSH20 0xFFFFFFFFFFFFFFFFFFFFFFFFFFFFFFFFFFFFFFFF AND PUSH20 0xFFFFFFFFFFFFFFFFFFFFFFFFFFFFFFFFFFFFFFFF AND DUP2 MSTORE PUSH1 0x20 ADD SWAP1 DUP2 MSTORE PUSH1 0x20 ADD PUSH0 KECCAK256 PUSH0 SWAP1 SLOAD SWAP1 PUSH2 0x100 EXP SWAP1 DIV PUSH1 0xFF AND ISZERO PUSH2 0xC16 JUMPI PUSH1 0x40 MLOAD PUSH32 0x6EB8B83A00000000000000000000000000000000000000000000000000000000 DUP2 MSTORE PUSH1 0x4 ADD PUSH1 0x40 MLOAD DUP1 SWAP2 SUB SWAP1 REVERT JUMPDEST CALLER PUSH1 0xF PUSH0 DUP3 PUSH20 0xFFFFFFFFFFFFFFFFFFFFFFFFFFFFFFFFFFFFFFFF AND PUSH20 0xFFFFFFFFFFFFFFFFFFFFFFFFFFFFFFFFFFFFFFFF AND DUP2 MSTORE PUSH1 0x20 ADD SWAP1 DUP2 MSTORE PUSH1 0x20 ADD PUSH0 KECCAK256 PUSH0 SWAP1 SLOAD SWAP1 PUSH2 0x100 EXP SWAP1 DIV PUSH1 0xFF AND ISZERO PUSH2 0xC98 JUMPI PUSH1 0x40 MLOAD PUSH32 0x6EB8B83A00000000000000000000000000000000000000000000000000000000 DUP2 MSTORE PUSH1 0x4 ADD PUSH1 0x40 MLOAD DUP1 SWAP2 SUB SWAP1 REVERT JUMPDEST DUP5 PUSH2 0xCA2 DUP9 PUSH2 0x9D1 JUMP JUMPDEST LT ISZERO PUSH2 0xCE3 JUMPI PUSH1 0x40 MLOAD PUSH32 0x8C379A000000000000000000000000000000000000000000000000000000000 DUP2 MSTORE PUSH1 0x4 ADD PUSH2 0xCDA SWAP1 PUSH2 0x2F8B JUMP JUMPDEST PUSH1 0x40 MLOAD DUP1 SWAP2 SUB SWAP1 REVERT JUMPDEST PUSH2 0xCEE DUP8 CALLER DUP8 PUSH2 0x2238 JUMP JUMPDEST PUSH2 0xCF9 DUP8 DUP8 DUP8 PUSH2 0x22C3 JUMP JUMPDEST PUSH1 0x1 SWAP4 POP POP POP POP SWAP4 SWAP3 POP POP POP JUMP JUMPDEST PUSH1 0xA PUSH0 SWAP1 SLOAD SWAP1 PUSH2 0x100 EXP SWAP1 DIV PUSH20 0xFFFFFFFFFFFFFFFFFFFFFFFFFFFFFFFFFFFFFFFF AND PUSH20 0xFFFFFFFFFFFFFFFFFFFFFFFFFFFFFFFFFFFFFFFF AND CALLER PUSH20 0xFFFFFFFFFFFFFFFFFFFFFFFFFFFFFFFFFFFFFFFF AND EQ PUSH2 0xD8D JUMPI PUSH1 0x40 MLOAD PUSH32 0x30CD747100000000000000000000000000000000000000000000000000000000 DUP2 MSTORE PUSH1 0x4 ADD PUSH1 0x40 MLOAD DUP1 SWAP2 SUB SWAP1 REVERT JUMPDEST DUP1 PUSH0 PUSH20 0xFFFFFFFFFFFFFFFFFFFFFFFFFFFFFFFFFFFFFFFF AND DUP2 PUSH20 0xFFFFFFFFFFFFFFFFFFFFFFFFFFFFFFFFFFFFFFFF AND SUB PUSH2 0xDF3 JUMPI PUSH1 0x40 MLOAD PUSH32 0xD92E233D00000000000000000000000000000000000000000000000000000000 DUP2 MSTORE PUSH1 0x4 ADD PUSH1 0x40 MLOAD DUP1 SWAP2 SUB SWAP1 REVERT JUMPDEST PUSH0 PUSH1 0xB PUSH0 DUP5 PUSH20 0xFFFFFFFFFFFFFFFFFFFFFFFFFFFFFFFFFFFFFFFF AND PUSH20 0xFFFFFFFFFFFFFFFFFFFFFFFFFFFFFFFFFFFFFFFF AND DUP2 MSTORE PUSH1 0x20 ADD SWAP1 DUP2 MSTORE PUSH1 0x20 ADD PUSH0 KECCAK256 PUSH0 PUSH2 0x100 EXP DUP2 SLOAD DUP2 PUSH1 0xFF MUL NOT AND SWAP1 DUP4 ISZERO ISZERO MUL OR SWAP1 SSTORE POP POP POP JUMP JUMPDEST PUSH1 0x2 PUSH0 SWAP1 SLOAD SWAP1 PUSH2 0x100 EXP SWAP1 DIV PUSH1 0xFF AND DUP2 JUMP JUMPDEST PUSH1 0xB PUSH0 CALLER PUSH20 0xFFFFFFFFFFFFFFFFFFFFFFFFFFFFFFFFFFFFFFFF AND PUSH20 0xFFFFFFFFFFFFFFFFFFFFFFFFFFFFFFFFFFFFFFFF AND DUP2 MSTORE PUSH1 0x20 ADD SWAP1 DUP2 MSTORE PUSH1 0x20 ADD PUSH0 KECCAK256 PUSH0 SWAP1 SLOAD SWAP1 PUSH2 0x100 EXP SWAP1 DIV PUSH1 0xFF AND PUSH2 0xEDD JUMPI PUSH1 0x40 MLOAD PUSH32 0xF8D2906C00000000000000000000000000000000000000000000000000000000 DUP2 MSTORE PUSH1 0x4 ADD PUSH1 0x40 MLOAD DUP1 SWAP2 SUB SWAP1 REVERT JUMPDEST DUP2 PUSH1 0xF PUSH0 DUP3 PUSH20 0xFFFFFFFFFFFFFFFFFFFFFFFFFFFFFFFFFFFFFFFF AND PUSH20 0xFFFFFFFFFFFFFFFFFFFFFFFFFFFFFFFFFFFFFFFF AND DUP2 MSTORE PUSH1 0x20 ADD SWAP1 DUP2 MSTORE PUSH1 0x20 ADD PUSH0 KECCAK256 PUSH0 SWAP1 SLOAD SWAP1 PUSH2 0x100 EXP SWAP1 DIV PUSH1 0xFF AND ISZERO PUSH2 0xF5F JUMPI PUSH1 0x40 MLOAD PUSH32 0x6EB8B83A00000000000000000000000000000000000000000000000000000000 DUP2 MSTORE PUSH1 0x4 ADD PUSH1 0x40 MLOAD DUP1 SWAP2 SUB SWAP1 REVERT JUMPDEST PUSH2 0xF69 DUP4 DUP4 PUSH2 0x264E JUMP JUMPDEST POP POP POP JUMP JUMPDEST PUSH1 0xA PUSH0 SWAP1 SLOAD SWAP1 PUSH2 0x100 EXP SWAP1 DIV PUSH20 0xFFFFFFFFFFFFFFFFFFFFFFFFFFFFFFFFFFFFFFFF AND PUSH20 0xFFFFFFFFFFFFFFFFFFFFFFFFFFFFFFFFFFFFFFFF AND CALLER PUSH20 0xFFFFFFFFFFFFFFFFFFFFFFFFFFFFFFFFFFFFFFFF AND EQ PUSH2 0xFF4 JUMPI PUSH1 0x40 MLOAD PUSH32 0x30CD747100000000000000000000000000000000000000000000000000000000 DUP2 MSTORE PUSH1 0x4 ADD PUSH1 0x40 MLOAD DUP1 SWAP2 SUB SWAP1 REVERT JUMPDEST PUSH0 PUSH1 0xF PUSH0 DUP4 PUSH20 0xFFFFFFFFFFFFFFFFFFFFFFFFFFFFFFFFFFFFFFFF AND PUSH20 0xFFFFFFFFFFFFFFFFFFFFFFFFFFFFFFFFFFFFFFFF AND DUP2 MSTORE PUSH1 0x20 ADD SWAP1 DUP2 MSTORE PUSH1 0x20 ADD PUSH0 KECCAK256 PUSH0 PUSH2 0x100 EXP DUP2 SLOAD DUP2 PUSH1 0xFF MUL NOT AND SWAP1 DUP4 ISZERO ISZERO MUL OR SWAP1 SSTORE POP DUP1 PUSH20 0xFFFFFFFFFFFFFFFFFFFFFFFFFFFFFFFFFFFFFFFF AND PUSH32 0x4F783C179409B4127238BC9C990BC99B9A651666A0D20B51D6C42849EB88466D PUSH1 0x40 MLOAD PUSH1 0x40 MLOAD DUP1 SWAP2 SUB SWAP1 LOG2 POP JUMP JUMPDEST PUSH2 0x1098 CALLER DUP3 PUSH2 0x2812 JUMP JUMPDEST POP JUMP JUMPDEST PUSH1 0xD PUSH1 0x20 MSTORE DUP2 PUSH0 MSTORE PUSH1 0x40 PUSH0 KECCAK256 DUP2 DUP2 SLOAD DUP2 LT PUSH2 0x10B4 JUMPI PUSH0 DUP1 REVERT JUMPDEST SWAP1 PUSH0 MSTORE PUSH1 0x20 PUSH0 KECCAK256 SWAP1 PUSH1 0x2 MUL ADD PUSH0 SWAP2 POP SWAP2 POP POP DUP1 PUSH0 ADD SLOAD SWAP1 DUP1 PUSH1 0x1 ADD SLOAD SWAP1 POP DUP3 JUMP JUMPDEST PUSH0 PUSH1 0x5 PUSH0 DUP4 PUSH20 0xFFFFFFFFFFFFFFFFFFFFFFFFFFFFFFFFFFFFFFFF AND PUSH20 0xFFFFFFFFFFFFFFFFFFFFFFFFFFFFFFFFFFFFFFFF AND DUP2 MSTORE PUSH1 0x20 ADD SWAP1 DUP2 MSTORE PUSH1 0x20 ADD PUSH0 KECCAK256 SLOAD SWAP1 POP SWAP2 SWAP1 POP JUMP JUMPDEST PUSH1 0xC PUSH0 CALLER PUSH20 0xFFFFFFFFFFFFFFFFFFFFFFFFFFFFFFFFFFFFFFFF AND PUSH20 0xFFFFFFFFFFFFFFFFFFFFFFFFFFFFFFFFFFFFFFFF AND DUP2 MSTORE PUSH1 0x20 ADD SWAP1 DUP2 MSTORE PUSH1 0x20 ADD PUSH0 KECCAK256 PUSH0 SWAP1 SLOAD SWAP1 PUSH2 0x100 EXP SWAP1 DIV PUSH1 0xFF AND PUSH2 0x119B JUMPI PUSH1 0x40 MLOAD PUSH32 0xF019B1AF00000000000000000000000000000000000000000000000000000000 DUP2 MSTORE PUSH1 0x4 ADD PUSH1 0x40 MLOAD DUP1 SWAP2 SUB SWAP1 REVERT JUMPDEST DUP2 PUSH1 0xF PUSH0 DUP3 PUSH20 0xFFFFFFFFFFFFFFFFFFFFFFFFFFFFFFFFFFFFFFFF AND PUSH20 0xFFFFFFFFFFFFFFFFFFFFFFFFFFFFFFFFFFFFFFFF AND DUP2 MSTORE PUSH1 0x20 ADD SWAP1 DUP2 MSTORE PUSH1 0x20 ADD PUSH0 KECCAK256 PUSH0 SWAP1 SLOAD SWAP1 PUSH2 0x100 EXP SWAP1 DIV PUSH1 0xFF AND ISZERO PUSH2 0x121D JUMPI PUSH1 0x40 MLOAD PUSH32 0x6EB8B83A00000000000000000000000000000000000000000000000000000000 DUP2 MSTORE PUSH1 0x4 ADD PUSH1 0x40 MLOAD DUP1 SWAP2 SUB SWAP1 REVERT JUMPDEST PUSH2 0x1228 DUP4 CALLER DUP5 PUSH2 0x2238 JUMP JUMPDEST PUSH2 0x1232 DUP4 DUP4 PUSH2 0x2812 JUMP JUMPDEST POP POP POP JUMP JUMPDEST PUSH1 0xA PUSH0 SWAP1 SLOAD SWAP1 PUSH2 0x100 EXP SWAP1 DIV PUSH20 0xFFFFFFFFFFFFFFFFFFFFFFFFFFFFFFFFFFFFFFFF AND DUP2 JUMP JUMPDEST PUSH1 0xA PUSH0 SWAP1 SLOAD SWAP1 PUSH2 0x100 EXP SWAP1 DIV PUSH20 0xFFFFFFFFFFFFFFFFFFFFFFFFFFFFFFFFFFFFFFFF AND PUSH20 0xFFFFFFFFFFFFFFFFFFFFFFFFFFFFFFFFFFFFFFFF AND CALLER PUSH20 0xFFFFFFFFFFFFFFFFFFFFFFFFFFFFFFFFFFFFFFFF AND EQ PUSH2 0x12E2 JUMPI PUSH1 0x40 MLOAD PUSH32 0x30CD747100000000000000000000000000000000000000000000000000000000 DUP2 MSTORE PUSH1 0x4 ADD PUSH1 0x40 MLOAD DUP1 SWAP2 SUB SWAP1 REVERT JUMPDEST PUSH1 0x9 SLOAD DUP2 GT ISZERO PUSH2 0x131E JUMPI PUSH1 0x40 MLOAD PUSH32 0x58D620B300000000000000000000000000000000000000000000000000000000 DUP2 MSTORE PUSH1 0x4 ADD PUSH1 0x40 MLOAD DUP1 SWAP2 SUB SWAP1 REVERT JUMPDEST DUP1 PUSH1 0x8 DUP2 SWAP1 SSTORE POP PUSH32 0x8C4D35E54A3F2EF1134138FD8EA3DAEE6A3C89E10D2665996BABDF70261E2C76 DUP2 PUSH1 0x40 MLOAD PUSH2 0x1354 SWAP2 SWAP1 PUSH2 0x2A27 JUMP JUMPDEST PUSH1 0x40 MLOAD DUP1 SWAP2 SUB SWAP1 LOG1 POP JUMP JUMPDEST PUSH1 0x1 DUP1 SLOAD PUSH2 0x136C SWAP1 PUSH2 0x2EB1 JUMP JUMPDEST DUP1 PUSH1 0x1F ADD PUSH1 0x20 DUP1 SWAP2 DIV MUL PUSH1 0x20 ADD PUSH1 0x40 MLOAD SWAP1 DUP2 ADD PUSH1 0x40 MSTORE DUP1 SWAP3 SWAP2 SWAP1 DUP2 DUP2 MSTORE PUSH1 0x20 ADD DUP3 DUP1 SLOAD PUSH2 0x1398 SWAP1 PUSH2 0x2EB1 JUMP JUMPDEST DUP1 ISZERO PUSH2 0x13E3 JUMPI DUP1 PUSH1 0x1F LT PUSH2 0x13BA JUMPI PUSH2 0x100 DUP1 DUP4 SLOAD DIV MUL DUP4 MSTORE SWAP2 PUSH1 0x20 ADD SWAP2 PUSH2 0x13E3 JUMP JUMPDEST DUP3 ADD SWAP2 SWAP1 PUSH0 MSTORE PUSH1 0x20 PUSH0 KECCAK256 SWAP1 JUMPDEST DUP2 SLOAD DUP2 MSTORE SWAP1 PUSH1 0x1 ADD SWAP1 PUSH1 0x20 ADD DUP1 DUP4 GT PUSH2 0x13C6 JUMPI DUP3 SWAP1 SUB PUSH1 0x1F AND DUP3 ADD SWAP2 JUMPDEST POP POP POP POP POP DUP2 JUMP JUMPDEST PUSH1 0xA PUSH0 SWAP1 SLOAD SWAP1 PUSH2 0x100 EXP SWAP1 DIV PUSH20 0xFFFFFFFFFFFFFFFFFFFFFFFFFFFFFFFFFFFFFFFF AND PUSH20 0xFFFFFFFFFFFFFFFFFFFFFFFFFFFFFFFFFFFFFFFF AND CALLER PUSH20 0xFFFFFFFFFFFFFFFFFFFFFFFFFFFFFFFFFFFFFFFF AND EQ PUSH2 0x1471 JUMPI PUSH1 0x40 MLOAD PUSH32 0x30CD747100000000000000000000000000000000000000000000000000000000 DUP2 MSTORE PUSH1 0x4 ADD PUSH1 0x40 MLOAD DUP1 SWAP2 SUB SWAP1 REVERT JUMPDEST DUP1 PUSH0 PUSH20 0xFFFFFFFFFFFFFFFFFFFFFFFFFFFFFFFFFFFFFFFF AND DUP2 PUSH20 0xFFFFFFFFFFFFFFFFFFFFFFFFFFFFFFFFFFFFFFFF AND SUB PUSH2 0x14D7 JUMPI PUSH1 0x40 MLOAD PUSH32 0xD92E233D00000000000000000000000000000000000000000000000000000000 DUP2 MSTORE PUSH1 0x4 ADD PUSH1 0x40 MLOAD DUP1 SWAP2 SUB SWAP1 REVERT JUMPDEST PUSH1 0x1 PUSH1 0xB PUSH0 DUP5 PUSH20 0xFFFFFFFFFFFFFFFFFFFFFFFFFFFFFFFFFFFFFFFF AND PUSH20 0xFFFFFFFFFFFFFFFFFFFFFFFFFFFFFFFFFFFFFFFF AND DUP2 MSTORE PUSH1 0x20 ADD SWAP1 DUP2 MSTORE PUSH1 0x20 ADD PUSH0 KECCAK256 PUSH0 PUSH2 0x100 EXP DUP2 SLOAD DUP2 PUSH1 0xFF MUL NOT AND SWAP1 DUP4 ISZERO ISZERO MUL OR SWAP1 SSTORE POP POP POP JUMP JUMPDEST PUSH1 0xA PUSH0 SWAP1 SLOAD SWAP1 PUSH2 0x100 EXP SWAP1 DIV PUSH20 0xFFFFFFFFFFFFFFFFFFFFFFFFFFFFFFFFFFFFFFFF AND PUSH20 0xFFFFFFFFFFFFFFFFFFFFFFFFFFFFFFFFFFFFFFFF AND CALLER PUSH20 0xFFFFFFFFFFFFFFFFFFFFFFFFFFFFFFFFFFFFFFFF AND EQ PUSH2 0x15B6 JUMPI PUSH1 0x40 MLOAD PUSH32 0x30CD747100000000000000000000000000000000000000000000000000000000 DUP2 MSTORE PUSH1 0x4 ADD PUSH1 0x40 MLOAD DUP1 SWAP2 SUB SWAP1 REVERT JUMPDEST DUP3 PUSH1 0xF PUSH0 DUP3 PUSH20 0xFFFFFFFFFFFFFFFFFFFFFFFFFFFFFFFFFFFFFFFF AND PUSH20 0xFFFFFFFFFFFFFFFFFFFFFFFFFFFFFFFFFFFFFFFF AND DUP2 MSTORE PUSH1 0x20 ADD SWAP1 DUP2 MSTORE PUSH1 0x20 ADD PUSH0 KECCAK256 PUSH0 SWAP1 SLOAD SWAP1 PUSH2 0x100 EXP SWAP1 DIV PUSH1 0xFF AND ISZERO PUSH2 0x1638 JUMPI PUSH1 0x40 MLOAD PUSH32 0x6EB8B83A00000000000000000000000000000000000000000000000000000000 DUP2 MSTORE PUSH1 0x4 ADD PUSH1 0x40 MLOAD DUP1 SWAP2 SUB SWAP1 REVERT JUMPDEST PUSH0 DUP4 GT PUSH2 0x167A JUMPI PUSH1 0x40 MLOAD PUSH32 0x8C379A000000000000000000000000000000000000000000000000000000000 DUP2 MSTORE PUSH1 0x4 ADD PUSH2 0x1671 SWAP1 PUSH2 0x2FF3 JUMP JUMPDEST PUSH1 0x40 MLOAD DUP1 SWAP2 SUB SWAP1 REVERT JUMPDEST TIMESTAMP DUP3 GT PUSH2 0x16BC JUMPI PUSH1 0x40 MLOAD PUSH32 0x8C379A000000000000000000000000000000000000000000000000000000000 DUP2 MSTORE PUSH1 0x4 ADD PUSH2 0x16B3 SWAP1 PUSH2 0x305B JUMP JUMPDEST PUSH1 0x40 MLOAD DUP1 SWAP2 SUB SWAP1 REVERT JUMPDEST DUP3 PUSH1 0x5 PUSH0 DUP7 PUSH20 0xFFFFFFFFFFFFFFFFFFFFFFFFFFFFFFFFFFFFFFFF AND PUSH20 0xFFFFFFFFFFFFFFFFFFFFFFFFFFFFFFFFFFFFFFFF AND DUP2 MSTORE PUSH1 0x20 ADD SWAP1 DUP2 MSTORE PUSH1 0x20 ADD PUSH0 KECCAK256 SLOAD LT ISZERO PUSH2 0x173C JUMPI PUSH1 0x40 MLOAD PUSH32 0x8C379A000000000000000000000000000000000000000000000000000000000 DUP2 MSTORE PUSH1 0x4 ADD PUSH2 0x1733 SWAP1 PUSH2 0x30C3 JUMP JUMPDEST PUSH1 0x40 MLOAD DUP1 SWAP2 SUB SWAP1 REVERT JUMPDEST PUSH1 0xD PUSH0 DUP6 PUSH20 0xFFFFFFFFFFFFFFFFFFFFFFFFFFFFFFFFFFFFFFFF AND PUSH20 0xFFFFFFFFFFFFFFFFFFFFFFFFFFFFFFFFFFFFFFFF AND DUP2 MSTORE PUSH1 0x20 ADD SWAP1 DUP2 MSTORE PUSH1 0x20 ADD PUSH0 KECCAK256 PUSH1 0x40 MLOAD DUP1 PUSH1 0x40 ADD PUSH1 0x40 MSTORE DUP1 DUP6 DUP2 MSTORE PUSH1 0x20 ADD DUP5 DUP2 MSTORE POP SWAP1 DUP1 PUSH1 0x1 DUP2 SLOAD ADD DUP1 DUP3 SSTORE DUP1 SWAP2 POP POP PUSH1 0x1 SWAP1 SUB SWAP1 PUSH0 MSTORE PUSH1 0x20 PUSH0 KECCAK256 SWAP1 PUSH1 0x2 MUL ADD PUSH0 SWAP1 SWAP2 SWAP1 SWAP2 SWAP1 SWAP2 POP PUSH0 DUP3 ADD MLOAD DUP2 PUSH0 ADD SSTORE PUSH1 0x20 DUP3 ADD MLOAD DUP2 PUSH1 0x1 ADD SSTORE POP POP DUP3 PUSH1 0xE PUSH0 DUP7 PUSH20 0xFFFFFFFFFFFFFFFFFFFFFFFFFFFFFFFFFFFFFFFF AND PUSH20 0xFFFFFFFFFFFFFFFFFFFFFFFFFFFFFFFFFFFFFFFF AND DUP2 MSTORE PUSH1 0x20 ADD SWAP1 DUP2 MSTORE PUSH1 0x20 ADD PUSH0 KECCAK256 PUSH0 DUP3 DUP3 SLOAD PUSH2 0x1814 SWAP2 SWAP1 PUSH2 0x30E1 JUMP JUMPDEST SWAP3 POP POP DUP2 SWAP1 SSTORE POP DUP4 PUSH20 0xFFFFFFFFFFFFFFFFFFFFFFFFFFFFFFFFFFFFFFFF AND PUSH32 0xD741E738A23FD18A03A26522320D9FC6CAC1FED483E215EA9150FBC2FC43385D DUP5 DUP5 PUSH1 0x40 MLOAD PUSH2 0x1863 SWAP3 SWAP2 SWAP1 PUSH2 0x2DA7 JUMP JUMPDEST PUSH1 0x40 MLOAD DUP1 SWAP2 SUB SWAP1 LOG2 POP POP POP POP JUMP JUMPDEST PUSH0 CALLER PUSH1 0xF PUSH0 DUP3 PUSH20 0xFFFFFFFFFFFFFFFFFFFFFFFFFFFFFFFFFFFFFFFF AND PUSH20 0xFFFFFFFFFFFFFFFFFFFFFFFFFFFFFFFFFFFFFFFF AND DUP2 MSTORE PUSH1 0x20 ADD SWAP1 DUP2 MSTORE PUSH1 0x20 ADD PUSH0 KECCAK256 PUSH0 SWAP1 SLOAD SWAP1 PUSH2 0x100 EXP SWAP1 DIV PUSH1 0xFF AND ISZERO PUSH2 0x18F4 JUMPI PUSH1 0x40 MLOAD PUSH32 0x6EB8B83A00000000000000000000000000000000000000000000000000000000 DUP2 MSTORE PUSH1 0x4 ADD PUSH1 0x40 MLOAD DUP1 SWAP2 SUB SWAP1 REVERT JUMPDEST DUP4 PUSH1 0xF PUSH0 DUP3 PUSH20 0xFFFFFFFFFFFFFFFFFFFFFFFFFFFFFFFFFFFFFFFF AND PUSH20 0xFFFFFFFFFFFFFFFFFFFFFFFFFFFFFFFFFFFFFFFF AND DUP2 MSTORE PUSH1 0x20 ADD SWAP1 DUP2 MSTORE PUSH1 0x20 ADD PUSH0 KECCAK256 PUSH0 SWAP1 SLOAD SWAP1 PUSH2 0x100 EXP SWAP1 DIV PUSH1 0xFF AND ISZERO PUSH2 0x1976 JUMPI PUSH1 0x40 MLOAD PUSH32 0x6EB8B83A00000000000000000000000000000000000000000000000000000000 DUP2 MSTORE PUSH1 0x4 ADD PUSH1 0x40 MLOAD DUP1 SWAP2 SUB SWAP1 REVERT JUMPDEST DUP4 PUSH2 0x1980 CALLER PUSH2 0x9D1 JUMP JUMPDEST LT ISZERO PUSH2 0x19C1 JUMPI PUSH1 0x40 MLOAD PUSH32 0x8C379A000000000000000000000000000000000000000000000000000000000 DUP2 MSTORE PUSH1 0x4 ADD PUSH2 0x19B8 SWAP1 PUSH2 0x2F8B JUMP JUMPDEST PUSH1 0x40 MLOAD DUP1 SWAP2 SUB SWAP1 REVERT JUMPDEST PUSH2 0x19CC CALLER DUP7 DUP7 PUSH2 0x22C3 JUMP JUMPDEST PUSH1 0x1 SWAP3 POP POP POP SWAP3 SWAP2 POP POP JUMP JUMPDEST PUSH1 0x8 SLOAD DUP2 JUMP JUMPDEST PUSH1 0x7 PUSH0 SWAP1 SLOAD SWAP1 PUSH2 0x100 EXP SWAP1 DIV PUSH20 0xFFFFFFFFFFFFFFFFFFFFFFFFFFFFFFFFFFFFFFFF AND DUP2 JUMP JUMPDEST PUSH0 PUSH0 SWAP1 POP PUSH0 PUSH0 SWAP1 POP JUMPDEST PUSH1 0xD PUSH0 DUP5 PUSH20 0xFFFFFFFFFFFFFFFFFFFFFFFFFFFFFFFFFFFFFFFF AND PUSH20 0xFFFFFFFFFFFFFFFFFFFFFFFFFFFFFFFFFFFFFFFF AND DUP2 MSTORE PUSH1 0x20 ADD SWAP1 DUP2 MSTORE PUSH1 0x20 ADD PUSH0 KECCAK256 DUP1 SLOAD SWAP1 POP DUP2 LT ISZERO PUSH2 0x1BFE JUMPI TIMESTAMP PUSH1 0xD PUSH0 DUP6 PUSH20 0xFFFFFFFFFFFFFFFFFFFFFFFFFFFFFFFFFFFFFFFF AND PUSH20 0xFFFFFFFFFFFFFFFFFFFFFFFFFFFFFFFFFFFFFFFF AND DUP2 MSTORE PUSH1 0x20 ADD SWAP1 DUP2 MSTORE PUSH1 0x20 ADD PUSH0 KECCAK256 DUP3 DUP2 SLOAD DUP2 LT PUSH2 0x1AA4 JUMPI PUSH2 0x1AA3 PUSH2 0x3114 JUMP JUMPDEST JUMPDEST SWAP1 PUSH0 MSTORE PUSH1 0x20 PUSH0 KECCAK256 SWAP1 PUSH1 0x2 MUL ADD PUSH1 0x1 ADD SLOAD GT ISZERO DUP1 ISZERO PUSH2 0x1B1E JUMPI POP PUSH0 PUSH1 0xD PUSH0 DUP6 PUSH20 0xFFFFFFFFFFFFFFFFFFFFFFFFFFFFFFFFFFFFFFFF AND PUSH20 0xFFFFFFFFFFFFFFFFFFFFFFFFFFFFFFFFFFFFFFFF AND DUP2 MSTORE PUSH1 0x20 ADD SWAP1 DUP2 MSTORE PUSH1 0x20 ADD PUSH0 KECCAK256 DUP3 DUP2 SLOAD DUP2 LT PUSH2 0x1B0D JUMPI PUSH2 0x1B0C PUSH2 0x3114 JUMP JUMPDEST JUMPDEST SWAP1 PUSH0 MSTORE PUSH1 0x20 PUSH0 KECCAK256 SWAP1 PUSH1 0x2 MUL ADD PUSH0 ADD SLOAD GT JUMPDEST ISZERO PUSH2 0x1BF1 JUMPI PUSH1 0xD PUSH0 DUP5 PUSH20 0xFFFFFFFFFFFFFFFFFFFFFFFFFFFFFFFFFFFFFFFF AND PUSH20 0xFFFFFFFFFFFFFFFFFFFFFFFFFFFFFFFFFFFFFFFF AND DUP2 MSTORE PUSH1 0x20 ADD SWAP1 DUP2 MSTORE PUSH1 0x20 ADD PUSH0 KECCAK256 DUP2 DUP2 SLOAD DUP2 LT PUSH2 0x1B72 JUMPI PUSH2 0x1B71 PUSH2 0x3114 JUMP JUMPDEST JUMPDEST SWAP1 PUSH0 MSTORE PUSH1 0x20 PUSH0 KECCAK256 SWAP1 PUSH1 0x2 MUL ADD PUSH0 ADD SLOAD DUP3 PUSH2 0x1B8C SWAP2 SWAP1 PUSH2 0x30E1 JUMP JUMPDEST SWAP2 POP PUSH0 PUSH1 0xD PUSH0 DUP6 PUSH20 0xFFFFFFFFFFFFFFFFFFFFFFFFFFFFFFFFFFFFFFFF AND PUSH20 0xFFFFFFFFFFFFFFFFFFFFFFFFFFFFFFFFFFFFFFFF AND DUP2 MSTORE PUSH1 0x20 ADD SWAP1 DUP2 MSTORE PUSH1 0x20 ADD PUSH0 KECCAK256 DUP3 DUP2 SLOAD DUP2 LT PUSH2 0x1BDE JUMPI PUSH2 0x1BDD PUSH2 0x3114 JUMP JUMPDEST JUMPDEST SWAP1 PUSH0 MSTORE PUSH1 0x20 PUSH0 KECCAK256 SWAP1 PUSH1 0x2 MUL ADD PUSH0 ADD DUP2 SWAP1 SSTORE POP JUMPDEST DUP1 DUP1 PUSH1 0x1 ADD SWAP2 POP POP PUSH2 0x1A0C JUMP JUMPDEST POP PUSH0 DUP2 GT ISZERO PUSH2 0x1CA9 JUMPI DUP1 PUSH1 0xE PUSH0 DUP5 PUSH20 0xFFFFFFFFFFFFFFFFFFFFFFFFFFFFFFFFFFFFFFFF AND PUSH20 0xFFFFFFFFFFFFFFFFFFFFFFFFFFFFFFFFFFFFFFFF AND DUP2 MSTORE PUSH1 0x20 ADD SWAP1 DUP2 MSTORE PUSH1 0x20 ADD PUSH0 KECCAK256 PUSH0 DUP3 DUP3 SLOAD PUSH2 0x1C53 SWAP2 SWAP1 PUSH2 0x2F0E JUMP JUMPDEST SWAP3 POP POP DUP2 SWAP1 SSTORE POP DUP2 PUSH20 0xFFFFFFFFFFFFFFFFFFFFFFFFFFFFFFFFFFFFFFFF AND PUSH32 0xE7B379C6C1FA169E9079C25E9143B127637EEF8EC8C9D5C06DDB4AB3E1195888 DUP3 PUSH1 0x40 MLOAD PUSH2 0x1CA0 SWAP2 SWAP1 PUSH2 0x2A27 JUMP JUMPDEST PUSH1 0x40 MLOAD DUP1 SWAP2 SUB SWAP1 LOG2 JUMPDEST POP POP JUMP JUMPDEST PUSH1 0xA PUSH0 SWAP1 SLOAD SWAP1 PUSH2 0x100 EXP SWAP1 DIV PUSH20 0xFFFFFFFFFFFFFFFFFFFFFFFFFFFFFFFFFFFFFFFF AND PUSH20 0xFFFFFFFFFFFFFFFFFFFFFFFFFFFFFFFFFFFFFFFF AND CALLER PUSH20 0xFFFFFFFFFFFFFFFFFFFFFFFFFFFFFFFFFFFFFFFF AND EQ PUSH2 0x1D33 JUMPI PUSH1 0x40 MLOAD PUSH32 0x30CD747100000000000000000000000000000000000000000000000000000000 DUP2 MSTORE PUSH1 0x4 ADD PUSH1 0x40 MLOAD DUP1 SWAP2 SUB SWAP1 REVERT JUMPDEST DUP1 PUSH0 PUSH20 0xFFFFFFFFFFFFFFFFFFFFFFFFFFFFFFFFFFFFFFFF AND DUP2 PUSH20 0xFFFFFFFFFFFFFFFFFFFFFFFFFFFFFFFFFFFFFFFF AND SUB PUSH2 0x1D99 JUMPI PUSH1 0x40 MLOAD PUSH32 0xD92E233D00000000000000000000000000000000000000000000000000000000 DUP2 MSTORE PUSH1 0x4 ADD PUSH1 0x40 MLOAD DUP1 SWAP2 SUB SWAP1 REVERT JUMPDEST DUP2 PUSH1 0x7 PUSH0 PUSH2 0x100 EXP DUP2 SLOAD DUP2 PUSH20 0xFFFFFFFFFFFFFFFFFFFFFFFFFFFFFFFFFFFFFFFF MUL NOT AND SWAP1 DUP4 PUSH20 0xFFFFFFFFFFFFFFFFFFFFFFFFFFFFFFFFFFFFFFFF AND MUL OR SWAP1 SSTORE POP PUSH32 0xE5693914D19C789BDEE50A362998C0BC8D035A835F9871DA5D51152F0582C34F DUP3 PUSH1 0x40 MLOAD PUSH2 0x1E08 SWAP2 SWAP1 PUSH2 0x2DDD JUMP JUMPDEST PUSH1 0x40 MLOAD DUP1 SWAP2 SUB SWAP1 LOG1 POP POP JUMP JUMPDEST PUSH1 0x4 SLOAD DUP2 JUMP JUMPDEST PUSH1 0xE PUSH1 0x20 MSTORE DUP1 PUSH0 MSTORE PUSH1 0x40 PUSH0 KECCAK256 PUSH0 SWAP2 POP SWAP1 POP SLOAD DUP2 JUMP JUMPDEST PUSH1 0xF PUSH1 0x20 MSTORE DUP1 PUSH0 MSTORE PUSH1 0x40 PUSH0 KECCAK256 PUSH0 SWAP2 POP SLOAD SWAP1 PUSH2 0x100 EXP SWAP1 DIV PUSH1 0xFF AND DUP2 JUMP JUMPDEST PUSH0 PUSH1 0x6 PUSH0 DUP5 PUSH20 0xFFFFFFFFFFFFFFFFFFFFFFFFFFFFFFFFFFFFFFFF AND PUSH20 0xFFFFFFFFFFFFFFFFFFFFFFFFFFFFFFFFFFFFFFFF AND DUP2 MSTORE PUSH1 0x20 ADD SWAP1 DUP2 MSTORE PUSH1 0x20 ADD PUSH0 KECCAK256 PUSH0 DUP4 PUSH20 0xFFFFFFFFFFFFFFFFFFFFFFFFFFFFFFFFFFFFFFFF AND PUSH20 0xFFFFFFFFFFFFFFFFFFFFFFFFFFFFFFFFFFFFFFFF AND DUP2 MSTORE PUSH1 0x20 ADD SWAP1 DUP2 MSTORE PUSH1 0x20 ADD PUSH0 KECCAK256 SLOAD SWAP1 POP SWAP3 SWAP2 POP POP JUMP JUMPDEST PUSH1 0xA PUSH0 SWAP1 SLOAD SWAP1 PUSH2 0x100 EXP SWAP1 DIV PUSH20 0xFFFFFFFFFFFFFFFFFFFFFFFFFFFFFFFFFFFFFFFF AND PUSH20 0xFFFFFFFFFFFFFFFFFFFFFFFFFFFFFFFFFFFFFFFF AND CALLER PUSH20 0xFFFFFFFFFFFFFFFFFFFFFFFFFFFFFFFFFFFFFFFF AND EQ PUSH2 0x1F54 JUMPI PUSH1 0x40 MLOAD PUSH32 0x30CD747100000000000000000000000000000000000000000000000000000000 DUP2 MSTORE PUSH1 0x4 ADD PUSH1 0x40 MLOAD DUP1 SWAP2 SUB SWAP1 REVERT JUMPDEST PUSH1 0x1 PUSH1 0xF PUSH0 DUP4 PUSH20 0xFFFFFFFFFFFFFFFFFFFFFFFFFFFFFFFFFFFFFFFF AND PUSH20 0xFFFFFFFFFFFFFFFFFFFFFFFFFFFFFFFFFFFFFFFF AND DUP2 MSTORE PUSH1 0x20 ADD SWAP1 DUP2 MSTORE PUSH1 0x20 ADD PUSH0 KECCAK256 PUSH0 PUSH2 0x100 EXP DUP2 SLOAD DUP2 PUSH1 0xFF MUL NOT AND SWAP1 DUP4 ISZERO ISZERO MUL OR SWAP1 SSTORE POP DUP1 PUSH20 0xFFFFFFFFFFFFFFFFFFFFFFFFFFFFFFFFFFFFFFFF AND PUSH32 0xDAF49AB9345B6CB75BCB5A7F726BFF9183C34DCF5C098C385730F9FD893765F6 PUSH1 0x40 MLOAD PUSH1 0x40 MLOAD DUP1 SWAP2 SUB SWAP1 LOG2 POP JUMP JUMPDEST PUSH1 0xA PUSH0 SWAP1 SLOAD SWAP1 PUSH2 0x100 EXP SWAP1 DIV PUSH20 0xFFFFFFFFFFFFFFFFFFFFFFFFFFFFFFFFFFFFFFFF AND PUSH20 0xFFFFFFFFFFFFFFFFFFFFFFFFFFFFFFFFFFFFFFFF AND CALLER PUSH20 0xFFFFFFFFFFFFFFFFFFFFFFFFFFFFFFFFFFFFFFFF AND EQ PUSH2 0x2075 JUMPI PUSH1 0x40 MLOAD PUSH32 0x30CD747100000000000000000000000000000000000000000000000000000000 DUP2 MSTORE PUSH1 0x4 ADD PUSH1 0x40 MLOAD DUP1 SWAP2 SUB SWAP1 REVERT JUMPDEST DUP1 PUSH0 PUSH20 0xFFFFFFFFFFFFFFFFFFFFFFFFFFFFFFFFFFFFFFFF AND DUP2 PUSH20 0xFFFFFFFFFFFFFFFFFFFFFFFFFFFFFFFFFFFFFFFF AND SUB PUSH2 0x20DB JUMPI PUSH1 0x40 MLOAD PUSH32 0xD92E233D00000000000000000000000000000000000000000000000000000000 DUP2 MSTORE PUSH1 0x4 ADD PUSH1 0x40 MLOAD DUP1 SWAP2 SUB SWAP1 REVERT JUMPDEST PUSH1 0x1 PUSH1 0xC PUSH0 DUP5 PUSH20 0xFFFFFFFFFFFFFFFFFFFFFFFFFFFFFFFFFFFFFFFF AND PUSH20 0xFFFFFFFFFFFFFFFFFFFFFFFFFFFFFFFFFFFFFFFF AND DUP2 MSTORE PUSH1 0x20 ADD SWAP1 DUP2 MSTORE PUSH1 0x20 ADD PUSH0 KECCAK256 PUSH0 PUSH2 0x100 EXP DUP2 SLOAD DUP2 PUSH1 0xFF MUL NOT AND SWAP1 DUP4 ISZERO ISZERO MUL OR SWAP1 SSTORE POP POP POP JUMP JUMPDEST PUSH1 0xB PUSH1 0x20 MSTORE DUP1 PUSH0 MSTORE PUSH1 0x40 PUSH0 KECCAK256 PUSH0 SWAP2 POP SLOAD SWAP1 PUSH2 0x100 EXP SWAP1 DIV PUSH1 0xFF AND DUP2 JUMP JUMPDEST DUP1 PUSH1 0x6 PUSH0 DUP6 PUSH20 0xFFFFFFFFFFFFFFFFFFFFFFFFFFFFFFFFFFFFFFFF AND PUSH20 0xFFFFFFFFFFFFFFFFFFFFFFFFFFFFFFFFFFFFFFFF AND DUP2 MSTORE PUSH1 0x20 ADD SWAP1 DUP2 MSTORE PUSH1 0x20 ADD PUSH0 KECCAK256 PUSH0 DUP5 PUSH20 0xFFFFFFFFFFFFFFFFFFFFFFFFFFFFFFFFFFFFFFFF AND PUSH20 0xFFFFFFFFFFFFFFFFFFFFFFFFFFFFFFFFFFFFFFFF AND DUP2 MSTORE PUSH1 0x20 ADD SWAP1 DUP2 MSTORE PUSH1 0x20 ADD PUSH0 KECCAK256 DUP2 SWAP1 SSTORE POP DUP2 PUSH20 0xFFFFFFFFFFFFFFFFFFFFFFFFFFFFFFFFFFFFFFFF AND DUP4 PUSH20 0xFFFFFFFFFFFFFFFFFFFFFFFFFFFFFFFFFFFFFFFF AND PUSH32 0x8C5BE1E5EBEC7D5BD14F71427D1E84F3DD0314C0F7B2291E5B200AC8C7C3B925 DUP4 PUSH1 0x40 MLOAD PUSH2 0x222B SWAP2 SWAP1 PUSH2 0x2A27 JUMP JUMPDEST PUSH1 0x40 MLOAD DUP1 SWAP2 SUB SWAP1 LOG3 POP POP POP JUMP JUMPDEST PUSH0 PUSH2 0x2243 DUP5 DUP5 PUSH2 0x1E4C JUMP JUMPDEST SWAP1 POP PUSH32 0xFFFFFFFFFFFFFFFFFFFFFFFFFFFFFFFFFFFFFFFFFFFFFFFFFFFFFFFFFFFFFFFF DUP2 EQ PUSH2 0x22BD JUMPI DUP2 DUP2 LT ISZERO PUSH2 0x22A6 JUMPI PUSH1 0x40 MLOAD PUSH32 0xF4D678B800000000000000000000000000000000000000000000000000000000 DUP2 MSTORE PUSH1 0x4 ADD PUSH1 0x40 MLOAD DUP1 SWAP2 SUB SWAP1 REVERT JUMPDEST PUSH2 0x22BC DUP5 DUP5 DUP5 DUP5 PUSH2 0x22B7 SWAP2 SWAP1 PUSH2 0x2F0E JUMP JUMPDEST PUSH2 0x2151 JUMP JUMPDEST JUMPDEST POP POP POP POP JUMP JUMPDEST PUSH0 PUSH20 0xFFFFFFFFFFFFFFFFFFFFFFFFFFFFFFFFFFFFFFFF AND DUP4 PUSH20 0xFFFFFFFFFFFFFFFFFFFFFFFFFFFFFFFFFFFFFFFF AND SUB PUSH2 0x2328 JUMPI PUSH1 0x40 MLOAD PUSH32 0xD92E233D00000000000000000000000000000000000000000000000000000000 DUP2 MSTORE PUSH1 0x4 ADD PUSH1 0x40 MLOAD DUP1 SWAP2 SUB SWAP1 REVERT JUMPDEST PUSH0 PUSH20 0xFFFFFFFFFFFFFFFFFFFFFFFFFFFFFFFFFFFFFFFF AND DUP3 PUSH20 0xFFFFFFFFFFFFFFFFFFFFFFFFFFFFFFFFFFFFFFFF AND SUB PUSH2 0x238D JUMPI PUSH1 0x40 MLOAD PUSH32 0xD92E233D00000000000000000000000000000000000000000000000000000000 DUP2 MSTORE PUSH1 0x4 ADD PUSH1 0x40 MLOAD DUP1 SWAP2 SUB SWAP1 REVERT JUMPDEST PUSH0 PUSH1 0x5 PUSH0 DUP6 PUSH20 0xFFFFFFFFFFFFFFFFFFFFFFFFFFFFFFFFFFFFFFFF AND PUSH20 0xFFFFFFFFFFFFFFFFFFFFFFFFFFFFFFFFFFFFFFFF AND DUP2 MSTORE PUSH1 0x20 ADD SWAP1 DUP2 MSTORE PUSH1 0x20 ADD PUSH0 KECCAK256 SLOAD SWAP1 POP DUP2 DUP2 LT ISZERO PUSH2 0x2408 JUMPI PUSH1 0x40 MLOAD PUSH32 0xF4D678B800000000000000000000000000000000000000000000000000000000 DUP2 MSTORE PUSH1 0x4 ADD PUSH1 0x40 MLOAD DUP1 SWAP2 SUB SWAP1 REVERT JUMPDEST PUSH0 PUSH2 0x2710 PUSH1 0x8 SLOAD DUP5 PUSH2 0x241A SWAP2 SWAP1 PUSH2 0x3141 JUMP JUMPDEST PUSH2 0x2424 SWAP2 SWAP1 PUSH2 0x31AF JUMP JUMPDEST SWAP1 POP PUSH0 DUP2 DUP5 PUSH2 0x2433 SWAP2 SWAP1 PUSH2 0x2F0E JUMP JUMPDEST SWAP1 POP DUP4 DUP4 PUSH2 0x2441 SWAP2 SWAP1 PUSH2 0x2F0E JUMP JUMPDEST PUSH1 0x5 PUSH0 DUP9 PUSH20 0xFFFFFFFFFFFFFFFFFFFFFFFFFFFFFFFFFFFFFFFF AND PUSH20 0xFFFFFFFFFFFFFFFFFFFFFFFFFFFFFFFFFFFFFFFF AND DUP2 MSTORE PUSH1 0x20 ADD SWAP1 DUP2 MSTORE PUSH1 0x20 ADD PUSH0 KECCAK256 DUP2 SWAP1 SSTORE POP DUP1 PUSH1 0x5 PUSH0 DUP8 PUSH20 0xFFFFFFFFFFFFFFFFFFFFFFFFFFFFFFFFFFFFFFFF AND PUSH20 0xFFFFFFFFFFFFFFFFFFFFFFFFFFFFFFFFFFFFFFFF AND DUP2 MSTORE PUSH1 0x20 ADD SWAP1 DUP2 MSTORE PUSH1 0x20 ADD PUSH0 KECCAK256 PUSH0 DUP3 DUP3 SLOAD PUSH2 0x24CE SWAP2 SWAP1 PUSH2 0x30E1 JUMP JUMPDEST SWAP3 POP POP DUP2 SWAP1 SSTORE POP PUSH0 DUP3 GT ISZERO PUSH2 0x2552 JUMPI DUP2 PUSH1 0x5 PUSH0 PUSH1 0x7 PUSH0 SWAP1 SLOAD SWAP1 PUSH2 0x100 EXP SWAP1 DIV PUSH20 0xFFFFFFFFFFFFFFFFFFFFFFFFFFFFFFFFFFFFFFFF AND PUSH20 0xFFFFFFFFFFFFFFFFFFFFFFFFFFFFFFFFFFFFFFFF AND PUSH20 0xFFFFFFFFFFFFFFFFFFFFFFFFFFFFFFFFFFFFFFFF AND DUP2 MSTORE PUSH1 0x20 ADD SWAP1 DUP2 MSTORE PUSH1 0x20 ADD PUSH0 KECCAK256 PUSH0 DUP3 DUP3 SLOAD PUSH2 0x254A SWAP2 SWAP1 PUSH2 0x30E1 JUMP JUMPDEST SWAP3 POP POP DUP2 SWAP1 SSTORE POP JUMPDEST DUP5 PUSH20 0xFFFFFFFFFFFFFFFFFFFFFFFFFFFFFFFFFFFFFFFF AND DUP7 PUSH20 0xFFFFFFFFFFFFFFFFFFFFFFFFFFFFFFFFFFFFFFFF AND PUSH32 0xDDF252AD1BE2C89B69C2B068FC378DAA952BA7F163C4A11628F55A4DF523B3EF DUP4 PUSH1 0x40 MLOAD PUSH2 0x25AF SWAP2 SWAP1 PUSH2 0x2A27 JUMP JUMPDEST PUSH1 0x40 MLOAD DUP1 SWAP2 SUB SWAP1 LOG3 PUSH0 DUP3 GT ISZERO PUSH2 0x2646 JUMPI PUSH1 0x7 PUSH0 SWAP1 SLOAD SWAP1 PUSH2 0x100 EXP SWAP1 DIV PUSH20 0xFFFFFFFFFFFFFFFFFFFFFFFFFFFFFFFFFFFFFFFF AND PUSH20 0xFFFFFFFFFFFFFFFFFFFFFFFFFFFFFFFFFFFFFFFF AND DUP7 PUSH20 0xFFFFFFFFFFFFFFFFFFFFFFFFFFFFFFFFFFFFFFFF AND PUSH32 0xDDF252AD1BE2C89B69C2B068FC378DAA952BA7F163C4A11628F55A4DF523B3EF DUP5 PUSH1 0x40 MLOAD PUSH2 0x263D SWAP2 SWAP1 PUSH2 0x2A27 JUMP JUMPDEST PUSH1 0x40 MLOAD DUP1 SWAP2 SUB SWAP1 LOG3 JUMPDEST POP POP POP POP POP POP JUMP JUMPDEST PUSH0 PUSH20 0xFFFFFFFFFFFFFFFFFFFFFFFFFFFFFFFFFFFFFFFF AND DUP3 PUSH20 0xFFFFFFFFFFFFFFFFFFFFFFFFFFFFFFFFFFFFFFFF AND SUB PUSH2 0x26B3 JUMPI PUSH1 0x40 MLOAD PUSH32 0xD92E233D00000000000000000000000000000000000000000000000000000000 DUP2 MSTORE PUSH1 0x4 ADD PUSH1 0x40 MLOAD DUP1 SWAP2 SUB SWAP1 REVERT JUMPDEST PUSH0 DUP2 PUSH1 0x3 SLOAD PUSH2 0x26C2 SWAP2 SWAP1 PUSH2 0x30E1 JUMP JUMPDEST SWAP1 POP PUSH1 0x4 SLOAD DUP2 GT ISZERO PUSH2 0x2700 JUMPI PUSH1 0x40 MLOAD PUSH32 0xC30436E900000000000000000000000000000000000000000000000000000000 DUP2 MSTORE PUSH1 0x4 ADD PUSH1 0x40 MLOAD DUP1 SWAP2 SUB SWAP1 REVERT JUMPDEST DUP1 PUSH1 0x3 DUP2 SWAP1 SSTORE POP DUP2 PUSH1 0x5 PUSH0 DUP6 PUSH20 0xFFFFFFFFFFFFFFFFFFFFFFFFFFFFFFFFFFFFFFFF AND PUSH20 0xFFFFFFFFFFFFFFFFFFFFFFFFFFFFFFFFFFFFFFFF AND DUP2 MSTORE PUSH1 0x20 ADD SWAP1 DUP2 MSTORE PUSH1 0x20 ADD PUSH0 KECCAK256 PUSH0 DUP3 DUP3 SLOAD PUSH2 0x2753 SWAP2 SWAP1 PUSH2 0x30E1 JUMP JUMPDEST SWAP3 POP POP DUP2 SWAP1 SSTORE POP DUP3 PUSH20 0xFFFFFFFFFFFFFFFFFFFFFFFFFFFFFFFFFFFFFFFF AND PUSH32 0xF6798A560793A54C3BCFE86A93CDE1E73087D944C0EA20544137D4121396885 DUP4 PUSH1 0x40 MLOAD PUSH2 0x27A0 SWAP2 SWAP1 PUSH2 0x2A27 JUMP JUMPDEST PUSH1 0x40 MLOAD DUP1 SWAP2 SUB SWAP1 LOG2 DUP3 PUSH20 0xFFFFFFFFFFFFFFFFFFFFFFFFFFFFFFFFFFFFFFFF AND PUSH0 PUSH20 0xFFFFFFFFFFFFFFFFFFFFFFFFFFFFFFFFFFFFFFFF AND PUSH32 0xDDF252AD1BE2C89B69C2B068FC378DAA952BA7F163C4A11628F55A4DF523B3EF DUP5 PUSH1 0x40 MLOAD PUSH2 0x2805 SWAP2 SWAP1 PUSH2 0x2A27 JUMP JUMPDEST PUSH1 0x40 MLOAD DUP1 SWAP2 SUB SWAP1 LOG3 POP POP POP JUMP JUMPDEST PUSH0 PUSH20 0xFFFFFFFFFFFFFFFFFFFFFFFFFFFFFFFFFFFFFFFF AND DUP3 PUSH20 0xFFFFFFFFFFFFFFFFFFFFFFFFFFFFFFFFFFFFFFFF AND SUB PUSH2 0x2877 JUMPI PUSH1 0x40 MLOAD PUSH32 0xD92E233D00000000000000000000000000000000000000000000000000000000 DUP2 MSTORE PUSH1 0x4 ADD PUSH1 0x40 MLOAD DUP1 SWAP2 SUB SWAP1 REVERT JUMPDEST PUSH0 PUSH1 0x5 PUSH0 DUP5 PUSH20 0xFFFFFFFFFFFFFFFFFFFFFFFFFFFFFFFFFFFFFFFF AND PUSH20 0xFFFFFFFFFFFFFFFFFFFFFFFFFFFFFFFFFFFFFFFF AND DUP2 MSTORE PUSH1 0x20 ADD SWAP1 DUP2 MSTORE PUSH1 0x20 ADD PUSH0 KECCAK256 SLOAD SWAP1 POP DUP2 DUP2 LT ISZERO PUSH2 0x28F2 JUMPI PUSH1 0x40 MLOAD PUSH32 0xF4D678B800000000000000000000000000000000000000000000000000000000 DUP2 MSTORE PUSH1 0x4 ADD PUSH1 0x40 MLOAD DUP1 SWAP2 SUB SWAP1 REVERT JUMPDEST DUP2 DUP2 PUSH2 0x28FE SWAP2 SWAP1 PUSH2 0x2F0E JUMP JUMPDEST PUSH1 0x5 PUSH0 DUP6 PUSH20 0xFFFFFFFFFFFFFFFFFFFFFFFFFFFFFFFFFFFFFFFF AND PUSH20 0xFFFFFFFFFFFFFFFFFFFFFFFFFFFFFFFFFFFFFFFF AND DUP2 MSTORE PUSH1 0x20 ADD SWAP1 DUP2 MSTORE PUSH1 0x20 ADD PUSH0 KECCAK256 DUP2 SWAP1 SSTORE POP DUP2 PUSH1 0x3 PUSH0 DUP3 DUP3 SLOAD PUSH2 0x2950 SWAP2 SWAP1 PUSH2 0x2F0E JUMP JUMPDEST SWAP3 POP POP DUP2 SWAP1 SSTORE POP DUP3 PUSH20 0xFFFFFFFFFFFFFFFFFFFFFFFFFFFFFFFFFFFFFFFF AND PUSH32 0xCC16F5DBB4873280815C1EE09DBD06736CFFCC184412CF7A71A0FDB75D397CA5 DUP4 PUSH1 0x40 MLOAD PUSH2 0x299D SWAP2 SWAP1 PUSH2 0x2A27 JUMP JUMPDEST PUSH1 0x40 MLOAD DUP1 SWAP2 SUB SWAP1 LOG2 PUSH0 PUSH20 0xFFFFFFFFFFFFFFFFFFFFFFFFFFFFFFFFFFFFFFFF AND DUP4 PUSH20 0xFFFFFFFFFFFFFFFFFFFFFFFFFFFFFFFFFFFFFFFF AND PUSH32 0xDDF252AD1BE2C89B69C2B068FC378DAA952BA7F163C4A11628F55A4DF523B3EF DUP5 PUSH1 0x40 MLOAD PUSH2 0x2A02 SWAP2 SWAP1 PUSH2 0x2A27 JUMP JUMPDEST PUSH1 0x40 MLOAD DUP1 SWAP2 SUB SWAP1 LOG3 POP POP POP JUMP JUMPDEST PUSH0 DUP2 SWAP1 POP SWAP2 SWAP1 POP JUMP JUMPDEST PUSH2 0x2A21 DUP2 PUSH2 0x2A0F JUMP JUMPDEST DUP3 MSTORE POP POP JUMP JUMPDEST PUSH0 PUSH1 0x20 DUP3 ADD SWAP1 POP PUSH2 0x2A3A PUSH0 DUP4 ADD DUP5 PUSH2 0x2A18 JUMP JUMPDEST SWAP3 SWAP2 POP POP JUMP JUMPDEST PUSH0 PUSH0 REVERT JUMPDEST PUSH0 PUSH20 0xFFFFFFFFFFFFFFFFFFFFFFFFFFFFFFFFFFFFFFFF DUP3 AND SWAP1 POP SWAP2 SWAP1 POP JUMP JUMPDEST PUSH0 PUSH2 0x2A6D DUP3 PUSH2 0x2A44 JUMP JUMPDEST SWAP1 POP SWAP2 SWAP1 POP JUMP JUMPDEST PUSH2 0x2A7D DUP2 PUSH2 0x2A63 JUMP JUMPDEST DUP2 EQ PUSH2 0x2A87 JUMPI PUSH0 PUSH0 REVERT JUMPDEST POP JUMP JUMPDEST PUSH0 DUP2 CALLDATALOAD SWAP1 POP PUSH2 0x2A98 DUP2 PUSH2 0x2A74 JUMP JUMPDEST SWAP3 SWAP2 POP POP JUMP JUMPDEST PUSH0 PUSH1 0x20 DUP3 DUP5 SUB SLT ISZERO PUSH2 0x2AB3 JUMPI PUSH2 0x2AB2 PUSH2 0x2A40 JUMP JUMPDEST JUMPDEST PUSH0 PUSH2 0x2AC0 DUP5 DUP3 DUP6 ADD PUSH2 0x2A8A JUMP JUMPDEST SWAP2 POP POP SWAP3 SWAP2 POP POP JUMP JUMPDEST PUSH0 DUP2 ISZERO ISZERO SWAP1 POP SWAP2 SWAP1 POP JUMP JUMPDEST PUSH2 0x2ADD DUP2 PUSH2 0x2AC9 JUMP JUMPDEST DUP3 MSTORE POP POP JUMP JUMPDEST PUSH0 PUSH1 0x20 DUP3 ADD SWAP1 POP PUSH2 0x2AF6 PUSH0 DUP4 ADD DUP5 PUSH2 0x2AD4 JUMP JUMPDEST SWAP3 SWAP2 POP POP JUMP JUMPDEST PUSH0 DUP2 MLOAD SWAP1 POP SWAP2 SWAP1 POP JUMP JUMPDEST PUSH0 DUP3 DUP3 MSTORE PUSH1 0x20 DUP3 ADD SWAP1 POP SWAP3 SWAP2 POP POP JUMP JUMPDEST DUP3 DUP2 DUP4 MCOPY PUSH0 DUP4 DUP4 ADD MSTORE POP POP POP JUMP JUMPDEST PUSH0 PUSH1 0x1F NOT PUSH1 0x1F DUP4 ADD AND SWAP1 POP SWAP2 SWAP1 POP JUMP JUMPDEST PUSH0 PUSH2 0x2B3E DUP3 PUSH2 0x2AFC JUMP JUMPDEST PUSH2 0x2B48 DUP2 DUP6 PUSH2 0x2B06 JUMP JUMPDEST SWAP4 POP PUSH2 0x2B58 DUP2 DUP6 PUSH1 0x20 DUP7 ADD PUSH2 0x2B16 JUMP JUMPDEST PUSH2 0x2B61 DUP2 PUSH2 0x2B24 JUMP JUMPDEST DUP5 ADD SWAP2 POP POP SWAP3 SWAP2 POP POP JUMP JUMPDEST PUSH0 PUSH1 0x20 DUP3 ADD SWAP1 POP DUP2 DUP2 SUB PUSH0 DUP4 ADD MSTORE PUSH2 0x2B84 DUP2 DUP5 PUSH2 0x2B34 JUMP JUMPDEST SWAP1 POP SWAP3 SWAP2 POP POP JUMP JUMPDEST PUSH2 0x2B95 DUP2 PUSH2 0x2A0F JUMP JUMPDEST DUP2 EQ PUSH2 0x2B9F JUMPI PUSH0 PUSH0 REVERT JUMPDEST POP JUMP JUMPDEST PUSH0 DUP2 CALLDATALOAD SWAP1 POP PUSH2 0x2BB0 DUP2 PUSH2 0x2B8C JUMP JUMPDEST SWAP3 SWAP2 POP POP JUMP JUMPDEST PUSH0 PUSH0 PUSH1 0x40 DUP4 DUP6 SUB SLT ISZERO PUSH2 0x2BCC JUMPI PUSH2 0x2BCB PUSH2 0x2A40 JUMP JUMPDEST JUMPDEST PUSH0 PUSH2 0x2BD9 DUP6 DUP3 DUP7 ADD PUSH2 0x2A8A JUMP JUMPDEST SWAP3 POP POP PUSH1 0x20 PUSH2 0x2BEA DUP6 DUP3 DUP7 ADD PUSH2 0x2BA2 JUMP JUMPDEST SWAP2 POP POP SWAP3 POP SWAP3 SWAP1 POP JUMP JUMPDEST PUSH0 DUP2 MLOAD SWAP1 POP SWAP2 SWAP1 POP JUMP JUMPDEST PUSH0 DUP3 DUP3 MSTORE PUSH1 0x20 DUP3 ADD SWAP1 POP SWAP3 SWAP2 POP POP JUMP JUMPDEST PUSH0 DUP2 SWAP1 POP PUSH1 0x20 DUP3 ADD SWAP1 POP SWAP2 SWAP1 POP JUMP JUMPDEST PUSH2 0x2C26 DUP2 PUSH2 0x2A0F JUMP JUMPDEST DUP3 MSTORE POP POP JUMP JUMPDEST PUSH1 0x40 DUP3 ADD PUSH0 DUP3 ADD MLOAD PUSH2 0x2C40 PUSH0 DUP6 ADD DUP3 PUSH2 0x2C1D JUMP JUMPDEST POP PUSH1 0x20 DUP3 ADD MLOAD PUSH2 0x2C53 PUSH1 0x20 DUP6 ADD DUP3 PUSH2 0x2C1D JUMP JUMPDEST POP POP POP POP JUMP JUMPDEST PUSH0 PUSH2 0x2C64 DUP4 DUP4 PUSH2 0x2C2C JUMP JUMPDEST PUSH1 0x40 DUP4 ADD SWAP1 POP SWAP3 SWAP2 POP POP JUMP JUMPDEST PUSH0 PUSH1 0x20 DUP3 ADD SWAP1 POP SWAP2 SWAP1 POP JUMP JUMPDEST PUSH0 PUSH2 0x2C86 DUP3 PUSH2 0x2BF4 JUMP JUMPDEST PUSH2 0x2C90 DUP2 DUP6 PUSH2 0x2BFE JUMP JUMPDEST SWAP4 POP PUSH2 0x2C9B DUP4 PUSH2 0x2C0E JUMP JUMPDEST DUP1 PUSH0 JUMPDEST DUP4 DUP2 LT ISZERO PUSH2 0x2CCB JUMPI DUP2 MLOAD PUSH2 0x2CB2 DUP9 DUP3 PUSH2 0x2C59 JUMP JUMPDEST SWAP8 POP PUSH2 0x2CBD DUP4 PUSH2 0x2C70 JUMP JUMPDEST SWAP3 POP POP PUSH1 0x1 DUP2 ADD SWAP1 POP PUSH2 0x2C9E JUMP JUMPDEST POP DUP6 SWAP4 POP POP POP POP SWAP3 SWAP2 POP POP JUMP JUMPDEST PUSH0 PUSH1 0x20 DUP3 ADD SWAP1 POP DUP2 DUP2 SUB PUSH0 DUP4 ADD MSTORE PUSH2 0x2CF0 DUP2 DUP5 PUSH2 0x2C7C JUMP JUMPDEST SWAP1 POP SWAP3 SWAP2 POP POP JUMP JUMPDEST PUSH0 PUSH0 PUSH0 PUSH1 0x60 DUP5 DUP7 SUB SLT ISZERO PUSH2 0x2D0F JUMPI PUSH2 0x2D0E PUSH2 0x2A40 JUMP JUMPDEST JUMPDEST PUSH0 PUSH2 0x2D1C DUP7 DUP3 DUP8 ADD PUSH2 0x2A8A JUMP JUMPDEST SWAP4 POP POP PUSH1 0x20 PUSH2 0x2D2D DUP7 DUP3 DUP8 ADD PUSH2 0x2A8A JUMP JUMPDEST SWAP3 POP POP PUSH1 0x40 PUSH2 0x2D3E DUP7 DUP3 DUP8 ADD PUSH2 0x2BA2 JUMP JUMPDEST SWAP2 POP POP SWAP3 POP SWAP3 POP SWAP3 JUMP JUMPDEST PUSH0 PUSH1 0xFF DUP3 AND SWAP1 POP SWAP2 SWAP1 POP JUMP JUMPDEST PUSH2 0x2D5D DUP2 PUSH2 0x2D48 JUMP JUMPDEST DUP3 MSTORE POP POP JUMP JUMPDEST PUSH0 PUSH1 0x20 DUP3 ADD SWAP1 POP PUSH2 0x2D76 PUSH0 DUP4 ADD DUP5 PUSH2 0x2D54 JUMP JUMPDEST SWAP3 SWAP2 POP POP JUMP JUMPDEST PUSH0 PUSH1 0x20 DUP3 DUP5 SUB SLT ISZERO PUSH2 0x2D91 JUMPI PUSH2 0x2D90 PUSH2 0x2A40 JUMP JUMPDEST JUMPDEST PUSH0 PUSH2 0x2D9E DUP5 DUP3 DUP6 ADD PUSH2 0x2BA2 JUMP JUMPDEST SWAP2 POP POP SWAP3 SWAP2 POP POP JUMP JUMPDEST PUSH0 PUSH1 0x40 DUP3 ADD SWAP1 POP PUSH2 0x2DBA PUSH0 DUP4 ADD DUP6 PUSH2 0x2A18 JUMP JUMPDEST PUSH2 0x2DC7 PUSH1 0x20 DUP4 ADD DUP5 PUSH2 0x2A18 JUMP JUMPDEST SWAP4 SWAP3 POP POP POP JUMP JUMPDEST PUSH2 0x2DD7 DUP2 PUSH2 0x2A63 JUMP JUMPDEST DUP3 MSTORE POP POP JUMP JUMPDEST PUSH0 PUSH1 0x20 DUP3 ADD SWAP1 POP PUSH2 0x2DF0 PUSH0 DUP4 ADD DUP5 PUSH2 0x2DCE JUMP JUMPDEST SWAP3 SWAP2 POP POP JUMP JUMPDEST PUSH0 PUSH0 PUSH0 PUSH1 0x60 DUP5 DUP7 SUB SLT ISZERO PUSH2 0x2E0D JUMPI PUSH2 0x2E0C PUSH2 0x2A40 JUMP JUMPDEST JUMPDEST PUSH0 PUSH2 0x2E1A DUP7 DUP3 DUP8 ADD PUSH2 0x2A8A JUMP JUMPDEST SWAP4 POP POP PUSH1 0x20 PUSH2 0x2E2B DUP7 DUP3 DUP8 ADD PUSH2 0x2BA2 JUMP JUMPDEST SWAP3 POP POP PUSH1 0x40 PUSH2 0x2E3C DUP7 DUP3 DUP8 ADD PUSH2 0x2BA2 JUMP JUMPDEST SWAP2 POP POP SWAP3 POP SWAP3 POP SWAP3 JUMP JUMPDEST PUSH0 PUSH0 PUSH1 0x40 DUP4 DUP6 SUB SLT ISZERO PUSH2 0x2E5C JUMPI PUSH2 0x2E5B PUSH2 0x2A40 JUMP JUMPDEST JUMPDEST PUSH0 PUSH2 0x2E69 DUP6 DUP3 DUP7 ADD PUSH2 0x2A8A JUMP JUMPDEST SWAP3 POP POP PUSH1 0x20 PUSH2 0x2E7A DUP6 DUP3 DUP7 ADD PUSH2 0x2A8A JUMP JUMPDEST SWAP2 POP POP SWAP3 POP SWAP3 SWAP1 POP JUMP JUMPDEST PUSH32 0x4E487B7100000000000000000000000000000000000000000000000000000000 PUSH0 MSTORE PUSH1 0x22 PUSH1 0x4 MSTORE PUSH1 0x24 PUSH0 REVERT JUMPDEST PUSH0 PUSH1 0x2 DUP3 DIV SWAP1 POP PUSH1 0x1 DUP3 AND DUP1 PUSH2 0x2EC8 JUMPI PUSH1 0x7F DUP3 AND SWAP2 POP JUMPDEST PUSH1 0x20 DUP3 LT DUP2 SUB PUSH2 0x2EDB JUMPI PUSH2 0x2EDA PUSH2 0x2E84 JUMP JUMPDEST JUMPDEST POP SWAP2 SWAP1 POP JUMP JUMPDEST PUSH32 0x4E487B7100000000000000000000000000000000000000000000000000000000 PUSH0 MSTORE PUSH1 0x11 PUSH1 0x4 MSTORE PUSH1 0x24 PUSH0 REVERT JUMPDEST PUSH0 PUSH2 0x2F18 DUP3 PUSH2 0x2A0F JUMP JUMPDEST SWAP2 POP PUSH2 0x2F23 DUP4 PUSH2 0x2A0F JUMP JUMPDEST SWAP3 POP DUP3 DUP3 SUB SWAP1 POP DUP2 DUP2 GT ISZERO PUSH2 0x2F3B JUMPI PUSH2 0x2F3A PUSH2 0x2EE1 JUMP JUMPDEST JUMPDEST SWAP3 SWAP2 POP POP JUMP JUMPDEST PUSH32 0x496E73756666696369656E7420756E6C6F636B65642062616C616E6365000000 PUSH0 DUP3 ADD MSTORE POP JUMP JUMPDEST PUSH0 PUSH2 0x2F75 PUSH1 0x1D DUP4 PUSH2 0x2B06 JUMP JUMPDEST SWAP2 POP PUSH2 0x2F80 DUP3 PUSH2 0x2F41 JUMP JUMPDEST PUSH1 0x20 DUP3 ADD SWAP1 POP SWAP2 SWAP1 POP JUMP JUMPDEST PUSH0 PUSH1 0x20 DUP3 ADD SWAP1 POP DUP2 DUP2 SUB PUSH0 DUP4 ADD MSTORE PUSH2 0x2FA2 DUP2 PUSH2 0x2F69 JUMP JUMPDEST SWAP1 POP SWAP2 SWAP1 POP JUMP JUMPDEST PUSH32 0x416D6F756E74206D75737420626520706F736974697665000000000000000000 PUSH0 DUP3 ADD MSTORE POP JUMP JUMPDEST PUSH0 PUSH2 0x2FDD PUSH1 0x17 DUP4 PUSH2 0x2B06 JUMP JUMPDEST SWAP2 POP PUSH2 0x2FE8 DUP3 PUSH2 0x2FA9 JUMP JUMPDEST PUSH1 0x20 DUP3 ADD SWAP1 POP SWAP2 SWAP1 POP JUMP JUMPDEST PUSH0 PUSH1 0x20 DUP3 ADD SWAP1 POP DUP2 DUP2 SUB PUSH0 DUP4 ADD MSTORE PUSH2 0x300A DUP2 PUSH2 0x2FD1 JUMP JUMPDEST SWAP1 POP SWAP2 SWAP1 POP JUMP JUMPDEST PUSH32 0x556E6C6F636B2074696D65206D75737420626520696E20667574757265000000 PUSH0 DUP3 ADD MSTORE POP JUMP JUMPDEST PUSH0 PUSH2 0x3045 PUSH1 0x1D DUP4 PUSH2 0x2B06 JUMP JUMPDEST SWAP2 POP PUSH2 0x3050 DUP3 PUSH2 0x3011 JUMP JUMPDEST PUSH1 0x20 DUP3 ADD SWAP1 POP SWAP2 SWAP1 POP JUMP JUMPDEST PUSH0 PUSH1 0x20 DUP3 ADD SWAP1 POP DUP2 DUP2 SUB PUSH0 DUP4 ADD MSTORE PUSH2 0x3072 DUP2 PUSH2 0x3039 JUMP JUMPDEST SWAP1 POP SWAP2 SWAP1 POP JUMP JUMPDEST PUSH32 0x496E73756666696369656E742062616C616E6365000000000000000000000000 PUSH0 DUP3 ADD MSTORE POP JUMP JUMPDEST PUSH0 PUSH2 0x30AD PUSH1 0x14 DUP4 PUSH2 0x2B06 JUMP JUMPDEST SWAP2 POP PUSH2 0x30B8 DUP3 PUSH2 0x3079 JUMP JUMPDEST PUSH1 0x20 DUP3 ADD SWAP1 POP SWAP2 SWAP1 POP JUMP JUMPDEST PUSH0 PUSH1 0x20 DUP3 ADD SWAP1 POP DUP2 DUP2 SUB PUSH0 DUP4 ADD MSTORE PUSH2 0x30DA DUP2 PUSH2 0x30A1 JUMP JUMPDEST SWAP1 POP SWAP2 SWAP1 POP JUMP JUMPDEST PUSH0 PUSH2 0x30EB DUP3 PUSH2 0x2A0F JUMP JUMPDEST SWAP2 POP PUSH2 0x30F6 DUP4 PUSH2 0x2A0F JUMP JUMPDEST SWAP3 POP DUP3 DUP3 ADD SWAP1 POP DUP1 DUP3 GT ISZERO PUSH2 0x310E JUMPI PUSH2 0x310D PUSH2 0x2EE1 JUMP JUMPDEST JUMPDEST SWAP3 SWAP2 POP POP JUMP JUMPDEST PUSH32 0x4E487B7100000000000000000000000000000000000000000000000000000000 PUSH0 MSTORE PUSH1 0x32 PUSH1 0x4 MSTORE PUSH1 0x24 PUSH0 REVERT JUMPDEST PUSH0 PUSH2 0x314B DUP3 PUSH2 0x2A0F JUMP JUMPDEST SWAP2 POP PUSH2 0x3156 DUP4 PUSH2 0x2A0F JUMP JUMPDEST SWAP3 POP DUP3 DUP3 MUL PUSH2 0x3164 DUP2 PUSH2 0x2A0F JUMP JUMPDEST SWAP2 POP DUP3 DUP3 DIV DUP5 EQ DUP4 ISZERO OR PUSH2 0x317B JUMPI PUSH2 0x317A PUSH2 0x2EE1 JUMP JUMPDEST JUMPDEST POP SWAP3 SWAP2 POP POP JUMP JUMPDEST PUSH32 0x4E487B7100000000000000000000000000000000000000000000000000000000 PUSH0 MSTORE PUSH1 0x12 PUSH1 0x4 MSTORE PUSH1 0x24 PUSH0 REVERT JUMPDEST PUSH0 PUSH2 0x31B9 DUP3 PUSH2 0x2A0F JUMP JUMPDEST SWAP2 POP PUSH2 0x31C4 DUP4 PUSH2 0x2A0F JUMP JUMPDEST SWAP3 POP DUP3 PUSH2 0x31D4 JUMPI PUSH2 0x31D3 PUSH2 0x3182 JUMP JUMPDEST JUMPDEST DUP3 DUP3 DIV SWAP1 POP SWAP3 SWAP2 POP POP JUMP INVALID LOG2 PUSH5 0x6970667358 0x22 SLT KECCAK256 PUSH20 0xA5C25E9FDC12105155989F2162C9DF052C9D3CEA BLOBHASH LOG2 MULMOD SWAP6 PUSH12 0x13E0F01B91A364736F6C6343 STOP ADDMOD 0x1E STOP CALLER "
				},
				"gasEstimates": {
					"creation": {
						"codeDepositCost": "2564200",
						"executionCost": "infinite",
						"totalCost": "infinite"
					},
					"external": {
						"addBurner(address)": "27121",
						"addMinter(address)": "27123",
						"allowance(address,address)": "infinite",
						"approve(address,uint256)": "infinite",
						"balanceOf(address)": "2940",
						"blacklistAddress(address)": "28221",
						"blacklisted(address)": "2877",
						"burn(uint256)": "infinite",
						"burnFrom(address,uint256)": "infinite",
						"burners(address)": "2924",
						"decimals()": "2556",
						"feeCollector()": "2619",
						"getLockDetails(address)": "infinite",
						"getUnlockedBalance(address)": "infinite",
						"lockTokens(address,uint256,uint256)": "infinite",
						"lockedBalances(address,uint256)": "infinite",
						"maxFee()": "2472",
						"maxSupply()": "2514",
						"mint(address,uint256)": "infinite",
						"minters(address)": "2965",
						"name()": "infinite",
						"owner()": "2554",
						"removeBurner(address)": "27079",
						"removeMinter(address)": "27078",
						"symbol()": "infinite",
						"totalLocked(address)": "2913",
						"totalSupply()": "2537",
						"transfer(address,uint256)": "infinite",
						"transferFee()": "2514",
						"transferFrom(address,address,uint256)": "infinite",
						"unlockTokens(address)": "infinite",
						"updateFee(uint256)": "infinite",
						"updateFeeCollector(address)": "infinite",
						"whitelistAddress(address)": "28177"
					},
					"internal": {
						"_approve(address,address,uint256)": "infinite",
						"_burn(address,uint256)": "infinite",
						"_mint(address,uint256)": "infinite",
						"_spendAllowance(address,address,uint256)": "infinite",
						"_transferWithFee(address,address,uint256)": "infinite"
					}
				},
				"methodIdentifiers": {
					"addBurner(address)": "f44637ba",
					"addMinter(address)": "983b2d56",
					"allowance(address,address)": "dd62ed3e",
					"approve(address,uint256)": "095ea7b3",
					"balanceOf(address)": "70a08231",
					"blacklistAddress(address)": "f3290d75",
					"blacklisted(address)": "dbac26e9",
					"burn(uint256)": "42966c68",
					"burnFrom(address,uint256)": "79cc6790",
					"burners(address)": "03d41e0e",
					"decimals()": "313ce567",
					"feeCollector()": "c415b95c",
					"getLockDetails(address)": "15056b54",
					"getUnlockedBalance(address)": "129de5bf",
					"lockTokens(address,uint256,uint256)": "a25983e5",
					"lockedBalances(address,uint256)": "5d16a6f9",
					"maxFee()": "01f59d16",
					"maxSupply()": "d5abeb01",
					"mint(address,uint256)": "40c10f19",
					"minters(address)": "f46eccc4",
					"name()": "06fdde03",
					"owner()": "8da5cb5b",
					"removeBurner(address)": "02846858",
					"removeMinter(address)": "3092afd5",
					"symbol()": "95d89b41",
					"totalLocked(address)": "d8fb9337",
					"totalSupply()": "18160ddd",
					"transfer(address,uint256)": "a9059cbb",
					"transferFee()": "acb2ad6f",
					"transferFrom(address,address,uint256)": "23b872dd",
					"unlockTokens(address)": "cb67f948",
					"updateFee(uint256)": "9012c4a8",
					"updateFeeCollector(address)": "d2c35ce8",
					"whitelistAddress(address)": "41566585"
				}
			},
			"storageLayout": {
				"storage": [
					{
						"astId": 3,
						"contract": "Solidity/Tokens/MasterToken.sol:MasterToken",
						"label": "name",
						"offset": 0,
						"slot": "0",
						"type": "t_string_storage"
					},
					{
						"astId": 5,
						"contract": "Solidity/Tokens/MasterToken.sol:MasterToken",
						"label": "symbol",
						"offset": 0,
						"slot": "1",
						"type": "t_string_storage"
					},
					{
						"astId": 7,
						"contract": "Solidity/Tokens/MasterToken.sol:MasterToken",
						"label": "decimals",
						"offset": 0,
						"slot": "2",
						"type": "t_uint8"
					},
					{
						"astId": 9,
						"contract": "Solidity/Tokens/MasterToken.sol:MasterToken",
						"label": "totalSupply",
						"offset": 0,
						"slot": "3",
						"type": "t_uint256"
					},
					{
						"astId": 11,
						"contract": "Solidity/Tokens/MasterToken.sol:MasterToken",
						"label": "maxSupply",
						"offset": 0,
						"slot": "4",
						"type": "t_uint256"
					},
					{
						"astId": 15,
						"contract": "Solidity/Tokens/MasterToken.sol:MasterToken",
						"label": "_balances",
						"offset": 0,
						"slot": "5",
						"type": "t_mapping(t_address,t_uint256)"
					},
					{
						"astId": 21,
						"contract": "Solidity/Tokens/MasterToken.sol:MasterToken",
						"label": "_allowances",
						"offset": 0,
						"slot": "6",
						"type": "t_mapping(t_address,t_mapping(t_address,t_uint256))"
					},
					{
						"astId": 23,
						"contract": "Solidity/Tokens/MasterToken.sol:MasterToken",
						"label": "feeCollector",
						"offset": 0,
						"slot": "7",
						"type": "t_address"
					},
					{
						"astId": 25,
						"contract": "Solidity/Tokens/MasterToken.sol:MasterToken",
						"label": "transferFee",
						"offset": 0,
						"slot": "8",
						"type": "t_uint256"
					},
					{
						"astId": 28,
						"contract": "Solidity/Tokens/MasterToken.sol:MasterToken",
						"label": "maxFee",
						"offset": 0,
						"slot": "9",
						"type": "t_uint256"
					},
					{
						"astId": 30,
						"contract": "Solidity/Tokens/MasterToken.sol:MasterToken",
						"label": "owner",
						"offset": 0,
						"slot": "10",
						"type": "t_address"
					},
					{
						"astId": 34,
						"contract": "Solidity/Tokens/MasterToken.sol:MasterToken",
						"label": "minters",
						"offset": 0,
						"slot": "11",
						"type": "t_mapping(t_address,t_bool)"
					},
					{
						"astId": 38,
						"contract": "Solidity/Tokens/MasterToken.sol:MasterToken",
						"label": "burners",
						"offset": 0,
						"slot": "12",
						"type": "t_mapping(t_address,t_bool)"
					},
					{
						"astId": 44,
						"contract": "Solidity/Tokens/MasterToken.sol:MasterToken",
						"label": "lockedBalances",
						"offset": 0,
						"slot": "13",
						"type": "t_mapping(t_address,t_array(t_struct(LockedBalance)57_storage)dyn_storage)"
					},
					{
						"astId": 48,
						"contract": "Solidity/Tokens/MasterToken.sol:MasterToken",
						"label": "totalLocked",
						"offset": 0,
						"slot": "14",
						"type": "t_mapping(t_address,t_uint256)"
					},
					{
						"astId": 52,
						"contract": "Solidity/Tokens/MasterToken.sol:MasterToken",
						"label": "blacklisted",
						"offset": 0,
						"slot": "15",
						"type": "t_mapping(t_address,t_bool)"
					}
				],
				"types": {
					"t_address": {
						"encoding": "inplace",
						"label": "address",
						"numberOfBytes": "20"
					},
					"t_array(t_struct(LockedBalance)57_storage)dyn_storage": {
						"base": "t_struct(LockedBalance)57_storage",
						"encoding": "dynamic_array",
						"label": "struct MasterToken.LockedBalance[]",
						"numberOfBytes": "32"
					},
					"t_bool": {
						"encoding": "inplace",
						"label": "bool",
						"numberOfBytes": "1"
					},
					"t_mapping(t_address,t_array(t_struct(LockedBalance)57_storage)dyn_storage)": {
						"encoding": "mapping",
						"key": "t_address",
						"label": "mapping(address => struct MasterToken.LockedBalance[])",
						"numberOfBytes": "32",
						"value": "t_array(t_struct(LockedBalance)57_storage)dyn_storage"
					},
					"t_mapping(t_address,t_bool)": {
						"encoding": "mapping",
						"key": "t_address",
						"label": "mapping(address => bool)",
						"numberOfBytes": "32",
						"value": "t_bool"
					},
					"t_mapping(t_address,t_mapping(t_address,t_uint256))": {
						"encoding": "mapping",
						"key": "t_address",
						"label": "mapping(address => mapping(address => uint256))",
						"numberOfBytes": "32",
						"value": "t_mapping(t_address,t_uint256)"
					},
					"t_mapping(t_address,t_uint256)": {
						"encoding": "mapping",
						"key": "t_address",
						"label": "mapping(address => uint256)",
						"numberOfBytes": "32",
						"value": "t_uint256"
					},
					"t_string_storage": {
						"encoding": "bytes",
						"label": "string",
						"numberOfBytes": "32"
					},
					"t_struct(LockedBalance)57_storage": {
						"encoding": "inplace",
						"label": "struct MasterToken.LockedBalance",
						"members": [
							{
								"astId": 54,
								"contract": "Solidity/Tokens/MasterToken.sol:MasterToken",
								"label": "amount",
								"offset": 0,
								"slot": "0",
								"type": "t_uint256"
							},
							{
								"astId": 56,
								"contract": "Solidity/Tokens/MasterToken.sol:MasterToken",
								"label": "unlockTime",
								"offset": 0,
								"slot": "1",
								"type": "t_uint256"
							}
						],
						"numberOfBytes": "64"
					},
					"t_uint256": {
						"encoding": "inplace",
						"label": "uint256",
						"numberOfBytes": "32"
					},
					"t_uint8": {
						"encoding": "inplace",
						"label": "uint8",
						"numberOfBytes": "1"
					}
				}
			},
			"userdoc": {
				"kind": "user",
				"methods": {},
				"version": 1
			}
		}
	}
}