{
	"Solidity/Tokens/SuperToken.sol": {
		"DeFiSuperToken": {
			"abi": [
				{
					"inputs": [
						{
							"internalType": "string",
							"name": "_name",
							"type": "string"
						},
						{
							"internalType": "string",
							"name": "_symbol",
							"type": "string"
						},
						{
							"internalType": "uint8",
							"name": "_decimals",
							"type": "uint8"
						},
						{
							"internalType": "uint256",
							"name": "_initialSupply",
							"type": "uint256"
						},
						{
							"internalType": "uint256",
							"name": "_maxSupply",
							"type": "uint256"
						},
						{
							"internalType": "address",
							"name": "_owner",
							"type": "address"
						},
						{
							"internalType": "address",
							"name": "_feeCollector",
							"type": "address"
						},
						{
							"internalType": "uint256",
							"name": "_transferFee",
							"type": "uint256"
						},
						{
							"internalType": "uint256",
							"name": "_maxHoldPercent",
							"type": "uint256"
						},
						{
							"internalType": "uint256",
							"name": "_maxTxPercent",
							"type": "uint256"
						}
					],
					"stateMutability": "nonpayable",
					"type": "constructor"
				},
				{
					"inputs": [],
					"name": "AddressBlacklisted",
					"type": "error"
				},
				{
					"inputs": [],
					"name": "CliffNotReached",
					"type": "error"
				},
				{
					"inputs": [],
					"name": "ExceedsMaxHold",
					"type": "error"
				},
				{
					"inputs": [],
					"name": "ExceedsMaxSupply",
					"type": "error"
				},
				{
					"inputs": [],
					"name": "ExceedsMaxTx",
					"type": "error"
				},
				{
					"inputs": [],
					"name": "InsufficientBalance",
					"type": "error"
				},
				{
					"inputs": [],
					"name": "InsufficientUnlockedBalance",
					"type": "error"
				},
				{
					"inputs": [],
					"name": "NoVestingSchedule",
					"type": "error"
				},
				{
					"inputs": [],
					"name": "NotAdmin",
					"type": "error"
				},
				{
					"inputs": [],
					"name": "NotBurner",
					"type": "error"
				},
				{
					"inputs": [],
					"name": "NotFeeManager",
					"type": "error"
				},
				{
					"inputs": [],
					"name": "NotMinter",
					"type": "error"
				},
				{
					"inputs": [],
					"name": "NotOwner",
					"type": "error"
				},
				{
					"inputs": [],
					"name": "VestingScheduleExists",
					"type": "error"
				},
				{
					"inputs": [],
					"name": "ZeroAddress",
					"type": "error"
				},
				{
					"anonymous": false,
					"inputs": [
						{
							"indexed": true,
							"internalType": "address",
							"name": "owner",
							"type": "address"
						},
						{
							"indexed": true,
							"internalType": "address",
							"name": "spender",
							"type": "address"
						},
						{
							"indexed": false,
							"internalType": "uint256",
							"name": "value",
							"type": "uint256"
						}
					],
					"name": "Approval",
					"type": "event"
				},
				{
					"anonymous": false,
					"inputs": [
						{
							"indexed": true,
							"internalType": "address",
							"name": "from",
							"type": "address"
						},
						{
							"indexed": false,
							"internalType": "uint256",
							"name": "amount",
							"type": "uint256"
						}
					],
					"name": "Burn",
					"type": "event"
				},
				{
					"anonymous": false,
					"inputs": [
						{
							"indexed": true,
							"internalType": "address",
							"name": "to",
							"type": "address"
						},
						{
							"indexed": false,
							"internalType": "uint256",
							"name": "amount",
							"type": "uint256"
						}
					],
					"name": "Mint",
					"type": "event"
				},
				{
					"anonymous": false,
					"inputs": [
						{
							"indexed": true,
							"internalType": "address",
							"name": "beneficiary",
							"type": "address"
						},
						{
							"indexed": false,
							"internalType": "uint256",
							"name": "amount",
							"type": "uint256"
						}
					],
					"name": "TokensReleased",
					"type": "event"
				},
				{
					"anonymous": false,
					"inputs": [
						{
							"indexed": true,
							"internalType": "address",
							"name": "from",
							"type": "address"
						},
						{
							"indexed": true,
							"internalType": "address",
							"name": "to",
							"type": "address"
						},
						{
							"indexed": false,
							"internalType": "uint256",
							"name": "value",
							"type": "uint256"
						}
					],
					"name": "Transfer",
					"type": "event"
				},
				{
					"anonymous": false,
					"inputs": [
						{
							"indexed": true,
							"internalType": "address",
							"name": "beneficiary",
							"type": "address"
						},
						{
							"indexed": false,
							"internalType": "uint256",
							"name": "amount",
							"type": "uint256"
						},
						{
							"indexed": false,
							"internalType": "uint256",
							"name": "duration",
							"type": "uint256"
						}
					],
					"name": "VestingScheduleCreated",
					"type": "event"
				},
				{
					"inputs": [],
					"name": "accumulatedLiquidity",
					"outputs": [
						{
							"internalType": "uint256",
							"name": "",
							"type": "uint256"
						}
					],
					"stateMutability": "view",
					"type": "function"
				},
				{
					"inputs": [
						{
							"internalType": "address",
							"name": "",
							"type": "address"
						}
					],
					"name": "admins",
					"outputs": [
						{
							"internalType": "bool",
							"name": "",
							"type": "bool"
						}
					],
					"stateMutability": "view",
					"type": "function"
				},
				{
					"inputs": [
						{
							"internalType": "address",
							"name": "owner9",
							"type": "address"
						},
						{
							"internalType": "address",
							"name": "spender",
							"type": "address"
						}
					],
					"name": "allowance",
					"outputs": [
						{
							"internalType": "uint256",
							"name": "",
							"type": "uint256"
						}
					],
					"stateMutability": "view",
					"type": "function"
				},
				{
					"inputs": [
						{
							"internalType": "address",
							"name": "spender",
							"type": "address"
						},
						{
							"internalType": "uint256",
							"name": "amount",
							"type": "uint256"
						}
					],
					"name": "approve",
					"outputs": [
						{
							"internalType": "bool",
							"name": "",
							"type": "bool"
						}
					],
					"stateMutability": "nonpayable",
					"type": "function"
				},
				{
					"inputs": [
						{
							"internalType": "address",
							"name": "account",
							"type": "address"
						}
					],
					"name": "balanceOf",
					"outputs": [
						{
							"internalType": "uint256",
							"name": "",
							"type": "uint256"
						}
					],
					"stateMutability": "view",
					"type": "function"
				},
				{
					"inputs": [
						{
							"internalType": "address",
							"name": "",
							"type": "address"
						}
					],
					"name": "blacklisted",
					"outputs": [
						{
							"internalType": "bool",
							"name": "",
							"type": "bool"
						}
					],
					"stateMutability": "view",
					"type": "function"
				},
				{
					"inputs": [
						{
							"internalType": "address",
							"name": "",
							"type": "address"
						}
					],
					"name": "burners",
					"outputs": [
						{
							"internalType": "bool",
							"name": "",
							"type": "bool"
						}
					],
					"stateMutability": "view",
					"type": "function"
				},
				{
					"inputs": [
						{
							"internalType": "address",
							"name": "beneficiary",
							"type": "address"
						},
						{
							"internalType": "uint256",
							"name": "amount",
							"type": "uint256"
						},
						{
							"internalType": "uint256",
							"name": "duration",
							"type": "uint256"
						},
						{
							"internalType": "uint256",
							"name": "cliff",
							"type": "uint256"
						}
					],
					"name": "createVestingSchedule",
					"outputs": [],
					"stateMutability": "nonpayable",
					"type": "function"
				},
				{
					"inputs": [],
					"name": "decimals",
					"outputs": [
						{
							"internalType": "uint8",
							"name": "",
							"type": "uint8"
						}
					],
					"stateMutability": "view",
					"type": "function"
				},
				{
					"inputs": [],
					"name": "feeCollector",
					"outputs": [
						{
							"internalType": "address",
							"name": "",
							"type": "address"
						}
					],
					"stateMutability": "view",
					"type": "function"
				},
				{
					"inputs": [],
					"name": "feeConfig",
					"outputs": [
						{
							"internalType": "uint256",
							"name": "transferFee",
							"type": "uint256"
						},
						{
							"internalType": "uint256",
							"name": "buyFee",
							"type": "uint256"
						},
						{
							"internalType": "uint256",
							"name": "sellFee",
							"type": "uint256"
						},
						{
							"internalType": "address",
							"name": "feeCollector",
							"type": "address"
						},
						{
							"internalType": "bool",
							"name": "feeInToken",
							"type": "bool"
						}
					],
					"stateMutability": "view",
					"type": "function"
				},
				{
					"inputs": [
						{
							"internalType": "address",
							"name": "",
							"type": "address"
						}
					],
					"name": "feeManagers",
					"outputs": [
						{
							"internalType": "bool",
							"name": "",
							"type": "bool"
						}
					],
					"stateMutability": "view",
					"type": "function"
				},
				{
					"inputs": [],
					"name": "lastUpdateTime",
					"outputs": [
						{
							"internalType": "uint256",
							"name": "",
							"type": "uint256"
						}
					],
					"stateMutability": "view",
					"type": "function"
				},
				{
					"inputs": [],
					"name": "liquidityFee",
					"outputs": [
						{
							"internalType": "uint256",
							"name": "",
							"type": "uint256"
						}
					],
					"stateMutability": "view",
					"type": "function"
				},
				{
					"inputs": [],
					"name": "liquidityPool",
					"outputs": [
						{
							"internalType": "address",
							"name": "",
							"type": "address"
						}
					],
					"stateMutability": "view",
					"type": "function"
				},
				{
					"inputs": [],
					"name": "maxHoldPercentage",
					"outputs": [
						{
							"internalType": "uint256",
							"name": "",
							"type": "uint256"
						}
					],
					"stateMutability": "view",
					"type": "function"
				},
				{
					"inputs": [],
					"name": "maxSupply",
					"outputs": [
						{
							"internalType": "uint256",
							"name": "",
							"type": "uint256"
						}
					],
					"stateMutability": "view",
					"type": "function"
				},
				{
					"inputs": [],
					"name": "maxTxPercentage",
					"outputs": [
						{
							"internalType": "uint256",
							"name": "",
							"type": "uint256"
						}
					],
					"stateMutability": "view",
					"type": "function"
				},
				{
					"inputs": [],
					"name": "minTokensForLiquidity",
					"outputs": [
						{
							"internalType": "uint256",
							"name": "",
							"type": "uint256"
						}
					],
					"stateMutability": "view",
					"type": "function"
				},
				{
					"inputs": [
						{
							"internalType": "address",
							"name": "",
							"type": "address"
						}
					],
					"name": "minters",
					"outputs": [
						{
							"internalType": "bool",
							"name": "",
							"type": "bool"
						}
					],
					"stateMutability": "view",
					"type": "function"
				},
				{
					"inputs": [],
					"name": "name",
					"outputs": [
						{
							"internalType": "string",
							"name": "",
							"type": "string"
						}
					],
					"stateMutability": "view",
					"type": "function"
				},
				{
					"inputs": [],
					"name": "owner",
					"outputs": [
						{
							"internalType": "address",
							"name": "",
							"type": "address"
						}
					],
					"stateMutability": "view",
					"type": "function"
				},
				{
					"inputs": [
						{
							"internalType": "uint256",
							"name": "scheduleIndex",
							"type": "uint256"
						}
					],
					"name": "releaseVestedTokens",
					"outputs": [],
					"stateMutability": "nonpayable",
					"type": "function"
				},
				{
					"inputs": [
						{
							"internalType": "address",
							"name": "",
							"type": "address"
						}
					],
					"name": "rewardDebt",
					"outputs": [
						{
							"internalType": "uint256",
							"name": "",
							"type": "uint256"
						}
					],
					"stateMutability": "view",
					"type": "function"
				},
				{
					"inputs": [],
					"name": "rewardPerTokenStored",
					"outputs": [
						{
							"internalType": "uint256",
							"name": "",
							"type": "uint256"
						}
					],
					"stateMutability": "view",
					"type": "function"
				},
				{
					"inputs": [],
					"name": "rewardRate",
					"outputs": [
						{
							"internalType": "uint256",
							"name": "",
							"type": "uint256"
						}
					],
					"stateMutability": "view",
					"type": "function"
				},
				{
					"inputs": [
						{
							"internalType": "uint256",
							"name": "transfer9",
							"type": "uint256"
						},
						{
							"internalType": "uint256",
							"name": "buy",
							"type": "uint256"
						},
						{
							"internalType": "uint256",
							"name": "sell",
							"type": "uint256"
						}
					],
					"name": "setFeeStructure",
					"outputs": [],
					"stateMutability": "nonpayable",
					"type": "function"
				},
				{
					"inputs": [
						{
							"internalType": "address",
							"name": "pool",
							"type": "address"
						},
						{
							"internalType": "uint256",
							"name": "fee",
							"type": "uint256"
						}
					],
					"name": "setLiquidityPool",
					"outputs": [],
					"stateMutability": "nonpayable",
					"type": "function"
				},
				{
					"inputs": [
						{
							"internalType": "uint256",
							"name": "rate",
							"type": "uint256"
						}
					],
					"name": "setRewardRate",
					"outputs": [],
					"stateMutability": "nonpayable",
					"type": "function"
				},
				{
					"inputs": [
						{
							"internalType": "uint256",
							"name": "maxHold",
							"type": "uint256"
						},
						{
							"internalType": "uint256",
							"name": "maxTx",
							"type": "uint256"
						}
					],
					"name": "setTradingLimits",
					"outputs": [],
					"stateMutability": "nonpayable",
					"type": "function"
				},
				{
					"inputs": [
						{
							"internalType": "uint256",
							"name": "amount",
							"type": "uint256"
						}
					],
					"name": "stake",
					"outputs": [],
					"stateMutability": "nonpayable",
					"type": "function"
				},
				{
					"inputs": [
						{
							"internalType": "address",
							"name": "",
							"type": "address"
						}
					],
					"name": "stakedBalance",
					"outputs": [
						{
							"internalType": "uint256",
							"name": "",
							"type": "uint256"
						}
					],
					"stateMutability": "view",
					"type": "function"
				},
				{
					"inputs": [],
					"name": "symbol",
					"outputs": [
						{
							"internalType": "string",
							"name": "",
							"type": "string"
						}
					],
					"stateMutability": "view",
					"type": "function"
				},
				{
					"inputs": [],
					"name": "totalStaked",
					"outputs": [
						{
							"internalType": "uint256",
							"name": "",
							"type": "uint256"
						}
					],
					"stateMutability": "view",
					"type": "function"
				},
				{
					"inputs": [],
					"name": "totalSupply",
					"outputs": [
						{
							"internalType": "uint256",
							"name": "",
							"type": "uint256"
						}
					],
					"stateMutability": "view",
					"type": "function"
				},
				{
					"inputs": [
						{
							"internalType": "address",
							"name": "",
							"type": "address"
						}
					],
					"name": "totalVested",
					"outputs": [
						{
							"internalType": "uint256",
							"name": "",
							"type": "uint256"
						}
					],
					"stateMutability": "view",
					"type": "function"
				},
				{
					"inputs": [
						{
							"internalType": "address",
							"name": "to",
							"type": "address"
						},
						{
							"internalType": "uint256",
							"name": "amount",
							"type": "uint256"
						}
					],
					"name": "transfer",
					"outputs": [
						{
							"internalType": "bool",
							"name": "",
							"type": "bool"
						}
					],
					"stateMutability": "nonpayable",
					"type": "function"
				},
				{
					"inputs": [
						{
							"internalType": "address",
							"name": "from",
							"type": "address"
						},
						{
							"internalType": "address",
							"name": "to",
							"type": "address"
						},
						{
							"internalType": "uint256",
							"name": "amount",
							"type": "uint256"
						}
					],
					"name": "transferFrom",
					"outputs": [
						{
							"internalType": "bool",
							"name": "",
							"type": "bool"
						}
					],
					"stateMutability": "nonpayable",
					"type": "function"
				},
				{
					"inputs": [
						{
							"internalType": "address",
							"name": "",
							"type": "address"
						}
					],
					"name": "unlimitedAccounts",
					"outputs": [
						{
							"internalType": "bool",
							"name": "",
							"type": "bool"
						}
					],
					"stateMutability": "view",
					"type": "function"
				},
				{
					"inputs": [
						{
							"internalType": "uint256",
							"name": "amount",
							"type": "uint256"
						}
					],
					"name": "unstake",
					"outputs": [],
					"stateMutability": "nonpayable",
					"type": "function"
				},
				{
					"inputs": [
						{
							"internalType": "address",
							"name": "",
							"type": "address"
						},
						{
							"internalType": "uint256",
							"name": "",
							"type": "uint256"
						}
					],
					"name": "vestingSchedules",
					"outputs": [
						{
							"internalType": "uint256",
							"name": "totalAmount",
							"type": "uint256"
						},
						{
							"internalType": "uint256",
							"name": "releasedAmount",
							"type": "uint256"
						},
						{
							"internalType": "uint256",
							"name": "startTime",
							"type": "uint256"
						},
						{
							"internalType": "uint256",
							"name": "duration",
							"type": "uint256"
						},
						{
							"internalType": "uint256",
							"name": "cliff",
							"type": "uint256"
						},
						{
							"internalType": "bool",
							"name": "exists",
							"type": "bool"
						}
					],
					"stateMutability": "view",
					"type": "function"
				},
				{
					"inputs": [],
					"name": "whitelistEnabled",
					"outputs": [
						{
							"internalType": "bool",
							"name": "",
							"type": "bool"
						}
					],
					"stateMutability": "view",
					"type": "function"
				},
				{
					"inputs": [
						{
							"internalType": "address",
							"name": "",
							"type": "address"
						}
					],
					"name": "whitelisted",
					"outputs": [
						{
							"internalType": "bool",
							"name": "",
							"type": "bool"
						}
					],
					"stateMutability": "view",
					"type": "function"
				}
			],
			"devdoc": {
				"kind": "dev",
				"methods": {},
				"version": 1
			},
			"evm": {
				"assembly": "    /* \"Solidity/Tokens/SuperToken.sol\":61:14796  contract DeFiSuperToken {... */\n  mstore(0x40, 0x80)\n    /* \"Solidity/Tokens/SuperToken.sol\":4111:5407  constructor(... */\n  callvalue\n  dup1\n  iszero\n  tag_1\n  jumpi\n  revert(0x00, 0x00)\ntag_1:\n  pop\n  mload(0x40)\n  sub(codesize, bytecodeSize)\n  dup1\n  bytecodeSize\n  dup4\n  codecopy\n  dup2\n  dup2\n  add\n  0x40\n  mstore\n  dup2\n  add\n  swap1\n  tag_2\n  swap2\n  swap1\n  tag_3\n  jump\t// in\ntag_2:\n    /* \"Solidity/Tokens/SuperToken.sol\":4453:4458  _name */\n  dup10\n    /* \"Solidity/Tokens/SuperToken.sol\":4446:4450  name */\n  0x00\n    /* \"Solidity/Tokens/SuperToken.sol\":4446:4458  name = _name */\n  swap1\n  dup2\n  tag_6\n  swap2\n  swap1\n  tag_7\n  jump\t// in\ntag_6:\n  pop\n    /* \"Solidity/Tokens/SuperToken.sol\":4478:4485  _symbol */\n  dup9\n    /* \"Solidity/Tokens/SuperToken.sol\":4469:4475  symbol */\n  0x01\n    /* \"Solidity/Tokens/SuperToken.sol\":4469:4485  symbol = _symbol */\n  swap1\n  dup2\n  tag_8\n  swap2\n  swap1\n  tag_7\n  jump\t// in\ntag_8:\n  pop\n    /* \"Solidity/Tokens/SuperToken.sol\":4507:4516  _decimals */\n  dup8\n    /* \"Solidity/Tokens/SuperToken.sol\":4496:4504  decimals */\n  0x02\n  0x00\n    /* \"Solidity/Tokens/SuperToken.sol\":4496:4516  decimals = _decimals */\n  0x0100\n  exp\n  dup2\n  sload\n  dup2\n  0xff\n  mul\n  not\n  and\n  swap1\n  dup4\n  0xff\n  and\n  mul\n  or\n  swap1\n  sstore\n  pop\n    /* \"Solidity/Tokens/SuperToken.sol\":4556:4565  _decimals */\n  dup8\n    /* \"Solidity/Tokens/SuperToken.sol\":4552:4554  10 */\n  0x0a\n    /* \"Solidity/Tokens/SuperToken.sol\":4552:4565  10**_decimals */\n  tag_9\n  swap2\n  swap1\n  tag_10\n  jump\t// in\ntag_9:\n    /* \"Solidity/Tokens/SuperToken.sol\":4539:4549  _maxSupply */\n  dup7\n    /* \"Solidity/Tokens/SuperToken.sol\":4539:4565  _maxSupply * 10**_decimals */\n  tag_11\n  swap2\n  swap1\n  tag_12\n  jump\t// in\ntag_11:\n    /* \"Solidity/Tokens/SuperToken.sol\":4527:4536  maxSupply */\n  0x04\n    /* \"Solidity/Tokens/SuperToken.sol\":4527:4565  maxSupply = _maxSupply * 10**_decimals */\n  dup2\n  swap1\n  sstore\n  pop\n    /* \"Solidity/Tokens/SuperToken.sol\":4618:4624  _owner */\n  dup5\n    /* \"Solidity/Tokens/SuperToken.sol\":4610:4615  owner */\n  0x0b\n  0x00\n    /* \"Solidity/Tokens/SuperToken.sol\":4610:4624  owner = _owner */\n  0x0100\n  exp\n  dup2\n  sload\n  dup2\n  0xffffffffffffffffffffffffffffffffffffffff\n  mul\n  not\n  and\n  swap1\n  dup4\n  0xffffffffffffffffffffffffffffffffffffffff\n  and\n  mul\n  or\n  swap1\n  sstore\n  pop\n    /* \"Solidity/Tokens/SuperToken.sol\":4652:4656  true */\n  0x01\n    /* \"Solidity/Tokens/SuperToken.sol\":4635:4641  admins */\n  0x0c\n    /* \"Solidity/Tokens/SuperToken.sol\":4635:4649  admins[_owner] */\n  0x00\n    /* \"Solidity/Tokens/SuperToken.sol\":4642:4648  _owner */\n  dup8\n    /* \"Solidity/Tokens/SuperToken.sol\":4635:4649  admins[_owner] */\n  0xffffffffffffffffffffffffffffffffffffffff\n  and\n  0xffffffffffffffffffffffffffffffffffffffff\n  and\n  dup2\n  mstore\n  0x20\n  add\n  swap1\n  dup2\n  mstore\n  0x20\n  add\n  0x00\n  keccak256\n  0x00\n    /* \"Solidity/Tokens/SuperToken.sol\":4635:4656  admins[_owner] = true */\n  0x0100\n  exp\n  dup2\n  sload\n  dup2\n  0xff\n  mul\n  not\n  and\n  swap1\n  dup4\n  iszero\n  iszero\n  mul\n  or\n  swap1\n  sstore\n  pop\n    /* \"Solidity/Tokens/SuperToken.sol\":4685:4689  true */\n  0x01\n    /* \"Solidity/Tokens/SuperToken.sol\":4667:4674  minters */\n  0x0d\n    /* \"Solidity/Tokens/SuperToken.sol\":4667:4682  minters[_owner] */\n  0x00\n    /* \"Solidity/Tokens/SuperToken.sol\":4675:4681  _owner */\n  dup8\n    /* \"Solidity/Tokens/SuperToken.sol\":4667:4682  minters[_owner] */\n  0xffffffffffffffffffffffffffffffffffffffff\n  and\n  0xffffffffffffffffffffffffffffffffffffffff\n  and\n  dup2\n  mstore\n  0x20\n  add\n  swap1\n  dup2\n  mstore\n  0x20\n  add\n  0x00\n  keccak256\n  0x00\n    /* \"Solidity/Tokens/SuperToken.sol\":4667:4689  minters[_owner] = true */\n  0x0100\n  exp\n  dup2\n  sload\n  dup2\n  0xff\n  mul\n  not\n  and\n  swap1\n  dup4\n  iszero\n  iszero\n  mul\n  or\n  swap1\n  sstore\n  pop\n    /* \"Solidity/Tokens/SuperToken.sol\":4718:4722  true */\n  0x01\n    /* \"Solidity/Tokens/SuperToken.sol\":4700:4707  burners */\n  0x0e\n    /* \"Solidity/Tokens/SuperToken.sol\":4700:4715  burners[_owner] */\n  0x00\n    /* \"Solidity/Tokens/SuperToken.sol\":4708:4714  _owner */\n  dup8\n    /* \"Solidity/Tokens/SuperToken.sol\":4700:4715  burners[_owner] */\n  0xffffffffffffffffffffffffffffffffffffffff\n  and\n  0xffffffffffffffffffffffffffffffffffffffff\n  and\n  dup2\n  mstore\n  0x20\n  add\n  swap1\n  dup2\n  mstore\n  0x20\n  add\n  0x00\n  keccak256\n  0x00\n    /* \"Solidity/Tokens/SuperToken.sol\":4700:4722  burners[_owner] = true */\n  0x0100\n  exp\n  dup2\n  sload\n  dup2\n  0xff\n  mul\n  not\n  and\n  swap1\n  dup4\n  iszero\n  iszero\n  mul\n  or\n  swap1\n  sstore\n  pop\n    /* \"Solidity/Tokens/SuperToken.sol\":4755:4759  true */\n  0x01\n    /* \"Solidity/Tokens/SuperToken.sol\":4733:4744  feeManagers */\n  0x0f\n    /* \"Solidity/Tokens/SuperToken.sol\":4733:4752  feeManagers[_owner] */\n  0x00\n    /* \"Solidity/Tokens/SuperToken.sol\":4745:4751  _owner */\n  dup8\n    /* \"Solidity/Tokens/SuperToken.sol\":4733:4752  feeManagers[_owner] */\n  0xffffffffffffffffffffffffffffffffffffffff\n  and\n  0xffffffffffffffffffffffffffffffffffffffff\n  and\n  dup2\n  mstore\n  0x20\n  add\n  swap1\n  dup2\n  mstore\n  0x20\n  add\n  0x00\n  keccak256\n  0x00\n    /* \"Solidity/Tokens/SuperToken.sol\":4733:4759  feeManagers[_owner] = true */\n  0x0100\n  exp\n  dup2\n  sload\n  dup2\n  0xff\n  mul\n  not\n  and\n  swap1\n  dup4\n  iszero\n  iszero\n  mul\n  or\n  swap1\n  sstore\n  pop\n    /* \"Solidity/Tokens/SuperToken.sol\":4815:5039  FeeConfig({... */\n  mload(0x40)\n  dup1\n  0xa0\n  add\n  0x40\n  mstore\n  dup1\n    /* \"Solidity/Tokens/SuperToken.sol\":4853:4865  _transferFee */\n  dup5\n    /* \"Solidity/Tokens/SuperToken.sol\":4815:5039  FeeConfig({... */\n  dup2\n  mstore\n  0x20\n  add\n    /* \"Solidity/Tokens/SuperToken.sol\":4888:4891  100 */\n  0x64\n    /* \"Solidity/Tokens/SuperToken.sol\":4815:5039  FeeConfig({... */\n  dup2\n  mstore\n  0x20\n  add\n    /* \"Solidity/Tokens/SuperToken.sol\":4932:4935  200 */\n  0xc8\n    /* \"Solidity/Tokens/SuperToken.sol\":4815:5039  FeeConfig({... */\n  dup2\n  mstore\n  0x20\n  add\n    /* \"Solidity/Tokens/SuperToken.sol\":4983:4996  _feeCollector */\n  dup6\n    /* \"Solidity/Tokens/SuperToken.sol\":4815:5039  FeeConfig({... */\n  0xffffffffffffffffffffffffffffffffffffffff\n  and\n  dup2\n  mstore\n  0x20\n  add\n    /* \"Solidity/Tokens/SuperToken.sol\":5023:5027  true */\n  0x01\n    /* \"Solidity/Tokens/SuperToken.sol\":4815:5039  FeeConfig({... */\n  iszero\n  iszero\n  dup2\n  mstore\n  pop\n    /* \"Solidity/Tokens/SuperToken.sol\":4803:4812  feeConfig */\n  0x07\n    /* \"Solidity/Tokens/SuperToken.sol\":4803:5039  feeConfig = FeeConfig({... */\n  0x00\n  dup3\n  add\n  mload\n  dup2\n  0x00\n  add\n  sstore\n  0x20\n  dup3\n  add\n  mload\n  dup2\n  0x01\n  add\n  sstore\n  0x40\n  dup3\n  add\n  mload\n  dup2\n  0x02\n  add\n  sstore\n  0x60\n  dup3\n  add\n  mload\n  dup2\n  0x03\n  add\n  exp(0x0100, 0x00)\n  dup2\n  sload\n  dup2\n  0xffffffffffffffffffffffffffffffffffffffff\n  mul\n  not\n  and\n  swap1\n  dup4\n  0xffffffffffffffffffffffffffffffffffffffff\n  and\n  mul\n  or\n  swap1\n  sstore\n  pop\n  0x80\n  dup3\n  add\n  mload\n  dup2\n  0x03\n  add\n  exp(0x0100, 0x14)\n  dup2\n  sload\n  dup2\n  0xff\n  mul\n  not\n  and\n  swap1\n  dup4\n  iszero\n  iszero\n  mul\n  or\n  swap1\n  sstore\n  pop\n  swap1\n  pop\n  pop\n    /* \"Solidity/Tokens/SuperToken.sol\":5107:5122  _maxHoldPercent */\n  dup2\n    /* \"Solidity/Tokens/SuperToken.sol\":5087:5104  maxHoldPercentage */\n  0x16\n    /* \"Solidity/Tokens/SuperToken.sol\":5087:5122  maxHoldPercentage = _maxHoldPercent */\n  dup2\n  swap1\n  sstore\n  pop\n    /* \"Solidity/Tokens/SuperToken.sol\":5151:5164  _maxTxPercent */\n  dup1\n    /* \"Solidity/Tokens/SuperToken.sol\":5133:5148  maxTxPercentage */\n  0x17\n    /* \"Solidity/Tokens/SuperToken.sol\":5133:5164  maxTxPercentage = _maxTxPercent */\n  dup2\n  swap1\n  sstore\n  pop\n    /* \"Solidity/Tokens/SuperToken.sol\":5203:5207  true */\n  0x01\n    /* \"Solidity/Tokens/SuperToken.sol\":5175:5192  unlimitedAccounts */\n  0x15\n    /* \"Solidity/Tokens/SuperToken.sol\":5175:5200  unlimitedAccounts[_owner] */\n  0x00\n    /* \"Solidity/Tokens/SuperToken.sol\":5193:5199  _owner */\n  dup8\n    /* \"Solidity/Tokens/SuperToken.sol\":5175:5200  unlimitedAccounts[_owner] */\n  0xffffffffffffffffffffffffffffffffffffffff\n  and\n  0xffffffffffffffffffffffffffffffffffffffff\n  and\n  dup2\n  mstore\n  0x20\n  add\n  swap1\n  dup2\n  mstore\n  0x20\n  add\n  0x00\n  keccak256\n  0x00\n    /* \"Solidity/Tokens/SuperToken.sol\":5175:5207  unlimitedAccounts[_owner] = true */\n  0x0100\n  exp\n  dup2\n  sload\n  dup2\n  0xff\n  mul\n  not\n  and\n  swap1\n  dup4\n  iszero\n  iszero\n  mul\n  or\n  swap1\n  sstore\n  pop\n    /* \"Solidity/Tokens/SuperToken.sol\":5292:5301  _decimals */\n  dup8\n    /* \"Solidity/Tokens/SuperToken.sol\":5288:5290  10 */\n  0x0a\n    /* \"Solidity/Tokens/SuperToken.sol\":5288:5301  10**_decimals */\n  tag_13\n  swap2\n  swap1\n  tag_10\n  jump\t// in\ntag_13:\n    /* \"Solidity/Tokens/SuperToken.sol\":5281:5285  1000 */\n  0x03e8\n    /* \"Solidity/Tokens/SuperToken.sol\":5281:5301  1000 * 10**_decimals */\n  tag_14\n  swap2\n  swap1\n  tag_12\n  jump\t// in\ntag_14:\n    /* \"Solidity/Tokens/SuperToken.sol\":5257:5278  minTokensForLiquidity */\n  0x1a\n    /* \"Solidity/Tokens/SuperToken.sol\":5257:5301  minTokensForLiquidity = 1000 * 10**_decimals */\n  dup2\n  swap1\n  sstore\n  pop\n    /* \"Solidity/Tokens/SuperToken.sol\":5354:5399  _mint(_owner, _initialSupply * 10**_decimals) */\n  tag_15\n    /* \"Solidity/Tokens/SuperToken.sol\":5360:5366  _owner */\n  dup6\n    /* \"Solidity/Tokens/SuperToken.sol\":5389:5398  _decimals */\n  dup10\n    /* \"Solidity/Tokens/SuperToken.sol\":5385:5387  10 */\n  0x0a\n    /* \"Solidity/Tokens/SuperToken.sol\":5385:5398  10**_decimals */\n  tag_16\n  swap2\n  swap1\n  tag_10\n  jump\t// in\ntag_16:\n    /* \"Solidity/Tokens/SuperToken.sol\":5368:5382  _initialSupply */\n  dup10\n    /* \"Solidity/Tokens/SuperToken.sol\":5368:5398  _initialSupply * 10**_decimals */\n  tag_17\n  swap2\n  swap1\n  tag_12\n  jump\t// in\ntag_17:\n    /* \"Solidity/Tokens/SuperToken.sol\":5354:5359  _mint */\n  shl(0x20, tag_18)\n    /* \"Solidity/Tokens/SuperToken.sol\":5354:5399  _mint(_owner, _initialSupply * 10**_decimals) */\n  0x20\n  shr\n  jump\t// in\ntag_15:\n    /* \"Solidity/Tokens/SuperToken.sol\":4111:5407  constructor(... */\n  pop\n  pop\n  pop\n  pop\n  pop\n  pop\n  pop\n  pop\n  pop\n  pop\n    /* \"Solidity/Tokens/SuperToken.sol\":61:14796  contract DeFiSuperToken {... */\n  jump(tag_19)\n    /* \"Solidity/Tokens/SuperToken.sol\":13249:13497  function _mint(address to, uint256 amount) internal {... */\ntag_18:\n    /* \"Solidity/Tokens/SuperToken.sol\":13339:13348  maxSupply */\n  sload(0x04)\n    /* \"Solidity/Tokens/SuperToken.sol\":13330:13336  amount */\n  dup2\n    /* \"Solidity/Tokens/SuperToken.sol\":13316:13327  totalSupply */\n  sload(0x03)\n    /* \"Solidity/Tokens/SuperToken.sol\":13316:13336  totalSupply + amount */\n  tag_21\n  swap2\n  swap1\n  tag_22\n  jump\t// in\ntag_21:\n    /* \"Solidity/Tokens/SuperToken.sol\":13316:13348  totalSupply + amount > maxSupply */\n  gt\n    /* \"Solidity/Tokens/SuperToken.sol\":13312:13375  if (totalSupply + amount > maxSupply) revert ExceedsMaxSupply() */\n  iszero\n  tag_23\n  jumpi\n    /* \"Solidity/Tokens/SuperToken.sol\":13357:13375  ExceedsMaxSupply() */\n  mload(0x40)\n  0xc30436e900000000000000000000000000000000000000000000000000000000\n  dup2\n  mstore\n  0x04\n  add\n  mload(0x40)\n  dup1\n  swap2\n  sub\n  swap1\n  revert\n    /* \"Solidity/Tokens/SuperToken.sol\":13312:13375  if (totalSupply + amount > maxSupply) revert ExceedsMaxSupply() */\ntag_23:\n    /* \"Solidity/Tokens/SuperToken.sol\":13401:13407  amount */\n  dup1\n    /* \"Solidity/Tokens/SuperToken.sol\":13386:13397  totalSupply */\n  0x03\n  0x00\n    /* \"Solidity/Tokens/SuperToken.sol\":13386:13407  totalSupply += amount */\n  dup3\n  dup3\n  sload\n  tag_24\n  swap2\n  swap1\n  tag_22\n  jump\t// in\ntag_24:\n  swap3\n  pop\n  pop\n  dup2\n  swap1\n  sstore\n  pop\n    /* \"Solidity/Tokens/SuperToken.sol\":13435:13441  amount */\n  dup1\n    /* \"Solidity/Tokens/SuperToken.sol\":13418:13427  _balances */\n  0x05\n    /* \"Solidity/Tokens/SuperToken.sol\":13418:13431  _balances[to] */\n  0x00\n    /* \"Solidity/Tokens/SuperToken.sol\":13428:13430  to */\n  dup5\n    /* \"Solidity/Tokens/SuperToken.sol\":13418:13431  _balances[to] */\n  0xffffffffffffffffffffffffffffffffffffffff\n  and\n  0xffffffffffffffffffffffffffffffffffffffff\n  and\n  dup2\n  mstore\n  0x20\n  add\n  swap1\n  dup2\n  mstore\n  0x20\n  add\n  0x00\n  keccak256\n  0x00\n    /* \"Solidity/Tokens/SuperToken.sol\":13418:13441  _balances[to] += amount */\n  dup3\n  dup3\n  sload\n  tag_25\n  swap2\n  swap1\n  tag_22\n  jump\t// in\ntag_25:\n  swap3\n  pop\n  pop\n  dup2\n  swap1\n  sstore\n  pop\n    /* \"Solidity/Tokens/SuperToken.sol\":13478:13480  to */\n  dup2\n    /* \"Solidity/Tokens/SuperToken.sol\":13457:13489  Transfer(address(0), to, amount) */\n  0xffffffffffffffffffffffffffffffffffffffff\n  and\n    /* \"Solidity/Tokens/SuperToken.sol\":13474:13475  0 */\n  0x00\n    /* \"Solidity/Tokens/SuperToken.sol\":13457:13489  Transfer(address(0), to, amount) */\n  0xffffffffffffffffffffffffffffffffffffffff\n  and\n  0xddf252ad1be2c89b69c2b068fc378daa952ba7f163c4a11628f55a4df523b3ef\n    /* \"Solidity/Tokens/SuperToken.sol\":13482:13488  amount */\n  dup4\n    /* \"Solidity/Tokens/SuperToken.sol\":13457:13489  Transfer(address(0), to, amount) */\n  mload(0x40)\n  tag_26\n  swap2\n  swap1\n  tag_27\n  jump\t// in\ntag_26:\n  mload(0x40)\n  dup1\n  swap2\n  sub\n  swap1\n  log3\n    /* \"Solidity/Tokens/SuperToken.sol\":13249:13497  function _mint(address to, uint256 amount) internal {... */\n  pop\n  pop\n  jump\t// out\n    /* \"#utility.yul\":7:82   */\ntag_28:\n    /* \"#utility.yul\":40:46   */\n  0x00\n    /* \"#utility.yul\":73:75   */\n  0x40\n    /* \"#utility.yul\":67:76   */\n  mload\n    /* \"#utility.yul\":57:76   */\n  swap1\n  pop\n    /* \"#utility.yul\":7:82   */\n  swap1\n  jump\t// out\n    /* \"#utility.yul\":88:205   */\ntag_29:\n    /* \"#utility.yul\":197:198   */\n  0x00\n    /* \"#utility.yul\":194:195   */\n  0x00\n    /* \"#utility.yul\":187:199   */\n  revert\n    /* \"#utility.yul\":211:328   */\ntag_30:\n    /* \"#utility.yul\":320:321   */\n  0x00\n    /* \"#utility.yul\":317:318   */\n  0x00\n    /* \"#utility.yul\":310:322   */\n  revert\n    /* \"#utility.yul\":334:451   */\ntag_31:\n    /* \"#utility.yul\":443:444   */\n  0x00\n    /* \"#utility.yul\":440:441   */\n  0x00\n    /* \"#utility.yul\":433:445   */\n  revert\n    /* \"#utility.yul\":457:574   */\ntag_32:\n    /* \"#utility.yul\":566:567   */\n  0x00\n    /* \"#utility.yul\":563:564   */\n  0x00\n    /* \"#utility.yul\":556:568   */\n  revert\n    /* \"#utility.yul\":580:682   */\ntag_33:\n    /* \"#utility.yul\":621:627   */\n  0x00\n    /* \"#utility.yul\":672:674   */\n  0x1f\n    /* \"#utility.yul\":668:675   */\n  not\n    /* \"#utility.yul\":663:665   */\n  0x1f\n    /* \"#utility.yul\":656:661   */\n  dup4\n    /* \"#utility.yul\":652:666   */\n  add\n    /* \"#utility.yul\":648:676   */\n  and\n    /* \"#utility.yul\":638:676   */\n  swap1\n  pop\n    /* \"#utility.yul\":580:682   */\n  swap2\n  swap1\n  pop\n  jump\t// out\n    /* \"#utility.yul\":688:868   */\ntag_34:\n    /* \"#utility.yul\":736:813   */\n  0x4e487b7100000000000000000000000000000000000000000000000000000000\n    /* \"#utility.yul\":733:734   */\n  0x00\n    /* \"#utility.yul\":726:814   */\n  mstore\n    /* \"#utility.yul\":833:837   */\n  0x41\n    /* \"#utility.yul\":830:831   */\n  0x04\n    /* \"#utility.yul\":823:838   */\n  mstore\n    /* \"#utility.yul\":857:861   */\n  0x24\n    /* \"#utility.yul\":854:855   */\n  0x00\n    /* \"#utility.yul\":847:862   */\n  revert\n    /* \"#utility.yul\":874:1155   */\ntag_35:\n    /* \"#utility.yul\":957:984   */\n  tag_83\n    /* \"#utility.yul\":979:983   */\n  dup3\n    /* \"#utility.yul\":957:984   */\n  tag_33\n  jump\t// in\ntag_83:\n    /* \"#utility.yul\":949:955   */\n  dup2\n    /* \"#utility.yul\":945:985   */\n  add\n    /* \"#utility.yul\":1087:1093   */\n  dup2\n    /* \"#utility.yul\":1075:1085   */\n  dup2\n    /* \"#utility.yul\":1072:1094   */\n  lt\n    /* \"#utility.yul\":1051:1069   */\n  0xffffffffffffffff\n    /* \"#utility.yul\":1039:1049   */\n  dup3\n    /* \"#utility.yul\":1036:1070   */\n  gt\n    /* \"#utility.yul\":1033:1095   */\n  or\n    /* \"#utility.yul\":1030:1118   */\n  iszero\n  tag_84\n  jumpi\n    /* \"#utility.yul\":1098:1116   */\n  tag_85\n  tag_34\n  jump\t// in\ntag_85:\n    /* \"#utility.yul\":1030:1118   */\ntag_84:\n    /* \"#utility.yul\":1138:1148   */\n  dup1\n    /* \"#utility.yul\":1134:1136   */\n  0x40\n    /* \"#utility.yul\":1127:1149   */\n  mstore\n    /* \"#utility.yul\":917:1155   */\n  pop\n    /* \"#utility.yul\":874:1155   */\n  pop\n  pop\n  jump\t// out\n    /* \"#utility.yul\":1161:1290   */\ntag_36:\n    /* \"#utility.yul\":1195:1201   */\n  0x00\n    /* \"#utility.yul\":1222:1242   */\n  tag_87\n  tag_28\n  jump\t// in\ntag_87:\n    /* \"#utility.yul\":1212:1242   */\n  swap1\n  pop\n    /* \"#utility.yul\":1251:1284   */\n  tag_88\n    /* \"#utility.yul\":1279:1283   */\n  dup3\n    /* \"#utility.yul\":1271:1277   */\n  dup3\n    /* \"#utility.yul\":1251:1284   */\n  tag_35\n  jump\t// in\ntag_88:\n    /* \"#utility.yul\":1161:1290   */\n  swap2\n  swap1\n  pop\n  jump\t// out\n    /* \"#utility.yul\":1296:1604   */\ntag_37:\n    /* \"#utility.yul\":1358:1362   */\n  0x00\n    /* \"#utility.yul\":1448:1466   */\n  0xffffffffffffffff\n    /* \"#utility.yul\":1440:1446   */\n  dup3\n    /* \"#utility.yul\":1437:1467   */\n  gt\n    /* \"#utility.yul\":1434:1490   */\n  iszero\n  tag_90\n  jumpi\n    /* \"#utility.yul\":1470:1488   */\n  tag_91\n  tag_34\n  jump\t// in\ntag_91:\n    /* \"#utility.yul\":1434:1490   */\ntag_90:\n    /* \"#utility.yul\":1508:1537   */\n  tag_92\n    /* \"#utility.yul\":1530:1536   */\n  dup3\n    /* \"#utility.yul\":1508:1537   */\n  tag_33\n  jump\t// in\ntag_92:\n    /* \"#utility.yul\":1500:1537   */\n  swap1\n  pop\n    /* \"#utility.yul\":1592:1596   */\n  0x20\n    /* \"#utility.yul\":1586:1590   */\n  dup2\n    /* \"#utility.yul\":1582:1597   */\n  add\n    /* \"#utility.yul\":1574:1597   */\n  swap1\n  pop\n    /* \"#utility.yul\":1296:1604   */\n  swap2\n  swap1\n  pop\n  jump\t// out\n    /* \"#utility.yul\":1610:1749   */\ntag_38:\n    /* \"#utility.yul\":1699:1705   */\n  dup3\n    /* \"#utility.yul\":1694:1697   */\n  dup2\n    /* \"#utility.yul\":1689:1692   */\n  dup4\n    /* \"#utility.yul\":1683:1706   */\n  mcopy\n    /* \"#utility.yul\":1740:1741   */\n  0x00\n    /* \"#utility.yul\":1731:1737   */\n  dup4\n    /* \"#utility.yul\":1726:1729   */\n  dup4\n    /* \"#utility.yul\":1722:1738   */\n  add\n    /* \"#utility.yul\":1715:1742   */\n  mstore\n    /* \"#utility.yul\":1610:1749   */\n  pop\n  pop\n  pop\n  jump\t// out\n    /* \"#utility.yul\":1755:2189   */\ntag_39:\n    /* \"#utility.yul\":1844:1849   */\n  0x00\n    /* \"#utility.yul\":1869:1935   */\n  tag_95\n    /* \"#utility.yul\":1885:1934   */\n  tag_96\n    /* \"#utility.yul\":1927:1933   */\n  dup5\n    /* \"#utility.yul\":1885:1934   */\n  tag_37\n  jump\t// in\ntag_96:\n    /* \"#utility.yul\":1869:1935   */\n  tag_36\n  jump\t// in\ntag_95:\n    /* \"#utility.yul\":1860:1935   */\n  swap1\n  pop\n    /* \"#utility.yul\":1958:1964   */\n  dup3\n    /* \"#utility.yul\":1951:1956   */\n  dup2\n    /* \"#utility.yul\":1944:1965   */\n  mstore\n    /* \"#utility.yul\":1996:2000   */\n  0x20\n    /* \"#utility.yul\":1989:1994   */\n  dup2\n    /* \"#utility.yul\":1985:2001   */\n  add\n    /* \"#utility.yul\":2034:2037   */\n  dup5\n    /* \"#utility.yul\":2025:2031   */\n  dup5\n    /* \"#utility.yul\":2020:2023   */\n  dup5\n    /* \"#utility.yul\":2016:2032   */\n  add\n    /* \"#utility.yul\":2013:2038   */\n  gt\n    /* \"#utility.yul\":2010:2122   */\n  iszero\n  tag_97\n  jumpi\n    /* \"#utility.yul\":2041:2120   */\n  tag_98\n  tag_32\n  jump\t// in\ntag_98:\n    /* \"#utility.yul\":2010:2122   */\ntag_97:\n    /* \"#utility.yul\":2131:2183   */\n  tag_99\n    /* \"#utility.yul\":2176:2182   */\n  dup5\n    /* \"#utility.yul\":2171:2174   */\n  dup3\n    /* \"#utility.yul\":2166:2169   */\n  dup6\n    /* \"#utility.yul\":2131:2183   */\n  tag_38\n  jump\t// in\ntag_99:\n    /* \"#utility.yul\":1850:2189   */\n  pop\n    /* \"#utility.yul\":1755:2189   */\n  swap4\n  swap3\n  pop\n  pop\n  pop\n  jump\t// out\n    /* \"#utility.yul\":2209:2564   */\ntag_40:\n    /* \"#utility.yul\":2276:2281   */\n  0x00\n    /* \"#utility.yul\":2325:2328   */\n  dup3\n    /* \"#utility.yul\":2318:2322   */\n  0x1f\n    /* \"#utility.yul\":2310:2316   */\n  dup4\n    /* \"#utility.yul\":2306:2323   */\n  add\n    /* \"#utility.yul\":2302:2329   */\n  slt\n    /* \"#utility.yul\":2292:2414   */\n  tag_101\n  jumpi\n    /* \"#utility.yul\":2333:2412   */\n  tag_102\n  tag_31\n  jump\t// in\ntag_102:\n    /* \"#utility.yul\":2292:2414   */\ntag_101:\n    /* \"#utility.yul\":2443:2449   */\n  dup2\n    /* \"#utility.yul\":2437:2450   */\n  mload\n    /* \"#utility.yul\":2468:2558   */\n  tag_103\n    /* \"#utility.yul\":2554:2557   */\n  dup5\n    /* \"#utility.yul\":2546:2552   */\n  dup3\n    /* \"#utility.yul\":2539:2543   */\n  0x20\n    /* \"#utility.yul\":2531:2537   */\n  dup7\n    /* \"#utility.yul\":2527:2544   */\n  add\n    /* \"#utility.yul\":2468:2558   */\n  tag_39\n  jump\t// in\ntag_103:\n    /* \"#utility.yul\":2459:2558   */\n  swap2\n  pop\n    /* \"#utility.yul\":2282:2564   */\n  pop\n    /* \"#utility.yul\":2209:2564   */\n  swap3\n  swap2\n  pop\n  pop\n  jump\t// out\n    /* \"#utility.yul\":2570:2656   */\ntag_41:\n    /* \"#utility.yul\":2605:2612   */\n  0x00\n    /* \"#utility.yul\":2645:2649   */\n  0xff\n    /* \"#utility.yul\":2638:2643   */\n  dup3\n    /* \"#utility.yul\":2634:2650   */\n  and\n    /* \"#utility.yul\":2623:2650   */\n  swap1\n  pop\n    /* \"#utility.yul\":2570:2656   */\n  swap2\n  swap1\n  pop\n  jump\t// out\n    /* \"#utility.yul\":2662:2780   */\ntag_42:\n    /* \"#utility.yul\":2733:2755   */\n  tag_106\n    /* \"#utility.yul\":2749:2754   */\n  dup2\n    /* \"#utility.yul\":2733:2755   */\n  tag_41\n  jump\t// in\ntag_106:\n    /* \"#utility.yul\":2726:2731   */\n  dup2\n    /* \"#utility.yul\":2723:2756   */\n  eq\n    /* \"#utility.yul\":2713:2774   */\n  tag_107\n  jumpi\n    /* \"#utility.yul\":2770:2771   */\n  0x00\n    /* \"#utility.yul\":2767:2768   */\n  0x00\n    /* \"#utility.yul\":2760:2772   */\n  revert\n    /* \"#utility.yul\":2713:2774   */\ntag_107:\n    /* \"#utility.yul\":2662:2780   */\n  pop\n  jump\t// out\n    /* \"#utility.yul\":2786:2925   */\ntag_43:\n    /* \"#utility.yul\":2841:2846   */\n  0x00\n    /* \"#utility.yul\":2872:2878   */\n  dup2\n    /* \"#utility.yul\":2866:2879   */\n  mload\n    /* \"#utility.yul\":2857:2879   */\n  swap1\n  pop\n    /* \"#utility.yul\":2888:2919   */\n  tag_109\n    /* \"#utility.yul\":2913:2918   */\n  dup2\n    /* \"#utility.yul\":2888:2919   */\n  tag_42\n  jump\t// in\ntag_109:\n    /* \"#utility.yul\":2786:2925   */\n  swap3\n  swap2\n  pop\n  pop\n  jump\t// out\n    /* \"#utility.yul\":2931:3008   */\ntag_44:\n    /* \"#utility.yul\":2968:2975   */\n  0x00\n    /* \"#utility.yul\":2997:3002   */\n  dup2\n    /* \"#utility.yul\":2986:3002   */\n  swap1\n  pop\n    /* \"#utility.yul\":2931:3008   */\n  swap2\n  swap1\n  pop\n  jump\t// out\n    /* \"#utility.yul\":3014:3136   */\ntag_45:\n    /* \"#utility.yul\":3087:3111   */\n  tag_112\n    /* \"#utility.yul\":3105:3110   */\n  dup2\n    /* \"#utility.yul\":3087:3111   */\n  tag_44\n  jump\t// in\ntag_112:\n    /* \"#utility.yul\":3080:3085   */\n  dup2\n    /* \"#utility.yul\":3077:3112   */\n  eq\n    /* \"#utility.yul\":3067:3130   */\n  tag_113\n  jumpi\n    /* \"#utility.yul\":3126:3127   */\n  0x00\n    /* \"#utility.yul\":3123:3124   */\n  0x00\n    /* \"#utility.yul\":3116:3128   */\n  revert\n    /* \"#utility.yul\":3067:3130   */\ntag_113:\n    /* \"#utility.yul\":3014:3136   */\n  pop\n  jump\t// out\n    /* \"#utility.yul\":3142:3285   */\ntag_46:\n    /* \"#utility.yul\":3199:3204   */\n  0x00\n    /* \"#utility.yul\":3230:3236   */\n  dup2\n    /* \"#utility.yul\":3224:3237   */\n  mload\n    /* \"#utility.yul\":3215:3237   */\n  swap1\n  pop\n    /* \"#utility.yul\":3246:3279   */\n  tag_115\n    /* \"#utility.yul\":3273:3278   */\n  dup2\n    /* \"#utility.yul\":3246:3279   */\n  tag_45\n  jump\t// in\ntag_115:\n    /* \"#utility.yul\":3142:3285   */\n  swap3\n  swap2\n  pop\n  pop\n  jump\t// out\n    /* \"#utility.yul\":3291:3417   */\ntag_47:\n    /* \"#utility.yul\":3328:3335   */\n  0x00\n    /* \"#utility.yul\":3368:3410   */\n  0xffffffffffffffffffffffffffffffffffffffff\n    /* \"#utility.yul\":3361:3366   */\n  dup3\n    /* \"#utility.yul\":3357:3411   */\n  and\n    /* \"#utility.yul\":3346:3411   */\n  swap1\n  pop\n    /* \"#utility.yul\":3291:3417   */\n  swap2\n  swap1\n  pop\n  jump\t// out\n    /* \"#utility.yul\":3423:3519   */\ntag_48:\n    /* \"#utility.yul\":3460:3467   */\n  0x00\n    /* \"#utility.yul\":3489:3513   */\n  tag_118\n    /* \"#utility.yul\":3507:3512   */\n  dup3\n    /* \"#utility.yul\":3489:3513   */\n  tag_47\n  jump\t// in\ntag_118:\n    /* \"#utility.yul\":3478:3513   */\n  swap1\n  pop\n    /* \"#utility.yul\":3423:3519   */\n  swap2\n  swap1\n  pop\n  jump\t// out\n    /* \"#utility.yul\":3525:3647   */\ntag_49:\n    /* \"#utility.yul\":3598:3622   */\n  tag_120\n    /* \"#utility.yul\":3616:3621   */\n  dup2\n    /* \"#utility.yul\":3598:3622   */\n  tag_48\n  jump\t// in\ntag_120:\n    /* \"#utility.yul\":3591:3596   */\n  dup2\n    /* \"#utility.yul\":3588:3623   */\n  eq\n    /* \"#utility.yul\":3578:3641   */\n  tag_121\n  jumpi\n    /* \"#utility.yul\":3637:3638   */\n  0x00\n    /* \"#utility.yul\":3634:3635   */\n  0x00\n    /* \"#utility.yul\":3627:3639   */\n  revert\n    /* \"#utility.yul\":3578:3641   */\ntag_121:\n    /* \"#utility.yul\":3525:3647   */\n  pop\n  jump\t// out\n    /* \"#utility.yul\":3653:3796   */\ntag_50:\n    /* \"#utility.yul\":3710:3715   */\n  0x00\n    /* \"#utility.yul\":3741:3747   */\n  dup2\n    /* \"#utility.yul\":3735:3748   */\n  mload\n    /* \"#utility.yul\":3726:3748   */\n  swap1\n  pop\n    /* \"#utility.yul\":3757:3790   */\n  tag_123\n    /* \"#utility.yul\":3784:3789   */\n  dup2\n    /* \"#utility.yul\":3757:3790   */\n  tag_49\n  jump\t// in\ntag_123:\n    /* \"#utility.yul\":3653:3796   */\n  swap3\n  swap2\n  pop\n  pop\n  jump\t// out\n    /* \"#utility.yul\":3802:5906   */\ntag_3:\n    /* \"#utility.yul\":3971:3977   */\n  0x00\n    /* \"#utility.yul\":3979:3985   */\n  0x00\n    /* \"#utility.yul\":3987:3993   */\n  0x00\n    /* \"#utility.yul\":3995:4001   */\n  0x00\n    /* \"#utility.yul\":4003:4009   */\n  0x00\n    /* \"#utility.yul\":4011:4017   */\n  0x00\n    /* \"#utility.yul\":4019:4025   */\n  0x00\n    /* \"#utility.yul\":4027:4033   */\n  0x00\n    /* \"#utility.yul\":4035:4041   */\n  0x00\n    /* \"#utility.yul\":4043:4049   */\n  0x00\n    /* \"#utility.yul\":4092:4095   */\n  0x0140\n    /* \"#utility.yul\":4080:4089   */\n  dup12\n    /* \"#utility.yul\":4071:4078   */\n  dup14\n    /* \"#utility.yul\":4067:4090   */\n  sub\n    /* \"#utility.yul\":4063:4096   */\n  slt\n    /* \"#utility.yul\":4060:4180   */\n  iszero\n  tag_125\n  jumpi\n    /* \"#utility.yul\":4099:4178   */\n  tag_126\n  tag_29\n  jump\t// in\ntag_126:\n    /* \"#utility.yul\":4060:4180   */\ntag_125:\n    /* \"#utility.yul\":4240:4241   */\n  0x00\n    /* \"#utility.yul\":4229:4238   */\n  dup12\n    /* \"#utility.yul\":4225:4242   */\n  add\n    /* \"#utility.yul\":4219:4243   */\n  mload\n    /* \"#utility.yul\":4270:4288   */\n  0xffffffffffffffff\n    /* \"#utility.yul\":4262:4268   */\n  dup2\n    /* \"#utility.yul\":4259:4289   */\n  gt\n    /* \"#utility.yul\":4256:4373   */\n  iszero\n  tag_127\n  jumpi\n    /* \"#utility.yul\":4292:4371   */\n  tag_128\n  tag_30\n  jump\t// in\ntag_128:\n    /* \"#utility.yul\":4256:4373   */\ntag_127:\n    /* \"#utility.yul\":4397:4471   */\n  tag_129\n    /* \"#utility.yul\":4463:4470   */\n  dup14\n    /* \"#utility.yul\":4454:4460   */\n  dup3\n    /* \"#utility.yul\":4443:4452   */\n  dup15\n    /* \"#utility.yul\":4439:4461   */\n  add\n    /* \"#utility.yul\":4397:4471   */\n  tag_40\n  jump\t// in\ntag_129:\n    /* \"#utility.yul\":4387:4471   */\n  swap11\n  pop\n    /* \"#utility.yul\":4190:4481   */\n  pop\n    /* \"#utility.yul\":4541:4543   */\n  0x20\n    /* \"#utility.yul\":4530:4539   */\n  dup12\n    /* \"#utility.yul\":4526:4544   */\n  add\n    /* \"#utility.yul\":4520:4545   */\n  mload\n    /* \"#utility.yul\":4572:4590   */\n  0xffffffffffffffff\n    /* \"#utility.yul\":4564:4570   */\n  dup2\n    /* \"#utility.yul\":4561:4591   */\n  gt\n    /* \"#utility.yul\":4558:4675   */\n  iszero\n  tag_130\n  jumpi\n    /* \"#utility.yul\":4594:4673   */\n  tag_131\n  tag_30\n  jump\t// in\ntag_131:\n    /* \"#utility.yul\":4558:4675   */\ntag_130:\n    /* \"#utility.yul\":4699:4773   */\n  tag_132\n    /* \"#utility.yul\":4765:4772   */\n  dup14\n    /* \"#utility.yul\":4756:4762   */\n  dup3\n    /* \"#utility.yul\":4745:4754   */\n  dup15\n    /* \"#utility.yul\":4741:4763   */\n  add\n    /* \"#utility.yul\":4699:4773   */\n  tag_40\n  jump\t// in\ntag_132:\n    /* \"#utility.yul\":4689:4773   */\n  swap10\n  pop\n    /* \"#utility.yul\":4491:4783   */\n  pop\n    /* \"#utility.yul\":4822:4824   */\n  0x40\n    /* \"#utility.yul\":4848:4910   */\n  tag_133\n    /* \"#utility.yul\":4902:4909   */\n  dup14\n    /* \"#utility.yul\":4893:4899   */\n  dup3\n    /* \"#utility.yul\":4882:4891   */\n  dup15\n    /* \"#utility.yul\":4878:4900   */\n  add\n    /* \"#utility.yul\":4848:4910   */\n  tag_43\n  jump\t// in\ntag_133:\n    /* \"#utility.yul\":4838:4910   */\n  swap9\n  pop\n    /* \"#utility.yul\":4793:4920   */\n  pop\n    /* \"#utility.yul\":4959:4961   */\n  0x60\n    /* \"#utility.yul\":4985:5049   */\n  tag_134\n    /* \"#utility.yul\":5041:5048   */\n  dup14\n    /* \"#utility.yul\":5032:5038   */\n  dup3\n    /* \"#utility.yul\":5021:5030   */\n  dup15\n    /* \"#utility.yul\":5017:5039   */\n  add\n    /* \"#utility.yul\":4985:5049   */\n  tag_46\n  jump\t// in\ntag_134:\n    /* \"#utility.yul\":4975:5049   */\n  swap8\n  pop\n    /* \"#utility.yul\":4930:5059   */\n  pop\n    /* \"#utility.yul\":5098:5101   */\n  0x80\n    /* \"#utility.yul\":5125:5189   */\n  tag_135\n    /* \"#utility.yul\":5181:5188   */\n  dup14\n    /* \"#utility.yul\":5172:5178   */\n  dup3\n    /* \"#utility.yul\":5161:5170   */\n  dup15\n    /* \"#utility.yul\":5157:5179   */\n  add\n    /* \"#utility.yul\":5125:5189   */\n  tag_46\n  jump\t// in\ntag_135:\n    /* \"#utility.yul\":5115:5189   */\n  swap7\n  pop\n    /* \"#utility.yul\":5069:5199   */\n  pop\n    /* \"#utility.yul\":5238:5241   */\n  0xa0\n    /* \"#utility.yul\":5265:5329   */\n  tag_136\n    /* \"#utility.yul\":5321:5328   */\n  dup14\n    /* \"#utility.yul\":5312:5318   */\n  dup3\n    /* \"#utility.yul\":5301:5310   */\n  dup15\n    /* \"#utility.yul\":5297:5319   */\n  add\n    /* \"#utility.yul\":5265:5329   */\n  tag_50\n  jump\t// in\ntag_136:\n    /* \"#utility.yul\":5255:5329   */\n  swap6\n  pop\n    /* \"#utility.yul\":5209:5339   */\n  pop\n    /* \"#utility.yul\":5378:5381   */\n  0xc0\n    /* \"#utility.yul\":5405:5469   */\n  tag_137\n    /* \"#utility.yul\":5461:5468   */\n  dup14\n    /* \"#utility.yul\":5452:5458   */\n  dup3\n    /* \"#utility.yul\":5441:5450   */\n  dup15\n    /* \"#utility.yul\":5437:5459   */\n  add\n    /* \"#utility.yul\":5405:5469   */\n  tag_50\n  jump\t// in\ntag_137:\n    /* \"#utility.yul\":5395:5469   */\n  swap5\n  pop\n    /* \"#utility.yul\":5349:5479   */\n  pop\n    /* \"#utility.yul\":5518:5521   */\n  0xe0\n    /* \"#utility.yul\":5545:5609   */\n  tag_138\n    /* \"#utility.yul\":5601:5608   */\n  dup14\n    /* \"#utility.yul\":5592:5598   */\n  dup3\n    /* \"#utility.yul\":5581:5590   */\n  dup15\n    /* \"#utility.yul\":5577:5599   */\n  add\n    /* \"#utility.yul\":5545:5609   */\n  tag_46\n  jump\t// in\ntag_138:\n    /* \"#utility.yul\":5535:5609   */\n  swap4\n  pop\n    /* \"#utility.yul\":5489:5619   */\n  pop\n    /* \"#utility.yul\":5658:5661   */\n  0x0100\n    /* \"#utility.yul\":5685:5749   */\n  tag_139\n    /* \"#utility.yul\":5741:5748   */\n  dup14\n    /* \"#utility.yul\":5732:5738   */\n  dup3\n    /* \"#utility.yul\":5721:5730   */\n  dup15\n    /* \"#utility.yul\":5717:5739   */\n  add\n    /* \"#utility.yul\":5685:5749   */\n  tag_46\n  jump\t// in\ntag_139:\n    /* \"#utility.yul\":5675:5749   */\n  swap3\n  pop\n    /* \"#utility.yul\":5629:5759   */\n  pop\n    /* \"#utility.yul\":5798:5801   */\n  0x0120\n    /* \"#utility.yul\":5825:5889   */\n  tag_140\n    /* \"#utility.yul\":5881:5888   */\n  dup14\n    /* \"#utility.yul\":5872:5878   */\n  dup3\n    /* \"#utility.yul\":5861:5870   */\n  dup15\n    /* \"#utility.yul\":5857:5879   */\n  add\n    /* \"#utility.yul\":5825:5889   */\n  tag_46\n  jump\t// in\ntag_140:\n    /* \"#utility.yul\":5815:5889   */\n  swap2\n  pop\n    /* \"#utility.yul\":5769:5899   */\n  pop\n    /* \"#utility.yul\":3802:5906   */\n  swap3\n  swap6\n  swap9\n  swap12\n  swap2\n  swap5\n  swap8\n  swap11\n  pop\n  swap3\n  swap6\n  swap9\n  pop\n  jump\t// out\n    /* \"#utility.yul\":5912:6011   */\ntag_51:\n    /* \"#utility.yul\":5964:5970   */\n  0x00\n    /* \"#utility.yul\":5998:6003   */\n  dup2\n    /* \"#utility.yul\":5992:6004   */\n  mload\n    /* \"#utility.yul\":5982:6004   */\n  swap1\n  pop\n    /* \"#utility.yul\":5912:6011   */\n  swap2\n  swap1\n  pop\n  jump\t// out\n    /* \"#utility.yul\":6017:6197   */\ntag_52:\n    /* \"#utility.yul\":6065:6142   */\n  0x4e487b7100000000000000000000000000000000000000000000000000000000\n    /* \"#utility.yul\":6062:6063   */\n  0x00\n    /* \"#utility.yul\":6055:6143   */\n  mstore\n    /* \"#utility.yul\":6162:6166   */\n  0x22\n    /* \"#utility.yul\":6159:6160   */\n  0x04\n    /* \"#utility.yul\":6152:6167   */\n  mstore\n    /* \"#utility.yul\":6186:6190   */\n  0x24\n    /* \"#utility.yul\":6183:6184   */\n  0x00\n    /* \"#utility.yul\":6176:6191   */\n  revert\n    /* \"#utility.yul\":6203:6523   */\ntag_53:\n    /* \"#utility.yul\":6247:6253   */\n  0x00\n    /* \"#utility.yul\":6284:6285   */\n  0x02\n    /* \"#utility.yul\":6278:6282   */\n  dup3\n    /* \"#utility.yul\":6274:6286   */\n  div\n    /* \"#utility.yul\":6264:6286   */\n  swap1\n  pop\n    /* \"#utility.yul\":6331:6332   */\n  0x01\n    /* \"#utility.yul\":6325:6329   */\n  dup3\n    /* \"#utility.yul\":6321:6333   */\n  and\n    /* \"#utility.yul\":6352:6370   */\n  dup1\n    /* \"#utility.yul\":6342:6423   */\n  tag_144\n  jumpi\n    /* \"#utility.yul\":6408:6412   */\n  0x7f\n    /* \"#utility.yul\":6400:6406   */\n  dup3\n    /* \"#utility.yul\":6396:6413   */\n  and\n    /* \"#utility.yul\":6386:6413   */\n  swap2\n  pop\n    /* \"#utility.yul\":6342:6423   */\ntag_144:\n    /* \"#utility.yul\":6470:6472   */\n  0x20\n    /* \"#utility.yul\":6462:6468   */\n  dup3\n    /* \"#utility.yul\":6459:6473   */\n  lt\n    /* \"#utility.yul\":6439:6457   */\n  dup2\n    /* \"#utility.yul\":6436:6474   */\n  sub\n    /* \"#utility.yul\":6433:6517   */\n  tag_145\n  jumpi\n    /* \"#utility.yul\":6489:6507   */\n  tag_146\n  tag_52\n  jump\t// in\ntag_146:\n    /* \"#utility.yul\":6433:6517   */\ntag_145:\n    /* \"#utility.yul\":6254:6523   */\n  pop\n    /* \"#utility.yul\":6203:6523   */\n  swap2\n  swap1\n  pop\n  jump\t// out\n    /* \"#utility.yul\":6529:6670   */\ntag_54:\n    /* \"#utility.yul\":6578:6582   */\n  0x00\n    /* \"#utility.yul\":6601:6604   */\n  dup2\n    /* \"#utility.yul\":6593:6604   */\n  swap1\n  pop\n    /* \"#utility.yul\":6624:6627   */\n  dup2\n    /* \"#utility.yul\":6621:6622   */\n  0x00\n    /* \"#utility.yul\":6614:6628   */\n  mstore\n    /* \"#utility.yul\":6658:6662   */\n  0x20\n    /* \"#utility.yul\":6655:6656   */\n  0x00\n    /* \"#utility.yul\":6645:6663   */\n  keccak256\n    /* \"#utility.yul\":6637:6663   */\n  swap1\n  pop\n    /* \"#utility.yul\":6529:6670   */\n  swap2\n  swap1\n  pop\n  jump\t// out\n    /* \"#utility.yul\":6676:6769   */\ntag_55:\n    /* \"#utility.yul\":6713:6719   */\n  0x00\n    /* \"#utility.yul\":6760:6762   */\n  0x20\n    /* \"#utility.yul\":6755:6757   */\n  0x1f\n    /* \"#utility.yul\":6748:6753   */\n  dup4\n    /* \"#utility.yul\":6744:6758   */\n  add\n    /* \"#utility.yul\":6740:6763   */\n  div\n    /* \"#utility.yul\":6730:6763   */\n  swap1\n  pop\n    /* \"#utility.yul\":6676:6769   */\n  swap2\n  swap1\n  pop\n  jump\t// out\n    /* \"#utility.yul\":6775:6882   */\ntag_56:\n    /* \"#utility.yul\":6819:6827   */\n  0x00\n    /* \"#utility.yul\":6869:6874   */\n  dup3\n    /* \"#utility.yul\":6863:6867   */\n  dup3\n    /* \"#utility.yul\":6859:6875   */\n  shl\n    /* \"#utility.yul\":6838:6875   */\n  swap1\n  pop\n    /* \"#utility.yul\":6775:6882   */\n  swap3\n  swap2\n  pop\n  pop\n  jump\t// out\n    /* \"#utility.yul\":6888:7281   */\ntag_57:\n    /* \"#utility.yul\":6957:6963   */\n  0x00\n    /* \"#utility.yul\":7007:7008   */\n  0x08\n    /* \"#utility.yul\":6995:7005   */\n  dup4\n    /* \"#utility.yul\":6991:7009   */\n  mul\n    /* \"#utility.yul\":7030:7127   */\n  tag_151\n    /* \"#utility.yul\":7060:7126   */\n  0xffffffffffffffffffffffffffffffffffffffffffffffffffffffffffffffff\n    /* \"#utility.yul\":7049:7058   */\n  dup3\n    /* \"#utility.yul\":7030:7127   */\n  tag_56\n  jump\t// in\ntag_151:\n    /* \"#utility.yul\":7148:7187   */\n  tag_152\n    /* \"#utility.yul\":7178:7186   */\n  dup7\n    /* \"#utility.yul\":7167:7176   */\n  dup4\n    /* \"#utility.yul\":7148:7187   */\n  tag_56\n  jump\t// in\ntag_152:\n    /* \"#utility.yul\":7136:7187   */\n  swap6\n  pop\n    /* \"#utility.yul\":7220:7224   */\n  dup1\n    /* \"#utility.yul\":7216:7225   */\n  not\n    /* \"#utility.yul\":7209:7214   */\n  dup5\n    /* \"#utility.yul\":7205:7226   */\n  and\n    /* \"#utility.yul\":7196:7226   */\n  swap4\n  pop\n    /* \"#utility.yul\":7269:7273   */\n  dup1\n    /* \"#utility.yul\":7259:7267   */\n  dup7\n    /* \"#utility.yul\":7255:7274   */\n  and\n    /* \"#utility.yul\":7248:7253   */\n  dup5\n    /* \"#utility.yul\":7245:7275   */\n  or\n    /* \"#utility.yul\":7235:7275   */\n  swap3\n  pop\n    /* \"#utility.yul\":6964:7281   */\n  pop\n  pop\n    /* \"#utility.yul\":6888:7281   */\n  swap4\n  swap3\n  pop\n  pop\n  pop\n  jump\t// out\n    /* \"#utility.yul\":7287:7347   */\ntag_58:\n    /* \"#utility.yul\":7315:7318   */\n  0x00\n    /* \"#utility.yul\":7336:7341   */\n  dup2\n    /* \"#utility.yul\":7329:7341   */\n  swap1\n  pop\n    /* \"#utility.yul\":7287:7347   */\n  swap2\n  swap1\n  pop\n  jump\t// out\n    /* \"#utility.yul\":7353:7495   */\ntag_59:\n    /* \"#utility.yul\":7403:7412   */\n  0x00\n    /* \"#utility.yul\":7436:7489   */\n  tag_155\n    /* \"#utility.yul\":7454:7488   */\n  tag_156\n    /* \"#utility.yul\":7463:7487   */\n  tag_157\n    /* \"#utility.yul\":7481:7486   */\n  dup5\n    /* \"#utility.yul\":7463:7487   */\n  tag_44\n  jump\t// in\ntag_157:\n    /* \"#utility.yul\":7454:7488   */\n  tag_58\n  jump\t// in\ntag_156:\n    /* \"#utility.yul\":7436:7489   */\n  tag_44\n  jump\t// in\ntag_155:\n    /* \"#utility.yul\":7423:7489   */\n  swap1\n  pop\n    /* \"#utility.yul\":7353:7495   */\n  swap2\n  swap1\n  pop\n  jump\t// out\n    /* \"#utility.yul\":7501:7576   */\ntag_60:\n    /* \"#utility.yul\":7544:7547   */\n  0x00\n    /* \"#utility.yul\":7565:7570   */\n  dup2\n    /* \"#utility.yul\":7558:7570   */\n  swap1\n  pop\n    /* \"#utility.yul\":7501:7576   */\n  swap2\n  swap1\n  pop\n  jump\t// out\n    /* \"#utility.yul\":7582:7851   */\ntag_61:\n    /* \"#utility.yul\":7692:7731   */\n  tag_160\n    /* \"#utility.yul\":7723:7730   */\n  dup4\n    /* \"#utility.yul\":7692:7731   */\n  tag_59\n  jump\t// in\ntag_160:\n    /* \"#utility.yul\":7753:7844   */\n  tag_161\n    /* \"#utility.yul\":7802:7843   */\n  tag_162\n    /* \"#utility.yul\":7826:7842   */\n  dup3\n    /* \"#utility.yul\":7802:7843   */\n  tag_60\n  jump\t// in\ntag_162:\n    /* \"#utility.yul\":7794:7800   */\n  dup5\n    /* \"#utility.yul\":7787:7791   */\n  dup5\n    /* \"#utility.yul\":7781:7792   */\n  sload\n    /* \"#utility.yul\":7753:7844   */\n  tag_57\n  jump\t// in\ntag_161:\n    /* \"#utility.yul\":7747:7751   */\n  dup3\n    /* \"#utility.yul\":7740:7845   */\n  sstore\n    /* \"#utility.yul\":7658:7851   */\n  pop\n    /* \"#utility.yul\":7582:7851   */\n  pop\n  pop\n  pop\n  jump\t// out\n    /* \"#utility.yul\":7857:7930   */\ntag_62:\n    /* \"#utility.yul\":7902:7905   */\n  0x00\n    /* \"#utility.yul\":7923:7924   */\n  0x00\n    /* \"#utility.yul\":7916:7924   */\n  swap1\n  pop\n    /* \"#utility.yul\":7857:7930   */\n  swap1\n  jump\t// out\n    /* \"#utility.yul\":7936:8125   */\ntag_63:\n    /* \"#utility.yul\":8013:8045   */\n  tag_165\n  tag_62\n  jump\t// in\ntag_165:\n    /* \"#utility.yul\":8054:8119   */\n  tag_166\n    /* \"#utility.yul\":8112:8118   */\n  dup2\n    /* \"#utility.yul\":8104:8110   */\n  dup5\n    /* \"#utility.yul\":8098:8102   */\n  dup5\n    /* \"#utility.yul\":8054:8119   */\n  tag_61\n  jump\t// in\ntag_166:\n    /* \"#utility.yul\":7989:8125   */\n  pop\n    /* \"#utility.yul\":7936:8125   */\n  pop\n  pop\n  jump\t// out\n    /* \"#utility.yul\":8131:8317   */\ntag_64:\n    /* \"#utility.yul\":8191:8311   */\ntag_168:\n    /* \"#utility.yul\":8208:8211   */\n  dup2\n    /* \"#utility.yul\":8201:8206   */\n  dup2\n    /* \"#utility.yul\":8198:8212   */\n  lt\n    /* \"#utility.yul\":8191:8311   */\n  iszero\n  tag_170\n  jumpi\n    /* \"#utility.yul\":8262:8301   */\n  tag_171\n    /* \"#utility.yul\":8299:8300   */\n  0x00\n    /* \"#utility.yul\":8292:8297   */\n  dup3\n    /* \"#utility.yul\":8262:8301   */\n  tag_63\n  jump\t// in\ntag_171:\n    /* \"#utility.yul\":8235:8236   */\n  0x01\n    /* \"#utility.yul\":8228:8233   */\n  dup2\n    /* \"#utility.yul\":8224:8237   */\n  add\n    /* \"#utility.yul\":8215:8237   */\n  swap1\n  pop\n    /* \"#utility.yul\":8191:8311   */\n  jump(tag_168)\ntag_170:\n    /* \"#utility.yul\":8131:8317   */\n  pop\n  pop\n  jump\t// out\n    /* \"#utility.yul\":8323:8866   */\ntag_65:\n    /* \"#utility.yul\":8424:8426   */\n  0x1f\n    /* \"#utility.yul\":8419:8422   */\n  dup3\n    /* \"#utility.yul\":8416:8427   */\n  gt\n    /* \"#utility.yul\":8413:8859   */\n  iszero\n  tag_173\n  jumpi\n    /* \"#utility.yul\":8458:8496   */\n  tag_174\n    /* \"#utility.yul\":8490:8495   */\n  dup2\n    /* \"#utility.yul\":8458:8496   */\n  tag_54\n  jump\t// in\ntag_174:\n    /* \"#utility.yul\":8542:8571   */\n  tag_175\n    /* \"#utility.yul\":8560:8570   */\n  dup5\n    /* \"#utility.yul\":8542:8571   */\n  tag_55\n  jump\t// in\ntag_175:\n    /* \"#utility.yul\":8532:8540   */\n  dup2\n    /* \"#utility.yul\":8528:8572   */\n  add\n    /* \"#utility.yul\":8725:8727   */\n  0x20\n    /* \"#utility.yul\":8713:8723   */\n  dup6\n    /* \"#utility.yul\":8710:8728   */\n  lt\n    /* \"#utility.yul\":8707:8756   */\n  iszero\n  tag_176\n  jumpi\n    /* \"#utility.yul\":8746:8754   */\n  dup2\n    /* \"#utility.yul\":8731:8754   */\n  swap1\n  pop\n    /* \"#utility.yul\":8707:8756   */\ntag_176:\n    /* \"#utility.yul\":8769:8849   */\n  tag_177\n    /* \"#utility.yul\":8825:8847   */\n  tag_178\n    /* \"#utility.yul\":8843:8846   */\n  dup6\n    /* \"#utility.yul\":8825:8847   */\n  tag_55\n  jump\t// in\ntag_178:\n    /* \"#utility.yul\":8815:8823   */\n  dup4\n    /* \"#utility.yul\":8811:8848   */\n  add\n    /* \"#utility.yul\":8798:8809   */\n  dup3\n    /* \"#utility.yul\":8769:8849   */\n  tag_64\n  jump\t// in\ntag_177:\n    /* \"#utility.yul\":8428:8859   */\n  pop\n  pop\n    /* \"#utility.yul\":8413:8859   */\ntag_173:\n    /* \"#utility.yul\":8323:8866   */\n  pop\n  pop\n  pop\n  jump\t// out\n    /* \"#utility.yul\":8872:8989   */\ntag_66:\n    /* \"#utility.yul\":8926:8934   */\n  0x00\n    /* \"#utility.yul\":8976:8981   */\n  dup3\n    /* \"#utility.yul\":8970:8974   */\n  dup3\n    /* \"#utility.yul\":8966:8982   */\n  shr\n    /* \"#utility.yul\":8945:8982   */\n  swap1\n  pop\n    /* \"#utility.yul\":8872:8989   */\n  swap3\n  swap2\n  pop\n  pop\n  jump\t// out\n    /* \"#utility.yul\":8995:9164   */\ntag_67:\n    /* \"#utility.yul\":9039:9045   */\n  0x00\n    /* \"#utility.yul\":9072:9123   */\n  tag_181\n    /* \"#utility.yul\":9120:9121   */\n  0x00\n    /* \"#utility.yul\":9116:9122   */\n  not\n    /* \"#utility.yul\":9108:9113   */\n  dup5\n    /* \"#utility.yul\":9105:9106   */\n  0x08\n    /* \"#utility.yul\":9101:9114   */\n  mul\n    /* \"#utility.yul\":9072:9123   */\n  tag_66\n  jump\t// in\ntag_181:\n    /* \"#utility.yul\":9068:9124   */\n  not\n    /* \"#utility.yul\":9153:9157   */\n  dup1\n    /* \"#utility.yul\":9147:9151   */\n  dup4\n    /* \"#utility.yul\":9143:9158   */\n  and\n    /* \"#utility.yul\":9133:9158   */\n  swap2\n  pop\n    /* \"#utility.yul\":9046:9164   */\n  pop\n    /* \"#utility.yul\":8995:9164   */\n  swap3\n  swap2\n  pop\n  pop\n  jump\t// out\n    /* \"#utility.yul\":9169:9464   */\ntag_68:\n    /* \"#utility.yul\":9245:9249   */\n  0x00\n    /* \"#utility.yul\":9391:9420   */\n  tag_183\n    /* \"#utility.yul\":9416:9419   */\n  dup4\n    /* \"#utility.yul\":9410:9414   */\n  dup4\n    /* \"#utility.yul\":9391:9420   */\n  tag_67\n  jump\t// in\ntag_183:\n    /* \"#utility.yul\":9383:9420   */\n  swap2\n  pop\n    /* \"#utility.yul\":9453:9456   */\n  dup3\n    /* \"#utility.yul\":9450:9451   */\n  0x02\n    /* \"#utility.yul\":9446:9457   */\n  mul\n    /* \"#utility.yul\":9440:9444   */\n  dup3\n    /* \"#utility.yul\":9437:9458   */\n  or\n    /* \"#utility.yul\":9429:9458   */\n  swap1\n  pop\n    /* \"#utility.yul\":9169:9464   */\n  swap3\n  swap2\n  pop\n  pop\n  jump\t// out\n    /* \"#utility.yul\":9469:10864   */\ntag_7:\n    /* \"#utility.yul\":9586:9623   */\n  tag_185\n    /* \"#utility.yul\":9619:9622   */\n  dup3\n    /* \"#utility.yul\":9586:9623   */\n  tag_51\n  jump\t// in\ntag_185:\n    /* \"#utility.yul\":9688:9706   */\n  0xffffffffffffffff\n    /* \"#utility.yul\":9680:9686   */\n  dup2\n    /* \"#utility.yul\":9677:9707   */\n  gt\n    /* \"#utility.yul\":9674:9730   */\n  iszero\n  tag_186\n  jumpi\n    /* \"#utility.yul\":9710:9728   */\n  tag_187\n  tag_34\n  jump\t// in\ntag_187:\n    /* \"#utility.yul\":9674:9730   */\ntag_186:\n    /* \"#utility.yul\":9754:9792   */\n  tag_188\n    /* \"#utility.yul\":9786:9790   */\n  dup3\n    /* \"#utility.yul\":9780:9791   */\n  sload\n    /* \"#utility.yul\":9754:9792   */\n  tag_53\n  jump\t// in\ntag_188:\n    /* \"#utility.yul\":9839:9906   */\n  tag_189\n    /* \"#utility.yul\":9899:9905   */\n  dup3\n    /* \"#utility.yul\":9891:9897   */\n  dup3\n    /* \"#utility.yul\":9885:9889   */\n  dup6\n    /* \"#utility.yul\":9839:9906   */\n  tag_65\n  jump\t// in\ntag_189:\n    /* \"#utility.yul\":9933:9934   */\n  0x00\n    /* \"#utility.yul\":9957:9961   */\n  0x20\n    /* \"#utility.yul\":9944:9961   */\n  swap1\n  pop\n    /* \"#utility.yul\":9989:9991   */\n  0x1f\n    /* \"#utility.yul\":9981:9987   */\n  dup4\n    /* \"#utility.yul\":9978:9992   */\n  gt\n    /* \"#utility.yul\":10006:10007   */\n  0x01\n    /* \"#utility.yul\":10001:10619   */\n  dup2\n  eq\n  tag_191\n  jumpi\n    /* \"#utility.yul\":10663:10664   */\n  0x00\n    /* \"#utility.yul\":10680:10686   */\n  dup5\n    /* \"#utility.yul\":10677:10754   */\n  iszero\n  tag_192\n  jumpi\n    /* \"#utility.yul\":10729:10738   */\n  dup3\n    /* \"#utility.yul\":10724:10727   */\n  dup8\n    /* \"#utility.yul\":10720:10739   */\n  add\n    /* \"#utility.yul\":10714:10740   */\n  mload\n    /* \"#utility.yul\":10705:10740   */\n  swap1\n  pop\n    /* \"#utility.yul\":10677:10754   */\ntag_192:\n    /* \"#utility.yul\":10780:10847   */\n  tag_193\n    /* \"#utility.yul\":10840:10846   */\n  dup6\n    /* \"#utility.yul\":10833:10838   */\n  dup3\n    /* \"#utility.yul\":10780:10847   */\n  tag_68\n  jump\t// in\ntag_193:\n    /* \"#utility.yul\":10774:10778   */\n  dup7\n    /* \"#utility.yul\":10767:10848   */\n  sstore\n    /* \"#utility.yul\":10636:10858   */\n  pop\n    /* \"#utility.yul\":9971:10858   */\n  jump(tag_190)\n    /* \"#utility.yul\":10001:10619   */\ntag_191:\n    /* \"#utility.yul\":10053:10057   */\n  0x1f\n    /* \"#utility.yul\":10049:10058   */\n  not\n    /* \"#utility.yul\":10041:10047   */\n  dup5\n    /* \"#utility.yul\":10037:10059   */\n  and\n    /* \"#utility.yul\":10087:10124   */\n  tag_194\n    /* \"#utility.yul\":10119:10123   */\n  dup7\n    /* \"#utility.yul\":10087:10124   */\n  tag_54\n  jump\t// in\ntag_194:\n    /* \"#utility.yul\":10146:10147   */\n  0x00\n    /* \"#utility.yul\":10160:10368   */\ntag_195:\n    /* \"#utility.yul\":10174:10181   */\n  dup3\n    /* \"#utility.yul\":10171:10172   */\n  dup2\n    /* \"#utility.yul\":10168:10182   */\n  lt\n    /* \"#utility.yul\":10160:10368   */\n  iszero\n  tag_197\n  jumpi\n    /* \"#utility.yul\":10253:10262   */\n  dup5\n    /* \"#utility.yul\":10248:10251   */\n  dup10\n    /* \"#utility.yul\":10244:10263   */\n  add\n    /* \"#utility.yul\":10238:10264   */\n  mload\n    /* \"#utility.yul\":10230:10236   */\n  dup3\n    /* \"#utility.yul\":10223:10265   */\n  sstore\n    /* \"#utility.yul\":10304:10305   */\n  0x01\n    /* \"#utility.yul\":10296:10302   */\n  dup3\n    /* \"#utility.yul\":10292:10306   */\n  add\n    /* \"#utility.yul\":10282:10306   */\n  swap2\n  pop\n    /* \"#utility.yul\":10351:10353   */\n  0x20\n    /* \"#utility.yul\":10340:10349   */\n  dup6\n    /* \"#utility.yul\":10336:10354   */\n  add\n    /* \"#utility.yul\":10323:10354   */\n  swap5\n  pop\n    /* \"#utility.yul\":10197:10201   */\n  0x20\n    /* \"#utility.yul\":10194:10195   */\n  dup2\n    /* \"#utility.yul\":10190:10202   */\n  add\n    /* \"#utility.yul\":10185:10202   */\n  swap1\n  pop\n    /* \"#utility.yul\":10160:10368   */\n  jump(tag_195)\ntag_197:\n    /* \"#utility.yul\":10396:10402   */\n  dup7\n    /* \"#utility.yul\":10387:10394   */\n  dup4\n    /* \"#utility.yul\":10384:10403   */\n  lt\n    /* \"#utility.yul\":10381:10560   */\n  iszero\n  tag_198\n  jumpi\n    /* \"#utility.yul\":10454:10463   */\n  dup5\n    /* \"#utility.yul\":10449:10452   */\n  dup10\n    /* \"#utility.yul\":10445:10464   */\n  add\n    /* \"#utility.yul\":10439:10465   */\n  mload\n    /* \"#utility.yul\":10497:10545   */\n  tag_199\n    /* \"#utility.yul\":10539:10543   */\n  0x1f\n    /* \"#utility.yul\":10531:10537   */\n  dup10\n    /* \"#utility.yul\":10527:10544   */\n  and\n    /* \"#utility.yul\":10516:10525   */\n  dup3\n    /* \"#utility.yul\":10497:10545   */\n  tag_67\n  jump\t// in\ntag_199:\n    /* \"#utility.yul\":10489:10495   */\n  dup4\n    /* \"#utility.yul\":10482:10546   */\n  sstore\n    /* \"#utility.yul\":10404:10560   */\n  pop\n    /* \"#utility.yul\":10381:10560   */\ntag_198:\n    /* \"#utility.yul\":10606:10607   */\n  0x01\n    /* \"#utility.yul\":10602:10603   */\n  0x02\n    /* \"#utility.yul\":10594:10600   */\n  dup9\n    /* \"#utility.yul\":10590:10604   */\n  mul\n    /* \"#utility.yul\":10586:10608   */\n  add\n    /* \"#utility.yul\":10580:10584   */\n  dup9\n    /* \"#utility.yul\":10573:10609   */\n  sstore\n    /* \"#utility.yul\":10008:10619   */\n  pop\n  pop\n  pop\n    /* \"#utility.yul\":9971:10858   */\ntag_190:\n  pop\n    /* \"#utility.yul\":9561:10864   */\n  pop\n  pop\n  pop\n    /* \"#utility.yul\":9469:10864   */\n  pop\n  pop\n  jump\t// out\n    /* \"#utility.yul\":10870:11050   */\ntag_69:\n    /* \"#utility.yul\":10918:10995   */\n  0x4e487b7100000000000000000000000000000000000000000000000000000000\n    /* \"#utility.yul\":10915:10916   */\n  0x00\n    /* \"#utility.yul\":10908:10996   */\n  mstore\n    /* \"#utility.yul\":11015:11019   */\n  0x11\n    /* \"#utility.yul\":11012:11013   */\n  0x04\n    /* \"#utility.yul\":11005:11020   */\n  mstore\n    /* \"#utility.yul\":11039:11043   */\n  0x24\n    /* \"#utility.yul\":11036:11037   */\n  0x00\n    /* \"#utility.yul\":11029:11044   */\n  revert\n    /* \"#utility.yul\":11056:11158   */\ntag_70:\n    /* \"#utility.yul\":11098:11106   */\n  0x00\n    /* \"#utility.yul\":11145:11150   */\n  dup2\n    /* \"#utility.yul\":11142:11143   */\n  0x01\n    /* \"#utility.yul\":11138:11151   */\n  shr\n    /* \"#utility.yul\":11117:11151   */\n  swap1\n  pop\n    /* \"#utility.yul\":11056:11158   */\n  swap2\n  swap1\n  pop\n  jump\t// out\n    /* \"#utility.yul\":11164:12012   */\ntag_71:\n    /* \"#utility.yul\":11225:11230   */\n  0x00\n    /* \"#utility.yul\":11232:11236   */\n  0x00\n    /* \"#utility.yul\":11256:11262   */\n  dup3\n    /* \"#utility.yul\":11247:11262   */\n  swap2\n  pop\n    /* \"#utility.yul\":11280:11285   */\n  dup4\n    /* \"#utility.yul\":11271:11285   */\n  swap1\n  pop\n    /* \"#utility.yul\":11294:12006   */\ntag_203:\n    /* \"#utility.yul\":11315:11316   */\n  0x01\n    /* \"#utility.yul\":11305:11313   */\n  dup6\n    /* \"#utility.yul\":11302:11317   */\n  gt\n    /* \"#utility.yul\":11294:12006   */\n  iszero\n  tag_205\n  jumpi\n    /* \"#utility.yul\":11410:11414   */\n  dup1\n    /* \"#utility.yul\":11405:11408   */\n  dup7\n    /* \"#utility.yul\":11401:11415   */\n  div\n    /* \"#utility.yul\":11395:11399   */\n  dup2\n    /* \"#utility.yul\":11392:11416   */\n  gt\n    /* \"#utility.yul\":11389:11439   */\n  iszero\n  tag_206\n  jumpi\n    /* \"#utility.yul\":11419:11437   */\n  tag_207\n  tag_69\n  jump\t// in\ntag_207:\n    /* \"#utility.yul\":11389:11439   */\ntag_206:\n    /* \"#utility.yul\":11469:11470   */\n  0x01\n    /* \"#utility.yul\":11459:11467   */\n  dup6\n    /* \"#utility.yul\":11455:11471   */\n  and\n    /* \"#utility.yul\":11452:11903   */\n  iszero\n  tag_208\n  jumpi\n    /* \"#utility.yul\":11884:11888   */\n  dup1\n    /* \"#utility.yul\":11877:11882   */\n  dup3\n    /* \"#utility.yul\":11873:11889   */\n  mul\n    /* \"#utility.yul\":11864:11889   */\n  swap2\n  pop\n    /* \"#utility.yul\":11452:11903   */\ntag_208:\n    /* \"#utility.yul\":11934:11938   */\n  dup1\n    /* \"#utility.yul\":11928:11932   */\n  dup2\n    /* \"#utility.yul\":11924:11939   */\n  mul\n    /* \"#utility.yul\":11916:11939   */\n  swap1\n  pop\n    /* \"#utility.yul\":11964:11996   */\n  tag_209\n    /* \"#utility.yul\":11987:11995   */\n  dup6\n    /* \"#utility.yul\":11964:11996   */\n  tag_70\n  jump\t// in\ntag_209:\n    /* \"#utility.yul\":11952:11996   */\n  swap5\n  pop\n    /* \"#utility.yul\":11294:12006   */\n  jump(tag_203)\ntag_205:\n    /* \"#utility.yul\":11164:12012   */\n  swap5\n  pop\n  swap5\n  swap3\n  pop\n  pop\n  pop\n  jump\t// out\n    /* \"#utility.yul\":12018:13091   */\ntag_72:\n    /* \"#utility.yul\":12072:12077   */\n  0x00\n    /* \"#utility.yul\":12263:12271   */\n  dup3\n    /* \"#utility.yul\":12253:12293   */\n  tag_211\n  jumpi\n    /* \"#utility.yul\":12284:12285   */\n  0x01\n    /* \"#utility.yul\":12275:12285   */\n  swap1\n  pop\n    /* \"#utility.yul\":12286:12291   */\n  jump(tag_210)\n    /* \"#utility.yul\":12253:12293   */\ntag_211:\n    /* \"#utility.yul\":12312:12316   */\n  dup2\n    /* \"#utility.yul\":12302:12338   */\n  tag_212\n  jumpi\n    /* \"#utility.yul\":12329:12330   */\n  0x00\n    /* \"#utility.yul\":12320:12330   */\n  swap1\n  pop\n    /* \"#utility.yul\":12331:12336   */\n  jump(tag_210)\n    /* \"#utility.yul\":12302:12338   */\ntag_212:\n    /* \"#utility.yul\":12398:12402   */\n  dup2\n    /* \"#utility.yul\":12446:12447   */\n  0x01\n    /* \"#utility.yul\":12441:12468   */\n  dup2\n  eq\n  tag_214\n  jumpi\n    /* \"#utility.yul\":12482:12483   */\n  0x02\n    /* \"#utility.yul\":12477:12668   */\n  dup2\n  eq\n  tag_215\n  jumpi\n    /* \"#utility.yul\":12391:12668   */\n  jump(tag_213)\n    /* \"#utility.yul\":12441:12468   */\ntag_214:\n    /* \"#utility.yul\":12459:12460   */\n  0x01\n    /* \"#utility.yul\":12450:12460   */\n  swap2\n  pop\n    /* \"#utility.yul\":12461:12466   */\n  pop\n  jump(tag_210)\n    /* \"#utility.yul\":12477:12668   */\ntag_215:\n    /* \"#utility.yul\":12522:12525   */\n  0xff\n    /* \"#utility.yul\":12512:12520   */\n  dup5\n    /* \"#utility.yul\":12509:12526   */\n  gt\n    /* \"#utility.yul\":12506:12549   */\n  iszero\n  tag_216\n  jumpi\n    /* \"#utility.yul\":12529:12547   */\n  tag_217\n  tag_69\n  jump\t// in\ntag_217:\n    /* \"#utility.yul\":12506:12549   */\ntag_216:\n    /* \"#utility.yul\":12578:12586   */\n  dup4\n    /* \"#utility.yul\":12575:12576   */\n  0x02\n    /* \"#utility.yul\":12571:12587   */\n  exp\n    /* \"#utility.yul\":12562:12587   */\n  swap2\n  pop\n    /* \"#utility.yul\":12613:12616   */\n  dup5\n    /* \"#utility.yul\":12606:12611   */\n  dup3\n    /* \"#utility.yul\":12603:12617   */\n  gt\n    /* \"#utility.yul\":12600:12640   */\n  iszero\n  tag_218\n  jumpi\n    /* \"#utility.yul\":12620:12638   */\n  tag_219\n  tag_69\n  jump\t// in\ntag_219:\n    /* \"#utility.yul\":12600:12640   */\ntag_218:\n    /* \"#utility.yul\":12653:12658   */\n  pop\n  jump(tag_210)\n    /* \"#utility.yul\":12391:12668   */\ntag_213:\n  pop\n    /* \"#utility.yul\":12777:12779   */\n  0x20\n    /* \"#utility.yul\":12767:12775   */\n  dup4\n    /* \"#utility.yul\":12764:12780   */\n  lt\n    /* \"#utility.yul\":12758:12761   */\n  0x0133\n    /* \"#utility.yul\":12752:12756   */\n  dup4\n    /* \"#utility.yul\":12749:12762   */\n  lt\n    /* \"#utility.yul\":12745:12781   */\n  and\n    /* \"#utility.yul\":12727:12729   */\n  0x4e\n    /* \"#utility.yul\":12717:12725   */\n  dup5\n    /* \"#utility.yul\":12714:12730   */\n  lt\n    /* \"#utility.yul\":12709:12711   */\n  0x0b\n    /* \"#utility.yul\":12703:12707   */\n  dup5\n    /* \"#utility.yul\":12700:12712   */\n  lt\n    /* \"#utility.yul\":12696:12731   */\n  and\n    /* \"#utility.yul\":12680:12791   */\n  or\n    /* \"#utility.yul\":12677:12923   */\n  iszero\n  tag_220\n  jumpi\n    /* \"#utility.yul\":12833:12841   */\n  dup3\n    /* \"#utility.yul\":12827:12831   */\n  dup3\n    /* \"#utility.yul\":12823:12842   */\n  exp\n    /* \"#utility.yul\":12814:12842   */\n  swap1\n  pop\n    /* \"#utility.yul\":12868:12871   */\n  dup4\n    /* \"#utility.yul\":12861:12866   */\n  dup2\n    /* \"#utility.yul\":12858:12872   */\n  gt\n    /* \"#utility.yul\":12855:12895   */\n  iszero\n  tag_221\n  jumpi\n    /* \"#utility.yul\":12875:12893   */\n  tag_222\n  tag_69\n  jump\t// in\ntag_222:\n    /* \"#utility.yul\":12855:12895   */\ntag_221:\n    /* \"#utility.yul\":12908:12913   */\n  jump(tag_210)\n    /* \"#utility.yul\":12677:12923   */\ntag_220:\n    /* \"#utility.yul\":12948:12990   */\n  tag_223\n    /* \"#utility.yul\":12986:12989   */\n  dup5\n    /* \"#utility.yul\":12976:12984   */\n  dup5\n    /* \"#utility.yul\":12970:12974   */\n  dup5\n    /* \"#utility.yul\":12967:12968   */\n  0x01\n    /* \"#utility.yul\":12948:12990   */\n  tag_71\n  jump\t// in\ntag_223:\n    /* \"#utility.yul\":12933:12990   */\n  swap3\n  pop\n  swap1\n  pop\n    /* \"#utility.yul\":13022:13026   */\n  dup2\n    /* \"#utility.yul\":13017:13020   */\n  dup5\n    /* \"#utility.yul\":13013:13027   */\n  div\n    /* \"#utility.yul\":13006:13011   */\n  dup2\n    /* \"#utility.yul\":13003:13028   */\n  gt\n    /* \"#utility.yul\":13000:13051   */\n  iszero\n  tag_224\n  jumpi\n    /* \"#utility.yul\":13031:13049   */\n  tag_225\n  tag_69\n  jump\t// in\ntag_225:\n    /* \"#utility.yul\":13000:13051   */\ntag_224:\n    /* \"#utility.yul\":13080:13084   */\n  dup2\n    /* \"#utility.yul\":13073:13078   */\n  dup2\n    /* \"#utility.yul\":13069:13085   */\n  mul\n    /* \"#utility.yul\":13060:13085   */\n  swap1\n  pop\n    /* \"#utility.yul\":12018:13091   */\ntag_210:\n  swap4\n  swap3\n  pop\n  pop\n  pop\n  jump\t// out\n    /* \"#utility.yul\":13097:13378   */\ntag_10:\n    /* \"#utility.yul\":13155:13160   */\n  0x00\n    /* \"#utility.yul\":13179:13202   */\n  tag_227\n    /* \"#utility.yul\":13197:13201   */\n  dup3\n    /* \"#utility.yul\":13179:13202   */\n  tag_44\n  jump\t// in\ntag_227:\n    /* \"#utility.yul\":13171:13202   */\n  swap2\n  pop\n    /* \"#utility.yul\":13223:13248   */\n  tag_228\n    /* \"#utility.yul\":13239:13247   */\n  dup4\n    /* \"#utility.yul\":13223:13248   */\n  tag_41\n  jump\t// in\ntag_228:\n    /* \"#utility.yul\":13211:13248   */\n  swap3\n  pop\n    /* \"#utility.yul\":13267:13371   */\n  tag_229\n    /* \"#utility.yul\":13304:13370   */\n  0xffffffffffffffffffffffffffffffffffffffffffffffffffffffffffffffff\n    /* \"#utility.yul\":13294:13302   */\n  dup5\n    /* \"#utility.yul\":13288:13292   */\n  dup5\n    /* \"#utility.yul\":13267:13371   */\n  tag_72\n  jump\t// in\ntag_229:\n    /* \"#utility.yul\":13258:13371   */\n  swap1\n  pop\n    /* \"#utility.yul\":13097:13378   */\n  swap3\n  swap2\n  pop\n  pop\n  jump\t// out\n    /* \"#utility.yul\":13384:13794   */\ntag_12:\n    /* \"#utility.yul\":13424:13431   */\n  0x00\n    /* \"#utility.yul\":13447:13467   */\n  tag_231\n    /* \"#utility.yul\":13465:13466   */\n  dup3\n    /* \"#utility.yul\":13447:13467   */\n  tag_44\n  jump\t// in\ntag_231:\n    /* \"#utility.yul\":13442:13467   */\n  swap2\n  pop\n    /* \"#utility.yul\":13481:13501   */\n  tag_232\n    /* \"#utility.yul\":13499:13500   */\n  dup4\n    /* \"#utility.yul\":13481:13501   */\n  tag_44\n  jump\t// in\ntag_232:\n    /* \"#utility.yul\":13476:13501   */\n  swap3\n  pop\n    /* \"#utility.yul\":13536:13537   */\n  dup3\n    /* \"#utility.yul\":13533:13534   */\n  dup3\n    /* \"#utility.yul\":13529:13538   */\n  mul\n    /* \"#utility.yul\":13558:13588   */\n  tag_233\n    /* \"#utility.yul\":13576:13587   */\n  dup2\n    /* \"#utility.yul\":13558:13588   */\n  tag_44\n  jump\t// in\ntag_233:\n    /* \"#utility.yul\":13547:13588   */\n  swap2\n  pop\n    /* \"#utility.yul\":13737:13738   */\n  dup3\n    /* \"#utility.yul\":13728:13735   */\n  dup3\n    /* \"#utility.yul\":13724:13739   */\n  div\n    /* \"#utility.yul\":13721:13722   */\n  dup5\n    /* \"#utility.yul\":13718:13740   */\n  eq\n    /* \"#utility.yul\":13698:13699   */\n  dup4\n    /* \"#utility.yul\":13691:13700   */\n  iszero\n    /* \"#utility.yul\":13671:13754   */\n  or\n    /* \"#utility.yul\":13648:13787   */\n  tag_234\n  jumpi\n    /* \"#utility.yul\":13767:13785   */\n  tag_235\n  tag_69\n  jump\t// in\ntag_235:\n    /* \"#utility.yul\":13648:13787   */\ntag_234:\n    /* \"#utility.yul\":13432:13794   */\n  pop\n    /* \"#utility.yul\":13384:13794   */\n  swap3\n  swap2\n  pop\n  pop\n  jump\t// out\n    /* \"#utility.yul\":13800:13991   */\ntag_22:\n    /* \"#utility.yul\":13840:13843   */\n  0x00\n    /* \"#utility.yul\":13859:13879   */\n  tag_237\n    /* \"#utility.yul\":13877:13878   */\n  dup3\n    /* \"#utility.yul\":13859:13879   */\n  tag_44\n  jump\t// in\ntag_237:\n    /* \"#utility.yul\":13854:13879   */\n  swap2\n  pop\n    /* \"#utility.yul\":13893:13913   */\n  tag_238\n    /* \"#utility.yul\":13911:13912   */\n  dup4\n    /* \"#utility.yul\":13893:13913   */\n  tag_44\n  jump\t// in\ntag_238:\n    /* \"#utility.yul\":13888:13913   */\n  swap3\n  pop\n    /* \"#utility.yul\":13936:13937   */\n  dup3\n    /* \"#utility.yul\":13933:13934   */\n  dup3\n    /* \"#utility.yul\":13929:13938   */\n  add\n    /* \"#utility.yul\":13922:13938   */\n  swap1\n  pop\n    /* \"#utility.yul\":13957:13960   */\n  dup1\n    /* \"#utility.yul\":13954:13955   */\n  dup3\n    /* \"#utility.yul\":13951:13961   */\n  gt\n    /* \"#utility.yul\":13948:13984   */\n  iszero\n  tag_239\n  jumpi\n    /* \"#utility.yul\":13964:13982   */\n  tag_240\n  tag_69\n  jump\t// in\ntag_240:\n    /* \"#utility.yul\":13948:13984   */\ntag_239:\n    /* \"#utility.yul\":13800:13991   */\n  swap3\n  swap2\n  pop\n  pop\n  jump\t// out\n    /* \"#utility.yul\":13997:14115   */\ntag_73:\n    /* \"#utility.yul\":14084:14108   */\n  tag_242\n    /* \"#utility.yul\":14102:14107   */\n  dup2\n    /* \"#utility.yul\":14084:14108   */\n  tag_44\n  jump\t// in\ntag_242:\n    /* \"#utility.yul\":14079:14082   */\n  dup3\n    /* \"#utility.yul\":14072:14109   */\n  mstore\n    /* \"#utility.yul\":13997:14115   */\n  pop\n  pop\n  jump\t// out\n    /* \"#utility.yul\":14121:14343   */\ntag_27:\n    /* \"#utility.yul\":14214:14218   */\n  0x00\n    /* \"#utility.yul\":14252:14254   */\n  0x20\n    /* \"#utility.yul\":14241:14250   */\n  dup3\n    /* \"#utility.yul\":14237:14255   */\n  add\n    /* \"#utility.yul\":14229:14255   */\n  swap1\n  pop\n    /* \"#utility.yul\":14265:14336   */\n  tag_244\n    /* \"#utility.yul\":14333:14334   */\n  0x00\n    /* \"#utility.yul\":14322:14331   */\n  dup4\n    /* \"#utility.yul\":14318:14335   */\n  add\n    /* \"#utility.yul\":14309:14315   */\n  dup5\n    /* \"#utility.yul\":14265:14336   */\n  tag_73\n  jump\t// in\ntag_244:\n    /* \"#utility.yul\":14121:14343   */\n  swap3\n  swap2\n  pop\n  pop\n  jump\t// out\n    /* \"Solidity/Tokens/SuperToken.sol\":61:14796  contract DeFiSuperToken {... */\ntag_19:\n  dataSize(sub_0)\n  dup1\n  dataOffset(sub_0)\n  0x00\n  codecopy\n  0x00\n  return\nstop\n\nsub_0: assembly {\n        /* \"Solidity/Tokens/SuperToken.sol\":61:14796  contract DeFiSuperToken {... */\n      mstore(0x40, 0x80)\n      callvalue\n      dup1\n      iszero\n      tag_1\n      jumpi\n      revert(0x00, 0x00)\n    tag_1:\n      pop\n      jumpi(tag_2, lt(calldatasize, 0x04))\n      shr(0xe0, calldataload(0x00))\n      dup1\n      0x7d2aeb8a\n      gt\n      tag_46\n      jumpi\n      dup1\n      0xc415b95c\n      gt\n      tag_47\n      jumpi\n      dup1\n      0xdbac26e9\n      gt\n      tag_48\n      jumpi\n      dup1\n      0xdbac26e9\n      eq\n      tag_40\n      jumpi\n      dup1\n      0xdd62ed3e\n      eq\n      tag_41\n      jumpi\n      dup1\n      0xdf136d65\n      eq\n      tag_42\n      jumpi\n      dup1\n      0xe5782fd5\n      eq\n      tag_43\n      jumpi\n      dup1\n      0xef897f07\n      eq\n      tag_44\n      jumpi\n      dup1\n      0xf46eccc4\n      eq\n      tag_45\n      jumpi\n      jump(tag_2)\n    tag_48:\n      dup1\n      0xc415b95c\n      eq\n      tag_35\n      jumpi\n      dup1\n      0xc891571c\n      eq\n      tag_36\n      jumpi\n      dup1\n      0xc8f33c91\n      eq\n      tag_37\n      jumpi\n      dup1\n      0xd5abeb01\n      eq\n      tag_38\n      jumpi\n      dup1\n      0xd936547e\n      eq\n      tag_39\n      jumpi\n      jump(tag_2)\n    tag_47:\n      dup1\n      0x9e447fc6\n      gt\n      tag_49\n      jumpi\n      dup1\n      0x9e447fc6\n      eq\n      tag_29\n      jumpi\n      dup1\n      0xa2e59f57\n      eq\n      tag_30\n      jumpi\n      dup1\n      0xa694fc3a\n      eq\n      tag_31\n      jumpi\n      dup1\n      0xa9059cbb\n      eq\n      tag_32\n      jumpi\n      dup1\n      0xaea29b84\n      eq\n      tag_33\n      jumpi\n      dup1\n      0xb13e4a9d\n      eq\n      tag_34\n      jumpi\n      jump(tag_2)\n    tag_49:\n      dup1\n      0x7d2aeb8a\n      eq\n      tag_24\n      jumpi\n      dup1\n      0x817b1cd2\n      eq\n      tag_25\n      jumpi\n      dup1\n      0x8da5cb5b\n      eq\n      tag_26\n      jumpi\n      dup1\n      0x95d89b41\n      eq\n      tag_27\n      jumpi\n      dup1\n      0x98118cb4\n      eq\n      tag_28\n      jumpi\n      jump(tag_2)\n    tag_46:\n      dup1\n      0x429b62e5\n      gt\n      tag_50\n      jumpi\n      dup1\n      0x63b8ae72\n      gt\n      tag_51\n      jumpi\n      dup1\n      0x63b8ae72\n      eq\n      tag_18\n      jumpi\n      dup1\n      0x665a11ca\n      eq\n      tag_19\n      jumpi\n      dup1\n      0x66c21a12\n      eq\n      tag_20\n      jumpi\n      dup1\n      0x70a08231\n      eq\n      tag_21\n      jumpi\n      dup1\n      0x7b0a47ee\n      eq\n      tag_22\n      jumpi\n      dup1\n      0x7c97e93d\n      eq\n      tag_23\n      jumpi\n      jump(tag_2)\n    tag_51:\n      dup1\n      0x429b62e5\n      eq\n      tag_13\n      jumpi\n      dup1\n      0x45626bd6\n      eq\n      tag_14\n      jumpi\n      dup1\n      0x51fb012d\n      eq\n      tag_15\n      jumpi\n      dup1\n      0x5873eb9b\n      eq\n      tag_16\n      jumpi\n      dup1\n      0x60217267\n      eq\n      tag_17\n      jumpi\n      jump(tag_2)\n    tag_50:\n      dup1\n      0x1e5eb1d0\n      gt\n      tag_52\n      jumpi\n      dup1\n      0x1e5eb1d0\n      eq\n      tag_8\n      jumpi\n      dup1\n      0x23b872dd\n      eq\n      tag_9\n      jumpi\n      dup1\n      0x2e17de78\n      eq\n      tag_10\n      jumpi\n      dup1\n      0x313ce567\n      eq\n      tag_11\n      jumpi\n      dup1\n      0x3f4e8e80\n      eq\n      tag_12\n      jumpi\n      jump(tag_2)\n    tag_52:\n      dup1\n      0x03d41e0e\n      eq\n      tag_3\n      jumpi\n      dup1\n      0x06fdde03\n      eq\n      tag_4\n      jumpi\n      dup1\n      0x095ea7b3\n      eq\n      tag_5\n      jumpi\n      dup1\n      0x099b17ed\n      eq\n      tag_6\n      jumpi\n      dup1\n      0x18160ddd\n      eq\n      tag_7\n      jumpi\n    tag_2:\n      revert(0x00, 0x00)\n        /* \"Solidity/Tokens/SuperToken.sol\":826:865  mapping(address => bool) public burners */\n    tag_3:\n      tag_53\n      0x04\n      dup1\n      calldatasize\n      sub\n      dup2\n      add\n      swap1\n      tag_54\n      swap2\n      swap1\n      tag_55\n      jump\t// in\n    tag_54:\n      tag_56\n      jump\t// in\n    tag_53:\n      mload(0x40)\n      tag_57\n      swap2\n      swap1\n      tag_58\n      jump\t// in\n    tag_57:\n      mload(0x40)\n      dup1\n      swap2\n      sub\n      swap1\n      return\n        /* \"Solidity/Tokens/SuperToken.sol\":129:147  string public name */\n    tag_4:\n      tag_59\n      tag_60\n      jump\t// in\n    tag_59:\n      mload(0x40)\n      tag_61\n      swap2\n      swap1\n      tag_62\n      jump\t// in\n    tag_61:\n      mload(0x40)\n      dup1\n      swap2\n      sub\n      swap1\n      return\n        /* \"Solidity/Tokens/SuperToken.sol\":14643:14793  function approve(address spender, uint256 amount) public returns (bool) {... */\n    tag_5:\n      tag_63\n      0x04\n      dup1\n      calldatasize\n      sub\n      dup2\n      add\n      swap1\n      tag_64\n      swap2\n      swap1\n      tag_65\n      jump\t// in\n    tag_64:\n      tag_66\n      jump\t// in\n    tag_63:\n      mload(0x40)\n      tag_67\n      swap2\n      swap1\n      tag_58\n      jump\t// in\n    tag_67:\n      mload(0x40)\n      dup1\n      swap2\n      sub\n      swap1\n      return\n        /* \"Solidity/Tokens/SuperToken.sol\":1546:1578  uint256 public maxHoldPercentage */\n    tag_6:\n      tag_68\n      tag_69\n      jump\t// in\n    tag_68:\n      mload(0x40)\n      tag_70\n      swap2\n      swap1\n      tag_71\n      jump\t// in\n    tag_70:\n      mload(0x40)\n      dup1\n      swap2\n      sub\n      swap1\n      return\n        /* \"Solidity/Tokens/SuperToken.sol\":209:235  uint256 public totalSupply */\n    tag_7:\n      tag_72\n      tag_73\n      jump\t// in\n    tag_72:\n      mload(0x40)\n      tag_74\n      swap2\n      swap1\n      tag_71\n      jump\t// in\n    tag_74:\n      mload(0x40)\n      dup1\n      swap2\n      sub\n      swap1\n      return\n        /* \"Solidity/Tokens/SuperToken.sol\":635:661  FeeConfig public feeConfig */\n    tag_8:\n      tag_75\n      tag_76\n      jump\t// in\n    tag_75:\n      mload(0x40)\n      tag_77\n      swap6\n      swap5\n      swap4\n      swap3\n      swap2\n      swap1\n      tag_78\n      jump\t// in\n    tag_77:\n      mload(0x40)\n      dup1\n      swap2\n      sub\n      swap1\n      return\n        /* \"Solidity/Tokens/SuperToken.sol\":5880:6329  function transferFrom(address from, address to, uint256 amount) ... */\n    tag_9:\n      tag_79\n      0x04\n      dup1\n      calldatasize\n      sub\n      dup2\n      add\n      swap1\n      tag_80\n      swap2\n      swap1\n      tag_81\n      jump\t// in\n    tag_80:\n      tag_82\n      jump\t// in\n    tag_79:\n      mload(0x40)\n      tag_83\n      swap2\n      swap1\n      tag_58\n      jump\t// in\n    tag_83:\n      mload(0x40)\n      dup1\n      swap2\n      sub\n      swap1\n      return\n        /* \"Solidity/Tokens/SuperToken.sol\":8816:9231  function unstake(uint256 amount) public {... */\n    tag_10:\n      tag_84\n      0x04\n      dup1\n      calldatasize\n      sub\n      dup2\n      add\n      swap1\n      tag_85\n      swap2\n      swap1\n      tag_86\n      jump\t// in\n    tag_85:\n      tag_87\n      jump\t// in\n    tag_84:\n      stop\n        /* \"Solidity/Tokens/SuperToken.sol\":181:202  uint8 public decimals */\n    tag_11:\n      tag_88\n      tag_89\n      jump\t// in\n    tag_88:\n      mload(0x40)\n      tag_90\n      swap2\n      swap1\n      tag_91\n      jump\t// in\n    tag_90:\n      mload(0x40)\n      dup1\n      swap2\n      sub\n      swap1\n      return\n        /* \"Solidity/Tokens/SuperToken.sol\":6381:7231  function createVestingSchedule(... */\n    tag_12:\n      tag_92\n      0x04\n      dup1\n      calldatasize\n      sub\n      dup2\n      add\n      swap1\n      tag_93\n      swap2\n      swap1\n      tag_94\n      jump\t// in\n    tag_93:\n      tag_95\n      jump\t// in\n    tag_92:\n      stop\n        /* \"Solidity/Tokens/SuperToken.sol\":735:773  mapping(address => bool) public admins */\n    tag_13:\n      tag_96\n      0x04\n      dup1\n      calldatasize\n      sub\n      dup2\n      add\n      swap1\n      tag_97\n      swap2\n      swap1\n      tag_55\n      jump\t// in\n    tag_97:\n      tag_98\n      jump\t// in\n    tag_96:\n      mload(0x40)\n      tag_99\n      swap2\n      swap1\n      tag_58\n      jump\t// in\n    tag_99:\n      mload(0x40)\n      dup1\n      swap2\n      sub\n      swap1\n      return\n        /* \"Solidity/Tokens/SuperToken.sol\":1163:1224  mapping(address => VestingSchedule[]) public vestingSchedules */\n    tag_14:\n      tag_100\n      0x04\n      dup1\n      calldatasize\n      sub\n      dup2\n      add\n      swap1\n      tag_101\n      swap2\n      swap1\n      tag_65\n      jump\t// in\n    tag_101:\n      tag_102\n      jump\t// in\n    tag_100:\n      mload(0x40)\n      tag_103\n      swap7\n      swap6\n      swap5\n      swap4\n      swap3\n      swap2\n      swap1\n      tag_104\n      jump\t// in\n    tag_103:\n      mload(0x40)\n      dup1\n      swap2\n      sub\n      swap1\n      return\n        /* \"Solidity/Tokens/SuperToken.sol\":1420:1448  bool public whitelistEnabled */\n    tag_15:\n      tag_105\n      tag_106\n      jump\t// in\n    tag_105:\n      mload(0x40)\n      tag_107\n      swap2\n      swap1\n      tag_58\n      jump\t// in\n    tag_107:\n      mload(0x40)\n      dup1\n      swap2\n      sub\n      swap1\n      return\n        /* \"Solidity/Tokens/SuperToken.sol\":1934:1979  mapping(address => uint256) public rewardDebt */\n    tag_16:\n      tag_108\n      0x04\n      dup1\n      calldatasize\n      sub\n      dup2\n      add\n      swap1\n      tag_109\n      swap2\n      swap1\n      tag_55\n      jump\t// in\n    tag_109:\n      tag_110\n      jump\t// in\n    tag_108:\n      mload(0x40)\n      tag_111\n      swap2\n      swap1\n      tag_71\n      jump\t// in\n    tag_111:\n      mload(0x40)\n      dup1\n      swap2\n      sub\n      swap1\n      return\n        /* \"Solidity/Tokens/SuperToken.sol\":1879:1927  mapping(address => uint256) public stakedBalance */\n    tag_17:\n      tag_112\n      0x04\n      dup1\n      calldatasize\n      sub\n      dup2\n      add\n      swap1\n      tag_113\n      swap2\n      swap1\n      tag_55\n      jump\t// in\n    tag_113:\n      tag_114\n      jump\t// in\n    tag_112:\n      mload(0x40)\n      tag_115\n      swap2\n      swap1\n      tag_71\n      jump\t// in\n    tag_115:\n      mload(0x40)\n      dup1\n      swap2\n      sub\n      swap1\n      return\n        /* \"Solidity/Tokens/SuperToken.sol\":12691:12829  function setLiquidityPool(address pool, uint256 fee) public onlyAdmin {... */\n    tag_18:\n      tag_116\n      0x04\n      dup1\n      calldatasize\n      sub\n      dup2\n      add\n      swap1\n      tag_117\n      swap2\n      swap1\n      tag_65\n      jump\t// in\n    tag_117:\n      tag_118\n      jump\t// in\n    tag_116:\n      stop\n        /* \"Solidity/Tokens/SuperToken.sol\":1688:1716  address public liquidityPool */\n    tag_19:\n      tag_119\n      tag_120\n      jump\t// in\n    tag_119:\n      mload(0x40)\n      tag_121\n      swap2\n      swap1\n      tag_122\n      jump\t// in\n    tag_121:\n      mload(0x40)\n      dup1\n      swap2\n      sub\n      swap1\n      return\n        /* \"Solidity/Tokens/SuperToken.sol\":1800:1835  uint256 public accumulatedLiquidity */\n    tag_20:\n      tag_123\n      tag_124\n      jump\t// in\n    tag_123:\n      mload(0x40)\n      tag_125\n      swap2\n      swap1\n      tag_71\n      jump\t// in\n    tag_125:\n      mload(0x40)\n      dup1\n      swap2\n      sub\n      swap1\n      return\n        /* \"Solidity/Tokens/SuperToken.sol\":14373:14483  function balanceOf(address account) public view returns (uint256) {... */\n    tag_21:\n      tag_126\n      0x04\n      dup1\n      calldatasize\n      sub\n      dup2\n      add\n      swap1\n      tag_127\n      swap2\n      swap1\n      tag_55\n      jump\t// in\n    tag_127:\n      tag_128\n      jump\t// in\n    tag_126:\n      mload(0x40)\n      tag_129\n      swap2\n      swap1\n      tag_71\n      jump\t// in\n    tag_129:\n      mload(0x40)\n      dup1\n      swap2\n      sub\n      swap1\n      return\n        /* \"Solidity/Tokens/SuperToken.sol\":2097:2122  uint256 public rewardRate */\n    tag_22:\n      tag_130\n      tag_131\n      jump\t// in\n    tag_130:\n      mload(0x40)\n      tag_132\n      swap2\n      swap1\n      tag_71\n      jump\t// in\n    tag_132:\n      mload(0x40)\n      dup1\n      swap2\n      sub\n      swap1\n      return\n        /* \"Solidity/Tokens/SuperToken.sol\":12299:12454  function setTradingLimits(uint256 maxHold, uint256 maxTx) public onlyAdmin {... */\n    tag_23:\n      tag_133\n      0x04\n      dup1\n      calldatasize\n      sub\n      dup2\n      add\n      swap1\n      tag_134\n      swap2\n      swap1\n      tag_135\n      jump\t// in\n    tag_134:\n      tag_136\n      jump\t// in\n    tag_133:\n      stop\n        /* \"Solidity/Tokens/SuperToken.sol\":7243:7818  function releaseVestedTokens(uint256 scheduleIndex) public {... */\n    tag_24:\n      tag_137\n      0x04\n      dup1\n      calldatasize\n      sub\n      dup2\n      add\n      swap1\n      tag_138\n      swap2\n      swap1\n      tag_86\n      jump\t// in\n    tag_138:\n      tag_139\n      jump\t// in\n    tag_137:\n      stop\n        /* \"Solidity/Tokens/SuperToken.sol\":1986:2012  uint256 public totalStaked */\n    tag_25:\n      tag_140\n      tag_141\n      jump\t// in\n    tag_140:\n      mload(0x40)\n      tag_142\n      swap2\n      swap1\n      tag_71\n      jump\t// in\n    tag_142:\n      mload(0x40)\n      dup1\n      swap2\n      sub\n      swap1\n      return\n        /* \"Solidity/Tokens/SuperToken.sol\":708:728  address public owner */\n    tag_26:\n      tag_143\n      tag_144\n      jump\t// in\n    tag_143:\n      mload(0x40)\n      tag_145\n      swap2\n      swap1\n      tag_122\n      jump\t// in\n    tag_145:\n      mload(0x40)\n      dup1\n      swap2\n      sub\n      swap1\n      return\n        /* \"Solidity/Tokens/SuperToken.sol\":154:174  string public symbol */\n    tag_27:\n      tag_146\n      tag_147\n      jump\t// in\n    tag_146:\n      mload(0x40)\n      tag_148\n      swap2\n      swap1\n      tag_62\n      jump\t// in\n    tag_148:\n      mload(0x40)\n      dup1\n      swap2\n      sub\n      swap1\n      return\n        /* \"Solidity/Tokens/SuperToken.sol\":1723:1750  uint256 public liquidityFee */\n    tag_28:\n      tag_149\n      tag_150\n      jump\t// in\n    tag_149:\n      mload(0x40)\n      tag_151\n      swap2\n      swap1\n      tag_71\n      jump\t// in\n    tag_151:\n      mload(0x40)\n      dup1\n      swap2\n      sub\n      swap1\n      return\n        /* \"Solidity/Tokens/SuperToken.sol\":12841:12931  function setRewardRate(uint256 rate) public onlyAdmin {... */\n    tag_29:\n      tag_152\n      0x04\n      dup1\n      calldatasize\n      sub\n      dup2\n      add\n      swap1\n      tag_153\n      swap2\n      swap1\n      tag_86\n      jump\t// in\n    tag_153:\n      tag_154\n      jump\t// in\n    tag_152:\n      stop\n        /* \"Solidity/Tokens/SuperToken.sol\":1757:1793  uint256 public minTokensForLiquidity */\n    tag_30:\n      tag_155\n      tag_156\n      jump\t// in\n    tag_155:\n      mload(0x40)\n      tag_157\n      swap2\n      swap1\n      tag_71\n      jump\t// in\n    tag_157:\n      mload(0x40)\n      dup1\n      swap2\n      sub\n      swap1\n      return\n        /* \"Solidity/Tokens/SuperToken.sol\":8430:8804  function stake(uint256 amount) public {... */\n    tag_31:\n      tag_158\n      0x04\n      dup1\n      calldatasize\n      sub\n      dup2\n      add\n      swap1\n      tag_159\n      swap2\n      swap1\n      tag_86\n      jump\t// in\n    tag_159:\n      tag_160\n      jump\t// in\n    tag_158:\n      stop\n        /* \"Solidity/Tokens/SuperToken.sol\":5477:5868  function transfer(address to, uint256 amount) ... */\n    tag_32:\n      tag_161\n      0x04\n      dup1\n      calldatasize\n      sub\n      dup2\n      add\n      swap1\n      tag_162\n      swap2\n      swap1\n      tag_65\n      jump\t// in\n    tag_162:\n      tag_163\n      jump\t// in\n    tag_161:\n      mload(0x40)\n      tag_164\n      swap2\n      swap1\n      tag_58\n      jump\t// in\n    tag_164:\n      mload(0x40)\n      dup1\n      swap2\n      sub\n      swap1\n      return\n        /* \"Solidity/Tokens/SuperToken.sol\":1490:1539  mapping(address => bool) public unlimitedAccounts */\n    tag_33:\n      tag_165\n      0x04\n      dup1\n      calldatasize\n      sub\n      dup2\n      add\n      swap1\n      tag_166\n      swap2\n      swap1\n      tag_55\n      jump\t// in\n    tag_166:\n      tag_167\n      jump\t// in\n    tag_165:\n      mload(0x40)\n      tag_168\n      swap2\n      swap1\n      tag_58\n      jump\t// in\n    tag_168:\n      mload(0x40)\n      dup1\n      swap2\n      sub\n      swap1\n      return\n        /* \"Solidity/Tokens/SuperToken.sol\":1231:1277  mapping(address => uint256) public totalVested */\n    tag_34:\n      tag_169\n      0x04\n      dup1\n      calldatasize\n      sub\n      dup2\n      add\n      swap1\n      tag_170\n      swap2\n      swap1\n      tag_55\n      jump\t// in\n    tag_170:\n      tag_171\n      jump\t// in\n    tag_169:\n      mload(0x40)\n      tag_172\n      swap2\n      swap1\n      tag_71\n      jump\t// in\n    tag_172:\n      mload(0x40)\n      dup1\n      swap2\n      sub\n      swap1\n      return\n        /* \"Solidity/Tokens/SuperToken.sol\":2605:2632  address public feeCollector */\n    tag_35:\n      tag_173\n      tag_174\n      jump\t// in\n    tag_173:\n      mload(0x40)\n      tag_175\n      swap2\n      swap1\n      tag_122\n      jump\t// in\n    tag_175:\n      mload(0x40)\n      dup1\n      swap2\n      sub\n      swap1\n      return\n        /* \"Solidity/Tokens/SuperToken.sol\":1599:1629  uint256 public maxTxPercentage */\n    tag_36:\n      tag_176\n      tag_177\n      jump\t// in\n    tag_176:\n      mload(0x40)\n      tag_178\n      swap2\n      swap1\n      tag_71\n      jump\t// in\n    tag_178:\n      mload(0x40)\n      dup1\n      swap2\n      sub\n      swap1\n      return\n        /* \"Solidity/Tokens/SuperToken.sol\":2061:2090  uint256 public lastUpdateTime */\n    tag_37:\n      tag_179\n      tag_180\n      jump\t// in\n    tag_179:\n      mload(0x40)\n      tag_181\n      swap2\n      swap1\n      tag_71\n      jump\t// in\n    tag_181:\n      mload(0x40)\n      dup1\n      swap2\n      sub\n      swap1\n      return\n        /* \"Solidity/Tokens/SuperToken.sol\":242:266  uint256 public maxSupply */\n    tag_38:\n      tag_182\n      tag_183\n      jump\t// in\n    tag_182:\n      mload(0x40)\n      tag_184\n      swap2\n      swap1\n      tag_71\n      jump\t// in\n    tag_184:\n      mload(0x40)\n      dup1\n      swap2\n      sub\n      swap1\n      return\n        /* \"Solidity/Tokens/SuperToken.sol\":1370:1413  mapping(address => bool) public whitelisted */\n    tag_39:\n      tag_185\n      0x04\n      dup1\n      calldatasize\n      sub\n      dup2\n      add\n      swap1\n      tag_186\n      swap2\n      swap1\n      tag_55\n      jump\t// in\n    tag_186:\n      tag_187\n      jump\t// in\n    tag_185:\n      mload(0x40)\n      tag_188\n      swap2\n      swap1\n      tag_58\n      jump\t// in\n    tag_188:\n      mload(0x40)\n      dup1\n      swap2\n      sub\n      swap1\n      return\n        /* \"Solidity/Tokens/SuperToken.sol\":1320:1363  mapping(address => bool) public blacklisted */\n    tag_40:\n      tag_189\n      0x04\n      dup1\n      calldatasize\n      sub\n      dup2\n      add\n      swap1\n      tag_190\n      swap2\n      swap1\n      tag_55\n      jump\t// in\n    tag_190:\n      tag_191\n      jump\t// in\n    tag_189:\n      mload(0x40)\n      tag_192\n      swap2\n      swap1\n      tag_58\n      jump\t// in\n    tag_192:\n      mload(0x40)\n      dup1\n      swap2\n      sub\n      swap1\n      return\n        /* \"Solidity/Tokens/SuperToken.sol\":14495:14631  function allowance(address owner9, address spender) public view returns (uint256) {... */\n    tag_41:\n      tag_193\n      0x04\n      dup1\n      calldatasize\n      sub\n      dup2\n      add\n      swap1\n      tag_194\n      swap2\n      swap1\n      tag_195\n      jump\t// in\n    tag_194:\n      tag_196\n      jump\t// in\n    tag_193:\n      mload(0x40)\n      tag_197\n      swap2\n      swap1\n      tag_71\n      jump\t// in\n    tag_197:\n      mload(0x40)\n      dup1\n      swap2\n      sub\n      swap1\n      return\n        /* \"Solidity/Tokens/SuperToken.sol\":2019:2054  uint256 public rewardPerTokenStored */\n    tag_42:\n      tag_198\n      tag_199\n      jump\t// in\n    tag_198:\n      mload(0x40)\n      tag_200\n      swap2\n      swap1\n      tag_71\n      jump\t// in\n    tag_200:\n      mload(0x40)\n      dup1\n      swap2\n      sub\n      swap1\n      return\n        /* \"Solidity/Tokens/SuperToken.sol\":12466:12679  function setFeeStructure(uint256 transfer9, uint256 buy, uint256 sell) public onlyFeeManager {... */\n    tag_43:\n      tag_201\n      0x04\n      dup1\n      calldatasize\n      sub\n      dup2\n      add\n      swap1\n      tag_202\n      swap2\n      swap1\n      tag_203\n      jump\t// in\n    tag_202:\n      tag_204\n      jump\t// in\n    tag_201:\n      stop\n        /* \"Solidity/Tokens/SuperToken.sol\":872:915  mapping(address => bool) public feeManagers */\n    tag_44:\n      tag_205\n      0x04\n      dup1\n      calldatasize\n      sub\n      dup2\n      add\n      swap1\n      tag_206\n      swap2\n      swap1\n      tag_55\n      jump\t// in\n    tag_206:\n      tag_207\n      jump\t// in\n    tag_205:\n      mload(0x40)\n      tag_208\n      swap2\n      swap1\n      tag_58\n      jump\t// in\n    tag_208:\n      mload(0x40)\n      dup1\n      swap2\n      sub\n      swap1\n      return\n        /* \"Solidity/Tokens/SuperToken.sol\":780:819  mapping(address => bool) public minters */\n    tag_45:\n      tag_209\n      0x04\n      dup1\n      calldatasize\n      sub\n      dup2\n      add\n      swap1\n      tag_210\n      swap2\n      swap1\n      tag_55\n      jump\t// in\n    tag_210:\n      tag_211\n      jump\t// in\n    tag_209:\n      mload(0x40)\n      tag_212\n      swap2\n      swap1\n      tag_58\n      jump\t// in\n    tag_212:\n      mload(0x40)\n      dup1\n      swap2\n      sub\n      swap1\n      return\n        /* \"Solidity/Tokens/SuperToken.sol\":826:865  mapping(address => bool) public burners */\n    tag_56:\n      mstore(0x20, 0x0e)\n      dup1\n      0x00\n      mstore\n      keccak256(0x00, 0x40)\n      0x00\n      swap2\n      pop\n      sload\n      swap1\n      0x0100\n      exp\n      swap1\n      div\n      0xff\n      and\n      dup2\n      jump\t// out\n        /* \"Solidity/Tokens/SuperToken.sol\":129:147  string public name */\n    tag_60:\n      0x00\n      dup1\n      sload\n      tag_213\n      swap1\n      tag_214\n      jump\t// in\n    tag_213:\n      dup1\n      0x1f\n      add\n      0x20\n      dup1\n      swap2\n      div\n      mul\n      0x20\n      add\n      mload(0x40)\n      swap1\n      dup2\n      add\n      0x40\n      mstore\n      dup1\n      swap3\n      swap2\n      swap1\n      dup2\n      dup2\n      mstore\n      0x20\n      add\n      dup3\n      dup1\n      sload\n      tag_215\n      swap1\n      tag_214\n      jump\t// in\n    tag_215:\n      dup1\n      iszero\n      tag_216\n      jumpi\n      dup1\n      0x1f\n      lt\n      tag_217\n      jumpi\n      0x0100\n      dup1\n      dup4\n      sload\n      div\n      mul\n      dup4\n      mstore\n      swap2\n      0x20\n      add\n      swap2\n      jump(tag_216)\n    tag_217:\n      dup3\n      add\n      swap2\n      swap1\n      0x00\n      mstore\n      keccak256(0x00, 0x20)\n      swap1\n    tag_218:\n      dup2\n      sload\n      dup2\n      mstore\n      swap1\n      0x01\n      add\n      swap1\n      0x20\n      add\n      dup1\n      dup4\n      gt\n      tag_218\n      jumpi\n      dup3\n      swap1\n      sub\n      0x1f\n      and\n      dup3\n      add\n      swap2\n    tag_216:\n      pop\n      pop\n      pop\n      pop\n      pop\n      dup2\n      jump\t// out\n        /* \"Solidity/Tokens/SuperToken.sol\":14643:14793  function approve(address spender, uint256 amount) public returns (bool) {... */\n    tag_66:\n        /* \"Solidity/Tokens/SuperToken.sol\":14709:14713  bool */\n      0x00\n        /* \"Solidity/Tokens/SuperToken.sol\":14726:14763  _approve(msg.sender, spender, amount) */\n      tag_220\n        /* \"Solidity/Tokens/SuperToken.sol\":14735:14745  msg.sender */\n      caller\n        /* \"Solidity/Tokens/SuperToken.sol\":14747:14754  spender */\n      dup5\n        /* \"Solidity/Tokens/SuperToken.sol\":14756:14762  amount */\n      dup5\n        /* \"Solidity/Tokens/SuperToken.sol\":14726:14734  _approve */\n      tag_221\n        /* \"Solidity/Tokens/SuperToken.sol\":14726:14763  _approve(msg.sender, spender, amount) */\n      jump\t// in\n    tag_220:\n        /* \"Solidity/Tokens/SuperToken.sol\":14781:14785  true */\n      0x01\n        /* \"Solidity/Tokens/SuperToken.sol\":14774:14785  return true */\n      swap1\n      pop\n        /* \"Solidity/Tokens/SuperToken.sol\":14643:14793  function approve(address spender, uint256 amount) public returns (bool) {... */\n      swap3\n      swap2\n      pop\n      pop\n      jump\t// out\n        /* \"Solidity/Tokens/SuperToken.sol\":1546:1578  uint256 public maxHoldPercentage */\n    tag_69:\n      sload(0x16)\n      dup2\n      jump\t// out\n        /* \"Solidity/Tokens/SuperToken.sol\":209:235  uint256 public totalSupply */\n    tag_73:\n      sload(0x03)\n      dup2\n      jump\t// out\n        /* \"Solidity/Tokens/SuperToken.sol\":635:661  FeeConfig public feeConfig */\n    tag_76:\n      0x07\n      dup1\n      0x00\n      add\n      sload\n      swap1\n      dup1\n      0x01\n      add\n      sload\n      swap1\n      dup1\n      0x02\n      add\n      sload\n      swap1\n      dup1\n      0x03\n      add\n      0x00\n      swap1\n      sload\n      swap1\n      0x0100\n      exp\n      swap1\n      div\n      0xffffffffffffffffffffffffffffffffffffffff\n      and\n      swap1\n      dup1\n      0x03\n      add\n      0x14\n      swap1\n      sload\n      swap1\n      0x0100\n      exp\n      swap1\n      div\n      0xff\n      and\n      swap1\n      pop\n      dup6\n      jump\t// out\n        /* \"Solidity/Tokens/SuperToken.sol\":5880:6329  function transferFrom(address from, address to, uint256 amount) ... */\n    tag_82:\n        /* \"Solidity/Tokens/SuperToken.sol\":6132:6136  bool */\n      0x00\n        /* \"Solidity/Tokens/SuperToken.sol\":5986:5990  from */\n      dup4\n        /* \"Solidity/Tokens/SuperToken.sol\":3760:3771  blacklisted */\n      0x12\n        /* \"Solidity/Tokens/SuperToken.sol\":3760:3780  blacklisted[account] */\n      0x00\n        /* \"Solidity/Tokens/SuperToken.sol\":3772:3779  account */\n      dup3\n        /* \"Solidity/Tokens/SuperToken.sol\":3760:3780  blacklisted[account] */\n      0xffffffffffffffffffffffffffffffffffffffff\n      and\n      0xffffffffffffffffffffffffffffffffffffffff\n      and\n      dup2\n      mstore\n      0x20\n      add\n      swap1\n      dup2\n      mstore\n      0x20\n      add\n      0x00\n      keccak256\n      0x00\n      swap1\n      sload\n      swap1\n      0x0100\n      exp\n      swap1\n      div\n      0xff\n      and\n        /* \"Solidity/Tokens/SuperToken.sol\":3756:3809  if (blacklisted[account]) revert AddressBlacklisted() */\n      iszero\n      tag_223\n      jumpi\n        /* \"Solidity/Tokens/SuperToken.sol\":3789:3809  AddressBlacklisted() */\n      mload(0x40)\n      0x1f7b776b00000000000000000000000000000000000000000000000000000000\n      dup2\n      mstore\n      0x04\n      add\n      mload(0x40)\n      dup1\n      swap2\n      sub\n      swap1\n      revert\n        /* \"Solidity/Tokens/SuperToken.sol\":3756:3809  if (blacklisted[account]) revert AddressBlacklisted() */\n    tag_223:\n        /* \"Solidity/Tokens/SuperToken.sol\":6016:6018  to */\n      dup4\n        /* \"Solidity/Tokens/SuperToken.sol\":3760:3771  blacklisted */\n      0x12\n        /* \"Solidity/Tokens/SuperToken.sol\":3760:3780  blacklisted[account] */\n      0x00\n        /* \"Solidity/Tokens/SuperToken.sol\":3772:3779  account */\n      dup3\n        /* \"Solidity/Tokens/SuperToken.sol\":3760:3780  blacklisted[account] */\n      0xffffffffffffffffffffffffffffffffffffffff\n      and\n      0xffffffffffffffffffffffffffffffffffffffff\n      and\n      dup2\n      mstore\n      0x20\n      add\n      swap1\n      dup2\n      mstore\n      0x20\n      add\n      0x00\n      keccak256\n      0x00\n      swap1\n      sload\n      swap1\n      0x0100\n      exp\n      swap1\n      div\n      0xff\n      and\n        /* \"Solidity/Tokens/SuperToken.sol\":3756:3809  if (blacklisted[account]) revert AddressBlacklisted() */\n      iszero\n      tag_225\n      jumpi\n        /* \"Solidity/Tokens/SuperToken.sol\":3789:3809  AddressBlacklisted() */\n      mload(0x40)\n      0x1f7b776b00000000000000000000000000000000000000000000000000000000\n      dup2\n      mstore\n      0x04\n      add\n      mload(0x40)\n      dup1\n      swap2\n      sub\n      swap1\n      revert\n        /* \"Solidity/Tokens/SuperToken.sol\":3756:3809  if (blacklisted[account]) revert AddressBlacklisted() */\n    tag_225:\n        /* \"Solidity/Tokens/SuperToken.sol\":6044:6054  msg.sender */\n      caller\n        /* \"Solidity/Tokens/SuperToken.sol\":3760:3771  blacklisted */\n      0x12\n        /* \"Solidity/Tokens/SuperToken.sol\":3760:3780  blacklisted[account] */\n      0x00\n        /* \"Solidity/Tokens/SuperToken.sol\":3772:3779  account */\n      dup3\n        /* \"Solidity/Tokens/SuperToken.sol\":3760:3780  blacklisted[account] */\n      0xffffffffffffffffffffffffffffffffffffffff\n      and\n      0xffffffffffffffffffffffffffffffffffffffff\n      and\n      dup2\n      mstore\n      0x20\n      add\n      swap1\n      dup2\n      mstore\n      0x20\n      add\n      0x00\n      keccak256\n      0x00\n      swap1\n      sload\n      swap1\n      0x0100\n      exp\n      swap1\n      div\n      0xff\n      and\n        /* \"Solidity/Tokens/SuperToken.sol\":3756:3809  if (blacklisted[account]) revert AddressBlacklisted() */\n      iszero\n      tag_227\n      jumpi\n        /* \"Solidity/Tokens/SuperToken.sol\":3789:3809  AddressBlacklisted() */\n      mload(0x40)\n      0x1f7b776b00000000000000000000000000000000000000000000000000000000\n      dup2\n      mstore\n      0x04\n      add\n      mload(0x40)\n      dup1\n      swap2\n      sub\n      swap1\n      revert\n        /* \"Solidity/Tokens/SuperToken.sol\":3756:3809  if (blacklisted[account]) revert AddressBlacklisted() */\n    tag_227:\n        /* \"Solidity/Tokens/SuperToken.sol\":6080:6084  from */\n      dup7\n        /* \"Solidity/Tokens/SuperToken.sol\":3897:3913  whitelistEnabled */\n      0x14\n      0x00\n      swap1\n      sload\n      swap1\n      0x0100\n      exp\n      swap1\n      div\n      0xff\n      and\n        /* \"Solidity/Tokens/SuperToken.sol\":3897:3938  whitelistEnabled && !whitelisted[account] */\n      dup1\n      iszero\n      tag_229\n      jumpi\n      pop\n        /* \"Solidity/Tokens/SuperToken.sol\":3918:3929  whitelisted */\n      0x13\n        /* \"Solidity/Tokens/SuperToken.sol\":3918:3938  whitelisted[account] */\n      0x00\n        /* \"Solidity/Tokens/SuperToken.sol\":3930:3937  account */\n      dup3\n        /* \"Solidity/Tokens/SuperToken.sol\":3918:3938  whitelisted[account] */\n      0xffffffffffffffffffffffffffffffffffffffff\n      and\n      0xffffffffffffffffffffffffffffffffffffffff\n      and\n      dup2\n      mstore\n      0x20\n      add\n      swap1\n      dup2\n      mstore\n      0x20\n      add\n      0x00\n      keccak256\n      0x00\n      swap1\n      sload\n      swap1\n      0x0100\n      exp\n      swap1\n      div\n      0xff\n      and\n        /* \"Solidity/Tokens/SuperToken.sol\":3917:3938  !whitelisted[account] */\n      iszero\n        /* \"Solidity/Tokens/SuperToken.sol\":3897:3938  whitelistEnabled && !whitelisted[account] */\n    tag_229:\n        /* \"Solidity/Tokens/SuperToken.sol\":3897:3969  whitelistEnabled && !whitelisted[account] && !unlimitedAccounts[account] */\n      dup1\n      iszero\n      tag_230\n      jumpi\n      pop\n        /* \"Solidity/Tokens/SuperToken.sol\":3943:3960  unlimitedAccounts */\n      0x15\n        /* \"Solidity/Tokens/SuperToken.sol\":3943:3969  unlimitedAccounts[account] */\n      0x00\n        /* \"Solidity/Tokens/SuperToken.sol\":3961:3968  account */\n      dup3\n        /* \"Solidity/Tokens/SuperToken.sol\":3943:3969  unlimitedAccounts[account] */\n      0xffffffffffffffffffffffffffffffffffffffff\n      and\n      0xffffffffffffffffffffffffffffffffffffffff\n      and\n      dup2\n      mstore\n      0x20\n      add\n      swap1\n      dup2\n      mstore\n      0x20\n      add\n      0x00\n      keccak256\n      0x00\n      swap1\n      sload\n      swap1\n      0x0100\n      exp\n      swap1\n      div\n      0xff\n      and\n        /* \"Solidity/Tokens/SuperToken.sol\":3942:3969  !unlimitedAccounts[account] */\n      iszero\n        /* \"Solidity/Tokens/SuperToken.sol\":3897:3969  whitelistEnabled && !whitelisted[account] && !unlimitedAccounts[account] */\n    tag_230:\n        /* \"Solidity/Tokens/SuperToken.sol\":3893:4031  if (whitelistEnabled && !whitelisted[account] && !unlimitedAccounts[account]) {... */\n      iszero\n      tag_231\n      jumpi\n        /* \"Solidity/Tokens/SuperToken.sol\":3986:4019  revert(\"Address not whitelisted\") */\n      mload(0x40)\n      0x08c379a000000000000000000000000000000000000000000000000000000000\n      dup2\n      mstore\n      0x04\n      add\n      tag_232\n      swap1\n      tag_233\n      jump\t// in\n    tag_232:\n      mload(0x40)\n      dup1\n      swap2\n      sub\n      swap1\n      revert\n        /* \"Solidity/Tokens/SuperToken.sol\":3893:4031  if (whitelistEnabled && !whitelisted[account] && !unlimitedAccounts[account]) {... */\n    tag_231:\n        /* \"Solidity/Tokens/SuperToken.sol\":6110:6112  to */\n      dup7\n        /* \"Solidity/Tokens/SuperToken.sol\":3897:3913  whitelistEnabled */\n      0x14\n      0x00\n      swap1\n      sload\n      swap1\n      0x0100\n      exp\n      swap1\n      div\n      0xff\n      and\n        /* \"Solidity/Tokens/SuperToken.sol\":3897:3938  whitelistEnabled && !whitelisted[account] */\n      dup1\n      iszero\n      tag_235\n      jumpi\n      pop\n        /* \"Solidity/Tokens/SuperToken.sol\":3918:3929  whitelisted */\n      0x13\n        /* \"Solidity/Tokens/SuperToken.sol\":3918:3938  whitelisted[account] */\n      0x00\n        /* \"Solidity/Tokens/SuperToken.sol\":3930:3937  account */\n      dup3\n        /* \"Solidity/Tokens/SuperToken.sol\":3918:3938  whitelisted[account] */\n      0xffffffffffffffffffffffffffffffffffffffff\n      and\n      0xffffffffffffffffffffffffffffffffffffffff\n      and\n      dup2\n      mstore\n      0x20\n      add\n      swap1\n      dup2\n      mstore\n      0x20\n      add\n      0x00\n      keccak256\n      0x00\n      swap1\n      sload\n      swap1\n      0x0100\n      exp\n      swap1\n      div\n      0xff\n      and\n        /* \"Solidity/Tokens/SuperToken.sol\":3917:3938  !whitelisted[account] */\n      iszero\n        /* \"Solidity/Tokens/SuperToken.sol\":3897:3938  whitelistEnabled && !whitelisted[account] */\n    tag_235:\n        /* \"Solidity/Tokens/SuperToken.sol\":3897:3969  whitelistEnabled && !whitelisted[account] && !unlimitedAccounts[account] */\n      dup1\n      iszero\n      tag_236\n      jumpi\n      pop\n        /* \"Solidity/Tokens/SuperToken.sol\":3943:3960  unlimitedAccounts */\n      0x15\n        /* \"Solidity/Tokens/SuperToken.sol\":3943:3969  unlimitedAccounts[account] */\n      0x00\n        /* \"Solidity/Tokens/SuperToken.sol\":3961:3968  account */\n      dup3\n        /* \"Solidity/Tokens/SuperToken.sol\":3943:3969  unlimitedAccounts[account] */\n      0xffffffffffffffffffffffffffffffffffffffff\n      and\n      0xffffffffffffffffffffffffffffffffffffffff\n      and\n      dup2\n      mstore\n      0x20\n      add\n      swap1\n      dup2\n      mstore\n      0x20\n      add\n      0x00\n      keccak256\n      0x00\n      swap1\n      sload\n      swap1\n      0x0100\n      exp\n      swap1\n      div\n      0xff\n      and\n        /* \"Solidity/Tokens/SuperToken.sol\":3942:3969  !unlimitedAccounts[account] */\n      iszero\n        /* \"Solidity/Tokens/SuperToken.sol\":3897:3969  whitelistEnabled && !whitelisted[account] && !unlimitedAccounts[account] */\n    tag_236:\n        /* \"Solidity/Tokens/SuperToken.sol\":3893:4031  if (whitelistEnabled && !whitelisted[account] && !unlimitedAccounts[account]) {... */\n      iszero\n      tag_237\n      jumpi\n        /* \"Solidity/Tokens/SuperToken.sol\":3986:4019  revert(\"Address not whitelisted\") */\n      mload(0x40)\n      0x08c379a000000000000000000000000000000000000000000000000000000000\n      dup2\n      mstore\n      0x04\n      add\n      tag_238\n      swap1\n      tag_233\n      jump\t// in\n    tag_238:\n      mload(0x40)\n      dup1\n      swap2\n      sub\n      swap1\n      revert\n        /* \"Solidity/Tokens/SuperToken.sol\":3893:4031  if (whitelistEnabled && !whitelisted[account] && !unlimitedAccounts[account]) {... */\n    tag_237:\n        /* \"Solidity/Tokens/SuperToken.sol\":6155:6190  _validateTransfer(from, to, amount) */\n      tag_240\n        /* \"Solidity/Tokens/SuperToken.sol\":6173:6177  from */\n      dup10\n        /* \"Solidity/Tokens/SuperToken.sol\":6179:6181  to */\n      dup10\n        /* \"Solidity/Tokens/SuperToken.sol\":6183:6189  amount */\n      dup10\n        /* \"Solidity/Tokens/SuperToken.sol\":6155:6172  _validateTransfer */\n      tag_241\n        /* \"Solidity/Tokens/SuperToken.sol\":6155:6190  _validateTransfer(from, to, amount) */\n      jump\t// in\n    tag_240:\n        /* \"Solidity/Tokens/SuperToken.sol\":6201:6242  _spendAllowance(from, msg.sender, amount) */\n      tag_242\n        /* \"Solidity/Tokens/SuperToken.sol\":6217:6221  from */\n      dup10\n        /* \"Solidity/Tokens/SuperToken.sol\":6223:6233  msg.sender */\n      caller\n        /* \"Solidity/Tokens/SuperToken.sol\":6235:6241  amount */\n      dup10\n        /* \"Solidity/Tokens/SuperToken.sol\":6201:6216  _spendAllowance */\n      tag_243\n        /* \"Solidity/Tokens/SuperToken.sol\":6201:6242  _spendAllowance(from, msg.sender, amount) */\n      jump\t// in\n    tag_242:\n        /* \"Solidity/Tokens/SuperToken.sol\":6253:6299  _transferWithAdvancedFees(from, to, amount, 0) */\n      tag_244\n        /* \"Solidity/Tokens/SuperToken.sol\":6279:6283  from */\n      dup10\n        /* \"Solidity/Tokens/SuperToken.sol\":6285:6287  to */\n      dup10\n        /* \"Solidity/Tokens/SuperToken.sol\":6289:6295  amount */\n      dup10\n        /* \"Solidity/Tokens/SuperToken.sol\":6297:6298  0 */\n      0x00\n        /* \"Solidity/Tokens/SuperToken.sol\":6253:6278  _transferWithAdvancedFees */\n      tag_245\n        /* \"Solidity/Tokens/SuperToken.sol\":6253:6299  _transferWithAdvancedFees(from, to, amount, 0) */\n      jump\t// in\n    tag_244:\n        /* \"Solidity/Tokens/SuperToken.sol\":6317:6321  true */\n      0x01\n        /* \"Solidity/Tokens/SuperToken.sol\":6310:6321  return true */\n      swap6\n      pop\n        /* \"Solidity/Tokens/SuperToken.sol\":4041:4042  _ */\n      pop\n        /* \"Solidity/Tokens/SuperToken.sol\":3820:3821  _ */\n      pop\n      pop\n      pop\n        /* \"Solidity/Tokens/SuperToken.sol\":5880:6329  function transferFrom(address from, address to, uint256 amount) ... */\n      pop\n      swap4\n      swap3\n      pop\n      pop\n      pop\n      jump\t// out\n        /* \"Solidity/Tokens/SuperToken.sol\":8816:9231  function unstake(uint256 amount) public {... */\n    tag_87:\n        /* \"Solidity/Tokens/SuperToken.sol\":8884:8885  0 */\n      0x00\n        /* \"Solidity/Tokens/SuperToken.sol\":8875:8881  amount */\n      dup2\n        /* \"Solidity/Tokens/SuperToken.sol\":8875:8885  amount > 0 */\n      gt\n        /* \"Solidity/Tokens/SuperToken.sol\":8875:8924  amount > 0 && stakedBalance[msg.sender] >= amount */\n      dup1\n      iszero\n      tag_247\n      jumpi\n      pop\n        /* \"Solidity/Tokens/SuperToken.sol\":8918:8924  amount */\n      dup1\n        /* \"Solidity/Tokens/SuperToken.sol\":8889:8902  stakedBalance */\n      0x1c\n        /* \"Solidity/Tokens/SuperToken.sol\":8889:8914  stakedBalance[msg.sender] */\n      0x00\n        /* \"Solidity/Tokens/SuperToken.sol\":8903:8913  msg.sender */\n      caller\n        /* \"Solidity/Tokens/SuperToken.sol\":8889:8914  stakedBalance[msg.sender] */\n      0xffffffffffffffffffffffffffffffffffffffff\n      and\n      0xffffffffffffffffffffffffffffffffffffffff\n      and\n      dup2\n      mstore\n      0x20\n      add\n      swap1\n      dup2\n      mstore\n      0x20\n      add\n      0x00\n      keccak256\n      sload\n        /* \"Solidity/Tokens/SuperToken.sol\":8889:8924  stakedBalance[msg.sender] >= amount */\n      lt\n      iszero\n        /* \"Solidity/Tokens/SuperToken.sol\":8875:8924  amount > 0 && stakedBalance[msg.sender] >= amount */\n    tag_247:\n        /* \"Solidity/Tokens/SuperToken.sol\":8867:8943  require(amount > 0 && stakedBalance[msg.sender] >= amount, \"Invalid amount\") */\n      tag_248\n      jumpi\n      mload(0x40)\n      0x08c379a000000000000000000000000000000000000000000000000000000000\n      dup2\n      mstore\n      0x04\n      add\n      tag_249\n      swap1\n      tag_250\n      jump\t// in\n    tag_249:\n      mload(0x40)\n      dup1\n      swap2\n      sub\n      swap1\n      revert\n    tag_248:\n        /* \"Solidity/Tokens/SuperToken.sol\":8964:8989  _updateReward(msg.sender) */\n      tag_251\n        /* \"Solidity/Tokens/SuperToken.sol\":8978:8988  msg.sender */\n      caller\n        /* \"Solidity/Tokens/SuperToken.sol\":8964:8977  _updateReward */\n      tag_252\n        /* \"Solidity/Tokens/SuperToken.sol\":8964:8989  _updateReward(msg.sender) */\n      jump\t// in\n    tag_251:\n        /* \"Solidity/Tokens/SuperToken.sol\":9029:9035  amount */\n      dup1\n        /* \"Solidity/Tokens/SuperToken.sol\":9000:9013  stakedBalance */\n      0x1c\n        /* \"Solidity/Tokens/SuperToken.sol\":9000:9025  stakedBalance[msg.sender] */\n      0x00\n        /* \"Solidity/Tokens/SuperToken.sol\":9014:9024  msg.sender */\n      caller\n        /* \"Solidity/Tokens/SuperToken.sol\":9000:9025  stakedBalance[msg.sender] */\n      0xffffffffffffffffffffffffffffffffffffffff\n      and\n      0xffffffffffffffffffffffffffffffffffffffff\n      and\n      dup2\n      mstore\n      0x20\n      add\n      swap1\n      dup2\n      mstore\n      0x20\n      add\n      0x00\n      keccak256\n      0x00\n        /* \"Solidity/Tokens/SuperToken.sol\":9000:9035  stakedBalance[msg.sender] -= amount */\n      dup3\n      dup3\n      sload\n      tag_253\n      swap2\n      swap1\n      tag_254\n      jump\t// in\n    tag_253:\n      swap3\n      pop\n      pop\n      dup2\n      swap1\n      sstore\n      pop\n        /* \"Solidity/Tokens/SuperToken.sol\":9061:9067  amount */\n      dup1\n        /* \"Solidity/Tokens/SuperToken.sol\":9046:9057  totalStaked */\n      0x1e\n      0x00\n        /* \"Solidity/Tokens/SuperToken.sol\":9046:9067  totalStaked -= amount */\n      dup3\n      dup3\n      sload\n      tag_255\n      swap2\n      swap1\n      tag_254\n      jump\t// in\n    tag_255:\n      swap3\n      pop\n      pop\n      dup2\n      swap1\n      sstore\n      pop\n        /* \"Solidity/Tokens/SuperToken.sol\":9088:9132  _transfer(address(this), msg.sender, amount) */\n      tag_256\n        /* \"Solidity/Tokens/SuperToken.sol\":9106:9110  this */\n      address\n        /* \"Solidity/Tokens/SuperToken.sol\":9113:9123  msg.sender */\n      caller\n        /* \"Solidity/Tokens/SuperToken.sol\":9125:9131  amount */\n      dup4\n        /* \"Solidity/Tokens/SuperToken.sol\":9088:9097  _transfer */\n      tag_257\n        /* \"Solidity/Tokens/SuperToken.sol\":9088:9132  _transfer(address(this), msg.sender, amount) */\n      jump\t// in\n    tag_256:\n        /* \"Solidity/Tokens/SuperToken.sol\":9219:9223  1e18 */\n      0x0de0b6b3a7640000\n        /* \"Solidity/Tokens/SuperToken.sol\":9196:9216  rewardPerTokenStored */\n      sload(0x1f)\n        /* \"Solidity/Tokens/SuperToken.sol\":9168:9181  stakedBalance */\n      0x1c\n        /* \"Solidity/Tokens/SuperToken.sol\":9168:9193  stakedBalance[msg.sender] */\n      0x00\n        /* \"Solidity/Tokens/SuperToken.sol\":9182:9192  msg.sender */\n      caller\n        /* \"Solidity/Tokens/SuperToken.sol\":9168:9193  stakedBalance[msg.sender] */\n      0xffffffffffffffffffffffffffffffffffffffff\n      and\n      0xffffffffffffffffffffffffffffffffffffffff\n      and\n      dup2\n      mstore\n      0x20\n      add\n      swap1\n      dup2\n      mstore\n      0x20\n      add\n      0x00\n      keccak256\n      sload\n        /* \"Solidity/Tokens/SuperToken.sol\":9168:9216  stakedBalance[msg.sender] * rewardPerTokenStored */\n      tag_258\n      swap2\n      swap1\n      tag_259\n      jump\t// in\n    tag_258:\n        /* \"Solidity/Tokens/SuperToken.sol\":9168:9223  stakedBalance[msg.sender] * rewardPerTokenStored / 1e18 */\n      tag_260\n      swap2\n      swap1\n      tag_261\n      jump\t// in\n    tag_260:\n        /* \"Solidity/Tokens/SuperToken.sol\":9143:9153  rewardDebt */\n      0x1d\n        /* \"Solidity/Tokens/SuperToken.sol\":9143:9165  rewardDebt[msg.sender] */\n      0x00\n        /* \"Solidity/Tokens/SuperToken.sol\":9154:9164  msg.sender */\n      caller\n        /* \"Solidity/Tokens/SuperToken.sol\":9143:9165  rewardDebt[msg.sender] */\n      0xffffffffffffffffffffffffffffffffffffffff\n      and\n      0xffffffffffffffffffffffffffffffffffffffff\n      and\n      dup2\n      mstore\n      0x20\n      add\n      swap1\n      dup2\n      mstore\n      0x20\n      add\n      0x00\n      keccak256\n        /* \"Solidity/Tokens/SuperToken.sol\":9143:9223  rewardDebt[msg.sender] = stakedBalance[msg.sender] * rewardPerTokenStored / 1e18 */\n      dup2\n      swap1\n      sstore\n      pop\n        /* \"Solidity/Tokens/SuperToken.sol\":8816:9231  function unstake(uint256 amount) public {... */\n      pop\n      jump\t// out\n        /* \"Solidity/Tokens/SuperToken.sol\":181:202  uint8 public decimals */\n    tag_89:\n      0x02\n      0x00\n      swap1\n      sload\n      swap1\n      0x0100\n      exp\n      swap1\n      div\n      0xff\n      and\n      dup2\n      jump\t// out\n        /* \"Solidity/Tokens/SuperToken.sol\":6381:7231  function createVestingSchedule(... */\n    tag_95:\n        /* \"Solidity/Tokens/SuperToken.sol\":3290:3296  admins */\n      0x0c\n        /* \"Solidity/Tokens/SuperToken.sol\":3290:3308  admins[msg.sender] */\n      0x00\n        /* \"Solidity/Tokens/SuperToken.sol\":3297:3307  msg.sender */\n      caller\n        /* \"Solidity/Tokens/SuperToken.sol\":3290:3308  admins[msg.sender] */\n      0xffffffffffffffffffffffffffffffffffffffff\n      and\n      0xffffffffffffffffffffffffffffffffffffffff\n      and\n      dup2\n      mstore\n      0x20\n      add\n      swap1\n      dup2\n      mstore\n      0x20\n      add\n      0x00\n      keccak256\n      0x00\n      swap1\n      sload\n      swap1\n      0x0100\n      exp\n      swap1\n      div\n      0xff\n      and\n        /* \"Solidity/Tokens/SuperToken.sol\":3289:3308  !admins[msg.sender] */\n      iszero\n        /* \"Solidity/Tokens/SuperToken.sol\":3289:3331  !admins[msg.sender] && msg.sender != owner */\n      dup1\n      iszero\n      tag_263\n      jumpi\n      pop\n        /* \"Solidity/Tokens/SuperToken.sol\":3326:3331  owner */\n      0x0b\n      0x00\n      swap1\n      sload\n      swap1\n      0x0100\n      exp\n      swap1\n      div\n      0xffffffffffffffffffffffffffffffffffffffff\n      and\n        /* \"Solidity/Tokens/SuperToken.sol\":3312:3331  msg.sender != owner */\n      0xffffffffffffffffffffffffffffffffffffffff\n      and\n        /* \"Solidity/Tokens/SuperToken.sol\":3312:3322  msg.sender */\n      caller\n        /* \"Solidity/Tokens/SuperToken.sol\":3312:3331  msg.sender != owner */\n      0xffffffffffffffffffffffffffffffffffffffff\n      and\n      eq\n      iszero\n        /* \"Solidity/Tokens/SuperToken.sol\":3289:3331  !admins[msg.sender] && msg.sender != owner */\n    tag_263:\n        /* \"Solidity/Tokens/SuperToken.sol\":3285:3350  if (!admins[msg.sender] && msg.sender != owner) revert NotAdmin() */\n      iszero\n      tag_264\n      jumpi\n        /* \"Solidity/Tokens/SuperToken.sol\":3340:3350  NotAdmin() */\n      mload(0x40)\n      0x7bfa4b9f00000000000000000000000000000000000000000000000000000000\n      dup2\n      mstore\n      0x04\n      add\n      mload(0x40)\n      dup1\n      swap2\n      sub\n      swap1\n      revert\n        /* \"Solidity/Tokens/SuperToken.sol\":3285:3350  if (!admins[msg.sender] && msg.sender != owner) revert NotAdmin() */\n    tag_264:\n        /* \"Solidity/Tokens/SuperToken.sol\":6580:6581  0 */\n      0x00\n        /* \"Solidity/Tokens/SuperToken.sol\":6557:6582  beneficiary == address(0) */\n      0xffffffffffffffffffffffffffffffffffffffff\n      and\n        /* \"Solidity/Tokens/SuperToken.sol\":6557:6568  beneficiary */\n      dup5\n        /* \"Solidity/Tokens/SuperToken.sol\":6557:6582  beneficiary == address(0) */\n      0xffffffffffffffffffffffffffffffffffffffff\n      and\n      sub\n        /* \"Solidity/Tokens/SuperToken.sol\":6553:6604  if (beneficiary == address(0)) revert ZeroAddress() */\n      tag_266\n      jumpi\n        /* \"Solidity/Tokens/SuperToken.sol\":6591:6604  ZeroAddress() */\n      mload(0x40)\n      0xd92e233d00000000000000000000000000000000000000000000000000000000\n      dup2\n      mstore\n      0x04\n      add\n      mload(0x40)\n      dup1\n      swap2\n      sub\n      swap1\n      revert\n        /* \"Solidity/Tokens/SuperToken.sol\":6553:6604  if (beneficiary == address(0)) revert ZeroAddress() */\n    tag_266:\n        /* \"Solidity/Tokens/SuperToken.sol\":6658:6660  10 */\n      0x0a\n        /* \"Solidity/Tokens/SuperToken.sol\":6619:6635  vestingSchedules */\n      0x10\n        /* \"Solidity/Tokens/SuperToken.sol\":6619:6648  vestingSchedules[beneficiary] */\n      0x00\n        /* \"Solidity/Tokens/SuperToken.sol\":6636:6647  beneficiary */\n      dup7\n        /* \"Solidity/Tokens/SuperToken.sol\":6619:6648  vestingSchedules[beneficiary] */\n      0xffffffffffffffffffffffffffffffffffffffff\n      and\n      0xffffffffffffffffffffffffffffffffffffffff\n      and\n      dup2\n      mstore\n      0x20\n      add\n      swap1\n      dup2\n      mstore\n      0x20\n      add\n      0x00\n      keccak256\n        /* \"Solidity/Tokens/SuperToken.sol\":6619:6655  vestingSchedules[beneficiary].length */\n      dup1\n      sload\n      swap1\n      pop\n        /* \"Solidity/Tokens/SuperToken.sol\":6619:6660  vestingSchedules[beneficiary].length > 10 */\n      gt\n        /* \"Solidity/Tokens/SuperToken.sol\":6615:6698  if (vestingSchedules[beneficiary].length > 10) revert(\"Too many vesting schedules\") */\n      iszero\n      tag_267\n      jumpi\n        /* \"Solidity/Tokens/SuperToken.sol\":6662:6698  revert(\"Too many vesting schedules\") */\n      mload(0x40)\n      0x08c379a000000000000000000000000000000000000000000000000000000000\n      dup2\n      mstore\n      0x04\n      add\n      tag_268\n      swap1\n      tag_269\n      jump\t// in\n    tag_268:\n      mload(0x40)\n      dup1\n      swap2\n      sub\n      swap1\n      revert\n        /* \"Solidity/Tokens/SuperToken.sol\":6615:6698  if (vestingSchedules[beneficiary].length > 10) revert(\"Too many vesting schedules\") */\n    tag_267:\n        /* \"Solidity/Tokens/SuperToken.sol\":6776:6820  _transfer(msg.sender, address(this), amount) */\n      tag_270\n        /* \"Solidity/Tokens/SuperToken.sol\":6786:6796  msg.sender */\n      caller\n        /* \"Solidity/Tokens/SuperToken.sol\":6806:6810  this */\n      address\n        /* \"Solidity/Tokens/SuperToken.sol\":6813:6819  amount */\n      dup6\n        /* \"Solidity/Tokens/SuperToken.sol\":6776:6785  _transfer */\n      tag_257\n        /* \"Solidity/Tokens/SuperToken.sol\":6776:6820  _transfer(msg.sender, address(this), amount) */\n      jump\t// in\n    tag_270:\n        /* \"Solidity/Tokens/SuperToken.sol\":6841:6857  vestingSchedules */\n      0x10\n        /* \"Solidity/Tokens/SuperToken.sol\":6841:6870  vestingSchedules[beneficiary] */\n      0x00\n        /* \"Solidity/Tokens/SuperToken.sol\":6858:6869  beneficiary */\n      dup6\n        /* \"Solidity/Tokens/SuperToken.sol\":6841:6870  vestingSchedules[beneficiary] */\n      0xffffffffffffffffffffffffffffffffffffffff\n      and\n      0xffffffffffffffffffffffffffffffffffffffff\n      and\n      dup2\n      mstore\n      0x20\n      add\n      swap1\n      dup2\n      mstore\n      0x20\n      add\n      0x00\n      keccak256\n        /* \"Solidity/Tokens/SuperToken.sol\":6876:7098  VestingSchedule({... */\n      mload(0x40)\n      dup1\n      0xc0\n      add\n      0x40\n      mstore\n      dup1\n        /* \"Solidity/Tokens/SuperToken.sol\":6920:6926  amount */\n      dup6\n        /* \"Solidity/Tokens/SuperToken.sol\":6876:7098  VestingSchedule({... */\n      dup2\n      mstore\n      0x20\n      add\n        /* \"Solidity/Tokens/SuperToken.sol\":6957:6958  0 */\n      0x00\n        /* \"Solidity/Tokens/SuperToken.sol\":6876:7098  VestingSchedule({... */\n      dup2\n      mstore\n      0x20\n      add\n        /* \"Solidity/Tokens/SuperToken.sol\":6984:6999  block.timestamp */\n      timestamp\n        /* \"Solidity/Tokens/SuperToken.sol\":6876:7098  VestingSchedule({... */\n      dup2\n      mstore\n      0x20\n      add\n        /* \"Solidity/Tokens/SuperToken.sol\":7024:7032  duration */\n      dup5\n        /* \"Solidity/Tokens/SuperToken.sol\":6876:7098  VestingSchedule({... */\n      dup2\n      mstore\n      0x20\n      add\n        /* \"Solidity/Tokens/SuperToken.sol\":7054:7059  cliff */\n      dup4\n        /* \"Solidity/Tokens/SuperToken.sol\":6876:7098  VestingSchedule({... */\n      dup2\n      mstore\n      0x20\n      add\n        /* \"Solidity/Tokens/SuperToken.sol\":7082:7086  true */\n      0x01\n        /* \"Solidity/Tokens/SuperToken.sol\":6876:7098  VestingSchedule({... */\n      iszero\n      iszero\n      dup2\n      mstore\n      pop\n        /* \"Solidity/Tokens/SuperToken.sol\":6841:7099  vestingSchedules[beneficiary].push(VestingSchedule({... */\n      swap1\n      dup1\n      0x01\n      dup2\n      sload\n      add\n      dup1\n      dup3\n      sstore\n      dup1\n      swap2\n      pop\n      pop\n      0x01\n      swap1\n      sub\n      swap1\n      0x00\n      mstore\n      keccak256(0x00, 0x20)\n      swap1\n      0x06\n      mul\n      add\n      0x00\n      swap1\n      swap2\n      swap1\n      swap2\n      swap1\n      swap2\n      pop\n      0x00\n      dup3\n      add\n      mload\n      dup2\n      0x00\n      add\n      sstore\n      0x20\n      dup3\n      add\n      mload\n      dup2\n      0x01\n      add\n      sstore\n      0x40\n      dup3\n      add\n      mload\n      dup2\n      0x02\n      add\n      sstore\n      0x60\n      dup3\n      add\n      mload\n      dup2\n      0x03\n      add\n      sstore\n      0x80\n      dup3\n      add\n      mload\n      dup2\n      0x04\n      add\n      sstore\n      0xa0\n      dup3\n      add\n      mload\n      dup2\n      0x05\n      add\n      exp(0x0100, 0x00)\n      dup2\n      sload\n      dup2\n      0xff\n      mul\n      not\n      and\n      swap1\n      dup4\n      iszero\n      iszero\n      mul\n      or\n      swap1\n      sstore\n      pop\n      pop\n      pop\n        /* \"Solidity/Tokens/SuperToken.sol\":7148:7154  amount */\n      dup3\n        /* \"Solidity/Tokens/SuperToken.sol\":7120:7131  totalVested */\n      0x11\n        /* \"Solidity/Tokens/SuperToken.sol\":7120:7144  totalVested[beneficiary] */\n      0x00\n        /* \"Solidity/Tokens/SuperToken.sol\":7132:7143  beneficiary */\n      dup7\n        /* \"Solidity/Tokens/SuperToken.sol\":7120:7144  totalVested[beneficiary] */\n      0xffffffffffffffffffffffffffffffffffffffff\n      and\n      0xffffffffffffffffffffffffffffffffffffffff\n      and\n      dup2\n      mstore\n      0x20\n      add\n      swap1\n      dup2\n      mstore\n      0x20\n      add\n      0x00\n      keccak256\n      0x00\n        /* \"Solidity/Tokens/SuperToken.sol\":7120:7154  totalVested[beneficiary] += amount */\n      dup3\n      dup3\n      sload\n      tag_272\n      swap2\n      swap1\n      tag_273\n      jump\t// in\n    tag_272:\n      swap3\n      pop\n      pop\n      dup2\n      swap1\n      sstore\n      pop\n        /* \"Solidity/Tokens/SuperToken.sol\":7193:7204  beneficiary */\n      dup4\n        /* \"Solidity/Tokens/SuperToken.sol\":7170:7223  VestingScheduleCreated(beneficiary, amount, duration) */\n      0xffffffffffffffffffffffffffffffffffffffff\n      and\n      0x402b9fa52520ce724d8e25ad1521f70484bd3c833f98ed26451d7c9666820203\n        /* \"Solidity/Tokens/SuperToken.sol\":7206:7212  amount */\n      dup5\n        /* \"Solidity/Tokens/SuperToken.sol\":7214:7222  duration */\n      dup5\n        /* \"Solidity/Tokens/SuperToken.sol\":7170:7223  VestingScheduleCreated(beneficiary, amount, duration) */\n      mload(0x40)\n      tag_274\n      swap3\n      swap2\n      swap1\n      tag_275\n      jump\t// in\n    tag_274:\n      mload(0x40)\n      dup1\n      swap2\n      sub\n      swap1\n      log2\n        /* \"Solidity/Tokens/SuperToken.sol\":6381:7231  function createVestingSchedule(... */\n      pop\n      pop\n      pop\n      pop\n      jump\t// out\n        /* \"Solidity/Tokens/SuperToken.sol\":735:773  mapping(address => bool) public admins */\n    tag_98:\n      mstore(0x20, 0x0c)\n      dup1\n      0x00\n      mstore\n      keccak256(0x00, 0x40)\n      0x00\n      swap2\n      pop\n      sload\n      swap1\n      0x0100\n      exp\n      swap1\n      div\n      0xff\n      and\n      dup2\n      jump\t// out\n        /* \"Solidity/Tokens/SuperToken.sol\":1163:1224  mapping(address => VestingSchedule[]) public vestingSchedules */\n    tag_102:\n      mstore(0x20, 0x10)\n      dup2\n      0x00\n      mstore\n      keccak256(0x00, 0x40)\n      dup2\n      dup2\n      sload\n      dup2\n      lt\n      tag_276\n      jumpi\n      0x00\n      dup1\n      revert\n    tag_276:\n      swap1\n      0x00\n      mstore\n      keccak256(0x00, 0x20)\n      swap1\n      0x06\n      mul\n      add\n      0x00\n      swap2\n      pop\n      swap2\n      pop\n      pop\n      dup1\n      0x00\n      add\n      sload\n      swap1\n      dup1\n      0x01\n      add\n      sload\n      swap1\n      dup1\n      0x02\n      add\n      sload\n      swap1\n      dup1\n      0x03\n      add\n      sload\n      swap1\n      dup1\n      0x04\n      add\n      sload\n      swap1\n      dup1\n      0x05\n      add\n      0x00\n      swap1\n      sload\n      swap1\n      0x0100\n      exp\n      swap1\n      div\n      0xff\n      and\n      swap1\n      pop\n      dup7\n      jump\t// out\n        /* \"Solidity/Tokens/SuperToken.sol\":1420:1448  bool public whitelistEnabled */\n    tag_106:\n      0x14\n      0x00\n      swap1\n      sload\n      swap1\n      0x0100\n      exp\n      swap1\n      div\n      0xff\n      and\n      dup2\n      jump\t// out\n        /* \"Solidity/Tokens/SuperToken.sol\":1934:1979  mapping(address => uint256) public rewardDebt */\n    tag_110:\n      mstore(0x20, 0x1d)\n      dup1\n      0x00\n      mstore\n      keccak256(0x00, 0x40)\n      0x00\n      swap2\n      pop\n      swap1\n      pop\n      sload\n      dup2\n      jump\t// out\n        /* \"Solidity/Tokens/SuperToken.sol\":1879:1927  mapping(address => uint256) public stakedBalance */\n    tag_114:\n      mstore(0x20, 0x1c)\n      dup1\n      0x00\n      mstore\n      keccak256(0x00, 0x40)\n      0x00\n      swap2\n      pop\n      swap1\n      pop\n      sload\n      dup2\n      jump\t// out\n        /* \"Solidity/Tokens/SuperToken.sol\":12691:12829  function setLiquidityPool(address pool, uint256 fee) public onlyAdmin {... */\n    tag_118:\n        /* \"Solidity/Tokens/SuperToken.sol\":3290:3296  admins */\n      0x0c\n        /* \"Solidity/Tokens/SuperToken.sol\":3290:3308  admins[msg.sender] */\n      0x00\n        /* \"Solidity/Tokens/SuperToken.sol\":3297:3307  msg.sender */\n      caller\n        /* \"Solidity/Tokens/SuperToken.sol\":3290:3308  admins[msg.sender] */\n      0xffffffffffffffffffffffffffffffffffffffff\n      and\n      0xffffffffffffffffffffffffffffffffffffffff\n      and\n      dup2\n      mstore\n      0x20\n      add\n      swap1\n      dup2\n      mstore\n      0x20\n      add\n      0x00\n      keccak256\n      0x00\n      swap1\n      sload\n      swap1\n      0x0100\n      exp\n      swap1\n      div\n      0xff\n      and\n        /* \"Solidity/Tokens/SuperToken.sol\":3289:3308  !admins[msg.sender] */\n      iszero\n        /* \"Solidity/Tokens/SuperToken.sol\":3289:3331  !admins[msg.sender] && msg.sender != owner */\n      dup1\n      iszero\n      tag_279\n      jumpi\n      pop\n        /* \"Solidity/Tokens/SuperToken.sol\":3326:3331  owner */\n      0x0b\n      0x00\n      swap1\n      sload\n      swap1\n      0x0100\n      exp\n      swap1\n      div\n      0xffffffffffffffffffffffffffffffffffffffff\n      and\n        /* \"Solidity/Tokens/SuperToken.sol\":3312:3331  msg.sender != owner */\n      0xffffffffffffffffffffffffffffffffffffffff\n      and\n        /* \"Solidity/Tokens/SuperToken.sol\":3312:3322  msg.sender */\n      caller\n        /* \"Solidity/Tokens/SuperToken.sol\":3312:3331  msg.sender != owner */\n      0xffffffffffffffffffffffffffffffffffffffff\n      and\n      eq\n      iszero\n        /* \"Solidity/Tokens/SuperToken.sol\":3289:3331  !admins[msg.sender] && msg.sender != owner */\n    tag_279:\n        /* \"Solidity/Tokens/SuperToken.sol\":3285:3350  if (!admins[msg.sender] && msg.sender != owner) revert NotAdmin() */\n      iszero\n      tag_280\n      jumpi\n        /* \"Solidity/Tokens/SuperToken.sol\":3340:3350  NotAdmin() */\n      mload(0x40)\n      0x7bfa4b9f00000000000000000000000000000000000000000000000000000000\n      dup2\n      mstore\n      0x04\n      add\n      mload(0x40)\n      dup1\n      swap2\n      sub\n      swap1\n      revert\n        /* \"Solidity/Tokens/SuperToken.sol\":3285:3350  if (!admins[msg.sender] && msg.sender != owner) revert NotAdmin() */\n    tag_280:\n        /* \"Solidity/Tokens/SuperToken.sol\":12788:12792  pool */\n      dup2\n        /* \"Solidity/Tokens/SuperToken.sol\":12772:12785  liquidityPool */\n      0x18\n      0x00\n        /* \"Solidity/Tokens/SuperToken.sol\":12772:12792  liquidityPool = pool */\n      0x0100\n      exp\n      dup2\n      sload\n      dup2\n      0xffffffffffffffffffffffffffffffffffffffff\n      mul\n      not\n      and\n      swap1\n      dup4\n      0xffffffffffffffffffffffffffffffffffffffff\n      and\n      mul\n      or\n      swap1\n      sstore\n      pop\n        /* \"Solidity/Tokens/SuperToken.sol\":12818:12821  fee */\n      dup1\n        /* \"Solidity/Tokens/SuperToken.sol\":12803:12815  liquidityFee */\n      0x19\n        /* \"Solidity/Tokens/SuperToken.sol\":12803:12821  liquidityFee = fee */\n      dup2\n      swap1\n      sstore\n      pop\n        /* \"Solidity/Tokens/SuperToken.sol\":12691:12829  function setLiquidityPool(address pool, uint256 fee) public onlyAdmin {... */\n      pop\n      pop\n      jump\t// out\n        /* \"Solidity/Tokens/SuperToken.sol\":1688:1716  address public liquidityPool */\n    tag_120:\n      0x18\n      0x00\n      swap1\n      sload\n      swap1\n      0x0100\n      exp\n      swap1\n      div\n      0xffffffffffffffffffffffffffffffffffffffff\n      and\n      dup2\n      jump\t// out\n        /* \"Solidity/Tokens/SuperToken.sol\":1800:1835  uint256 public accumulatedLiquidity */\n    tag_124:\n      sload(0x1b)\n      dup2\n      jump\t// out\n        /* \"Solidity/Tokens/SuperToken.sol\":14373:14483  function balanceOf(address account) public view returns (uint256) {... */\n    tag_128:\n        /* \"Solidity/Tokens/SuperToken.sol\":14430:14437  uint256 */\n      0x00\n        /* \"Solidity/Tokens/SuperToken.sol\":14457:14466  _balances */\n      0x05\n        /* \"Solidity/Tokens/SuperToken.sol\":14457:14475  _balances[account] */\n      0x00\n        /* \"Solidity/Tokens/SuperToken.sol\":14467:14474  account */\n      dup4\n        /* \"Solidity/Tokens/SuperToken.sol\":14457:14475  _balances[account] */\n      0xffffffffffffffffffffffffffffffffffffffff\n      and\n      0xffffffffffffffffffffffffffffffffffffffff\n      and\n      dup2\n      mstore\n      0x20\n      add\n      swap1\n      dup2\n      mstore\n      0x20\n      add\n      0x00\n      keccak256\n      sload\n        /* \"Solidity/Tokens/SuperToken.sol\":14450:14475  return _balances[account] */\n      swap1\n      pop\n        /* \"Solidity/Tokens/SuperToken.sol\":14373:14483  function balanceOf(address account) public view returns (uint256) {... */\n      swap2\n      swap1\n      pop\n      jump\t// out\n        /* \"Solidity/Tokens/SuperToken.sol\":2097:2122  uint256 public rewardRate */\n    tag_131:\n      sload(0x21)\n      dup2\n      jump\t// out\n        /* \"Solidity/Tokens/SuperToken.sol\":12299:12454  function setTradingLimits(uint256 maxHold, uint256 maxTx) public onlyAdmin {... */\n    tag_136:\n        /* \"Solidity/Tokens/SuperToken.sol\":3290:3296  admins */\n      0x0c\n        /* \"Solidity/Tokens/SuperToken.sol\":3290:3308  admins[msg.sender] */\n      0x00\n        /* \"Solidity/Tokens/SuperToken.sol\":3297:3307  msg.sender */\n      caller\n        /* \"Solidity/Tokens/SuperToken.sol\":3290:3308  admins[msg.sender] */\n      0xffffffffffffffffffffffffffffffffffffffff\n      and\n      0xffffffffffffffffffffffffffffffffffffffff\n      and\n      dup2\n      mstore\n      0x20\n      add\n      swap1\n      dup2\n      mstore\n      0x20\n      add\n      0x00\n      keccak256\n      0x00\n      swap1\n      sload\n      swap1\n      0x0100\n      exp\n      swap1\n      div\n      0xff\n      and\n        /* \"Solidity/Tokens/SuperToken.sol\":3289:3308  !admins[msg.sender] */\n      iszero\n        /* \"Solidity/Tokens/SuperToken.sol\":3289:3331  !admins[msg.sender] && msg.sender != owner */\n      dup1\n      iszero\n      tag_284\n      jumpi\n      pop\n        /* \"Solidity/Tokens/SuperToken.sol\":3326:3331  owner */\n      0x0b\n      0x00\n      swap1\n      sload\n      swap1\n      0x0100\n      exp\n      swap1\n      div\n      0xffffffffffffffffffffffffffffffffffffffff\n      and\n        /* \"Solidity/Tokens/SuperToken.sol\":3312:3331  msg.sender != owner */\n      0xffffffffffffffffffffffffffffffffffffffff\n      and\n        /* \"Solidity/Tokens/SuperToken.sol\":3312:3322  msg.sender */\n      caller\n        /* \"Solidity/Tokens/SuperToken.sol\":3312:3331  msg.sender != owner */\n      0xffffffffffffffffffffffffffffffffffffffff\n      and\n      eq\n      iszero\n        /* \"Solidity/Tokens/SuperToken.sol\":3289:3331  !admins[msg.sender] && msg.sender != owner */\n    tag_284:\n        /* \"Solidity/Tokens/SuperToken.sol\":3285:3350  if (!admins[msg.sender] && msg.sender != owner) revert NotAdmin() */\n      iszero\n      tag_285\n      jumpi\n        /* \"Solidity/Tokens/SuperToken.sol\":3340:3350  NotAdmin() */\n      mload(0x40)\n      0x7bfa4b9f00000000000000000000000000000000000000000000000000000000\n      dup2\n      mstore\n      0x04\n      add\n      mload(0x40)\n      dup1\n      swap2\n      sub\n      swap1\n      revert\n        /* \"Solidity/Tokens/SuperToken.sol\":3285:3350  if (!admins[msg.sender] && msg.sender != owner) revert NotAdmin() */\n    tag_285:\n        /* \"Solidity/Tokens/SuperToken.sol\":12405:12412  maxHold */\n      dup2\n        /* \"Solidity/Tokens/SuperToken.sol\":12385:12402  maxHoldPercentage */\n      0x16\n        /* \"Solidity/Tokens/SuperToken.sol\":12385:12412  maxHoldPercentage = maxHold */\n      dup2\n      swap1\n      sstore\n      pop\n        /* \"Solidity/Tokens/SuperToken.sol\":12441:12446  maxTx */\n      dup1\n        /* \"Solidity/Tokens/SuperToken.sol\":12423:12438  maxTxPercentage */\n      0x17\n        /* \"Solidity/Tokens/SuperToken.sol\":12423:12446  maxTxPercentage = maxTx */\n      dup2\n      swap1\n      sstore\n      pop\n        /* \"Solidity/Tokens/SuperToken.sol\":12299:12454  function setTradingLimits(uint256 maxHold, uint256 maxTx) public onlyAdmin {... */\n      pop\n      pop\n      jump\t// out\n        /* \"Solidity/Tokens/SuperToken.sol\":7243:7818  function releaseVestedTokens(uint256 scheduleIndex) public {... */\n    tag_139:\n        /* \"Solidity/Tokens/SuperToken.sol\":7313:7345  VestingSchedule storage schedule */\n      0x00\n        /* \"Solidity/Tokens/SuperToken.sol\":7348:7364  vestingSchedules */\n      0x10\n        /* \"Solidity/Tokens/SuperToken.sol\":7348:7376  vestingSchedules[msg.sender] */\n      0x00\n        /* \"Solidity/Tokens/SuperToken.sol\":7365:7375  msg.sender */\n      caller\n        /* \"Solidity/Tokens/SuperToken.sol\":7348:7376  vestingSchedules[msg.sender] */\n      0xffffffffffffffffffffffffffffffffffffffff\n      and\n      0xffffffffffffffffffffffffffffffffffffffff\n      and\n      dup2\n      mstore\n      0x20\n      add\n      swap1\n      dup2\n      mstore\n      0x20\n      add\n      0x00\n      keccak256\n        /* \"Solidity/Tokens/SuperToken.sol\":7377:7390  scheduleIndex */\n      dup3\n        /* \"Solidity/Tokens/SuperToken.sol\":7348:7391  vestingSchedules[msg.sender][scheduleIndex] */\n      dup2\n      sload\n      dup2\n      lt\n      tag_288\n      jumpi\n      tag_289\n      tag_290\n      jump\t// in\n    tag_289:\n    tag_288:\n      swap1\n      0x00\n      mstore\n      keccak256(0x00, 0x20)\n      swap1\n      0x06\n      mul\n      add\n        /* \"Solidity/Tokens/SuperToken.sol\":7313:7391  VestingSchedule storage schedule = vestingSchedules[msg.sender][scheduleIndex] */\n      swap1\n      pop\n        /* \"Solidity/Tokens/SuperToken.sol\":7407:7415  schedule */\n      dup1\n        /* \"Solidity/Tokens/SuperToken.sol\":7407:7422  schedule.exists */\n      0x05\n      add\n      0x00\n      swap1\n      sload\n      swap1\n      0x0100\n      exp\n      swap1\n      div\n      0xff\n      and\n        /* \"Solidity/Tokens/SuperToken.sol\":7402:7450  if (!schedule.exists) revert NoVestingSchedule() */\n      tag_292\n      jumpi\n        /* \"Solidity/Tokens/SuperToken.sol\":7431:7450  NoVestingSchedule() */\n      mload(0x40)\n      0x66ef36c900000000000000000000000000000000000000000000000000000000\n      dup2\n      mstore\n      0x04\n      add\n      mload(0x40)\n      dup1\n      swap2\n      sub\n      swap1\n      revert\n        /* \"Solidity/Tokens/SuperToken.sol\":7402:7450  if (!schedule.exists) revert NoVestingSchedule() */\n    tag_292:\n        /* \"Solidity/Tokens/SuperToken.sol\":7471:7489  uint256 unreleased */\n      0x00\n        /* \"Solidity/Tokens/SuperToken.sol\":7492:7519  _releasableAmount(schedule) */\n      tag_293\n        /* \"Solidity/Tokens/SuperToken.sol\":7510:7518  schedule */\n      dup3\n        /* \"Solidity/Tokens/SuperToken.sol\":7492:7519  _releasableAmount(schedule) */\n      mload(0x40)\n      dup1\n      0xc0\n      add\n      0x40\n      mstore\n      swap1\n      dup2\n      0x00\n      dup3\n      add\n      sload\n      dup2\n      mstore\n      0x20\n      add\n      0x01\n      dup3\n      add\n      sload\n      dup2\n      mstore\n      0x20\n      add\n      0x02\n      dup3\n      add\n      sload\n      dup2\n      mstore\n      0x20\n      add\n      0x03\n      dup3\n      add\n      sload\n      dup2\n      mstore\n      0x20\n      add\n      0x04\n      dup3\n      add\n      sload\n      dup2\n      mstore\n      0x20\n      add\n      0x05\n      dup3\n      add\n      0x00\n      swap1\n      sload\n      swap1\n      0x0100\n      exp\n      swap1\n      div\n      0xff\n      and\n      iszero\n      iszero\n      iszero\n      iszero\n      dup2\n      mstore\n      pop\n      pop\n        /* \"Solidity/Tokens/SuperToken.sol\":7492:7509  _releasableAmount */\n      tag_294\n        /* \"Solidity/Tokens/SuperToken.sol\":7492:7519  _releasableAmount(schedule) */\n      jump\t// in\n    tag_293:\n        /* \"Solidity/Tokens/SuperToken.sol\":7471:7519  uint256 unreleased = _releasableAmount(schedule) */\n      swap1\n      pop\n        /* \"Solidity/Tokens/SuperToken.sol\":7548:7549  0 */\n      0x00\n        /* \"Solidity/Tokens/SuperToken.sol\":7534:7544  unreleased */\n      dup2\n        /* \"Solidity/Tokens/SuperToken.sol\":7534:7549  unreleased == 0 */\n      sub\n        /* \"Solidity/Tokens/SuperToken.sol\":7530:7581  if (unreleased == 0) revert(\"No tokens to release\") */\n      tag_295\n      jumpi\n        /* \"Solidity/Tokens/SuperToken.sol\":7551:7581  revert(\"No tokens to release\") */\n      mload(0x40)\n      0x08c379a000000000000000000000000000000000000000000000000000000000\n      dup2\n      mstore\n      0x04\n      add\n      tag_296\n      swap1\n      tag_297\n      jump\t// in\n    tag_296:\n      mload(0x40)\n      dup1\n      swap2\n      sub\n      swap1\n      revert\n        /* \"Solidity/Tokens/SuperToken.sol\":7530:7581  if (unreleased == 0) revert(\"No tokens to release\") */\n    tag_295:\n        /* \"Solidity/Tokens/SuperToken.sol\":7629:7639  unreleased */\n      dup1\n        /* \"Solidity/Tokens/SuperToken.sol\":7602:7610  schedule */\n      dup3\n        /* \"Solidity/Tokens/SuperToken.sol\":7602:7625  schedule.releasedAmount */\n      0x01\n      add\n      0x00\n        /* \"Solidity/Tokens/SuperToken.sol\":7602:7639  schedule.releasedAmount += unreleased */\n      dup3\n      dup3\n      sload\n      tag_298\n      swap2\n      swap1\n      tag_273\n      jump\t// in\n    tag_298:\n      swap3\n      pop\n      pop\n      dup2\n      swap1\n      sstore\n      pop\n        /* \"Solidity/Tokens/SuperToken.sol\":7677:7687  unreleased */\n      dup1\n        /* \"Solidity/Tokens/SuperToken.sol\":7650:7661  totalVested */\n      0x11\n        /* \"Solidity/Tokens/SuperToken.sol\":7650:7673  totalVested[msg.sender] */\n      0x00\n        /* \"Solidity/Tokens/SuperToken.sol\":7662:7672  msg.sender */\n      caller\n        /* \"Solidity/Tokens/SuperToken.sol\":7650:7673  totalVested[msg.sender] */\n      0xffffffffffffffffffffffffffffffffffffffff\n      and\n      0xffffffffffffffffffffffffffffffffffffffff\n      and\n      dup2\n      mstore\n      0x20\n      add\n      swap1\n      dup2\n      mstore\n      0x20\n      add\n      0x00\n      keccak256\n      0x00\n        /* \"Solidity/Tokens/SuperToken.sol\":7650:7687  totalVested[msg.sender] -= unreleased */\n      dup3\n      dup3\n      sload\n      tag_299\n      swap2\n      swap1\n      tag_254\n      jump\t// in\n    tag_299:\n      swap3\n      pop\n      pop\n      dup2\n      swap1\n      sstore\n      pop\n        /* \"Solidity/Tokens/SuperToken.sol\":7708:7756  _transfer(address(this), msg.sender, unreleased) */\n      tag_300\n        /* \"Solidity/Tokens/SuperToken.sol\":7726:7730  this */\n      address\n        /* \"Solidity/Tokens/SuperToken.sol\":7733:7743  msg.sender */\n      caller\n        /* \"Solidity/Tokens/SuperToken.sol\":7745:7755  unreleased */\n      dup4\n        /* \"Solidity/Tokens/SuperToken.sol\":7708:7717  _transfer */\n      tag_257\n        /* \"Solidity/Tokens/SuperToken.sol\":7708:7756  _transfer(address(this), msg.sender, unreleased) */\n      jump\t// in\n    tag_300:\n        /* \"Solidity/Tokens/SuperToken.sol\":7787:7797  msg.sender */\n      caller\n        /* \"Solidity/Tokens/SuperToken.sol\":7772:7810  TokensReleased(msg.sender, unreleased) */\n      0xffffffffffffffffffffffffffffffffffffffff\n      and\n      0xc7798891864187665ac6dd119286e44ec13f014527aeeb2b8eb3fd413df93179\n        /* \"Solidity/Tokens/SuperToken.sol\":7799:7809  unreleased */\n      dup3\n        /* \"Solidity/Tokens/SuperToken.sol\":7772:7810  TokensReleased(msg.sender, unreleased) */\n      mload(0x40)\n      tag_301\n      swap2\n      swap1\n      tag_71\n      jump\t// in\n    tag_301:\n      mload(0x40)\n      dup1\n      swap2\n      sub\n      swap1\n      log2\n        /* \"Solidity/Tokens/SuperToken.sol\":7302:7818  {... */\n      pop\n      pop\n        /* \"Solidity/Tokens/SuperToken.sol\":7243:7818  function releaseVestedTokens(uint256 scheduleIndex) public {... */\n      pop\n      jump\t// out\n        /* \"Solidity/Tokens/SuperToken.sol\":1986:2012  uint256 public totalStaked */\n    tag_141:\n      sload(0x1e)\n      dup2\n      jump\t// out\n        /* \"Solidity/Tokens/SuperToken.sol\":708:728  address public owner */\n    tag_144:\n      0x0b\n      0x00\n      swap1\n      sload\n      swap1\n      0x0100\n      exp\n      swap1\n      div\n      0xffffffffffffffffffffffffffffffffffffffff\n      and\n      dup2\n      jump\t// out\n        /* \"Solidity/Tokens/SuperToken.sol\":154:174  string public symbol */\n    tag_147:\n      0x01\n      dup1\n      sload\n      tag_302\n      swap1\n      tag_214\n      jump\t// in\n    tag_302:\n      dup1\n      0x1f\n      add\n      0x20\n      dup1\n      swap2\n      div\n      mul\n      0x20\n      add\n      mload(0x40)\n      swap1\n      dup2\n      add\n      0x40\n      mstore\n      dup1\n      swap3\n      swap2\n      swap1\n      dup2\n      dup2\n      mstore\n      0x20\n      add\n      dup3\n      dup1\n      sload\n      tag_303\n      swap1\n      tag_214\n      jump\t// in\n    tag_303:\n      dup1\n      iszero\n      tag_304\n      jumpi\n      dup1\n      0x1f\n      lt\n      tag_305\n      jumpi\n      0x0100\n      dup1\n      dup4\n      sload\n      div\n      mul\n      dup4\n      mstore\n      swap2\n      0x20\n      add\n      swap2\n      jump(tag_304)\n    tag_305:\n      dup3\n      add\n      swap2\n      swap1\n      0x00\n      mstore\n      keccak256(0x00, 0x20)\n      swap1\n    tag_306:\n      dup2\n      sload\n      dup2\n      mstore\n      swap1\n      0x01\n      add\n      swap1\n      0x20\n      add\n      dup1\n      dup4\n      gt\n      tag_306\n      jumpi\n      dup3\n      swap1\n      sub\n      0x1f\n      and\n      dup3\n      add\n      swap2\n    tag_304:\n      pop\n      pop\n      pop\n      pop\n      pop\n      dup2\n      jump\t// out\n        /* \"Solidity/Tokens/SuperToken.sol\":1723:1750  uint256 public liquidityFee */\n    tag_150:\n      sload(0x19)\n      dup2\n      jump\t// out\n        /* \"Solidity/Tokens/SuperToken.sol\":12841:12931  function setRewardRate(uint256 rate) public onlyAdmin {... */\n    tag_154:\n        /* \"Solidity/Tokens/SuperToken.sol\":3290:3296  admins */\n      0x0c\n        /* \"Solidity/Tokens/SuperToken.sol\":3290:3308  admins[msg.sender] */\n      0x00\n        /* \"Solidity/Tokens/SuperToken.sol\":3297:3307  msg.sender */\n      caller\n        /* \"Solidity/Tokens/SuperToken.sol\":3290:3308  admins[msg.sender] */\n      0xffffffffffffffffffffffffffffffffffffffff\n      and\n      0xffffffffffffffffffffffffffffffffffffffff\n      and\n      dup2\n      mstore\n      0x20\n      add\n      swap1\n      dup2\n      mstore\n      0x20\n      add\n      0x00\n      keccak256\n      0x00\n      swap1\n      sload\n      swap1\n      0x0100\n      exp\n      swap1\n      div\n      0xff\n      and\n        /* \"Solidity/Tokens/SuperToken.sol\":3289:3308  !admins[msg.sender] */\n      iszero\n        /* \"Solidity/Tokens/SuperToken.sol\":3289:3331  !admins[msg.sender] && msg.sender != owner */\n      dup1\n      iszero\n      tag_308\n      jumpi\n      pop\n        /* \"Solidity/Tokens/SuperToken.sol\":3326:3331  owner */\n      0x0b\n      0x00\n      swap1\n      sload\n      swap1\n      0x0100\n      exp\n      swap1\n      div\n      0xffffffffffffffffffffffffffffffffffffffff\n      and\n        /* \"Solidity/Tokens/SuperToken.sol\":3312:3331  msg.sender != owner */\n      0xffffffffffffffffffffffffffffffffffffffff\n      and\n        /* \"Solidity/Tokens/SuperToken.sol\":3312:3322  msg.sender */\n      caller\n        /* \"Solidity/Tokens/SuperToken.sol\":3312:3331  msg.sender != owner */\n      0xffffffffffffffffffffffffffffffffffffffff\n      and\n      eq\n      iszero\n        /* \"Solidity/Tokens/SuperToken.sol\":3289:3331  !admins[msg.sender] && msg.sender != owner */\n    tag_308:\n        /* \"Solidity/Tokens/SuperToken.sol\":3285:3350  if (!admins[msg.sender] && msg.sender != owner) revert NotAdmin() */\n      iszero\n      tag_309\n      jumpi\n        /* \"Solidity/Tokens/SuperToken.sol\":3340:3350  NotAdmin() */\n      mload(0x40)\n      0x7bfa4b9f00000000000000000000000000000000000000000000000000000000\n      dup2\n      mstore\n      0x04\n      add\n      mload(0x40)\n      dup1\n      swap2\n      sub\n      swap1\n      revert\n        /* \"Solidity/Tokens/SuperToken.sol\":3285:3350  if (!admins[msg.sender] && msg.sender != owner) revert NotAdmin() */\n    tag_309:\n        /* \"Solidity/Tokens/SuperToken.sol\":12919:12923  rate */\n      dup1\n        /* \"Solidity/Tokens/SuperToken.sol\":12906:12916  rewardRate */\n      0x21\n        /* \"Solidity/Tokens/SuperToken.sol\":12906:12923  rewardRate = rate */\n      dup2\n      swap1\n      sstore\n      pop\n        /* \"Solidity/Tokens/SuperToken.sol\":12841:12931  function setRewardRate(uint256 rate) public onlyAdmin {... */\n      pop\n      jump\t// out\n        /* \"Solidity/Tokens/SuperToken.sol\":1757:1793  uint256 public minTokensForLiquidity */\n    tag_156:\n      sload(0x1a)\n      dup2\n      jump\t// out\n        /* \"Solidity/Tokens/SuperToken.sol\":8430:8804  function stake(uint256 amount) public {... */\n    tag_160:\n        /* \"Solidity/Tokens/SuperToken.sol\":8496:8497  0 */\n      0x00\n        /* \"Solidity/Tokens/SuperToken.sol\":8487:8493  amount */\n      dup2\n        /* \"Solidity/Tokens/SuperToken.sol\":8487:8497  amount > 0 */\n      gt\n        /* \"Solidity/Tokens/SuperToken.sol\":8479:8516  require(amount > 0, \"Cannot stake 0\") */\n      tag_312\n      jumpi\n      mload(0x40)\n      0x08c379a000000000000000000000000000000000000000000000000000000000\n      dup2\n      mstore\n      0x04\n      add\n      tag_313\n      swap1\n      tag_314\n      jump\t// in\n    tag_313:\n      mload(0x40)\n      dup1\n      swap2\n      sub\n      swap1\n      revert\n    tag_312:\n        /* \"Solidity/Tokens/SuperToken.sol\":8537:8562  _updateReward(msg.sender) */\n      tag_315\n        /* \"Solidity/Tokens/SuperToken.sol\":8551:8561  msg.sender */\n      caller\n        /* \"Solidity/Tokens/SuperToken.sol\":8537:8550  _updateReward */\n      tag_252\n        /* \"Solidity/Tokens/SuperToken.sol\":8537:8562  _updateReward(msg.sender) */\n      jump\t// in\n    tag_315:\n        /* \"Solidity/Tokens/SuperToken.sol\":8573:8617  _transfer(msg.sender, address(this), amount) */\n      tag_316\n        /* \"Solidity/Tokens/SuperToken.sol\":8583:8593  msg.sender */\n      caller\n        /* \"Solidity/Tokens/SuperToken.sol\":8603:8607  this */\n      address\n        /* \"Solidity/Tokens/SuperToken.sol\":8610:8616  amount */\n      dup4\n        /* \"Solidity/Tokens/SuperToken.sol\":8573:8582  _transfer */\n      tag_257\n        /* \"Solidity/Tokens/SuperToken.sol\":8573:8617  _transfer(msg.sender, address(this), amount) */\n      jump\t// in\n    tag_316:\n        /* \"Solidity/Tokens/SuperToken.sol\":8667:8673  amount */\n      dup1\n        /* \"Solidity/Tokens/SuperToken.sol\":8638:8651  stakedBalance */\n      0x1c\n        /* \"Solidity/Tokens/SuperToken.sol\":8638:8663  stakedBalance[msg.sender] */\n      0x00\n        /* \"Solidity/Tokens/SuperToken.sol\":8652:8662  msg.sender */\n      caller\n        /* \"Solidity/Tokens/SuperToken.sol\":8638:8663  stakedBalance[msg.sender] */\n      0xffffffffffffffffffffffffffffffffffffffff\n      and\n      0xffffffffffffffffffffffffffffffffffffffff\n      and\n      dup2\n      mstore\n      0x20\n      add\n      swap1\n      dup2\n      mstore\n      0x20\n      add\n      0x00\n      keccak256\n      0x00\n        /* \"Solidity/Tokens/SuperToken.sol\":8638:8673  stakedBalance[msg.sender] += amount */\n      dup3\n      dup3\n      sload\n      tag_317\n      swap2\n      swap1\n      tag_273\n      jump\t// in\n    tag_317:\n      swap3\n      pop\n      pop\n      dup2\n      swap1\n      sstore\n      pop\n        /* \"Solidity/Tokens/SuperToken.sol\":8699:8705  amount */\n      dup1\n        /* \"Solidity/Tokens/SuperToken.sol\":8684:8695  totalStaked */\n      0x1e\n      0x00\n        /* \"Solidity/Tokens/SuperToken.sol\":8684:8705  totalStaked += amount */\n      dup3\n      dup3\n      sload\n      tag_318\n      swap2\n      swap1\n      tag_273\n      jump\t// in\n    tag_318:\n      swap3\n      pop\n      pop\n      dup2\n      swap1\n      sstore\n      pop\n        /* \"Solidity/Tokens/SuperToken.sol\":8792:8796  1e18 */\n      0x0de0b6b3a7640000\n        /* \"Solidity/Tokens/SuperToken.sol\":8769:8789  rewardPerTokenStored */\n      sload(0x1f)\n        /* \"Solidity/Tokens/SuperToken.sol\":8741:8754  stakedBalance */\n      0x1c\n        /* \"Solidity/Tokens/SuperToken.sol\":8741:8766  stakedBalance[msg.sender] */\n      0x00\n        /* \"Solidity/Tokens/SuperToken.sol\":8755:8765  msg.sender */\n      caller\n        /* \"Solidity/Tokens/SuperToken.sol\":8741:8766  stakedBalance[msg.sender] */\n      0xffffffffffffffffffffffffffffffffffffffff\n      and\n      0xffffffffffffffffffffffffffffffffffffffff\n      and\n      dup2\n      mstore\n      0x20\n      add\n      swap1\n      dup2\n      mstore\n      0x20\n      add\n      0x00\n      keccak256\n      sload\n        /* \"Solidity/Tokens/SuperToken.sol\":8741:8789  stakedBalance[msg.sender] * rewardPerTokenStored */\n      tag_319\n      swap2\n      swap1\n      tag_259\n      jump\t// in\n    tag_319:\n        /* \"Solidity/Tokens/SuperToken.sol\":8741:8796  stakedBalance[msg.sender] * rewardPerTokenStored / 1e18 */\n      tag_320\n      swap2\n      swap1\n      tag_261\n      jump\t// in\n    tag_320:\n        /* \"Solidity/Tokens/SuperToken.sol\":8716:8726  rewardDebt */\n      0x1d\n        /* \"Solidity/Tokens/SuperToken.sol\":8716:8738  rewardDebt[msg.sender] */\n      0x00\n        /* \"Solidity/Tokens/SuperToken.sol\":8727:8737  msg.sender */\n      caller\n        /* \"Solidity/Tokens/SuperToken.sol\":8716:8738  rewardDebt[msg.sender] */\n      0xffffffffffffffffffffffffffffffffffffffff\n      and\n      0xffffffffffffffffffffffffffffffffffffffff\n      and\n      dup2\n      mstore\n      0x20\n      add\n      swap1\n      dup2\n      mstore\n      0x20\n      add\n      0x00\n      keccak256\n        /* \"Solidity/Tokens/SuperToken.sol\":8716:8796  rewardDebt[msg.sender] = stakedBalance[msg.sender] * rewardPerTokenStored / 1e18 */\n      dup2\n      swap1\n      sstore\n      pop\n        /* \"Solidity/Tokens/SuperToken.sol\":8430:8804  function stake(uint256 amount) public {... */\n      pop\n      jump\t// out\n        /* \"Solidity/Tokens/SuperToken.sol\":5477:5868  function transfer(address to, uint256 amount) ... */\n    tag_163:\n        /* \"Solidity/Tokens/SuperToken.sol\":5687:5691  bool */\n      0x00\n        /* \"Solidity/Tokens/SuperToken.sol\":5565:5575  msg.sender */\n      caller\n        /* \"Solidity/Tokens/SuperToken.sol\":3760:3771  blacklisted */\n      0x12\n        /* \"Solidity/Tokens/SuperToken.sol\":3760:3780  blacklisted[account] */\n      0x00\n        /* \"Solidity/Tokens/SuperToken.sol\":3772:3779  account */\n      dup3\n        /* \"Solidity/Tokens/SuperToken.sol\":3760:3780  blacklisted[account] */\n      0xffffffffffffffffffffffffffffffffffffffff\n      and\n      0xffffffffffffffffffffffffffffffffffffffff\n      and\n      dup2\n      mstore\n      0x20\n      add\n      swap1\n      dup2\n      mstore\n      0x20\n      add\n      0x00\n      keccak256\n      0x00\n      swap1\n      sload\n      swap1\n      0x0100\n      exp\n      swap1\n      div\n      0xff\n      and\n        /* \"Solidity/Tokens/SuperToken.sol\":3756:3809  if (blacklisted[account]) revert AddressBlacklisted() */\n      iszero\n      tag_322\n      jumpi\n        /* \"Solidity/Tokens/SuperToken.sol\":3789:3809  AddressBlacklisted() */\n      mload(0x40)\n      0x1f7b776b00000000000000000000000000000000000000000000000000000000\n      dup2\n      mstore\n      0x04\n      add\n      mload(0x40)\n      dup1\n      swap2\n      sub\n      swap1\n      revert\n        /* \"Solidity/Tokens/SuperToken.sol\":3756:3809  if (blacklisted[account]) revert AddressBlacklisted() */\n    tag_322:\n        /* \"Solidity/Tokens/SuperToken.sol\":5601:5603  to */\n      dup4\n        /* \"Solidity/Tokens/SuperToken.sol\":3760:3771  blacklisted */\n      0x12\n        /* \"Solidity/Tokens/SuperToken.sol\":3760:3780  blacklisted[account] */\n      0x00\n        /* \"Solidity/Tokens/SuperToken.sol\":3772:3779  account */\n      dup3\n        /* \"Solidity/Tokens/SuperToken.sol\":3760:3780  blacklisted[account] */\n      0xffffffffffffffffffffffffffffffffffffffff\n      and\n      0xffffffffffffffffffffffffffffffffffffffff\n      and\n      dup2\n      mstore\n      0x20\n      add\n      swap1\n      dup2\n      mstore\n      0x20\n      add\n      0x00\n      keccak256\n      0x00\n      swap1\n      sload\n      swap1\n      0x0100\n      exp\n      swap1\n      div\n      0xff\n      and\n        /* \"Solidity/Tokens/SuperToken.sol\":3756:3809  if (blacklisted[account]) revert AddressBlacklisted() */\n      iszero\n      tag_324\n      jumpi\n        /* \"Solidity/Tokens/SuperToken.sol\":3789:3809  AddressBlacklisted() */\n      mload(0x40)\n      0x1f7b776b00000000000000000000000000000000000000000000000000000000\n      dup2\n      mstore\n      0x04\n      add\n      mload(0x40)\n      dup1\n      swap2\n      sub\n      swap1\n      revert\n        /* \"Solidity/Tokens/SuperToken.sol\":3756:3809  if (blacklisted[account]) revert AddressBlacklisted() */\n    tag_324:\n        /* \"Solidity/Tokens/SuperToken.sol\":5629:5639  msg.sender */\n      caller\n        /* \"Solidity/Tokens/SuperToken.sol\":3897:3913  whitelistEnabled */\n      0x14\n      0x00\n      swap1\n      sload\n      swap1\n      0x0100\n      exp\n      swap1\n      div\n      0xff\n      and\n        /* \"Solidity/Tokens/SuperToken.sol\":3897:3938  whitelistEnabled && !whitelisted[account] */\n      dup1\n      iszero\n      tag_326\n      jumpi\n      pop\n        /* \"Solidity/Tokens/SuperToken.sol\":3918:3929  whitelisted */\n      0x13\n        /* \"Solidity/Tokens/SuperToken.sol\":3918:3938  whitelisted[account] */\n      0x00\n        /* \"Solidity/Tokens/SuperToken.sol\":3930:3937  account */\n      dup3\n        /* \"Solidity/Tokens/SuperToken.sol\":3918:3938  whitelisted[account] */\n      0xffffffffffffffffffffffffffffffffffffffff\n      and\n      0xffffffffffffffffffffffffffffffffffffffff\n      and\n      dup2\n      mstore\n      0x20\n      add\n      swap1\n      dup2\n      mstore\n      0x20\n      add\n      0x00\n      keccak256\n      0x00\n      swap1\n      sload\n      swap1\n      0x0100\n      exp\n      swap1\n      div\n      0xff\n      and\n        /* \"Solidity/Tokens/SuperToken.sol\":3917:3938  !whitelisted[account] */\n      iszero\n        /* \"Solidity/Tokens/SuperToken.sol\":3897:3938  whitelistEnabled && !whitelisted[account] */\n    tag_326:\n        /* \"Solidity/Tokens/SuperToken.sol\":3897:3969  whitelistEnabled && !whitelisted[account] && !unlimitedAccounts[account] */\n      dup1\n      iszero\n      tag_327\n      jumpi\n      pop\n        /* \"Solidity/Tokens/SuperToken.sol\":3943:3960  unlimitedAccounts */\n      0x15\n        /* \"Solidity/Tokens/SuperToken.sol\":3943:3969  unlimitedAccounts[account] */\n      0x00\n        /* \"Solidity/Tokens/SuperToken.sol\":3961:3968  account */\n      dup3\n        /* \"Solidity/Tokens/SuperToken.sol\":3943:3969  unlimitedAccounts[account] */\n      0xffffffffffffffffffffffffffffffffffffffff\n      and\n      0xffffffffffffffffffffffffffffffffffffffff\n      and\n      dup2\n      mstore\n      0x20\n      add\n      swap1\n      dup2\n      mstore\n      0x20\n      add\n      0x00\n      keccak256\n      0x00\n      swap1\n      sload\n      swap1\n      0x0100\n      exp\n      swap1\n      div\n      0xff\n      and\n        /* \"Solidity/Tokens/SuperToken.sol\":3942:3969  !unlimitedAccounts[account] */\n      iszero\n        /* \"Solidity/Tokens/SuperToken.sol\":3897:3969  whitelistEnabled && !whitelisted[account] && !unlimitedAccounts[account] */\n    tag_327:\n        /* \"Solidity/Tokens/SuperToken.sol\":3893:4031  if (whitelistEnabled && !whitelisted[account] && !unlimitedAccounts[account]) {... */\n      iszero\n      tag_328\n      jumpi\n        /* \"Solidity/Tokens/SuperToken.sol\":3986:4019  revert(\"Address not whitelisted\") */\n      mload(0x40)\n      0x08c379a000000000000000000000000000000000000000000000000000000000\n      dup2\n      mstore\n      0x04\n      add\n      tag_329\n      swap1\n      tag_233\n      jump\t// in\n    tag_329:\n      mload(0x40)\n      dup1\n      swap2\n      sub\n      swap1\n      revert\n        /* \"Solidity/Tokens/SuperToken.sol\":3893:4031  if (whitelistEnabled && !whitelisted[account] && !unlimitedAccounts[account]) {... */\n    tag_328:\n        /* \"Solidity/Tokens/SuperToken.sol\":5665:5667  to */\n      dup6\n        /* \"Solidity/Tokens/SuperToken.sol\":3897:3913  whitelistEnabled */\n      0x14\n      0x00\n      swap1\n      sload\n      swap1\n      0x0100\n      exp\n      swap1\n      div\n      0xff\n      and\n        /* \"Solidity/Tokens/SuperToken.sol\":3897:3938  whitelistEnabled && !whitelisted[account] */\n      dup1\n      iszero\n      tag_331\n      jumpi\n      pop\n        /* \"Solidity/Tokens/SuperToken.sol\":3918:3929  whitelisted */\n      0x13\n        /* \"Solidity/Tokens/SuperToken.sol\":3918:3938  whitelisted[account] */\n      0x00\n        /* \"Solidity/Tokens/SuperToken.sol\":3930:3937  account */\n      dup3\n        /* \"Solidity/Tokens/SuperToken.sol\":3918:3938  whitelisted[account] */\n      0xffffffffffffffffffffffffffffffffffffffff\n      and\n      0xffffffffffffffffffffffffffffffffffffffff\n      and\n      dup2\n      mstore\n      0x20\n      add\n      swap1\n      dup2\n      mstore\n      0x20\n      add\n      0x00\n      keccak256\n      0x00\n      swap1\n      sload\n      swap1\n      0x0100\n      exp\n      swap1\n      div\n      0xff\n      and\n        /* \"Solidity/Tokens/SuperToken.sol\":3917:3938  !whitelisted[account] */\n      iszero\n        /* \"Solidity/Tokens/SuperToken.sol\":3897:3938  whitelistEnabled && !whitelisted[account] */\n    tag_331:\n        /* \"Solidity/Tokens/SuperToken.sol\":3897:3969  whitelistEnabled && !whitelisted[account] && !unlimitedAccounts[account] */\n      dup1\n      iszero\n      tag_332\n      jumpi\n      pop\n        /* \"Solidity/Tokens/SuperToken.sol\":3943:3960  unlimitedAccounts */\n      0x15\n        /* \"Solidity/Tokens/SuperToken.sol\":3943:3969  unlimitedAccounts[account] */\n      0x00\n        /* \"Solidity/Tokens/SuperToken.sol\":3961:3968  account */\n      dup3\n        /* \"Solidity/Tokens/SuperToken.sol\":3943:3969  unlimitedAccounts[account] */\n      0xffffffffffffffffffffffffffffffffffffffff\n      and\n      0xffffffffffffffffffffffffffffffffffffffff\n      and\n      dup2\n      mstore\n      0x20\n      add\n      swap1\n      dup2\n      mstore\n      0x20\n      add\n      0x00\n      keccak256\n      0x00\n      swap1\n      sload\n      swap1\n      0x0100\n      exp\n      swap1\n      div\n      0xff\n      and\n        /* \"Solidity/Tokens/SuperToken.sol\":3942:3969  !unlimitedAccounts[account] */\n      iszero\n        /* \"Solidity/Tokens/SuperToken.sol\":3897:3969  whitelistEnabled && !whitelisted[account] && !unlimitedAccounts[account] */\n    tag_332:\n        /* \"Solidity/Tokens/SuperToken.sol\":3893:4031  if (whitelistEnabled && !whitelisted[account] && !unlimitedAccounts[account]) {... */\n      iszero\n      tag_333\n      jumpi\n        /* \"Solidity/Tokens/SuperToken.sol\":3986:4019  revert(\"Address not whitelisted\") */\n      mload(0x40)\n      0x08c379a000000000000000000000000000000000000000000000000000000000\n      dup2\n      mstore\n      0x04\n      add\n      tag_334\n      swap1\n      tag_233\n      jump\t// in\n    tag_334:\n      mload(0x40)\n      dup1\n      swap2\n      sub\n      swap1\n      revert\n        /* \"Solidity/Tokens/SuperToken.sol\":3893:4031  if (whitelistEnabled && !whitelisted[account] && !unlimitedAccounts[account]) {... */\n    tag_333:\n        /* \"Solidity/Tokens/SuperToken.sol\":5710:5751  _validateTransfer(msg.sender, to, amount) */\n      tag_336\n        /* \"Solidity/Tokens/SuperToken.sol\":5728:5738  msg.sender */\n      caller\n        /* \"Solidity/Tokens/SuperToken.sol\":5740:5742  to */\n      dup9\n        /* \"Solidity/Tokens/SuperToken.sol\":5744:5750  amount */\n      dup9\n        /* \"Solidity/Tokens/SuperToken.sol\":5710:5727  _validateTransfer */\n      tag_241\n        /* \"Solidity/Tokens/SuperToken.sol\":5710:5751  _validateTransfer(msg.sender, to, amount) */\n      jump\t// in\n    tag_336:\n        /* \"Solidity/Tokens/SuperToken.sol\":5762:5814  _transferWithAdvancedFees(msg.sender, to, amount, 0) */\n      tag_337\n        /* \"Solidity/Tokens/SuperToken.sol\":5788:5798  msg.sender */\n      caller\n        /* \"Solidity/Tokens/SuperToken.sol\":5800:5802  to */\n      dup9\n        /* \"Solidity/Tokens/SuperToken.sol\":5804:5810  amount */\n      dup9\n        /* \"Solidity/Tokens/SuperToken.sol\":5812:5813  0 */\n      0x00\n        /* \"Solidity/Tokens/SuperToken.sol\":5762:5787  _transferWithAdvancedFees */\n      tag_245\n        /* \"Solidity/Tokens/SuperToken.sol\":5762:5814  _transferWithAdvancedFees(msg.sender, to, amount, 0) */\n      jump\t// in\n    tag_337:\n        /* \"Solidity/Tokens/SuperToken.sol\":5856:5860  true */\n      0x01\n        /* \"Solidity/Tokens/SuperToken.sol\":5849:5860  return true */\n      swap5\n      pop\n        /* \"Solidity/Tokens/SuperToken.sol\":4041:4042  _ */\n      pop\n        /* \"Solidity/Tokens/SuperToken.sol\":3820:3821  _ */\n      pop\n      pop\n        /* \"Solidity/Tokens/SuperToken.sol\":5477:5868  function transfer(address to, uint256 amount) ... */\n      pop\n      swap3\n      swap2\n      pop\n      pop\n      jump\t// out\n        /* \"Solidity/Tokens/SuperToken.sol\":1490:1539  mapping(address => bool) public unlimitedAccounts */\n    tag_167:\n      mstore(0x20, 0x15)\n      dup1\n      0x00\n      mstore\n      keccak256(0x00, 0x40)\n      0x00\n      swap2\n      pop\n      sload\n      swap1\n      0x0100\n      exp\n      swap1\n      div\n      0xff\n      and\n      dup2\n      jump\t// out\n        /* \"Solidity/Tokens/SuperToken.sol\":1231:1277  mapping(address => uint256) public totalVested */\n    tag_171:\n      mstore(0x20, 0x11)\n      dup1\n      0x00\n      mstore\n      keccak256(0x00, 0x40)\n      0x00\n      swap2\n      pop\n      swap1\n      pop\n      sload\n      dup2\n      jump\t// out\n        /* \"Solidity/Tokens/SuperToken.sol\":2605:2632  address public feeCollector */\n    tag_174:\n      0x22\n      0x00\n      swap1\n      sload\n      swap1\n      0x0100\n      exp\n      swap1\n      div\n      0xffffffffffffffffffffffffffffffffffffffff\n      and\n      dup2\n      jump\t// out\n        /* \"Solidity/Tokens/SuperToken.sol\":1599:1629  uint256 public maxTxPercentage */\n    tag_177:\n      sload(0x17)\n      dup2\n      jump\t// out\n        /* \"Solidity/Tokens/SuperToken.sol\":2061:2090  uint256 public lastUpdateTime */\n    tag_180:\n      sload(0x20)\n      dup2\n      jump\t// out\n        /* \"Solidity/Tokens/SuperToken.sol\":242:266  uint256 public maxSupply */\n    tag_183:\n      sload(0x04)\n      dup2\n      jump\t// out\n        /* \"Solidity/Tokens/SuperToken.sol\":1370:1413  mapping(address => bool) public whitelisted */\n    tag_187:\n      mstore(0x20, 0x13)\n      dup1\n      0x00\n      mstore\n      keccak256(0x00, 0x40)\n      0x00\n      swap2\n      pop\n      sload\n      swap1\n      0x0100\n      exp\n      swap1\n      div\n      0xff\n      and\n      dup2\n      jump\t// out\n        /* \"Solidity/Tokens/SuperToken.sol\":1320:1363  mapping(address => bool) public blacklisted */\n    tag_191:\n      mstore(0x20, 0x12)\n      dup1\n      0x00\n      mstore\n      keccak256(0x00, 0x40)\n      0x00\n      swap2\n      pop\n      sload\n      swap1\n      0x0100\n      exp\n      swap1\n      div\n      0xff\n      and\n      dup2\n      jump\t// out\n        /* \"Solidity/Tokens/SuperToken.sol\":14495:14631  function allowance(address owner9, address spender) public view returns (uint256) {... */\n    tag_196:\n        /* \"Solidity/Tokens/SuperToken.sol\":14568:14575  uint256 */\n      0x00\n        /* \"Solidity/Tokens/SuperToken.sol\":14595:14606  _allowances */\n      0x06\n        /* \"Solidity/Tokens/SuperToken.sol\":14595:14614  _allowances[owner9] */\n      0x00\n        /* \"Solidity/Tokens/SuperToken.sol\":14607:14613  owner9 */\n      dup5\n        /* \"Solidity/Tokens/SuperToken.sol\":14595:14614  _allowances[owner9] */\n      0xffffffffffffffffffffffffffffffffffffffff\n      and\n      0xffffffffffffffffffffffffffffffffffffffff\n      and\n      dup2\n      mstore\n      0x20\n      add\n      swap1\n      dup2\n      mstore\n      0x20\n      add\n      0x00\n      keccak256\n        /* \"Solidity/Tokens/SuperToken.sol\":14595:14623  _allowances[owner9][spender] */\n      0x00\n        /* \"Solidity/Tokens/SuperToken.sol\":14615:14622  spender */\n      dup4\n        /* \"Solidity/Tokens/SuperToken.sol\":14595:14623  _allowances[owner9][spender] */\n      0xffffffffffffffffffffffffffffffffffffffff\n      and\n      0xffffffffffffffffffffffffffffffffffffffff\n      and\n      dup2\n      mstore\n      0x20\n      add\n      swap1\n      dup2\n      mstore\n      0x20\n      add\n      0x00\n      keccak256\n      sload\n        /* \"Solidity/Tokens/SuperToken.sol\":14588:14623  return _allowances[owner9][spender] */\n      swap1\n      pop\n        /* \"Solidity/Tokens/SuperToken.sol\":14495:14631  function allowance(address owner9, address spender) public view returns (uint256) {... */\n      swap3\n      swap2\n      pop\n      pop\n      jump\t// out\n        /* \"Solidity/Tokens/SuperToken.sol\":2019:2054  uint256 public rewardPerTokenStored */\n    tag_199:\n      sload(0x1f)\n      dup2\n      jump\t// out\n        /* \"Solidity/Tokens/SuperToken.sol\":12466:12679  function setFeeStructure(uint256 transfer9, uint256 buy, uint256 sell) public onlyFeeManager {... */\n    tag_204:\n        /* \"Solidity/Tokens/SuperToken.sol\":3579:3590  feeManagers */\n      0x0f\n        /* \"Solidity/Tokens/SuperToken.sol\":3579:3602  feeManagers[msg.sender] */\n      0x00\n        /* \"Solidity/Tokens/SuperToken.sol\":3591:3601  msg.sender */\n      caller\n        /* \"Solidity/Tokens/SuperToken.sol\":3579:3602  feeManagers[msg.sender] */\n      0xffffffffffffffffffffffffffffffffffffffff\n      and\n      0xffffffffffffffffffffffffffffffffffffffff\n      and\n      dup2\n      mstore\n      0x20\n      add\n      swap1\n      dup2\n      mstore\n      0x20\n      add\n      0x00\n      keccak256\n      0x00\n      swap1\n      sload\n      swap1\n      0x0100\n      exp\n      swap1\n      div\n      0xff\n      and\n        /* \"Solidity/Tokens/SuperToken.sol\":3578:3602  !feeManagers[msg.sender] */\n      iszero\n        /* \"Solidity/Tokens/SuperToken.sol\":3578:3625  !feeManagers[msg.sender] && !admins[msg.sender] */\n      dup1\n      iszero\n      tag_340\n      jumpi\n      pop\n        /* \"Solidity/Tokens/SuperToken.sol\":3607:3613  admins */\n      0x0c\n        /* \"Solidity/Tokens/SuperToken.sol\":3607:3625  admins[msg.sender] */\n      0x00\n        /* \"Solidity/Tokens/SuperToken.sol\":3614:3624  msg.sender */\n      caller\n        /* \"Solidity/Tokens/SuperToken.sol\":3607:3625  admins[msg.sender] */\n      0xffffffffffffffffffffffffffffffffffffffff\n      and\n      0xffffffffffffffffffffffffffffffffffffffff\n      and\n      dup2\n      mstore\n      0x20\n      add\n      swap1\n      dup2\n      mstore\n      0x20\n      add\n      0x00\n      keccak256\n      0x00\n      swap1\n      sload\n      swap1\n      0x0100\n      exp\n      swap1\n      div\n      0xff\n      and\n        /* \"Solidity/Tokens/SuperToken.sol\":3606:3625  !admins[msg.sender] */\n      iszero\n        /* \"Solidity/Tokens/SuperToken.sol\":3578:3625  !feeManagers[msg.sender] && !admins[msg.sender] */\n    tag_340:\n        /* \"Solidity/Tokens/SuperToken.sol\":3578:3648  !feeManagers[msg.sender] && !admins[msg.sender] && msg.sender != owner */\n      dup1\n      iszero\n      tag_341\n      jumpi\n      pop\n        /* \"Solidity/Tokens/SuperToken.sol\":3643:3648  owner */\n      0x0b\n      0x00\n      swap1\n      sload\n      swap1\n      0x0100\n      exp\n      swap1\n      div\n      0xffffffffffffffffffffffffffffffffffffffff\n      and\n        /* \"Solidity/Tokens/SuperToken.sol\":3629:3648  msg.sender != owner */\n      0xffffffffffffffffffffffffffffffffffffffff\n      and\n        /* \"Solidity/Tokens/SuperToken.sol\":3629:3639  msg.sender */\n      caller\n        /* \"Solidity/Tokens/SuperToken.sol\":3629:3648  msg.sender != owner */\n      0xffffffffffffffffffffffffffffffffffffffff\n      and\n      eq\n      iszero\n        /* \"Solidity/Tokens/SuperToken.sol\":3578:3648  !feeManagers[msg.sender] && !admins[msg.sender] && msg.sender != owner */\n    tag_341:\n        /* \"Solidity/Tokens/SuperToken.sol\":3574:3672  if (!feeManagers[msg.sender] && !admins[msg.sender] && msg.sender != owner) revert NotFeeManager() */\n      iszero\n      tag_342\n      jumpi\n        /* \"Solidity/Tokens/SuperToken.sol\":3657:3672  NotFeeManager() */\n      mload(0x40)\n      0xf5d267eb00000000000000000000000000000000000000000000000000000000\n      dup2\n      mstore\n      0x04\n      add\n      mload(0x40)\n      dup1\n      swap2\n      sub\n      swap1\n      revert\n        /* \"Solidity/Tokens/SuperToken.sol\":3574:3672  if (!feeManagers[msg.sender] && !admins[msg.sender] && msg.sender != owner) revert NotFeeManager() */\n    tag_342:\n        /* \"Solidity/Tokens/SuperToken.sol\":12594:12603  transfer9 */\n      dup3\n        /* \"Solidity/Tokens/SuperToken.sol\":12570:12579  feeConfig */\n      0x07\n        /* \"Solidity/Tokens/SuperToken.sol\":12570:12591  feeConfig.transferFee */\n      0x00\n      add\n        /* \"Solidity/Tokens/SuperToken.sol\":12570:12603  feeConfig.transferFee = transfer9 */\n      dup2\n      swap1\n      sstore\n      pop\n        /* \"Solidity/Tokens/SuperToken.sol\":12633:12636  buy */\n      dup2\n        /* \"Solidity/Tokens/SuperToken.sol\":12614:12623  feeConfig */\n      0x07\n        /* \"Solidity/Tokens/SuperToken.sol\":12614:12630  feeConfig.buyFee */\n      0x01\n      add\n        /* \"Solidity/Tokens/SuperToken.sol\":12614:12636  feeConfig.buyFee = buy */\n      dup2\n      swap1\n      sstore\n      pop\n        /* \"Solidity/Tokens/SuperToken.sol\":12667:12671  sell */\n      dup1\n        /* \"Solidity/Tokens/SuperToken.sol\":12647:12656  feeConfig */\n      0x07\n        /* \"Solidity/Tokens/SuperToken.sol\":12647:12664  feeConfig.sellFee */\n      0x02\n      add\n        /* \"Solidity/Tokens/SuperToken.sol\":12647:12671  feeConfig.sellFee = sell */\n      dup2\n      swap1\n      sstore\n      pop\n        /* \"Solidity/Tokens/SuperToken.sol\":12466:12679  function setFeeStructure(uint256 transfer9, uint256 buy, uint256 sell) public onlyFeeManager {... */\n      pop\n      pop\n      pop\n      jump\t// out\n        /* \"Solidity/Tokens/SuperToken.sol\":872:915  mapping(address => bool) public feeManagers */\n    tag_207:\n      mstore(0x20, 0x0f)\n      dup1\n      0x00\n      mstore\n      keccak256(0x00, 0x40)\n      0x00\n      swap2\n      pop\n      sload\n      swap1\n      0x0100\n      exp\n      swap1\n      div\n      0xff\n      and\n      dup2\n      jump\t// out\n        /* \"Solidity/Tokens/SuperToken.sol\":780:819  mapping(address => bool) public minters */\n    tag_211:\n      mstore(0x20, 0x0d)\n      dup1\n      0x00\n      mstore\n      keccak256(0x00, 0x40)\n      0x00\n      swap2\n      pop\n      sload\n      swap1\n      0x0100\n      exp\n      swap1\n      div\n      0xff\n      and\n      dup2\n      jump\t// out\n        /* \"Solidity/Tokens/SuperToken.sol\":13770:13951  function _approve(address owner7, address spender, uint256 amount) internal {... */\n    tag_221:\n        /* \"Solidity/Tokens/SuperToken.sol\":13888:13894  amount */\n      dup1\n        /* \"Solidity/Tokens/SuperToken.sol\":13857:13868  _allowances */\n      0x06\n        /* \"Solidity/Tokens/SuperToken.sol\":13857:13876  _allowances[owner7] */\n      0x00\n        /* \"Solidity/Tokens/SuperToken.sol\":13869:13875  owner7 */\n      dup6\n        /* \"Solidity/Tokens/SuperToken.sol\":13857:13876  _allowances[owner7] */\n      0xffffffffffffffffffffffffffffffffffffffff\n      and\n      0xffffffffffffffffffffffffffffffffffffffff\n      and\n      dup2\n      mstore\n      0x20\n      add\n      swap1\n      dup2\n      mstore\n      0x20\n      add\n      0x00\n      keccak256\n        /* \"Solidity/Tokens/SuperToken.sol\":13857:13885  _allowances[owner7][spender] */\n      0x00\n        /* \"Solidity/Tokens/SuperToken.sol\":13877:13884  spender */\n      dup5\n        /* \"Solidity/Tokens/SuperToken.sol\":13857:13885  _allowances[owner7][spender] */\n      0xffffffffffffffffffffffffffffffffffffffff\n      and\n      0xffffffffffffffffffffffffffffffffffffffff\n      and\n      dup2\n      mstore\n      0x20\n      add\n      swap1\n      dup2\n      mstore\n      0x20\n      add\n      0x00\n      keccak256\n        /* \"Solidity/Tokens/SuperToken.sol\":13857:13894  _allowances[owner7][spender] = amount */\n      dup2\n      swap1\n      sstore\n      pop\n        /* \"Solidity/Tokens/SuperToken.sol\":13927:13934  spender */\n      dup2\n        /* \"Solidity/Tokens/SuperToken.sol\":13910:13943  Approval(owner7, spender, amount) */\n      0xffffffffffffffffffffffffffffffffffffffff\n      and\n        /* \"Solidity/Tokens/SuperToken.sol\":13919:13925  owner7 */\n      dup4\n        /* \"Solidity/Tokens/SuperToken.sol\":13910:13943  Approval(owner7, spender, amount) */\n      0xffffffffffffffffffffffffffffffffffffffff\n      and\n      0x8c5be1e5ebec7d5bd14f71427d1e84f3dd0314c0f7b2291e5b200ac8c7c3b925\n        /* \"Solidity/Tokens/SuperToken.sol\":13936:13942  amount */\n      dup4\n        /* \"Solidity/Tokens/SuperToken.sol\":13910:13943  Approval(owner7, spender, amount) */\n      mload(0x40)\n      tag_345\n      swap2\n      swap1\n      tag_71\n      jump\t// in\n    tag_345:\n      mload(0x40)\n      dup1\n      swap2\n      sub\n      swap1\n      log3\n        /* \"Solidity/Tokens/SuperToken.sol\":13770:13951  function _approve(address owner7, address spender, uint256 amount) internal {... */\n      pop\n      pop\n      pop\n      jump\t// out\n        /* \"Solidity/Tokens/SuperToken.sol\":11694:12255  function _validateTransfer(address from, address to, uint256 amount) private view {... */\n    tag_241:\n        /* \"Solidity/Tokens/SuperToken.sol\":11792:11809  unlimitedAccounts */\n      0x15\n        /* \"Solidity/Tokens/SuperToken.sol\":11792:11815  unlimitedAccounts[from] */\n      0x00\n        /* \"Solidity/Tokens/SuperToken.sol\":11810:11814  from */\n      dup5\n        /* \"Solidity/Tokens/SuperToken.sol\":11792:11815  unlimitedAccounts[from] */\n      0xffffffffffffffffffffffffffffffffffffffff\n      and\n      0xffffffffffffffffffffffffffffffffffffffff\n      and\n      dup2\n      mstore\n      0x20\n      add\n      swap1\n      dup2\n      mstore\n      0x20\n      add\n      0x00\n      keccak256\n      0x00\n      swap1\n      sload\n      swap1\n      0x0100\n      exp\n      swap1\n      div\n      0xff\n      and\n        /* \"Solidity/Tokens/SuperToken.sol\":11787:12248  if (!unlimitedAccounts[from]) {... */\n      tag_347\n      jumpi\n        /* \"Solidity/Tokens/SuperToken.sol\":11870:11883  uint256 maxTx */\n      0x00\n        /* \"Solidity/Tokens/SuperToken.sol\":11920:11925  10000 */\n      0x2710\n        /* \"Solidity/Tokens/SuperToken.sol\":11901:11916  maxTxPercentage */\n      sload(0x17)\n        /* \"Solidity/Tokens/SuperToken.sol\":11887:11898  totalSupply */\n      sload(0x03)\n        /* \"Solidity/Tokens/SuperToken.sol\":11887:11916  totalSupply * maxTxPercentage */\n      tag_348\n      swap2\n      swap1\n      tag_259\n      jump\t// in\n    tag_348:\n        /* \"Solidity/Tokens/SuperToken.sol\":11886:11925  (totalSupply * maxTxPercentage) / 10000 */\n      tag_349\n      swap2\n      swap1\n      tag_261\n      jump\t// in\n    tag_349:\n        /* \"Solidity/Tokens/SuperToken.sol\":11870:11925  uint256 maxTx = (totalSupply * maxTxPercentage) / 10000 */\n      swap1\n      pop\n        /* \"Solidity/Tokens/SuperToken.sol\":11953:11958  maxTx */\n      dup1\n        /* \"Solidity/Tokens/SuperToken.sol\":11944:11950  amount */\n      dup3\n        /* \"Solidity/Tokens/SuperToken.sol\":11944:11958  amount > maxTx */\n      gt\n        /* \"Solidity/Tokens/SuperToken.sol\":11940:11981  if (amount > maxTx) revert ExceedsMaxTx() */\n      iszero\n      tag_350\n      jumpi\n        /* \"Solidity/Tokens/SuperToken.sol\":11967:11981  ExceedsMaxTx() */\n      mload(0x40)\n      0x2b70fd5500000000000000000000000000000000000000000000000000000000\n      dup2\n      mstore\n      0x04\n      add\n      mload(0x40)\n      dup1\n      swap2\n      sub\n      swap1\n      revert\n        /* \"Solidity/Tokens/SuperToken.sol\":11940:11981  if (amount > maxTx) revert ExceedsMaxTx() */\n    tag_350:\n        /* \"Solidity/Tokens/SuperToken.sol\":12041:12056  uint256 maxHold */\n      0x00\n        /* \"Solidity/Tokens/SuperToken.sol\":12095:12100  10000 */\n      0x2710\n        /* \"Solidity/Tokens/SuperToken.sol\":12074:12091  maxHoldPercentage */\n      sload(0x16)\n        /* \"Solidity/Tokens/SuperToken.sol\":12060:12071  totalSupply */\n      sload(0x03)\n        /* \"Solidity/Tokens/SuperToken.sol\":12060:12091  totalSupply * maxHoldPercentage */\n      tag_351\n      swap2\n      swap1\n      tag_259\n      jump\t// in\n    tag_351:\n        /* \"Solidity/Tokens/SuperToken.sol\":12059:12100  (totalSupply * maxHoldPercentage) / 10000 */\n      tag_352\n      swap2\n      swap1\n      tag_261\n      jump\t// in\n    tag_352:\n        /* \"Solidity/Tokens/SuperToken.sol\":12041:12100  uint256 maxHold = (totalSupply * maxHoldPercentage) / 10000 */\n      swap1\n      pop\n        /* \"Solidity/Tokens/SuperToken.sol\":12144:12151  maxHold */\n      dup1\n        /* \"Solidity/Tokens/SuperToken.sol\":12135:12141  amount */\n      dup4\n        /* \"Solidity/Tokens/SuperToken.sol\":12119:12128  _balances */\n      0x05\n        /* \"Solidity/Tokens/SuperToken.sol\":12119:12132  _balances[to] */\n      0x00\n        /* \"Solidity/Tokens/SuperToken.sol\":12129:12131  to */\n      dup8\n        /* \"Solidity/Tokens/SuperToken.sol\":12119:12132  _balances[to] */\n      0xffffffffffffffffffffffffffffffffffffffff\n      and\n      0xffffffffffffffffffffffffffffffffffffffff\n      and\n      dup2\n      mstore\n      0x20\n      add\n      swap1\n      dup2\n      mstore\n      0x20\n      add\n      0x00\n      keccak256\n      sload\n        /* \"Solidity/Tokens/SuperToken.sol\":12119:12141  _balances[to] + amount */\n      tag_353\n      swap2\n      swap1\n      tag_273\n      jump\t// in\n    tag_353:\n        /* \"Solidity/Tokens/SuperToken.sol\":12119:12151  _balances[to] + amount > maxHold */\n      gt\n        /* \"Solidity/Tokens/SuperToken.sol\":12119:12177  _balances[to] + amount > maxHold && !unlimitedAccounts[to] */\n      dup1\n      iszero\n      tag_354\n      jumpi\n      pop\n        /* \"Solidity/Tokens/SuperToken.sol\":12156:12173  unlimitedAccounts */\n      0x15\n        /* \"Solidity/Tokens/SuperToken.sol\":12156:12177  unlimitedAccounts[to] */\n      0x00\n        /* \"Solidity/Tokens/SuperToken.sol\":12174:12176  to */\n      dup6\n        /* \"Solidity/Tokens/SuperToken.sol\":12156:12177  unlimitedAccounts[to] */\n      0xffffffffffffffffffffffffffffffffffffffff\n      and\n      0xffffffffffffffffffffffffffffffffffffffff\n      and\n      dup2\n      mstore\n      0x20\n      add\n      swap1\n      dup2\n      mstore\n      0x20\n      add\n      0x00\n      keccak256\n      0x00\n      swap1\n      sload\n      swap1\n      0x0100\n      exp\n      swap1\n      div\n      0xff\n      and\n        /* \"Solidity/Tokens/SuperToken.sol\":12155:12177  !unlimitedAccounts[to] */\n      iszero\n        /* \"Solidity/Tokens/SuperToken.sol\":12119:12177  _balances[to] + amount > maxHold && !unlimitedAccounts[to] */\n    tag_354:\n        /* \"Solidity/Tokens/SuperToken.sol\":12115:12237  if (_balances[to] + amount > maxHold && !unlimitedAccounts[to]) {... */\n      iszero\n      tag_355\n      jumpi\n        /* \"Solidity/Tokens/SuperToken.sol\":12205:12221  ExceedsMaxHold() */\n      mload(0x40)\n      0xf50d423400000000000000000000000000000000000000000000000000000000\n      dup2\n      mstore\n      0x04\n      add\n      mload(0x40)\n      dup1\n      swap2\n      sub\n      swap1\n      revert\n        /* \"Solidity/Tokens/SuperToken.sol\":12115:12237  if (_balances[to] + amount > maxHold && !unlimitedAccounts[to]) {... */\n    tag_355:\n        /* \"Solidity/Tokens/SuperToken.sol\":11817:12248  {... */\n      pop\n      pop\n        /* \"Solidity/Tokens/SuperToken.sol\":11787:12248  if (!unlimitedAccounts[from]) {... */\n    tag_347:\n        /* \"Solidity/Tokens/SuperToken.sol\":11694:12255  function _validateTransfer(address from, address to, uint256 amount) private view {... */\n      pop\n      pop\n      pop\n      jump\t// out\n        /* \"Solidity/Tokens/SuperToken.sol\":13963:14328  function _spendAllowance(address owner8, address spender, uint256 amount) internal {... */\n    tag_243:\n        /* \"Solidity/Tokens/SuperToken.sol\":14057:14081  uint256 currentAllowance */\n      0x00\n        /* \"Solidity/Tokens/SuperToken.sol\":14084:14095  _allowances */\n      0x06\n        /* \"Solidity/Tokens/SuperToken.sol\":14084:14103  _allowances[owner8] */\n      0x00\n        /* \"Solidity/Tokens/SuperToken.sol\":14096:14102  owner8 */\n      dup6\n        /* \"Solidity/Tokens/SuperToken.sol\":14084:14103  _allowances[owner8] */\n      0xffffffffffffffffffffffffffffffffffffffff\n      and\n      0xffffffffffffffffffffffffffffffffffffffff\n      and\n      dup2\n      mstore\n      0x20\n      add\n      swap1\n      dup2\n      mstore\n      0x20\n      add\n      0x00\n      keccak256\n        /* \"Solidity/Tokens/SuperToken.sol\":14084:14112  _allowances[owner8][spender] */\n      0x00\n        /* \"Solidity/Tokens/SuperToken.sol\":14104:14111  spender */\n      dup5\n        /* \"Solidity/Tokens/SuperToken.sol\":14084:14112  _allowances[owner8][spender] */\n      0xffffffffffffffffffffffffffffffffffffffff\n      and\n      0xffffffffffffffffffffffffffffffffffffffff\n      and\n      dup2\n      mstore\n      0x20\n      add\n      swap1\n      dup2\n      mstore\n      0x20\n      add\n      0x00\n      keccak256\n      sload\n        /* \"Solidity/Tokens/SuperToken.sol\":14057:14112  uint256 currentAllowance = _allowances[owner8][spender] */\n      swap1\n      pop\n        /* \"Solidity/Tokens/SuperToken.sol\":14147:14164  type(uint256).max */\n      0xffffffffffffffffffffffffffffffffffffffffffffffffffffffffffffffff\n        /* \"Solidity/Tokens/SuperToken.sol\":14127:14143  currentAllowance */\n      dup2\n        /* \"Solidity/Tokens/SuperToken.sol\":14127:14164  currentAllowance != type(uint256).max */\n      eq\n        /* \"Solidity/Tokens/SuperToken.sol\":14123:14321  if (currentAllowance != type(uint256).max) {... */\n      tag_357\n      jumpi\n        /* \"Solidity/Tokens/SuperToken.sol\":14209:14215  amount */\n      dup2\n        /* \"Solidity/Tokens/SuperToken.sol\":14189:14205  currentAllowance */\n      dup2\n        /* \"Solidity/Tokens/SuperToken.sol\":14189:14215  currentAllowance >= amount */\n      lt\n      iszero\n        /* \"Solidity/Tokens/SuperToken.sol\":14181:14242  require(currentAllowance >= amount, \"Insufficient allowance\") */\n      tag_358\n      jumpi\n      mload(0x40)\n      0x08c379a000000000000000000000000000000000000000000000000000000000\n      dup2\n      mstore\n      0x04\n      add\n      tag_359\n      swap1\n      tag_360\n      jump\t// in\n    tag_359:\n      mload(0x40)\n      dup1\n      swap2\n      sub\n      swap1\n      revert\n    tag_358:\n        /* \"Solidity/Tokens/SuperToken.sol\":14257:14309  _approve(owner8, spender, currentAllowance - amount) */\n      tag_361\n        /* \"Solidity/Tokens/SuperToken.sol\":14266:14272  owner8 */\n      dup5\n        /* \"Solidity/Tokens/SuperToken.sol\":14274:14281  spender */\n      dup5\n        /* \"Solidity/Tokens/SuperToken.sol\":14302:14308  amount */\n      dup5\n        /* \"Solidity/Tokens/SuperToken.sol\":14283:14299  currentAllowance */\n      dup5\n        /* \"Solidity/Tokens/SuperToken.sol\":14283:14308  currentAllowance - amount */\n      tag_362\n      swap2\n      swap1\n      tag_254\n      jump\t// in\n    tag_362:\n        /* \"Solidity/Tokens/SuperToken.sol\":14257:14265  _approve */\n      tag_221\n        /* \"Solidity/Tokens/SuperToken.sol\":14257:14309  _approve(owner8, spender, currentAllowance - amount) */\n      jump\t// in\n    tag_361:\n        /* \"Solidity/Tokens/SuperToken.sol\":14123:14321  if (currentAllowance != type(uint256).max) {... */\n    tag_357:\n        /* \"Solidity/Tokens/SuperToken.sol\":14046:14328  {... */\n      pop\n        /* \"Solidity/Tokens/SuperToken.sol\":13963:14328  function _spendAllowance(address owner8, address spender, uint256 amount) internal {... */\n      pop\n      pop\n      pop\n      jump\t// out\n        /* \"Solidity/Tokens/SuperToken.sol\":10049:11352  function _transferWithAdvancedFees(address from, address to, uint256 amount, uint8 feeType) private {... */\n    tag_245:\n        /* \"Solidity/Tokens/SuperToken.sol\":10160:10171  uint256 fee */\n      0x00\n        /* \"Solidity/Tokens/SuperToken.sol\":10174:10175  0 */\n      0x00\n        /* \"Solidity/Tokens/SuperToken.sol\":10160:10175  uint256 fee = 0 */\n      swap1\n      pop\n        /* \"Solidity/Tokens/SuperToken.sol\":10211:10212  1 */\n      0x01\n        /* \"Solidity/Tokens/SuperToken.sol\":10200:10207  feeType */\n      dup3\n        /* \"Solidity/Tokens/SuperToken.sol\":10200:10212  feeType == 1 */\n      0xff\n      and\n      sub\n        /* \"Solidity/Tokens/SuperToken.sol\":10196:10493  if (feeType == 1) { // Buy fee... */\n      tag_364\n      jumpi\n        /* \"Solidity/Tokens/SuperToken.sol\":10276:10281  10000 */\n      0x2710\n        /* \"Solidity/Tokens/SuperToken.sol\":10256:10265  feeConfig */\n      0x07\n        /* \"Solidity/Tokens/SuperToken.sol\":10256:10272  feeConfig.buyFee */\n      0x01\n      add\n      sload\n        /* \"Solidity/Tokens/SuperToken.sol\":10247:10253  amount */\n      dup5\n        /* \"Solidity/Tokens/SuperToken.sol\":10247:10272  amount * feeConfig.buyFee */\n      tag_365\n      swap2\n      swap1\n      tag_259\n      jump\t// in\n    tag_365:\n        /* \"Solidity/Tokens/SuperToken.sol\":10246:10281  (amount * feeConfig.buyFee) / 10000 */\n      tag_366\n      swap2\n      swap1\n      tag_261\n      jump\t// in\n    tag_366:\n        /* \"Solidity/Tokens/SuperToken.sol\":10240:10281  fee = (amount * feeConfig.buyFee) / 10000 */\n      swap1\n      pop\n        /* \"Solidity/Tokens/SuperToken.sol\":10196:10493  if (feeType == 1) { // Buy fee... */\n      jump(tag_367)\n    tag_364:\n        /* \"Solidity/Tokens/SuperToken.sol\":10314:10315  2 */\n      0x02\n        /* \"Solidity/Tokens/SuperToken.sol\":10303:10310  feeType */\n      dup3\n        /* \"Solidity/Tokens/SuperToken.sol\":10303:10315  feeType == 2 */\n      0xff\n      and\n      sub\n        /* \"Solidity/Tokens/SuperToken.sol\":10299:10493  if (feeType == 2) { // Sell fee... */\n      tag_368\n      jumpi\n        /* \"Solidity/Tokens/SuperToken.sol\":10381:10386  10000 */\n      0x2710\n        /* \"Solidity/Tokens/SuperToken.sol\":10360:10369  feeConfig */\n      0x07\n        /* \"Solidity/Tokens/SuperToken.sol\":10360:10377  feeConfig.sellFee */\n      0x02\n      add\n      sload\n        /* \"Solidity/Tokens/SuperToken.sol\":10351:10357  amount */\n      dup5\n        /* \"Solidity/Tokens/SuperToken.sol\":10351:10377  amount * feeConfig.sellFee */\n      tag_369\n      swap2\n      swap1\n      tag_259\n      jump\t// in\n    tag_369:\n        /* \"Solidity/Tokens/SuperToken.sol\":10350:10386  (amount * feeConfig.sellFee) / 10000 */\n      tag_370\n      swap2\n      swap1\n      tag_261\n      jump\t// in\n    tag_370:\n        /* \"Solidity/Tokens/SuperToken.sol\":10344:10386  fee = (amount * feeConfig.sellFee) / 10000 */\n      swap1\n      pop\n        /* \"Solidity/Tokens/SuperToken.sol\":10299:10493  if (feeType == 2) { // Sell fee... */\n      jump(tag_371)\n    tag_368:\n        /* \"Solidity/Tokens/SuperToken.sol\":10476:10481  10000 */\n      0x2710\n        /* \"Solidity/Tokens/SuperToken.sol\":10451:10460  feeConfig */\n      0x07\n        /* \"Solidity/Tokens/SuperToken.sol\":10451:10472  feeConfig.transferFee */\n      0x00\n      add\n      sload\n        /* \"Solidity/Tokens/SuperToken.sol\":10442:10448  amount */\n      dup5\n        /* \"Solidity/Tokens/SuperToken.sol\":10442:10472  amount * feeConfig.transferFee */\n      tag_372\n      swap2\n      swap1\n      tag_259\n      jump\t// in\n    tag_372:\n        /* \"Solidity/Tokens/SuperToken.sol\":10441:10481  (amount * feeConfig.transferFee) / 10000 */\n      tag_373\n      swap2\n      swap1\n      tag_261\n      jump\t// in\n    tag_373:\n        /* \"Solidity/Tokens/SuperToken.sol\":10435:10481  fee = (amount * feeConfig.transferFee) / 10000 */\n      swap1\n      pop\n        /* \"Solidity/Tokens/SuperToken.sol\":10299:10493  if (feeType == 2) { // Sell fee... */\n    tag_371:\n        /* \"Solidity/Tokens/SuperToken.sol\":10196:10493  if (feeType == 1) { // Buy fee... */\n    tag_367:\n        /* \"Solidity/Tokens/SuperToken.sol\":10513:10530  uint256 netAmount */\n      0x00\n        /* \"Solidity/Tokens/SuperToken.sol\":10542:10545  fee */\n      dup2\n        /* \"Solidity/Tokens/SuperToken.sol\":10533:10539  amount */\n      dup5\n        /* \"Solidity/Tokens/SuperToken.sol\":10533:10545  amount - fee */\n      tag_374\n      swap2\n      swap1\n      tag_254\n      jump\t// in\n    tag_374:\n        /* \"Solidity/Tokens/SuperToken.sol\":10513:10545  uint256 netAmount = amount - fee */\n      swap1\n      pop\n        /* \"Solidity/Tokens/SuperToken.sol\":10607:10631  uint256 liquidityPortion */\n      0x00\n        /* \"Solidity/Tokens/SuperToken.sol\":10657:10662  10000 */\n      0x2710\n        /* \"Solidity/Tokens/SuperToken.sol\":10641:10653  liquidityFee */\n      sload(0x19)\n        /* \"Solidity/Tokens/SuperToken.sol\":10635:10638  fee */\n      dup5\n        /* \"Solidity/Tokens/SuperToken.sol\":10635:10653  fee * liquidityFee */\n      tag_375\n      swap2\n      swap1\n      tag_259\n      jump\t// in\n    tag_375:\n        /* \"Solidity/Tokens/SuperToken.sol\":10634:10662  (fee * liquidityFee) / 10000 */\n      tag_376\n      swap2\n      swap1\n      tag_261\n      jump\t// in\n    tag_376:\n        /* \"Solidity/Tokens/SuperToken.sol\":10607:10662  uint256 liquidityPortion = (fee * liquidityFee) / 10000 */\n      swap1\n      pop\n        /* \"Solidity/Tokens/SuperToken.sol\":10696:10697  0 */\n      0x00\n        /* \"Solidity/Tokens/SuperToken.sol\":10677:10693  liquidityPortion */\n      dup2\n        /* \"Solidity/Tokens/SuperToken.sol\":10677:10697  liquidityPortion > 0 */\n      gt\n        /* \"Solidity/Tokens/SuperToken.sol\":10673:10804  if (liquidityPortion > 0) {... */\n      iszero\n      tag_377\n      jumpi\n        /* \"Solidity/Tokens/SuperToken.sol\":10738:10754  liquidityPortion */\n      dup1\n        /* \"Solidity/Tokens/SuperToken.sol\":10714:10734  accumulatedLiquidity */\n      0x1b\n      0x00\n        /* \"Solidity/Tokens/SuperToken.sol\":10714:10754  accumulatedLiquidity += liquidityPortion */\n      dup3\n      dup3\n      sload\n      tag_378\n      swap2\n      swap1\n      tag_273\n      jump\t// in\n    tag_378:\n      swap3\n      pop\n      pop\n      dup2\n      swap1\n      sstore\n      pop\n        /* \"Solidity/Tokens/SuperToken.sol\":10776:10792  liquidityPortion */\n      dup1\n        /* \"Solidity/Tokens/SuperToken.sol\":10769:10792  fee -= liquidityPortion */\n      dup4\n      tag_379\n      swap2\n      swap1\n      tag_254\n      jump\t// in\n    tag_379:\n      swap3\n      pop\n        /* \"Solidity/Tokens/SuperToken.sol\":10673:10804  if (liquidityPortion > 0) {... */\n    tag_377:\n        /* \"Solidity/Tokens/SuperToken.sol\":10872:10878  amount */\n      dup5\n        /* \"Solidity/Tokens/SuperToken.sol\":10853:10862  _balances */\n      0x05\n        /* \"Solidity/Tokens/SuperToken.sol\":10853:10868  _balances[from] */\n      0x00\n        /* \"Solidity/Tokens/SuperToken.sol\":10863:10867  from */\n      dup10\n        /* \"Solidity/Tokens/SuperToken.sol\":10853:10868  _balances[from] */\n      0xffffffffffffffffffffffffffffffffffffffff\n      and\n      0xffffffffffffffffffffffffffffffffffffffff\n      and\n      dup2\n      mstore\n      0x20\n      add\n      swap1\n      dup2\n      mstore\n      0x20\n      add\n      0x00\n      keccak256\n      0x00\n        /* \"Solidity/Tokens/SuperToken.sol\":10853:10878  _balances[from] -= amount */\n      dup3\n      dup3\n      sload\n      tag_380\n      swap2\n      swap1\n      tag_254\n      jump\t// in\n    tag_380:\n      swap3\n      pop\n      pop\n      dup2\n      swap1\n      sstore\n      pop\n        /* \"Solidity/Tokens/SuperToken.sol\":10906:10915  netAmount */\n      dup2\n        /* \"Solidity/Tokens/SuperToken.sol\":10889:10898  _balances */\n      0x05\n        /* \"Solidity/Tokens/SuperToken.sol\":10889:10902  _balances[to] */\n      0x00\n        /* \"Solidity/Tokens/SuperToken.sol\":10899:10901  to */\n      dup9\n        /* \"Solidity/Tokens/SuperToken.sol\":10889:10902  _balances[to] */\n      0xffffffffffffffffffffffffffffffffffffffff\n      and\n      0xffffffffffffffffffffffffffffffffffffffff\n      and\n      dup2\n      mstore\n      0x20\n      add\n      swap1\n      dup2\n      mstore\n      0x20\n      add\n      0x00\n      keccak256\n      0x00\n        /* \"Solidity/Tokens/SuperToken.sol\":10889:10915  _balances[to] += netAmount */\n      dup3\n      dup3\n      sload\n      tag_381\n      swap2\n      swap1\n      tag_273\n      jump\t// in\n    tag_381:\n      swap3\n      pop\n      pop\n      dup2\n      swap1\n      sstore\n      pop\n        /* \"Solidity/Tokens/SuperToken.sol\":10974:10975  0 */\n      0x00\n        /* \"Solidity/Tokens/SuperToken.sol\":10968:10971  fee */\n      dup4\n        /* \"Solidity/Tokens/SuperToken.sol\":10968:10975  fee > 0 */\n      gt\n        /* \"Solidity/Tokens/SuperToken.sol\":10964:11107  if (fee > 0) {... */\n      iszero\n      tag_382\n      jumpi\n        /* \"Solidity/Tokens/SuperToken.sol\":11029:11032  fee */\n      dup3\n        /* \"Solidity/Tokens/SuperToken.sol\":10992:11001  _balances */\n      0x05\n        /* \"Solidity/Tokens/SuperToken.sol\":10992:11025  _balances[feeConfig.feeCollector] */\n      0x00\n        /* \"Solidity/Tokens/SuperToken.sol\":11002:11011  feeConfig */\n      0x07\n        /* \"Solidity/Tokens/SuperToken.sol\":11002:11024  feeConfig.feeCollector */\n      0x03\n      add\n      0x00\n      swap1\n      sload\n      swap1\n      0x0100\n      exp\n      swap1\n      div\n      0xffffffffffffffffffffffffffffffffffffffff\n      and\n        /* \"Solidity/Tokens/SuperToken.sol\":10992:11025  _balances[feeConfig.feeCollector] */\n      0xffffffffffffffffffffffffffffffffffffffff\n      and\n      0xffffffffffffffffffffffffffffffffffffffff\n      and\n      dup2\n      mstore\n      0x20\n      add\n      swap1\n      dup2\n      mstore\n      0x20\n      add\n      0x00\n      keccak256\n      0x00\n        /* \"Solidity/Tokens/SuperToken.sol\":10992:11032  _balances[feeConfig.feeCollector] += fee */\n      dup3\n      dup3\n      sload\n      tag_383\n      swap2\n      swap1\n      tag_273\n      jump\t// in\n    tag_383:\n      swap3\n      pop\n      pop\n      dup2\n      swap1\n      sstore\n      pop\n        /* \"Solidity/Tokens/SuperToken.sol\":11067:11076  feeConfig */\n      0x07\n        /* \"Solidity/Tokens/SuperToken.sol\":11067:11089  feeConfig.feeCollector */\n      0x03\n      add\n      0x00\n      swap1\n      sload\n      swap1\n      0x0100\n      exp\n      swap1\n      div\n      0xffffffffffffffffffffffffffffffffffffffff\n      and\n        /* \"Solidity/Tokens/SuperToken.sol\":11052:11095  Transfer(from, feeConfig.feeCollector, fee) */\n      0xffffffffffffffffffffffffffffffffffffffff\n      and\n        /* \"Solidity/Tokens/SuperToken.sol\":11061:11065  from */\n      dup8\n        /* \"Solidity/Tokens/SuperToken.sol\":11052:11095  Transfer(from, feeConfig.feeCollector, fee) */\n      0xffffffffffffffffffffffffffffffffffffffff\n      and\n      0xddf252ad1be2c89b69c2b068fc378daa952ba7f163c4a11628f55a4df523b3ef\n        /* \"Solidity/Tokens/SuperToken.sol\":11091:11094  fee */\n      dup6\n        /* \"Solidity/Tokens/SuperToken.sol\":11052:11095  Transfer(from, feeConfig.feeCollector, fee) */\n      mload(0x40)\n      tag_384\n      swap2\n      swap1\n      tag_71\n      jump\t// in\n    tag_384:\n      mload(0x40)\n      dup1\n      swap2\n      sub\n      swap1\n      log3\n        /* \"Solidity/Tokens/SuperToken.sol\":10964:11107  if (fee > 0) {... */\n    tag_382:\n        /* \"Solidity/Tokens/SuperToken.sol\":11147:11149  to */\n      dup6\n        /* \"Solidity/Tokens/SuperToken.sol\":11132:11161  Transfer(from, to, netAmount) */\n      0xffffffffffffffffffffffffffffffffffffffff\n      and\n        /* \"Solidity/Tokens/SuperToken.sol\":11141:11145  from */\n      dup8\n        /* \"Solidity/Tokens/SuperToken.sol\":11132:11161  Transfer(from, to, netAmount) */\n      0xffffffffffffffffffffffffffffffffffffffff\n      and\n      0xddf252ad1be2c89b69c2b068fc378daa952ba7f163c4a11628f55a4df523b3ef\n        /* \"Solidity/Tokens/SuperToken.sol\":11151:11160  netAmount */\n      dup5\n        /* \"Solidity/Tokens/SuperToken.sol\":11132:11161  Transfer(from, to, netAmount) */\n      mload(0x40)\n      tag_385\n      swap2\n      swap1\n      tag_71\n      jump\t// in\n    tag_385:\n      mload(0x40)\n      dup1\n      swap2\n      sub\n      swap1\n      log3\n        /* \"Solidity/Tokens/SuperToken.sol\":11246:11267  minTokensForLiquidity */\n      sload(0x1a)\n        /* \"Solidity/Tokens/SuperToken.sol\":11222:11242  accumulatedLiquidity */\n      sload(0x1b)\n        /* \"Solidity/Tokens/SuperToken.sol\":11222:11267  accumulatedLiquidity >= minTokensForLiquidity */\n      lt\n      iszero\n        /* \"Solidity/Tokens/SuperToken.sol\":11222:11298  accumulatedLiquidity >= minTokensForLiquidity && liquidityPool != address(0) */\n      dup1\n      iszero\n      tag_386\n      jumpi\n      pop\n        /* \"Solidity/Tokens/SuperToken.sol\":11296:11297  0 */\n      0x00\n        /* \"Solidity/Tokens/SuperToken.sol\":11271:11298  liquidityPool != address(0) */\n      0xffffffffffffffffffffffffffffffffffffffff\n      and\n        /* \"Solidity/Tokens/SuperToken.sol\":11271:11284  liquidityPool */\n      0x18\n      0x00\n      swap1\n      sload\n      swap1\n      0x0100\n      exp\n      swap1\n      div\n      0xffffffffffffffffffffffffffffffffffffffff\n      and\n        /* \"Solidity/Tokens/SuperToken.sol\":11271:11298  liquidityPool != address(0) */\n      0xffffffffffffffffffffffffffffffffffffffff\n      and\n      eq\n      iszero\n        /* \"Solidity/Tokens/SuperToken.sol\":11222:11298  accumulatedLiquidity >= minTokensForLiquidity && liquidityPool != address(0) */\n    tag_386:\n        /* \"Solidity/Tokens/SuperToken.sol\":11218:11345  if (accumulatedLiquidity >= minTokensForLiquidity && liquidityPool != address(0)) {... */\n      iszero\n      tag_387\n      jumpi\n        /* \"Solidity/Tokens/SuperToken.sol\":11315:11333  _createLiquidity() */\n      tag_388\n        /* \"Solidity/Tokens/SuperToken.sol\":11315:11331  _createLiquidity */\n      tag_389\n        /* \"Solidity/Tokens/SuperToken.sol\":11315:11333  _createLiquidity() */\n      jump\t// in\n    tag_388:\n        /* \"Solidity/Tokens/SuperToken.sol\":11218:11345  if (accumulatedLiquidity >= minTokensForLiquidity && liquidityPool != address(0)) {... */\n    tag_387:\n        /* \"Solidity/Tokens/SuperToken.sol\":10149:11352  {... */\n      pop\n      pop\n      pop\n        /* \"Solidity/Tokens/SuperToken.sol\":10049:11352  function _transferWithAdvancedFees(address from, address to, uint256 amount, uint8 feeType) private {... */\n      pop\n      pop\n      pop\n      pop\n      jump\t// out\n        /* \"Solidity/Tokens/SuperToken.sol\":9243:9748  function _updateReward(address account) private {... */\n    tag_252:\n        /* \"Solidity/Tokens/SuperToken.sol\":9325:9326  0 */\n      0x00\n        /* \"Solidity/Tokens/SuperToken.sol\":9306:9327  account == address(0) */\n      0xffffffffffffffffffffffffffffffffffffffff\n      and\n        /* \"Solidity/Tokens/SuperToken.sol\":9306:9313  account */\n      dup2\n        /* \"Solidity/Tokens/SuperToken.sol\":9306:9327  account == address(0) */\n      0xffffffffffffffffffffffffffffffffffffffff\n      and\n      sub\n        /* \"Solidity/Tokens/SuperToken.sol\":9302:9336  if (account == address(0)) return; */\n      iszero\n        /* \"Solidity/Tokens/SuperToken.sol\":9329:9336  return; */\n      tag_390\n        /* \"Solidity/Tokens/SuperToken.sol\":9302:9336  if (account == address(0)) return; */\n      jumpi\n        /* \"Solidity/Tokens/SuperToken.sol\":9379:9396  _rewardPerToken() */\n      tag_392\n        /* \"Solidity/Tokens/SuperToken.sol\":9379:9394  _rewardPerToken */\n      tag_393\n        /* \"Solidity/Tokens/SuperToken.sol\":9379:9396  _rewardPerToken() */\n      jump\t// in\n    tag_392:\n        /* \"Solidity/Tokens/SuperToken.sol\":9356:9376  rewardPerTokenStored */\n      0x1f\n        /* \"Solidity/Tokens/SuperToken.sol\":9356:9396  rewardPerTokenStored = _rewardPerToken() */\n      dup2\n      swap1\n      sstore\n      pop\n        /* \"Solidity/Tokens/SuperToken.sol\":9424:9439  block.timestamp */\n      timestamp\n        /* \"Solidity/Tokens/SuperToken.sol\":9407:9421  lastUpdateTime */\n      0x20\n        /* \"Solidity/Tokens/SuperToken.sol\":9407:9439  lastUpdateTime = block.timestamp */\n      dup2\n      swap1\n      sstore\n      pop\n        /* \"Solidity/Tokens/SuperToken.sol\":9483:9484  0 */\n      0x00\n        /* \"Solidity/Tokens/SuperToken.sol\":9464:9485  account != address(0) */\n      0xffffffffffffffffffffffffffffffffffffffff\n      and\n        /* \"Solidity/Tokens/SuperToken.sol\":9464:9471  account */\n      dup2\n        /* \"Solidity/Tokens/SuperToken.sol\":9464:9485  account != address(0) */\n      0xffffffffffffffffffffffffffffffffffffffff\n      and\n      eq\n        /* \"Solidity/Tokens/SuperToken.sol\":9460:9741  if (account != address(0)) {... */\n      tag_394\n      jumpi\n        /* \"Solidity/Tokens/SuperToken.sol\":9540:9557  uint256 newReward */\n      0x00\n        /* \"Solidity/Tokens/SuperToken.sol\":9632:9636  1e18 */\n      0x0de0b6b3a7640000\n        /* \"Solidity/Tokens/SuperToken.sol\":9609:9619  rewardDebt */\n      0x1d\n        /* \"Solidity/Tokens/SuperToken.sol\":9609:9628  rewardDebt[account] */\n      0x00\n        /* \"Solidity/Tokens/SuperToken.sol\":9620:9627  account */\n      dup5\n        /* \"Solidity/Tokens/SuperToken.sol\":9609:9628  rewardDebt[account] */\n      0xffffffffffffffffffffffffffffffffffffffff\n      and\n      0xffffffffffffffffffffffffffffffffffffffff\n      and\n      dup2\n      mstore\n      0x20\n      add\n      swap1\n      dup2\n      mstore\n      0x20\n      add\n      0x00\n      keccak256\n      sload\n        /* \"Solidity/Tokens/SuperToken.sol\":9586:9606  rewardPerTokenStored */\n      sload(0x1f)\n        /* \"Solidity/Tokens/SuperToken.sol\":9586:9628  rewardPerTokenStored - rewardDebt[account] */\n      tag_395\n      swap2\n      swap1\n      tag_254\n      jump\t// in\n    tag_395:\n        /* \"Solidity/Tokens/SuperToken.sol\":9560:9573  stakedBalance */\n      0x1c\n        /* \"Solidity/Tokens/SuperToken.sol\":9560:9582  stakedBalance[account] */\n      0x00\n        /* \"Solidity/Tokens/SuperToken.sol\":9574:9581  account */\n      dup6\n        /* \"Solidity/Tokens/SuperToken.sol\":9560:9582  stakedBalance[account] */\n      0xffffffffffffffffffffffffffffffffffffffff\n      and\n      0xffffffffffffffffffffffffffffffffffffffff\n      and\n      dup2\n      mstore\n      0x20\n      add\n      swap1\n      dup2\n      mstore\n      0x20\n      add\n      0x00\n      keccak256\n      sload\n        /* \"Solidity/Tokens/SuperToken.sol\":9560:9629  stakedBalance[account] * (rewardPerTokenStored - rewardDebt[account]) */\n      tag_396\n      swap2\n      swap1\n      tag_259\n      jump\t// in\n    tag_396:\n        /* \"Solidity/Tokens/SuperToken.sol\":9560:9636  stakedBalance[account] * (rewardPerTokenStored - rewardDebt[account]) / 1e18 */\n      tag_397\n      swap2\n      swap1\n      tag_261\n      jump\t// in\n    tag_397:\n        /* \"Solidity/Tokens/SuperToken.sol\":9540:9636  uint256 newReward = stakedBalance[account] * (rewardPerTokenStored - rewardDebt[account]) / 1e18 */\n      swap1\n      pop\n        /* \"Solidity/Tokens/SuperToken.sol\":9667:9668  0 */\n      0x00\n        /* \"Solidity/Tokens/SuperToken.sol\":9655:9664  newReward */\n      dup2\n        /* \"Solidity/Tokens/SuperToken.sol\":9655:9668  newReward > 0 */\n      gt\n        /* \"Solidity/Tokens/SuperToken.sol\":9651:9730  if (newReward > 0) {... */\n      iszero\n      tag_398\n      jumpi\n        /* \"Solidity/Tokens/SuperToken.sol\":9689:9714  _mint(account, newReward) */\n      tag_399\n        /* \"Solidity/Tokens/SuperToken.sol\":9695:9702  account */\n      dup3\n        /* \"Solidity/Tokens/SuperToken.sol\":9704:9713  newReward */\n      dup3\n        /* \"Solidity/Tokens/SuperToken.sol\":9689:9694  _mint */\n      tag_400\n        /* \"Solidity/Tokens/SuperToken.sol\":9689:9714  _mint(account, newReward) */\n      jump\t// in\n    tag_399:\n        /* \"Solidity/Tokens/SuperToken.sol\":9651:9730  if (newReward > 0) {... */\n    tag_398:\n        /* \"Solidity/Tokens/SuperToken.sol\":9487:9741  {... */\n      pop\n        /* \"Solidity/Tokens/SuperToken.sol\":9460:9741  if (account != address(0)) {... */\n    tag_394:\n        /* \"Solidity/Tokens/SuperToken.sol\":9243:9748  function _updateReward(address account) private {... */\n    tag_390:\n      pop\n      jump\t// out\n        /* \"Solidity/Tokens/SuperToken.sol\":12978:13237  function _transfer(address from, address to, uint256 amount) internal {... */\n    tag_257:\n        /* \"Solidity/Tokens/SuperToken.sol\":13086:13092  amount */\n      dup1\n        /* \"Solidity/Tokens/SuperToken.sol\":13067:13076  _balances */\n      0x05\n        /* \"Solidity/Tokens/SuperToken.sol\":13067:13082  _balances[from] */\n      0x00\n        /* \"Solidity/Tokens/SuperToken.sol\":13077:13081  from */\n      dup6\n        /* \"Solidity/Tokens/SuperToken.sol\":13067:13082  _balances[from] */\n      0xffffffffffffffffffffffffffffffffffffffff\n      and\n      0xffffffffffffffffffffffffffffffffffffffff\n      and\n      dup2\n      mstore\n      0x20\n      add\n      swap1\n      dup2\n      mstore\n      0x20\n      add\n      0x00\n      keccak256\n      sload\n        /* \"Solidity/Tokens/SuperToken.sol\":13067:13092  _balances[from] >= amount */\n      lt\n      iszero\n        /* \"Solidity/Tokens/SuperToken.sol\":13059:13117  require(_balances[from] >= amount, \"Insufficient balance\") */\n      tag_402\n      jumpi\n      mload(0x40)\n      0x08c379a000000000000000000000000000000000000000000000000000000000\n      dup2\n      mstore\n      0x04\n      add\n      tag_403\n      swap1\n      tag_404\n      jump\t// in\n    tag_403:\n      mload(0x40)\n      dup1\n      swap2\n      sub\n      swap1\n      revert\n    tag_402:\n        /* \"Solidity/Tokens/SuperToken.sol\":13147:13153  amount */\n      dup1\n        /* \"Solidity/Tokens/SuperToken.sol\":13128:13137  _balances */\n      0x05\n        /* \"Solidity/Tokens/SuperToken.sol\":13128:13143  _balances[from] */\n      0x00\n        /* \"Solidity/Tokens/SuperToken.sol\":13138:13142  from */\n      dup6\n        /* \"Solidity/Tokens/SuperToken.sol\":13128:13143  _balances[from] */\n      0xffffffffffffffffffffffffffffffffffffffff\n      and\n      0xffffffffffffffffffffffffffffffffffffffff\n      and\n      dup2\n      mstore\n      0x20\n      add\n      swap1\n      dup2\n      mstore\n      0x20\n      add\n      0x00\n      keccak256\n      0x00\n        /* \"Solidity/Tokens/SuperToken.sol\":13128:13153  _balances[from] -= amount */\n      dup3\n      dup3\n      sload\n      tag_405\n      swap2\n      swap1\n      tag_254\n      jump\t// in\n    tag_405:\n      swap3\n      pop\n      pop\n      dup2\n      swap1\n      sstore\n      pop\n        /* \"Solidity/Tokens/SuperToken.sol\":13181:13187  amount */\n      dup1\n        /* \"Solidity/Tokens/SuperToken.sol\":13164:13173  _balances */\n      0x05\n        /* \"Solidity/Tokens/SuperToken.sol\":13164:13177  _balances[to] */\n      0x00\n        /* \"Solidity/Tokens/SuperToken.sol\":13174:13176  to */\n      dup5\n        /* \"Solidity/Tokens/SuperToken.sol\":13164:13177  _balances[to] */\n      0xffffffffffffffffffffffffffffffffffffffff\n      and\n      0xffffffffffffffffffffffffffffffffffffffff\n      and\n      dup2\n      mstore\n      0x20\n      add\n      swap1\n      dup2\n      mstore\n      0x20\n      add\n      0x00\n      keccak256\n      0x00\n        /* \"Solidity/Tokens/SuperToken.sol\":13164:13187  _balances[to] += amount */\n      dup3\n      dup3\n      sload\n      tag_406\n      swap2\n      swap1\n      tag_273\n      jump\t// in\n    tag_406:\n      swap3\n      pop\n      pop\n      dup2\n      swap1\n      sstore\n      pop\n        /* \"Solidity/Tokens/SuperToken.sol\":13218:13220  to */\n      dup2\n        /* \"Solidity/Tokens/SuperToken.sol\":13203:13229  Transfer(from, to, amount) */\n      0xffffffffffffffffffffffffffffffffffffffff\n      and\n        /* \"Solidity/Tokens/SuperToken.sol\":13212:13216  from */\n      dup4\n        /* \"Solidity/Tokens/SuperToken.sol\":13203:13229  Transfer(from, to, amount) */\n      0xffffffffffffffffffffffffffffffffffffffff\n      and\n      0xddf252ad1be2c89b69c2b068fc378daa952ba7f163c4a11628f55a4df523b3ef\n        /* \"Solidity/Tokens/SuperToken.sol\":13222:13228  amount */\n      dup4\n        /* \"Solidity/Tokens/SuperToken.sol\":13203:13229  Transfer(from, to, amount) */\n      mload(0x40)\n      tag_407\n      swap2\n      swap1\n      tag_71\n      jump\t// in\n    tag_407:\n      mload(0x40)\n      dup1\n      swap2\n      sub\n      swap1\n      log3\n        /* \"Solidity/Tokens/SuperToken.sol\":12978:13237  function _transfer(address from, address to, uint256 amount) internal {... */\n      pop\n      pop\n      pop\n      jump\t// out\n        /* \"Solidity/Tokens/SuperToken.sol\":7830:8379  function _releasableAmount(VestingSchedule memory schedule) private view returns (uint256) {... */\n    tag_294:\n        /* \"Solidity/Tokens/SuperToken.sol\":7912:7919  uint256 */\n      0x00\n        /* \"Solidity/Tokens/SuperToken.sol\":7975:7983  schedule */\n      dup2\n        /* \"Solidity/Tokens/SuperToken.sol\":7975:7989  schedule.cliff */\n      0x80\n      add\n      mload\n        /* \"Solidity/Tokens/SuperToken.sol\":7954:7962  schedule */\n      dup3\n        /* \"Solidity/Tokens/SuperToken.sol\":7954:7972  schedule.startTime */\n      0x40\n      add\n      mload\n        /* \"Solidity/Tokens/SuperToken.sol\":7954:7989  schedule.startTime + schedule.cliff */\n      tag_409\n      swap2\n      swap1\n      tag_273\n      jump\t// in\n    tag_409:\n        /* \"Solidity/Tokens/SuperToken.sol\":7936:7951  block.timestamp */\n      timestamp\n        /* \"Solidity/Tokens/SuperToken.sol\":7936:7989  block.timestamp < schedule.startTime + schedule.cliff */\n      lt\n        /* \"Solidity/Tokens/SuperToken.sol\":7932:8026  if (block.timestamp < schedule.startTime + schedule.cliff) {... */\n      iszero\n      tag_410\n      jumpi\n        /* \"Solidity/Tokens/SuperToken.sol\":8013:8014  0 */\n      0x00\n        /* \"Solidity/Tokens/SuperToken.sol\":8006:8014  return 0 */\n      swap1\n      pop\n      jump(tag_408)\n        /* \"Solidity/Tokens/SuperToken.sol\":7932:8026  if (block.timestamp < schedule.startTime + schedule.cliff) {... */\n    tag_410:\n        /* \"Solidity/Tokens/SuperToken.sol\":8046:8065  uint256 elapsedTime */\n      0x00\n        /* \"Solidity/Tokens/SuperToken.sol\":8086:8094  schedule */\n      dup3\n        /* \"Solidity/Tokens/SuperToken.sol\":8086:8104  schedule.startTime */\n      0x40\n      add\n      mload\n        /* \"Solidity/Tokens/SuperToken.sol\":8068:8083  block.timestamp */\n      timestamp\n        /* \"Solidity/Tokens/SuperToken.sol\":8068:8104  block.timestamp - schedule.startTime */\n      tag_411\n      swap2\n      swap1\n      tag_254\n      jump\t// in\n    tag_411:\n        /* \"Solidity/Tokens/SuperToken.sol\":8046:8104  uint256 elapsedTime = block.timestamp - schedule.startTime */\n      swap1\n      pop\n        /* \"Solidity/Tokens/SuperToken.sol\":8133:8141  schedule */\n      dup3\n        /* \"Solidity/Tokens/SuperToken.sol\":8133:8150  schedule.duration */\n      0x60\n      add\n      mload\n        /* \"Solidity/Tokens/SuperToken.sol\":8119:8130  elapsedTime */\n      dup2\n        /* \"Solidity/Tokens/SuperToken.sol\":8119:8150  elapsedTime > schedule.duration */\n      gt\n        /* \"Solidity/Tokens/SuperToken.sol\":8115:8210  if (elapsedTime > schedule.duration) {... */\n      iszero\n      tag_412\n      jumpi\n        /* \"Solidity/Tokens/SuperToken.sol\":8181:8189  schedule */\n      dup3\n        /* \"Solidity/Tokens/SuperToken.sol\":8181:8198  schedule.duration */\n      0x60\n      add\n      mload\n        /* \"Solidity/Tokens/SuperToken.sol\":8167:8198  elapsedTime = schedule.duration */\n      swap1\n      pop\n        /* \"Solidity/Tokens/SuperToken.sol\":8115:8210  if (elapsedTime > schedule.duration) {... */\n    tag_412:\n        /* \"Solidity/Tokens/SuperToken.sol\":8230:8253  uint256 totalReleasable */\n      0x00\n        /* \"Solidity/Tokens/SuperToken.sol\":8295:8303  schedule */\n      dup4\n        /* \"Solidity/Tokens/SuperToken.sol\":8295:8312  schedule.duration */\n      0x60\n      add\n      mload\n        /* \"Solidity/Tokens/SuperToken.sol\":8280:8291  elapsedTime */\n      dup3\n        /* \"Solidity/Tokens/SuperToken.sol\":8257:8265  schedule */\n      dup6\n        /* \"Solidity/Tokens/SuperToken.sol\":8257:8277  schedule.totalAmount */\n      0x00\n      add\n      mload\n        /* \"Solidity/Tokens/SuperToken.sol\":8257:8291  schedule.totalAmount * elapsedTime */\n      tag_413\n      swap2\n      swap1\n      tag_259\n      jump\t// in\n    tag_413:\n        /* \"Solidity/Tokens/SuperToken.sol\":8256:8312  (schedule.totalAmount * elapsedTime) / schedule.duration */\n      tag_414\n      swap2\n      swap1\n      tag_261\n      jump\t// in\n    tag_414:\n        /* \"Solidity/Tokens/SuperToken.sol\":8230:8312  uint256 totalReleasable = (schedule.totalAmount * elapsedTime) / schedule.duration */\n      swap1\n      pop\n        /* \"Solidity/Tokens/SuperToken.sol\":8348:8356  schedule */\n      dup4\n        /* \"Solidity/Tokens/SuperToken.sol\":8348:8371  schedule.releasedAmount */\n      0x20\n      add\n      mload\n        /* \"Solidity/Tokens/SuperToken.sol\":8330:8345  totalReleasable */\n      dup2\n        /* \"Solidity/Tokens/SuperToken.sol\":8330:8371  totalReleasable - schedule.releasedAmount */\n      tag_415\n      swap2\n      swap1\n      tag_254\n      jump\t// in\n    tag_415:\n        /* \"Solidity/Tokens/SuperToken.sol\":8323:8371  return totalReleasable - schedule.releasedAmount */\n      swap3\n      pop\n      pop\n      pop\n        /* \"Solidity/Tokens/SuperToken.sol\":7830:8379  function _releasableAmount(VestingSchedule memory schedule) private view returns (uint256) {... */\n    tag_408:\n      swap2\n      swap1\n      pop\n      jump\t// out\n        /* \"Solidity/Tokens/SuperToken.sol\":11364:11644  function _createLiquidity() private {... */\n    tag_389:\n        /* \"Solidity/Tokens/SuperToken.sol\":11411:11434  uint256 liquidityAmount */\n      0x00\n        /* \"Solidity/Tokens/SuperToken.sol\":11437:11457  accumulatedLiquidity */\n      sload(0x1b)\n        /* \"Solidity/Tokens/SuperToken.sol\":11411:11457  uint256 liquidityAmount = accumulatedLiquidity */\n      swap1\n      pop\n        /* \"Solidity/Tokens/SuperToken.sol\":11491:11492  0 */\n      0x00\n        /* \"Solidity/Tokens/SuperToken.sol\":11468:11488  accumulatedLiquidity */\n      0x1b\n        /* \"Solidity/Tokens/SuperToken.sol\":11468:11492  accumulatedLiquidity = 0 */\n      dup2\n      swap1\n      sstore\n      pop\n        /* \"Solidity/Tokens/SuperToken.sol\":11513:11569  _transfer(address(this), liquidityPool, liquidityAmount) */\n      tag_417\n        /* \"Solidity/Tokens/SuperToken.sol\":11531:11535  this */\n      address\n        /* \"Solidity/Tokens/SuperToken.sol\":11538:11551  liquidityPool */\n      0x18\n      0x00\n      swap1\n      sload\n      swap1\n      0x0100\n      exp\n      swap1\n      div\n      0xffffffffffffffffffffffffffffffffffffffff\n      and\n        /* \"Solidity/Tokens/SuperToken.sol\":11553:11568  liquidityAmount */\n      dup4\n        /* \"Solidity/Tokens/SuperToken.sol\":11513:11522  _transfer */\n      tag_257\n        /* \"Solidity/Tokens/SuperToken.sol\":11513:11569  _transfer(address(this), liquidityPool, liquidityAmount) */\n      jump\t// in\n    tag_417:\n        /* \"Solidity/Tokens/SuperToken.sol\":11400:11644  {... */\n      pop\n        /* \"Solidity/Tokens/SuperToken.sol\":11364:11644  function _createLiquidity() private {... */\n      jump\t// out\n        /* \"Solidity/Tokens/SuperToken.sol\":9760:9995  function _rewardPerToken() private view returns (uint256) {... */\n    tag_393:\n        /* \"Solidity/Tokens/SuperToken.sol\":9809:9816  uint256 */\n      0x00\n        /* \"Solidity/Tokens/SuperToken.sol\":9848:9849  0 */\n      0x00\n        /* \"Solidity/Tokens/SuperToken.sol\":9833:9844  totalStaked */\n      sload(0x1e)\n        /* \"Solidity/Tokens/SuperToken.sol\":9833:9849  totalStaked == 0 */\n      sub\n        /* \"Solidity/Tokens/SuperToken.sol\":9829:9878  if (totalStaked == 0) return rewardPerTokenStored */\n      tag_419\n      jumpi\n        /* \"Solidity/Tokens/SuperToken.sol\":9858:9878  rewardPerTokenStored */\n      sload(0x1f)\n        /* \"Solidity/Tokens/SuperToken.sol\":9851:9878  return rewardPerTokenStored */\n      swap1\n      pop\n      jump(tag_418)\n        /* \"Solidity/Tokens/SuperToken.sol\":9829:9878  if (totalStaked == 0) return rewardPerTokenStored */\n    tag_419:\n        /* \"Solidity/Tokens/SuperToken.sol\":9976:9987  totalStaked */\n      sload(0x1e)\n        /* \"Solidity/Tokens/SuperToken.sol\":9969:9973  1e18 */\n      0x0de0b6b3a7640000\n        /* \"Solidity/Tokens/SuperToken.sol\":9956:9966  rewardRate */\n      sload(0x21)\n        /* \"Solidity/Tokens/SuperToken.sol\":9938:9952  lastUpdateTime */\n      sload(0x20)\n        /* \"Solidity/Tokens/SuperToken.sol\":9920:9935  block.timestamp */\n      timestamp\n        /* \"Solidity/Tokens/SuperToken.sol\":9920:9952  block.timestamp - lastUpdateTime */\n      tag_420\n      swap2\n      swap1\n      tag_254\n      jump\t// in\n    tag_420:\n        /* \"Solidity/Tokens/SuperToken.sol\":9919:9966  (block.timestamp - lastUpdateTime) * rewardRate */\n      tag_421\n      swap2\n      swap1\n      tag_259\n      jump\t// in\n    tag_421:\n        /* \"Solidity/Tokens/SuperToken.sol\":9919:9973  (block.timestamp - lastUpdateTime) * rewardRate * 1e18 */\n      tag_422\n      swap2\n      swap1\n      tag_259\n      jump\t// in\n    tag_422:\n        /* \"Solidity/Tokens/SuperToken.sol\":9919:9987  (block.timestamp - lastUpdateTime) * rewardRate * 1e18 / totalStaked */\n      tag_423\n      swap2\n      swap1\n      tag_261\n      jump\t// in\n    tag_423:\n        /* \"Solidity/Tokens/SuperToken.sol\":9896:9916  rewardPerTokenStored */\n      sload(0x1f)\n        /* \"Solidity/Tokens/SuperToken.sol\":9896:9987  rewardPerTokenStored + (block.timestamp - lastUpdateTime) * rewardRate * 1e18 / totalStaked */\n      tag_424\n      swap2\n      swap1\n      tag_273\n      jump\t// in\n    tag_424:\n        /* \"Solidity/Tokens/SuperToken.sol\":9889:9987  return rewardPerTokenStored + (block.timestamp - lastUpdateTime) * rewardRate * 1e18 / totalStaked */\n      swap1\n      pop\n        /* \"Solidity/Tokens/SuperToken.sol\":9760:9995  function _rewardPerToken() private view returns (uint256) {... */\n    tag_418:\n      swap1\n      jump\t// out\n        /* \"Solidity/Tokens/SuperToken.sol\":13249:13497  function _mint(address to, uint256 amount) internal {... */\n    tag_400:\n        /* \"Solidity/Tokens/SuperToken.sol\":13339:13348  maxSupply */\n      sload(0x04)\n        /* \"Solidity/Tokens/SuperToken.sol\":13330:13336  amount */\n      dup2\n        /* \"Solidity/Tokens/SuperToken.sol\":13316:13327  totalSupply */\n      sload(0x03)\n        /* \"Solidity/Tokens/SuperToken.sol\":13316:13336  totalSupply + amount */\n      tag_426\n      swap2\n      swap1\n      tag_273\n      jump\t// in\n    tag_426:\n        /* \"Solidity/Tokens/SuperToken.sol\":13316:13348  totalSupply + amount > maxSupply */\n      gt\n        /* \"Solidity/Tokens/SuperToken.sol\":13312:13375  if (totalSupply + amount > maxSupply) revert ExceedsMaxSupply() */\n      iszero\n      tag_427\n      jumpi\n        /* \"Solidity/Tokens/SuperToken.sol\":13357:13375  ExceedsMaxSupply() */\n      mload(0x40)\n      0xc30436e900000000000000000000000000000000000000000000000000000000\n      dup2\n      mstore\n      0x04\n      add\n      mload(0x40)\n      dup1\n      swap2\n      sub\n      swap1\n      revert\n        /* \"Solidity/Tokens/SuperToken.sol\":13312:13375  if (totalSupply + amount > maxSupply) revert ExceedsMaxSupply() */\n    tag_427:\n        /* \"Solidity/Tokens/SuperToken.sol\":13401:13407  amount */\n      dup1\n        /* \"Solidity/Tokens/SuperToken.sol\":13386:13397  totalSupply */\n      0x03\n      0x00\n        /* \"Solidity/Tokens/SuperToken.sol\":13386:13407  totalSupply += amount */\n      dup3\n      dup3\n      sload\n      tag_428\n      swap2\n      swap1\n      tag_273\n      jump\t// in\n    tag_428:\n      swap3\n      pop\n      pop\n      dup2\n      swap1\n      sstore\n      pop\n        /* \"Solidity/Tokens/SuperToken.sol\":13435:13441  amount */\n      dup1\n        /* \"Solidity/Tokens/SuperToken.sol\":13418:13427  _balances */\n      0x05\n        /* \"Solidity/Tokens/SuperToken.sol\":13418:13431  _balances[to] */\n      0x00\n        /* \"Solidity/Tokens/SuperToken.sol\":13428:13430  to */\n      dup5\n        /* \"Solidity/Tokens/SuperToken.sol\":13418:13431  _balances[to] */\n      0xffffffffffffffffffffffffffffffffffffffff\n      and\n      0xffffffffffffffffffffffffffffffffffffffff\n      and\n      dup2\n      mstore\n      0x20\n      add\n      swap1\n      dup2\n      mstore\n      0x20\n      add\n      0x00\n      keccak256\n      0x00\n        /* \"Solidity/Tokens/SuperToken.sol\":13418:13441  _balances[to] += amount */\n      dup3\n      dup3\n      sload\n      tag_429\n      swap2\n      swap1\n      tag_273\n      jump\t// in\n    tag_429:\n      swap3\n      pop\n      pop\n      dup2\n      swap1\n      sstore\n      pop\n        /* \"Solidity/Tokens/SuperToken.sol\":13478:13480  to */\n      dup2\n        /* \"Solidity/Tokens/SuperToken.sol\":13457:13489  Transfer(address(0), to, amount) */\n      0xffffffffffffffffffffffffffffffffffffffff\n      and\n        /* \"Solidity/Tokens/SuperToken.sol\":13474:13475  0 */\n      0x00\n        /* \"Solidity/Tokens/SuperToken.sol\":13457:13489  Transfer(address(0), to, amount) */\n      0xffffffffffffffffffffffffffffffffffffffff\n      and\n      0xddf252ad1be2c89b69c2b068fc378daa952ba7f163c4a11628f55a4df523b3ef\n        /* \"Solidity/Tokens/SuperToken.sol\":13482:13488  amount */\n      dup4\n        /* \"Solidity/Tokens/SuperToken.sol\":13457:13489  Transfer(address(0), to, amount) */\n      mload(0x40)\n      tag_430\n      swap2\n      swap1\n      tag_71\n      jump\t// in\n    tag_430:\n      mload(0x40)\n      dup1\n      swap2\n      sub\n      swap1\n      log3\n        /* \"Solidity/Tokens/SuperToken.sol\":13249:13497  function _mint(address to, uint256 amount) internal {... */\n      pop\n      pop\n      jump\t// out\n        /* \"#utility.yul\":88:205   */\n    tag_432:\n        /* \"#utility.yul\":197:198   */\n      0x00\n        /* \"#utility.yul\":194:195   */\n      0x00\n        /* \"#utility.yul\":187:199   */\n      revert\n        /* \"#utility.yul\":334:460   */\n    tag_434:\n        /* \"#utility.yul\":371:378   */\n      0x00\n        /* \"#utility.yul\":411:453   */\n      0xffffffffffffffffffffffffffffffffffffffff\n        /* \"#utility.yul\":404:409   */\n      dup3\n        /* \"#utility.yul\":400:454   */\n      and\n        /* \"#utility.yul\":389:454   */\n      swap1\n      pop\n        /* \"#utility.yul\":334:460   */\n      swap2\n      swap1\n      pop\n      jump\t// out\n        /* \"#utility.yul\":466:562   */\n    tag_435:\n        /* \"#utility.yul\":503:510   */\n      0x00\n        /* \"#utility.yul\":532:556   */\n      tag_475\n        /* \"#utility.yul\":550:555   */\n      dup3\n        /* \"#utility.yul\":532:556   */\n      tag_434\n      jump\t// in\n    tag_475:\n        /* \"#utility.yul\":521:556   */\n      swap1\n      pop\n        /* \"#utility.yul\":466:562   */\n      swap2\n      swap1\n      pop\n      jump\t// out\n        /* \"#utility.yul\":568:690   */\n    tag_436:\n        /* \"#utility.yul\":641:665   */\n      tag_477\n        /* \"#utility.yul\":659:664   */\n      dup2\n        /* \"#utility.yul\":641:665   */\n      tag_435\n      jump\t// in\n    tag_477:\n        /* \"#utility.yul\":634:639   */\n      dup2\n        /* \"#utility.yul\":631:666   */\n      eq\n        /* \"#utility.yul\":621:684   */\n      tag_478\n      jumpi\n        /* \"#utility.yul\":680:681   */\n      0x00\n        /* \"#utility.yul\":677:678   */\n      0x00\n        /* \"#utility.yul\":670:682   */\n      revert\n        /* \"#utility.yul\":621:684   */\n    tag_478:\n        /* \"#utility.yul\":568:690   */\n      pop\n      jump\t// out\n        /* \"#utility.yul\":696:835   */\n    tag_437:\n        /* \"#utility.yul\":742:747   */\n      0x00\n        /* \"#utility.yul\":780:786   */\n      dup2\n        /* \"#utility.yul\":767:787   */\n      calldataload\n        /* \"#utility.yul\":758:787   */\n      swap1\n      pop\n        /* \"#utility.yul\":796:829   */\n      tag_480\n        /* \"#utility.yul\":823:828   */\n      dup2\n        /* \"#utility.yul\":796:829   */\n      tag_436\n      jump\t// in\n    tag_480:\n        /* \"#utility.yul\":696:835   */\n      swap3\n      swap2\n      pop\n      pop\n      jump\t// out\n        /* \"#utility.yul\":841:1170   */\n    tag_55:\n        /* \"#utility.yul\":900:906   */\n      0x00\n        /* \"#utility.yul\":949:951   */\n      0x20\n        /* \"#utility.yul\":937:946   */\n      dup3\n        /* \"#utility.yul\":928:935   */\n      dup5\n        /* \"#utility.yul\":924:947   */\n      sub\n        /* \"#utility.yul\":920:952   */\n      slt\n        /* \"#utility.yul\":917:1036   */\n      iszero\n      tag_482\n      jumpi\n        /* \"#utility.yul\":955:1034   */\n      tag_483\n      tag_432\n      jump\t// in\n    tag_483:\n        /* \"#utility.yul\":917:1036   */\n    tag_482:\n        /* \"#utility.yul\":1075:1076   */\n      0x00\n        /* \"#utility.yul\":1100:1153   */\n      tag_484\n        /* \"#utility.yul\":1145:1152   */\n      dup5\n        /* \"#utility.yul\":1136:1142   */\n      dup3\n        /* \"#utility.yul\":1125:1134   */\n      dup6\n        /* \"#utility.yul\":1121:1143   */\n      add\n        /* \"#utility.yul\":1100:1153   */\n      tag_437\n      jump\t// in\n    tag_484:\n        /* \"#utility.yul\":1090:1153   */\n      swap2\n      pop\n        /* \"#utility.yul\":1046:1163   */\n      pop\n        /* \"#utility.yul\":841:1170   */\n      swap3\n      swap2\n      pop\n      pop\n      jump\t// out\n        /* \"#utility.yul\":1176:1266   */\n    tag_438:\n        /* \"#utility.yul\":1210:1217   */\n      0x00\n        /* \"#utility.yul\":1253:1258   */\n      dup2\n        /* \"#utility.yul\":1246:1259   */\n      iszero\n        /* \"#utility.yul\":1239:1260   */\n      iszero\n        /* \"#utility.yul\":1228:1260   */\n      swap1\n      pop\n        /* \"#utility.yul\":1176:1266   */\n      swap2\n      swap1\n      pop\n      jump\t// out\n        /* \"#utility.yul\":1272:1381   */\n    tag_439:\n        /* \"#utility.yul\":1353:1374   */\n      tag_487\n        /* \"#utility.yul\":1368:1373   */\n      dup2\n        /* \"#utility.yul\":1353:1374   */\n      tag_438\n      jump\t// in\n    tag_487:\n        /* \"#utility.yul\":1348:1351   */\n      dup3\n        /* \"#utility.yul\":1341:1375   */\n      mstore\n        /* \"#utility.yul\":1272:1381   */\n      pop\n      pop\n      jump\t// out\n        /* \"#utility.yul\":1387:1597   */\n    tag_58:\n        /* \"#utility.yul\":1474:1478   */\n      0x00\n        /* \"#utility.yul\":1512:1514   */\n      0x20\n        /* \"#utility.yul\":1501:1510   */\n      dup3\n        /* \"#utility.yul\":1497:1515   */\n      add\n        /* \"#utility.yul\":1489:1515   */\n      swap1\n      pop\n        /* \"#utility.yul\":1525:1590   */\n      tag_489\n        /* \"#utility.yul\":1587:1588   */\n      0x00\n        /* \"#utility.yul\":1576:1585   */\n      dup4\n        /* \"#utility.yul\":1572:1589   */\n      add\n        /* \"#utility.yul\":1563:1569   */\n      dup5\n        /* \"#utility.yul\":1525:1590   */\n      tag_439\n      jump\t// in\n    tag_489:\n        /* \"#utility.yul\":1387:1597   */\n      swap3\n      swap2\n      pop\n      pop\n      jump\t// out\n        /* \"#utility.yul\":1603:1702   */\n    tag_440:\n        /* \"#utility.yul\":1655:1661   */\n      0x00\n        /* \"#utility.yul\":1689:1694   */\n      dup2\n        /* \"#utility.yul\":1683:1695   */\n      mload\n        /* \"#utility.yul\":1673:1695   */\n      swap1\n      pop\n        /* \"#utility.yul\":1603:1702   */\n      swap2\n      swap1\n      pop\n      jump\t// out\n        /* \"#utility.yul\":1708:1877   */\n    tag_441:\n        /* \"#utility.yul\":1792:1803   */\n      0x00\n        /* \"#utility.yul\":1826:1832   */\n      dup3\n        /* \"#utility.yul\":1821:1824   */\n      dup3\n        /* \"#utility.yul\":1814:1833   */\n      mstore\n        /* \"#utility.yul\":1866:1870   */\n      0x20\n        /* \"#utility.yul\":1861:1864   */\n      dup3\n        /* \"#utility.yul\":1857:1871   */\n      add\n        /* \"#utility.yul\":1842:1871   */\n      swap1\n      pop\n        /* \"#utility.yul\":1708:1877   */\n      swap3\n      swap2\n      pop\n      pop\n      jump\t// out\n        /* \"#utility.yul\":1883:2022   */\n    tag_442:\n        /* \"#utility.yul\":1972:1978   */\n      dup3\n        /* \"#utility.yul\":1967:1970   */\n      dup2\n        /* \"#utility.yul\":1962:1965   */\n      dup4\n        /* \"#utility.yul\":1956:1979   */\n      mcopy\n        /* \"#utility.yul\":2013:2014   */\n      0x00\n        /* \"#utility.yul\":2004:2010   */\n      dup4\n        /* \"#utility.yul\":1999:2002   */\n      dup4\n        /* \"#utility.yul\":1995:2011   */\n      add\n        /* \"#utility.yul\":1988:2015   */\n      mstore\n        /* \"#utility.yul\":1883:2022   */\n      pop\n      pop\n      pop\n      jump\t// out\n        /* \"#utility.yul\":2028:2130   */\n    tag_443:\n        /* \"#utility.yul\":2069:2075   */\n      0x00\n        /* \"#utility.yul\":2120:2122   */\n      0x1f\n        /* \"#utility.yul\":2116:2123   */\n      not\n        /* \"#utility.yul\":2111:2113   */\n      0x1f\n        /* \"#utility.yul\":2104:2109   */\n      dup4\n        /* \"#utility.yul\":2100:2114   */\n      add\n        /* \"#utility.yul\":2096:2124   */\n      and\n        /* \"#utility.yul\":2086:2124   */\n      swap1\n      pop\n        /* \"#utility.yul\":2028:2130   */\n      swap2\n      swap1\n      pop\n      jump\t// out\n        /* \"#utility.yul\":2136:2513   */\n    tag_444:\n        /* \"#utility.yul\":2224:2227   */\n      0x00\n        /* \"#utility.yul\":2252:2291   */\n      tag_495\n        /* \"#utility.yul\":2285:2290   */\n      dup3\n        /* \"#utility.yul\":2252:2291   */\n      tag_440\n      jump\t// in\n    tag_495:\n        /* \"#utility.yul\":2307:2378   */\n      tag_496\n        /* \"#utility.yul\":2371:2377   */\n      dup2\n        /* \"#utility.yul\":2366:2369   */\n      dup6\n        /* \"#utility.yul\":2307:2378   */\n      tag_441\n      jump\t// in\n    tag_496:\n        /* \"#utility.yul\":2300:2378   */\n      swap4\n      pop\n        /* \"#utility.yul\":2387:2452   */\n      tag_497\n        /* \"#utility.yul\":2445:2451   */\n      dup2\n        /* \"#utility.yul\":2440:2443   */\n      dup6\n        /* \"#utility.yul\":2433:2437   */\n      0x20\n        /* \"#utility.yul\":2426:2431   */\n      dup7\n        /* \"#utility.yul\":2422:2438   */\n      add\n        /* \"#utility.yul\":2387:2452   */\n      tag_442\n      jump\t// in\n    tag_497:\n        /* \"#utility.yul\":2477:2506   */\n      tag_498\n        /* \"#utility.yul\":2499:2505   */\n      dup2\n        /* \"#utility.yul\":2477:2506   */\n      tag_443\n      jump\t// in\n    tag_498:\n        /* \"#utility.yul\":2472:2475   */\n      dup5\n        /* \"#utility.yul\":2468:2507   */\n      add\n        /* \"#utility.yul\":2461:2507   */\n      swap2\n      pop\n        /* \"#utility.yul\":2228:2513   */\n      pop\n        /* \"#utility.yul\":2136:2513   */\n      swap3\n      swap2\n      pop\n      pop\n      jump\t// out\n        /* \"#utility.yul\":2519:2832   */\n    tag_62:\n        /* \"#utility.yul\":2632:2636   */\n      0x00\n        /* \"#utility.yul\":2670:2672   */\n      0x20\n        /* \"#utility.yul\":2659:2668   */\n      dup3\n        /* \"#utility.yul\":2655:2673   */\n      add\n        /* \"#utility.yul\":2647:2673   */\n      swap1\n      pop\n        /* \"#utility.yul\":2719:2728   */\n      dup2\n        /* \"#utility.yul\":2713:2717   */\n      dup2\n        /* \"#utility.yul\":2709:2729   */\n      sub\n        /* \"#utility.yul\":2705:2706   */\n      0x00\n        /* \"#utility.yul\":2694:2703   */\n      dup4\n        /* \"#utility.yul\":2690:2707   */\n      add\n        /* \"#utility.yul\":2683:2730   */\n      mstore\n        /* \"#utility.yul\":2747:2825   */\n      tag_500\n        /* \"#utility.yul\":2820:2824   */\n      dup2\n        /* \"#utility.yul\":2811:2817   */\n      dup5\n        /* \"#utility.yul\":2747:2825   */\n      tag_444\n      jump\t// in\n    tag_500:\n        /* \"#utility.yul\":2739:2825   */\n      swap1\n      pop\n        /* \"#utility.yul\":2519:2832   */\n      swap3\n      swap2\n      pop\n      pop\n      jump\t// out\n        /* \"#utility.yul\":2838:2915   */\n    tag_445:\n        /* \"#utility.yul\":2875:2882   */\n      0x00\n        /* \"#utility.yul\":2904:2909   */\n      dup2\n        /* \"#utility.yul\":2893:2909   */\n      swap1\n      pop\n        /* \"#utility.yul\":2838:2915   */\n      swap2\n      swap1\n      pop\n      jump\t// out\n        /* \"#utility.yul\":2921:3043   */\n    tag_446:\n        /* \"#utility.yul\":2994:3018   */\n      tag_503\n        /* \"#utility.yul\":3012:3017   */\n      dup2\n        /* \"#utility.yul\":2994:3018   */\n      tag_445\n      jump\t// in\n    tag_503:\n        /* \"#utility.yul\":2987:2992   */\n      dup2\n        /* \"#utility.yul\":2984:3019   */\n      eq\n        /* \"#utility.yul\":2974:3037   */\n      tag_504\n      jumpi\n        /* \"#utility.yul\":3033:3034   */\n      0x00\n        /* \"#utility.yul\":3030:3031   */\n      0x00\n        /* \"#utility.yul\":3023:3035   */\n      revert\n        /* \"#utility.yul\":2974:3037   */\n    tag_504:\n        /* \"#utility.yul\":2921:3043   */\n      pop\n      jump\t// out\n        /* \"#utility.yul\":3049:3188   */\n    tag_447:\n        /* \"#utility.yul\":3095:3100   */\n      0x00\n        /* \"#utility.yul\":3133:3139   */\n      dup2\n        /* \"#utility.yul\":3120:3140   */\n      calldataload\n        /* \"#utility.yul\":3111:3140   */\n      swap1\n      pop\n        /* \"#utility.yul\":3149:3182   */\n      tag_506\n        /* \"#utility.yul\":3176:3181   */\n      dup2\n        /* \"#utility.yul\":3149:3182   */\n      tag_446\n      jump\t// in\n    tag_506:\n        /* \"#utility.yul\":3049:3188   */\n      swap3\n      swap2\n      pop\n      pop\n      jump\t// out\n        /* \"#utility.yul\":3194:3668   */\n    tag_65:\n        /* \"#utility.yul\":3262:3268   */\n      0x00\n        /* \"#utility.yul\":3270:3276   */\n      0x00\n        /* \"#utility.yul\":3319:3321   */\n      0x40\n        /* \"#utility.yul\":3307:3316   */\n      dup4\n        /* \"#utility.yul\":3298:3305   */\n      dup6\n        /* \"#utility.yul\":3294:3317   */\n      sub\n        /* \"#utility.yul\":3290:3322   */\n      slt\n        /* \"#utility.yul\":3287:3406   */\n      iszero\n      tag_508\n      jumpi\n        /* \"#utility.yul\":3325:3404   */\n      tag_509\n      tag_432\n      jump\t// in\n    tag_509:\n        /* \"#utility.yul\":3287:3406   */\n    tag_508:\n        /* \"#utility.yul\":3445:3446   */\n      0x00\n        /* \"#utility.yul\":3470:3523   */\n      tag_510\n        /* \"#utility.yul\":3515:3522   */\n      dup6\n        /* \"#utility.yul\":3506:3512   */\n      dup3\n        /* \"#utility.yul\":3495:3504   */\n      dup7\n        /* \"#utility.yul\":3491:3513   */\n      add\n        /* \"#utility.yul\":3470:3523   */\n      tag_437\n      jump\t// in\n    tag_510:\n        /* \"#utility.yul\":3460:3523   */\n      swap3\n      pop\n        /* \"#utility.yul\":3416:3533   */\n      pop\n        /* \"#utility.yul\":3572:3574   */\n      0x20\n        /* \"#utility.yul\":3598:3651   */\n      tag_511\n        /* \"#utility.yul\":3643:3650   */\n      dup6\n        /* \"#utility.yul\":3634:3640   */\n      dup3\n        /* \"#utility.yul\":3623:3632   */\n      dup7\n        /* \"#utility.yul\":3619:3641   */\n      add\n        /* \"#utility.yul\":3598:3651   */\n      tag_447\n      jump\t// in\n    tag_511:\n        /* \"#utility.yul\":3588:3651   */\n      swap2\n      pop\n        /* \"#utility.yul\":3543:3661   */\n      pop\n        /* \"#utility.yul\":3194:3668   */\n      swap3\n      pop\n      swap3\n      swap1\n      pop\n      jump\t// out\n        /* \"#utility.yul\":3674:3792   */\n    tag_448:\n        /* \"#utility.yul\":3761:3785   */\n      tag_513\n        /* \"#utility.yul\":3779:3784   */\n      dup2\n        /* \"#utility.yul\":3761:3785   */\n      tag_445\n      jump\t// in\n    tag_513:\n        /* \"#utility.yul\":3756:3759   */\n      dup3\n        /* \"#utility.yul\":3749:3786   */\n      mstore\n        /* \"#utility.yul\":3674:3792   */\n      pop\n      pop\n      jump\t// out\n        /* \"#utility.yul\":3798:4020   */\n    tag_71:\n        /* \"#utility.yul\":3891:3895   */\n      0x00\n        /* \"#utility.yul\":3929:3931   */\n      0x20\n        /* \"#utility.yul\":3918:3927   */\n      dup3\n        /* \"#utility.yul\":3914:3932   */\n      add\n        /* \"#utility.yul\":3906:3932   */\n      swap1\n      pop\n        /* \"#utility.yul\":3942:4013   */\n      tag_515\n        /* \"#utility.yul\":4010:4011   */\n      0x00\n        /* \"#utility.yul\":3999:4008   */\n      dup4\n        /* \"#utility.yul\":3995:4012   */\n      add\n        /* \"#utility.yul\":3986:3992   */\n      dup5\n        /* \"#utility.yul\":3942:4013   */\n      tag_448\n      jump\t// in\n    tag_515:\n        /* \"#utility.yul\":3798:4020   */\n      swap3\n      swap2\n      pop\n      pop\n      jump\t// out\n        /* \"#utility.yul\":4026:4144   */\n    tag_449:\n        /* \"#utility.yul\":4113:4137   */\n      tag_517\n        /* \"#utility.yul\":4131:4136   */\n      dup2\n        /* \"#utility.yul\":4113:4137   */\n      tag_435\n      jump\t// in\n    tag_517:\n        /* \"#utility.yul\":4108:4111   */\n      dup3\n        /* \"#utility.yul\":4101:4138   */\n      mstore\n        /* \"#utility.yul\":4026:4144   */\n      pop\n      pop\n      jump\t// out\n        /* \"#utility.yul\":4150:4802   */\n    tag_78:\n        /* \"#utility.yul\":4349:4353   */\n      0x00\n        /* \"#utility.yul\":4387:4390   */\n      0xa0\n        /* \"#utility.yul\":4376:4385   */\n      dup3\n        /* \"#utility.yul\":4372:4391   */\n      add\n        /* \"#utility.yul\":4364:4391   */\n      swap1\n      pop\n        /* \"#utility.yul\":4401:4472   */\n      tag_519\n        /* \"#utility.yul\":4469:4470   */\n      0x00\n        /* \"#utility.yul\":4458:4467   */\n      dup4\n        /* \"#utility.yul\":4454:4471   */\n      add\n        /* \"#utility.yul\":4445:4451   */\n      dup9\n        /* \"#utility.yul\":4401:4472   */\n      tag_448\n      jump\t// in\n    tag_519:\n        /* \"#utility.yul\":4482:4554   */\n      tag_520\n        /* \"#utility.yul\":4550:4552   */\n      0x20\n        /* \"#utility.yul\":4539:4548   */\n      dup4\n        /* \"#utility.yul\":4535:4553   */\n      add\n        /* \"#utility.yul\":4526:4532   */\n      dup8\n        /* \"#utility.yul\":4482:4554   */\n      tag_448\n      jump\t// in\n    tag_520:\n        /* \"#utility.yul\":4564:4636   */\n      tag_521\n        /* \"#utility.yul\":4632:4634   */\n      0x40\n        /* \"#utility.yul\":4621:4630   */\n      dup4\n        /* \"#utility.yul\":4617:4635   */\n      add\n        /* \"#utility.yul\":4608:4614   */\n      dup7\n        /* \"#utility.yul\":4564:4636   */\n      tag_448\n      jump\t// in\n    tag_521:\n        /* \"#utility.yul\":4646:4718   */\n      tag_522\n        /* \"#utility.yul\":4714:4716   */\n      0x60\n        /* \"#utility.yul\":4703:4712   */\n      dup4\n        /* \"#utility.yul\":4699:4717   */\n      add\n        /* \"#utility.yul\":4690:4696   */\n      dup6\n        /* \"#utility.yul\":4646:4718   */\n      tag_449\n      jump\t// in\n    tag_522:\n        /* \"#utility.yul\":4728:4795   */\n      tag_523\n        /* \"#utility.yul\":4790:4793   */\n      0x80\n        /* \"#utility.yul\":4779:4788   */\n      dup4\n        /* \"#utility.yul\":4775:4794   */\n      add\n        /* \"#utility.yul\":4766:4772   */\n      dup5\n        /* \"#utility.yul\":4728:4795   */\n      tag_439\n      jump\t// in\n    tag_523:\n        /* \"#utility.yul\":4150:4802   */\n      swap7\n      swap6\n      pop\n      pop\n      pop\n      pop\n      pop\n      pop\n      jump\t// out\n        /* \"#utility.yul\":4808:5427   */\n    tag_81:\n        /* \"#utility.yul\":4885:4891   */\n      0x00\n        /* \"#utility.yul\":4893:4899   */\n      0x00\n        /* \"#utility.yul\":4901:4907   */\n      0x00\n        /* \"#utility.yul\":4950:4952   */\n      0x60\n        /* \"#utility.yul\":4938:4947   */\n      dup5\n        /* \"#utility.yul\":4929:4936   */\n      dup7\n        /* \"#utility.yul\":4925:4948   */\n      sub\n        /* \"#utility.yul\":4921:4953   */\n      slt\n        /* \"#utility.yul\":4918:5037   */\n      iszero\n      tag_525\n      jumpi\n        /* \"#utility.yul\":4956:5035   */\n      tag_526\n      tag_432\n      jump\t// in\n    tag_526:\n        /* \"#utility.yul\":4918:5037   */\n    tag_525:\n        /* \"#utility.yul\":5076:5077   */\n      0x00\n        /* \"#utility.yul\":5101:5154   */\n      tag_527\n        /* \"#utility.yul\":5146:5153   */\n      dup7\n        /* \"#utility.yul\":5137:5143   */\n      dup3\n        /* \"#utility.yul\":5126:5135   */\n      dup8\n        /* \"#utility.yul\":5122:5144   */\n      add\n        /* \"#utility.yul\":5101:5154   */\n      tag_437\n      jump\t// in\n    tag_527:\n        /* \"#utility.yul\":5091:5154   */\n      swap4\n      pop\n        /* \"#utility.yul\":5047:5164   */\n      pop\n        /* \"#utility.yul\":5203:5205   */\n      0x20\n        /* \"#utility.yul\":5229:5282   */\n      tag_528\n        /* \"#utility.yul\":5274:5281   */\n      dup7\n        /* \"#utility.yul\":5265:5271   */\n      dup3\n        /* \"#utility.yul\":5254:5263   */\n      dup8\n        /* \"#utility.yul\":5250:5272   */\n      add\n        /* \"#utility.yul\":5229:5282   */\n      tag_437\n      jump\t// in\n    tag_528:\n        /* \"#utility.yul\":5219:5282   */\n      swap3\n      pop\n        /* \"#utility.yul\":5174:5292   */\n      pop\n        /* \"#utility.yul\":5331:5333   */\n      0x40\n        /* \"#utility.yul\":5357:5410   */\n      tag_529\n        /* \"#utility.yul\":5402:5409   */\n      dup7\n        /* \"#utility.yul\":5393:5399   */\n      dup3\n        /* \"#utility.yul\":5382:5391   */\n      dup8\n        /* \"#utility.yul\":5378:5400   */\n      add\n        /* \"#utility.yul\":5357:5410   */\n      tag_447\n      jump\t// in\n    tag_529:\n        /* \"#utility.yul\":5347:5410   */\n      swap2\n      pop\n        /* \"#utility.yul\":5302:5420   */\n      pop\n        /* \"#utility.yul\":4808:5427   */\n      swap3\n      pop\n      swap3\n      pop\n      swap3\n      jump\t// out\n        /* \"#utility.yul\":5433:5762   */\n    tag_86:\n        /* \"#utility.yul\":5492:5498   */\n      0x00\n        /* \"#utility.yul\":5541:5543   */\n      0x20\n        /* \"#utility.yul\":5529:5538   */\n      dup3\n        /* \"#utility.yul\":5520:5527   */\n      dup5\n        /* \"#utility.yul\":5516:5539   */\n      sub\n        /* \"#utility.yul\":5512:5544   */\n      slt\n        /* \"#utility.yul\":5509:5628   */\n      iszero\n      tag_531\n      jumpi\n        /* \"#utility.yul\":5547:5626   */\n      tag_532\n      tag_432\n      jump\t// in\n    tag_532:\n        /* \"#utility.yul\":5509:5628   */\n    tag_531:\n        /* \"#utility.yul\":5667:5668   */\n      0x00\n        /* \"#utility.yul\":5692:5745   */\n      tag_533\n        /* \"#utility.yul\":5737:5744   */\n      dup5\n        /* \"#utility.yul\":5728:5734   */\n      dup3\n        /* \"#utility.yul\":5717:5726   */\n      dup6\n        /* \"#utility.yul\":5713:5735   */\n      add\n        /* \"#utility.yul\":5692:5745   */\n      tag_447\n      jump\t// in\n    tag_533:\n        /* \"#utility.yul\":5682:5745   */\n      swap2\n      pop\n        /* \"#utility.yul\":5638:5755   */\n      pop\n        /* \"#utility.yul\":5433:5762   */\n      swap3\n      swap2\n      pop\n      pop\n      jump\t// out\n        /* \"#utility.yul\":5768:5854   */\n    tag_450:\n        /* \"#utility.yul\":5803:5810   */\n      0x00\n        /* \"#utility.yul\":5843:5847   */\n      0xff\n        /* \"#utility.yul\":5836:5841   */\n      dup3\n        /* \"#utility.yul\":5832:5848   */\n      and\n        /* \"#utility.yul\":5821:5848   */\n      swap1\n      pop\n        /* \"#utility.yul\":5768:5854   */\n      swap2\n      swap1\n      pop\n      jump\t// out\n        /* \"#utility.yul\":5860:5972   */\n    tag_451:\n        /* \"#utility.yul\":5943:5965   */\n      tag_536\n        /* \"#utility.yul\":5959:5964   */\n      dup2\n        /* \"#utility.yul\":5943:5965   */\n      tag_450\n      jump\t// in\n    tag_536:\n        /* \"#utility.yul\":5938:5941   */\n      dup3\n        /* \"#utility.yul\":5931:5966   */\n      mstore\n        /* \"#utility.yul\":5860:5972   */\n      pop\n      pop\n      jump\t// out\n        /* \"#utility.yul\":5978:6192   */\n    tag_91:\n        /* \"#utility.yul\":6067:6071   */\n      0x00\n        /* \"#utility.yul\":6105:6107   */\n      0x20\n        /* \"#utility.yul\":6094:6103   */\n      dup3\n        /* \"#utility.yul\":6090:6108   */\n      add\n        /* \"#utility.yul\":6082:6108   */\n      swap1\n      pop\n        /* \"#utility.yul\":6118:6185   */\n      tag_538\n        /* \"#utility.yul\":6182:6183   */\n      0x00\n        /* \"#utility.yul\":6171:6180   */\n      dup4\n        /* \"#utility.yul\":6167:6184   */\n      add\n        /* \"#utility.yul\":6158:6164   */\n      dup5\n        /* \"#utility.yul\":6118:6185   */\n      tag_451\n      jump\t// in\n    tag_538:\n        /* \"#utility.yul\":5978:6192   */\n      swap3\n      swap2\n      pop\n      pop\n      jump\t// out\n        /* \"#utility.yul\":6198:6963   */\n    tag_94:\n        /* \"#utility.yul\":6284:6290   */\n      0x00\n        /* \"#utility.yul\":6292:6298   */\n      0x00\n        /* \"#utility.yul\":6300:6306   */\n      0x00\n        /* \"#utility.yul\":6308:6314   */\n      0x00\n        /* \"#utility.yul\":6357:6360   */\n      0x80\n        /* \"#utility.yul\":6345:6354   */\n      dup6\n        /* \"#utility.yul\":6336:6343   */\n      dup8\n        /* \"#utility.yul\":6332:6355   */\n      sub\n        /* \"#utility.yul\":6328:6361   */\n      slt\n        /* \"#utility.yul\":6325:6445   */\n      iszero\n      tag_540\n      jumpi\n        /* \"#utility.yul\":6364:6443   */\n      tag_541\n      tag_432\n      jump\t// in\n    tag_541:\n        /* \"#utility.yul\":6325:6445   */\n    tag_540:\n        /* \"#utility.yul\":6484:6485   */\n      0x00\n        /* \"#utility.yul\":6509:6562   */\n      tag_542\n        /* \"#utility.yul\":6554:6561   */\n      dup8\n        /* \"#utility.yul\":6545:6551   */\n      dup3\n        /* \"#utility.yul\":6534:6543   */\n      dup9\n        /* \"#utility.yul\":6530:6552   */\n      add\n        /* \"#utility.yul\":6509:6562   */\n      tag_437\n      jump\t// in\n    tag_542:\n        /* \"#utility.yul\":6499:6562   */\n      swap5\n      pop\n        /* \"#utility.yul\":6455:6572   */\n      pop\n        /* \"#utility.yul\":6611:6613   */\n      0x20\n        /* \"#utility.yul\":6637:6690   */\n      tag_543\n        /* \"#utility.yul\":6682:6689   */\n      dup8\n        /* \"#utility.yul\":6673:6679   */\n      dup3\n        /* \"#utility.yul\":6662:6671   */\n      dup9\n        /* \"#utility.yul\":6658:6680   */\n      add\n        /* \"#utility.yul\":6637:6690   */\n      tag_447\n      jump\t// in\n    tag_543:\n        /* \"#utility.yul\":6627:6690   */\n      swap4\n      pop\n        /* \"#utility.yul\":6582:6700   */\n      pop\n        /* \"#utility.yul\":6739:6741   */\n      0x40\n        /* \"#utility.yul\":6765:6818   */\n      tag_544\n        /* \"#utility.yul\":6810:6817   */\n      dup8\n        /* \"#utility.yul\":6801:6807   */\n      dup3\n        /* \"#utility.yul\":6790:6799   */\n      dup9\n        /* \"#utility.yul\":6786:6808   */\n      add\n        /* \"#utility.yul\":6765:6818   */\n      tag_447\n      jump\t// in\n    tag_544:\n        /* \"#utility.yul\":6755:6818   */\n      swap3\n      pop\n        /* \"#utility.yul\":6710:6828   */\n      pop\n        /* \"#utility.yul\":6867:6869   */\n      0x60\n        /* \"#utility.yul\":6893:6946   */\n      tag_545\n        /* \"#utility.yul\":6938:6945   */\n      dup8\n        /* \"#utility.yul\":6929:6935   */\n      dup3\n        /* \"#utility.yul\":6918:6927   */\n      dup9\n        /* \"#utility.yul\":6914:6936   */\n      add\n        /* \"#utility.yul\":6893:6946   */\n      tag_447\n      jump\t// in\n    tag_545:\n        /* \"#utility.yul\":6883:6946   */\n      swap2\n      pop\n        /* \"#utility.yul\":6838:6956   */\n      pop\n        /* \"#utility.yul\":6198:6963   */\n      swap3\n      swap6\n      swap2\n      swap5\n      pop\n      swap3\n      pop\n      jump\t// out\n        /* \"#utility.yul\":6969:7732   */\n    tag_104:\n        /* \"#utility.yul\":7196:7200   */\n      0x00\n        /* \"#utility.yul\":7234:7237   */\n      0xc0\n        /* \"#utility.yul\":7223:7232   */\n      dup3\n        /* \"#utility.yul\":7219:7238   */\n      add\n        /* \"#utility.yul\":7211:7238   */\n      swap1\n      pop\n        /* \"#utility.yul\":7248:7319   */\n      tag_547\n        /* \"#utility.yul\":7316:7317   */\n      0x00\n        /* \"#utility.yul\":7305:7314   */\n      dup4\n        /* \"#utility.yul\":7301:7318   */\n      add\n        /* \"#utility.yul\":7292:7298   */\n      dup10\n        /* \"#utility.yul\":7248:7319   */\n      tag_448\n      jump\t// in\n    tag_547:\n        /* \"#utility.yul\":7329:7401   */\n      tag_548\n        /* \"#utility.yul\":7397:7399   */\n      0x20\n        /* \"#utility.yul\":7386:7395   */\n      dup4\n        /* \"#utility.yul\":7382:7400   */\n      add\n        /* \"#utility.yul\":7373:7379   */\n      dup9\n        /* \"#utility.yul\":7329:7401   */\n      tag_448\n      jump\t// in\n    tag_548:\n        /* \"#utility.yul\":7411:7483   */\n      tag_549\n        /* \"#utility.yul\":7479:7481   */\n      0x40\n        /* \"#utility.yul\":7468:7477   */\n      dup4\n        /* \"#utility.yul\":7464:7482   */\n      add\n        /* \"#utility.yul\":7455:7461   */\n      dup8\n        /* \"#utility.yul\":7411:7483   */\n      tag_448\n      jump\t// in\n    tag_549:\n        /* \"#utility.yul\":7493:7565   */\n      tag_550\n        /* \"#utility.yul\":7561:7563   */\n      0x60\n        /* \"#utility.yul\":7550:7559   */\n      dup4\n        /* \"#utility.yul\":7546:7564   */\n      add\n        /* \"#utility.yul\":7537:7543   */\n      dup7\n        /* \"#utility.yul\":7493:7565   */\n      tag_448\n      jump\t// in\n    tag_550:\n        /* \"#utility.yul\":7575:7648   */\n      tag_551\n        /* \"#utility.yul\":7643:7646   */\n      0x80\n        /* \"#utility.yul\":7632:7641   */\n      dup4\n        /* \"#utility.yul\":7628:7647   */\n      add\n        /* \"#utility.yul\":7619:7625   */\n      dup6\n        /* \"#utility.yul\":7575:7648   */\n      tag_448\n      jump\t// in\n    tag_551:\n        /* \"#utility.yul\":7658:7725   */\n      tag_552\n        /* \"#utility.yul\":7720:7723   */\n      0xa0\n        /* \"#utility.yul\":7709:7718   */\n      dup4\n        /* \"#utility.yul\":7705:7724   */\n      add\n        /* \"#utility.yul\":7696:7702   */\n      dup5\n        /* \"#utility.yul\":7658:7725   */\n      tag_439\n      jump\t// in\n    tag_552:\n        /* \"#utility.yul\":6969:7732   */\n      swap8\n      swap7\n      pop\n      pop\n      pop\n      pop\n      pop\n      pop\n      pop\n      jump\t// out\n        /* \"#utility.yul\":7738:7960   */\n    tag_122:\n        /* \"#utility.yul\":7831:7835   */\n      0x00\n        /* \"#utility.yul\":7869:7871   */\n      0x20\n        /* \"#utility.yul\":7858:7867   */\n      dup3\n        /* \"#utility.yul\":7854:7872   */\n      add\n        /* \"#utility.yul\":7846:7872   */\n      swap1\n      pop\n        /* \"#utility.yul\":7882:7953   */\n      tag_554\n        /* \"#utility.yul\":7950:7951   */\n      0x00\n        /* \"#utility.yul\":7939:7948   */\n      dup4\n        /* \"#utility.yul\":7935:7952   */\n      add\n        /* \"#utility.yul\":7926:7932   */\n      dup5\n        /* \"#utility.yul\":7882:7953   */\n      tag_449\n      jump\t// in\n    tag_554:\n        /* \"#utility.yul\":7738:7960   */\n      swap3\n      swap2\n      pop\n      pop\n      jump\t// out\n        /* \"#utility.yul\":7966:8440   */\n    tag_135:\n        /* \"#utility.yul\":8034:8040   */\n      0x00\n        /* \"#utility.yul\":8042:8048   */\n      0x00\n        /* \"#utility.yul\":8091:8093   */\n      0x40\n        /* \"#utility.yul\":8079:8088   */\n      dup4\n        /* \"#utility.yul\":8070:8077   */\n      dup6\n        /* \"#utility.yul\":8066:8089   */\n      sub\n        /* \"#utility.yul\":8062:8094   */\n      slt\n        /* \"#utility.yul\":8059:8178   */\n      iszero\n      tag_556\n      jumpi\n        /* \"#utility.yul\":8097:8176   */\n      tag_557\n      tag_432\n      jump\t// in\n    tag_557:\n        /* \"#utility.yul\":8059:8178   */\n    tag_556:\n        /* \"#utility.yul\":8217:8218   */\n      0x00\n        /* \"#utility.yul\":8242:8295   */\n      tag_558\n        /* \"#utility.yul\":8287:8294   */\n      dup6\n        /* \"#utility.yul\":8278:8284   */\n      dup3\n        /* \"#utility.yul\":8267:8276   */\n      dup7\n        /* \"#utility.yul\":8263:8285   */\n      add\n        /* \"#utility.yul\":8242:8295   */\n      tag_447\n      jump\t// in\n    tag_558:\n        /* \"#utility.yul\":8232:8295   */\n      swap3\n      pop\n        /* \"#utility.yul\":8188:8305   */\n      pop\n        /* \"#utility.yul\":8344:8346   */\n      0x20\n        /* \"#utility.yul\":8370:8423   */\n      tag_559\n        /* \"#utility.yul\":8415:8422   */\n      dup6\n        /* \"#utility.yul\":8406:8412   */\n      dup3\n        /* \"#utility.yul\":8395:8404   */\n      dup7\n        /* \"#utility.yul\":8391:8413   */\n      add\n        /* \"#utility.yul\":8370:8423   */\n      tag_447\n      jump\t// in\n    tag_559:\n        /* \"#utility.yul\":8360:8423   */\n      swap2\n      pop\n        /* \"#utility.yul\":8315:8433   */\n      pop\n        /* \"#utility.yul\":7966:8440   */\n      swap3\n      pop\n      swap3\n      swap1\n      pop\n      jump\t// out\n        /* \"#utility.yul\":8446:8920   */\n    tag_195:\n        /* \"#utility.yul\":8514:8520   */\n      0x00\n        /* \"#utility.yul\":8522:8528   */\n      0x00\n        /* \"#utility.yul\":8571:8573   */\n      0x40\n        /* \"#utility.yul\":8559:8568   */\n      dup4\n        /* \"#utility.yul\":8550:8557   */\n      dup6\n        /* \"#utility.yul\":8546:8569   */\n      sub\n        /* \"#utility.yul\":8542:8574   */\n      slt\n        /* \"#utility.yul\":8539:8658   */\n      iszero\n      tag_561\n      jumpi\n        /* \"#utility.yul\":8577:8656   */\n      tag_562\n      tag_432\n      jump\t// in\n    tag_562:\n        /* \"#utility.yul\":8539:8658   */\n    tag_561:\n        /* \"#utility.yul\":8697:8698   */\n      0x00\n        /* \"#utility.yul\":8722:8775   */\n      tag_563\n        /* \"#utility.yul\":8767:8774   */\n      dup6\n        /* \"#utility.yul\":8758:8764   */\n      dup3\n        /* \"#utility.yul\":8747:8756   */\n      dup7\n        /* \"#utility.yul\":8743:8765   */\n      add\n        /* \"#utility.yul\":8722:8775   */\n      tag_437\n      jump\t// in\n    tag_563:\n        /* \"#utility.yul\":8712:8775   */\n      swap3\n      pop\n        /* \"#utility.yul\":8668:8785   */\n      pop\n        /* \"#utility.yul\":8824:8826   */\n      0x20\n        /* \"#utility.yul\":8850:8903   */\n      tag_564\n        /* \"#utility.yul\":8895:8902   */\n      dup6\n        /* \"#utility.yul\":8886:8892   */\n      dup3\n        /* \"#utility.yul\":8875:8884   */\n      dup7\n        /* \"#utility.yul\":8871:8893   */\n      add\n        /* \"#utility.yul\":8850:8903   */\n      tag_437\n      jump\t// in\n    tag_564:\n        /* \"#utility.yul\":8840:8903   */\n      swap2\n      pop\n        /* \"#utility.yul\":8795:8913   */\n      pop\n        /* \"#utility.yul\":8446:8920   */\n      swap3\n      pop\n      swap3\n      swap1\n      pop\n      jump\t// out\n        /* \"#utility.yul\":8926:9545   */\n    tag_203:\n        /* \"#utility.yul\":9003:9009   */\n      0x00\n        /* \"#utility.yul\":9011:9017   */\n      0x00\n        /* \"#utility.yul\":9019:9025   */\n      0x00\n        /* \"#utility.yul\":9068:9070   */\n      0x60\n        /* \"#utility.yul\":9056:9065   */\n      dup5\n        /* \"#utility.yul\":9047:9054   */\n      dup7\n        /* \"#utility.yul\":9043:9066   */\n      sub\n        /* \"#utility.yul\":9039:9071   */\n      slt\n        /* \"#utility.yul\":9036:9155   */\n      iszero\n      tag_566\n      jumpi\n        /* \"#utility.yul\":9074:9153   */\n      tag_567\n      tag_432\n      jump\t// in\n    tag_567:\n        /* \"#utility.yul\":9036:9155   */\n    tag_566:\n        /* \"#utility.yul\":9194:9195   */\n      0x00\n        /* \"#utility.yul\":9219:9272   */\n      tag_568\n        /* \"#utility.yul\":9264:9271   */\n      dup7\n        /* \"#utility.yul\":9255:9261   */\n      dup3\n        /* \"#utility.yul\":9244:9253   */\n      dup8\n        /* \"#utility.yul\":9240:9262   */\n      add\n        /* \"#utility.yul\":9219:9272   */\n      tag_447\n      jump\t// in\n    tag_568:\n        /* \"#utility.yul\":9209:9272   */\n      swap4\n      pop\n        /* \"#utility.yul\":9165:9282   */\n      pop\n        /* \"#utility.yul\":9321:9323   */\n      0x20\n        /* \"#utility.yul\":9347:9400   */\n      tag_569\n        /* \"#utility.yul\":9392:9399   */\n      dup7\n        /* \"#utility.yul\":9383:9389   */\n      dup3\n        /* \"#utility.yul\":9372:9381   */\n      dup8\n        /* \"#utility.yul\":9368:9390   */\n      add\n        /* \"#utility.yul\":9347:9400   */\n      tag_447\n      jump\t// in\n    tag_569:\n        /* \"#utility.yul\":9337:9400   */\n      swap3\n      pop\n        /* \"#utility.yul\":9292:9410   */\n      pop\n        /* \"#utility.yul\":9449:9451   */\n      0x40\n        /* \"#utility.yul\":9475:9528   */\n      tag_570\n        /* \"#utility.yul\":9520:9527   */\n      dup7\n        /* \"#utility.yul\":9511:9517   */\n      dup3\n        /* \"#utility.yul\":9500:9509   */\n      dup8\n        /* \"#utility.yul\":9496:9518   */\n      add\n        /* \"#utility.yul\":9475:9528   */\n      tag_447\n      jump\t// in\n    tag_570:\n        /* \"#utility.yul\":9465:9528   */\n      swap2\n      pop\n        /* \"#utility.yul\":9420:9538   */\n      pop\n        /* \"#utility.yul\":8926:9545   */\n      swap3\n      pop\n      swap3\n      pop\n      swap3\n      jump\t// out\n        /* \"#utility.yul\":9551:9731   */\n    tag_452:\n        /* \"#utility.yul\":9599:9676   */\n      0x4e487b7100000000000000000000000000000000000000000000000000000000\n        /* \"#utility.yul\":9596:9597   */\n      0x00\n        /* \"#utility.yul\":9589:9677   */\n      mstore\n        /* \"#utility.yul\":9696:9700   */\n      0x22\n        /* \"#utility.yul\":9693:9694   */\n      0x04\n        /* \"#utility.yul\":9686:9701   */\n      mstore\n        /* \"#utility.yul\":9720:9724   */\n      0x24\n        /* \"#utility.yul\":9717:9718   */\n      0x00\n        /* \"#utility.yul\":9710:9725   */\n      revert\n        /* \"#utility.yul\":9737:10057   */\n    tag_214:\n        /* \"#utility.yul\":9781:9787   */\n      0x00\n        /* \"#utility.yul\":9818:9819   */\n      0x02\n        /* \"#utility.yul\":9812:9816   */\n      dup3\n        /* \"#utility.yul\":9808:9820   */\n      div\n        /* \"#utility.yul\":9798:9820   */\n      swap1\n      pop\n        /* \"#utility.yul\":9865:9866   */\n      0x01\n        /* \"#utility.yul\":9859:9863   */\n      dup3\n        /* \"#utility.yul\":9855:9867   */\n      and\n        /* \"#utility.yul\":9886:9904   */\n      dup1\n        /* \"#utility.yul\":9876:9957   */\n      tag_573\n      jumpi\n        /* \"#utility.yul\":9942:9946   */\n      0x7f\n        /* \"#utility.yul\":9934:9940   */\n      dup3\n        /* \"#utility.yul\":9930:9947   */\n      and\n        /* \"#utility.yul\":9920:9947   */\n      swap2\n      pop\n        /* \"#utility.yul\":9876:9957   */\n    tag_573:\n        /* \"#utility.yul\":10004:10006   */\n      0x20\n        /* \"#utility.yul\":9996:10002   */\n      dup3\n        /* \"#utility.yul\":9993:10007   */\n      lt\n        /* \"#utility.yul\":9973:9991   */\n      dup2\n        /* \"#utility.yul\":9970:10008   */\n      sub\n        /* \"#utility.yul\":9967:10051   */\n      tag_574\n      jumpi\n        /* \"#utility.yul\":10023:10041   */\n      tag_575\n      tag_452\n      jump\t// in\n    tag_575:\n        /* \"#utility.yul\":9967:10051   */\n    tag_574:\n        /* \"#utility.yul\":9788:10057   */\n      pop\n        /* \"#utility.yul\":9737:10057   */\n      swap2\n      swap1\n      pop\n      jump\t// out\n        /* \"#utility.yul\":10063:10236   */\n    tag_453:\n        /* \"#utility.yul\":10203:10228   */\n      0x41646472657373206e6f742077686974656c6973746564000000000000000000\n        /* \"#utility.yul\":10199:10200   */\n      0x00\n        /* \"#utility.yul\":10191:10197   */\n      dup3\n        /* \"#utility.yul\":10187:10201   */\n      add\n        /* \"#utility.yul\":10180:10229   */\n      mstore\n        /* \"#utility.yul\":10063:10236   */\n      pop\n      jump\t// out\n        /* \"#utility.yul\":10242:10608   */\n    tag_454:\n        /* \"#utility.yul\":10384:10387   */\n      0x00\n        /* \"#utility.yul\":10405:10472   */\n      tag_578\n        /* \"#utility.yul\":10469:10471   */\n      0x17\n        /* \"#utility.yul\":10464:10467   */\n      dup4\n        /* \"#utility.yul\":10405:10472   */\n      tag_441\n      jump\t// in\n    tag_578:\n        /* \"#utility.yul\":10398:10472   */\n      swap2\n      pop\n        /* \"#utility.yul\":10481:10574   */\n      tag_579\n        /* \"#utility.yul\":10570:10573   */\n      dup3\n        /* \"#utility.yul\":10481:10574   */\n      tag_453\n      jump\t// in\n    tag_579:\n        /* \"#utility.yul\":10599:10601   */\n      0x20\n        /* \"#utility.yul\":10594:10597   */\n      dup3\n        /* \"#utility.yul\":10590:10602   */\n      add\n        /* \"#utility.yul\":10583:10602   */\n      swap1\n      pop\n        /* \"#utility.yul\":10242:10608   */\n      swap2\n      swap1\n      pop\n      jump\t// out\n        /* \"#utility.yul\":10614:11033   */\n    tag_233:\n        /* \"#utility.yul\":10780:10784   */\n      0x00\n        /* \"#utility.yul\":10818:10820   */\n      0x20\n        /* \"#utility.yul\":10807:10816   */\n      dup3\n        /* \"#utility.yul\":10803:10821   */\n      add\n        /* \"#utility.yul\":10795:10821   */\n      swap1\n      pop\n        /* \"#utility.yul\":10867:10876   */\n      dup2\n        /* \"#utility.yul\":10861:10865   */\n      dup2\n        /* \"#utility.yul\":10857:10877   */\n      sub\n        /* \"#utility.yul\":10853:10854   */\n      0x00\n        /* \"#utility.yul\":10842:10851   */\n      dup4\n        /* \"#utility.yul\":10838:10855   */\n      add\n        /* \"#utility.yul\":10831:10878   */\n      mstore\n        /* \"#utility.yul\":10895:11026   */\n      tag_581\n        /* \"#utility.yul\":11021:11025   */\n      dup2\n        /* \"#utility.yul\":10895:11026   */\n      tag_454\n      jump\t// in\n    tag_581:\n        /* \"#utility.yul\":10887:11026   */\n      swap1\n      pop\n        /* \"#utility.yul\":10614:11033   */\n      swap2\n      swap1\n      pop\n      jump\t// out\n        /* \"#utility.yul\":11039:11203   */\n    tag_455:\n        /* \"#utility.yul\":11179:11195   */\n      0x496e76616c696420616d6f756e74000000000000000000000000000000000000\n        /* \"#utility.yul\":11175:11176   */\n      0x00\n        /* \"#utility.yul\":11167:11173   */\n      dup3\n        /* \"#utility.yul\":11163:11177   */\n      add\n        /* \"#utility.yul\":11156:11196   */\n      mstore\n        /* \"#utility.yul\":11039:11203   */\n      pop\n      jump\t// out\n        /* \"#utility.yul\":11209:11575   */\n    tag_456:\n        /* \"#utility.yul\":11351:11354   */\n      0x00\n        /* \"#utility.yul\":11372:11439   */\n      tag_584\n        /* \"#utility.yul\":11436:11438   */\n      0x0e\n        /* \"#utility.yul\":11431:11434   */\n      dup4\n        /* \"#utility.yul\":11372:11439   */\n      tag_441\n      jump\t// in\n    tag_584:\n        /* \"#utility.yul\":11365:11439   */\n      swap2\n      pop\n        /* \"#utility.yul\":11448:11541   */\n      tag_585\n        /* \"#utility.yul\":11537:11540   */\n      dup3\n        /* \"#utility.yul\":11448:11541   */\n      tag_455\n      jump\t// in\n    tag_585:\n        /* \"#utility.yul\":11566:11568   */\n      0x20\n        /* \"#utility.yul\":11561:11564   */\n      dup3\n        /* \"#utility.yul\":11557:11569   */\n      add\n        /* \"#utility.yul\":11550:11569   */\n      swap1\n      pop\n        /* \"#utility.yul\":11209:11575   */\n      swap2\n      swap1\n      pop\n      jump\t// out\n        /* \"#utility.yul\":11581:12000   */\n    tag_250:\n        /* \"#utility.yul\":11747:11751   */\n      0x00\n        /* \"#utility.yul\":11785:11787   */\n      0x20\n        /* \"#utility.yul\":11774:11783   */\n      dup3\n        /* \"#utility.yul\":11770:11788   */\n      add\n        /* \"#utility.yul\":11762:11788   */\n      swap1\n      pop\n        /* \"#utility.yul\":11834:11843   */\n      dup2\n        /* \"#utility.yul\":11828:11832   */\n      dup2\n        /* \"#utility.yul\":11824:11844   */\n      sub\n        /* \"#utility.yul\":11820:11821   */\n      0x00\n        /* \"#utility.yul\":11809:11818   */\n      dup4\n        /* \"#utility.yul\":11805:11822   */\n      add\n        /* \"#utility.yul\":11798:11845   */\n      mstore\n        /* \"#utility.yul\":11862:11993   */\n      tag_587\n        /* \"#utility.yul\":11988:11992   */\n      dup2\n        /* \"#utility.yul\":11862:11993   */\n      tag_456\n      jump\t// in\n    tag_587:\n        /* \"#utility.yul\":11854:11993   */\n      swap1\n      pop\n        /* \"#utility.yul\":11581:12000   */\n      swap2\n      swap1\n      pop\n      jump\t// out\n        /* \"#utility.yul\":12006:12186   */\n    tag_457:\n        /* \"#utility.yul\":12054:12131   */\n      0x4e487b7100000000000000000000000000000000000000000000000000000000\n        /* \"#utility.yul\":12051:12052   */\n      0x00\n        /* \"#utility.yul\":12044:12132   */\n      mstore\n        /* \"#utility.yul\":12151:12155   */\n      0x11\n        /* \"#utility.yul\":12148:12149   */\n      0x04\n        /* \"#utility.yul\":12141:12156   */\n      mstore\n        /* \"#utility.yul\":12175:12179   */\n      0x24\n        /* \"#utility.yul\":12172:12173   */\n      0x00\n        /* \"#utility.yul\":12165:12180   */\n      revert\n        /* \"#utility.yul\":12192:12386   */\n    tag_254:\n        /* \"#utility.yul\":12232:12236   */\n      0x00\n        /* \"#utility.yul\":12252:12272   */\n      tag_590\n        /* \"#utility.yul\":12270:12271   */\n      dup3\n        /* \"#utility.yul\":12252:12272   */\n      tag_445\n      jump\t// in\n    tag_590:\n        /* \"#utility.yul\":12247:12272   */\n      swap2\n      pop\n        /* \"#utility.yul\":12286:12306   */\n      tag_591\n        /* \"#utility.yul\":12304:12305   */\n      dup4\n        /* \"#utility.yul\":12286:12306   */\n      tag_445\n      jump\t// in\n    tag_591:\n        /* \"#utility.yul\":12281:12306   */\n      swap3\n      pop\n        /* \"#utility.yul\":12330:12331   */\n      dup3\n        /* \"#utility.yul\":12327:12328   */\n      dup3\n        /* \"#utility.yul\":12323:12332   */\n      sub\n        /* \"#utility.yul\":12315:12332   */\n      swap1\n      pop\n        /* \"#utility.yul\":12354:12355   */\n      dup2\n        /* \"#utility.yul\":12348:12352   */\n      dup2\n        /* \"#utility.yul\":12345:12356   */\n      gt\n        /* \"#utility.yul\":12342:12379   */\n      iszero\n      tag_592\n      jumpi\n        /* \"#utility.yul\":12359:12377   */\n      tag_593\n      tag_457\n      jump\t// in\n    tag_593:\n        /* \"#utility.yul\":12342:12379   */\n    tag_592:\n        /* \"#utility.yul\":12192:12386   */\n      swap3\n      swap2\n      pop\n      pop\n      jump\t// out\n        /* \"#utility.yul\":12392:12802   */\n    tag_259:\n        /* \"#utility.yul\":12432:12439   */\n      0x00\n        /* \"#utility.yul\":12455:12475   */\n      tag_595\n        /* \"#utility.yul\":12473:12474   */\n      dup3\n        /* \"#utility.yul\":12455:12475   */\n      tag_445\n      jump\t// in\n    tag_595:\n        /* \"#utility.yul\":12450:12475   */\n      swap2\n      pop\n        /* \"#utility.yul\":12489:12509   */\n      tag_596\n        /* \"#utility.yul\":12507:12508   */\n      dup4\n        /* \"#utility.yul\":12489:12509   */\n      tag_445\n      jump\t// in\n    tag_596:\n        /* \"#utility.yul\":12484:12509   */\n      swap3\n      pop\n        /* \"#utility.yul\":12544:12545   */\n      dup3\n        /* \"#utility.yul\":12541:12542   */\n      dup3\n        /* \"#utility.yul\":12537:12546   */\n      mul\n        /* \"#utility.yul\":12566:12596   */\n      tag_597\n        /* \"#utility.yul\":12584:12595   */\n      dup2\n        /* \"#utility.yul\":12566:12596   */\n      tag_445\n      jump\t// in\n    tag_597:\n        /* \"#utility.yul\":12555:12596   */\n      swap2\n      pop\n        /* \"#utility.yul\":12745:12746   */\n      dup3\n        /* \"#utility.yul\":12736:12743   */\n      dup3\n        /* \"#utility.yul\":12732:12747   */\n      div\n        /* \"#utility.yul\":12729:12730   */\n      dup5\n        /* \"#utility.yul\":12726:12748   */\n      eq\n        /* \"#utility.yul\":12706:12707   */\n      dup4\n        /* \"#utility.yul\":12699:12708   */\n      iszero\n        /* \"#utility.yul\":12679:12762   */\n      or\n        /* \"#utility.yul\":12656:12795   */\n      tag_598\n      jumpi\n        /* \"#utility.yul\":12775:12793   */\n      tag_599\n      tag_457\n      jump\t// in\n    tag_599:\n        /* \"#utility.yul\":12656:12795   */\n    tag_598:\n        /* \"#utility.yul\":12440:12802   */\n      pop\n        /* \"#utility.yul\":12392:12802   */\n      swap3\n      swap2\n      pop\n      pop\n      jump\t// out\n        /* \"#utility.yul\":12808:12988   */\n    tag_458:\n        /* \"#utility.yul\":12856:12933   */\n      0x4e487b7100000000000000000000000000000000000000000000000000000000\n        /* \"#utility.yul\":12853:12854   */\n      0x00\n        /* \"#utility.yul\":12846:12934   */\n      mstore\n        /* \"#utility.yul\":12953:12957   */\n      0x12\n        /* \"#utility.yul\":12950:12951   */\n      0x04\n        /* \"#utility.yul\":12943:12958   */\n      mstore\n        /* \"#utility.yul\":12977:12981   */\n      0x24\n        /* \"#utility.yul\":12974:12975   */\n      0x00\n        /* \"#utility.yul\":12967:12982   */\n      revert\n        /* \"#utility.yul\":12994:13179   */\n    tag_261:\n        /* \"#utility.yul\":13034:13035   */\n      0x00\n        /* \"#utility.yul\":13051:13071   */\n      tag_602\n        /* \"#utility.yul\":13069:13070   */\n      dup3\n        /* \"#utility.yul\":13051:13071   */\n      tag_445\n      jump\t// in\n    tag_602:\n        /* \"#utility.yul\":13046:13071   */\n      swap2\n      pop\n        /* \"#utility.yul\":13085:13105   */\n      tag_603\n        /* \"#utility.yul\":13103:13104   */\n      dup4\n        /* \"#utility.yul\":13085:13105   */\n      tag_445\n      jump\t// in\n    tag_603:\n        /* \"#utility.yul\":13080:13105   */\n      swap3\n      pop\n        /* \"#utility.yul\":13124:13125   */\n      dup3\n        /* \"#utility.yul\":13114:13149   */\n      tag_604\n      jumpi\n        /* \"#utility.yul\":13129:13147   */\n      tag_605\n      tag_458\n      jump\t// in\n    tag_605:\n        /* \"#utility.yul\":13114:13149   */\n    tag_604:\n        /* \"#utility.yul\":13171:13172   */\n      dup3\n        /* \"#utility.yul\":13168:13169   */\n      dup3\n        /* \"#utility.yul\":13164:13173   */\n      div\n        /* \"#utility.yul\":13159:13173   */\n      swap1\n      pop\n        /* \"#utility.yul\":12994:13179   */\n      swap3\n      swap2\n      pop\n      pop\n      jump\t// out\n        /* \"#utility.yul\":13185:13361   */\n    tag_459:\n        /* \"#utility.yul\":13325:13353   */\n      0x546f6f206d616e792076657374696e67207363686564756c6573000000000000\n        /* \"#utility.yul\":13321:13322   */\n      0x00\n        /* \"#utility.yul\":13313:13319   */\n      dup3\n        /* \"#utility.yul\":13309:13323   */\n      add\n        /* \"#utility.yul\":13302:13354   */\n      mstore\n        /* \"#utility.yul\":13185:13361   */\n      pop\n      jump\t// out\n        /* \"#utility.yul\":13367:13733   */\n    tag_460:\n        /* \"#utility.yul\":13509:13512   */\n      0x00\n        /* \"#utility.yul\":13530:13597   */\n      tag_608\n        /* \"#utility.yul\":13594:13596   */\n      0x1a\n        /* \"#utility.yul\":13589:13592   */\n      dup4\n        /* \"#utility.yul\":13530:13597   */\n      tag_441\n      jump\t// in\n    tag_608:\n        /* \"#utility.yul\":13523:13597   */\n      swap2\n      pop\n        /* \"#utility.yul\":13606:13699   */\n      tag_609\n        /* \"#utility.yul\":13695:13698   */\n      dup3\n        /* \"#utility.yul\":13606:13699   */\n      tag_459\n      jump\t// in\n    tag_609:\n        /* \"#utility.yul\":13724:13726   */\n      0x20\n        /* \"#utility.yul\":13719:13722   */\n      dup3\n        /* \"#utility.yul\":13715:13727   */\n      add\n        /* \"#utility.yul\":13708:13727   */\n      swap1\n      pop\n        /* \"#utility.yul\":13367:13733   */\n      swap2\n      swap1\n      pop\n      jump\t// out\n        /* \"#utility.yul\":13739:14158   */\n    tag_269:\n        /* \"#utility.yul\":13905:13909   */\n      0x00\n        /* \"#utility.yul\":13943:13945   */\n      0x20\n        /* \"#utility.yul\":13932:13941   */\n      dup3\n        /* \"#utility.yul\":13928:13946   */\n      add\n        /* \"#utility.yul\":13920:13946   */\n      swap1\n      pop\n        /* \"#utility.yul\":13992:14001   */\n      dup2\n        /* \"#utility.yul\":13986:13990   */\n      dup2\n        /* \"#utility.yul\":13982:14002   */\n      sub\n        /* \"#utility.yul\":13978:13979   */\n      0x00\n        /* \"#utility.yul\":13967:13976   */\n      dup4\n        /* \"#utility.yul\":13963:13980   */\n      add\n        /* \"#utility.yul\":13956:14003   */\n      mstore\n        /* \"#utility.yul\":14020:14151   */\n      tag_611\n        /* \"#utility.yul\":14146:14150   */\n      dup2\n        /* \"#utility.yul\":14020:14151   */\n      tag_460\n      jump\t// in\n    tag_611:\n        /* \"#utility.yul\":14012:14151   */\n      swap1\n      pop\n        /* \"#utility.yul\":13739:14158   */\n      swap2\n      swap1\n      pop\n      jump\t// out\n        /* \"#utility.yul\":14164:14355   */\n    tag_273:\n        /* \"#utility.yul\":14204:14207   */\n      0x00\n        /* \"#utility.yul\":14223:14243   */\n      tag_613\n        /* \"#utility.yul\":14241:14242   */\n      dup3\n        /* \"#utility.yul\":14223:14243   */\n      tag_445\n      jump\t// in\n    tag_613:\n        /* \"#utility.yul\":14218:14243   */\n      swap2\n      pop\n        /* \"#utility.yul\":14257:14277   */\n      tag_614\n        /* \"#utility.yul\":14275:14276   */\n      dup4\n        /* \"#utility.yul\":14257:14277   */\n      tag_445\n      jump\t// in\n    tag_614:\n        /* \"#utility.yul\":14252:14277   */\n      swap3\n      pop\n        /* \"#utility.yul\":14300:14301   */\n      dup3\n        /* \"#utility.yul\":14297:14298   */\n      dup3\n        /* \"#utility.yul\":14293:14302   */\n      add\n        /* \"#utility.yul\":14286:14302   */\n      swap1\n      pop\n        /* \"#utility.yul\":14321:14324   */\n      dup1\n        /* \"#utility.yul\":14318:14319   */\n      dup3\n        /* \"#utility.yul\":14315:14325   */\n      gt\n        /* \"#utility.yul\":14312:14348   */\n      iszero\n      tag_615\n      jumpi\n        /* \"#utility.yul\":14328:14346   */\n      tag_616\n      tag_457\n      jump\t// in\n    tag_616:\n        /* \"#utility.yul\":14312:14348   */\n    tag_615:\n        /* \"#utility.yul\":14164:14355   */\n      swap3\n      swap2\n      pop\n      pop\n      jump\t// out\n        /* \"#utility.yul\":14361:14693   */\n    tag_275:\n        /* \"#utility.yul\":14482:14486   */\n      0x00\n        /* \"#utility.yul\":14520:14522   */\n      0x40\n        /* \"#utility.yul\":14509:14518   */\n      dup3\n        /* \"#utility.yul\":14505:14523   */\n      add\n        /* \"#utility.yul\":14497:14523   */\n      swap1\n      pop\n        /* \"#utility.yul\":14533:14604   */\n      tag_618\n        /* \"#utility.yul\":14601:14602   */\n      0x00\n        /* \"#utility.yul\":14590:14599   */\n      dup4\n        /* \"#utility.yul\":14586:14603   */\n      add\n        /* \"#utility.yul\":14577:14583   */\n      dup6\n        /* \"#utility.yul\":14533:14604   */\n      tag_448\n      jump\t// in\n    tag_618:\n        /* \"#utility.yul\":14614:14686   */\n      tag_619\n        /* \"#utility.yul\":14682:14684   */\n      0x20\n        /* \"#utility.yul\":14671:14680   */\n      dup4\n        /* \"#utility.yul\":14667:14685   */\n      add\n        /* \"#utility.yul\":14658:14664   */\n      dup5\n        /* \"#utility.yul\":14614:14686   */\n      tag_448\n      jump\t// in\n    tag_619:\n        /* \"#utility.yul\":14361:14693   */\n      swap4\n      swap3\n      pop\n      pop\n      pop\n      jump\t// out\n        /* \"#utility.yul\":14699:14879   */\n    tag_290:\n        /* \"#utility.yul\":14747:14824   */\n      0x4e487b7100000000000000000000000000000000000000000000000000000000\n        /* \"#utility.yul\":14744:14745   */\n      0x00\n        /* \"#utility.yul\":14737:14825   */\n      mstore\n        /* \"#utility.yul\":14844:14848   */\n      0x32\n        /* \"#utility.yul\":14841:14842   */\n      0x04\n        /* \"#utility.yul\":14834:14849   */\n      mstore\n        /* \"#utility.yul\":14868:14872   */\n      0x24\n        /* \"#utility.yul\":14865:14866   */\n      0x00\n        /* \"#utility.yul\":14858:14873   */\n      revert\n        /* \"#utility.yul\":14885:15055   */\n    tag_461:\n        /* \"#utility.yul\":15025:15047   */\n      0x4e6f20746f6b656e7320746f2072656c65617365000000000000000000000000\n        /* \"#utility.yul\":15021:15022   */\n      0x00\n        /* \"#utility.yul\":15013:15019   */\n      dup3\n        /* \"#utility.yul\":15009:15023   */\n      add\n        /* \"#utility.yul\":15002:15048   */\n      mstore\n        /* \"#utility.yul\":14885:15055   */\n      pop\n      jump\t// out\n        /* \"#utility.yul\":15061:15427   */\n    tag_462:\n        /* \"#utility.yul\":15203:15206   */\n      0x00\n        /* \"#utility.yul\":15224:15291   */\n      tag_623\n        /* \"#utility.yul\":15288:15290   */\n      0x14\n        /* \"#utility.yul\":15283:15286   */\n      dup4\n        /* \"#utility.yul\":15224:15291   */\n      tag_441\n      jump\t// in\n    tag_623:\n        /* \"#utility.yul\":15217:15291   */\n      swap2\n      pop\n        /* \"#utility.yul\":15300:15393   */\n      tag_624\n        /* \"#utility.yul\":15389:15392   */\n      dup3\n        /* \"#utility.yul\":15300:15393   */\n      tag_461\n      jump\t// in\n    tag_624:\n        /* \"#utility.yul\":15418:15420   */\n      0x20\n        /* \"#utility.yul\":15413:15416   */\n      dup3\n        /* \"#utility.yul\":15409:15421   */\n      add\n        /* \"#utility.yul\":15402:15421   */\n      swap1\n      pop\n        /* \"#utility.yul\":15061:15427   */\n      swap2\n      swap1\n      pop\n      jump\t// out\n        /* \"#utility.yul\":15433:15852   */\n    tag_297:\n        /* \"#utility.yul\":15599:15603   */\n      0x00\n        /* \"#utility.yul\":15637:15639   */\n      0x20\n        /* \"#utility.yul\":15626:15635   */\n      dup3\n        /* \"#utility.yul\":15622:15640   */\n      add\n        /* \"#utility.yul\":15614:15640   */\n      swap1\n      pop\n        /* \"#utility.yul\":15686:15695   */\n      dup2\n        /* \"#utility.yul\":15680:15684   */\n      dup2\n        /* \"#utility.yul\":15676:15696   */\n      sub\n        /* \"#utility.yul\":15672:15673   */\n      0x00\n        /* \"#utility.yul\":15661:15670   */\n      dup4\n        /* \"#utility.yul\":15657:15674   */\n      add\n        /* \"#utility.yul\":15650:15697   */\n      mstore\n        /* \"#utility.yul\":15714:15845   */\n      tag_626\n        /* \"#utility.yul\":15840:15844   */\n      dup2\n        /* \"#utility.yul\":15714:15845   */\n      tag_462\n      jump\t// in\n    tag_626:\n        /* \"#utility.yul\":15706:15845   */\n      swap1\n      pop\n        /* \"#utility.yul\":15433:15852   */\n      swap2\n      swap1\n      pop\n      jump\t// out\n        /* \"#utility.yul\":15858:16022   */\n    tag_463:\n        /* \"#utility.yul\":15998:16014   */\n      0x43616e6e6f74207374616b652030000000000000000000000000000000000000\n        /* \"#utility.yul\":15994:15995   */\n      0x00\n        /* \"#utility.yul\":15986:15992   */\n      dup3\n        /* \"#utility.yul\":15982:15996   */\n      add\n        /* \"#utility.yul\":15975:16015   */\n      mstore\n        /* \"#utility.yul\":15858:16022   */\n      pop\n      jump\t// out\n        /* \"#utility.yul\":16028:16394   */\n    tag_464:\n        /* \"#utility.yul\":16170:16173   */\n      0x00\n        /* \"#utility.yul\":16191:16258   */\n      tag_629\n        /* \"#utility.yul\":16255:16257   */\n      0x0e\n        /* \"#utility.yul\":16250:16253   */\n      dup4\n        /* \"#utility.yul\":16191:16258   */\n      tag_441\n      jump\t// in\n    tag_629:\n        /* \"#utility.yul\":16184:16258   */\n      swap2\n      pop\n        /* \"#utility.yul\":16267:16360   */\n      tag_630\n        /* \"#utility.yul\":16356:16359   */\n      dup3\n        /* \"#utility.yul\":16267:16360   */\n      tag_463\n      jump\t// in\n    tag_630:\n        /* \"#utility.yul\":16385:16387   */\n      0x20\n        /* \"#utility.yul\":16380:16383   */\n      dup3\n        /* \"#utility.yul\":16376:16388   */\n      add\n        /* \"#utility.yul\":16369:16388   */\n      swap1\n      pop\n        /* \"#utility.yul\":16028:16394   */\n      swap2\n      swap1\n      pop\n      jump\t// out\n        /* \"#utility.yul\":16400:16819   */\n    tag_314:\n        /* \"#utility.yul\":16566:16570   */\n      0x00\n        /* \"#utility.yul\":16604:16606   */\n      0x20\n        /* \"#utility.yul\":16593:16602   */\n      dup3\n        /* \"#utility.yul\":16589:16607   */\n      add\n        /* \"#utility.yul\":16581:16607   */\n      swap1\n      pop\n        /* \"#utility.yul\":16653:16662   */\n      dup2\n        /* \"#utility.yul\":16647:16651   */\n      dup2\n        /* \"#utility.yul\":16643:16663   */\n      sub\n        /* \"#utility.yul\":16639:16640   */\n      0x00\n        /* \"#utility.yul\":16628:16637   */\n      dup4\n        /* \"#utility.yul\":16624:16641   */\n      add\n        /* \"#utility.yul\":16617:16664   */\n      mstore\n        /* \"#utility.yul\":16681:16812   */\n      tag_632\n        /* \"#utility.yul\":16807:16811   */\n      dup2\n        /* \"#utility.yul\":16681:16812   */\n      tag_464\n      jump\t// in\n    tag_632:\n        /* \"#utility.yul\":16673:16812   */\n      swap1\n      pop\n        /* \"#utility.yul\":16400:16819   */\n      swap2\n      swap1\n      pop\n      jump\t// out\n        /* \"#utility.yul\":16825:16997   */\n    tag_465:\n        /* \"#utility.yul\":16965:16989   */\n      0x496e73756666696369656e7420616c6c6f77616e636500000000000000000000\n        /* \"#utility.yul\":16961:16962   */\n      0x00\n        /* \"#utility.yul\":16953:16959   */\n      dup3\n        /* \"#utility.yul\":16949:16963   */\n      add\n        /* \"#utility.yul\":16942:16990   */\n      mstore\n        /* \"#utility.yul\":16825:16997   */\n      pop\n      jump\t// out\n        /* \"#utility.yul\":17003:17369   */\n    tag_466:\n        /* \"#utility.yul\":17145:17148   */\n      0x00\n        /* \"#utility.yul\":17166:17233   */\n      tag_635\n        /* \"#utility.yul\":17230:17232   */\n      0x16\n        /* \"#utility.yul\":17225:17228   */\n      dup4\n        /* \"#utility.yul\":17166:17233   */\n      tag_441\n      jump\t// in\n    tag_635:\n        /* \"#utility.yul\":17159:17233   */\n      swap2\n      pop\n        /* \"#utility.yul\":17242:17335   */\n      tag_636\n        /* \"#utility.yul\":17331:17334   */\n      dup3\n        /* \"#utility.yul\":17242:17335   */\n      tag_465\n      jump\t// in\n    tag_636:\n        /* \"#utility.yul\":17360:17362   */\n      0x20\n        /* \"#utility.yul\":17355:17358   */\n      dup3\n        /* \"#utility.yul\":17351:17363   */\n      add\n        /* \"#utility.yul\":17344:17363   */\n      swap1\n      pop\n        /* \"#utility.yul\":17003:17369   */\n      swap2\n      swap1\n      pop\n      jump\t// out\n        /* \"#utility.yul\":17375:17794   */\n    tag_360:\n        /* \"#utility.yul\":17541:17545   */\n      0x00\n        /* \"#utility.yul\":17579:17581   */\n      0x20\n        /* \"#utility.yul\":17568:17577   */\n      dup3\n        /* \"#utility.yul\":17564:17582   */\n      add\n        /* \"#utility.yul\":17556:17582   */\n      swap1\n      pop\n        /* \"#utility.yul\":17628:17637   */\n      dup2\n        /* \"#utility.yul\":17622:17626   */\n      dup2\n        /* \"#utility.yul\":17618:17638   */\n      sub\n        /* \"#utility.yul\":17614:17615   */\n      0x00\n        /* \"#utility.yul\":17603:17612   */\n      dup4\n        /* \"#utility.yul\":17599:17616   */\n      add\n        /* \"#utility.yul\":17592:17639   */\n      mstore\n        /* \"#utility.yul\":17656:17787   */\n      tag_638\n        /* \"#utility.yul\":17782:17786   */\n      dup2\n        /* \"#utility.yul\":17656:17787   */\n      tag_466\n      jump\t// in\n    tag_638:\n        /* \"#utility.yul\":17648:17787   */\n      swap1\n      pop\n        /* \"#utility.yul\":17375:17794   */\n      swap2\n      swap1\n      pop\n      jump\t// out\n        /* \"#utility.yul\":17800:17970   */\n    tag_467:\n        /* \"#utility.yul\":17940:17962   */\n      0x496e73756666696369656e742062616c616e6365000000000000000000000000\n        /* \"#utility.yul\":17936:17937   */\n      0x00\n        /* \"#utility.yul\":17928:17934   */\n      dup3\n        /* \"#utility.yul\":17924:17938   */\n      add\n        /* \"#utility.yul\":17917:17963   */\n      mstore\n        /* \"#utility.yul\":17800:17970   */\n      pop\n      jump\t// out\n        /* \"#utility.yul\":17976:18342   */\n    tag_468:\n        /* \"#utility.yul\":18118:18121   */\n      0x00\n        /* \"#utility.yul\":18139:18206   */\n      tag_641\n        /* \"#utility.yul\":18203:18205   */\n      0x14\n        /* \"#utility.yul\":18198:18201   */\n      dup4\n        /* \"#utility.yul\":18139:18206   */\n      tag_441\n      jump\t// in\n    tag_641:\n        /* \"#utility.yul\":18132:18206   */\n      swap2\n      pop\n        /* \"#utility.yul\":18215:18308   */\n      tag_642\n        /* \"#utility.yul\":18304:18307   */\n      dup3\n        /* \"#utility.yul\":18215:18308   */\n      tag_467\n      jump\t// in\n    tag_642:\n        /* \"#utility.yul\":18333:18335   */\n      0x20\n        /* \"#utility.yul\":18328:18331   */\n      dup3\n        /* \"#utility.yul\":18324:18336   */\n      add\n        /* \"#utility.yul\":18317:18336   */\n      swap1\n      pop\n        /* \"#utility.yul\":17976:18342   */\n      swap2\n      swap1\n      pop\n      jump\t// out\n        /* \"#utility.yul\":18348:18767   */\n    tag_404:\n        /* \"#utility.yul\":18514:18518   */\n      0x00\n        /* \"#utility.yul\":18552:18554   */\n      0x20\n        /* \"#utility.yul\":18541:18550   */\n      dup3\n        /* \"#utility.yul\":18537:18555   */\n      add\n        /* \"#utility.yul\":18529:18555   */\n      swap1\n      pop\n        /* \"#utility.yul\":18601:18610   */\n      dup2\n        /* \"#utility.yul\":18595:18599   */\n      dup2\n        /* \"#utility.yul\":18591:18611   */\n      sub\n        /* \"#utility.yul\":18587:18588   */\n      0x00\n        /* \"#utility.yul\":18576:18585   */\n      dup4\n        /* \"#utility.yul\":18572:18589   */\n      add\n        /* \"#utility.yul\":18565:18612   */\n      mstore\n        /* \"#utility.yul\":18629:18760   */\n      tag_644\n        /* \"#utility.yul\":18755:18759   */\n      dup2\n        /* \"#utility.yul\":18629:18760   */\n      tag_468\n      jump\t// in\n    tag_644:\n        /* \"#utility.yul\":18621:18760   */\n      swap1\n      pop\n        /* \"#utility.yul\":18348:18767   */\n      swap2\n      swap1\n      pop\n      jump\t// out\n\n    auxdata: 0xa2646970667358221220b30c3f49514029b82d1f6ddb1b8d21ed2b4174b5674c65dedea61effff265e5264736f6c634300081e0033\n}\n",
				"bytecode": {
					"linkReferences": {},
					"object": "608060405234801561000f575f5ffd5b50604051614329380380614329833981810160405281019061003191906106cb565b895f908161003f91906109e3565b50886001908161004f91906109e3565b508760025f6101000a81548160ff021916908360ff16021790555087600a6100779190610c0e565b866100829190610c58565b60048190555084600b5f6101000a81548173ffffffffffffffffffffffffffffffffffffffff021916908373ffffffffffffffffffffffffffffffffffffffff1602179055506001600c5f8773ffffffffffffffffffffffffffffffffffffffff1673ffffffffffffffffffffffffffffffffffffffff1681526020019081526020015f205f6101000a81548160ff0219169083151502179055506001600d5f8773ffffffffffffffffffffffffffffffffffffffff1673ffffffffffffffffffffffffffffffffffffffff1681526020019081526020015f205f6101000a81548160ff0219169083151502179055506001600e5f8773ffffffffffffffffffffffffffffffffffffffff1673ffffffffffffffffffffffffffffffffffffffff1681526020019081526020015f205f6101000a81548160ff0219169083151502179055506001600f5f8773ffffffffffffffffffffffffffffffffffffffff1673ffffffffffffffffffffffffffffffffffffffff1681526020019081526020015f205f6101000a81548160ff0219169083151502179055506040518060a001604052808481526020016064815260200160c881526020018573ffffffffffffffffffffffffffffffffffffffff1681526020016001151581525060075f820151815f015560208201518160010155604082015181600201556060820151816003015f6101000a81548173ffffffffffffffffffffffffffffffffffffffff021916908373ffffffffffffffffffffffffffffffffffffffff16021790555060808201518160030160146101000a81548160ff0219169083151502179055509050508160168190555080601781905550600160155f8773ffffffffffffffffffffffffffffffffffffffff1673ffffffffffffffffffffffffffffffffffffffff1681526020019081526020015f205f6101000a81548160ff02191690831515021790555087600a6103559190610c0e565b6103e86103629190610c58565b601a8190555061038f8589600a6103799190610c0e565b896103849190610c58565b61039e60201b60201c565b50505050505050505050610cf4565b600454816003546103af9190610c99565b11156103e7576040517fc30436e900000000000000000000000000000000000000000000000000000000815260040160405180910390fd5b8060035f8282546103f89190610c99565b925050819055508060055f8473ffffffffffffffffffffffffffffffffffffffff1673ffffffffffffffffffffffffffffffffffffffff1681526020019081526020015f205f82825461044b9190610c99565b925050819055508173ffffffffffffffffffffffffffffffffffffffff165f73ffffffffffffffffffffffffffffffffffffffff167fddf252ad1be2c89b69c2b068fc378daa952ba7f163c4a11628f55a4df523b3ef836040516104af9190610cdb565b60405180910390a35050565b5f604051905090565b5f5ffd5b5f5ffd5b5f5ffd5b5f5ffd5b5f601f19601f8301169050919050565b7f4e487b71000000000000000000000000000000000000000000000000000000005f52604160045260245ffd5b61051a826104d4565b810181811067ffffffffffffffff82111715610539576105386104e4565b5b80604052505050565b5f61054b6104bb565b90506105578282610511565b919050565b5f67ffffffffffffffff821115610576576105756104e4565b5b61057f826104d4565b9050602081019050919050565b8281835e5f83830152505050565b5f6105ac6105a78461055c565b610542565b9050828152602081018484840111156105c8576105c76104d0565b5b6105d384828561058c565b509392505050565b5f82601f8301126105ef576105ee6104cc565b5b81516105ff84826020860161059a565b91505092915050565b5f60ff82169050919050565b61061d81610608565b8114610627575f5ffd5b50565b5f8151905061063881610614565b92915050565b5f819050919050565b6106508161063e565b811461065a575f5ffd5b50565b5f8151905061066b81610647565b92915050565b5f73ffffffffffffffffffffffffffffffffffffffff82169050919050565b5f61069a82610671565b9050919050565b6106aa81610690565b81146106b4575f5ffd5b50565b5f815190506106c5816106a1565b92915050565b5f5f5f5f5f5f5f5f5f5f6101408b8d0312156106ea576106e96104c4565b5b5f8b015167ffffffffffffffff811115610707576107066104c8565b5b6107138d828e016105db565b9a505060208b015167ffffffffffffffff811115610734576107336104c8565b5b6107408d828e016105db565b99505060406107518d828e0161062a565b98505060606107628d828e0161065d565b97505060806107738d828e0161065d565b96505060a06107848d828e016106b7565b95505060c06107958d828e016106b7565b94505060e06107a68d828e0161065d565b9350506101006107b88d828e0161065d565b9250506101206107ca8d828e0161065d565b9150509295989b9194979a5092959850565b5f81519050919050565b7f4e487b71000000000000000000000000000000000000000000000000000000005f52602260045260245ffd5b5f600282049050600182168061082a57607f821691505b60208210810361083d5761083c6107e6565b5b50919050565b5f819050815f5260205f209050919050565b5f6020601f8301049050919050565b5f82821b905092915050565b5f6008830261089f7fffffffffffffffffffffffffffffffffffffffffffffffffffffffffffffffff82610864565b6108a98683610864565b95508019841693508086168417925050509392505050565b5f819050919050565b5f6108e46108df6108da8461063e565b6108c1565b61063e565b9050919050565b5f819050919050565b6108fd836108ca565b610911610909826108eb565b848454610870565b825550505050565b5f5f905090565b610928610919565b6109338184846108f4565b505050565b5b818110156109565761094b5f82610920565b600181019050610939565b5050565b601f82111561099b5761096c81610843565b61097584610855565b81016020851015610984578190505b61099861099085610855565b830182610938565b50505b505050565b5f82821c905092915050565b5f6109bb5f19846008026109a0565b1980831691505092915050565b5f6109d383836109ac565b9150826002028217905092915050565b6109ec826107dc565b67ffffffffffffffff811115610a0557610a046104e4565b5b610a0f8254610813565b610a1a82828561095a565b5f60209050601f831160018114610a4b575f8415610a39578287015190505b610a4385826109c8565b865550610aaa565b601f198416610a5986610843565b5f5b82811015610a8057848901518255600182019150602085019450602081019050610a5b565b86831015610a9d5784890151610a99601f8916826109ac565b8355505b6001600288020188555050505b505050505050565b7f4e487b71000000000000000000000000000000000000000000000000000000005f52601160045260245ffd5b5f8160011c9050919050565b5f5f8291508390505b6001851115610b3457808604811115610b1057610b0f610ab2565b5b6001851615610b1f5780820291505b8081029050610b2d85610adf565b9450610af4565b94509492505050565b5f82610b4c5760019050610c07565b81610b59575f9050610c07565b8160018114610b6f5760028114610b7957610ba8565b6001915050610c07565b60ff841115610b8b57610b8a610ab2565b5b8360020a915084821115610ba257610ba1610ab2565b5b50610c07565b5060208310610133831016604e8410600b8410161715610bdd5782820a905083811115610bd857610bd7610ab2565b5b610c07565b610bea8484846001610aeb565b92509050818404811115610c0157610c00610ab2565b5b81810290505b9392505050565b5f610c188261063e565b9150610c2383610608565b9250610c507fffffffffffffffffffffffffffffffffffffffffffffffffffffffffffffffff8484610b3d565b905092915050565b5f610c628261063e565b9150610c6d8361063e565b9250828202610c7b8161063e565b91508282048414831517610c9257610c91610ab2565b5b5092915050565b5f610ca38261063e565b9150610cae8361063e565b9250828201905080821115610cc657610cc5610ab2565b5b92915050565b610cd58161063e565b82525050565b5f602082019050610cee5f830184610ccc565b92915050565b61362880610d015f395ff3fe608060405234801561000f575f5ffd5b5060043610610267575f3560e01c80637d2aeb8a1161014f578063c415b95c116100c1578063dbac26e911610085578063dbac26e914610794578063dd62ed3e146107c4578063df136d65146107f4578063e5782fd514610812578063ef897f071461082e578063f46eccc41461085e57610267565b8063c415b95c146106ec578063c891571c1461070a578063c8f33c9114610728578063d5abeb0114610746578063d936547e1461076457610267565b80639e447fc6116101135780639e447fc614610606578063a2e59f5714610622578063a694fc3a14610640578063a9059cbb1461065c578063aea29b841461068c578063b13e4a9d146106bc57610267565b80637d2aeb8a14610572578063817b1cd21461058e5780638da5cb5b146105ac57806395d89b41146105ca57806398118cb4146105e857610267565b8063429b62e5116101e857806363b8ae72116101ac57806363b8ae72146104b0578063665a11ca146104cc57806366c21a12146104ea57806370a08231146105085780637b0a47ee146105385780637c97e93d1461055657610267565b8063429b62e5146103cd57806345626bd6146103fd57806351fb012d146104325780635873eb9b14610450578063602172671461048057610267565b80631e5eb1d01161022f5780631e5eb1d01461032557806323b872dd146103475780632e17de7814610377578063313ce567146103935780633f4e8e80146103b157610267565b806303d41e0e1461026b57806306fdde031461029b578063095ea7b3146102b9578063099b17ed146102e957806318160ddd14610307575b5f5ffd5b61028560048036038101906102809190612cfa565b61088e565b6040516102929190612d3f565b60405180910390f35b6102a36108ab565b6040516102b09190612dc8565b60405180910390f35b6102d360048036038101906102ce9190612e1b565b610936565b6040516102e09190612d3f565b60405180910390f35b6102f161094c565b6040516102fe9190612e68565b60405180910390f35b61030f610952565b60405161031c9190612e68565b60405180910390f35b61032d610958565b60405161033e959493929190612e90565b60405180910390f35b610361600480360381019061035c9190612ee1565b6109a7565b60405161036e9190612d3f565b60405180910390f35b610391600480360381019061038c9190612f31565b610d4c565b005b61039b610ef8565b6040516103a89190612f77565b60405180910390f35b6103cb60048036038101906103c69190612f90565b610f0a565b005b6103e760048036038101906103e29190612cfa565b611266565b6040516103f49190612d3f565b60405180910390f35b61041760048036038101906104129190612e1b565b611283565b60405161042996959493929190612ff4565b60405180910390f35b61043a6112e1565b6040516104479190612d3f565b60405180910390f35b61046a60048036038101906104659190612cfa565b6112f3565b6040516104779190612e68565b60405180910390f35b61049a60048036038101906104959190612cfa565b611308565b6040516104a79190612e68565b60405180910390f35b6104ca60048036038101906104c59190612e1b565b61131d565b005b6104d4611443565b6040516104e19190613053565b60405180910390f35b6104f2611468565b6040516104ff9190612e68565b60405180910390f35b610522600480360381019061051d9190612cfa565b61146e565b60405161052f9190612e68565b60405180910390f35b6105406114b4565b60405161054d9190612e68565b60405180910390f35b610570600480360381019061056b919061306c565b6114ba565b005b61058c60048036038101906105879190612f31565b6115a7565b005b6105966117bb565b6040516105a39190612e68565b60405180910390f35b6105b46117c1565b6040516105c19190613053565b60405180910390f35b6105d26117e6565b6040516105df9190612dc8565b60405180910390f35b6105f0611872565b6040516105fd9190612e68565b60405180910390f35b610620600480360381019061061b9190612f31565b611878565b005b61062a61195d565b6040516106379190612e68565b60405180910390f35b61065a60048036038101906106559190612f31565b611963565b005b61067660048036038101906106719190612e1b565b611ac6565b6040516106839190612d3f565b60405180910390f35b6106a660048036038101906106a19190612cfa565b611ddc565b6040516106b39190612d3f565b60405180910390f35b6106d660048036038101906106d19190612cfa565b611df9565b6040516106e39190612e68565b60405180910390f35b6106f4611e0e565b6040516107019190613053565b60405180910390f35b610712611e33565b60405161071f9190612e68565b60405180910390f35b610730611e39565b60405161073d9190612e68565b60405180910390f35b61074e611e3f565b60405161075b9190612e68565b60405180910390f35b61077e60048036038101906107799190612cfa565b611e45565b60405161078b9190612d3f565b60405180910390f35b6107ae60048036038101906107a99190612cfa565b611e62565b6040516107bb9190612d3f565b60405180910390f35b6107de60048036038101906107d991906130aa565b611e7f565b6040516107eb9190612e68565b60405180910390f35b6107fc611f01565b6040516108099190612e68565b60405180910390f35b61082c600480360381019061082791906130e8565b611f07565b005b61084860048036038101906108439190612cfa565b612057565b6040516108559190612d3f565b60405180910390f35b61087860048036038101906108739190612cfa565b612074565b6040516108859190612d3f565b60405180910390f35b600e602052805f5260405f205f915054906101000a900460ff1681565b5f80546108b790613165565b80601f01602080910402602001604051908101604052809291908181526020018280546108e390613165565b801561092e5780601f106109055761010080835404028352916020019161092e565b820191905f5260205f20905b81548152906001019060200180831161091157829003601f168201915b505050505081565b5f610942338484612091565b6001905092915050565b60165481565b60035481565b6007805f015490806001015490806002015490806003015f9054906101000a900473ffffffffffffffffffffffffffffffffffffffff16908060030160149054906101000a900460ff16905085565b5f8360125f8273ffffffffffffffffffffffffffffffffffffffff1673ffffffffffffffffffffffffffffffffffffffff1681526020019081526020015f205f9054906101000a900460ff1615610a2a576040517f1f7b776b00000000000000000000000000000000000000000000000000000000815260040160405180910390fd5b8360125f8273ffffffffffffffffffffffffffffffffffffffff1673ffffffffffffffffffffffffffffffffffffffff1681526020019081526020015f205f9054906101000a900460ff1615610aac576040517f1f7b776b00000000000000000000000000000000000000000000000000000000815260040160405180910390fd5b3360125f8273ffffffffffffffffffffffffffffffffffffffff1673ffffffffffffffffffffffffffffffffffffffff1681526020019081526020015f205f9054906101000a900460ff1615610b2e576040517f1f7b776b00000000000000000000000000000000000000000000000000000000815260040160405180910390fd5b8660145f9054906101000a900460ff168015610b91575060135f8273ffffffffffffffffffffffffffffffffffffffff1673ffffffffffffffffffffffffffffffffffffffff1681526020019081526020015f205f9054906101000a900460ff16155b8015610be4575060155f8273ffffffffffffffffffffffffffffffffffffffff1673ffffffffffffffffffffffffffffffffffffffff1681526020019081526020015f205f9054906101000a900460ff16155b15610c24576040517f08c379a0000000000000000000000000000000000000000000000000000000008152600401610c1b906131df565b60405180910390fd5b8660145f9054906101000a900460ff168015610c87575060135f8273ffffffffffffffffffffffffffffffffffffffff1673ffffffffffffffffffffffffffffffffffffffff1681526020019081526020015f205f9054906101000a900460ff16155b8015610cda575060155f8273ffffffffffffffffffffffffffffffffffffffff1673ffffffffffffffffffffffffffffffffffffffff1681526020019081526020015f205f9054906101000a900460ff16155b15610d1a576040517f08c379a0000000000000000000000000000000000000000000000000000000008152600401610d11906131df565b60405180910390fd5b610d25898989612178565b610d3089338961231d565b610d3c8989895f612420565b6001955050505050509392505050565b5f81118015610d98575080601c5f3373ffffffffffffffffffffffffffffffffffffffff1673ffffffffffffffffffffffffffffffffffffffff1681526020019081526020015f205410155b610dd7576040517f08c379a0000000000000000000000000000000000000000000000000000000008152600401610dce90613247565b60405180910390fd5b610de03361278d565b80601c5f3373ffffffffffffffffffffffffffffffffffffffff1673ffffffffffffffffffffffffffffffffffffffff1681526020019081526020015f205f828254610e2c9190613292565b9250508190555080601e5f828254610e449190613292565b92505081905550610e563033836128cb565b670de0b6b3a7640000601f54601c5f3373ffffffffffffffffffffffffffffffffffffffff1673ffffffffffffffffffffffffffffffffffffffff1681526020019081526020015f2054610eaa91906132c5565b610eb49190613333565b601d5f3373ffffffffffffffffffffffffffffffffffffffff1673ffffffffffffffffffffffffffffffffffffffff1681526020019081526020015f208190555050565b60025f9054906101000a900460ff1681565b600c5f3373ffffffffffffffffffffffffffffffffffffffff1673ffffffffffffffffffffffffffffffffffffffff1681526020019081526020015f205f9054906101000a900460ff16158015610fae5750600b5f9054906101000a900473ffffffffffffffffffffffffffffffffffffffff1673ffffffffffffffffffffffffffffffffffffffff163373ffffffffffffffffffffffffffffffffffffffff1614155b15610fe5576040517f7bfa4b9f00000000000000000000000000000000000000000000000000000000815260040160405180910390fd5b5f73ffffffffffffffffffffffffffffffffffffffff168473ffffffffffffffffffffffffffffffffffffffff160361104a576040517fd92e233d00000000000000000000000000000000000000000000000000000000815260040160405180910390fd5b600a60105f8673ffffffffffffffffffffffffffffffffffffffff1673ffffffffffffffffffffffffffffffffffffffff1681526020019081526020015f208054905011156110ce576040517f08c379a00000000000000000000000000000000000000000000000000000000081526004016110c5906133ad565b60405180910390fd5b6110d93330856128cb565b60105f8573ffffffffffffffffffffffffffffffffffffffff1673ffffffffffffffffffffffffffffffffffffffff1681526020019081526020015f206040518060c001604052808581526020015f815260200142815260200184815260200183815260200160011515815250908060018154018082558091505060019003905f5260205f2090600602015f909190919091505f820151815f01556020820151816001015560408201518160020155606082015181600301556080820151816004015560a0820151816005015f6101000a81548160ff02191690831515021790555050508260115f8673ffffffffffffffffffffffffffffffffffffffff1673ffffffffffffffffffffffffffffffffffffffff1681526020019081526020015f205f82825461120991906133cb565b925050819055508373ffffffffffffffffffffffffffffffffffffffff167f402b9fa52520ce724d8e25ad1521f70484bd3c833f98ed26451d7c966682020384846040516112589291906133fe565b60405180910390a250505050565b600c602052805f5260405f205f915054906101000a900460ff1681565b6010602052815f5260405f20818154811061129c575f80fd5b905f5260205f2090600602015f9150915050805f015490806001015490806002015490806003015490806004015490806005015f9054906101000a900460ff16905086565b60145f9054906101000a900460ff1681565b601d602052805f5260405f205f915090505481565b601c602052805f5260405f205f915090505481565b600c5f3373ffffffffffffffffffffffffffffffffffffffff1673ffffffffffffffffffffffffffffffffffffffff1681526020019081526020015f205f9054906101000a900460ff161580156113c15750600b5f9054906101000a900473ffffffffffffffffffffffffffffffffffffffff1673ffffffffffffffffffffffffffffffffffffffff163373ffffffffffffffffffffffffffffffffffffffff1614155b156113f8576040517f7bfa4b9f00000000000000000000000000000000000000000000000000000000815260040160405180910390fd5b8160185f6101000a81548173ffffffffffffffffffffffffffffffffffffffff021916908373ffffffffffffffffffffffffffffffffffffffff160217905550806019819055505050565b60185f9054906101000a900473ffffffffffffffffffffffffffffffffffffffff1681565b601b5481565b5f60055f8373ffffffffffffffffffffffffffffffffffffffff1673ffffffffffffffffffffffffffffffffffffffff1681526020019081526020015f20549050919050565b60215481565b600c5f3373ffffffffffffffffffffffffffffffffffffffff1673ffffffffffffffffffffffffffffffffffffffff1681526020019081526020015f205f9054906101000a900460ff1615801561155e5750600b5f9054906101000a900473ffffffffffffffffffffffffffffffffffffffff1673ffffffffffffffffffffffffffffffffffffffff163373ffffffffffffffffffffffffffffffffffffffff1614155b15611595576040517f7bfa4b9f00000000000000000000000000000000000000000000000000000000815260040160405180910390fd5b81601681905550806017819055505050565b5f60105f3373ffffffffffffffffffffffffffffffffffffffff1673ffffffffffffffffffffffffffffffffffffffff1681526020019081526020015f2082815481106115f7576115f6613425565b5b905f5260205f2090600602019050806005015f9054906101000a900460ff1661164c576040517f66ef36c900000000000000000000000000000000000000000000000000000000815260040160405180910390fd5b5f6116ac826040518060c00160405290815f820154815260200160018201548152602001600282015481526020016003820154815260200160048201548152602001600582015f9054906101000a900460ff161515151581525050612a5b565b90505f81036116f0576040517f08c379a00000000000000000000000000000000000000000000000000000000081526004016116e79061349c565b60405180910390fd5b80826001015f82825461170391906133cb565b925050819055508060115f3373ffffffffffffffffffffffffffffffffffffffff1673ffffffffffffffffffffffffffffffffffffffff1681526020019081526020015f205f8282546117569190613292565b925050819055506117683033836128cb565b3373ffffffffffffffffffffffffffffffffffffffff167fc7798891864187665ac6dd119286e44ec13f014527aeeb2b8eb3fd413df93179826040516117ae9190612e68565b60405180910390a2505050565b601e5481565b600b5f9054906101000a900473ffffffffffffffffffffffffffffffffffffffff1681565b600180546117f390613165565b80601f016020809104026020016040519081016040528092919081815260200182805461181f90613165565b801561186a5780601f106118415761010080835404028352916020019161186a565b820191905f5260205f20905b81548152906001019060200180831161184d57829003601f168201915b505050505081565b60195481565b600c5f3373ffffffffffffffffffffffffffffffffffffffff1673ffffffffffffffffffffffffffffffffffffffff1681526020019081526020015f205f9054906101000a900460ff1615801561191c5750600b5f9054906101000a900473ffffffffffffffffffffffffffffffffffffffff1673ffffffffffffffffffffffffffffffffffffffff163373ffffffffffffffffffffffffffffffffffffffff1614155b15611953576040517f7bfa4b9f00000000000000000000000000000000000000000000000000000000815260040160405180910390fd5b8060218190555050565b601a5481565b5f81116119a5576040517f08c379a000000000000000000000000000000000000000000000000000000000815260040161199c90613504565b60405180910390fd5b6119ae3361278d565b6119b93330836128cb565b80601c5f3373ffffffffffffffffffffffffffffffffffffffff1673ffffffffffffffffffffffffffffffffffffffff1681526020019081526020015f205f828254611a0591906133cb565b9250508190555080601e5f828254611a1d91906133cb565b92505081905550670de0b6b3a7640000601f54601c5f3373ffffffffffffffffffffffffffffffffffffffff1673ffffffffffffffffffffffffffffffffffffffff1681526020019081526020015f2054611a7891906132c5565b611a829190613333565b601d5f3373ffffffffffffffffffffffffffffffffffffffff1673ffffffffffffffffffffffffffffffffffffffff1681526020019081526020015f208190555050565b5f3360125f8273ffffffffffffffffffffffffffffffffffffffff1673ffffffffffffffffffffffffffffffffffffffff1681526020019081526020015f205f9054906101000a900460ff1615611b49576040517f1f7b776b00000000000000000000000000000000000000000000000000000000815260040160405180910390fd5b8360125f8273ffffffffffffffffffffffffffffffffffffffff1673ffffffffffffffffffffffffffffffffffffffff1681526020019081526020015f205f9054906101000a900460ff1615611bcb576040517f1f7b776b00000000000000000000000000000000000000000000000000000000815260040160405180910390fd5b3360145f9054906101000a900460ff168015611c2e575060135f8273ffffffffffffffffffffffffffffffffffffffff1673ffffffffffffffffffffffffffffffffffffffff1681526020019081526020015f205f9054906101000a900460ff16155b8015611c81575060155f8273ffffffffffffffffffffffffffffffffffffffff1673ffffffffffffffffffffffffffffffffffffffff1681526020019081526020015f205f9054906101000a900460ff16155b15611cc1576040517f08c379a0000000000000000000000000000000000000000000000000000000008152600401611cb8906131df565b60405180910390fd5b8560145f9054906101000a900460ff168015611d24575060135f8273ffffffffffffffffffffffffffffffffffffffff1673ffffffffffffffffffffffffffffffffffffffff1681526020019081526020015f205f9054906101000a900460ff16155b8015611d77575060155f8273ffffffffffffffffffffffffffffffffffffffff1673ffffffffffffffffffffffffffffffffffffffff1681526020019081526020015f205f9054906101000a900460ff16155b15611db7576040517f08c379a0000000000000000000000000000000000000000000000000000000008152600401611dae906131df565b60405180910390fd5b611dc2338888612178565b611dce3388885f612420565b600194505050505092915050565b6015602052805f5260405f205f915054906101000a900460ff1681565b6011602052805f5260405f205f915090505481565b60225f9054906101000a900473ffffffffffffffffffffffffffffffffffffffff1681565b60175481565b60205481565b60045481565b6013602052805f5260405f205f915054906101000a900460ff1681565b6012602052805f5260405f205f915054906101000a900460ff1681565b5f60065f8473ffffffffffffffffffffffffffffffffffffffff1673ffffffffffffffffffffffffffffffffffffffff1681526020019081526020015f205f8373ffffffffffffffffffffffffffffffffffffffff1673ffffffffffffffffffffffffffffffffffffffff1681526020019081526020015f2054905092915050565b601f5481565b600f5f3373ffffffffffffffffffffffffffffffffffffffff1673ffffffffffffffffffffffffffffffffffffffff1681526020019081526020015f205f9054906101000a900460ff16158015611fa55750600c5f3373ffffffffffffffffffffffffffffffffffffffff1673ffffffffffffffffffffffffffffffffffffffff1681526020019081526020015f205f9054906101000a900460ff16155b8015611ffe5750600b5f9054906101000a900473ffffffffffffffffffffffffffffffffffffffff1673ffffffffffffffffffffffffffffffffffffffff163373ffffffffffffffffffffffffffffffffffffffff1614155b15612035576040517ff5d267eb00000000000000000000000000000000000000000000000000000000815260040160405180910390fd5b8260075f01819055508160076001018190555080600760020181905550505050565b600f602052805f5260405f205f915054906101000a900460ff1681565b600d602052805f5260405f205f915054906101000a900460ff1681565b8060065f8573ffffffffffffffffffffffffffffffffffffffff1673ffffffffffffffffffffffffffffffffffffffff1681526020019081526020015f205f8473ffffffffffffffffffffffffffffffffffffffff1673ffffffffffffffffffffffffffffffffffffffff1681526020019081526020015f20819055508173ffffffffffffffffffffffffffffffffffffffff168373ffffffffffffffffffffffffffffffffffffffff167f8c5be1e5ebec7d5bd14f71427d1e84f3dd0314c0f7b2291e5b200ac8c7c3b9258360405161216b9190612e68565b60405180910390a3505050565b60155f8473ffffffffffffffffffffffffffffffffffffffff1673ffffffffffffffffffffffffffffffffffffffff1681526020019081526020015f205f9054906101000a900460ff16612318575f6127106017546003546121da91906132c5565b6121e49190613333565b905080821115612220576040517f2b70fd5500000000000000000000000000000000000000000000000000000000815260040160405180910390fd5b5f61271060165460035461223491906132c5565b61223e9190613333565b9050808360055f8773ffffffffffffffffffffffffffffffffffffffff1673ffffffffffffffffffffffffffffffffffffffff1681526020019081526020015f205461228a91906133cb565b1180156122de575060155f8573ffffffffffffffffffffffffffffffffffffffff1673ffffffffffffffffffffffffffffffffffffffff1681526020019081526020015f205f9054906101000a900460ff16155b15612315576040517ff50d423400000000000000000000000000000000000000000000000000000000815260040160405180910390fd5b50505b505050565b5f60065f8573ffffffffffffffffffffffffffffffffffffffff1673ffffffffffffffffffffffffffffffffffffffff1681526020019081526020015f205f8473ffffffffffffffffffffffffffffffffffffffff1673ffffffffffffffffffffffffffffffffffffffff1681526020019081526020015f205490507fffffffffffffffffffffffffffffffffffffffffffffffffffffffffffffffff811461241a5781811015612403576040517f08c379a00000000000000000000000000000000000000000000000000000000081526004016123fa9061356c565b60405180910390fd5b612419848484846124149190613292565b612091565b5b50505050565b5f5f905060018260ff1603612454576127106007600101548461244391906132c5565b61244d9190613333565b90506124a5565b60028260ff1603612484576127106007600201548461247391906132c5565b61247d9190613333565b90506124a4565b61271060075f01548461249791906132c5565b6124a19190613333565b90505b5b5f81846124b29190613292565b90505f612710601954846124c691906132c5565b6124d09190613333565b90505f8111156125015780601b5f8282546124eb91906133cb565b9250508190555080836124fe9190613292565b92505b8460055f8973ffffffffffffffffffffffffffffffffffffffff1673ffffffffffffffffffffffffffffffffffffffff1681526020019081526020015f205f82825461254d9190613292565b925050819055508160055f8873ffffffffffffffffffffffffffffffffffffffff1673ffffffffffffffffffffffffffffffffffffffff1681526020019081526020015f205f8282546125a091906133cb565b925050819055505f8311156126b0578260055f60076003015f9054906101000a900473ffffffffffffffffffffffffffffffffffffffff1673ffffffffffffffffffffffffffffffffffffffff1673ffffffffffffffffffffffffffffffffffffffff1681526020019081526020015f205f82825461261f91906133cb565b9250508190555060076003015f9054906101000a900473ffffffffffffffffffffffffffffffffffffffff1673ffffffffffffffffffffffffffffffffffffffff168773ffffffffffffffffffffffffffffffffffffffff167fddf252ad1be2c89b69c2b068fc378daa952ba7f163c4a11628f55a4df523b3ef856040516126a79190612e68565b60405180910390a35b8573ffffffffffffffffffffffffffffffffffffffff168773ffffffffffffffffffffffffffffffffffffffff167fddf252ad1be2c89b69c2b068fc378daa952ba7f163c4a11628f55a4df523b3ef8460405161270d9190612e68565b60405180910390a3601a54601b541015801561277657505f73ffffffffffffffffffffffffffffffffffffffff1660185f9054906101000a900473ffffffffffffffffffffffffffffffffffffffff1673ffffffffffffffffffffffffffffffffffffffff1614155b1561278457612783612ae1565b5b50505050505050565b5f73ffffffffffffffffffffffffffffffffffffffff168173ffffffffffffffffffffffffffffffffffffffff1603156128c8576127c9612b1d565b601f81905550426020819055505f73ffffffffffffffffffffffffffffffffffffffff168173ffffffffffffffffffffffffffffffffffffffff16146128c7575f670de0b6b3a7640000601d5f8473ffffffffffffffffffffffffffffffffffffffff1673ffffffffffffffffffffffffffffffffffffffff1681526020019081526020015f2054601f5461285e9190613292565b601c5f8573ffffffffffffffffffffffffffffffffffffffff1673ffffffffffffffffffffffffffffffffffffffff1681526020019081526020015f20546128a691906132c5565b6128b09190613333565b90505f8111156128c5576128c48282612b7f565b5b505b5b50565b8060055f8573ffffffffffffffffffffffffffffffffffffffff1673ffffffffffffffffffffffffffffffffffffffff1681526020019081526020015f2054101561294b576040517f08c379a0000000000000000000000000000000000000000000000000000000008152600401612942906135d4565b60405180910390fd5b8060055f8573ffffffffffffffffffffffffffffffffffffffff1673ffffffffffffffffffffffffffffffffffffffff1681526020019081526020015f205f8282546129979190613292565b925050819055508060055f8473ffffffffffffffffffffffffffffffffffffffff1673ffffffffffffffffffffffffffffffffffffffff1681526020019081526020015f205f8282546129ea91906133cb565b925050819055508173ffffffffffffffffffffffffffffffffffffffff168373ffffffffffffffffffffffffffffffffffffffff167fddf252ad1be2c89b69c2b068fc378daa952ba7f163c4a11628f55a4df523b3ef83604051612a4e9190612e68565b60405180910390a3505050565b5f81608001518260400151612a7091906133cb565b421015612a7f575f9050612adc565b5f826040015142612a909190613292565b90508260600151811115612aa657826060015190505b5f836060015182855f0151612abb91906132c5565b612ac59190613333565b9050836020015181612ad79190613292565b925050505b919050565b5f601b5490505f601b81905550612b1a3060185f9054906101000a900473ffffffffffffffffffffffffffffffffffffffff16836128cb565b50565b5f5f601e5403612b3157601f549050612b7c565b601e54670de0b6b3a764000060215460205442612b4e9190613292565b612b5891906132c5565b612b6291906132c5565b612b6c9190613333565b601f54612b7991906133cb565b90505b90565b60045481600354612b9091906133cb565b1115612bc8576040517fc30436e900000000000000000000000000000000000000000000000000000000815260040160405180910390fd5b8060035f828254612bd991906133cb565b925050819055508060055f8473ffffffffffffffffffffffffffffffffffffffff1673ffffffffffffffffffffffffffffffffffffffff1681526020019081526020015f205f828254612c2c91906133cb565b925050819055508173ffffffffffffffffffffffffffffffffffffffff165f73ffffffffffffffffffffffffffffffffffffffff167fddf252ad1be2c89b69c2b068fc378daa952ba7f163c4a11628f55a4df523b3ef83604051612c909190612e68565b60405180910390a35050565b5f5ffd5b5f73ffffffffffffffffffffffffffffffffffffffff82169050919050565b5f612cc982612ca0565b9050919050565b612cd981612cbf565b8114612ce3575f5ffd5b50565b5f81359050612cf481612cd0565b92915050565b5f60208284031215612d0f57612d0e612c9c565b5b5f612d1c84828501612ce6565b91505092915050565b5f8115159050919050565b612d3981612d25565b82525050565b5f602082019050612d525f830184612d30565b92915050565b5f81519050919050565b5f82825260208201905092915050565b8281835e5f83830152505050565b5f601f19601f8301169050919050565b5f612d9a82612d58565b612da48185612d62565b9350612db4818560208601612d72565b612dbd81612d80565b840191505092915050565b5f6020820190508181035f830152612de08184612d90565b905092915050565b5f819050919050565b612dfa81612de8565b8114612e04575f5ffd5b50565b5f81359050612e1581612df1565b92915050565b5f5f60408385031215612e3157612e30612c9c565b5b5f612e3e85828601612ce6565b9250506020612e4f85828601612e07565b9150509250929050565b612e6281612de8565b82525050565b5f602082019050612e7b5f830184612e59565b92915050565b612e8a81612cbf565b82525050565b5f60a082019050612ea35f830188612e59565b612eb06020830187612e59565b612ebd6040830186612e59565b612eca6060830185612e81565b612ed76080830184612d30565b9695505050505050565b5f5f5f60608486031215612ef857612ef7612c9c565b5b5f612f0586828701612ce6565b9350506020612f1686828701612ce6565b9250506040612f2786828701612e07565b9150509250925092565b5f60208284031215612f4657612f45612c9c565b5b5f612f5384828501612e07565b91505092915050565b5f60ff82169050919050565b612f7181612f5c565b82525050565b5f602082019050612f8a5f830184612f68565b92915050565b5f5f5f5f60808587031215612fa857612fa7612c9c565b5b5f612fb587828801612ce6565b9450506020612fc687828801612e07565b9350506040612fd787828801612e07565b9250506060612fe887828801612e07565b91505092959194509250565b5f60c0820190506130075f830189612e59565b6130146020830188612e59565b6130216040830187612e59565b61302e6060830186612e59565b61303b6080830185612e59565b61304860a0830184612d30565b979650505050505050565b5f6020820190506130665f830184612e81565b92915050565b5f5f6040838503121561308257613081612c9c565b5b5f61308f85828601612e07565b92505060206130a085828601612e07565b9150509250929050565b5f5f604083850312156130c0576130bf612c9c565b5b5f6130cd85828601612ce6565b92505060206130de85828601612ce6565b9150509250929050565b5f5f5f606084860312156130ff576130fe612c9c565b5b5f61310c86828701612e07565b935050602061311d86828701612e07565b925050604061312e86828701612e07565b9150509250925092565b7f4e487b71000000000000000000000000000000000000000000000000000000005f52602260045260245ffd5b5f600282049050600182168061317c57607f821691505b60208210810361318f5761318e613138565b5b50919050565b7f41646472657373206e6f742077686974656c69737465640000000000000000005f82015250565b5f6131c9601783612d62565b91506131d482613195565b602082019050919050565b5f6020820190508181035f8301526131f6816131bd565b9050919050565b7f496e76616c696420616d6f756e740000000000000000000000000000000000005f82015250565b5f613231600e83612d62565b915061323c826131fd565b602082019050919050565b5f6020820190508181035f83015261325e81613225565b9050919050565b7f4e487b71000000000000000000000000000000000000000000000000000000005f52601160045260245ffd5b5f61329c82612de8565b91506132a783612de8565b92508282039050818111156132bf576132be613265565b5b92915050565b5f6132cf82612de8565b91506132da83612de8565b92508282026132e881612de8565b915082820484148315176132ff576132fe613265565b5b5092915050565b7f4e487b71000000000000000000000000000000000000000000000000000000005f52601260045260245ffd5b5f61333d82612de8565b915061334883612de8565b92508261335857613357613306565b5b828204905092915050565b7f546f6f206d616e792076657374696e67207363686564756c65730000000000005f82015250565b5f613397601a83612d62565b91506133a282613363565b602082019050919050565b5f6020820190508181035f8301526133c48161338b565b9050919050565b5f6133d582612de8565b91506133e083612de8565b92508282019050808211156133f8576133f7613265565b5b92915050565b5f6040820190506134115f830185612e59565b61341e6020830184612e59565b9392505050565b7f4e487b71000000000000000000000000000000000000000000000000000000005f52603260045260245ffd5b7f4e6f20746f6b656e7320746f2072656c656173650000000000000000000000005f82015250565b5f613486601483612d62565b915061349182613452565b602082019050919050565b5f6020820190508181035f8301526134b38161347a565b9050919050565b7f43616e6e6f74207374616b6520300000000000000000000000000000000000005f82015250565b5f6134ee600e83612d62565b91506134f9826134ba565b602082019050919050565b5f6020820190508181035f83015261351b816134e2565b9050919050565b7f496e73756666696369656e7420616c6c6f77616e6365000000000000000000005f82015250565b5f613556601683612d62565b915061356182613522565b602082019050919050565b5f6020820190508181035f8301526135838161354a565b9050919050565b7f496e73756666696369656e742062616c616e63650000000000000000000000005f82015250565b5f6135be601483612d62565b91506135c98261358a565b602082019050919050565b5f6020820190508181035f8301526135eb816135b2565b905091905056fea2646970667358221220b30c3f49514029b82d1f6ddb1b8d21ed2b4174b5674c65dedea61effff265e5264736f6c634300081e0033",
					"opcodes": "PUSH1 0x80 PUSH1 0x40 MSTORE CALLVALUE DUP1 ISZERO PUSH2 0xF JUMPI PUSH0 PUSH0 REVERT JUMPDEST POP PUSH1 0x40 MLOAD PUSH2 0x4329 CODESIZE SUB DUP1 PUSH2 0x4329 DUP4 CODECOPY DUP2 DUP2 ADD PUSH1 0x40 MSTORE DUP2 ADD SWAP1 PUSH2 0x31 SWAP2 SWAP1 PUSH2 0x6CB JUMP JUMPDEST DUP10 PUSH0 SWAP1 DUP2 PUSH2 0x3F SWAP2 SWAP1 PUSH2 0x9E3 JUMP JUMPDEST POP DUP9 PUSH1 0x1 SWAP1 DUP2 PUSH2 0x4F SWAP2 SWAP1 PUSH2 0x9E3 JUMP JUMPDEST POP DUP8 PUSH1 0x2 PUSH0 PUSH2 0x100 EXP DUP2 SLOAD DUP2 PUSH1 0xFF MUL NOT AND SWAP1 DUP4 PUSH1 0xFF AND MUL OR SWAP1 SSTORE POP DUP8 PUSH1 0xA PUSH2 0x77 SWAP2 SWAP1 PUSH2 0xC0E JUMP JUMPDEST DUP7 PUSH2 0x82 SWAP2 SWAP1 PUSH2 0xC58 JUMP JUMPDEST PUSH1 0x4 DUP2 SWAP1 SSTORE POP DUP5 PUSH1 0xB PUSH0 PUSH2 0x100 EXP DUP2 SLOAD DUP2 PUSH20 0xFFFFFFFFFFFFFFFFFFFFFFFFFFFFFFFFFFFFFFFF MUL NOT AND SWAP1 DUP4 PUSH20 0xFFFFFFFFFFFFFFFFFFFFFFFFFFFFFFFFFFFFFFFF AND MUL OR SWAP1 SSTORE POP PUSH1 0x1 PUSH1 0xC PUSH0 DUP8 PUSH20 0xFFFFFFFFFFFFFFFFFFFFFFFFFFFFFFFFFFFFFFFF AND PUSH20 0xFFFFFFFFFFFFFFFFFFFFFFFFFFFFFFFFFFFFFFFF AND DUP2 MSTORE PUSH1 0x20 ADD SWAP1 DUP2 MSTORE PUSH1 0x20 ADD PUSH0 KECCAK256 PUSH0 PUSH2 0x100 EXP DUP2 SLOAD DUP2 PUSH1 0xFF MUL NOT AND SWAP1 DUP4 ISZERO ISZERO MUL OR SWAP1 SSTORE POP PUSH1 0x1 PUSH1 0xD PUSH0 DUP8 PUSH20 0xFFFFFFFFFFFFFFFFFFFFFFFFFFFFFFFFFFFFFFFF AND PUSH20 0xFFFFFFFFFFFFFFFFFFFFFFFFFFFFFFFFFFFFFFFF AND DUP2 MSTORE PUSH1 0x20 ADD SWAP1 DUP2 MSTORE PUSH1 0x20 ADD PUSH0 KECCAK256 PUSH0 PUSH2 0x100 EXP DUP2 SLOAD DUP2 PUSH1 0xFF MUL NOT AND SWAP1 DUP4 ISZERO ISZERO MUL OR SWAP1 SSTORE POP PUSH1 0x1 PUSH1 0xE PUSH0 DUP8 PUSH20 0xFFFFFFFFFFFFFFFFFFFFFFFFFFFFFFFFFFFFFFFF AND PUSH20 0xFFFFFFFFFFFFFFFFFFFFFFFFFFFFFFFFFFFFFFFF AND DUP2 MSTORE PUSH1 0x20 ADD SWAP1 DUP2 MSTORE PUSH1 0x20 ADD PUSH0 KECCAK256 PUSH0 PUSH2 0x100 EXP DUP2 SLOAD DUP2 PUSH1 0xFF MUL NOT AND SWAP1 DUP4 ISZERO ISZERO MUL OR SWAP1 SSTORE POP PUSH1 0x1 PUSH1 0xF PUSH0 DUP8 PUSH20 0xFFFFFFFFFFFFFFFFFFFFFFFFFFFFFFFFFFFFFFFF AND PUSH20 0xFFFFFFFFFFFFFFFFFFFFFFFFFFFFFFFFFFFFFFFF AND DUP2 MSTORE PUSH1 0x20 ADD SWAP1 DUP2 MSTORE PUSH1 0x20 ADD PUSH0 KECCAK256 PUSH0 PUSH2 0x100 EXP DUP2 SLOAD DUP2 PUSH1 0xFF MUL NOT AND SWAP1 DUP4 ISZERO ISZERO MUL OR SWAP1 SSTORE POP PUSH1 0x40 MLOAD DUP1 PUSH1 0xA0 ADD PUSH1 0x40 MSTORE DUP1 DUP5 DUP2 MSTORE PUSH1 0x20 ADD PUSH1 0x64 DUP2 MSTORE PUSH1 0x20 ADD PUSH1 0xC8 DUP2 MSTORE PUSH1 0x20 ADD DUP6 PUSH20 0xFFFFFFFFFFFFFFFFFFFFFFFFFFFFFFFFFFFFFFFF AND DUP2 MSTORE PUSH1 0x20 ADD PUSH1 0x1 ISZERO ISZERO DUP2 MSTORE POP PUSH1 0x7 PUSH0 DUP3 ADD MLOAD DUP2 PUSH0 ADD SSTORE PUSH1 0x20 DUP3 ADD MLOAD DUP2 PUSH1 0x1 ADD SSTORE PUSH1 0x40 DUP3 ADD MLOAD DUP2 PUSH1 0x2 ADD SSTORE PUSH1 0x60 DUP3 ADD MLOAD DUP2 PUSH1 0x3 ADD PUSH0 PUSH2 0x100 EXP DUP2 SLOAD DUP2 PUSH20 0xFFFFFFFFFFFFFFFFFFFFFFFFFFFFFFFFFFFFFFFF MUL NOT AND SWAP1 DUP4 PUSH20 0xFFFFFFFFFFFFFFFFFFFFFFFFFFFFFFFFFFFFFFFF AND MUL OR SWAP1 SSTORE POP PUSH1 0x80 DUP3 ADD MLOAD DUP2 PUSH1 0x3 ADD PUSH1 0x14 PUSH2 0x100 EXP DUP2 SLOAD DUP2 PUSH1 0xFF MUL NOT AND SWAP1 DUP4 ISZERO ISZERO MUL OR SWAP1 SSTORE POP SWAP1 POP POP DUP2 PUSH1 0x16 DUP2 SWAP1 SSTORE POP DUP1 PUSH1 0x17 DUP2 SWAP1 SSTORE POP PUSH1 0x1 PUSH1 0x15 PUSH0 DUP8 PUSH20 0xFFFFFFFFFFFFFFFFFFFFFFFFFFFFFFFFFFFFFFFF AND PUSH20 0xFFFFFFFFFFFFFFFFFFFFFFFFFFFFFFFFFFFFFFFF AND DUP2 MSTORE PUSH1 0x20 ADD SWAP1 DUP2 MSTORE PUSH1 0x20 ADD PUSH0 KECCAK256 PUSH0 PUSH2 0x100 EXP DUP2 SLOAD DUP2 PUSH1 0xFF MUL NOT AND SWAP1 DUP4 ISZERO ISZERO MUL OR SWAP1 SSTORE POP DUP8 PUSH1 0xA PUSH2 0x355 SWAP2 SWAP1 PUSH2 0xC0E JUMP JUMPDEST PUSH2 0x3E8 PUSH2 0x362 SWAP2 SWAP1 PUSH2 0xC58 JUMP JUMPDEST PUSH1 0x1A DUP2 SWAP1 SSTORE POP PUSH2 0x38F DUP6 DUP10 PUSH1 0xA PUSH2 0x379 SWAP2 SWAP1 PUSH2 0xC0E JUMP JUMPDEST DUP10 PUSH2 0x384 SWAP2 SWAP1 PUSH2 0xC58 JUMP JUMPDEST PUSH2 0x39E PUSH1 0x20 SHL PUSH1 0x20 SHR JUMP JUMPDEST POP POP POP POP POP POP POP POP POP POP PUSH2 0xCF4 JUMP JUMPDEST PUSH1 0x4 SLOAD DUP2 PUSH1 0x3 SLOAD PUSH2 0x3AF SWAP2 SWAP1 PUSH2 0xC99 JUMP JUMPDEST GT ISZERO PUSH2 0x3E7 JUMPI PUSH1 0x40 MLOAD PUSH32 0xC30436E900000000000000000000000000000000000000000000000000000000 DUP2 MSTORE PUSH1 0x4 ADD PUSH1 0x40 MLOAD DUP1 SWAP2 SUB SWAP1 REVERT JUMPDEST DUP1 PUSH1 0x3 PUSH0 DUP3 DUP3 SLOAD PUSH2 0x3F8 SWAP2 SWAP1 PUSH2 0xC99 JUMP JUMPDEST SWAP3 POP POP DUP2 SWAP1 SSTORE POP DUP1 PUSH1 0x5 PUSH0 DUP5 PUSH20 0xFFFFFFFFFFFFFFFFFFFFFFFFFFFFFFFFFFFFFFFF AND PUSH20 0xFFFFFFFFFFFFFFFFFFFFFFFFFFFFFFFFFFFFFFFF AND DUP2 MSTORE PUSH1 0x20 ADD SWAP1 DUP2 MSTORE PUSH1 0x20 ADD PUSH0 KECCAK256 PUSH0 DUP3 DUP3 SLOAD PUSH2 0x44B SWAP2 SWAP1 PUSH2 0xC99 JUMP JUMPDEST SWAP3 POP POP DUP2 SWAP1 SSTORE POP DUP2 PUSH20 0xFFFFFFFFFFFFFFFFFFFFFFFFFFFFFFFFFFFFFFFF AND PUSH0 PUSH20 0xFFFFFFFFFFFFFFFFFFFFFFFFFFFFFFFFFFFFFFFF AND PUSH32 0xDDF252AD1BE2C89B69C2B068FC378DAA952BA7F163C4A11628F55A4DF523B3EF DUP4 PUSH1 0x40 MLOAD PUSH2 0x4AF SWAP2 SWAP1 PUSH2 0xCDB JUMP JUMPDEST PUSH1 0x40 MLOAD DUP1 SWAP2 SUB SWAP1 LOG3 POP POP JUMP JUMPDEST PUSH0 PUSH1 0x40 MLOAD SWAP1 POP SWAP1 JUMP JUMPDEST PUSH0 PUSH0 REVERT JUMPDEST PUSH0 PUSH0 REVERT JUMPDEST PUSH0 PUSH0 REVERT JUMPDEST PUSH0 PUSH0 REVERT JUMPDEST PUSH0 PUSH1 0x1F NOT PUSH1 0x1F DUP4 ADD AND SWAP1 POP SWAP2 SWAP1 POP JUMP JUMPDEST PUSH32 0x4E487B7100000000000000000000000000000000000000000000000000000000 PUSH0 MSTORE PUSH1 0x41 PUSH1 0x4 MSTORE PUSH1 0x24 PUSH0 REVERT JUMPDEST PUSH2 0x51A DUP3 PUSH2 0x4D4 JUMP JUMPDEST DUP2 ADD DUP2 DUP2 LT PUSH8 0xFFFFFFFFFFFFFFFF DUP3 GT OR ISZERO PUSH2 0x539 JUMPI PUSH2 0x538 PUSH2 0x4E4 JUMP JUMPDEST JUMPDEST DUP1 PUSH1 0x40 MSTORE POP POP POP JUMP JUMPDEST PUSH0 PUSH2 0x54B PUSH2 0x4BB JUMP JUMPDEST SWAP1 POP PUSH2 0x557 DUP3 DUP3 PUSH2 0x511 JUMP JUMPDEST SWAP2 SWAP1 POP JUMP JUMPDEST PUSH0 PUSH8 0xFFFFFFFFFFFFFFFF DUP3 GT ISZERO PUSH2 0x576 JUMPI PUSH2 0x575 PUSH2 0x4E4 JUMP JUMPDEST JUMPDEST PUSH2 0x57F DUP3 PUSH2 0x4D4 JUMP JUMPDEST SWAP1 POP PUSH1 0x20 DUP2 ADD SWAP1 POP SWAP2 SWAP1 POP JUMP JUMPDEST DUP3 DUP2 DUP4 MCOPY PUSH0 DUP4 DUP4 ADD MSTORE POP POP POP JUMP JUMPDEST PUSH0 PUSH2 0x5AC PUSH2 0x5A7 DUP5 PUSH2 0x55C JUMP JUMPDEST PUSH2 0x542 JUMP JUMPDEST SWAP1 POP DUP3 DUP2 MSTORE PUSH1 0x20 DUP2 ADD DUP5 DUP5 DUP5 ADD GT ISZERO PUSH2 0x5C8 JUMPI PUSH2 0x5C7 PUSH2 0x4D0 JUMP JUMPDEST JUMPDEST PUSH2 0x5D3 DUP5 DUP3 DUP6 PUSH2 0x58C JUMP JUMPDEST POP SWAP4 SWAP3 POP POP POP JUMP JUMPDEST PUSH0 DUP3 PUSH1 0x1F DUP4 ADD SLT PUSH2 0x5EF JUMPI PUSH2 0x5EE PUSH2 0x4CC JUMP JUMPDEST JUMPDEST DUP2 MLOAD PUSH2 0x5FF DUP5 DUP3 PUSH1 0x20 DUP7 ADD PUSH2 0x59A JUMP JUMPDEST SWAP2 POP POP SWAP3 SWAP2 POP POP JUMP JUMPDEST PUSH0 PUSH1 0xFF DUP3 AND SWAP1 POP SWAP2 SWAP1 POP JUMP JUMPDEST PUSH2 0x61D DUP2 PUSH2 0x608 JUMP JUMPDEST DUP2 EQ PUSH2 0x627 JUMPI PUSH0 PUSH0 REVERT JUMPDEST POP JUMP JUMPDEST PUSH0 DUP2 MLOAD SWAP1 POP PUSH2 0x638 DUP2 PUSH2 0x614 JUMP JUMPDEST SWAP3 SWAP2 POP POP JUMP JUMPDEST PUSH0 DUP2 SWAP1 POP SWAP2 SWAP1 POP JUMP JUMPDEST PUSH2 0x650 DUP2 PUSH2 0x63E JUMP JUMPDEST DUP2 EQ PUSH2 0x65A JUMPI PUSH0 PUSH0 REVERT JUMPDEST POP JUMP JUMPDEST PUSH0 DUP2 MLOAD SWAP1 POP PUSH2 0x66B DUP2 PUSH2 0x647 JUMP JUMPDEST SWAP3 SWAP2 POP POP JUMP JUMPDEST PUSH0 PUSH20 0xFFFFFFFFFFFFFFFFFFFFFFFFFFFFFFFFFFFFFFFF DUP3 AND SWAP1 POP SWAP2 SWAP1 POP JUMP JUMPDEST PUSH0 PUSH2 0x69A DUP3 PUSH2 0x671 JUMP JUMPDEST SWAP1 POP SWAP2 SWAP1 POP JUMP JUMPDEST PUSH2 0x6AA DUP2 PUSH2 0x690 JUMP JUMPDEST DUP2 EQ PUSH2 0x6B4 JUMPI PUSH0 PUSH0 REVERT JUMPDEST POP JUMP JUMPDEST PUSH0 DUP2 MLOAD SWAP1 POP PUSH2 0x6C5 DUP2 PUSH2 0x6A1 JUMP JUMPDEST SWAP3 SWAP2 POP POP JUMP JUMPDEST PUSH0 PUSH0 PUSH0 PUSH0 PUSH0 PUSH0 PUSH0 PUSH0 PUSH0 PUSH0 PUSH2 0x140 DUP12 DUP14 SUB SLT ISZERO PUSH2 0x6EA JUMPI PUSH2 0x6E9 PUSH2 0x4C4 JUMP JUMPDEST JUMPDEST PUSH0 DUP12 ADD MLOAD PUSH8 0xFFFFFFFFFFFFFFFF DUP2 GT ISZERO PUSH2 0x707 JUMPI PUSH2 0x706 PUSH2 0x4C8 JUMP JUMPDEST JUMPDEST PUSH2 0x713 DUP14 DUP3 DUP15 ADD PUSH2 0x5DB JUMP JUMPDEST SWAP11 POP POP PUSH1 0x20 DUP12 ADD MLOAD PUSH8 0xFFFFFFFFFFFFFFFF DUP2 GT ISZERO PUSH2 0x734 JUMPI PUSH2 0x733 PUSH2 0x4C8 JUMP JUMPDEST JUMPDEST PUSH2 0x740 DUP14 DUP3 DUP15 ADD PUSH2 0x5DB JUMP JUMPDEST SWAP10 POP POP PUSH1 0x40 PUSH2 0x751 DUP14 DUP3 DUP15 ADD PUSH2 0x62A JUMP JUMPDEST SWAP9 POP POP PUSH1 0x60 PUSH2 0x762 DUP14 DUP3 DUP15 ADD PUSH2 0x65D JUMP JUMPDEST SWAP8 POP POP PUSH1 0x80 PUSH2 0x773 DUP14 DUP3 DUP15 ADD PUSH2 0x65D JUMP JUMPDEST SWAP7 POP POP PUSH1 0xA0 PUSH2 0x784 DUP14 DUP3 DUP15 ADD PUSH2 0x6B7 JUMP JUMPDEST SWAP6 POP POP PUSH1 0xC0 PUSH2 0x795 DUP14 DUP3 DUP15 ADD PUSH2 0x6B7 JUMP JUMPDEST SWAP5 POP POP PUSH1 0xE0 PUSH2 0x7A6 DUP14 DUP3 DUP15 ADD PUSH2 0x65D JUMP JUMPDEST SWAP4 POP POP PUSH2 0x100 PUSH2 0x7B8 DUP14 DUP3 DUP15 ADD PUSH2 0x65D JUMP JUMPDEST SWAP3 POP POP PUSH2 0x120 PUSH2 0x7CA DUP14 DUP3 DUP15 ADD PUSH2 0x65D JUMP JUMPDEST SWAP2 POP POP SWAP3 SWAP6 SWAP9 SWAP12 SWAP2 SWAP5 SWAP8 SWAP11 POP SWAP3 SWAP6 SWAP9 POP JUMP JUMPDEST PUSH0 DUP2 MLOAD SWAP1 POP SWAP2 SWAP1 POP JUMP JUMPDEST PUSH32 0x4E487B7100000000000000000000000000000000000000000000000000000000 PUSH0 MSTORE PUSH1 0x22 PUSH1 0x4 MSTORE PUSH1 0x24 PUSH0 REVERT JUMPDEST PUSH0 PUSH1 0x2 DUP3 DIV SWAP1 POP PUSH1 0x1 DUP3 AND DUP1 PUSH2 0x82A JUMPI PUSH1 0x7F DUP3 AND SWAP2 POP JUMPDEST PUSH1 0x20 DUP3 LT DUP2 SUB PUSH2 0x83D JUMPI PUSH2 0x83C PUSH2 0x7E6 JUMP JUMPDEST JUMPDEST POP SWAP2 SWAP1 POP JUMP JUMPDEST PUSH0 DUP2 SWAP1 POP DUP2 PUSH0 MSTORE PUSH1 0x20 PUSH0 KECCAK256 SWAP1 POP SWAP2 SWAP1 POP JUMP JUMPDEST PUSH0 PUSH1 0x20 PUSH1 0x1F DUP4 ADD DIV SWAP1 POP SWAP2 SWAP1 POP JUMP JUMPDEST PUSH0 DUP3 DUP3 SHL SWAP1 POP SWAP3 SWAP2 POP POP JUMP JUMPDEST PUSH0 PUSH1 0x8 DUP4 MUL PUSH2 0x89F PUSH32 0xFFFFFFFFFFFFFFFFFFFFFFFFFFFFFFFFFFFFFFFFFFFFFFFFFFFFFFFFFFFFFFFF DUP3 PUSH2 0x864 JUMP JUMPDEST PUSH2 0x8A9 DUP7 DUP4 PUSH2 0x864 JUMP JUMPDEST SWAP6 POP DUP1 NOT DUP5 AND SWAP4 POP DUP1 DUP7 AND DUP5 OR SWAP3 POP POP POP SWAP4 SWAP3 POP POP POP JUMP JUMPDEST PUSH0 DUP2 SWAP1 POP SWAP2 SWAP1 POP JUMP JUMPDEST PUSH0 PUSH2 0x8E4 PUSH2 0x8DF PUSH2 0x8DA DUP5 PUSH2 0x63E JUMP JUMPDEST PUSH2 0x8C1 JUMP JUMPDEST PUSH2 0x63E JUMP JUMPDEST SWAP1 POP SWAP2 SWAP1 POP JUMP JUMPDEST PUSH0 DUP2 SWAP1 POP SWAP2 SWAP1 POP JUMP JUMPDEST PUSH2 0x8FD DUP4 PUSH2 0x8CA JUMP JUMPDEST PUSH2 0x911 PUSH2 0x909 DUP3 PUSH2 0x8EB JUMP JUMPDEST DUP5 DUP5 SLOAD PUSH2 0x870 JUMP JUMPDEST DUP3 SSTORE POP POP POP POP JUMP JUMPDEST PUSH0 PUSH0 SWAP1 POP SWAP1 JUMP JUMPDEST PUSH2 0x928 PUSH2 0x919 JUMP JUMPDEST PUSH2 0x933 DUP2 DUP5 DUP5 PUSH2 0x8F4 JUMP JUMPDEST POP POP POP JUMP JUMPDEST JUMPDEST DUP2 DUP2 LT ISZERO PUSH2 0x956 JUMPI PUSH2 0x94B PUSH0 DUP3 PUSH2 0x920 JUMP JUMPDEST PUSH1 0x1 DUP2 ADD SWAP1 POP PUSH2 0x939 JUMP JUMPDEST POP POP JUMP JUMPDEST PUSH1 0x1F DUP3 GT ISZERO PUSH2 0x99B JUMPI PUSH2 0x96C DUP2 PUSH2 0x843 JUMP JUMPDEST PUSH2 0x975 DUP5 PUSH2 0x855 JUMP JUMPDEST DUP2 ADD PUSH1 0x20 DUP6 LT ISZERO PUSH2 0x984 JUMPI DUP2 SWAP1 POP JUMPDEST PUSH2 0x998 PUSH2 0x990 DUP6 PUSH2 0x855 JUMP JUMPDEST DUP4 ADD DUP3 PUSH2 0x938 JUMP JUMPDEST POP POP JUMPDEST POP POP POP JUMP JUMPDEST PUSH0 DUP3 DUP3 SHR SWAP1 POP SWAP3 SWAP2 POP POP JUMP JUMPDEST PUSH0 PUSH2 0x9BB PUSH0 NOT DUP5 PUSH1 0x8 MUL PUSH2 0x9A0 JUMP JUMPDEST NOT DUP1 DUP4 AND SWAP2 POP POP SWAP3 SWAP2 POP POP JUMP JUMPDEST PUSH0 PUSH2 0x9D3 DUP4 DUP4 PUSH2 0x9AC JUMP JUMPDEST SWAP2 POP DUP3 PUSH1 0x2 MUL DUP3 OR SWAP1 POP SWAP3 SWAP2 POP POP JUMP JUMPDEST PUSH2 0x9EC DUP3 PUSH2 0x7DC JUMP JUMPDEST PUSH8 0xFFFFFFFFFFFFFFFF DUP2 GT ISZERO PUSH2 0xA05 JUMPI PUSH2 0xA04 PUSH2 0x4E4 JUMP JUMPDEST JUMPDEST PUSH2 0xA0F DUP3 SLOAD PUSH2 0x813 JUMP JUMPDEST PUSH2 0xA1A DUP3 DUP3 DUP6 PUSH2 0x95A JUMP JUMPDEST PUSH0 PUSH1 0x20 SWAP1 POP PUSH1 0x1F DUP4 GT PUSH1 0x1 DUP2 EQ PUSH2 0xA4B JUMPI PUSH0 DUP5 ISZERO PUSH2 0xA39 JUMPI DUP3 DUP8 ADD MLOAD SWAP1 POP JUMPDEST PUSH2 0xA43 DUP6 DUP3 PUSH2 0x9C8 JUMP JUMPDEST DUP7 SSTORE POP PUSH2 0xAAA JUMP JUMPDEST PUSH1 0x1F NOT DUP5 AND PUSH2 0xA59 DUP7 PUSH2 0x843 JUMP JUMPDEST PUSH0 JUMPDEST DUP3 DUP2 LT ISZERO PUSH2 0xA80 JUMPI DUP5 DUP10 ADD MLOAD DUP3 SSTORE PUSH1 0x1 DUP3 ADD SWAP2 POP PUSH1 0x20 DUP6 ADD SWAP5 POP PUSH1 0x20 DUP2 ADD SWAP1 POP PUSH2 0xA5B JUMP JUMPDEST DUP7 DUP4 LT ISZERO PUSH2 0xA9D JUMPI DUP5 DUP10 ADD MLOAD PUSH2 0xA99 PUSH1 0x1F DUP10 AND DUP3 PUSH2 0x9AC JUMP JUMPDEST DUP4 SSTORE POP JUMPDEST PUSH1 0x1 PUSH1 0x2 DUP9 MUL ADD DUP9 SSTORE POP POP POP JUMPDEST POP POP POP POP POP POP JUMP JUMPDEST PUSH32 0x4E487B7100000000000000000000000000000000000000000000000000000000 PUSH0 MSTORE PUSH1 0x11 PUSH1 0x4 MSTORE PUSH1 0x24 PUSH0 REVERT JUMPDEST PUSH0 DUP2 PUSH1 0x1 SHR SWAP1 POP SWAP2 SWAP1 POP JUMP JUMPDEST PUSH0 PUSH0 DUP3 SWAP2 POP DUP4 SWAP1 POP JUMPDEST PUSH1 0x1 DUP6 GT ISZERO PUSH2 0xB34 JUMPI DUP1 DUP7 DIV DUP2 GT ISZERO PUSH2 0xB10 JUMPI PUSH2 0xB0F PUSH2 0xAB2 JUMP JUMPDEST JUMPDEST PUSH1 0x1 DUP6 AND ISZERO PUSH2 0xB1F JUMPI DUP1 DUP3 MUL SWAP2 POP JUMPDEST DUP1 DUP2 MUL SWAP1 POP PUSH2 0xB2D DUP6 PUSH2 0xADF JUMP JUMPDEST SWAP5 POP PUSH2 0xAF4 JUMP JUMPDEST SWAP5 POP SWAP5 SWAP3 POP POP POP JUMP JUMPDEST PUSH0 DUP3 PUSH2 0xB4C JUMPI PUSH1 0x1 SWAP1 POP PUSH2 0xC07 JUMP JUMPDEST DUP2 PUSH2 0xB59 JUMPI PUSH0 SWAP1 POP PUSH2 0xC07 JUMP JUMPDEST DUP2 PUSH1 0x1 DUP2 EQ PUSH2 0xB6F JUMPI PUSH1 0x2 DUP2 EQ PUSH2 0xB79 JUMPI PUSH2 0xBA8 JUMP JUMPDEST PUSH1 0x1 SWAP2 POP POP PUSH2 0xC07 JUMP JUMPDEST PUSH1 0xFF DUP5 GT ISZERO PUSH2 0xB8B JUMPI PUSH2 0xB8A PUSH2 0xAB2 JUMP JUMPDEST JUMPDEST DUP4 PUSH1 0x2 EXP SWAP2 POP DUP5 DUP3 GT ISZERO PUSH2 0xBA2 JUMPI PUSH2 0xBA1 PUSH2 0xAB2 JUMP JUMPDEST JUMPDEST POP PUSH2 0xC07 JUMP JUMPDEST POP PUSH1 0x20 DUP4 LT PUSH2 0x133 DUP4 LT AND PUSH1 0x4E DUP5 LT PUSH1 0xB DUP5 LT AND OR ISZERO PUSH2 0xBDD JUMPI DUP3 DUP3 EXP SWAP1 POP DUP4 DUP2 GT ISZERO PUSH2 0xBD8 JUMPI PUSH2 0xBD7 PUSH2 0xAB2 JUMP JUMPDEST JUMPDEST PUSH2 0xC07 JUMP JUMPDEST PUSH2 0xBEA DUP5 DUP5 DUP5 PUSH1 0x1 PUSH2 0xAEB JUMP JUMPDEST SWAP3 POP SWAP1 POP DUP2 DUP5 DIV DUP2 GT ISZERO PUSH2 0xC01 JUMPI PUSH2 0xC00 PUSH2 0xAB2 JUMP JUMPDEST JUMPDEST DUP2 DUP2 MUL SWAP1 POP JUMPDEST SWAP4 SWAP3 POP POP POP JUMP JUMPDEST PUSH0 PUSH2 0xC18 DUP3 PUSH2 0x63E JUMP JUMPDEST SWAP2 POP PUSH2 0xC23 DUP4 PUSH2 0x608 JUMP JUMPDEST SWAP3 POP PUSH2 0xC50 PUSH32 0xFFFFFFFFFFFFFFFFFFFFFFFFFFFFFFFFFFFFFFFFFFFFFFFFFFFFFFFFFFFFFFFF DUP5 DUP5 PUSH2 0xB3D JUMP JUMPDEST SWAP1 POP SWAP3 SWAP2 POP POP JUMP JUMPDEST PUSH0 PUSH2 0xC62 DUP3 PUSH2 0x63E JUMP JUMPDEST SWAP2 POP PUSH2 0xC6D DUP4 PUSH2 0x63E JUMP JUMPDEST SWAP3 POP DUP3 DUP3 MUL PUSH2 0xC7B DUP2 PUSH2 0x63E JUMP JUMPDEST SWAP2 POP DUP3 DUP3 DIV DUP5 EQ DUP4 ISZERO OR PUSH2 0xC92 JUMPI PUSH2 0xC91 PUSH2 0xAB2 JUMP JUMPDEST JUMPDEST POP SWAP3 SWAP2 POP POP JUMP JUMPDEST PUSH0 PUSH2 0xCA3 DUP3 PUSH2 0x63E JUMP JUMPDEST SWAP2 POP PUSH2 0xCAE DUP4 PUSH2 0x63E JUMP JUMPDEST SWAP3 POP DUP3 DUP3 ADD SWAP1 POP DUP1 DUP3 GT ISZERO PUSH2 0xCC6 JUMPI PUSH2 0xCC5 PUSH2 0xAB2 JUMP JUMPDEST JUMPDEST SWAP3 SWAP2 POP POP JUMP JUMPDEST PUSH2 0xCD5 DUP2 PUSH2 0x63E JUMP JUMPDEST DUP3 MSTORE POP POP JUMP JUMPDEST PUSH0 PUSH1 0x20 DUP3 ADD SWAP1 POP PUSH2 0xCEE PUSH0 DUP4 ADD DUP5 PUSH2 0xCCC JUMP JUMPDEST SWAP3 SWAP2 POP POP JUMP JUMPDEST PUSH2 0x3628 DUP1 PUSH2 0xD01 PUSH0 CODECOPY PUSH0 RETURN INVALID PUSH1 0x80 PUSH1 0x40 MSTORE CALLVALUE DUP1 ISZERO PUSH2 0xF JUMPI PUSH0 PUSH0 REVERT JUMPDEST POP PUSH1 0x4 CALLDATASIZE LT PUSH2 0x267 JUMPI PUSH0 CALLDATALOAD PUSH1 0xE0 SHR DUP1 PUSH4 0x7D2AEB8A GT PUSH2 0x14F JUMPI DUP1 PUSH4 0xC415B95C GT PUSH2 0xC1 JUMPI DUP1 PUSH4 0xDBAC26E9 GT PUSH2 0x85 JUMPI DUP1 PUSH4 0xDBAC26E9 EQ PUSH2 0x794 JUMPI DUP1 PUSH4 0xDD62ED3E EQ PUSH2 0x7C4 JUMPI DUP1 PUSH4 0xDF136D65 EQ PUSH2 0x7F4 JUMPI DUP1 PUSH4 0xE5782FD5 EQ PUSH2 0x812 JUMPI DUP1 PUSH4 0xEF897F07 EQ PUSH2 0x82E JUMPI DUP1 PUSH4 0xF46ECCC4 EQ PUSH2 0x85E JUMPI PUSH2 0x267 JUMP JUMPDEST DUP1 PUSH4 0xC415B95C EQ PUSH2 0x6EC JUMPI DUP1 PUSH4 0xC891571C EQ PUSH2 0x70A JUMPI DUP1 PUSH4 0xC8F33C91 EQ PUSH2 0x728 JUMPI DUP1 PUSH4 0xD5ABEB01 EQ PUSH2 0x746 JUMPI DUP1 PUSH4 0xD936547E EQ PUSH2 0x764 JUMPI PUSH2 0x267 JUMP JUMPDEST DUP1 PUSH4 0x9E447FC6 GT PUSH2 0x113 JUMPI DUP1 PUSH4 0x9E447FC6 EQ PUSH2 0x606 JUMPI DUP1 PUSH4 0xA2E59F57 EQ PUSH2 0x622 JUMPI DUP1 PUSH4 0xA694FC3A EQ PUSH2 0x640 JUMPI DUP1 PUSH4 0xA9059CBB EQ PUSH2 0x65C JUMPI DUP1 PUSH4 0xAEA29B84 EQ PUSH2 0x68C JUMPI DUP1 PUSH4 0xB13E4A9D EQ PUSH2 0x6BC JUMPI PUSH2 0x267 JUMP JUMPDEST DUP1 PUSH4 0x7D2AEB8A EQ PUSH2 0x572 JUMPI DUP1 PUSH4 0x817B1CD2 EQ PUSH2 0x58E JUMPI DUP1 PUSH4 0x8DA5CB5B EQ PUSH2 0x5AC JUMPI DUP1 PUSH4 0x95D89B41 EQ PUSH2 0x5CA JUMPI DUP1 PUSH4 0x98118CB4 EQ PUSH2 0x5E8 JUMPI PUSH2 0x267 JUMP JUMPDEST DUP1 PUSH4 0x429B62E5 GT PUSH2 0x1E8 JUMPI DUP1 PUSH4 0x63B8AE72 GT PUSH2 0x1AC JUMPI DUP1 PUSH4 0x63B8AE72 EQ PUSH2 0x4B0 JUMPI DUP1 PUSH4 0x665A11CA EQ PUSH2 0x4CC JUMPI DUP1 PUSH4 0x66C21A12 EQ PUSH2 0x4EA JUMPI DUP1 PUSH4 0x70A08231 EQ PUSH2 0x508 JUMPI DUP1 PUSH4 0x7B0A47EE EQ PUSH2 0x538 JUMPI DUP1 PUSH4 0x7C97E93D EQ PUSH2 0x556 JUMPI PUSH2 0x267 JUMP JUMPDEST DUP1 PUSH4 0x429B62E5 EQ PUSH2 0x3CD JUMPI DUP1 PUSH4 0x45626BD6 EQ PUSH2 0x3FD JUMPI DUP1 PUSH4 0x51FB012D EQ PUSH2 0x432 JUMPI DUP1 PUSH4 0x5873EB9B EQ PUSH2 0x450 JUMPI DUP1 PUSH4 0x60217267 EQ PUSH2 0x480 JUMPI PUSH2 0x267 JUMP JUMPDEST DUP1 PUSH4 0x1E5EB1D0 GT PUSH2 0x22F JUMPI DUP1 PUSH4 0x1E5EB1D0 EQ PUSH2 0x325 JUMPI DUP1 PUSH4 0x23B872DD EQ PUSH2 0x347 JUMPI DUP1 PUSH4 0x2E17DE78 EQ PUSH2 0x377 JUMPI DUP1 PUSH4 0x313CE567 EQ PUSH2 0x393 JUMPI DUP1 PUSH4 0x3F4E8E80 EQ PUSH2 0x3B1 JUMPI PUSH2 0x267 JUMP JUMPDEST DUP1 PUSH4 0x3D41E0E EQ PUSH2 0x26B JUMPI DUP1 PUSH4 0x6FDDE03 EQ PUSH2 0x29B JUMPI DUP1 PUSH4 0x95EA7B3 EQ PUSH2 0x2B9 JUMPI DUP1 PUSH4 0x99B17ED EQ PUSH2 0x2E9 JUMPI DUP1 PUSH4 0x18160DDD EQ PUSH2 0x307 JUMPI JUMPDEST PUSH0 PUSH0 REVERT JUMPDEST PUSH2 0x285 PUSH1 0x4 DUP1 CALLDATASIZE SUB DUP2 ADD SWAP1 PUSH2 0x280 SWAP2 SWAP1 PUSH2 0x2CFA JUMP JUMPDEST PUSH2 0x88E JUMP JUMPDEST PUSH1 0x40 MLOAD PUSH2 0x292 SWAP2 SWAP1 PUSH2 0x2D3F JUMP JUMPDEST PUSH1 0x40 MLOAD DUP1 SWAP2 SUB SWAP1 RETURN JUMPDEST PUSH2 0x2A3 PUSH2 0x8AB JUMP JUMPDEST PUSH1 0x40 MLOAD PUSH2 0x2B0 SWAP2 SWAP1 PUSH2 0x2DC8 JUMP JUMPDEST PUSH1 0x40 MLOAD DUP1 SWAP2 SUB SWAP1 RETURN JUMPDEST PUSH2 0x2D3 PUSH1 0x4 DUP1 CALLDATASIZE SUB DUP2 ADD SWAP1 PUSH2 0x2CE SWAP2 SWAP1 PUSH2 0x2E1B JUMP JUMPDEST PUSH2 0x936 JUMP JUMPDEST PUSH1 0x40 MLOAD PUSH2 0x2E0 SWAP2 SWAP1 PUSH2 0x2D3F JUMP JUMPDEST PUSH1 0x40 MLOAD DUP1 SWAP2 SUB SWAP1 RETURN JUMPDEST PUSH2 0x2F1 PUSH2 0x94C JUMP JUMPDEST PUSH1 0x40 MLOAD PUSH2 0x2FE SWAP2 SWAP1 PUSH2 0x2E68 JUMP JUMPDEST PUSH1 0x40 MLOAD DUP1 SWAP2 SUB SWAP1 RETURN JUMPDEST PUSH2 0x30F PUSH2 0x952 JUMP JUMPDEST PUSH1 0x40 MLOAD PUSH2 0x31C SWAP2 SWAP1 PUSH2 0x2E68 JUMP JUMPDEST PUSH1 0x40 MLOAD DUP1 SWAP2 SUB SWAP1 RETURN JUMPDEST PUSH2 0x32D PUSH2 0x958 JUMP JUMPDEST PUSH1 0x40 MLOAD PUSH2 0x33E SWAP6 SWAP5 SWAP4 SWAP3 SWAP2 SWAP1 PUSH2 0x2E90 JUMP JUMPDEST PUSH1 0x40 MLOAD DUP1 SWAP2 SUB SWAP1 RETURN JUMPDEST PUSH2 0x361 PUSH1 0x4 DUP1 CALLDATASIZE SUB DUP2 ADD SWAP1 PUSH2 0x35C SWAP2 SWAP1 PUSH2 0x2EE1 JUMP JUMPDEST PUSH2 0x9A7 JUMP JUMPDEST PUSH1 0x40 MLOAD PUSH2 0x36E SWAP2 SWAP1 PUSH2 0x2D3F JUMP JUMPDEST PUSH1 0x40 MLOAD DUP1 SWAP2 SUB SWAP1 RETURN JUMPDEST PUSH2 0x391 PUSH1 0x4 DUP1 CALLDATASIZE SUB DUP2 ADD SWAP1 PUSH2 0x38C SWAP2 SWAP1 PUSH2 0x2F31 JUMP JUMPDEST PUSH2 0xD4C JUMP JUMPDEST STOP JUMPDEST PUSH2 0x39B PUSH2 0xEF8 JUMP JUMPDEST PUSH1 0x40 MLOAD PUSH2 0x3A8 SWAP2 SWAP1 PUSH2 0x2F77 JUMP JUMPDEST PUSH1 0x40 MLOAD DUP1 SWAP2 SUB SWAP1 RETURN JUMPDEST PUSH2 0x3CB PUSH1 0x4 DUP1 CALLDATASIZE SUB DUP2 ADD SWAP1 PUSH2 0x3C6 SWAP2 SWAP1 PUSH2 0x2F90 JUMP JUMPDEST PUSH2 0xF0A JUMP JUMPDEST STOP JUMPDEST PUSH2 0x3E7 PUSH1 0x4 DUP1 CALLDATASIZE SUB DUP2 ADD SWAP1 PUSH2 0x3E2 SWAP2 SWAP1 PUSH2 0x2CFA JUMP JUMPDEST PUSH2 0x1266 JUMP JUMPDEST PUSH1 0x40 MLOAD PUSH2 0x3F4 SWAP2 SWAP1 PUSH2 0x2D3F JUMP JUMPDEST PUSH1 0x40 MLOAD DUP1 SWAP2 SUB SWAP1 RETURN JUMPDEST PUSH2 0x417 PUSH1 0x4 DUP1 CALLDATASIZE SUB DUP2 ADD SWAP1 PUSH2 0x412 SWAP2 SWAP1 PUSH2 0x2E1B JUMP JUMPDEST PUSH2 0x1283 JUMP JUMPDEST PUSH1 0x40 MLOAD PUSH2 0x429 SWAP7 SWAP6 SWAP5 SWAP4 SWAP3 SWAP2 SWAP1 PUSH2 0x2FF4 JUMP JUMPDEST PUSH1 0x40 MLOAD DUP1 SWAP2 SUB SWAP1 RETURN JUMPDEST PUSH2 0x43A PUSH2 0x12E1 JUMP JUMPDEST PUSH1 0x40 MLOAD PUSH2 0x447 SWAP2 SWAP1 PUSH2 0x2D3F JUMP JUMPDEST PUSH1 0x40 MLOAD DUP1 SWAP2 SUB SWAP1 RETURN JUMPDEST PUSH2 0x46A PUSH1 0x4 DUP1 CALLDATASIZE SUB DUP2 ADD SWAP1 PUSH2 0x465 SWAP2 SWAP1 PUSH2 0x2CFA JUMP JUMPDEST PUSH2 0x12F3 JUMP JUMPDEST PUSH1 0x40 MLOAD PUSH2 0x477 SWAP2 SWAP1 PUSH2 0x2E68 JUMP JUMPDEST PUSH1 0x40 MLOAD DUP1 SWAP2 SUB SWAP1 RETURN JUMPDEST PUSH2 0x49A PUSH1 0x4 DUP1 CALLDATASIZE SUB DUP2 ADD SWAP1 PUSH2 0x495 SWAP2 SWAP1 PUSH2 0x2CFA JUMP JUMPDEST PUSH2 0x1308 JUMP JUMPDEST PUSH1 0x40 MLOAD PUSH2 0x4A7 SWAP2 SWAP1 PUSH2 0x2E68 JUMP JUMPDEST PUSH1 0x40 MLOAD DUP1 SWAP2 SUB SWAP1 RETURN JUMPDEST PUSH2 0x4CA PUSH1 0x4 DUP1 CALLDATASIZE SUB DUP2 ADD SWAP1 PUSH2 0x4C5 SWAP2 SWAP1 PUSH2 0x2E1B JUMP JUMPDEST PUSH2 0x131D JUMP JUMPDEST STOP JUMPDEST PUSH2 0x4D4 PUSH2 0x1443 JUMP JUMPDEST PUSH1 0x40 MLOAD PUSH2 0x4E1 SWAP2 SWAP1 PUSH2 0x3053 JUMP JUMPDEST PUSH1 0x40 MLOAD DUP1 SWAP2 SUB SWAP1 RETURN JUMPDEST PUSH2 0x4F2 PUSH2 0x1468 JUMP JUMPDEST PUSH1 0x40 MLOAD PUSH2 0x4FF SWAP2 SWAP1 PUSH2 0x2E68 JUMP JUMPDEST PUSH1 0x40 MLOAD DUP1 SWAP2 SUB SWAP1 RETURN JUMPDEST PUSH2 0x522 PUSH1 0x4 DUP1 CALLDATASIZE SUB DUP2 ADD SWAP1 PUSH2 0x51D SWAP2 SWAP1 PUSH2 0x2CFA JUMP JUMPDEST PUSH2 0x146E JUMP JUMPDEST PUSH1 0x40 MLOAD PUSH2 0x52F SWAP2 SWAP1 PUSH2 0x2E68 JUMP JUMPDEST PUSH1 0x40 MLOAD DUP1 SWAP2 SUB SWAP1 RETURN JUMPDEST PUSH2 0x540 PUSH2 0x14B4 JUMP JUMPDEST PUSH1 0x40 MLOAD PUSH2 0x54D SWAP2 SWAP1 PUSH2 0x2E68 JUMP JUMPDEST PUSH1 0x40 MLOAD DUP1 SWAP2 SUB SWAP1 RETURN JUMPDEST PUSH2 0x570 PUSH1 0x4 DUP1 CALLDATASIZE SUB DUP2 ADD SWAP1 PUSH2 0x56B SWAP2 SWAP1 PUSH2 0x306C JUMP JUMPDEST PUSH2 0x14BA JUMP JUMPDEST STOP JUMPDEST PUSH2 0x58C PUSH1 0x4 DUP1 CALLDATASIZE SUB DUP2 ADD SWAP1 PUSH2 0x587 SWAP2 SWAP1 PUSH2 0x2F31 JUMP JUMPDEST PUSH2 0x15A7 JUMP JUMPDEST STOP JUMPDEST PUSH2 0x596 PUSH2 0x17BB JUMP JUMPDEST PUSH1 0x40 MLOAD PUSH2 0x5A3 SWAP2 SWAP1 PUSH2 0x2E68 JUMP JUMPDEST PUSH1 0x40 MLOAD DUP1 SWAP2 SUB SWAP1 RETURN JUMPDEST PUSH2 0x5B4 PUSH2 0x17C1 JUMP JUMPDEST PUSH1 0x40 MLOAD PUSH2 0x5C1 SWAP2 SWAP1 PUSH2 0x3053 JUMP JUMPDEST PUSH1 0x40 MLOAD DUP1 SWAP2 SUB SWAP1 RETURN JUMPDEST PUSH2 0x5D2 PUSH2 0x17E6 JUMP JUMPDEST PUSH1 0x40 MLOAD PUSH2 0x5DF SWAP2 SWAP1 PUSH2 0x2DC8 JUMP JUMPDEST PUSH1 0x40 MLOAD DUP1 SWAP2 SUB SWAP1 RETURN JUMPDEST PUSH2 0x5F0 PUSH2 0x1872 JUMP JUMPDEST PUSH1 0x40 MLOAD PUSH2 0x5FD SWAP2 SWAP1 PUSH2 0x2E68 JUMP JUMPDEST PUSH1 0x40 MLOAD DUP1 SWAP2 SUB SWAP1 RETURN JUMPDEST PUSH2 0x620 PUSH1 0x4 DUP1 CALLDATASIZE SUB DUP2 ADD SWAP1 PUSH2 0x61B SWAP2 SWAP1 PUSH2 0x2F31 JUMP JUMPDEST PUSH2 0x1878 JUMP JUMPDEST STOP JUMPDEST PUSH2 0x62A PUSH2 0x195D JUMP JUMPDEST PUSH1 0x40 MLOAD PUSH2 0x637 SWAP2 SWAP1 PUSH2 0x2E68 JUMP JUMPDEST PUSH1 0x40 MLOAD DUP1 SWAP2 SUB SWAP1 RETURN JUMPDEST PUSH2 0x65A PUSH1 0x4 DUP1 CALLDATASIZE SUB DUP2 ADD SWAP1 PUSH2 0x655 SWAP2 SWAP1 PUSH2 0x2F31 JUMP JUMPDEST PUSH2 0x1963 JUMP JUMPDEST STOP JUMPDEST PUSH2 0x676 PUSH1 0x4 DUP1 CALLDATASIZE SUB DUP2 ADD SWAP1 PUSH2 0x671 SWAP2 SWAP1 PUSH2 0x2E1B JUMP JUMPDEST PUSH2 0x1AC6 JUMP JUMPDEST PUSH1 0x40 MLOAD PUSH2 0x683 SWAP2 SWAP1 PUSH2 0x2D3F JUMP JUMPDEST PUSH1 0x40 MLOAD DUP1 SWAP2 SUB SWAP1 RETURN JUMPDEST PUSH2 0x6A6 PUSH1 0x4 DUP1 CALLDATASIZE SUB DUP2 ADD SWAP1 PUSH2 0x6A1 SWAP2 SWAP1 PUSH2 0x2CFA JUMP JUMPDEST PUSH2 0x1DDC JUMP JUMPDEST PUSH1 0x40 MLOAD PUSH2 0x6B3 SWAP2 SWAP1 PUSH2 0x2D3F JUMP JUMPDEST PUSH1 0x40 MLOAD DUP1 SWAP2 SUB SWAP1 RETURN JUMPDEST PUSH2 0x6D6 PUSH1 0x4 DUP1 CALLDATASIZE SUB DUP2 ADD SWAP1 PUSH2 0x6D1 SWAP2 SWAP1 PUSH2 0x2CFA JUMP JUMPDEST PUSH2 0x1DF9 JUMP JUMPDEST PUSH1 0x40 MLOAD PUSH2 0x6E3 SWAP2 SWAP1 PUSH2 0x2E68 JUMP JUMPDEST PUSH1 0x40 MLOAD DUP1 SWAP2 SUB SWAP1 RETURN JUMPDEST PUSH2 0x6F4 PUSH2 0x1E0E JUMP JUMPDEST PUSH1 0x40 MLOAD PUSH2 0x701 SWAP2 SWAP1 PUSH2 0x3053 JUMP JUMPDEST PUSH1 0x40 MLOAD DUP1 SWAP2 SUB SWAP1 RETURN JUMPDEST PUSH2 0x712 PUSH2 0x1E33 JUMP JUMPDEST PUSH1 0x40 MLOAD PUSH2 0x71F SWAP2 SWAP1 PUSH2 0x2E68 JUMP JUMPDEST PUSH1 0x40 MLOAD DUP1 SWAP2 SUB SWAP1 RETURN JUMPDEST PUSH2 0x730 PUSH2 0x1E39 JUMP JUMPDEST PUSH1 0x40 MLOAD PUSH2 0x73D SWAP2 SWAP1 PUSH2 0x2E68 JUMP JUMPDEST PUSH1 0x40 MLOAD DUP1 SWAP2 SUB SWAP1 RETURN JUMPDEST PUSH2 0x74E PUSH2 0x1E3F JUMP JUMPDEST PUSH1 0x40 MLOAD PUSH2 0x75B SWAP2 SWAP1 PUSH2 0x2E68 JUMP JUMPDEST PUSH1 0x40 MLOAD DUP1 SWAP2 SUB SWAP1 RETURN JUMPDEST PUSH2 0x77E PUSH1 0x4 DUP1 CALLDATASIZE SUB DUP2 ADD SWAP1 PUSH2 0x779 SWAP2 SWAP1 PUSH2 0x2CFA JUMP JUMPDEST PUSH2 0x1E45 JUMP JUMPDEST PUSH1 0x40 MLOAD PUSH2 0x78B SWAP2 SWAP1 PUSH2 0x2D3F JUMP JUMPDEST PUSH1 0x40 MLOAD DUP1 SWAP2 SUB SWAP1 RETURN JUMPDEST PUSH2 0x7AE PUSH1 0x4 DUP1 CALLDATASIZE SUB DUP2 ADD SWAP1 PUSH2 0x7A9 SWAP2 SWAP1 PUSH2 0x2CFA JUMP JUMPDEST PUSH2 0x1E62 JUMP JUMPDEST PUSH1 0x40 MLOAD PUSH2 0x7BB SWAP2 SWAP1 PUSH2 0x2D3F JUMP JUMPDEST PUSH1 0x40 MLOAD DUP1 SWAP2 SUB SWAP1 RETURN JUMPDEST PUSH2 0x7DE PUSH1 0x4 DUP1 CALLDATASIZE SUB DUP2 ADD SWAP1 PUSH2 0x7D9 SWAP2 SWAP1 PUSH2 0x30AA JUMP JUMPDEST PUSH2 0x1E7F JUMP JUMPDEST PUSH1 0x40 MLOAD PUSH2 0x7EB SWAP2 SWAP1 PUSH2 0x2E68 JUMP JUMPDEST PUSH1 0x40 MLOAD DUP1 SWAP2 SUB SWAP1 RETURN JUMPDEST PUSH2 0x7FC PUSH2 0x1F01 JUMP JUMPDEST PUSH1 0x40 MLOAD PUSH2 0x809 SWAP2 SWAP1 PUSH2 0x2E68 JUMP JUMPDEST PUSH1 0x40 MLOAD DUP1 SWAP2 SUB SWAP1 RETURN JUMPDEST PUSH2 0x82C PUSH1 0x4 DUP1 CALLDATASIZE SUB DUP2 ADD SWAP1 PUSH2 0x827 SWAP2 SWAP1 PUSH2 0x30E8 JUMP JUMPDEST PUSH2 0x1F07 JUMP JUMPDEST STOP JUMPDEST PUSH2 0x848 PUSH1 0x4 DUP1 CALLDATASIZE SUB DUP2 ADD SWAP1 PUSH2 0x843 SWAP2 SWAP1 PUSH2 0x2CFA JUMP JUMPDEST PUSH2 0x2057 JUMP JUMPDEST PUSH1 0x40 MLOAD PUSH2 0x855 SWAP2 SWAP1 PUSH2 0x2D3F JUMP JUMPDEST PUSH1 0x40 MLOAD DUP1 SWAP2 SUB SWAP1 RETURN JUMPDEST PUSH2 0x878 PUSH1 0x4 DUP1 CALLDATASIZE SUB DUP2 ADD SWAP1 PUSH2 0x873 SWAP2 SWAP1 PUSH2 0x2CFA JUMP JUMPDEST PUSH2 0x2074 JUMP JUMPDEST PUSH1 0x40 MLOAD PUSH2 0x885 SWAP2 SWAP1 PUSH2 0x2D3F JUMP JUMPDEST PUSH1 0x40 MLOAD DUP1 SWAP2 SUB SWAP1 RETURN JUMPDEST PUSH1 0xE PUSH1 0x20 MSTORE DUP1 PUSH0 MSTORE PUSH1 0x40 PUSH0 KECCAK256 PUSH0 SWAP2 POP SLOAD SWAP1 PUSH2 0x100 EXP SWAP1 DIV PUSH1 0xFF AND DUP2 JUMP JUMPDEST PUSH0 DUP1 SLOAD PUSH2 0x8B7 SWAP1 PUSH2 0x3165 JUMP JUMPDEST DUP1 PUSH1 0x1F ADD PUSH1 0x20 DUP1 SWAP2 DIV MUL PUSH1 0x20 ADD PUSH1 0x40 MLOAD SWAP1 DUP2 ADD PUSH1 0x40 MSTORE DUP1 SWAP3 SWAP2 SWAP1 DUP2 DUP2 MSTORE PUSH1 0x20 ADD DUP3 DUP1 SLOAD PUSH2 0x8E3 SWAP1 PUSH2 0x3165 JUMP JUMPDEST DUP1 ISZERO PUSH2 0x92E JUMPI DUP1 PUSH1 0x1F LT PUSH2 0x905 JUMPI PUSH2 0x100 DUP1 DUP4 SLOAD DIV MUL DUP4 MSTORE SWAP2 PUSH1 0x20 ADD SWAP2 PUSH2 0x92E JUMP JUMPDEST DUP3 ADD SWAP2 SWAP1 PUSH0 MSTORE PUSH1 0x20 PUSH0 KECCAK256 SWAP1 JUMPDEST DUP2 SLOAD DUP2 MSTORE SWAP1 PUSH1 0x1 ADD SWAP1 PUSH1 0x20 ADD DUP1 DUP4 GT PUSH2 0x911 JUMPI DUP3 SWAP1 SUB PUSH1 0x1F AND DUP3 ADD SWAP2 JUMPDEST POP POP POP POP POP DUP2 JUMP JUMPDEST PUSH0 PUSH2 0x942 CALLER DUP5 DUP5 PUSH2 0x2091 JUMP JUMPDEST PUSH1 0x1 SWAP1 POP SWAP3 SWAP2 POP POP JUMP JUMPDEST PUSH1 0x16 SLOAD DUP2 JUMP JUMPDEST PUSH1 0x3 SLOAD DUP2 JUMP JUMPDEST PUSH1 0x7 DUP1 PUSH0 ADD SLOAD SWAP1 DUP1 PUSH1 0x1 ADD SLOAD SWAP1 DUP1 PUSH1 0x2 ADD SLOAD SWAP1 DUP1 PUSH1 0x3 ADD PUSH0 SWAP1 SLOAD SWAP1 PUSH2 0x100 EXP SWAP1 DIV PUSH20 0xFFFFFFFFFFFFFFFFFFFFFFFFFFFFFFFFFFFFFFFF AND SWAP1 DUP1 PUSH1 0x3 ADD PUSH1 0x14 SWAP1 SLOAD SWAP1 PUSH2 0x100 EXP SWAP1 DIV PUSH1 0xFF AND SWAP1 POP DUP6 JUMP JUMPDEST PUSH0 DUP4 PUSH1 0x12 PUSH0 DUP3 PUSH20 0xFFFFFFFFFFFFFFFFFFFFFFFFFFFFFFFFFFFFFFFF AND PUSH20 0xFFFFFFFFFFFFFFFFFFFFFFFFFFFFFFFFFFFFFFFF AND DUP2 MSTORE PUSH1 0x20 ADD SWAP1 DUP2 MSTORE PUSH1 0x20 ADD PUSH0 KECCAK256 PUSH0 SWAP1 SLOAD SWAP1 PUSH2 0x100 EXP SWAP1 DIV PUSH1 0xFF AND ISZERO PUSH2 0xA2A JUMPI PUSH1 0x40 MLOAD PUSH32 0x1F7B776B00000000000000000000000000000000000000000000000000000000 DUP2 MSTORE PUSH1 0x4 ADD PUSH1 0x40 MLOAD DUP1 SWAP2 SUB SWAP1 REVERT JUMPDEST DUP4 PUSH1 0x12 PUSH0 DUP3 PUSH20 0xFFFFFFFFFFFFFFFFFFFFFFFFFFFFFFFFFFFFFFFF AND PUSH20 0xFFFFFFFFFFFFFFFFFFFFFFFFFFFFFFFFFFFFFFFF AND DUP2 MSTORE PUSH1 0x20 ADD SWAP1 DUP2 MSTORE PUSH1 0x20 ADD PUSH0 KECCAK256 PUSH0 SWAP1 SLOAD SWAP1 PUSH2 0x100 EXP SWAP1 DIV PUSH1 0xFF AND ISZERO PUSH2 0xAAC JUMPI PUSH1 0x40 MLOAD PUSH32 0x1F7B776B00000000000000000000000000000000000000000000000000000000 DUP2 MSTORE PUSH1 0x4 ADD PUSH1 0x40 MLOAD DUP1 SWAP2 SUB SWAP1 REVERT JUMPDEST CALLER PUSH1 0x12 PUSH0 DUP3 PUSH20 0xFFFFFFFFFFFFFFFFFFFFFFFFFFFFFFFFFFFFFFFF AND PUSH20 0xFFFFFFFFFFFFFFFFFFFFFFFFFFFFFFFFFFFFFFFF AND DUP2 MSTORE PUSH1 0x20 ADD SWAP1 DUP2 MSTORE PUSH1 0x20 ADD PUSH0 KECCAK256 PUSH0 SWAP1 SLOAD SWAP1 PUSH2 0x100 EXP SWAP1 DIV PUSH1 0xFF AND ISZERO PUSH2 0xB2E JUMPI PUSH1 0x40 MLOAD PUSH32 0x1F7B776B00000000000000000000000000000000000000000000000000000000 DUP2 MSTORE PUSH1 0x4 ADD PUSH1 0x40 MLOAD DUP1 SWAP2 SUB SWAP1 REVERT JUMPDEST DUP7 PUSH1 0x14 PUSH0 SWAP1 SLOAD SWAP1 PUSH2 0x100 EXP SWAP1 DIV PUSH1 0xFF AND DUP1 ISZERO PUSH2 0xB91 JUMPI POP PUSH1 0x13 PUSH0 DUP3 PUSH20 0xFFFFFFFFFFFFFFFFFFFFFFFFFFFFFFFFFFFFFFFF AND PUSH20 0xFFFFFFFFFFFFFFFFFFFFFFFFFFFFFFFFFFFFFFFF AND DUP2 MSTORE PUSH1 0x20 ADD SWAP1 DUP2 MSTORE PUSH1 0x20 ADD PUSH0 KECCAK256 PUSH0 SWAP1 SLOAD SWAP1 PUSH2 0x100 EXP SWAP1 DIV PUSH1 0xFF AND ISZERO JUMPDEST DUP1 ISZERO PUSH2 0xBE4 JUMPI POP PUSH1 0x15 PUSH0 DUP3 PUSH20 0xFFFFFFFFFFFFFFFFFFFFFFFFFFFFFFFFFFFFFFFF AND PUSH20 0xFFFFFFFFFFFFFFFFFFFFFFFFFFFFFFFFFFFFFFFF AND DUP2 MSTORE PUSH1 0x20 ADD SWAP1 DUP2 MSTORE PUSH1 0x20 ADD PUSH0 KECCAK256 PUSH0 SWAP1 SLOAD SWAP1 PUSH2 0x100 EXP SWAP1 DIV PUSH1 0xFF AND ISZERO JUMPDEST ISZERO PUSH2 0xC24 JUMPI PUSH1 0x40 MLOAD PUSH32 0x8C379A000000000000000000000000000000000000000000000000000000000 DUP2 MSTORE PUSH1 0x4 ADD PUSH2 0xC1B SWAP1 PUSH2 0x31DF JUMP JUMPDEST PUSH1 0x40 MLOAD DUP1 SWAP2 SUB SWAP1 REVERT JUMPDEST DUP7 PUSH1 0x14 PUSH0 SWAP1 SLOAD SWAP1 PUSH2 0x100 EXP SWAP1 DIV PUSH1 0xFF AND DUP1 ISZERO PUSH2 0xC87 JUMPI POP PUSH1 0x13 PUSH0 DUP3 PUSH20 0xFFFFFFFFFFFFFFFFFFFFFFFFFFFFFFFFFFFFFFFF AND PUSH20 0xFFFFFFFFFFFFFFFFFFFFFFFFFFFFFFFFFFFFFFFF AND DUP2 MSTORE PUSH1 0x20 ADD SWAP1 DUP2 MSTORE PUSH1 0x20 ADD PUSH0 KECCAK256 PUSH0 SWAP1 SLOAD SWAP1 PUSH2 0x100 EXP SWAP1 DIV PUSH1 0xFF AND ISZERO JUMPDEST DUP1 ISZERO PUSH2 0xCDA JUMPI POP PUSH1 0x15 PUSH0 DUP3 PUSH20 0xFFFFFFFFFFFFFFFFFFFFFFFFFFFFFFFFFFFFFFFF AND PUSH20 0xFFFFFFFFFFFFFFFFFFFFFFFFFFFFFFFFFFFFFFFF AND DUP2 MSTORE PUSH1 0x20 ADD SWAP1 DUP2 MSTORE PUSH1 0x20 ADD PUSH0 KECCAK256 PUSH0 SWAP1 SLOAD SWAP1 PUSH2 0x100 EXP SWAP1 DIV PUSH1 0xFF AND ISZERO JUMPDEST ISZERO PUSH2 0xD1A JUMPI PUSH1 0x40 MLOAD PUSH32 0x8C379A000000000000000000000000000000000000000000000000000000000 DUP2 MSTORE PUSH1 0x4 ADD PUSH2 0xD11 SWAP1 PUSH2 0x31DF JUMP JUMPDEST PUSH1 0x40 MLOAD DUP1 SWAP2 SUB SWAP1 REVERT JUMPDEST PUSH2 0xD25 DUP10 DUP10 DUP10 PUSH2 0x2178 JUMP JUMPDEST PUSH2 0xD30 DUP10 CALLER DUP10 PUSH2 0x231D JUMP JUMPDEST PUSH2 0xD3C DUP10 DUP10 DUP10 PUSH0 PUSH2 0x2420 JUMP JUMPDEST PUSH1 0x1 SWAP6 POP POP POP POP POP POP SWAP4 SWAP3 POP POP POP JUMP JUMPDEST PUSH0 DUP2 GT DUP1 ISZERO PUSH2 0xD98 JUMPI POP DUP1 PUSH1 0x1C PUSH0 CALLER PUSH20 0xFFFFFFFFFFFFFFFFFFFFFFFFFFFFFFFFFFFFFFFF AND PUSH20 0xFFFFFFFFFFFFFFFFFFFFFFFFFFFFFFFFFFFFFFFF AND DUP2 MSTORE PUSH1 0x20 ADD SWAP1 DUP2 MSTORE PUSH1 0x20 ADD PUSH0 KECCAK256 SLOAD LT ISZERO JUMPDEST PUSH2 0xDD7 JUMPI PUSH1 0x40 MLOAD PUSH32 0x8C379A000000000000000000000000000000000000000000000000000000000 DUP2 MSTORE PUSH1 0x4 ADD PUSH2 0xDCE SWAP1 PUSH2 0x3247 JUMP JUMPDEST PUSH1 0x40 MLOAD DUP1 SWAP2 SUB SWAP1 REVERT JUMPDEST PUSH2 0xDE0 CALLER PUSH2 0x278D JUMP JUMPDEST DUP1 PUSH1 0x1C PUSH0 CALLER PUSH20 0xFFFFFFFFFFFFFFFFFFFFFFFFFFFFFFFFFFFFFFFF AND PUSH20 0xFFFFFFFFFFFFFFFFFFFFFFFFFFFFFFFFFFFFFFFF AND DUP2 MSTORE PUSH1 0x20 ADD SWAP1 DUP2 MSTORE PUSH1 0x20 ADD PUSH0 KECCAK256 PUSH0 DUP3 DUP3 SLOAD PUSH2 0xE2C SWAP2 SWAP1 PUSH2 0x3292 JUMP JUMPDEST SWAP3 POP POP DUP2 SWAP1 SSTORE POP DUP1 PUSH1 0x1E PUSH0 DUP3 DUP3 SLOAD PUSH2 0xE44 SWAP2 SWAP1 PUSH2 0x3292 JUMP JUMPDEST SWAP3 POP POP DUP2 SWAP1 SSTORE POP PUSH2 0xE56 ADDRESS CALLER DUP4 PUSH2 0x28CB JUMP JUMPDEST PUSH8 0xDE0B6B3A7640000 PUSH1 0x1F SLOAD PUSH1 0x1C PUSH0 CALLER PUSH20 0xFFFFFFFFFFFFFFFFFFFFFFFFFFFFFFFFFFFFFFFF AND PUSH20 0xFFFFFFFFFFFFFFFFFFFFFFFFFFFFFFFFFFFFFFFF AND DUP2 MSTORE PUSH1 0x20 ADD SWAP1 DUP2 MSTORE PUSH1 0x20 ADD PUSH0 KECCAK256 SLOAD PUSH2 0xEAA SWAP2 SWAP1 PUSH2 0x32C5 JUMP JUMPDEST PUSH2 0xEB4 SWAP2 SWAP1 PUSH2 0x3333 JUMP JUMPDEST PUSH1 0x1D PUSH0 CALLER PUSH20 0xFFFFFFFFFFFFFFFFFFFFFFFFFFFFFFFFFFFFFFFF AND PUSH20 0xFFFFFFFFFFFFFFFFFFFFFFFFFFFFFFFFFFFFFFFF AND DUP2 MSTORE PUSH1 0x20 ADD SWAP1 DUP2 MSTORE PUSH1 0x20 ADD PUSH0 KECCAK256 DUP2 SWAP1 SSTORE POP POP JUMP JUMPDEST PUSH1 0x2 PUSH0 SWAP1 SLOAD SWAP1 PUSH2 0x100 EXP SWAP1 DIV PUSH1 0xFF AND DUP2 JUMP JUMPDEST PUSH1 0xC PUSH0 CALLER PUSH20 0xFFFFFFFFFFFFFFFFFFFFFFFFFFFFFFFFFFFFFFFF AND PUSH20 0xFFFFFFFFFFFFFFFFFFFFFFFFFFFFFFFFFFFFFFFF AND DUP2 MSTORE PUSH1 0x20 ADD SWAP1 DUP2 MSTORE PUSH1 0x20 ADD PUSH0 KECCAK256 PUSH0 SWAP1 SLOAD SWAP1 PUSH2 0x100 EXP SWAP1 DIV PUSH1 0xFF AND ISZERO DUP1 ISZERO PUSH2 0xFAE JUMPI POP PUSH1 0xB PUSH0 SWAP1 SLOAD SWAP1 PUSH2 0x100 EXP SWAP1 DIV PUSH20 0xFFFFFFFFFFFFFFFFFFFFFFFFFFFFFFFFFFFFFFFF AND PUSH20 0xFFFFFFFFFFFFFFFFFFFFFFFFFFFFFFFFFFFFFFFF AND CALLER PUSH20 0xFFFFFFFFFFFFFFFFFFFFFFFFFFFFFFFFFFFFFFFF AND EQ ISZERO JUMPDEST ISZERO PUSH2 0xFE5 JUMPI PUSH1 0x40 MLOAD PUSH32 0x7BFA4B9F00000000000000000000000000000000000000000000000000000000 DUP2 MSTORE PUSH1 0x4 ADD PUSH1 0x40 MLOAD DUP1 SWAP2 SUB SWAP1 REVERT JUMPDEST PUSH0 PUSH20 0xFFFFFFFFFFFFFFFFFFFFFFFFFFFFFFFFFFFFFFFF AND DUP5 PUSH20 0xFFFFFFFFFFFFFFFFFFFFFFFFFFFFFFFFFFFFFFFF AND SUB PUSH2 0x104A JUMPI PUSH1 0x40 MLOAD PUSH32 0xD92E233D00000000000000000000000000000000000000000000000000000000 DUP2 MSTORE PUSH1 0x4 ADD PUSH1 0x40 MLOAD DUP1 SWAP2 SUB SWAP1 REVERT JUMPDEST PUSH1 0xA PUSH1 0x10 PUSH0 DUP7 PUSH20 0xFFFFFFFFFFFFFFFFFFFFFFFFFFFFFFFFFFFFFFFF AND PUSH20 0xFFFFFFFFFFFFFFFFFFFFFFFFFFFFFFFFFFFFFFFF AND DUP2 MSTORE PUSH1 0x20 ADD SWAP1 DUP2 MSTORE PUSH1 0x20 ADD PUSH0 KECCAK256 DUP1 SLOAD SWAP1 POP GT ISZERO PUSH2 0x10CE JUMPI PUSH1 0x40 MLOAD PUSH32 0x8C379A000000000000000000000000000000000000000000000000000000000 DUP2 MSTORE PUSH1 0x4 ADD PUSH2 0x10C5 SWAP1 PUSH2 0x33AD JUMP JUMPDEST PUSH1 0x40 MLOAD DUP1 SWAP2 SUB SWAP1 REVERT JUMPDEST PUSH2 0x10D9 CALLER ADDRESS DUP6 PUSH2 0x28CB JUMP JUMPDEST PUSH1 0x10 PUSH0 DUP6 PUSH20 0xFFFFFFFFFFFFFFFFFFFFFFFFFFFFFFFFFFFFFFFF AND PUSH20 0xFFFFFFFFFFFFFFFFFFFFFFFFFFFFFFFFFFFFFFFF AND DUP2 MSTORE PUSH1 0x20 ADD SWAP1 DUP2 MSTORE PUSH1 0x20 ADD PUSH0 KECCAK256 PUSH1 0x40 MLOAD DUP1 PUSH1 0xC0 ADD PUSH1 0x40 MSTORE DUP1 DUP6 DUP2 MSTORE PUSH1 0x20 ADD PUSH0 DUP2 MSTORE PUSH1 0x20 ADD TIMESTAMP DUP2 MSTORE PUSH1 0x20 ADD DUP5 DUP2 MSTORE PUSH1 0x20 ADD DUP4 DUP2 MSTORE PUSH1 0x20 ADD PUSH1 0x1 ISZERO ISZERO DUP2 MSTORE POP SWAP1 DUP1 PUSH1 0x1 DUP2 SLOAD ADD DUP1 DUP3 SSTORE DUP1 SWAP2 POP POP PUSH1 0x1 SWAP1 SUB SWAP1 PUSH0 MSTORE PUSH1 0x20 PUSH0 KECCAK256 SWAP1 PUSH1 0x6 MUL ADD PUSH0 SWAP1 SWAP2 SWAP1 SWAP2 SWAP1 SWAP2 POP PUSH0 DUP3 ADD MLOAD DUP2 PUSH0 ADD SSTORE PUSH1 0x20 DUP3 ADD MLOAD DUP2 PUSH1 0x1 ADD SSTORE PUSH1 0x40 DUP3 ADD MLOAD DUP2 PUSH1 0x2 ADD SSTORE PUSH1 0x60 DUP3 ADD MLOAD DUP2 PUSH1 0x3 ADD SSTORE PUSH1 0x80 DUP3 ADD MLOAD DUP2 PUSH1 0x4 ADD SSTORE PUSH1 0xA0 DUP3 ADD MLOAD DUP2 PUSH1 0x5 ADD PUSH0 PUSH2 0x100 EXP DUP2 SLOAD DUP2 PUSH1 0xFF MUL NOT AND SWAP1 DUP4 ISZERO ISZERO MUL OR SWAP1 SSTORE POP POP POP DUP3 PUSH1 0x11 PUSH0 DUP7 PUSH20 0xFFFFFFFFFFFFFFFFFFFFFFFFFFFFFFFFFFFFFFFF AND PUSH20 0xFFFFFFFFFFFFFFFFFFFFFFFFFFFFFFFFFFFFFFFF AND DUP2 MSTORE PUSH1 0x20 ADD SWAP1 DUP2 MSTORE PUSH1 0x20 ADD PUSH0 KECCAK256 PUSH0 DUP3 DUP3 SLOAD PUSH2 0x1209 SWAP2 SWAP1 PUSH2 0x33CB JUMP JUMPDEST SWAP3 POP POP DUP2 SWAP1 SSTORE POP DUP4 PUSH20 0xFFFFFFFFFFFFFFFFFFFFFFFFFFFFFFFFFFFFFFFF AND PUSH32 0x402B9FA52520CE724D8E25AD1521F70484BD3C833F98ED26451D7C9666820203 DUP5 DUP5 PUSH1 0x40 MLOAD PUSH2 0x1258 SWAP3 SWAP2 SWAP1 PUSH2 0x33FE JUMP JUMPDEST PUSH1 0x40 MLOAD DUP1 SWAP2 SUB SWAP1 LOG2 POP POP POP POP JUMP JUMPDEST PUSH1 0xC PUSH1 0x20 MSTORE DUP1 PUSH0 MSTORE PUSH1 0x40 PUSH0 KECCAK256 PUSH0 SWAP2 POP SLOAD SWAP1 PUSH2 0x100 EXP SWAP1 DIV PUSH1 0xFF AND DUP2 JUMP JUMPDEST PUSH1 0x10 PUSH1 0x20 MSTORE DUP2 PUSH0 MSTORE PUSH1 0x40 PUSH0 KECCAK256 DUP2 DUP2 SLOAD DUP2 LT PUSH2 0x129C JUMPI PUSH0 DUP1 REVERT JUMPDEST SWAP1 PUSH0 MSTORE PUSH1 0x20 PUSH0 KECCAK256 SWAP1 PUSH1 0x6 MUL ADD PUSH0 SWAP2 POP SWAP2 POP POP DUP1 PUSH0 ADD SLOAD SWAP1 DUP1 PUSH1 0x1 ADD SLOAD SWAP1 DUP1 PUSH1 0x2 ADD SLOAD SWAP1 DUP1 PUSH1 0x3 ADD SLOAD SWAP1 DUP1 PUSH1 0x4 ADD SLOAD SWAP1 DUP1 PUSH1 0x5 ADD PUSH0 SWAP1 SLOAD SWAP1 PUSH2 0x100 EXP SWAP1 DIV PUSH1 0xFF AND SWAP1 POP DUP7 JUMP JUMPDEST PUSH1 0x14 PUSH0 SWAP1 SLOAD SWAP1 PUSH2 0x100 EXP SWAP1 DIV PUSH1 0xFF AND DUP2 JUMP JUMPDEST PUSH1 0x1D PUSH1 0x20 MSTORE DUP1 PUSH0 MSTORE PUSH1 0x40 PUSH0 KECCAK256 PUSH0 SWAP2 POP SWAP1 POP SLOAD DUP2 JUMP JUMPDEST PUSH1 0x1C PUSH1 0x20 MSTORE DUP1 PUSH0 MSTORE PUSH1 0x40 PUSH0 KECCAK256 PUSH0 SWAP2 POP SWAP1 POP SLOAD DUP2 JUMP JUMPDEST PUSH1 0xC PUSH0 CALLER PUSH20 0xFFFFFFFFFFFFFFFFFFFFFFFFFFFFFFFFFFFFFFFF AND PUSH20 0xFFFFFFFFFFFFFFFFFFFFFFFFFFFFFFFFFFFFFFFF AND DUP2 MSTORE PUSH1 0x20 ADD SWAP1 DUP2 MSTORE PUSH1 0x20 ADD PUSH0 KECCAK256 PUSH0 SWAP1 SLOAD SWAP1 PUSH2 0x100 EXP SWAP1 DIV PUSH1 0xFF AND ISZERO DUP1 ISZERO PUSH2 0x13C1 JUMPI POP PUSH1 0xB PUSH0 SWAP1 SLOAD SWAP1 PUSH2 0x100 EXP SWAP1 DIV PUSH20 0xFFFFFFFFFFFFFFFFFFFFFFFFFFFFFFFFFFFFFFFF AND PUSH20 0xFFFFFFFFFFFFFFFFFFFFFFFFFFFFFFFFFFFFFFFF AND CALLER PUSH20 0xFFFFFFFFFFFFFFFFFFFFFFFFFFFFFFFFFFFFFFFF AND EQ ISZERO JUMPDEST ISZERO PUSH2 0x13F8 JUMPI PUSH1 0x40 MLOAD PUSH32 0x7BFA4B9F00000000000000000000000000000000000000000000000000000000 DUP2 MSTORE PUSH1 0x4 ADD PUSH1 0x40 MLOAD DUP1 SWAP2 SUB SWAP1 REVERT JUMPDEST DUP2 PUSH1 0x18 PUSH0 PUSH2 0x100 EXP DUP2 SLOAD DUP2 PUSH20 0xFFFFFFFFFFFFFFFFFFFFFFFFFFFFFFFFFFFFFFFF MUL NOT AND SWAP1 DUP4 PUSH20 0xFFFFFFFFFFFFFFFFFFFFFFFFFFFFFFFFFFFFFFFF AND MUL OR SWAP1 SSTORE POP DUP1 PUSH1 0x19 DUP2 SWAP1 SSTORE POP POP POP JUMP JUMPDEST PUSH1 0x18 PUSH0 SWAP1 SLOAD SWAP1 PUSH2 0x100 EXP SWAP1 DIV PUSH20 0xFFFFFFFFFFFFFFFFFFFFFFFFFFFFFFFFFFFFFFFF AND DUP2 JUMP JUMPDEST PUSH1 0x1B SLOAD DUP2 JUMP JUMPDEST PUSH0 PUSH1 0x5 PUSH0 DUP4 PUSH20 0xFFFFFFFFFFFFFFFFFFFFFFFFFFFFFFFFFFFFFFFF AND PUSH20 0xFFFFFFFFFFFFFFFFFFFFFFFFFFFFFFFFFFFFFFFF AND DUP2 MSTORE PUSH1 0x20 ADD SWAP1 DUP2 MSTORE PUSH1 0x20 ADD PUSH0 KECCAK256 SLOAD SWAP1 POP SWAP2 SWAP1 POP JUMP JUMPDEST PUSH1 0x21 SLOAD DUP2 JUMP JUMPDEST PUSH1 0xC PUSH0 CALLER PUSH20 0xFFFFFFFFFFFFFFFFFFFFFFFFFFFFFFFFFFFFFFFF AND PUSH20 0xFFFFFFFFFFFFFFFFFFFFFFFFFFFFFFFFFFFFFFFF AND DUP2 MSTORE PUSH1 0x20 ADD SWAP1 DUP2 MSTORE PUSH1 0x20 ADD PUSH0 KECCAK256 PUSH0 SWAP1 SLOAD SWAP1 PUSH2 0x100 EXP SWAP1 DIV PUSH1 0xFF AND ISZERO DUP1 ISZERO PUSH2 0x155E JUMPI POP PUSH1 0xB PUSH0 SWAP1 SLOAD SWAP1 PUSH2 0x100 EXP SWAP1 DIV PUSH20 0xFFFFFFFFFFFFFFFFFFFFFFFFFFFFFFFFFFFFFFFF AND PUSH20 0xFFFFFFFFFFFFFFFFFFFFFFFFFFFFFFFFFFFFFFFF AND CALLER PUSH20 0xFFFFFFFFFFFFFFFFFFFFFFFFFFFFFFFFFFFFFFFF AND EQ ISZERO JUMPDEST ISZERO PUSH2 0x1595 JUMPI PUSH1 0x40 MLOAD PUSH32 0x7BFA4B9F00000000000000000000000000000000000000000000000000000000 DUP2 MSTORE PUSH1 0x4 ADD PUSH1 0x40 MLOAD DUP1 SWAP2 SUB SWAP1 REVERT JUMPDEST DUP2 PUSH1 0x16 DUP2 SWAP1 SSTORE POP DUP1 PUSH1 0x17 DUP2 SWAP1 SSTORE POP POP POP JUMP JUMPDEST PUSH0 PUSH1 0x10 PUSH0 CALLER PUSH20 0xFFFFFFFFFFFFFFFFFFFFFFFFFFFFFFFFFFFFFFFF AND PUSH20 0xFFFFFFFFFFFFFFFFFFFFFFFFFFFFFFFFFFFFFFFF AND DUP2 MSTORE PUSH1 0x20 ADD SWAP1 DUP2 MSTORE PUSH1 0x20 ADD PUSH0 KECCAK256 DUP3 DUP2 SLOAD DUP2 LT PUSH2 0x15F7 JUMPI PUSH2 0x15F6 PUSH2 0x3425 JUMP JUMPDEST JUMPDEST SWAP1 PUSH0 MSTORE PUSH1 0x20 PUSH0 KECCAK256 SWAP1 PUSH1 0x6 MUL ADD SWAP1 POP DUP1 PUSH1 0x5 ADD PUSH0 SWAP1 SLOAD SWAP1 PUSH2 0x100 EXP SWAP1 DIV PUSH1 0xFF AND PUSH2 0x164C JUMPI PUSH1 0x40 MLOAD PUSH32 0x66EF36C900000000000000000000000000000000000000000000000000000000 DUP2 MSTORE PUSH1 0x4 ADD PUSH1 0x40 MLOAD DUP1 SWAP2 SUB SWAP1 REVERT JUMPDEST PUSH0 PUSH2 0x16AC DUP3 PUSH1 0x40 MLOAD DUP1 PUSH1 0xC0 ADD PUSH1 0x40 MSTORE SWAP1 DUP2 PUSH0 DUP3 ADD SLOAD DUP2 MSTORE PUSH1 0x20 ADD PUSH1 0x1 DUP3 ADD SLOAD DUP2 MSTORE PUSH1 0x20 ADD PUSH1 0x2 DUP3 ADD SLOAD DUP2 MSTORE PUSH1 0x20 ADD PUSH1 0x3 DUP3 ADD SLOAD DUP2 MSTORE PUSH1 0x20 ADD PUSH1 0x4 DUP3 ADD SLOAD DUP2 MSTORE PUSH1 0x20 ADD PUSH1 0x5 DUP3 ADD PUSH0 SWAP1 SLOAD SWAP1 PUSH2 0x100 EXP SWAP1 DIV PUSH1 0xFF AND ISZERO ISZERO ISZERO ISZERO DUP2 MSTORE POP POP PUSH2 0x2A5B JUMP JUMPDEST SWAP1 POP PUSH0 DUP2 SUB PUSH2 0x16F0 JUMPI PUSH1 0x40 MLOAD PUSH32 0x8C379A000000000000000000000000000000000000000000000000000000000 DUP2 MSTORE PUSH1 0x4 ADD PUSH2 0x16E7 SWAP1 PUSH2 0x349C JUMP JUMPDEST PUSH1 0x40 MLOAD DUP1 SWAP2 SUB SWAP1 REVERT JUMPDEST DUP1 DUP3 PUSH1 0x1 ADD PUSH0 DUP3 DUP3 SLOAD PUSH2 0x1703 SWAP2 SWAP1 PUSH2 0x33CB JUMP JUMPDEST SWAP3 POP POP DUP2 SWAP1 SSTORE POP DUP1 PUSH1 0x11 PUSH0 CALLER PUSH20 0xFFFFFFFFFFFFFFFFFFFFFFFFFFFFFFFFFFFFFFFF AND PUSH20 0xFFFFFFFFFFFFFFFFFFFFFFFFFFFFFFFFFFFFFFFF AND DUP2 MSTORE PUSH1 0x20 ADD SWAP1 DUP2 MSTORE PUSH1 0x20 ADD PUSH0 KECCAK256 PUSH0 DUP3 DUP3 SLOAD PUSH2 0x1756 SWAP2 SWAP1 PUSH2 0x3292 JUMP JUMPDEST SWAP3 POP POP DUP2 SWAP1 SSTORE POP PUSH2 0x1768 ADDRESS CALLER DUP4 PUSH2 0x28CB JUMP JUMPDEST CALLER PUSH20 0xFFFFFFFFFFFFFFFFFFFFFFFFFFFFFFFFFFFFFFFF AND PUSH32 0xC7798891864187665AC6DD119286E44EC13F014527AEEB2B8EB3FD413DF93179 DUP3 PUSH1 0x40 MLOAD PUSH2 0x17AE SWAP2 SWAP1 PUSH2 0x2E68 JUMP JUMPDEST PUSH1 0x40 MLOAD DUP1 SWAP2 SUB SWAP1 LOG2 POP POP POP JUMP JUMPDEST PUSH1 0x1E SLOAD DUP2 JUMP JUMPDEST PUSH1 0xB PUSH0 SWAP1 SLOAD SWAP1 PUSH2 0x100 EXP SWAP1 DIV PUSH20 0xFFFFFFFFFFFFFFFFFFFFFFFFFFFFFFFFFFFFFFFF AND DUP2 JUMP JUMPDEST PUSH1 0x1 DUP1 SLOAD PUSH2 0x17F3 SWAP1 PUSH2 0x3165 JUMP JUMPDEST DUP1 PUSH1 0x1F ADD PUSH1 0x20 DUP1 SWAP2 DIV MUL PUSH1 0x20 ADD PUSH1 0x40 MLOAD SWAP1 DUP2 ADD PUSH1 0x40 MSTORE DUP1 SWAP3 SWAP2 SWAP1 DUP2 DUP2 MSTORE PUSH1 0x20 ADD DUP3 DUP1 SLOAD PUSH2 0x181F SWAP1 PUSH2 0x3165 JUMP JUMPDEST DUP1 ISZERO PUSH2 0x186A JUMPI DUP1 PUSH1 0x1F LT PUSH2 0x1841 JUMPI PUSH2 0x100 DUP1 DUP4 SLOAD DIV MUL DUP4 MSTORE SWAP2 PUSH1 0x20 ADD SWAP2 PUSH2 0x186A JUMP JUMPDEST DUP3 ADD SWAP2 SWAP1 PUSH0 MSTORE PUSH1 0x20 PUSH0 KECCAK256 SWAP1 JUMPDEST DUP2 SLOAD DUP2 MSTORE SWAP1 PUSH1 0x1 ADD SWAP1 PUSH1 0x20 ADD DUP1 DUP4 GT PUSH2 0x184D JUMPI DUP3 SWAP1 SUB PUSH1 0x1F AND DUP3 ADD SWAP2 JUMPDEST POP POP POP POP POP DUP2 JUMP JUMPDEST PUSH1 0x19 SLOAD DUP2 JUMP JUMPDEST PUSH1 0xC PUSH0 CALLER PUSH20 0xFFFFFFFFFFFFFFFFFFFFFFFFFFFFFFFFFFFFFFFF AND PUSH20 0xFFFFFFFFFFFFFFFFFFFFFFFFFFFFFFFFFFFFFFFF AND DUP2 MSTORE PUSH1 0x20 ADD SWAP1 DUP2 MSTORE PUSH1 0x20 ADD PUSH0 KECCAK256 PUSH0 SWAP1 SLOAD SWAP1 PUSH2 0x100 EXP SWAP1 DIV PUSH1 0xFF AND ISZERO DUP1 ISZERO PUSH2 0x191C JUMPI POP PUSH1 0xB PUSH0 SWAP1 SLOAD SWAP1 PUSH2 0x100 EXP SWAP1 DIV PUSH20 0xFFFFFFFFFFFFFFFFFFFFFFFFFFFFFFFFFFFFFFFF AND PUSH20 0xFFFFFFFFFFFFFFFFFFFFFFFFFFFFFFFFFFFFFFFF AND CALLER PUSH20 0xFFFFFFFFFFFFFFFFFFFFFFFFFFFFFFFFFFFFFFFF AND EQ ISZERO JUMPDEST ISZERO PUSH2 0x1953 JUMPI PUSH1 0x40 MLOAD PUSH32 0x7BFA4B9F00000000000000000000000000000000000000000000000000000000 DUP2 MSTORE PUSH1 0x4 ADD PUSH1 0x40 MLOAD DUP1 SWAP2 SUB SWAP1 REVERT JUMPDEST DUP1 PUSH1 0x21 DUP2 SWAP1 SSTORE POP POP JUMP JUMPDEST PUSH1 0x1A SLOAD DUP2 JUMP JUMPDEST PUSH0 DUP2 GT PUSH2 0x19A5 JUMPI PUSH1 0x40 MLOAD PUSH32 0x8C379A000000000000000000000000000000000000000000000000000000000 DUP2 MSTORE PUSH1 0x4 ADD PUSH2 0x199C SWAP1 PUSH2 0x3504 JUMP JUMPDEST PUSH1 0x40 MLOAD DUP1 SWAP2 SUB SWAP1 REVERT JUMPDEST PUSH2 0x19AE CALLER PUSH2 0x278D JUMP JUMPDEST PUSH2 0x19B9 CALLER ADDRESS DUP4 PUSH2 0x28CB JUMP JUMPDEST DUP1 PUSH1 0x1C PUSH0 CALLER PUSH20 0xFFFFFFFFFFFFFFFFFFFFFFFFFFFFFFFFFFFFFFFF AND PUSH20 0xFFFFFFFFFFFFFFFFFFFFFFFFFFFFFFFFFFFFFFFF AND DUP2 MSTORE PUSH1 0x20 ADD SWAP1 DUP2 MSTORE PUSH1 0x20 ADD PUSH0 KECCAK256 PUSH0 DUP3 DUP3 SLOAD PUSH2 0x1A05 SWAP2 SWAP1 PUSH2 0x33CB JUMP JUMPDEST SWAP3 POP POP DUP2 SWAP1 SSTORE POP DUP1 PUSH1 0x1E PUSH0 DUP3 DUP3 SLOAD PUSH2 0x1A1D SWAP2 SWAP1 PUSH2 0x33CB JUMP JUMPDEST SWAP3 POP POP DUP2 SWAP1 SSTORE POP PUSH8 0xDE0B6B3A7640000 PUSH1 0x1F SLOAD PUSH1 0x1C PUSH0 CALLER PUSH20 0xFFFFFFFFFFFFFFFFFFFFFFFFFFFFFFFFFFFFFFFF AND PUSH20 0xFFFFFFFFFFFFFFFFFFFFFFFFFFFFFFFFFFFFFFFF AND DUP2 MSTORE PUSH1 0x20 ADD SWAP1 DUP2 MSTORE PUSH1 0x20 ADD PUSH0 KECCAK256 SLOAD PUSH2 0x1A78 SWAP2 SWAP1 PUSH2 0x32C5 JUMP JUMPDEST PUSH2 0x1A82 SWAP2 SWAP1 PUSH2 0x3333 JUMP JUMPDEST PUSH1 0x1D PUSH0 CALLER PUSH20 0xFFFFFFFFFFFFFFFFFFFFFFFFFFFFFFFFFFFFFFFF AND PUSH20 0xFFFFFFFFFFFFFFFFFFFFFFFFFFFFFFFFFFFFFFFF AND DUP2 MSTORE PUSH1 0x20 ADD SWAP1 DUP2 MSTORE PUSH1 0x20 ADD PUSH0 KECCAK256 DUP2 SWAP1 SSTORE POP POP JUMP JUMPDEST PUSH0 CALLER PUSH1 0x12 PUSH0 DUP3 PUSH20 0xFFFFFFFFFFFFFFFFFFFFFFFFFFFFFFFFFFFFFFFF AND PUSH20 0xFFFFFFFFFFFFFFFFFFFFFFFFFFFFFFFFFFFFFFFF AND DUP2 MSTORE PUSH1 0x20 ADD SWAP1 DUP2 MSTORE PUSH1 0x20 ADD PUSH0 KECCAK256 PUSH0 SWAP1 SLOAD SWAP1 PUSH2 0x100 EXP SWAP1 DIV PUSH1 0xFF AND ISZERO PUSH2 0x1B49 JUMPI PUSH1 0x40 MLOAD PUSH32 0x1F7B776B00000000000000000000000000000000000000000000000000000000 DUP2 MSTORE PUSH1 0x4 ADD PUSH1 0x40 MLOAD DUP1 SWAP2 SUB SWAP1 REVERT JUMPDEST DUP4 PUSH1 0x12 PUSH0 DUP3 PUSH20 0xFFFFFFFFFFFFFFFFFFFFFFFFFFFFFFFFFFFFFFFF AND PUSH20 0xFFFFFFFFFFFFFFFFFFFFFFFFFFFFFFFFFFFFFFFF AND DUP2 MSTORE PUSH1 0x20 ADD SWAP1 DUP2 MSTORE PUSH1 0x20 ADD PUSH0 KECCAK256 PUSH0 SWAP1 SLOAD SWAP1 PUSH2 0x100 EXP SWAP1 DIV PUSH1 0xFF AND ISZERO PUSH2 0x1BCB JUMPI PUSH1 0x40 MLOAD PUSH32 0x1F7B776B00000000000000000000000000000000000000000000000000000000 DUP2 MSTORE PUSH1 0x4 ADD PUSH1 0x40 MLOAD DUP1 SWAP2 SUB SWAP1 REVERT JUMPDEST CALLER PUSH1 0x14 PUSH0 SWAP1 SLOAD SWAP1 PUSH2 0x100 EXP SWAP1 DIV PUSH1 0xFF AND DUP1 ISZERO PUSH2 0x1C2E JUMPI POP PUSH1 0x13 PUSH0 DUP3 PUSH20 0xFFFFFFFFFFFFFFFFFFFFFFFFFFFFFFFFFFFFFFFF AND PUSH20 0xFFFFFFFFFFFFFFFFFFFFFFFFFFFFFFFFFFFFFFFF AND DUP2 MSTORE PUSH1 0x20 ADD SWAP1 DUP2 MSTORE PUSH1 0x20 ADD PUSH0 KECCAK256 PUSH0 SWAP1 SLOAD SWAP1 PUSH2 0x100 EXP SWAP1 DIV PUSH1 0xFF AND ISZERO JUMPDEST DUP1 ISZERO PUSH2 0x1C81 JUMPI POP PUSH1 0x15 PUSH0 DUP3 PUSH20 0xFFFFFFFFFFFFFFFFFFFFFFFFFFFFFFFFFFFFFFFF AND PUSH20 0xFFFFFFFFFFFFFFFFFFFFFFFFFFFFFFFFFFFFFFFF AND DUP2 MSTORE PUSH1 0x20 ADD SWAP1 DUP2 MSTORE PUSH1 0x20 ADD PUSH0 KECCAK256 PUSH0 SWAP1 SLOAD SWAP1 PUSH2 0x100 EXP SWAP1 DIV PUSH1 0xFF AND ISZERO JUMPDEST ISZERO PUSH2 0x1CC1 JUMPI PUSH1 0x40 MLOAD PUSH32 0x8C379A000000000000000000000000000000000000000000000000000000000 DUP2 MSTORE PUSH1 0x4 ADD PUSH2 0x1CB8 SWAP1 PUSH2 0x31DF JUMP JUMPDEST PUSH1 0x40 MLOAD DUP1 SWAP2 SUB SWAP1 REVERT JUMPDEST DUP6 PUSH1 0x14 PUSH0 SWAP1 SLOAD SWAP1 PUSH2 0x100 EXP SWAP1 DIV PUSH1 0xFF AND DUP1 ISZERO PUSH2 0x1D24 JUMPI POP PUSH1 0x13 PUSH0 DUP3 PUSH20 0xFFFFFFFFFFFFFFFFFFFFFFFFFFFFFFFFFFFFFFFF AND PUSH20 0xFFFFFFFFFFFFFFFFFFFFFFFFFFFFFFFFFFFFFFFF AND DUP2 MSTORE PUSH1 0x20 ADD SWAP1 DUP2 MSTORE PUSH1 0x20 ADD PUSH0 KECCAK256 PUSH0 SWAP1 SLOAD SWAP1 PUSH2 0x100 EXP SWAP1 DIV PUSH1 0xFF AND ISZERO JUMPDEST DUP1 ISZERO PUSH2 0x1D77 JUMPI POP PUSH1 0x15 PUSH0 DUP3 PUSH20 0xFFFFFFFFFFFFFFFFFFFFFFFFFFFFFFFFFFFFFFFF AND PUSH20 0xFFFFFFFFFFFFFFFFFFFFFFFFFFFFFFFFFFFFFFFF AND DUP2 MSTORE PUSH1 0x20 ADD SWAP1 DUP2 MSTORE PUSH1 0x20 ADD PUSH0 KECCAK256 PUSH0 SWAP1 SLOAD SWAP1 PUSH2 0x100 EXP SWAP1 DIV PUSH1 0xFF AND ISZERO JUMPDEST ISZERO PUSH2 0x1DB7 JUMPI PUSH1 0x40 MLOAD PUSH32 0x8C379A000000000000000000000000000000000000000000000000000000000 DUP2 MSTORE PUSH1 0x4 ADD PUSH2 0x1DAE SWAP1 PUSH2 0x31DF JUMP JUMPDEST PUSH1 0x40 MLOAD DUP1 SWAP2 SUB SWAP1 REVERT JUMPDEST PUSH2 0x1DC2 CALLER DUP9 DUP9 PUSH2 0x2178 JUMP JUMPDEST PUSH2 0x1DCE CALLER DUP9 DUP9 PUSH0 PUSH2 0x2420 JUMP JUMPDEST PUSH1 0x1 SWAP5 POP POP POP POP POP SWAP3 SWAP2 POP POP JUMP JUMPDEST PUSH1 0x15 PUSH1 0x20 MSTORE DUP1 PUSH0 MSTORE PUSH1 0x40 PUSH0 KECCAK256 PUSH0 SWAP2 POP SLOAD SWAP1 PUSH2 0x100 EXP SWAP1 DIV PUSH1 0xFF AND DUP2 JUMP JUMPDEST PUSH1 0x11 PUSH1 0x20 MSTORE DUP1 PUSH0 MSTORE PUSH1 0x40 PUSH0 KECCAK256 PUSH0 SWAP2 POP SWAP1 POP SLOAD DUP2 JUMP JUMPDEST PUSH1 0x22 PUSH0 SWAP1 SLOAD SWAP1 PUSH2 0x100 EXP SWAP1 DIV PUSH20 0xFFFFFFFFFFFFFFFFFFFFFFFFFFFFFFFFFFFFFFFF AND DUP2 JUMP JUMPDEST PUSH1 0x17 SLOAD DUP2 JUMP JUMPDEST PUSH1 0x20 SLOAD DUP2 JUMP JUMPDEST PUSH1 0x4 SLOAD DUP2 JUMP JUMPDEST PUSH1 0x13 PUSH1 0x20 MSTORE DUP1 PUSH0 MSTORE PUSH1 0x40 PUSH0 KECCAK256 PUSH0 SWAP2 POP SLOAD SWAP1 PUSH2 0x100 EXP SWAP1 DIV PUSH1 0xFF AND DUP2 JUMP JUMPDEST PUSH1 0x12 PUSH1 0x20 MSTORE DUP1 PUSH0 MSTORE PUSH1 0x40 PUSH0 KECCAK256 PUSH0 SWAP2 POP SLOAD SWAP1 PUSH2 0x100 EXP SWAP1 DIV PUSH1 0xFF AND DUP2 JUMP JUMPDEST PUSH0 PUSH1 0x6 PUSH0 DUP5 PUSH20 0xFFFFFFFFFFFFFFFFFFFFFFFFFFFFFFFFFFFFFFFF AND PUSH20 0xFFFFFFFFFFFFFFFFFFFFFFFFFFFFFFFFFFFFFFFF AND DUP2 MSTORE PUSH1 0x20 ADD SWAP1 DUP2 MSTORE PUSH1 0x20 ADD PUSH0 KECCAK256 PUSH0 DUP4 PUSH20 0xFFFFFFFFFFFFFFFFFFFFFFFFFFFFFFFFFFFFFFFF AND PUSH20 0xFFFFFFFFFFFFFFFFFFFFFFFFFFFFFFFFFFFFFFFF AND DUP2 MSTORE PUSH1 0x20 ADD SWAP1 DUP2 MSTORE PUSH1 0x20 ADD PUSH0 KECCAK256 SLOAD SWAP1 POP SWAP3 SWAP2 POP POP JUMP JUMPDEST PUSH1 0x1F SLOAD DUP2 JUMP JUMPDEST PUSH1 0xF PUSH0 CALLER PUSH20 0xFFFFFFFFFFFFFFFFFFFFFFFFFFFFFFFFFFFFFFFF AND PUSH20 0xFFFFFFFFFFFFFFFFFFFFFFFFFFFFFFFFFFFFFFFF AND DUP2 MSTORE PUSH1 0x20 ADD SWAP1 DUP2 MSTORE PUSH1 0x20 ADD PUSH0 KECCAK256 PUSH0 SWAP1 SLOAD SWAP1 PUSH2 0x100 EXP SWAP1 DIV PUSH1 0xFF AND ISZERO DUP1 ISZERO PUSH2 0x1FA5 JUMPI POP PUSH1 0xC PUSH0 CALLER PUSH20 0xFFFFFFFFFFFFFFFFFFFFFFFFFFFFFFFFFFFFFFFF AND PUSH20 0xFFFFFFFFFFFFFFFFFFFFFFFFFFFFFFFFFFFFFFFF AND DUP2 MSTORE PUSH1 0x20 ADD SWAP1 DUP2 MSTORE PUSH1 0x20 ADD PUSH0 KECCAK256 PUSH0 SWAP1 SLOAD SWAP1 PUSH2 0x100 EXP SWAP1 DIV PUSH1 0xFF AND ISZERO JUMPDEST DUP1 ISZERO PUSH2 0x1FFE JUMPI POP PUSH1 0xB PUSH0 SWAP1 SLOAD SWAP1 PUSH2 0x100 EXP SWAP1 DIV PUSH20 0xFFFFFFFFFFFFFFFFFFFFFFFFFFFFFFFFFFFFFFFF AND PUSH20 0xFFFFFFFFFFFFFFFFFFFFFFFFFFFFFFFFFFFFFFFF AND CALLER PUSH20 0xFFFFFFFFFFFFFFFFFFFFFFFFFFFFFFFFFFFFFFFF AND EQ ISZERO JUMPDEST ISZERO PUSH2 0x2035 JUMPI PUSH1 0x40 MLOAD PUSH32 0xF5D267EB00000000000000000000000000000000000000000000000000000000 DUP2 MSTORE PUSH1 0x4 ADD PUSH1 0x40 MLOAD DUP1 SWAP2 SUB SWAP1 REVERT JUMPDEST DUP3 PUSH1 0x7 PUSH0 ADD DUP2 SWAP1 SSTORE POP DUP2 PUSH1 0x7 PUSH1 0x1 ADD DUP2 SWAP1 SSTORE POP DUP1 PUSH1 0x7 PUSH1 0x2 ADD DUP2 SWAP1 SSTORE POP POP POP POP JUMP JUMPDEST PUSH1 0xF PUSH1 0x20 MSTORE DUP1 PUSH0 MSTORE PUSH1 0x40 PUSH0 KECCAK256 PUSH0 SWAP2 POP SLOAD SWAP1 PUSH2 0x100 EXP SWAP1 DIV PUSH1 0xFF AND DUP2 JUMP JUMPDEST PUSH1 0xD PUSH1 0x20 MSTORE DUP1 PUSH0 MSTORE PUSH1 0x40 PUSH0 KECCAK256 PUSH0 SWAP2 POP SLOAD SWAP1 PUSH2 0x100 EXP SWAP1 DIV PUSH1 0xFF AND DUP2 JUMP JUMPDEST DUP1 PUSH1 0x6 PUSH0 DUP6 PUSH20 0xFFFFFFFFFFFFFFFFFFFFFFFFFFFFFFFFFFFFFFFF AND PUSH20 0xFFFFFFFFFFFFFFFFFFFFFFFFFFFFFFFFFFFFFFFF AND DUP2 MSTORE PUSH1 0x20 ADD SWAP1 DUP2 MSTORE PUSH1 0x20 ADD PUSH0 KECCAK256 PUSH0 DUP5 PUSH20 0xFFFFFFFFFFFFFFFFFFFFFFFFFFFFFFFFFFFFFFFF AND PUSH20 0xFFFFFFFFFFFFFFFFFFFFFFFFFFFFFFFFFFFFFFFF AND DUP2 MSTORE PUSH1 0x20 ADD SWAP1 DUP2 MSTORE PUSH1 0x20 ADD PUSH0 KECCAK256 DUP2 SWAP1 SSTORE POP DUP2 PUSH20 0xFFFFFFFFFFFFFFFFFFFFFFFFFFFFFFFFFFFFFFFF AND DUP4 PUSH20 0xFFFFFFFFFFFFFFFFFFFFFFFFFFFFFFFFFFFFFFFF AND PUSH32 0x8C5BE1E5EBEC7D5BD14F71427D1E84F3DD0314C0F7B2291E5B200AC8C7C3B925 DUP4 PUSH1 0x40 MLOAD PUSH2 0x216B SWAP2 SWAP1 PUSH2 0x2E68 JUMP JUMPDEST PUSH1 0x40 MLOAD DUP1 SWAP2 SUB SWAP1 LOG3 POP POP POP JUMP JUMPDEST PUSH1 0x15 PUSH0 DUP5 PUSH20 0xFFFFFFFFFFFFFFFFFFFFFFFFFFFFFFFFFFFFFFFF AND PUSH20 0xFFFFFFFFFFFFFFFFFFFFFFFFFFFFFFFFFFFFFFFF AND DUP2 MSTORE PUSH1 0x20 ADD SWAP1 DUP2 MSTORE PUSH1 0x20 ADD PUSH0 KECCAK256 PUSH0 SWAP1 SLOAD SWAP1 PUSH2 0x100 EXP SWAP1 DIV PUSH1 0xFF AND PUSH2 0x2318 JUMPI PUSH0 PUSH2 0x2710 PUSH1 0x17 SLOAD PUSH1 0x3 SLOAD PUSH2 0x21DA SWAP2 SWAP1 PUSH2 0x32C5 JUMP JUMPDEST PUSH2 0x21E4 SWAP2 SWAP1 PUSH2 0x3333 JUMP JUMPDEST SWAP1 POP DUP1 DUP3 GT ISZERO PUSH2 0x2220 JUMPI PUSH1 0x40 MLOAD PUSH32 0x2B70FD5500000000000000000000000000000000000000000000000000000000 DUP2 MSTORE PUSH1 0x4 ADD PUSH1 0x40 MLOAD DUP1 SWAP2 SUB SWAP1 REVERT JUMPDEST PUSH0 PUSH2 0x2710 PUSH1 0x16 SLOAD PUSH1 0x3 SLOAD PUSH2 0x2234 SWAP2 SWAP1 PUSH2 0x32C5 JUMP JUMPDEST PUSH2 0x223E SWAP2 SWAP1 PUSH2 0x3333 JUMP JUMPDEST SWAP1 POP DUP1 DUP4 PUSH1 0x5 PUSH0 DUP8 PUSH20 0xFFFFFFFFFFFFFFFFFFFFFFFFFFFFFFFFFFFFFFFF AND PUSH20 0xFFFFFFFFFFFFFFFFFFFFFFFFFFFFFFFFFFFFFFFF AND DUP2 MSTORE PUSH1 0x20 ADD SWAP1 DUP2 MSTORE PUSH1 0x20 ADD PUSH0 KECCAK256 SLOAD PUSH2 0x228A SWAP2 SWAP1 PUSH2 0x33CB JUMP JUMPDEST GT DUP1 ISZERO PUSH2 0x22DE JUMPI POP PUSH1 0x15 PUSH0 DUP6 PUSH20 0xFFFFFFFFFFFFFFFFFFFFFFFFFFFFFFFFFFFFFFFF AND PUSH20 0xFFFFFFFFFFFFFFFFFFFFFFFFFFFFFFFFFFFFFFFF AND DUP2 MSTORE PUSH1 0x20 ADD SWAP1 DUP2 MSTORE PUSH1 0x20 ADD PUSH0 KECCAK256 PUSH0 SWAP1 SLOAD SWAP1 PUSH2 0x100 EXP SWAP1 DIV PUSH1 0xFF AND ISZERO JUMPDEST ISZERO PUSH2 0x2315 JUMPI PUSH1 0x40 MLOAD PUSH32 0xF50D423400000000000000000000000000000000000000000000000000000000 DUP2 MSTORE PUSH1 0x4 ADD PUSH1 0x40 MLOAD DUP1 SWAP2 SUB SWAP1 REVERT JUMPDEST POP POP JUMPDEST POP POP POP JUMP JUMPDEST PUSH0 PUSH1 0x6 PUSH0 DUP6 PUSH20 0xFFFFFFFFFFFFFFFFFFFFFFFFFFFFFFFFFFFFFFFF AND PUSH20 0xFFFFFFFFFFFFFFFFFFFFFFFFFFFFFFFFFFFFFFFF AND DUP2 MSTORE PUSH1 0x20 ADD SWAP1 DUP2 MSTORE PUSH1 0x20 ADD PUSH0 KECCAK256 PUSH0 DUP5 PUSH20 0xFFFFFFFFFFFFFFFFFFFFFFFFFFFFFFFFFFFFFFFF AND PUSH20 0xFFFFFFFFFFFFFFFFFFFFFFFFFFFFFFFFFFFFFFFF AND DUP2 MSTORE PUSH1 0x20 ADD SWAP1 DUP2 MSTORE PUSH1 0x20 ADD PUSH0 KECCAK256 SLOAD SWAP1 POP PUSH32 0xFFFFFFFFFFFFFFFFFFFFFFFFFFFFFFFFFFFFFFFFFFFFFFFFFFFFFFFFFFFFFFFF DUP2 EQ PUSH2 0x241A JUMPI DUP2 DUP2 LT ISZERO PUSH2 0x2403 JUMPI PUSH1 0x40 MLOAD PUSH32 0x8C379A000000000000000000000000000000000000000000000000000000000 DUP2 MSTORE PUSH1 0x4 ADD PUSH2 0x23FA SWAP1 PUSH2 0x356C JUMP JUMPDEST PUSH1 0x40 MLOAD DUP1 SWAP2 SUB SWAP1 REVERT JUMPDEST PUSH2 0x2419 DUP5 DUP5 DUP5 DUP5 PUSH2 0x2414 SWAP2 SWAP1 PUSH2 0x3292 JUMP JUMPDEST PUSH2 0x2091 JUMP JUMPDEST JUMPDEST POP POP POP POP JUMP JUMPDEST PUSH0 PUSH0 SWAP1 POP PUSH1 0x1 DUP3 PUSH1 0xFF AND SUB PUSH2 0x2454 JUMPI PUSH2 0x2710 PUSH1 0x7 PUSH1 0x1 ADD SLOAD DUP5 PUSH2 0x2443 SWAP2 SWAP1 PUSH2 0x32C5 JUMP JUMPDEST PUSH2 0x244D SWAP2 SWAP1 PUSH2 0x3333 JUMP JUMPDEST SWAP1 POP PUSH2 0x24A5 JUMP JUMPDEST PUSH1 0x2 DUP3 PUSH1 0xFF AND SUB PUSH2 0x2484 JUMPI PUSH2 0x2710 PUSH1 0x7 PUSH1 0x2 ADD SLOAD DUP5 PUSH2 0x2473 SWAP2 SWAP1 PUSH2 0x32C5 JUMP JUMPDEST PUSH2 0x247D SWAP2 SWAP1 PUSH2 0x3333 JUMP JUMPDEST SWAP1 POP PUSH2 0x24A4 JUMP JUMPDEST PUSH2 0x2710 PUSH1 0x7 PUSH0 ADD SLOAD DUP5 PUSH2 0x2497 SWAP2 SWAP1 PUSH2 0x32C5 JUMP JUMPDEST PUSH2 0x24A1 SWAP2 SWAP1 PUSH2 0x3333 JUMP JUMPDEST SWAP1 POP JUMPDEST JUMPDEST PUSH0 DUP2 DUP5 PUSH2 0x24B2 SWAP2 SWAP1 PUSH2 0x3292 JUMP JUMPDEST SWAP1 POP PUSH0 PUSH2 0x2710 PUSH1 0x19 SLOAD DUP5 PUSH2 0x24C6 SWAP2 SWAP1 PUSH2 0x32C5 JUMP JUMPDEST PUSH2 0x24D0 SWAP2 SWAP1 PUSH2 0x3333 JUMP JUMPDEST SWAP1 POP PUSH0 DUP2 GT ISZERO PUSH2 0x2501 JUMPI DUP1 PUSH1 0x1B PUSH0 DUP3 DUP3 SLOAD PUSH2 0x24EB SWAP2 SWAP1 PUSH2 0x33CB JUMP JUMPDEST SWAP3 POP POP DUP2 SWAP1 SSTORE POP DUP1 DUP4 PUSH2 0x24FE SWAP2 SWAP1 PUSH2 0x3292 JUMP JUMPDEST SWAP3 POP JUMPDEST DUP5 PUSH1 0x5 PUSH0 DUP10 PUSH20 0xFFFFFFFFFFFFFFFFFFFFFFFFFFFFFFFFFFFFFFFF AND PUSH20 0xFFFFFFFFFFFFFFFFFFFFFFFFFFFFFFFFFFFFFFFF AND DUP2 MSTORE PUSH1 0x20 ADD SWAP1 DUP2 MSTORE PUSH1 0x20 ADD PUSH0 KECCAK256 PUSH0 DUP3 DUP3 SLOAD PUSH2 0x254D SWAP2 SWAP1 PUSH2 0x3292 JUMP JUMPDEST SWAP3 POP POP DUP2 SWAP1 SSTORE POP DUP2 PUSH1 0x5 PUSH0 DUP9 PUSH20 0xFFFFFFFFFFFFFFFFFFFFFFFFFFFFFFFFFFFFFFFF AND PUSH20 0xFFFFFFFFFFFFFFFFFFFFFFFFFFFFFFFFFFFFFFFF AND DUP2 MSTORE PUSH1 0x20 ADD SWAP1 DUP2 MSTORE PUSH1 0x20 ADD PUSH0 KECCAK256 PUSH0 DUP3 DUP3 SLOAD PUSH2 0x25A0 SWAP2 SWAP1 PUSH2 0x33CB JUMP JUMPDEST SWAP3 POP POP DUP2 SWAP1 SSTORE POP PUSH0 DUP4 GT ISZERO PUSH2 0x26B0 JUMPI DUP3 PUSH1 0x5 PUSH0 PUSH1 0x7 PUSH1 0x3 ADD PUSH0 SWAP1 SLOAD SWAP1 PUSH2 0x100 EXP SWAP1 DIV PUSH20 0xFFFFFFFFFFFFFFFFFFFFFFFFFFFFFFFFFFFFFFFF AND PUSH20 0xFFFFFFFFFFFFFFFFFFFFFFFFFFFFFFFFFFFFFFFF AND PUSH20 0xFFFFFFFFFFFFFFFFFFFFFFFFFFFFFFFFFFFFFFFF AND DUP2 MSTORE PUSH1 0x20 ADD SWAP1 DUP2 MSTORE PUSH1 0x20 ADD PUSH0 KECCAK256 PUSH0 DUP3 DUP3 SLOAD PUSH2 0x261F SWAP2 SWAP1 PUSH2 0x33CB JUMP JUMPDEST SWAP3 POP POP DUP2 SWAP1 SSTORE POP PUSH1 0x7 PUSH1 0x3 ADD PUSH0 SWAP1 SLOAD SWAP1 PUSH2 0x100 EXP SWAP1 DIV PUSH20 0xFFFFFFFFFFFFFFFFFFFFFFFFFFFFFFFFFFFFFFFF AND PUSH20 0xFFFFFFFFFFFFFFFFFFFFFFFFFFFFFFFFFFFFFFFF AND DUP8 PUSH20 0xFFFFFFFFFFFFFFFFFFFFFFFFFFFFFFFFFFFFFFFF AND PUSH32 0xDDF252AD1BE2C89B69C2B068FC378DAA952BA7F163C4A11628F55A4DF523B3EF DUP6 PUSH1 0x40 MLOAD PUSH2 0x26A7 SWAP2 SWAP1 PUSH2 0x2E68 JUMP JUMPDEST PUSH1 0x40 MLOAD DUP1 SWAP2 SUB SWAP1 LOG3 JUMPDEST DUP6 PUSH20 0xFFFFFFFFFFFFFFFFFFFFFFFFFFFFFFFFFFFFFFFF AND DUP8 PUSH20 0xFFFFFFFFFFFFFFFFFFFFFFFFFFFFFFFFFFFFFFFF AND PUSH32 0xDDF252AD1BE2C89B69C2B068FC378DAA952BA7F163C4A11628F55A4DF523B3EF DUP5 PUSH1 0x40 MLOAD PUSH2 0x270D SWAP2 SWAP1 PUSH2 0x2E68 JUMP JUMPDEST PUSH1 0x40 MLOAD DUP1 SWAP2 SUB SWAP1 LOG3 PUSH1 0x1A SLOAD PUSH1 0x1B SLOAD LT ISZERO DUP1 ISZERO PUSH2 0x2776 JUMPI POP PUSH0 PUSH20 0xFFFFFFFFFFFFFFFFFFFFFFFFFFFFFFFFFFFFFFFF AND PUSH1 0x18 PUSH0 SWAP1 SLOAD SWAP1 PUSH2 0x100 EXP SWAP1 DIV PUSH20 0xFFFFFFFFFFFFFFFFFFFFFFFFFFFFFFFFFFFFFFFF AND PUSH20 0xFFFFFFFFFFFFFFFFFFFFFFFFFFFFFFFFFFFFFFFF AND EQ ISZERO JUMPDEST ISZERO PUSH2 0x2784 JUMPI PUSH2 0x2783 PUSH2 0x2AE1 JUMP JUMPDEST JUMPDEST POP POP POP POP POP POP POP JUMP JUMPDEST PUSH0 PUSH20 0xFFFFFFFFFFFFFFFFFFFFFFFFFFFFFFFFFFFFFFFF AND DUP2 PUSH20 0xFFFFFFFFFFFFFFFFFFFFFFFFFFFFFFFFFFFFFFFF AND SUB ISZERO PUSH2 0x28C8 JUMPI PUSH2 0x27C9 PUSH2 0x2B1D JUMP JUMPDEST PUSH1 0x1F DUP2 SWAP1 SSTORE POP TIMESTAMP PUSH1 0x20 DUP2 SWAP1 SSTORE POP PUSH0 PUSH20 0xFFFFFFFFFFFFFFFFFFFFFFFFFFFFFFFFFFFFFFFF AND DUP2 PUSH20 0xFFFFFFFFFFFFFFFFFFFFFFFFFFFFFFFFFFFFFFFF AND EQ PUSH2 0x28C7 JUMPI PUSH0 PUSH8 0xDE0B6B3A7640000 PUSH1 0x1D PUSH0 DUP5 PUSH20 0xFFFFFFFFFFFFFFFFFFFFFFFFFFFFFFFFFFFFFFFF AND PUSH20 0xFFFFFFFFFFFFFFFFFFFFFFFFFFFFFFFFFFFFFFFF AND DUP2 MSTORE PUSH1 0x20 ADD SWAP1 DUP2 MSTORE PUSH1 0x20 ADD PUSH0 KECCAK256 SLOAD PUSH1 0x1F SLOAD PUSH2 0x285E SWAP2 SWAP1 PUSH2 0x3292 JUMP JUMPDEST PUSH1 0x1C PUSH0 DUP6 PUSH20 0xFFFFFFFFFFFFFFFFFFFFFFFFFFFFFFFFFFFFFFFF AND PUSH20 0xFFFFFFFFFFFFFFFFFFFFFFFFFFFFFFFFFFFFFFFF AND DUP2 MSTORE PUSH1 0x20 ADD SWAP1 DUP2 MSTORE PUSH1 0x20 ADD PUSH0 KECCAK256 SLOAD PUSH2 0x28A6 SWAP2 SWAP1 PUSH2 0x32C5 JUMP JUMPDEST PUSH2 0x28B0 SWAP2 SWAP1 PUSH2 0x3333 JUMP JUMPDEST SWAP1 POP PUSH0 DUP2 GT ISZERO PUSH2 0x28C5 JUMPI PUSH2 0x28C4 DUP3 DUP3 PUSH2 0x2B7F JUMP JUMPDEST JUMPDEST POP JUMPDEST JUMPDEST POP JUMP JUMPDEST DUP1 PUSH1 0x5 PUSH0 DUP6 PUSH20 0xFFFFFFFFFFFFFFFFFFFFFFFFFFFFFFFFFFFFFFFF AND PUSH20 0xFFFFFFFFFFFFFFFFFFFFFFFFFFFFFFFFFFFFFFFF AND DUP2 MSTORE PUSH1 0x20 ADD SWAP1 DUP2 MSTORE PUSH1 0x20 ADD PUSH0 KECCAK256 SLOAD LT ISZERO PUSH2 0x294B JUMPI PUSH1 0x40 MLOAD PUSH32 0x8C379A000000000000000000000000000000000000000000000000000000000 DUP2 MSTORE PUSH1 0x4 ADD PUSH2 0x2942 SWAP1 PUSH2 0x35D4 JUMP JUMPDEST PUSH1 0x40 MLOAD DUP1 SWAP2 SUB SWAP1 REVERT JUMPDEST DUP1 PUSH1 0x5 PUSH0 DUP6 PUSH20 0xFFFFFFFFFFFFFFFFFFFFFFFFFFFFFFFFFFFFFFFF AND PUSH20 0xFFFFFFFFFFFFFFFFFFFFFFFFFFFFFFFFFFFFFFFF AND DUP2 MSTORE PUSH1 0x20 ADD SWAP1 DUP2 MSTORE PUSH1 0x20 ADD PUSH0 KECCAK256 PUSH0 DUP3 DUP3 SLOAD PUSH2 0x2997 SWAP2 SWAP1 PUSH2 0x3292 JUMP JUMPDEST SWAP3 POP POP DUP2 SWAP1 SSTORE POP DUP1 PUSH1 0x5 PUSH0 DUP5 PUSH20 0xFFFFFFFFFFFFFFFFFFFFFFFFFFFFFFFFFFFFFFFF AND PUSH20 0xFFFFFFFFFFFFFFFFFFFFFFFFFFFFFFFFFFFFFFFF AND DUP2 MSTORE PUSH1 0x20 ADD SWAP1 DUP2 MSTORE PUSH1 0x20 ADD PUSH0 KECCAK256 PUSH0 DUP3 DUP3 SLOAD PUSH2 0x29EA SWAP2 SWAP1 PUSH2 0x33CB JUMP JUMPDEST SWAP3 POP POP DUP2 SWAP1 SSTORE POP DUP2 PUSH20 0xFFFFFFFFFFFFFFFFFFFFFFFFFFFFFFFFFFFFFFFF AND DUP4 PUSH20 0xFFFFFFFFFFFFFFFFFFFFFFFFFFFFFFFFFFFFFFFF AND PUSH32 0xDDF252AD1BE2C89B69C2B068FC378DAA952BA7F163C4A11628F55A4DF523B3EF DUP4 PUSH1 0x40 MLOAD PUSH2 0x2A4E SWAP2 SWAP1 PUSH2 0x2E68 JUMP JUMPDEST PUSH1 0x40 MLOAD DUP1 SWAP2 SUB SWAP1 LOG3 POP POP POP JUMP JUMPDEST PUSH0 DUP2 PUSH1 0x80 ADD MLOAD DUP3 PUSH1 0x40 ADD MLOAD PUSH2 0x2A70 SWAP2 SWAP1 PUSH2 0x33CB JUMP JUMPDEST TIMESTAMP LT ISZERO PUSH2 0x2A7F JUMPI PUSH0 SWAP1 POP PUSH2 0x2ADC JUMP JUMPDEST PUSH0 DUP3 PUSH1 0x40 ADD MLOAD TIMESTAMP PUSH2 0x2A90 SWAP2 SWAP1 PUSH2 0x3292 JUMP JUMPDEST SWAP1 POP DUP3 PUSH1 0x60 ADD MLOAD DUP2 GT ISZERO PUSH2 0x2AA6 JUMPI DUP3 PUSH1 0x60 ADD MLOAD SWAP1 POP JUMPDEST PUSH0 DUP4 PUSH1 0x60 ADD MLOAD DUP3 DUP6 PUSH0 ADD MLOAD PUSH2 0x2ABB SWAP2 SWAP1 PUSH2 0x32C5 JUMP JUMPDEST PUSH2 0x2AC5 SWAP2 SWAP1 PUSH2 0x3333 JUMP JUMPDEST SWAP1 POP DUP4 PUSH1 0x20 ADD MLOAD DUP2 PUSH2 0x2AD7 SWAP2 SWAP1 PUSH2 0x3292 JUMP JUMPDEST SWAP3 POP POP POP JUMPDEST SWAP2 SWAP1 POP JUMP JUMPDEST PUSH0 PUSH1 0x1B SLOAD SWAP1 POP PUSH0 PUSH1 0x1B DUP2 SWAP1 SSTORE POP PUSH2 0x2B1A ADDRESS PUSH1 0x18 PUSH0 SWAP1 SLOAD SWAP1 PUSH2 0x100 EXP SWAP1 DIV PUSH20 0xFFFFFFFFFFFFFFFFFFFFFFFFFFFFFFFFFFFFFFFF AND DUP4 PUSH2 0x28CB JUMP JUMPDEST POP JUMP JUMPDEST PUSH0 PUSH0 PUSH1 0x1E SLOAD SUB PUSH2 0x2B31 JUMPI PUSH1 0x1F SLOAD SWAP1 POP PUSH2 0x2B7C JUMP JUMPDEST PUSH1 0x1E SLOAD PUSH8 0xDE0B6B3A7640000 PUSH1 0x21 SLOAD PUSH1 0x20 SLOAD TIMESTAMP PUSH2 0x2B4E SWAP2 SWAP1 PUSH2 0x3292 JUMP JUMPDEST PUSH2 0x2B58 SWAP2 SWAP1 PUSH2 0x32C5 JUMP JUMPDEST PUSH2 0x2B62 SWAP2 SWAP1 PUSH2 0x32C5 JUMP JUMPDEST PUSH2 0x2B6C SWAP2 SWAP1 PUSH2 0x3333 JUMP JUMPDEST PUSH1 0x1F SLOAD PUSH2 0x2B79 SWAP2 SWAP1 PUSH2 0x33CB JUMP JUMPDEST SWAP1 POP JUMPDEST SWAP1 JUMP JUMPDEST PUSH1 0x4 SLOAD DUP2 PUSH1 0x3 SLOAD PUSH2 0x2B90 SWAP2 SWAP1 PUSH2 0x33CB JUMP JUMPDEST GT ISZERO PUSH2 0x2BC8 JUMPI PUSH1 0x40 MLOAD PUSH32 0xC30436E900000000000000000000000000000000000000000000000000000000 DUP2 MSTORE PUSH1 0x4 ADD PUSH1 0x40 MLOAD DUP1 SWAP2 SUB SWAP1 REVERT JUMPDEST DUP1 PUSH1 0x3 PUSH0 DUP3 DUP3 SLOAD PUSH2 0x2BD9 SWAP2 SWAP1 PUSH2 0x33CB JUMP JUMPDEST SWAP3 POP POP DUP2 SWAP1 SSTORE POP DUP1 PUSH1 0x5 PUSH0 DUP5 PUSH20 0xFFFFFFFFFFFFFFFFFFFFFFFFFFFFFFFFFFFFFFFF AND PUSH20 0xFFFFFFFFFFFFFFFFFFFFFFFFFFFFFFFFFFFFFFFF AND DUP2 MSTORE PUSH1 0x20 ADD SWAP1 DUP2 MSTORE PUSH1 0x20 ADD PUSH0 KECCAK256 PUSH0 DUP3 DUP3 SLOAD PUSH2 0x2C2C SWAP2 SWAP1 PUSH2 0x33CB JUMP JUMPDEST SWAP3 POP POP DUP2 SWAP1 SSTORE POP DUP2 PUSH20 0xFFFFFFFFFFFFFFFFFFFFFFFFFFFFFFFFFFFFFFFF AND PUSH0 PUSH20 0xFFFFFFFFFFFFFFFFFFFFFFFFFFFFFFFFFFFFFFFF AND PUSH32 0xDDF252AD1BE2C89B69C2B068FC378DAA952BA7F163C4A11628F55A4DF523B3EF DUP4 PUSH1 0x40 MLOAD PUSH2 0x2C90 SWAP2 SWAP1 PUSH2 0x2E68 JUMP JUMPDEST PUSH1 0x40 MLOAD DUP1 SWAP2 SUB SWAP1 LOG3 POP POP JUMP JUMPDEST PUSH0 PUSH0 REVERT JUMPDEST PUSH0 PUSH20 0xFFFFFFFFFFFFFFFFFFFFFFFFFFFFFFFFFFFFFFFF DUP3 AND SWAP1 POP SWAP2 SWAP1 POP JUMP JUMPDEST PUSH0 PUSH2 0x2CC9 DUP3 PUSH2 0x2CA0 JUMP JUMPDEST SWAP1 POP SWAP2 SWAP1 POP JUMP JUMPDEST PUSH2 0x2CD9 DUP2 PUSH2 0x2CBF JUMP JUMPDEST DUP2 EQ PUSH2 0x2CE3 JUMPI PUSH0 PUSH0 REVERT JUMPDEST POP JUMP JUMPDEST PUSH0 DUP2 CALLDATALOAD SWAP1 POP PUSH2 0x2CF4 DUP2 PUSH2 0x2CD0 JUMP JUMPDEST SWAP3 SWAP2 POP POP JUMP JUMPDEST PUSH0 PUSH1 0x20 DUP3 DUP5 SUB SLT ISZERO PUSH2 0x2D0F JUMPI PUSH2 0x2D0E PUSH2 0x2C9C JUMP JUMPDEST JUMPDEST PUSH0 PUSH2 0x2D1C DUP5 DUP3 DUP6 ADD PUSH2 0x2CE6 JUMP JUMPDEST SWAP2 POP POP SWAP3 SWAP2 POP POP JUMP JUMPDEST PUSH0 DUP2 ISZERO ISZERO SWAP1 POP SWAP2 SWAP1 POP JUMP JUMPDEST PUSH2 0x2D39 DUP2 PUSH2 0x2D25 JUMP JUMPDEST DUP3 MSTORE POP POP JUMP JUMPDEST PUSH0 PUSH1 0x20 DUP3 ADD SWAP1 POP PUSH2 0x2D52 PUSH0 DUP4 ADD DUP5 PUSH2 0x2D30 JUMP JUMPDEST SWAP3 SWAP2 POP POP JUMP JUMPDEST PUSH0 DUP2 MLOAD SWAP1 POP SWAP2 SWAP1 POP JUMP JUMPDEST PUSH0 DUP3 DUP3 MSTORE PUSH1 0x20 DUP3 ADD SWAP1 POP SWAP3 SWAP2 POP POP JUMP JUMPDEST DUP3 DUP2 DUP4 MCOPY PUSH0 DUP4 DUP4 ADD MSTORE POP POP POP JUMP JUMPDEST PUSH0 PUSH1 0x1F NOT PUSH1 0x1F DUP4 ADD AND SWAP1 POP SWAP2 SWAP1 POP JUMP JUMPDEST PUSH0 PUSH2 0x2D9A DUP3 PUSH2 0x2D58 JUMP JUMPDEST PUSH2 0x2DA4 DUP2 DUP6 PUSH2 0x2D62 JUMP JUMPDEST SWAP4 POP PUSH2 0x2DB4 DUP2 DUP6 PUSH1 0x20 DUP7 ADD PUSH2 0x2D72 JUMP JUMPDEST PUSH2 0x2DBD DUP2 PUSH2 0x2D80 JUMP JUMPDEST DUP5 ADD SWAP2 POP POP SWAP3 SWAP2 POP POP JUMP JUMPDEST PUSH0 PUSH1 0x20 DUP3 ADD SWAP1 POP DUP2 DUP2 SUB PUSH0 DUP4 ADD MSTORE PUSH2 0x2DE0 DUP2 DUP5 PUSH2 0x2D90 JUMP JUMPDEST SWAP1 POP SWAP3 SWAP2 POP POP JUMP JUMPDEST PUSH0 DUP2 SWAP1 POP SWAP2 SWAP1 POP JUMP JUMPDEST PUSH2 0x2DFA DUP2 PUSH2 0x2DE8 JUMP JUMPDEST DUP2 EQ PUSH2 0x2E04 JUMPI PUSH0 PUSH0 REVERT JUMPDEST POP JUMP JUMPDEST PUSH0 DUP2 CALLDATALOAD SWAP1 POP PUSH2 0x2E15 DUP2 PUSH2 0x2DF1 JUMP JUMPDEST SWAP3 SWAP2 POP POP JUMP JUMPDEST PUSH0 PUSH0 PUSH1 0x40 DUP4 DUP6 SUB SLT ISZERO PUSH2 0x2E31 JUMPI PUSH2 0x2E30 PUSH2 0x2C9C JUMP JUMPDEST JUMPDEST PUSH0 PUSH2 0x2E3E DUP6 DUP3 DUP7 ADD PUSH2 0x2CE6 JUMP JUMPDEST SWAP3 POP POP PUSH1 0x20 PUSH2 0x2E4F DUP6 DUP3 DUP7 ADD PUSH2 0x2E07 JUMP JUMPDEST SWAP2 POP POP SWAP3 POP SWAP3 SWAP1 POP JUMP JUMPDEST PUSH2 0x2E62 DUP2 PUSH2 0x2DE8 JUMP JUMPDEST DUP3 MSTORE POP POP JUMP JUMPDEST PUSH0 PUSH1 0x20 DUP3 ADD SWAP1 POP PUSH2 0x2E7B PUSH0 DUP4 ADD DUP5 PUSH2 0x2E59 JUMP JUMPDEST SWAP3 SWAP2 POP POP JUMP JUMPDEST PUSH2 0x2E8A DUP2 PUSH2 0x2CBF JUMP JUMPDEST DUP3 MSTORE POP POP JUMP JUMPDEST PUSH0 PUSH1 0xA0 DUP3 ADD SWAP1 POP PUSH2 0x2EA3 PUSH0 DUP4 ADD DUP9 PUSH2 0x2E59 JUMP JUMPDEST PUSH2 0x2EB0 PUSH1 0x20 DUP4 ADD DUP8 PUSH2 0x2E59 JUMP JUMPDEST PUSH2 0x2EBD PUSH1 0x40 DUP4 ADD DUP7 PUSH2 0x2E59 JUMP JUMPDEST PUSH2 0x2ECA PUSH1 0x60 DUP4 ADD DUP6 PUSH2 0x2E81 JUMP JUMPDEST PUSH2 0x2ED7 PUSH1 0x80 DUP4 ADD DUP5 PUSH2 0x2D30 JUMP JUMPDEST SWAP7 SWAP6 POP POP POP POP POP POP JUMP JUMPDEST PUSH0 PUSH0 PUSH0 PUSH1 0x60 DUP5 DUP7 SUB SLT ISZERO PUSH2 0x2EF8 JUMPI PUSH2 0x2EF7 PUSH2 0x2C9C JUMP JUMPDEST JUMPDEST PUSH0 PUSH2 0x2F05 DUP7 DUP3 DUP8 ADD PUSH2 0x2CE6 JUMP JUMPDEST SWAP4 POP POP PUSH1 0x20 PUSH2 0x2F16 DUP7 DUP3 DUP8 ADD PUSH2 0x2CE6 JUMP JUMPDEST SWAP3 POP POP PUSH1 0x40 PUSH2 0x2F27 DUP7 DUP3 DUP8 ADD PUSH2 0x2E07 JUMP JUMPDEST SWAP2 POP POP SWAP3 POP SWAP3 POP SWAP3 JUMP JUMPDEST PUSH0 PUSH1 0x20 DUP3 DUP5 SUB SLT ISZERO PUSH2 0x2F46 JUMPI PUSH2 0x2F45 PUSH2 0x2C9C JUMP JUMPDEST JUMPDEST PUSH0 PUSH2 0x2F53 DUP5 DUP3 DUP6 ADD PUSH2 0x2E07 JUMP JUMPDEST SWAP2 POP POP SWAP3 SWAP2 POP POP JUMP JUMPDEST PUSH0 PUSH1 0xFF DUP3 AND SWAP1 POP SWAP2 SWAP1 POP JUMP JUMPDEST PUSH2 0x2F71 DUP2 PUSH2 0x2F5C JUMP JUMPDEST DUP3 MSTORE POP POP JUMP JUMPDEST PUSH0 PUSH1 0x20 DUP3 ADD SWAP1 POP PUSH2 0x2F8A PUSH0 DUP4 ADD DUP5 PUSH2 0x2F68 JUMP JUMPDEST SWAP3 SWAP2 POP POP JUMP JUMPDEST PUSH0 PUSH0 PUSH0 PUSH0 PUSH1 0x80 DUP6 DUP8 SUB SLT ISZERO PUSH2 0x2FA8 JUMPI PUSH2 0x2FA7 PUSH2 0x2C9C JUMP JUMPDEST JUMPDEST PUSH0 PUSH2 0x2FB5 DUP8 DUP3 DUP9 ADD PUSH2 0x2CE6 JUMP JUMPDEST SWAP5 POP POP PUSH1 0x20 PUSH2 0x2FC6 DUP8 DUP3 DUP9 ADD PUSH2 0x2E07 JUMP JUMPDEST SWAP4 POP POP PUSH1 0x40 PUSH2 0x2FD7 DUP8 DUP3 DUP9 ADD PUSH2 0x2E07 JUMP JUMPDEST SWAP3 POP POP PUSH1 0x60 PUSH2 0x2FE8 DUP8 DUP3 DUP9 ADD PUSH2 0x2E07 JUMP JUMPDEST SWAP2 POP POP SWAP3 SWAP6 SWAP2 SWAP5 POP SWAP3 POP JUMP JUMPDEST PUSH0 PUSH1 0xC0 DUP3 ADD SWAP1 POP PUSH2 0x3007 PUSH0 DUP4 ADD DUP10 PUSH2 0x2E59 JUMP JUMPDEST PUSH2 0x3014 PUSH1 0x20 DUP4 ADD DUP9 PUSH2 0x2E59 JUMP JUMPDEST PUSH2 0x3021 PUSH1 0x40 DUP4 ADD DUP8 PUSH2 0x2E59 JUMP JUMPDEST PUSH2 0x302E PUSH1 0x60 DUP4 ADD DUP7 PUSH2 0x2E59 JUMP JUMPDEST PUSH2 0x303B PUSH1 0x80 DUP4 ADD DUP6 PUSH2 0x2E59 JUMP JUMPDEST PUSH2 0x3048 PUSH1 0xA0 DUP4 ADD DUP5 PUSH2 0x2D30 JUMP JUMPDEST SWAP8 SWAP7 POP POP POP POP POP POP POP JUMP JUMPDEST PUSH0 PUSH1 0x20 DUP3 ADD SWAP1 POP PUSH2 0x3066 PUSH0 DUP4 ADD DUP5 PUSH2 0x2E81 JUMP JUMPDEST SWAP3 SWAP2 POP POP JUMP JUMPDEST PUSH0 PUSH0 PUSH1 0x40 DUP4 DUP6 SUB SLT ISZERO PUSH2 0x3082 JUMPI PUSH2 0x3081 PUSH2 0x2C9C JUMP JUMPDEST JUMPDEST PUSH0 PUSH2 0x308F DUP6 DUP3 DUP7 ADD PUSH2 0x2E07 JUMP JUMPDEST SWAP3 POP POP PUSH1 0x20 PUSH2 0x30A0 DUP6 DUP3 DUP7 ADD PUSH2 0x2E07 JUMP JUMPDEST SWAP2 POP POP SWAP3 POP SWAP3 SWAP1 POP JUMP JUMPDEST PUSH0 PUSH0 PUSH1 0x40 DUP4 DUP6 SUB SLT ISZERO PUSH2 0x30C0 JUMPI PUSH2 0x30BF PUSH2 0x2C9C JUMP JUMPDEST JUMPDEST PUSH0 PUSH2 0x30CD DUP6 DUP3 DUP7 ADD PUSH2 0x2CE6 JUMP JUMPDEST SWAP3 POP POP PUSH1 0x20 PUSH2 0x30DE DUP6 DUP3 DUP7 ADD PUSH2 0x2CE6 JUMP JUMPDEST SWAP2 POP POP SWAP3 POP SWAP3 SWAP1 POP JUMP JUMPDEST PUSH0 PUSH0 PUSH0 PUSH1 0x60 DUP5 DUP7 SUB SLT ISZERO PUSH2 0x30FF JUMPI PUSH2 0x30FE PUSH2 0x2C9C JUMP JUMPDEST JUMPDEST PUSH0 PUSH2 0x310C DUP7 DUP3 DUP8 ADD PUSH2 0x2E07 JUMP JUMPDEST SWAP4 POP POP PUSH1 0x20 PUSH2 0x311D DUP7 DUP3 DUP8 ADD PUSH2 0x2E07 JUMP JUMPDEST SWAP3 POP POP PUSH1 0x40 PUSH2 0x312E DUP7 DUP3 DUP8 ADD PUSH2 0x2E07 JUMP JUMPDEST SWAP2 POP POP SWAP3 POP SWAP3 POP SWAP3 JUMP JUMPDEST PUSH32 0x4E487B7100000000000000000000000000000000000000000000000000000000 PUSH0 MSTORE PUSH1 0x22 PUSH1 0x4 MSTORE PUSH1 0x24 PUSH0 REVERT JUMPDEST PUSH0 PUSH1 0x2 DUP3 DIV SWAP1 POP PUSH1 0x1 DUP3 AND DUP1 PUSH2 0x317C JUMPI PUSH1 0x7F DUP3 AND SWAP2 POP JUMPDEST PUSH1 0x20 DUP3 LT DUP2 SUB PUSH2 0x318F JUMPI PUSH2 0x318E PUSH2 0x3138 JUMP JUMPDEST JUMPDEST POP SWAP2 SWAP1 POP JUMP JUMPDEST PUSH32 0x41646472657373206E6F742077686974656C6973746564000000000000000000 PUSH0 DUP3 ADD MSTORE POP JUMP JUMPDEST PUSH0 PUSH2 0x31C9 PUSH1 0x17 DUP4 PUSH2 0x2D62 JUMP JUMPDEST SWAP2 POP PUSH2 0x31D4 DUP3 PUSH2 0x3195 JUMP JUMPDEST PUSH1 0x20 DUP3 ADD SWAP1 POP SWAP2 SWAP1 POP JUMP JUMPDEST PUSH0 PUSH1 0x20 DUP3 ADD SWAP1 POP DUP2 DUP2 SUB PUSH0 DUP4 ADD MSTORE PUSH2 0x31F6 DUP2 PUSH2 0x31BD JUMP JUMPDEST SWAP1 POP SWAP2 SWAP1 POP JUMP JUMPDEST PUSH32 0x496E76616C696420616D6F756E74000000000000000000000000000000000000 PUSH0 DUP3 ADD MSTORE POP JUMP JUMPDEST PUSH0 PUSH2 0x3231 PUSH1 0xE DUP4 PUSH2 0x2D62 JUMP JUMPDEST SWAP2 POP PUSH2 0x323C DUP3 PUSH2 0x31FD JUMP JUMPDEST PUSH1 0x20 DUP3 ADD SWAP1 POP SWAP2 SWAP1 POP JUMP JUMPDEST PUSH0 PUSH1 0x20 DUP3 ADD SWAP1 POP DUP2 DUP2 SUB PUSH0 DUP4 ADD MSTORE PUSH2 0x325E DUP2 PUSH2 0x3225 JUMP JUMPDEST SWAP1 POP SWAP2 SWAP1 POP JUMP JUMPDEST PUSH32 0x4E487B7100000000000000000000000000000000000000000000000000000000 PUSH0 MSTORE PUSH1 0x11 PUSH1 0x4 MSTORE PUSH1 0x24 PUSH0 REVERT JUMPDEST PUSH0 PUSH2 0x329C DUP3 PUSH2 0x2DE8 JUMP JUMPDEST SWAP2 POP PUSH2 0x32A7 DUP4 PUSH2 0x2DE8 JUMP JUMPDEST SWAP3 POP DUP3 DUP3 SUB SWAP1 POP DUP2 DUP2 GT ISZERO PUSH2 0x32BF JUMPI PUSH2 0x32BE PUSH2 0x3265 JUMP JUMPDEST JUMPDEST SWAP3 SWAP2 POP POP JUMP JUMPDEST PUSH0 PUSH2 0x32CF DUP3 PUSH2 0x2DE8 JUMP JUMPDEST SWAP2 POP PUSH2 0x32DA DUP4 PUSH2 0x2DE8 JUMP JUMPDEST SWAP3 POP DUP3 DUP3 MUL PUSH2 0x32E8 DUP2 PUSH2 0x2DE8 JUMP JUMPDEST SWAP2 POP DUP3 DUP3 DIV DUP5 EQ DUP4 ISZERO OR PUSH2 0x32FF JUMPI PUSH2 0x32FE PUSH2 0x3265 JUMP JUMPDEST JUMPDEST POP SWAP3 SWAP2 POP POP JUMP JUMPDEST PUSH32 0x4E487B7100000000000000000000000000000000000000000000000000000000 PUSH0 MSTORE PUSH1 0x12 PUSH1 0x4 MSTORE PUSH1 0x24 PUSH0 REVERT JUMPDEST PUSH0 PUSH2 0x333D DUP3 PUSH2 0x2DE8 JUMP JUMPDEST SWAP2 POP PUSH2 0x3348 DUP4 PUSH2 0x2DE8 JUMP JUMPDEST SWAP3 POP DUP3 PUSH2 0x3358 JUMPI PUSH2 0x3357 PUSH2 0x3306 JUMP JUMPDEST JUMPDEST DUP3 DUP3 DIV SWAP1 POP SWAP3 SWAP2 POP POP JUMP JUMPDEST PUSH32 0x546F6F206D616E792076657374696E67207363686564756C6573000000000000 PUSH0 DUP3 ADD MSTORE POP JUMP JUMPDEST PUSH0 PUSH2 0x3397 PUSH1 0x1A DUP4 PUSH2 0x2D62 JUMP JUMPDEST SWAP2 POP PUSH2 0x33A2 DUP3 PUSH2 0x3363 JUMP JUMPDEST PUSH1 0x20 DUP3 ADD SWAP1 POP SWAP2 SWAP1 POP JUMP JUMPDEST PUSH0 PUSH1 0x20 DUP3 ADD SWAP1 POP DUP2 DUP2 SUB PUSH0 DUP4 ADD MSTORE PUSH2 0x33C4 DUP2 PUSH2 0x338B JUMP JUMPDEST SWAP1 POP SWAP2 SWAP1 POP JUMP JUMPDEST PUSH0 PUSH2 0x33D5 DUP3 PUSH2 0x2DE8 JUMP JUMPDEST SWAP2 POP PUSH2 0x33E0 DUP4 PUSH2 0x2DE8 JUMP JUMPDEST SWAP3 POP DUP3 DUP3 ADD SWAP1 POP DUP1 DUP3 GT ISZERO PUSH2 0x33F8 JUMPI PUSH2 0x33F7 PUSH2 0x3265 JUMP JUMPDEST JUMPDEST SWAP3 SWAP2 POP POP JUMP JUMPDEST PUSH0 PUSH1 0x40 DUP3 ADD SWAP1 POP PUSH2 0x3411 PUSH0 DUP4 ADD DUP6 PUSH2 0x2E59 JUMP JUMPDEST PUSH2 0x341E PUSH1 0x20 DUP4 ADD DUP5 PUSH2 0x2E59 JUMP JUMPDEST SWAP4 SWAP3 POP POP POP JUMP JUMPDEST PUSH32 0x4E487B7100000000000000000000000000000000000000000000000000000000 PUSH0 MSTORE PUSH1 0x32 PUSH1 0x4 MSTORE PUSH1 0x24 PUSH0 REVERT JUMPDEST PUSH32 0x4E6F20746F6B656E7320746F2072656C65617365000000000000000000000000 PUSH0 DUP3 ADD MSTORE POP JUMP JUMPDEST PUSH0 PUSH2 0x3486 PUSH1 0x14 DUP4 PUSH2 0x2D62 JUMP JUMPDEST SWAP2 POP PUSH2 0x3491 DUP3 PUSH2 0x3452 JUMP JUMPDEST PUSH1 0x20 DUP3 ADD SWAP1 POP SWAP2 SWAP1 POP JUMP JUMPDEST PUSH0 PUSH1 0x20 DUP3 ADD SWAP1 POP DUP2 DUP2 SUB PUSH0 DUP4 ADD MSTORE PUSH2 0x34B3 DUP2 PUSH2 0x347A JUMP JUMPDEST SWAP1 POP SWAP2 SWAP1 POP JUMP JUMPDEST PUSH32 0x43616E6E6F74207374616B652030000000000000000000000000000000000000 PUSH0 DUP3 ADD MSTORE POP JUMP JUMPDEST PUSH0 PUSH2 0x34EE PUSH1 0xE DUP4 PUSH2 0x2D62 JUMP JUMPDEST SWAP2 POP PUSH2 0x34F9 DUP3 PUSH2 0x34BA JUMP JUMPDEST PUSH1 0x20 DUP3 ADD SWAP1 POP SWAP2 SWAP1 POP JUMP JUMPDEST PUSH0 PUSH1 0x20 DUP3 ADD SWAP1 POP DUP2 DUP2 SUB PUSH0 DUP4 ADD MSTORE PUSH2 0x351B DUP2 PUSH2 0x34E2 JUMP JUMPDEST SWAP1 POP SWAP2 SWAP1 POP JUMP JUMPDEST PUSH32 0x496E73756666696369656E7420616C6C6F77616E636500000000000000000000 PUSH0 DUP3 ADD MSTORE POP JUMP JUMPDEST PUSH0 PUSH2 0x3556 PUSH1 0x16 DUP4 PUSH2 0x2D62 JUMP JUMPDEST SWAP2 POP PUSH2 0x3561 DUP3 PUSH2 0x3522 JUMP JUMPDEST PUSH1 0x20 DUP3 ADD SWAP1 POP SWAP2 SWAP1 POP JUMP JUMPDEST PUSH0 PUSH1 0x20 DUP3 ADD SWAP1 POP DUP2 DUP2 SUB PUSH0 DUP4 ADD MSTORE PUSH2 0x3583 DUP2 PUSH2 0x354A JUMP JUMPDEST SWAP1 POP SWAP2 SWAP1 POP JUMP JUMPDEST PUSH32 0x496E73756666696369656E742062616C616E6365000000000000000000000000 PUSH0 DUP3 ADD MSTORE POP JUMP JUMPDEST PUSH0 PUSH2 0x35BE PUSH1 0x14 DUP4 PUSH2 0x2D62 JUMP JUMPDEST SWAP2 POP PUSH2 0x35C9 DUP3 PUSH2 0x358A JUMP JUMPDEST PUSH1 0x20 DUP3 ADD SWAP1 POP SWAP2 SWAP1 POP JUMP JUMPDEST PUSH0 PUSH1 0x20 DUP3 ADD SWAP1 POP DUP2 DUP2 SUB PUSH0 DUP4 ADD MSTORE PUSH2 0x35EB DUP2 PUSH2 0x35B2 JUMP JUMPDEST SWAP1 POP SWAP2 SWAP1 POP JUMP INVALID LOG2 PUSH5 0x6970667358 0x22 SLT KECCAK256 0xB3 0xC EXTCODEHASH BLOBHASH MLOAD BLOCKHASH 0x29 0xB8 0x2D 0x1F PUSH14 0xDB1B8D21ED2B4174B5674C65DEDE 0xA6 0x1E SELFDESTRUCT SELFDESTRUCT 0x26 MCOPY MSTORE PUSH5 0x736F6C6343 STOP ADDMOD 0x1E STOP CALLER "
				},
				"gasEstimates": {
					"creation": {
						"codeDepositCost": "2772800",
						"executionCost": "infinite",
						"totalCost": "infinite"
					},
					"external": {
						"accumulatedLiquidity()": "2514",
						"admins(address)": "2879",
						"allowance(address,address)": "infinite",
						"approve(address,uint256)": "infinite",
						"balanceOf(address)": "2940",
						"blacklisted(address)": "2877",
						"burners(address)": "2880",
						"createVestingSchedule(address,uint256,uint256,uint256)": "infinite",
						"decimals()": "2578",
						"feeCollector()": "2553",
						"feeConfig()": "infinite",
						"feeManagers(address)": "2965",
						"lastUpdateTime()": "2514",
						"liquidityFee()": "2559",
						"liquidityPool()": "2575",
						"maxHoldPercentage()": "2538",
						"maxSupply()": "2536",
						"maxTxPercentage()": "2492",
						"minTokensForLiquidity()": "2492",
						"minters(address)": "2987",
						"name()": "infinite",
						"owner()": "2598",
						"releaseVestedTokens(uint256)": "infinite",
						"rewardDebt(address)": "2914",
						"rewardPerTokenStored()": "2513",
						"rewardRate()": "2558",
						"setFeeStructure(uint256,uint256,uint256)": "infinite",
						"setLiquidityPool(address,uint256)": "51469",
						"setRewardRate(uint256)": "26985",
						"setTradingLimits(uint256,uint256)": "infinite",
						"stake(uint256)": "infinite",
						"stakedBalance(address)": "2936",
						"symbol()": "infinite",
						"totalStaked()": "2493",
						"totalSupply()": "2560",
						"totalVested(address)": "2957",
						"transfer(address,uint256)": "infinite",
						"transferFrom(address,address,uint256)": "infinite",
						"unlimitedAccounts(address)": "2966",
						"unstake(uint256)": "infinite",
						"vestingSchedules(address,uint256)": "infinite",
						"whitelistEnabled()": "2556",
						"whitelisted(address)": "2966"
					},
					"internal": {
						"_approve(address,address,uint256)": "infinite",
						"_burn(address,uint256)": "infinite",
						"_createLiquidity()": "infinite",
						"_mint(address,uint256)": "infinite",
						"_releasableAmount(struct DeFiSuperToken.VestingSchedule memory)": "infinite",
						"_rewardPerToken()": "infinite",
						"_spendAllowance(address,address,uint256)": "infinite",
						"_transfer(address,address,uint256)": "infinite",
						"_transferWithAdvancedFees(address,address,uint256,uint8)": "infinite",
						"_updateReward(address)": "infinite",
						"_validateTransfer(address,address,uint256)": "infinite"
					}
				},
				"methodIdentifiers": {
					"accumulatedLiquidity()": "66c21a12",
					"admins(address)": "429b62e5",
					"allowance(address,address)": "dd62ed3e",
					"approve(address,uint256)": "095ea7b3",
					"balanceOf(address)": "70a08231",
					"blacklisted(address)": "dbac26e9",
					"burners(address)": "03d41e0e",
					"createVestingSchedule(address,uint256,uint256,uint256)": "3f4e8e80",
					"decimals()": "313ce567",
					"feeCollector()": "c415b95c",
					"feeConfig()": "1e5eb1d0",
					"feeManagers(address)": "ef897f07",
					"lastUpdateTime()": "c8f33c91",
					"liquidityFee()": "98118cb4",
					"liquidityPool()": "665a11ca",
					"maxHoldPercentage()": "099b17ed",
					"maxSupply()": "d5abeb01",
					"maxTxPercentage()": "c891571c",
					"minTokensForLiquidity()": "a2e59f57",
					"minters(address)": "f46eccc4",
					"name()": "06fdde03",
					"owner()": "8da5cb5b",
					"releaseVestedTokens(uint256)": "7d2aeb8a",
					"rewardDebt(address)": "5873eb9b",
					"rewardPerTokenStored()": "df136d65",
					"rewardRate()": "7b0a47ee",
					"setFeeStructure(uint256,uint256,uint256)": "e5782fd5",
					"setLiquidityPool(address,uint256)": "63b8ae72",
					"setRewardRate(uint256)": "9e447fc6",
					"setTradingLimits(uint256,uint256)": "7c97e93d",
					"stake(uint256)": "a694fc3a",
					"stakedBalance(address)": "60217267",
					"symbol()": "95d89b41",
					"totalStaked()": "817b1cd2",
					"totalSupply()": "18160ddd",
					"totalVested(address)": "b13e4a9d",
					"transfer(address,uint256)": "a9059cbb",
					"transferFrom(address,address,uint256)": "23b872dd",
					"unlimitedAccounts(address)": "aea29b84",
					"unstake(uint256)": "2e17de78",
					"vestingSchedules(address,uint256)": "45626bd6",
					"whitelistEnabled()": "51fb012d",
					"whitelisted(address)": "d936547e"
				}
			},
			"storageLayout": {
				"storage": [
					{
						"astId": 3,
						"contract": "Solidity/Tokens/SuperToken.sol:DeFiSuperToken",
						"label": "name",
						"offset": 0,
						"slot": "0",
						"type": "t_string_storage"
					},
					{
						"astId": 5,
						"contract": "Solidity/Tokens/SuperToken.sol:DeFiSuperToken",
						"label": "symbol",
						"offset": 0,
						"slot": "1",
						"type": "t_string_storage"
					},
					{
						"astId": 7,
						"contract": "Solidity/Tokens/SuperToken.sol:DeFiSuperToken",
						"label": "decimals",
						"offset": 0,
						"slot": "2",
						"type": "t_uint8"
					},
					{
						"astId": 9,
						"contract": "Solidity/Tokens/SuperToken.sol:DeFiSuperToken",
						"label": "totalSupply",
						"offset": 0,
						"slot": "3",
						"type": "t_uint256"
					},
					{
						"astId": 11,
						"contract": "Solidity/Tokens/SuperToken.sol:DeFiSuperToken",
						"label": "maxSupply",
						"offset": 0,
						"slot": "4",
						"type": "t_uint256"
					},
					{
						"astId": 15,
						"contract": "Solidity/Tokens/SuperToken.sol:DeFiSuperToken",
						"label": "_balances",
						"offset": 0,
						"slot": "5",
						"type": "t_mapping(t_address,t_uint256)"
					},
					{
						"astId": 21,
						"contract": "Solidity/Tokens/SuperToken.sol:DeFiSuperToken",
						"label": "_allowances",
						"offset": 0,
						"slot": "6",
						"type": "t_mapping(t_address,t_mapping(t_address,t_uint256))"
					},
					{
						"astId": 35,
						"contract": "Solidity/Tokens/SuperToken.sol:DeFiSuperToken",
						"label": "feeConfig",
						"offset": 0,
						"slot": "7",
						"type": "t_struct(FeeConfig)32_storage"
					},
					{
						"astId": 37,
						"contract": "Solidity/Tokens/SuperToken.sol:DeFiSuperToken",
						"label": "owner",
						"offset": 0,
						"slot": "11",
						"type": "t_address"
					},
					{
						"astId": 41,
						"contract": "Solidity/Tokens/SuperToken.sol:DeFiSuperToken",
						"label": "admins",
						"offset": 0,
						"slot": "12",
						"type": "t_mapping(t_address,t_bool)"
					},
					{
						"astId": 45,
						"contract": "Solidity/Tokens/SuperToken.sol:DeFiSuperToken",
						"label": "minters",
						"offset": 0,
						"slot": "13",
						"type": "t_mapping(t_address,t_bool)"
					},
					{
						"astId": 49,
						"contract": "Solidity/Tokens/SuperToken.sol:DeFiSuperToken",
						"label": "burners",
						"offset": 0,
						"slot": "14",
						"type": "t_mapping(t_address,t_bool)"
					},
					{
						"astId": 53,
						"contract": "Solidity/Tokens/SuperToken.sol:DeFiSuperToken",
						"label": "feeManagers",
						"offset": 0,
						"slot": "15",
						"type": "t_mapping(t_address,t_bool)"
					},
					{
						"astId": 72,
						"contract": "Solidity/Tokens/SuperToken.sol:DeFiSuperToken",
						"label": "vestingSchedules",
						"offset": 0,
						"slot": "16",
						"type": "t_mapping(t_address,t_array(t_struct(VestingSchedule)66_storage)dyn_storage)"
					},
					{
						"astId": 76,
						"contract": "Solidity/Tokens/SuperToken.sol:DeFiSuperToken",
						"label": "totalVested",
						"offset": 0,
						"slot": "17",
						"type": "t_mapping(t_address,t_uint256)"
					},
					{
						"astId": 80,
						"contract": "Solidity/Tokens/SuperToken.sol:DeFiSuperToken",
						"label": "blacklisted",
						"offset": 0,
						"slot": "18",
						"type": "t_mapping(t_address,t_bool)"
					},
					{
						"astId": 84,
						"contract": "Solidity/Tokens/SuperToken.sol:DeFiSuperToken",
						"label": "whitelisted",
						"offset": 0,
						"slot": "19",
						"type": "t_mapping(t_address,t_bool)"
					},
					{
						"astId": 86,
						"contract": "Solidity/Tokens/SuperToken.sol:DeFiSuperToken",
						"label": "whitelistEnabled",
						"offset": 0,
						"slot": "20",
						"type": "t_bool"
					},
					{
						"astId": 90,
						"contract": "Solidity/Tokens/SuperToken.sol:DeFiSuperToken",
						"label": "unlimitedAccounts",
						"offset": 0,
						"slot": "21",
						"type": "t_mapping(t_address,t_bool)"
					},
					{
						"astId": 92,
						"contract": "Solidity/Tokens/SuperToken.sol:DeFiSuperToken",
						"label": "maxHoldPercentage",
						"offset": 0,
						"slot": "22",
						"type": "t_uint256"
					},
					{
						"astId": 94,
						"contract": "Solidity/Tokens/SuperToken.sol:DeFiSuperToken",
						"label": "maxTxPercentage",
						"offset": 0,
						"slot": "23",
						"type": "t_uint256"
					},
					{
						"astId": 96,
						"contract": "Solidity/Tokens/SuperToken.sol:DeFiSuperToken",
						"label": "liquidityPool",
						"offset": 0,
						"slot": "24",
						"type": "t_address"
					},
					{
						"astId": 98,
						"contract": "Solidity/Tokens/SuperToken.sol:DeFiSuperToken",
						"label": "liquidityFee",
						"offset": 0,
						"slot": "25",
						"type": "t_uint256"
					},
					{
						"astId": 100,
						"contract": "Solidity/Tokens/SuperToken.sol:DeFiSuperToken",
						"label": "minTokensForLiquidity",
						"offset": 0,
						"slot": "26",
						"type": "t_uint256"
					},
					{
						"astId": 102,
						"contract": "Solidity/Tokens/SuperToken.sol:DeFiSuperToken",
						"label": "accumulatedLiquidity",
						"offset": 0,
						"slot": "27",
						"type": "t_uint256"
					},
					{
						"astId": 106,
						"contract": "Solidity/Tokens/SuperToken.sol:DeFiSuperToken",
						"label": "stakedBalance",
						"offset": 0,
						"slot": "28",
						"type": "t_mapping(t_address,t_uint256)"
					},
					{
						"astId": 110,
						"contract": "Solidity/Tokens/SuperToken.sol:DeFiSuperToken",
						"label": "rewardDebt",
						"offset": 0,
						"slot": "29",
						"type": "t_mapping(t_address,t_uint256)"
					},
					{
						"astId": 112,
						"contract": "Solidity/Tokens/SuperToken.sol:DeFiSuperToken",
						"label": "totalStaked",
						"offset": 0,
						"slot": "30",
						"type": "t_uint256"
					},
					{
						"astId": 114,
						"contract": "Solidity/Tokens/SuperToken.sol:DeFiSuperToken",
						"label": "rewardPerTokenStored",
						"offset": 0,
						"slot": "31",
						"type": "t_uint256"
					},
					{
						"astId": 116,
						"contract": "Solidity/Tokens/SuperToken.sol:DeFiSuperToken",
						"label": "lastUpdateTime",
						"offset": 0,
						"slot": "32",
						"type": "t_uint256"
					},
					{
						"astId": 118,
						"contract": "Solidity/Tokens/SuperToken.sol:DeFiSuperToken",
						"label": "rewardRate",
						"offset": 0,
						"slot": "33",
						"type": "t_uint256"
					},
					{
						"astId": 162,
						"contract": "Solidity/Tokens/SuperToken.sol:DeFiSuperToken",
						"label": "feeCollector",
						"offset": 0,
						"slot": "34",
						"type": "t_address"
					}
				],
				"types": {
					"t_address": {
						"encoding": "inplace",
						"label": "address",
						"numberOfBytes": "20"
					},
					"t_array(t_struct(VestingSchedule)66_storage)dyn_storage": {
						"base": "t_struct(VestingSchedule)66_storage",
						"encoding": "dynamic_array",
						"label": "struct DeFiSuperToken.VestingSchedule[]",
						"numberOfBytes": "32"
					},
					"t_bool": {
						"encoding": "inplace",
						"label": "bool",
						"numberOfBytes": "1"
					},
					"t_mapping(t_address,t_array(t_struct(VestingSchedule)66_storage)dyn_storage)": {
						"encoding": "mapping",
						"key": "t_address",
						"label": "mapping(address => struct DeFiSuperToken.VestingSchedule[])",
						"numberOfBytes": "32",
						"value": "t_array(t_struct(VestingSchedule)66_storage)dyn_storage"
					},
					"t_mapping(t_address,t_bool)": {
						"encoding": "mapping",
						"key": "t_address",
						"label": "mapping(address => bool)",
						"numberOfBytes": "32",
						"value": "t_bool"
					},
					"t_mapping(t_address,t_mapping(t_address,t_uint256))": {
						"encoding": "mapping",
						"key": "t_address",
						"label": "mapping(address => mapping(address => uint256))",
						"numberOfBytes": "32",
						"value": "t_mapping(t_address,t_uint256)"
					},
					"t_mapping(t_address,t_uint256)": {
						"encoding": "mapping",
						"key": "t_address",
						"label": "mapping(address => uint256)",
						"numberOfBytes": "32",
						"value": "t_uint256"
					},
					"t_string_storage": {
						"encoding": "bytes",
						"label": "string",
						"numberOfBytes": "32"
					},
					"t_struct(FeeConfig)32_storage": {
						"encoding": "inplace",
						"label": "struct DeFiSuperToken.FeeConfig",
						"members": [
							{
								"astId": 23,
								"contract": "Solidity/Tokens/SuperToken.sol:DeFiSuperToken",
								"label": "transferFee",
								"offset": 0,
								"slot": "0",
								"type": "t_uint256"
							},
							{
								"astId": 25,
								"contract": "Solidity/Tokens/SuperToken.sol:DeFiSuperToken",
								"label": "buyFee",
								"offset": 0,
								"slot": "1",
								"type": "t_uint256"
							},
							{
								"astId": 27,
								"contract": "Solidity/Tokens/SuperToken.sol:DeFiSuperToken",
								"label": "sellFee",
								"offset": 0,
								"slot": "2",
								"type": "t_uint256"
							},
							{
								"astId": 29,
								"contract": "Solidity/Tokens/SuperToken.sol:DeFiSuperToken",
								"label": "feeCollector",
								"offset": 0,
								"slot": "3",
								"type": "t_address"
							},
							{
								"astId": 31,
								"contract": "Solidity/Tokens/SuperToken.sol:DeFiSuperToken",
								"label": "feeInToken",
								"offset": 20,
								"slot": "3",
								"type": "t_bool"
							}
						],
						"numberOfBytes": "128"
					},
					"t_struct(VestingSchedule)66_storage": {
						"encoding": "inplace",
						"label": "struct DeFiSuperToken.VestingSchedule",
						"members": [
							{
								"astId": 55,
								"contract": "Solidity/Tokens/SuperToken.sol:DeFiSuperToken",
								"label": "totalAmount",
								"offset": 0,
								"slot": "0",
								"type": "t_uint256"
							},
							{
								"astId": 57,
								"contract": "Solidity/Tokens/SuperToken.sol:DeFiSuperToken",
								"label": "releasedAmount",
								"offset": 0,
								"slot": "1",
								"type": "t_uint256"
							},
							{
								"astId": 59,
								"contract": "Solidity/Tokens/SuperToken.sol:DeFiSuperToken",
								"label": "startTime",
								"offset": 0,
								"slot": "2",
								"type": "t_uint256"
							},
							{
								"astId": 61,
								"contract": "Solidity/Tokens/SuperToken.sol:DeFiSuperToken",
								"label": "duration",
								"offset": 0,
								"slot": "3",
								"type": "t_uint256"
							},
							{
								"astId": 63,
								"contract": "Solidity/Tokens/SuperToken.sol:DeFiSuperToken",
								"label": "cliff",
								"offset": 0,
								"slot": "4",
								"type": "t_uint256"
							},
							{
								"astId": 65,
								"contract": "Solidity/Tokens/SuperToken.sol:DeFiSuperToken",
								"label": "exists",
								"offset": 0,
								"slot": "5",
								"type": "t_bool"
							}
						],
						"numberOfBytes": "192"
					},
					"t_uint256": {
						"encoding": "inplace",
						"label": "uint256",
						"numberOfBytes": "32"
					},
					"t_uint8": {
						"encoding": "inplace",
						"label": "uint8",
						"numberOfBytes": "1"
					}
				}
			},
			"userdoc": {
				"kind": "user",
				"methods": {},
				"version": 1
			}
		}
	}
}