{
	"tryit/1.sol": {
		"SecureBank": {
			"abi": [
				{
					"inputs": [],
					"stateMutability": "nonpayable",
					"type": "constructor"
				},
				{
					"inputs": [],
					"name": "ContractPaused",
					"type": "error"
				},
				{
					"inputs": [],
					"name": "InsufficientBalance",
					"type": "error"
				},
				{
					"inputs": [],
					"name": "NotOwner",
					"type": "error"
				},
				{
					"anonymous": false,
					"inputs": [
						{
							"indexed": true,
							"internalType": "address",
							"name": "user",
							"type": "address"
						},
						{
							"indexed": false,
							"internalType": "uint256",
							"name": "amount",
							"type": "uint256"
						}
					],
					"name": "Deposited",
					"type": "event"
				},
				{
					"anonymous": false,
					"inputs": [
						{
							"indexed": true,
							"internalType": "address",
							"name": "user",
							"type": "address"
						},
						{
							"indexed": false,
							"internalType": "uint256",
							"name": "amount",
							"type": "uint256"
						}
					],
					"name": "Withdrawn",
					"type": "event"
				},
				{
					"inputs": [],
					"name": "deposit",
					"outputs": [],
					"stateMutability": "payable",
					"type": "function"
				},
				{
					"inputs": [],
					"name": "emergencyPause",
					"outputs": [],
					"stateMutability": "nonpayable",
					"type": "function"
				},
				{
					"inputs": [],
					"name": "emergencyWithdraw",
					"outputs": [],
					"stateMutability": "nonpayable",
					"type": "function"
				},
				{
					"inputs": [],
					"name": "getBalance",
					"outputs": [
						{
							"internalType": "uint256",
							"name": "",
							"type": "uint256"
						}
					],
					"stateMutability": "view",
					"type": "function"
				},
				{
					"inputs": [],
					"name": "owner",
					"outputs": [
						{
							"internalType": "address",
							"name": "",
							"type": "address"
						}
					],
					"stateMutability": "view",
					"type": "function"
				},
				{
					"inputs": [],
					"name": "paused",
					"outputs": [
						{
							"internalType": "bool",
							"name": "",
							"type": "bool"
						}
					],
					"stateMutability": "view",
					"type": "function"
				},
				{
					"inputs": [
						{
							"internalType": "uint256",
							"name": "amount",
							"type": "uint256"
						}
					],
					"name": "withdraw",
					"outputs": [],
					"stateMutability": "nonpayable",
					"type": "function"
				}
			],
			"devdoc": {
				"kind": "dev",
				"methods": {},
				"version": 1
			},
			"evm": {
				"assembly": "    /* \"tryit/1.sol\":61:2086  contract SecureBank {... */\n  mstore(0x40, 0x80)\n    /* \"tryit/1.sol\":833:884  constructor() {... */\n  callvalue\n  dup1\n  iszero\n  tag_1\n  jumpi\n  revert(0x00, 0x00)\ntag_1:\n  pop\n    /* \"tryit/1.sol\":866:876  msg.sender */\n  caller\n    /* \"tryit/1.sol\":858:863  owner */\n  0x01\n  0x00\n    /* \"tryit/1.sol\":858:876  owner = msg.sender */\n  0x0100\n  exp\n  dup2\n  sload\n  dup2\n  0xffffffffffffffffffffffffffffffffffffffff\n  mul\n  not\n  and\n  swap1\n  dup4\n  0xffffffffffffffffffffffffffffffffffffffff\n  and\n  mul\n  or\n  swap1\n  sstore\n  pop\n    /* \"tryit/1.sol\":61:2086  contract SecureBank {... */\n  dataSize(sub_0)\n  dup1\n  dataOffset(sub_0)\n  0x00\n  codecopy\n  0x00\n  return\nstop\n\nsub_0: assembly {\n        /* \"tryit/1.sol\":61:2086  contract SecureBank {... */\n      mstore(0x40, 0x80)\n      jumpi(tag_1, lt(calldatasize, 0x04))\n      shr(0xe0, calldataload(0x00))\n      dup1\n      0x5c975abb\n      gt\n      tag_9\n      jumpi\n      dup1\n      0x5c975abb\n      eq\n      tag_5\n      jumpi\n      dup1\n      0x8da5cb5b\n      eq\n      tag_6\n      jumpi\n      dup1\n      0xd0e30db0\n      eq\n      tag_7\n      jumpi\n      dup1\n      0xdb2e21bc\n      eq\n      tag_8\n      jumpi\n      jump(tag_1)\n    tag_9:\n      dup1\n      0x12065fe0\n      eq\n      tag_2\n      jumpi\n      dup1\n      0x2e1a7d4d\n      eq\n      tag_3\n      jumpi\n      dup1\n      0x51858e27\n      eq\n      tag_4\n      jumpi\n    tag_1:\n      revert(0x00, 0x00)\n        /* \"tryit/1.sol\":1565:1663  function getBalance() public view returns (uint256) {... */\n    tag_2:\n      callvalue\n      dup1\n      iszero\n      tag_10\n      jumpi\n      revert(0x00, 0x00)\n    tag_10:\n      pop\n      tag_11\n      tag_12\n      jump\t// in\n    tag_11:\n      mload(0x40)\n      tag_13\n      swap2\n      swap1\n      tag_14\n      jump\t// in\n    tag_13:\n      mload(0x40)\n      dup1\n      swap2\n      sub\n      swap1\n      return\n        /* \"tryit/1.sol\":1175:1519  function withdraw(uint256 amount) external whenNotPaused {... */\n    tag_3:\n      callvalue\n      dup1\n      iszero\n      tag_15\n      jumpi\n      revert(0x00, 0x00)\n    tag_15:\n      pop\n      tag_16\n      0x04\n      dup1\n      calldatasize\n      sub\n      dup2\n      add\n      swap1\n      tag_17\n      swap2\n      swap1\n      tag_18\n      jump\t// in\n    tag_17:\n      tag_19\n      jump\t// in\n    tag_16:\n      stop\n        /* \"tryit/1.sol\":1885:1960  function emergencyPause() public onlyOwner {... */\n    tag_4:\n      callvalue\n      dup1\n      iszero\n      tag_20\n      jumpi\n      revert(0x00, 0x00)\n    tag_20:\n      pop\n      tag_21\n      tag_22\n      jump\t// in\n    tag_21:\n      stop\n        /* \"tryit/1.sol\":207:225  bool public paused */\n    tag_5:\n      callvalue\n      dup1\n      iszero\n      tag_23\n      jumpi\n      revert(0x00, 0x00)\n    tag_23:\n      pop\n      tag_24\n      tag_25\n      jump\t// in\n    tag_24:\n      mload(0x40)\n      tag_26\n      swap2\n      swap1\n      tag_27\n      jump\t// in\n    tag_26:\n      mload(0x40)\n      dup1\n      swap2\n      sub\n      swap1\n      return\n        /* \"tryit/1.sol\":180:200  address public owner */\n    tag_6:\n      callvalue\n      dup1\n      iszero\n      tag_28\n      jumpi\n      revert(0x00, 0x00)\n    tag_28:\n      pop\n      tag_29\n      tag_30\n      jump\t// in\n    tag_29:\n      mload(0x40)\n      tag_31\n      swap2\n      swap1\n      tag_32\n      jump\t// in\n    tag_31:\n      mload(0x40)\n      dup1\n      swap2\n      sub\n      swap1\n      return\n        /* \"tryit/1.sol\":952:1100  function deposit() public payable whenNotPaused {... */\n    tag_7:\n      tag_33\n      tag_34\n      jump\t// in\n    tag_33:\n      stop\n        /* \"tryit/1.sol\":1972:2083  function emergencyWithdraw() public onlyOwner {... */\n    tag_8:\n      callvalue\n      dup1\n      iszero\n      tag_35\n      jumpi\n      revert(0x00, 0x00)\n    tag_35:\n      pop\n      tag_36\n      tag_37\n      jump\t// in\n    tag_36:\n      stop\n        /* \"tryit/1.sol\":1565:1663  function getBalance() public view returns (uint256) {... */\n    tag_12:\n        /* \"tryit/1.sol\":1608:1615  uint256 */\n      0x00\n        /* \"tryit/1.sol\":1635:1643  balances */\n      0x00\n        /* \"tryit/1.sol\":1635:1655  balances[msg.sender] */\n      0x00\n        /* \"tryit/1.sol\":1644:1654  msg.sender */\n      caller\n        /* \"tryit/1.sol\":1635:1655  balances[msg.sender] */\n      0xffffffffffffffffffffffffffffffffffffffff\n      and\n      0xffffffffffffffffffffffffffffffffffffffff\n      and\n      dup2\n      mstore\n      0x20\n      add\n      swap1\n      dup2\n      mstore\n      0x20\n      add\n      0x00\n      keccak256\n      sload\n        /* \"tryit/1.sol\":1628:1655  return balances[msg.sender] */\n      swap1\n      pop\n        /* \"tryit/1.sol\":1565:1663  function getBalance() public view returns (uint256) {... */\n      swap1\n      jump\t// out\n        /* \"tryit/1.sol\":1175:1519  function withdraw(uint256 amount) external whenNotPaused {... */\n    tag_19:\n        /* \"tryit/1.sol\":770:776  paused */\n      0x01\n      0x14\n      swap1\n      sload\n      swap1\n      0x0100\n      exp\n      swap1\n      div\n      0xff\n      and\n        /* \"tryit/1.sol\":766:801  if (paused) revert ContractPaused() */\n      iszero\n      tag_40\n      jumpi\n        /* \"tryit/1.sol\":785:801  ContractPaused() */\n      mload(0x40)\n      0xab35696f00000000000000000000000000000000000000000000000000000000\n      dup2\n      mstore\n      0x04\n      add\n      mload(0x40)\n      dup1\n      swap2\n      sub\n      swap1\n      revert\n        /* \"tryit/1.sol\":766:801  if (paused) revert ContractPaused() */\n    tag_40:\n        /* \"tryit/1.sol\":1332:1338  amount */\n      dup1\n        /* \"tryit/1.sol\":1309:1317  balances */\n      0x00\n        /* \"tryit/1.sol\":1309:1329  balances[msg.sender] */\n      0x00\n        /* \"tryit/1.sol\":1318:1328  msg.sender */\n      caller\n        /* \"tryit/1.sol\":1309:1329  balances[msg.sender] */\n      0xffffffffffffffffffffffffffffffffffffffff\n      and\n      0xffffffffffffffffffffffffffffffffffffffff\n      and\n      dup2\n      mstore\n      0x20\n      add\n      swap1\n      dup2\n      mstore\n      0x20\n      add\n      0x00\n      keccak256\n      sload\n        /* \"tryit/1.sol\":1309:1338  balances[msg.sender] < amount */\n      lt\n        /* \"tryit/1.sol\":1305:1368  if (balances[msg.sender] < amount) revert InsufficientBalance() */\n      iszero\n      tag_42\n      jumpi\n        /* \"tryit/1.sol\":1347:1368  InsufficientBalance() */\n      mload(0x40)\n      0xf4d678b800000000000000000000000000000000000000000000000000000000\n      dup2\n      mstore\n      0x04\n      add\n      mload(0x40)\n      dup1\n      swap2\n      sub\n      swap1\n      revert\n        /* \"tryit/1.sol\":1305:1368  if (balances[msg.sender] < amount) revert InsufficientBalance() */\n    tag_42:\n        /* \"tryit/1.sol\":1413:1419  amount */\n      dup1\n        /* \"tryit/1.sol\":1389:1397  balances */\n      0x00\n        /* \"tryit/1.sol\":1389:1409  balances[msg.sender] */\n      0x00\n        /* \"tryit/1.sol\":1398:1408  msg.sender */\n      caller\n        /* \"tryit/1.sol\":1389:1409  balances[msg.sender] */\n      0xffffffffffffffffffffffffffffffffffffffff\n      and\n      0xffffffffffffffffffffffffffffffffffffffff\n      and\n      dup2\n      mstore\n      0x20\n      add\n      swap1\n      dup2\n      mstore\n      0x20\n      add\n      0x00\n      keccak256\n      0x00\n        /* \"tryit/1.sol\":1389:1419  balances[msg.sender] -= amount */\n      dup3\n      dup3\n      sload\n      tag_43\n      swap2\n      swap1\n      tag_44\n      jump\t// in\n    tag_43:\n      swap3\n      pop\n      pop\n      dup2\n      swap1\n      sstore\n      pop\n        /* \"tryit/1.sol\":1438:1448  msg.sender */\n      caller\n        /* \"tryit/1.sol\":1430:1458  payable(msg.sender).transfer */\n      0xffffffffffffffffffffffffffffffffffffffff\n      and\n        /* \"tryit/1.sol\":1430:1466  payable(msg.sender).transfer(amount) */\n      0x08fc\n        /* \"tryit/1.sol\":1459:1465  amount */\n      dup3\n        /* \"tryit/1.sol\":1430:1466  payable(msg.sender).transfer(amount) */\n      swap1\n      dup2\n      iszero\n      mul\n      swap1\n      mload(0x40)\n      0x00\n      mload(0x40)\n      dup1\n      dup4\n      sub\n      dup2\n      dup6\n      dup9\n      dup9\n      call\n      swap4\n      pop\n      pop\n      pop\n      pop\n      iszero\n      dup1\n      iszero\n      tag_46\n      jumpi\n      returndatacopy(0x00, 0x00, returndatasize)\n      revert(0x00, returndatasize)\n    tag_46:\n      pop\n        /* \"tryit/1.sol\":1492:1502  msg.sender */\n      caller\n        /* \"tryit/1.sol\":1482:1511  Withdrawn(msg.sender, amount) */\n      0xffffffffffffffffffffffffffffffffffffffff\n      and\n      0x7084f5476618d8e60b11ef0d7d3f06914655adb8793e28ff7f018d4c76d505d5\n        /* \"tryit/1.sol\":1504:1510  amount */\n      dup3\n        /* \"tryit/1.sol\":1482:1511  Withdrawn(msg.sender, amount) */\n      mload(0x40)\n      tag_47\n      swap2\n      swap1\n      tag_14\n      jump\t// in\n    tag_47:\n      mload(0x40)\n      dup1\n      swap2\n      sub\n      swap1\n      log2\n        /* \"tryit/1.sol\":1175:1519  function withdraw(uint256 amount) external whenNotPaused {... */\n      pop\n      jump\t// out\n        /* \"tryit/1.sol\":1885:1960  function emergencyPause() public onlyOwner {... */\n    tag_22:\n        /* \"tryit/1.sol\":630:635  owner */\n      0x01\n      0x00\n      swap1\n      sload\n      swap1\n      0x0100\n      exp\n      swap1\n      div\n      0xffffffffffffffffffffffffffffffffffffffff\n      and\n        /* \"tryit/1.sol\":616:635  msg.sender != owner */\n      0xffffffffffffffffffffffffffffffffffffffff\n      and\n        /* \"tryit/1.sol\":616:626  msg.sender */\n      caller\n        /* \"tryit/1.sol\":616:635  msg.sender != owner */\n      0xffffffffffffffffffffffffffffffffffffffff\n      and\n      eq\n        /* \"tryit/1.sol\":612:654  if (msg.sender != owner) revert NotOwner() */\n      tag_49\n      jumpi\n        /* \"tryit/1.sol\":644:654  NotOwner() */\n      mload(0x40)\n      0x30cd747100000000000000000000000000000000000000000000000000000000\n      dup2\n      mstore\n      0x04\n      add\n      mload(0x40)\n      dup1\n      swap2\n      sub\n      swap1\n      revert\n        /* \"tryit/1.sol\":612:654  if (msg.sender != owner) revert NotOwner() */\n    tag_49:\n        /* \"tryit/1.sol\":1948:1952  true */\n      0x01\n        /* \"tryit/1.sol\":1939:1945  paused */\n      dup1\n      0x14\n        /* \"tryit/1.sol\":1939:1952  paused = true */\n      0x0100\n      exp\n      dup2\n      sload\n      dup2\n      0xff\n      mul\n      not\n      and\n      swap1\n      dup4\n      iszero\n      iszero\n      mul\n      or\n      swap1\n      sstore\n      pop\n        /* \"tryit/1.sol\":1885:1960  function emergencyPause() public onlyOwner {... */\n      jump\t// out\n        /* \"tryit/1.sol\":207:225  bool public paused */\n    tag_25:\n      0x01\n      0x14\n      swap1\n      sload\n      swap1\n      0x0100\n      exp\n      swap1\n      div\n      0xff\n      and\n      dup2\n      jump\t// out\n        /* \"tryit/1.sol\":180:200  address public owner */\n    tag_30:\n      0x01\n      0x00\n      swap1\n      sload\n      swap1\n      0x0100\n      exp\n      swap1\n      div\n      0xffffffffffffffffffffffffffffffffffffffff\n      and\n      dup2\n      jump\t// out\n        /* \"tryit/1.sol\":952:1100  function deposit() public payable whenNotPaused {... */\n    tag_34:\n        /* \"tryit/1.sol\":770:776  paused */\n      0x01\n      0x14\n      swap1\n      sload\n      swap1\n      0x0100\n      exp\n      swap1\n      div\n      0xff\n      and\n        /* \"tryit/1.sol\":766:801  if (paused) revert ContractPaused() */\n      iszero\n      tag_52\n      jumpi\n        /* \"tryit/1.sol\":785:801  ContractPaused() */\n      mload(0x40)\n      0xab35696f00000000000000000000000000000000000000000000000000000000\n      dup2\n      mstore\n      0x04\n      add\n      mload(0x40)\n      dup1\n      swap2\n      sub\n      swap1\n      revert\n        /* \"tryit/1.sol\":766:801  if (paused) revert ContractPaused() */\n    tag_52:\n        /* \"tryit/1.sol\":1035:1044  msg.value */\n      callvalue\n        /* \"tryit/1.sol\":1011:1019  balances */\n      0x00\n        /* \"tryit/1.sol\":1011:1031  balances[msg.sender] */\n      0x00\n        /* \"tryit/1.sol\":1020:1030  msg.sender */\n      caller\n        /* \"tryit/1.sol\":1011:1031  balances[msg.sender] */\n      0xffffffffffffffffffffffffffffffffffffffff\n      and\n      0xffffffffffffffffffffffffffffffffffffffff\n      and\n      dup2\n      mstore\n      0x20\n      add\n      swap1\n      dup2\n      mstore\n      0x20\n      add\n      0x00\n      keccak256\n      0x00\n        /* \"tryit/1.sol\":1011:1044  balances[msg.sender] += msg.value */\n      dup3\n      dup3\n      sload\n      tag_54\n      swap2\n      swap1\n      tag_55\n      jump\t// in\n    tag_54:\n      swap3\n      pop\n      pop\n      dup2\n      swap1\n      sstore\n      pop\n        /* \"tryit/1.sol\":1070:1080  msg.sender */\n      caller\n        /* \"tryit/1.sol\":1060:1092  Deposited(msg.sender, msg.value) */\n      0xffffffffffffffffffffffffffffffffffffffff\n      and\n      0x2da466a7b24304f47e87fa2e1e5a81b9831ce54fec19055ce277ca2f39ba42c4\n        /* \"tryit/1.sol\":1082:1091  msg.value */\n      callvalue\n        /* \"tryit/1.sol\":1060:1092  Deposited(msg.sender, msg.value) */\n      mload(0x40)\n      tag_56\n      swap2\n      swap1\n      tag_14\n      jump\t// in\n    tag_56:\n      mload(0x40)\n      dup1\n      swap2\n      sub\n      swap1\n      log2\n        /* \"tryit/1.sol\":952:1100  function deposit() public payable whenNotPaused {... */\n      jump\t// out\n        /* \"tryit/1.sol\":1972:2083  function emergencyWithdraw() public onlyOwner {... */\n    tag_37:\n        /* \"tryit/1.sol\":630:635  owner */\n      0x01\n      0x00\n      swap1\n      sload\n      swap1\n      0x0100\n      exp\n      swap1\n      div\n      0xffffffffffffffffffffffffffffffffffffffff\n      and\n        /* \"tryit/1.sol\":616:635  msg.sender != owner */\n      0xffffffffffffffffffffffffffffffffffffffff\n      and\n        /* \"tryit/1.sol\":616:626  msg.sender */\n      caller\n        /* \"tryit/1.sol\":616:635  msg.sender != owner */\n      0xffffffffffffffffffffffffffffffffffffffff\n      and\n      eq\n        /* \"tryit/1.sol\":612:654  if (msg.sender != owner) revert NotOwner() */\n      tag_58\n      jumpi\n        /* \"tryit/1.sol\":644:654  NotOwner() */\n      mload(0x40)\n      0x30cd747100000000000000000000000000000000000000000000000000000000\n      dup2\n      mstore\n      0x04\n      add\n      mload(0x40)\n      dup1\n      swap2\n      sub\n      swap1\n      revert\n        /* \"tryit/1.sol\":612:654  if (msg.sender != owner) revert NotOwner() */\n    tag_58:\n        /* \"tryit/1.sol\":2037:2042  owner */\n      0x01\n      0x00\n      swap1\n      sload\n      swap1\n      0x0100\n      exp\n      swap1\n      div\n      0xffffffffffffffffffffffffffffffffffffffff\n      and\n        /* \"tryit/1.sol\":2029:2052  payable(owner).transfer */\n      0xffffffffffffffffffffffffffffffffffffffff\n      and\n        /* \"tryit/1.sol\":2029:2075  payable(owner).transfer(address(this).balance) */\n      0x08fc\n        /* \"tryit/1.sol\":2053:2074  address(this).balance */\n      selfbalance\n        /* \"tryit/1.sol\":2029:2075  payable(owner).transfer(address(this).balance) */\n      swap1\n      dup2\n      iszero\n      mul\n      swap1\n      mload(0x40)\n      0x00\n      mload(0x40)\n      dup1\n      dup4\n      sub\n      dup2\n      dup6\n      dup9\n      dup9\n      call\n      swap4\n      pop\n      pop\n      pop\n      pop\n      iszero\n      dup1\n      iszero\n      tag_61\n      jumpi\n      returndatacopy(0x00, 0x00, returndatasize)\n      revert(0x00, returndatasize)\n    tag_61:\n      pop\n        /* \"tryit/1.sol\":1972:2083  function emergencyWithdraw() public onlyOwner {... */\n      jump\t// out\n        /* \"#utility.yul\":7:84   */\n    tag_62:\n        /* \"#utility.yul\":44:51   */\n      0x00\n        /* \"#utility.yul\":73:78   */\n      dup2\n        /* \"#utility.yul\":62:78   */\n      swap1\n      pop\n        /* \"#utility.yul\":7:84   */\n      swap2\n      swap1\n      pop\n      jump\t// out\n        /* \"#utility.yul\":90:208   */\n    tag_63:\n        /* \"#utility.yul\":177:201   */\n      tag_78\n        /* \"#utility.yul\":195:200   */\n      dup2\n        /* \"#utility.yul\":177:201   */\n      tag_62\n      jump\t// in\n    tag_78:\n        /* \"#utility.yul\":172:175   */\n      dup3\n        /* \"#utility.yul\":165:202   */\n      mstore\n        /* \"#utility.yul\":90:208   */\n      pop\n      pop\n      jump\t// out\n        /* \"#utility.yul\":214:436   */\n    tag_14:\n        /* \"#utility.yul\":307:311   */\n      0x00\n        /* \"#utility.yul\":345:347   */\n      0x20\n        /* \"#utility.yul\":334:343   */\n      dup3\n        /* \"#utility.yul\":330:348   */\n      add\n        /* \"#utility.yul\":322:348   */\n      swap1\n      pop\n        /* \"#utility.yul\":358:429   */\n      tag_80\n        /* \"#utility.yul\":426:427   */\n      0x00\n        /* \"#utility.yul\":415:424   */\n      dup4\n        /* \"#utility.yul\":411:428   */\n      add\n        /* \"#utility.yul\":402:408   */\n      dup5\n        /* \"#utility.yul\":358:429   */\n      tag_63\n      jump\t// in\n    tag_80:\n        /* \"#utility.yul\":214:436   */\n      swap3\n      swap2\n      pop\n      pop\n      jump\t// out\n        /* \"#utility.yul\":523:640   */\n    tag_65:\n        /* \"#utility.yul\":632:633   */\n      0x00\n        /* \"#utility.yul\":629:630   */\n      0x00\n        /* \"#utility.yul\":622:634   */\n      revert\n        /* \"#utility.yul\":769:891   */\n    tag_67:\n        /* \"#utility.yul\":842:866   */\n      tag_85\n        /* \"#utility.yul\":860:865   */\n      dup2\n        /* \"#utility.yul\":842:866   */\n      tag_62\n      jump\t// in\n    tag_85:\n        /* \"#utility.yul\":835:840   */\n      dup2\n        /* \"#utility.yul\":832:867   */\n      eq\n        /* \"#utility.yul\":822:885   */\n      tag_86\n      jumpi\n        /* \"#utility.yul\":881:882   */\n      0x00\n        /* \"#utility.yul\":878:879   */\n      0x00\n        /* \"#utility.yul\":871:883   */\n      revert\n        /* \"#utility.yul\":822:885   */\n    tag_86:\n        /* \"#utility.yul\":769:891   */\n      pop\n      jump\t// out\n        /* \"#utility.yul\":897:1036   */\n    tag_68:\n        /* \"#utility.yul\":943:948   */\n      0x00\n        /* \"#utility.yul\":981:987   */\n      dup2\n        /* \"#utility.yul\":968:988   */\n      calldataload\n        /* \"#utility.yul\":959:988   */\n      swap1\n      pop\n        /* \"#utility.yul\":997:1030   */\n      tag_88\n        /* \"#utility.yul\":1024:1029   */\n      dup2\n        /* \"#utility.yul\":997:1030   */\n      tag_67\n      jump\t// in\n    tag_88:\n        /* \"#utility.yul\":897:1036   */\n      swap3\n      swap2\n      pop\n      pop\n      jump\t// out\n        /* \"#utility.yul\":1042:1371   */\n    tag_18:\n        /* \"#utility.yul\":1101:1107   */\n      0x00\n        /* \"#utility.yul\":1150:1152   */\n      0x20\n        /* \"#utility.yul\":1138:1147   */\n      dup3\n        /* \"#utility.yul\":1129:1136   */\n      dup5\n        /* \"#utility.yul\":1125:1148   */\n      sub\n        /* \"#utility.yul\":1121:1153   */\n      slt\n        /* \"#utility.yul\":1118:1237   */\n      iszero\n      tag_90\n      jumpi\n        /* \"#utility.yul\":1156:1235   */\n      tag_91\n      tag_65\n      jump\t// in\n    tag_91:\n        /* \"#utility.yul\":1118:1237   */\n    tag_90:\n        /* \"#utility.yul\":1276:1277   */\n      0x00\n        /* \"#utility.yul\":1301:1354   */\n      tag_92\n        /* \"#utility.yul\":1346:1353   */\n      dup5\n        /* \"#utility.yul\":1337:1343   */\n      dup3\n        /* \"#utility.yul\":1326:1335   */\n      dup6\n        /* \"#utility.yul\":1322:1344   */\n      add\n        /* \"#utility.yul\":1301:1354   */\n      tag_68\n      jump\t// in\n    tag_92:\n        /* \"#utility.yul\":1291:1354   */\n      swap2\n      pop\n        /* \"#utility.yul\":1247:1364   */\n      pop\n        /* \"#utility.yul\":1042:1371   */\n      swap3\n      swap2\n      pop\n      pop\n      jump\t// out\n        /* \"#utility.yul\":1377:1467   */\n    tag_69:\n        /* \"#utility.yul\":1411:1418   */\n      0x00\n        /* \"#utility.yul\":1454:1459   */\n      dup2\n        /* \"#utility.yul\":1447:1460   */\n      iszero\n        /* \"#utility.yul\":1440:1461   */\n      iszero\n        /* \"#utility.yul\":1429:1461   */\n      swap1\n      pop\n        /* \"#utility.yul\":1377:1467   */\n      swap2\n      swap1\n      pop\n      jump\t// out\n        /* \"#utility.yul\":1473:1582   */\n    tag_70:\n        /* \"#utility.yul\":1554:1575   */\n      tag_95\n        /* \"#utility.yul\":1569:1574   */\n      dup2\n        /* \"#utility.yul\":1554:1575   */\n      tag_69\n      jump\t// in\n    tag_95:\n        /* \"#utility.yul\":1549:1552   */\n      dup3\n        /* \"#utility.yul\":1542:1576   */\n      mstore\n        /* \"#utility.yul\":1473:1582   */\n      pop\n      pop\n      jump\t// out\n        /* \"#utility.yul\":1588:1798   */\n    tag_27:\n        /* \"#utility.yul\":1675:1679   */\n      0x00\n        /* \"#utility.yul\":1713:1715   */\n      0x20\n        /* \"#utility.yul\":1702:1711   */\n      dup3\n        /* \"#utility.yul\":1698:1716   */\n      add\n        /* \"#utility.yul\":1690:1716   */\n      swap1\n      pop\n        /* \"#utility.yul\":1726:1791   */\n      tag_97\n        /* \"#utility.yul\":1788:1789   */\n      0x00\n        /* \"#utility.yul\":1777:1786   */\n      dup4\n        /* \"#utility.yul\":1773:1790   */\n      add\n        /* \"#utility.yul\":1764:1770   */\n      dup5\n        /* \"#utility.yul\":1726:1791   */\n      tag_70\n      jump\t// in\n    tag_97:\n        /* \"#utility.yul\":1588:1798   */\n      swap3\n      swap2\n      pop\n      pop\n      jump\t// out\n        /* \"#utility.yul\":1804:1930   */\n    tag_71:\n        /* \"#utility.yul\":1841:1848   */\n      0x00\n        /* \"#utility.yul\":1881:1923   */\n      0xffffffffffffffffffffffffffffffffffffffff\n        /* \"#utility.yul\":1874:1879   */\n      dup3\n        /* \"#utility.yul\":1870:1924   */\n      and\n        /* \"#utility.yul\":1859:1924   */\n      swap1\n      pop\n        /* \"#utility.yul\":1804:1930   */\n      swap2\n      swap1\n      pop\n      jump\t// out\n        /* \"#utility.yul\":1936:2032   */\n    tag_72:\n        /* \"#utility.yul\":1973:1980   */\n      0x00\n        /* \"#utility.yul\":2002:2026   */\n      tag_100\n        /* \"#utility.yul\":2020:2025   */\n      dup3\n        /* \"#utility.yul\":2002:2026   */\n      tag_71\n      jump\t// in\n    tag_100:\n        /* \"#utility.yul\":1991:2026   */\n      swap1\n      pop\n        /* \"#utility.yul\":1936:2032   */\n      swap2\n      swap1\n      pop\n      jump\t// out\n        /* \"#utility.yul\":2038:2156   */\n    tag_73:\n        /* \"#utility.yul\":2125:2149   */\n      tag_102\n        /* \"#utility.yul\":2143:2148   */\n      dup2\n        /* \"#utility.yul\":2125:2149   */\n      tag_72\n      jump\t// in\n    tag_102:\n        /* \"#utility.yul\":2120:2123   */\n      dup3\n        /* \"#utility.yul\":2113:2150   */\n      mstore\n        /* \"#utility.yul\":2038:2156   */\n      pop\n      pop\n      jump\t// out\n        /* \"#utility.yul\":2162:2384   */\n    tag_32:\n        /* \"#utility.yul\":2255:2259   */\n      0x00\n        /* \"#utility.yul\":2293:2295   */\n      0x20\n        /* \"#utility.yul\":2282:2291   */\n      dup3\n        /* \"#utility.yul\":2278:2296   */\n      add\n        /* \"#utility.yul\":2270:2296   */\n      swap1\n      pop\n        /* \"#utility.yul\":2306:2377   */\n      tag_104\n        /* \"#utility.yul\":2374:2375   */\n      0x00\n        /* \"#utility.yul\":2363:2372   */\n      dup4\n        /* \"#utility.yul\":2359:2376   */\n      add\n        /* \"#utility.yul\":2350:2356   */\n      dup5\n        /* \"#utility.yul\":2306:2377   */\n      tag_73\n      jump\t// in\n    tag_104:\n        /* \"#utility.yul\":2162:2384   */\n      swap3\n      swap2\n      pop\n      pop\n      jump\t// out\n        /* \"#utility.yul\":2390:2570   */\n    tag_74:\n        /* \"#utility.yul\":2438:2515   */\n      0x4e487b7100000000000000000000000000000000000000000000000000000000\n        /* \"#utility.yul\":2435:2436   */\n      0x00\n        /* \"#utility.yul\":2428:2516   */\n      mstore\n        /* \"#utility.yul\":2535:2539   */\n      0x11\n        /* \"#utility.yul\":2532:2533   */\n      0x04\n        /* \"#utility.yul\":2525:2540   */\n      mstore\n        /* \"#utility.yul\":2559:2563   */\n      0x24\n        /* \"#utility.yul\":2556:2557   */\n      0x00\n        /* \"#utility.yul\":2549:2564   */\n      revert\n        /* \"#utility.yul\":2576:2770   */\n    tag_44:\n        /* \"#utility.yul\":2616:2620   */\n      0x00\n        /* \"#utility.yul\":2636:2656   */\n      tag_107\n        /* \"#utility.yul\":2654:2655   */\n      dup3\n        /* \"#utility.yul\":2636:2656   */\n      tag_62\n      jump\t// in\n    tag_107:\n        /* \"#utility.yul\":2631:2656   */\n      swap2\n      pop\n        /* \"#utility.yul\":2670:2690   */\n      tag_108\n        /* \"#utility.yul\":2688:2689   */\n      dup4\n        /* \"#utility.yul\":2670:2690   */\n      tag_62\n      jump\t// in\n    tag_108:\n        /* \"#utility.yul\":2665:2690   */\n      swap3\n      pop\n        /* \"#utility.yul\":2714:2715   */\n      dup3\n        /* \"#utility.yul\":2711:2712   */\n      dup3\n        /* \"#utility.yul\":2707:2716   */\n      sub\n        /* \"#utility.yul\":2699:2716   */\n      swap1\n      pop\n        /* \"#utility.yul\":2738:2739   */\n      dup2\n        /* \"#utility.yul\":2732:2736   */\n      dup2\n        /* \"#utility.yul\":2729:2740   */\n      gt\n        /* \"#utility.yul\":2726:2763   */\n      iszero\n      tag_109\n      jumpi\n        /* \"#utility.yul\":2743:2761   */\n      tag_110\n      tag_74\n      jump\t// in\n    tag_110:\n        /* \"#utility.yul\":2726:2763   */\n    tag_109:\n        /* \"#utility.yul\":2576:2770   */\n      swap3\n      swap2\n      pop\n      pop\n      jump\t// out\n        /* \"#utility.yul\":2776:2967   */\n    tag_55:\n        /* \"#utility.yul\":2816:2819   */\n      0x00\n        /* \"#utility.yul\":2835:2855   */\n      tag_112\n        /* \"#utility.yul\":2853:2854   */\n      dup3\n        /* \"#utility.yul\":2835:2855   */\n      tag_62\n      jump\t// in\n    tag_112:\n        /* \"#utility.yul\":2830:2855   */\n      swap2\n      pop\n        /* \"#utility.yul\":2869:2889   */\n      tag_113\n        /* \"#utility.yul\":2887:2888   */\n      dup4\n        /* \"#utility.yul\":2869:2889   */\n      tag_62\n      jump\t// in\n    tag_113:\n        /* \"#utility.yul\":2864:2889   */\n      swap3\n      pop\n        /* \"#utility.yul\":2912:2913   */\n      dup3\n        /* \"#utility.yul\":2909:2910   */\n      dup3\n        /* \"#utility.yul\":2905:2914   */\n      add\n        /* \"#utility.yul\":2898:2914   */\n      swap1\n      pop\n        /* \"#utility.yul\":2933:2936   */\n      dup1\n        /* \"#utility.yul\":2930:2931   */\n      dup3\n        /* \"#utility.yul\":2927:2937   */\n      gt\n        /* \"#utility.yul\":2924:2960   */\n      iszero\n      tag_114\n      jumpi\n        /* \"#utility.yul\":2940:2958   */\n      tag_115\n      tag_74\n      jump\t// in\n    tag_115:\n        /* \"#utility.yul\":2924:2960   */\n    tag_114:\n        /* \"#utility.yul\":2776:2967   */\n      swap3\n      swap2\n      pop\n      pop\n      jump\t// out\n\n    auxdata: 0xa26469706673582212201d58344f3ba384596a1a250d8cd64b3a6c07305ee9569ee3c3106c538118cec864736f6c634300081e0033\n}\n",
				"bytecode": {
					"linkReferences": {},
					"object": "6080604052348015600e575f5ffd5b503360015f6101000a81548173ffffffffffffffffffffffffffffffffffffffff021916908373ffffffffffffffffffffffffffffffffffffffff1602179055506107c48061005c5f395ff3fe60806040526004361061006f575f3560e01c80635c975abb1161004d5780635c975abb146100db5780638da5cb5b14610105578063d0e30db01461012f578063db2e21bc146101395761006f565b806312065fe0146100735780632e1a7d4d1461009d57806351858e27146100c5575b5f5ffd5b34801561007e575f5ffd5b5061008761014f565b60405161009491906105fe565b60405180910390f35b3480156100a8575f5ffd5b506100c360048036038101906100be9190610645565b610192565b005b3480156100d0575f5ffd5b506100d9610336565b005b3480156100e6575f5ffd5b506100ef6103d8565b6040516100fc919061068a565b60405180910390f35b348015610110575f5ffd5b506101196103eb565b60405161012691906106e2565b60405180910390f35b610137610410565b005b348015610144575f5ffd5b5061014d6104f9565b005b5f5f5f3373ffffffffffffffffffffffffffffffffffffffff1673ffffffffffffffffffffffffffffffffffffffff1681526020019081526020015f2054905090565b600160149054906101000a900460ff16156101d9576040517fab35696f00000000000000000000000000000000000000000000000000000000815260040160405180910390fd5b805f5f3373ffffffffffffffffffffffffffffffffffffffff1673ffffffffffffffffffffffffffffffffffffffff1681526020019081526020015f2054101561024f576040517ff4d678b800000000000000000000000000000000000000000000000000000000815260040160405180910390fd5b805f5f3373ffffffffffffffffffffffffffffffffffffffff1673ffffffffffffffffffffffffffffffffffffffff1681526020019081526020015f205f82825461029a9190610728565b925050819055503373ffffffffffffffffffffffffffffffffffffffff166108fc8290811502906040515f60405180830381858888f193505050501580156102e4573d5f5f3e3d5ffd5b503373ffffffffffffffffffffffffffffffffffffffff167f7084f5476618d8e60b11ef0d7d3f06914655adb8793e28ff7f018d4c76d505d58260405161032b91906105fe565b60405180910390a250565b60015f9054906101000a900473ffffffffffffffffffffffffffffffffffffffff1673ffffffffffffffffffffffffffffffffffffffff163373ffffffffffffffffffffffffffffffffffffffff16146103bc576040517f30cd747100000000000000000000000000000000000000000000000000000000815260040160405180910390fd5b60018060146101000a81548160ff021916908315150217905550565b600160149054906101000a900460ff1681565b60015f9054906101000a900473ffffffffffffffffffffffffffffffffffffffff1681565b600160149054906101000a900460ff1615610457576040517fab35696f00000000000000000000000000000000000000000000000000000000815260040160405180910390fd5b345f5f3373ffffffffffffffffffffffffffffffffffffffff1673ffffffffffffffffffffffffffffffffffffffff1681526020019081526020015f205f8282546104a2919061075b565b925050819055503373ffffffffffffffffffffffffffffffffffffffff167f2da466a7b24304f47e87fa2e1e5a81b9831ce54fec19055ce277ca2f39ba42c4346040516104ef91906105fe565b60405180910390a2565b60015f9054906101000a900473ffffffffffffffffffffffffffffffffffffffff1673ffffffffffffffffffffffffffffffffffffffff163373ffffffffffffffffffffffffffffffffffffffff161461057f576040517f30cd747100000000000000000000000000000000000000000000000000000000815260040160405180910390fd5b60015f9054906101000a900473ffffffffffffffffffffffffffffffffffffffff1673ffffffffffffffffffffffffffffffffffffffff166108fc4790811502906040515f60405180830381858888f193505050501580156105e3573d5f5f3e3d5ffd5b50565b5f819050919050565b6105f8816105e6565b82525050565b5f6020820190506106115f8301846105ef565b92915050565b5f5ffd5b610624816105e6565b811461062e575f5ffd5b50565b5f8135905061063f8161061b565b92915050565b5f6020828403121561065a57610659610617565b5b5f61066784828501610631565b91505092915050565b5f8115159050919050565b61068481610670565b82525050565b5f60208201905061069d5f83018461067b565b92915050565b5f73ffffffffffffffffffffffffffffffffffffffff82169050919050565b5f6106cc826106a3565b9050919050565b6106dc816106c2565b82525050565b5f6020820190506106f55f8301846106d3565b92915050565b7f4e487b71000000000000000000000000000000000000000000000000000000005f52601160045260245ffd5b5f610732826105e6565b915061073d836105e6565b9250828203905081811115610755576107546106fb565b5b92915050565b5f610765826105e6565b9150610770836105e6565b9250828201905080821115610788576107876106fb565b5b9291505056fea26469706673582212201d58344f3ba384596a1a250d8cd64b3a6c07305ee9569ee3c3106c538118cec864736f6c634300081e0033",
					"opcodes": "PUSH1 0x80 PUSH1 0x40 MSTORE CALLVALUE DUP1 ISZERO PUSH1 0xE JUMPI PUSH0 PUSH0 REVERT JUMPDEST POP CALLER PUSH1 0x1 PUSH0 PUSH2 0x100 EXP DUP2 SLOAD DUP2 PUSH20 0xFFFFFFFFFFFFFFFFFFFFFFFFFFFFFFFFFFFFFFFF MUL NOT AND SWAP1 DUP4 PUSH20 0xFFFFFFFFFFFFFFFFFFFFFFFFFFFFFFFFFFFFFFFF AND MUL OR SWAP1 SSTORE POP PUSH2 0x7C4 DUP1 PUSH2 0x5C PUSH0 CODECOPY PUSH0 RETURN INVALID PUSH1 0x80 PUSH1 0x40 MSTORE PUSH1 0x4 CALLDATASIZE LT PUSH2 0x6F JUMPI PUSH0 CALLDATALOAD PUSH1 0xE0 SHR DUP1 PUSH4 0x5C975ABB GT PUSH2 0x4D JUMPI DUP1 PUSH4 0x5C975ABB EQ PUSH2 0xDB JUMPI DUP1 PUSH4 0x8DA5CB5B EQ PUSH2 0x105 JUMPI DUP1 PUSH4 0xD0E30DB0 EQ PUSH2 0x12F JUMPI DUP1 PUSH4 0xDB2E21BC EQ PUSH2 0x139 JUMPI PUSH2 0x6F JUMP JUMPDEST DUP1 PUSH4 0x12065FE0 EQ PUSH2 0x73 JUMPI DUP1 PUSH4 0x2E1A7D4D EQ PUSH2 0x9D JUMPI DUP1 PUSH4 0x51858E27 EQ PUSH2 0xC5 JUMPI JUMPDEST PUSH0 PUSH0 REVERT JUMPDEST CALLVALUE DUP1 ISZERO PUSH2 0x7E JUMPI PUSH0 PUSH0 REVERT JUMPDEST POP PUSH2 0x87 PUSH2 0x14F JUMP JUMPDEST PUSH1 0x40 MLOAD PUSH2 0x94 SWAP2 SWAP1 PUSH2 0x5FE JUMP JUMPDEST PUSH1 0x40 MLOAD DUP1 SWAP2 SUB SWAP1 RETURN JUMPDEST CALLVALUE DUP1 ISZERO PUSH2 0xA8 JUMPI PUSH0 PUSH0 REVERT JUMPDEST POP PUSH2 0xC3 PUSH1 0x4 DUP1 CALLDATASIZE SUB DUP2 ADD SWAP1 PUSH2 0xBE SWAP2 SWAP1 PUSH2 0x645 JUMP JUMPDEST PUSH2 0x192 JUMP JUMPDEST STOP JUMPDEST CALLVALUE DUP1 ISZERO PUSH2 0xD0 JUMPI PUSH0 PUSH0 REVERT JUMPDEST POP PUSH2 0xD9 PUSH2 0x336 JUMP JUMPDEST STOP JUMPDEST CALLVALUE DUP1 ISZERO PUSH2 0xE6 JUMPI PUSH0 PUSH0 REVERT JUMPDEST POP PUSH2 0xEF PUSH2 0x3D8 JUMP JUMPDEST PUSH1 0x40 MLOAD PUSH2 0xFC SWAP2 SWAP1 PUSH2 0x68A JUMP JUMPDEST PUSH1 0x40 MLOAD DUP1 SWAP2 SUB SWAP1 RETURN JUMPDEST CALLVALUE DUP1 ISZERO PUSH2 0x110 JUMPI PUSH0 PUSH0 REVERT JUMPDEST POP PUSH2 0x119 PUSH2 0x3EB JUMP JUMPDEST PUSH1 0x40 MLOAD PUSH2 0x126 SWAP2 SWAP1 PUSH2 0x6E2 JUMP JUMPDEST PUSH1 0x40 MLOAD DUP1 SWAP2 SUB SWAP1 RETURN JUMPDEST PUSH2 0x137 PUSH2 0x410 JUMP JUMPDEST STOP JUMPDEST CALLVALUE DUP1 ISZERO PUSH2 0x144 JUMPI PUSH0 PUSH0 REVERT JUMPDEST POP PUSH2 0x14D PUSH2 0x4F9 JUMP JUMPDEST STOP JUMPDEST PUSH0 PUSH0 PUSH0 CALLER PUSH20 0xFFFFFFFFFFFFFFFFFFFFFFFFFFFFFFFFFFFFFFFF AND PUSH20 0xFFFFFFFFFFFFFFFFFFFFFFFFFFFFFFFFFFFFFFFF AND DUP2 MSTORE PUSH1 0x20 ADD SWAP1 DUP2 MSTORE PUSH1 0x20 ADD PUSH0 KECCAK256 SLOAD SWAP1 POP SWAP1 JUMP JUMPDEST PUSH1 0x1 PUSH1 0x14 SWAP1 SLOAD SWAP1 PUSH2 0x100 EXP SWAP1 DIV PUSH1 0xFF AND ISZERO PUSH2 0x1D9 JUMPI PUSH1 0x40 MLOAD PUSH32 0xAB35696F00000000000000000000000000000000000000000000000000000000 DUP2 MSTORE PUSH1 0x4 ADD PUSH1 0x40 MLOAD DUP1 SWAP2 SUB SWAP1 REVERT JUMPDEST DUP1 PUSH0 PUSH0 CALLER PUSH20 0xFFFFFFFFFFFFFFFFFFFFFFFFFFFFFFFFFFFFFFFF AND PUSH20 0xFFFFFFFFFFFFFFFFFFFFFFFFFFFFFFFFFFFFFFFF AND DUP2 MSTORE PUSH1 0x20 ADD SWAP1 DUP2 MSTORE PUSH1 0x20 ADD PUSH0 KECCAK256 SLOAD LT ISZERO PUSH2 0x24F JUMPI PUSH1 0x40 MLOAD PUSH32 0xF4D678B800000000000000000000000000000000000000000000000000000000 DUP2 MSTORE PUSH1 0x4 ADD PUSH1 0x40 MLOAD DUP1 SWAP2 SUB SWAP1 REVERT JUMPDEST DUP1 PUSH0 PUSH0 CALLER PUSH20 0xFFFFFFFFFFFFFFFFFFFFFFFFFFFFFFFFFFFFFFFF AND PUSH20 0xFFFFFFFFFFFFFFFFFFFFFFFFFFFFFFFFFFFFFFFF AND DUP2 MSTORE PUSH1 0x20 ADD SWAP1 DUP2 MSTORE PUSH1 0x20 ADD PUSH0 KECCAK256 PUSH0 DUP3 DUP3 SLOAD PUSH2 0x29A SWAP2 SWAP1 PUSH2 0x728 JUMP JUMPDEST SWAP3 POP POP DUP2 SWAP1 SSTORE POP CALLER PUSH20 0xFFFFFFFFFFFFFFFFFFFFFFFFFFFFFFFFFFFFFFFF AND PUSH2 0x8FC DUP3 SWAP1 DUP2 ISZERO MUL SWAP1 PUSH1 0x40 MLOAD PUSH0 PUSH1 0x40 MLOAD DUP1 DUP4 SUB DUP2 DUP6 DUP9 DUP9 CALL SWAP4 POP POP POP POP ISZERO DUP1 ISZERO PUSH2 0x2E4 JUMPI RETURNDATASIZE PUSH0 PUSH0 RETURNDATACOPY RETURNDATASIZE PUSH0 REVERT JUMPDEST POP CALLER PUSH20 0xFFFFFFFFFFFFFFFFFFFFFFFFFFFFFFFFFFFFFFFF AND PUSH32 0x7084F5476618D8E60B11EF0D7D3F06914655ADB8793E28FF7F018D4C76D505D5 DUP3 PUSH1 0x40 MLOAD PUSH2 0x32B SWAP2 SWAP1 PUSH2 0x5FE JUMP JUMPDEST PUSH1 0x40 MLOAD DUP1 SWAP2 SUB SWAP1 LOG2 POP JUMP JUMPDEST PUSH1 0x1 PUSH0 SWAP1 SLOAD SWAP1 PUSH2 0x100 EXP SWAP1 DIV PUSH20 0xFFFFFFFFFFFFFFFFFFFFFFFFFFFFFFFFFFFFFFFF AND PUSH20 0xFFFFFFFFFFFFFFFFFFFFFFFFFFFFFFFFFFFFFFFF AND CALLER PUSH20 0xFFFFFFFFFFFFFFFFFFFFFFFFFFFFFFFFFFFFFFFF AND EQ PUSH2 0x3BC JUMPI PUSH1 0x40 MLOAD PUSH32 0x30CD747100000000000000000000000000000000000000000000000000000000 DUP2 MSTORE PUSH1 0x4 ADD PUSH1 0x40 MLOAD DUP1 SWAP2 SUB SWAP1 REVERT JUMPDEST PUSH1 0x1 DUP1 PUSH1 0x14 PUSH2 0x100 EXP DUP2 SLOAD DUP2 PUSH1 0xFF MUL NOT AND SWAP1 DUP4 ISZERO ISZERO MUL OR SWAP1 SSTORE POP JUMP JUMPDEST PUSH1 0x1 PUSH1 0x14 SWAP1 SLOAD SWAP1 PUSH2 0x100 EXP SWAP1 DIV PUSH1 0xFF AND DUP2 JUMP JUMPDEST PUSH1 0x1 PUSH0 SWAP1 SLOAD SWAP1 PUSH2 0x100 EXP SWAP1 DIV PUSH20 0xFFFFFFFFFFFFFFFFFFFFFFFFFFFFFFFFFFFFFFFF AND DUP2 JUMP JUMPDEST PUSH1 0x1 PUSH1 0x14 SWAP1 SLOAD SWAP1 PUSH2 0x100 EXP SWAP1 DIV PUSH1 0xFF AND ISZERO PUSH2 0x457 JUMPI PUSH1 0x40 MLOAD PUSH32 0xAB35696F00000000000000000000000000000000000000000000000000000000 DUP2 MSTORE PUSH1 0x4 ADD PUSH1 0x40 MLOAD DUP1 SWAP2 SUB SWAP1 REVERT JUMPDEST CALLVALUE PUSH0 PUSH0 CALLER PUSH20 0xFFFFFFFFFFFFFFFFFFFFFFFFFFFFFFFFFFFFFFFF AND PUSH20 0xFFFFFFFFFFFFFFFFFFFFFFFFFFFFFFFFFFFFFFFF AND DUP2 MSTORE PUSH1 0x20 ADD SWAP1 DUP2 MSTORE PUSH1 0x20 ADD PUSH0 KECCAK256 PUSH0 DUP3 DUP3 SLOAD PUSH2 0x4A2 SWAP2 SWAP1 PUSH2 0x75B JUMP JUMPDEST SWAP3 POP POP DUP2 SWAP1 SSTORE POP CALLER PUSH20 0xFFFFFFFFFFFFFFFFFFFFFFFFFFFFFFFFFFFFFFFF AND PUSH32 0x2DA466A7B24304F47E87FA2E1E5A81B9831CE54FEC19055CE277CA2F39BA42C4 CALLVALUE PUSH1 0x40 MLOAD PUSH2 0x4EF SWAP2 SWAP1 PUSH2 0x5FE JUMP JUMPDEST PUSH1 0x40 MLOAD DUP1 SWAP2 SUB SWAP1 LOG2 JUMP JUMPDEST PUSH1 0x1 PUSH0 SWAP1 SLOAD SWAP1 PUSH2 0x100 EXP SWAP1 DIV PUSH20 0xFFFFFFFFFFFFFFFFFFFFFFFFFFFFFFFFFFFFFFFF AND PUSH20 0xFFFFFFFFFFFFFFFFFFFFFFFFFFFFFFFFFFFFFFFF AND CALLER PUSH20 0xFFFFFFFFFFFFFFFFFFFFFFFFFFFFFFFFFFFFFFFF AND EQ PUSH2 0x57F JUMPI PUSH1 0x40 MLOAD PUSH32 0x30CD747100000000000000000000000000000000000000000000000000000000 DUP2 MSTORE PUSH1 0x4 ADD PUSH1 0x40 MLOAD DUP1 SWAP2 SUB SWAP1 REVERT JUMPDEST PUSH1 0x1 PUSH0 SWAP1 SLOAD SWAP1 PUSH2 0x100 EXP SWAP1 DIV PUSH20 0xFFFFFFFFFFFFFFFFFFFFFFFFFFFFFFFFFFFFFFFF AND PUSH20 0xFFFFFFFFFFFFFFFFFFFFFFFFFFFFFFFFFFFFFFFF AND PUSH2 0x8FC SELFBALANCE SWAP1 DUP2 ISZERO MUL SWAP1 PUSH1 0x40 MLOAD PUSH0 PUSH1 0x40 MLOAD DUP1 DUP4 SUB DUP2 DUP6 DUP9 DUP9 CALL SWAP4 POP POP POP POP ISZERO DUP1 ISZERO PUSH2 0x5E3 JUMPI RETURNDATASIZE PUSH0 PUSH0 RETURNDATACOPY RETURNDATASIZE PUSH0 REVERT JUMPDEST POP JUMP JUMPDEST PUSH0 DUP2 SWAP1 POP SWAP2 SWAP1 POP JUMP JUMPDEST PUSH2 0x5F8 DUP2 PUSH2 0x5E6 JUMP JUMPDEST DUP3 MSTORE POP POP JUMP JUMPDEST PUSH0 PUSH1 0x20 DUP3 ADD SWAP1 POP PUSH2 0x611 PUSH0 DUP4 ADD DUP5 PUSH2 0x5EF JUMP JUMPDEST SWAP3 SWAP2 POP POP JUMP JUMPDEST PUSH0 PUSH0 REVERT JUMPDEST PUSH2 0x624 DUP2 PUSH2 0x5E6 JUMP JUMPDEST DUP2 EQ PUSH2 0x62E JUMPI PUSH0 PUSH0 REVERT JUMPDEST POP JUMP JUMPDEST PUSH0 DUP2 CALLDATALOAD SWAP1 POP PUSH2 0x63F DUP2 PUSH2 0x61B JUMP JUMPDEST SWAP3 SWAP2 POP POP JUMP JUMPDEST PUSH0 PUSH1 0x20 DUP3 DUP5 SUB SLT ISZERO PUSH2 0x65A JUMPI PUSH2 0x659 PUSH2 0x617 JUMP JUMPDEST JUMPDEST PUSH0 PUSH2 0x667 DUP5 DUP3 DUP6 ADD PUSH2 0x631 JUMP JUMPDEST SWAP2 POP POP SWAP3 SWAP2 POP POP JUMP JUMPDEST PUSH0 DUP2 ISZERO ISZERO SWAP1 POP SWAP2 SWAP1 POP JUMP JUMPDEST PUSH2 0x684 DUP2 PUSH2 0x670 JUMP JUMPDEST DUP3 MSTORE POP POP JUMP JUMPDEST PUSH0 PUSH1 0x20 DUP3 ADD SWAP1 POP PUSH2 0x69D PUSH0 DUP4 ADD DUP5 PUSH2 0x67B JUMP JUMPDEST SWAP3 SWAP2 POP POP JUMP JUMPDEST PUSH0 PUSH20 0xFFFFFFFFFFFFFFFFFFFFFFFFFFFFFFFFFFFFFFFF DUP3 AND SWAP1 POP SWAP2 SWAP1 POP JUMP JUMPDEST PUSH0 PUSH2 0x6CC DUP3 PUSH2 0x6A3 JUMP JUMPDEST SWAP1 POP SWAP2 SWAP1 POP JUMP JUMPDEST PUSH2 0x6DC DUP2 PUSH2 0x6C2 JUMP JUMPDEST DUP3 MSTORE POP POP JUMP JUMPDEST PUSH0 PUSH1 0x20 DUP3 ADD SWAP1 POP PUSH2 0x6F5 PUSH0 DUP4 ADD DUP5 PUSH2 0x6D3 JUMP JUMPDEST SWAP3 SWAP2 POP POP JUMP JUMPDEST PUSH32 0x4E487B7100000000000000000000000000000000000000000000000000000000 PUSH0 MSTORE PUSH1 0x11 PUSH1 0x4 MSTORE PUSH1 0x24 PUSH0 REVERT JUMPDEST PUSH0 PUSH2 0x732 DUP3 PUSH2 0x5E6 JUMP JUMPDEST SWAP2 POP PUSH2 0x73D DUP4 PUSH2 0x5E6 JUMP JUMPDEST SWAP3 POP DUP3 DUP3 SUB SWAP1 POP DUP2 DUP2 GT ISZERO PUSH2 0x755 JUMPI PUSH2 0x754 PUSH2 0x6FB JUMP JUMPDEST JUMPDEST SWAP3 SWAP2 POP POP JUMP JUMPDEST PUSH0 PUSH2 0x765 DUP3 PUSH2 0x5E6 JUMP JUMPDEST SWAP2 POP PUSH2 0x770 DUP4 PUSH2 0x5E6 JUMP JUMPDEST SWAP3 POP DUP3 DUP3 ADD SWAP1 POP DUP1 DUP3 GT ISZERO PUSH2 0x788 JUMPI PUSH2 0x787 PUSH2 0x6FB JUMP JUMPDEST JUMPDEST SWAP3 SWAP2 POP POP JUMP INVALID LOG2 PUSH5 0x6970667358 0x22 SLT KECCAK256 SAR PC CALLVALUE 0x4F EXTCODESIZE LOG3 DUP5 MSIZE PUSH11 0x1A250D8CD64B3A6C07305E 0xE9 JUMP SWAP15 CALLF 0xC310 PUSH13 0x538118CEC864736F6C63430008 0x1E STOP CALLER "
				},
				"gasEstimates": {
					"creation": {
						"codeDepositCost": "397600",
						"executionCost": "24699",
						"totalCost": "422299"
					},
					"external": {
						"deposit()": "infinite",
						"emergencyPause()": "26674",
						"emergencyWithdraw()": "infinite",
						"getBalance()": "2519",
						"owner()": "2530",
						"paused()": "2517",
						"withdraw(uint256)": "infinite"
					},
					"internal": {
						"internalUpdate(uint256)": "infinite"
					}
				},
				"methodIdentifiers": {
					"deposit()": "d0e30db0",
					"emergencyPause()": "51858e27",
					"emergencyWithdraw()": "db2e21bc",
					"getBalance()": "12065fe0",
					"owner()": "8da5cb5b",
					"paused()": "5c975abb",
					"withdraw(uint256)": "2e1a7d4d"
				}
			},
			"storageLayout": {
				"storage": [
					{
						"astId": 5,
						"contract": "tryit/1.sol:SecureBank",
						"label": "balances",
						"offset": 0,
						"slot": "0",
						"type": "t_mapping(t_address,t_uint256)"
					},
					{
						"astId": 7,
						"contract": "tryit/1.sol:SecureBank",
						"label": "owner",
						"offset": 0,
						"slot": "1",
						"type": "t_address"
					},
					{
						"astId": 9,
						"contract": "tryit/1.sol:SecureBank",
						"label": "paused",
						"offset": 20,
						"slot": "1",
						"type": "t_bool"
					}
				],
				"types": {
					"t_address": {
						"encoding": "inplace",
						"label": "address",
						"numberOfBytes": "20"
					},
					"t_bool": {
						"encoding": "inplace",
						"label": "bool",
						"numberOfBytes": "1"
					},
					"t_mapping(t_address,t_uint256)": {
						"encoding": "mapping",
						"key": "t_address",
						"label": "mapping(address => uint256)",
						"numberOfBytes": "32",
						"value": "t_uint256"
					},
					"t_uint256": {
						"encoding": "inplace",
						"label": "uint256",
						"numberOfBytes": "32"
					}
				}
			},
			"userdoc": {
				"kind": "user",
				"methods": {},
				"version": 1
			}
		}
	}
}