{
	"tryit/HolidaVilla.sol": {
		"HolidayVillaBasic": {
			"abi": [
				{
					"inputs": [],
					"stateMutability": "nonpayable",
					"type": "constructor"
				},
				{
					"inputs": [
						{
							"internalType": "uint256",
							"name": "sent",
							"type": "uint256"
						},
						{
							"internalType": "uint256",
							"name": "required",
							"type": "uint256"
						}
					],
					"name": "InsufficientPayment",
					"type": "error"
				},
				{
					"inputs": [],
					"name": "VillaAlreadyBooked",
					"type": "error"
				},
				{
					"anonymous": false,
					"inputs": [
						{
							"indexed": true,
							"internalType": "address",
							"name": "renter",
							"type": "address"
						},
						{
							"indexed": false,
							"internalType": "uint256",
							"name": "value",
							"type": "uint256"
						}
					],
					"name": "VillaBooked",
					"type": "event"
				},
				{
					"inputs": [],
					"name": "MIN_PRICE",
					"outputs": [
						{
							"internalType": "uint256",
							"name": "",
							"type": "uint256"
						}
					],
					"stateMutability": "view",
					"type": "function"
				},
				{
					"inputs": [],
					"name": "bookVilla",
					"outputs": [],
					"stateMutability": "payable",
					"type": "function"
				},
				{
					"inputs": [],
					"name": "currentVillaStatus",
					"outputs": [
						{
							"internalType": "enum HolidayVillaBasic.VillaStatus",
							"name": "",
							"type": "uint8"
						}
					],
					"stateMutability": "view",
					"type": "function"
				},
				{
					"inputs": [],
					"name": "isBooked",
					"outputs": [
						{
							"internalType": "bool",
							"name": "",
							"type": "bool"
						}
					],
					"stateMutability": "view",
					"type": "function"
				},
				{
					"inputs": [],
					"name": "owner",
					"outputs": [
						{
							"internalType": "address payable",
							"name": "",
							"type": "address"
						}
					],
					"stateMutability": "view",
					"type": "function"
				}
			],
			"devdoc": {
				"kind": "dev",
				"methods": {},
				"title": "HolidayVilla — Basic booking",
				"version": 1
			},
			"evm": {
				"assembly": "    /* \"tryit/HolidaVilla.sol\":191:1429  contract HolidayVillaBasic {... */\n  mstore(0x40, 0xa0)\n    /* \"tryit/HolidaVilla.sol\":574:687  constructor() {... */\n  callvalue\n  dup1\n  iszero\n  tag_1\n  jumpi\n  revert(0x00, 0x00)\ntag_1:\n  pop\n    /* \"tryit/HolidaVilla.sol\":615:625  msg.sender */\n  caller\n    /* \"tryit/HolidaVilla.sol\":599:626  owner = payable(msg.sender) */\n  0xffffffffffffffffffffffffffffffffffffffff\n  and\n  0x80\n  dup2\n  0xffffffffffffffffffffffffffffffffffffffff\n  and\n  dup2\n  mstore\n  pop\n  pop\n    /* \"tryit/HolidaVilla.sol\":658:679  VillaStatus.Available */\n  0x00\n    /* \"tryit/HolidaVilla.sol\":637:655  currentVillaStatus */\n  0x00\n  0x00\n    /* \"tryit/HolidaVilla.sol\":637:679  currentVillaStatus = VillaStatus.Available */\n  0x0100\n  exp\n  dup2\n  sload\n  dup2\n  0xff\n  mul\n  not\n  and\n  swap1\n  dup4\n  0x01\n  dup2\n  gt\n  iszero\n  tag_4\n  jumpi\n  tag_5\n  tag_6\n  jump\t// in\ntag_5:\ntag_4:\n  mul\n  or\n  swap1\n  sstore\n  pop\n    /* \"tryit/HolidaVilla.sol\":191:1429  contract HolidayVillaBasic {... */\n  jump(tag_7)\n    /* \"#utility.yul\":7:187   */\ntag_6:\n    /* \"#utility.yul\":55:132   */\n  0x4e487b7100000000000000000000000000000000000000000000000000000000\n    /* \"#utility.yul\":52:53   */\n  0x00\n    /* \"#utility.yul\":45:133   */\n  mstore\n    /* \"#utility.yul\":152:156   */\n  0x21\n    /* \"#utility.yul\":149:150   */\n  0x04\n    /* \"#utility.yul\":142:157   */\n  mstore\n    /* \"#utility.yul\":176:180   */\n  0x24\n    /* \"#utility.yul\":173:174   */\n  0x00\n    /* \"#utility.yul\":166:181   */\n  revert\n    /* \"tryit/HolidaVilla.sol\":191:1429  contract HolidayVillaBasic {... */\ntag_7:\n  mload(0x80)\n  codecopy(0x00, dataOffset(sub_0), dataSize(sub_0))\n  0x00\n  assignImmutable(\"0x13600b294191fc92924bb3ce4b969c1e7e2bab8f4c93c3fc6d0a51733df3c060\")\n  return(0x00, dataSize(sub_0))\nstop\n\nsub_0: assembly {\n        /* \"tryit/HolidaVilla.sol\":191:1429  contract HolidayVillaBasic {... */\n      mstore(0x40, 0x80)\n      jumpi(tag_1, lt(calldatasize, 0x04))\n      shr(0xe0, calldataload(0x00))\n      dup1\n      0x682796e4\n      eq\n      tag_2\n      jumpi\n      dup1\n      0x70f01e80\n      eq\n      tag_3\n      jumpi\n      dup1\n      0x85cbfb53\n      eq\n      tag_4\n      jumpi\n      dup1\n      0x8da5cb5b\n      eq\n      tag_5\n      jumpi\n      dup1\n      0xad9f20a6\n      eq\n      tag_6\n      jumpi\n    tag_1:\n      revert(0x00, 0x00)\n        /* \"tryit/HolidaVilla.sol\":835:1241  function bookVilla() external payable whenAvailable {... */\n    tag_2:\n      tag_7\n      tag_8\n      jump\t// in\n    tag_7:\n      stop\n        /* \"tryit/HolidaVilla.sol\":314:351  VillaStatus public currentVillaStatus */\n    tag_3:\n      callvalue\n      dup1\n      iszero\n      tag_9\n      jumpi\n      revert(0x00, 0x00)\n    tag_9:\n      pop\n      tag_10\n      tag_11\n      jump\t// in\n    tag_10:\n      mload(0x40)\n      tag_12\n      swap2\n      swap1\n      tag_13\n      jump\t// in\n    tag_12:\n      mload(0x40)\n      dup1\n      swap2\n      sub\n      swap1\n      return\n        /* \"tryit/HolidaVilla.sol\":1311:1426  function isBooked() external view returns (bool) {... */\n    tag_4:\n      callvalue\n      dup1\n      iszero\n      tag_14\n      jumpi\n      revert(0x00, 0x00)\n    tag_14:\n      pop\n      tag_15\n      tag_16\n      jump\t// in\n    tag_15:\n      mload(0x40)\n      tag_17\n      swap2\n      swap1\n      tag_18\n      jump\t// in\n    tag_17:\n      mload(0x40)\n      dup1\n      swap2\n      sub\n      swap1\n      return\n        /* \"tryit/HolidaVilla.sol\":225:263  address payable public immutable owner */\n    tag_5:\n      callvalue\n      dup1\n      iszero\n      tag_19\n      jumpi\n      revert(0x00, 0x00)\n    tag_19:\n      pop\n      tag_20\n      tag_21\n      jump\t// in\n    tag_20:\n      mload(0x40)\n      tag_22\n      swap2\n      swap1\n      tag_23\n      jump\t// in\n    tag_22:\n      mload(0x40)\n      dup1\n      swap2\n      sub\n      swap1\n      return\n        /* \"tryit/HolidaVilla.sol\":358:401  uint256 public constant MIN_PRICE = 1 ether */\n    tag_6:\n      callvalue\n      dup1\n      iszero\n      tag_24\n      jumpi\n      revert(0x00, 0x00)\n    tag_24:\n      pop\n      tag_25\n      tag_26\n      jump\t// in\n    tag_25:\n      mload(0x40)\n      tag_27\n      swap2\n      swap1\n      tag_28\n      jump\t// in\n    tag_27:\n      mload(0x40)\n      dup1\n      swap2\n      sub\n      swap1\n      return\n        /* \"tryit/HolidaVilla.sol\":835:1241  function bookVilla() external payable whenAvailable {... */\n    tag_8:\n        /* \"tryit/HolidaVilla.sol\":757:778  VillaStatus.Available */\n      0x00\n        /* \"tryit/HolidaVilla.sol\":735:778  currentVillaStatus != VillaStatus.Available */\n      0x01\n      dup2\n      gt\n      iszero\n      tag_30\n      jumpi\n      tag_31\n      tag_32\n      jump\t// in\n    tag_31:\n    tag_30:\n        /* \"tryit/HolidaVilla.sol\":735:753  currentVillaStatus */\n      0x00\n      0x00\n      swap1\n      sload\n      swap1\n      0x0100\n      exp\n      swap1\n      div\n      0xff\n      and\n        /* \"tryit/HolidaVilla.sol\":735:778  currentVillaStatus != VillaStatus.Available */\n      0x01\n      dup2\n      gt\n      iszero\n      tag_33\n      jumpi\n      tag_34\n      tag_32\n      jump\t// in\n    tag_34:\n    tag_33:\n      eq\n        /* \"tryit/HolidaVilla.sol\":731:807  if (currentVillaStatus != VillaStatus.Available) revert VillaAlreadyBooked() */\n      tag_35\n      jumpi\n        /* \"tryit/HolidaVilla.sol\":787:807  VillaAlreadyBooked() */\n      mload(0x40)\n      0xde334f9400000000000000000000000000000000000000000000000000000000\n      dup2\n      mstore\n      0x04\n      add\n      mload(0x40)\n      dup1\n      swap2\n      sub\n      swap1\n      revert\n        /* \"tryit/HolidaVilla.sol\":731:807  if (currentVillaStatus != VillaStatus.Available) revert VillaAlreadyBooked() */\n    tag_35:\n        /* \"tryit/HolidaVilla.sol\":394:401  1 ether */\n      0x0de0b6b3a7640000\n        /* \"tryit/HolidaVilla.sol\":902:911  msg.value */\n      callvalue\n        /* \"tryit/HolidaVilla.sol\":902:923  msg.value < MIN_PRICE */\n      lt\n        /* \"tryit/HolidaVilla.sol\":898:973  if (msg.value < MIN_PRICE) revert InsufficientPayment(msg.value, MIN_PRICE) */\n      iszero\n      tag_37\n      jumpi\n        /* \"tryit/HolidaVilla.sol\":952:961  msg.value */\n      callvalue\n        /* \"tryit/HolidaVilla.sol\":394:401  1 ether */\n      0x0de0b6b3a7640000\n        /* \"tryit/HolidaVilla.sol\":932:973  InsufficientPayment(msg.value, MIN_PRICE) */\n      mload(0x40)\n      0xb99e2ab700000000000000000000000000000000000000000000000000000000\n      dup2\n      mstore\n      0x04\n      add\n      tag_38\n      swap3\n      swap2\n      swap1\n      tag_39\n      jump\t// in\n    tag_38:\n      mload(0x40)\n      dup1\n      swap2\n      sub\n      swap1\n      revert\n        /* \"tryit/HolidaVilla.sol\":898:973  if (msg.value < MIN_PRICE) revert InsufficientPayment(msg.value, MIN_PRICE) */\n    tag_37:\n        /* \"tryit/HolidaVilla.sol\":1026:1044  VillaStatus.Booked */\n      0x01\n        /* \"tryit/HolidaVilla.sol\":1005:1023  currentVillaStatus */\n      0x00\n      0x00\n        /* \"tryit/HolidaVilla.sol\":1005:1044  currentVillaStatus = VillaStatus.Booked */\n      0x0100\n      exp\n      dup2\n      sload\n      dup2\n      0xff\n      mul\n      not\n      and\n      swap1\n      dup4\n      0x01\n      dup2\n      gt\n      iszero\n      tag_40\n      jumpi\n      tag_41\n      tag_32\n      jump\t// in\n    tag_41:\n    tag_40:\n      mul\n      or\n      swap1\n      sstore\n      pop\n        /* \"tryit/HolidaVilla.sol\":1082:1091  bool sent */\n      0x00\n        /* \"tryit/HolidaVilla.sol\":1097:1102  owner */\n      immutable(\"0x13600b294191fc92924bb3ce4b969c1e7e2bab8f4c93c3fc6d0a51733df3c060\")\n        /* \"tryit/HolidaVilla.sol\":1097:1107  owner.call */\n      0xffffffffffffffffffffffffffffffffffffffff\n      and\n        /* \"tryit/HolidaVilla.sol\":1115:1124  msg.value */\n      callvalue\n        /* \"tryit/HolidaVilla.sol\":1097:1129  owner.call{value: msg.value}(\"\") */\n      mload(0x40)\n      tag_42\n      swap1\n      tag_43\n      jump\t// in\n    tag_42:\n      0x00\n      mload(0x40)\n      dup1\n      dup4\n      sub\n      dup2\n      dup6\n      dup8\n      gas\n      call\n      swap3\n      pop\n      pop\n      pop\n      returndatasize\n      dup1\n      0x00\n      dup2\n      eq\n      tag_46\n      jumpi\n      mload(0x40)\n      swap2\n      pop\n      and(add(returndatasize, 0x3f), not(0x1f))\n      dup3\n      add\n      0x40\n      mstore\n      returndatasize\n      dup3\n      mstore\n      returndatasize\n      0x00\n      0x20\n      dup5\n      add\n      returndatacopy\n      jump(tag_45)\n    tag_46:\n      0x60\n      swap2\n      pop\n    tag_45:\n      pop\n        /* \"tryit/HolidaVilla.sol\":1081:1129  (bool sent, ) = owner.call{value: msg.value}(\"\") */\n      pop\n      swap1\n      pop\n        /* \"tryit/HolidaVilla.sol\":1148:1152  sent */\n      dup1\n        /* \"tryit/HolidaVilla.sol\":1140:1181  require(sent, \"Transfer to owner failed\") */\n      tag_47\n      jumpi\n      mload(0x40)\n      0x08c379a000000000000000000000000000000000000000000000000000000000\n      dup2\n      mstore\n      0x04\n      add\n      tag_48\n      swap1\n      tag_49\n      jump\t// in\n    tag_48:\n      mload(0x40)\n      dup1\n      swap2\n      sub\n      swap1\n      revert\n    tag_47:\n        /* \"tryit/HolidaVilla.sol\":1211:1221  msg.sender */\n      caller\n        /* \"tryit/HolidaVilla.sol\":1199:1233  VillaBooked(msg.sender, msg.value) */\n      0xffffffffffffffffffffffffffffffffffffffff\n      and\n      0xb1a89df2eaab2a69987cfbdd48e11f8a5b4ed65eabab2ee8499cc5083a1e75c6\n        /* \"tryit/HolidaVilla.sol\":1223:1232  msg.value */\n      callvalue\n        /* \"tryit/HolidaVilla.sol\":1199:1233  VillaBooked(msg.sender, msg.value) */\n      mload(0x40)\n      tag_50\n      swap2\n      swap1\n      tag_28\n      jump\t// in\n    tag_50:\n      mload(0x40)\n      dup1\n      swap2\n      sub\n      swap1\n      log2\n        /* \"tryit/HolidaVilla.sol\":887:1241  {... */\n      pop\n        /* \"tryit/HolidaVilla.sol\":835:1241  function bookVilla() external payable whenAvailable {... */\n      jump\t// out\n        /* \"tryit/HolidaVilla.sol\":314:351  VillaStatus public currentVillaStatus */\n    tag_11:\n      0x00\n      0x00\n      swap1\n      sload\n      swap1\n      0x0100\n      exp\n      swap1\n      div\n      0xff\n      and\n      dup2\n      jump\t// out\n        /* \"tryit/HolidaVilla.sol\":1311:1426  function isBooked() external view returns (bool) {... */\n    tag_16:\n        /* \"tryit/HolidaVilla.sol\":1354:1358  bool */\n      0x00\n        /* \"tryit/HolidaVilla.sol\":1400:1418  VillaStatus.Booked */\n      0x01\n        /* \"tryit/HolidaVilla.sol\":1378:1418  currentVillaStatus == VillaStatus.Booked */\n      dup1\n      dup2\n      gt\n      iszero\n      tag_52\n      jumpi\n      tag_53\n      tag_32\n      jump\t// in\n    tag_53:\n    tag_52:\n        /* \"tryit/HolidaVilla.sol\":1378:1396  currentVillaStatus */\n      0x00\n      0x00\n      swap1\n      sload\n      swap1\n      0x0100\n      exp\n      swap1\n      div\n      0xff\n      and\n        /* \"tryit/HolidaVilla.sol\":1378:1418  currentVillaStatus == VillaStatus.Booked */\n      0x01\n      dup2\n      gt\n      iszero\n      tag_54\n      jumpi\n      tag_55\n      tag_32\n      jump\t// in\n    tag_55:\n    tag_54:\n      eq\n        /* \"tryit/HolidaVilla.sol\":1371:1418  return currentVillaStatus == VillaStatus.Booked */\n      swap1\n      pop\n        /* \"tryit/HolidaVilla.sol\":1311:1426  function isBooked() external view returns (bool) {... */\n      swap1\n      jump\t// out\n        /* \"tryit/HolidaVilla.sol\":225:263  address payable public immutable owner */\n    tag_21:\n      immutable(\"0x13600b294191fc92924bb3ce4b969c1e7e2bab8f4c93c3fc6d0a51733df3c060\")\n      dup2\n      jump\t// out\n        /* \"tryit/HolidaVilla.sol\":358:401  uint256 public constant MIN_PRICE = 1 ether */\n    tag_26:\n        /* \"tryit/HolidaVilla.sol\":394:401  1 ether */\n      0x0de0b6b3a7640000\n        /* \"tryit/HolidaVilla.sol\":358:401  uint256 public constant MIN_PRICE = 1 ether */\n      dup2\n      jump\t// out\n        /* \"#utility.yul\":7:187   */\n    tag_32:\n        /* \"#utility.yul\":55:132   */\n      0x4e487b7100000000000000000000000000000000000000000000000000000000\n        /* \"#utility.yul\":52:53   */\n      0x00\n        /* \"#utility.yul\":45:133   */\n      mstore\n        /* \"#utility.yul\":152:156   */\n      0x21\n        /* \"#utility.yul\":149:150   */\n      0x04\n        /* \"#utility.yul\":142:157   */\n      mstore\n        /* \"#utility.yul\":176:180   */\n      0x24\n        /* \"#utility.yul\":173:174   */\n      0x00\n        /* \"#utility.yul\":166:181   */\n      revert\n        /* \"#utility.yul\":193:311   */\n    tag_56:\n        /* \"#utility.yul\":279:280   */\n      0x02\n        /* \"#utility.yul\":272:277   */\n      dup2\n        /* \"#utility.yul\":269:281   */\n      lt\n        /* \"#utility.yul\":259:305   */\n      tag_76\n      jumpi\n        /* \"#utility.yul\":285:303   */\n      tag_77\n      tag_32\n      jump\t// in\n    tag_77:\n        /* \"#utility.yul\":259:305   */\n    tag_76:\n        /* \"#utility.yul\":193:311   */\n      pop\n      jump\t// out\n        /* \"#utility.yul\":317:454   */\n    tag_57:\n        /* \"#utility.yul\":367:374   */\n      0x00\n        /* \"#utility.yul\":396:401   */\n      dup2\n        /* \"#utility.yul\":385:401   */\n      swap1\n      pop\n        /* \"#utility.yul\":402:448   */\n      tag_79\n        /* \"#utility.yul\":442:447   */\n      dup3\n        /* \"#utility.yul\":402:448   */\n      tag_56\n      jump\t// in\n    tag_79:\n        /* \"#utility.yul\":317:454   */\n      swap2\n      swap1\n      pop\n      jump\t// out\n        /* \"#utility.yul\":460:597   */\n    tag_58:\n        /* \"#utility.yul\":521:530   */\n      0x00\n        /* \"#utility.yul\":554:591   */\n      tag_81\n        /* \"#utility.yul\":585:590   */\n      dup3\n        /* \"#utility.yul\":554:591   */\n      tag_57\n      jump\t// in\n    tag_81:\n        /* \"#utility.yul\":541:591   */\n      swap1\n      pop\n        /* \"#utility.yul\":460:597   */\n      swap2\n      swap1\n      pop\n      jump\t// out\n        /* \"#utility.yul\":603:756   */\n    tag_59:\n        /* \"#utility.yul\":701:749   */\n      tag_83\n        /* \"#utility.yul\":743:748   */\n      dup2\n        /* \"#utility.yul\":701:749   */\n      tag_58\n      jump\t// in\n    tag_83:\n        /* \"#utility.yul\":696:699   */\n      dup3\n        /* \"#utility.yul\":689:750   */\n      mstore\n        /* \"#utility.yul\":603:756   */\n      pop\n      pop\n      jump\t// out\n        /* \"#utility.yul\":762:1006   */\n    tag_13:\n        /* \"#utility.yul\":866:870   */\n      0x00\n        /* \"#utility.yul\":904:906   */\n      0x20\n        /* \"#utility.yul\":893:902   */\n      dup3\n        /* \"#utility.yul\":889:907   */\n      add\n        /* \"#utility.yul\":881:907   */\n      swap1\n      pop\n        /* \"#utility.yul\":917:999   */\n      tag_85\n        /* \"#utility.yul\":996:997   */\n      0x00\n        /* \"#utility.yul\":985:994   */\n      dup4\n        /* \"#utility.yul\":981:998   */\n      add\n        /* \"#utility.yul\":972:978   */\n      dup5\n        /* \"#utility.yul\":917:999   */\n      tag_59\n      jump\t// in\n    tag_85:\n        /* \"#utility.yul\":762:1006   */\n      swap3\n      swap2\n      pop\n      pop\n      jump\t// out\n        /* \"#utility.yul\":1012:1102   */\n    tag_60:\n        /* \"#utility.yul\":1046:1053   */\n      0x00\n        /* \"#utility.yul\":1089:1094   */\n      dup2\n        /* \"#utility.yul\":1082:1095   */\n      iszero\n        /* \"#utility.yul\":1075:1096   */\n      iszero\n        /* \"#utility.yul\":1064:1096   */\n      swap1\n      pop\n        /* \"#utility.yul\":1012:1102   */\n      swap2\n      swap1\n      pop\n      jump\t// out\n        /* \"#utility.yul\":1108:1217   */\n    tag_61:\n        /* \"#utility.yul\":1189:1210   */\n      tag_88\n        /* \"#utility.yul\":1204:1209   */\n      dup2\n        /* \"#utility.yul\":1189:1210   */\n      tag_60\n      jump\t// in\n    tag_88:\n        /* \"#utility.yul\":1184:1187   */\n      dup3\n        /* \"#utility.yul\":1177:1211   */\n      mstore\n        /* \"#utility.yul\":1108:1217   */\n      pop\n      pop\n      jump\t// out\n        /* \"#utility.yul\":1223:1433   */\n    tag_18:\n        /* \"#utility.yul\":1310:1314   */\n      0x00\n        /* \"#utility.yul\":1348:1350   */\n      0x20\n        /* \"#utility.yul\":1337:1346   */\n      dup3\n        /* \"#utility.yul\":1333:1351   */\n      add\n        /* \"#utility.yul\":1325:1351   */\n      swap1\n      pop\n        /* \"#utility.yul\":1361:1426   */\n      tag_90\n        /* \"#utility.yul\":1423:1424   */\n      0x00\n        /* \"#utility.yul\":1412:1421   */\n      dup4\n        /* \"#utility.yul\":1408:1425   */\n      add\n        /* \"#utility.yul\":1399:1405   */\n      dup5\n        /* \"#utility.yul\":1361:1426   */\n      tag_61\n      jump\t// in\n    tag_90:\n        /* \"#utility.yul\":1223:1433   */\n      swap3\n      swap2\n      pop\n      pop\n      jump\t// out\n        /* \"#utility.yul\":1439:1565   */\n    tag_62:\n        /* \"#utility.yul\":1476:1483   */\n      0x00\n        /* \"#utility.yul\":1516:1558   */\n      0xffffffffffffffffffffffffffffffffffffffff\n        /* \"#utility.yul\":1509:1514   */\n      dup3\n        /* \"#utility.yul\":1505:1559   */\n      and\n        /* \"#utility.yul\":1494:1559   */\n      swap1\n      pop\n        /* \"#utility.yul\":1439:1565   */\n      swap2\n      swap1\n      pop\n      jump\t// out\n        /* \"#utility.yul\":1571:1675   */\n    tag_63:\n        /* \"#utility.yul\":1616:1623   */\n      0x00\n        /* \"#utility.yul\":1645:1669   */\n      tag_93\n        /* \"#utility.yul\":1663:1668   */\n      dup3\n        /* \"#utility.yul\":1645:1669   */\n      tag_62\n      jump\t// in\n    tag_93:\n        /* \"#utility.yul\":1634:1669   */\n      swap1\n      pop\n        /* \"#utility.yul\":1571:1675   */\n      swap2\n      swap1\n      pop\n      jump\t// out\n        /* \"#utility.yul\":1681:1823   */\n    tag_64:\n        /* \"#utility.yul\":1784:1816   */\n      tag_95\n        /* \"#utility.yul\":1810:1815   */\n      dup2\n        /* \"#utility.yul\":1784:1816   */\n      tag_63\n      jump\t// in\n    tag_95:\n        /* \"#utility.yul\":1779:1782   */\n      dup3\n        /* \"#utility.yul\":1772:1817   */\n      mstore\n        /* \"#utility.yul\":1681:1823   */\n      pop\n      pop\n      jump\t// out\n        /* \"#utility.yul\":1829:2083   */\n    tag_23:\n        /* \"#utility.yul\":1938:1942   */\n      0x00\n        /* \"#utility.yul\":1976:1978   */\n      0x20\n        /* \"#utility.yul\":1965:1974   */\n      dup3\n        /* \"#utility.yul\":1961:1979   */\n      add\n        /* \"#utility.yul\":1953:1979   */\n      swap1\n      pop\n        /* \"#utility.yul\":1989:2076   */\n      tag_97\n        /* \"#utility.yul\":2073:2074   */\n      0x00\n        /* \"#utility.yul\":2062:2071   */\n      dup4\n        /* \"#utility.yul\":2058:2075   */\n      add\n        /* \"#utility.yul\":2049:2055   */\n      dup5\n        /* \"#utility.yul\":1989:2076   */\n      tag_64\n      jump\t// in\n    tag_97:\n        /* \"#utility.yul\":1829:2083   */\n      swap3\n      swap2\n      pop\n      pop\n      jump\t// out\n        /* \"#utility.yul\":2089:2166   */\n    tag_65:\n        /* \"#utility.yul\":2126:2133   */\n      0x00\n        /* \"#utility.yul\":2155:2160   */\n      dup2\n        /* \"#utility.yul\":2144:2160   */\n      swap1\n      pop\n        /* \"#utility.yul\":2089:2166   */\n      swap2\n      swap1\n      pop\n      jump\t// out\n        /* \"#utility.yul\":2172:2290   */\n    tag_66:\n        /* \"#utility.yul\":2259:2283   */\n      tag_100\n        /* \"#utility.yul\":2277:2282   */\n      dup2\n        /* \"#utility.yul\":2259:2283   */\n      tag_65\n      jump\t// in\n    tag_100:\n        /* \"#utility.yul\":2254:2257   */\n      dup3\n        /* \"#utility.yul\":2247:2284   */\n      mstore\n        /* \"#utility.yul\":2172:2290   */\n      pop\n      pop\n      jump\t// out\n        /* \"#utility.yul\":2296:2518   */\n    tag_28:\n        /* \"#utility.yul\":2389:2393   */\n      0x00\n        /* \"#utility.yul\":2427:2429   */\n      0x20\n        /* \"#utility.yul\":2416:2425   */\n      dup3\n        /* \"#utility.yul\":2412:2430   */\n      add\n        /* \"#utility.yul\":2404:2430   */\n      swap1\n      pop\n        /* \"#utility.yul\":2440:2511   */\n      tag_102\n        /* \"#utility.yul\":2508:2509   */\n      0x00\n        /* \"#utility.yul\":2497:2506   */\n      dup4\n        /* \"#utility.yul\":2493:2510   */\n      add\n        /* \"#utility.yul\":2484:2490   */\n      dup5\n        /* \"#utility.yul\":2440:2511   */\n      tag_66\n      jump\t// in\n    tag_102:\n        /* \"#utility.yul\":2296:2518   */\n      swap3\n      swap2\n      pop\n      pop\n      jump\t// out\n        /* \"#utility.yul\":2524:2856   */\n    tag_39:\n        /* \"#utility.yul\":2645:2649   */\n      0x00\n        /* \"#utility.yul\":2683:2685   */\n      0x40\n        /* \"#utility.yul\":2672:2681   */\n      dup3\n        /* \"#utility.yul\":2668:2686   */\n      add\n        /* \"#utility.yul\":2660:2686   */\n      swap1\n      pop\n        /* \"#utility.yul\":2696:2767   */\n      tag_104\n        /* \"#utility.yul\":2764:2765   */\n      0x00\n        /* \"#utility.yul\":2753:2762   */\n      dup4\n        /* \"#utility.yul\":2749:2766   */\n      add\n        /* \"#utility.yul\":2740:2746   */\n      dup6\n        /* \"#utility.yul\":2696:2767   */\n      tag_66\n      jump\t// in\n    tag_104:\n        /* \"#utility.yul\":2777:2849   */\n      tag_105\n        /* \"#utility.yul\":2845:2847   */\n      0x20\n        /* \"#utility.yul\":2834:2843   */\n      dup4\n        /* \"#utility.yul\":2830:2848   */\n      add\n        /* \"#utility.yul\":2821:2827   */\n      dup5\n        /* \"#utility.yul\":2777:2849   */\n      tag_66\n      jump\t// in\n    tag_105:\n        /* \"#utility.yul\":2524:2856   */\n      swap4\n      swap3\n      pop\n      pop\n      pop\n      jump\t// out\n        /* \"#utility.yul\":2862:3009   */\n    tag_67:\n        /* \"#utility.yul\":2963:2974   */\n      0x00\n        /* \"#utility.yul\":3000:3003   */\n      dup2\n        /* \"#utility.yul\":2985:3003   */\n      swap1\n      pop\n        /* \"#utility.yul\":2862:3009   */\n      swap3\n      swap2\n      pop\n      pop\n      jump\t// out\n        /* \"#utility.yul\":3015:3129   */\n    tag_68:\n      pop\n      jump\t// out\n        /* \"#utility.yul\":3135:3533   */\n    tag_69:\n        /* \"#utility.yul\":3294:3297   */\n      0x00\n        /* \"#utility.yul\":3315:3398   */\n      tag_109\n        /* \"#utility.yul\":3396:3397   */\n      0x00\n        /* \"#utility.yul\":3391:3394   */\n      dup4\n        /* \"#utility.yul\":3315:3398   */\n      tag_67\n      jump\t// in\n    tag_109:\n        /* \"#utility.yul\":3308:3398   */\n      swap2\n      pop\n        /* \"#utility.yul\":3407:3500   */\n      tag_110\n        /* \"#utility.yul\":3496:3499   */\n      dup3\n        /* \"#utility.yul\":3407:3500   */\n      tag_68\n      jump\t// in\n    tag_110:\n        /* \"#utility.yul\":3525:3526   */\n      0x00\n        /* \"#utility.yul\":3520:3523   */\n      dup3\n        /* \"#utility.yul\":3516:3527   */\n      add\n        /* \"#utility.yul\":3509:3527   */\n      swap1\n      pop\n        /* \"#utility.yul\":3135:3533   */\n      swap2\n      swap1\n      pop\n      jump\t// out\n        /* \"#utility.yul\":3539:3918   */\n    tag_43:\n        /* \"#utility.yul\":3723:3726   */\n      0x00\n        /* \"#utility.yul\":3745:3892   */\n      tag_112\n        /* \"#utility.yul\":3888:3891   */\n      dup3\n        /* \"#utility.yul\":3745:3892   */\n      tag_69\n      jump\t// in\n    tag_112:\n        /* \"#utility.yul\":3738:3892   */\n      swap2\n      pop\n        /* \"#utility.yul\":3909:3912   */\n      dup2\n        /* \"#utility.yul\":3902:3912   */\n      swap1\n      pop\n        /* \"#utility.yul\":3539:3918   */\n      swap2\n      swap1\n      pop\n      jump\t// out\n        /* \"#utility.yul\":3924:4093   */\n    tag_70:\n        /* \"#utility.yul\":4008:4019   */\n      0x00\n        /* \"#utility.yul\":4042:4048   */\n      dup3\n        /* \"#utility.yul\":4037:4040   */\n      dup3\n        /* \"#utility.yul\":4030:4049   */\n      mstore\n        /* \"#utility.yul\":4082:4086   */\n      0x20\n        /* \"#utility.yul\":4077:4080   */\n      dup3\n        /* \"#utility.yul\":4073:4087   */\n      add\n        /* \"#utility.yul\":4058:4087   */\n      swap1\n      pop\n        /* \"#utility.yul\":3924:4093   */\n      swap3\n      swap2\n      pop\n      pop\n      jump\t// out\n        /* \"#utility.yul\":4099:4273   */\n    tag_71:\n        /* \"#utility.yul\":4239:4265   */\n      0x5472616e7366657220746f206f776e6572206661696c65640000000000000000\n        /* \"#utility.yul\":4235:4236   */\n      0x00\n        /* \"#utility.yul\":4227:4233   */\n      dup3\n        /* \"#utility.yul\":4223:4237   */\n      add\n        /* \"#utility.yul\":4216:4266   */\n      mstore\n        /* \"#utility.yul\":4099:4273   */\n      pop\n      jump\t// out\n        /* \"#utility.yul\":4279:4645   */\n    tag_72:\n        /* \"#utility.yul\":4421:4424   */\n      0x00\n        /* \"#utility.yul\":4442:4509   */\n      tag_116\n        /* \"#utility.yul\":4506:4508   */\n      0x18\n        /* \"#utility.yul\":4501:4504   */\n      dup4\n        /* \"#utility.yul\":4442:4509   */\n      tag_70\n      jump\t// in\n    tag_116:\n        /* \"#utility.yul\":4435:4509   */\n      swap2\n      pop\n        /* \"#utility.yul\":4518:4611   */\n      tag_117\n        /* \"#utility.yul\":4607:4610   */\n      dup3\n        /* \"#utility.yul\":4518:4611   */\n      tag_71\n      jump\t// in\n    tag_117:\n        /* \"#utility.yul\":4636:4638   */\n      0x20\n        /* \"#utility.yul\":4631:4634   */\n      dup3\n        /* \"#utility.yul\":4627:4639   */\n      add\n        /* \"#utility.yul\":4620:4639   */\n      swap1\n      pop\n        /* \"#utility.yul\":4279:4645   */\n      swap2\n      swap1\n      pop\n      jump\t// out\n        /* \"#utility.yul\":4651:5070   */\n    tag_49:\n        /* \"#utility.yul\":4817:4821   */\n      0x00\n        /* \"#utility.yul\":4855:4857   */\n      0x20\n        /* \"#utility.yul\":4844:4853   */\n      dup3\n        /* \"#utility.yul\":4840:4858   */\n      add\n        /* \"#utility.yul\":4832:4858   */\n      swap1\n      pop\n        /* \"#utility.yul\":4904:4913   */\n      dup2\n        /* \"#utility.yul\":4898:4902   */\n      dup2\n        /* \"#utility.yul\":4894:4914   */\n      sub\n        /* \"#utility.yul\":4890:4891   */\n      0x00\n        /* \"#utility.yul\":4879:4888   */\n      dup4\n        /* \"#utility.yul\":4875:4892   */\n      add\n        /* \"#utility.yul\":4868:4915   */\n      mstore\n        /* \"#utility.yul\":4932:5063   */\n      tag_119\n        /* \"#utility.yul\":5058:5062   */\n      dup2\n        /* \"#utility.yul\":4932:5063   */\n      tag_72\n      jump\t// in\n    tag_119:\n        /* \"#utility.yul\":4924:5063   */\n      swap1\n      pop\n        /* \"#utility.yul\":4651:5070   */\n      swap2\n      swap1\n      pop\n      jump\t// out\n\n    auxdata: 0xa2646970667358221220a4b81920badce515610b327ac695e01f9cf4b27f62fd5d0dea8c02f9036dfb0564736f6c634300081e0033\n}\n",
				"bytecode": {
					"linkReferences": {},
					"object": "60a0604052348015600e575f5ffd5b503373ffffffffffffffffffffffffffffffffffffffff1660808173ffffffffffffffffffffffffffffffffffffffff16815250505f5f5f6101000a81548160ff021916908360018111156063576062606c565b5b02179055506099565b7f4e487b71000000000000000000000000000000000000000000000000000000005f52602160045260245ffd5b6080516105db6100b85f395f81816101ec015261034f01526105db5ff3fe608060405260043610610049575f3560e01c8063682796e41461004d57806370f01e801461005757806385cbfb53146100815780638da5cb5b146100ab578063ad9f20a6146100d5575b5f5ffd5b6100556100ff565b005b348015610062575f5ffd5b5061006b610302565b60405161007891906103f0565b60405180910390f35b34801561008c575f5ffd5b50610095610313565b6040516100a29190610423565b60405180910390f35b3480156100b6575f5ffd5b506100bf61034d565b6040516100cc919061047b565b60405180910390f35b3480156100e0575f5ffd5b506100e9610371565b6040516100f691906104ac565b60405180910390f35b5f60018111156101125761011161037d565b5b5f5f9054906101000a900460ff1660018111156101325761013161037d565b5b14610169576040517fde334f9400000000000000000000000000000000000000000000000000000000815260040160405180910390fd5b670de0b6b3a76400003410156101c05734670de0b6b3a76400006040517fb99e2ab70000000000000000000000000000000000000000000000000000000081526004016101b79291906104c5565b60405180910390fd5b60015f5f6101000a81548160ff021916908360018111156101e4576101e361037d565b5b02179055505f7f000000000000000000000000000000000000000000000000000000000000000073ffffffffffffffffffffffffffffffffffffffff163460405161022e90610519565b5f6040518083038185875af1925050503d805f8114610268576040519150601f19603f3d011682016040523d82523d5f602084013e61026d565b606091505b50509050806102b1576040517f08c379a00000000000000000000000000000000000000000000000000000000081526004016102a890610587565b60405180910390fd5b3373ffffffffffffffffffffffffffffffffffffffff167fb1a89df2eaab2a69987cfbdd48e11f8a5b4ed65eabab2ee8499cc5083a1e75c6346040516102f791906104ac565b60405180910390a250565b5f5f9054906101000a900460ff1681565b5f6001808111156103275761032661037d565b5b5f5f9054906101000a900460ff1660018111156103475761034661037d565b5b14905090565b7f000000000000000000000000000000000000000000000000000000000000000081565b670de0b6b3a764000081565b7f4e487b71000000000000000000000000000000000000000000000000000000005f52602160045260245ffd5b600281106103bb576103ba61037d565b5b50565b5f8190506103cb826103aa565b919050565b5f6103da826103be565b9050919050565b6103ea816103d0565b82525050565b5f6020820190506104035f8301846103e1565b92915050565b5f8115159050919050565b61041d81610409565b82525050565b5f6020820190506104365f830184610414565b92915050565b5f73ffffffffffffffffffffffffffffffffffffffff82169050919050565b5f6104658261043c565b9050919050565b6104758161045b565b82525050565b5f60208201905061048e5f83018461046c565b92915050565b5f819050919050565b6104a681610494565b82525050565b5f6020820190506104bf5f83018461049d565b92915050565b5f6040820190506104d85f83018561049d565b6104e5602083018461049d565b9392505050565b5f81905092915050565b50565b5f6105045f836104ec565b915061050f826104f6565b5f82019050919050565b5f610523826104f9565b9150819050919050565b5f82825260208201905092915050565b7f5472616e7366657220746f206f776e6572206661696c656400000000000000005f82015250565b5f61057160188361052d565b915061057c8261053d565b602082019050919050565b5f6020820190508181035f83015261059e81610565565b905091905056fea2646970667358221220a4b81920badce515610b327ac695e01f9cf4b27f62fd5d0dea8c02f9036dfb0564736f6c634300081e0033",
					"opcodes": "PUSH1 0xA0 PUSH1 0x40 MSTORE CALLVALUE DUP1 ISZERO PUSH1 0xE JUMPI PUSH0 PUSH0 REVERT JUMPDEST POP CALLER PUSH20 0xFFFFFFFFFFFFFFFFFFFFFFFFFFFFFFFFFFFFFFFF AND PUSH1 0x80 DUP2 PUSH20 0xFFFFFFFFFFFFFFFFFFFFFFFFFFFFFFFFFFFFFFFF AND DUP2 MSTORE POP POP PUSH0 PUSH0 PUSH0 PUSH2 0x100 EXP DUP2 SLOAD DUP2 PUSH1 0xFF MUL NOT AND SWAP1 DUP4 PUSH1 0x1 DUP2 GT ISZERO PUSH1 0x63 JUMPI PUSH1 0x62 PUSH1 0x6C JUMP JUMPDEST JUMPDEST MUL OR SWAP1 SSTORE POP PUSH1 0x99 JUMP JUMPDEST PUSH32 0x4E487B7100000000000000000000000000000000000000000000000000000000 PUSH0 MSTORE PUSH1 0x21 PUSH1 0x4 MSTORE PUSH1 0x24 PUSH0 REVERT JUMPDEST PUSH1 0x80 MLOAD PUSH2 0x5DB PUSH2 0xB8 PUSH0 CODECOPY PUSH0 DUP2 DUP2 PUSH2 0x1EC ADD MSTORE PUSH2 0x34F ADD MSTORE PUSH2 0x5DB PUSH0 RETURN INVALID PUSH1 0x80 PUSH1 0x40 MSTORE PUSH1 0x4 CALLDATASIZE LT PUSH2 0x49 JUMPI PUSH0 CALLDATALOAD PUSH1 0xE0 SHR DUP1 PUSH4 0x682796E4 EQ PUSH2 0x4D JUMPI DUP1 PUSH4 0x70F01E80 EQ PUSH2 0x57 JUMPI DUP1 PUSH4 0x85CBFB53 EQ PUSH2 0x81 JUMPI DUP1 PUSH4 0x8DA5CB5B EQ PUSH2 0xAB JUMPI DUP1 PUSH4 0xAD9F20A6 EQ PUSH2 0xD5 JUMPI JUMPDEST PUSH0 PUSH0 REVERT JUMPDEST PUSH2 0x55 PUSH2 0xFF JUMP JUMPDEST STOP JUMPDEST CALLVALUE DUP1 ISZERO PUSH2 0x62 JUMPI PUSH0 PUSH0 REVERT JUMPDEST POP PUSH2 0x6B PUSH2 0x302 JUMP JUMPDEST PUSH1 0x40 MLOAD PUSH2 0x78 SWAP2 SWAP1 PUSH2 0x3F0 JUMP JUMPDEST PUSH1 0x40 MLOAD DUP1 SWAP2 SUB SWAP1 RETURN JUMPDEST CALLVALUE DUP1 ISZERO PUSH2 0x8C JUMPI PUSH0 PUSH0 REVERT JUMPDEST POP PUSH2 0x95 PUSH2 0x313 JUMP JUMPDEST PUSH1 0x40 MLOAD PUSH2 0xA2 SWAP2 SWAP1 PUSH2 0x423 JUMP JUMPDEST PUSH1 0x40 MLOAD DUP1 SWAP2 SUB SWAP1 RETURN JUMPDEST CALLVALUE DUP1 ISZERO PUSH2 0xB6 JUMPI PUSH0 PUSH0 REVERT JUMPDEST POP PUSH2 0xBF PUSH2 0x34D JUMP JUMPDEST PUSH1 0x40 MLOAD PUSH2 0xCC SWAP2 SWAP1 PUSH2 0x47B JUMP JUMPDEST PUSH1 0x40 MLOAD DUP1 SWAP2 SUB SWAP1 RETURN JUMPDEST CALLVALUE DUP1 ISZERO PUSH2 0xE0 JUMPI PUSH0 PUSH0 REVERT JUMPDEST POP PUSH2 0xE9 PUSH2 0x371 JUMP JUMPDEST PUSH1 0x40 MLOAD PUSH2 0xF6 SWAP2 SWAP1 PUSH2 0x4AC JUMP JUMPDEST PUSH1 0x40 MLOAD DUP1 SWAP2 SUB SWAP1 RETURN JUMPDEST PUSH0 PUSH1 0x1 DUP2 GT ISZERO PUSH2 0x112 JUMPI PUSH2 0x111 PUSH2 0x37D JUMP JUMPDEST JUMPDEST PUSH0 PUSH0 SWAP1 SLOAD SWAP1 PUSH2 0x100 EXP SWAP1 DIV PUSH1 0xFF AND PUSH1 0x1 DUP2 GT ISZERO PUSH2 0x132 JUMPI PUSH2 0x131 PUSH2 0x37D JUMP JUMPDEST JUMPDEST EQ PUSH2 0x169 JUMPI PUSH1 0x40 MLOAD PUSH32 0xDE334F9400000000000000000000000000000000000000000000000000000000 DUP2 MSTORE PUSH1 0x4 ADD PUSH1 0x40 MLOAD DUP1 SWAP2 SUB SWAP1 REVERT JUMPDEST PUSH8 0xDE0B6B3A7640000 CALLVALUE LT ISZERO PUSH2 0x1C0 JUMPI CALLVALUE PUSH8 0xDE0B6B3A7640000 PUSH1 0x40 MLOAD PUSH32 0xB99E2AB700000000000000000000000000000000000000000000000000000000 DUP2 MSTORE PUSH1 0x4 ADD PUSH2 0x1B7 SWAP3 SWAP2 SWAP1 PUSH2 0x4C5 JUMP JUMPDEST PUSH1 0x40 MLOAD DUP1 SWAP2 SUB SWAP1 REVERT JUMPDEST PUSH1 0x1 PUSH0 PUSH0 PUSH2 0x100 EXP DUP2 SLOAD DUP2 PUSH1 0xFF MUL NOT AND SWAP1 DUP4 PUSH1 0x1 DUP2 GT ISZERO PUSH2 0x1E4 JUMPI PUSH2 0x1E3 PUSH2 0x37D JUMP JUMPDEST JUMPDEST MUL OR SWAP1 SSTORE POP PUSH0 PUSH32 0x0 PUSH20 0xFFFFFFFFFFFFFFFFFFFFFFFFFFFFFFFFFFFFFFFF AND CALLVALUE PUSH1 0x40 MLOAD PUSH2 0x22E SWAP1 PUSH2 0x519 JUMP JUMPDEST PUSH0 PUSH1 0x40 MLOAD DUP1 DUP4 SUB DUP2 DUP6 DUP8 GAS CALL SWAP3 POP POP POP RETURNDATASIZE DUP1 PUSH0 DUP2 EQ PUSH2 0x268 JUMPI PUSH1 0x40 MLOAD SWAP2 POP PUSH1 0x1F NOT PUSH1 0x3F RETURNDATASIZE ADD AND DUP3 ADD PUSH1 0x40 MSTORE RETURNDATASIZE DUP3 MSTORE RETURNDATASIZE PUSH0 PUSH1 0x20 DUP5 ADD RETURNDATACOPY PUSH2 0x26D JUMP JUMPDEST PUSH1 0x60 SWAP2 POP JUMPDEST POP POP SWAP1 POP DUP1 PUSH2 0x2B1 JUMPI PUSH1 0x40 MLOAD PUSH32 0x8C379A000000000000000000000000000000000000000000000000000000000 DUP2 MSTORE PUSH1 0x4 ADD PUSH2 0x2A8 SWAP1 PUSH2 0x587 JUMP JUMPDEST PUSH1 0x40 MLOAD DUP1 SWAP2 SUB SWAP1 REVERT JUMPDEST CALLER PUSH20 0xFFFFFFFFFFFFFFFFFFFFFFFFFFFFFFFFFFFFFFFF AND PUSH32 0xB1A89DF2EAAB2A69987CFBDD48E11F8A5B4ED65EABAB2EE8499CC5083A1E75C6 CALLVALUE PUSH1 0x40 MLOAD PUSH2 0x2F7 SWAP2 SWAP1 PUSH2 0x4AC JUMP JUMPDEST PUSH1 0x40 MLOAD DUP1 SWAP2 SUB SWAP1 LOG2 POP JUMP JUMPDEST PUSH0 PUSH0 SWAP1 SLOAD SWAP1 PUSH2 0x100 EXP SWAP1 DIV PUSH1 0xFF AND DUP2 JUMP JUMPDEST PUSH0 PUSH1 0x1 DUP1 DUP2 GT ISZERO PUSH2 0x327 JUMPI PUSH2 0x326 PUSH2 0x37D JUMP JUMPDEST JUMPDEST PUSH0 PUSH0 SWAP1 SLOAD SWAP1 PUSH2 0x100 EXP SWAP1 DIV PUSH1 0xFF AND PUSH1 0x1 DUP2 GT ISZERO PUSH2 0x347 JUMPI PUSH2 0x346 PUSH2 0x37D JUMP JUMPDEST JUMPDEST EQ SWAP1 POP SWAP1 JUMP JUMPDEST PUSH32 0x0 DUP2 JUMP JUMPDEST PUSH8 0xDE0B6B3A7640000 DUP2 JUMP JUMPDEST PUSH32 0x4E487B7100000000000000000000000000000000000000000000000000000000 PUSH0 MSTORE PUSH1 0x21 PUSH1 0x4 MSTORE PUSH1 0x24 PUSH0 REVERT JUMPDEST PUSH1 0x2 DUP2 LT PUSH2 0x3BB JUMPI PUSH2 0x3BA PUSH2 0x37D JUMP JUMPDEST JUMPDEST POP JUMP JUMPDEST PUSH0 DUP2 SWAP1 POP PUSH2 0x3CB DUP3 PUSH2 0x3AA JUMP JUMPDEST SWAP2 SWAP1 POP JUMP JUMPDEST PUSH0 PUSH2 0x3DA DUP3 PUSH2 0x3BE JUMP JUMPDEST SWAP1 POP SWAP2 SWAP1 POP JUMP JUMPDEST PUSH2 0x3EA DUP2 PUSH2 0x3D0 JUMP JUMPDEST DUP3 MSTORE POP POP JUMP JUMPDEST PUSH0 PUSH1 0x20 DUP3 ADD SWAP1 POP PUSH2 0x403 PUSH0 DUP4 ADD DUP5 PUSH2 0x3E1 JUMP JUMPDEST SWAP3 SWAP2 POP POP JUMP JUMPDEST PUSH0 DUP2 ISZERO ISZERO SWAP1 POP SWAP2 SWAP1 POP JUMP JUMPDEST PUSH2 0x41D DUP2 PUSH2 0x409 JUMP JUMPDEST DUP3 MSTORE POP POP JUMP JUMPDEST PUSH0 PUSH1 0x20 DUP3 ADD SWAP1 POP PUSH2 0x436 PUSH0 DUP4 ADD DUP5 PUSH2 0x414 JUMP JUMPDEST SWAP3 SWAP2 POP POP JUMP JUMPDEST PUSH0 PUSH20 0xFFFFFFFFFFFFFFFFFFFFFFFFFFFFFFFFFFFFFFFF DUP3 AND SWAP1 POP SWAP2 SWAP1 POP JUMP JUMPDEST PUSH0 PUSH2 0x465 DUP3 PUSH2 0x43C JUMP JUMPDEST SWAP1 POP SWAP2 SWAP1 POP JUMP JUMPDEST PUSH2 0x475 DUP2 PUSH2 0x45B JUMP JUMPDEST DUP3 MSTORE POP POP JUMP JUMPDEST PUSH0 PUSH1 0x20 DUP3 ADD SWAP1 POP PUSH2 0x48E PUSH0 DUP4 ADD DUP5 PUSH2 0x46C JUMP JUMPDEST SWAP3 SWAP2 POP POP JUMP JUMPDEST PUSH0 DUP2 SWAP1 POP SWAP2 SWAP1 POP JUMP JUMPDEST PUSH2 0x4A6 DUP2 PUSH2 0x494 JUMP JUMPDEST DUP3 MSTORE POP POP JUMP JUMPDEST PUSH0 PUSH1 0x20 DUP3 ADD SWAP1 POP PUSH2 0x4BF PUSH0 DUP4 ADD DUP5 PUSH2 0x49D JUMP JUMPDEST SWAP3 SWAP2 POP POP JUMP JUMPDEST PUSH0 PUSH1 0x40 DUP3 ADD SWAP1 POP PUSH2 0x4D8 PUSH0 DUP4 ADD DUP6 PUSH2 0x49D JUMP JUMPDEST PUSH2 0x4E5 PUSH1 0x20 DUP4 ADD DUP5 PUSH2 0x49D JUMP JUMPDEST SWAP4 SWAP3 POP POP POP JUMP JUMPDEST PUSH0 DUP2 SWAP1 POP SWAP3 SWAP2 POP POP JUMP JUMPDEST POP JUMP JUMPDEST PUSH0 PUSH2 0x504 PUSH0 DUP4 PUSH2 0x4EC JUMP JUMPDEST SWAP2 POP PUSH2 0x50F DUP3 PUSH2 0x4F6 JUMP JUMPDEST PUSH0 DUP3 ADD SWAP1 POP SWAP2 SWAP1 POP JUMP JUMPDEST PUSH0 PUSH2 0x523 DUP3 PUSH2 0x4F9 JUMP JUMPDEST SWAP2 POP DUP2 SWAP1 POP SWAP2 SWAP1 POP JUMP JUMPDEST PUSH0 DUP3 DUP3 MSTORE PUSH1 0x20 DUP3 ADD SWAP1 POP SWAP3 SWAP2 POP POP JUMP JUMPDEST PUSH32 0x5472616E7366657220746F206F776E6572206661696C65640000000000000000 PUSH0 DUP3 ADD MSTORE POP JUMP JUMPDEST PUSH0 PUSH2 0x571 PUSH1 0x18 DUP4 PUSH2 0x52D JUMP JUMPDEST SWAP2 POP PUSH2 0x57C DUP3 PUSH2 0x53D JUMP JUMPDEST PUSH1 0x20 DUP3 ADD SWAP1 POP SWAP2 SWAP1 POP JUMP JUMPDEST PUSH0 PUSH1 0x20 DUP3 ADD SWAP1 POP DUP2 DUP2 SUB PUSH0 DUP4 ADD MSTORE PUSH2 0x59E DUP2 PUSH2 0x565 JUMP JUMPDEST SWAP1 POP SWAP2 SWAP1 POP JUMP INVALID LOG2 PUSH5 0x6970667358 0x22 SLT KECCAK256 LOG4 0xB8 NOT KECCAK256 0xBA 0xDC JUMPF 0x1561 SIGNEXTEND ORIGIN PUSH27 0xC695E01F9CF4B27F62FD5D0DEA8C02F9036DFB0564736F6C634300 ADDMOD 0x1E STOP CALLER "
				},
				"gasEstimates": {
					"creation": {
						"codeDepositCost": "299800",
						"executionCost": "infinite",
						"totalCost": "infinite"
					},
					"external": {
						"MIN_PRICE()": "391",
						"bookVilla()": "infinite",
						"currentVillaStatus()": "2553",
						"isBooked()": "2552",
						"owner()": "infinite"
					}
				},
				"methodIdentifiers": {
					"MIN_PRICE()": "ad9f20a6",
					"bookVilla()": "682796e4",
					"currentVillaStatus()": "70f01e80",
					"isBooked()": "85cbfb53",
					"owner()": "8da5cb5b"
				}
			},
			"storageLayout": {
				"storage": [
					{
						"astId": 10,
						"contract": "tryit/HolidaVilla.sol:HolidayVillaBasic",
						"label": "currentVillaStatus",
						"offset": 0,
						"slot": "0",
						"type": "t_enum(VillaStatus)7"
					}
				],
				"types": {
					"t_enum(VillaStatus)7": {
						"encoding": "inplace",
						"label": "enum HolidayVillaBasic.VillaStatus",
						"numberOfBytes": "1"
					}
				}
			},
			"userdoc": {
				"kind": "user",
				"methods": {
					"isBooked()": {
						"notice": "Read-only helper that returns true if booked"
					}
				},
				"notice": "Minimal fixed version: pay exactly minPrice (or more) to book if available",
				"version": 1
			}
		}
	}
}