{
	"projects/EthertransfersSecPetterns.sol": {
		"SecurevaultAudit": {
			"abi": [
				{
					"inputs": [],
					"stateMutability": "nonpayable",
					"type": "constructor"
				},
				{
					"inputs": [
						{
							"internalType": "address",
							"name": "",
							"type": "address"
						}
					],
					"name": "balances",
					"outputs": [
						{
							"internalType": "uint256",
							"name": "",
							"type": "uint256"
						}
					],
					"stateMutability": "view",
					"type": "function"
				},
				{
					"inputs": [],
					"name": "owner",
					"outputs": [
						{
							"internalType": "address",
							"name": "",
							"type": "address"
						}
					],
					"stateMutability": "view",
					"type": "function"
				}
			],
			"devdoc": {
				"kind": "dev",
				"methods": {},
				"version": 1
			},
			"evm": {
				"assembly": "    /* \"projects/EthertransfersSecPetterns.sol\":69:753  contract SecurevaultAudit {... */\n  mstore(0x40, 0x80)\n    /* \"projects/EthertransfersSecPetterns.sol\":532:608  constructor() {... */\n  callvalue\n  dup1\n  iszero\n  tag_1\n  jumpi\n  revert(0x00, 0x00)\ntag_1:\n  pop\n    /* \"projects/EthertransfersSecPetterns.sol\":565:575  msg.sender */\n  caller\n    /* \"projects/EthertransfersSecPetterns.sol\":557:562  owner */\n  0x00\n  0x00\n    /* \"projects/EthertransfersSecPetterns.sol\":557:575  owner = msg.sender */\n  0x0100\n  exp\n  dup2\n  sload\n  dup2\n  0xffffffffffffffffffffffffffffffffffffffff\n  mul\n  not\n  and\n  swap1\n  dup4\n  0xffffffffffffffffffffffffffffffffffffffff\n  and\n  mul\n  or\n  swap1\n  sstore\n  pop\n    /* \"projects/EthertransfersSecPetterns.sol\":595:600  false */\n  0x00\n    /* \"projects/EthertransfersSecPetterns.sol\":586:592  locked */\n  0x04\n  0x00\n    /* \"projects/EthertransfersSecPetterns.sol\":586:600  locked = false */\n  0x0100\n  exp\n  dup2\n  sload\n  dup2\n  0xff\n  mul\n  not\n  and\n  swap1\n  dup4\n  iszero\n  iszero\n  mul\n  or\n  swap1\n  sstore\n  pop\n    /* \"projects/EthertransfersSecPetterns.sol\":69:753  contract SecurevaultAudit {... */\n  dataSize(sub_0)\n  dup1\n  dataOffset(sub_0)\n  0x00\n  codecopy\n  0x00\n  return\nstop\n\nsub_0: assembly {\n        /* \"projects/EthertransfersSecPetterns.sol\":69:753  contract SecurevaultAudit {... */\n      mstore(0x40, 0x80)\n      callvalue\n      dup1\n      iszero\n      tag_1\n      jumpi\n      revert(0x00, 0x00)\n    tag_1:\n      pop\n      jumpi(tag_2, lt(calldatasize, 0x04))\n      shr(0xe0, calldataload(0x00))\n      dup1\n      0x27e235e3\n      eq\n      tag_3\n      jumpi\n      dup1\n      0x8da5cb5b\n      eq\n      tag_4\n      jumpi\n    tag_2:\n      revert(0x00, 0x00)\n        /* \"projects/EthertransfersSecPetterns.sol\":129:169  mapping(address => uint) public balances */\n    tag_3:\n      tag_5\n      0x04\n      dup1\n      calldatasize\n      sub\n      dup2\n      add\n      swap1\n      tag_6\n      swap2\n      swap1\n      tag_7\n      jump\t// in\n    tag_6:\n      tag_8\n      jump\t// in\n    tag_5:\n      mload(0x40)\n      tag_9\n      swap2\n      swap1\n      tag_10\n      jump\t// in\n    tag_9:\n      mload(0x40)\n      dup1\n      swap2\n      sub\n      swap1\n      return\n        /* \"projects/EthertransfersSecPetterns.sol\":102:122  address public owner */\n    tag_4:\n      tag_11\n      tag_12\n      jump\t// in\n    tag_11:\n      mload(0x40)\n      tag_13\n      swap2\n      swap1\n      tag_14\n      jump\t// in\n    tag_13:\n      mload(0x40)\n      dup1\n      swap2\n      sub\n      swap1\n      return\n        /* \"projects/EthertransfersSecPetterns.sol\":129:169  mapping(address => uint) public balances */\n    tag_8:\n      mstore(0x20, 0x01)\n      dup1\n      0x00\n      mstore\n      keccak256(0x00, 0x40)\n      0x00\n      swap2\n      pop\n      swap1\n      pop\n      sload\n      dup2\n      jump\t// out\n        /* \"projects/EthertransfersSecPetterns.sol\":102:122  address public owner */\n    tag_12:\n      0x00\n      0x00\n      swap1\n      sload\n      swap1\n      0x0100\n      exp\n      swap1\n      div\n      0xffffffffffffffffffffffffffffffffffffffff\n      and\n      dup2\n      jump\t// out\n        /* \"#utility.yul\":88:205   */\n    tag_16:\n        /* \"#utility.yul\":197:198   */\n      0x00\n        /* \"#utility.yul\":194:195   */\n      0x00\n        /* \"#utility.yul\":187:199   */\n      revert\n        /* \"#utility.yul\":334:460   */\n    tag_18:\n        /* \"#utility.yul\":371:378   */\n      0x00\n        /* \"#utility.yul\":411:453   */\n      0xffffffffffffffffffffffffffffffffffffffff\n        /* \"#utility.yul\":404:409   */\n      dup3\n        /* \"#utility.yul\":400:454   */\n      and\n        /* \"#utility.yul\":389:454   */\n      swap1\n      pop\n        /* \"#utility.yul\":334:460   */\n      swap2\n      swap1\n      pop\n      jump\t// out\n        /* \"#utility.yul\":466:562   */\n    tag_19:\n        /* \"#utility.yul\":503:510   */\n      0x00\n        /* \"#utility.yul\":532:556   */\n      tag_31\n        /* \"#utility.yul\":550:555   */\n      dup3\n        /* \"#utility.yul\":532:556   */\n      tag_18\n      jump\t// in\n    tag_31:\n        /* \"#utility.yul\":521:556   */\n      swap1\n      pop\n        /* \"#utility.yul\":466:562   */\n      swap2\n      swap1\n      pop\n      jump\t// out\n        /* \"#utility.yul\":568:690   */\n    tag_20:\n        /* \"#utility.yul\":641:665   */\n      tag_33\n        /* \"#utility.yul\":659:664   */\n      dup2\n        /* \"#utility.yul\":641:665   */\n      tag_19\n      jump\t// in\n    tag_33:\n        /* \"#utility.yul\":634:639   */\n      dup2\n        /* \"#utility.yul\":631:666   */\n      eq\n        /* \"#utility.yul\":621:684   */\n      tag_34\n      jumpi\n        /* \"#utility.yul\":680:681   */\n      0x00\n        /* \"#utility.yul\":677:678   */\n      0x00\n        /* \"#utility.yul\":670:682   */\n      revert\n        /* \"#utility.yul\":621:684   */\n    tag_34:\n        /* \"#utility.yul\":568:690   */\n      pop\n      jump\t// out\n        /* \"#utility.yul\":696:835   */\n    tag_21:\n        /* \"#utility.yul\":742:747   */\n      0x00\n        /* \"#utility.yul\":780:786   */\n      dup2\n        /* \"#utility.yul\":767:787   */\n      calldataload\n        /* \"#utility.yul\":758:787   */\n      swap1\n      pop\n        /* \"#utility.yul\":796:829   */\n      tag_36\n        /* \"#utility.yul\":823:828   */\n      dup2\n        /* \"#utility.yul\":796:829   */\n      tag_20\n      jump\t// in\n    tag_36:\n        /* \"#utility.yul\":696:835   */\n      swap3\n      swap2\n      pop\n      pop\n      jump\t// out\n        /* \"#utility.yul\":841:1170   */\n    tag_7:\n        /* \"#utility.yul\":900:906   */\n      0x00\n        /* \"#utility.yul\":949:951   */\n      0x20\n        /* \"#utility.yul\":937:946   */\n      dup3\n        /* \"#utility.yul\":928:935   */\n      dup5\n        /* \"#utility.yul\":924:947   */\n      sub\n        /* \"#utility.yul\":920:952   */\n      slt\n        /* \"#utility.yul\":917:1036   */\n      iszero\n      tag_38\n      jumpi\n        /* \"#utility.yul\":955:1034   */\n      tag_39\n      tag_16\n      jump\t// in\n    tag_39:\n        /* \"#utility.yul\":917:1036   */\n    tag_38:\n        /* \"#utility.yul\":1075:1076   */\n      0x00\n        /* \"#utility.yul\":1100:1153   */\n      tag_40\n        /* \"#utility.yul\":1145:1152   */\n      dup5\n        /* \"#utility.yul\":1136:1142   */\n      dup3\n        /* \"#utility.yul\":1125:1134   */\n      dup6\n        /* \"#utility.yul\":1121:1143   */\n      add\n        /* \"#utility.yul\":1100:1153   */\n      tag_21\n      jump\t// in\n    tag_40:\n        /* \"#utility.yul\":1090:1153   */\n      swap2\n      pop\n        /* \"#utility.yul\":1046:1163   */\n      pop\n        /* \"#utility.yul\":841:1170   */\n      swap3\n      swap2\n      pop\n      pop\n      jump\t// out\n        /* \"#utility.yul\":1176:1253   */\n    tag_22:\n        /* \"#utility.yul\":1213:1220   */\n      0x00\n        /* \"#utility.yul\":1242:1247   */\n      dup2\n        /* \"#utility.yul\":1231:1247   */\n      swap1\n      pop\n        /* \"#utility.yul\":1176:1253   */\n      swap2\n      swap1\n      pop\n      jump\t// out\n        /* \"#utility.yul\":1259:1377   */\n    tag_23:\n        /* \"#utility.yul\":1346:1370   */\n      tag_43\n        /* \"#utility.yul\":1364:1369   */\n      dup2\n        /* \"#utility.yul\":1346:1370   */\n      tag_22\n      jump\t// in\n    tag_43:\n        /* \"#utility.yul\":1341:1344   */\n      dup3\n        /* \"#utility.yul\":1334:1371   */\n      mstore\n        /* \"#utility.yul\":1259:1377   */\n      pop\n      pop\n      jump\t// out\n        /* \"#utility.yul\":1383:1605   */\n    tag_10:\n        /* \"#utility.yul\":1476:1480   */\n      0x00\n        /* \"#utility.yul\":1514:1516   */\n      0x20\n        /* \"#utility.yul\":1503:1512   */\n      dup3\n        /* \"#utility.yul\":1499:1517   */\n      add\n        /* \"#utility.yul\":1491:1517   */\n      swap1\n      pop\n        /* \"#utility.yul\":1527:1598   */\n      tag_45\n        /* \"#utility.yul\":1595:1596   */\n      0x00\n        /* \"#utility.yul\":1584:1593   */\n      dup4\n        /* \"#utility.yul\":1580:1597   */\n      add\n        /* \"#utility.yul\":1571:1577   */\n      dup5\n        /* \"#utility.yul\":1527:1598   */\n      tag_23\n      jump\t// in\n    tag_45:\n        /* \"#utility.yul\":1383:1605   */\n      swap3\n      swap2\n      pop\n      pop\n      jump\t// out\n        /* \"#utility.yul\":1611:1729   */\n    tag_24:\n        /* \"#utility.yul\":1698:1722   */\n      tag_47\n        /* \"#utility.yul\":1716:1721   */\n      dup2\n        /* \"#utility.yul\":1698:1722   */\n      tag_19\n      jump\t// in\n    tag_47:\n        /* \"#utility.yul\":1693:1696   */\n      dup3\n        /* \"#utility.yul\":1686:1723   */\n      mstore\n        /* \"#utility.yul\":1611:1729   */\n      pop\n      pop\n      jump\t// out\n        /* \"#utility.yul\":1735:1957   */\n    tag_14:\n        /* \"#utility.yul\":1828:1832   */\n      0x00\n        /* \"#utility.yul\":1866:1868   */\n      0x20\n        /* \"#utility.yul\":1855:1864   */\n      dup3\n        /* \"#utility.yul\":1851:1869   */\n      add\n        /* \"#utility.yul\":1843:1869   */\n      swap1\n      pop\n        /* \"#utility.yul\":1879:1950   */\n      tag_49\n        /* \"#utility.yul\":1947:1948   */\n      0x00\n        /* \"#utility.yul\":1936:1945   */\n      dup4\n        /* \"#utility.yul\":1932:1949   */\n      add\n        /* \"#utility.yul\":1923:1929   */\n      dup5\n        /* \"#utility.yul\":1879:1950   */\n      tag_24\n      jump\t// in\n    tag_49:\n        /* \"#utility.yul\":1735:1957   */\n      swap3\n      swap2\n      pop\n      pop\n      jump\t// out\n\n    auxdata: 0xa26469706673582212209943fbd5a15210dd758d925d009e1ea04fb3f6934ebe85539d59efe3fd03e5c464736f6c634300081e0033\n}\n",
				"bytecode": {
					"linkReferences": {},
					"object": "6080604052348015600e575f5ffd5b50335f5f6101000a81548173ffffffffffffffffffffffffffffffffffffffff021916908373ffffffffffffffffffffffffffffffffffffffff1602179055505f60045f6101000a81548160ff0219169083151502179055506101d7806100745f395ff3fe608060405234801561000f575f5ffd5b5060043610610034575f3560e01c806327e235e3146100385780638da5cb5b14610068575b5f5ffd5b610052600480360381019061004d919061011d565b610086565b60405161005f9190610160565b60405180910390f35b61007061009b565b60405161007d9190610188565b60405180910390f35b6001602052805f5260405f205f915090505481565b5f5f9054906101000a900473ffffffffffffffffffffffffffffffffffffffff1681565b5f5ffd5b5f73ffffffffffffffffffffffffffffffffffffffff82169050919050565b5f6100ec826100c3565b9050919050565b6100fc816100e2565b8114610106575f5ffd5b50565b5f81359050610117816100f3565b92915050565b5f60208284031215610132576101316100bf565b5b5f61013f84828501610109565b91505092915050565b5f819050919050565b61015a81610148565b82525050565b5f6020820190506101735f830184610151565b92915050565b610182816100e2565b82525050565b5f60208201905061019b5f830184610179565b9291505056fea26469706673582212209943fbd5a15210dd758d925d009e1ea04fb3f6934ebe85539d59efe3fd03e5c464736f6c634300081e0033",
					"opcodes": "PUSH1 0x80 PUSH1 0x40 MSTORE CALLVALUE DUP1 ISZERO PUSH1 0xE JUMPI PUSH0 PUSH0 REVERT JUMPDEST POP CALLER PUSH0 PUSH0 PUSH2 0x100 EXP DUP2 SLOAD DUP2 PUSH20 0xFFFFFFFFFFFFFFFFFFFFFFFFFFFFFFFFFFFFFFFF MUL NOT AND SWAP1 DUP4 PUSH20 0xFFFFFFFFFFFFFFFFFFFFFFFFFFFFFFFFFFFFFFFF AND MUL OR SWAP1 SSTORE POP PUSH0 PUSH1 0x4 PUSH0 PUSH2 0x100 EXP DUP2 SLOAD DUP2 PUSH1 0xFF MUL NOT AND SWAP1 DUP4 ISZERO ISZERO MUL OR SWAP1 SSTORE POP PUSH2 0x1D7 DUP1 PUSH2 0x74 PUSH0 CODECOPY PUSH0 RETURN INVALID PUSH1 0x80 PUSH1 0x40 MSTORE CALLVALUE DUP1 ISZERO PUSH2 0xF JUMPI PUSH0 PUSH0 REVERT JUMPDEST POP PUSH1 0x4 CALLDATASIZE LT PUSH2 0x34 JUMPI PUSH0 CALLDATALOAD PUSH1 0xE0 SHR DUP1 PUSH4 0x27E235E3 EQ PUSH2 0x38 JUMPI DUP1 PUSH4 0x8DA5CB5B EQ PUSH2 0x68 JUMPI JUMPDEST PUSH0 PUSH0 REVERT JUMPDEST PUSH2 0x52 PUSH1 0x4 DUP1 CALLDATASIZE SUB DUP2 ADD SWAP1 PUSH2 0x4D SWAP2 SWAP1 PUSH2 0x11D JUMP JUMPDEST PUSH2 0x86 JUMP JUMPDEST PUSH1 0x40 MLOAD PUSH2 0x5F SWAP2 SWAP1 PUSH2 0x160 JUMP JUMPDEST PUSH1 0x40 MLOAD DUP1 SWAP2 SUB SWAP1 RETURN JUMPDEST PUSH2 0x70 PUSH2 0x9B JUMP JUMPDEST PUSH1 0x40 MLOAD PUSH2 0x7D SWAP2 SWAP1 PUSH2 0x188 JUMP JUMPDEST PUSH1 0x40 MLOAD DUP1 SWAP2 SUB SWAP1 RETURN JUMPDEST PUSH1 0x1 PUSH1 0x20 MSTORE DUP1 PUSH0 MSTORE PUSH1 0x40 PUSH0 KECCAK256 PUSH0 SWAP2 POP SWAP1 POP SLOAD DUP2 JUMP JUMPDEST PUSH0 PUSH0 SWAP1 SLOAD SWAP1 PUSH2 0x100 EXP SWAP1 DIV PUSH20 0xFFFFFFFFFFFFFFFFFFFFFFFFFFFFFFFFFFFFFFFF AND DUP2 JUMP JUMPDEST PUSH0 PUSH0 REVERT JUMPDEST PUSH0 PUSH20 0xFFFFFFFFFFFFFFFFFFFFFFFFFFFFFFFFFFFFFFFF DUP3 AND SWAP1 POP SWAP2 SWAP1 POP JUMP JUMPDEST PUSH0 PUSH2 0xEC DUP3 PUSH2 0xC3 JUMP JUMPDEST SWAP1 POP SWAP2 SWAP1 POP JUMP JUMPDEST PUSH2 0xFC DUP2 PUSH2 0xE2 JUMP JUMPDEST DUP2 EQ PUSH2 0x106 JUMPI PUSH0 PUSH0 REVERT JUMPDEST POP JUMP JUMPDEST PUSH0 DUP2 CALLDATALOAD SWAP1 POP PUSH2 0x117 DUP2 PUSH2 0xF3 JUMP JUMPDEST SWAP3 SWAP2 POP POP JUMP JUMPDEST PUSH0 PUSH1 0x20 DUP3 DUP5 SUB SLT ISZERO PUSH2 0x132 JUMPI PUSH2 0x131 PUSH2 0xBF JUMP JUMPDEST JUMPDEST PUSH0 PUSH2 0x13F DUP5 DUP3 DUP6 ADD PUSH2 0x109 JUMP JUMPDEST SWAP2 POP POP SWAP3 SWAP2 POP POP JUMP JUMPDEST PUSH0 DUP2 SWAP1 POP SWAP2 SWAP1 POP JUMP JUMPDEST PUSH2 0x15A DUP2 PUSH2 0x148 JUMP JUMPDEST DUP3 MSTORE POP POP JUMP JUMPDEST PUSH0 PUSH1 0x20 DUP3 ADD SWAP1 POP PUSH2 0x173 PUSH0 DUP4 ADD DUP5 PUSH2 0x151 JUMP JUMPDEST SWAP3 SWAP2 POP POP JUMP JUMPDEST PUSH2 0x182 DUP2 PUSH2 0xE2 JUMP JUMPDEST DUP3 MSTORE POP POP JUMP JUMPDEST PUSH0 PUSH1 0x20 DUP3 ADD SWAP1 POP PUSH2 0x19B PUSH0 DUP4 ADD DUP5 PUSH2 0x179 JUMP JUMPDEST SWAP3 SWAP2 POP POP JUMP INVALID LOG2 PUSH5 0x6970667358 0x22 SLT KECCAK256 SWAP10 NUMBER EXTSTATICCALL 0xD5 LOG1 MSTORE LT 0xDD PUSH22 0x8D925D009E1EA04FB3F6934EBE85539D59EFE3FD03E5 0xC4 PUSH5 0x736F6C6343 STOP ADDMOD 0x1E STOP CALLER "
				},
				"gasEstimates": {
					"creation": {
						"codeDepositCost": "94200",
						"executionCost": "48668",
						"totalCost": "142868"
					},
					"external": {
						"balances(address)": "2780",
						"owner()": "2507"
					}
				},
				"methodIdentifiers": {
					"balances(address)": "27e235e3",
					"owner()": "8da5cb5b"
				}
			},
			"storageLayout": {
				"storage": [
					{
						"astId": 3,
						"contract": "projects/EthertransfersSecPetterns.sol:SecurevaultAudit",
						"label": "owner",
						"offset": 0,
						"slot": "0",
						"type": "t_address"
					},
					{
						"astId": 7,
						"contract": "projects/EthertransfersSecPetterns.sol:SecurevaultAudit",
						"label": "balances",
						"offset": 0,
						"slot": "1",
						"type": "t_mapping(t_address,t_uint256)"
					},
					{
						"astId": 13,
						"contract": "projects/EthertransfersSecPetterns.sol:SecurevaultAudit",
						"label": "deposits",
						"offset": 0,
						"slot": "2",
						"type": "t_mapping(t_address,t_array(t_struct(deposit)27_storage)dyn_storage)"
					},
					{
						"astId": 18,
						"contract": "projects/EthertransfersSecPetterns.sol:SecurevaultAudit",
						"label": "commits",
						"offset": 0,
						"slot": "3",
						"type": "t_mapping(t_address,t_struct(commit)36_storage)"
					},
					{
						"astId": 20,
						"contract": "projects/EthertransfersSecPetterns.sol:SecurevaultAudit",
						"label": "locked",
						"offset": 0,
						"slot": "4",
						"type": "t_bool"
					}
				],
				"types": {
					"t_address": {
						"encoding": "inplace",
						"label": "address",
						"numberOfBytes": "20"
					},
					"t_array(t_struct(deposit)27_storage)dyn_storage": {
						"base": "t_struct(deposit)27_storage",
						"encoding": "dynamic_array",
						"label": "struct SecurevaultAudit.deposit[]",
						"numberOfBytes": "32"
					},
					"t_bool": {
						"encoding": "inplace",
						"label": "bool",
						"numberOfBytes": "1"
					},
					"t_bytes32": {
						"encoding": "inplace",
						"label": "bytes32",
						"numberOfBytes": "32"
					},
					"t_mapping(t_address,t_array(t_struct(deposit)27_storage)dyn_storage)": {
						"encoding": "mapping",
						"key": "t_address",
						"label": "mapping(address => struct SecurevaultAudit.deposit[])",
						"numberOfBytes": "32",
						"value": "t_array(t_struct(deposit)27_storage)dyn_storage"
					},
					"t_mapping(t_address,t_struct(commit)36_storage)": {
						"encoding": "mapping",
						"key": "t_address",
						"label": "mapping(address => struct SecurevaultAudit.commit)",
						"numberOfBytes": "32",
						"value": "t_struct(commit)36_storage"
					},
					"t_mapping(t_address,t_uint256)": {
						"encoding": "mapping",
						"key": "t_address",
						"label": "mapping(address => uint256)",
						"numberOfBytes": "32",
						"value": "t_uint256"
					},
					"t_struct(commit)36_storage": {
						"encoding": "inplace",
						"label": "struct SecurevaultAudit.commit",
						"members": [
							{
								"astId": 29,
								"contract": "projects/EthertransfersSecPetterns.sol:SecurevaultAudit",
								"label": "stake",
								"offset": 0,
								"slot": "0",
								"type": "t_uint256"
							},
							{
								"astId": 31,
								"contract": "projects/EthertransfersSecPetterns.sol:SecurevaultAudit",
								"label": "hash",
								"offset": 0,
								"slot": "1",
								"type": "t_bytes32"
							},
							{
								"astId": 33,
								"contract": "projects/EthertransfersSecPetterns.sol:SecurevaultAudit",
								"label": "timestamp",
								"offset": 0,
								"slot": "2",
								"type": "t_uint256"
							},
							{
								"astId": 35,
								"contract": "projects/EthertransfersSecPetterns.sol:SecurevaultAudit",
								"label": "revealed",
								"offset": 0,
								"slot": "3",
								"type": "t_bool"
							}
						],
						"numberOfBytes": "128"
					},
					"t_struct(deposit)27_storage": {
						"encoding": "inplace",
						"label": "struct SecurevaultAudit.deposit",
						"members": [
							{
								"astId": 22,
								"contract": "projects/EthertransfersSecPetterns.sol:SecurevaultAudit",
								"label": "amount",
								"offset": 0,
								"slot": "0",
								"type": "t_uint256"
							},
							{
								"astId": 24,
								"contract": "projects/EthertransfersSecPetterns.sol:SecurevaultAudit",
								"label": "timestamp",
								"offset": 0,
								"slot": "1",
								"type": "t_uint256"
							},
							{
								"astId": 26,
								"contract": "projects/EthertransfersSecPetterns.sol:SecurevaultAudit",
								"label": "index",
								"offset": 0,
								"slot": "2",
								"type": "t_uint256"
							}
						],
						"numberOfBytes": "96"
					},
					"t_uint256": {
						"encoding": "inplace",
						"label": "uint256",
						"numberOfBytes": "32"
					}
				}
			},
			"userdoc": {
				"kind": "user",
				"methods": {},
				"version": 1
			}
		}
	}
}