{
	"tryit/calculator.sol": {
		"calculator": {
			"abi": [
				{
					"inputs": [
						{
							"internalType": "uint256",
							"name": "a",
							"type": "uint256"
						},
						{
							"internalType": "uint256",
							"name": "b",
							"type": "uint256"
						}
					],
					"name": "Add",
					"outputs": [
						{
							"internalType": "uint256",
							"name": "",
							"type": "uint256"
						}
					],
					"stateMutability": "pure",
					"type": "function"
				},
				{
					"inputs": [
						{
							"internalType": "uint256",
							"name": "a",
							"type": "uint256"
						},
						{
							"internalType": "uint256",
							"name": "b",
							"type": "uint256"
						}
					],
					"name": "Divide",
					"outputs": [
						{
							"internalType": "uint256",
							"name": "",
							"type": "uint256"
						}
					],
					"stateMutability": "pure",
					"type": "function"
				},
				{
					"inputs": [
						{
							"internalType": "uint256",
							"name": "a",
							"type": "uint256"
						},
						{
							"internalType": "uint256",
							"name": "b",
							"type": "uint256"
						}
					],
					"name": "Multiply",
					"outputs": [
						{
							"internalType": "uint256",
							"name": "",
							"type": "uint256"
						}
					],
					"stateMutability": "pure",
					"type": "function"
				},
				{
					"inputs": [
						{
							"internalType": "uint256",
							"name": "a",
							"type": "uint256"
						},
						{
							"internalType": "uint256",
							"name": "b",
							"type": "uint256"
						}
					],
					"name": "Subtract",
					"outputs": [
						{
							"internalType": "uint256",
							"name": "",
							"type": "uint256"
						}
					],
					"stateMutability": "pure",
					"type": "function"
				}
			],
			"devdoc": {
				"kind": "dev",
				"methods": {},
				"version": 1
			},
			"evm": {
				"assembly": "    /* \"tryit/calculator.sol\":68:582  contract calculator {... */\n  mstore(0x40, 0x80)\n  callvalue\n  dup1\n  iszero\n  tag_1\n  jumpi\n  revert(0x00, 0x00)\ntag_1:\n  pop\n  dataSize(sub_0)\n  dup1\n  dataOffset(sub_0)\n  0x00\n  codecopy\n  0x00\n  return\nstop\n\nsub_0: assembly {\n        /* \"tryit/calculator.sol\":68:582  contract calculator {... */\n      mstore(0x40, 0x80)\n      callvalue\n      dup1\n      iszero\n      tag_1\n      jumpi\n      revert(0x00, 0x00)\n    tag_1:\n      pop\n      jumpi(tag_2, lt(calldatasize, 0x04))\n      shr(0xe0, calldataload(0x00))\n      dup1\n      0x2e7c409b\n      eq\n      tag_3\n      jumpi\n      dup1\n      0x7afbe4f1\n      eq\n      tag_4\n      jumpi\n      dup1\n      0xb048546f\n      eq\n      tag_5\n      jumpi\n      dup1\n      0xf8eac151\n      eq\n      tag_6\n      jumpi\n    tag_2:\n      revert(0x00, 0x00)\n        /* \"tryit/calculator.sol\":245:335  function Subtract(uint a, uint b) public pure returns (uint) {... */\n    tag_3:\n      tag_7\n      0x04\n      dup1\n      calldatasize\n      sub\n      dup2\n      add\n      swap1\n      tag_8\n      swap2\n      swap1\n      tag_9\n      jump\t// in\n    tag_8:\n      tag_10\n      jump\t// in\n    tag_7:\n      mload(0x40)\n      tag_11\n      swap2\n      swap1\n      tag_12\n      jump\t// in\n    tag_11:\n      mload(0x40)\n      dup1\n      swap2\n      sub\n      swap1\n      return\n        /* \"tryit/calculator.sol\":118:205  function Add(uint a, uint b) public pure returns (uint) {... */\n    tag_4:\n      tag_13\n      0x04\n      dup1\n      calldatasize\n      sub\n      dup2\n      add\n      swap1\n      tag_14\n      swap2\n      swap1\n      tag_9\n      jump\t// in\n    tag_14:\n      tag_15\n      jump\t// in\n    tag_13:\n      mload(0x40)\n      tag_16\n      swap2\n      swap1\n      tag_12\n      jump\t// in\n    tag_16:\n      mload(0x40)\n      dup1\n      swap2\n      sub\n      swap1\n      return\n        /* \"tryit/calculator.sol\":491:579  function Divide(uint a ,uint b) public pure returns (uint) {... */\n    tag_5:\n      tag_17\n      0x04\n      dup1\n      calldatasize\n      sub\n      dup2\n      add\n      swap1\n      tag_18\n      swap2\n      swap1\n      tag_9\n      jump\t// in\n    tag_18:\n      tag_19\n      jump\t// in\n    tag_17:\n      mload(0x40)\n      tag_20\n      swap2\n      swap1\n      tag_12\n      jump\t// in\n    tag_20:\n      mload(0x40)\n      dup1\n      swap2\n      sub\n      swap1\n      return\n        /* \"tryit/calculator.sol\":369:459  function Multiply(uint a, uint b) public pure returns (uint) {... */\n    tag_6:\n      tag_21\n      0x04\n      dup1\n      calldatasize\n      sub\n      dup2\n      add\n      swap1\n      tag_22\n      swap2\n      swap1\n      tag_9\n      jump\t// in\n    tag_22:\n      tag_23\n      jump\t// in\n    tag_21:\n      mload(0x40)\n      tag_24\n      swap2\n      swap1\n      tag_12\n      jump\t// in\n    tag_24:\n      mload(0x40)\n      dup1\n      swap2\n      sub\n      swap1\n      return\n        /* \"tryit/calculator.sol\":245:335  function Subtract(uint a, uint b) public pure returns (uint) {... */\n    tag_10:\n        /* \"tryit/calculator.sol\":300:304  uint */\n      0x00\n        /* \"tryit/calculator.sol\":326:327  b */\n      dup2\n        /* \"tryit/calculator.sol\":324:325  a */\n      dup4\n        /* \"tryit/calculator.sol\":324:327  a-b */\n      tag_26\n      swap2\n      swap1\n      tag_27\n      jump\t// in\n    tag_26:\n        /* \"tryit/calculator.sol\":317:327  return a-b */\n      swap1\n      pop\n        /* \"tryit/calculator.sol\":245:335  function Subtract(uint a, uint b) public pure returns (uint) {... */\n      swap3\n      swap2\n      pop\n      pop\n      jump\t// out\n        /* \"tryit/calculator.sol\":118:205  function Add(uint a, uint b) public pure returns (uint) {... */\n    tag_15:\n        /* \"tryit/calculator.sol\":168:172  uint */\n      0x00\n        /* \"tryit/calculator.sol\":196:197  b */\n      dup2\n        /* \"tryit/calculator.sol\":192:193  a */\n      dup4\n        /* \"tryit/calculator.sol\":192:197  a + b */\n      tag_29\n      swap2\n      swap1\n      tag_30\n      jump\t// in\n    tag_29:\n        /* \"tryit/calculator.sol\":185:197  return a + b */\n      swap1\n      pop\n        /* \"tryit/calculator.sol\":118:205  function Add(uint a, uint b) public pure returns (uint) {... */\n      swap3\n      swap2\n      pop\n      pop\n      jump\t// out\n        /* \"tryit/calculator.sol\":491:579  function Divide(uint a ,uint b) public pure returns (uint) {... */\n    tag_19:\n        /* \"tryit/calculator.sol\":544:548  uint */\n      0x00\n        /* \"tryit/calculator.sol\":570:571  b */\n      dup2\n        /* \"tryit/calculator.sol\":568:569  a */\n      dup4\n        /* \"tryit/calculator.sol\":568:571  a/b */\n      tag_32\n      swap2\n      swap1\n      tag_33\n      jump\t// in\n    tag_32:\n        /* \"tryit/calculator.sol\":561:571  return a/b */\n      swap1\n      pop\n        /* \"tryit/calculator.sol\":491:579  function Divide(uint a ,uint b) public pure returns (uint) {... */\n      swap3\n      swap2\n      pop\n      pop\n      jump\t// out\n        /* \"tryit/calculator.sol\":369:459  function Multiply(uint a, uint b) public pure returns (uint) {... */\n    tag_23:\n        /* \"tryit/calculator.sol\":424:428  uint */\n      0x00\n        /* \"tryit/calculator.sol\":450:451  b */\n      dup2\n        /* \"tryit/calculator.sol\":448:449  a */\n      dup4\n        /* \"tryit/calculator.sol\":448:451  a*b */\n      tag_35\n      swap2\n      swap1\n      tag_36\n      jump\t// in\n    tag_35:\n        /* \"tryit/calculator.sol\":441:451  return a*b */\n      swap1\n      pop\n        /* \"tryit/calculator.sol\":369:459  function Multiply(uint a, uint b) public pure returns (uint) {... */\n      swap3\n      swap2\n      pop\n      pop\n      jump\t// out\n        /* \"#utility.yul\":88:205   */\n    tag_38:\n        /* \"#utility.yul\":197:198   */\n      0x00\n        /* \"#utility.yul\":194:195   */\n      0x00\n        /* \"#utility.yul\":187:199   */\n      revert\n        /* \"#utility.yul\":334:411   */\n    tag_40:\n        /* \"#utility.yul\":371:378   */\n      0x00\n        /* \"#utility.yul\":400:405   */\n      dup2\n        /* \"#utility.yul\":389:405   */\n      swap1\n      pop\n        /* \"#utility.yul\":334:411   */\n      swap2\n      swap1\n      pop\n      jump\t// out\n        /* \"#utility.yul\":417:539   */\n    tag_41:\n        /* \"#utility.yul\":490:514   */\n      tag_52\n        /* \"#utility.yul\":508:513   */\n      dup2\n        /* \"#utility.yul\":490:514   */\n      tag_40\n      jump\t// in\n    tag_52:\n        /* \"#utility.yul\":483:488   */\n      dup2\n        /* \"#utility.yul\":480:515   */\n      eq\n        /* \"#utility.yul\":470:533   */\n      tag_53\n      jumpi\n        /* \"#utility.yul\":529:530   */\n      0x00\n        /* \"#utility.yul\":526:527   */\n      0x00\n        /* \"#utility.yul\":519:531   */\n      revert\n        /* \"#utility.yul\":470:533   */\n    tag_53:\n        /* \"#utility.yul\":417:539   */\n      pop\n      jump\t// out\n        /* \"#utility.yul\":545:684   */\n    tag_42:\n        /* \"#utility.yul\":591:596   */\n      0x00\n        /* \"#utility.yul\":629:635   */\n      dup2\n        /* \"#utility.yul\":616:636   */\n      calldataload\n        /* \"#utility.yul\":607:636   */\n      swap1\n      pop\n        /* \"#utility.yul\":645:678   */\n      tag_55\n        /* \"#utility.yul\":672:677   */\n      dup2\n        /* \"#utility.yul\":645:678   */\n      tag_41\n      jump\t// in\n    tag_55:\n        /* \"#utility.yul\":545:684   */\n      swap3\n      swap2\n      pop\n      pop\n      jump\t// out\n        /* \"#utility.yul\":690:1164   */\n    tag_9:\n        /* \"#utility.yul\":758:764   */\n      0x00\n        /* \"#utility.yul\":766:772   */\n      0x00\n        /* \"#utility.yul\":815:817   */\n      0x40\n        /* \"#utility.yul\":803:812   */\n      dup4\n        /* \"#utility.yul\":794:801   */\n      dup6\n        /* \"#utility.yul\":790:813   */\n      sub\n        /* \"#utility.yul\":786:818   */\n      slt\n        /* \"#utility.yul\":783:902   */\n      iszero\n      tag_57\n      jumpi\n        /* \"#utility.yul\":821:900   */\n      tag_58\n      tag_38\n      jump\t// in\n    tag_58:\n        /* \"#utility.yul\":783:902   */\n    tag_57:\n        /* \"#utility.yul\":941:942   */\n      0x00\n        /* \"#utility.yul\":966:1019   */\n      tag_59\n        /* \"#utility.yul\":1011:1018   */\n      dup6\n        /* \"#utility.yul\":1002:1008   */\n      dup3\n        /* \"#utility.yul\":991:1000   */\n      dup7\n        /* \"#utility.yul\":987:1009   */\n      add\n        /* \"#utility.yul\":966:1019   */\n      tag_42\n      jump\t// in\n    tag_59:\n        /* \"#utility.yul\":956:1019   */\n      swap3\n      pop\n        /* \"#utility.yul\":912:1029   */\n      pop\n        /* \"#utility.yul\":1068:1070   */\n      0x20\n        /* \"#utility.yul\":1094:1147   */\n      tag_60\n        /* \"#utility.yul\":1139:1146   */\n      dup6\n        /* \"#utility.yul\":1130:1136   */\n      dup3\n        /* \"#utility.yul\":1119:1128   */\n      dup7\n        /* \"#utility.yul\":1115:1137   */\n      add\n        /* \"#utility.yul\":1094:1147   */\n      tag_42\n      jump\t// in\n    tag_60:\n        /* \"#utility.yul\":1084:1147   */\n      swap2\n      pop\n        /* \"#utility.yul\":1039:1157   */\n      pop\n        /* \"#utility.yul\":690:1164   */\n      swap3\n      pop\n      swap3\n      swap1\n      pop\n      jump\t// out\n        /* \"#utility.yul\":1170:1288   */\n    tag_43:\n        /* \"#utility.yul\":1257:1281   */\n      tag_62\n        /* \"#utility.yul\":1275:1280   */\n      dup2\n        /* \"#utility.yul\":1257:1281   */\n      tag_40\n      jump\t// in\n    tag_62:\n        /* \"#utility.yul\":1252:1255   */\n      dup3\n        /* \"#utility.yul\":1245:1282   */\n      mstore\n        /* \"#utility.yul\":1170:1288   */\n      pop\n      pop\n      jump\t// out\n        /* \"#utility.yul\":1294:1516   */\n    tag_12:\n        /* \"#utility.yul\":1387:1391   */\n      0x00\n        /* \"#utility.yul\":1425:1427   */\n      0x20\n        /* \"#utility.yul\":1414:1423   */\n      dup3\n        /* \"#utility.yul\":1410:1428   */\n      add\n        /* \"#utility.yul\":1402:1428   */\n      swap1\n      pop\n        /* \"#utility.yul\":1438:1509   */\n      tag_64\n        /* \"#utility.yul\":1506:1507   */\n      0x00\n        /* \"#utility.yul\":1495:1504   */\n      dup4\n        /* \"#utility.yul\":1491:1508   */\n      add\n        /* \"#utility.yul\":1482:1488   */\n      dup5\n        /* \"#utility.yul\":1438:1509   */\n      tag_43\n      jump\t// in\n    tag_64:\n        /* \"#utility.yul\":1294:1516   */\n      swap3\n      swap2\n      pop\n      pop\n      jump\t// out\n        /* \"#utility.yul\":1522:1702   */\n    tag_44:\n        /* \"#utility.yul\":1570:1647   */\n      0x4e487b7100000000000000000000000000000000000000000000000000000000\n        /* \"#utility.yul\":1567:1568   */\n      0x00\n        /* \"#utility.yul\":1560:1648   */\n      mstore\n        /* \"#utility.yul\":1667:1671   */\n      0x11\n        /* \"#utility.yul\":1664:1665   */\n      0x04\n        /* \"#utility.yul\":1657:1672   */\n      mstore\n        /* \"#utility.yul\":1691:1695   */\n      0x24\n        /* \"#utility.yul\":1688:1689   */\n      0x00\n        /* \"#utility.yul\":1681:1696   */\n      revert\n        /* \"#utility.yul\":1708:1902   */\n    tag_27:\n        /* \"#utility.yul\":1748:1752   */\n      0x00\n        /* \"#utility.yul\":1768:1788   */\n      tag_67\n        /* \"#utility.yul\":1786:1787   */\n      dup3\n        /* \"#utility.yul\":1768:1788   */\n      tag_40\n      jump\t// in\n    tag_67:\n        /* \"#utility.yul\":1763:1788   */\n      swap2\n      pop\n        /* \"#utility.yul\":1802:1822   */\n      tag_68\n        /* \"#utility.yul\":1820:1821   */\n      dup4\n        /* \"#utility.yul\":1802:1822   */\n      tag_40\n      jump\t// in\n    tag_68:\n        /* \"#utility.yul\":1797:1822   */\n      swap3\n      pop\n        /* \"#utility.yul\":1846:1847   */\n      dup3\n        /* \"#utility.yul\":1843:1844   */\n      dup3\n        /* \"#utility.yul\":1839:1848   */\n      sub\n        /* \"#utility.yul\":1831:1848   */\n      swap1\n      pop\n        /* \"#utility.yul\":1870:1871   */\n      dup2\n        /* \"#utility.yul\":1864:1868   */\n      dup2\n        /* \"#utility.yul\":1861:1872   */\n      gt\n        /* \"#utility.yul\":1858:1895   */\n      iszero\n      tag_69\n      jumpi\n        /* \"#utility.yul\":1875:1893   */\n      tag_70\n      tag_44\n      jump\t// in\n    tag_70:\n        /* \"#utility.yul\":1858:1895   */\n    tag_69:\n        /* \"#utility.yul\":1708:1902   */\n      swap3\n      swap2\n      pop\n      pop\n      jump\t// out\n        /* \"#utility.yul\":1908:2099   */\n    tag_30:\n        /* \"#utility.yul\":1948:1951   */\n      0x00\n        /* \"#utility.yul\":1967:1987   */\n      tag_72\n        /* \"#utility.yul\":1985:1986   */\n      dup3\n        /* \"#utility.yul\":1967:1987   */\n      tag_40\n      jump\t// in\n    tag_72:\n        /* \"#utility.yul\":1962:1987   */\n      swap2\n      pop\n        /* \"#utility.yul\":2001:2021   */\n      tag_73\n        /* \"#utility.yul\":2019:2020   */\n      dup4\n        /* \"#utility.yul\":2001:2021   */\n      tag_40\n      jump\t// in\n    tag_73:\n        /* \"#utility.yul\":1996:2021   */\n      swap3\n      pop\n        /* \"#utility.yul\":2044:2045   */\n      dup3\n        /* \"#utility.yul\":2041:2042   */\n      dup3\n        /* \"#utility.yul\":2037:2046   */\n      add\n        /* \"#utility.yul\":2030:2046   */\n      swap1\n      pop\n        /* \"#utility.yul\":2065:2068   */\n      dup1\n        /* \"#utility.yul\":2062:2063   */\n      dup3\n        /* \"#utility.yul\":2059:2069   */\n      gt\n        /* \"#utility.yul\":2056:2092   */\n      iszero\n      tag_74\n      jumpi\n        /* \"#utility.yul\":2072:2090   */\n      tag_75\n      tag_44\n      jump\t// in\n    tag_75:\n        /* \"#utility.yul\":2056:2092   */\n    tag_74:\n        /* \"#utility.yul\":1908:2099   */\n      swap3\n      swap2\n      pop\n      pop\n      jump\t// out\n        /* \"#utility.yul\":2105:2285   */\n    tag_45:\n        /* \"#utility.yul\":2153:2230   */\n      0x4e487b7100000000000000000000000000000000000000000000000000000000\n        /* \"#utility.yul\":2150:2151   */\n      0x00\n        /* \"#utility.yul\":2143:2231   */\n      mstore\n        /* \"#utility.yul\":2250:2254   */\n      0x12\n        /* \"#utility.yul\":2247:2248   */\n      0x04\n        /* \"#utility.yul\":2240:2255   */\n      mstore\n        /* \"#utility.yul\":2274:2278   */\n      0x24\n        /* \"#utility.yul\":2271:2272   */\n      0x00\n        /* \"#utility.yul\":2264:2279   */\n      revert\n        /* \"#utility.yul\":2291:2476   */\n    tag_33:\n        /* \"#utility.yul\":2331:2332   */\n      0x00\n        /* \"#utility.yul\":2348:2368   */\n      tag_78\n        /* \"#utility.yul\":2366:2367   */\n      dup3\n        /* \"#utility.yul\":2348:2368   */\n      tag_40\n      jump\t// in\n    tag_78:\n        /* \"#utility.yul\":2343:2368   */\n      swap2\n      pop\n        /* \"#utility.yul\":2382:2402   */\n      tag_79\n        /* \"#utility.yul\":2400:2401   */\n      dup4\n        /* \"#utility.yul\":2382:2402   */\n      tag_40\n      jump\t// in\n    tag_79:\n        /* \"#utility.yul\":2377:2402   */\n      swap3\n      pop\n        /* \"#utility.yul\":2421:2422   */\n      dup3\n        /* \"#utility.yul\":2411:2446   */\n      tag_80\n      jumpi\n        /* \"#utility.yul\":2426:2444   */\n      tag_81\n      tag_45\n      jump\t// in\n    tag_81:\n        /* \"#utility.yul\":2411:2446   */\n    tag_80:\n        /* \"#utility.yul\":2468:2469   */\n      dup3\n        /* \"#utility.yul\":2465:2466   */\n      dup3\n        /* \"#utility.yul\":2461:2470   */\n      div\n        /* \"#utility.yul\":2456:2470   */\n      swap1\n      pop\n        /* \"#utility.yul\":2291:2476   */\n      swap3\n      swap2\n      pop\n      pop\n      jump\t// out\n        /* \"#utility.yul\":2482:2892   */\n    tag_36:\n        /* \"#utility.yul\":2522:2529   */\n      0x00\n        /* \"#utility.yul\":2545:2565   */\n      tag_83\n        /* \"#utility.yul\":2563:2564   */\n      dup3\n        /* \"#utility.yul\":2545:2565   */\n      tag_40\n      jump\t// in\n    tag_83:\n        /* \"#utility.yul\":2540:2565   */\n      swap2\n      pop\n        /* \"#utility.yul\":2579:2599   */\n      tag_84\n        /* \"#utility.yul\":2597:2598   */\n      dup4\n        /* \"#utility.yul\":2579:2599   */\n      tag_40\n      jump\t// in\n    tag_84:\n        /* \"#utility.yul\":2574:2599   */\n      swap3\n      pop\n        /* \"#utility.yul\":2634:2635   */\n      dup3\n        /* \"#utility.yul\":2631:2632   */\n      dup3\n        /* \"#utility.yul\":2627:2636   */\n      mul\n        /* \"#utility.yul\":2656:2686   */\n      tag_85\n        /* \"#utility.yul\":2674:2685   */\n      dup2\n        /* \"#utility.yul\":2656:2686   */\n      tag_40\n      jump\t// in\n    tag_85:\n        /* \"#utility.yul\":2645:2686   */\n      swap2\n      pop\n        /* \"#utility.yul\":2835:2836   */\n      dup3\n        /* \"#utility.yul\":2826:2833   */\n      dup3\n        /* \"#utility.yul\":2822:2837   */\n      div\n        /* \"#utility.yul\":2819:2820   */\n      dup5\n        /* \"#utility.yul\":2816:2838   */\n      eq\n        /* \"#utility.yul\":2796:2797   */\n      dup4\n        /* \"#utility.yul\":2789:2798   */\n      iszero\n        /* \"#utility.yul\":2769:2852   */\n      or\n        /* \"#utility.yul\":2746:2885   */\n      tag_86\n      jumpi\n        /* \"#utility.yul\":2865:2883   */\n      tag_87\n      tag_44\n      jump\t// in\n    tag_87:\n        /* \"#utility.yul\":2746:2885   */\n    tag_86:\n        /* \"#utility.yul\":2530:2892   */\n      pop\n        /* \"#utility.yul\":2482:2892   */\n      swap3\n      swap2\n      pop\n      pop\n      jump\t// out\n\n    auxdata: 0xa2646970667358221220268ed75213598b5fa63d2db77167c68ab742878db294256f342f7487a792021a64736f6c634300081e0033\n}\n",
				"bytecode": {
					"linkReferences": {},
					"object": "6080604052348015600e575f5ffd5b506103668061001c5f395ff3fe608060405234801561000f575f5ffd5b506004361061004a575f3560e01c80632e7c409b1461004e5780637afbe4f11461007e578063b048546f146100ae578063f8eac151146100de575b5f5ffd5b61006860048036038101906100639190610199565b61010e565b60405161007591906101e6565b60405180910390f35b61009860048036038101906100939190610199565b610123565b6040516100a591906101e6565b60405180910390f35b6100c860048036038101906100c39190610199565b610138565b6040516100d591906101e6565b60405180910390f35b6100f860048036038101906100f39190610199565b61014d565b60405161010591906101e6565b60405180910390f35b5f818361011b919061022c565b905092915050565b5f8183610130919061025f565b905092915050565b5f818361014591906102bf565b905092915050565b5f818361015a91906102ef565b905092915050565b5f5ffd5b5f819050919050565b61017881610166565b8114610182575f5ffd5b50565b5f813590506101938161016f565b92915050565b5f5f604083850312156101af576101ae610162565b5b5f6101bc85828601610185565b92505060206101cd85828601610185565b9150509250929050565b6101e081610166565b82525050565b5f6020820190506101f95f8301846101d7565b92915050565b7f4e487b71000000000000000000000000000000000000000000000000000000005f52601160045260245ffd5b5f61023682610166565b915061024183610166565b9250828203905081811115610259576102586101ff565b5b92915050565b5f61026982610166565b915061027483610166565b925082820190508082111561028c5761028b6101ff565b5b92915050565b7f4e487b71000000000000000000000000000000000000000000000000000000005f52601260045260245ffd5b5f6102c982610166565b91506102d483610166565b9250826102e4576102e3610292565b5b828204905092915050565b5f6102f982610166565b915061030483610166565b925082820261031281610166565b91508282048414831517610329576103286101ff565b5b509291505056fea2646970667358221220268ed75213598b5fa63d2db77167c68ab742878db294256f342f7487a792021a64736f6c634300081e0033",
					"opcodes": "PUSH1 0x80 PUSH1 0x40 MSTORE CALLVALUE DUP1 ISZERO PUSH1 0xE JUMPI PUSH0 PUSH0 REVERT JUMPDEST POP PUSH2 0x366 DUP1 PUSH2 0x1C PUSH0 CODECOPY PUSH0 RETURN INVALID PUSH1 0x80 PUSH1 0x40 MSTORE CALLVALUE DUP1 ISZERO PUSH2 0xF JUMPI PUSH0 PUSH0 REVERT JUMPDEST POP PUSH1 0x4 CALLDATASIZE LT PUSH2 0x4A JUMPI PUSH0 CALLDATALOAD PUSH1 0xE0 SHR DUP1 PUSH4 0x2E7C409B EQ PUSH2 0x4E JUMPI DUP1 PUSH4 0x7AFBE4F1 EQ PUSH2 0x7E JUMPI DUP1 PUSH4 0xB048546F EQ PUSH2 0xAE JUMPI DUP1 PUSH4 0xF8EAC151 EQ PUSH2 0xDE JUMPI JUMPDEST PUSH0 PUSH0 REVERT JUMPDEST PUSH2 0x68 PUSH1 0x4 DUP1 CALLDATASIZE SUB DUP2 ADD SWAP1 PUSH2 0x63 SWAP2 SWAP1 PUSH2 0x199 JUMP JUMPDEST PUSH2 0x10E JUMP JUMPDEST PUSH1 0x40 MLOAD PUSH2 0x75 SWAP2 SWAP1 PUSH2 0x1E6 JUMP JUMPDEST PUSH1 0x40 MLOAD DUP1 SWAP2 SUB SWAP1 RETURN JUMPDEST PUSH2 0x98 PUSH1 0x4 DUP1 CALLDATASIZE SUB DUP2 ADD SWAP1 PUSH2 0x93 SWAP2 SWAP1 PUSH2 0x199 JUMP JUMPDEST PUSH2 0x123 JUMP JUMPDEST PUSH1 0x40 MLOAD PUSH2 0xA5 SWAP2 SWAP1 PUSH2 0x1E6 JUMP JUMPDEST PUSH1 0x40 MLOAD DUP1 SWAP2 SUB SWAP1 RETURN JUMPDEST PUSH2 0xC8 PUSH1 0x4 DUP1 CALLDATASIZE SUB DUP2 ADD SWAP1 PUSH2 0xC3 SWAP2 SWAP1 PUSH2 0x199 JUMP JUMPDEST PUSH2 0x138 JUMP JUMPDEST PUSH1 0x40 MLOAD PUSH2 0xD5 SWAP2 SWAP1 PUSH2 0x1E6 JUMP JUMPDEST PUSH1 0x40 MLOAD DUP1 SWAP2 SUB SWAP1 RETURN JUMPDEST PUSH2 0xF8 PUSH1 0x4 DUP1 CALLDATASIZE SUB DUP2 ADD SWAP1 PUSH2 0xF3 SWAP2 SWAP1 PUSH2 0x199 JUMP JUMPDEST PUSH2 0x14D JUMP JUMPDEST PUSH1 0x40 MLOAD PUSH2 0x105 SWAP2 SWAP1 PUSH2 0x1E6 JUMP JUMPDEST PUSH1 0x40 MLOAD DUP1 SWAP2 SUB SWAP1 RETURN JUMPDEST PUSH0 DUP2 DUP4 PUSH2 0x11B SWAP2 SWAP1 PUSH2 0x22C JUMP JUMPDEST SWAP1 POP SWAP3 SWAP2 POP POP JUMP JUMPDEST PUSH0 DUP2 DUP4 PUSH2 0x130 SWAP2 SWAP1 PUSH2 0x25F JUMP JUMPDEST SWAP1 POP SWAP3 SWAP2 POP POP JUMP JUMPDEST PUSH0 DUP2 DUP4 PUSH2 0x145 SWAP2 SWAP1 PUSH2 0x2BF JUMP JUMPDEST SWAP1 POP SWAP3 SWAP2 POP POP JUMP JUMPDEST PUSH0 DUP2 DUP4 PUSH2 0x15A SWAP2 SWAP1 PUSH2 0x2EF JUMP JUMPDEST SWAP1 POP SWAP3 SWAP2 POP POP JUMP JUMPDEST PUSH0 PUSH0 REVERT JUMPDEST PUSH0 DUP2 SWAP1 POP SWAP2 SWAP1 POP JUMP JUMPDEST PUSH2 0x178 DUP2 PUSH2 0x166 JUMP JUMPDEST DUP2 EQ PUSH2 0x182 JUMPI PUSH0 PUSH0 REVERT JUMPDEST POP JUMP JUMPDEST PUSH0 DUP2 CALLDATALOAD SWAP1 POP PUSH2 0x193 DUP2 PUSH2 0x16F JUMP JUMPDEST SWAP3 SWAP2 POP POP JUMP JUMPDEST PUSH0 PUSH0 PUSH1 0x40 DUP4 DUP6 SUB SLT ISZERO PUSH2 0x1AF JUMPI PUSH2 0x1AE PUSH2 0x162 JUMP JUMPDEST JUMPDEST PUSH0 PUSH2 0x1BC DUP6 DUP3 DUP7 ADD PUSH2 0x185 JUMP JUMPDEST SWAP3 POP POP PUSH1 0x20 PUSH2 0x1CD DUP6 DUP3 DUP7 ADD PUSH2 0x185 JUMP JUMPDEST SWAP2 POP POP SWAP3 POP SWAP3 SWAP1 POP JUMP JUMPDEST PUSH2 0x1E0 DUP2 PUSH2 0x166 JUMP JUMPDEST DUP3 MSTORE POP POP JUMP JUMPDEST PUSH0 PUSH1 0x20 DUP3 ADD SWAP1 POP PUSH2 0x1F9 PUSH0 DUP4 ADD DUP5 PUSH2 0x1D7 JUMP JUMPDEST SWAP3 SWAP2 POP POP JUMP JUMPDEST PUSH32 0x4E487B7100000000000000000000000000000000000000000000000000000000 PUSH0 MSTORE PUSH1 0x11 PUSH1 0x4 MSTORE PUSH1 0x24 PUSH0 REVERT JUMPDEST PUSH0 PUSH2 0x236 DUP3 PUSH2 0x166 JUMP JUMPDEST SWAP2 POP PUSH2 0x241 DUP4 PUSH2 0x166 JUMP JUMPDEST SWAP3 POP DUP3 DUP3 SUB SWAP1 POP DUP2 DUP2 GT ISZERO PUSH2 0x259 JUMPI PUSH2 0x258 PUSH2 0x1FF JUMP JUMPDEST JUMPDEST SWAP3 SWAP2 POP POP JUMP JUMPDEST PUSH0 PUSH2 0x269 DUP3 PUSH2 0x166 JUMP JUMPDEST SWAP2 POP PUSH2 0x274 DUP4 PUSH2 0x166 JUMP JUMPDEST SWAP3 POP DUP3 DUP3 ADD SWAP1 POP DUP1 DUP3 GT ISZERO PUSH2 0x28C JUMPI PUSH2 0x28B PUSH2 0x1FF JUMP JUMPDEST JUMPDEST SWAP3 SWAP2 POP POP JUMP JUMPDEST PUSH32 0x4E487B7100000000000000000000000000000000000000000000000000000000 PUSH0 MSTORE PUSH1 0x12 PUSH1 0x4 MSTORE PUSH1 0x24 PUSH0 REVERT JUMPDEST PUSH0 PUSH2 0x2C9 DUP3 PUSH2 0x166 JUMP JUMPDEST SWAP2 POP PUSH2 0x2D4 DUP4 PUSH2 0x166 JUMP JUMPDEST SWAP3 POP DUP3 PUSH2 0x2E4 JUMPI PUSH2 0x2E3 PUSH2 0x292 JUMP JUMPDEST JUMPDEST DUP3 DUP3 DIV SWAP1 POP SWAP3 SWAP2 POP POP JUMP JUMPDEST PUSH0 PUSH2 0x2F9 DUP3 PUSH2 0x166 JUMP JUMPDEST SWAP2 POP PUSH2 0x304 DUP4 PUSH2 0x166 JUMP JUMPDEST SWAP3 POP DUP3 DUP3 MUL PUSH2 0x312 DUP2 PUSH2 0x166 JUMP JUMPDEST SWAP2 POP DUP3 DUP3 DIV DUP5 EQ DUP4 ISZERO OR PUSH2 0x329 JUMPI PUSH2 0x328 PUSH2 0x1FF JUMP JUMPDEST JUMPDEST POP SWAP3 SWAP2 POP POP JUMP INVALID LOG2 PUSH5 0x6970667358 0x22 SLT KECCAK256 0x26 DUP15 0xD7 MSTORE SGT MSIZE DUP12 PUSH0 0xA6 RETURNDATASIZE 0x2D 0xB7 PUSH18 0x67C68AB742878DB294256F342F7487A79202 BYTE PUSH5 0x736F6C6343 STOP ADDMOD 0x1E STOP CALLER "
				},
				"gasEstimates": {
					"creation": {
						"codeDepositCost": "174000",
						"executionCost": "218",
						"totalCost": "174218"
					},
					"external": {
						"Add(uint256,uint256)": "infinite",
						"Divide(uint256,uint256)": "infinite",
						"Multiply(uint256,uint256)": "infinite",
						"Subtract(uint256,uint256)": "infinite"
					}
				},
				"methodIdentifiers": {
					"Add(uint256,uint256)": "7afbe4f1",
					"Divide(uint256,uint256)": "b048546f",
					"Multiply(uint256,uint256)": "f8eac151",
					"Subtract(uint256,uint256)": "2e7c409b"
				}
			},
			"storageLayout": {
				"storage": [],
				"types": null
			},
			"userdoc": {
				"kind": "user",
				"methods": {},
				"version": 1
			}
		}
	}
}