{
	"data": {
		"bytecode": {
			"linkReferences": {},
			"object": "608060405234801561000f575f5ffd5b5060405161370c38038061370c8339818101604052810190610031919061038c565b808383815f90816100429190610624565b5080600190816100529190610624565b5050505f73ffffffffffffffffffffffffffffffffffffffff168173ffffffffffffffffffffffffffffffffffffffff16036100c5575f6040517f1e4fbdf70000000000000000000000000000000000000000000000000000000081526004016100bc9190610702565b60405180910390fd5b6100d48161012260201b60201c565b506040518060400160405280601e81526020017f68747470733a2f2f6578616d706c652e636f6d2f6170692f746f6b656e2f0000815250600e90816101199190610624565b5050505061071b565b5f600c5f9054906101000a900473ffffffffffffffffffffffffffffffffffffffff16905081600c5f6101000a81548173ffffffffffffffffffffffffffffffffffffffff021916908373ffffffffffffffffffffffffffffffffffffffff1602179055508173ffffffffffffffffffffffffffffffffffffffff168173ffffffffffffffffffffffffffffffffffffffff167f8be0079c531659141344cd1fd0a4f28419497f9722a3daafe3b4186f6b6457e060405160405180910390a35050565b5f604051905090565b5f5ffd5b5f5ffd5b5f5ffd5b5f5ffd5b5f601f19601f8301169050919050565b7f4e487b71000000000000000000000000000000000000000000000000000000005f52604160045260245ffd5b610244826101fe565b810181811067ffffffffffffffff821117156102635761026261020e565b5b80604052505050565b5f6102756101e5565b9050610281828261023b565b919050565b5f67ffffffffffffffff8211156102a05761029f61020e565b5b6102a9826101fe565b9050602081019050919050565b8281835e5f83830152505050565b5f6102d66102d184610286565b61026c565b9050828152602081018484840111156102f2576102f16101fa565b5b6102fd8482856102b6565b509392505050565b5f82601f830112610319576103186101f6565b5b81516103298482602086016102c4565b91505092915050565b5f73ffffffffffffffffffffffffffffffffffffffff82169050919050565b5f61035b82610332565b9050919050565b61036b81610351565b8114610375575f5ffd5b50565b5f8151905061038681610362565b92915050565b5f5f5f606084860312156103a3576103a26101ee565b5b5f84015167ffffffffffffffff8111156103c0576103bf6101f2565b5b6103cc86828701610305565b935050602084015167ffffffffffffffff8111156103ed576103ec6101f2565b5b6103f986828701610305565b925050604061040a86828701610378565b9150509250925092565b5f81519050919050565b7f4e487b71000000000000000000000000000000000000000000000000000000005f52602260045260245ffd5b5f600282049050600182168061046257607f821691505b6020821081036104755761047461041e565b5b50919050565b5f819050815f5260205f209050919050565b5f6020601f8301049050919050565b5f82821b905092915050565b5f600883026104d77fffffffffffffffffffffffffffffffffffffffffffffffffffffffffffffffff8261049c565b6104e1868361049c565b95508019841693508086168417925050509392505050565b5f819050919050565b5f819050919050565b5f61052561052061051b846104f9565b610502565b6104f9565b9050919050565b5f819050919050565b61053e8361050b565b61055261054a8261052c565b8484546104a8565b825550505050565b5f5f905090565b61056961055a565b610574818484610535565b505050565b5b818110156105975761058c5f82610561565b60018101905061057a565b5050565b601f8211156105dc576105ad8161047b565b6105b68461048d565b810160208510156105c5578190505b6105d96105d18561048d565b830182610579565b50505b505050565b5f82821c905092915050565b5f6105fc5f19846008026105e1565b1980831691505092915050565b5f61061483836105ed565b9150826002028217905092915050565b61062d82610414565b67ffffffffffffffff8111156106465761064561020e565b5b610650825461044b565b61065b82828561059b565b5f60209050601f83116001811461068c575f841561067a578287015190505b6106848582610609565b8655506106eb565b601f19841661069a8661047b565b5f5b828110156106c15784890151825560018201915060208501945060208101905061069c565b868310156106de57848901516106da601f8916826105ed565b8355505b6001600288020188555050505b505050505050565b6106fc81610351565b82525050565b5f6020820190506107155f8301846106f3565b92915050565b612fe4806107285f395ff3fe608060405234801561000f575f5ffd5b5060043610610156575f3560e01c806355f804b3116100c1578063a22cb4651161007a578063a22cb465146103d5578063aa1b103f146103f1578063b88d4fde146103fb578063c87b56dd14610417578063e985e9c514610447578063f2fde38b1461047757610156565b806355f804b3146103135780636352211e1461032f57806370a082311461035f578063715018a61461038f5780638da5cb5b1461039957806395d89b41146103b757610156565b806323b872dd1161011357806323b872dd1461022e5780632a55205a1461024a5780632f745c591461027b57806340d097c3146102ab57806342842e0e146102c75780634f6ccce7146102e357610156565b806301ffc9a71461015a57806304634d8d1461018a57806306fdde03146101a6578063081812fc146101c4578063095ea7b3146101f457806318160ddd14610210575b5f5ffd5b610174600480360381019061016f9190612252565b610493565b6040516101819190612297565b60405180910390f35b6101a4600480360381019061019f919061234b565b6104a4565b005b6101ae6104ba565b6040516101bb91906123f9565b60405180910390f35b6101de60048036038101906101d9919061244c565b610549565b6040516101eb9190612486565b60405180910390f35b61020e6004803603810190610209919061249f565b610564565b005b61021861057a565b60405161022591906124ec565b60405180910390f35b61024860048036038101906102439190612505565b610586565b005b610264600480360381019061025f9190612555565b610685565b604051610272929190612593565b60405180910390f35b6102956004803603810190610290919061249f565b6107a7565b6040516102a291906124ec565b60405180910390f35b6102c560048036038101906102c091906125ba565b61084b565b005b6102e160048036038101906102dc9190612505565b61087a565b005b6102fd60048036038101906102f8919061244c565b610899565b60405161030a91906124ec565b60405180910390f35b61032d60048036038101906103289190612711565b61090b565b005b6103496004803603810190610344919061244c565b610926565b6040516103569190612486565b60405180910390f35b610379600480360381019061037491906125ba565b610937565b60405161038691906124ec565b60405180910390f35b6103976109ed565b005b6103a1610a00565b6040516103ae9190612486565b60405180910390f35b6103bf610a28565b6040516103cc91906123f9565b60405180910390f35b6103ef60048036038101906103ea9190612782565b610ab8565b005b6103f9610ace565b005b6104156004803603810190610410919061285e565b610ae0565b005b610431600480360381019061042c919061244c565b610b05565b60405161043e91906123f9565b60405180910390f35b610461600480360381019061045c91906128de565b610b49565b60405161046e9190612297565b60405180910390f35b610491600480360381019061048c91906125ba565b610bd7565b005b5f61049d82610c5b565b9050919050565b6104ac610cd4565b6104b68282610d5b565b5050565b60605f80546104c890612949565b80601f01602080910402602001604051908101604052809291908181526020018280546104f490612949565b801561053f5780601f106105165761010080835404028352916020019161053f565b820191905f5260205f20905b81548152906001019060200180831161052257829003601f168201915b5050505050905090565b5f61055382610ef6565b5061055d82610f7c565b9050919050565b6105768282610571610fb5565b610fbc565b5050565b5f600880549050905090565b5f73ffffffffffffffffffffffffffffffffffffffff168273ffffffffffffffffffffffffffffffffffffffff16036105f6575f6040517f64a0ae920000000000000000000000000000000000000000000000000000000081526004016105ed9190612486565b60405180910390fd5b5f6106098383610604610fb5565b610fce565b90508373ffffffffffffffffffffffffffffffffffffffff168173ffffffffffffffffffffffffffffffffffffffff161461067f578382826040517f64283d7b00000000000000000000000000000000000000000000000000000000815260040161067693929190612979565b60405180910390fd5b50505050565b5f5f5f600b5f8681526020019081526020015f2090505f815f015f9054906101000a900473ffffffffffffffffffffffffffffffffffffffff1690505f825f0160149054906101000a90046bffffffffffffffffffffffff1690505f73ffffffffffffffffffffffffffffffffffffffff168273ffffffffffffffffffffffffffffffffffffffff160361075957600a5f015f9054906101000a900473ffffffffffffffffffffffffffffffffffffffff169150600a5f0160149054906101000a90046bffffffffffffffffffffffff1690505b5f610762610fe3565b6bffffffffffffffffffffffff16826bffffffffffffffffffffffff168861078a91906129db565b6107949190612a49565b9050828195509550505050509250929050565b5f6107b183610937565b82106107f65782826040517fa57d13dc0000000000000000000000000000000000000000000000000000000081526004016107ed929190612593565b60405180910390fd5b60065f8473ffffffffffffffffffffffffffffffffffffffff1673ffffffffffffffffffffffffffffffffffffffff1681526020019081526020015f205f8381526020019081526020015f2054905092915050565b610853610cd4565b5f600d5f81548092919061086690612a79565b9190505590506108768282610fec565b5050565b61089483838360405180602001604052805f815250610ae0565b505050565b5f6108a261057a565b82106108e7575f826040517fa57d13dc0000000000000000000000000000000000000000000000000000000081526004016108de929190612593565b60405180910390fd5b600882815481106108fb576108fa612ac0565b5b905f5260205f2001549050919050565b610913610cd4565b80600e90816109229190612c8d565b5050565b5f61093082610ef6565b9050919050565b5f5f73ffffffffffffffffffffffffffffffffffffffff168273ffffffffffffffffffffffffffffffffffffffff16036109a8575f6040517f89c62b6400000000000000000000000000000000000000000000000000000000815260040161099f9190612486565b60405180910390fd5b60035f8373ffffffffffffffffffffffffffffffffffffffff1673ffffffffffffffffffffffffffffffffffffffff1681526020019081526020015f20549050919050565b6109f5610cd4565b6109fe5f611009565b565b5f600c5f9054906101000a900473ffffffffffffffffffffffffffffffffffffffff16905090565b606060018054610a3790612949565b80601f0160208091040260200160405190810160405280929190818152602001828054610a6390612949565b8015610aae5780601f10610a8557610100808354040283529160200191610aae565b820191905f5260205f20905b815481529060010190602001808311610a9157829003601f168201915b5050505050905090565b610aca610ac3610fb5565b83836110cc565b5050565b610ad6610cd4565b610ade611235565b565b610aeb848484610586565b610aff610af6610fb5565b8585858561127f565b50505050565b6060610b1082610ef6565b50610b1961142b565b610b22836114bb565b604051602001610b33929190612d96565b6040516020818303038152906040529050919050565b5f60055f8473ffffffffffffffffffffffffffffffffffffffff1673ffffffffffffffffffffffffffffffffffffffff1681526020019081526020015f205f8373ffffffffffffffffffffffffffffffffffffffff1673ffffffffffffffffffffffffffffffffffffffff1681526020019081526020015f205f9054906101000a900460ff16905092915050565b610bdf610cd4565b5f73ffffffffffffffffffffffffffffffffffffffff168173ffffffffffffffffffffffffffffffffffffffff1603610c4f575f6040517f1e4fbdf7000000000000000000000000000000000000000000000000000000008152600401610c469190612486565b60405180910390fd5b610c5881611009565b50565b5f7f2a55205a000000000000000000000000000000000000000000000000000000007bffffffffffffffffffffffffffffffffffffffffffffffffffffffff1916827bffffffffffffffffffffffffffffffffffffffffffffffffffffffff19161480610ccd5750610ccc82611614565b5b9050919050565b610cdc610fb5565b73ffffffffffffffffffffffffffffffffffffffff16610cfa610a00565b73ffffffffffffffffffffffffffffffffffffffff1614610d5957610d1d610fb5565b6040517f118cdaa7000000000000000000000000000000000000000000000000000000008152600401610d509190612486565b60405180910390fd5b565b5f610d64610fe3565b6bffffffffffffffffffffffff16905080826bffffffffffffffffffffffff161115610dc95781816040517f6f483d09000000000000000000000000000000000000000000000000000000008152600401610dc0929190612de9565b60405180910390fd5b5f73ffffffffffffffffffffffffffffffffffffffff168373ffffffffffffffffffffffffffffffffffffffff1603610e39575f6040517fb6d9900a000000000000000000000000000000000000000000000000000000008152600401610e309190612486565b60405180910390fd5b60405180604001604052808473ffffffffffffffffffffffffffffffffffffffff168152602001836bffffffffffffffffffffffff16815250600a5f820151815f015f6101000a81548173ffffffffffffffffffffffffffffffffffffffff021916908373ffffffffffffffffffffffffffffffffffffffff1602179055506020820151815f0160146101000a8154816bffffffffffffffffffffffff02191690836bffffffffffffffffffffffff160217905550905050505050565b5f5f610f018361168d565b90505f73ffffffffffffffffffffffffffffffffffffffff168173ffffffffffffffffffffffffffffffffffffffff1603610f7357826040517f7e273289000000000000000000000000000000000000000000000000000000008152600401610f6a91906124ec565b60405180910390fd5b80915050919050565b5f60045f8381526020019081526020015f205f9054906101000a900473ffffffffffffffffffffffffffffffffffffffff169050919050565b5f33905090565b610fc983838360016116c6565b505050565b5f610fda848484611885565b90509392505050565b5f612710905090565b611005828260405180602001604052805f81525061199f565b5050565b5f600c5f9054906101000a900473ffffffffffffffffffffffffffffffffffffffff16905081600c5f6101000a81548173ffffffffffffffffffffffffffffffffffffffff021916908373ffffffffffffffffffffffffffffffffffffffff1602179055508173ffffffffffffffffffffffffffffffffffffffff168173ffffffffffffffffffffffffffffffffffffffff167f8be0079c531659141344cd1fd0a4f28419497f9722a3daafe3b4186f6b6457e060405160405180910390a35050565b5f73ffffffffffffffffffffffffffffffffffffffff168273ffffffffffffffffffffffffffffffffffffffff160361113c57816040517f5b08ba180000000000000000000000000000000000000000000000000000000081526004016111339190612486565b60405180910390fd5b8060055f8573ffffffffffffffffffffffffffffffffffffffff1673ffffffffffffffffffffffffffffffffffffffff1681526020019081526020015f205f8473ffffffffffffffffffffffffffffffffffffffff1673ffffffffffffffffffffffffffffffffffffffff1681526020019081526020015f205f6101000a81548160ff0219169083151502179055508173ffffffffffffffffffffffffffffffffffffffff168373ffffffffffffffffffffffffffffffffffffffff167f17307eab39ab6107e8899845ad3d59bd9653f200f220920489ca2b5937696c31836040516112289190612297565b60405180910390a3505050565b600a5f5f82015f6101000a81549073ffffffffffffffffffffffffffffffffffffffff02191690555f820160146101000a8154906bffffffffffffffffffffffff02191690555050565b5f8373ffffffffffffffffffffffffffffffffffffffff163b1115611424578273ffffffffffffffffffffffffffffffffffffffff1663150b7a02868685856040518563ffffffff1660e01b81526004016112dd9493929190612e62565b6020604051808303815f875af192505050801561131857506040513d601f19601f820116820180604052508101906113159190612ec0565b60015b611399573d805f8114611346576040519150601f19603f3d011682016040523d82523d5f602084013e61134b565b606091505b505f81510361139157836040517f64a0ae920000000000000000000000000000000000000000000000000000000081526004016113889190612486565b60405180910390fd5b805160208201fd5b63150b7a0260e01b7bffffffffffffffffffffffffffffffffffffffffffffffffffffffff1916817bffffffffffffffffffffffffffffffffffffffffffffffffffffffff19161461142257836040517f64a0ae920000000000000000000000000000000000000000000000000000000081526004016114199190612486565b60405180910390fd5b505b5050505050565b6060600e805461143a90612949565b80601f016020809104026020016040519081016040528092919081815260200182805461146690612949565b80156114b15780601f10611488576101008083540402835291602001916114b1565b820191905f5260205f20905b81548152906001019060200180831161149457829003601f168201915b5050505050905090565b60605f8203611501576040518060400160405280600181526020017f3000000000000000000000000000000000000000000000000000000000000000815250905061160f565b5f8290505f5b5f821461153057808061151990612a79565b915050600a826115299190612a49565b9150611507565b5f8167ffffffffffffffff81111561154b5761154a6125ed565b5b6040519080825280601f01601f19166020018201604052801561157d5781602001600182028036833780820191505090505b5090505b5f8514611608576001826115959190612eeb565b9150600a856115a49190612f1e565b60306115b09190612f4e565b60f81b8183815181106115c6576115c5612ac0565b5b60200101907effffffffffffffffffffffffffffffffffffffffffffffffffffffffffffff191690815f1a905350600a856116019190612a49565b9450611581565b8093505050505b919050565b5f7f780e9d63000000000000000000000000000000000000000000000000000000007bffffffffffffffffffffffffffffffffffffffffffffffffffffffff1916827bffffffffffffffffffffffffffffffffffffffffffffffffffffffff191614806116865750611685826119c2565b5b9050919050565b5f60025f8381526020019081526020015f205f9054906101000a900473ffffffffffffffffffffffffffffffffffffffff169050919050565b80806116fe57505f73ffffffffffffffffffffffffffffffffffffffff168273ffffffffffffffffffffffffffffffffffffffff1614155b15611830575f61170d84610ef6565b90505f73ffffffffffffffffffffffffffffffffffffffff168373ffffffffffffffffffffffffffffffffffffffff161415801561177757508273ffffffffffffffffffffffffffffffffffffffff168173ffffffffffffffffffffffffffffffffffffffff1614155b801561178a57506117888184610b49565b155b156117cc57826040517fa9fbf51f0000000000000000000000000000000000000000000000000000000081526004016117c39190612486565b60405180910390fd5b811561182e57838573ffffffffffffffffffffffffffffffffffffffff168273ffffffffffffffffffffffffffffffffffffffff167f8c5be1e5ebec7d5bd14f71427d1e84f3dd0314c0f7b2291e5b200ac8c7c3b92560405160405180910390a45b505b8360045f8581526020019081526020015f205f6101000a81548173ffffffffffffffffffffffffffffffffffffffff021916908373ffffffffffffffffffffffffffffffffffffffff16021790555050505050565b5f5f611892858585611aa3565b90505f73ffffffffffffffffffffffffffffffffffffffff168173ffffffffffffffffffffffffffffffffffffffff16036118d5576118d084611cae565b611914565b8473ffffffffffffffffffffffffffffffffffffffff168173ffffffffffffffffffffffffffffffffffffffff1614611913576119128185611cf2565b5b5b5f73ffffffffffffffffffffffffffffffffffffffff168573ffffffffffffffffffffffffffffffffffffffff16036119555761195084611dc9565b611994565b8473ffffffffffffffffffffffffffffffffffffffff168173ffffffffffffffffffffffffffffffffffffffff1614611993576119928585611e89565b5b5b809150509392505050565b6119a98383611f0d565b6119bd6119b4610fb5565b5f85858561127f565b505050565b5f7f80ac58cd000000000000000000000000000000000000000000000000000000007bffffffffffffffffffffffffffffffffffffffffffffffffffffffff1916827bffffffffffffffffffffffffffffffffffffffffffffffffffffffff19161480611a8c57507f5b5e139f000000000000000000000000000000000000000000000000000000007bffffffffffffffffffffffffffffffffffffffffffffffffffffffff1916827bffffffffffffffffffffffffffffffffffffffffffffffffffffffff1916145b80611a9c5750611a9b82612000565b5b9050919050565b5f5f611aae8461168d565b90505f73ffffffffffffffffffffffffffffffffffffffff168373ffffffffffffffffffffffffffffffffffffffff1614611aef57611aee818486612069565b5b5f73ffffffffffffffffffffffffffffffffffffffff168173ffffffffffffffffffffffffffffffffffffffff1614611b7a57611b2e5f855f5f6116c6565b600160035f8373ffffffffffffffffffffffffffffffffffffffff1673ffffffffffffffffffffffffffffffffffffffff1681526020019081526020015f205f82825403925050819055505b5f73ffffffffffffffffffffffffffffffffffffffff168573ffffffffffffffffffffffffffffffffffffffff1614611bf957600160035f8773ffffffffffffffffffffffffffffffffffffffff1673ffffffffffffffffffffffffffffffffffffffff1681526020019081526020015f205f82825401925050819055505b8460025f8681526020019081526020015f205f6101000a81548173ffffffffffffffffffffffffffffffffffffffff021916908373ffffffffffffffffffffffffffffffffffffffff160217905550838573ffffffffffffffffffffffffffffffffffffffff168273ffffffffffffffffffffffffffffffffffffffff167fddf252ad1be2c89b69c2b068fc378daa952ba7f163c4a11628f55a4df523b3ef60405160405180910390a4809150509392505050565b60088054905060095f8381526020019081526020015f2081905550600881908060018154018082558091505060019003905f5260205f20015f909190919091505550565b5f611cfc83610937565b90505f60075f8481526020019081526020015f205490505f60065f8673ffffffffffffffffffffffffffffffffffffffff1673ffffffffffffffffffffffffffffffffffffffff1681526020019081526020015f209050828214611d9b575f815f8581526020019081526020015f2054905080825f8581526020019081526020015f20819055508260075f8381526020019081526020015f2081905550505b60075f8581526020019081526020015f205f9055805f8481526020019081526020015f205f90555050505050565b5f6001600880549050611ddc9190612eeb565b90505f60095f8481526020019081526020015f205490505f60088381548110611e0857611e07612ac0565b5b905f5260205f20015490508060088381548110611e2857611e27612ac0565b5b905f5260205f2001819055508160095f8381526020019081526020015f208190555060095f8581526020019081526020015f205f90556008805480611e7057611e6f612f81565b5b600190038181905f5260205f20015f9055905550505050565b5f6001611e9584610937565b611e9f9190612eeb565b90508160065f8573ffffffffffffffffffffffffffffffffffffffff1673ffffffffffffffffffffffffffffffffffffffff1681526020019081526020015f205f8381526020019081526020015f20819055508060075f8481526020019081526020015f2081905550505050565b5f73ffffffffffffffffffffffffffffffffffffffff168273ffffffffffffffffffffffffffffffffffffffff1603611f7d575f6040517f64a0ae92000000000000000000000000000000000000000000000000000000008152600401611f749190612486565b60405180910390fd5b5f611f8983835f610fce565b90505f73ffffffffffffffffffffffffffffffffffffffff168173ffffffffffffffffffffffffffffffffffffffff1614611ffb575f6040517f73c6ac6e000000000000000000000000000000000000000000000000000000008152600401611ff29190612486565b60405180910390fd5b505050565b5f7f01ffc9a7000000000000000000000000000000000000000000000000000000007bffffffffffffffffffffffffffffffffffffffffffffffffffffffff1916827bffffffffffffffffffffffffffffffffffffffffffffffffffffffff1916149050919050565b61207483838361212c565b612127575f73ffffffffffffffffffffffffffffffffffffffff168373ffffffffffffffffffffffffffffffffffffffff16036120e857806040517f7e2732890000000000000000000000000000000000000000000000000000000081526004016120df91906124ec565b60405180910390fd5b81816040517f177e802f00000000000000000000000000000000000000000000000000000000815260040161211e929190612593565b60405180910390fd5b505050565b5f5f73ffffffffffffffffffffffffffffffffffffffff168373ffffffffffffffffffffffffffffffffffffffff16141580156121e357508273ffffffffffffffffffffffffffffffffffffffff168473ffffffffffffffffffffffffffffffffffffffff1614806121a457506121a38484610b49565b5b806121e257508273ffffffffffffffffffffffffffffffffffffffff166121ca83610f7c565b73ffffffffffffffffffffffffffffffffffffffff16145b5b90509392505050565b5f604051905090565b5f5ffd5b5f5ffd5b5f7fffffffff0000000000000000000000000000000000000000000000000000000082169050919050565b612231816121fd565b811461223b575f5ffd5b50565b5f8135905061224c81612228565b92915050565b5f60208284031215612267576122666121f5565b5b5f6122748482850161223e565b91505092915050565b5f8115159050919050565b6122918161227d565b82525050565b5f6020820190506122aa5f830184612288565b92915050565b5f73ffffffffffffffffffffffffffffffffffffffff82169050919050565b5f6122d9826122b0565b9050919050565b6122e9816122cf565b81146122f3575f5ffd5b50565b5f81359050612304816122e0565b92915050565b5f6bffffffffffffffffffffffff82169050919050565b61232a8161230a565b8114612334575f5ffd5b50565b5f8135905061234581612321565b92915050565b5f5f60408385031215612361576123606121f5565b5b5f61236e858286016122f6565b925050602061237f85828601612337565b9150509250929050565b5f81519050919050565b5f82825260208201905092915050565b8281835e5f83830152505050565b5f601f19601f8301169050919050565b5f6123cb82612389565b6123d58185612393565b93506123e58185602086016123a3565b6123ee816123b1565b840191505092915050565b5f6020820190508181035f83015261241181846123c1565b905092915050565b5f819050919050565b61242b81612419565b8114612435575f5ffd5b50565b5f8135905061244681612422565b92915050565b5f60208284031215612461576124606121f5565b5b5f61246e84828501612438565b91505092915050565b612480816122cf565b82525050565b5f6020820190506124995f830184612477565b92915050565b5f5f604083850312156124b5576124b46121f5565b5b5f6124c2858286016122f6565b92505060206124d385828601612438565b9150509250929050565b6124e681612419565b82525050565b5f6020820190506124ff5f8301846124dd565b92915050565b5f5f5f6060848603121561251c5761251b6121f5565b5b5f612529868287016122f6565b935050602061253a868287016122f6565b925050604061254b86828701612438565b9150509250925092565b5f5f6040838503121561256b5761256a6121f5565b5b5f61257885828601612438565b925050602061258985828601612438565b9150509250929050565b5f6040820190506125a65f830185612477565b6125b360208301846124dd565b9392505050565b5f602082840312156125cf576125ce6121f5565b5b5f6125dc848285016122f6565b91505092915050565b5f5ffd5b5f5ffd5b7f4e487b71000000000000000000000000000000000000000000000000000000005f52604160045260245ffd5b612623826123b1565b810181811067ffffffffffffffff82111715612642576126416125ed565b5b80604052505050565b5f6126546121ec565b9050612660828261261a565b919050565b5f67ffffffffffffffff82111561267f5761267e6125ed565b5b612688826123b1565b9050602081019050919050565b828183375f83830152505050565b5f6126b56126b084612665565b61264b565b9050828152602081018484840111156126d1576126d06125e9565b5b6126dc848285612695565b509392505050565b5f82601f8301126126f8576126f76125e5565b5b81356127088482602086016126a3565b91505092915050565b5f60208284031215612726576127256121f5565b5b5f82013567ffffffffffffffff811115612743576127426121f9565b5b61274f848285016126e4565b91505092915050565b6127618161227d565b811461276b575f5ffd5b50565b5f8135905061277c81612758565b92915050565b5f5f60408385031215612798576127976121f5565b5b5f6127a5858286016122f6565b92505060206127b68582860161276e565b9150509250929050565b5f67ffffffffffffffff8211156127da576127d96125ed565b5b6127e3826123b1565b9050602081019050919050565b5f6128026127fd846127c0565b61264b565b90508281526020810184848401111561281e5761281d6125e9565b5b612829848285612695565b509392505050565b5f82601f830112612845576128446125e5565b5b81356128558482602086016127f0565b91505092915050565b5f5f5f5f60808587031215612876576128756121f5565b5b5f612883878288016122f6565b9450506020612894878288016122f6565b93505060406128a587828801612438565b925050606085013567ffffffffffffffff8111156128c6576128c56121f9565b5b6128d287828801612831565b91505092959194509250565b5f5f604083850312156128f4576128f36121f5565b5b5f612901858286016122f6565b9250506020612912858286016122f6565b9150509250929050565b7f4e487b71000000000000000000000000000000000000000000000000000000005f52602260045260245ffd5b5f600282049050600182168061296057607f821691505b6020821081036129735761297261291c565b5b50919050565b5f60608201905061298c5f830186612477565b61299960208301856124dd565b6129a66040830184612477565b949350505050565b7f4e487b71000000000000000000000000000000000000000000000000000000005f52601160045260245ffd5b5f6129e582612419565b91506129f083612419565b92508282026129fe81612419565b91508282048414831517612a1557612a146129ae565b5b5092915050565b7f4e487b71000000000000000000000000000000000000000000000000000000005f52601260045260245ffd5b5f612a5382612419565b9150612a5e83612419565b925082612a6e57612a6d612a1c565b5b828204905092915050565b5f612a8382612419565b91507fffffffffffffffffffffffffffffffffffffffffffffffffffffffffffffffff8203612ab557612ab46129ae565b5b600182019050919050565b7f4e487b71000000000000000000000000000000000000000000000000000000005f52603260045260245ffd5b5f819050815f5260205f209050919050565b5f6020601f8301049050919050565b5f82821b905092915050565b5f60088302612b497fffffffffffffffffffffffffffffffffffffffffffffffffffffffffffffffff82612b0e565b612b538683612b0e565b95508019841693508086168417925050509392505050565b5f819050919050565b5f612b8e612b89612b8484612419565b612b6b565b612419565b9050919050565b5f819050919050565b612ba783612b74565b612bbb612bb382612b95565b848454612b1a565b825550505050565b5f5f905090565b612bd2612bc3565b612bdd818484612b9e565b505050565b5b81811015612c0057612bf55f82612bca565b600181019050612be3565b5050565b601f821115612c4557612c1681612aed565b612c1f84612aff565b81016020851015612c2e578190505b612c42612c3a85612aff565b830182612be2565b50505b505050565b5f82821c905092915050565b5f612c655f1984600802612c4a565b1980831691505092915050565b5f612c7d8383612c56565b9150826002028217905092915050565b612c9682612389565b67ffffffffffffffff811115612caf57612cae6125ed565b5b612cb98254612949565b612cc4828285612c04565b5f60209050601f831160018114612cf5575f8415612ce3578287015190505b612ced8582612c72565b865550612d54565b601f198416612d0386612aed565b5f5b82811015612d2a57848901518255600182019150602085019450602081019050612d05565b86831015612d475784890151612d43601f891682612c56565b8355505b6001600288020188555050505b505050505050565b5f81905092915050565b5f612d7082612389565b612d7a8185612d5c565b9350612d8a8185602086016123a3565b80840191505092915050565b5f612da18285612d66565b9150612dad8284612d66565b91508190509392505050565b5f612dd3612dce612dc98461230a565b612b6b565b612419565b9050919050565b612de381612db9565b82525050565b5f604082019050612dfc5f830185612dda565b612e0960208301846124dd565b9392505050565b5f81519050919050565b5f82825260208201905092915050565b5f612e3482612e10565b612e3e8185612e1a565b9350612e4e8185602086016123a3565b612e57816123b1565b840191505092915050565b5f608082019050612e755f830187612477565b612e826020830186612477565b612e8f60408301856124dd565b8181036060830152612ea18184612e2a565b905095945050505050565b5f81519050612eba81612228565b92915050565b5f60208284031215612ed557612ed46121f5565b5b5f612ee284828501612eac565b91505092915050565b5f612ef582612419565b9150612f0083612419565b9250828203905081811115612f1857612f176129ae565b5b92915050565b5f612f2882612419565b9150612f3383612419565b925082612f4357612f42612a1c565b5b828206905092915050565b5f612f5882612419565b9150612f6383612419565b9250828201905080821115612f7b57612f7a6129ae565b5b92915050565b7f4e487b71000000000000000000000000000000000000000000000000000000005f52603160045260245ffdfea2646970667358221220d65eb1be649cab8b702bb0f64aa8dc233f37213d2badeb9f8a628db66112492b64736f6c634300081e0033",
			"opcodes": "PUSH1 0x80 PUSH1 0x40 MSTORE CALLVALUE DUP1 ISZERO PUSH2 0xF JUMPI PUSH0 PUSH0 REVERT JUMPDEST POP PUSH1 0x40 MLOAD PUSH2 0x370C CODESIZE SUB DUP1 PUSH2 0x370C DUP4 CODECOPY DUP2 DUP2 ADD PUSH1 0x40 MSTORE DUP2 ADD SWAP1 PUSH2 0x31 SWAP2 SWAP1 PUSH2 0x38C JUMP JUMPDEST DUP1 DUP4 DUP4 DUP2 PUSH0 SWAP1 DUP2 PUSH2 0x42 SWAP2 SWAP1 PUSH2 0x624 JUMP JUMPDEST POP DUP1 PUSH1 0x1 SWAP1 DUP2 PUSH2 0x52 SWAP2 SWAP1 PUSH2 0x624 JUMP JUMPDEST POP POP POP PUSH0 PUSH20 0xFFFFFFFFFFFFFFFFFFFFFFFFFFFFFFFFFFFFFFFF AND DUP2 PUSH20 0xFFFFFFFFFFFFFFFFFFFFFFFFFFFFFFFFFFFFFFFF AND SUB PUSH2 0xC5 JUMPI PUSH0 PUSH1 0x40 MLOAD PUSH32 0x1E4FBDF700000000000000000000000000000000000000000000000000000000 DUP2 MSTORE PUSH1 0x4 ADD PUSH2 0xBC SWAP2 SWAP1 PUSH2 0x702 JUMP JUMPDEST PUSH1 0x40 MLOAD DUP1 SWAP2 SUB SWAP1 REVERT JUMPDEST PUSH2 0xD4 DUP2 PUSH2 0x122 PUSH1 0x20 SHL PUSH1 0x20 SHR JUMP JUMPDEST POP PUSH1 0x40 MLOAD DUP1 PUSH1 0x40 ADD PUSH1 0x40 MSTORE DUP1 PUSH1 0x1E DUP2 MSTORE PUSH1 0x20 ADD PUSH32 0x68747470733A2F2F6578616D706C652E636F6D2F6170692F746F6B656E2F0000 DUP2 MSTORE POP PUSH1 0xE SWAP1 DUP2 PUSH2 0x119 SWAP2 SWAP1 PUSH2 0x624 JUMP JUMPDEST POP POP POP POP PUSH2 0x71B JUMP JUMPDEST PUSH0 PUSH1 0xC PUSH0 SWAP1 SLOAD SWAP1 PUSH2 0x100 EXP SWAP1 DIV PUSH20 0xFFFFFFFFFFFFFFFFFFFFFFFFFFFFFFFFFFFFFFFF AND SWAP1 POP DUP2 PUSH1 0xC PUSH0 PUSH2 0x100 EXP DUP2 SLOAD DUP2 PUSH20 0xFFFFFFFFFFFFFFFFFFFFFFFFFFFFFFFFFFFFFFFF MUL NOT AND SWAP1 DUP4 PUSH20 0xFFFFFFFFFFFFFFFFFFFFFFFFFFFFFFFFFFFFFFFF AND MUL OR SWAP1 SSTORE POP DUP2 PUSH20 0xFFFFFFFFFFFFFFFFFFFFFFFFFFFFFFFFFFFFFFFF AND DUP2 PUSH20 0xFFFFFFFFFFFFFFFFFFFFFFFFFFFFFFFFFFFFFFFF AND PUSH32 0x8BE0079C531659141344CD1FD0A4F28419497F9722A3DAAFE3B4186F6B6457E0 PUSH1 0x40 MLOAD PUSH1 0x40 MLOAD DUP1 SWAP2 SUB SWAP1 LOG3 POP POP JUMP JUMPDEST PUSH0 PUSH1 0x40 MLOAD SWAP1 POP SWAP1 JUMP JUMPDEST PUSH0 PUSH0 REVERT JUMPDEST PUSH0 PUSH0 REVERT JUMPDEST PUSH0 PUSH0 REVERT JUMPDEST PUSH0 PUSH0 REVERT JUMPDEST PUSH0 PUSH1 0x1F NOT PUSH1 0x1F DUP4 ADD AND SWAP1 POP SWAP2 SWAP1 POP JUMP JUMPDEST PUSH32 0x4E487B7100000000000000000000000000000000000000000000000000000000 PUSH0 MSTORE PUSH1 0x41 PUSH1 0x4 MSTORE PUSH1 0x24 PUSH0 REVERT JUMPDEST PUSH2 0x244 DUP3 PUSH2 0x1FE JUMP JUMPDEST DUP2 ADD DUP2 DUP2 LT PUSH8 0xFFFFFFFFFFFFFFFF DUP3 GT OR ISZERO PUSH2 0x263 JUMPI PUSH2 0x262 PUSH2 0x20E JUMP JUMPDEST JUMPDEST DUP1 PUSH1 0x40 MSTORE POP POP POP JUMP JUMPDEST PUSH0 PUSH2 0x275 PUSH2 0x1E5 JUMP JUMPDEST SWAP1 POP PUSH2 0x281 DUP3 DUP3 PUSH2 0x23B JUMP JUMPDEST SWAP2 SWAP1 POP JUMP JUMPDEST PUSH0 PUSH8 0xFFFFFFFFFFFFFFFF DUP3 GT ISZERO PUSH2 0x2A0 JUMPI PUSH2 0x29F PUSH2 0x20E JUMP JUMPDEST JUMPDEST PUSH2 0x2A9 DUP3 PUSH2 0x1FE JUMP JUMPDEST SWAP1 POP PUSH1 0x20 DUP2 ADD SWAP1 POP SWAP2 SWAP1 POP JUMP JUMPDEST DUP3 DUP2 DUP4 MCOPY PUSH0 DUP4 DUP4 ADD MSTORE POP POP POP JUMP JUMPDEST PUSH0 PUSH2 0x2D6 PUSH2 0x2D1 DUP5 PUSH2 0x286 JUMP JUMPDEST PUSH2 0x26C JUMP JUMPDEST SWAP1 POP DUP3 DUP2 MSTORE PUSH1 0x20 DUP2 ADD DUP5 DUP5 DUP5 ADD GT ISZERO PUSH2 0x2F2 JUMPI PUSH2 0x2F1 PUSH2 0x1FA JUMP JUMPDEST JUMPDEST PUSH2 0x2FD DUP5 DUP3 DUP6 PUSH2 0x2B6 JUMP JUMPDEST POP SWAP4 SWAP3 POP POP POP JUMP JUMPDEST PUSH0 DUP3 PUSH1 0x1F DUP4 ADD SLT PUSH2 0x319 JUMPI PUSH2 0x318 PUSH2 0x1F6 JUMP JUMPDEST JUMPDEST DUP2 MLOAD PUSH2 0x329 DUP5 DUP3 PUSH1 0x20 DUP7 ADD PUSH2 0x2C4 JUMP JUMPDEST SWAP2 POP POP SWAP3 SWAP2 POP POP JUMP JUMPDEST PUSH0 PUSH20 0xFFFFFFFFFFFFFFFFFFFFFFFFFFFFFFFFFFFFFFFF DUP3 AND SWAP1 POP SWAP2 SWAP1 POP JUMP JUMPDEST PUSH0 PUSH2 0x35B DUP3 PUSH2 0x332 JUMP JUMPDEST SWAP1 POP SWAP2 SWAP1 POP JUMP JUMPDEST PUSH2 0x36B DUP2 PUSH2 0x351 JUMP JUMPDEST DUP2 EQ PUSH2 0x375 JUMPI PUSH0 PUSH0 REVERT JUMPDEST POP JUMP JUMPDEST PUSH0 DUP2 MLOAD SWAP1 POP PUSH2 0x386 DUP2 PUSH2 0x362 JUMP JUMPDEST SWAP3 SWAP2 POP POP JUMP JUMPDEST PUSH0 PUSH0 PUSH0 PUSH1 0x60 DUP5 DUP7 SUB SLT ISZERO PUSH2 0x3A3 JUMPI PUSH2 0x3A2 PUSH2 0x1EE JUMP JUMPDEST JUMPDEST PUSH0 DUP5 ADD MLOAD PUSH8 0xFFFFFFFFFFFFFFFF DUP2 GT ISZERO PUSH2 0x3C0 JUMPI PUSH2 0x3BF PUSH2 0x1F2 JUMP JUMPDEST JUMPDEST PUSH2 0x3CC DUP7 DUP3 DUP8 ADD PUSH2 0x305 JUMP JUMPDEST SWAP4 POP POP PUSH1 0x20 DUP5 ADD MLOAD PUSH8 0xFFFFFFFFFFFFFFFF DUP2 GT ISZERO PUSH2 0x3ED JUMPI PUSH2 0x3EC PUSH2 0x1F2 JUMP JUMPDEST JUMPDEST PUSH2 0x3F9 DUP7 DUP3 DUP8 ADD PUSH2 0x305 JUMP JUMPDEST SWAP3 POP POP PUSH1 0x40 PUSH2 0x40A DUP7 DUP3 DUP8 ADD PUSH2 0x378 JUMP JUMPDEST SWAP2 POP POP SWAP3 POP SWAP3 POP SWAP3 JUMP JUMPDEST PUSH0 DUP2 MLOAD SWAP1 POP SWAP2 SWAP1 POP JUMP JUMPDEST PUSH32 0x4E487B7100000000000000000000000000000000000000000000000000000000 PUSH0 MSTORE PUSH1 0x22 PUSH1 0x4 MSTORE PUSH1 0x24 PUSH0 REVERT JUMPDEST PUSH0 PUSH1 0x2 DUP3 DIV SWAP1 POP PUSH1 0x1 DUP3 AND DUP1 PUSH2 0x462 JUMPI PUSH1 0x7F DUP3 AND SWAP2 POP JUMPDEST PUSH1 0x20 DUP3 LT DUP2 SUB PUSH2 0x475 JUMPI PUSH2 0x474 PUSH2 0x41E JUMP JUMPDEST JUMPDEST POP SWAP2 SWAP1 POP JUMP JUMPDEST PUSH0 DUP2 SWAP1 POP DUP2 PUSH0 MSTORE PUSH1 0x20 PUSH0 KECCAK256 SWAP1 POP SWAP2 SWAP1 POP JUMP JUMPDEST PUSH0 PUSH1 0x20 PUSH1 0x1F DUP4 ADD DIV SWAP1 POP SWAP2 SWAP1 POP JUMP JUMPDEST PUSH0 DUP3 DUP3 SHL SWAP1 POP SWAP3 SWAP2 POP POP JUMP JUMPDEST PUSH0 PUSH1 0x8 DUP4 MUL PUSH2 0x4D7 PUSH32 0xFFFFFFFFFFFFFFFFFFFFFFFFFFFFFFFFFFFFFFFFFFFFFFFFFFFFFFFFFFFFFFFF DUP3 PUSH2 0x49C JUMP JUMPDEST PUSH2 0x4E1 DUP7 DUP4 PUSH2 0x49C JUMP JUMPDEST SWAP6 POP DUP1 NOT DUP5 AND SWAP4 POP DUP1 DUP7 AND DUP5 OR SWAP3 POP POP POP SWAP4 SWAP3 POP POP POP JUMP JUMPDEST PUSH0 DUP2 SWAP1 POP SWAP2 SWAP1 POP JUMP JUMPDEST PUSH0 DUP2 SWAP1 POP SWAP2 SWAP1 POP JUMP JUMPDEST PUSH0 PUSH2 0x525 PUSH2 0x520 PUSH2 0x51B DUP5 PUSH2 0x4F9 JUMP JUMPDEST PUSH2 0x502 JUMP JUMPDEST PUSH2 0x4F9 JUMP JUMPDEST SWAP1 POP SWAP2 SWAP1 POP JUMP JUMPDEST PUSH0 DUP2 SWAP1 POP SWAP2 SWAP1 POP JUMP JUMPDEST PUSH2 0x53E DUP4 PUSH2 0x50B JUMP JUMPDEST PUSH2 0x552 PUSH2 0x54A DUP3 PUSH2 0x52C JUMP JUMPDEST DUP5 DUP5 SLOAD PUSH2 0x4A8 JUMP JUMPDEST DUP3 SSTORE POP POP POP POP JUMP JUMPDEST PUSH0 PUSH0 SWAP1 POP SWAP1 JUMP JUMPDEST PUSH2 0x569 PUSH2 0x55A JUMP JUMPDEST PUSH2 0x574 DUP2 DUP5 DUP5 PUSH2 0x535 JUMP JUMPDEST POP POP POP JUMP JUMPDEST JUMPDEST DUP2 DUP2 LT ISZERO PUSH2 0x597 JUMPI PUSH2 0x58C PUSH0 DUP3 PUSH2 0x561 JUMP JUMPDEST PUSH1 0x1 DUP2 ADD SWAP1 POP PUSH2 0x57A JUMP JUMPDEST POP POP JUMP JUMPDEST PUSH1 0x1F DUP3 GT ISZERO PUSH2 0x5DC JUMPI PUSH2 0x5AD DUP2 PUSH2 0x47B JUMP JUMPDEST PUSH2 0x5B6 DUP5 PUSH2 0x48D JUMP JUMPDEST DUP2 ADD PUSH1 0x20 DUP6 LT ISZERO PUSH2 0x5C5 JUMPI DUP2 SWAP1 POP JUMPDEST PUSH2 0x5D9 PUSH2 0x5D1 DUP6 PUSH2 0x48D JUMP JUMPDEST DUP4 ADD DUP3 PUSH2 0x579 JUMP JUMPDEST POP POP JUMPDEST POP POP POP JUMP JUMPDEST PUSH0 DUP3 DUP3 SHR SWAP1 POP SWAP3 SWAP2 POP POP JUMP JUMPDEST PUSH0 PUSH2 0x5FC PUSH0 NOT DUP5 PUSH1 0x8 MUL PUSH2 0x5E1 JUMP JUMPDEST NOT DUP1 DUP4 AND SWAP2 POP POP SWAP3 SWAP2 POP POP JUMP JUMPDEST PUSH0 PUSH2 0x614 DUP4 DUP4 PUSH2 0x5ED JUMP JUMPDEST SWAP2 POP DUP3 PUSH1 0x2 MUL DUP3 OR SWAP1 POP SWAP3 SWAP2 POP POP JUMP JUMPDEST PUSH2 0x62D DUP3 PUSH2 0x414 JUMP JUMPDEST PUSH8 0xFFFFFFFFFFFFFFFF DUP2 GT ISZERO PUSH2 0x646 JUMPI PUSH2 0x645 PUSH2 0x20E JUMP JUMPDEST JUMPDEST PUSH2 0x650 DUP3 SLOAD PUSH2 0x44B JUMP JUMPDEST PUSH2 0x65B DUP3 DUP3 DUP6 PUSH2 0x59B JUMP JUMPDEST PUSH0 PUSH1 0x20 SWAP1 POP PUSH1 0x1F DUP4 GT PUSH1 0x1 DUP2 EQ PUSH2 0x68C JUMPI PUSH0 DUP5 ISZERO PUSH2 0x67A JUMPI DUP3 DUP8 ADD MLOAD SWAP1 POP JUMPDEST PUSH2 0x684 DUP6 DUP3 PUSH2 0x609 JUMP JUMPDEST DUP7 SSTORE POP PUSH2 0x6EB JUMP JUMPDEST PUSH1 0x1F NOT DUP5 AND PUSH2 0x69A DUP7 PUSH2 0x47B JUMP JUMPDEST PUSH0 JUMPDEST DUP3 DUP2 LT ISZERO PUSH2 0x6C1 JUMPI DUP5 DUP10 ADD MLOAD DUP3 SSTORE PUSH1 0x1 DUP3 ADD SWAP2 POP PUSH1 0x20 DUP6 ADD SWAP5 POP PUSH1 0x20 DUP2 ADD SWAP1 POP PUSH2 0x69C JUMP JUMPDEST DUP7 DUP4 LT ISZERO PUSH2 0x6DE JUMPI DUP5 DUP10 ADD MLOAD PUSH2 0x6DA PUSH1 0x1F DUP10 AND DUP3 PUSH2 0x5ED JUMP JUMPDEST DUP4 SSTORE POP JUMPDEST PUSH1 0x1 PUSH1 0x2 DUP9 MUL ADD DUP9 SSTORE POP POP POP JUMPDEST POP POP POP POP POP POP JUMP JUMPDEST PUSH2 0x6FC DUP2 PUSH2 0x351 JUMP JUMPDEST DUP3 MSTORE POP POP JUMP JUMPDEST PUSH0 PUSH1 0x20 DUP3 ADD SWAP1 POP PUSH2 0x715 PUSH0 DUP4 ADD DUP5 PUSH2 0x6F3 JUMP JUMPDEST SWAP3 SWAP2 POP POP JUMP JUMPDEST PUSH2 0x2FE4 DUP1 PUSH2 0x728 PUSH0 CODECOPY PUSH0 RETURN INVALID PUSH1 0x80 PUSH1 0x40 MSTORE CALLVALUE DUP1 ISZERO PUSH2 0xF JUMPI PUSH0 PUSH0 REVERT JUMPDEST POP PUSH1 0x4 CALLDATASIZE LT PUSH2 0x156 JUMPI PUSH0 CALLDATALOAD PUSH1 0xE0 SHR DUP1 PUSH4 0x55F804B3 GT PUSH2 0xC1 JUMPI DUP1 PUSH4 0xA22CB465 GT PUSH2 0x7A JUMPI DUP1 PUSH4 0xA22CB465 EQ PUSH2 0x3D5 JUMPI DUP1 PUSH4 0xAA1B103F EQ PUSH2 0x3F1 JUMPI DUP1 PUSH4 0xB88D4FDE EQ PUSH2 0x3FB JUMPI DUP1 PUSH4 0xC87B56DD EQ PUSH2 0x417 JUMPI DUP1 PUSH4 0xE985E9C5 EQ PUSH2 0x447 JUMPI DUP1 PUSH4 0xF2FDE38B EQ PUSH2 0x477 JUMPI PUSH2 0x156 JUMP JUMPDEST DUP1 PUSH4 0x55F804B3 EQ PUSH2 0x313 JUMPI DUP1 PUSH4 0x6352211E EQ PUSH2 0x32F JUMPI DUP1 PUSH4 0x70A08231 EQ PUSH2 0x35F JUMPI DUP1 PUSH4 0x715018A6 EQ PUSH2 0x38F JUMPI DUP1 PUSH4 0x8DA5CB5B EQ PUSH2 0x399 JUMPI DUP1 PUSH4 0x95D89B41 EQ PUSH2 0x3B7 JUMPI PUSH2 0x156 JUMP JUMPDEST DUP1 PUSH4 0x23B872DD GT PUSH2 0x113 JUMPI DUP1 PUSH4 0x23B872DD EQ PUSH2 0x22E JUMPI DUP1 PUSH4 0x2A55205A EQ PUSH2 0x24A JUMPI DUP1 PUSH4 0x2F745C59 EQ PUSH2 0x27B JUMPI DUP1 PUSH4 0x40D097C3 EQ PUSH2 0x2AB JUMPI DUP1 PUSH4 0x42842E0E EQ PUSH2 0x2C7 JUMPI DUP1 PUSH4 0x4F6CCCE7 EQ PUSH2 0x2E3 JUMPI PUSH2 0x156 JUMP JUMPDEST DUP1 PUSH4 0x1FFC9A7 EQ PUSH2 0x15A JUMPI DUP1 PUSH4 0x4634D8D EQ PUSH2 0x18A JUMPI DUP1 PUSH4 0x6FDDE03 EQ PUSH2 0x1A6 JUMPI DUP1 PUSH4 0x81812FC EQ PUSH2 0x1C4 JUMPI DUP1 PUSH4 0x95EA7B3 EQ PUSH2 0x1F4 JUMPI DUP1 PUSH4 0x18160DDD EQ PUSH2 0x210 JUMPI JUMPDEST PUSH0 PUSH0 REVERT JUMPDEST PUSH2 0x174 PUSH1 0x4 DUP1 CALLDATASIZE SUB DUP2 ADD SWAP1 PUSH2 0x16F SWAP2 SWAP1 PUSH2 0x2252 JUMP JUMPDEST PUSH2 0x493 JUMP JUMPDEST PUSH1 0x40 MLOAD PUSH2 0x181 SWAP2 SWAP1 PUSH2 0x2297 JUMP JUMPDEST PUSH1 0x40 MLOAD DUP1 SWAP2 SUB SWAP1 RETURN JUMPDEST PUSH2 0x1A4 PUSH1 0x4 DUP1 CALLDATASIZE SUB DUP2 ADD SWAP1 PUSH2 0x19F SWAP2 SWAP1 PUSH2 0x234B JUMP JUMPDEST PUSH2 0x4A4 JUMP JUMPDEST STOP JUMPDEST PUSH2 0x1AE PUSH2 0x4BA JUMP JUMPDEST PUSH1 0x40 MLOAD PUSH2 0x1BB SWAP2 SWAP1 PUSH2 0x23F9 JUMP JUMPDEST PUSH1 0x40 MLOAD DUP1 SWAP2 SUB SWAP1 RETURN JUMPDEST PUSH2 0x1DE PUSH1 0x4 DUP1 CALLDATASIZE SUB DUP2 ADD SWAP1 PUSH2 0x1D9 SWAP2 SWAP1 PUSH2 0x244C JUMP JUMPDEST PUSH2 0x549 JUMP JUMPDEST PUSH1 0x40 MLOAD PUSH2 0x1EB SWAP2 SWAP1 PUSH2 0x2486 JUMP JUMPDEST PUSH1 0x40 MLOAD DUP1 SWAP2 SUB SWAP1 RETURN JUMPDEST PUSH2 0x20E PUSH1 0x4 DUP1 CALLDATASIZE SUB DUP2 ADD SWAP1 PUSH2 0x209 SWAP2 SWAP1 PUSH2 0x249F JUMP JUMPDEST PUSH2 0x564 JUMP JUMPDEST STOP JUMPDEST PUSH2 0x218 PUSH2 0x57A JUMP JUMPDEST PUSH1 0x40 MLOAD PUSH2 0x225 SWAP2 SWAP1 PUSH2 0x24EC JUMP JUMPDEST PUSH1 0x40 MLOAD DUP1 SWAP2 SUB SWAP1 RETURN JUMPDEST PUSH2 0x248 PUSH1 0x4 DUP1 CALLDATASIZE SUB DUP2 ADD SWAP1 PUSH2 0x243 SWAP2 SWAP1 PUSH2 0x2505 JUMP JUMPDEST PUSH2 0x586 JUMP JUMPDEST STOP JUMPDEST PUSH2 0x264 PUSH1 0x4 DUP1 CALLDATASIZE SUB DUP2 ADD SWAP1 PUSH2 0x25F SWAP2 SWAP1 PUSH2 0x2555 JUMP JUMPDEST PUSH2 0x685 JUMP JUMPDEST PUSH1 0x40 MLOAD PUSH2 0x272 SWAP3 SWAP2 SWAP1 PUSH2 0x2593 JUMP JUMPDEST PUSH1 0x40 MLOAD DUP1 SWAP2 SUB SWAP1 RETURN JUMPDEST PUSH2 0x295 PUSH1 0x4 DUP1 CALLDATASIZE SUB DUP2 ADD SWAP1 PUSH2 0x290 SWAP2 SWAP1 PUSH2 0x249F JUMP JUMPDEST PUSH2 0x7A7 JUMP JUMPDEST PUSH1 0x40 MLOAD PUSH2 0x2A2 SWAP2 SWAP1 PUSH2 0x24EC JUMP JUMPDEST PUSH1 0x40 MLOAD DUP1 SWAP2 SUB SWAP1 RETURN JUMPDEST PUSH2 0x2C5 PUSH1 0x4 DUP1 CALLDATASIZE SUB DUP2 ADD SWAP1 PUSH2 0x2C0 SWAP2 SWAP1 PUSH2 0x25BA JUMP JUMPDEST PUSH2 0x84B JUMP JUMPDEST STOP JUMPDEST PUSH2 0x2E1 PUSH1 0x4 DUP1 CALLDATASIZE SUB DUP2 ADD SWAP1 PUSH2 0x2DC SWAP2 SWAP1 PUSH2 0x2505 JUMP JUMPDEST PUSH2 0x87A JUMP JUMPDEST STOP JUMPDEST PUSH2 0x2FD PUSH1 0x4 DUP1 CALLDATASIZE SUB DUP2 ADD SWAP1 PUSH2 0x2F8 SWAP2 SWAP1 PUSH2 0x244C JUMP JUMPDEST PUSH2 0x899 JUMP JUMPDEST PUSH1 0x40 MLOAD PUSH2 0x30A SWAP2 SWAP1 PUSH2 0x24EC JUMP JUMPDEST PUSH1 0x40 MLOAD DUP1 SWAP2 SUB SWAP1 RETURN JUMPDEST PUSH2 0x32D PUSH1 0x4 DUP1 CALLDATASIZE SUB DUP2 ADD SWAP1 PUSH2 0x328 SWAP2 SWAP1 PUSH2 0x2711 JUMP JUMPDEST PUSH2 0x90B JUMP JUMPDEST STOP JUMPDEST PUSH2 0x349 PUSH1 0x4 DUP1 CALLDATASIZE SUB DUP2 ADD SWAP1 PUSH2 0x344 SWAP2 SWAP1 PUSH2 0x244C JUMP JUMPDEST PUSH2 0x926 JUMP JUMPDEST PUSH1 0x40 MLOAD PUSH2 0x356 SWAP2 SWAP1 PUSH2 0x2486 JUMP JUMPDEST PUSH1 0x40 MLOAD DUP1 SWAP2 SUB SWAP1 RETURN JUMPDEST PUSH2 0x379 PUSH1 0x4 DUP1 CALLDATASIZE SUB DUP2 ADD SWAP1 PUSH2 0x374 SWAP2 SWAP1 PUSH2 0x25BA JUMP JUMPDEST PUSH2 0x937 JUMP JUMPDEST PUSH1 0x40 MLOAD PUSH2 0x386 SWAP2 SWAP1 PUSH2 0x24EC JUMP JUMPDEST PUSH1 0x40 MLOAD DUP1 SWAP2 SUB SWAP1 RETURN JUMPDEST PUSH2 0x397 PUSH2 0x9ED JUMP JUMPDEST STOP JUMPDEST PUSH2 0x3A1 PUSH2 0xA00 JUMP JUMPDEST PUSH1 0x40 MLOAD PUSH2 0x3AE SWAP2 SWAP1 PUSH2 0x2486 JUMP JUMPDEST PUSH1 0x40 MLOAD DUP1 SWAP2 SUB SWAP1 RETURN JUMPDEST PUSH2 0x3BF PUSH2 0xA28 JUMP JUMPDEST PUSH1 0x40 MLOAD PUSH2 0x3CC SWAP2 SWAP1 PUSH2 0x23F9 JUMP JUMPDEST PUSH1 0x40 MLOAD DUP1 SWAP2 SUB SWAP1 RETURN JUMPDEST PUSH2 0x3EF PUSH1 0x4 DUP1 CALLDATASIZE SUB DUP2 ADD SWAP1 PUSH2 0x3EA SWAP2 SWAP1 PUSH2 0x2782 JUMP JUMPDEST PUSH2 0xAB8 JUMP JUMPDEST STOP JUMPDEST PUSH2 0x3F9 PUSH2 0xACE JUMP JUMPDEST STOP JUMPDEST PUSH2 0x415 PUSH1 0x4 DUP1 CALLDATASIZE SUB DUP2 ADD SWAP1 PUSH2 0x410 SWAP2 SWAP1 PUSH2 0x285E JUMP JUMPDEST PUSH2 0xAE0 JUMP JUMPDEST STOP JUMPDEST PUSH2 0x431 PUSH1 0x4 DUP1 CALLDATASIZE SUB DUP2 ADD SWAP1 PUSH2 0x42C SWAP2 SWAP1 PUSH2 0x244C JUMP JUMPDEST PUSH2 0xB05 JUMP JUMPDEST PUSH1 0x40 MLOAD PUSH2 0x43E SWAP2 SWAP1 PUSH2 0x23F9 JUMP JUMPDEST PUSH1 0x40 MLOAD DUP1 SWAP2 SUB SWAP1 RETURN JUMPDEST PUSH2 0x461 PUSH1 0x4 DUP1 CALLDATASIZE SUB DUP2 ADD SWAP1 PUSH2 0x45C SWAP2 SWAP1 PUSH2 0x28DE JUMP JUMPDEST PUSH2 0xB49 JUMP JUMPDEST PUSH1 0x40 MLOAD PUSH2 0x46E SWAP2 SWAP1 PUSH2 0x2297 JUMP JUMPDEST PUSH1 0x40 MLOAD DUP1 SWAP2 SUB SWAP1 RETURN JUMPDEST PUSH2 0x491 PUSH1 0x4 DUP1 CALLDATASIZE SUB DUP2 ADD SWAP1 PUSH2 0x48C SWAP2 SWAP1 PUSH2 0x25BA JUMP JUMPDEST PUSH2 0xBD7 JUMP JUMPDEST STOP JUMPDEST PUSH0 PUSH2 0x49D DUP3 PUSH2 0xC5B JUMP JUMPDEST SWAP1 POP SWAP2 SWAP1 POP JUMP JUMPDEST PUSH2 0x4AC PUSH2 0xCD4 JUMP JUMPDEST PUSH2 0x4B6 DUP3 DUP3 PUSH2 0xD5B JUMP JUMPDEST POP POP JUMP JUMPDEST PUSH1 0x60 PUSH0 DUP1 SLOAD PUSH2 0x4C8 SWAP1 PUSH2 0x2949 JUMP JUMPDEST DUP1 PUSH1 0x1F ADD PUSH1 0x20 DUP1 SWAP2 DIV MUL PUSH1 0x20 ADD PUSH1 0x40 MLOAD SWAP1 DUP2 ADD PUSH1 0x40 MSTORE DUP1 SWAP3 SWAP2 SWAP1 DUP2 DUP2 MSTORE PUSH1 0x20 ADD DUP3 DUP1 SLOAD PUSH2 0x4F4 SWAP1 PUSH2 0x2949 JUMP JUMPDEST DUP1 ISZERO PUSH2 0x53F JUMPI DUP1 PUSH1 0x1F LT PUSH2 0x516 JUMPI PUSH2 0x100 DUP1 DUP4 SLOAD DIV MUL DUP4 MSTORE SWAP2 PUSH1 0x20 ADD SWAP2 PUSH2 0x53F JUMP JUMPDEST DUP3 ADD SWAP2 SWAP1 PUSH0 MSTORE PUSH1 0x20 PUSH0 KECCAK256 SWAP1 JUMPDEST DUP2 SLOAD DUP2 MSTORE SWAP1 PUSH1 0x1 ADD SWAP1 PUSH1 0x20 ADD DUP1 DUP4 GT PUSH2 0x522 JUMPI DUP3 SWAP1 SUB PUSH1 0x1F AND DUP3 ADD SWAP2 JUMPDEST POP POP POP POP POP SWAP1 POP SWAP1 JUMP JUMPDEST PUSH0 PUSH2 0x553 DUP3 PUSH2 0xEF6 JUMP JUMPDEST POP PUSH2 0x55D DUP3 PUSH2 0xF7C JUMP JUMPDEST SWAP1 POP SWAP2 SWAP1 POP JUMP JUMPDEST PUSH2 0x576 DUP3 DUP3 PUSH2 0x571 PUSH2 0xFB5 JUMP JUMPDEST PUSH2 0xFBC JUMP JUMPDEST POP POP JUMP JUMPDEST PUSH0 PUSH1 0x8 DUP1 SLOAD SWAP1 POP SWAP1 POP SWAP1 JUMP JUMPDEST PUSH0 PUSH20 0xFFFFFFFFFFFFFFFFFFFFFFFFFFFFFFFFFFFFFFFF AND DUP3 PUSH20 0xFFFFFFFFFFFFFFFFFFFFFFFFFFFFFFFFFFFFFFFF AND SUB PUSH2 0x5F6 JUMPI PUSH0 PUSH1 0x40 MLOAD PUSH32 0x64A0AE9200000000000000000000000000000000000000000000000000000000 DUP2 MSTORE PUSH1 0x4 ADD PUSH2 0x5ED SWAP2 SWAP1 PUSH2 0x2486 JUMP JUMPDEST PUSH1 0x40 MLOAD DUP1 SWAP2 SUB SWAP1 REVERT JUMPDEST PUSH0 PUSH2 0x609 DUP4 DUP4 PUSH2 0x604 PUSH2 0xFB5 JUMP JUMPDEST PUSH2 0xFCE JUMP JUMPDEST SWAP1 POP DUP4 PUSH20 0xFFFFFFFFFFFFFFFFFFFFFFFFFFFFFFFFFFFFFFFF AND DUP2 PUSH20 0xFFFFFFFFFFFFFFFFFFFFFFFFFFFFFFFFFFFFFFFF AND EQ PUSH2 0x67F JUMPI DUP4 DUP3 DUP3 PUSH1 0x40 MLOAD PUSH32 0x64283D7B00000000000000000000000000000000000000000000000000000000 DUP2 MSTORE PUSH1 0x4 ADD PUSH2 0x676 SWAP4 SWAP3 SWAP2 SWAP1 PUSH2 0x2979 JUMP JUMPDEST PUSH1 0x40 MLOAD DUP1 SWAP2 SUB SWAP1 REVERT JUMPDEST POP POP POP POP JUMP JUMPDEST PUSH0 PUSH0 PUSH0 PUSH1 0xB PUSH0 DUP7 DUP2 MSTORE PUSH1 0x20 ADD SWAP1 DUP2 MSTORE PUSH1 0x20 ADD PUSH0 KECCAK256 SWAP1 POP PUSH0 DUP2 PUSH0 ADD PUSH0 SWAP1 SLOAD SWAP1 PUSH2 0x100 EXP SWAP1 DIV PUSH20 0xFFFFFFFFFFFFFFFFFFFFFFFFFFFFFFFFFFFFFFFF AND SWAP1 POP PUSH0 DUP3 PUSH0 ADD PUSH1 0x14 SWAP1 SLOAD SWAP1 PUSH2 0x100 EXP SWAP1 DIV PUSH12 0xFFFFFFFFFFFFFFFFFFFFFFFF AND SWAP1 POP PUSH0 PUSH20 0xFFFFFFFFFFFFFFFFFFFFFFFFFFFFFFFFFFFFFFFF AND DUP3 PUSH20 0xFFFFFFFFFFFFFFFFFFFFFFFFFFFFFFFFFFFFFFFF AND SUB PUSH2 0x759 JUMPI PUSH1 0xA PUSH0 ADD PUSH0 SWAP1 SLOAD SWAP1 PUSH2 0x100 EXP SWAP1 DIV PUSH20 0xFFFFFFFFFFFFFFFFFFFFFFFFFFFFFFFFFFFFFFFF AND SWAP2 POP PUSH1 0xA PUSH0 ADD PUSH1 0x14 SWAP1 SLOAD SWAP1 PUSH2 0x100 EXP SWAP1 DIV PUSH12 0xFFFFFFFFFFFFFFFFFFFFFFFF AND SWAP1 POP JUMPDEST PUSH0 PUSH2 0x762 PUSH2 0xFE3 JUMP JUMPDEST PUSH12 0xFFFFFFFFFFFFFFFFFFFFFFFF AND DUP3 PUSH12 0xFFFFFFFFFFFFFFFFFFFFFFFF AND DUP9 PUSH2 0x78A SWAP2 SWAP1 PUSH2 0x29DB JUMP JUMPDEST PUSH2 0x794 SWAP2 SWAP1 PUSH2 0x2A49 JUMP JUMPDEST SWAP1 POP DUP3 DUP2 SWAP6 POP SWAP6 POP POP POP POP POP SWAP3 POP SWAP3 SWAP1 POP JUMP JUMPDEST PUSH0 PUSH2 0x7B1 DUP4 PUSH2 0x937 JUMP JUMPDEST DUP3 LT PUSH2 0x7F6 JUMPI DUP3 DUP3 PUSH1 0x40 MLOAD PUSH32 0xA57D13DC00000000000000000000000000000000000000000000000000000000 DUP2 MSTORE PUSH1 0x4 ADD PUSH2 0x7ED SWAP3 SWAP2 SWAP1 PUSH2 0x2593 JUMP JUMPDEST PUSH1 0x40 MLOAD DUP1 SWAP2 SUB SWAP1 REVERT JUMPDEST PUSH1 0x6 PUSH0 DUP5 PUSH20 0xFFFFFFFFFFFFFFFFFFFFFFFFFFFFFFFFFFFFFFFF AND PUSH20 0xFFFFFFFFFFFFFFFFFFFFFFFFFFFFFFFFFFFFFFFF AND DUP2 MSTORE PUSH1 0x20 ADD SWAP1 DUP2 MSTORE PUSH1 0x20 ADD PUSH0 KECCAK256 PUSH0 DUP4 DUP2 MSTORE PUSH1 0x20 ADD SWAP1 DUP2 MSTORE PUSH1 0x20 ADD PUSH0 KECCAK256 SLOAD SWAP1 POP SWAP3 SWAP2 POP POP JUMP JUMPDEST PUSH2 0x853 PUSH2 0xCD4 JUMP JUMPDEST PUSH0 PUSH1 0xD PUSH0 DUP2 SLOAD DUP1 SWAP3 SWAP2 SWAP1 PUSH2 0x866 SWAP1 PUSH2 0x2A79 JUMP JUMPDEST SWAP2 SWAP1 POP SSTORE SWAP1 POP PUSH2 0x876 DUP3 DUP3 PUSH2 0xFEC JUMP JUMPDEST POP POP JUMP JUMPDEST PUSH2 0x894 DUP4 DUP4 DUP4 PUSH1 0x40 MLOAD DUP1 PUSH1 0x20 ADD PUSH1 0x40 MSTORE DUP1 PUSH0 DUP2 MSTORE POP PUSH2 0xAE0 JUMP JUMPDEST POP POP POP JUMP JUMPDEST PUSH0 PUSH2 0x8A2 PUSH2 0x57A JUMP JUMPDEST DUP3 LT PUSH2 0x8E7 JUMPI PUSH0 DUP3 PUSH1 0x40 MLOAD PUSH32 0xA57D13DC00000000000000000000000000000000000000000000000000000000 DUP2 MSTORE PUSH1 0x4 ADD PUSH2 0x8DE SWAP3 SWAP2 SWAP1 PUSH2 0x2593 JUMP JUMPDEST PUSH1 0x40 MLOAD DUP1 SWAP2 SUB SWAP1 REVERT JUMPDEST PUSH1 0x8 DUP3 DUP2 SLOAD DUP2 LT PUSH2 0x8FB JUMPI PUSH2 0x8FA PUSH2 0x2AC0 JUMP JUMPDEST JUMPDEST SWAP1 PUSH0 MSTORE PUSH1 0x20 PUSH0 KECCAK256 ADD SLOAD SWAP1 POP SWAP2 SWAP1 POP JUMP JUMPDEST PUSH2 0x913 PUSH2 0xCD4 JUMP JUMPDEST DUP1 PUSH1 0xE SWAP1 DUP2 PUSH2 0x922 SWAP2 SWAP1 PUSH2 0x2C8D JUMP JUMPDEST POP POP JUMP JUMPDEST PUSH0 PUSH2 0x930 DUP3 PUSH2 0xEF6 JUMP JUMPDEST SWAP1 POP SWAP2 SWAP1 POP JUMP JUMPDEST PUSH0 PUSH0 PUSH20 0xFFFFFFFFFFFFFFFFFFFFFFFFFFFFFFFFFFFFFFFF AND DUP3 PUSH20 0xFFFFFFFFFFFFFFFFFFFFFFFFFFFFFFFFFFFFFFFF AND SUB PUSH2 0x9A8 JUMPI PUSH0 PUSH1 0x40 MLOAD PUSH32 0x89C62B6400000000000000000000000000000000000000000000000000000000 DUP2 MSTORE PUSH1 0x4 ADD PUSH2 0x99F SWAP2 SWAP1 PUSH2 0x2486 JUMP JUMPDEST PUSH1 0x40 MLOAD DUP1 SWAP2 SUB SWAP1 REVERT JUMPDEST PUSH1 0x3 PUSH0 DUP4 PUSH20 0xFFFFFFFFFFFFFFFFFFFFFFFFFFFFFFFFFFFFFFFF AND PUSH20 0xFFFFFFFFFFFFFFFFFFFFFFFFFFFFFFFFFFFFFFFF AND DUP2 MSTORE PUSH1 0x20 ADD SWAP1 DUP2 MSTORE PUSH1 0x20 ADD PUSH0 KECCAK256 SLOAD SWAP1 POP SWAP2 SWAP1 POP JUMP JUMPDEST PUSH2 0x9F5 PUSH2 0xCD4 JUMP JUMPDEST PUSH2 0x9FE PUSH0 PUSH2 0x1009 JUMP JUMPDEST JUMP JUMPDEST PUSH0 PUSH1 0xC PUSH0 SWAP1 SLOAD SWAP1 PUSH2 0x100 EXP SWAP1 DIV PUSH20 0xFFFFFFFFFFFFFFFFFFFFFFFFFFFFFFFFFFFFFFFF AND SWAP1 POP SWAP1 JUMP JUMPDEST PUSH1 0x60 PUSH1 0x1 DUP1 SLOAD PUSH2 0xA37 SWAP1 PUSH2 0x2949 JUMP JUMPDEST DUP1 PUSH1 0x1F ADD PUSH1 0x20 DUP1 SWAP2 DIV MUL PUSH1 0x20 ADD PUSH1 0x40 MLOAD SWAP1 DUP2 ADD PUSH1 0x40 MSTORE DUP1 SWAP3 SWAP2 SWAP1 DUP2 DUP2 MSTORE PUSH1 0x20 ADD DUP3 DUP1 SLOAD PUSH2 0xA63 SWAP1 PUSH2 0x2949 JUMP JUMPDEST DUP1 ISZERO PUSH2 0xAAE JUMPI DUP1 PUSH1 0x1F LT PUSH2 0xA85 JUMPI PUSH2 0x100 DUP1 DUP4 SLOAD DIV MUL DUP4 MSTORE SWAP2 PUSH1 0x20 ADD SWAP2 PUSH2 0xAAE JUMP JUMPDEST DUP3 ADD SWAP2 SWAP1 PUSH0 MSTORE PUSH1 0x20 PUSH0 KECCAK256 SWAP1 JUMPDEST DUP2 SLOAD DUP2 MSTORE SWAP1 PUSH1 0x1 ADD SWAP1 PUSH1 0x20 ADD DUP1 DUP4 GT PUSH2 0xA91 JUMPI DUP3 SWAP1 SUB PUSH1 0x1F AND DUP3 ADD SWAP2 JUMPDEST POP POP POP POP POP SWAP1 POP SWAP1 JUMP JUMPDEST PUSH2 0xACA PUSH2 0xAC3 PUSH2 0xFB5 JUMP JUMPDEST DUP4 DUP4 PUSH2 0x10CC JUMP JUMPDEST POP POP JUMP JUMPDEST PUSH2 0xAD6 PUSH2 0xCD4 JUMP JUMPDEST PUSH2 0xADE PUSH2 0x1235 JUMP JUMPDEST JUMP JUMPDEST PUSH2 0xAEB DUP5 DUP5 DUP5 PUSH2 0x586 JUMP JUMPDEST PUSH2 0xAFF PUSH2 0xAF6 PUSH2 0xFB5 JUMP JUMPDEST DUP6 DUP6 DUP6 DUP6 PUSH2 0x127F JUMP JUMPDEST POP POP POP POP JUMP JUMPDEST PUSH1 0x60 PUSH2 0xB10 DUP3 PUSH2 0xEF6 JUMP JUMPDEST POP PUSH2 0xB19 PUSH2 0x142B JUMP JUMPDEST PUSH2 0xB22 DUP4 PUSH2 0x14BB JUMP JUMPDEST PUSH1 0x40 MLOAD PUSH1 0x20 ADD PUSH2 0xB33 SWAP3 SWAP2 SWAP1 PUSH2 0x2D96 JUMP JUMPDEST PUSH1 0x40 MLOAD PUSH1 0x20 DUP2 DUP4 SUB SUB DUP2 MSTORE SWAP1 PUSH1 0x40 MSTORE SWAP1 POP SWAP2 SWAP1 POP JUMP JUMPDEST PUSH0 PUSH1 0x5 PUSH0 DUP5 PUSH20 0xFFFFFFFFFFFFFFFFFFFFFFFFFFFFFFFFFFFFFFFF AND PUSH20 0xFFFFFFFFFFFFFFFFFFFFFFFFFFFFFFFFFFFFFFFF AND DUP2 MSTORE PUSH1 0x20 ADD SWAP1 DUP2 MSTORE PUSH1 0x20 ADD PUSH0 KECCAK256 PUSH0 DUP4 PUSH20 0xFFFFFFFFFFFFFFFFFFFFFFFFFFFFFFFFFFFFFFFF AND PUSH20 0xFFFFFFFFFFFFFFFFFFFFFFFFFFFFFFFFFFFFFFFF AND DUP2 MSTORE PUSH1 0x20 ADD SWAP1 DUP2 MSTORE PUSH1 0x20 ADD PUSH0 KECCAK256 PUSH0 SWAP1 SLOAD SWAP1 PUSH2 0x100 EXP SWAP1 DIV PUSH1 0xFF AND SWAP1 POP SWAP3 SWAP2 POP POP JUMP JUMPDEST PUSH2 0xBDF PUSH2 0xCD4 JUMP JUMPDEST PUSH0 PUSH20 0xFFFFFFFFFFFFFFFFFFFFFFFFFFFFFFFFFFFFFFFF AND DUP2 PUSH20 0xFFFFFFFFFFFFFFFFFFFFFFFFFFFFFFFFFFFFFFFF AND SUB PUSH2 0xC4F JUMPI PUSH0 PUSH1 0x40 MLOAD PUSH32 0x1E4FBDF700000000000000000000000000000000000000000000000000000000 DUP2 MSTORE PUSH1 0x4 ADD PUSH2 0xC46 SWAP2 SWAP1 PUSH2 0x2486 JUMP JUMPDEST PUSH1 0x40 MLOAD DUP1 SWAP2 SUB SWAP1 REVERT JUMPDEST PUSH2 0xC58 DUP2 PUSH2 0x1009 JUMP JUMPDEST POP JUMP JUMPDEST PUSH0 PUSH32 0x2A55205A00000000000000000000000000000000000000000000000000000000 PUSH28 0xFFFFFFFFFFFFFFFFFFFFFFFFFFFFFFFFFFFFFFFFFFFFFFFFFFFFFFFF NOT AND DUP3 PUSH28 0xFFFFFFFFFFFFFFFFFFFFFFFFFFFFFFFFFFFFFFFFFFFFFFFFFFFFFFFF NOT AND EQ DUP1 PUSH2 0xCCD JUMPI POP PUSH2 0xCCC DUP3 PUSH2 0x1614 JUMP JUMPDEST JUMPDEST SWAP1 POP SWAP2 SWAP1 POP JUMP JUMPDEST PUSH2 0xCDC PUSH2 0xFB5 JUMP JUMPDEST PUSH20 0xFFFFFFFFFFFFFFFFFFFFFFFFFFFFFFFFFFFFFFFF AND PUSH2 0xCFA PUSH2 0xA00 JUMP JUMPDEST PUSH20 0xFFFFFFFFFFFFFFFFFFFFFFFFFFFFFFFFFFFFFFFF AND EQ PUSH2 0xD59 JUMPI PUSH2 0xD1D PUSH2 0xFB5 JUMP JUMPDEST PUSH1 0x40 MLOAD PUSH32 0x118CDAA700000000000000000000000000000000000000000000000000000000 DUP2 MSTORE PUSH1 0x4 ADD PUSH2 0xD50 SWAP2 SWAP1 PUSH2 0x2486 JUMP JUMPDEST PUSH1 0x40 MLOAD DUP1 SWAP2 SUB SWAP1 REVERT JUMPDEST JUMP JUMPDEST PUSH0 PUSH2 0xD64 PUSH2 0xFE3 JUMP JUMPDEST PUSH12 0xFFFFFFFFFFFFFFFFFFFFFFFF AND SWAP1 POP DUP1 DUP3 PUSH12 0xFFFFFFFFFFFFFFFFFFFFFFFF AND GT ISZERO PUSH2 0xDC9 JUMPI DUP2 DUP2 PUSH1 0x40 MLOAD PUSH32 0x6F483D0900000000000000000000000000000000000000000000000000000000 DUP2 MSTORE PUSH1 0x4 ADD PUSH2 0xDC0 SWAP3 SWAP2 SWAP1 PUSH2 0x2DE9 JUMP JUMPDEST PUSH1 0x40 MLOAD DUP1 SWAP2 SUB SWAP1 REVERT JUMPDEST PUSH0 PUSH20 0xFFFFFFFFFFFFFFFFFFFFFFFFFFFFFFFFFFFFFFFF AND DUP4 PUSH20 0xFFFFFFFFFFFFFFFFFFFFFFFFFFFFFFFFFFFFFFFF AND SUB PUSH2 0xE39 JUMPI PUSH0 PUSH1 0x40 MLOAD PUSH32 0xB6D9900A00000000000000000000000000000000000000000000000000000000 DUP2 MSTORE PUSH1 0x4 ADD PUSH2 0xE30 SWAP2 SWAP1 PUSH2 0x2486 JUMP JUMPDEST PUSH1 0x40 MLOAD DUP1 SWAP2 SUB SWAP1 REVERT JUMPDEST PUSH1 0x40 MLOAD DUP1 PUSH1 0x40 ADD PUSH1 0x40 MSTORE DUP1 DUP5 PUSH20 0xFFFFFFFFFFFFFFFFFFFFFFFFFFFFFFFFFFFFFFFF AND DUP2 MSTORE PUSH1 0x20 ADD DUP4 PUSH12 0xFFFFFFFFFFFFFFFFFFFFFFFF AND DUP2 MSTORE POP PUSH1 0xA PUSH0 DUP3 ADD MLOAD DUP2 PUSH0 ADD PUSH0 PUSH2 0x100 EXP DUP2 SLOAD DUP2 PUSH20 0xFFFFFFFFFFFFFFFFFFFFFFFFFFFFFFFFFFFFFFFF MUL NOT AND SWAP1 DUP4 PUSH20 0xFFFFFFFFFFFFFFFFFFFFFFFFFFFFFFFFFFFFFFFF AND MUL OR SWAP1 SSTORE POP PUSH1 0x20 DUP3 ADD MLOAD DUP2 PUSH0 ADD PUSH1 0x14 PUSH2 0x100 EXP DUP2 SLOAD DUP2 PUSH12 0xFFFFFFFFFFFFFFFFFFFFFFFF MUL NOT AND SWAP1 DUP4 PUSH12 0xFFFFFFFFFFFFFFFFFFFFFFFF AND MUL OR SWAP1 SSTORE POP SWAP1 POP POP POP POP POP JUMP JUMPDEST PUSH0 PUSH0 PUSH2 0xF01 DUP4 PUSH2 0x168D JUMP JUMPDEST SWAP1 POP PUSH0 PUSH20 0xFFFFFFFFFFFFFFFFFFFFFFFFFFFFFFFFFFFFFFFF AND DUP2 PUSH20 0xFFFFFFFFFFFFFFFFFFFFFFFFFFFFFFFFFFFFFFFF AND SUB PUSH2 0xF73 JUMPI DUP3 PUSH1 0x40 MLOAD PUSH32 0x7E27328900000000000000000000000000000000000000000000000000000000 DUP2 MSTORE PUSH1 0x4 ADD PUSH2 0xF6A SWAP2 SWAP1 PUSH2 0x24EC JUMP JUMPDEST PUSH1 0x40 MLOAD DUP1 SWAP2 SUB SWAP1 REVERT JUMPDEST DUP1 SWAP2 POP POP SWAP2 SWAP1 POP JUMP JUMPDEST PUSH0 PUSH1 0x4 PUSH0 DUP4 DUP2 MSTORE PUSH1 0x20 ADD SWAP1 DUP2 MSTORE PUSH1 0x20 ADD PUSH0 KECCAK256 PUSH0 SWAP1 SLOAD SWAP1 PUSH2 0x100 EXP SWAP1 DIV PUSH20 0xFFFFFFFFFFFFFFFFFFFFFFFFFFFFFFFFFFFFFFFF AND SWAP1 POP SWAP2 SWAP1 POP JUMP JUMPDEST PUSH0 CALLER SWAP1 POP SWAP1 JUMP JUMPDEST PUSH2 0xFC9 DUP4 DUP4 DUP4 PUSH1 0x1 PUSH2 0x16C6 JUMP JUMPDEST POP POP POP JUMP JUMPDEST PUSH0 PUSH2 0xFDA DUP5 DUP5 DUP5 PUSH2 0x1885 JUMP JUMPDEST SWAP1 POP SWAP4 SWAP3 POP POP POP JUMP JUMPDEST PUSH0 PUSH2 0x2710 SWAP1 POP SWAP1 JUMP JUMPDEST PUSH2 0x1005 DUP3 DUP3 PUSH1 0x40 MLOAD DUP1 PUSH1 0x20 ADD PUSH1 0x40 MSTORE DUP1 PUSH0 DUP2 MSTORE POP PUSH2 0x199F JUMP JUMPDEST POP POP JUMP JUMPDEST PUSH0 PUSH1 0xC PUSH0 SWAP1 SLOAD SWAP1 PUSH2 0x100 EXP SWAP1 DIV PUSH20 0xFFFFFFFFFFFFFFFFFFFFFFFFFFFFFFFFFFFFFFFF AND SWAP1 POP DUP2 PUSH1 0xC PUSH0 PUSH2 0x100 EXP DUP2 SLOAD DUP2 PUSH20 0xFFFFFFFFFFFFFFFFFFFFFFFFFFFFFFFFFFFFFFFF MUL NOT AND SWAP1 DUP4 PUSH20 0xFFFFFFFFFFFFFFFFFFFFFFFFFFFFFFFFFFFFFFFF AND MUL OR SWAP1 SSTORE POP DUP2 PUSH20 0xFFFFFFFFFFFFFFFFFFFFFFFFFFFFFFFFFFFFFFFF AND DUP2 PUSH20 0xFFFFFFFFFFFFFFFFFFFFFFFFFFFFFFFFFFFFFFFF AND PUSH32 0x8BE0079C531659141344CD1FD0A4F28419497F9722A3DAAFE3B4186F6B6457E0 PUSH1 0x40 MLOAD PUSH1 0x40 MLOAD DUP1 SWAP2 SUB SWAP1 LOG3 POP POP JUMP JUMPDEST PUSH0 PUSH20 0xFFFFFFFFFFFFFFFFFFFFFFFFFFFFFFFFFFFFFFFF AND DUP3 PUSH20 0xFFFFFFFFFFFFFFFFFFFFFFFFFFFFFFFFFFFFFFFF AND SUB PUSH2 0x113C JUMPI DUP2 PUSH1 0x40 MLOAD PUSH32 0x5B08BA1800000000000000000000000000000000000000000000000000000000 DUP2 MSTORE PUSH1 0x4 ADD PUSH2 0x1133 SWAP2 SWAP1 PUSH2 0x2486 JUMP JUMPDEST PUSH1 0x40 MLOAD DUP1 SWAP2 SUB SWAP1 REVERT JUMPDEST DUP1 PUSH1 0x5 PUSH0 DUP6 PUSH20 0xFFFFFFFFFFFFFFFFFFFFFFFFFFFFFFFFFFFFFFFF AND PUSH20 0xFFFFFFFFFFFFFFFFFFFFFFFFFFFFFFFFFFFFFFFF AND DUP2 MSTORE PUSH1 0x20 ADD SWAP1 DUP2 MSTORE PUSH1 0x20 ADD PUSH0 KECCAK256 PUSH0 DUP5 PUSH20 0xFFFFFFFFFFFFFFFFFFFFFFFFFFFFFFFFFFFFFFFF AND PUSH20 0xFFFFFFFFFFFFFFFFFFFFFFFFFFFFFFFFFFFFFFFF AND DUP2 MSTORE PUSH1 0x20 ADD SWAP1 DUP2 MSTORE PUSH1 0x20 ADD PUSH0 KECCAK256 PUSH0 PUSH2 0x100 EXP DUP2 SLOAD DUP2 PUSH1 0xFF MUL NOT AND SWAP1 DUP4 ISZERO ISZERO MUL OR SWAP1 SSTORE POP DUP2 PUSH20 0xFFFFFFFFFFFFFFFFFFFFFFFFFFFFFFFFFFFFFFFF AND DUP4 PUSH20 0xFFFFFFFFFFFFFFFFFFFFFFFFFFFFFFFFFFFFFFFF AND PUSH32 0x17307EAB39AB6107E8899845AD3D59BD9653F200F220920489CA2B5937696C31 DUP4 PUSH1 0x40 MLOAD PUSH2 0x1228 SWAP2 SWAP1 PUSH2 0x2297 JUMP JUMPDEST PUSH1 0x40 MLOAD DUP1 SWAP2 SUB SWAP1 LOG3 POP POP POP JUMP JUMPDEST PUSH1 0xA PUSH0 PUSH0 DUP3 ADD PUSH0 PUSH2 0x100 EXP DUP2 SLOAD SWAP1 PUSH20 0xFFFFFFFFFFFFFFFFFFFFFFFFFFFFFFFFFFFFFFFF MUL NOT AND SWAP1 SSTORE PUSH0 DUP3 ADD PUSH1 0x14 PUSH2 0x100 EXP DUP2 SLOAD SWAP1 PUSH12 0xFFFFFFFFFFFFFFFFFFFFFFFF MUL NOT AND SWAP1 SSTORE POP POP JUMP JUMPDEST PUSH0 DUP4 PUSH20 0xFFFFFFFFFFFFFFFFFFFFFFFFFFFFFFFFFFFFFFFF AND EXTCODESIZE GT ISZERO PUSH2 0x1424 JUMPI DUP3 PUSH20 0xFFFFFFFFFFFFFFFFFFFFFFFFFFFFFFFFFFFFFFFF AND PUSH4 0x150B7A02 DUP7 DUP7 DUP6 DUP6 PUSH1 0x40 MLOAD DUP6 PUSH4 0xFFFFFFFF AND PUSH1 0xE0 SHL DUP2 MSTORE PUSH1 0x4 ADD PUSH2 0x12DD SWAP5 SWAP4 SWAP3 SWAP2 SWAP1 PUSH2 0x2E62 JUMP JUMPDEST PUSH1 0x20 PUSH1 0x40 MLOAD DUP1 DUP4 SUB DUP2 PUSH0 DUP8 GAS CALL SWAP3 POP POP POP DUP1 ISZERO PUSH2 0x1318 JUMPI POP PUSH1 0x40 MLOAD RETURNDATASIZE PUSH1 0x1F NOT PUSH1 0x1F DUP3 ADD AND DUP3 ADD DUP1 PUSH1 0x40 MSTORE POP DUP2 ADD SWAP1 PUSH2 0x1315 SWAP2 SWAP1 PUSH2 0x2EC0 JUMP JUMPDEST PUSH1 0x1 JUMPDEST PUSH2 0x1399 JUMPI RETURNDATASIZE DUP1 PUSH0 DUP2 EQ PUSH2 0x1346 JUMPI PUSH1 0x40 MLOAD SWAP2 POP PUSH1 0x1F NOT PUSH1 0x3F RETURNDATASIZE ADD AND DUP3 ADD PUSH1 0x40 MSTORE RETURNDATASIZE DUP3 MSTORE RETURNDATASIZE PUSH0 PUSH1 0x20 DUP5 ADD RETURNDATACOPY PUSH2 0x134B JUMP JUMPDEST PUSH1 0x60 SWAP2 POP JUMPDEST POP PUSH0 DUP2 MLOAD SUB PUSH2 0x1391 JUMPI DUP4 PUSH1 0x40 MLOAD PUSH32 0x64A0AE9200000000000000000000000000000000000000000000000000000000 DUP2 MSTORE PUSH1 0x4 ADD PUSH2 0x1388 SWAP2 SWAP1 PUSH2 0x2486 JUMP JUMPDEST PUSH1 0x40 MLOAD DUP1 SWAP2 SUB SWAP1 REVERT JUMPDEST DUP1 MLOAD PUSH1 0x20 DUP3 ADD REVERT JUMPDEST PUSH4 0x150B7A02 PUSH1 0xE0 SHL PUSH28 0xFFFFFFFFFFFFFFFFFFFFFFFFFFFFFFFFFFFFFFFFFFFFFFFFFFFFFFFF NOT AND DUP2 PUSH28 0xFFFFFFFFFFFFFFFFFFFFFFFFFFFFFFFFFFFFFFFFFFFFFFFFFFFFFFFF NOT AND EQ PUSH2 0x1422 JUMPI DUP4 PUSH1 0x40 MLOAD PUSH32 0x64A0AE9200000000000000000000000000000000000000000000000000000000 DUP2 MSTORE PUSH1 0x4 ADD PUSH2 0x1419 SWAP2 SWAP1 PUSH2 0x2486 JUMP JUMPDEST PUSH1 0x40 MLOAD DUP1 SWAP2 SUB SWAP1 REVERT JUMPDEST POP JUMPDEST POP POP POP POP POP JUMP JUMPDEST PUSH1 0x60 PUSH1 0xE DUP1 SLOAD PUSH2 0x143A SWAP1 PUSH2 0x2949 JUMP JUMPDEST DUP1 PUSH1 0x1F ADD PUSH1 0x20 DUP1 SWAP2 DIV MUL PUSH1 0x20 ADD PUSH1 0x40 MLOAD SWAP1 DUP2 ADD PUSH1 0x40 MSTORE DUP1 SWAP3 SWAP2 SWAP1 DUP2 DUP2 MSTORE PUSH1 0x20 ADD DUP3 DUP1 SLOAD PUSH2 0x1466 SWAP1 PUSH2 0x2949 JUMP JUMPDEST DUP1 ISZERO PUSH2 0x14B1 JUMPI DUP1 PUSH1 0x1F LT PUSH2 0x1488 JUMPI PUSH2 0x100 DUP1 DUP4 SLOAD DIV MUL DUP4 MSTORE SWAP2 PUSH1 0x20 ADD SWAP2 PUSH2 0x14B1 JUMP JUMPDEST DUP3 ADD SWAP2 SWAP1 PUSH0 MSTORE PUSH1 0x20 PUSH0 KECCAK256 SWAP1 JUMPDEST DUP2 SLOAD DUP2 MSTORE SWAP1 PUSH1 0x1 ADD SWAP1 PUSH1 0x20 ADD DUP1 DUP4 GT PUSH2 0x1494 JUMPI DUP3 SWAP1 SUB PUSH1 0x1F AND DUP3 ADD SWAP2 JUMPDEST POP POP POP POP POP SWAP1 POP SWAP1 JUMP JUMPDEST PUSH1 0x60 PUSH0 DUP3 SUB PUSH2 0x1501 JUMPI PUSH1 0x40 MLOAD DUP1 PUSH1 0x40 ADD PUSH1 0x40 MSTORE DUP1 PUSH1 0x1 DUP2 MSTORE PUSH1 0x20 ADD PUSH32 0x3000000000000000000000000000000000000000000000000000000000000000 DUP2 MSTORE POP SWAP1 POP PUSH2 0x160F JUMP JUMPDEST PUSH0 DUP3 SWAP1 POP PUSH0 JUMPDEST PUSH0 DUP3 EQ PUSH2 0x1530 JUMPI DUP1 DUP1 PUSH2 0x1519 SWAP1 PUSH2 0x2A79 JUMP JUMPDEST SWAP2 POP POP PUSH1 0xA DUP3 PUSH2 0x1529 SWAP2 SWAP1 PUSH2 0x2A49 JUMP JUMPDEST SWAP2 POP PUSH2 0x1507 JUMP JUMPDEST PUSH0 DUP2 PUSH8 0xFFFFFFFFFFFFFFFF DUP2 GT ISZERO PUSH2 0x154B JUMPI PUSH2 0x154A PUSH2 0x25ED JUMP JUMPDEST JUMPDEST PUSH1 0x40 MLOAD SWAP1 DUP1 DUP3 MSTORE DUP1 PUSH1 0x1F ADD PUSH1 0x1F NOT AND PUSH1 0x20 ADD DUP3 ADD PUSH1 0x40 MSTORE DUP1 ISZERO PUSH2 0x157D JUMPI DUP2 PUSH1 0x20 ADD PUSH1 0x1 DUP3 MUL DUP1 CALLDATASIZE DUP4 CALLDATACOPY DUP1 DUP3 ADD SWAP2 POP POP SWAP1 POP JUMPDEST POP SWAP1 POP JUMPDEST PUSH0 DUP6 EQ PUSH2 0x1608 JUMPI PUSH1 0x1 DUP3 PUSH2 0x1595 SWAP2 SWAP1 PUSH2 0x2EEB JUMP JUMPDEST SWAP2 POP PUSH1 0xA DUP6 PUSH2 0x15A4 SWAP2 SWAP1 PUSH2 0x2F1E JUMP JUMPDEST PUSH1 0x30 PUSH2 0x15B0 SWAP2 SWAP1 PUSH2 0x2F4E JUMP JUMPDEST PUSH1 0xF8 SHL DUP2 DUP4 DUP2 MLOAD DUP2 LT PUSH2 0x15C6 JUMPI PUSH2 0x15C5 PUSH2 0x2AC0 JUMP JUMPDEST JUMPDEST PUSH1 0x20 ADD ADD SWAP1 PUSH31 0xFFFFFFFFFFFFFFFFFFFFFFFFFFFFFFFFFFFFFFFFFFFFFFFFFFFFFFFFFFFFFF NOT AND SWAP1 DUP2 PUSH0 BYTE SWAP1 MSTORE8 POP PUSH1 0xA DUP6 PUSH2 0x1601 SWAP2 SWAP1 PUSH2 0x2A49 JUMP JUMPDEST SWAP5 POP PUSH2 0x1581 JUMP JUMPDEST DUP1 SWAP4 POP POP POP POP JUMPDEST SWAP2 SWAP1 POP JUMP JUMPDEST PUSH0 PUSH32 0x780E9D6300000000000000000000000000000000000000000000000000000000 PUSH28 0xFFFFFFFFFFFFFFFFFFFFFFFFFFFFFFFFFFFFFFFFFFFFFFFFFFFFFFFF NOT AND DUP3 PUSH28 0xFFFFFFFFFFFFFFFFFFFFFFFFFFFFFFFFFFFFFFFFFFFFFFFFFFFFFFFF NOT AND EQ DUP1 PUSH2 0x1686 JUMPI POP PUSH2 0x1685 DUP3 PUSH2 0x19C2 JUMP JUMPDEST JUMPDEST SWAP1 POP SWAP2 SWAP1 POP JUMP JUMPDEST PUSH0 PUSH1 0x2 PUSH0 DUP4 DUP2 MSTORE PUSH1 0x20 ADD SWAP1 DUP2 MSTORE PUSH1 0x20 ADD PUSH0 KECCAK256 PUSH0 SWAP1 SLOAD SWAP1 PUSH2 0x100 EXP SWAP1 DIV PUSH20 0xFFFFFFFFFFFFFFFFFFFFFFFFFFFFFFFFFFFFFFFF AND SWAP1 POP SWAP2 SWAP1 POP JUMP JUMPDEST DUP1 DUP1 PUSH2 0x16FE JUMPI POP PUSH0 PUSH20 0xFFFFFFFFFFFFFFFFFFFFFFFFFFFFFFFFFFFFFFFF AND DUP3 PUSH20 0xFFFFFFFFFFFFFFFFFFFFFFFFFFFFFFFFFFFFFFFF AND EQ ISZERO JUMPDEST ISZERO PUSH2 0x1830 JUMPI PUSH0 PUSH2 0x170D DUP5 PUSH2 0xEF6 JUMP JUMPDEST SWAP1 POP PUSH0 PUSH20 0xFFFFFFFFFFFFFFFFFFFFFFFFFFFFFFFFFFFFFFFF AND DUP4 PUSH20 0xFFFFFFFFFFFFFFFFFFFFFFFFFFFFFFFFFFFFFFFF AND EQ ISZERO DUP1 ISZERO PUSH2 0x1777 JUMPI POP DUP3 PUSH20 0xFFFFFFFFFFFFFFFFFFFFFFFFFFFFFFFFFFFFFFFF AND DUP2 PUSH20 0xFFFFFFFFFFFFFFFFFFFFFFFFFFFFFFFFFFFFFFFF AND EQ ISZERO JUMPDEST DUP1 ISZERO PUSH2 0x178A JUMPI POP PUSH2 0x1788 DUP2 DUP5 PUSH2 0xB49 JUMP JUMPDEST ISZERO JUMPDEST ISZERO PUSH2 0x17CC JUMPI DUP3 PUSH1 0x40 MLOAD PUSH32 0xA9FBF51F00000000000000000000000000000000000000000000000000000000 DUP2 MSTORE PUSH1 0x4 ADD PUSH2 0x17C3 SWAP2 SWAP1 PUSH2 0x2486 JUMP JUMPDEST PUSH1 0x40 MLOAD DUP1 SWAP2 SUB SWAP1 REVERT JUMPDEST DUP2 ISZERO PUSH2 0x182E JUMPI DUP4 DUP6 PUSH20 0xFFFFFFFFFFFFFFFFFFFFFFFFFFFFFFFFFFFFFFFF AND DUP3 PUSH20 0xFFFFFFFFFFFFFFFFFFFFFFFFFFFFFFFFFFFFFFFF AND PUSH32 0x8C5BE1E5EBEC7D5BD14F71427D1E84F3DD0314C0F7B2291E5B200AC8C7C3B925 PUSH1 0x40 MLOAD PUSH1 0x40 MLOAD DUP1 SWAP2 SUB SWAP1 LOG4 JUMPDEST POP JUMPDEST DUP4 PUSH1 0x4 PUSH0 DUP6 DUP2 MSTORE PUSH1 0x20 ADD SWAP1 DUP2 MSTORE PUSH1 0x20 ADD PUSH0 KECCAK256 PUSH0 PUSH2 0x100 EXP DUP2 SLOAD DUP2 PUSH20 0xFFFFFFFFFFFFFFFFFFFFFFFFFFFFFFFFFFFFFFFF MUL NOT AND SWAP1 DUP4 PUSH20 0xFFFFFFFFFFFFFFFFFFFFFFFFFFFFFFFFFFFFFFFF AND MUL OR SWAP1 SSTORE POP POP POP POP POP JUMP JUMPDEST PUSH0 PUSH0 PUSH2 0x1892 DUP6 DUP6 DUP6 PUSH2 0x1AA3 JUMP JUMPDEST SWAP1 POP PUSH0 PUSH20 0xFFFFFFFFFFFFFFFFFFFFFFFFFFFFFFFFFFFFFFFF AND DUP2 PUSH20 0xFFFFFFFFFFFFFFFFFFFFFFFFFFFFFFFFFFFFFFFF AND SUB PUSH2 0x18D5 JUMPI PUSH2 0x18D0 DUP5 PUSH2 0x1CAE JUMP JUMPDEST PUSH2 0x1914 JUMP JUMPDEST DUP5 PUSH20 0xFFFFFFFFFFFFFFFFFFFFFFFFFFFFFFFFFFFFFFFF AND DUP2 PUSH20 0xFFFFFFFFFFFFFFFFFFFFFFFFFFFFFFFFFFFFFFFF AND EQ PUSH2 0x1913 JUMPI PUSH2 0x1912 DUP2 DUP6 PUSH2 0x1CF2 JUMP JUMPDEST JUMPDEST JUMPDEST PUSH0 PUSH20 0xFFFFFFFFFFFFFFFFFFFFFFFFFFFFFFFFFFFFFFFF AND DUP6 PUSH20 0xFFFFFFFFFFFFFFFFFFFFFFFFFFFFFFFFFFFFFFFF AND SUB PUSH2 0x1955 JUMPI PUSH2 0x1950 DUP5 PUSH2 0x1DC9 JUMP JUMPDEST PUSH2 0x1994 JUMP JUMPDEST DUP5 PUSH20 0xFFFFFFFFFFFFFFFFFFFFFFFFFFFFFFFFFFFFFFFF AND DUP2 PUSH20 0xFFFFFFFFFFFFFFFFFFFFFFFFFFFFFFFFFFFFFFFF AND EQ PUSH2 0x1993 JUMPI PUSH2 0x1992 DUP6 DUP6 PUSH2 0x1E89 JUMP JUMPDEST JUMPDEST JUMPDEST DUP1 SWAP2 POP POP SWAP4 SWAP3 POP POP POP JUMP JUMPDEST PUSH2 0x19A9 DUP4 DUP4 PUSH2 0x1F0D JUMP JUMPDEST PUSH2 0x19BD PUSH2 0x19B4 PUSH2 0xFB5 JUMP JUMPDEST PUSH0 DUP6 DUP6 DUP6 PUSH2 0x127F JUMP JUMPDEST POP POP POP JUMP JUMPDEST PUSH0 PUSH32 0x80AC58CD00000000000000000000000000000000000000000000000000000000 PUSH28 0xFFFFFFFFFFFFFFFFFFFFFFFFFFFFFFFFFFFFFFFFFFFFFFFFFFFFFFFF NOT AND DUP3 PUSH28 0xFFFFFFFFFFFFFFFFFFFFFFFFFFFFFFFFFFFFFFFFFFFFFFFFFFFFFFFF NOT AND EQ DUP1 PUSH2 0x1A8C JUMPI POP PUSH32 0x5B5E139F00000000000000000000000000000000000000000000000000000000 PUSH28 0xFFFFFFFFFFFFFFFFFFFFFFFFFFFFFFFFFFFFFFFFFFFFFFFFFFFFFFFF NOT AND DUP3 PUSH28 0xFFFFFFFFFFFFFFFFFFFFFFFFFFFFFFFFFFFFFFFFFFFFFFFFFFFFFFFF NOT AND EQ JUMPDEST DUP1 PUSH2 0x1A9C JUMPI POP PUSH2 0x1A9B DUP3 PUSH2 0x2000 JUMP JUMPDEST JUMPDEST SWAP1 POP SWAP2 SWAP1 POP JUMP JUMPDEST PUSH0 PUSH0 PUSH2 0x1AAE DUP5 PUSH2 0x168D JUMP JUMPDEST SWAP1 POP PUSH0 PUSH20 0xFFFFFFFFFFFFFFFFFFFFFFFFFFFFFFFFFFFFFFFF AND DUP4 PUSH20 0xFFFFFFFFFFFFFFFFFFFFFFFFFFFFFFFFFFFFFFFF AND EQ PUSH2 0x1AEF JUMPI PUSH2 0x1AEE DUP2 DUP5 DUP7 PUSH2 0x2069 JUMP JUMPDEST JUMPDEST PUSH0 PUSH20 0xFFFFFFFFFFFFFFFFFFFFFFFFFFFFFFFFFFFFFFFF AND DUP2 PUSH20 0xFFFFFFFFFFFFFFFFFFFFFFFFFFFFFFFFFFFFFFFF AND EQ PUSH2 0x1B7A JUMPI PUSH2 0x1B2E PUSH0 DUP6 PUSH0 PUSH0 PUSH2 0x16C6 JUMP JUMPDEST PUSH1 0x1 PUSH1 0x3 PUSH0 DUP4 PUSH20 0xFFFFFFFFFFFFFFFFFFFFFFFFFFFFFFFFFFFFFFFF AND PUSH20 0xFFFFFFFFFFFFFFFFFFFFFFFFFFFFFFFFFFFFFFFF AND DUP2 MSTORE PUSH1 0x20 ADD SWAP1 DUP2 MSTORE PUSH1 0x20 ADD PUSH0 KECCAK256 PUSH0 DUP3 DUP3 SLOAD SUB SWAP3 POP POP DUP2 SWAP1 SSTORE POP JUMPDEST PUSH0 PUSH20 0xFFFFFFFFFFFFFFFFFFFFFFFFFFFFFFFFFFFFFFFF AND DUP6 PUSH20 0xFFFFFFFFFFFFFFFFFFFFFFFFFFFFFFFFFFFFFFFF AND EQ PUSH2 0x1BF9 JUMPI PUSH1 0x1 PUSH1 0x3 PUSH0 DUP8 PUSH20 0xFFFFFFFFFFFFFFFFFFFFFFFFFFFFFFFFFFFFFFFF AND PUSH20 0xFFFFFFFFFFFFFFFFFFFFFFFFFFFFFFFFFFFFFFFF AND DUP2 MSTORE PUSH1 0x20 ADD SWAP1 DUP2 MSTORE PUSH1 0x20 ADD PUSH0 KECCAK256 PUSH0 DUP3 DUP3 SLOAD ADD SWAP3 POP POP DUP2 SWAP1 SSTORE POP JUMPDEST DUP5 PUSH1 0x2 PUSH0 DUP7 DUP2 MSTORE PUSH1 0x20 ADD SWAP1 DUP2 MSTORE PUSH1 0x20 ADD PUSH0 KECCAK256 PUSH0 PUSH2 0x100 EXP DUP2 SLOAD DUP2 PUSH20 0xFFFFFFFFFFFFFFFFFFFFFFFFFFFFFFFFFFFFFFFF MUL NOT AND SWAP1 DUP4 PUSH20 0xFFFFFFFFFFFFFFFFFFFFFFFFFFFFFFFFFFFFFFFF AND MUL OR SWAP1 SSTORE POP DUP4 DUP6 PUSH20 0xFFFFFFFFFFFFFFFFFFFFFFFFFFFFFFFFFFFFFFFF AND DUP3 PUSH20 0xFFFFFFFFFFFFFFFFFFFFFFFFFFFFFFFFFFFFFFFF AND PUSH32 0xDDF252AD1BE2C89B69C2B068FC378DAA952BA7F163C4A11628F55A4DF523B3EF PUSH1 0x40 MLOAD PUSH1 0x40 MLOAD DUP1 SWAP2 SUB SWAP1 LOG4 DUP1 SWAP2 POP POP SWAP4 SWAP3 POP POP POP JUMP JUMPDEST PUSH1 0x8 DUP1 SLOAD SWAP1 POP PUSH1 0x9 PUSH0 DUP4 DUP2 MSTORE PUSH1 0x20 ADD SWAP1 DUP2 MSTORE PUSH1 0x20 ADD PUSH0 KECCAK256 DUP2 SWAP1 SSTORE POP PUSH1 0x8 DUP2 SWAP1 DUP1 PUSH1 0x1 DUP2 SLOAD ADD DUP1 DUP3 SSTORE DUP1 SWAP2 POP POP PUSH1 0x1 SWAP1 SUB SWAP1 PUSH0 MSTORE PUSH1 0x20 PUSH0 KECCAK256 ADD PUSH0 SWAP1 SWAP2 SWAP1 SWAP2 SWAP1 SWAP2 POP SSTORE POP JUMP JUMPDEST PUSH0 PUSH2 0x1CFC DUP4 PUSH2 0x937 JUMP JUMPDEST SWAP1 POP PUSH0 PUSH1 0x7 PUSH0 DUP5 DUP2 MSTORE PUSH1 0x20 ADD SWAP1 DUP2 MSTORE PUSH1 0x20 ADD PUSH0 KECCAK256 SLOAD SWAP1 POP PUSH0 PUSH1 0x6 PUSH0 DUP7 PUSH20 0xFFFFFFFFFFFFFFFFFFFFFFFFFFFFFFFFFFFFFFFF AND PUSH20 0xFFFFFFFFFFFFFFFFFFFFFFFFFFFFFFFFFFFFFFFF AND DUP2 MSTORE PUSH1 0x20 ADD SWAP1 DUP2 MSTORE PUSH1 0x20 ADD PUSH0 KECCAK256 SWAP1 POP DUP3 DUP3 EQ PUSH2 0x1D9B JUMPI PUSH0 DUP2 PUSH0 DUP6 DUP2 MSTORE PUSH1 0x20 ADD SWAP1 DUP2 MSTORE PUSH1 0x20 ADD PUSH0 KECCAK256 SLOAD SWAP1 POP DUP1 DUP3 PUSH0 DUP6 DUP2 MSTORE PUSH1 0x20 ADD SWAP1 DUP2 MSTORE PUSH1 0x20 ADD PUSH0 KECCAK256 DUP2 SWAP1 SSTORE POP DUP3 PUSH1 0x7 PUSH0 DUP4 DUP2 MSTORE PUSH1 0x20 ADD SWAP1 DUP2 MSTORE PUSH1 0x20 ADD PUSH0 KECCAK256 DUP2 SWAP1 SSTORE POP POP JUMPDEST PUSH1 0x7 PUSH0 DUP6 DUP2 MSTORE PUSH1 0x20 ADD SWAP1 DUP2 MSTORE PUSH1 0x20 ADD PUSH0 KECCAK256 PUSH0 SWAP1 SSTORE DUP1 PUSH0 DUP5 DUP2 MSTORE PUSH1 0x20 ADD SWAP1 DUP2 MSTORE PUSH1 0x20 ADD PUSH0 KECCAK256 PUSH0 SWAP1 SSTORE POP POP POP POP POP JUMP JUMPDEST PUSH0 PUSH1 0x1 PUSH1 0x8 DUP1 SLOAD SWAP1 POP PUSH2 0x1DDC SWAP2 SWAP1 PUSH2 0x2EEB JUMP JUMPDEST SWAP1 POP PUSH0 PUSH1 0x9 PUSH0 DUP5 DUP2 MSTORE PUSH1 0x20 ADD SWAP1 DUP2 MSTORE PUSH1 0x20 ADD PUSH0 KECCAK256 SLOAD SWAP1 POP PUSH0 PUSH1 0x8 DUP4 DUP2 SLOAD DUP2 LT PUSH2 0x1E08 JUMPI PUSH2 0x1E07 PUSH2 0x2AC0 JUMP JUMPDEST JUMPDEST SWAP1 PUSH0 MSTORE PUSH1 0x20 PUSH0 KECCAK256 ADD SLOAD SWAP1 POP DUP1 PUSH1 0x8 DUP4 DUP2 SLOAD DUP2 LT PUSH2 0x1E28 JUMPI PUSH2 0x1E27 PUSH2 0x2AC0 JUMP JUMPDEST JUMPDEST SWAP1 PUSH0 MSTORE PUSH1 0x20 PUSH0 KECCAK256 ADD DUP2 SWAP1 SSTORE POP DUP2 PUSH1 0x9 PUSH0 DUP4 DUP2 MSTORE PUSH1 0x20 ADD SWAP1 DUP2 MSTORE PUSH1 0x20 ADD PUSH0 KECCAK256 DUP2 SWAP1 SSTORE POP PUSH1 0x9 PUSH0 DUP6 DUP2 MSTORE PUSH1 0x20 ADD SWAP1 DUP2 MSTORE PUSH1 0x20 ADD PUSH0 KECCAK256 PUSH0 SWAP1 SSTORE PUSH1 0x8 DUP1 SLOAD DUP1 PUSH2 0x1E70 JUMPI PUSH2 0x1E6F PUSH2 0x2F81 JUMP JUMPDEST JUMPDEST PUSH1 0x1 SWAP1 SUB DUP2 DUP2 SWAP1 PUSH0 MSTORE PUSH1 0x20 PUSH0 KECCAK256 ADD PUSH0 SWAP1 SSTORE SWAP1 SSTORE POP POP POP POP JUMP JUMPDEST PUSH0 PUSH1 0x1 PUSH2 0x1E95 DUP5 PUSH2 0x937 JUMP JUMPDEST PUSH2 0x1E9F SWAP2 SWAP1 PUSH2 0x2EEB JUMP JUMPDEST SWAP1 POP DUP2 PUSH1 0x6 PUSH0 DUP6 PUSH20 0xFFFFFFFFFFFFFFFFFFFFFFFFFFFFFFFFFFFFFFFF AND PUSH20 0xFFFFFFFFFFFFFFFFFFFFFFFFFFFFFFFFFFFFFFFF AND DUP2 MSTORE PUSH1 0x20 ADD SWAP1 DUP2 MSTORE PUSH1 0x20 ADD PUSH0 KECCAK256 PUSH0 DUP4 DUP2 MSTORE PUSH1 0x20 ADD SWAP1 DUP2 MSTORE PUSH1 0x20 ADD PUSH0 KECCAK256 DUP2 SWAP1 SSTORE POP DUP1 PUSH1 0x7 PUSH0 DUP5 DUP2 MSTORE PUSH1 0x20 ADD SWAP1 DUP2 MSTORE PUSH1 0x20 ADD PUSH0 KECCAK256 DUP2 SWAP1 SSTORE POP POP POP POP JUMP JUMPDEST PUSH0 PUSH20 0xFFFFFFFFFFFFFFFFFFFFFFFFFFFFFFFFFFFFFFFF AND DUP3 PUSH20 0xFFFFFFFFFFFFFFFFFFFFFFFFFFFFFFFFFFFFFFFF AND SUB PUSH2 0x1F7D JUMPI PUSH0 PUSH1 0x40 MLOAD PUSH32 0x64A0AE9200000000000000000000000000000000000000000000000000000000 DUP2 MSTORE PUSH1 0x4 ADD PUSH2 0x1F74 SWAP2 SWAP1 PUSH2 0x2486 JUMP JUMPDEST PUSH1 0x40 MLOAD DUP1 SWAP2 SUB SWAP1 REVERT JUMPDEST PUSH0 PUSH2 0x1F89 DUP4 DUP4 PUSH0 PUSH2 0xFCE JUMP JUMPDEST SWAP1 POP PUSH0 PUSH20 0xFFFFFFFFFFFFFFFFFFFFFFFFFFFFFFFFFFFFFFFF AND DUP2 PUSH20 0xFFFFFFFFFFFFFFFFFFFFFFFFFFFFFFFFFFFFFFFF AND EQ PUSH2 0x1FFB JUMPI PUSH0 PUSH1 0x40 MLOAD PUSH32 0x73C6AC6E00000000000000000000000000000000000000000000000000000000 DUP2 MSTORE PUSH1 0x4 ADD PUSH2 0x1FF2 SWAP2 SWAP1 PUSH2 0x2486 JUMP JUMPDEST PUSH1 0x40 MLOAD DUP1 SWAP2 SUB SWAP1 REVERT JUMPDEST POP POP POP JUMP JUMPDEST PUSH0 PUSH32 0x1FFC9A700000000000000000000000000000000000000000000000000000000 PUSH28 0xFFFFFFFFFFFFFFFFFFFFFFFFFFFFFFFFFFFFFFFFFFFFFFFFFFFFFFFF NOT AND DUP3 PUSH28 0xFFFFFFFFFFFFFFFFFFFFFFFFFFFFFFFFFFFFFFFFFFFFFFFFFFFFFFFF NOT AND EQ SWAP1 POP SWAP2 SWAP1 POP JUMP JUMPDEST PUSH2 0x2074 DUP4 DUP4 DUP4 PUSH2 0x212C JUMP JUMPDEST PUSH2 0x2127 JUMPI PUSH0 PUSH20 0xFFFFFFFFFFFFFFFFFFFFFFFFFFFFFFFFFFFFFFFF AND DUP4 PUSH20 0xFFFFFFFFFFFFFFFFFFFFFFFFFFFFFFFFFFFFFFFF AND SUB PUSH2 0x20E8 JUMPI DUP1 PUSH1 0x40 MLOAD PUSH32 0x7E27328900000000000000000000000000000000000000000000000000000000 DUP2 MSTORE PUSH1 0x4 ADD PUSH2 0x20DF SWAP2 SWAP1 PUSH2 0x24EC JUMP JUMPDEST PUSH1 0x40 MLOAD DUP1 SWAP2 SUB SWAP1 REVERT JUMPDEST DUP2 DUP2 PUSH1 0x40 MLOAD PUSH32 0x177E802F00000000000000000000000000000000000000000000000000000000 DUP2 MSTORE PUSH1 0x4 ADD PUSH2 0x211E SWAP3 SWAP2 SWAP1 PUSH2 0x2593 JUMP JUMPDEST PUSH1 0x40 MLOAD DUP1 SWAP2 SUB SWAP1 REVERT JUMPDEST POP POP POP JUMP JUMPDEST PUSH0 PUSH0 PUSH20 0xFFFFFFFFFFFFFFFFFFFFFFFFFFFFFFFFFFFFFFFF AND DUP4 PUSH20 0xFFFFFFFFFFFFFFFFFFFFFFFFFFFFFFFFFFFFFFFF AND EQ ISZERO DUP1 ISZERO PUSH2 0x21E3 JUMPI POP DUP3 PUSH20 0xFFFFFFFFFFFFFFFFFFFFFFFFFFFFFFFFFFFFFFFF AND DUP5 PUSH20 0xFFFFFFFFFFFFFFFFFFFFFFFFFFFFFFFFFFFFFFFF AND EQ DUP1 PUSH2 0x21A4 JUMPI POP PUSH2 0x21A3 DUP5 DUP5 PUSH2 0xB49 JUMP JUMPDEST JUMPDEST DUP1 PUSH2 0x21E2 JUMPI POP DUP3 PUSH20 0xFFFFFFFFFFFFFFFFFFFFFFFFFFFFFFFFFFFFFFFF AND PUSH2 0x21CA DUP4 PUSH2 0xF7C JUMP JUMPDEST PUSH20 0xFFFFFFFFFFFFFFFFFFFFFFFFFFFFFFFFFFFFFFFF AND EQ JUMPDEST JUMPDEST SWAP1 POP SWAP4 SWAP3 POP POP POP JUMP JUMPDEST PUSH0 PUSH1 0x40 MLOAD SWAP1 POP SWAP1 JUMP JUMPDEST PUSH0 PUSH0 REVERT JUMPDEST PUSH0 PUSH0 REVERT JUMPDEST PUSH0 PUSH32 0xFFFFFFFF00000000000000000000000000000000000000000000000000000000 DUP3 AND SWAP1 POP SWAP2 SWAP1 POP JUMP JUMPDEST PUSH2 0x2231 DUP2 PUSH2 0x21FD JUMP JUMPDEST DUP2 EQ PUSH2 0x223B JUMPI PUSH0 PUSH0 REVERT JUMPDEST POP JUMP JUMPDEST PUSH0 DUP2 CALLDATALOAD SWAP1 POP PUSH2 0x224C DUP2 PUSH2 0x2228 JUMP JUMPDEST SWAP3 SWAP2 POP POP JUMP JUMPDEST PUSH0 PUSH1 0x20 DUP3 DUP5 SUB SLT ISZERO PUSH2 0x2267 JUMPI PUSH2 0x2266 PUSH2 0x21F5 JUMP JUMPDEST JUMPDEST PUSH0 PUSH2 0x2274 DUP5 DUP3 DUP6 ADD PUSH2 0x223E JUMP JUMPDEST SWAP2 POP POP SWAP3 SWAP2 POP POP JUMP JUMPDEST PUSH0 DUP2 ISZERO ISZERO SWAP1 POP SWAP2 SWAP1 POP JUMP JUMPDEST PUSH2 0x2291 DUP2 PUSH2 0x227D JUMP JUMPDEST DUP3 MSTORE POP POP JUMP JUMPDEST PUSH0 PUSH1 0x20 DUP3 ADD SWAP1 POP PUSH2 0x22AA PUSH0 DUP4 ADD DUP5 PUSH2 0x2288 JUMP JUMPDEST SWAP3 SWAP2 POP POP JUMP JUMPDEST PUSH0 PUSH20 0xFFFFFFFFFFFFFFFFFFFFFFFFFFFFFFFFFFFFFFFF DUP3 AND SWAP1 POP SWAP2 SWAP1 POP JUMP JUMPDEST PUSH0 PUSH2 0x22D9 DUP3 PUSH2 0x22B0 JUMP JUMPDEST SWAP1 POP SWAP2 SWAP1 POP JUMP JUMPDEST PUSH2 0x22E9 DUP2 PUSH2 0x22CF JUMP JUMPDEST DUP2 EQ PUSH2 0x22F3 JUMPI PUSH0 PUSH0 REVERT JUMPDEST POP JUMP JUMPDEST PUSH0 DUP2 CALLDATALOAD SWAP1 POP PUSH2 0x2304 DUP2 PUSH2 0x22E0 JUMP JUMPDEST SWAP3 SWAP2 POP POP JUMP JUMPDEST PUSH0 PUSH12 0xFFFFFFFFFFFFFFFFFFFFFFFF DUP3 AND SWAP1 POP SWAP2 SWAP1 POP JUMP JUMPDEST PUSH2 0x232A DUP2 PUSH2 0x230A JUMP JUMPDEST DUP2 EQ PUSH2 0x2334 JUMPI PUSH0 PUSH0 REVERT JUMPDEST POP JUMP JUMPDEST PUSH0 DUP2 CALLDATALOAD SWAP1 POP PUSH2 0x2345 DUP2 PUSH2 0x2321 JUMP JUMPDEST SWAP3 SWAP2 POP POP JUMP JUMPDEST PUSH0 PUSH0 PUSH1 0x40 DUP4 DUP6 SUB SLT ISZERO PUSH2 0x2361 JUMPI PUSH2 0x2360 PUSH2 0x21F5 JUMP JUMPDEST JUMPDEST PUSH0 PUSH2 0x236E DUP6 DUP3 DUP7 ADD PUSH2 0x22F6 JUMP JUMPDEST SWAP3 POP POP PUSH1 0x20 PUSH2 0x237F DUP6 DUP3 DUP7 ADD PUSH2 0x2337 JUMP JUMPDEST SWAP2 POP POP SWAP3 POP SWAP3 SWAP1 POP JUMP JUMPDEST PUSH0 DUP2 MLOAD SWAP1 POP SWAP2 SWAP1 POP JUMP JUMPDEST PUSH0 DUP3 DUP3 MSTORE PUSH1 0x20 DUP3 ADD SWAP1 POP SWAP3 SWAP2 POP POP JUMP JUMPDEST DUP3 DUP2 DUP4 MCOPY PUSH0 DUP4 DUP4 ADD MSTORE POP POP POP JUMP JUMPDEST PUSH0 PUSH1 0x1F NOT PUSH1 0x1F DUP4 ADD AND SWAP1 POP SWAP2 SWAP1 POP JUMP JUMPDEST PUSH0 PUSH2 0x23CB DUP3 PUSH2 0x2389 JUMP JUMPDEST PUSH2 0x23D5 DUP2 DUP6 PUSH2 0x2393 JUMP JUMPDEST SWAP4 POP PUSH2 0x23E5 DUP2 DUP6 PUSH1 0x20 DUP7 ADD PUSH2 0x23A3 JUMP JUMPDEST PUSH2 0x23EE DUP2 PUSH2 0x23B1 JUMP JUMPDEST DUP5 ADD SWAP2 POP POP SWAP3 SWAP2 POP POP JUMP JUMPDEST PUSH0 PUSH1 0x20 DUP3 ADD SWAP1 POP DUP2 DUP2 SUB PUSH0 DUP4 ADD MSTORE PUSH2 0x2411 DUP2 DUP5 PUSH2 0x23C1 JUMP JUMPDEST SWAP1 POP SWAP3 SWAP2 POP POP JUMP JUMPDEST PUSH0 DUP2 SWAP1 POP SWAP2 SWAP1 POP JUMP JUMPDEST PUSH2 0x242B DUP2 PUSH2 0x2419 JUMP JUMPDEST DUP2 EQ PUSH2 0x2435 JUMPI PUSH0 PUSH0 REVERT JUMPDEST POP JUMP JUMPDEST PUSH0 DUP2 CALLDATALOAD SWAP1 POP PUSH2 0x2446 DUP2 PUSH2 0x2422 JUMP JUMPDEST SWAP3 SWAP2 POP POP JUMP JUMPDEST PUSH0 PUSH1 0x20 DUP3 DUP5 SUB SLT ISZERO PUSH2 0x2461 JUMPI PUSH2 0x2460 PUSH2 0x21F5 JUMP JUMPDEST JUMPDEST PUSH0 PUSH2 0x246E DUP5 DUP3 DUP6 ADD PUSH2 0x2438 JUMP JUMPDEST SWAP2 POP POP SWAP3 SWAP2 POP POP JUMP JUMPDEST PUSH2 0x2480 DUP2 PUSH2 0x22CF JUMP JUMPDEST DUP3 MSTORE POP POP JUMP JUMPDEST PUSH0 PUSH1 0x20 DUP3 ADD SWAP1 POP PUSH2 0x2499 PUSH0 DUP4 ADD DUP5 PUSH2 0x2477 JUMP JUMPDEST SWAP3 SWAP2 POP POP JUMP JUMPDEST PUSH0 PUSH0 PUSH1 0x40 DUP4 DUP6 SUB SLT ISZERO PUSH2 0x24B5 JUMPI PUSH2 0x24B4 PUSH2 0x21F5 JUMP JUMPDEST JUMPDEST PUSH0 PUSH2 0x24C2 DUP6 DUP3 DUP7 ADD PUSH2 0x22F6 JUMP JUMPDEST SWAP3 POP POP PUSH1 0x20 PUSH2 0x24D3 DUP6 DUP3 DUP7 ADD PUSH2 0x2438 JUMP JUMPDEST SWAP2 POP POP SWAP3 POP SWAP3 SWAP1 POP JUMP JUMPDEST PUSH2 0x24E6 DUP2 PUSH2 0x2419 JUMP JUMPDEST DUP3 MSTORE POP POP JUMP JUMPDEST PUSH0 PUSH1 0x20 DUP3 ADD SWAP1 POP PUSH2 0x24FF PUSH0 DUP4 ADD DUP5 PUSH2 0x24DD JUMP JUMPDEST SWAP3 SWAP2 POP POP JUMP JUMPDEST PUSH0 PUSH0 PUSH0 PUSH1 0x60 DUP5 DUP7 SUB SLT ISZERO PUSH2 0x251C JUMPI PUSH2 0x251B PUSH2 0x21F5 JUMP JUMPDEST JUMPDEST PUSH0 PUSH2 0x2529 DUP7 DUP3 DUP8 ADD PUSH2 0x22F6 JUMP JUMPDEST SWAP4 POP POP PUSH1 0x20 PUSH2 0x253A DUP7 DUP3 DUP8 ADD PUSH2 0x22F6 JUMP JUMPDEST SWAP3 POP POP PUSH1 0x40 PUSH2 0x254B DUP7 DUP3 DUP8 ADD PUSH2 0x2438 JUMP JUMPDEST SWAP2 POP POP SWAP3 POP SWAP3 POP SWAP3 JUMP JUMPDEST PUSH0 PUSH0 PUSH1 0x40 DUP4 DUP6 SUB SLT ISZERO PUSH2 0x256B JUMPI PUSH2 0x256A PUSH2 0x21F5 JUMP JUMPDEST JUMPDEST PUSH0 PUSH2 0x2578 DUP6 DUP3 DUP7 ADD PUSH2 0x2438 JUMP JUMPDEST SWAP3 POP POP PUSH1 0x20 PUSH2 0x2589 DUP6 DUP3 DUP7 ADD PUSH2 0x2438 JUMP JUMPDEST SWAP2 POP POP SWAP3 POP SWAP3 SWAP1 POP JUMP JUMPDEST PUSH0 PUSH1 0x40 DUP3 ADD SWAP1 POP PUSH2 0x25A6 PUSH0 DUP4 ADD DUP6 PUSH2 0x2477 JUMP JUMPDEST PUSH2 0x25B3 PUSH1 0x20 DUP4 ADD DUP5 PUSH2 0x24DD JUMP JUMPDEST SWAP4 SWAP3 POP POP POP JUMP JUMPDEST PUSH0 PUSH1 0x20 DUP3 DUP5 SUB SLT ISZERO PUSH2 0x25CF JUMPI PUSH2 0x25CE PUSH2 0x21F5 JUMP JUMPDEST JUMPDEST PUSH0 PUSH2 0x25DC DUP5 DUP3 DUP6 ADD PUSH2 0x22F6 JUMP JUMPDEST SWAP2 POP POP SWAP3 SWAP2 POP POP JUMP JUMPDEST PUSH0 PUSH0 REVERT JUMPDEST PUSH0 PUSH0 REVERT JUMPDEST PUSH32 0x4E487B7100000000000000000000000000000000000000000000000000000000 PUSH0 MSTORE PUSH1 0x41 PUSH1 0x4 MSTORE PUSH1 0x24 PUSH0 REVERT JUMPDEST PUSH2 0x2623 DUP3 PUSH2 0x23B1 JUMP JUMPDEST DUP2 ADD DUP2 DUP2 LT PUSH8 0xFFFFFFFFFFFFFFFF DUP3 GT OR ISZERO PUSH2 0x2642 JUMPI PUSH2 0x2641 PUSH2 0x25ED JUMP JUMPDEST JUMPDEST DUP1 PUSH1 0x40 MSTORE POP POP POP JUMP JUMPDEST PUSH0 PUSH2 0x2654 PUSH2 0x21EC JUMP JUMPDEST SWAP1 POP PUSH2 0x2660 DUP3 DUP3 PUSH2 0x261A JUMP JUMPDEST SWAP2 SWAP1 POP JUMP JUMPDEST PUSH0 PUSH8 0xFFFFFFFFFFFFFFFF DUP3 GT ISZERO PUSH2 0x267F JUMPI PUSH2 0x267E PUSH2 0x25ED JUMP JUMPDEST JUMPDEST PUSH2 0x2688 DUP3 PUSH2 0x23B1 JUMP JUMPDEST SWAP1 POP PUSH1 0x20 DUP2 ADD SWAP1 POP SWAP2 SWAP1 POP JUMP JUMPDEST DUP3 DUP2 DUP4 CALLDATACOPY PUSH0 DUP4 DUP4 ADD MSTORE POP POP POP JUMP JUMPDEST PUSH0 PUSH2 0x26B5 PUSH2 0x26B0 DUP5 PUSH2 0x2665 JUMP JUMPDEST PUSH2 0x264B JUMP JUMPDEST SWAP1 POP DUP3 DUP2 MSTORE PUSH1 0x20 DUP2 ADD DUP5 DUP5 DUP5 ADD GT ISZERO PUSH2 0x26D1 JUMPI PUSH2 0x26D0 PUSH2 0x25E9 JUMP JUMPDEST JUMPDEST PUSH2 0x26DC DUP5 DUP3 DUP6 PUSH2 0x2695 JUMP JUMPDEST POP SWAP4 SWAP3 POP POP POP JUMP JUMPDEST PUSH0 DUP3 PUSH1 0x1F DUP4 ADD SLT PUSH2 0x26F8 JUMPI PUSH2 0x26F7 PUSH2 0x25E5 JUMP JUMPDEST JUMPDEST DUP2 CALLDATALOAD PUSH2 0x2708 DUP5 DUP3 PUSH1 0x20 DUP7 ADD PUSH2 0x26A3 JUMP JUMPDEST SWAP2 POP POP SWAP3 SWAP2 POP POP JUMP JUMPDEST PUSH0 PUSH1 0x20 DUP3 DUP5 SUB SLT ISZERO PUSH2 0x2726 JUMPI PUSH2 0x2725 PUSH2 0x21F5 JUMP JUMPDEST JUMPDEST PUSH0 DUP3 ADD CALLDATALOAD PUSH8 0xFFFFFFFFFFFFFFFF DUP2 GT ISZERO PUSH2 0x2743 JUMPI PUSH2 0x2742 PUSH2 0x21F9 JUMP JUMPDEST JUMPDEST PUSH2 0x274F DUP5 DUP3 DUP6 ADD PUSH2 0x26E4 JUMP JUMPDEST SWAP2 POP POP SWAP3 SWAP2 POP POP JUMP JUMPDEST PUSH2 0x2761 DUP2 PUSH2 0x227D JUMP JUMPDEST DUP2 EQ PUSH2 0x276B JUMPI PUSH0 PUSH0 REVERT JUMPDEST POP JUMP JUMPDEST PUSH0 DUP2 CALLDATALOAD SWAP1 POP PUSH2 0x277C DUP2 PUSH2 0x2758 JUMP JUMPDEST SWAP3 SWAP2 POP POP JUMP JUMPDEST PUSH0 PUSH0 PUSH1 0x40 DUP4 DUP6 SUB SLT ISZERO PUSH2 0x2798 JUMPI PUSH2 0x2797 PUSH2 0x21F5 JUMP JUMPDEST JUMPDEST PUSH0 PUSH2 0x27A5 DUP6 DUP3 DUP7 ADD PUSH2 0x22F6 JUMP JUMPDEST SWAP3 POP POP PUSH1 0x20 PUSH2 0x27B6 DUP6 DUP3 DUP7 ADD PUSH2 0x276E JUMP JUMPDEST SWAP2 POP POP SWAP3 POP SWAP3 SWAP1 POP JUMP JUMPDEST PUSH0 PUSH8 0xFFFFFFFFFFFFFFFF DUP3 GT ISZERO PUSH2 0x27DA JUMPI PUSH2 0x27D9 PUSH2 0x25ED JUMP JUMPDEST JUMPDEST PUSH2 0x27E3 DUP3 PUSH2 0x23B1 JUMP JUMPDEST SWAP1 POP PUSH1 0x20 DUP2 ADD SWAP1 POP SWAP2 SWAP1 POP JUMP JUMPDEST PUSH0 PUSH2 0x2802 PUSH2 0x27FD DUP5 PUSH2 0x27C0 JUMP JUMPDEST PUSH2 0x264B JUMP JUMPDEST SWAP1 POP DUP3 DUP2 MSTORE PUSH1 0x20 DUP2 ADD DUP5 DUP5 DUP5 ADD GT ISZERO PUSH2 0x281E JUMPI PUSH2 0x281D PUSH2 0x25E9 JUMP JUMPDEST JUMPDEST PUSH2 0x2829 DUP5 DUP3 DUP6 PUSH2 0x2695 JUMP JUMPDEST POP SWAP4 SWAP3 POP POP POP JUMP JUMPDEST PUSH0 DUP3 PUSH1 0x1F DUP4 ADD SLT PUSH2 0x2845 JUMPI PUSH2 0x2844 PUSH2 0x25E5 JUMP JUMPDEST JUMPDEST DUP2 CALLDATALOAD PUSH2 0x2855 DUP5 DUP3 PUSH1 0x20 DUP7 ADD PUSH2 0x27F0 JUMP JUMPDEST SWAP2 POP POP SWAP3 SWAP2 POP POP JUMP JUMPDEST PUSH0 PUSH0 PUSH0 PUSH0 PUSH1 0x80 DUP6 DUP8 SUB SLT ISZERO PUSH2 0x2876 JUMPI PUSH2 0x2875 PUSH2 0x21F5 JUMP JUMPDEST JUMPDEST PUSH0 PUSH2 0x2883 DUP8 DUP3 DUP9 ADD PUSH2 0x22F6 JUMP JUMPDEST SWAP5 POP POP PUSH1 0x20 PUSH2 0x2894 DUP8 DUP3 DUP9 ADD PUSH2 0x22F6 JUMP JUMPDEST SWAP4 POP POP PUSH1 0x40 PUSH2 0x28A5 DUP8 DUP3 DUP9 ADD PUSH2 0x2438 JUMP JUMPDEST SWAP3 POP POP PUSH1 0x60 DUP6 ADD CALLDATALOAD PUSH8 0xFFFFFFFFFFFFFFFF DUP2 GT ISZERO PUSH2 0x28C6 JUMPI PUSH2 0x28C5 PUSH2 0x21F9 JUMP JUMPDEST JUMPDEST PUSH2 0x28D2 DUP8 DUP3 DUP9 ADD PUSH2 0x2831 JUMP JUMPDEST SWAP2 POP POP SWAP3 SWAP6 SWAP2 SWAP5 POP SWAP3 POP JUMP JUMPDEST PUSH0 PUSH0 PUSH1 0x40 DUP4 DUP6 SUB SLT ISZERO PUSH2 0x28F4 JUMPI PUSH2 0x28F3 PUSH2 0x21F5 JUMP JUMPDEST JUMPDEST PUSH0 PUSH2 0x2901 DUP6 DUP3 DUP7 ADD PUSH2 0x22F6 JUMP JUMPDEST SWAP3 POP POP PUSH1 0x20 PUSH2 0x2912 DUP6 DUP3 DUP7 ADD PUSH2 0x22F6 JUMP JUMPDEST SWAP2 POP POP SWAP3 POP SWAP3 SWAP1 POP JUMP JUMPDEST PUSH32 0x4E487B7100000000000000000000000000000000000000000000000000000000 PUSH0 MSTORE PUSH1 0x22 PUSH1 0x4 MSTORE PUSH1 0x24 PUSH0 REVERT JUMPDEST PUSH0 PUSH1 0x2 DUP3 DIV SWAP1 POP PUSH1 0x1 DUP3 AND DUP1 PUSH2 0x2960 JUMPI PUSH1 0x7F DUP3 AND SWAP2 POP JUMPDEST PUSH1 0x20 DUP3 LT DUP2 SUB PUSH2 0x2973 JUMPI PUSH2 0x2972 PUSH2 0x291C JUMP JUMPDEST JUMPDEST POP SWAP2 SWAP1 POP JUMP JUMPDEST PUSH0 PUSH1 0x60 DUP3 ADD SWAP1 POP PUSH2 0x298C PUSH0 DUP4 ADD DUP7 PUSH2 0x2477 JUMP JUMPDEST PUSH2 0x2999 PUSH1 0x20 DUP4 ADD DUP6 PUSH2 0x24DD JUMP JUMPDEST PUSH2 0x29A6 PUSH1 0x40 DUP4 ADD DUP5 PUSH2 0x2477 JUMP JUMPDEST SWAP5 SWAP4 POP POP POP POP JUMP JUMPDEST PUSH32 0x4E487B7100000000000000000000000000000000000000000000000000000000 PUSH0 MSTORE PUSH1 0x11 PUSH1 0x4 MSTORE PUSH1 0x24 PUSH0 REVERT JUMPDEST PUSH0 PUSH2 0x29E5 DUP3 PUSH2 0x2419 JUMP JUMPDEST SWAP2 POP PUSH2 0x29F0 DUP4 PUSH2 0x2419 JUMP JUMPDEST SWAP3 POP DUP3 DUP3 MUL PUSH2 0x29FE DUP2 PUSH2 0x2419 JUMP JUMPDEST SWAP2 POP DUP3 DUP3 DIV DUP5 EQ DUP4 ISZERO OR PUSH2 0x2A15 JUMPI PUSH2 0x2A14 PUSH2 0x29AE JUMP JUMPDEST JUMPDEST POP SWAP3 SWAP2 POP POP JUMP JUMPDEST PUSH32 0x4E487B7100000000000000000000000000000000000000000000000000000000 PUSH0 MSTORE PUSH1 0x12 PUSH1 0x4 MSTORE PUSH1 0x24 PUSH0 REVERT JUMPDEST PUSH0 PUSH2 0x2A53 DUP3 PUSH2 0x2419 JUMP JUMPDEST SWAP2 POP PUSH2 0x2A5E DUP4 PUSH2 0x2419 JUMP JUMPDEST SWAP3 POP DUP3 PUSH2 0x2A6E JUMPI PUSH2 0x2A6D PUSH2 0x2A1C JUMP JUMPDEST JUMPDEST DUP3 DUP3 DIV SWAP1 POP SWAP3 SWAP2 POP POP JUMP JUMPDEST PUSH0 PUSH2 0x2A83 DUP3 PUSH2 0x2419 JUMP JUMPDEST SWAP2 POP PUSH32 0xFFFFFFFFFFFFFFFFFFFFFFFFFFFFFFFFFFFFFFFFFFFFFFFFFFFFFFFFFFFFFFFF DUP3 SUB PUSH2 0x2AB5 JUMPI PUSH2 0x2AB4 PUSH2 0x29AE JUMP JUMPDEST JUMPDEST PUSH1 0x1 DUP3 ADD SWAP1 POP SWAP2 SWAP1 POP JUMP JUMPDEST PUSH32 0x4E487B7100000000000000000000000000000000000000000000000000000000 PUSH0 MSTORE PUSH1 0x32 PUSH1 0x4 MSTORE PUSH1 0x24 PUSH0 REVERT JUMPDEST PUSH0 DUP2 SWAP1 POP DUP2 PUSH0 MSTORE PUSH1 0x20 PUSH0 KECCAK256 SWAP1 POP SWAP2 SWAP1 POP JUMP JUMPDEST PUSH0 PUSH1 0x20 PUSH1 0x1F DUP4 ADD DIV SWAP1 POP SWAP2 SWAP1 POP JUMP JUMPDEST PUSH0 DUP3 DUP3 SHL SWAP1 POP SWAP3 SWAP2 POP POP JUMP JUMPDEST PUSH0 PUSH1 0x8 DUP4 MUL PUSH2 0x2B49 PUSH32 0xFFFFFFFFFFFFFFFFFFFFFFFFFFFFFFFFFFFFFFFFFFFFFFFFFFFFFFFFFFFFFFFF DUP3 PUSH2 0x2B0E JUMP JUMPDEST PUSH2 0x2B53 DUP7 DUP4 PUSH2 0x2B0E JUMP JUMPDEST SWAP6 POP DUP1 NOT DUP5 AND SWAP4 POP DUP1 DUP7 AND DUP5 OR SWAP3 POP POP POP SWAP4 SWAP3 POP POP POP JUMP JUMPDEST PUSH0 DUP2 SWAP1 POP SWAP2 SWAP1 POP JUMP JUMPDEST PUSH0 PUSH2 0x2B8E PUSH2 0x2B89 PUSH2 0x2B84 DUP5 PUSH2 0x2419 JUMP JUMPDEST PUSH2 0x2B6B JUMP JUMPDEST PUSH2 0x2419 JUMP JUMPDEST SWAP1 POP SWAP2 SWAP1 POP JUMP JUMPDEST PUSH0 DUP2 SWAP1 POP SWAP2 SWAP1 POP JUMP JUMPDEST PUSH2 0x2BA7 DUP4 PUSH2 0x2B74 JUMP JUMPDEST PUSH2 0x2BBB PUSH2 0x2BB3 DUP3 PUSH2 0x2B95 JUMP JUMPDEST DUP5 DUP5 SLOAD PUSH2 0x2B1A JUMP JUMPDEST DUP3 SSTORE POP POP POP POP JUMP JUMPDEST PUSH0 PUSH0 SWAP1 POP SWAP1 JUMP JUMPDEST PUSH2 0x2BD2 PUSH2 0x2BC3 JUMP JUMPDEST PUSH2 0x2BDD DUP2 DUP5 DUP5 PUSH2 0x2B9E JUMP JUMPDEST POP POP POP JUMP JUMPDEST JUMPDEST DUP2 DUP2 LT ISZERO PUSH2 0x2C00 JUMPI PUSH2 0x2BF5 PUSH0 DUP3 PUSH2 0x2BCA JUMP JUMPDEST PUSH1 0x1 DUP2 ADD SWAP1 POP PUSH2 0x2BE3 JUMP JUMPDEST POP POP JUMP JUMPDEST PUSH1 0x1F DUP3 GT ISZERO PUSH2 0x2C45 JUMPI PUSH2 0x2C16 DUP2 PUSH2 0x2AED JUMP JUMPDEST PUSH2 0x2C1F DUP5 PUSH2 0x2AFF JUMP JUMPDEST DUP2 ADD PUSH1 0x20 DUP6 LT ISZERO PUSH2 0x2C2E JUMPI DUP2 SWAP1 POP JUMPDEST PUSH2 0x2C42 PUSH2 0x2C3A DUP6 PUSH2 0x2AFF JUMP JUMPDEST DUP4 ADD DUP3 PUSH2 0x2BE2 JUMP JUMPDEST POP POP JUMPDEST POP POP POP JUMP JUMPDEST PUSH0 DUP3 DUP3 SHR SWAP1 POP SWAP3 SWAP2 POP POP JUMP JUMPDEST PUSH0 PUSH2 0x2C65 PUSH0 NOT DUP5 PUSH1 0x8 MUL PUSH2 0x2C4A JUMP JUMPDEST NOT DUP1 DUP4 AND SWAP2 POP POP SWAP3 SWAP2 POP POP JUMP JUMPDEST PUSH0 PUSH2 0x2C7D DUP4 DUP4 PUSH2 0x2C56 JUMP JUMPDEST SWAP2 POP DUP3 PUSH1 0x2 MUL DUP3 OR SWAP1 POP SWAP3 SWAP2 POP POP JUMP JUMPDEST PUSH2 0x2C96 DUP3 PUSH2 0x2389 JUMP JUMPDEST PUSH8 0xFFFFFFFFFFFFFFFF DUP2 GT ISZERO PUSH2 0x2CAF JUMPI PUSH2 0x2CAE PUSH2 0x25ED JUMP JUMPDEST JUMPDEST PUSH2 0x2CB9 DUP3 SLOAD PUSH2 0x2949 JUMP JUMPDEST PUSH2 0x2CC4 DUP3 DUP3 DUP6 PUSH2 0x2C04 JUMP JUMPDEST PUSH0 PUSH1 0x20 SWAP1 POP PUSH1 0x1F DUP4 GT PUSH1 0x1 DUP2 EQ PUSH2 0x2CF5 JUMPI PUSH0 DUP5 ISZERO PUSH2 0x2CE3 JUMPI DUP3 DUP8 ADD MLOAD SWAP1 POP JUMPDEST PUSH2 0x2CED DUP6 DUP3 PUSH2 0x2C72 JUMP JUMPDEST DUP7 SSTORE POP PUSH2 0x2D54 JUMP JUMPDEST PUSH1 0x1F NOT DUP5 AND PUSH2 0x2D03 DUP7 PUSH2 0x2AED JUMP JUMPDEST PUSH0 JUMPDEST DUP3 DUP2 LT ISZERO PUSH2 0x2D2A JUMPI DUP5 DUP10 ADD MLOAD DUP3 SSTORE PUSH1 0x1 DUP3 ADD SWAP2 POP PUSH1 0x20 DUP6 ADD SWAP5 POP PUSH1 0x20 DUP2 ADD SWAP1 POP PUSH2 0x2D05 JUMP JUMPDEST DUP7 DUP4 LT ISZERO PUSH2 0x2D47 JUMPI DUP5 DUP10 ADD MLOAD PUSH2 0x2D43 PUSH1 0x1F DUP10 AND DUP3 PUSH2 0x2C56 JUMP JUMPDEST DUP4 SSTORE POP JUMPDEST PUSH1 0x1 PUSH1 0x2 DUP9 MUL ADD DUP9 SSTORE POP POP POP JUMPDEST POP POP POP POP POP POP JUMP JUMPDEST PUSH0 DUP2 SWAP1 POP SWAP3 SWAP2 POP POP JUMP JUMPDEST PUSH0 PUSH2 0x2D70 DUP3 PUSH2 0x2389 JUMP JUMPDEST PUSH2 0x2D7A DUP2 DUP6 PUSH2 0x2D5C JUMP JUMPDEST SWAP4 POP PUSH2 0x2D8A DUP2 DUP6 PUSH1 0x20 DUP7 ADD PUSH2 0x23A3 JUMP JUMPDEST DUP1 DUP5 ADD SWAP2 POP POP SWAP3 SWAP2 POP POP JUMP JUMPDEST PUSH0 PUSH2 0x2DA1 DUP3 DUP6 PUSH2 0x2D66 JUMP JUMPDEST SWAP2 POP PUSH2 0x2DAD DUP3 DUP5 PUSH2 0x2D66 JUMP JUMPDEST SWAP2 POP DUP2 SWAP1 POP SWAP4 SWAP3 POP POP POP JUMP JUMPDEST PUSH0 PUSH2 0x2DD3 PUSH2 0x2DCE PUSH2 0x2DC9 DUP5 PUSH2 0x230A JUMP JUMPDEST PUSH2 0x2B6B JUMP JUMPDEST PUSH2 0x2419 JUMP JUMPDEST SWAP1 POP SWAP2 SWAP1 POP JUMP JUMPDEST PUSH2 0x2DE3 DUP2 PUSH2 0x2DB9 JUMP JUMPDEST DUP3 MSTORE POP POP JUMP JUMPDEST PUSH0 PUSH1 0x40 DUP3 ADD SWAP1 POP PUSH2 0x2DFC PUSH0 DUP4 ADD DUP6 PUSH2 0x2DDA JUMP JUMPDEST PUSH2 0x2E09 PUSH1 0x20 DUP4 ADD DUP5 PUSH2 0x24DD JUMP JUMPDEST SWAP4 SWAP3 POP POP POP JUMP JUMPDEST PUSH0 DUP2 MLOAD SWAP1 POP SWAP2 SWAP1 POP JUMP JUMPDEST PUSH0 DUP3 DUP3 MSTORE PUSH1 0x20 DUP3 ADD SWAP1 POP SWAP3 SWAP2 POP POP JUMP JUMPDEST PUSH0 PUSH2 0x2E34 DUP3 PUSH2 0x2E10 JUMP JUMPDEST PUSH2 0x2E3E DUP2 DUP6 PUSH2 0x2E1A JUMP JUMPDEST SWAP4 POP PUSH2 0x2E4E DUP2 DUP6 PUSH1 0x20 DUP7 ADD PUSH2 0x23A3 JUMP JUMPDEST PUSH2 0x2E57 DUP2 PUSH2 0x23B1 JUMP JUMPDEST DUP5 ADD SWAP2 POP POP SWAP3 SWAP2 POP POP JUMP JUMPDEST PUSH0 PUSH1 0x80 DUP3 ADD SWAP1 POP PUSH2 0x2E75 PUSH0 DUP4 ADD DUP8 PUSH2 0x2477 JUMP JUMPDEST PUSH2 0x2E82 PUSH1 0x20 DUP4 ADD DUP7 PUSH2 0x2477 JUMP JUMPDEST PUSH2 0x2E8F PUSH1 0x40 DUP4 ADD DUP6 PUSH2 0x24DD JUMP JUMPDEST DUP2 DUP2 SUB PUSH1 0x60 DUP4 ADD MSTORE PUSH2 0x2EA1 DUP2 DUP5 PUSH2 0x2E2A JUMP JUMPDEST SWAP1 POP SWAP6 SWAP5 POP POP POP POP POP JUMP JUMPDEST PUSH0 DUP2 MLOAD SWAP1 POP PUSH2 0x2EBA DUP2 PUSH2 0x2228 JUMP JUMPDEST SWAP3 SWAP2 POP POP JUMP JUMPDEST PUSH0 PUSH1 0x20 DUP3 DUP5 SUB SLT ISZERO PUSH2 0x2ED5 JUMPI PUSH2 0x2ED4 PUSH2 0x21F5 JUMP JUMPDEST JUMPDEST PUSH0 PUSH2 0x2EE2 DUP5 DUP3 DUP6 ADD PUSH2 0x2EAC JUMP JUMPDEST SWAP2 POP POP SWAP3 SWAP2 POP POP JUMP JUMPDEST PUSH0 PUSH2 0x2EF5 DUP3 PUSH2 0x2419 JUMP JUMPDEST SWAP2 POP PUSH2 0x2F00 DUP4 PUSH2 0x2419 JUMP JUMPDEST SWAP3 POP DUP3 DUP3 SUB SWAP1 POP DUP2 DUP2 GT ISZERO PUSH2 0x2F18 JUMPI PUSH2 0x2F17 PUSH2 0x29AE JUMP JUMPDEST JUMPDEST SWAP3 SWAP2 POP POP JUMP JUMPDEST PUSH0 PUSH2 0x2F28 DUP3 PUSH2 0x2419 JUMP JUMPDEST SWAP2 POP PUSH2 0x2F33 DUP4 PUSH2 0x2419 JUMP JUMPDEST SWAP3 POP DUP3 PUSH2 0x2F43 JUMPI PUSH2 0x2F42 PUSH2 0x2A1C JUMP JUMPDEST JUMPDEST DUP3 DUP3 MOD SWAP1 POP SWAP3 SWAP2 POP POP JUMP JUMPDEST PUSH0 PUSH2 0x2F58 DUP3 PUSH2 0x2419 JUMP JUMPDEST SWAP2 POP PUSH2 0x2F63 DUP4 PUSH2 0x2419 JUMP JUMPDEST SWAP3 POP DUP3 DUP3 ADD SWAP1 POP DUP1 DUP3 GT ISZERO PUSH2 0x2F7B JUMPI PUSH2 0x2F7A PUSH2 0x29AE JUMP JUMPDEST JUMPDEST SWAP3 SWAP2 POP POP JUMP JUMPDEST PUSH32 0x4E487B7100000000000000000000000000000000000000000000000000000000 PUSH0 MSTORE PUSH1 0x31 PUSH1 0x4 MSTORE PUSH1 0x24 PUSH0 REVERT INVALID LOG2 PUSH5 0x6970667358 0x22 SLT KECCAK256 0xD6 MCOPY 0xB1 0xBE PUSH5 0x9CAB8B702B 0xB0 0xF6 BLOBBASEFEE 0xA8 0xDC 0x23 EXTCODEHASH CALLDATACOPY 0x21 RETURNDATASIZE 0x2B 0xAD 0xEB SWAP16 DUP11 PUSH3 0x8DB661 SLT BLOBHASH 0x2B PUSH5 0x736F6C6343 STOP ADDMOD 0x1E STOP CALLER "
		},
		"gasEstimates": {
			"creation": {
				"codeDepositCost": "2452000",
				"executionCost": "infinite",
				"totalCost": "infinite"
			},
			"external": {
				"approve(address,uint256)": "infinite",
				"balanceOf(address)": "infinite",
				"deleteDefaultRoyalty()": "infinite",
				"getApproved(uint256)": "infinite",
				"isApprovedForAll(address,address)": "infinite",
				"name()": "infinite",
				"owner()": "2626",
				"ownerOf(uint256)": "infinite",
				"renounceOwnership()": "infinite",
				"royaltyInfo(uint256,uint256)": "infinite",
				"safeMint(address)": "infinite",
				"safeTransferFrom(address,address,uint256)": "infinite",
				"safeTransferFrom(address,address,uint256,bytes)": "infinite",
				"setApprovalForAll(address,bool)": "infinite",
				"setBaseURI(string)": "infinite",
				"setDefaultRoyalty(address,uint96)": "infinite",
				"supportsInterface(bytes4)": "1005",
				"symbol()": "infinite",
				"tokenByIndex(uint256)": "infinite",
				"tokenOfOwnerByIndex(address,uint256)": "infinite",
				"tokenURI(uint256)": "infinite",
				"totalSupply()": "2574",
				"transferFrom(address,address,uint256)": "infinite",
				"transferOwnership(address)": "infinite"
			},
			"internal": {
				"_baseURI()": "infinite",
				"_increaseBalance(address,uint128)": "infinite",
				"_toString(uint256)": "infinite",
				"_update(address,uint256,address)": "infinite"
			}
		},
		"methodIdentifiers": {
			"approve(address,uint256)": "095ea7b3",
			"balanceOf(address)": "70a08231",
			"deleteDefaultRoyalty()": "aa1b103f",
			"getApproved(uint256)": "081812fc",
			"isApprovedForAll(address,address)": "e985e9c5",
			"name()": "06fdde03",
			"owner()": "8da5cb5b",
			"ownerOf(uint256)": "6352211e",
			"renounceOwnership()": "715018a6",
			"royaltyInfo(uint256,uint256)": "2a55205a",
			"safeMint(address)": "40d097c3",
			"safeTransferFrom(address,address,uint256)": "42842e0e",
			"safeTransferFrom(address,address,uint256,bytes)": "b88d4fde",
			"setApprovalForAll(address,bool)": "a22cb465",
			"setBaseURI(string)": "55f804b3",
			"setDefaultRoyalty(address,uint96)": "04634d8d",
			"supportsInterface(bytes4)": "01ffc9a7",
			"symbol()": "95d89b41",
			"tokenByIndex(uint256)": "4f6ccce7",
			"tokenOfOwnerByIndex(address,uint256)": "2f745c59",
			"tokenURI(uint256)": "c87b56dd",
			"totalSupply()": "18160ddd",
			"transferFrom(address,address,uint256)": "23b872dd",
			"transferOwnership(address)": "f2fde38b"
		}
	},
	"abi": [
		{
			"inputs": [
				{
					"internalType": "string",
					"name": "name",
					"type": "string"
				},
				{
					"internalType": "string",
					"name": "symbol",
					"type": "string"
				},
				{
					"internalType": "address",
					"name": "initialOwner",
					"type": "address"
				}
			],
			"stateMutability": "nonpayable",
			"type": "constructor"
		},
		{
			"inputs": [
				{
					"internalType": "uint256",
					"name": "numerator",
					"type": "uint256"
				},
				{
					"internalType": "uint256",
					"name": "denominator",
					"type": "uint256"
				}
			],
			"name": "ERC2981InvalidDefaultRoyalty",
			"type": "error"
		},
		{
			"inputs": [
				{
					"internalType": "address",
					"name": "receiver",
					"type": "address"
				}
			],
			"name": "ERC2981InvalidDefaultRoyaltyReceiver",
			"type": "error"
		},
		{
			"inputs": [
				{
					"internalType": "uint256",
					"name": "tokenId",
					"type": "uint256"
				},
				{
					"internalType": "uint256",
					"name": "numerator",
					"type": "uint256"
				},
				{
					"internalType": "uint256",
					"name": "denominator",
					"type": "uint256"
				}
			],
			"name": "ERC2981InvalidTokenRoyalty",
			"type": "error"
		},
		{
			"inputs": [
				{
					"internalType": "uint256",
					"name": "tokenId",
					"type": "uint256"
				},
				{
					"internalType": "address",
					"name": "receiver",
					"type": "address"
				}
			],
			"name": "ERC2981InvalidTokenRoyaltyReceiver",
			"type": "error"
		},
		{
			"inputs": [],
			"name": "ERC721EnumerableForbiddenBatchMint",
			"type": "error"
		},
		{
			"inputs": [
				{
					"internalType": "address",
					"name": "sender",
					"type": "address"
				},
				{
					"internalType": "uint256",
					"name": "tokenId",
					"type": "uint256"
				},
				{
					"internalType": "address",
					"name": "owner",
					"type": "address"
				}
			],
			"name": "ERC721IncorrectOwner",
			"type": "error"
		},
		{
			"inputs": [
				{
					"internalType": "address",
					"name": "operator",
					"type": "address"
				},
				{
					"internalType": "uint256",
					"name": "tokenId",
					"type": "uint256"
				}
			],
			"name": "ERC721InsufficientApproval",
			"type": "error"
		},
		{
			"inputs": [
				{
					"internalType": "address",
					"name": "approver",
					"type": "address"
				}
			],
			"name": "ERC721InvalidApprover",
			"type": "error"
		},
		{
			"inputs": [
				{
					"internalType": "address",
					"name": "operator",
					"type": "address"
				}
			],
			"name": "ERC721InvalidOperator",
			"type": "error"
		},
		{
			"inputs": [
				{
					"internalType": "address",
					"name": "owner",
					"type": "address"
				}
			],
			"name": "ERC721InvalidOwner",
			"type": "error"
		},
		{
			"inputs": [
				{
					"internalType": "address",
					"name": "receiver",
					"type": "address"
				}
			],
			"name": "ERC721InvalidReceiver",
			"type": "error"
		},
		{
			"inputs": [
				{
					"internalType": "address",
					"name": "sender",
					"type": "address"
				}
			],
			"name": "ERC721InvalidSender",
			"type": "error"
		},
		{
			"inputs": [
				{
					"internalType": "uint256",
					"name": "tokenId",
					"type": "uint256"
				}
			],
			"name": "ERC721NonexistentToken",
			"type": "error"
		},
		{
			"inputs": [
				{
					"internalType": "address",
					"name": "owner",
					"type": "address"
				},
				{
					"internalType": "uint256",
					"name": "index",
					"type": "uint256"
				}
			],
			"name": "ERC721OutOfBoundsIndex",
			"type": "error"
		},
		{
			"inputs": [
				{
					"internalType": "address",
					"name": "owner",
					"type": "address"
				}
			],
			"name": "OwnableInvalidOwner",
			"type": "error"
		},
		{
			"inputs": [
				{
					"internalType": "address",
					"name": "account",
					"type": "address"
				}
			],
			"name": "OwnableUnauthorizedAccount",
			"type": "error"
		},
		{
			"anonymous": false,
			"inputs": [
				{
					"indexed": true,
					"internalType": "address",
					"name": "owner",
					"type": "address"
				},
				{
					"indexed": true,
					"internalType": "address",
					"name": "approved",
					"type": "address"
				},
				{
					"indexed": true,
					"internalType": "uint256",
					"name": "tokenId",
					"type": "uint256"
				}
			],
			"name": "Approval",
			"type": "event"
		},
		{
			"anonymous": false,
			"inputs": [
				{
					"indexed": true,
					"internalType": "address",
					"name": "owner",
					"type": "address"
				},
				{
					"indexed": true,
					"internalType": "address",
					"name": "operator",
					"type": "address"
				},
				{
					"indexed": false,
					"internalType": "bool",
					"name": "approved",
					"type": "bool"
				}
			],
			"name": "ApprovalForAll",
			"type": "event"
		},
		{
			"anonymous": false,
			"inputs": [
				{
					"indexed": true,
					"internalType": "address",
					"name": "previousOwner",
					"type": "address"
				},
				{
					"indexed": true,
					"internalType": "address",
					"name": "newOwner",
					"type": "address"
				}
			],
			"name": "OwnershipTransferred",
			"type": "event"
		},
		{
			"anonymous": false,
			"inputs": [
				{
					"indexed": true,
					"internalType": "address",
					"name": "from",
					"type": "address"
				},
				{
					"indexed": true,
					"internalType": "address",
					"name": "to",
					"type": "address"
				},
				{
					"indexed": true,
					"internalType": "uint256",
					"name": "tokenId",
					"type": "uint256"
				}
			],
			"name": "Transfer",
			"type": "event"
		},
		{
			"inputs": [
				{
					"internalType": "address",
					"name": "to",
					"type": "address"
				},
				{
					"internalType": "uint256",
					"name": "tokenId",
					"type": "uint256"
				}
			],
			"name": "approve",
			"outputs": [],
			"stateMutability": "nonpayable",
			"type": "function"
		},
		{
			"inputs": [
				{
					"internalType": "address",
					"name": "owner",
					"type": "address"
				}
			],
			"name": "balanceOf",
			"outputs": [
				{
					"internalType": "uint256",
					"name": "",
					"type": "uint256"
				}
			],
			"stateMutability": "view",
			"type": "function"
		},
		{
			"inputs": [],
			"name": "deleteDefaultRoyalty",
			"outputs": [],
			"stateMutability": "nonpayable",
			"type": "function"
		},
		{
			"inputs": [
				{
					"internalType": "uint256",
					"name": "tokenId",
					"type": "uint256"
				}
			],
			"name": "getApproved",
			"outputs": [
				{
					"internalType": "address",
					"name": "",
					"type": "address"
				}
			],
			"stateMutability": "view",
			"type": "function"
		},
		{
			"inputs": [
				{
					"internalType": "address",
					"name": "owner",
					"type": "address"
				},
				{
					"internalType": "address",
					"name": "operator",
					"type": "address"
				}
			],
			"name": "isApprovedForAll",
			"outputs": [
				{
					"internalType": "bool",
					"name": "",
					"type": "bool"
				}
			],
			"stateMutability": "view",
			"type": "function"
		},
		{
			"inputs": [],
			"name": "name",
			"outputs": [
				{
					"internalType": "string",
					"name": "",
					"type": "string"
				}
			],
			"stateMutability": "view",
			"type": "function"
		},
		{
			"inputs": [],
			"name": "owner",
			"outputs": [
				{
					"internalType": "address",
					"name": "",
					"type": "address"
				}
			],
			"stateMutability": "view",
			"type": "function"
		},
		{
			"inputs": [
				{
					"internalType": "uint256",
					"name": "tokenId",
					"type": "uint256"
				}
			],
			"name": "ownerOf",
			"outputs": [
				{
					"internalType": "address",
					"name": "",
					"type": "address"
				}
			],
			"stateMutability": "view",
			"type": "function"
		},
		{
			"inputs": [],
			"name": "renounceOwnership",
			"outputs": [],
			"stateMutability": "nonpayable",
			"type": "function"
		},
		{
			"inputs": [
				{
					"internalType": "uint256",
					"name": "tokenId",
					"type": "uint256"
				},
				{
					"internalType": "uint256",
					"name": "salePrice",
					"type": "uint256"
				}
			],
			"name": "royaltyInfo",
			"outputs": [
				{
					"internalType": "address",
					"name": "receiver",
					"type": "address"
				},
				{
					"internalType": "uint256",
					"name": "amount",
					"type": "uint256"
				}
			],
			"stateMutability": "view",
			"type": "function"
		},
		{
			"inputs": [
				{
					"internalType": "address",
					"name": "to",
					"type": "address"
				}
			],
			"name": "safeMint",
			"outputs": [],
			"stateMutability": "nonpayable",
			"type": "function"
		},
		{
			"inputs": [
				{
					"internalType": "address",
					"name": "from",
					"type": "address"
				},
				{
					"internalType": "address",
					"name": "to",
					"type": "address"
				},
				{
					"internalType": "uint256",
					"name": "tokenId",
					"type": "uint256"
				}
			],
			"name": "safeTransferFrom",
			"outputs": [],
			"stateMutability": "nonpayable",
			"type": "function"
		},
		{
			"inputs": [
				{
					"internalType": "address",
					"name": "from",
					"type": "address"
				},
				{
					"internalType": "address",
					"name": "to",
					"type": "address"
				},
				{
					"internalType": "uint256",
					"name": "tokenId",
					"type": "uint256"
				},
				{
					"internalType": "bytes",
					"name": "data",
					"type": "bytes"
				}
			],
			"name": "safeTransferFrom",
			"outputs": [],
			"stateMutability": "nonpayable",
			"type": "function"
		},
		{
			"inputs": [
				{
					"internalType": "address",
					"name": "operator",
					"type": "address"
				},
				{
					"internalType": "bool",
					"name": "approved",
					"type": "bool"
				}
			],
			"name": "setApprovalForAll",
			"outputs": [],
			"stateMutability": "nonpayable",
			"type": "function"
		},
		{
			"inputs": [
				{
					"internalType": "string",
					"name": "baseURI",
					"type": "string"
				}
			],
			"name": "setBaseURI",
			"outputs": [],
			"stateMutability": "nonpayable",
			"type": "function"
		},
		{
			"inputs": [
				{
					"internalType": "address",
					"name": "receiver",
					"type": "address"
				},
				{
					"internalType": "uint96",
					"name": "feeNumerator",
					"type": "uint96"
				}
			],
			"name": "setDefaultRoyalty",
			"outputs": [],
			"stateMutability": "nonpayable",
			"type": "function"
		},
		{
			"inputs": [
				{
					"internalType": "bytes4",
					"name": "interfaceId",
					"type": "bytes4"
				}
			],
			"name": "supportsInterface",
			"outputs": [
				{
					"internalType": "bool",
					"name": "",
					"type": "bool"
				}
			],
			"stateMutability": "view",
			"type": "function"
		},
		{
			"inputs": [],
			"name": "symbol",
			"outputs": [
				{
					"internalType": "string",
					"name": "",
					"type": "string"
				}
			],
			"stateMutability": "view",
			"type": "function"
		},
		{
			"inputs": [
				{
					"internalType": "uint256",
					"name": "index",
					"type": "uint256"
				}
			],
			"name": "tokenByIndex",
			"outputs": [
				{
					"internalType": "uint256",
					"name": "",
					"type": "uint256"
				}
			],
			"stateMutability": "view",
			"type": "function"
		},
		{
			"inputs": [
				{
					"internalType": "address",
					"name": "owner",
					"type": "address"
				},
				{
					"internalType": "uint256",
					"name": "index",
					"type": "uint256"
				}
			],
			"name": "tokenOfOwnerByIndex",
			"outputs": [
				{
					"internalType": "uint256",
					"name": "",
					"type": "uint256"
				}
			],
			"stateMutability": "view",
			"type": "function"
		},
		{
			"inputs": [
				{
					"internalType": "uint256",
					"name": "tokenId",
					"type": "uint256"
				}
			],
			"name": "tokenURI",
			"outputs": [
				{
					"internalType": "string",
					"name": "",
					"type": "string"
				}
			],
			"stateMutability": "view",
			"type": "function"
		},
		{
			"inputs": [],
			"name": "totalSupply",
			"outputs": [
				{
					"internalType": "uint256",
					"name": "",
					"type": "uint256"
				}
			],
			"stateMutability": "view",
			"type": "function"
		},
		{
			"inputs": [
				{
					"internalType": "address",
					"name": "from",
					"type": "address"
				},
				{
					"internalType": "address",
					"name": "to",
					"type": "address"
				},
				{
					"internalType": "uint256",
					"name": "tokenId",
					"type": "uint256"
				}
			],
			"name": "transferFrom",
			"outputs": [],
			"stateMutability": "nonpayable",
			"type": "function"
		},
		{
			"inputs": [
				{
					"internalType": "address",
					"name": "newOwner",
					"type": "address"
				}
			],
			"name": "transferOwnership",
			"outputs": [],
			"stateMutability": "nonpayable",
			"type": "function"
		}
	]
}